{"abi":[{"type":"constructor","inputs":[{"name":"_priceUpdater","type":"address","internalType":"address"}],"stateMutability":"nonpayable"},{"type":"function","name":"ARBITRUM_COMPRESSION_PERCENT","inputs":[],"outputs":[{"name":"","type":"uint128","internalType":"uint128"}],"stateMutability":"view"},{"type":"function","name":"arbitrumPriceExt","inputs":[],"outputs":[{"name":"","type":"tuple","internalType":"struct ILayerZeroPriceFeed.ArbitrumPriceExt","components":[{"name":"gasPerL2Tx","type":"uint64","internalType":"uint64"},{"name":"gasPerL1CallDataByte","type":"uint32","internalType":"uint32"}]}],"stateMutability":"view"},{"type":"function","name":"endpoint","inputs":[],"outputs":[{"name":"","type":"address","internalType":"contract ILayerZeroEndpointV2"}],"stateMutability":"view"},{"type":"function","name":"estimateFeeByChain","inputs":[{"name":"_dstEid","type":"uint16","internalType":"uint16"},{"name":"_callDataSize","type":"uint256","internalType":"uint256"},{"name":"_gas","type":"uint256","internalType":"uint256"}],"outputs":[{"name":"fee","type":"uint256","internalType":"uint256"},{"name":"priceRatio","type":"uint128","internalType":"uint128"}],"stateMutability":"view"},{"type":"function","name":"estimateFeeByEid","inputs":[{"name":"_dstEid","type":"uint32","internalType":"uint32"},{"name":"_callDataSize","type":"uint256","internalType":"uint256"},{"name":"_gas","type":"uint256","internalType":"uint256"}],"outputs":[{"name":"","type":"uint256","internalType":"uint256"},{"name":"","type":"uint128","internalType":"uint128"},{"name":"","type":"uint128","internalType":"uint128"},{"name":"","type":"uint128","internalType":"uint128"}],"stateMutability":"view"},{"type":"function","name":"estimateFeeOnSend","inputs":[{"name":"_dstEid","type":"uint32","internalType":"uint32"},{"name":"_callDataSize","type":"uint256","internalType":"uint256"},{"name":"_gas","type":"uint256","internalType":"uint256"}],"outputs":[{"name":"","type":"uint256","internalType":"uint256"},{"name":"","type":"uint128","internalType":"uint128"},{"name":"","type":"uint128","internalType":"uint128"},{"name":"","type":"uint128","internalType":"uint128"}],"stateMutability":"payable"},{"type":"function","name":"getFee","inputs":[{"name":"","type":"uint32","internalType":"uint32"},{"name":"","type":"uint256","internalType":"uint256"},{"name":"","type":"uint256","internalType":"uint256"}],"outputs":[{"name":"","type":"uint256","internalType":"uint256"}],"stateMutability":"pure"},{"type":"function","name":"getPrice","inputs":[{"name":"_dstEid","type":"uint32","internalType":"uint32"}],"outputs":[{"name":"price","type":"tuple","internalType":"struct ILayerZeroPriceFeed.Price","components":[{"name":"priceRatio","type":"uint128","internalType":"uint128"},{"name":"gasPriceInUnit","type":"uint64","internalType":"uint64"},{"name":"gasPerByte","type":"uint32","internalType":"uint32"}]}],"stateMutability":"view"},{"type":"function","name":"getPrice","inputs":[{"name":"_dstEid","type":"uint16","internalType":"uint16"}],"outputs":[{"name":"price","type":"tuple","internalType":"struct ILayerZeroPriceFeed.Price","components":[{"name":"priceRatio","type":"uint128","internalType":"uint128"},{"name":"gasPriceInUnit","type":"uint64","internalType":"uint64"},{"name":"gasPerByte","type":"uint32","internalType":"uint32"}]}],"stateMutability":"view"},{"type":"function","name":"getPriceRatioDenominator","inputs":[],"outputs":[{"name":"","type":"uint128","internalType":"uint128"}],"stateMutability":"view"},{"type":"function","name":"nativeTokenPriceUSD","inputs":[],"outputs":[{"name":"","type":"uint128","internalType":"uint128"}],"stateMutability":"view"},{"type":"function","name":"owner","inputs":[],"outputs":[{"name":"","type":"address","internalType":"address"}],"stateMutability":"view"},{"type":"function","name":"priceUpdater","inputs":[{"name":"updater","type":"address","internalType":"address"}],"outputs":[{"name":"active","type":"bool","internalType":"bool"}],"stateMutability":"view"},{"type":"function","name":"renounceOwnership","inputs":[],"outputs":[],"stateMutability":"nonpayable"},{"type":"function","name":"setArbitrumCompressionPercent","inputs":[{"name":"_compressionPercent","type":"uint128","internalType":"uint128"}],"outputs":[],"stateMutability":"nonpayable"},{"type":"function","name":"setEndpoint","inputs":[{"name":"_endpoint","type":"address","internalType":"address"}],"outputs":[],"stateMutability":"nonpayable"},{"type":"function","name":"setNativeTokenPriceUSD","inputs":[{"name":"_nativeTokenPriceUSD","type":"uint128","internalType":"uint128"}],"outputs":[],"stateMutability":"nonpayable"},{"type":"function","name":"setPrice","inputs":[{"name":"_price","type":"tuple[]","internalType":"struct ILayerZeroPriceFeed.UpdatePrice[]","components":[{"name":"eid","type":"uint32","internalType":"uint32"},{"name":"price","type":"tuple","internalType":"struct ILayerZeroPriceFeed.Price","components":[{"name":"priceRatio","type":"uint128","internalType":"uint128"},{"name":"gasPriceInUnit","type":"uint64","internalType":"uint64"},{"name":"gasPerByte","type":"uint32","internalType":"uint32"}]}]}],"outputs":[],"stateMutability":"nonpayable"},{"type":"function","name":"setPriceForArbitrum","inputs":[{"name":"_update","type":"tuple","internalType":"struct ILayerZeroPriceFeed.UpdatePriceExt","components":[{"name":"eid","type":"uint32","internalType":"uint32"},{"name":"price","type":"tuple","internalType":"struct ILayerZeroPriceFeed.Price","components":[{"name":"priceRatio","type":"uint128","internalType":"uint128"},{"name":"gasPriceInUnit","type":"uint64","internalType":"uint64"},{"name":"gasPerByte","type":"uint32","internalType":"uint32"}]},{"name":"extend","type":"tuple","internalType":"struct ILayerZeroPriceFeed.ArbitrumPriceExt","components":[{"name":"gasPerL2Tx","type":"uint64","internalType":"uint64"},{"name":"gasPerL1CallDataByte","type":"uint32","internalType":"uint32"}]}]}],"outputs":[],"stateMutability":"nonpayable"},{"type":"function","name":"setPriceRatioDenominator","inputs":[{"name":"_denominator","type":"uint128","internalType":"uint128"}],"outputs":[],"stateMutability":"nonpayable"},{"type":"function","name":"setPriceUpdater","inputs":[{"name":"_addr","type":"address","internalType":"address"},{"name":"_active","type":"bool","internalType":"bool"}],"outputs":[],"stateMutability":"nonpayable"},{"type":"function","name":"transferOwnership","inputs":[{"name":"newOwner","type":"address","internalType":"address"}],"outputs":[],"stateMutability":"nonpayable"},{"type":"function","name":"withdrawFee","inputs":[{"name":"_to","type":"address","internalType":"address"},{"name":"_amount","type":"uint256","internalType":"uint256"}],"outputs":[],"stateMutability":"nonpayable"},{"type":"event","name":"OwnershipTransferred","inputs":[{"name":"previousOwner","type":"address","indexed":true,"internalType":"address"},{"name":"newOwner","type":"address","indexed":true,"internalType":"address"}],"anonymous":false},{"type":"error","name":"LZ_PriceFeed_InsufficientFee","inputs":[{"name":"provided","type":"uint256","internalType":"uint256"},{"name":"required","type":"uint256","internalType":"uint256"}]},{"type":"error","name":"LZ_PriceFeed_NotAnOPStack","inputs":[{"name":"l2Eid","type":"uint32","internalType":"uint32"}]},{"type":"error","name":"LZ_PriceFeed_OnlyPriceUpdater","inputs":[]},{"type":"error","name":"OwnableInvalidOwner","inputs":[{"name":"owner","type":"address","internalType":"address"}]},{"type":"error","name":"OwnableUnauthorizedAccount","inputs":[{"name":"account","type":"address","internalType":"address"}]},{"type":"error","name":"Transfer_NativeFailed","inputs":[{"name":"_to","type":"address","internalType":"address"},{"name":"_value","type":"uint256","internalType":"uint256"}]},{"type":"error","name":"Transfer_ToAddressIsZero","inputs":[]}],"bytecode":{"object":"0x608060405234801561000f575f80fd5b506040516200196d3803806200196d83398101604081905261003091610108565b338061005557604051631e4fbdf760e01b81525f600482015260240160405180910390fd5b61005e816100b9565b506001600160a01b03165f908152600260205260409020805460ff1916600190811790915580546001600160801b03191668056bc75e2d6310000017905560058054602f60801b6001600160801b0391909116179055610135565b5f80546001600160a01b038381166001600160a01b0319831681178455604051919092169283917f8be0079c531659141344cd1fd0a4f28419497f9722a3daafe3b4186f6b6457e09190a35050565b5f60208284031215610118575f80fd5b81516001600160a01b038116811461012e575f80fd5b9392505050565b61182a80620001435f395ff3fe608060405260043610610178575f3560e01c80638ca2fb08116100d1578063d350ad251161007c578063e0ad121a11610057578063e0ad121a14610607578063f2fde38b146106ba578063fd9be522146106d9575f80fd5b8063d350ad25146104d4578063da26663a146104f3578063dbbb4155146105e8575f80fd5b8063c1723a1d116100ac578063c1723a1d1461045f578063c184032714610472578063cd68b79b14610498575f80fd5b80638ca2fb08146103b55780638da5cb5b146103f357806392807f581461041c575f80fd5b80635d6d7ccb116101315780637bc3c9ab1161010c5780637bc3c9ab146102fa5780637dc438a41461033f57806388a4124c1461035e575f80fd5b80635d6d7ccb146102765780635e280f1114610295578063715018a6146102e6575f80fd5b80633161b7f6116101615780633161b7f6146101d257806336a5beba146101f157806352a7251014610257575f80fd5b806311f2c3431461017c5780632f7cb0b4146101b1575b5f80fd5b348015610187575f80fd5b5061019e61019636600461145a565b5f9392505050565b6040519081526020015b60405180910390f35b3480156101bc575f80fd5b506101d06101cb3660046114a9565b6106f8565b005b3480156101dd575f80fd5b506101d06101ec3660046114c9565b610735565b3480156101fc575f80fd5b506040805180820182525f8082526020918201528151808301835260045467ffffffffffffffff811680835263ffffffff680100000000000000009092048216928401928352845190815291511691810191909152016101a8565b348015610262575f80fd5b506101d061027136600461155b565b610901565b348015610281575f80fd5b506101d06102903660046114a9565b61095e565b3480156102a0575f80fd5b506006546102c19073ffffffffffffffffffffffffffffffffffffffff1681565b60405173ffffffffffffffffffffffffffffffffffffffff90911681526020016101a8565b3480156102f1575f80fd5b506101d0610a23565b348015610305575f80fd5b506103196103143660046115a5565b610a36565b604080519283526fffffffffffffffffffffffffffffffff9091166020830152016101a8565b34801561034a575f80fd5b506101d06103593660046115c0565b610ad0565b348015610369575f80fd5b5061037d61037836600461145a565b610bd9565b604080519485526fffffffffffffffffffffffffffffffff9384166020860152918316918401919091521660608201526080016101a8565b3480156103c0575f80fd5b506103e36103cf3660046115d6565b60026020525f908152604090205460ff1681565b60405190151581526020016101a8565b3480156103fe575f80fd5b505f5473ffffffffffffffffffffffffffffffffffffffff166102c1565b348015610427575f80fd5b506005546fffffffffffffffffffffffffffffffff165b6040516fffffffffffffffffffffffffffffffff90911681526020016101a8565b61037d61046d36600461145a565b610bf9565b34801561047d575f80fd5b506001546fffffffffffffffffffffffffffffffff1661043e565b3480156104a3575f80fd5b5060055461043e9070010000000000000000000000000000000090046fffffffffffffffffffffffffffffffff1681565b3480156104df575f80fd5b506101d06104ee3660046114a9565b610c29565b3480156104fe575f80fd5b506105a461050d3660046115ef565b60408051606080820183525f808352602080840182905292840181905263ffffffff94851681526003835283902083519182018452546fffffffffffffffffffffffffffffffff81168252700100000000000000000000000000000000810467ffffffffffffffff169282019290925278010000000000000000000000000000000000000000000000009091049092169082015290565b6040805182516fffffffffffffffffffffffffffffffff16815260208084015167ffffffffffffffff16908201529181015163ffffffff16908201526060016101a8565b3480156105f3575f80fd5b506101d06106023660046115d6565b610c74565b348015610612575f80fd5b506105a4610621366004611608565b60408051606080820183525f808352602080840182905292840181905261ffff949094168452600382529282902082519384018352546fffffffffffffffffffffffffffffffff8116845267ffffffffffffffff700100000000000000000000000000000000820416918401919091527801000000000000000000000000000000000000000000000000900463ffffffff169082015290565b3480156106c5575f80fd5b506101d06106d43660046115d6565b610cc3565b3480156106e4575f80fd5b506101d06106f3366004611621565b610d26565b610700610d3c565b600580546fffffffffffffffffffffffffffffffff928316700100000000000000000000000000000000029216919091179055565b336107545f5473ffffffffffffffffffffffffffffffffffffffff1690565b73ffffffffffffffffffffffffffffffffffffffff16146107b757335f9081526002602052604090205460ff166107b7576040517f320ae52900000000000000000000000000000000000000000000000000000000815260040160405180910390fd5b5f5b818110156108fc57368383838181106107d4576107d4611649565b6080029190910191506108f390506107ef60208301836115ef565b6108013684900384016020850161168d565b805160208083015160409384015184516060810186526fffffffffffffffffffffffffffffffff948516815267ffffffffffffffff92831681850190815263ffffffff9283168288019081529783165f908152600390955295909320925183549551965194167fffffffffffffffff000000000000000000000000000000000000000000000000909516949094177001000000000000000000000000000000009590911694909402939093177fffffffff00000000ffffffffffffffffffffffffffffffffffffffffffffffff1678010000000000000000000000000000000000000000000000009190921602179055565b506001016107b9565b505050565b610909610d3c565b73ffffffffffffffffffffffffffffffffffffffff919091165f90815260026020526040902080547fffffffffffffffffffffffffffffffffffffffffffffffffffffffffffffff0016911515919091179055565b3361097d5f5473ffffffffffffffffffffffffffffffffffffffff1690565b73ffffffffffffffffffffffffffffffffffffffff16146109e057335f9081526002602052604090205460ff166109e0576040517f320ae52900000000000000000000000000000000000000000000000000000000815260040160405180910390fd5b600580547fffffffffffffffffffffffffffffffff00000000000000000000000000000000166fffffffffffffffffffffffffffffffff92909216919091179055565b610a2b610d3c565b610a345f610d8e565b565b5f808461ffff16606e1480610a5057508461ffff1661279f145b80610a6057508461ffff16614eaf145b15610a7d57610a748561ffff168585610e02565b91509150610ac8565b8461ffff16606f1480610a9557508461ffff16612794145b80610aa557508461ffff16614ea4145b15610ab957610a748561ffff168585610f5c565b610a748561ffff168585611104565b935093915050565b33610aef5f5473ffffffffffffffffffffffffffffffffffffffff1690565b73ffffffffffffffffffffffffffffffffffffffff1614610b5257335f9081526002602052604090205460ff16610b52576040517f320ae52900000000000000000000000000000000000000000000000000000000815260040160405180910390fd5b610b626107ef60208301836115ef565b5f610b7360a083016080840161171c565b90505f610b8660c0840160a085016115ef565b6004805463ffffffff90921668010000000000000000027fffffffffffffffffffffffffffffffffffffffff00000000000000000000000090921667ffffffffffffffff90941693909317179091555050565b5f805f80610be88787876111d7565b935093509350935093509350935093565b5f80808080610c0c565b60405180910390fd5b610c178888886111d7565b94509450945094505093509350935093565b610c31610d3c565b600180547fffffffffffffffffffffffffffffffff00000000000000000000000000000000166fffffffffffffffffffffffffffffffff92909216919091179055565b610c7c610d3c565b600680547fffffffffffffffffffffffff00000000000000000000000000000000000000001673ffffffffffffffffffffffffffffffffffffffff92909216919091179055565b610ccb610d3c565b73ffffffffffffffffffffffffffffffffffffffff8116610d1a576040517f1e4fbdf70000000000000000000000000000000000000000000000000000000081525f6004820152602401610c03565b610d2381610d8e565b50565b610d2e610d3c565b610d3882826112ad565b5050565b5f5473ffffffffffffffffffffffffffffffffffffffff163314610a34576040517f118cdaa7000000000000000000000000000000000000000000000000000000008152336004820152602401610c03565b5f805473ffffffffffffffffffffffffffffffffffffffff8381167fffffffffffffffffffffffff0000000000000000000000000000000000000000831681178455604051919092169283917f8be0079c531659141344cd1fd0a4f28419497f9722a3daafe3b4186f6b6457e09190a35050565b63ffffffff8381165f90815260036020526040812060045460055492938493849268010000000000000000900490911690606490610e669070010000000000000000000000000000000090046fffffffffffffffffffffffffffffffff1689611762565b610e7091906117ac565b610e7a9190611762565b82549091505f90610ead907801000000000000000000000000000000000000000000000000900463ffffffff1688611762565b83546004549192505f9167ffffffffffffffff70010000000000000000000000000000000090920482169184918691610ee791168b6117bf565b610ef191906117bf565b610efb91906117bf565b610f059190611762565b60015485549192506fffffffffffffffffffffffffffffffff90811691610f2d911683611762565b610f3791906117ac565b935493996fffffffffffffffffffffffffffffffff9094169850929650505050505050565b5f805f610f68866113af565b63ffffffff8082165f9081526003602052604081208054939450929091610fac91780100000000000000000000000000000000000000000000000090041688611762565b610fb890610c746117bf565b82549091505f90610fe790700100000000000000000000000000000000900467ffffffffffffffff1683611762565b63ffffffff808b165f908152600360205260408120805493945092909161102b9178010000000000000000000000000000000000000000000000009004168b611762565b82549091505f90700100000000000000000000000000000000900467ffffffffffffffff1661105a8b846117bf565b6110649190611762565b60015487549192505f916fffffffffffffffffffffffffffffffff9182169161108e911687611762565b61109891906117ac565b60015485549192505f916fffffffffffffffffffffffffffffffff918216916110c2911685611762565b6110cc91906117ac565b90505f6110d982846117bf565b9554959f6fffffffffffffffffffffffffffffffff9096169e50949c50505050505050505050505050565b63ffffffff8084165f908152600360205260408120805491928392839161114891780100000000000000000000000000000000000000000000000090041687611762565b82549091505f90700100000000000000000000000000000000900467ffffffffffffffff1661117787846117bf565b6111819190611762565b60015484549192506fffffffffffffffffffffffffffffffff908116916111a9911683611762565b6111b391906117ac565b925492986fffffffffffffffffffffffffffffffff90931697509195505050505050565b5f808080806111e8617530896117d2565b90508063ffffffff16606e148061120657508063ffffffff1661279f145b8061121857508063ffffffff16614eaf145b1561123257611228818888610e02565b9095509350611281565b8063ffffffff16606f148061124e57508063ffffffff16612794145b8061126057508063ffffffff16614ea4145b1561127057611228818888610f5c565b61127b818888611104565b90955093505b505060015460055493979296506fffffffffffffffffffffffffffffffff908116955090921692509050565b73ffffffffffffffffffffffffffffffffffffffff82166112fa576040517f6b7a931000000000000000000000000000000000000000000000000000000000815260040160405180910390fd5b5f8273ffffffffffffffffffffffffffffffffffffffff16826040515f6040518083038185875af1925050503d805f8114611350576040519150601f19603f3d011682016040523d82523d5f602084013e611355565b606091505b50509050806108fc576040517f465bc83400000000000000000000000000000000000000000000000000000000815273ffffffffffffffffffffffffffffffffffffffff8416600482015260248101839052604401610c03565b5f806113bd617530846117d2565b90508063ffffffff16606f036113d65750606592915050565b8063ffffffff16612794036113ef575061278992915050565b8063ffffffff16614ea4036114085750614e9992915050565b6040517ff42c33dc00000000000000000000000000000000000000000000000000000000815263ffffffff82166004820152602401610c03565b803563ffffffff81168114611455575f80fd5b919050565b5f805f6060848603121561146c575f80fd5b61147584611442565b95602085013595506040909401359392505050565b80356fffffffffffffffffffffffffffffffff81168114611455575f80fd5b5f602082840312156114b9575f80fd5b6114c28261148a565b9392505050565b5f80602083850312156114da575f80fd5b823567ffffffffffffffff808211156114f1575f80fd5b818501915085601f830112611504575f80fd5b813581811115611512575f80fd5b8660208260071b8501011115611526575f80fd5b60209290920196919550909350505050565b803573ffffffffffffffffffffffffffffffffffffffff81168114611455575f80fd5b5f806040838503121561156c575f80fd5b61157583611538565b915060208301358015158114611589575f80fd5b809150509250929050565b803561ffff81168114611455575f80fd5b5f805f606084860312156115b7575f80fd5b61147584611594565b5f60c082840312156115d0575f80fd5b50919050565b5f602082840312156115e6575f80fd5b6114c282611538565b5f602082840312156115ff575f80fd5b6114c282611442565b5f60208284031215611618575f80fd5b6114c282611594565b5f8060408385031215611632575f80fd5b61163b83611538565b946020939093013593505050565b7f4e487b71000000000000000000000000000000000000000000000000000000005f52603260045260245ffd5b803567ffffffffffffffff81168114611455575f80fd5b5f6060828403121561169d575f80fd5b6040516060810181811067ffffffffffffffff821117156116e5577f4e487b71000000000000000000000000000000000000000000000000000000005f52604160045260245ffd5b6040526116f18361148a565b81526116ff60208401611676565b602082015261171060408401611442565b60408201529392505050565b5f6020828403121561172c575f80fd5b6114c282611676565b7f4e487b71000000000000000000000000000000000000000000000000000000005f52601160045260245ffd5b808202811582820484141761177957611779611735565b92915050565b7f4e487b71000000000000000000000000000000000000000000000000000000005f52601260045260245ffd5b5f826117ba576117ba61177f565b500490565b8082018082111561177957611779611735565b5f63ffffffff808416806117e8576117e861177f565b9216919091069291505056fea2646970667358221220888f93b9a3a606875421287a27f76de90082f482112941e0008e85803db204bb64736f6c63430008160033","linkReferences":{}},"methodIdentifiers":{"ARBITRUM_COMPRESSION_PERCENT()":"cd68b79b","arbitrumPriceExt()":"36a5beba","endpoint()":"5e280f11","estimateFeeByChain(uint16,uint256,uint256)":"7bc3c9ab","estimateFeeByEid(uint32,uint256,uint256)":"88a4124c","estimateFeeOnSend(uint32,uint256,uint256)":"c1723a1d","getFee(uint32,uint256,uint256)":"11f2c343","getPrice(uint16)":"e0ad121a","getPrice(uint32)":"da26663a","getPriceRatioDenominator()":"c1840327","nativeTokenPriceUSD()":"92807f58","owner()":"8da5cb5b","priceUpdater(address)":"8ca2fb08","renounceOwnership()":"715018a6","setArbitrumCompressionPercent(uint128)":"2f7cb0b4","setEndpoint(address)":"dbbb4155","setNativeTokenPriceUSD(uint128)":"5d6d7ccb","setPrice((uint32,(uint128,uint64,uint32))[])":"3161b7f6","setPriceForArbitrum((uint32,(uint128,uint64,uint32),(uint64,uint32)))":"7dc438a4","setPriceRatioDenominator(uint128)":"d350ad25","setPriceUpdater(address,bool)":"52a72510","transferOwnership(address)":"f2fde38b","withdrawFee(address,uint256)":"fd9be522"},"id":92}