{
  "abi": [
    {
      "type": "constructor",
      "inputs": [
        {
          "name": "_vault",
          "type": "address",
          "internalType": "address"
        },
        {
          "name": "_assetOFT",
          "type": "address",
          "internalType": "address"
        },
        {
          "name": "_shareOFT",
          "type": "address",
          "internalType": "address"
        }
      ],
      "stateMutability": "nonpayable"
    },
    {
      "type": "receive",
      "stateMutability": "payable"
    },
    {
      "type": "function",
      "name": "ASSET_ERC20",
      "inputs": [],
      "outputs": [
        {
          "name": "",
          "type": "address",
          "internalType": "address"
        }
      ],
      "stateMutability": "view"
    },
    {
      "type": "function",
      "name": "ASSET_OFT",
      "inputs": [],
      "outputs": [
        {
          "name": "",
          "type": "address",
          "internalType": "address"
        }
      ],
      "stateMutability": "view"
    },
    {
      "type": "function",
      "name": "ENDPOINT",
      "inputs": [],
      "outputs": [
        {
          "name": "",
          "type": "address",
          "internalType": "address"
        }
      ],
      "stateMutability": "view"
    },
    {
      "type": "function",
      "name": "SHARE_ERC20",
      "inputs": [],
      "outputs": [
        {
          "name": "",
          "type": "address",
          "internalType": "address"
        }
      ],
      "stateMutability": "view"
    },
    {
      "type": "function",
      "name": "SHARE_OFT",
      "inputs": [],
      "outputs": [
        {
          "name": "",
          "type": "address",
          "internalType": "address"
        }
      ],
      "stateMutability": "view"
    },
    {
      "type": "function",
      "name": "VAULT",
      "inputs": [],
      "outputs": [
        {
          "name": "",
          "type": "address",
          "internalType": "contract IERC4626"
        }
      ],
      "stateMutability": "view"
    },
    {
      "type": "function",
      "name": "VAULT_EID",
      "inputs": [],
      "outputs": [
        {
          "name": "",
          "type": "uint32",
          "internalType": "uint32"
        }
      ],
      "stateMutability": "view"
    },
    {
      "type": "function",
      "name": "depositAndSend",
      "inputs": [
        {
          "name": "_assetAmount",
          "type": "uint256",
          "internalType": "uint256"
        },
        {
          "name": "_sendParam",
          "type": "tuple",
          "internalType": "struct SendParam",
          "components": [
            {
              "name": "dstEid",
              "type": "uint32",
              "internalType": "uint32"
            },
            {
              "name": "to",
              "type": "bytes32",
              "internalType": "bytes32"
            },
            {
              "name": "amountLD",
              "type": "uint256",
              "internalType": "uint256"
            },
            {
              "name": "minAmountLD",
              "type": "uint256",
              "internalType": "uint256"
            },
            {
              "name": "extraOptions",
              "type": "bytes",
              "internalType": "bytes"
            },
            {
              "name": "composeMsg",
              "type": "bytes",
              "internalType": "bytes"
            },
            {
              "name": "oftCmd",
              "type": "bytes",
              "internalType": "bytes"
            }
          ]
        },
        {
          "name": "_refundAddress",
          "type": "address",
          "internalType": "address"
        }
      ],
      "outputs": [],
      "stateMutability": "payable"
    },
    {
      "type": "function",
      "name": "handleCompose",
      "inputs": [
        {
          "name": "_oftIn",
          "type": "address",
          "internalType": "address"
        },
        {
          "name": "_composeFrom",
          "type": "bytes32",
          "internalType": "bytes32"
        },
        {
          "name": "_composeMsg",
          "type": "bytes",
          "internalType": "bytes"
        },
        {
          "name": "_amount",
          "type": "uint256",
          "internalType": "uint256"
        }
      ],
      "outputs": [],
      "stateMutability": "payable"
    },
    {
      "type": "function",
      "name": "lzCompose",
      "inputs": [
        {
          "name": "_composeSender",
          "type": "address",
          "internalType": "address"
        },
        {
          "name": "_guid",
          "type": "bytes32",
          "internalType": "bytes32"
        },
        {
          "name": "_message",
          "type": "bytes",
          "internalType": "bytes"
        },
        {
          "name": "",
          "type": "address",
          "internalType": "address"
        },
        {
          "name": "",
          "type": "bytes",
          "internalType": "bytes"
        }
      ],
      "outputs": [],
      "stateMutability": "payable"
    },
    {
      "type": "function",
      "name": "quoteSend",
      "inputs": [
        {
          "name": "_from",
          "type": "address",
          "internalType": "address"
        },
        {
          "name": "_targetOFT",
          "type": "address",
          "internalType": "address"
        },
        {
          "name": "_vaultInAmount",
          "type": "uint256",
          "internalType": "uint256"
        },
        {
          "name": "_sendParam",
          "type": "tuple",
          "internalType": "struct SendParam",
          "components": [
            {
              "name": "dstEid",
              "type": "uint32",
              "internalType": "uint32"
            },
            {
              "name": "to",
              "type": "bytes32",
              "internalType": "bytes32"
            },
            {
              "name": "amountLD",
              "type": "uint256",
              "internalType": "uint256"
            },
            {
              "name": "minAmountLD",
              "type": "uint256",
              "internalType": "uint256"
            },
            {
              "name": "extraOptions",
              "type": "bytes",
              "internalType": "bytes"
            },
            {
              "name": "composeMsg",
              "type": "bytes",
              "internalType": "bytes"
            },
            {
              "name": "oftCmd",
              "type": "bytes",
              "internalType": "bytes"
            }
          ]
        }
      ],
      "outputs": [
        {
          "name": "",
          "type": "tuple",
          "internalType": "struct MessagingFee",
          "components": [
            {
              "name": "nativeFee",
              "type": "uint256",
              "internalType": "uint256"
            },
            {
              "name": "lzTokenFee",
              "type": "uint256",
              "internalType": "uint256"
            }
          ]
        }
      ],
      "stateMutability": "view"
    },
    {
      "type": "function",
      "name": "redeemAndSend",
      "inputs": [
        {
          "name": "_shareAmount",
          "type": "uint256",
          "internalType": "uint256"
        },
        {
          "name": "_sendParam",
          "type": "tuple",
          "internalType": "struct SendParam",
          "components": [
            {
              "name": "dstEid",
              "type": "uint32",
              "internalType": "uint32"
            },
            {
              "name": "to",
              "type": "bytes32",
              "internalType": "bytes32"
            },
            {
              "name": "amountLD",
              "type": "uint256",
              "internalType": "uint256"
            },
            {
              "name": "minAmountLD",
              "type": "uint256",
              "internalType": "uint256"
            },
            {
              "name": "extraOptions",
              "type": "bytes",
              "internalType": "bytes"
            },
            {
              "name": "composeMsg",
              "type": "bytes",
              "internalType": "bytes"
            },
            {
              "name": "oftCmd",
              "type": "bytes",
              "internalType": "bytes"
            }
          ]
        },
        {
          "name": "_refundAddress",
          "type": "address",
          "internalType": "address"
        }
      ],
      "outputs": [],
      "stateMutability": "payable"
    },
    {
      "type": "event",
      "name": "Refunded",
      "inputs": [
        {
          "name": "guid",
          "type": "bytes32",
          "indexed": true,
          "internalType": "bytes32"
        }
      ],
      "anonymous": false
    },
    {
      "type": "event",
      "name": "Sent",
      "inputs": [
        {
          "name": "guid",
          "type": "bytes32",
          "indexed": true,
          "internalType": "bytes32"
        }
      ],
      "anonymous": false
    },
    {
      "type": "error",
      "name": "AssetTokenNotVaultAsset",
      "inputs": [
        {
          "name": "assetERC20",
          "type": "address",
          "internalType": "address"
        },
        {
          "name": "vaultAsset",
          "type": "address",
          "internalType": "address"
        }
      ]
    },
    {
      "type": "error",
      "name": "ERC4626ExceededMaxDeposit",
      "inputs": [
        {
          "name": "receiver",
          "type": "address",
          "internalType": "address"
        },
        {
          "name": "assets",
          "type": "uint256",
          "internalType": "uint256"
        },
        {
          "name": "max",
          "type": "uint256",
          "internalType": "uint256"
        }
      ]
    },
    {
      "type": "error",
      "name": "ERC4626ExceededMaxRedeem",
      "inputs": [
        {
          "name": "owner",
          "type": "address",
          "internalType": "address"
        },
        {
          "name": "shares",
          "type": "uint256",
          "internalType": "uint256"
        },
        {
          "name": "max",
          "type": "uint256",
          "internalType": "uint256"
        }
      ]
    },
    {
      "type": "error",
      "name": "InsufficientMsgValue",
      "inputs": [
        {
          "name": "expectedMsgValue",
          "type": "uint256",
          "internalType": "uint256"
        },
        {
          "name": "actualMsgValue",
          "type": "uint256",
          "internalType": "uint256"
        }
      ]
    },
    {
      "type": "error",
      "name": "NoMsgValueExpected",
      "inputs": []
    },
    {
      "type": "error",
      "name": "OnlyEndpoint",
      "inputs": [
        {
          "name": "caller",
          "type": "address",
          "internalType": "address"
        }
      ]
    },
    {
      "type": "error",
      "name": "OnlySelf",
      "inputs": [
        {
          "name": "caller",
          "type": "address",
          "internalType": "address"
        }
      ]
    },
    {
      "type": "error",
      "name": "OnlyValidComposeCaller",
      "inputs": [
        {
          "name": "caller",
          "type": "address",
          "internalType": "address"
        }
      ]
    },
    {
      "type": "error",
      "name": "ReentrancyGuardReentrantCall",
      "inputs": []
    },
    {
      "type": "error",
      "name": "SafeERC20FailedOperation",
      "inputs": [
        {
          "name": "token",
          "type": "address",
          "internalType": "address"
        }
      ]
    },
    {
      "type": "error",
      "name": "ShareOFTNotAdapter",
      "inputs": [
        {
          "name": "shareOFT",
          "type": "address",
          "internalType": "address"
        }
      ]
    },
    {
      "type": "error",
      "name": "ShareTokenNotVault",
      "inputs": [
        {
          "name": "shareERC20",
          "type": "address",
          "internalType": "address"
        },
        {
          "name": "vault",
          "type": "address",
          "internalType": "address"
        }
      ]
    },
    {
      "type": "error",
      "name": "SlippageExceeded",
      "inputs": [
        {
          "name": "amountLD",
          "type": "uint256",
          "internalType": "uint256"
        },
        {
          "name": "minAmountLD",
          "type": "uint256",
          "internalType": "uint256"
        }
      ]
    }
  ],
  "bytecode": {
    "object": "0x61016060405234801562000011575f80fd5b50604051620024be380380620024be833981016040819052620000349162000608565b60015f556001600160a01b03808416608052821660a081905260408051637e062a3560e11b8152905163fc0c546a916004808201926020929091908290030181865afa15801562000087573d5f803e3d5ffd5b505050506040513d601f19601f82011682018060405250810190620000ad919062000659565b6001600160a01b0390811660c052811660e081905260408051637e062a3560e11b8152905163fc0c546a916004808201926020929091908290030181865afa158015620000fc573d5f803e3d5ffd5b505050506040513d601f19601f8201168201806040525081019062000122919062000659565b6001600160a01b0316610100816001600160a01b03168152505060a0516001600160a01b0316635e280f116040518163ffffffff1660e01b8152600401602060405180830381865afa1580156200017b573d5f803e3d5ffd5b505050506040513d601f19601f82011682018060405250810190620001a1919062000659565b6001600160a01b03166101208190526040805163416ecebf60e01b8152905163416ecebf916004808201926020929091908290030181865afa158015620001ea573d5f803e3d5ffd5b505050506040513d601f19601f820116820180604052508101906200021091906200067e565b63ffffffff1661014052608051610100516001600160a01b039081169116146200026c576101005160805160405163070bc55b60e11b81526001600160a01b039283166004820152911660248201526044015b60405180910390fd5b6080516001600160a01b03166338d52e0f6040518163ffffffff1660e01b8152600401602060405180830381865afa158015620002ab573d5f803e3d5ffd5b505050506040513d601f19601f82011682018060405250810190620002d1919062000659565b6001600160a01b031660c0516001600160a01b031614620003815760c0516080516001600160a01b03166338d52e0f6040518163ffffffff1660e01b8152600401602060405180830381865afa1580156200032e573d5f803e3d5ffd5b505050506040513d601f19601f8201168201806040525081019062000354919062000659565b60405163ba9d665f60e01b81526001600160a01b0392831660048201529116602482015260440162000263565b60e0516001600160a01b0316639f68b9646040518163ffffffff1660e01b8152600401602060405180830381865afa158015620003c0573d5f803e3d5ffd5b505050506040513d601f19601f82011682018060405250810190620003e69190620006a3565b620004145760e051604051637e0a8a5760e11b81526001600160a01b03909116600482015260240162000263565b60c05160405163095ea7b360e01b81526001600160a01b0385811660048301525f1960248301529091169063095ea7b3906044016020604051808303815f875af115801562000465573d5f803e3d5ffd5b505050506040513d601f19601f820116820180604052508101906200048b9190620006a3565b506101005160405163095ea7b360e01b81526001600160a01b0383811660048301525f1960248301529091169063095ea7b3906044016020604051808303815f875af1158015620004de573d5f803e3d5ffd5b505050506040513d601f19601f82011682018060405250810190620005049190620006a3565b50816001600160a01b0316639f68b9646040518163ffffffff1660e01b8152600401602060405180830381865afa15801562000542573d5f803e3d5ffd5b505050506040513d601f19601f82011682018060405250810190620005689190620006a3565b15620005e75760c05160405163095ea7b360e01b81526001600160a01b0384811660048301525f1960248301529091169063095ea7b3906044016020604051808303815f875af1158015620005bf573d5f803e3d5ffd5b505050506040513d601f19601f82011682018060405250810190620005e59190620006a3565b505b505050620006c4565b6001600160a01b038116811462000605575f80fd5b50565b5f805f606084860312156200061b575f80fd5b83516200062881620005f0565b60208501519093506200063b81620005f0565b60408501519092506200064e81620005f0565b809150509250925092565b5f602082840312156200066a575f80fd5b81516200067781620005f0565b9392505050565b5f602082840312156200068f575f80fd5b815163ffffffff8116811462000677575f80fd5b5f60208284031215620006b4575f80fd5b8151801515811462000677575f80fd5b60805160a05160c05160e051610100516101205161014051611d246200079a5f395f81816102a5015261111301525f8181610200015261096b01525f818161027201528181610375015261119101525f818161018701528181610a1d0152610d4d01525f81816101540152818161031101526111b701525f818160e2015281816103be015281816108dd015281816109c601528181610da7015261113e01525f81816101ba015281816104560152818161055701528181610627015281816107230152818161104201526113290152611d245ff3fe6080604052600436106100c6575f3560e01c80636fad06f511610071578063a99ecc541161004c578063a99ecc5414610261578063aa72fe3f14610294578063d0a10260146102dc575f80fd5b80636fad06f5146101ef5780637e6e1e10146102225780639a6b198c1461024e575f80fd5b8063369caf83116100a1578063369caf8314610176578063411557d1146101a957806353174fa4146101dc575f80fd5b80630bfec755146100d157806319197ec61461012e5780631df34fa314610143575f80fd5b366100cd57005b5f80fd5b3480156100dc575f80fd5b506101047f000000000000000000000000000000000000000000000000000000000000000081565b60405173ffffffffffffffffffffffffffffffffffffffff90911681526020015b60405180910390f35b61014161013c36600461160e565b6102ef565b005b34801561014e575f80fd5b506101047f000000000000000000000000000000000000000000000000000000000000000081565b348015610181575f80fd5b506101047f000000000000000000000000000000000000000000000000000000000000000081565b3480156101b4575f80fd5b506101047f000000000000000000000000000000000000000000000000000000000000000081565b6101416101ea36600461160e565b610353565b3480156101fa575f80fd5b506101047f000000000000000000000000000000000000000000000000000000000000000081565b34801561022d575f80fd5b5061024161023c366004611661565b6103a9565b60405161012591906116c5565b61014161025c3660046116dc565b610843565b34801561026c575f80fd5b506101047f000000000000000000000000000000000000000000000000000000000000000081565b34801561029f575f80fd5b506102c77f000000000000000000000000000000000000000000000000000000000000000081565b60405163ffffffff9091168152602001610125565b6101416102ea36600461177c565b610953565b6102f7610c50565b61033973ffffffffffffffffffffffffffffffffffffffff7f000000000000000000000000000000000000000000000000000000000000000016333086610c91565b61034533848484610d20565b61034e60015f55565b505050565b61035b610c50565b61039d73ffffffffffffffffffffffffffffffffffffffff7f000000000000000000000000000000000000000000000000000000000000000016333086610c91565b61034533848484610d7a565b604080518082019091525f80825260208201527f000000000000000000000000000000000000000000000000000000000000000073ffffffffffffffffffffffffffffffffffffffff168473ffffffffffffffffffffffffffffffffffffffff16036105e0576040517fd905777e00000000000000000000000000000000000000000000000000000000815273ffffffffffffffffffffffffffffffffffffffff86811660048301525f917f00000000000000000000000000000000000000000000000000000000000000009091169063d905777e90602401602060405180830381865afa15801561049d573d5f803e3d5ffd5b505050506040513d601f19601f820116820180604052508101906104c19190611813565b905080841115610528576040517fb94abeec00000000000000000000000000000000000000000000000000000000815273ffffffffffffffffffffffffffffffffffffffff8716600482015260248101859052604481018290526064015b60405180910390fd5b6040517f4cdad506000000000000000000000000000000000000000000000000000000008152600481018590527f000000000000000000000000000000000000000000000000000000000000000073ffffffffffffffffffffffffffffffffffffffff1690634cdad50690602401602060405180830381865afa1580156105b1573d5f803e3d5ffd5b505050506040513d601f19601f820116820180604052508101906105d59190611813565b6040840152506107a8565b6040517f402d267d00000000000000000000000000000000000000000000000000000000815273ffffffffffffffffffffffffffffffffffffffff86811660048301525f917f00000000000000000000000000000000000000000000000000000000000000009091169063402d267d90602401602060405180830381865afa15801561066e573d5f803e3d5ffd5b505050506040513d601f19601f820116820180604052508101906106929190611813565b9050808411156106f4576040517f79012fb200000000000000000000000000000000000000000000000000000000815273ffffffffffffffffffffffffffffffffffffffff87166004820152602481018590526044810182905260640161051f565b6040517fef8b30f7000000000000000000000000000000000000000000000000000000008152600481018590527f000000000000000000000000000000000000000000000000000000000000000073ffffffffffffffffffffffffffffffffffffffff169063ef8b30f790602401602060405180830381865afa15801561077d573d5f803e3d5ffd5b505050506040513d601f19601f820116820180604052508101906107a19190611813565b6040840152505b6040517f3b6f743b00000000000000000000000000000000000000000000000000000000815273ffffffffffffffffffffffffffffffffffffffff851690633b6f743b906107fc9085905f9060040161190a565b6040805180830381865afa158015610816573d5f803e3d5ffd5b505050506040513d601f19601f8201168201806040525081019061083a919061197a565b95945050505050565b33301461087e576040517fa19dbf0000000000000000000000000000000000000000000000000000000000815233600482015260240161051f565b5f808380602001905181019061089491906119e9565b91509150803410156108db576040517f7cb769dc0000000000000000000000000000000000000000000000000000000081526004810182905234602482015260440161051f565b7f000000000000000000000000000000000000000000000000000000000000000073ffffffffffffffffffffffffffffffffffffffff168673ffffffffffffffffffffffffffffffffffffffff160361093f5761093a85848432610d20565b61094b565b61094b85848432610d7a565b505050505050565b3373ffffffffffffffffffffffffffffffffffffffff7f000000000000000000000000000000000000000000000000000000000000000016146109c4576040517f91ac5e4f00000000000000000000000000000000000000000000000000000000815233600482015260240161051f565b7f000000000000000000000000000000000000000000000000000000000000000073ffffffffffffffffffffffffffffffffffffffff168773ffffffffffffffffffffffffffffffffffffffff1614158015610a6c57507f000000000000000000000000000000000000000000000000000000000000000073ffffffffffffffffffffffffffffffffffffffff168773ffffffffffffffffffffffffffffffffffffffff1614155b15610abb576040517f84fb3f0d00000000000000000000000000000000000000000000000000000000815273ffffffffffffffffffffffffffffffffffffffff8816600482015260240161051f565b5f610ac68686610dcd565b90505f610ad38787610dee565b90505f610ae08888610dfd565b6040517f9a6b198c0000000000000000000000000000000000000000000000000000000081529091503090639a6b198c903490610b27908e90889087908990600401611ad0565b5f604051808303818588803b158015610b3e575f80fd5b505af193505050508015610b50575060015b610c19573d808015610b7d576040519150601f19603f3d011682016040523d82523d5f602084013e610b82565b606091505b507f7cb769dc00000000000000000000000000000000000000000000000000000000610bad82611b15565b7fffffffff000000000000000000000000000000000000000000000000000000001603610bdc57805181602001fd5b610be98b8a8a8632610e47565b6040518a907ffe509803c09416b28ff3d8f690c8b0c61462a892c46d5430c8fb20abe472daf0905f90a250610c44565b60405189907f27b5aea9f5736c02241d8a0272e9ec988ea44cf85c4b4760329431aa19678394905f90a25b50505050505050505050565b60025f5403610c8b576040517f3ee5aeb500000000000000000000000000000000000000000000000000000000815260040160405180910390fd5b60025f55565b60405173ffffffffffffffffffffffffffffffffffffffff8481166024830152838116604483015260648201839052610d1a9186918216906323b872dd906084015b604051602081830303815290604052915060e01b6020820180517bffffffffffffffffffffffffffffffffffffffffffffffffffffffff8381831617835250505050610f6c565b50505050565b5f610d2b858561100b565b9050610d3b8184606001516110c2565b604083018190525f6060840152610d737f0000000000000000000000000000000000000000000000000000000000000000848461110a565b5050505050565b5f610d8585856112eb565b9050610d958184606001516110c2565b604083018190525f6060840152610d737f0000000000000000000000000000000000000000000000000000000000000000848461110a565b5f610ddc604c602c8486611b64565b610de591611b8b565b90505b92915050565b5f610ddc602c600c8486611b64565b6060610e0c82604c8186611b64565b8080601f0160208091040260200160405190810160405280939291908181526020018383808284375f92019190915250929695505050505050565b610e8c6040518060e001604052805f63ffffffff1681526020015f80191681526020015f81526020015f81526020016060815260200160608152602001606081525090565b610e96858561136d565b63ffffffff168152610ea88585610dcd565b602080830191909152604080830185905280518082018252348082525f9382019390935290517fc7c7f5b300000000000000000000000000000000000000000000000000000000815273ffffffffffffffffffffffffffffffffffffffff89169263c7c7f5b3929091610f219186918890600401611bc7565b60c06040518083038185885af1158015610f3d573d5f803e3d5ffd5b50505050506040513d601f19601f82011682018060405250810190610f629190611c16565b5050505050505050565b5f8060205f8451602086015f885af180610f8b576040513d5f823e3d81fd5b50505f513d91508115610fa2578060011415610fbc565b73ffffffffffffffffffffffffffffffffffffffff84163b155b15610d1a576040517f5274afe700000000000000000000000000000000000000000000000000000000815273ffffffffffffffffffffffffffffffffffffffff8516600482015260240161051f565b6040517f6e553f65000000000000000000000000000000000000000000000000000000008152600481018290523060248201525f907f000000000000000000000000000000000000000000000000000000000000000073ffffffffffffffffffffffffffffffffffffffff1690636e553f65906044015b6020604051808303815f875af115801561109e573d5f803e3d5ffd5b505050506040513d601f19601f82011682018060405250810190610de59190611813565b80821015611106576040517f71c4efed000000000000000000000000000000000000000000000000000000008152600481018390526024810182905260440161051f565b5050565b815163ffffffff7f00000000000000000000000000000000000000000000000000000000000000008116911603611242575f7f000000000000000000000000000000000000000000000000000000000000000073ffffffffffffffffffffffffffffffffffffffff168473ffffffffffffffffffffffffffffffffffffffff16146111b5577f00000000000000000000000000000000000000000000000000000000000000006111d7565b7f00000000000000000000000000000000000000000000000000000000000000005b90503415611211576040517f7578d2bd00000000000000000000000000000000000000000000000000000000815260040160405180910390fd5b610d1a61121f846020015190565b604085015173ffffffffffffffffffffffffffffffffffffffff8416919061138f565b604080518082018252348082525f602083015291517fc7c7f5b300000000000000000000000000000000000000000000000000000000815273ffffffffffffffffffffffffffffffffffffffff86169263c7c7f5b39290916112aa9187918790600401611bc7565b60c06040518083038185885af11580156112c6573d5f803e3d5ffd5b50505050506040513d601f19601f82011682018060405250810190610d739190611c16565b6040517fba08765200000000000000000000000000000000000000000000000000000000815260048101829052306024820181905260448201525f907f000000000000000000000000000000000000000000000000000000000000000073ffffffffffffffffffffffffffffffffffffffff169063ba08765290606401611082565b5f61137c600c60088486611b64565b61138591611ca6565b60e01c9392505050565b60405173ffffffffffffffffffffffffffffffffffffffff83811660248301526044820183905261034e91859182169063a9059cbb90606401610cd3565b7f4e487b71000000000000000000000000000000000000000000000000000000005f52604160045260245ffd5b60405160e0810167ffffffffffffffff8111828210171561141d5761141d6113cd565b60405290565b604051601f82017fffffffffffffffffffffffffffffffffffffffffffffffffffffffffffffffe016810167ffffffffffffffff8111828210171561146a5761146a6113cd565b604052919050565b63ffffffff81168114611483575f80fd5b50565b803561149181611472565b919050565b5f67ffffffffffffffff8211156114af576114af6113cd565b50601f017fffffffffffffffffffffffffffffffffffffffffffffffffffffffffffffffe01660200190565b5f82601f8301126114ea575f80fd5b81356114fd6114f882611496565b611423565b818152846020838601011115611511575f80fd5b816020850160208301375f918101602001919091529392505050565b5f60e0828403121561153d575f80fd5b6115456113fa565b905061155082611486565b8152602082013560208201526040820135604082015260608201356060820152608082013567ffffffffffffffff8082111561158a575f80fd5b611596858386016114db565b608084015260a08401359150808211156115ae575f80fd5b6115ba858386016114db565b60a084015260c08401359150808211156115d2575f80fd5b506115df848285016114db565b60c08301525092915050565b803573ffffffffffffffffffffffffffffffffffffffff81168114611491575f80fd5b5f805f60608486031215611620575f80fd5b83359250602084013567ffffffffffffffff81111561163d575f80fd5b6116498682870161152d565b925050611658604085016115eb565b90509250925092565b5f805f8060808587031215611674575f80fd5b61167d856115eb565b935061168b602086016115eb565b925060408501359150606085013567ffffffffffffffff8111156116ad575f80fd5b6116b98782880161152d565b91505092959194509250565b815181526020808301519082015260408101610de8565b5f805f80608085870312156116ef575f80fd5b6116f8856115eb565b935060208501359250604085013567ffffffffffffffff81111561171a575f80fd5b611726878288016114db565b949793965093946060013593505050565b5f8083601f840112611747575f80fd5b50813567ffffffffffffffff81111561175e575f80fd5b602083019150836020828501011115611775575f80fd5b9250929050565b5f805f805f805f60a0888a031215611792575f80fd5b61179b886115eb565b965060208801359550604088013567ffffffffffffffff808211156117be575f80fd5b6117ca8b838c01611737565b90975095508591506117de60608b016115eb565b945060808a01359150808211156117f3575f80fd5b506118008a828b01611737565b989b979a50959850939692959293505050565b5f60208284031215611823575f80fd5b5051919050565b5f5b8381101561184457818101518382015260200161182c565b50505f910152565b5f815180845261186381602086016020860161182a565b601f017fffffffffffffffffffffffffffffffffffffffffffffffffffffffffffffffe0169290920160200192915050565b63ffffffff81511682526020810151602083015260408101516040830152606081015160608301525f608082015160e060808501526118d760e085018261184c565b905060a083015184820360a08601526118f0828261184c565b91505060c083015184820360c086015261083a828261184c565b604081525f61191c6040830185611895565b905082151560208301529392505050565b5f6040828403121561193d575f80fd5b6040516040810181811067ffffffffffffffff82111715611960576119606113cd565b604052825181526020928301519281019290925250919050565b5f6040828403121561198a575f80fd5b610de5838361192d565b805161149181611472565b5f82601f8301126119ae575f80fd5b81516119bc6114f882611496565b8181528460208386010111156119d0575f80fd5b6119e182602083016020870161182a565b949350505050565b5f80604083850312156119fa575f80fd5b825167ffffffffffffffff80821115611a11575f80fd5b9084019060e08287031215611a24575f80fd5b611a2c6113fa565b611a3583611994565b8152602083015160208201526040830151604082015260608301516060820152608083015182811115611a66575f80fd5b611a728882860161199f565b60808301525060a083015182811115611a89575f80fd5b611a958882860161199f565b60a08301525060c083015182811115611aac575f80fd5b611ab88882860161199f565b60c08301525060209590950151949694955050505050565b73ffffffffffffffffffffffffffffffffffffffff85168152836020820152608060408201525f611b04608083018561184c565b905082606083015295945050505050565b5f815160208301517fffffffff0000000000000000000000000000000000000000000000000000000080821693506004831015611b5c5780818460040360031b1b83161693505b505050919050565b5f8085851115611b72575f80fd5b83861115611b7e575f80fd5b5050820193919092039150565b80356020831015610de8577fffffffffffffffffffffffffffffffffffffffffffffffffffffffffffffffff602084900360031b1b1692915050565b608081525f611bd96080830186611895565b9050611bf2602083018580518252602090810151910152565b73ffffffffffffffffffffffffffffffffffffffff83166060830152949350505050565b5f8082840360c0811215611c28575f80fd5b6080811215611c35575f80fd5b506040516060810167ffffffffffffffff8282108183111715611c5a57611c5a6113cd565b8160405285518352602086015191508082168214611c76575f80fd5b506020820152611c89856040860161192d565b60408201529150611c9d846080850161192d565b90509250929050565b7fffffffff000000000000000000000000000000000000000000000000000000008135818116916004851015611ce65780818660040360031b1b83161692505b50509291505056fea26469706673582212203c210af0c85b10469f135dd49d1274fa8e04b8bee0c2069213c4acfe2a3036b564736f6c63430008160033",
    "linkReferences": {}
  },
  "methodIdentifiers": {
    "ASSET_ERC20()": "1df34fa3",
    "ASSET_OFT()": "0bfec755",
    "ENDPOINT()": "6fad06f5",
    "SHARE_ERC20()": "a99ecc54",
    "SHARE_OFT()": "369caf83",
    "VAULT()": "411557d1",
    "VAULT_EID()": "aa72fe3f",
    "depositAndSend(uint256,(uint32,bytes32,uint256,uint256,bytes,bytes,bytes),address)": "19197ec6",
    "handleCompose(address,bytes32,bytes,uint256)": "9a6b198c",
    "lzCompose(address,bytes32,bytes,address,bytes)": "d0a10260",
    "quoteSend(address,address,uint256,(uint32,bytes32,uint256,uint256,bytes,bytes,bytes))": "7e6e1e10",
    "redeemAndSend(uint256,(uint32,bytes32,uint256,uint256,bytes,bytes,bytes),address)": "53174fa4"
  },
  "id": 0
}