{
  "abi": [
    {
      "type": "constructor",
      "inputs": [
        {
          "name": "_vault",
          "type": "address",
          "internalType": "address"
        },
        {
          "name": "_assetOFT",
          "type": "address",
          "internalType": "address"
        },
        {
          "name": "_shareOFT",
          "type": "address",
          "internalType": "address"
        }
      ],
      "stateMutability": "nonpayable"
    },
    {
      "type": "function",
      "name": "ASSET_ERC20",
      "inputs": [],
      "outputs": [
        {
          "name": "",
          "type": "address",
          "internalType": "address"
        }
      ],
      "stateMutability": "view"
    },
    {
      "type": "function",
      "name": "ASSET_OFT",
      "inputs": [],
      "outputs": [
        {
          "name": "",
          "type": "address",
          "internalType": "address"
        }
      ],
      "stateMutability": "view"
    },
    {
      "type": "function",
      "name": "ENDPOINT",
      "inputs": [],
      "outputs": [
        {
          "name": "",
          "type": "address",
          "internalType": "address"
        }
      ],
      "stateMutability": "view"
    },
    {
      "type": "function",
      "name": "SHARE_ERC20",
      "inputs": [],
      "outputs": [
        {
          "name": "",
          "type": "address",
          "internalType": "address"
        }
      ],
      "stateMutability": "view"
    },
    {
      "type": "function",
      "name": "SHARE_OFT",
      "inputs": [],
      "outputs": [
        {
          "name": "",
          "type": "address",
          "internalType": "address"
        }
      ],
      "stateMutability": "view"
    },
    {
      "type": "function",
      "name": "VAULT",
      "inputs": [],
      "outputs": [
        {
          "name": "",
          "type": "address",
          "internalType": "contract IERC4626"
        }
      ],
      "stateMutability": "view"
    },
    {
      "type": "function",
      "name": "VAULT_EID",
      "inputs": [],
      "outputs": [
        {
          "name": "",
          "type": "uint32",
          "internalType": "uint32"
        }
      ],
      "stateMutability": "view"
    },
    {
      "type": "function",
      "name": "depositAndSend",
      "inputs": [
        {
          "name": "_assetAmount",
          "type": "uint256",
          "internalType": "uint256"
        },
        {
          "name": "_sendParam",
          "type": "tuple",
          "internalType": "struct SendParam",
          "components": [
            {
              "name": "dstEid",
              "type": "uint32",
              "internalType": "uint32"
            },
            {
              "name": "to",
              "type": "bytes32",
              "internalType": "bytes32"
            },
            {
              "name": "amountLD",
              "type": "uint256",
              "internalType": "uint256"
            },
            {
              "name": "minAmountLD",
              "type": "uint256",
              "internalType": "uint256"
            },
            {
              "name": "extraOptions",
              "type": "bytes",
              "internalType": "bytes"
            },
            {
              "name": "composeMsg",
              "type": "bytes",
              "internalType": "bytes"
            },
            {
              "name": "oftCmd",
              "type": "bytes",
              "internalType": "bytes"
            }
          ]
        },
        {
          "name": "_refundAddress",
          "type": "address",
          "internalType": "address"
        }
      ],
      "outputs": [],
      "stateMutability": "payable"
    },
    {
      "type": "function",
      "name": "handleCompose",
      "inputs": [
        {
          "name": "_oftIn",
          "type": "address",
          "internalType": "address"
        },
        {
          "name": "_composeFrom",
          "type": "bytes32",
          "internalType": "bytes32"
        },
        {
          "name": "_composeMsg",
          "type": "bytes",
          "internalType": "bytes"
        },
        {
          "name": "_amount",
          "type": "uint256",
          "internalType": "uint256"
        }
      ],
      "outputs": [],
      "stateMutability": "payable"
    },
    {
      "type": "function",
      "name": "lzCompose",
      "inputs": [
        {
          "name": "_composeSender",
          "type": "address",
          "internalType": "address"
        },
        {
          "name": "_guid",
          "type": "bytes32",
          "internalType": "bytes32"
        },
        {
          "name": "_message",
          "type": "bytes",
          "internalType": "bytes"
        },
        {
          "name": "",
          "type": "address",
          "internalType": "address"
        },
        {
          "name": "",
          "type": "bytes",
          "internalType": "bytes"
        }
      ],
      "outputs": [],
      "stateMutability": "payable"
    },
    {
      "type": "function",
      "name": "quoteSend",
      "inputs": [
        {
          "name": "_from",
          "type": "address",
          "internalType": "address"
        },
        {
          "name": "_targetOFT",
          "type": "address",
          "internalType": "address"
        },
        {
          "name": "_vaultInAmount",
          "type": "uint256",
          "internalType": "uint256"
        },
        {
          "name": "_sendParam",
          "type": "tuple",
          "internalType": "struct SendParam",
          "components": [
            {
              "name": "dstEid",
              "type": "uint32",
              "internalType": "uint32"
            },
            {
              "name": "to",
              "type": "bytes32",
              "internalType": "bytes32"
            },
            {
              "name": "amountLD",
              "type": "uint256",
              "internalType": "uint256"
            },
            {
              "name": "minAmountLD",
              "type": "uint256",
              "internalType": "uint256"
            },
            {
              "name": "extraOptions",
              "type": "bytes",
              "internalType": "bytes"
            },
            {
              "name": "composeMsg",
              "type": "bytes",
              "internalType": "bytes"
            },
            {
              "name": "oftCmd",
              "type": "bytes",
              "internalType": "bytes"
            }
          ]
        }
      ],
      "outputs": [
        {
          "name": "",
          "type": "tuple",
          "internalType": "struct MessagingFee",
          "components": [
            {
              "name": "nativeFee",
              "type": "uint256",
              "internalType": "uint256"
            },
            {
              "name": "lzTokenFee",
              "type": "uint256",
              "internalType": "uint256"
            }
          ]
        }
      ],
      "stateMutability": "view"
    },
    {
      "type": "function",
      "name": "redeemAndSend",
      "inputs": [
        {
          "name": "_shareAmount",
          "type": "uint256",
          "internalType": "uint256"
        },
        {
          "name": "_sendParam",
          "type": "tuple",
          "internalType": "struct SendParam",
          "components": [
            {
              "name": "dstEid",
              "type": "uint32",
              "internalType": "uint32"
            },
            {
              "name": "to",
              "type": "bytes32",
              "internalType": "bytes32"
            },
            {
              "name": "amountLD",
              "type": "uint256",
              "internalType": "uint256"
            },
            {
              "name": "minAmountLD",
              "type": "uint256",
              "internalType": "uint256"
            },
            {
              "name": "extraOptions",
              "type": "bytes",
              "internalType": "bytes"
            },
            {
              "name": "composeMsg",
              "type": "bytes",
              "internalType": "bytes"
            },
            {
              "name": "oftCmd",
              "type": "bytes",
              "internalType": "bytes"
            }
          ]
        },
        {
          "name": "_refundAddress",
          "type": "address",
          "internalType": "address"
        }
      ],
      "outputs": [],
      "stateMutability": "payable"
    },
    {
      "type": "event",
      "name": "Deposited",
      "inputs": [
        {
          "name": "sender",
          "type": "bytes32",
          "indexed": false,
          "internalType": "bytes32"
        },
        {
          "name": "recipient",
          "type": "bytes32",
          "indexed": false,
          "internalType": "bytes32"
        },
        {
          "name": "dstEid",
          "type": "uint32",
          "indexed": false,
          "internalType": "uint32"
        },
        {
          "name": "assetAmt",
          "type": "uint256",
          "indexed": false,
          "internalType": "uint256"
        },
        {
          "name": "shareAmt",
          "type": "uint256",
          "indexed": false,
          "internalType": "uint256"
        }
      ],
      "anonymous": false
    },
    {
      "type": "event",
      "name": "Redeemed",
      "inputs": [
        {
          "name": "sender",
          "type": "bytes32",
          "indexed": false,
          "internalType": "bytes32"
        },
        {
          "name": "recipient",
          "type": "bytes32",
          "indexed": false,
          "internalType": "bytes32"
        },
        {
          "name": "dstEid",
          "type": "uint32",
          "indexed": false,
          "internalType": "uint32"
        },
        {
          "name": "shareAmt",
          "type": "uint256",
          "indexed": false,
          "internalType": "uint256"
        },
        {
          "name": "assetAmt",
          "type": "uint256",
          "indexed": false,
          "internalType": "uint256"
        }
      ],
      "anonymous": false
    },
    {
      "type": "event",
      "name": "Refunded",
      "inputs": [
        {
          "name": "guid",
          "type": "bytes32",
          "indexed": true,
          "internalType": "bytes32"
        }
      ],
      "anonymous": false
    },
    {
      "type": "event",
      "name": "Sent",
      "inputs": [
        {
          "name": "guid",
          "type": "bytes32",
          "indexed": true,
          "internalType": "bytes32"
        }
      ],
      "anonymous": false
    },
    {
      "type": "error",
      "name": "AssetTokenNotVaultAsset",
      "inputs": [
        {
          "name": "assetERC20",
          "type": "address",
          "internalType": "address"
        },
        {
          "name": "vaultAsset",
          "type": "address",
          "internalType": "address"
        }
      ]
    },
    {
      "type": "error",
      "name": "ERC4626ExceededMaxDeposit",
      "inputs": [
        {
          "name": "receiver",
          "type": "address",
          "internalType": "address"
        },
        {
          "name": "assets",
          "type": "uint256",
          "internalType": "uint256"
        },
        {
          "name": "max",
          "type": "uint256",
          "internalType": "uint256"
        }
      ]
    },
    {
      "type": "error",
      "name": "ERC4626ExceededMaxRedeem",
      "inputs": [
        {
          "name": "owner",
          "type": "address",
          "internalType": "address"
        },
        {
          "name": "shares",
          "type": "uint256",
          "internalType": "uint256"
        },
        {
          "name": "max",
          "type": "uint256",
          "internalType": "uint256"
        }
      ]
    },
    {
      "type": "error",
      "name": "InsufficientMsgValue",
      "inputs": [
        {
          "name": "expectedMsgValue",
          "type": "uint256",
          "internalType": "uint256"
        },
        {
          "name": "actualMsgValue",
          "type": "uint256",
          "internalType": "uint256"
        }
      ]
    },
    {
      "type": "error",
      "name": "OnlyEndpoint",
      "inputs": [
        {
          "name": "caller",
          "type": "address",
          "internalType": "address"
        }
      ]
    },
    {
      "type": "error",
      "name": "OnlySelf",
      "inputs": [
        {
          "name": "caller",
          "type": "address",
          "internalType": "address"
        }
      ]
    },
    {
      "type": "error",
      "name": "OnlyValidComposeCaller",
      "inputs": [
        {
          "name": "caller",
          "type": "address",
          "internalType": "address"
        }
      ]
    },
    {
      "type": "error",
      "name": "ReentrancyGuardReentrantCall",
      "inputs": []
    },
    {
      "type": "error",
      "name": "SafeERC20FailedOperation",
      "inputs": [
        {
          "name": "token",
          "type": "address",
          "internalType": "address"
        }
      ]
    },
    {
      "type": "error",
      "name": "ShareOFTNotAdapter",
      "inputs": [
        {
          "name": "shareOFT",
          "type": "address",
          "internalType": "address"
        }
      ]
    },
    {
      "type": "error",
      "name": "ShareTokenNotVault",
      "inputs": [
        {
          "name": "shareERC20",
          "type": "address",
          "internalType": "address"
        },
        {
          "name": "vault",
          "type": "address",
          "internalType": "address"
        }
      ]
    },
    {
      "type": "error",
      "name": "SlippageExceeded",
      "inputs": [
        {
          "name": "vaultAmountOut",
          "type": "uint256",
          "internalType": "uint256"
        },
        {
          "name": "minVaultAmountOut",
          "type": "uint256",
          "internalType": "uint256"
        }
      ]
    }
  ],
  "bytecode": {
    "object": "0x61016060405234801562000011575f80fd5b506040516200286f3803806200286f833981016040819052620000349162000692565b60015f556001600160a01b0380841660805281811660e052821660a0526200005b62000173565b6001600160a01b03166101005262000072620002dd565b6001600160a01b031660c0816001600160a01b03168152505060a0516001600160a01b0316635e280f116040518163ffffffff1660e01b8152600401602060405180830381865afa158015620000ca573d5f803e3d5ffd5b505050506040513d601f19601f82011682018060405250810190620000f09190620006e3565b6001600160a01b03166101208190526040805163416ecebf60e01b8152905163416ecebf916004808201926020929091908290030181865afa15801562000139573d5f803e3d5ffd5b505050506040513d601f19601f820116820180604052508101906200015f919062000708565b63ffffffff1661014052506200074e915050565b5f60e0516001600160a01b031663fc0c546a6040518163ffffffff1660e01b8152600401602060405180830381865afa158015620001b3573d5f803e3d5ffd5b505050506040513d601f19601f82011682018060405250810190620001d99190620006e3565b90506080516001600160a01b0316816001600160a01b0316146200022c5760805160405163070bc55b60e11b81526001600160a01b03808416600483015290911660248201526044015b60405180910390fd5b60e0516001600160a01b0316639f68b9646040518163ffffffff1660e01b8152600401602060405180830381865afa1580156200026b573d5f803e3d5ffd5b505050506040513d601f19601f820116820180604052508101906200029191906200072d565b620002bf5760e051604051637e0a8a5760e11b81526001600160a01b03909116600482015260240162000223565b60e051620002da906001600160a01b038316905f19620004f2565b90565b5f60a0516001600160a01b031663fc0c546a6040518163ffffffff1660e01b8152600401602060405180830381865afa1580156200031d573d5f803e3d5ffd5b505050506040513d601f19601f82011682018060405250810190620003439190620006e3565b90506080516001600160a01b03166338d52e0f6040518163ffffffff1660e01b8152600401602060405180830381865afa15801562000384573d5f803e3d5ffd5b505050506040513d601f19601f82011682018060405250810190620003aa9190620006e3565b6001600160a01b0316816001600160a01b0316146200045657806080516001600160a01b03166338d52e0f6040518163ffffffff1660e01b8152600401602060405180830381865afa15801562000403573d5f803e3d5ffd5b505050506040513d601f19601f82011682018060405250810190620004299190620006e3565b60405163ba9d665f60e01b81526001600160a01b0392831660048201529116602482015260440162000223565b60a0516001600160a01b0316639f68b9646040518163ffffffff1660e01b8152600401602060405180830381865afa15801562000495573d5f803e3d5ffd5b505050506040513d601f19601f82011682018060405250810190620004bb91906200072d565b15620004dc5760a051620004dc906001600160a01b038316905f19620004f2565b608051620002da906001600160a01b038316905f195b604080516001600160a01b038416602482015260448082018490528251808303909101815260649091019091526020810180516001600160e01b0390811663095ea7b360e01b179091526200054c9085908390620005bd16565b620005b757604080516001600160a01b03851660248201525f6044808301919091528251808303909101815260649091019091526020810180516001600160e01b0390811663095ea7b360e01b17909152620005ab9186916200060916565b620005b7848262000609565b50505050565b5f805f8060205f8651602088015f8a5af192503d91505f519050828015620005ff57508115620005f15780600114620005ff565b5f866001600160a01b03163b115b9695505050505050565b5f8060205f8451602086015f885af18062000629576040513d5f823e3d81fd5b50505f513d91508115620006425780600114156200064f565b6001600160a01b0384163b155b15620005b757604051635274afe760e01b81526001600160a01b038516600482015260240162000223565b6001600160a01b03811681146200068f575f80fd5b50565b5f805f60608486031215620006a5575f80fd5b8351620006b2816200067a565b6020850151909350620006c5816200067a565b6040850151909250620006d8816200067a565b809150509250925092565b5f60208284031215620006f4575f80fd5b815162000701816200067a565b9392505050565b5f6020828403121562000719575f80fd5b815163ffffffff8116811462000701575f80fd5b5f602082840312156200073e575f80fd5b8151801515811462000701575f80fd5b60805160a05160c05160e05161010051610120516101405161202f620008405f395f818161029b01526113fa01525f81816101f6015261096501525f81816102680152818161036c01528181610d4b01528181610e0601526115e201525f818161017d01528181610a170152610eb301525f818161014a0152818161030701528181610f700152818161102b015261160801525f818160d8015281816103b6015281816108d5015281816109c0015281816110d8015261158f01525f81816101b00152818161044e0152818161054f0152818161061f0152818161071b01528181611329015261147d015261202f5ff3fe6080604052600436106100c3575f3560e01c80636fad06f511610071578063a99ecc541161004c578063a99ecc5414610257578063aa72fe3f1461028a578063d0a10260146102d2575f80fd5b80636fad06f5146101e55780637e6e1e10146102185780639a6b198c14610244575f80fd5b8063369caf83116100a1578063369caf831461016c578063411557d11461019f57806353174fa4146101d2575f80fd5b80630bfec755146100c757806319197ec6146101245780631df34fa314610139575b5f80fd5b3480156100d2575f80fd5b506100fa7f000000000000000000000000000000000000000000000000000000000000000081565b60405173ffffffffffffffffffffffffffffffffffffffff90911681526020015b60405180910390f35b6101376101323660046118e1565b6102e5565b005b348015610144575f80fd5b506100fa7f000000000000000000000000000000000000000000000000000000000000000081565b348015610177575f80fd5b506100fa7f000000000000000000000000000000000000000000000000000000000000000081565b3480156101aa575f80fd5b506100fa7f000000000000000000000000000000000000000000000000000000000000000081565b6101376101e03660046118e1565b61034a565b3480156101f0575f80fd5b506100fa7f000000000000000000000000000000000000000000000000000000000000000081565b348015610223575f80fd5b50610237610232366004611934565b6103a1565b60405161011b9190611998565b6101376102523660046119af565b61083b565b348015610262575f80fd5b506100fa7f000000000000000000000000000000000000000000000000000000000000000081565b348015610295575f80fd5b506102bd7f000000000000000000000000000000000000000000000000000000000000000081565b60405163ffffffff909116815260200161011b565b6101376102e0366004611a4f565b61094d565b6102ed610c4b565b61032f73ffffffffffffffffffffffffffffffffffffffff7f000000000000000000000000000000000000000000000000000000000000000016333086610c8c565b61033c3384848434610d1b565b61034560015f55565b505050565b610352610c4b565b61039473ffffffffffffffffffffffffffffffffffffffff7f000000000000000000000000000000000000000000000000000000000000000016333086610c8c565b61033c3384848434610f40565b604080518082019091525f80825260208201527f000000000000000000000000000000000000000000000000000000000000000073ffffffffffffffffffffffffffffffffffffffff168473ffffffffffffffffffffffffffffffffffffffff16036105d8576040517fd905777e00000000000000000000000000000000000000000000000000000000815273ffffffffffffffffffffffffffffffffffffffff86811660048301525f917f00000000000000000000000000000000000000000000000000000000000000009091169063d905777e90602401602060405180830381865afa158015610495573d5f803e3d5ffd5b505050506040513d601f19601f820116820180604052508101906104b99190611ae6565b905080841115610520576040517fb94abeec00000000000000000000000000000000000000000000000000000000815273ffffffffffffffffffffffffffffffffffffffff8716600482015260248101859052604481018290526064015b60405180910390fd5b6040517f4cdad506000000000000000000000000000000000000000000000000000000008152600481018590527f000000000000000000000000000000000000000000000000000000000000000073ffffffffffffffffffffffffffffffffffffffff1690634cdad50690602401602060405180830381865afa1580156105a9573d5f803e3d5ffd5b505050506040513d601f19601f820116820180604052508101906105cd9190611ae6565b6040840152506107a0565b6040517f402d267d00000000000000000000000000000000000000000000000000000000815273ffffffffffffffffffffffffffffffffffffffff86811660048301525f917f00000000000000000000000000000000000000000000000000000000000000009091169063402d267d90602401602060405180830381865afa158015610666573d5f803e3d5ffd5b505050506040513d601f19601f8201168201806040525081019061068a9190611ae6565b9050808411156106ec576040517f79012fb200000000000000000000000000000000000000000000000000000000815273ffffffffffffffffffffffffffffffffffffffff871660048201526024810185905260448101829052606401610517565b6040517fef8b30f7000000000000000000000000000000000000000000000000000000008152600481018590527f000000000000000000000000000000000000000000000000000000000000000073ffffffffffffffffffffffffffffffffffffffff169063ef8b30f790602401602060405180830381865afa158015610775573d5f803e3d5ffd5b505050506040513d601f19601f820116820180604052508101906107999190611ae6565b6040840152505b6040517f3b6f743b00000000000000000000000000000000000000000000000000000000815273ffffffffffffffffffffffffffffffffffffffff851690633b6f743b906107f49085905f90600401611bdd565b6040805180830381865afa15801561080e573d5f803e3d5ffd5b505050506040513d601f19601f820116820180604052508101906108329190611c4d565b95945050505050565b333014610876576040517fa19dbf00000000000000000000000000000000000000000000000000000000008152336004820152602401610517565b5f808380602001905181019061088c9190611cbc565b91509150803410156108d3576040517f7cb769dc00000000000000000000000000000000000000000000000000000000815260048101829052346024820152604401610517565b7f000000000000000000000000000000000000000000000000000000000000000073ffffffffffffffffffffffffffffffffffffffff168673ffffffffffffffffffffffffffffffffffffffff1603610938576109338584843234610d1b565b610945565b6109458584843234610f40565b505050505050565b3373ffffffffffffffffffffffffffffffffffffffff7f000000000000000000000000000000000000000000000000000000000000000016146109be576040517f91ac5e4f000000000000000000000000000000000000000000000000000000008152336004820152602401610517565b7f000000000000000000000000000000000000000000000000000000000000000073ffffffffffffffffffffffffffffffffffffffff168773ffffffffffffffffffffffffffffffffffffffff1614158015610a6657507f000000000000000000000000000000000000000000000000000000000000000073ffffffffffffffffffffffffffffffffffffffff168773ffffffffffffffffffffffffffffffffffffffff1614155b15610ab5576040517f84fb3f0d00000000000000000000000000000000000000000000000000000000815273ffffffffffffffffffffffffffffffffffffffff88166004820152602401610517565b5f610ac08686611157565b90505f610acd8787611178565b90505f610ada8888611187565b6040517f9a6b198c0000000000000000000000000000000000000000000000000000000081529091503090639a6b198c903490610b21908e90889087908990600401611da3565b5f604051808303818588803b158015610b38575f80fd5b505af193505050508015610b4a575060015b610c14573d808015610b77576040519150601f19603f3d011682016040523d82523d5f602084013e610b7c565b606091505b507f7cb769dc00000000000000000000000000000000000000000000000000000000610ba782611de8565b7fffffffff000000000000000000000000000000000000000000000000000000001603610bd657805181602001fd5b610be48b8a8a8632346111d1565b6040518a907ffe509803c09416b28ff3d8f690c8b0c61462a892c46d5430c8fb20abe472daf0905f90a250610c3f565b60405189907f27b5aea9f5736c02241d8a0272e9ec988ea44cf85c4b4760329431aa19678394905f90a25b50505050505050505050565b60025f5403610c86576040517f3ee5aeb500000000000000000000000000000000000000000000000000000000815260040160405180910390fd5b60025f55565b60405173ffffffffffffffffffffffffffffffffffffffff8481166024830152838116604483015260648201839052610d159186918216906323b872dd906084015b604051602081830303815290604052915060e01b6020820180517bffffffffffffffffffffffffffffffffffffffffffffffffffffffff8381831617835250505050611253565b50505050565b6040517f70a082310000000000000000000000000000000000000000000000000000000081523060048201525f907f000000000000000000000000000000000000000000000000000000000000000073ffffffffffffffffffffffffffffffffffffffff16906370a0823190602401602060405180830381865afa158015610da5573d5f803e3d5ffd5b505050506040513d601f19601f82011682018060405250810190610dc99190611ae6565b9050610dd586866112f2565b506040517f70a082310000000000000000000000000000000000000000000000000000000081523060048201525f907f000000000000000000000000000000000000000000000000000000000000000073ffffffffffffffffffffffffffffffffffffffff16906370a0823190602401602060405180830381865afa158015610e60573d5f803e3d5ffd5b505050506040513d601f19601f82011682018060405250810190610e849190611ae6565b90505f610e918383611e37565b9050610ea18187606001516113a9565b604086018190525f6060870152610eda7f00000000000000000000000000000000000000000000000000000000000000008787876113f1565b6020868101518751604080518c81529384019290925263ffffffff169082015260608101889052608081018290527fa53b96f27930f89fac6e5802f6b77fcad303dde855a10e5ef076e730d1f43afa9060a0015b60405180910390a15050505050505050565b6040517f70a082310000000000000000000000000000000000000000000000000000000081523060048201525f907f000000000000000000000000000000000000000000000000000000000000000073ffffffffffffffffffffffffffffffffffffffff16906370a0823190602401602060405180830381865afa158015610fca573d5f803e3d5ffd5b505050506040513d601f19601f82011682018060405250810190610fee9190611ae6565b9050610ffa868661143f565b506040517f70a082310000000000000000000000000000000000000000000000000000000081523060048201525f907f000000000000000000000000000000000000000000000000000000000000000073ffffffffffffffffffffffffffffffffffffffff16906370a0823190602401602060405180830381865afa158015611085573d5f803e3d5ffd5b505050506040513d601f19601f820116820180604052508101906110a99190611ae6565b90505f6110b68383611e37565b90506110c68187606001516113a9565b604086018190525f60608701526110ff7f00000000000000000000000000000000000000000000000000000000000000008787876113f1565b6020868101518751604080518c81529384019290925263ffffffff169082015260608101889052608081018290527f57e232f18448926c8d7554dfd1851d4a4cd10d6b804aabcd714b1f1c067e50ee9060a001610f2e565b5f611166604c602c8486611e6f565b61116f91611e96565b90505b92915050565b5f611166602c600c8486611e6f565b606061119682604c8186611e6f565b8080601f0160208091040260200160405190810160405280939291908181526020018383808284375f92019190915250929695505050505050565b6112166040518060e001604052805f63ffffffff1681526020015f80191681526020015f81526020015f81526020016060815260200160608152602001606081525090565b61122086866114c1565b63ffffffff1681526112328686611157565b60208201526040810184905261124a878285856114e3565b50505050505050565b5f8060205f8451602086015f885af180611272576040513d5f823e3d81fd5b50505f513d915081156112895780600114156112a3565b73ffffffffffffffffffffffffffffffffffffffff84163b155b15610d15576040517f5274afe700000000000000000000000000000000000000000000000000000000815273ffffffffffffffffffffffffffffffffffffffff85166004820152602401610517565b6040517f6e553f65000000000000000000000000000000000000000000000000000000008152600481018290523060248201525f907f000000000000000000000000000000000000000000000000000000000000000073ffffffffffffffffffffffffffffffffffffffff1690636e553f65906044015b6020604051808303815f875af1158015611385573d5f803e3d5ffd5b505050506040513d601f19601f8201168201806040525081019061116f9190611ae6565b808210156113ed576040517f71c4efed0000000000000000000000000000000000000000000000000000000081526004810183905260248101829052604401610517565b5050565b825163ffffffff7f000000000000000000000000000000000000000000000000000000000000000081169116036114335761142e8484848461158c565b610d15565b610d15848484846114e3565b6040517fba08765200000000000000000000000000000000000000000000000000000000815260048101829052306024820181905260448201525f907f000000000000000000000000000000000000000000000000000000000000000073ffffffffffffffffffffffffffffffffffffffff169063ba08765290606401611369565b5f6114d0600c60088486611e6f565b6114d991611ed2565b60e01c9392505050565b6040805180820182528281525f602082015290517fc7c7f5b300000000000000000000000000000000000000000000000000000000815273ffffffffffffffffffffffffffffffffffffffff86169163c7c7f5b391849161154b918891908890600401611f1a565b60c06040518083038185885af1158015611567573d5f803e3d5ffd5b50505050506040513d601f19601f820116820180604052508101906109459190611f69565b5f7f000000000000000000000000000000000000000000000000000000000000000073ffffffffffffffffffffffffffffffffffffffff168573ffffffffffffffffffffffffffffffffffffffff1614611606577f0000000000000000000000000000000000000000000000000000000000000000611628565b7f00000000000000000000000000000000000000000000000000000000000000005b905061165b611638856020015190565b604086015173ffffffffffffffffffffffffffffffffffffffff84169190611662565b5050505050565b60405173ffffffffffffffffffffffffffffffffffffffff83811660248301526044820183905261034591859182169063a9059cbb90606401610cce565b7f4e487b71000000000000000000000000000000000000000000000000000000005f52604160045260245ffd5b60405160e0810167ffffffffffffffff811182821017156116f0576116f06116a0565b60405290565b604051601f82017fffffffffffffffffffffffffffffffffffffffffffffffffffffffffffffffe016810167ffffffffffffffff8111828210171561173d5761173d6116a0565b604052919050565b63ffffffff81168114611756575f80fd5b50565b803561176481611745565b919050565b5f67ffffffffffffffff821115611782576117826116a0565b50601f017fffffffffffffffffffffffffffffffffffffffffffffffffffffffffffffffe01660200190565b5f82601f8301126117bd575f80fd5b81356117d06117cb82611769565b6116f6565b8181528460208386010111156117e4575f80fd5b816020850160208301375f918101602001919091529392505050565b5f60e08284031215611810575f80fd5b6118186116cd565b905061182382611759565b8152602082013560208201526040820135604082015260608201356060820152608082013567ffffffffffffffff8082111561185d575f80fd5b611869858386016117ae565b608084015260a0840135915080821115611881575f80fd5b61188d858386016117ae565b60a084015260c08401359150808211156118a5575f80fd5b506118b2848285016117ae565b60c08301525092915050565b803573ffffffffffffffffffffffffffffffffffffffff81168114611764575f80fd5b5f805f606084860312156118f3575f80fd5b83359250602084013567ffffffffffffffff811115611910575f80fd5b61191c86828701611800565b92505061192b604085016118be565b90509250925092565b5f805f8060808587031215611947575f80fd5b611950856118be565b935061195e602086016118be565b925060408501359150606085013567ffffffffffffffff811115611980575f80fd5b61198c87828801611800565b91505092959194509250565b815181526020808301519082015260408101611172565b5f805f80608085870312156119c2575f80fd5b6119cb856118be565b935060208501359250604085013567ffffffffffffffff8111156119ed575f80fd5b6119f9878288016117ae565b949793965093946060013593505050565b5f8083601f840112611a1a575f80fd5b50813567ffffffffffffffff811115611a31575f80fd5b602083019150836020828501011115611a48575f80fd5b9250929050565b5f805f805f805f60a0888a031215611a65575f80fd5b611a6e886118be565b965060208801359550604088013567ffffffffffffffff80821115611a91575f80fd5b611a9d8b838c01611a0a565b9097509550859150611ab160608b016118be565b945060808a0135915080821115611ac6575f80fd5b50611ad38a828b01611a0a565b989b979a50959850939692959293505050565b5f60208284031215611af6575f80fd5b5051919050565b5f5b83811015611b17578181015183820152602001611aff565b50505f910152565b5f8151808452611b36816020860160208601611afd565b601f017fffffffffffffffffffffffffffffffffffffffffffffffffffffffffffffffe0169290920160200192915050565b63ffffffff81511682526020810151602083015260408101516040830152606081015160608301525f608082015160e06080850152611baa60e0850182611b1f565b905060a083015184820360a0860152611bc38282611b1f565b91505060c083015184820360c08601526108328282611b1f565b604081525f611bef6040830185611b68565b905082151560208301529392505050565b5f60408284031215611c10575f80fd5b6040516040810181811067ffffffffffffffff82111715611c3357611c336116a0565b604052825181526020928301519281019290925250919050565b5f60408284031215611c5d575f80fd5b61116f8383611c00565b805161176481611745565b5f82601f830112611c81575f80fd5b8151611c8f6117cb82611769565b818152846020838601011115611ca3575f80fd5b611cb4826020830160208701611afd565b949350505050565b5f8060408385031215611ccd575f80fd5b825167ffffffffffffffff80821115611ce4575f80fd5b9084019060e08287031215611cf7575f80fd5b611cff6116cd565b611d0883611c67565b8152602083015160208201526040830151604082015260608301516060820152608083015182811115611d39575f80fd5b611d4588828601611c72565b60808301525060a083015182811115611d5c575f80fd5b611d6888828601611c72565b60a08301525060c083015182811115611d7f575f80fd5b611d8b88828601611c72565b60c08301525060209590950151949694955050505050565b73ffffffffffffffffffffffffffffffffffffffff85168152836020820152608060408201525f611dd76080830185611b1f565b905082606083015295945050505050565b5f815160208301517fffffffff0000000000000000000000000000000000000000000000000000000080821693506004831015611e2f5780818460040360031b1b83161693505b505050919050565b81810381811115611172577f4e487b71000000000000000000000000000000000000000000000000000000005f52601160045260245ffd5b5f8085851115611e7d575f80fd5b83861115611e89575f80fd5b5050820193919092039150565b80356020831015611172577fffffffffffffffffffffffffffffffffffffffffffffffffffffffffffffffff602084900360031b1b1692915050565b7fffffffff000000000000000000000000000000000000000000000000000000008135818116916004851015611f125780818660040360031b1b83161692505b505092915050565b608081525f611f2c6080830186611b68565b9050611f45602083018580518252602090810151910152565b73ffffffffffffffffffffffffffffffffffffffff83166060830152949350505050565b5f8082840360c0811215611f7b575f80fd5b6080811215611f88575f80fd5b506040516060810167ffffffffffffffff8282108183111715611fad57611fad6116a0565b8160405285518352602086015191508082168214611fc9575f80fd5b506020820152611fdc8560408601611c00565b60408201529150611ff08460808501611c00565b9050925092905056fea2646970667358221220272ccf047a0fb03f2089948e31f8572058f9ef561aab65d15891f2ac9525453e64736f6c63430008160033",
    "linkReferences": {}
  },
  "methodIdentifiers": {
    "ASSET_ERC20()": "1df34fa3",
    "ASSET_OFT()": "0bfec755",
    "ENDPOINT()": "6fad06f5",
    "SHARE_ERC20()": "a99ecc54",
    "SHARE_OFT()": "369caf83",
    "VAULT()": "411557d1",
    "VAULT_EID()": "aa72fe3f",
    "depositAndSend(uint256,(uint32,bytes32,uint256,uint256,bytes,bytes,bytes),address)": "19197ec6",
    "handleCompose(address,bytes32,bytes,uint256)": "9a6b198c",
    "lzCompose(address,bytes32,bytes,address,bytes)": "d0a10260",
    "quoteSend(address,address,uint256,(uint32,bytes32,uint256,uint256,bytes,bytes,bytes))": "7e6e1e10",
    "redeemAndSend(uint256,(uint32,bytes32,uint256,uint256,bytes,bytes,bytes),address)": "53174fa4"
  },
  "id": 0
}