{"abi":[{"type":"constructor","inputs":[{"name":"_priceUpdater","type":"address","internalType":"address"}],"stateMutability":"nonpayable"},{"type":"function","name":"ARBITRUM_COMPRESSION_PERCENT","inputs":[],"outputs":[{"name":"","type":"uint128","internalType":"uint128"}],"stateMutability":"view"},{"type":"function","name":"arbitrumPriceExt","inputs":[],"outputs":[{"name":"","type":"tuple","internalType":"struct ILayerZeroPriceFeed.ArbitrumPriceExt","components":[{"name":"gasPerL2Tx","type":"uint64","internalType":"uint64"},{"name":"gasPerL1CallDataByte","type":"uint32","internalType":"uint32"}]}],"stateMutability":"view"},{"type":"function","name":"endpoint","inputs":[],"outputs":[{"name":"","type":"address","internalType":"contract ILayerZeroEndpointV2"}],"stateMutability":"view"},{"type":"function","name":"estimateFeeByChain","inputs":[{"name":"_dstEid","type":"uint16","internalType":"uint16"},{"name":"_callDataSize","type":"uint256","internalType":"uint256"},{"name":"_gas","type":"uint256","internalType":"uint256"}],"outputs":[{"name":"fee","type":"uint256","internalType":"uint256"},{"name":"priceRatio","type":"uint128","internalType":"uint128"}],"stateMutability":"view"},{"type":"function","name":"estimateFeeByEid","inputs":[{"name":"_dstEid","type":"uint32","internalType":"uint32"},{"name":"_callDataSize","type":"uint256","internalType":"uint256"},{"name":"_gas","type":"uint256","internalType":"uint256"}],"outputs":[{"name":"","type":"uint256","internalType":"uint256"},{"name":"","type":"uint128","internalType":"uint128"},{"name":"","type":"uint128","internalType":"uint128"},{"name":"","type":"uint128","internalType":"uint128"}],"stateMutability":"view"},{"type":"function","name":"estimateFeeOnSend","inputs":[{"name":"_dstEid","type":"uint32","internalType":"uint32"},{"name":"_callDataSize","type":"uint256","internalType":"uint256"},{"name":"_gas","type":"uint256","internalType":"uint256"}],"outputs":[{"name":"","type":"uint256","internalType":"uint256"},{"name":"","type":"uint128","internalType":"uint128"},{"name":"","type":"uint128","internalType":"uint128"},{"name":"","type":"uint128","internalType":"uint128"}],"stateMutability":"payable"},{"type":"function","name":"getFee","inputs":[{"name":"","type":"uint32","internalType":"uint32"},{"name":"","type":"uint256","internalType":"uint256"},{"name":"","type":"uint256","internalType":"uint256"}],"outputs":[{"name":"","type":"uint256","internalType":"uint256"}],"stateMutability":"pure"},{"type":"function","name":"getPrice","inputs":[{"name":"_dstEid","type":"uint32","internalType":"uint32"}],"outputs":[{"name":"price","type":"tuple","internalType":"struct ILayerZeroPriceFeed.Price","components":[{"name":"priceRatio","type":"uint128","internalType":"uint128"},{"name":"gasPriceInUnit","type":"uint64","internalType":"uint64"},{"name":"gasPerByte","type":"uint32","internalType":"uint32"}]}],"stateMutability":"view"},{"type":"function","name":"getPrice","inputs":[{"name":"_dstEid","type":"uint16","internalType":"uint16"}],"outputs":[{"name":"price","type":"tuple","internalType":"struct ILayerZeroPriceFeed.Price","components":[{"name":"priceRatio","type":"uint128","internalType":"uint128"},{"name":"gasPriceInUnit","type":"uint64","internalType":"uint64"},{"name":"gasPerByte","type":"uint32","internalType":"uint32"}]}],"stateMutability":"view"},{"type":"function","name":"getPriceRatioDenominator","inputs":[],"outputs":[{"name":"","type":"uint128","internalType":"uint128"}],"stateMutability":"view"},{"type":"function","name":"nativeTokenPriceUSD","inputs":[],"outputs":[{"name":"","type":"uint128","internalType":"uint128"}],"stateMutability":"view"},{"type":"function","name":"owner","inputs":[],"outputs":[{"name":"","type":"address","internalType":"address"}],"stateMutability":"view"},{"type":"function","name":"priceUpdater","inputs":[{"name":"updater","type":"address","internalType":"address"}],"outputs":[{"name":"active","type":"bool","internalType":"bool"}],"stateMutability":"view"},{"type":"function","name":"renounceOwnership","inputs":[],"outputs":[],"stateMutability":"nonpayable"},{"type":"function","name":"setArbitrumCompressionPercent","inputs":[{"name":"_compressionPercent","type":"uint128","internalType":"uint128"}],"outputs":[],"stateMutability":"nonpayable"},{"type":"function","name":"setEndpoint","inputs":[{"name":"_endpoint","type":"address","internalType":"address"}],"outputs":[],"stateMutability":"nonpayable"},{"type":"function","name":"setNativeTokenPriceUSD","inputs":[{"name":"_nativeTokenPriceUSD","type":"uint128","internalType":"uint128"}],"outputs":[],"stateMutability":"nonpayable"},{"type":"function","name":"setPrice","inputs":[{"name":"_price","type":"tuple[]","internalType":"struct ILayerZeroPriceFeed.UpdatePrice[]","components":[{"name":"eid","type":"uint32","internalType":"uint32"},{"name":"price","type":"tuple","internalType":"struct ILayerZeroPriceFeed.Price","components":[{"name":"priceRatio","type":"uint128","internalType":"uint128"},{"name":"gasPriceInUnit","type":"uint64","internalType":"uint64"},{"name":"gasPerByte","type":"uint32","internalType":"uint32"}]}]}],"outputs":[],"stateMutability":"nonpayable"},{"type":"function","name":"setPriceForArbitrum","inputs":[{"name":"_update","type":"tuple","internalType":"struct ILayerZeroPriceFeed.UpdatePriceExt","components":[{"name":"eid","type":"uint32","internalType":"uint32"},{"name":"price","type":"tuple","internalType":"struct ILayerZeroPriceFeed.Price","components":[{"name":"priceRatio","type":"uint128","internalType":"uint128"},{"name":"gasPriceInUnit","type":"uint64","internalType":"uint64"},{"name":"gasPerByte","type":"uint32","internalType":"uint32"}]},{"name":"extend","type":"tuple","internalType":"struct ILayerZeroPriceFeed.ArbitrumPriceExt","components":[{"name":"gasPerL2Tx","type":"uint64","internalType":"uint64"},{"name":"gasPerL1CallDataByte","type":"uint32","internalType":"uint32"}]}]}],"outputs":[],"stateMutability":"nonpayable"},{"type":"function","name":"setPriceRatioDenominator","inputs":[{"name":"_denominator","type":"uint128","internalType":"uint128"}],"outputs":[],"stateMutability":"nonpayable"},{"type":"function","name":"setPriceUpdater","inputs":[{"name":"_addr","type":"address","internalType":"address"},{"name":"_active","type":"bool","internalType":"bool"}],"outputs":[],"stateMutability":"nonpayable"},{"type":"function","name":"transferOwnership","inputs":[{"name":"newOwner","type":"address","internalType":"address"}],"outputs":[],"stateMutability":"nonpayable"},{"type":"function","name":"withdrawFee","inputs":[{"name":"_to","type":"address","internalType":"address"},{"name":"_amount","type":"uint256","internalType":"uint256"}],"outputs":[],"stateMutability":"nonpayable"},{"type":"event","name":"OwnershipTransferred","inputs":[{"name":"previousOwner","type":"address","indexed":true,"internalType":"address"},{"name":"newOwner","type":"address","indexed":true,"internalType":"address"}],"anonymous":false},{"type":"error","name":"LZ_PriceFeed_InsufficientFee","inputs":[{"name":"provided","type":"uint256","internalType":"uint256"},{"name":"required","type":"uint256","internalType":"uint256"}]},{"type":"error","name":"LZ_PriceFeed_NotAnOPStack","inputs":[{"name":"l2Eid","type":"uint32","internalType":"uint32"}]},{"type":"error","name":"LZ_PriceFeed_OnlyPriceUpdater","inputs":[]},{"type":"error","name":"OwnableInvalidOwner","inputs":[{"name":"owner","type":"address","internalType":"address"}]},{"type":"error","name":"OwnableUnauthorizedAccount","inputs":[{"name":"account","type":"address","internalType":"address"}]},{"type":"error","name":"Transfer_NativeFailed","inputs":[{"name":"_to","type":"address","internalType":"address"},{"name":"_value","type":"uint256","internalType":"uint256"}]},{"type":"error","name":"Transfer_ToAddressIsZero","inputs":[]}],"bytecode":{"object":"0x608060405234801561001057600080fd5b506040516114d63803806114d683398101604081905261002f9161010a565b338061005557604051631e4fbdf760e01b81526000600482015260240160405180910390fd5b61005e816100ba565b506001600160a01b03166000908152600260205260409020805460ff1916600190811790915580546001600160801b03191668056bc75e2d6310000017905560058054602f60801b6001600160801b039190911617905561013a565b600080546001600160a01b038381166001600160a01b0319831681178455604051919092169283917f8be0079c531659141344cd1fd0a4f28419497f9722a3daafe3b4186f6b6457e09190a35050565b60006020828403121561011c57600080fd5b81516001600160a01b038116811461013357600080fd5b9392505050565b61138d806101496000396000f3fe6080604052600436106101405760003560e01c80638ca2fb08116100b6578063d350ad251161006f578063d350ad2514610441578063da26663a14610461578063dbbb415514610522578063e0ad121a14610542578063f2fde38b146105cb578063fd9be522146105eb57600080fd5b80638ca2fb08146103595780638da5cb5b1461039957806392807f58146103b7578063c1723a1d146103e9578063c1840327146103fc578063cd68b79b1461041a57600080fd5b80635d6d7ccb116101085780635d6d7ccb146102405780635e280f1114610260578063715018a6146102985780637bc3c9ab146102ad5780637dc438a4146102ea57806388a4124c1461030a57600080fd5b806311f2c343146101455780632f7cb0b41461017c5780633161b7f61461019e57806336a5beba146101be57806352a7251014610220575b600080fd5b34801561015157600080fd5b5061016961016036600461100d565b60009392505050565b6040519081526020015b60405180910390f35b34801561018857600080fd5b5061019c610197366004611057565b61060b565b005b3480156101aa57600080fd5b5061019c6101b9366004611079565b610632565b3480156101ca57600080fd5b506040805180820182526000808252602091820152815180830183526004546001600160401b03811680835263ffffffff600160401b909204821692840192835284519081529151169181019190915201610173565b34801561022c57600080fd5b5061019c61023b366004611104565b610773565b34801561024c57600080fd5b5061019c61025b366004611057565b6107a6565b34801561026c57600080fd5b50600654610280906001600160a01b031681565b6040516001600160a01b039091168152602001610173565b3480156102a457600080fd5b5061019c610819565b3480156102b957600080fd5b506102cd6102c8366004611152565b61082d565b604080519283526001600160801b03909116602083015201610173565b3480156102f657600080fd5b5061019c610305366004611170565b6108c8565b34801561031657600080fd5b5061032a61032536600461100d565b610989565b604080519485526001600160801b03938416602086015291831691840191909152166060820152608001610173565b34801561036557600080fd5b50610389610374366004611188565b60026020526000908152604090205460ff1681565b6040519015158152602001610173565b3480156103a557600080fd5b506000546001600160a01b0316610280565b3480156103c357600080fd5b506005546001600160801b03165b6040516001600160801b039091168152602001610173565b61032a6103f736600461100d565b6109ab565b34801561040857600080fd5b506001546001600160801b03166103d1565b34801561042657600080fd5b506005546103d190600160801b90046001600160801b031681565b34801561044d57600080fd5b5061019c61045c366004611057565b6109dc565b34801561046d57600080fd5b506104e861047c3660046111a3565b60408051606080820183526000808352602080840182905292840181905263ffffffff94851681526003835283902083519182018452546001600160801b0381168252600160801b81046001600160401b031692820192909252600160c01b9091049092169082015290565b6040805182516001600160801b031681526020808401516001600160401b0316908201529181015163ffffffff1690820152606001610173565b34801561052e57600080fd5b5061019c61053d366004611188565b610a06565b34801561054e57600080fd5b506104e861055d3660046111be565b60408051606080820183526000808352602080840182905292840181905261ffff949094168452600382529282902082519384018352546001600160801b03811684526001600160401b03600160801b82041691840191909152600160c01b900463ffffffff169082015290565b3480156105d757600080fd5b5061019c6105e6366004611188565b610a30565b3480156105f757600080fd5b5061019c6106063660046111d9565b610a6e565b610613610a84565b600580546001600160801b03928316600160801b029216919091179055565b336106456000546001600160a01b031690565b6001600160a01b031614610683573360009081526002602052604090205460ff166106835760405163320ae52960e01b815260040160405180910390fd5b60005b8181101561076e57368383838181106106a1576106a1611203565b60800291909101915061076590506106bc60208301836111a3565b6106ce36849003840160208501611230565b805160208083015160409384015184516060810186526001600160801b0394851681526001600160401b0392831681850190815263ffffffff9283168288019081529783166000908152600390955295909320925183549551965194166001600160c01b031990951694909417600160801b95909116949094029390931763ffffffff60c01b1916600160c01b9190921602179055565b50600101610686565b505050565b61077b610a84565b6001600160a01b03919091166000908152600260205260409020805460ff1916911515919091179055565b336107b96000546001600160a01b031690565b6001600160a01b0316146107f7573360009081526002602052604090205460ff166107f75760405163320ae52960e01b815260040160405180910390fd5b600580546001600160801b0319166001600160801b0392909216919091179055565b610821610a84565b61082b6000610ab1565b565b6000808461ffff16606e148061084857508461ffff1661279f145b8061085857508461ffff16614eaf145b156108755761086c8561ffff168585610b01565b915091506108c0565b8461ffff16606f148061088d57508461ffff16612794145b8061089d57508461ffff16614ea4145b156108b15761086c8561ffff168585610c0e565b61086c8561ffff168585610d5e565b935093915050565b336108db6000546001600160a01b031690565b6001600160a01b031614610919573360009081526002602052604090205460ff166109195760405163320ae52960e01b815260040160405180910390fd5b6109296106bc60208301836111a3565b600061093b60a08301608084016112a9565b9050600061094f60c0840160a085016111a3565b6004805463ffffffff909216600160401b026bffffffffffffffffffffffff199092166001600160401b0390941693909317179091555050565b60008060008061099a878787610dfe565b935093509350935093509350935093565b6000808080806109bf565b60405180910390fd5b6109ca888888610dfe565b94509450945094505093509350935093565b6109e4610a84565b600180546001600160801b0319166001600160801b0392909216919091179055565b610a0e610a84565b600680546001600160a01b0319166001600160a01b0392909216919091179055565b610a38610a84565b6001600160a01b038116610a6257604051631e4fbdf760e01b8152600060048201526024016109b6565b610a6b81610ab1565b50565b610a76610a84565b610a808282610ecc565b5050565b6000546001600160a01b0316331461082b5760405163118cdaa760e01b81523360048201526024016109b6565b600080546001600160a01b038381166001600160a01b0319831681178455604051919092169283917f8be0079c531659141344cd1fd0a4f28419497f9722a3daafe3b4186f6b6457e09190a35050565b63ffffffff8381166000908152600360205260408120600454600554929384938492600160401b900490911690606490610b4b90600160801b90046001600160801b0316896112da565b610b55919061130d565b610b5f91906112da565b8254909150600090610b7e90600160c01b900463ffffffff16886112da565b83546004549192506000916001600160401b03600160801b90920482169184918691610bab91168b611321565b610bb59190611321565b610bbf9190611321565b610bc991906112da565b60015485549192506001600160801b0390811691610be89116836112da565b610bf2919061130d565b935493996001600160801b039094169850929650505050505050565b6000806000610c1c86610f79565b63ffffffff80821660009081526003602052604081208054939450929091610c4c91600160c01b900416886112da565b610c5890610c74611321565b8254909150600090610c7a90600160801b90046001600160401b0316836112da565b63ffffffff808b1660009081526003602052604081208054939450929091610caa91600160c01b9004168b6112da565b8254909150600090600160801b90046001600160401b0316610ccc8b84611321565b610cd691906112da565b60015487549192506000916001600160801b0391821691610cf89116876112da565b610d02919061130d565b60015485549192506000916001600160801b0391821691610d249116856112da565b610d2e919061130d565b90506000610d3c8284611321565b9554959f6001600160801b039096169e50949c50505050505050505050505050565b63ffffffff80841660009081526003602052604081208054919283928391610d8e91600160c01b900416876112da565b8254909150600090600160801b90046001600160401b0316610db08784611321565b610dba91906112da565b60015484549192506001600160801b0390811691610dd99116836112da565b610de3919061130d565b925492986001600160801b0390931697509195505050505050565b600080808080610e1061753089611334565b90508063ffffffff16606e1480610e2e57508063ffffffff1661279f145b80610e4057508063ffffffff16614eaf145b15610e5a57610e50818888610b01565b9095509350610ea9565b8063ffffffff16606f1480610e7657508063ffffffff16612794145b80610e8857508063ffffffff16614ea4145b15610e9857610e50818888610c0e565b610ea3818888610d5e565b90955093505b505060015460055493979296506001600160801b03908116955090921692509050565b6001600160a01b038216610ef3576040516306b7a93160e41b815260040160405180910390fd5b6000826001600160a01b03168260405160006040518083038185875af1925050503d8060008114610f40576040519150601f19603f3d011682016040523d82523d6000602084013e610f45565b606091505b505090508061076e57604051631196f20d60e21b81526001600160a01b0384166004820152602481018390526044016109b6565b600080610f8861753084611334565b90508063ffffffff16606f03610fa15750606592915050565b8063ffffffff1661279403610fba575061278992915050565b8063ffffffff16614ea403610fd35750614e9992915050565b604051633d0b0cf760e21b815263ffffffff821660048201526024016109b6565b803563ffffffff8116811461100857600080fd5b919050565b60008060006060848603121561102257600080fd5b61102b84610ff4565b95602085013595506040909401359392505050565b80356001600160801b038116811461100857600080fd5b60006020828403121561106957600080fd5b61107282611040565b9392505050565b6000806020838503121561108c57600080fd5b82356001600160401b03808211156110a357600080fd5b818501915085601f8301126110b757600080fd5b8135818111156110c657600080fd5b8660208260071b85010111156110db57600080fd5b60209290920196919550909350505050565b80356001600160a01b038116811461100857600080fd5b6000806040838503121561111757600080fd5b611120836110ed565b91506020830135801515811461113557600080fd5b809150509250929050565b803561ffff8116811461100857600080fd5b60008060006060848603121561116757600080fd5b61102b84611140565b600060c0828403121561118257600080fd5b50919050565b60006020828403121561119a57600080fd5b611072826110ed565b6000602082840312156111b557600080fd5b61107282610ff4565b6000602082840312156111d057600080fd5b61107282611140565b600080604083850312156111ec57600080fd5b6111f5836110ed565b946020939093013593505050565b634e487b7160e01b600052603260045260246000fd5b80356001600160401b038116811461100857600080fd5b60006060828403121561124257600080fd5b604051606081018181106001600160401b038211171561127257634e487b7160e01b600052604160045260246000fd5b60405261127e83611040565b815261128c60208401611219565b602082015261129d60408401610ff4565b60408201529392505050565b6000602082840312156112bb57600080fd5b61107282611219565b634e487b7160e01b600052601160045260246000fd5b80820281158282048414176112f1576112f16112c4565b92915050565b634e487b7160e01b600052601260045260246000fd5b60008261131c5761131c6112f7565b500490565b808201808211156112f1576112f16112c4565b600063ffffffff8084168061134b5761134b6112f7565b9216919091069291505056fea264697066735822122043d40d861fac89f60c4938c8341172f4eaeb8b3e6729e13e77697283f99e882864736f6c63430008160033","linkReferences":{}},"methodIdentifiers":{"ARBITRUM_COMPRESSION_PERCENT()":"cd68b79b","arbitrumPriceExt()":"36a5beba","endpoint()":"5e280f11","estimateFeeByChain(uint16,uint256,uint256)":"7bc3c9ab","estimateFeeByEid(uint32,uint256,uint256)":"88a4124c","estimateFeeOnSend(uint32,uint256,uint256)":"c1723a1d","getFee(uint32,uint256,uint256)":"11f2c343","getPrice(uint16)":"e0ad121a","getPrice(uint32)":"da26663a","getPriceRatioDenominator()":"c1840327","nativeTokenPriceUSD()":"92807f58","owner()":"8da5cb5b","priceUpdater(address)":"8ca2fb08","renounceOwnership()":"715018a6","setArbitrumCompressionPercent(uint128)":"2f7cb0b4","setEndpoint(address)":"dbbb4155","setNativeTokenPriceUSD(uint128)":"5d6d7ccb","setPrice((uint32,(uint128,uint64,uint32))[])":"3161b7f6","setPriceForArbitrum((uint32,(uint128,uint64,uint32),(uint64,uint32)))":"7dc438a4","setPriceRatioDenominator(uint128)":"d350ad25","setPriceUpdater(address,bool)":"52a72510","transferOwnership(address)":"f2fde38b","withdrawFee(address,uint256)":"fd9be522"},"id":78}