{
  "abi": [
    {
      "type": "function",
      "name": "decodeLzComposeOption",
      "inputs": [
        {
          "name": "_option",
          "type": "bytes",
          "internalType": "bytes"
        }
      ],
      "outputs": [
        {
          "name": "index",
          "type": "uint16",
          "internalType": "uint16"
        },
        {
          "name": "gas",
          "type": "uint128",
          "internalType": "uint128"
        },
        {
          "name": "value",
          "type": "uint128",
          "internalType": "uint128"
        }
      ],
      "stateMutability": "pure"
    },
    {
      "type": "function",
      "name": "decodeLzReadOption",
      "inputs": [
        {
          "name": "_option",
          "type": "bytes",
          "internalType": "bytes"
        }
      ],
      "outputs": [
        {
          "name": "gas",
          "type": "uint128",
          "internalType": "uint128"
        },
        {
          "name": "size",
          "type": "uint32",
          "internalType": "uint32"
        },
        {
          "name": "value",
          "type": "uint128",
          "internalType": "uint128"
        }
      ],
      "stateMutability": "pure"
    },
    {
      "type": "function",
      "name": "decodeLzReceiveOption",
      "inputs": [
        {
          "name": "_option",
          "type": "bytes",
          "internalType": "bytes"
        }
      ],
      "outputs": [
        {
          "name": "gas",
          "type": "uint128",
          "internalType": "uint128"
        },
        {
          "name": "value",
          "type": "uint128",
          "internalType": "uint128"
        }
      ],
      "stateMutability": "pure"
    },
    {
      "type": "function",
      "name": "decodeNativeDropOption",
      "inputs": [
        {
          "name": "_option",
          "type": "bytes",
          "internalType": "bytes"
        }
      ],
      "outputs": [
        {
          "name": "amount",
          "type": "uint128",
          "internalType": "uint128"
        },
        {
          "name": "receiver",
          "type": "bytes32",
          "internalType": "bytes32"
        }
      ],
      "stateMutability": "pure"
    },
    {
      "type": "function",
      "name": "nextExecutorOption",
      "inputs": [
        {
          "name": "_options",
          "type": "bytes",
          "internalType": "bytes"
        },
        {
          "name": "_cursor",
          "type": "uint256",
          "internalType": "uint256"
        }
      ],
      "outputs": [
        {
          "name": "optionType",
          "type": "uint8",
          "internalType": "uint8"
        },
        {
          "name": "option",
          "type": "bytes",
          "internalType": "bytes"
        },
        {
          "name": "cursor",
          "type": "uint256",
          "internalType": "uint256"
        }
      ],
      "stateMutability": "pure"
    },
    {
      "type": "error",
      "name": "Executor_InvalidLzComposeOption",
      "inputs": []
    },
    {
      "type": "error",
      "name": "Executor_InvalidLzReadOption",
      "inputs": []
    },
    {
      "type": "error",
      "name": "Executor_InvalidLzReceiveOption",
      "inputs": []
    },
    {
      "type": "error",
      "name": "Executor_InvalidNativeDropOption",
      "inputs": []
    }
  ],
  "bytecode": {
    "object": "0x60806040526040516100109061005f565b604051809103906000f08015801561002c573d6000803e3d6000fd5b50600080546001600160a01b0319166001600160a01b039290921691909117905534801561005957600080fd5b5061006c565b6107f28061072983390190565b6106ae8061007b6000396000f3fe608060405234801561001057600080fd5b50600436106100575760003560e01c8063518e8ab01461005c5780636e1775e31461009e5780639751ca86146100c1578063b954fdf614610103578063f93e1d6114610135575b600080fd5b61006f61006a3660046104b3565b610168565b6040805161ffff90941684526001600160801b0392831660208501529116908201526060015b60405180910390f35b6100b16100ac3660046104f5565b610184565b6040516100959493929190610541565b6100d46100cf3660046104b3565b6101a6565b604080516001600160801b03948516815263ffffffff9093166020840152921691810191909152606001610095565b6101166101113660046104b3565b6101b5565b604080516001600160801b039093168352602083019190915201610095565b6101486101433660046104b3565b6101ce565b604080516001600160801b03938416815292909116602083015201610095565b600080600061017785856101db565b9250925092509250925092565b60003660008061019587878761024f565b935093509350935093509350935093565b600080600061017785856102a5565b6000806101c28484610310565b915091505b9250929050565b6000806101c28484610357565b60008080601284148015906101f1575060228414155b1561020f57604051638b4aa70b60e01b815260040160405180910390fd5b61021b858560006103b3565b9250610229858560026103da565b91506022841461023a576000610246565b610246858560126103da565b90509250925092565b6000368160018401816102638888846103b3565b600292909201919050610277888884610401565b94506001820161ffff8216830161029081838b8d610584565b979b909a50969850505061ffff160193505050565b60008080601484148015906102bb575060248414155b156102d957604051636f5bff2160e11b815260040160405180910390fd5b6102e5858560006103da565b92506102f385856010610426565b915060248414610304576000610246565b610246858560146103da565b60008060308314610334576040516361d0c2c760e11b815260040160405180910390fd5b610340848460006103da565b915061034e8484601061044d565b90509250929050565b6000806010831480159061036c575060208314155b1561038a57604051634796aee160e01b815260040160405180910390fd5b610396848460006103da565b9150602083146103a757600061034e565b61034e848460106103da565b6000600282016103c581848688610584565b6103ce916105ae565b60f01c95945050505050565b6000601082016103ec81848688610584565b6103f5916105de565b60801c95945050505050565b600083838381811061041557610415610615565b919091013560f81c95945050505050565b60006004820161043881848688610584565b6104419161062b565b60e01c95945050505050565b60006020820161045f81848688610584565b61046891610659565b95945050505050565b60008083601f84011261048357600080fd5b50813567ffffffffffffffff81111561049b57600080fd5b6020830191508360208285010111156101c757600080fd5b600080602083850312156104c657600080fd5b823567ffffffffffffffff8111156104dd57600080fd5b6104e985828601610471565b90969095509350505050565b60008060006040848603121561050a57600080fd5b833567ffffffffffffffff81111561052157600080fd5b61052d86828701610471565b909790965060209590950135949350505050565b60ff85168152606060208201528260608201528284608083013760006080848301015260006080601f19601f860116830101905082604083015295945050505050565b6000808585111561059457600080fd5b838611156105a157600080fd5b5050820193919092039150565b6001600160f01b031981358181169160028510156105d65780818660020360031b1b83161692505b505092915050565b6fffffffffffffffffffffffffffffffff1981358181169160108510156105d65760109490940360031b84901b1690921692915050565b634e487b7160e01b600052603260045260246000fd5b6001600160e01b031981358181169160048510156105d65760049490940360031b84901b1690921692915050565b8035602083101561067257600019602084900360031b1b165b9291505056fea26469706673582212203cb9eef9871a2f9f7f7218b46fa538d2615771ad8522df40688d27aaf078107e64736f6c63430008160033608060405234801561001057600080fd5b506107d2806100206000396000f3fe608060405234801561001057600080fd5b506004361061002b5760003560e01c8063e5c5e9a314610030575b600080fd5b61004361003e366004610529565b61005a565b6040516100519291906105eb565b60405180910390f35b6060806100678484610072565b915091509250929050565b606080600283101561009f5760405163196499c760e21b8152600060048201526024015b60405180910390fd5b60006100ae6002828688610619565b6100b791610643565b60f01c90506002600219820161021f578060005b868310156101c45760006100e460018501858a8c610619565b6100ed91610673565b60f81c9050600081900361011757604051636780cfaf60e01b815260006004820152602401610096565b8160ff1660000361012a57809150610167565b8160ff168160ff16146101675736600061014686868c8e610619565b915091506101578989868585610236565b9099509750859450919250829150505b600184019360009061017e90600301868b8d610619565b61018791610643565b60f01c905060008190036101b15760405163196499c760e21b815260048101869052602401610096565b8060020161ffff168501945050506100cb565b8287146101e75760405163196499c760e21b815260048101849052602401610096565b6002871115610218573660006101ff85858b8d610619565b915091506102108888858585610236565b909850965050505b505061022d565b61022a828787610356565b93505b50509250929050565b60608060001960ff8616016102b35786511561027557868484604051602001610261939291906106a1565b6040516020818303038152906040526102ac565b83838080601f0160208091040260200160405190810160405280939291908181526020018383808284376000920191909152505050505b965061034b565b60011960ff86160161032d578551156102ef578584846040516020016102db939291906106a1565b604051602081830303815290604052610326565b83838080601f0160208091040260200160405190810160405280939291908181526020018383808284376000920191909152505050505b955061034b565b604051636780cfaf60e01b815260ff86166004820152602401610096565b509495939450505050565b606060001961ffff8516016103f65760228214610386576040516301b8ca5560e31b815260040160405180910390fd5b60006103a7610399602260028688610619565b6103a2916106c9565b6104e8565b604051600160f81b60208201819052601160f01b602183015260238201526001600160801b0319608083901b1660248201529091506034016040516020818303038152906040529150506104e1565b60011961ffff8516016104c2576042821115806104135750606282115b15610431576040516360493e2b60e11b815260040160405180910390fd5b6000610444610399602260028688610619565b90506000610459610399604260228789610619565b90506000604119850161046f866042818a610619565b610478916106c9565b60405160086020938403029190911c92506104a9916001916011918391889183916031916002918b918b91016106e8565b60405160208183030381529060405293505050506104e1565b604051630417051360e41b815261ffff85166004820152602401610096565b9392505050565b60006fffffffffffffffffffffffffffffffff821115610525576040516306dfcc6560e41b81526080600482015260248101839052604401610096565b5090565b6000806020838503121561053c57600080fd5b823567ffffffffffffffff8082111561055457600080fd5b818501915085601f83011261056857600080fd5b81358181111561057757600080fd5b86602082850101111561058957600080fd5b60209290920196919550909350505050565b60005b838110156105b657818101518382015260200161059e565b50506000910152565b600081518084526105d781602086016020860161059b565b601f01601f19169290920160200192915050565b6040815260006105fe60408301856105bf565b828103602084015261061081856105bf565b95945050505050565b6000808585111561062957600080fd5b8386111561063657600080fd5b5050820193919092039150565b6001600160f01b0319813581811691600285101561066b5780818660020360031b1b83161692505b505092915050565b6001600160f81b0319813581811691600185101561066b5760019490940360031b84901b1690921692915050565b600084516106b381846020890161059b565b8201838582376000930192835250909392505050565b803560208310156106e257600019602084900360031b1b165b92915050565b60f88a811b6001600160f81b0319908116835260f08b901b6001600160f01b031916600184015289821b81166003840152608089901b6001600160801b03191660048401529087901b1660148201526000610752601583018760f01b6001600160f01b0319169052565b61076b601783018660f81b6001600160f81b0319169052565b610784601883018560801b6001600160801b0319169052565b5060288101919091526048019897505050505050505056fea2646970667358221220994aaf0c18254f983fac2634c8bb3f9ecd3d5348f39af4ed525562428cb6fc4f64736f6c63430008160033",
    "linkReferences": {}
  },
  "methodIdentifiers": {
    "decodeLzComposeOption(bytes)": "518e8ab0",
    "decodeLzReadOption(bytes)": "9751ca86",
    "decodeLzReceiveOption(bytes)": "f93e1d61",
    "decodeNativeDropOption(bytes)": "b954fdf6",
    "nextExecutorOption(bytes,uint256)": "6e1775e3"
  },
  "id": 70
}