{
  "abi": [
    {
      "type": "function",
      "name": "decode",
      "inputs": [
        {
          "name": "_options",
          "type": "bytes",
          "internalType": "bytes"
        }
      ],
      "outputs": [
        {
          "name": "executorOptions",
          "type": "bytes",
          "internalType": "bytes"
        },
        {
          "name": "dvnOptions",
          "type": "bytes",
          "internalType": "bytes"
        }
      ],
      "stateMutability": "pure"
    },
    {
      "type": "error",
      "name": "LZ_ULN_InvalidLegacyType1Option",
      "inputs": []
    },
    {
      "type": "error",
      "name": "LZ_ULN_InvalidLegacyType2Option",
      "inputs": []
    },
    {
      "type": "error",
      "name": "LZ_ULN_InvalidWorkerId",
      "inputs": [
        {
          "name": "workerId",
          "type": "uint8",
          "internalType": "uint8"
        }
      ]
    },
    {
      "type": "error",
      "name": "LZ_ULN_InvalidWorkerOptions",
      "inputs": [
        {
          "name": "cursor",
          "type": "uint256",
          "internalType": "uint256"
        }
      ]
    },
    {
      "type": "error",
      "name": "LZ_ULN_UnsupportedOptionType",
      "inputs": [
        {
          "name": "optionType",
          "type": "uint16",
          "internalType": "uint16"
        }
      ]
    },
    {
      "type": "error",
      "name": "SafeCastOverflowedUintDowncast",
      "inputs": [
        {
          "name": "bits",
          "type": "uint8",
          "internalType": "uint8"
        },
        {
          "name": "value",
          "type": "uint256",
          "internalType": "uint256"
        }
      ]
    }
  ],
  "bytecode": {
    "object": "0x608060405234801561001057600080fd5b506107d2806100206000396000f3fe608060405234801561001057600080fd5b506004361061002b5760003560e01c8063e5c5e9a314610030575b600080fd5b61004361003e366004610529565b61005a565b6040516100519291906105eb565b60405180910390f35b6060806100678484610072565b915091509250929050565b606080600283101561009f5760405163196499c760e21b8152600060048201526024015b60405180910390fd5b60006100ae6002828688610619565b6100b791610643565b60f01c90506002600219820161021f578060005b868310156101c45760006100e460018501858a8c610619565b6100ed91610673565b60f81c9050600081900361011757604051636780cfaf60e01b815260006004820152602401610096565b8160ff1660000361012a57809150610167565b8160ff168160ff16146101675736600061014686868c8e610619565b915091506101578989868585610236565b9099509750859450919250829150505b600184019360009061017e90600301868b8d610619565b61018791610643565b60f01c905060008190036101b15760405163196499c760e21b815260048101869052602401610096565b8060020161ffff168501945050506100cb565b8287146101e75760405163196499c760e21b815260048101849052602401610096565b6002871115610218573660006101ff85858b8d610619565b915091506102108888858585610236565b909850965050505b505061022d565b61022a828787610356565b93505b50509250929050565b60608060001960ff8616016102b35786511561027557868484604051602001610261939291906106a1565b6040516020818303038152906040526102ac565b83838080601f0160208091040260200160405190810160405280939291908181526020018383808284376000920191909152505050505b965061034b565b60011960ff86160161032d578551156102ef578584846040516020016102db939291906106a1565b604051602081830303815290604052610326565b83838080601f0160208091040260200160405190810160405280939291908181526020018383808284376000920191909152505050505b955061034b565b604051636780cfaf60e01b815260ff86166004820152602401610096565b509495939450505050565b606060001961ffff8516016103f65760228214610386576040516301b8ca5560e31b815260040160405180910390fd5b60006103a7610399602260028688610619565b6103a2916106c9565b6104e8565b604051600160f81b60208201819052601160f01b602183015260238201526001600160801b0319608083901b1660248201529091506034016040516020818303038152906040529150506104e1565b60011961ffff8516016104c2576042821115806104135750606282115b15610431576040516360493e2b60e11b815260040160405180910390fd5b6000610444610399602260028688610619565b90506000610459610399604260228789610619565b90506000604119850161046f866042818a610619565b610478916106c9565b60405160086020938403029190911c92506104a9916001916011918391889183916031916002918b918b91016106e8565b60405160208183030381529060405293505050506104e1565b604051630417051360e41b815261ffff85166004820152602401610096565b9392505050565b60006fffffffffffffffffffffffffffffffff821115610525576040516306dfcc6560e41b81526080600482015260248101839052604401610096565b5090565b6000806020838503121561053c57600080fd5b823567ffffffffffffffff8082111561055457600080fd5b818501915085601f83011261056857600080fd5b81358181111561057757600080fd5b86602082850101111561058957600080fd5b60209290920196919550909350505050565b60005b838110156105b657818101518382015260200161059e565b50506000910152565b600081518084526105d781602086016020860161059b565b601f01601f19169290920160200192915050565b6040815260006105fe60408301856105bf565b828103602084015261061081856105bf565b95945050505050565b6000808585111561062957600080fd5b8386111561063657600080fd5b5050820193919092039150565b6001600160f01b0319813581811691600285101561066b5780818660020360031b1b83161692505b505092915050565b6001600160f81b0319813581811691600185101561066b5760019490940360031b84901b1690921692915050565b600084516106b381846020890161059b565b8201838582376000930192835250909392505050565b803560208310156106e257600019602084900360031b1b165b92915050565b60f88a811b6001600160f81b0319908116835260f08b901b6001600160f01b031916600184015289821b81166003840152608089901b6001600160801b03191660048401529087901b1660148201526000610752601583018760f01b6001600160f01b0319169052565b61076b601783018660f81b6001600160f81b0319169052565b610784601883018560801b6001600160801b0319169052565b5060288101919091526048019897505050505050505056fea2646970667358221220994aaf0c18254f983fac2634c8bb3f9ecd3d5348f39af4ed525562428cb6fc4f64736f6c63430008160033",
    "linkReferences": {}
  },
  "methodIdentifiers": {
    "decode(bytes)": "e5c5e9a3"
  },
  "id": 70
}