{
  "abi": [
    {
      "type": "constructor",
      "inputs": [
        {
          "name": "_eid",
          "type": "uint32",
          "internalType": "uint32"
        },
        {
          "name": "_owner",
          "type": "address",
          "internalType": "address"
        }
      ],
      "stateMutability": "nonpayable"
    },
    {
      "type": "function",
      "name": "EMPTY_PAYLOAD_HASH",
      "inputs": [],
      "outputs": [
        {
          "name": "",
          "type": "bytes32",
          "internalType": "bytes32"
        }
      ],
      "stateMutability": "view"
    },
    {
      "type": "function",
      "name": "NIL_PAYLOAD_HASH",
      "inputs": [],
      "outputs": [
        {
          "name": "",
          "type": "bytes32",
          "internalType": "bytes32"
        }
      ],
      "stateMutability": "view"
    },
    {
      "type": "function",
      "name": "blockedLibrary",
      "inputs": [],
      "outputs": [
        {
          "name": "",
          "type": "address",
          "internalType": "address"
        }
      ],
      "stateMutability": "view"
    },
    {
      "type": "function",
      "name": "burn",
      "inputs": [
        {
          "name": "_oapp",
          "type": "address",
          "internalType": "address"
        },
        {
          "name": "_srcEid",
          "type": "uint32",
          "internalType": "uint32"
        },
        {
          "name": "_sender",
          "type": "bytes32",
          "internalType": "bytes32"
        },
        {
          "name": "_nonce",
          "type": "uint64",
          "internalType": "uint64"
        },
        {
          "name": "_payloadHash",
          "type": "bytes32",
          "internalType": "bytes32"
        }
      ],
      "outputs": [],
      "stateMutability": "nonpayable"
    },
    {
      "type": "function",
      "name": "clear",
      "inputs": [
        {
          "name": "_oapp",
          "type": "address",
          "internalType": "address"
        },
        {
          "name": "_origin",
          "type": "tuple",
          "internalType": "struct Origin",
          "components": [
            {
              "name": "srcEid",
              "type": "uint32",
              "internalType": "uint32"
            },
            {
              "name": "sender",
              "type": "bytes32",
              "internalType": "bytes32"
            },
            {
              "name": "nonce",
              "type": "uint64",
              "internalType": "uint64"
            }
          ]
        },
        {
          "name": "_guid",
          "type": "bytes32",
          "internalType": "bytes32"
        },
        {
          "name": "_message",
          "type": "bytes",
          "internalType": "bytes"
        }
      ],
      "outputs": [],
      "stateMutability": "nonpayable"
    },
    {
      "type": "function",
      "name": "composeQueue",
      "inputs": [
        {
          "name": "from",
          "type": "address",
          "internalType": "address"
        },
        {
          "name": "to",
          "type": "address",
          "internalType": "address"
        },
        {
          "name": "guid",
          "type": "bytes32",
          "internalType": "bytes32"
        },
        {
          "name": "index",
          "type": "uint16",
          "internalType": "uint16"
        }
      ],
      "outputs": [
        {
          "name": "messageHash",
          "type": "bytes32",
          "internalType": "bytes32"
        }
      ],
      "stateMutability": "view"
    },
    {
      "type": "function",
      "name": "defaultReceiveLibrary",
      "inputs": [
        {
          "name": "srcEid",
          "type": "uint32",
          "internalType": "uint32"
        }
      ],
      "outputs": [
        {
          "name": "lib",
          "type": "address",
          "internalType": "address"
        }
      ],
      "stateMutability": "view"
    },
    {
      "type": "function",
      "name": "defaultReceiveLibraryTimeout",
      "inputs": [
        {
          "name": "srcEid",
          "type": "uint32",
          "internalType": "uint32"
        }
      ],
      "outputs": [
        {
          "name": "lib",
          "type": "address",
          "internalType": "address"
        },
        {
          "name": "expiry",
          "type": "uint256",
          "internalType": "uint256"
        }
      ],
      "stateMutability": "view"
    },
    {
      "type": "function",
      "name": "defaultSendLibrary",
      "inputs": [
        {
          "name": "dstEid",
          "type": "uint32",
          "internalType": "uint32"
        }
      ],
      "outputs": [
        {
          "name": "lib",
          "type": "address",
          "internalType": "address"
        }
      ],
      "stateMutability": "view"
    },
    {
      "type": "function",
      "name": "delegates",
      "inputs": [
        {
          "name": "oapp",
          "type": "address",
          "internalType": "address"
        }
      ],
      "outputs": [
        {
          "name": "delegate",
          "type": "address",
          "internalType": "address"
        }
      ],
      "stateMutability": "view"
    },
    {
      "type": "function",
      "name": "eid",
      "inputs": [],
      "outputs": [
        {
          "name": "",
          "type": "uint32",
          "internalType": "uint32"
        }
      ],
      "stateMutability": "view"
    },
    {
      "type": "function",
      "name": "getConfig",
      "inputs": [
        {
          "name": "_oapp",
          "type": "address",
          "internalType": "address"
        },
        {
          "name": "_lib",
          "type": "address",
          "internalType": "address"
        },
        {
          "name": "_eid",
          "type": "uint32",
          "internalType": "uint32"
        },
        {
          "name": "_configType",
          "type": "uint32",
          "internalType": "uint32"
        }
      ],
      "outputs": [
        {
          "name": "config",
          "type": "bytes",
          "internalType": "bytes"
        }
      ],
      "stateMutability": "view"
    },
    {
      "type": "function",
      "name": "getReceiveLibrary",
      "inputs": [
        {
          "name": "_receiver",
          "type": "address",
          "internalType": "address"
        },
        {
          "name": "_srcEid",
          "type": "uint32",
          "internalType": "uint32"
        }
      ],
      "outputs": [
        {
          "name": "lib",
          "type": "address",
          "internalType": "address"
        },
        {
          "name": "isDefault",
          "type": "bool",
          "internalType": "bool"
        }
      ],
      "stateMutability": "view"
    },
    {
      "type": "function",
      "name": "getRegisteredLibraries",
      "inputs": [],
      "outputs": [
        {
          "name": "",
          "type": "address[]",
          "internalType": "address[]"
        }
      ],
      "stateMutability": "view"
    },
    {
      "type": "function",
      "name": "getSendContext",
      "inputs": [],
      "outputs": [
        {
          "name": "",
          "type": "uint32",
          "internalType": "uint32"
        },
        {
          "name": "",
          "type": "address",
          "internalType": "address"
        }
      ],
      "stateMutability": "view"
    },
    {
      "type": "function",
      "name": "getSendLibrary",
      "inputs": [
        {
          "name": "_sender",
          "type": "address",
          "internalType": "address"
        },
        {
          "name": "_dstEid",
          "type": "uint32",
          "internalType": "uint32"
        }
      ],
      "outputs": [
        {
          "name": "lib",
          "type": "address",
          "internalType": "address"
        }
      ],
      "stateMutability": "view"
    },
    {
      "type": "function",
      "name": "inboundNonce",
      "inputs": [
        {
          "name": "_receiver",
          "type": "address",
          "internalType": "address"
        },
        {
          "name": "_srcEid",
          "type": "uint32",
          "internalType": "uint32"
        },
        {
          "name": "_sender",
          "type": "bytes32",
          "internalType": "bytes32"
        }
      ],
      "outputs": [
        {
          "name": "",
          "type": "uint64",
          "internalType": "uint64"
        }
      ],
      "stateMutability": "view"
    },
    {
      "type": "function",
      "name": "inboundPayloadHash",
      "inputs": [
        {
          "name": "receiver",
          "type": "address",
          "internalType": "address"
        },
        {
          "name": "srcEid",
          "type": "uint32",
          "internalType": "uint32"
        },
        {
          "name": "sender",
          "type": "bytes32",
          "internalType": "bytes32"
        },
        {
          "name": "inboundNonce",
          "type": "uint64",
          "internalType": "uint64"
        }
      ],
      "outputs": [
        {
          "name": "payloadHash",
          "type": "bytes32",
          "internalType": "bytes32"
        }
      ],
      "stateMutability": "view"
    },
    {
      "type": "function",
      "name": "initializable",
      "inputs": [
        {
          "name": "_origin",
          "type": "tuple",
          "internalType": "struct Origin",
          "components": [
            {
              "name": "srcEid",
              "type": "uint32",
              "internalType": "uint32"
            },
            {
              "name": "sender",
              "type": "bytes32",
              "internalType": "bytes32"
            },
            {
              "name": "nonce",
              "type": "uint64",
              "internalType": "uint64"
            }
          ]
        },
        {
          "name": "_receiver",
          "type": "address",
          "internalType": "address"
        }
      ],
      "outputs": [
        {
          "name": "",
          "type": "bool",
          "internalType": "bool"
        }
      ],
      "stateMutability": "view"
    },
    {
      "type": "function",
      "name": "isDefaultSendLibrary",
      "inputs": [
        {
          "name": "_sender",
          "type": "address",
          "internalType": "address"
        },
        {
          "name": "_dstEid",
          "type": "uint32",
          "internalType": "uint32"
        }
      ],
      "outputs": [
        {
          "name": "",
          "type": "bool",
          "internalType": "bool"
        }
      ],
      "stateMutability": "view"
    },
    {
      "type": "function",
      "name": "isRegisteredLibrary",
      "inputs": [
        {
          "name": "lib",
          "type": "address",
          "internalType": "address"
        }
      ],
      "outputs": [
        {
          "name": "",
          "type": "bool",
          "internalType": "bool"
        }
      ],
      "stateMutability": "view"
    },
    {
      "type": "function",
      "name": "isSendingMessage",
      "inputs": [],
      "outputs": [
        {
          "name": "",
          "type": "bool",
          "internalType": "bool"
        }
      ],
      "stateMutability": "view"
    },
    {
      "type": "function",
      "name": "isSupportedEid",
      "inputs": [
        {
          "name": "_eid",
          "type": "uint32",
          "internalType": "uint32"
        }
      ],
      "outputs": [
        {
          "name": "",
          "type": "bool",
          "internalType": "bool"
        }
      ],
      "stateMutability": "view"
    },
    {
      "type": "function",
      "name": "isValidReceiveLibrary",
      "inputs": [
        {
          "name": "_receiver",
          "type": "address",
          "internalType": "address"
        },
        {
          "name": "_srcEid",
          "type": "uint32",
          "internalType": "uint32"
        },
        {
          "name": "_actualReceiveLib",
          "type": "address",
          "internalType": "address"
        }
      ],
      "outputs": [
        {
          "name": "",
          "type": "bool",
          "internalType": "bool"
        }
      ],
      "stateMutability": "view"
    },
    {
      "type": "function",
      "name": "lazyInboundNonce",
      "inputs": [
        {
          "name": "receiver",
          "type": "address",
          "internalType": "address"
        },
        {
          "name": "srcEid",
          "type": "uint32",
          "internalType": "uint32"
        },
        {
          "name": "sender",
          "type": "bytes32",
          "internalType": "bytes32"
        }
      ],
      "outputs": [
        {
          "name": "nonce",
          "type": "uint64",
          "internalType": "uint64"
        }
      ],
      "stateMutability": "view"
    },
    {
      "type": "function",
      "name": "lzCompose",
      "inputs": [
        {
          "name": "_from",
          "type": "address",
          "internalType": "address"
        },
        {
          "name": "_to",
          "type": "address",
          "internalType": "address"
        },
        {
          "name": "_guid",
          "type": "bytes32",
          "internalType": "bytes32"
        },
        {
          "name": "_index",
          "type": "uint16",
          "internalType": "uint16"
        },
        {
          "name": "_message",
          "type": "bytes",
          "internalType": "bytes"
        },
        {
          "name": "_extraData",
          "type": "bytes",
          "internalType": "bytes"
        }
      ],
      "outputs": [],
      "stateMutability": "payable"
    },
    {
      "type": "function",
      "name": "lzComposeAlert",
      "inputs": [
        {
          "name": "_from",
          "type": "address",
          "internalType": "address"
        },
        {
          "name": "_to",
          "type": "address",
          "internalType": "address"
        },
        {
          "name": "_guid",
          "type": "bytes32",
          "internalType": "bytes32"
        },
        {
          "name": "_index",
          "type": "uint16",
          "internalType": "uint16"
        },
        {
          "name": "_gas",
          "type": "uint256",
          "internalType": "uint256"
        },
        {
          "name": "_value",
          "type": "uint256",
          "internalType": "uint256"
        },
        {
          "name": "_message",
          "type": "bytes",
          "internalType": "bytes"
        },
        {
          "name": "_extraData",
          "type": "bytes",
          "internalType": "bytes"
        },
        {
          "name": "_reason",
          "type": "bytes",
          "internalType": "bytes"
        }
      ],
      "outputs": [],
      "stateMutability": "nonpayable"
    },
    {
      "type": "function",
      "name": "lzReceive",
      "inputs": [
        {
          "name": "_origin",
          "type": "tuple",
          "internalType": "struct Origin",
          "components": [
            {
              "name": "srcEid",
              "type": "uint32",
              "internalType": "uint32"
            },
            {
              "name": "sender",
              "type": "bytes32",
              "internalType": "bytes32"
            },
            {
              "name": "nonce",
              "type": "uint64",
              "internalType": "uint64"
            }
          ]
        },
        {
          "name": "_receiver",
          "type": "address",
          "internalType": "address"
        },
        {
          "name": "_guid",
          "type": "bytes32",
          "internalType": "bytes32"
        },
        {
          "name": "_message",
          "type": "bytes",
          "internalType": "bytes"
        },
        {
          "name": "_extraData",
          "type": "bytes",
          "internalType": "bytes"
        }
      ],
      "outputs": [],
      "stateMutability": "payable"
    },
    {
      "type": "function",
      "name": "lzReceiveAlert",
      "inputs": [
        {
          "name": "_origin",
          "type": "tuple",
          "internalType": "struct Origin",
          "components": [
            {
              "name": "srcEid",
              "type": "uint32",
              "internalType": "uint32"
            },
            {
              "name": "sender",
              "type": "bytes32",
              "internalType": "bytes32"
            },
            {
              "name": "nonce",
              "type": "uint64",
              "internalType": "uint64"
            }
          ]
        },
        {
          "name": "_receiver",
          "type": "address",
          "internalType": "address"
        },
        {
          "name": "_guid",
          "type": "bytes32",
          "internalType": "bytes32"
        },
        {
          "name": "_gas",
          "type": "uint256",
          "internalType": "uint256"
        },
        {
          "name": "_value",
          "type": "uint256",
          "internalType": "uint256"
        },
        {
          "name": "_message",
          "type": "bytes",
          "internalType": "bytes"
        },
        {
          "name": "_extraData",
          "type": "bytes",
          "internalType": "bytes"
        },
        {
          "name": "_reason",
          "type": "bytes",
          "internalType": "bytes"
        }
      ],
      "outputs": [],
      "stateMutability": "nonpayable"
    },
    {
      "type": "function",
      "name": "lzToken",
      "inputs": [],
      "outputs": [
        {
          "name": "",
          "type": "address",
          "internalType": "address"
        }
      ],
      "stateMutability": "view"
    },
    {
      "type": "function",
      "name": "nativeToken",
      "inputs": [],
      "outputs": [
        {
          "name": "",
          "type": "address",
          "internalType": "address"
        }
      ],
      "stateMutability": "view"
    },
    {
      "type": "function",
      "name": "nextGuid",
      "inputs": [
        {
          "name": "_sender",
          "type": "address",
          "internalType": "address"
        },
        {
          "name": "_dstEid",
          "type": "uint32",
          "internalType": "uint32"
        },
        {
          "name": "_receiver",
          "type": "bytes32",
          "internalType": "bytes32"
        }
      ],
      "outputs": [
        {
          "name": "",
          "type": "bytes32",
          "internalType": "bytes32"
        }
      ],
      "stateMutability": "view"
    },
    {
      "type": "function",
      "name": "nilify",
      "inputs": [
        {
          "name": "_oapp",
          "type": "address",
          "internalType": "address"
        },
        {
          "name": "_srcEid",
          "type": "uint32",
          "internalType": "uint32"
        },
        {
          "name": "_sender",
          "type": "bytes32",
          "internalType": "bytes32"
        },
        {
          "name": "_nonce",
          "type": "uint64",
          "internalType": "uint64"
        },
        {
          "name": "_payloadHash",
          "type": "bytes32",
          "internalType": "bytes32"
        }
      ],
      "outputs": [],
      "stateMutability": "nonpayable"
    },
    {
      "type": "function",
      "name": "outboundNonce",
      "inputs": [
        {
          "name": "sender",
          "type": "address",
          "internalType": "address"
        },
        {
          "name": "dstEid",
          "type": "uint32",
          "internalType": "uint32"
        },
        {
          "name": "receiver",
          "type": "bytes32",
          "internalType": "bytes32"
        }
      ],
      "outputs": [
        {
          "name": "nonce",
          "type": "uint64",
          "internalType": "uint64"
        }
      ],
      "stateMutability": "view"
    },
    {
      "type": "function",
      "name": "owner",
      "inputs": [],
      "outputs": [
        {
          "name": "",
          "type": "address",
          "internalType": "address"
        }
      ],
      "stateMutability": "view"
    },
    {
      "type": "function",
      "name": "quote",
      "inputs": [
        {
          "name": "_params",
          "type": "tuple",
          "internalType": "struct MessagingParams",
          "components": [
            {
              "name": "dstEid",
              "type": "uint32",
              "internalType": "uint32"
            },
            {
              "name": "receiver",
              "type": "bytes32",
              "internalType": "bytes32"
            },
            {
              "name": "message",
              "type": "bytes",
              "internalType": "bytes"
            },
            {
              "name": "options",
              "type": "bytes",
              "internalType": "bytes"
            },
            {
              "name": "payInLzToken",
              "type": "bool",
              "internalType": "bool"
            }
          ]
        },
        {
          "name": "_sender",
          "type": "address",
          "internalType": "address"
        }
      ],
      "outputs": [
        {
          "name": "",
          "type": "tuple",
          "internalType": "struct MessagingFee",
          "components": [
            {
              "name": "nativeFee",
              "type": "uint256",
              "internalType": "uint256"
            },
            {
              "name": "lzTokenFee",
              "type": "uint256",
              "internalType": "uint256"
            }
          ]
        }
      ],
      "stateMutability": "view"
    },
    {
      "type": "function",
      "name": "receiveLibraryTimeout",
      "inputs": [
        {
          "name": "receiver",
          "type": "address",
          "internalType": "address"
        },
        {
          "name": "srcEid",
          "type": "uint32",
          "internalType": "uint32"
        }
      ],
      "outputs": [
        {
          "name": "lib",
          "type": "address",
          "internalType": "address"
        },
        {
          "name": "expiry",
          "type": "uint256",
          "internalType": "uint256"
        }
      ],
      "stateMutability": "view"
    },
    {
      "type": "function",
      "name": "recoverToken",
      "inputs": [
        {
          "name": "_token",
          "type": "address",
          "internalType": "address"
        },
        {
          "name": "_to",
          "type": "address",
          "internalType": "address"
        },
        {
          "name": "_amount",
          "type": "uint256",
          "internalType": "uint256"
        }
      ],
      "outputs": [],
      "stateMutability": "nonpayable"
    },
    {
      "type": "function",
      "name": "registerLibrary",
      "inputs": [
        {
          "name": "_lib",
          "type": "address",
          "internalType": "address"
        }
      ],
      "outputs": [],
      "stateMutability": "nonpayable"
    },
    {
      "type": "function",
      "name": "renounceOwnership",
      "inputs": [],
      "outputs": [],
      "stateMutability": "nonpayable"
    },
    {
      "type": "function",
      "name": "send",
      "inputs": [
        {
          "name": "_params",
          "type": "tuple",
          "internalType": "struct MessagingParams",
          "components": [
            {
              "name": "dstEid",
              "type": "uint32",
              "internalType": "uint32"
            },
            {
              "name": "receiver",
              "type": "bytes32",
              "internalType": "bytes32"
            },
            {
              "name": "message",
              "type": "bytes",
              "internalType": "bytes"
            },
            {
              "name": "options",
              "type": "bytes",
              "internalType": "bytes"
            },
            {
              "name": "payInLzToken",
              "type": "bool",
              "internalType": "bool"
            }
          ]
        },
        {
          "name": "_refundAddress",
          "type": "address",
          "internalType": "address"
        }
      ],
      "outputs": [
        {
          "name": "",
          "type": "tuple",
          "internalType": "struct MessagingReceipt",
          "components": [
            {
              "name": "guid",
              "type": "bytes32",
              "internalType": "bytes32"
            },
            {
              "name": "nonce",
              "type": "uint64",
              "internalType": "uint64"
            },
            {
              "name": "fee",
              "type": "tuple",
              "internalType": "struct MessagingFee",
              "components": [
                {
                  "name": "nativeFee",
                  "type": "uint256",
                  "internalType": "uint256"
                },
                {
                  "name": "lzTokenFee",
                  "type": "uint256",
                  "internalType": "uint256"
                }
              ]
            }
          ]
        }
      ],
      "stateMutability": "payable"
    },
    {
      "type": "function",
      "name": "sendCompose",
      "inputs": [
        {
          "name": "_to",
          "type": "address",
          "internalType": "address"
        },
        {
          "name": "_guid",
          "type": "bytes32",
          "internalType": "bytes32"
        },
        {
          "name": "_index",
          "type": "uint16",
          "internalType": "uint16"
        },
        {
          "name": "_message",
          "type": "bytes",
          "internalType": "bytes"
        }
      ],
      "outputs": [],
      "stateMutability": "nonpayable"
    },
    {
      "type": "function",
      "name": "setConfig",
      "inputs": [
        {
          "name": "_oapp",
          "type": "address",
          "internalType": "address"
        },
        {
          "name": "_lib",
          "type": "address",
          "internalType": "address"
        },
        {
          "name": "_params",
          "type": "tuple[]",
          "internalType": "struct SetConfigParam[]",
          "components": [
            {
              "name": "eid",
              "type": "uint32",
              "internalType": "uint32"
            },
            {
              "name": "configType",
              "type": "uint32",
              "internalType": "uint32"
            },
            {
              "name": "config",
              "type": "bytes",
              "internalType": "bytes"
            }
          ]
        }
      ],
      "outputs": [],
      "stateMutability": "nonpayable"
    },
    {
      "type": "function",
      "name": "setDefaultReceiveLibrary",
      "inputs": [
        {
          "name": "_eid",
          "type": "uint32",
          "internalType": "uint32"
        },
        {
          "name": "_newLib",
          "type": "address",
          "internalType": "address"
        },
        {
          "name": "_gracePeriod",
          "type": "uint256",
          "internalType": "uint256"
        }
      ],
      "outputs": [],
      "stateMutability": "nonpayable"
    },
    {
      "type": "function",
      "name": "setDefaultReceiveLibraryTimeout",
      "inputs": [
        {
          "name": "_eid",
          "type": "uint32",
          "internalType": "uint32"
        },
        {
          "name": "_lib",
          "type": "address",
          "internalType": "address"
        },
        {
          "name": "_expiry",
          "type": "uint256",
          "internalType": "uint256"
        }
      ],
      "outputs": [],
      "stateMutability": "nonpayable"
    },
    {
      "type": "function",
      "name": "setDefaultSendLibrary",
      "inputs": [
        {
          "name": "_eid",
          "type": "uint32",
          "internalType": "uint32"
        },
        {
          "name": "_newLib",
          "type": "address",
          "internalType": "address"
        }
      ],
      "outputs": [],
      "stateMutability": "nonpayable"
    },
    {
      "type": "function",
      "name": "setDelegate",
      "inputs": [
        {
          "name": "_delegate",
          "type": "address",
          "internalType": "address"
        }
      ],
      "outputs": [],
      "stateMutability": "nonpayable"
    },
    {
      "type": "function",
      "name": "setLzToken",
      "inputs": [
        {
          "name": "_lzToken",
          "type": "address",
          "internalType": "address"
        }
      ],
      "outputs": [],
      "stateMutability": "nonpayable"
    },
    {
      "type": "function",
      "name": "setReceiveLibrary",
      "inputs": [
        {
          "name": "_oapp",
          "type": "address",
          "internalType": "address"
        },
        {
          "name": "_eid",
          "type": "uint32",
          "internalType": "uint32"
        },
        {
          "name": "_newLib",
          "type": "address",
          "internalType": "address"
        },
        {
          "name": "_gracePeriod",
          "type": "uint256",
          "internalType": "uint256"
        }
      ],
      "outputs": [],
      "stateMutability": "nonpayable"
    },
    {
      "type": "function",
      "name": "setReceiveLibraryTimeout",
      "inputs": [
        {
          "name": "_oapp",
          "type": "address",
          "internalType": "address"
        },
        {
          "name": "_eid",
          "type": "uint32",
          "internalType": "uint32"
        },
        {
          "name": "_lib",
          "type": "address",
          "internalType": "address"
        },
        {
          "name": "_expiry",
          "type": "uint256",
          "internalType": "uint256"
        }
      ],
      "outputs": [],
      "stateMutability": "nonpayable"
    },
    {
      "type": "function",
      "name": "setSendLibrary",
      "inputs": [
        {
          "name": "_oapp",
          "type": "address",
          "internalType": "address"
        },
        {
          "name": "_eid",
          "type": "uint32",
          "internalType": "uint32"
        },
        {
          "name": "_newLib",
          "type": "address",
          "internalType": "address"
        }
      ],
      "outputs": [],
      "stateMutability": "nonpayable"
    },
    {
      "type": "function",
      "name": "skip",
      "inputs": [
        {
          "name": "_oapp",
          "type": "address",
          "internalType": "address"
        },
        {
          "name": "_srcEid",
          "type": "uint32",
          "internalType": "uint32"
        },
        {
          "name": "_sender",
          "type": "bytes32",
          "internalType": "bytes32"
        },
        {
          "name": "_nonce",
          "type": "uint64",
          "internalType": "uint64"
        }
      ],
      "outputs": [],
      "stateMutability": "nonpayable"
    },
    {
      "type": "function",
      "name": "transferOwnership",
      "inputs": [
        {
          "name": "newOwner",
          "type": "address",
          "internalType": "address"
        }
      ],
      "outputs": [],
      "stateMutability": "nonpayable"
    },
    {
      "type": "function",
      "name": "verifiable",
      "inputs": [
        {
          "name": "_origin",
          "type": "tuple",
          "internalType": "struct Origin",
          "components": [
            {
              "name": "srcEid",
              "type": "uint32",
              "internalType": "uint32"
            },
            {
              "name": "sender",
              "type": "bytes32",
              "internalType": "bytes32"
            },
            {
              "name": "nonce",
              "type": "uint64",
              "internalType": "uint64"
            }
          ]
        },
        {
          "name": "_receiver",
          "type": "address",
          "internalType": "address"
        }
      ],
      "outputs": [
        {
          "name": "",
          "type": "bool",
          "internalType": "bool"
        }
      ],
      "stateMutability": "view"
    },
    {
      "type": "function",
      "name": "verify",
      "inputs": [
        {
          "name": "_origin",
          "type": "tuple",
          "internalType": "struct Origin",
          "components": [
            {
              "name": "srcEid",
              "type": "uint32",
              "internalType": "uint32"
            },
            {
              "name": "sender",
              "type": "bytes32",
              "internalType": "bytes32"
            },
            {
              "name": "nonce",
              "type": "uint64",
              "internalType": "uint64"
            }
          ]
        },
        {
          "name": "_receiver",
          "type": "address",
          "internalType": "address"
        },
        {
          "name": "_payloadHash",
          "type": "bytes32",
          "internalType": "bytes32"
        }
      ],
      "outputs": [],
      "stateMutability": "nonpayable"
    },
    {
      "type": "event",
      "name": "ComposeDelivered",
      "inputs": [
        {
          "name": "from",
          "type": "address",
          "indexed": false,
          "internalType": "address"
        },
        {
          "name": "to",
          "type": "address",
          "indexed": false,
          "internalType": "address"
        },
        {
          "name": "guid",
          "type": "bytes32",
          "indexed": false,
          "internalType": "bytes32"
        },
        {
          "name": "index",
          "type": "uint16",
          "indexed": false,
          "internalType": "uint16"
        }
      ],
      "anonymous": false
    },
    {
      "type": "event",
      "name": "ComposeSent",
      "inputs": [
        {
          "name": "from",
          "type": "address",
          "indexed": false,
          "internalType": "address"
        },
        {
          "name": "to",
          "type": "address",
          "indexed": false,
          "internalType": "address"
        },
        {
          "name": "guid",
          "type": "bytes32",
          "indexed": false,
          "internalType": "bytes32"
        },
        {
          "name": "index",
          "type": "uint16",
          "indexed": false,
          "internalType": "uint16"
        },
        {
          "name": "message",
          "type": "bytes",
          "indexed": false,
          "internalType": "bytes"
        }
      ],
      "anonymous": false
    },
    {
      "type": "event",
      "name": "DefaultReceiveLibrarySet",
      "inputs": [
        {
          "name": "eid",
          "type": "uint32",
          "indexed": false,
          "internalType": "uint32"
        },
        {
          "name": "newLib",
          "type": "address",
          "indexed": false,
          "internalType": "address"
        }
      ],
      "anonymous": false
    },
    {
      "type": "event",
      "name": "DefaultReceiveLibraryTimeoutSet",
      "inputs": [
        {
          "name": "eid",
          "type": "uint32",
          "indexed": false,
          "internalType": "uint32"
        },
        {
          "name": "oldLib",
          "type": "address",
          "indexed": false,
          "internalType": "address"
        },
        {
          "name": "expiry",
          "type": "uint256",
          "indexed": false,
          "internalType": "uint256"
        }
      ],
      "anonymous": false
    },
    {
      "type": "event",
      "name": "DefaultSendLibrarySet",
      "inputs": [
        {
          "name": "eid",
          "type": "uint32",
          "indexed": false,
          "internalType": "uint32"
        },
        {
          "name": "newLib",
          "type": "address",
          "indexed": false,
          "internalType": "address"
        }
      ],
      "anonymous": false
    },
    {
      "type": "event",
      "name": "DelegateSet",
      "inputs": [
        {
          "name": "sender",
          "type": "address",
          "indexed": false,
          "internalType": "address"
        },
        {
          "name": "delegate",
          "type": "address",
          "indexed": false,
          "internalType": "address"
        }
      ],
      "anonymous": false
    },
    {
      "type": "event",
      "name": "InboundNonceSkipped",
      "inputs": [
        {
          "name": "srcEid",
          "type": "uint32",
          "indexed": false,
          "internalType": "uint32"
        },
        {
          "name": "sender",
          "type": "bytes32",
          "indexed": false,
          "internalType": "bytes32"
        },
        {
          "name": "receiver",
          "type": "address",
          "indexed": false,
          "internalType": "address"
        },
        {
          "name": "nonce",
          "type": "uint64",
          "indexed": false,
          "internalType": "uint64"
        }
      ],
      "anonymous": false
    },
    {
      "type": "event",
      "name": "LibraryRegistered",
      "inputs": [
        {
          "name": "newLib",
          "type": "address",
          "indexed": false,
          "internalType": "address"
        }
      ],
      "anonymous": false
    },
    {
      "type": "event",
      "name": "LzComposeAlert",
      "inputs": [
        {
          "name": "from",
          "type": "address",
          "indexed": true,
          "internalType": "address"
        },
        {
          "name": "to",
          "type": "address",
          "indexed": true,
          "internalType": "address"
        },
        {
          "name": "executor",
          "type": "address",
          "indexed": true,
          "internalType": "address"
        },
        {
          "name": "guid",
          "type": "bytes32",
          "indexed": false,
          "internalType": "bytes32"
        },
        {
          "name": "index",
          "type": "uint16",
          "indexed": false,
          "internalType": "uint16"
        },
        {
          "name": "gas",
          "type": "uint256",
          "indexed": false,
          "internalType": "uint256"
        },
        {
          "name": "value",
          "type": "uint256",
          "indexed": false,
          "internalType": "uint256"
        },
        {
          "name": "message",
          "type": "bytes",
          "indexed": false,
          "internalType": "bytes"
        },
        {
          "name": "extraData",
          "type": "bytes",
          "indexed": false,
          "internalType": "bytes"
        },
        {
          "name": "reason",
          "type": "bytes",
          "indexed": false,
          "internalType": "bytes"
        }
      ],
      "anonymous": false
    },
    {
      "type": "event",
      "name": "LzReceiveAlert",
      "inputs": [
        {
          "name": "receiver",
          "type": "address",
          "indexed": true,
          "internalType": "address"
        },
        {
          "name": "executor",
          "type": "address",
          "indexed": true,
          "internalType": "address"
        },
        {
          "name": "origin",
          "type": "tuple",
          "indexed": false,
          "internalType": "struct Origin",
          "components": [
            {
              "name": "srcEid",
              "type": "uint32",
              "internalType": "uint32"
            },
            {
              "name": "sender",
              "type": "bytes32",
              "internalType": "bytes32"
            },
            {
              "name": "nonce",
              "type": "uint64",
              "internalType": "uint64"
            }
          ]
        },
        {
          "name": "guid",
          "type": "bytes32",
          "indexed": false,
          "internalType": "bytes32"
        },
        {
          "name": "gas",
          "type": "uint256",
          "indexed": false,
          "internalType": "uint256"
        },
        {
          "name": "value",
          "type": "uint256",
          "indexed": false,
          "internalType": "uint256"
        },
        {
          "name": "message",
          "type": "bytes",
          "indexed": false,
          "internalType": "bytes"
        },
        {
          "name": "extraData",
          "type": "bytes",
          "indexed": false,
          "internalType": "bytes"
        },
        {
          "name": "reason",
          "type": "bytes",
          "indexed": false,
          "internalType": "bytes"
        }
      ],
      "anonymous": false
    },
    {
      "type": "event",
      "name": "LzTokenSet",
      "inputs": [
        {
          "name": "token",
          "type": "address",
          "indexed": false,
          "internalType": "address"
        }
      ],
      "anonymous": false
    },
    {
      "type": "event",
      "name": "OwnershipTransferred",
      "inputs": [
        {
          "name": "previousOwner",
          "type": "address",
          "indexed": true,
          "internalType": "address"
        },
        {
          "name": "newOwner",
          "type": "address",
          "indexed": true,
          "internalType": "address"
        }
      ],
      "anonymous": false
    },
    {
      "type": "event",
      "name": "PacketBurnt",
      "inputs": [
        {
          "name": "srcEid",
          "type": "uint32",
          "indexed": false,
          "internalType": "uint32"
        },
        {
          "name": "sender",
          "type": "bytes32",
          "indexed": false,
          "internalType": "bytes32"
        },
        {
          "name": "receiver",
          "type": "address",
          "indexed": false,
          "internalType": "address"
        },
        {
          "name": "nonce",
          "type": "uint64",
          "indexed": false,
          "internalType": "uint64"
        },
        {
          "name": "payloadHash",
          "type": "bytes32",
          "indexed": false,
          "internalType": "bytes32"
        }
      ],
      "anonymous": false
    },
    {
      "type": "event",
      "name": "PacketDelivered",
      "inputs": [
        {
          "name": "origin",
          "type": "tuple",
          "indexed": false,
          "internalType": "struct Origin",
          "components": [
            {
              "name": "srcEid",
              "type": "uint32",
              "internalType": "uint32"
            },
            {
              "name": "sender",
              "type": "bytes32",
              "internalType": "bytes32"
            },
            {
              "name": "nonce",
              "type": "uint64",
              "internalType": "uint64"
            }
          ]
        },
        {
          "name": "receiver",
          "type": "address",
          "indexed": false,
          "internalType": "address"
        }
      ],
      "anonymous": false
    },
    {
      "type": "event",
      "name": "PacketNilified",
      "inputs": [
        {
          "name": "srcEid",
          "type": "uint32",
          "indexed": false,
          "internalType": "uint32"
        },
        {
          "name": "sender",
          "type": "bytes32",
          "indexed": false,
          "internalType": "bytes32"
        },
        {
          "name": "receiver",
          "type": "address",
          "indexed": false,
          "internalType": "address"
        },
        {
          "name": "nonce",
          "type": "uint64",
          "indexed": false,
          "internalType": "uint64"
        },
        {
          "name": "payloadHash",
          "type": "bytes32",
          "indexed": false,
          "internalType": "bytes32"
        }
      ],
      "anonymous": false
    },
    {
      "type": "event",
      "name": "PacketSent",
      "inputs": [
        {
          "name": "encodedPayload",
          "type": "bytes",
          "indexed": false,
          "internalType": "bytes"
        },
        {
          "name": "options",
          "type": "bytes",
          "indexed": false,
          "internalType": "bytes"
        },
        {
          "name": "sendLibrary",
          "type": "address",
          "indexed": false,
          "internalType": "address"
        }
      ],
      "anonymous": false
    },
    {
      "type": "event",
      "name": "PacketVerified",
      "inputs": [
        {
          "name": "origin",
          "type": "tuple",
          "indexed": false,
          "internalType": "struct Origin",
          "components": [
            {
              "name": "srcEid",
              "type": "uint32",
              "internalType": "uint32"
            },
            {
              "name": "sender",
              "type": "bytes32",
              "internalType": "bytes32"
            },
            {
              "name": "nonce",
              "type": "uint64",
              "internalType": "uint64"
            }
          ]
        },
        {
          "name": "receiver",
          "type": "address",
          "indexed": false,
          "internalType": "address"
        },
        {
          "name": "payloadHash",
          "type": "bytes32",
          "indexed": false,
          "internalType": "bytes32"
        }
      ],
      "anonymous": false
    },
    {
      "type": "event",
      "name": "ReceiveLibrarySet",
      "inputs": [
        {
          "name": "receiver",
          "type": "address",
          "indexed": false,
          "internalType": "address"
        },
        {
          "name": "eid",
          "type": "uint32",
          "indexed": false,
          "internalType": "uint32"
        },
        {
          "name": "newLib",
          "type": "address",
          "indexed": false,
          "internalType": "address"
        }
      ],
      "anonymous": false
    },
    {
      "type": "event",
      "name": "ReceiveLibraryTimeoutSet",
      "inputs": [
        {
          "name": "receiver",
          "type": "address",
          "indexed": false,
          "internalType": "address"
        },
        {
          "name": "eid",
          "type": "uint32",
          "indexed": false,
          "internalType": "uint32"
        },
        {
          "name": "oldLib",
          "type": "address",
          "indexed": false,
          "internalType": "address"
        },
        {
          "name": "timeout",
          "type": "uint256",
          "indexed": false,
          "internalType": "uint256"
        }
      ],
      "anonymous": false
    },
    {
      "type": "event",
      "name": "SendLibrarySet",
      "inputs": [
        {
          "name": "sender",
          "type": "address",
          "indexed": false,
          "internalType": "address"
        },
        {
          "name": "eid",
          "type": "uint32",
          "indexed": false,
          "internalType": "uint32"
        },
        {
          "name": "newLib",
          "type": "address",
          "indexed": false,
          "internalType": "address"
        }
      ],
      "anonymous": false
    },
    {
      "type": "error",
      "name": "AddressEmptyCode",
      "inputs": [
        {
          "name": "target",
          "type": "address",
          "internalType": "address"
        }
      ]
    },
    {
      "type": "error",
      "name": "AddressInsufficientBalance",
      "inputs": [
        {
          "name": "account",
          "type": "address",
          "internalType": "address"
        }
      ]
    },
    {
      "type": "error",
      "name": "FailedInnerCall",
      "inputs": []
    },
    {
      "type": "error",
      "name": "LZ_AlreadyRegistered",
      "inputs": []
    },
    {
      "type": "error",
      "name": "LZ_ComposeExists",
      "inputs": []
    },
    {
      "type": "error",
      "name": "LZ_ComposeNotFound",
      "inputs": [
        {
          "name": "expected",
          "type": "bytes32",
          "internalType": "bytes32"
        },
        {
          "name": "actual",
          "type": "bytes32",
          "internalType": "bytes32"
        }
      ]
    },
    {
      "type": "error",
      "name": "LZ_DefaultReceiveLibUnavailable",
      "inputs": []
    },
    {
      "type": "error",
      "name": "LZ_DefaultSendLibUnavailable",
      "inputs": []
    },
    {
      "type": "error",
      "name": "LZ_InsufficientFee",
      "inputs": [
        {
          "name": "requiredNative",
          "type": "uint256",
          "internalType": "uint256"
        },
        {
          "name": "suppliedNative",
          "type": "uint256",
          "internalType": "uint256"
        },
        {
          "name": "requiredLzToken",
          "type": "uint256",
          "internalType": "uint256"
        },
        {
          "name": "suppliedLzToken",
          "type": "uint256",
          "internalType": "uint256"
        }
      ]
    },
    {
      "type": "error",
      "name": "LZ_InvalidExpiry",
      "inputs": []
    },
    {
      "type": "error",
      "name": "LZ_InvalidNonce",
      "inputs": [
        {
          "name": "nonce",
          "type": "uint64",
          "internalType": "uint64"
        }
      ]
    },
    {
      "type": "error",
      "name": "LZ_InvalidPayloadHash",
      "inputs": []
    },
    {
      "type": "error",
      "name": "LZ_InvalidReceiveLibrary",
      "inputs": []
    },
    {
      "type": "error",
      "name": "LZ_LzTokenUnavailable",
      "inputs": []
    },
    {
      "type": "error",
      "name": "LZ_OnlyNonDefaultLib",
      "inputs": []
    },
    {
      "type": "error",
      "name": "LZ_OnlyReceiveLib",
      "inputs": []
    },
    {
      "type": "error",
      "name": "LZ_OnlyRegisteredLib",
      "inputs": []
    },
    {
      "type": "error",
      "name": "LZ_OnlyRegisteredOrDefaultLib",
      "inputs": []
    },
    {
      "type": "error",
      "name": "LZ_OnlySendLib",
      "inputs": []
    },
    {
      "type": "error",
      "name": "LZ_PathNotInitializable",
      "inputs": []
    },
    {
      "type": "error",
      "name": "LZ_PathNotVerifiable",
      "inputs": []
    },
    {
      "type": "error",
      "name": "LZ_PayloadHashNotFound",
      "inputs": [
        {
          "name": "expected",
          "type": "bytes32",
          "internalType": "bytes32"
        },
        {
          "name": "actual",
          "type": "bytes32",
          "internalType": "bytes32"
        }
      ]
    },
    {
      "type": "error",
      "name": "LZ_SameValue",
      "inputs": []
    },
    {
      "type": "error",
      "name": "LZ_SendReentrancy",
      "inputs": []
    },
    {
      "type": "error",
      "name": "LZ_Unauthorized",
      "inputs": []
    },
    {
      "type": "error",
      "name": "LZ_UnsupportedEid",
      "inputs": []
    },
    {
      "type": "error",
      "name": "LZ_UnsupportedInterface",
      "inputs": []
    },
    {
      "type": "error",
      "name": "LZ_ZeroLzTokenFee",
      "inputs": []
    },
    {
      "type": "error",
      "name": "OwnableInvalidOwner",
      "inputs": [
        {
          "name": "owner",
          "type": "address",
          "internalType": "address"
        }
      ]
    },
    {
      "type": "error",
      "name": "OwnableUnauthorizedAccount",
      "inputs": [
        {
          "name": "account",
          "type": "address",
          "internalType": "address"
        }
      ]
    },
    {
      "type": "error",
      "name": "SafeERC20FailedOperation",
      "inputs": [
        {
          "name": "token",
          "type": "address",
          "internalType": "address"
        }
      ]
    },
    {
      "type": "error",
      "name": "Transfer_NativeFailed",
      "inputs": [
        {
          "name": "_to",
          "type": "address",
          "internalType": "address"
        },
        {
          "name": "_value",
          "type": "uint256",
          "internalType": "uint256"
        }
      ]
    },
    {
      "type": "error",
      "name": "Transfer_ToAddressIsZero",
      "inputs": []
    }
  ],
  "bytecode": {
    "object": "0x60c06040526001600d553480156200001657600080fd5b50604051620055c1380380620055c18339810160408190526200003991620002cd565b81816001600160a01b0381166200006b57604051631e4fbdf760e01b8152600060048201526024015b60405180910390fd5b6200007681620000cd565b5063ffffffff166080526040516200008e90620002bf565b604051809103906000f080158015620000ab573d6000803e3d6000fd5b506001600160a01b031660a0819052620000c5906200011d565b50506200034a565b600080546001600160a01b038381166001600160a01b0319831681178455604051919092169283917f8be0079c531659141344cd1fd0a4f28419497f9722a3daafe3b4186f6b6457e09190a35050565b620001276200028e565b6040516301ffc9a760e01b81526325fc096160e21b60048201526001600160a01b038216906301ffc9a790602401602060405180830381865afa15801562000173573d6000803e3d6000fd5b505050506040513d601f19601f820116820180604052508101906200019991906200031f565b620001b75760405163eb64f35d60e01b815260040160405180910390fd5b6001600160a01b03811660009081526005602052604090205460ff1615620001f25760405163457517f360e11b815260040160405180910390fd5b6001600160a01b0381166000818152600560209081526040808320805460ff191660019081179091556004805491820181559093527f8a35acfbc15ff81a39ae7d344fd709f28e8600b4aa8c65c6b64bfe7fe36bd19b90920180546001600160a01b0319168417905590519182527f6b374d56679ca9463f27c85c6311e2bb7fde69bf201d3da39d53f10bd9d78af5910160405180910390a150565b6000546001600160a01b03163314620002bd5760405163118cdaa760e01b815233600482015260240162000062565b565b6101e380620053de83390190565b60008060408385031215620002e157600080fd5b825163ffffffff81168114620002f657600080fd5b60208401519092506001600160a01b03811681146200031457600080fd5b809150509250929050565b6000602082840312156200033257600080fd5b815180151581146200034357600080fd5b9392505050565b60805160a05161504b6200039360003960006107810152600081816105310152818161278901528181612f7b01528181612fe20152818161355301526135ba015261504b6000f3fe6080604052600436106103505760003560e01c80639132e5c3116101c6578063c9fc7bcd116100f7578063ddc28c5811610095578063e8964e811161006f578063e8964e8114610b8f578063ef667aa114610baf578063f2fde38b14610bfa578063f64be4c714610c1a57600080fd5b8063ddc28c5814610b2e578063e1758bd814610b5b578063e4fe1d9414610b6f57600080fd5b8063d4b4ec8f116100d1578063d4b4ec8f14610a72578063d70b890214610a92578063dc706a6214610ab2578063dc93c8a214610ae257600080fd5b8063c9fc7bcd146109f6578063ca5eb5e114610a3d578063cb5026b914610a5d57600080fd5b8063a7229fd911610164578063aafea3121161013e578063aafea31214610976578063b96a277f14610996578063c28e0eed146109b6578063c9a54a99146109d657600080fd5b8063a7229fd914610916578063a825d74714610936578063aafe5e071461095657600080fd5b80639c6d7340116101a05780639c6d73401461086f5780639d7f9775146108b6578063a0dd43fc146108d6578063a718531b146108f657600080fd5b80639132e5c31461081a57806391d20fa11461083c5780639535ff301461084f57600080fd5b80635b17bb70116102a05780636f50a8031161023e57806379624ca91161021857806379624ca9146107a35780637cb59012146107bc578063861e1ca5146107dc5780638da5cb5b146107fc57600080fd5b80636f50a80314610724578063715018a61461075a578063733180911461076f57600080fd5b80636a14d7151161027a5780636a14d715146106655780636bf73fa3146106855780636dbd9f90146106a55780636e83f5bb146106c557600080fd5b80635b17bb70146105b65780636750cd4c14610615578063697fe6b61461064557600080fd5b80632baf0be71161030d578063402f8468116102e7578063402f8468146104c057806340f80683146104ff578063416ecebf1461051f578063587cde1e1461056857600080fd5b80632baf0be7146104355780632e80fbf31461045957806335d330b01461047957600080fd5b80630c0c389e1461035557806314f651a91461036a578063183c834f146103a85780632637a450146103c85780632a56c1b0146103e85780632b3197b914610408575b600080fd5b610368610363366004613ef7565b610c50565b005b34801561037657600080fd5b5061037f610d4e565b6040805163ffffffff90931683526001600160a01b039091166020830152015b60405180910390f35b3480156103b457600080fd5b506103686103c3366004613fa6565b610d80565b6103db6103d6366004613ff1565b611027565b60405161039f9190614043565b3480156103f457600080fd5b50610368610403366004614085565b61114d565b34801561041457600080fd5b506104286104233660046140f4565b6111ed565b60405161039f9190614198565b34801561044157600080fd5b5061044b60001981565b60405190815260200161039f565b34801561046557600080fd5b506103686104743660046141c2565b6112b8565b34801561048557600080fd5b5061044b610494366004614229565b600c60209081526000948552604080862082529385528385208152918452828420909152825290205481565b3480156104cc57600080fd5b506104e06104db36600461426b565b611427565b604080516001600160a01b03909316835290151560208301520161039f565b34801561050b57600080fd5b5061036861051a3660046141c2565b6114a5565b34801561052b57600080fd5b506105537f000000000000000000000000000000000000000000000000000000000000000081565b60405163ffffffff909116815260200161039f565b34801561057457600080fd5b5061059e610583366004614295565b600f602052600090815260409020546001600160a01b031681565b6040516001600160a01b03909116815260200161039f565b3480156105c257600080fd5b506105fd6105d13660046142b0565b60016020908152600093845260408085208252928452828420905282529020546001600160401b031681565b6040516001600160401b03909116815260200161039f565b34801561062157600080fd5b506106356106303660046142ec565b61160b565b604051901515815260200161039f565b34801561065157600080fd5b50610368610660366004614307565b61165b565b34801561067157600080fd5b50610368610680366004613fa6565b6116d0565b34801561069157600080fd5b506103686106a0366004614402565b611aae565b3480156106b157600080fd5b506103686106c03660046144e5565b611b18565b3480156106d157600080fd5b506107056106e03660046142ec565b600b60205260009081526040902080546001909101546001600160a01b039091169082565b604080516001600160a01b03909316835260208301919091520161039f565b34801561073057600080fd5b5061059e61073f3660046142ec565b600a602052600090815260409020546001600160a01b031681565b34801561076657600080fd5b50610368611bba565b34801561077b57600080fd5b5061059e7f000000000000000000000000000000000000000000000000000000000000000081565b3480156107af57600080fd5b50600d5460011415610635565b3480156107c857600080fd5b506103686107d7366004614575565b611bce565b3480156107e857600080fd5b506106356107f73660046145c6565b611cba565b34801561080857600080fd5b506000546001600160a01b031661059e565b34801561082657600080fd5b5061082f611d26565b60405161039f91906145f1565b61036861084a36600461463e565b611d88565b34801561085b57600080fd5b5061036861086a3660046146e8565b611f18565b34801561087b57600080fd5b506105fd61088a3660046142b0565b60036020908152600093845260408085208252928452828420905282529020546001600160401b031681565b3480156108c257600080fd5b506106356108d13660046146e8565b61217c565b3480156108e257600080fd5b506105fd6108f13660046142b0565b612256565b34801561090257600080fd5b5061036861091136600461472b565b6122b6565b34801561092257600080fd5b50610368610931366004614757565b6125d6565b34801561094257600080fd5b50610368610951366004614775565b6125ee565b34801561096257600080fd5b5061044b6109713660046142b0565b612739565b34801561098257600080fd5b506103686109913660046147b2565b6127b9565b3480156109a257600080fd5b5061059e6109b136600461426b565b6129e2565b3480156109c257600080fd5b506103686109d1366004614295565b612a51565b3480156109e257600080fd5b506106356109f13660046145c6565b612aae565b348015610a0257600080fd5b5061044b610a113660046147ce565b600260209081526000948552604080862082529385528385208152918452828420909152825290205481565b348015610a4957600080fd5b50610368610a58366004614295565b612b13565b348015610a6957600080fd5b5061044b600081565b348015610a7e57600080fd5b50610368610a8d36600461472b565b612b73565b348015610a9e57600080fd5b50610368610aad3660046147ce565b612db1565b348015610abe57600080fd5b50610635610acd366004614295565b60056020526000908152604090205460ff1681565b348015610aee57600080fd5b50610635610afd36600461426b565b6001600160a01b03918216600090815260066020908152604080832063ffffffff9490941683529290522054161590565b348015610b3a57600080fd5b50610b4e610b49366004613ff1565b612ea0565b60405161039f9190614810565b348015610b6757600080fd5b50600061059e565b348015610b7b57600080fd5b50600e5461059e906001600160a01b031681565b348015610b9b57600080fd5b50610368610baa366004614295565b61310c565b348015610bbb57600080fd5b50610705610bca36600461426b565b6008602090815260009283526040808420909152908252902080546001909101546001600160a01b039091169082565b348015610c0657600080fd5b50610368610c15366004614295565b613270565b348015610c2657600080fd5b5061059e610c353660046142ec565b6009602052600090815260409020546001600160a01b031681565b610c9f86610c6160208a018a6142ec565b60208a0135610c7660608c0160408d01614827565b898989604051602001610c8b93929190614842565b6040516020818303038152906040526132ae565b506040516313137d6560e01b81526001600160a01b038716906313137d65903490610cda908b908a908a908a9033908b908b906004016148be565b6000604051808303818588803b158015610cf357600080fd5b505af1158015610d07573d6000803e3d6000fd5b50505050507f3cd5e48f9730b129dc7550f0fcea9c767b7be37837cd10e55eb35f734f4bca048787604051610d3d929190614915565b60405180910390a150505050505050565b600080610d5e600d546001141590565b610d6a57600080610d78565b610d78600d5460a081901c91565b915091509091565b6001600160a01b038216600090815260056020526040902054829060ff16610dbb57604051631bc58ef360e11b815260040160405180910390fd5b826001600160a01b03811615610e5e576000816001600160a01b0316631881d94d6040518163ffffffff1660e01b8152600401602060405180830381865afa158015610e0b573d6000803e3d6000fd5b505050506040513d601f19601f82011682018060405250810190610e2f9190614951565b6002811115610e4057610e4061493b565b03610e5e576040516342756b1b60e11b815260040160405180910390fd5b83856001600160a01b03821615610efa576040516319d4335360e21b815263ffffffff821660048201526001600160a01b03831690636750cd4c90602401602060405180830381865afa158015610eb9573d6000803e3d6000fd5b505050506040513d601f19601f82011682018060405250810190610edd9190614980565b610efa57604051630e476aa960e21b815260040160405180910390fd5b610f0388613469565b6000610f0f8989611427565b9150508015610f3157604051633c075f7560e01b815260040160405180910390fd5b85600003610f79576001600160a01b038916600090815260086020908152604080832063ffffffff8c168452909152812080546001600160a01b031916815560010155610fdf565b438611610f99576040516302efcf9160e11b815260040160405180910390fd5b6001600160a01b03898116600090815260086020908152604080832063ffffffff8d168452909152902080546001600160a01b0319169189169190911781556001018690555b7f4e0a5bbfa0c11a64effb1ada324b5437a17272e1aed9320398715ef71bb2092889898989604051611014949392919061499d565b60405180910390a1505050505050505050565b61102f613e40565b61103c60208401846142ec565b336001600d54146110605760405163ee120b0960e01b815260040160405180910390fd5b63ffffffff60a01b60a083811b919091166001600160a01b03831617600d5561108e908601608087016149cd565b80156110a35750600e546001600160a01b0316155b156110c157604051632d7b695560e11b815260040160405180910390fd5b6000806110ce33886134ba565b9150915060006110db3490565b905060006110f76110f260a08b0160808c016149cd565b613766565b905061110884604001518383613802565b600e5460408501516020015161112a916001600160a01b03169083868c613850565b60408401515161113c9083858b61387d565b50506001600d555095945050505050565b61115685613469565b600083838360405160200161116d93929190614842565b60408051601f1981840301815291905290506111ab8661119060208801886142ec565b60208801356111a560608a0160408b01614827565b856132ae565b507f3cd5e48f9730b129dc7550f0fcea9c767b7be37837cd10e55eb35f734f4bca0485876040516111dd929190614915565b60405180910390a1505050505050565b6001600160a01b038316600090815260056020526040902054606090849060ff1661122b57604051631bc58ef360e11b815260040160405180910390fd5b604051639c33abf760e01b815263ffffffff80861660048301526001600160a01b0388811660248401529085166044830152861690639c33abf790606401600060405180830381865afa158015611286573d6000803e3d6000fd5b505050506040513d6000823e601f3d908101601f191682016040526112ae9190810190614a7d565b9695505050505050565b6112c185613469565b6001600160a01b038516600090815260026020908152604080832063ffffffff88168452825280832086845282528083206001600160401b038616845290915290205481811461133357604051637182306f60e01b815260048101829052602481018390526044015b60405180910390fd5b6001600160a01b038616600090815260016020908152604080832063ffffffff8916845282528083208784529091529020546001600160401b039081169084161180159061137f575080155b156113a857604051630c09b63560e41b81526001600160401b038416600482015260240161132a565b6001600160a01b038616600090815260026020908152604080832063ffffffff89168452825280832087845282528083206001600160401b0387168452909152908190206000199055517faf0450c392c4f702515a457a362328c8aa21916048ca6d0419e248b30cb55292906111dd90879087908a9088908890614ab1565b6001600160a01b03808316600090815260076020908152604080832063ffffffff86168452909152812054909116908161149e5763ffffffff83166000908152600a60205260409020546001600160a01b031691508161149a57604051633c74268360e11b815260040160405180910390fd5b5060015b9250929050565b6114ae85613469565b6001600160a01b038516600090815260026020908152604080832063ffffffff88168452825280832086845282528083206001600160401b038616845290915290205481811461151b57604051637182306f60e01b8152600481018290526024810183905260440161132a565b80158061156557506001600160a01b038616600090815260016020908152604080832063ffffffff8916845282528083208784529091529020546001600160401b03908116908416115b1561158e57604051630c09b63560e41b81526001600160401b038416600482015260240161132a565b6001600160a01b038616600090815260026020908152604080832063ffffffff89168452825280832087845282528083206001600160401b038716845290915280822091909155517f7f68a37a6e69a0de35024a234558f9efe4b33b58657753d21eaaa82d51c3510e906111dd90879087908a9088908890614ab1565b63ffffffff81166000908152600960205260408120546001600160a01b031615801590611655575063ffffffff82166000908152600a60205260409020546001600160a01b031615155b92915050565b336001600160a01b03168b6001600160a01b03168d6001600160a01b03167f8a0b1dce321c5c5fb42349bce46d18087c04140de520917661fb923e44a904b98d8d8d8d8d8d8d8d8d8d6040516116ba9a99989796959493929190614aee565b60405180910390a4505050505050505050505050565b6001600160a01b038216600090815260056020526040902054829060ff1615801561170357506001600160a01b03811615155b156117215760405163a4ff2ec360e01b815260040160405180910390fd5b826001600160a01b038116156117c4576000816001600160a01b0316631881d94d6040518163ffffffff1660e01b8152600401602060405180830381865afa158015611771573d6000803e3d6000fd5b505050506040513d601f19601f820116820180604052508101906117959190614951565b60028111156117a6576117a661493b565b036117c4576040516342756b1b60e11b815260040160405180910390fd5b83856001600160a01b03821615611860576040516319d4335360e21b815263ffffffff821660048201526001600160a01b03831690636750cd4c90602401602060405180830381865afa15801561181f573d6000803e3d6000fd5b505050506040513d601f19601f820116820180604052508101906118439190614980565b61186057604051630e476aa960e21b815260040160405180910390fd5b61186988613469565b6001600160a01b03808916600090815260076020908152604080832063ffffffff8c168452909152902054811690871681036118b85760405163d0ecb66b60e01b815260040160405180910390fd5b6001600160a01b03898116600081815260076020908152604080832063ffffffff8e168085529083529281902080546001600160a01b031916958d1695861790558051938452908301919091528101919091527fcd6f92f5ac6185a5acfa02c92090746cec64d777269cbcd0ed031e396657a1c29060600160405180910390a18515611a32576001600160a01b038116158061195b57506001600160a01b038716155b1561197957604051633c075f7560e01b815260040160405180910390fd5b60006040518060400160405280836001600160a01b0316815260200188436119a19190614b6d565b90526001600160a01b038b8116600090815260086020908152604080832063ffffffff8f168452825291829020845181546001600160a01b03191694169390931783558301516001909201829055519192507f4e0a5bbfa0c11a64effb1ada324b5437a17272e1aed9320398715ef71bb2092891611a24918d918d91879161499d565b60405180910390a150611aa3565b6001600160a01b038916600090815260086020908152604080832063ffffffff8c16845290915280822080546001600160a01b0319168155600101829055517f4e0a5bbfa0c11a64effb1ada324b5437a17272e1aed9320398715ef71bb2092891611014918c918c9186919061499d565b505050505050505050565b336001600160a01b03168a6001600160a01b03167f7edfa10fe10193301ad8a8bea7e968c7bcabcc64981f368e3aeada40ce26ae2c8d8c8c8c8c8c8c8c8c8c604051611b039a99989796959493929190614b80565b60405180910390a35050505050505050505050565b6001600160a01b038316600090815260056020526040902054839060ff16611b5357604051631bc58ef360e11b815260040160405180910390fd5b611b5c85613469565b604051631077eb9160e11b81526001600160a01b038516906320efd72290611b8c90889087908790600401614bdf565b600060405180830381600087803b158015611ba657600080fd5b505af1158015611aa3573d6000803e3d6000fd5b611bc26138a7565b611bcc60006138d4565b565b336000908152600c602090815260408083206001600160a01b03891684528252808320878452825280832061ffff8716845290915290205415611c2457604051630542086560e21b815260040160405180910390fd5b8181604051611c34929190614cd2565b60408051918290038220336000818152600c60209081528482206001600160a01b038c16835281528482208a8352815284822061ffff8a168352905292909220557f3d52ff888d033fd3dd1d8057da59e850c91d91a72c41dfa445b247dfedeb6dc191611cab919088908890889088908890614ce2565b60405180910390a15050505050565b6001600160a01b03811660009081526001602090815260408220611d1f91859185918590611cea908501856142ec565b63ffffffff168152602080820192909252604090810160009081208984013582529092529020546001600160401b0316613924565b9392505050565b60606004805480602002602001604051908101604052809291908181526020018280548015611d7e57602002820191906000526020600020905b81546001600160a01b03168152600190910190602001808311611d60575b5050505050905090565b6001600160a01b038089166000908152600c60209081526040808320938b168352928152828220898352815282822061ffff891683529052818120549151611dd39087908790614cd2565b60405180910390209050808214611e07576040516335ca595f60e01b8152600481018390526024810182905260440161132a565b6001600160a01b03808b166000908152600c60209081526040808320938d168084529382528083208c8452825280832061ffff8c168452909152908190206001905551630685081360e51b815263d0a10260903490611e76908e908d908c908c9033908d908d90600401614d2c565b6000604051808303818588803b158015611e8f57600080fd5b505af1158015611ea3573d6000803e3d6000fd5b50505050507e36c98efcf9e6641dfbc9051f66f405253e8e0c2ab4a24dccda15595b7378c88a8a8a8a604051611f0494939291906001600160a01b039485168152929093166020830152604082015261ffff91909116606082015260800190565b60405180910390a150505050505050505050565b6001600160a01b038116600090815260056020526040902054819060ff16158015611f4b57506001600160a01b03811615155b15611f695760405163a4ff2ec360e01b815260040160405180910390fd5b816001600160a01b0381161561200c576001816001600160a01b0316631881d94d6040518163ffffffff1660e01b8152600401602060405180830381865afa158015611fb9573d6000803e3d6000fd5b505050506040513d601f19601f82011682018060405250810190611fdd9190614951565b6002811115611fee57611fee61493b565b0361200c57604051633d00f6f160e11b815260040160405180910390fd5b82846001600160a01b038216156120a8576040516319d4335360e21b815263ffffffff821660048201526001600160a01b03831690636750cd4c90602401602060405180830381865afa158015612067573d6000803e3d6000fd5b505050506040513d601f19601f8201168201806040525081019061208b9190614980565b6120a857604051630e476aa960e21b815260040160405180910390fd5b6120b187613469565b6001600160a01b03878116600090815260066020908152604080832063ffffffff8b1684529091529020548187169116036120ff5760405163d0ecb66b60e01b815260040160405180910390fd5b6001600160a01b03878116600081815260066020908152604080832063ffffffff8c168085529083529281902080546001600160a01b031916958b1695861790558051938452908301919091528101919091527f4cff966ebee29a156dcb34cf72c1d06231fb1777f6bdf6e8089819232f002b1c90606001610d3d565b600080600061218b8686611427565b91509150816001600160a01b0316846001600160a01b0316036121b357600192505050611d1f565b6000816121e8576001600160a01b038716600090815260086020908152604080832063ffffffff8a16845290915290206121fe565b63ffffffff86166000908152600b602052604090205b6040805180820190915281546001600160a01b03908116808352600190930154602083015290925086161480156122385750438160200151115b156122495760019350505050611d1f565b5060009695505050505050565b6001600160a01b038316600090815260016020908152604080832063ffffffff8616845282528083208484529091528120546001600160401b03165b6122a1858585846001016139a8565b156122ae57600101612292565b949350505050565b6122be6138a7565b6001600160a01b038216600090815260056020526040902054829060ff166122f957604051631bc58ef360e11b815260040160405180910390fd5b826001600160a01b0381161561239c576000816001600160a01b0316631881d94d6040518163ffffffff1660e01b8152600401602060405180830381865afa158015612349573d6000803e3d6000fd5b505050506040513d601f19601f8201168201806040525081019061236d9190614951565b600281111561237e5761237e61493b565b0361239c576040516342756b1b60e11b815260040160405180910390fd5b83856001600160a01b03821615612438576040516319d4335360e21b815263ffffffff821660048201526001600160a01b03831690636750cd4c90602401602060405180830381865afa1580156123f7573d6000803e3d6000fd5b505050506040513d601f19601f8201168201806040525081019061241b9190614980565b61243857604051630e476aa960e21b815260040160405180910390fd5b63ffffffff87166000908152600a60205260409020546001600160a01b03908116908716810361247b5760405163d0ecb66b60e01b815260040160405180910390fd5b63ffffffff88166000818152600a602090815260409182902080546001600160a01b0319166001600160a01b038c169081179091558251938452908301527fc16891855cffb4a5ac51ac11864a3f3c96ba816cc45fe686c987ae36277de5ec910160405180910390a185156125695763ffffffff88166000908152600b6020526040902080546001600160a01b0319166001600160a01b0383161781556125228743614b6d565b600182018190556040517f55b28633cdb29709386f555dfc54418592ad475ce7a65a78ac5928af60ffb8f89161255b918c918691614d7f565b60405180910390a1506125cc565b63ffffffff88166000908152600b602052604080822080546001600160a01b0319168155600101829055517f55b28633cdb29709386f555dfc54418592ad475ce7a65a78ac5928af60ffb8f8916125c3918b918591614d7f565b60405180910390a15b5050505050505050565b6125de6138a7565b6125e98383836139f5565b505050565b612605826125ff60208601866142ec565b3361217c565b612622576040516313e9bb2b60e21b815260040160405180910390fd5b6001600160a01b0382166000908152600160209081526040822090829061264b908701876142ec565b63ffffffff168152602080820192909252604090810160009081208784013582529092529020546001600160401b03169050612688848483613924565b6126a55760405163751cb20f60e01b815260040160405180910390fd5b6126b0848483613a18565b6126cc5760405162bbf0e560e11b815260040160405180910390fd5b6126f8836126dd60208701876142ec565b60208701356126f26060890160408a01614827565b86613ad5565b7f0d87345f3d1c929caba93e1c3821b54ff3512e12b66aa3cfe54b6bcbc17e59b484848460405161272b93929190614da6565b60405180910390a150505050565b6001600160a01b038316600090815260036020908152604080832063ffffffff8616845282528083208484529091528120548190612781906001600160401b03166001614dce565b90506127b0817f0000000000000000000000000000000000000000000000000000000000000000878787613b3b565b95945050505050565b6127c16138a7565b6001600160a01b038116600090815260056020526040902054819060ff166127fc57604051631bc58ef360e11b815260040160405180910390fd5b816001600160a01b0381161561289f576001816001600160a01b0316631881d94d6040518163ffffffff1660e01b8152600401602060405180830381865afa15801561284c573d6000803e3d6000fd5b505050506040513d601f19601f820116820180604052508101906128709190614951565b60028111156128815761288161493b565b0361289f57604051633d00f6f160e11b815260040160405180910390fd5b82846001600160a01b0382161561293b576040516319d4335360e21b815263ffffffff821660048201526001600160a01b03831690636750cd4c90602401602060405180830381865afa1580156128fa573d6000803e3d6000fd5b505050506040513d601f19601f8201168201806040525081019061291e9190614980565b61293b57604051630e476aa960e21b815260040160405180910390fd5b63ffffffff86166000908152600960205260409020546001600160a01b0380871691160361297c5760405163d0ecb66b60e01b815260040160405180910390fd5b63ffffffff861660008181526009602090815260409182902080546001600160a01b0319166001600160a01b038a169081179091558251938452908301527f16aa0f528038ab41019e95bae5b418a50ba8532c5800e3b7ea2f517d3fa625f591016111dd565b6001600160a01b03808316600090815260066020908152604080832063ffffffff861684529091529020541680611655575063ffffffff81166000908152600960205260409020546001600160a01b03168061165557604051636c1ccdb560e01b815260040160405180910390fd5b612a596138a7565b600e80546001600160a01b0319166001600160a01b0383169081179091556040519081527fd476ec5ec1ac11cec3714d41e7ea49419471aceb9bd0dff1becfc3e363a62396906020015b60405180910390a150565b6001600160a01b03811660009081526001602090815260408220611d1f91859185918590612ade908501856142ec565b63ffffffff168152602080820192909252604090810160009081208984013582529092529020546001600160401b0316613a18565b336000818152600f602090815260409182902080546001600160a01b0319166001600160a01b0386169081179091558251938452908301527f6ee10e9ed4d6ce9742703a498707862f4b00f1396a87195eb93267b3d79839819101612aa3565b6001600160a01b038216600090815260056020526040902054829060ff16612bae57604051631bc58ef360e11b815260040160405180910390fd5b826001600160a01b03811615612c51576000816001600160a01b0316631881d94d6040518163ffffffff1660e01b8152600401602060405180830381865afa158015612bfe573d6000803e3d6000fd5b505050506040513d601f19601f82011682018060405250810190612c229190614951565b6002811115612c3357612c3361493b565b03612c51576040516342756b1b60e11b815260040160405180910390fd5b83856001600160a01b03821615612ced576040516319d4335360e21b815263ffffffff821660048201526001600160a01b03831690636750cd4c90602401602060405180830381865afa158015612cac573d6000803e3d6000fd5b505050506040513d601f19601f82011682018060405250810190612cd09190614980565b612ced57604051630e476aa960e21b815260040160405180910390fd5b612cf56138a7565b84600003612d295763ffffffff87166000908152600b6020526040812080546001600160a01b031916815560010155612d7e565b438511612d49576040516302efcf9160e11b815260040160405180910390fd5b63ffffffff87166000908152600b6020526040902080546001600160a01b0319166001600160a01b0388161781556001018590555b7f55b28633cdb29709386f555dfc54418592ad475ce7a65a78ac5928af60ffb8f8878787604051610d3d93929190614d7f565b612dba84613469565b612dc5848484612256565b612dd0906001614dce565b6001600160401b0316816001600160401b031614612e0c57604051630c09b63560e41b81526001600160401b038216600482015260240161132a565b6001600160a01b038416600081815260016020908152604080832063ffffffff8816808552908352818420878552835292819020805467ffffffffffffffff19166001600160401b038716908117909155815193845291830186905282019290925260608101919091527f28f40053783033ef755556a0c3315379141f51a33aed8334174ffbadd90bde489060800161272b565b6040805180820190915260008082526020820152612ec460a08401608085016149cd565b8015612ed95750600e546001600160a01b0316155b15612ef757604051632d7b695560e11b815260040160405180910390fd5b6001600160a01b03821660009081526003602090815260408220908290612f20908701876142ec565b63ffffffff16815260208082019290925260409081016000908120878401358252909252902054612f5b906001600160401b03166001614dce565b905060006040518060e00160405280836001600160401b031681526020017f000000000000000000000000000000000000000000000000000000000000000063ffffffff168152602001856001600160a01b03168152602001866000016020810190612fc791906142ec565b63ffffffff1681526020018660200135815260200161301f847f0000000000000000000000000000000000000000000000000000000000000000888a600001602081019061301591906142ec565b8b60200135613b3b565b81526020016130316040880188614dee565b8080601f01602080910402602001604051908101604052809392919081815260200183838082843760009201829052509390945250929350915061307e9050856109b160208901896142ec565b90506001600160a01b03811663d80e9bd98361309d60608a018a614dee565b6130ad60a08c0160808d016149cd565b6040518563ffffffff1660e01b81526004016130cc9493929190614e34565b6040805180830381865afa1580156130e8573d6000803e3d6000fd5b505050506040513d601f19601f820116820180604052508101906112ae9190614f28565b6131146138a7565b6040516301ffc9a760e01b81526325fc096160e21b60048201526001600160a01b038216906301ffc9a790602401602060405180830381865afa15801561315f573d6000803e3d6000fd5b505050506040513d601f19601f820116820180604052508101906131839190614980565b6131a05760405163eb64f35d60e01b815260040160405180910390fd5b6001600160a01b03811660009081526005602052604090205460ff16156131da5760405163457517f360e11b815260040160405180910390fd5b6001600160a01b0381166000818152600560209081526040808320805460ff191660019081179091556004805491820181559093527f8a35acfbc15ff81a39ae7d344fd709f28e8600b4aa8c65c6b64bfe7fe36bd19b90920180546001600160a01b0319168417905590519182527f6b374d56679ca9463f27c85c6311e2bb7fde69bf201d3da39d53f10bd9d78af59101612aa3565b6132786138a7565b6001600160a01b0381166132a257604051631e4fbdf760e01b81526000600482015260240161132a565b6132ab816138d4565b50565b6001600160a01b038516600090815260016020908152604080832063ffffffff8816845282528083208684529091528120546001600160401b0390811690841681101561339c57600181015b846001600160401b0316816001600160401b03161161334f5761331f888888846139a8565b61334757604051630c09b63560e41b81526001600160401b038216600482015260240161132a565b6001016132fa565b506001600160a01b038716600090815260016020908152604080832063ffffffff8a16845282528083208884529091529020805467ffffffffffffffff19166001600160401b0386161790555b82516020808501919091206001600160a01b038916600090815260028352604080822063ffffffff8b168352845280822089835284528082206001600160401b0389168352909352919091205490925080831461341657604051637182306f60e01b8152600481018290526024810184905260440161132a565b50506001600160a01b03909516600090815260026020908152604080832063ffffffff90971683529581528582209482529384528481206001600160401b03909316815291909252918220919091555090565b336001600160a01b0382161480159061349c57506001600160a01b038181166000908152600f6020526040902054163314155b156132ab5760405163c4c5259360e01b815260040160405180910390fd5b6134c2613e40565b600080613533856134d660208701876142ec565b6001600160a01b0391909116600090815260036020908152604080832063ffffffff949094168352928152828220818901358352905220805467ffffffffffffffff19811660016001600160401b03928316019182161790915590565b905060006040518060e00160405280836001600160401b031681526020017f000000000000000000000000000000000000000000000000000000000000000063ffffffff168152602001876001600160a01b0316815260200186600001602081019061359f91906142ec565b63ffffffff168152602001866020013581526020016135ed847f00000000000000000000000000000000000000000000000000000000000000008a8a600001602081019061301591906142ec565b81526020016135ff6040880188614dee565b8080601f01602080910402602001604051908101604052809392919081815260200183838082843760009201829052509390945250929350915061364c9050876109b160208901896142ec565b90506000806001600160a01b038316634389e58f8561366e60608c018c614dee565b61367e60a08e0160808f016149cd565b6040518563ffffffff1660e01b815260040161369d9493929190614e34565b6000604051808303816000875af11580156136bc573d6000803e3d6000fd5b505050506040513d6000823e601f3d908101601f191682016040526136e49190810190614f44565b90925090507f1ab700d4ced0c005b164c0f789fd09fcbb0156d4c2041b8a3bfbcd961cd1567f8161371860608b018b614dee565b866040516137299493929190614f92565b60405180910390a1506040805160608101825260a09094015184526001600160401b03909416602084015292820192909252925090509250929050565b600081156137fd57600e546040516370a0823160e01b81523060048201526001600160a01b03909116906370a0823190602401602060405180830381865afa1580156137b6573d6000803e3d6000fd5b505050506040513d601f19601f820116820180604052508101906137da9190614fd2565b9050806000036137fd57604051631775123760e01b815260040160405180910390fd5b919050565b82518210806138145750808360200151115b156125e95782516020840151604051634f3ec0d360e01b815260048101929092526024820184905260448201526064810182905260840161132a565b831561386157613861858386613bb4565b82841015613876576138768582868603613bb4565b5050505050565b831561388d5761388d8285613bef565b828410156138a1576138a181858503613bef565b50505050565b6000546001600160a01b03163314611bcc5760405163118cdaa760e01b815233600482015260240161132a565b600080546001600160a01b038381166001600160a01b0319831681178455604051919092169283917f8be0079c531659141344cd1fd0a4f28419497f9722a3daafe3b4186f6b6457e09190a35050565b600080826001600160401b031611806122ae5750604051600162842fc360e01b031981526001600160a01b0384169063ff7bd03d90613967908790600401614feb565b602060405180830381865afa158015613984573d6000803e3d6000fd5b505050506040513d601f19601f820116820180604052508101906122ae9190614980565b6001600160a01b038416600090815260026020908152604080832063ffffffff87168452825280832085845282528083206001600160401b03851684529091529020541515949350505050565b6001600160a01b038316613a0d576125e98282613bef565b6125e9838383613bb4565b60006001600160401b038216613a346060860160408701614827565b6001600160401b031611806122ae57506001600160a01b03831660009081526002602090815260408220908290613a6d908801886142ec565b63ffffffff1663ffffffff1681526020019081526020016000206000866020013581526020019081526020016000206000866040016020810190613ab19190614827565b6001600160401b031681526020810191909152604001600020541415949350505050565b80613af3576040516304df7fdb60e11b815260040160405180910390fd5b6001600160a01b03909416600090815260026020908152604080832063ffffffff90961683529481528482209382529283528381206001600160401b03909216815291522055565b600085856001600160a01b03861660405160c09390931b6001600160c01b031916602084015260e091821b6001600160e01b03199081166028850152602c8401919091529085901b16604c8201526050810183905260700160405160208183030381529060405280519060200120905095945050505050565b6001600160a01b038216613bdb576040516306b7a93160e41b815260040160405180910390fd5b6125e96001600160a01b0384168383613c9c565b6001600160a01b038216613c16576040516306b7a93160e41b815260040160405180910390fd5b6000826001600160a01b03168260405160006040518083038185875af1925050503d8060008114613c63576040519150601f19603f3d011682016040523d82523d6000602084013e613c68565b606091505b50509050806125e957604051631196f20d60e21b81526001600160a01b03841660048201526024810183905260440161132a565b604080516001600160a01b03848116602483015260448083018590528351808403909101815260649092019092526020810180516001600160e01b031663a9059cbb60e01b1790526125e991859190600090613cfa90841683613d48565b90508051600014158015613d1f575080806020019051810190613d1d9190614980565b155b156125e957604051635274afe760e01b81526001600160a01b038416600482015260240161132a565b6060611d1f8383600084600080856001600160a01b03168486604051613d6e9190614ff9565b60006040518083038185875af1925050503d8060008114613dab576040519150601f19603f3d011682016040523d82523d6000602084013e613db0565b606091505b50915091506112ae868383606082613dd057613dcb82613e17565b611d1f565b8151158015613de757506001600160a01b0384163b155b15613e1057604051639996b31560e01b81526001600160a01b038516600482015260240161132a565b5080611d1f565b805115613e275780518082602001fd5b604051630a12f52160e11b815260040160405180910390fd5b60405180606001604052806000801916815260200160006001600160401b03168152602001613e82604051806040016040528060008152602001600081525090565b905290565b600060608284031215613e9957600080fd5b50919050565b80356001600160a01b03811681146137fd57600080fd5b60008083601f840112613ec857600080fd5b5081356001600160401b03811115613edf57600080fd5b60208301915083602082850101111561149e57600080fd5b600080600080600080600060e0888a031215613f1257600080fd5b613f1c8989613e87565b9650613f2a60608901613e9f565b95506080880135945060a08801356001600160401b0380821115613f4d57600080fd5b613f598b838c01613eb6565b909650945060c08a0135915080821115613f7257600080fd5b50613f7f8a828b01613eb6565b989b979a50959850939692959293505050565b803563ffffffff811681146137fd57600080fd5b60008060008060808587031215613fbc57600080fd5b613fc585613e9f565b9350613fd360208601613f92565b9250613fe160408601613e9f565b9396929550929360600135925050565b6000806040838503121561400457600080fd5b82356001600160401b0381111561401a57600080fd5b830160a0818603121561402c57600080fd5b915061403a60208401613e9f565b90509250929050565b6000608082019050825182526001600160401b036020840151166020830152604083015161407e604084018280518252602090810151910152565b5092915050565b600080600080600060c0868803121561409d57600080fd5b6140a686613e9f565b94506140b58760208801613e87565b93506080860135925060a08601356001600160401b038111156140d757600080fd5b6140e388828901613eb6565b969995985093965092949392505050565b6000806000806080858703121561410a57600080fd5b61411385613e9f565b935061412160208601613e9f565b925061412f60408601613f92565b915061413d60608601613f92565b905092959194509250565b60005b8381101561416357818101518382015260200161414b565b50506000910152565b60008151808452614184816020860160208601614148565b601f01601f19169290920160200192915050565b602081526000611d1f602083018461416c565b80356001600160401b03811681146137fd57600080fd5b600080600080600060a086880312156141da57600080fd5b6141e386613e9f565b94506141f160208701613f92565b935060408601359250614206606087016141ab565b949793965091946080013592915050565b803561ffff811681146137fd57600080fd5b6000806000806080858703121561423f57600080fd5b61424885613e9f565b935061425660208601613e9f565b92506040850135915061413d60608601614217565b6000806040838503121561427e57600080fd5b61428783613e9f565b915061403a60208401613f92565b6000602082840312156142a757600080fd5b611d1f82613e9f565b6000806000606084860312156142c557600080fd5b6142ce84613e9f565b92506142dc60208501613f92565b9150604084013590509250925092565b6000602082840312156142fe57600080fd5b611d1f82613f92565b6000806000806000806000806000806000806101208d8f03121561432a57600080fd5b6143338d613e9f565b9b5061434160208e01613e9f565b9a5060408d0135995061435660608e01614217565b985060808d0135975060a08d013596506001600160401b0360c08e0135111561437e57600080fd5b61438e8e60c08f01358f01613eb6565b90965094506001600160401b0360e08e013511156143ab57600080fd5b6143bb8e60e08f01358f01613eb6565b90945092506001600160401b036101008e013511156143d957600080fd5b6143ea8e6101008f01358f01613eb6565b81935080925050509295989b509295989b509295989b565b60008060008060008060008060008060006101408c8e03121561442457600080fd5b61442e8d8d613e87565b9a5061443c60608d01613e9f565b995060808c0135985060a08c0135975060c08c013596506001600160401b038060e08e0135111561446c57600080fd5b61447c8e60e08f01358f01613eb6565b90975095506101008d013581101561449357600080fd5b6144a48e6101008f01358f01613eb6565b90955093506101208d01358110156144bb57600080fd5b506144cd8d6101208e01358e01613eb6565b81935080925050509295989b509295989b9093969950565b600080600080606085870312156144fb57600080fd5b61450485613e9f565b935061451260208601613e9f565b925060408501356001600160401b038082111561452e57600080fd5b818701915087601f83011261454257600080fd5b81358181111561455157600080fd5b8860208260051b850101111561456657600080fd5b95989497505060200194505050565b60008060008060006080868803121561458d57600080fd5b61459686613e9f565b9450602086013593506145ab60408701614217565b925060608601356001600160401b038111156140d757600080fd5b600080608083850312156145d957600080fd5b6145e38484613e87565b915061403a60608401613e9f565b6020808252825182820181905260009190848201906040850190845b818110156146325783516001600160a01b03168352928401929184019160010161460d565b50909695505050505050565b60008060008060008060008060c0898b03121561465a57600080fd5b61466389613e9f565b975061467160208a01613e9f565b96506040890135955061468660608a01614217565b945060808901356001600160401b03808211156146a257600080fd5b6146ae8c838d01613eb6565b909650945060a08b01359150808211156146c757600080fd5b506146d48b828c01613eb6565b999c989b5096995094979396929594505050565b6000806000606084860312156146fd57600080fd5b61470684613e9f565b925061471460208501613f92565b915061472260408501613e9f565b90509250925092565b60008060006060848603121561474057600080fd5b61474984613f92565b92506142dc60208501613e9f565b60008060006060848603121561476c57600080fd5b61474984613e9f565b600080600060a0848603121561478a57600080fd5b6147948585613e87565b92506147a260608501613e9f565b9150608084013590509250925092565b600080604083850312156147c557600080fd5b61402c83613f92565b600080600080608085870312156147e457600080fd5b6147ed85613e9f565b93506147fb60208601613f92565b92506040850135915061413d606086016141ab565b815181526020808301519082015260408101611655565b60006020828403121561483957600080fd5b611d1f826141ab565b838152818360208301376000910160200190815292915050565b63ffffffff61486a82613f92565b168252602081013560208301526001600160401b0361488b604083016141ab565b1660408301525050565b81835281816020850137506000828201602090810191909152601f909101601f19169091010190565b6148c8818961485c565b86606082015260e0608082015260006148e560e083018789614895565b6001600160a01b03861660a084015282810360c0840152614907818587614895565b9a9950505050505050505050565b60808101614923828561485c565b6001600160a01b039290921660609190910152919050565b634e487b7160e01b600052602160045260246000fd5b60006020828403121561496357600080fd5b815160038110611d1f57600080fd5b80151581146132ab57600080fd5b60006020828403121561499257600080fd5b8151611d1f81614972565b6001600160a01b03948516815263ffffffff93909316602084015292166040820152606081019190915260800190565b6000602082840312156149df57600080fd5b8135611d1f81614972565b634e487b7160e01b600052604160045260246000fd5b600082601f830112614a1157600080fd5b81516001600160401b0380821115614a2b57614a2b6149ea565b604051601f8301601f19908116603f01168101908282118183101715614a5357614a536149ea565b81604052838152866020858801011115614a6c57600080fd5b6112ae846020830160208901614148565b600060208284031215614a8f57600080fd5b81516001600160401b03811115614aa557600080fd5b6122ae84828501614a00565b63ffffffff95909516855260208501939093526001600160a01b039190911660408401526001600160401b03166060830152608082015260a00190565b8a815261ffff8a16602082015288604082015287606082015260e060808201526000614b1e60e08301888a614895565b82810360a0840152614b31818789614895565b905082810360c0840152614b46818587614895565b9d9c50505050505050505050505050565b634e487b7160e01b600052601160045260246000fd5b8082018082111561165557611655614b57565b6000610120614b8f838e61485c565b8b60608401528a60808401528960a08401528060c0840152614bb4818401898b614895565b905082810360e0840152614bc9818789614895565b9050828103610100840152614b46818587614895565b6001600160a01b03841681526040602080830182905282820184905260009190606090818501600587901b8601830188865b89811015614cc257888303605f190184528135368c9003605e19018112614c3757600080fd5b8b0163ffffffff80614c4883613f92565b16855280614c57888401613f92565b16878601525087810135601e19823603018112614c7357600080fd5b0185810190356001600160401b03811115614c8d57600080fd5b803603821315614c9c57600080fd5b8789860152614cae8886018284614895565b958701959450505090840190600101614c11565b50909a9950505050505050505050565b8183823760009101908152919050565b6001600160a01b038781168252861660208201526040810185905261ffff8416606082015260a060808201819052600090614d209083018486614895565b98975050505050505050565b600060018060a01b03808a16835288602084015260a06040840152614d5560a08401888a614895565b81871660608501528381036080850152614d70818688614895565b9b9a5050505050505050505050565b63ffffffff9390931683526001600160a01b03919091166020830152604082015260600190565b60a08101614db4828661485c565b6001600160a01b0393909316606082015260800152919050565b6001600160401b0381811683821601908082111561407e5761407e614b57565b6000808335601e19843603018112614e0557600080fd5b8301803591506001600160401b03821115614e1f57600080fd5b60200191503681900382131561149e57600080fd5b606080825285516001600160401b031682820152602086015163ffffffff16608083015260408601516001600160a01b031660a0830152850151600090614e8360c084018263ffffffff169052565b50608086015160e083015260a086015161010083015260c086015160e0610120840152614eb461014084018261416c565b90508281036020840152614ec9818688614895565b9150506127b0604083018415159052565b600060408284031215614eec57600080fd5b604051604081018181106001600160401b0382111715614f0e57614f0e6149ea565b604052825181526020928301519281019290925250919050565b600060408284031215614f3a57600080fd5b611d1f8383614eda565b60008060608385031215614f5757600080fd5b614f618484614eda565b915060408301516001600160401b03811115614f7c57600080fd5b614f8885828601614a00565b9150509250929050565b606081526000614fa5606083018761416c565b8281036020840152614fb8818688614895565b91505060018060a01b038316604083015295945050505050565b600060208284031215614fe457600080fd5b5051919050565b60608101611655828461485c565b6000825161500b818460208701614148565b919091019291505056fea264697066735822122011ce7d4da4e340ea75dbc455197cd3b1035e2e48c30e51bea146d167845eb62264736f6c63430008160033608060405234801561001057600080fd5b506101c3806100206000396000f3fe608060405234801561001057600080fd5b506004361061004c5760003560e01c806301ffc9a7146100655780631881d94d1461008d57806354fd4d501461009c5780636750cd4c146100c3575b604051632657b6c360e01b815260040160405180910390fd5b61007861007336600461010e565b6100d7565b60405190151581526020015b60405180910390f35b6002604051610084919061013f565b6040805167ffffffffffffffff815260ff6020820152600291810191909152606001610084565b6100786100d1366004610167565b50600190565b60006001600160e01b031982166325fc096160e21b148061010857506301ffc9a760e01b6001600160e01b03198316145b92915050565b60006020828403121561012057600080fd5b81356001600160e01b03198116811461013857600080fd5b9392505050565b602081016003831061016157634e487b7160e01b600052602160045260246000fd5b91905290565b60006020828403121561017957600080fd5b813563ffffffff8116811461013857600080fdfea26469706673582212208512b7b1330a2cce8a824d22bfbd54b0ee990198704b6fa4563684f2cf8d0a4964736f6c63430008160033",
    "linkReferences": {}
  },
  "methodIdentifiers": {
    "EMPTY_PAYLOAD_HASH()": "cb5026b9",
    "NIL_PAYLOAD_HASH()": "2baf0be7",
    "blockedLibrary()": "73318091",
    "burn(address,uint32,bytes32,uint64,bytes32)": "40f80683",
    "clear(address,(uint32,bytes32,uint64),bytes32,bytes)": "2a56c1b0",
    "composeQueue(address,address,bytes32,uint16)": "35d330b0",
    "defaultReceiveLibrary(uint32)": "6f50a803",
    "defaultReceiveLibraryTimeout(uint32)": "6e83f5bb",
    "defaultSendLibrary(uint32)": "f64be4c7",
    "delegates(address)": "587cde1e",
    "eid()": "416ecebf",
    "getConfig(address,address,uint32,uint32)": "2b3197b9",
    "getReceiveLibrary(address,uint32)": "402f8468",
    "getRegisteredLibraries()": "9132e5c3",
    "getSendContext()": "14f651a9",
    "getSendLibrary(address,uint32)": "b96a277f",
    "inboundNonce(address,uint32,bytes32)": "a0dd43fc",
    "inboundPayloadHash(address,uint32,bytes32,uint64)": "c9fc7bcd",
    "initializable((uint32,bytes32,uint64),address)": "861e1ca5",
    "isDefaultSendLibrary(address,uint32)": "dc93c8a2",
    "isRegisteredLibrary(address)": "dc706a62",
    "isSendingMessage()": "79624ca9",
    "isSupportedEid(uint32)": "6750cd4c",
    "isValidReceiveLibrary(address,uint32,address)": "9d7f9775",
    "lazyInboundNonce(address,uint32,bytes32)": "5b17bb70",
    "lzCompose(address,address,bytes32,uint16,bytes,bytes)": "91d20fa1",
    "lzComposeAlert(address,address,bytes32,uint16,uint256,uint256,bytes,bytes,bytes)": "697fe6b6",
    "lzReceive((uint32,bytes32,uint64),address,bytes32,bytes,bytes)": "0c0c389e",
    "lzReceiveAlert((uint32,bytes32,uint64),address,bytes32,uint256,uint256,bytes,bytes,bytes)": "6bf73fa3",
    "lzToken()": "e4fe1d94",
    "nativeToken()": "e1758bd8",
    "nextGuid(address,uint32,bytes32)": "aafe5e07",
    "nilify(address,uint32,bytes32,uint64,bytes32)": "2e80fbf3",
    "outboundNonce(address,uint32,bytes32)": "9c6d7340",
    "owner()": "8da5cb5b",
    "quote((uint32,bytes32,bytes,bytes,bool),address)": "ddc28c58",
    "receiveLibraryTimeout(address,uint32)": "ef667aa1",
    "recoverToken(address,address,uint256)": "a7229fd9",
    "registerLibrary(address)": "e8964e81",
    "renounceOwnership()": "715018a6",
    "send((uint32,bytes32,bytes,bytes,bool),address)": "2637a450",
    "sendCompose(address,bytes32,uint16,bytes)": "7cb59012",
    "setConfig(address,address,(uint32,uint32,bytes)[])": "6dbd9f90",
    "setDefaultReceiveLibrary(uint32,address,uint256)": "a718531b",
    "setDefaultReceiveLibraryTimeout(uint32,address,uint256)": "d4b4ec8f",
    "setDefaultSendLibrary(uint32,address)": "aafea312",
    "setDelegate(address)": "ca5eb5e1",
    "setLzToken(address)": "c28e0eed",
    "setReceiveLibrary(address,uint32,address,uint256)": "6a14d715",
    "setReceiveLibraryTimeout(address,uint32,address,uint256)": "183c834f",
    "setSendLibrary(address,uint32,address)": "9535ff30",
    "skip(address,uint32,bytes32,uint64)": "d70b8902",
    "transferOwnership(address)": "f2fde38b",
    "verifiable((uint32,bytes32,uint64),address)": "c9a54a99",
    "verify((uint32,bytes32,uint64),address,bytes32)": "a825d747"
  },
  "id": 69
}