{
  "_format": "hh-sol-artifact-1",
  "contractName": "OmniCounter",
  "sourceName": "contracts/OmniCounter.sol",
  "abi": [
    {
      "inputs": [
        {
          "internalType": "address",
          "name": "_endpoint",
          "type": "address"
        },
        {
          "internalType": "address",
          "name": "_owner",
          "type": "address"
        }
      ],
      "stateMutability": "nonpayable",
      "type": "constructor"
    },
    {
      "inputs": [],
      "name": "LzTokenUnavailable",
      "type": "error"
    },
    {
      "inputs": [
        {
          "internalType": "uint32",
          "name": "eid",
          "type": "uint32"
        }
      ],
      "name": "NoPeer",
      "type": "error"
    },
    {
      "inputs": [
        {
          "internalType": "uint256",
          "name": "msgValue",
          "type": "uint256"
        }
      ],
      "name": "NotEnoughNative",
      "type": "error"
    },
    {
      "inputs": [
        {
          "internalType": "address",
          "name": "addr",
          "type": "address"
        }
      ],
      "name": "OnlyEndpoint",
      "type": "error"
    },
    {
      "inputs": [
        {
          "internalType": "uint32",
          "name": "eid",
          "type": "uint32"
        },
        {
          "internalType": "bytes32",
          "name": "sender",
          "type": "bytes32"
        }
      ],
      "name": "OnlyPeer",
      "type": "error"
    },
    {
      "inputs": [],
      "name": "OnlySelf",
      "type": "error"
    },
    {
      "inputs": [
        {
          "internalType": "bytes",
          "name": "result",
          "type": "bytes"
        }
      ],
      "name": "SimulationResult",
      "type": "error"
    },
    {
      "anonymous": false,
      "inputs": [
        {
          "indexed": true,
          "internalType": "address",
          "name": "previousOwner",
          "type": "address"
        },
        {
          "indexed": true,
          "internalType": "address",
          "name": "newOwner",
          "type": "address"
        }
      ],
      "name": "OwnershipTransferred",
      "type": "event"
    },
    {
      "anonymous": false,
      "inputs": [
        {
          "indexed": false,
          "internalType": "uint32",
          "name": "eid",
          "type": "uint32"
        },
        {
          "indexed": false,
          "internalType": "bytes32",
          "name": "peer",
          "type": "bytes32"
        }
      ],
      "name": "PeerSet",
      "type": "event"
    },
    {
      "anonymous": false,
      "inputs": [
        {
          "indexed": false,
          "internalType": "address",
          "name": "preCrimeAddress",
          "type": "address"
        }
      ],
      "name": "PreCrimeSet",
      "type": "event"
    },
    {
      "stateMutability": "payable",
      "type": "fallback"
    },
    {
      "inputs": [],
      "name": "admin",
      "outputs": [
        {
          "internalType": "address",
          "name": "",
          "type": "address"
        }
      ],
      "stateMutability": "view",
      "type": "function"
    },
    {
      "inputs": [
        {
          "components": [
            {
              "internalType": "uint32",
              "name": "srcEid",
              "type": "uint32"
            },
            {
              "internalType": "bytes32",
              "name": "sender",
              "type": "bytes32"
            },
            {
              "internalType": "uint64",
              "name": "nonce",
              "type": "uint64"
            }
          ],
          "internalType": "struct Origin",
          "name": "origin",
          "type": "tuple"
        }
      ],
      "name": "allowInitializePath",
      "outputs": [
        {
          "internalType": "bool",
          "name": "",
          "type": "bool"
        }
      ],
      "stateMutability": "view",
      "type": "function"
    },
    {
      "inputs": [
        {
          "internalType": "uint32[]",
          "name": "_eids",
          "type": "uint32[]"
        },
        {
          "internalType": "uint8[]",
          "name": "_types",
          "type": "uint8[]"
        },
        {
          "internalType": "bytes[]",
          "name": "_options",
          "type": "bytes[]"
        }
      ],
      "name": "batchIncrement",
      "outputs": [],
      "stateMutability": "payable",
      "type": "function"
    },
    {
      "inputs": [
        {
          "internalType": "uint32",
          "name": "_eid",
          "type": "uint32"
        },
        {
          "internalType": "uint8",
          "name": "_type",
          "type": "uint8"
        },
        {
          "internalType": "bytes",
          "name": "_options",
          "type": "bytes"
        }
      ],
      "name": "brokenIncrement",
      "outputs": [],
      "stateMutability": "payable",
      "type": "function"
    },
    {
      "inputs": [
        {
          "internalType": "bytes",
          "name": "_callData",
          "type": "bytes"
        }
      ],
      "name": "callEndpoint",
      "outputs": [],
      "stateMutability": "nonpayable",
      "type": "function"
    },
    {
      "inputs": [],
      "name": "composedCount",
      "outputs": [
        {
          "internalType": "uint256",
          "name": "",
          "type": "uint256"
        }
      ],
      "stateMutability": "view",
      "type": "function"
    },
    {
      "inputs": [],
      "name": "count",
      "outputs": [
        {
          "internalType": "uint256",
          "name": "",
          "type": "uint256"
        }
      ],
      "stateMutability": "view",
      "type": "function"
    },
    {
      "inputs": [],
      "name": "eid",
      "outputs": [
        {
          "internalType": "uint32",
          "name": "",
          "type": "uint32"
        }
      ],
      "stateMutability": "view",
      "type": "function"
    },
    {
      "inputs": [],
      "name": "endpoint",
      "outputs": [
        {
          "internalType": "contract ILayerZeroEndpointV2",
          "name": "",
          "type": "address"
        }
      ],
      "stateMutability": "view",
      "type": "function"
    },
    {
      "inputs": [
        {
          "internalType": "uint32",
          "name": "srcEid",
          "type": "uint32"
        }
      ],
      "name": "inboundCount",
      "outputs": [
        {
          "internalType": "uint256",
          "name": "count",
          "type": "uint256"
        }
      ],
      "stateMutability": "view",
      "type": "function"
    },
    {
      "inputs": [
        {
          "internalType": "uint32",
          "name": "_eid",
          "type": "uint32"
        },
        {
          "internalType": "uint8",
          "name": "_type",
          "type": "uint8"
        },
        {
          "internalType": "bytes",
          "name": "_options",
          "type": "bytes"
        }
      ],
      "name": "increment",
      "outputs": [],
      "stateMutability": "payable",
      "type": "function"
    },
    {
      "inputs": [
        {
          "internalType": "uint32",
          "name": "_eid",
          "type": "uint32"
        },
        {
          "internalType": "bytes32",
          "name": "_peer",
          "type": "bytes32"
        }
      ],
      "name": "isPeer",
      "outputs": [
        {
          "internalType": "bool",
          "name": "",
          "type": "bool"
        }
      ],
      "stateMutability": "view",
      "type": "function"
    },
    {
      "inputs": [
        {
          "internalType": "address",
          "name": "_oApp",
          "type": "address"
        },
        {
          "internalType": "bytes32",
          "name": "",
          "type": "bytes32"
        },
        {
          "internalType": "bytes",
          "name": "_message",
          "type": "bytes"
        },
        {
          "internalType": "address",
          "name": "",
          "type": "address"
        },
        {
          "internalType": "bytes",
          "name": "",
          "type": "bytes"
        }
      ],
      "name": "lzCompose",
      "outputs": [],
      "stateMutability": "payable",
      "type": "function"
    },
    {
      "inputs": [
        {
          "components": [
            {
              "internalType": "uint32",
              "name": "srcEid",
              "type": "uint32"
            },
            {
              "internalType": "bytes32",
              "name": "sender",
              "type": "bytes32"
            },
            {
              "internalType": "uint64",
              "name": "nonce",
              "type": "uint64"
            }
          ],
          "internalType": "struct Origin",
          "name": "_origin",
          "type": "tuple"
        },
        {
          "internalType": "bytes32",
          "name": "_guid",
          "type": "bytes32"
        },
        {
          "internalType": "bytes",
          "name": "_message",
          "type": "bytes"
        },
        {
          "internalType": "address",
          "name": "_executor",
          "type": "address"
        },
        {
          "internalType": "bytes",
          "name": "_extraData",
          "type": "bytes"
        }
      ],
      "name": "lzReceive",
      "outputs": [],
      "stateMutability": "payable",
      "type": "function"
    },
    {
      "inputs": [
        {
          "components": [
            {
              "components": [
                {
                  "internalType": "uint32",
                  "name": "srcEid",
                  "type": "uint32"
                },
                {
                  "internalType": "bytes32",
                  "name": "sender",
                  "type": "bytes32"
                },
                {
                  "internalType": "uint64",
                  "name": "nonce",
                  "type": "uint64"
                }
              ],
              "internalType": "struct Origin",
              "name": "origin",
              "type": "tuple"
            },
            {
              "internalType": "uint32",
              "name": "dstEid",
              "type": "uint32"
            },
            {
              "internalType": "address",
              "name": "receiver",
              "type": "address"
            },
            {
              "internalType": "bytes32",
              "name": "guid",
              "type": "bytes32"
            },
            {
              "internalType": "uint256",
              "name": "value",
              "type": "uint256"
            },
            {
              "internalType": "address",
              "name": "executor",
              "type": "address"
            },
            {
              "internalType": "bytes",
              "name": "message",
              "type": "bytes"
            },
            {
              "internalType": "bytes",
              "name": "extraData",
              "type": "bytes"
            }
          ],
          "internalType": "struct InboundPacket[]",
          "name": "_packets",
          "type": "tuple[]"
        }
      ],
      "name": "lzReceiveAndRevert",
      "outputs": [],
      "stateMutability": "payable",
      "type": "function"
    },
    {
      "inputs": [
        {
          "components": [
            {
              "internalType": "uint32",
              "name": "srcEid",
              "type": "uint32"
            },
            {
              "internalType": "bytes32",
              "name": "sender",
              "type": "bytes32"
            },
            {
              "internalType": "uint64",
              "name": "nonce",
              "type": "uint64"
            }
          ],
          "internalType": "struct Origin",
          "name": "_origin",
          "type": "tuple"
        },
        {
          "internalType": "bytes32",
          "name": "_guid",
          "type": "bytes32"
        },
        {
          "internalType": "bytes",
          "name": "_message",
          "type": "bytes"
        },
        {
          "internalType": "address",
          "name": "_executor",
          "type": "address"
        },
        {
          "internalType": "bytes",
          "name": "_extraData",
          "type": "bytes"
        }
      ],
      "name": "lzReceiveSimulate",
      "outputs": [],
      "stateMutability": "payable",
      "type": "function"
    },
    {
      "inputs": [
        {
          "internalType": "uint32",
          "name": "_srcEid",
          "type": "uint32"
        },
        {
          "internalType": "bytes32",
          "name": "_sender",
          "type": "bytes32"
        }
      ],
      "name": "nextNonce",
      "outputs": [
        {
          "internalType": "uint64",
          "name": "",
          "type": "uint64"
        }
      ],
      "stateMutability": "view",
      "type": "function"
    },
    {
      "inputs": [],
      "name": "oApp",
      "outputs": [
        {
          "internalType": "address",
          "name": "",
          "type": "address"
        }
      ],
      "stateMutability": "view",
      "type": "function"
    },
    {
      "inputs": [],
      "name": "oAppVersion",
      "outputs": [
        {
          "internalType": "uint64",
          "name": "senderVersion",
          "type": "uint64"
        },
        {
          "internalType": "uint64",
          "name": "receiverVersion",
          "type": "uint64"
        }
      ],
      "stateMutability": "pure",
      "type": "function"
    },
    {
      "inputs": [
        {
          "internalType": "uint32",
          "name": "dstEid",
          "type": "uint32"
        }
      ],
      "name": "outboundCount",
      "outputs": [
        {
          "internalType": "uint256",
          "name": "count",
          "type": "uint256"
        }
      ],
      "stateMutability": "view",
      "type": "function"
    },
    {
      "inputs": [],
      "name": "owner",
      "outputs": [
        {
          "internalType": "address",
          "name": "",
          "type": "address"
        }
      ],
      "stateMutability": "view",
      "type": "function"
    },
    {
      "inputs": [
        {
          "internalType": "uint32",
          "name": "eid",
          "type": "uint32"
        }
      ],
      "name": "peers",
      "outputs": [
        {
          "internalType": "bytes32",
          "name": "peer",
          "type": "bytes32"
        }
      ],
      "stateMutability": "view",
      "type": "function"
    },
    {
      "inputs": [],
      "name": "preCrime",
      "outputs": [
        {
          "internalType": "address",
          "name": "",
          "type": "address"
        }
      ],
      "stateMutability": "view",
      "type": "function"
    },
    {
      "inputs": [
        {
          "internalType": "uint32",
          "name": "_eid",
          "type": "uint32"
        },
        {
          "internalType": "uint8",
          "name": "_type",
          "type": "uint8"
        },
        {
          "internalType": "bytes",
          "name": "_options",
          "type": "bytes"
        }
      ],
      "name": "quote",
      "outputs": [
        {
          "internalType": "uint256",
          "name": "nativeFee",
          "type": "uint256"
        },
        {
          "internalType": "uint256",
          "name": "lzTokenFee",
          "type": "uint256"
        }
      ],
      "stateMutability": "view",
      "type": "function"
    },
    {
      "inputs": [],
      "name": "renounceOwnership",
      "outputs": [],
      "stateMutability": "nonpayable",
      "type": "function"
    },
    {
      "inputs": [
        {
          "internalType": "address",
          "name": "_admin",
          "type": "address"
        }
      ],
      "name": "setAdmin",
      "outputs": [],
      "stateMutability": "nonpayable",
      "type": "function"
    },
    {
      "inputs": [
        {
          "internalType": "bool",
          "name": "_orderedNonce",
          "type": "bool"
        }
      ],
      "name": "setOrderedNonce",
      "outputs": [],
      "stateMutability": "nonpayable",
      "type": "function"
    },
    {
      "inputs": [
        {
          "internalType": "uint32",
          "name": "_eid",
          "type": "uint32"
        },
        {
          "internalType": "bytes32",
          "name": "_peer",
          "type": "bytes32"
        }
      ],
      "name": "setPeer",
      "outputs": [],
      "stateMutability": "nonpayable",
      "type": "function"
    },
    {
      "inputs": [
        {
          "internalType": "address",
          "name": "_preCrime",
          "type": "address"
        }
      ],
      "name": "setPreCrime",
      "outputs": [],
      "stateMutability": "nonpayable",
      "type": "function"
    },
    {
      "inputs": [
        {
          "internalType": "uint32",
          "name": "_srcEid",
          "type": "uint32"
        },
        {
          "internalType": "bytes32",
          "name": "_sender",
          "type": "bytes32"
        },
        {
          "internalType": "uint64",
          "name": "_nonce",
          "type": "uint64"
        }
      ],
      "name": "skipInboundNonce",
      "outputs": [],
      "stateMutability": "nonpayable",
      "type": "function"
    },
    {
      "inputs": [
        {
          "internalType": "address",
          "name": "newOwner",
          "type": "address"
        }
      ],
      "name": "transferOwnership",
      "outputs": [],
      "stateMutability": "nonpayable",
      "type": "function"
    },
    {
      "inputs": [
        {
          "internalType": "address payable",
          "name": "_to",
          "type": "address"
        },
        {
          "internalType": "uint256",
          "name": "_amount",
          "type": "uint256"
        }
      ],
      "name": "withdraw",
      "outputs": [],
      "stateMutability": "nonpayable",
      "type": "function"
    },
    {
      "stateMutability": "payable",
      "type": "receive"
    }
  ],
  "bytecode": "0x60a06040523480156200001157600080fd5b5060405162004f2238038062004f228339818101604052810190620000379190620002b9565b8181818181816200005d620000516200018360201b60201c565b6200018b60201b60201c565b6200006e816200018b60201b60201c565b8173ffffffffffffffffffffffffffffffffffffffff1660808173ffffffffffffffffffffffffffffffffffffffff16815250505050505033600560006101000a81548173ffffffffffffffffffffffffffffffffffffffff021916908373ffffffffffffffffffffffffffffffffffffffff1602179055508173ffffffffffffffffffffffffffffffffffffffff1663416ecebf6040518163ffffffff1660e01b8152600401602060405180830381865afa15801562000133573d6000803e3d6000fd5b505050506040513d601f19601f8201168201806040525081019062000159919062000341565b600560146101000a81548163ffffffff021916908363ffffffff1602179055505050505062000373565b600033905090565b60008060009054906101000a900473ffffffffffffffffffffffffffffffffffffffff169050816000806101000a81548173ffffffffffffffffffffffffffffffffffffffff021916908373ffffffffffffffffffffffffffffffffffffffff1602179055508173ffffffffffffffffffffffffffffffffffffffff168173ffffffffffffffffffffffffffffffffffffffff167f8be0079c531659141344cd1fd0a4f28419497f9722a3daafe3b4186f6b6457e060405160405180910390a35050565b600080fd5b600073ffffffffffffffffffffffffffffffffffffffff82169050919050565b6000620002818262000254565b9050919050565b620002938162000274565b81146200029f57600080fd5b50565b600081519050620002b38162000288565b92915050565b60008060408385031215620002d357620002d26200024f565b5b6000620002e385828601620002a2565b9250506020620002f685828601620002a2565b9150509250929050565b600063ffffffff82169050919050565b6200031b8162000300565b81146200032757600080fd5b50565b6000815190506200033b8162000310565b92915050565b6000602082840312156200035a57620003596200024f565b5b60006200036a848285016200032a565b91505092915050565b608051614b54620003ce6000396000818161076201528181610b4001528181610c58015281816112df0152818161161201528181611a7a01528181611d11015281816120270152818161232b01526124260152614b546000f3fe6080604052600436106101e75760003560e01c80637d25a05e11610102578063d0a1026011610095578063f2fde38b11610064578063f2fde38b14610689578063f3fef3a3146106b2578063f851a440146106db578063ff7bd03d14610706576101ee565b8063d0a10260146105dd578063d22446ce146105f9578063d424388514610637578063dbcd3b9114610660576101ee565b8063bb0b6a53116100d1578063bb0b6a531461054c578063bd815db014610589578063c95c55be146105a5578063d045a0dc146105c1576101ee565b80637d25a05e1461049d5780638da5cb5b146104da578063b731ea0a14610505578063b7abbb5d14610530576101ee565b806356a472891161017a578063622f17f611610149578063622f17f6146103f7578063704b6c02146104345780637112f86f1461045d578063715018a614610486576101ee565b806356a47289146103295780635a0dfe4d146103665780635b849af6146103a35780635e280f11146103cc576101ee565b80633400288b116101b65780633400288b1461028e578063416ecebf146102b757806352ae2879146102e2578063542e7b561461030d576101ee565b806306661abd146101f057806313137d651461021b57806317442b7014610237578063257f4e0514610263576101ee565b366101ee57005b005b3480156101fc57600080fd5b50610205610743565b60405161021291906129c2565b60405180910390f35b61023560048036038101906102309190612b0e565b610749565b005b34801561024357600080fd5b5061024c61086b565b60405161025a929190612bed565b60405180910390f35b34801561026f57600080fd5b5061027861087a565b60405161028591906129c2565b60405180910390f35b34801561029a57600080fd5b506102b560048036038101906102b09190612c52565b610880565b005b3480156102c357600080fd5b506102cc6108e9565b6040516102d99190612ca1565b60405180910390f35b3480156102ee57600080fd5b506102f76108ff565b6040516103049190612ccb565b60405180910390f35b61032760048036038101906103229190612de8565b610907565b005b34801561033557600080fd5b50610350600480360381019061034b9190612e9c565b610ad5565b60405161035d91906129c2565b60405180910390f35b34801561037257600080fd5b5061038d60048036038101906103889190612c52565b610aed565b60405161039a9190612ee4565b60405180910390f35b3480156103af57600080fd5b506103ca60048036038101906103c59190612f2b565b610b19565b005b3480156103d857600080fd5b506103e1610b3e565b6040516103ee9190612fb7565b60405180910390f35b34801561040357600080fd5b5061041e60048036038101906104199190612e9c565b610b62565b60405161042b91906129c2565b60405180910390f35b34801561044057600080fd5b5061045b60048036038101906104569190612fd2565b610b7a565b005b34801561046957600080fd5b50610484600480360381019061047f919061302b565b610c4e565b005b34801561049257600080fd5b5061049b610d7b565b005b3480156104a957600080fd5b506104c460048036038101906104bf9190612c52565b610d8f565b6040516104d1919061307e565b60405180910390f35b3480156104e657600080fd5b506104ef610e09565b6040516104fc9190612ccb565b60405180910390f35b34801561051157600080fd5b5061051a610e32565b6040516105279190612ccb565b60405180910390f35b61054a600480360381019061054591906130d2565b610e58565b005b34801561055857600080fd5b50610573600480360381019061056e9190612e9c565b610ee9565b6040516105809190613155565b60405180910390f35b6105a3600480360381019061059e91906131c6565b610f01565b005b6105bf60048036038101906105ba91906130d2565b6110da565b005b6105db60048036038101906105d69190612b0e565b6111f2565b005b6105f760048036038101906105f29190613213565b61126f565b005b34801561060557600080fd5b50610620600480360381019061061b91906130d2565b611495565b60405161062e9291906132cf565b60405180910390f35b34801561064357600080fd5b5061065e60048036038101906106599190612fd2565b611520565b005b34801561066c57600080fd5b50610687600480360381019061068291906132f8565b6115a3565b005b34801561069557600080fd5b506106b060048036038101906106ab9190612fd2565b6116b2565b005b3480156106be57600080fd5b506106d960048036038101906106d491906133af565b611735565b005b3480156106e757600080fd5b506106f0611876565b6040516106fd9190612ccb565b60405180910390f35b34801561071257600080fd5b5061072d600480360381019061072891906133ef565b61189c565b60405161073a9190612ee4565b60405180910390f35b60035481565b3373ffffffffffffffffffffffffffffffffffffffff167f000000000000000000000000000000000000000000000000000000000000000073ffffffffffffffffffffffffffffffffffffffff16146107d957336040517f91ac5e4f0000000000000000000000000000000000000000000000000000000081526004016107d09190612ccb565b60405180910390fd5b86602001356107f98860000160208101906107f49190612e9c565b6118dd565b14610853578660000160208101906108119190612e9c565b87602001356040517fc26bebcc00000000000000000000000000000000000000000000000000000000815260040161084a92919061341c565b60405180910390fd5b61086287878787878787611952565b50505050505050565b60008060019150600190509091565b60045481565b610888611c31565b80600160008463ffffffff1663ffffffff168152602001908152602001600020819055507f238399d427b947898edb290f5ff0f9109849b1c3ba196a42e35f00c50a54b98b82826040516108dd92919061341c565b60405180910390a15050565b600560149054906101000a900463ffffffff1681565b600030905090565b818190508686905014801561092157508383905086869050145b610960576040517f08c379a0000000000000000000000000000000000000000000000000000000008152600401610957906134a2565b60405180910390fd5b61096861295b565b600034905060005b88889050811015610aca57600060018a8a905061098d91906134f1565b8214610999573061099b565b335b905060008a8a848181106109b2576109b1613525565b5b90506020020160208101906109c79190612e9c565b905060008989858181106109de576109dd613525565b5b90506020020160208101906109f39190613554565b9050610a9982610a1583600560149054906101000a900463ffffffff16611caf565b8a8a88818110610a2857610a27613525565b5b9050602002810190610a3a9190613590565b8080601f016020809104026020016040519081016040528093929190818152602001838380828437600081840152601f19601f8201169050808301925050505050505060405180604001604052808a8152602001600081525087611cdb565b9550610aa482611df7565b85604001516000015185610ab891906134f1565b94505050508080600101915050610970565b505050505050505050565b60086020528060005260406000206000915090505481565b600081600160008563ffffffff1663ffffffff1681526020019081526020016000205414905092915050565b610b21611c31565b80600760006101000a81548160ff02191690831515021790555050565b7f000000000000000000000000000000000000000000000000000000000000000081565b60096020528060005260406000206000915090505481565b600560009054906101000a900473ffffffffffffffffffffffffffffffffffffffff1673ffffffffffffffffffffffffffffffffffffffff163373ffffffffffffffffffffffffffffffffffffffff1614610c0a576040517f08c379a0000000000000000000000000000000000000000000000000000000008152600401610c019061363f565b60405180910390fd5b80600560006101000a81548173ffffffffffffffffffffffffffffffffffffffff021916908373ffffffffffffffffffffffffffffffffffffffff16021790555050565b610c56611c31565b7f000000000000000000000000000000000000000000000000000000000000000073ffffffffffffffffffffffffffffffffffffffff1663eaeacd638484846040518463ffffffff1660e01b8152600401610cb39392919061365f565b600060405180830381600087803b158015610ccd57600080fd5b505af1158015610ce1573d6000803e3d6000fd5b50505050600760009054906101000a900460ff1615610d7657600660008463ffffffff1663ffffffff1681526020019081526020016000206000838152602001908152602001600020600081819054906101000a900467ffffffffffffffff1680929190610d4e90613696565b91906101000a81548167ffffffffffffffff021916908367ffffffffffffffff160217905550505b505050565b610d83611c31565b610d8d6000611e2f565b565b6000600760009054906101000a900460ff1615610dfe576001600660008563ffffffff1663ffffffff168152602001908152602001600020600084815260200190815260200160002060009054906101000a900467ffffffffffffffff16610df791906136c6565b9050610e03565b600090505b92915050565b60008060009054906101000a900473ffffffffffffffffffffffffffffffffffffffff16905090565b600260009054906101000a900473ffffffffffffffffffffffffffffffffffffffff1681565b610ed984610e7885600560149054906101000a900463ffffffff16611caf565b84848080601f016020809104026020016040519081016040528093929190818152602001838380828437600081840152601f19601f820116905080830192505050505050506040518060400160405280348152602001600081525033611cdb565b50610ee384611df7565b50505050565b60016020528060005260406000206000915090505481565b60005b828290508110156110295736838383818110610f2357610f22613525565b5b9050602002810190610f359190613702565b9050610f5d816000016000016020810190610f509190612e9c565b8260000160200135610aed565b610f67575061101c565b3073ffffffffffffffffffffffffffffffffffffffff1663d045a0dc8260c00135836000018460a0013585806101000190610fa29190613590565b8760e0016020810190610fb59190612fd2565b88806101200190610fc69190613590565b6040518963ffffffff1660e01b8152600401610fe89796959493929190613855565b6000604051808303818588803b15801561100157600080fd5b505af1158015611015573d6000803e3d6000fd5b5050505050505b8080600101915050610f04565b503373ffffffffffffffffffffffffffffffffffffffff16638e9e70996040518163ffffffff1660e01b8152600401600060405180830381865afa158015611075573d6000803e3d6000fd5b505050506040513d6000823e3d601f19601f8201168201806040525081019061109e9190613a05565b6040517f8351eea70000000000000000000000000000000000000000000000000000000081526004016110d19190613a92565b60405180910390fd5b600560009054906101000a900473ffffffffffffffffffffffffffffffffffffffff1673ffffffffffffffffffffffffffffffffffffffff163373ffffffffffffffffffffffffffffffffffffffff161461116a576040517f08c379a00000000000000000000000000000000000000000000000000000000081526004016111619061363f565b60405180910390fd5b6111eb8461118a85600560149054906101000a900463ffffffff16611caf565b84848080601f016020809104026020016040519081016040528093929190818152602001838380828437600081840152601f19601f820116905080830192505050505050506040518060400160405280348152602001600081525033611cdb565b5050505050565b3073ffffffffffffffffffffffffffffffffffffffff163373ffffffffffffffffffffffffffffffffffffffff1614611257576040517f14d4a4e800000000000000000000000000000000000000000000000000000000815260040160405180910390fd5b61126687878787878787611ef3565b50505050505050565b3073ffffffffffffffffffffffffffffffffffffffff168773ffffffffffffffffffffffffffffffffffffffff16146112dd576040517f08c379a00000000000000000000000000000000000000000000000000000000081526004016112d490613b00565b60405180910390fd5b7f000000000000000000000000000000000000000000000000000000000000000073ffffffffffffffffffffffffffffffffffffffff163373ffffffffffffffffffffffffffffffffffffffff161461136b576040517f08c379a000000000000000000000000000000000000000000000000000000000815260040161136290613b6c565b60405180910390fd5b60006113778686611f0b565b9050600260ff168160ff16036113a65760016004600082825461139a9190613b8c565b9250508190555061148b565b600460ff168160ff160361144f576001600460008282546113c79190613b8c565b9250508190555060006113da8787611f3d565b90506113e581611df7565b600061140762030d4060006113f8611f6f565b611f979092919063ffffffff16565b90506114478261142a6001600560149054906101000a900463ffffffff16611caf565b836040518060400160405280348152602001600081525030611cdb565b50505061148a565b6040517f08c379a000000000000000000000000000000000000000000000000000000000815260040161148190613c0c565b60405180910390fd5b5b5050505050505050565b6000806000611506876114ba88600560149054906101000a900463ffffffff16611caf565b87878080601f016020809104026020016040519081016040528093929190818152602001838380828437600081840152601f19601f82011690508083019250505050505050600061201d565b905080600001518160200151925092505094509492505050565b611528611c31565b80600260006101000a81548173ffffffffffffffffffffffffffffffffffffffff021916908373ffffffffffffffffffffffffffffffffffffffff1602179055507fd48d879cef83a1c0bdda516f27b13ddb1b3f8bbac1c9e1511bb2a659c2427760816040516115989190612ccb565b60405180910390a150565b6115ab611c31565b60008282906115ba9190613c70565b9050632637a45060e01b7bffffffffffffffffffffffffffffffffffffffffffffffffffffffff1916817bffffffffffffffffffffffffffffffffffffffffffffffffffffffff19160361160d57600080fd5b6000807f000000000000000000000000000000000000000000000000000000000000000073ffffffffffffffffffffffffffffffffffffffff168585604051611657929190613cff565b6000604051808303816000865af19150503d8060008114611694576040519150601f19603f3d011682016040523d82523d6000602084013e611699565b606091505b5091509150816116ab57805160208201fd5b5050505050565b6116ba611c31565b600073ffffffffffffffffffffffffffffffffffffffff168173ffffffffffffffffffffffffffffffffffffffff1603611729576040517f08c379a000000000000000000000000000000000000000000000000000000000815260040161172090613d8a565b60405180910390fd5b61173281611e2f565b50565b600560009054906101000a900473ffffffffffffffffffffffffffffffffffffffff1673ffffffffffffffffffffffffffffffffffffffff163373ffffffffffffffffffffffffffffffffffffffff16146117c5576040517f08c379a00000000000000000000000000000000000000000000000000000000081526004016117bc9061363f565b60405180910390fd5b60008273ffffffffffffffffffffffffffffffffffffffff16826040516117eb90613dd0565b60006040518083038185875af1925050503d8060008114611828576040519150601f19603f3d011682016040523d82523d6000602084013e61182d565b606091505b5050905080611871576040517f08c379a000000000000000000000000000000000000000000000000000000000815260040161186890613e31565b60405180910390fd5b505050565b600560009054906101000a900473ffffffffffffffffffffffffffffffffffffffff1681565b60008160200135600160008460000160208101906118ba9190612e9c565b63ffffffff1663ffffffff16815260200190815260200160002054149050919050565b600080600160008463ffffffff1663ffffffff1681526020019081526020016000205490506000801b810361194957826040517ff6ff4fb70000000000000000000000000000000000000000000000000000000081526004016119409190612ca1565b60405180910390fd5b80915050919050565b6119858760000160208101906119689190612e9c565b88602001358960400160208101906119809190613e51565b612100565b60006119918686611f0b565b9050600160ff168160ff1603611a2557600360008154809291906119b490613e7e565b91905055506119c3868661223b565b341015611a05576040517f08c379a00000000000000000000000000000000000000000000000000000000081526004016119fc90613f12565b60405180910390fd5b611a20886000016020810190611a1b9190612e9c565b612269565b611c27565b600260ff168160ff161480611a405750600460ff168160ff16145b15611b115760036000815480929190611a5890613e7e565b9190505550611a78886000016020810190611a739190612e9c565b612269565b7f000000000000000000000000000000000000000000000000000000000000000073ffffffffffffffffffffffffffffffffffffffff16637cb59012308960008a8a6040518663ffffffff1660e01b8152600401611ada959493929190613f7b565b600060405180830381600087803b158015611af457600080fd5b505af1158015611b08573d6000803e3d6000fd5b50505050611c26565b600360ff168160ff1603611bea5760036000815480929190611b3290613e7e565b9190505550611b52886000016020810190611b4d9190612e9c565b612269565b611b6d886000016020810190611b689190612e9c565b611df7565b6000611b8f62030d40600a611b80611f6f565b611f979092919063ffffffff16565b9050611be3896000016020810190611ba79190612e9c565b611bc66001600560149054906101000a900463ffffffff16600a6122a1565b836040518060400160405280348152602001600081525030611cdb565b5050611c25565b6040517f08c379a0000000000000000000000000000000000000000000000000000000008152600401611c1c90613c0c565b60405180910390fd5b5b5b5050505050505050565b611c396122d0565b73ffffffffffffffffffffffffffffffffffffffff16611c57610e09565b73ffffffffffffffffffffffffffffffffffffffff1614611cad576040517f08c379a0000000000000000000000000000000000000000000000000000000008152600401611ca490614015565b60405180910390fd5b565b60608282604051602001611cc49291906140a1565b604051602081830303815290604052905092915050565b611ce361295b565b6000611cf284600001516122d8565b9050600084602001511115611d0f57611d0e8460200151612327565b5b7f000000000000000000000000000000000000000000000000000000000000000073ffffffffffffffffffffffffffffffffffffffff16632637a450826040518060a001604052808b63ffffffff168152602001611d6c8c6118dd565b81526020018a815260200189815260200160008960200151111515815250866040518463ffffffff1660e01b8152600401611da89291906141a3565b60806040518083038185885af1158015611dc6573d6000803e3d6000fd5b50505050506040513d601f19601f82011682018060405250810190611deb91906142cb565b91505095945050505050565b600960008263ffffffff1663ffffffff1681526020019081526020016000206000815480929190611e2790613e7e565b919050555050565b60008060009054906101000a900473ffffffffffffffffffffffffffffffffffffffff169050816000806101000a81548173ffffffffffffffffffffffffffffffffffffffff021916908373ffffffffffffffffffffffffffffffffffffffff1602179055508173ffffffffffffffffffffffffffffffffffffffff168173ffffffffffffffffffffffffffffffffffffffff167f8be0079c531659141344cd1fd0a4f28419497f9722a3daafe3b4186f6b6457e060405160405180910390a35050565b611f0287878787878787611952565b50505050505050565b60008282600060ff1690600160ff1692611f2793929190614302565b90611f329190614369565b60f81c905092915050565b60008282600160ff1690600560ff1692611f5993929190614302565b90611f649190613c70565b60e01c905092915050565b60606003604051602001611f8391906143fe565b604051602081830303815290604052905090565b606083600361ffff16611fb460008361247190919063ffffffff16565b61ffff1614611ff8576040517f08c379a0000000000000000000000000000000000000000000000000000000008152600401611fef9061448b565b60405180910390fd5b600061200485856124d8565b905061201286600183612544565b925050509392505050565b61202561298f565b7f000000000000000000000000000000000000000000000000000000000000000073ffffffffffffffffffffffffffffffffffffffff1663ddc28c586040518060a001604052808863ffffffff168152602001612081896118dd565b8152602001878152602001868152602001851515815250306040518363ffffffff1660e01b81526004016120b69291906141a3565b6040805180830381865afa1580156120d2573d6000803e3d6000fd5b505050506040513d601f19601f820116820180604052508101906120f691906144ab565b9050949350505050565b6000600660008563ffffffff1663ffffffff168152602001908152602001600020600084815260200190815260200160002060009054906101000a900467ffffffffffffffff169050600760009054906101000a900460ff16156121c15760018161216b91906136c6565b67ffffffffffffffff168267ffffffffffffffff16146121c0576040517f08c379a00000000000000000000000000000000000000000000000000000000081526004016121b790614524565b60405180910390fd5b5b8067ffffffffffffffff168267ffffffffffffffff1611156122355781600660008663ffffffff1663ffffffff168152602001908152602001600020600085815260200190815260200160002060006101000a81548167ffffffffffffffff021916908367ffffffffffffffff1602179055505b50505050565b60008282600560ff1690809261225393929190614302565b9061225e9190614544565b60001c905092915050565b600860008263ffffffff1663ffffffff168152602001908152602001600020600081548092919061229990613e7e565b919050555050565b60608383836040516020016122b8939291906145c4565b60405160208183030381529060405290509392505050565b600033905090565b60008134101561231f57346040517f9f70412000000000000000000000000000000000000000000000000000000000815260040161231691906129c2565b60405180910390fd5b819050919050565b60007f000000000000000000000000000000000000000000000000000000000000000073ffffffffffffffffffffffffffffffffffffffff1663e4fe1d946040518163ffffffff1660e01b8152600401602060405180830381865afa158015612394573d6000803e3d6000fd5b505050506040513d601f19601f820116820180604052508101906123b89190614616565b9050600073ffffffffffffffffffffffffffffffffffffffff168173ffffffffffffffffffffffffffffffffffffffff1603612420576040517f5373352a00000000000000000000000000000000000000000000000000000000815260040160405180910390fd5b61246d337f0000000000000000000000000000000000000000000000000000000000000000848473ffffffffffffffffffffffffffffffffffffffff166125ec909392919063ffffffff16565b5050565b60006002826124809190613b8c565b835110156124c3576040517f08c379a00000000000000000000000000000000000000000000000000000000081526004016124ba9061468f565b60405180910390fd5b60008260028501015190508091505092915050565b60606000826fffffffffffffffffffffffffffffffff161461251b578282604051602001612507929190614701565b60405160208183030381529060405261253c565b8260405160200161252c919061472d565b6040516020818303038152906040525b905092915050565b606083600361ffff1661256160008361247190919063ffffffff16565b61ffff16146125a5576040517f08c379a000000000000000000000000000000000000000000000000000000000815260040161259c9061448b565b60405180910390fd5b846001806125b38651612675565b6125bd9190614748565b86866040516020016125d39594939291906147af565b6040516020818303038152906040529150509392505050565b61266f846323b872dd60e01b85858560405160240161260d93929190614806565b604051602081830303815290604052907bffffffffffffffffffffffffffffffffffffffffffffffffffffffff19166020820180517bffffffffffffffffffffffffffffffffffffffffffffffffffffffff83818316178352505050506126c6565b50505050565b600061ffff80168211156126be576040517f08c379a00000000000000000000000000000000000000000000000000000000081526004016126b5906148af565b60405180910390fd5b819050919050565b6000612728826040518060400160405280602081526020017f5361666545524332303a206c6f772d6c6576656c2063616c6c206661696c65648152508573ffffffffffffffffffffffffffffffffffffffff1661278e9092919063ffffffff16565b905060008151148061274a57508080602001905181019061274991906148e4565b5b612789576040517f08c379a000000000000000000000000000000000000000000000000000000000815260040161278090614983565b60405180910390fd5b505050565b606061279d84846000856127a6565b90509392505050565b6060824710156127eb576040517f08c379a00000000000000000000000000000000000000000000000000000000081526004016127e290614a15565b60405180910390fd5b6000808673ffffffffffffffffffffffffffffffffffffffff1685876040516128149190614a35565b60006040518083038185875af1925050503d8060008114612851576040519150601f19603f3d011682016040523d82523d6000602084013e612856565b606091505b509150915061286787838387612873565b92505050949350505050565b606083156128d55760008351036128cd5761288d856128e8565b6128cc576040517f08c379a00000000000000000000000000000000000000000000000000000000081526004016128c390614a98565b60405180910390fd5b5b8290506128e0565b6128df838361290b565b5b949350505050565b6000808273ffffffffffffffffffffffffffffffffffffffff163b119050919050565b60008251111561291e5781518083602001fd5b806040517f08c379a00000000000000000000000000000000000000000000000000000000081526004016129529190614afc565b60405180910390fd5b604051806060016040528060008019168152602001600067ffffffffffffffff16815260200161298961298f565b81525090565b604051806040016040528060008152602001600081525090565b6000819050919050565b6129bc816129a9565b82525050565b60006020820190506129d760008301846129b3565b92915050565b6000604051905090565b600080fd5b600080fd5b600080fd5b600060608284031215612a0c57612a0b6129f1565b5b81905092915050565b6000819050919050565b612a2881612a15565b8114612a3357600080fd5b50565b600081359050612a4581612a1f565b92915050565b600080fd5b600080fd5b600080fd5b60008083601f840112612a7057612a6f612a4b565b5b8235905067ffffffffffffffff811115612a8d57612a8c612a50565b5b602083019150836001820283011115612aa957612aa8612a55565b5b9250929050565b600073ffffffffffffffffffffffffffffffffffffffff82169050919050565b6000612adb82612ab0565b9050919050565b612aeb81612ad0565b8114612af657600080fd5b50565b600081359050612b0881612ae2565b92915050565b600080600080600080600060e0888a031215612b2d57612b2c6129e7565b5b6000612b3b8a828b016129f6565b9750506060612b4c8a828b01612a36565b965050608088013567ffffffffffffffff811115612b6d57612b6c6129ec565b5b612b798a828b01612a5a565b955095505060a0612b8c8a828b01612af9565b93505060c088013567ffffffffffffffff811115612bad57612bac6129ec565b5b612bb98a828b01612a5a565b925092505092959891949750929550565b600067ffffffffffffffff82169050919050565b612be781612bca565b82525050565b6000604082019050612c026000830185612bde565b612c0f6020830184612bde565b9392505050565b600063ffffffff82169050919050565b612c2f81612c16565b8114612c3a57600080fd5b50565b600081359050612c4c81612c26565b92915050565b60008060408385031215612c6957612c686129e7565b5b6000612c7785828601612c3d565b9250506020612c8885828601612a36565b9150509250929050565b612c9b81612c16565b82525050565b6000602082019050612cb66000830184612c92565b92915050565b612cc581612ad0565b82525050565b6000602082019050612ce06000830184612cbc565b92915050565b60008083601f840112612cfc57612cfb612a4b565b5b8235905067ffffffffffffffff811115612d1957612d18612a50565b5b602083019150836020820283011115612d3557612d34612a55565b5b9250929050565b60008083601f840112612d5257612d51612a4b565b5b8235905067ffffffffffffffff811115612d6f57612d6e612a50565b5b602083019150836020820283011115612d8b57612d8a612a55565b5b9250929050565b60008083601f840112612da857612da7612a4b565b5b8235905067ffffffffffffffff811115612dc557612dc4612a50565b5b602083019150836020820283011115612de157612de0612a55565b5b9250929050565b60008060008060008060608789031215612e0557612e046129e7565b5b600087013567ffffffffffffffff811115612e2357612e226129ec565b5b612e2f89828a01612ce6565b9650965050602087013567ffffffffffffffff811115612e5257612e516129ec565b5b612e5e89828a01612d3c565b9450945050604087013567ffffffffffffffff811115612e8157612e806129ec565b5b612e8d89828a01612d92565b92509250509295509295509295565b600060208284031215612eb257612eb16129e7565b5b6000612ec084828501612c3d565b91505092915050565b60008115159050919050565b612ede81612ec9565b82525050565b6000602082019050612ef96000830184612ed5565b92915050565b612f0881612ec9565b8114612f1357600080fd5b50565b600081359050612f2581612eff565b92915050565b600060208284031215612f4157612f406129e7565b5b6000612f4f84828501612f16565b91505092915050565b6000819050919050565b6000612f7d612f78612f7384612ab0565b612f58565b612ab0565b9050919050565b6000612f8f82612f62565b9050919050565b6000612fa182612f84565b9050919050565b612fb181612f96565b82525050565b6000602082019050612fcc6000830184612fa8565b92915050565b600060208284031215612fe857612fe76129e7565b5b6000612ff684828501612af9565b91505092915050565b61300881612bca565b811461301357600080fd5b50565b60008135905061302581612fff565b92915050565b600080600060608486031215613044576130436129e7565b5b600061305286828701612c3d565b935050602061306386828701612a36565b925050604061307486828701613016565b9150509250925092565b60006020820190506130936000830184612bde565b92915050565b600060ff82169050919050565b6130af81613099565b81146130ba57600080fd5b50565b6000813590506130cc816130a6565b92915050565b600080600080606085870312156130ec576130eb6129e7565b5b60006130fa87828801612c3d565b945050602061310b878288016130bd565b935050604085013567ffffffffffffffff81111561312c5761312b6129ec565b5b61313887828801612a5a565b925092505092959194509250565b61314f81612a15565b82525050565b600060208201905061316a6000830184613146565b92915050565b60008083601f84011261318657613185612a4b565b5b8235905067ffffffffffffffff8111156131a3576131a2612a50565b5b6020830191508360208202830111156131bf576131be612a55565b5b9250929050565b600080602083850312156131dd576131dc6129e7565b5b600083013567ffffffffffffffff8111156131fb576131fa6129ec565b5b61320785828601613170565b92509250509250929050565b600080600080600080600060a0888a031215613232576132316129e7565b5b60006132408a828b01612af9565b97505060206132518a828b01612a36565b965050604088013567ffffffffffffffff811115613272576132716129ec565b5b61327e8a828b01612a5a565b955095505060606132918a828b01612af9565b935050608088013567ffffffffffffffff8111156132b2576132b16129ec565b5b6132be8a828b01612a5a565b925092505092959891949750929550565b60006040820190506132e460008301856129b3565b6132f160208301846129b3565b9392505050565b6000806020838503121561330f5761330e6129e7565b5b600083013567ffffffffffffffff81111561332d5761332c6129ec565b5b61333985828601612a5a565b92509250509250929050565b600061335082612ab0565b9050919050565b61336081613345565b811461336b57600080fd5b50565b60008135905061337d81613357565b92915050565b61338c816129a9565b811461339757600080fd5b50565b6000813590506133a981613383565b92915050565b600080604083850312156133c6576133c56129e7565b5b60006133d48582860161336e565b92505060206133e58582860161339a565b9150509250929050565b600060608284031215613405576134046129e7565b5b6000613413848285016129f6565b91505092915050565b60006040820190506134316000830185612c92565b61343e6020830184613146565b9392505050565b600082825260208201905092915050565b7f4f6d6e69436f756e7465723a206c656e677468206d69736d6174636800000000600082015250565b600061348c601c83613445565b915061349782613456565b602082019050919050565b600060208201905081810360008301526134bb8161347f565b9050919050565b7f4e487b7100000000000000000000000000000000000000000000000000000000600052601160045260246000fd5b60006134fc826129a9565b9150613507836129a9565b925082820390508181111561351f5761351e6134c2565b5b92915050565b7f4e487b7100000000000000000000000000000000000000000000000000000000600052603260045260246000fd5b60006020828403121561356a576135696129e7565b5b6000613578848285016130bd565b91505092915050565b600080fd5b600080fd5b600080fd5b600080833560016020038436030381126135ad576135ac613581565b5b80840192508235915067ffffffffffffffff8211156135cf576135ce613586565b5b6020830192506001820236038313156135eb576135ea61358b565b5b509250929050565b7f6f6e6c792061646d696e00000000000000000000000000000000000000000000600082015250565b6000613629600a83613445565b9150613634826135f3565b602082019050919050565b600060208201905081810360008301526136588161361c565b9050919050565b60006060820190506136746000830186612c92565b6136816020830185613146565b61368e6040830184612bde565b949350505050565b60006136a182612bca565b915067ffffffffffffffff82036136bb576136ba6134c2565b5b600182019050919050565b60006136d182612bca565b91506136dc83612bca565b9250828201905067ffffffffffffffff8111156136fc576136fb6134c2565b5b92915050565b6000823560016101400383360303811261371f5761371e613581565b5b80830191505092915050565b600061373a6020840184612c3d565b905092915050565b61374b81612c16565b82525050565b60006137606020840184612a36565b905092915050565b61377181612a15565b82525050565b60006137866020840184613016565b905092915050565b61379781612bca565b82525050565b606082016137ae600083018361372b565b6137bb6000850182613742565b506137c96020830183613751565b6137d66020850182613768565b506137e46040830183613777565b6137f1604085018261378e565b50505050565b600082825260208201905092915050565b82818337600083830152505050565b6000601f19601f8301169050919050565b600061383483856137f7565b9350613841838584613808565b61384a83613817565b840190509392505050565b600060e08201905061386a600083018a61379d565b6138776060830189613146565b818103608083015261388a818789613828565b905061389960a0830186612cbc565b81810360c08301526138ac818486613828565b905098975050505050505050565b600080fd5b7f4e487b7100000000000000000000000000000000000000000000000000000000600052604160045260246000fd5b6138f782613817565b810181811067ffffffffffffffff82111715613916576139156138bf565b5b80604052505050565b60006139296129dd565b905061393582826138ee565b919050565b600067ffffffffffffffff821115613955576139546138bf565b5b61395e82613817565b9050602081019050919050565b60005b8381101561398957808201518184015260208101905061396e565b60008484015250505050565b60006139a86139a38461393a565b61391f565b9050828152602081018484840111156139c4576139c36138ba565b5b6139cf84828561396b565b509392505050565b600082601f8301126139ec576139eb612a4b565b5b81516139fc848260208601613995565b91505092915050565b600060208284031215613a1b57613a1a6129e7565b5b600082015167ffffffffffffffff811115613a3957613a386129ec565b5b613a45848285016139d7565b91505092915050565b600081519050919050565b6000613a6482613a4e565b613a6e81856137f7565b9350613a7e81856020860161396b565b613a8781613817565b840191505092915050565b60006020820190508181036000830152613aac8184613a59565b905092915050565b7f216f417070000000000000000000000000000000000000000000000000000000600082015250565b6000613aea600583613445565b9150613af582613ab4565b602082019050919050565b60006020820190508181036000830152613b1981613add565b9050919050565b7f21656e64706f696e740000000000000000000000000000000000000000000000600082015250565b6000613b56600983613445565b9150613b6182613b20565b602082019050919050565b60006020820190508181036000830152613b8581613b49565b9050919050565b6000613b97826129a9565b9150613ba2836129a9565b9250828201905080821115613bba57613bb96134c2565b5b92915050565b7f696e76616c6964206d6573736167652074797065000000000000000000000000600082015250565b6000613bf6601483613445565b9150613c0182613bc0565b602082019050919050565b60006020820190508181036000830152613c2581613be9565b9050919050565b600082905092915050565b60007fffffffff0000000000000000000000000000000000000000000000000000000082169050919050565b600082821b905092915050565b6000613c7c8383613c2c565b82613c878135613c37565b92506004821015613cc757613cc27fffffffff0000000000000000000000000000000000000000000000000000000083600403600802613c63565b831692505b505092915050565b600081905092915050565b6000613ce68385613ccf565b9350613cf3838584613808565b82840190509392505050565b6000613d0c828486613cda565b91508190509392505050565b7f4f776e61626c653a206e6577206f776e657220697320746865207a65726f206160008201527f6464726573730000000000000000000000000000000000000000000000000000602082015250565b6000613d74602683613445565b9150613d7f82613d18565b604082019050919050565b60006020820190508181036000830152613da381613d67565b9050919050565b50565b6000613dba600083613ccf565b9150613dc582613daa565b600082019050919050565b6000613ddb82613dad565b9150819050919050565b7f4f6d6e69436f756e7465723a207769746864726177206661696c656400000000600082015250565b6000613e1b601c83613445565b9150613e2682613de5565b602082019050919050565b60006020820190508181036000830152613e4a81613e0e565b9050919050565b600060208284031215613e6757613e666129e7565b5b6000613e7584828501613016565b91505092915050565b6000613e89826129a9565b91507fffffffffffffffffffffffffffffffffffffffffffffffffffffffffffffffff8203613ebb57613eba6134c2565b5b600182019050919050565b7f4f6d6e69436f756e7465723a20696e73756666696369656e742076616c756500600082015250565b6000613efc601f83613445565b9150613f0782613ec6565b602082019050919050565b60006020820190508181036000830152613f2b81613eef565b9050919050565b6000819050919050565b600061ffff82169050919050565b6000613f65613f60613f5b84613f32565b612f58565b613f3c565b9050919050565b613f7581613f4a565b82525050565b6000608082019050613f906000830188612cbc565b613f9d6020830187613146565b613faa6040830186613f6c565b8181036060830152613fbd818486613828565b90509695505050505050565b7f4f776e61626c653a2063616c6c6572206973206e6f7420746865206f776e6572600082015250565b6000613fff602083613445565b915061400a82613fc9565b602082019050919050565b6000602082019050818103600083015261402e81613ff2565b9050919050565b60008160f81b9050919050565b600061404d82614035565b9050919050565b61406561406082613099565b614042565b82525050565b60008160e01b9050919050565b60006140838261406b565b9050919050565b61409b61409682612c16565b614078565b82525050565b60006140ad8285614054565b6001820191506140bd828461408a565b6004820191508190509392505050565b600082825260208201905092915050565b60006140e982613a4e565b6140f381856140cd565b935061410381856020860161396b565b61410c81613817565b840191505092915050565b61412081612ec9565b82525050565b600060a08301600083015161413e6000860182613742565b5060208301516141516020860182613768565b506040830151848203604086015261416982826140de565b9150506060830151848203606086015261418382826140de565b91505060808301516141986080860182614117565b508091505092915050565b600060408201905081810360008301526141bd8185614126565b90506141cc6020830184612cbc565b9392505050565b600080fd5b6000815190506141e781612a1f565b92915050565b6000815190506141fc81612fff565b92915050565b60008151905061421181613383565b92915050565b60006040828403121561422d5761422c6141d3565b5b614237604061391f565b9050600061424784828501614202565b600083015250602061425b84828501614202565b60208301525092915050565b60006080828403121561427d5761427c6141d3565b5b614287606061391f565b90506000614297848285016141d8565b60008301525060206142ab848285016141ed565b60208301525060406142bf84828501614217565b60408301525092915050565b6000608082840312156142e1576142e06129e7565b5b60006142ef84828501614267565b91505092915050565b600080fd5b600080fd5b60008085851115614316576143156142f8565b5b83861115614327576143266142fd565b5b6001850283019150848603905094509492505050565b60007fff0000000000000000000000000000000000000000000000000000000000000082169050919050565b60006143758383613c2c565b82614380813561433d565b925060018210156143c0576143bb7fff0000000000000000000000000000000000000000000000000000000000000083600103600802613c63565b831692505b505092915050565b60008160f01b9050919050565b60006143e0826143c8565b9050919050565b6143f86143f382613f3c565b6143d5565b82525050565b600061440a82846143e7565b60028201915081905092915050565b7f4f7074696f6e734275696c6465723a20696e76616c6964206f7074696f6e732060008201527f7479706500000000000000000000000000000000000000000000000000000000602082015250565b6000614475602483613445565b915061448082614419565b604082019050919050565b600060208201905081810360008301526144a481614468565b9050919050565b6000604082840312156144c1576144c06129e7565b5b60006144cf84828501614217565b91505092915050565b7f4f4170703a20696e76616c6964206e6f6e636500000000000000000000000000600082015250565b600061450e601383613445565b9150614519826144d8565b602082019050919050565b6000602082019050818103600083015261453d81614501565b9050919050565b60006145508383613c2c565b8261455b8135612a15565b9250602082101561459b576145967fffffffffffffffffffffffffffffffffffffffffffffffffffffffffffffffff83602003600802613c63565b831692505b505092915050565b6000819050919050565b6145be6145b9826129a9565b6145a3565b82525050565b60006145d08286614054565b6001820191506145e0828561408a565b6004820191506145f082846145ad565b602082019150819050949350505050565b60008151905061461081612ae2565b92915050565b60006020828403121561462c5761462b6129e7565b5b600061463a84828501614601565b91505092915050565b7f746f55696e7431365f6f75744f66426f756e6473000000000000000000000000600082015250565b6000614679601483613445565b915061468482614643565b602082019050919050565b600060208201905081810360008301526146a88161466c565b9050919050565b60006fffffffffffffffffffffffffffffffff82169050919050565b60008160801b9050919050565b60006146e3826146cb565b9050919050565b6146fb6146f6826146af565b6146d8565b82525050565b600061470d82856146ea565b60108201915061471d82846146ea565b6010820191508190509392505050565b600061473982846146ea565b60108201915081905092915050565b600061475382613f3c565b915061475e83613f3c565b9250828201905061ffff811115614778576147776134c2565b5b92915050565b600061478982613a4e565b6147938185613ccf565b93506147a381856020860161396b565b80840191505092915050565b60006147bb828861477e565b91506147c78287614054565b6001820191506147d782866143e7565b6002820191506147e78285614054565b6001820191506147f7828461477e565b91508190509695505050505050565b600060608201905061481b6000830186612cbc565b6148286020830185612cbc565b61483560408301846129b3565b949350505050565b7f53616665436173743a2076616c756520646f65736e27742066697420696e203160008201527f3620626974730000000000000000000000000000000000000000000000000000602082015250565b6000614899602683613445565b91506148a48261483d565b604082019050919050565b600060208201905081810360008301526148c88161488c565b9050919050565b6000815190506148de81612eff565b92915050565b6000602082840312156148fa576148f96129e7565b5b6000614908848285016148cf565b91505092915050565b7f5361666545524332303a204552433230206f7065726174696f6e20646964206e60008201527f6f74207375636365656400000000000000000000000000000000000000000000602082015250565b600061496d602a83613445565b915061497882614911565b604082019050919050565b6000602082019050818103600083015261499c81614960565b9050919050565b7f416464726573733a20696e73756666696369656e742062616c616e636520666f60008201527f722063616c6c0000000000000000000000000000000000000000000000000000602082015250565b60006149ff602683613445565b9150614a0a826149a3565b604082019050919050565b60006020820190508181036000830152614a2e816149f2565b9050919050565b6000614a41828461477e565b915081905092915050565b7f416464726573733a2063616c6c20746f206e6f6e2d636f6e7472616374000000600082015250565b6000614a82601d83613445565b9150614a8d82614a4c565b602082019050919050565b60006020820190508181036000830152614ab181614a75565b9050919050565b600081519050919050565b6000614ace82614ab8565b614ad88185613445565b9350614ae881856020860161396b565b614af181613817565b840191505092915050565b60006020820190508181036000830152614b168184614ac3565b90509291505056fea26469706673582212207eb90b2fd9a6bde92b25a27ea54bdd1356712df86bcc83b89c7717909656a9f964736f6c63430008160033",
  "linkReferences": {},
  "deployedLinkReferences": {}
}