{
  "abi": [
    {
      "type": "fallback",
      "stateMutability": "nonpayable"
    },
    {
      "type": "function",
      "name": "isSupportedEid",
      "inputs": [
        {
          "name": "",
          "type": "uint32",
          "internalType": "uint32"
        }
      ],
      "outputs": [
        {
          "name": "",
          "type": "bool",
          "internalType": "bool"
        }
      ],
      "stateMutability": "pure"
    },
    {
      "type": "function",
      "name": "messageLibType",
      "inputs": [],
      "outputs": [
        {
          "name": "",
          "type": "uint8",
          "internalType": "enum MessageLibType"
        }
      ],
      "stateMutability": "pure"
    },
    {
      "type": "function",
      "name": "supportsInterface",
      "inputs": [
        {
          "name": "interfaceId",
          "type": "bytes4",
          "internalType": "bytes4"
        }
      ],
      "outputs": [
        {
          "name": "",
          "type": "bool",
          "internalType": "bool"
        }
      ],
      "stateMutability": "view"
    },
    {
      "type": "function",
      "name": "version",
      "inputs": [],
      "outputs": [
        {
          "name": "major",
          "type": "uint64",
          "internalType": "uint64"
        },
        {
          "name": "minor",
          "type": "uint8",
          "internalType": "uint8"
        },
        {
          "name": "endpointVersion",
          "type": "uint8",
          "internalType": "uint8"
        }
      ],
      "stateMutability": "pure"
    },
    {
      "type": "error",
      "name": "LZ_NotImplemented",
      "inputs": []
    }
  ],
  "bytecode": {
    "object": "0x608060405234801561001057600080fd5b5061026f806100206000396000f3fe608060405234801561001057600080fd5b506004361061004c5760003560e01c806301ffc9a71461007e5780631881d94d146100a657806354fd4d50146100b55780636750cd4c146100dc575b6040517f2657b6c300000000000000000000000000000000000000000000000000000000815260040160405180910390fd5b61009161008c366004610189565b6100f0565b60405190151581526020015b60405180910390f35b600260405161009d91906101d2565b6040805167ffffffffffffffff815260ff602082015260029181019190915260600161009d565b6100916100ea366004610213565b50600190565b60007fffffffff0000000000000000000000000000000000000000000000000000000082167f97f0258400000000000000000000000000000000000000000000000000000000148061018357507f01ffc9a7000000000000000000000000000000000000000000000000000000007fffffffff000000000000000000000000000000000000000000000000000000008316145b92915050565b60006020828403121561019b57600080fd5b81357fffffffff00000000000000000000000000000000000000000000000000000000811681146101cb57600080fd5b9392505050565b602081016003831061020d577f4e487b7100000000000000000000000000000000000000000000000000000000600052602160045260246000fd5b91905290565b60006020828403121561022557600080fd5b813563ffffffff811681146101cb57600080fdfea2646970667358221220ad935941aae36b2e48b577581c3f08eab7fd0a5213cc3ef580c34fda4db1b32464736f6c63430008140033",
    "linkReferences": {}
  },
  "methodIdentifiers": {
    "isSupportedEid(uint32)": "6750cd4c",
    "messageLibType()": "1881d94d",
    "supportsInterface(bytes4)": "01ffc9a7",
    "version()": "54fd4d50"
  },
  "id": 71
}