{
  "abi": [
    {
      "type": "constructor",
      "inputs": [
        {
          "name": "_endpoint",
          "type": "address",
          "internalType": "address"
        },
        {
          "name": "_treasuryGasLimit",
          "type": "uint256",
          "internalType": "uint256"
        },
        {
          "name": "_treasuryGasForFeeCap",
          "type": "uint256",
          "internalType": "uint256"
        }
      ],
      "stateMutability": "nonpayable"
    },
    {
      "type": "receive",
      "stateMutability": "payable"
    },
    {
      "type": "function",
      "name": "executorConfigs",
      "inputs": [
        {
          "name": "oapp",
          "type": "address",
          "internalType": "address"
        },
        {
          "name": "eid",
          "type": "uint32",
          "internalType": "uint32"
        }
      ],
      "outputs": [
        {
          "name": "maxMessageSize",
          "type": "uint32",
          "internalType": "uint32"
        },
        {
          "name": "executor",
          "type": "address",
          "internalType": "address"
        }
      ],
      "stateMutability": "view"
    },
    {
      "type": "function",
      "name": "fees",
      "inputs": [
        {
          "name": "worker",
          "type": "address",
          "internalType": "address"
        }
      ],
      "outputs": [
        {
          "name": "",
          "type": "uint256",
          "internalType": "uint256"
        }
      ],
      "stateMutability": "view"
    },
    {
      "type": "function",
      "name": "getAppUlnConfig",
      "inputs": [
        {
          "name": "_oapp",
          "type": "address",
          "internalType": "address"
        },
        {
          "name": "_remoteEid",
          "type": "uint32",
          "internalType": "uint32"
        }
      ],
      "outputs": [
        {
          "name": "",
          "type": "tuple",
          "internalType": "struct UlnConfig",
          "components": [
            {
              "name": "confirmations",
              "type": "uint64",
              "internalType": "uint64"
            },
            {
              "name": "requiredDVNCount",
              "type": "uint8",
              "internalType": "uint8"
            },
            {
              "name": "optionalDVNCount",
              "type": "uint8",
              "internalType": "uint8"
            },
            {
              "name": "optionalDVNThreshold",
              "type": "uint8",
              "internalType": "uint8"
            },
            {
              "name": "requiredDVNs",
              "type": "address[]",
              "internalType": "address[]"
            },
            {
              "name": "optionalDVNs",
              "type": "address[]",
              "internalType": "address[]"
            }
          ]
        }
      ],
      "stateMutability": "view"
    },
    {
      "type": "function",
      "name": "getConfig",
      "inputs": [
        {
          "name": "_eid",
          "type": "uint32",
          "internalType": "uint32"
        },
        {
          "name": "_oapp",
          "type": "address",
          "internalType": "address"
        },
        {
          "name": "_configType",
          "type": "uint32",
          "internalType": "uint32"
        }
      ],
      "outputs": [
        {
          "name": "",
          "type": "bytes",
          "internalType": "bytes"
        }
      ],
      "stateMutability": "view"
    },
    {
      "type": "function",
      "name": "getExecutorConfig",
      "inputs": [
        {
          "name": "_oapp",
          "type": "address",
          "internalType": "address"
        },
        {
          "name": "_remoteEid",
          "type": "uint32",
          "internalType": "uint32"
        }
      ],
      "outputs": [
        {
          "name": "rtnConfig",
          "type": "tuple",
          "internalType": "struct ExecutorConfig",
          "components": [
            {
              "name": "maxMessageSize",
              "type": "uint32",
              "internalType": "uint32"
            },
            {
              "name": "executor",
              "type": "address",
              "internalType": "address"
            }
          ]
        }
      ],
      "stateMutability": "view"
    },
    {
      "type": "function",
      "name": "getUlnConfig",
      "inputs": [
        {
          "name": "_oapp",
          "type": "address",
          "internalType": "address"
        },
        {
          "name": "_remoteEid",
          "type": "uint32",
          "internalType": "uint32"
        }
      ],
      "outputs": [
        {
          "name": "rtnConfig",
          "type": "tuple",
          "internalType": "struct UlnConfig",
          "components": [
            {
              "name": "confirmations",
              "type": "uint64",
              "internalType": "uint64"
            },
            {
              "name": "requiredDVNCount",
              "type": "uint8",
              "internalType": "uint8"
            },
            {
              "name": "optionalDVNCount",
              "type": "uint8",
              "internalType": "uint8"
            },
            {
              "name": "optionalDVNThreshold",
              "type": "uint8",
              "internalType": "uint8"
            },
            {
              "name": "requiredDVNs",
              "type": "address[]",
              "internalType": "address[]"
            },
            {
              "name": "optionalDVNs",
              "type": "address[]",
              "internalType": "address[]"
            }
          ]
        }
      ],
      "stateMutability": "view"
    },
    {
      "type": "function",
      "name": "isSupportedEid",
      "inputs": [
        {
          "name": "_eid",
          "type": "uint32",
          "internalType": "uint32"
        }
      ],
      "outputs": [
        {
          "name": "",
          "type": "bool",
          "internalType": "bool"
        }
      ],
      "stateMutability": "view"
    },
    {
      "type": "function",
      "name": "messageLibType",
      "inputs": [],
      "outputs": [
        {
          "name": "",
          "type": "uint8",
          "internalType": "enum MessageLibType"
        }
      ],
      "stateMutability": "pure"
    },
    {
      "type": "function",
      "name": "owner",
      "inputs": [],
      "outputs": [
        {
          "name": "",
          "type": "address",
          "internalType": "address"
        }
      ],
      "stateMutability": "view"
    },
    {
      "type": "function",
      "name": "quote",
      "inputs": [
        {
          "name": "_packet",
          "type": "tuple",
          "internalType": "struct Packet",
          "components": [
            {
              "name": "nonce",
              "type": "uint64",
              "internalType": "uint64"
            },
            {
              "name": "srcEid",
              "type": "uint32",
              "internalType": "uint32"
            },
            {
              "name": "sender",
              "type": "address",
              "internalType": "address"
            },
            {
              "name": "dstEid",
              "type": "uint32",
              "internalType": "uint32"
            },
            {
              "name": "receiver",
              "type": "bytes32",
              "internalType": "bytes32"
            },
            {
              "name": "guid",
              "type": "bytes32",
              "internalType": "bytes32"
            },
            {
              "name": "message",
              "type": "bytes",
              "internalType": "bytes"
            }
          ]
        },
        {
          "name": "_options",
          "type": "bytes",
          "internalType": "bytes"
        },
        {
          "name": "_payInLzToken",
          "type": "bool",
          "internalType": "bool"
        }
      ],
      "outputs": [
        {
          "name": "",
          "type": "tuple",
          "internalType": "struct MessagingFee",
          "components": [
            {
              "name": "nativeFee",
              "type": "uint256",
              "internalType": "uint256"
            },
            {
              "name": "lzTokenFee",
              "type": "uint256",
              "internalType": "uint256"
            }
          ]
        }
      ],
      "stateMutability": "view"
    },
    {
      "type": "function",
      "name": "renounceOwnership",
      "inputs": [],
      "outputs": [],
      "stateMutability": "nonpayable"
    },
    {
      "type": "function",
      "name": "send",
      "inputs": [
        {
          "name": "_packet",
          "type": "tuple",
          "internalType": "struct Packet",
          "components": [
            {
              "name": "nonce",
              "type": "uint64",
              "internalType": "uint64"
            },
            {
              "name": "srcEid",
              "type": "uint32",
              "internalType": "uint32"
            },
            {
              "name": "sender",
              "type": "address",
              "internalType": "address"
            },
            {
              "name": "dstEid",
              "type": "uint32",
              "internalType": "uint32"
            },
            {
              "name": "receiver",
              "type": "bytes32",
              "internalType": "bytes32"
            },
            {
              "name": "guid",
              "type": "bytes32",
              "internalType": "bytes32"
            },
            {
              "name": "message",
              "type": "bytes",
              "internalType": "bytes"
            }
          ]
        },
        {
          "name": "_options",
          "type": "bytes",
          "internalType": "bytes"
        },
        {
          "name": "_payInLzToken",
          "type": "bool",
          "internalType": "bool"
        }
      ],
      "outputs": [
        {
          "name": "",
          "type": "tuple",
          "internalType": "struct MessagingFee",
          "components": [
            {
              "name": "nativeFee",
              "type": "uint256",
              "internalType": "uint256"
            },
            {
              "name": "lzTokenFee",
              "type": "uint256",
              "internalType": "uint256"
            }
          ]
        },
        {
          "name": "",
          "type": "bytes",
          "internalType": "bytes"
        }
      ],
      "stateMutability": "nonpayable"
    },
    {
      "type": "function",
      "name": "setConfig",
      "inputs": [
        {
          "name": "_oapp",
          "type": "address",
          "internalType": "address"
        },
        {
          "name": "_params",
          "type": "tuple[]",
          "internalType": "struct SetConfigParam[]",
          "components": [
            {
              "name": "eid",
              "type": "uint32",
              "internalType": "uint32"
            },
            {
              "name": "configType",
              "type": "uint32",
              "internalType": "uint32"
            },
            {
              "name": "config",
              "type": "bytes",
              "internalType": "bytes"
            }
          ]
        }
      ],
      "outputs": [],
      "stateMutability": "nonpayable"
    },
    {
      "type": "function",
      "name": "setDefaultExecutorConfigs",
      "inputs": [
        {
          "name": "_params",
          "type": "tuple[]",
          "internalType": "struct SetDefaultExecutorConfigParam[]",
          "components": [
            {
              "name": "eid",
              "type": "uint32",
              "internalType": "uint32"
            },
            {
              "name": "config",
              "type": "tuple",
              "internalType": "struct ExecutorConfig",
              "components": [
                {
                  "name": "maxMessageSize",
                  "type": "uint32",
                  "internalType": "uint32"
                },
                {
                  "name": "executor",
                  "type": "address",
                  "internalType": "address"
                }
              ]
            }
          ]
        }
      ],
      "outputs": [],
      "stateMutability": "nonpayable"
    },
    {
      "type": "function",
      "name": "setDefaultUlnConfigs",
      "inputs": [
        {
          "name": "_params",
          "type": "tuple[]",
          "internalType": "struct SetDefaultUlnConfigParam[]",
          "components": [
            {
              "name": "eid",
              "type": "uint32",
              "internalType": "uint32"
            },
            {
              "name": "config",
              "type": "tuple",
              "internalType": "struct UlnConfig",
              "components": [
                {
                  "name": "confirmations",
                  "type": "uint64",
                  "internalType": "uint64"
                },
                {
                  "name": "requiredDVNCount",
                  "type": "uint8",
                  "internalType": "uint8"
                },
                {
                  "name": "optionalDVNCount",
                  "type": "uint8",
                  "internalType": "uint8"
                },
                {
                  "name": "optionalDVNThreshold",
                  "type": "uint8",
                  "internalType": "uint8"
                },
                {
                  "name": "requiredDVNs",
                  "type": "address[]",
                  "internalType": "address[]"
                },
                {
                  "name": "optionalDVNs",
                  "type": "address[]",
                  "internalType": "address[]"
                }
              ]
            }
          ]
        }
      ],
      "outputs": [],
      "stateMutability": "nonpayable"
    },
    {
      "type": "function",
      "name": "setTreasury",
      "inputs": [
        {
          "name": "_treasury",
          "type": "address",
          "internalType": "address"
        }
      ],
      "outputs": [],
      "stateMutability": "nonpayable"
    },
    {
      "type": "function",
      "name": "setTreasuryNativeFeeCap",
      "inputs": [
        {
          "name": "_newTreasuryNativeFeeCap",
          "type": "uint256",
          "internalType": "uint256"
        }
      ],
      "outputs": [],
      "stateMutability": "nonpayable"
    },
    {
      "type": "function",
      "name": "supportsInterface",
      "inputs": [
        {
          "name": "_interfaceId",
          "type": "bytes4",
          "internalType": "bytes4"
        }
      ],
      "outputs": [
        {
          "name": "",
          "type": "bool",
          "internalType": "bool"
        }
      ],
      "stateMutability": "view"
    },
    {
      "type": "function",
      "name": "transferOwnership",
      "inputs": [
        {
          "name": "newOwner",
          "type": "address",
          "internalType": "address"
        }
      ],
      "outputs": [],
      "stateMutability": "nonpayable"
    },
    {
      "type": "function",
      "name": "treasury",
      "inputs": [],
      "outputs": [
        {
          "name": "",
          "type": "address",
          "internalType": "address"
        }
      ],
      "stateMutability": "view"
    },
    {
      "type": "function",
      "name": "version",
      "inputs": [],
      "outputs": [
        {
          "name": "major",
          "type": "uint64",
          "internalType": "uint64"
        },
        {
          "name": "minor",
          "type": "uint8",
          "internalType": "uint8"
        },
        {
          "name": "endpointVersion",
          "type": "uint8",
          "internalType": "uint8"
        }
      ],
      "stateMutability": "pure"
    },
    {
      "type": "function",
      "name": "withdrawFee",
      "inputs": [
        {
          "name": "_to",
          "type": "address",
          "internalType": "address"
        },
        {
          "name": "_amount",
          "type": "uint256",
          "internalType": "uint256"
        }
      ],
      "outputs": [],
      "stateMutability": "nonpayable"
    },
    {
      "type": "function",
      "name": "withdrawLzTokenFee",
      "inputs": [
        {
          "name": "_lzToken",
          "type": "address",
          "internalType": "address"
        },
        {
          "name": "_to",
          "type": "address",
          "internalType": "address"
        },
        {
          "name": "_amount",
          "type": "uint256",
          "internalType": "uint256"
        }
      ],
      "outputs": [],
      "stateMutability": "nonpayable"
    },
    {
      "type": "event",
      "name": "DVNFeePaid",
      "inputs": [
        {
          "name": "requiredDVNs",
          "type": "address[]",
          "indexed": false,
          "internalType": "address[]"
        },
        {
          "name": "optionalDVNs",
          "type": "address[]",
          "indexed": false,
          "internalType": "address[]"
        },
        {
          "name": "fees",
          "type": "uint256[]",
          "indexed": false,
          "internalType": "uint256[]"
        }
      ],
      "anonymous": false
    },
    {
      "type": "event",
      "name": "DefaultExecutorConfigsSet",
      "inputs": [
        {
          "name": "params",
          "type": "tuple[]",
          "indexed": false,
          "internalType": "struct SetDefaultExecutorConfigParam[]",
          "components": [
            {
              "name": "eid",
              "type": "uint32",
              "internalType": "uint32"
            },
            {
              "name": "config",
              "type": "tuple",
              "internalType": "struct ExecutorConfig",
              "components": [
                {
                  "name": "maxMessageSize",
                  "type": "uint32",
                  "internalType": "uint32"
                },
                {
                  "name": "executor",
                  "type": "address",
                  "internalType": "address"
                }
              ]
            }
          ]
        }
      ],
      "anonymous": false
    },
    {
      "type": "event",
      "name": "DefaultUlnConfigsSet",
      "inputs": [
        {
          "name": "params",
          "type": "tuple[]",
          "indexed": false,
          "internalType": "struct SetDefaultUlnConfigParam[]",
          "components": [
            {
              "name": "eid",
              "type": "uint32",
              "internalType": "uint32"
            },
            {
              "name": "config",
              "type": "tuple",
              "internalType": "struct UlnConfig",
              "components": [
                {
                  "name": "confirmations",
                  "type": "uint64",
                  "internalType": "uint64"
                },
                {
                  "name": "requiredDVNCount",
                  "type": "uint8",
                  "internalType": "uint8"
                },
                {
                  "name": "optionalDVNCount",
                  "type": "uint8",
                  "internalType": "uint8"
                },
                {
                  "name": "optionalDVNThreshold",
                  "type": "uint8",
                  "internalType": "uint8"
                },
                {
                  "name": "requiredDVNs",
                  "type": "address[]",
                  "internalType": "address[]"
                },
                {
                  "name": "optionalDVNs",
                  "type": "address[]",
                  "internalType": "address[]"
                }
              ]
            }
          ]
        }
      ],
      "anonymous": false
    },
    {
      "type": "event",
      "name": "ExecutorConfigSet",
      "inputs": [
        {
          "name": "oapp",
          "type": "address",
          "indexed": false,
          "internalType": "address"
        },
        {
          "name": "eid",
          "type": "uint32",
          "indexed": false,
          "internalType": "uint32"
        },
        {
          "name": "config",
          "type": "tuple",
          "indexed": false,
          "internalType": "struct ExecutorConfig",
          "components": [
            {
              "name": "maxMessageSize",
              "type": "uint32",
              "internalType": "uint32"
            },
            {
              "name": "executor",
              "type": "address",
              "internalType": "address"
            }
          ]
        }
      ],
      "anonymous": false
    },
    {
      "type": "event",
      "name": "ExecutorFeePaid",
      "inputs": [
        {
          "name": "executor",
          "type": "address",
          "indexed": false,
          "internalType": "address"
        },
        {
          "name": "fee",
          "type": "uint256",
          "indexed": false,
          "internalType": "uint256"
        }
      ],
      "anonymous": false
    },
    {
      "type": "event",
      "name": "LzTokenFeeWithdrawn",
      "inputs": [
        {
          "name": "lzToken",
          "type": "address",
          "indexed": false,
          "internalType": "address"
        },
        {
          "name": "receiver",
          "type": "address",
          "indexed": false,
          "internalType": "address"
        },
        {
          "name": "amount",
          "type": "uint256",
          "indexed": false,
          "internalType": "uint256"
        }
      ],
      "anonymous": false
    },
    {
      "type": "event",
      "name": "NativeFeeWithdrawn",
      "inputs": [
        {
          "name": "worker",
          "type": "address",
          "indexed": false,
          "internalType": "address"
        },
        {
          "name": "receiver",
          "type": "address",
          "indexed": false,
          "internalType": "address"
        },
        {
          "name": "amount",
          "type": "uint256",
          "indexed": false,
          "internalType": "uint256"
        }
      ],
      "anonymous": false
    },
    {
      "type": "event",
      "name": "OwnershipTransferred",
      "inputs": [
        {
          "name": "previousOwner",
          "type": "address",
          "indexed": true,
          "internalType": "address"
        },
        {
          "name": "newOwner",
          "type": "address",
          "indexed": true,
          "internalType": "address"
        }
      ],
      "anonymous": false
    },
    {
      "type": "event",
      "name": "TreasuryNativeFeeCapSet",
      "inputs": [
        {
          "name": "newTreasuryNativeFeeCap",
          "type": "uint256",
          "indexed": false,
          "internalType": "uint256"
        }
      ],
      "anonymous": false
    },
    {
      "type": "event",
      "name": "TreasurySet",
      "inputs": [
        {
          "name": "treasury",
          "type": "address",
          "indexed": false,
          "internalType": "address"
        }
      ],
      "anonymous": false
    },
    {
      "type": "event",
      "name": "UlnConfigSet",
      "inputs": [
        {
          "name": "oapp",
          "type": "address",
          "indexed": false,
          "internalType": "address"
        },
        {
          "name": "eid",
          "type": "uint32",
          "indexed": false,
          "internalType": "uint32"
        },
        {
          "name": "config",
          "type": "tuple",
          "indexed": false,
          "internalType": "struct UlnConfig",
          "components": [
            {
              "name": "confirmations",
              "type": "uint64",
              "internalType": "uint64"
            },
            {
              "name": "requiredDVNCount",
              "type": "uint8",
              "internalType": "uint8"
            },
            {
              "name": "optionalDVNCount",
              "type": "uint8",
              "internalType": "uint8"
            },
            {
              "name": "optionalDVNThreshold",
              "type": "uint8",
              "internalType": "uint8"
            },
            {
              "name": "requiredDVNs",
              "type": "address[]",
              "internalType": "address[]"
            },
            {
              "name": "optionalDVNs",
              "type": "address[]",
              "internalType": "address[]"
            }
          ]
        }
      ],
      "anonymous": false
    },
    {
      "type": "error",
      "name": "DVN_InvalidDVNIdx",
      "inputs": []
    },
    {
      "type": "error",
      "name": "DVN_InvalidDVNOptions",
      "inputs": [
        {
          "name": "cursor",
          "type": "uint256",
          "internalType": "uint256"
        }
      ]
    },
    {
      "type": "error",
      "name": "LZ_MessageLib_CannotWithdrawAltToken",
      "inputs": []
    },
    {
      "type": "error",
      "name": "LZ_MessageLib_InvalidAmount",
      "inputs": [
        {
          "name": "requested",
          "type": "uint256",
          "internalType": "uint256"
        },
        {
          "name": "available",
          "type": "uint256",
          "internalType": "uint256"
        }
      ]
    },
    {
      "type": "error",
      "name": "LZ_MessageLib_InvalidExecutor",
      "inputs": []
    },
    {
      "type": "error",
      "name": "LZ_MessageLib_InvalidMessageSize",
      "inputs": [
        {
          "name": "actual",
          "type": "uint256",
          "internalType": "uint256"
        },
        {
          "name": "max",
          "type": "uint256",
          "internalType": "uint256"
        }
      ]
    },
    {
      "type": "error",
      "name": "LZ_MessageLib_NotTreasury",
      "inputs": []
    },
    {
      "type": "error",
      "name": "LZ_MessageLib_OnlyEndpoint",
      "inputs": []
    },
    {
      "type": "error",
      "name": "LZ_MessageLib_TransferFailed",
      "inputs": []
    },
    {
      "type": "error",
      "name": "LZ_MessageLib_ZeroMessageSize",
      "inputs": []
    },
    {
      "type": "error",
      "name": "LZ_ULN_AtLeastOneDVN",
      "inputs": []
    },
    {
      "type": "error",
      "name": "LZ_ULN_InvalidConfigType",
      "inputs": [
        {
          "name": "configType",
          "type": "uint32",
          "internalType": "uint32"
        }
      ]
    },
    {
      "type": "error",
      "name": "LZ_ULN_InvalidConfirmations",
      "inputs": []
    },
    {
      "type": "error",
      "name": "LZ_ULN_InvalidLegacyType1Option",
      "inputs": []
    },
    {
      "type": "error",
      "name": "LZ_ULN_InvalidLegacyType2Option",
      "inputs": []
    },
    {
      "type": "error",
      "name": "LZ_ULN_InvalidOptionalDVNCount",
      "inputs": []
    },
    {
      "type": "error",
      "name": "LZ_ULN_InvalidOptionalDVNThreshold",
      "inputs": []
    },
    {
      "type": "error",
      "name": "LZ_ULN_InvalidRequiredDVNCount",
      "inputs": []
    },
    {
      "type": "error",
      "name": "LZ_ULN_InvalidWorkerId",
      "inputs": [
        {
          "name": "workerId",
          "type": "uint8",
          "internalType": "uint8"
        }
      ]
    },
    {
      "type": "error",
      "name": "LZ_ULN_InvalidWorkerOptions",
      "inputs": [
        {
          "name": "cursor",
          "type": "uint256",
          "internalType": "uint256"
        }
      ]
    },
    {
      "type": "error",
      "name": "LZ_ULN_Unsorted",
      "inputs": []
    },
    {
      "type": "error",
      "name": "LZ_ULN_UnsupportedEid",
      "inputs": [
        {
          "name": "eid",
          "type": "uint32",
          "internalType": "uint32"
        }
      ]
    },
    {
      "type": "error",
      "name": "LZ_ULN_UnsupportedOptionType",
      "inputs": [
        {
          "name": "optionType",
          "type": "uint16",
          "internalType": "uint16"
        }
      ]
    },
    {
      "type": "error",
      "name": "Transfer_NativeFailed",
      "inputs": [
        {
          "name": "_to",
          "type": "address",
          "internalType": "address"
        },
        {
          "name": "_value",
          "type": "uint256",
          "internalType": "uint256"
        }
      ]
    },
    {
      "type": "error",
      "name": "Transfer_ToAddressIsZero",
      "inputs": []
    }
  ],
  "bytecode": {
    "object": "0x60e06040523480156200001157600080fd5b5060405162005c5938038062005c59833981016040819052620000349162000129565b82828282836001600160a01b031663416ecebf6040518163ffffffff1660e01b8152600401602060405180830381865afa15801562000077573d6000803e3d6000fd5b505050506040513d601f19601f820116820180604052508101906200009d91906200016e565b6001600160a01b03821660805263ffffffff811660a0528383620000c133620000d9565b60c091909152600255506200019d9650505050505050565b600080546001600160a01b038381166001600160a01b0319831681178455604051919092169283917f8be0079c531659141344cd1fd0a4f28419497f9722a3daafe3b4186f6b6457e09190a35050565b6000806000606084860312156200013f57600080fd5b83516001600160a01b03811681146200015757600080fd5b602085015160409095015190969495509392505050565b6000602082840312156200018157600080fd5b815163ffffffff811681146200019657600080fd5b9392505050565b60805160a05160c051615a73620001e66000396000818161205a01526128fe015260005050600081816107ea0152818161092f01528181610e9101526117880152615a736000f3fe6080604052600436106101845760003560e01c806361d027b3116100d6578063d15b0d491161007f578063f2fde38b11610059578063f2fde38b14610513578063faaebd2114610533578063fd9be5221461056e57600080fd5b8063d15b0d49146104a6578063d80e9bd9146104c6578063f0f44260146104f357600080fd5b80638da5cb5b116100b05780638da5cb5b1461042e5780639c33abf714610459578063c14c43491461048657600080fd5b806361d027b3146103a75780636750cd4c146103f9578063715018a61461041957600080fd5b806329460b0b1161013857806343ea4fa91161011257806343ea4fa9146102cb5780634d963200146102eb57806354fd4d501461037a57600080fd5b806329460b0b1461025057806339e3f938146102705780634389e58f1461029d57600080fd5b80631881d94d116101695780631881d94d146101f2578063200175f71461020e57806320efd7221461023057600080fd5b806301ffc9a714610190578063188183f4146101c557600080fd5b3661018b57005b600080fd5b34801561019c57600080fd5b506101b06101ab366004614588565b61058e565b60405190151581526020015b60405180910390f35b3480156101d157600080fd5b506101e56101e0366004614619565b610673565b6040516101bc9190614652565b3480156101fe57600080fd5b5060006040516101bc9190614685565b34801561021a57600080fd5b5061022e6102293660046146c6565b610780565b005b34801561023c57600080fd5b5061022e61024b36600461474c565b61092d565b34801561025c57600080fd5b5061022e61026b3660046147a1565b610aeb565b34801561027c57600080fd5b5061029061028b366004614619565b610cd8565b6040516101bc91906148a6565b3480156102a957600080fd5b506102bd6102b83660046148d2565b610e79565b6040516101bc9291906149f0565b3480156102d757600080fd5b506102906102e6366004614619565b610f73565b3480156102f757600080fd5b50610349610306366004614619565b600460209081526000928352604080842090915290825290205463ffffffff811690640100000000900473ffffffffffffffffffffffffffffffffffffffff1682565b6040805163ffffffff909316835273ffffffffffffffffffffffffffffffffffffffff9091166020830152016101bc565b34801561038657600080fd5b506040805160038152600060208201526002918101919091526060016101bc565b3480156103b357600080fd5b506003546103d49073ffffffffffffffffffffffffffffffffffffffff1681565b60405173ffffffffffffffffffffffffffffffffffffffff90911681526020016101bc565b34801561040557600080fd5b506101b0610414366004614a14565b61132d565b34801561042557600080fd5b5061022e611338565b34801561043a57600080fd5b5060005473ffffffffffffffffffffffffffffffffffffffff166103d4565b34801561046557600080fd5b50610479610474366004614a31565b61134c565b6040516101bc9190614a7c565b34801561049257600080fd5b5061022e6104a1366004614a8f565b611433565b3480156104b257600080fd5b5061022e6104c1366004614b04565b6115b5565b3480156104d257600080fd5b506104e66104e13660046148d2565b611643565b6040516101bc9190614b1d565b3480156104ff57600080fd5b5061022e61050e366004614b34565b6116b3565b34801561051f57600080fd5b5061022e61052e366004614b34565b6116c7565b34801561053f57600080fd5b5061056061054e366004614b34565b60056020526000908152604090205481565b6040519081526020016101bc565b34801561057a57600080fd5b5061022e610589366004614b51565b61177b565b60007fffffffff0000000000000000000000000000000000000000000000000000000082167f97f0258400000000000000000000000000000000000000000000000000000000148061062157507fffffffff0000000000000000000000000000000000000000000000000000000082167fb6e9ace300000000000000000000000000000000000000000000000000000000145b8061066d57507f01ffc9a7000000000000000000000000000000000000000000000000000000007fffffffff000000000000000000000000000000000000000000000000000000008316145b92915050565b604080518082019091526000808252602082015263ffffffff80831660008181527f17ef568e3e12ab5b9c7254a8d58478811de00f9e6eb34345acd53bf8fd09d3ec6020908152604080832073ffffffffffffffffffffffffffffffffffffffff8916845260048352818420948452939091528120805492939092169081900361070457825463ffffffff16610706565b805b63ffffffff1684528154640100000000900473ffffffffffffffffffffffffffffffffffffffff1680610758578354640100000000900473ffffffffffffffffffffffffffffffffffffffff1661075a565b805b73ffffffffffffffffffffffffffffffffffffffff166020860152509295945050505050565b60035473ffffffffffffffffffffffffffffffffffffffff1633146107d1576040517f885762a700000000000000000000000000000000000000000000000000000000815260040160405180910390fd5b8273ffffffffffffffffffffffffffffffffffffffff167f000000000000000000000000000000000000000000000000000000000000000073ffffffffffffffffffffffffffffffffffffffff1663e1758bd86040518163ffffffff1660e01b8152600401602060405180830381865afa158015610853573d6000803e3d6000fd5b505050506040513d601f19601f820116820180604052508101906108779190614b7d565b73ffffffffffffffffffffffffffffffffffffffff16036108c4576040517fe695d04400000000000000000000000000000000000000000000000000000000815260040160405180910390fd5b6108cf838383611875565b6040805173ffffffffffffffffffffffffffffffffffffffff8086168252841660208201529081018290527fe081464b7278501267de69fa85b7b9560b0ae05d5fbfaab9b1986c70356e2efe906060015b60405180910390a1505050565b7f000000000000000000000000000000000000000000000000000000000000000073ffffffffffffffffffffffffffffffffffffffff16331461099c576040517f467409c300000000000000000000000000000000000000000000000000000000815260040160405180910390fd5b60005b81811015610ae557368383838181106109ba576109ba614b9a565b90506020028101906109cc9190614bc9565b90506109e36109de6020830183614a14565b6118e8565b60016109f56040830160208401614a14565b63ffffffff1603610a3557610a30610a106020830183614a14565b86610a1e6040850185614c07565b810190610a2b9190614d36565b61192f565b610ad2565b6002610a476040830160208401614a14565b63ffffffff1603610a8257610a30610a626020830183614a14565b86610a706040850185614c07565b810190610a7d9190614eef565b6119dc565b610a926040820160208301614a14565b6040517fba97c1fa00000000000000000000000000000000000000000000000000000000815263ffffffff90911660048201526024015b60405180910390fd5b5080610add81614f53565b91505061099f565b50505050565b610af3611a25565b60005b81811015610c9a5736838383818110610b1157610b11614b9a565b9050602002810190610b239190614f8b565b905060ff610b346020830183614fbf565b610b45906040810190602001614ff3565b60ff1603610b7f576040517f83aa17da00000000000000000000000000000000000000000000000000000000815260040160405180910390fd5b60ff610b8e6020830183614fbf565b610b9f906060810190604001614ff3565b60ff1603610bd9576040517f4221136600000000000000000000000000000000000000000000000000000000815260040160405180910390fd5b67ffffffffffffffff610bef6020830183614fbf565b610bfd90602081019061500e565b67ffffffffffffffff1603610c3e576040517f503667ae00000000000000000000000000000000000000000000000000000000815260040160405180910390fd5b610c5c610c4e6020830183614fbf565b610c5790615029565b611aa6565b610c896000610c6e6020840184614a14565b610c7b6020850185614fbf565b610c8490615029565b611af7565b50610c9381614f53565b9050610af6565b507faaf3aaa0c11056e86ac56eb653e25b005ca1a7d4dcd21ba24647f7ab63f3b5608282604051610ccc9291906150e7565b60405180910390a15050565b6040805160c0810182526000808252602082018190529181018290526060808201929092526080810182905260a081019190915273ffffffffffffffffffffffffffffffffffffffff8316600090815260016020818152604080842063ffffffff87168552825292839020835160c081018552815467ffffffffffffffff8116825260ff680100000000000000008204811683860152690100000000000000000082048116838801526a01000000000000000000009091041660608201529281018054855181850281018501909652808652939491936080860193830182828015610df957602002820191906000526020600020905b815473ffffffffffffffffffffffffffffffffffffffff168152600190910190602001808311610dce575b5050505050815260200160028201805480602002602001604051908101604052809291908181526020018280548015610e6857602002820191906000526020600020905b815473ffffffffffffffffffffffffffffffffffffffff168152600190910190602001808311610e3d575b505050505081525050905092915050565b604080518082019091526000808252602082015260607f000000000000000000000000000000000000000000000000000000000000000073ffffffffffffffffffffffffffffffffffffffff163314610efe576040517f467409c300000000000000000000000000000000000000000000000000000000815260040160405180910390fd5b600080610f0c888888611e8b565b9092509050600080610f3e610f2760608c0160408d01614b34565b610f3760808d0160608e01614a14565b858a611f58565b9092509050610f4d8284615287565b604080518082019091529081526020810191909152945091925050505b94509492505050565b6040805160c0810182526000808252602080830182905282840182905260608084018390526080840181905260a084015263ffffffff85168083527fa6eef7e35abe7026729641147f7915573c7e97b47efa546f5f6e3230263bcb49825284832073ffffffffffffffffffffffffffffffffffffffff88168452600183528584209184529152929020805491929167ffffffffffffffff168061102357825467ffffffffffffffff168452611042565b67ffffffffffffffff818116146110425767ffffffffffffffff811684525b815468010000000000000000900460ff166110f857825468010000000000000000900460ff16156110f357826001018054806020026020016040519081016040528092919081815260200182805480156110d257602002820191906000526020600020905b815473ffffffffffffffffffffffffffffffffffffffff1681526001909101906020018083116110a7575b50505050506080850152825468010000000000000000900460ff1660208501525b611196565b815468010000000000000000900460ff90811614611196578160010180548060200260200160405190810160405280929190818152602001828054801561117557602002820191906000526020600020905b815473ffffffffffffffffffffffffffffffffffffffff16815260019091019060200180831161114a575b50505050506080850152815468010000000000000000900460ff1660208501525b81546901000000000000000000900460ff166112655782546901000000000000000000900460ff1615611260578260020180548060200260200160405190810160405280929190818152602001828054801561122857602002820191906000526020600020905b815473ffffffffffffffffffffffffffffffffffffffff1681526001909101906020018083116111fd575b505050505060a0850152825460ff69010000000000000000008204811660408701526a01000000000000000000009091041660608501525b61131b565b81546901000000000000000000900460ff9081161461131b57816002018054806020026020016040519081016040528092919081815260200182805480156112e357602002820191906000526020600020905b815473ffffffffffffffffffffffffffffffffffffffff1681526001909101906020018083116112b8575b505050505060a0850152815460ff69010000000000000000008204811660408701526a01000000000000000000009091041660608501525b61132484611aa6565b50505092915050565b600061066d826120e6565b611340611a25565b61134a600061214d565b565b60607fffffffffffffffffffffffffffffffffffffffffffffffffffffffffffffffff63ffffffff8316016113ab576113858385610673565b6040516020016113959190614652565b604051602081830303815290604052905061142c565b7ffffffffffffffffffffffffffffffffffffffffffffffffffffffffffffffffe63ffffffff8316016113f2576113e28385610f73565b60405160200161139591906148a6565b6040517fba97c1fa00000000000000000000000000000000000000000000000000000000815263ffffffff83166004820152602401610ac9565b9392505050565b61143b611a25565b60005b81811015611583573683838381811061145957611459614b9a565b60609081029290920192506000916114779150830160408401614b34565b73ffffffffffffffffffffffffffffffffffffffff16036114c4576040517f20e9d05a00000000000000000000000000000000000000000000000000000000815260040160405180910390fd5b6114d46040820160208301614a14565b63ffffffff16600003611513576040517f49cfac4300000000000000000000000000000000000000000000000000000000815260040160405180910390fd5b6000808052600460209081528201907f17ef568e3e12ab5b9c7254a8d58478811de00f9e6eb34345acd53bf8fd09d3ec9061154e8385614a14565b63ffffffff168152602081019190915260400160002061156e828261529a565b905050508061157c90614f53565b905061143e565b507f2b001e1c6683bf79cc52891bd7215b204c787d18134fc7f3d21b4f32a49e47de8282604051610ccc929190615332565b6115bd611a25565b600254811115611607576002546040517f34084fb8000000000000000000000000000000000000000000000000000000008152610ac9918391600401918252602082015260400190565b60028190556040518181527f491ff913b5444f4136b0d4075f020cfe3a5f60de926ec0b091612401a22b7842906020015b60405180910390a150565b604080518082019091526000808252602082015260008061169461166d6060890160408a01614b34565b61167d60808a0160608b01614a14565b61168a60c08b018b614c07565b9050878a8a6121c2565b604080518082019091529182526020820152925050505b949350505050565b6116bb611a25565b6116c4816122c8565b50565b6116cf611a25565b73ffffffffffffffffffffffffffffffffffffffff8116611772576040517f08c379a000000000000000000000000000000000000000000000000000000000815260206004820152602660248201527f4f776e61626c653a206e6577206f776e657220697320746865207a65726f206160448201527f64647265737300000000000000000000000000000000000000000000000000006064820152608401610ac9565b6116c48161214d565b6117848161233b565b60007f000000000000000000000000000000000000000000000000000000000000000073ffffffffffffffffffffffffffffffffffffffff1663e1758bd86040518163ffffffff1660e01b8152600401602060405180830381865afa1580156117f1573d6000803e3d6000fd5b505050506040513d601f19601f820116820180604052508101906118159190614b7d565b90506118228184846123a5565b6040805133815273ffffffffffffffffffffffffffffffffffffffff851660208201529081018390527f820b7fd51bf79c54350bab98400651b3314ff6e79b33528821871d94a666988390606001610920565b73ffffffffffffffffffffffffffffffffffffffff82166118c2576040517f6b7a931000000000000000000000000000000000000000000000000000000000815260040160405180910390fd5b6118e373ffffffffffffffffffffffffffffffffffffffff841683836123d5565b505050565b6118f1816120e6565b6116c4576040517ff0c10d0400000000000000000000000000000000000000000000000000000000815263ffffffff82166004820152602401610ac9565b73ffffffffffffffffffffffffffffffffffffffff808316600090815260046020908152604080832063ffffffff8089168552908352928190208551815493870151909516640100000000027fffffffffffffffff0000000000000000000000000000000000000000000000009093169490931693909317179055517f779cb2dd9d2bb1be1737d05435d744facbfb84a2a4912e21379d39beddcdc80590610920908490869085906153bf565b6119e7828483611af7565b6119f18284610f73565b507f82118522aa536ac0e96cc5c689407ae42b89d592aa133890a01f1509842f50818284836040516109209392919061541b565b60005473ffffffffffffffffffffffffffffffffffffffff16331461134a576040517f08c379a000000000000000000000000000000000000000000000000000000000815260206004820181905260248201527f4f776e61626c653a2063616c6c6572206973206e6f7420746865206f776e65726044820152606401610ac9565b602081015160ff16158015611ac05750606081015160ff16155b156116c4576040517fce2c375100000000000000000000000000000000000000000000000000000000815260040160405180910390fd5b602081015160ff9081161480611b125750602081015160ff16155b15611b595760808101515115611b54576040517f83aa17da00000000000000000000000000000000000000000000000000000000815260040160405180910390fd5b611bd8565b806020015160ff16816080015151141580611b9457506002611b7d600160ff615456565b611b87919061546f565b60ff16816020015160ff16115b15611bcb576040517f83aa17da00000000000000000000000000000000000000000000000000000000815260040160405180910390fd5b611bd88160800151612462565b604081015160ff9081161480611bf35750604081015160ff16155b15611c795760a08101515115611c35576040517f4221136600000000000000000000000000000000000000000000000000000000815260040160405180910390fd5b606081015160ff1615611c74576040517f38682fa900000000000000000000000000000000000000000000000000000000815260040160405180910390fd5b611d50565b806040015160ff168160a0015151141580611cb457506002611c9d600160ff615456565b611ca7919061546f565b60ff16816040015160ff16115b15611ceb576040517f4221136600000000000000000000000000000000000000000000000000000000815260040160405180910390fd5b606081015160ff161580611d0c5750806040015160ff16816060015160ff16115b15611d43576040517f38682fa900000000000000000000000000000000000000000000000000000000815260040160405180910390fd5b611d508160a00151612462565b73ffffffffffffffffffffffffffffffffffffffff8316600090815260016020818152604080842063ffffffff87168552825292839020845181548684015195870151606088015167ffffffffffffffff9093167fffffffffffffffffffffffffffffffffffffffffffffff000000000000000000909216919091176801000000000000000060ff97881602177fffffffffffffffffffffffffffffffffffffffffff0000ffffffffffffffffff166901000000000000000000918716919091027fffffffffffffffffffffffffffffffffffffffffff00ffffffffffffffffffff16176a0100000000000000000000959091169490940293909317835560808401518051859493611e67939085019201906144f2565b5060a08201518051611e839160028401916020909101906144f2565b505050505050565b60606000806000611e9c8686612506565b90925090506000611ec6611eb660608a0160408b01614b34565b6101e060808b0160608c01614a14565b90506000611ed760c08a018a614c07565b90509050611eef81836000015163ffffffff1661251f565b6020820151611f1f90611f0860808c0160608d01614a14565b611f1860608d0160408e01614b34565b8488612567565b611f299086615287565b9450600080611f388b866126a0565b9092509050611f478288615287565b909b909a5098505050505050505050565b600354600090819073ffffffffffffffffffffffffffffffffffffffff1615610f6a5760405173ffffffffffffffffffffffffffffffffffffffff8716602482015263ffffffff8616604482015260648101859052831515608482015260009060a401604080517fffffffffffffffffffffffffffffffffffffffffffffffffffffffffffffffe0818403018152919052602080820180517bffffffffffffffffffffffffffffffffffffffffffffffffffffffff167fd51c54860000000000000000000000000000000000000000000000000000000017905260035491925060009182916120829173ffffffffffffffffffffffffffffffffffffffff16907f0000000000000000000000000000000000000000000000000000000000000000908490876126c3565b9150915061209287878484612774565b909550935084156120da5760035473ffffffffffffffffffffffffffffffffffffffff16600090815260056020526040812080548792906120d4908490615287565b90915550505b50505094509492505050565b63ffffffff811660009081527fa6eef7e35abe7026729641147f7915573c7e97b47efa546f5f6e3230263bcb4960205260408120805468010000000000000000900460ff1615158061142c5750546a0100000000000000000000900460ff16151592915050565b6000805473ffffffffffffffffffffffffffffffffffffffff8381167fffffffffffffffffffffffff0000000000000000000000000000000000000000831681178455604051919092169283917f8be0079c531659141344cd1fd0a4f28419497f9722a3daafe3b4186f6b6457e09190a35050565b6000806000806121d28686612506565b9150915060006121e38b8b846127ef565b905060006121f18c8c610673565b90506122078a826000015163ffffffff1661251f565b806020015173ffffffffffffffffffffffffffffffffffffffff1663709eb6648c8e8d886040518563ffffffff1660e01b815260040161224a94939291906154b8565b602060405180830381865afa158015612267573d6000803e3d6000fd5b505050506040513d601f19601f8201168201806040525081019061228b9190615503565b6122959083615287565b91506000806122a68e8e868e6127fc565b90925090506122b58285615287565b9e909d509b505050505050505050505050565b600380547fffffffffffffffffffffffff00000000000000000000000000000000000000001673ffffffffffffffffffffffffffffffffffffffff83169081179091556040519081527f3c864541ef71378c6229510ed90f376565ee42d9c5e0904a984a9e863e6db44f90602001611638565b336000908152600560205260409020548082111561238f576040517f34084fb80000000000000000000000000000000000000000000000000000000081526004810183905260248101829052604401610ac9565b3360009081526005602052604090209190039055565b73ffffffffffffffffffffffffffffffffffffffff83166123ca576118e38282612940565b6118e3838383611875565b6040805173ffffffffffffffffffffffffffffffffffffffff8416602482015260448082018490528251808303909101815260649091019091526020810180517bffffffffffffffffffffffffffffffffffffffffffffffffffffffff167fa9059cbb000000000000000000000000000000000000000000000000000000001790526118e3908490612a46565b6000805b82518110156118e357600083828151811061248357612483614b9a565b602002602001015190508273ffffffffffffffffffffffffffffffffffffffff168173ffffffffffffffffffffffffffffffffffffffff16116124f2576040517f447516e100000000000000000000000000000000000000000000000000000000815260040160405180910390fd5b9150806124fe81614f53565b915050612466565b6060806125138484612b55565b915091505b9250929050565b80821115612563576040517fc667af3e0000000000000000000000000000000000000000000000000000000081526004810183905260248101829052604401610ac9565b5050565b6040517f717e8a4200000000000000000000000000000000000000000000000000000000815260009073ffffffffffffffffffffffffffffffffffffffff87169063717e8a42906125c29088908890889088906004016154b8565b6020604051808303816000875af11580156125e1573d6000803e3d6000fd5b505050506040513d601f19601f820116820180604052508101906126059190615503565b905080156126485773ffffffffffffffffffffffffffffffffffffffff861660009081526005602052604081208054839290612642908490615287565b90915550505b6040805173ffffffffffffffffffffffffffffffffffffffff88168152602081018390527f61ed099e74a97a1d7f8bb0952a88ca8b7b8ebd00c126ea04671f92a81213318a910160405180910390a195945050505050565b600060606126b860056126b2866155aa565b85612c42565b909590945092505050565b60006060863b8083036126ea5760408051600080825260208201909252925092505061276a565b60008060008761ffff1667ffffffffffffffff81111561270c5761270c614c6c565b6040519080825280601f01601f191660200182016040528015612736576020820181803683370190505b509050600080885160208a018c8f8ff191503d925087831115612757578792505b828152826000602083013e909450925050505b9550959350505050565b600080831580612785575082516020115b1561279557506000905080610f6a565b6000838060200190518101906127ab9190615503565b905085156127bb578091506127e5565b600060025488116127ce576002546127d0565b875b90508082116127df57816127e1565b805b9350505b5094509492505050565b60006116ab848484612d9e565b600354600090819073ffffffffffffffffffffffffffffffffffffffff1615610f6a5760405173ffffffffffffffffffffffffffffffffffffffff8716602482015263ffffffff8616604482015260648101859052831515608482015260009060a401604080517fffffffffffffffffffffffffffffffffffffffffffffffffffffffffffffffe0818403018152919052602080820180517bffffffffffffffffffffffffffffffffffffffffffffffffffffffff167fd42442210000000000000000000000000000000000000000000000000000000017905260035491925060009182916129249173ffffffffffffffffffffffffffffffffffffffff16907f00000000000000000000000000000000000000000000000000000000000000009086612e18565b9150915061293487878484612774565b94509450505050610f6a565b73ffffffffffffffffffffffffffffffffffffffff821661298d576040517f6b7a931000000000000000000000000000000000000000000000000000000000815260040160405180910390fd5b60008273ffffffffffffffffffffffffffffffffffffffff168260405160006040518083038185875af1925050503d80600081146129e7576040519150601f19603f3d011682016040523d82523d6000602084013e6129ec565b606091505b50509050806118e3576040517f465bc83400000000000000000000000000000000000000000000000000000000815273ffffffffffffffffffffffffffffffffffffffff8416600482015260248101839052604401610ac9565b6000612aa8826040518060400160405280602081526020017f5361666545524332303a206c6f772d6c6576656c2063616c6c206661696c65648152508573ffffffffffffffffffffffffffffffffffffffff16612ec59092919063ffffffff16565b9050805160001480612ac9575080806020019051810190612ac99190615648565b6118e3576040517f08c379a000000000000000000000000000000000000000000000000000000000815260206004820152602a60248201527f5361666545524332303a204552433230206f7065726174696f6e20646964206e60448201527f6f742073756363656564000000000000000000000000000000000000000000006064820152608401610ac9565b606080600080612b658686612ed4565b915091508051600003612bbd57604080516000808252602082019092528391612bb1565b604080518082019091526000815260606020820152815260200190600190039081612b895790505b50935093505050612518565b604080516001808252818301909252600091816020015b604080518082019091526000815260606020820152815260200190600190039081612bd45790505090506040518060400160405280600260ff1681526020018381525081600081518110612c2a57612c2a614b9a565b60209081029190910101529196919550909350505050565b600060606000612c5185613115565b90506000612c5e866131fb565b805160208201206060880151604089015192935090916000612c808284610f73565b905060008951600014612cb15789600081518110612ca057612ca0614b9a565b602002602001015160200151612cc2565b604051806020016040528060008152505b90506060612d228d846040518060a001604052808963ffffffff1681526020018c81526020018a8152602001876000015167ffffffffffffffff1681526020018873ffffffffffffffffffffffffffffffffffffffff1681525085613218565b604051919b509150612d3a9089908990602001615665565b60405160208183030381529060405298507f07ea52d82345d6e838192107d8fd7123d9c2ec8e916cd0aad13fd2b60db2464483608001518460a0015183604051612d8693929190615694565b60405180910390a15050505050505050935093915050565b600080612dab8585610f73565b905060008351600014612ddc5783600081518110612dcb57612dcb614b9a565b602002602001015160200151612ded565b604051806020016040528060008152505b9050600080612dfb83613515565b91509150612e0c84888a85856137b9565b98975050505050505050565b60006060853b808303612e3f57604080516000808252602082019092529250925050610f6a565b60008060008761ffff1667ffffffffffffffff811115612e6157612e61614c6c565b6040519080825280601f01601f191660200182016040528015612e8b576020820181803683370190505b509050600080885160208a018d8dfa91503d925087831115612eab578792505b828152826000602083013e90999098509650505050505050565b60606116ab8484600085613985565b6060806002831015612f15576040517f6592671c00000000000000000000000000000000000000000000000000000000815260006004820152602401610ac9565b6000612f2460028286886156ef565b612f2d91615719565b60f01c905060027ffffffffffffffffffffffffffffffffffffffffffffffffffffffffffffffffd82016130fe578060005b8683101561308a576000612f7860018501858a8c6156ef565b612f8191615761565b60f81c90506000819003612fc4576040517f6780cfaf00000000000000000000000000000000000000000000000000000000815260006004820152602401610ac9565b8160ff16600003612fd757809150613014565b8160ff168160ff161461301457366000612ff386868c8e6156ef565b915091506130048989868585613a9e565b9099509750859450919250829150505b600184019360009061302b90600301868b8d6156ef565b61303491615719565b60f01c90506000819003613077576040517f6592671c00000000000000000000000000000000000000000000000000000000815260048101869052602401610ac9565b8060020161ffff16850194505050612f5f565b8287146130c6576040517f6592671c00000000000000000000000000000000000000000000000000000000815260048101849052602401610ac9565b60028711156130f7573660006130de85858b8d6156ef565b915091506130ef8888858585613a9e565b909850965050505b505061310c565b613109828787613c13565b93505b50509250929050565b8051602080830151604080850151606080870151608088015193517f01000000000000000000000000000000000000000000000000000000000000009681019690965260c09690961b7fffffffffffffffff00000000000000000000000000000000000000000000000016602186015260e093841b7fffffffff00000000000000000000000000000000000000000000000000000000908116602987015273ffffffffffffffffffffffffffffffffffffffff909216602d8601529490921b909116604d83015260518201526071015b6040516020818303038152906040529050919050565b60608160a001518260c001516040516020016131e59291906157a7565b6000606060008061322885613515565b9150915060008760400151886020015161324291906157cd565b90508060ff1667ffffffffffffffff81111561326057613260614c6c565b604051908082528060200260200182016040528015613289578160200160208202803683370190505b50935060005b8160ff168160ff161015613508576000896020015160ff168260ff16106132e45760a08a015160208b01516132c49084615456565b60ff16815181106132d7576132d7614b9a565b6020026020010151613306565b89608001518260ff16815181106132fd576132fd614b9a565b60200260200101515b60408051602081019091526000808252919250905b855181101561337b578360ff1686828151811061333a5761333a614b9a565b602002602001015160ff160361336b5786818151811061335c5761335c614b9a565b6020026020010151915061337b565b61337481614f53565b905061331b565b506040517f95d376d700000000000000000000000000000000000000000000000000000000815273ffffffffffffffffffffffffffffffffffffffff8316906395d376d7906133d0908d9085906004016157e6565b6020604051808303816000875af11580156133ef573d6000803e3d6000fd5b505050506040513d601f19601f820116820180604052508101906134139190615503565b878460ff168151811061342857613428614b9a565b6020026020010181815250506000878460ff168151811061344b5761344b614b9a565b602002602001015111156134f557868360ff168151811061346e5761346e614b9a565b60200260200101518c60008473ffffffffffffffffffffffffffffffffffffffff1673ffffffffffffffffffffffffffffffffffffffff16815260200190815260200160002060008282546134c39190615287565b92505081905550868360ff16815181106134df576134df614b9a565b6020026020010151886134f29190615287565b97505b50508061350190615864565b905061328f565b5050505094509492505050565b606080825160000361352657915091565b600061353184613e92565b90508060ff166001036135e35760408051600180825281830190925290816020015b6060815260200190600190039081613553579050509250838360008151811061357e5761357e614b9a565b6020908102919091010152604080516001808252818301909252908160200160208202803683370190505091506135b6846003613fb7565b826000815181106135c9576135c9614b9a565b602002602001019060ff16908160ff168152505050915091565b8060ff1667ffffffffffffffff8111156135ff576135ff614c6c565b604051908082528060200260200182016040528015613628578160200160208202803683370190505b5091508060ff1667ffffffffffffffff81111561364757613647614c6c565b60405190808252806020026020018201604052801561367a57816020015b60608152602001906001900390816136655790505b50925060008060ff5b865183101561372e57600190920191600061369e8885614037565b60029490940193905060006136b38986613fb7565b90508260ff1660ff036136c85780925061371f565b8260ff168160ff161461371f577ffffffffffffffffffffffffffffffffffffffffffffffffffffffffffffffffd8486030160006137078b87846140b7565b90506137158a8a8784614231565b5093909301929150815b5061ffff169290920191613683565b818303600061373e8985846140b7565b905061374c88888584614231565b60005b8660ff168160ff1610156137ad57878160ff168151811061377257613772614b9a565b6020908102919091010180517fffffffffffffffffffffffffffffffffffffffffffffffffffffffffffffffff0160ff16905260010161374f565b50505050505050915091565b600080866040015187602001516137d091906157cd565b905060005b8160ff168160ff16101561397a576000886020015160ff168260ff161061382a5760a089015160208a015161380a9084615456565b60ff168151811061381d5761381d614b9a565b602002602001015161384c565b88608001518260ff168151811061384357613843614b9a565b60200260200101515b60408051602081019091526000808252919250905b86518110156138c1578360ff1687828151811061388057613880614b9a565b602002602001015160ff16036138b1578781815181106138a2576138a2614b9a565b602002602001015191506138c1565b6138ba81614f53565b9050613861565b5089516040517f30bb3aac00000000000000000000000000000000000000000000000000000000815273ffffffffffffffffffffffffffffffffffffffff8416916330bb3aac9161391a918d918d908790600401615883565b602060405180830381865afa158015613937573d6000803e3d6000fd5b505050506040513d601f19601f8201168201806040525081019061395b9190615503565b6139659086615287565b945050508061397390615864565b90506137d5565b505095945050505050565b606082471015613a17576040517f08c379a000000000000000000000000000000000000000000000000000000000815260206004820152602660248201527f416464726573733a20696e73756666696369656e742062616c616e636520666f60448201527f722063616c6c00000000000000000000000000000000000000000000000000006064820152608401610ac9565b6000808673ffffffffffffffffffffffffffffffffffffffff168587604051613a4091906158ce565b60006040518083038185875af1925050503d8060008114613a7d576040519150601f19603f3d011682016040523d82523d6000602084013e613a82565b606091505b5091509150613a9387838387614368565b979650505050505050565b6060807fffffffffffffffffffffffffffffffffffffffffffffffffffffffffffffffff60ff861601613b3957865115613afb57868484604051602001613ae7939291906158e0565b604051602081830303815290604052613b32565b83838080601f0160208091040260200160405190810160405280939291908181526020018383808284376000920191909152505050505b9650613c08565b7ffffffffffffffffffffffffffffffffffffffffffffffffffffffffffffffffe60ff861601613bd157855115613b9357858484604051602001613b7f939291906158e0565b604051602081830303815290604052613bca565b83838080601f0160208091040260200160405190810160405280939291908181526020018383808284376000920191909152505050505b9550613c08565b6040517f6780cfaf00000000000000000000000000000000000000000000000000000000815260ff86166004820152602401610ac9565b509495939450505050565b60607fffffffffffffffffffffffffffffffffffffffffffffffffffffffffffffffff61ffff851601613d395760228214613c7a576040517f0dc652a800000000000000000000000000000000000000000000000000000000815260040160405180910390fd5b6000613c9b613c8d6022600286886156ef565b613c9691615908565b614408565b6040517f0100000000000000000000000000000000000000000000000000000000000000602082018190527e11000000000000000000000000000000000000000000000000000000000000602183015260238201527fffffffffffffffffffffffffffffffff00000000000000000000000000000000608083901b16602482015290915060340160405160208183030381529060405291505061142c565b7ffffffffffffffffffffffffffffffffffffffffffffffffffffffffffffffffe61ffff851601613e5a57604282111580613d745750606282115b15613dab576040517fc0927c5600000000000000000000000000000000000000000000000000000000815260040160405180910390fd5b6000613dbe613c8d6022600286886156ef565b90506000613dd3613c8d6042602287896156ef565b905060007fffffffffffffffffffffffffffffffffffffffffffffffffffffffffffffffbe8501613e07866042818a6156ef565b613e1091615908565b60405160086020938403029190911c9250613e41916001916011918391889183916031916002918b918b9101615944565b604051602081830303815290604052935050505061142c565b6040517f4170513000000000000000000000000000000000000000000000000000000000815261ffff85166004820152602401610ac9565b600080805b8351821015613f73576001909101906000613eb28584614037565b905060028301925060028161ffff161015613efc576040517f04eb6e0c00000000000000000000000000000000000000000000000000000000815260048101849052602401610ac9565b6000613f088685613fb7565b90508060ff1660ff03613f47576040517fd3d3d9bc00000000000000000000000000000000000000000000000000000000815260040160405180910390fd5b600160ff82161b8316613f645760019485019460ff82161b831792505b5061ffff169190910190613e97565b83518214613fb0576040517f04eb6e0c00000000000000000000000000000000000000000000000000000000815260048101839052602401610ac9565b5050919050565b6000613fc4826001615287565b8351101561402e576040517f08c379a000000000000000000000000000000000000000000000000000000000815260206004820152601360248201527f746f55696e74385f6f75744f66426f756e6473000000000000000000000000006044820152606401610ac9565b50016001015190565b6000614044826002615287565b835110156140ae576040517f08c379a000000000000000000000000000000000000000000000000000000000815260206004820152601460248201527f746f55696e7431365f6f75744f66426f756e64730000000000000000000000006044820152606401610ac9565b50016002015190565b6060816140c581601f615287565b101561412d576040517f08c379a000000000000000000000000000000000000000000000000000000000815260206004820152600e60248201527f736c6963655f6f766572666c6f770000000000000000000000000000000000006044820152606401610ac9565b6141378284615287565b845110156141a1576040517f08c379a000000000000000000000000000000000000000000000000000000000815260206004820152601160248201527f736c6963655f6f75744f66426f756e64730000000000000000000000000000006044820152606401610ac9565b6060821580156141c05760405191506000825260208201604052614228565b6040519150601f8416801560200281840101858101878315602002848b0101015b818310156141f95780518352602092830192016141e1565b5050858452601f017fffffffffffffffffffffffffffffffffffffffffffffffffffffffffffffffe016604052505b50949350505050565b8160ff1660ff0361426e576040517fd3d3d9bc00000000000000000000000000000000000000000000000000000000815260040160405180910390fd5b600061427b8360016157cd565b905060005b8451811015611e8357600085828151811061429d5761429d614b9a565b602002602001015190508060ff168360ff1603614312578682815181106142c6576142c6614b9a565b6020026020010151846040516020016142e0929190615665565b60405160208183030381529060405287838151811061430157614301614b9a565b602002602001018190525050611e83565b8060ff16600003614357578286838151811061433057614330614b9a565b602002602001019060ff16908160ff16815250508387838151811061430157614301614b9a565b5061436181614f53565b9050614280565b606083156143fe5782516000036143f75773ffffffffffffffffffffffffffffffffffffffff85163b6143f7576040517f08c379a000000000000000000000000000000000000000000000000000000000815260206004820152601d60248201527f416464726573733a2063616c6c20746f206e6f6e2d636f6e74726163740000006044820152606401610ac9565b50816116ab565b6116ab83836144ae565b60006fffffffffffffffffffffffffffffffff8211156144aa576040517f08c379a000000000000000000000000000000000000000000000000000000000815260206004820152602760248201527f53616665436173743a2076616c756520646f65736e27742066697420696e203160448201527f32382062697473000000000000000000000000000000000000000000000000006064820152608401610ac9565b5090565b8151156144be5781518083602001fd5b806040517f08c379a0000000000000000000000000000000000000000000000000000000008152600401610ac99190614a7c565b82805482825590600052602060002090810192821561456c579160200282015b8281111561456c57825182547fffffffffffffffffffffffff00000000000000000000000000000000000000001673ffffffffffffffffffffffffffffffffffffffff909116178255602090920191600190910190614512565b506144aa9291505b808211156144aa5760008155600101614574565b60006020828403121561459a57600080fd5b81357fffffffff000000000000000000000000000000000000000000000000000000008116811461142c57600080fd5b73ffffffffffffffffffffffffffffffffffffffff811681146116c457600080fd5b80356145f7816145ca565b919050565b63ffffffff811681146116c457600080fd5b80356145f7816145fc565b6000806040838503121561462c57600080fd5b8235614637816145ca565b91506020830135614647816145fc565b809150509250929050565b815163ffffffff16815260208083015173ffffffffffffffffffffffffffffffffffffffff16908201526040810161066d565b60208101600383106146c0577f4e487b7100000000000000000000000000000000000000000000000000000000600052602160045260246000fd5b91905290565b6000806000606084860312156146db57600080fd5b83356146e6816145ca565b925060208401356146f6816145ca565b929592945050506040919091013590565b60008083601f84011261471957600080fd5b50813567ffffffffffffffff81111561473157600080fd5b6020830191508360208260051b850101111561251857600080fd5b60008060006040848603121561476157600080fd5b833561476c816145ca565b9250602084013567ffffffffffffffff81111561478857600080fd5b61479486828701614707565b9497909650939450505050565b600080602083850312156147b457600080fd5b823567ffffffffffffffff8111156147cb57600080fd5b6147d785828601614707565b90969095509350505050565b600081518084526020808501945080840160005b8381101561482957815173ffffffffffffffffffffffffffffffffffffffff16875295820195908201906001016147f7565b509495945050505050565b67ffffffffffffffff815116825260ff602082015116602083015260ff604082015116604083015260ff60608201511660608301526000608082015160c0608085015261488460c08501826147e3565b905060a083015184820360a086015261489d82826147e3565b95945050505050565b60208152600061142c6020830184614834565b80151581146116c457600080fd5b80356145f7816148b9565b600080600080606085870312156148e857600080fd5b843567ffffffffffffffff8082111561490057600080fd5b9086019060e0828903121561491457600080fd5b9094506020860135908082111561492a57600080fd5b818701915087601f83011261493e57600080fd5b81358181111561494d57600080fd5b88602082850101111561495f57600080fd5b602083019550809450505050614977604086016148c7565b905092959194509250565b60005b8381101561499d578181015183820152602001614985565b50506000910152565b600081518084526149be816020860160208601614982565b601f017fffffffffffffffffffffffffffffffffffffffffffffffffffffffffffffffe0169290920160200192915050565b82518152602080840151908201526060604082015260006116ab60608301846149a6565b600060208284031215614a2657600080fd5b813561142c816145fc565b600080600060608486031215614a4657600080fd5b8335614a51816145fc565b92506020840135614a61816145ca565b91506040840135614a71816145fc565b809150509250925092565b60208152600061142c60208301846149a6565b60008060208385031215614aa257600080fd5b823567ffffffffffffffff80821115614aba57600080fd5b818501915085601f830112614ace57600080fd5b813581811115614add57600080fd5b866020606083028501011115614af257600080fd5b60209290920196919550909350505050565b600060208284031215614b1657600080fd5b5035919050565b81518152602080830151908201526040810161066d565b600060208284031215614b4657600080fd5b813561142c816145ca565b60008060408385031215614b6457600080fd5b8235614b6f816145ca565b946020939093013593505050565b600060208284031215614b8f57600080fd5b815161142c816145ca565b7f4e487b7100000000000000000000000000000000000000000000000000000000600052603260045260246000fd5b600082357fffffffffffffffffffffffffffffffffffffffffffffffffffffffffffffffa1833603018112614bfd57600080fd5b9190910192915050565b60008083357fffffffffffffffffffffffffffffffffffffffffffffffffffffffffffffffe1843603018112614c3c57600080fd5b83018035915067ffffffffffffffff821115614c5757600080fd5b60200191503681900382131561251857600080fd5b7f4e487b7100000000000000000000000000000000000000000000000000000000600052604160045260246000fd5b60405160c0810167ffffffffffffffff81118282101715614cbe57614cbe614c6c565b60405290565b60405160e0810167ffffffffffffffff81118282101715614cbe57614cbe614c6c565b604051601f82017fffffffffffffffffffffffffffffffffffffffffffffffffffffffffffffffe016810167ffffffffffffffff81118282101715614d2e57614d2e614c6c565b604052919050565b600060408284031215614d4857600080fd5b6040516040810181811067ffffffffffffffff82111715614d6b57614d6b614c6c565b6040528235614d79816145fc565b81526020830135614d89816145ca565b60208201529392505050565b803567ffffffffffffffff811681146145f757600080fd5b803560ff811681146145f757600080fd5b600082601f830112614dcf57600080fd5b8135602067ffffffffffffffff821115614deb57614deb614c6c565b8160051b614dfa828201614ce7565b9283528481018201928281019087851115614e1457600080fd5b83870192505b84831015613a93578235614e2d816145ca565b82529183019190830190614e1a565b600060c08284031215614e4e57600080fd5b614e56614c9b565b9050614e6182614d95565b8152614e6f60208301614dad565b6020820152614e8060408301614dad565b6040820152614e9160608301614dad565b6060820152608082013567ffffffffffffffff80821115614eb157600080fd5b614ebd85838601614dbe565b608084015260a0840135915080821115614ed657600080fd5b50614ee384828501614dbe565b60a08301525092915050565b600060208284031215614f0157600080fd5b813567ffffffffffffffff811115614f1857600080fd5b6116ab84828501614e3c565b7f4e487b7100000000000000000000000000000000000000000000000000000000600052601160045260246000fd5b60007fffffffffffffffffffffffffffffffffffffffffffffffffffffffffffffffff8203614f8457614f84614f24565b5060010190565b600082357fffffffffffffffffffffffffffffffffffffffffffffffffffffffffffffffc1833603018112614bfd57600080fd5b600082357fffffffffffffffffffffffffffffffffffffffffffffffffffffffffffffff41833603018112614bfd57600080fd5b60006020828403121561500557600080fd5b61142c82614dad565b60006020828403121561502057600080fd5b61142c82614d95565b600061066d3683614e3c565b60008083357fffffffffffffffffffffffffffffffffffffffffffffffffffffffffffffffe184360301811261506a57600080fd5b830160208101925035905067ffffffffffffffff81111561508a57600080fd5b8060051b360382131561251857600080fd5b8183526000602080850194508260005b858110156148295781356150bf816145ca565b73ffffffffffffffffffffffffffffffffffffffff16875295820195908201906001016150ac565b60208082528181018390526000906040808401600586901b8501820187855b88811015615279577fffffffffffffffffffffffffffffffffffffffffffffffffffffffffffffffc08089850301855282357fffffffffffffffffffffffffffffffffffffffffffffffffffffffffffffffc18c360301811261516857600080fd5b8b018035615175816145fc565b63ffffffff16855280880135368290037fffffffffffffffffffffffffffffffffffffffffffffffffffffffffffffff410181126151b257600080fd5b8589018890520167ffffffffffffffff6151cb82614d95565b16878601526151db888201614dad565b606060ff808316828901526151f18a8501614dad565b92506080818416818a0152615207838601614dad565b935060a09250818416838a015261522081860186615035565b60c08b8101529450915061523b90506101008901848361509c565b92505061524a81840184615035565b93509050838783030160e088015261526382848361509c565b978a019796505050928701925050600101615106565b509098975050505050505050565b8082018082111561066d5761066d614f24565b81356152a5816145fc565b63ffffffff811690508154817fffffffffffffffffffffffffffffffffffffffffffffffffffffffff00000000821617835560208401356152e5816145ca565b77ffffffffffffffffffffffffffffffffffffffff000000008160201b16837fffffffffffffffff0000000000000000000000000000000000000000000000008416171784555050505050565b6020808252818101839052600090604080840186845b878110156153b257813561535b816145fc565b63ffffffff90811684528286013590615373826145fc565b168386015281840135615385816145ca565b73ffffffffffffffffffffffffffffffffffffffff16838501526060928301929190910190600101615348565b5090979650505050505050565b73ffffffffffffffffffffffffffffffffffffffff8416815263ffffffff83166020820152608081016116ab6040830184805163ffffffff16825260209081015173ffffffffffffffffffffffffffffffffffffffff16910152565b73ffffffffffffffffffffffffffffffffffffffff8416815263ffffffff8316602082015260606040820152600061489d6060830184614834565b60ff828116828216039081111561066d5761066d614f24565b600060ff8316806154a9577f4e487b7100000000000000000000000000000000000000000000000000000000600052601260045260246000fd5b8060ff84160491505092915050565b63ffffffff8516815273ffffffffffffffffffffffffffffffffffffffff841660208201528260408201526080606082015260006154f960808301846149a6565b9695505050505050565b60006020828403121561551557600080fd5b5051919050565b600082601f83011261552d57600080fd5b813567ffffffffffffffff81111561554757615547614c6c565b61557860207fffffffffffffffffffffffffffffffffffffffffffffffffffffffffffffffe0601f84011601614ce7565b81815284602083860101111561558d57600080fd5b816020850160208301376000918101602001919091529392505050565b600060e082360312156155bc57600080fd5b6155c4614cc4565b6155cd83614d95565b81526155db6020840161460e565b60208201526155ec604084016145ec565b60408201526155fd6060840161460e565b60608201526080830135608082015260a083013560a082015260c083013567ffffffffffffffff81111561563057600080fd5b61563c3682860161551c565b60c08301525092915050565b60006020828403121561565a57600080fd5b815161142c816148b9565b60008351615677818460208801614982565b83519083019061568b818360208801614982565b01949350505050565b6060815260006156a760608301866147e3565b6020838203818501526156ba82876147e3565b8481036040860152855180825282870193509082019060005b81811015615279578451835293830193918301916001016156d3565b600080858511156156ff57600080fd5b8386111561570c57600080fd5b5050820193919092039150565b7fffff00000000000000000000000000000000000000000000000000000000000081358181169160028510156157595780818660020360031b1b83161692505b505092915050565b7fff0000000000000000000000000000000000000000000000000000000000000081358181169160018510156157595760019490940360031b84901b1690921692915050565b828152600082516157bf816020850160208701614982565b919091016020019392505050565b60ff818116838216019081111561066d5761066d614f24565b6040815263ffffffff83511660408201526000602084015160a0606084015261581260e08401826149a6565b90506040850151608084015267ffffffffffffffff60608601511660a084015273ffffffffffffffffffffffffffffffffffffffff60808601511660c0840152828103602084015261489d81856149a6565b600060ff821660ff810361587a5761587a614f24565b60010192915050565b63ffffffff8516815267ffffffffffffffff8416602082015273ffffffffffffffffffffffffffffffffffffffff831660408201526080606082015260006154f960808301846149a6565b60008251614bfd818460208701614982565b600084516158f2818460208901614982565b8201838582376000930192835250909392505050565b8035602083101561066d577fffffffffffffffffffffffffffffffffffffffffffffffffffffffffffffffff602084900360031b1b1692915050565b60007fff00000000000000000000000000000000000000000000000000000000000000808c60f81b1683527fffff000000000000000000000000000000000000000000000000000000000000808c60f01b166001850152818b60f81b1660038501527fffffffffffffffffffffffffffffffff000000000000000000000000000000008a60801b166004850152818960f81b166014850152808860f01b16601585015250808660f81b16601784015250615a25601883018560801b7fffffffffffffffffffffffffffffffff00000000000000000000000000000000169052565b5060288101919091526048019897505050505050505056fea26469706673582212201d737dedbb6f417c45a21745db2f0eb668c33551668adf956185a1e55a16792864736f6c63430008140033",
    "linkReferences": {}
  },
  "methodIdentifiers": {
    "executorConfigs(address,uint32)": "4d963200",
    "fees(address)": "faaebd21",
    "getAppUlnConfig(address,uint32)": "39e3f938",
    "getConfig(uint32,address,uint32)": "9c33abf7",
    "getExecutorConfig(address,uint32)": "188183f4",
    "getUlnConfig(address,uint32)": "43ea4fa9",
    "isSupportedEid(uint32)": "6750cd4c",
    "messageLibType()": "1881d94d",
    "owner()": "8da5cb5b",
    "quote((uint64,uint32,address,uint32,bytes32,bytes32,bytes),bytes,bool)": "d80e9bd9",
    "renounceOwnership()": "715018a6",
    "send((uint64,uint32,address,uint32,bytes32,bytes32,bytes),bytes,bool)": "4389e58f",
    "setConfig(address,(uint32,uint32,bytes)[])": "20efd722",
    "setDefaultExecutorConfigs((uint32,(uint32,address))[])": "c14c4349",
    "setDefaultUlnConfigs((uint32,(uint64,uint8,uint8,uint8,address[],address[]))[])": "29460b0b",
    "setTreasury(address)": "f0f44260",
    "setTreasuryNativeFeeCap(uint256)": "d15b0d49",
    "supportsInterface(bytes4)": "01ffc9a7",
    "transferOwnership(address)": "f2fde38b",
    "treasury()": "61d027b3",
    "version()": "54fd4d50",
    "withdrawFee(address,uint256)": "fd9be522",
    "withdrawLzTokenFee(address,address,uint256)": "200175f7"
  },
  "id": 35
}