{
  "_format": "hh-sol-artifact-1",
  "contractName": "ChildEmitter",
  "sourceName": "contracts/ChildEmitter.sol",
  "abi": [
    {
      "anonymous": false,
      "inputs": [],
      "name": "ChildSpecificEvent",
      "type": "event"
    },
    {
      "anonymous": false,
      "inputs": [
        {
          "indexed": true,
          "internalType": "uint256",
          "name": "arg1",
          "type": "uint256"
        },
        {
          "indexed": false,
          "internalType": "uint128",
          "name": "arg2",
          "type": "uint128"
        },
        {
          "indexed": false,
          "internalType": "uint64",
          "name": "arg3",
          "type": "uint64"
        },
        {
          "indexed": true,
          "internalType": "address",
          "name": "arg4",
          "type": "address"
        }
      ],
      "name": "FourArgEvent",
      "type": "event"
    },
    {
      "anonymous": false,
      "inputs": [],
      "name": "NoArgEvent",
      "type": "event"
    },
    {
      "anonymous": false,
      "inputs": [
        {
          "indexed": false,
          "internalType": "uint256",
          "name": "arg1",
          "type": "uint256"
        }
      ],
      "name": "OneArgEvent",
      "type": "event"
    },
    {
      "inputs": [],
      "name": "emitChildSpecificEvent",
      "outputs": [],
      "stateMutability": "nonpayable",
      "type": "function"
    },
    {
      "inputs": [
        {
          "internalType": "uint256",
          "name": "iterations",
          "type": "uint256"
        }
      ],
      "name": "emitMany",
      "outputs": [],
      "stateMutability": "nonpayable",
      "type": "function"
    },
    {
      "inputs": [
        {
          "internalType": "uint256",
          "name": "arg1",
          "type": "uint256"
        },
        {
          "internalType": "uint128",
          "name": "arg2",
          "type": "uint128"
        },
        {
          "internalType": "uint64",
          "name": "arg3",
          "type": "uint64"
        },
        {
          "internalType": "address",
          "name": "arg4",
          "type": "address"
        }
      ],
      "name": "emitMultiArgEvent",
      "outputs": [],
      "stateMutability": "nonpayable",
      "type": "function"
    },
    {
      "inputs": [],
      "name": "emitNoArgEvent",
      "outputs": [],
      "stateMutability": "nonpayable",
      "type": "function"
    },
    {
      "inputs": [
        {
          "internalType": "uint256",
          "name": "arg1",
          "type": "uint256"
        }
      ],
      "name": "emitOneArgEvent",
      "outputs": [],
      "stateMutability": "nonpayable",
      "type": "function"
    }
  ],
  "bytecode": "0x608060405234801561001057600080fd5b5061067a806100206000396000f3fe608060405234801561001057600080fd5b50600436106100575760003560e01c80634d4387921461005c5780639b64250914610078578063a078704514610094578063a52713ea1461009e578063ad87c3ca146100a8575b600080fd5b61007660048036038101906100719190610388565b6100c4565b005b610092600480360381019061008d9190610388565b6100fe565b005b61009c61029a565b005b6100a66102c8565b005b6100c260048036038101906100bd919061049b565b6102f6565b005b7f7b626feb7bbe8e8974489b4a03492f4e155b545e30972c73f4c398f931c536cc816040516100f39190610511565b60405180910390a150565b600a811115610142576040517f08c379a000000000000000000000000000000000000000000000000000000000815260040161013990610589565b60405180910390fd5b60005b81811015610296573073ffffffffffffffffffffffffffffffffffffffff1663a07870456040518163ffffffff1660e01b8152600401600060405180830381600087803b15801561019557600080fd5b505af11580156101a9573d6000803e3d6000fd5b505050503073ffffffffffffffffffffffffffffffffffffffff16634d438792826040518263ffffffff1660e01b81526004016101e69190610511565b600060405180830381600087803b15801561020057600080fd5b505af1158015610214573d6000803e3d6000fd5b505050503073ffffffffffffffffffffffffffffffffffffffff1663ad87c3ca828384306040518563ffffffff1660e01b815260040161025794939291906105d6565b600060405180830381600087803b15801561027157600080fd5b505af1158015610285573d6000803e3d6000fd5b505050508080600101915050610145565b5050565b7f3197be1a75187c2e6f7008c280fa99aaa7ba7043acbb46e7a180ed19d0069ec960405160405180910390a1565b7f822dab19c5f685c2efb27d0d9d7e19c4a5961d737c5778553efb577b6f419b5860405160405180910390a1565b8073ffffffffffffffffffffffffffffffffffffffff16847f2930135cdab0ac995a5d7e331db4c9e6c1829911a1966f74db621f03a02cfa22858560405161033f92919061061b565b60405180910390a350505050565b600080fd5b6000819050919050565b61036581610352565b811461037057600080fd5b50565b6000813590506103828161035c565b92915050565b60006020828403121561039e5761039d61034d565b5b60006103ac84828501610373565b91505092915050565b60006fffffffffffffffffffffffffffffffff82169050919050565b6103da816103b5565b81146103e557600080fd5b50565b6000813590506103f7816103d1565b92915050565b600067ffffffffffffffff82169050919050565b61041a816103fd565b811461042557600080fd5b50565b60008135905061043781610411565b92915050565b600073ffffffffffffffffffffffffffffffffffffffff82169050919050565b60006104688261043d565b9050919050565b6104788161045d565b811461048357600080fd5b50565b6000813590506104958161046f565b92915050565b600080600080608085870312156104b5576104b461034d565b5b60006104c387828801610373565b94505060206104d4878288016103e8565b93505060406104e587828801610428565b92505060606104f687828801610486565b91505092959194509250565b61050b81610352565b82525050565b60006020820190506105266000830184610502565b92915050565b600082825260208201905092915050565b7f546f6f206d616e7920697465726174696f6e7300000000000000000000000000600082015250565b600061057360138361052c565b915061057e8261053d565b602082019050919050565b600060208201905081810360008301526105a281610566565b9050919050565b6105b2816103b5565b82525050565b6105c1816103fd565b82525050565b6105d08161045d565b82525050565b60006080820190506105eb6000830187610502565b6105f860208301866105a9565b61060560408301856105b8565b61061260608301846105c7565b95945050505050565b600060408201905061063060008301856105a9565b61063d60208301846105b8565b939250505056fea26469706673582212205f44c392f11f474d38c7318a09aa4b4c582c4ff614e12914ad9c027b5e682f4464736f6c63430008160033",
  "linkReferences": {},
  "deployedLinkReferences": {}
}