{
  "_format": "hh-sol-artifact-1",
  "contractName": "WrappedHyperliquidOFT",
  "sourceName": "contracts/WrappedHyperliquidOFT.sol",
  "abi": [
    {
      "inputs": [
        {
          "internalType": "address",
          "name": "_endpoint",
          "type": "address"
        },
        {
          "internalType": "address",
          "name": "_delegate",
          "type": "address"
        }
      ],
      "stateMutability": "nonpayable",
      "type": "constructor"
    },
    {
      "inputs": [],
      "name": "InvalidDelegate",
      "type": "error"
    },
    {
      "inputs": [],
      "name": "InvalidEndpointCall",
      "type": "error"
    },
    {
      "inputs": [
        {
          "internalType": "bytes",
          "name": "options",
          "type": "bytes"
        }
      ],
      "name": "InvalidOptions",
      "type": "error"
    },
    {
      "inputs": [],
      "name": "LzTokenUnavailable",
      "type": "error"
    },
    {
      "inputs": [
        {
          "internalType": "uint32",
          "name": "eid",
          "type": "uint32"
        }
      ],
      "name": "NoPeer",
      "type": "error"
    },
    {
      "inputs": [
        {
          "internalType": "uint256",
          "name": "msgValue",
          "type": "uint256"
        }
      ],
      "name": "NotEnoughNative",
      "type": "error"
    },
    {
      "inputs": [
        {
          "internalType": "address",
          "name": "addr",
          "type": "address"
        }
      ],
      "name": "OnlyEndpoint",
      "type": "error"
    },
    {
      "inputs": [
        {
          "internalType": "uint32",
          "name": "eid",
          "type": "uint32"
        },
        {
          "internalType": "bytes32",
          "name": "sender",
          "type": "bytes32"
        }
      ],
      "name": "OnlyPeer",
      "type": "error"
    },
    {
      "inputs": [
        {
          "internalType": "address",
          "name": "owner",
          "type": "address"
        }
      ],
      "name": "OwnableInvalidOwner",
      "type": "error"
    },
    {
      "inputs": [
        {
          "internalType": "address",
          "name": "account",
          "type": "address"
        }
      ],
      "name": "OwnableUnauthorizedAccount",
      "type": "error"
    },
    {
      "inputs": [
        {
          "internalType": "address",
          "name": "token",
          "type": "address"
        }
      ],
      "name": "SafeERC20FailedOperation",
      "type": "error"
    },
    {
      "anonymous": false,
      "inputs": [
        {
          "components": [
            {
              "internalType": "uint32",
              "name": "eid",
              "type": "uint32"
            },
            {
              "internalType": "uint16",
              "name": "msgType",
              "type": "uint16"
            },
            {
              "internalType": "bytes",
              "name": "options",
              "type": "bytes"
            }
          ],
          "indexed": false,
          "internalType": "struct EnforcedOptionParam[]",
          "name": "_enforcedOptions",
          "type": "tuple[]"
        }
      ],
      "name": "EnforcedOptionSet",
      "type": "event"
    },
    {
      "anonymous": false,
      "inputs": [
        {
          "indexed": true,
          "internalType": "bytes32",
          "name": "guid",
          "type": "bytes32"
        },
        {
          "indexed": false,
          "internalType": "uint32",
          "name": "srcEid",
          "type": "uint32"
        },
        {
          "indexed": false,
          "internalType": "address",
          "name": "toAddress",
          "type": "address"
        },
        {
          "indexed": false,
          "internalType": "uint256",
          "name": "amountReceivedLD",
          "type": "uint256"
        }
      ],
      "name": "OFTReceived",
      "type": "event"
    },
    {
      "anonymous": false,
      "inputs": [
        {
          "indexed": true,
          "internalType": "address",
          "name": "previousOwner",
          "type": "address"
        },
        {
          "indexed": true,
          "internalType": "address",
          "name": "newOwner",
          "type": "address"
        }
      ],
      "name": "OwnershipTransferred",
      "type": "event"
    },
    {
      "anonymous": false,
      "inputs": [
        {
          "indexed": false,
          "internalType": "uint32",
          "name": "eid",
          "type": "uint32"
        },
        {
          "indexed": false,
          "internalType": "bytes32",
          "name": "peer",
          "type": "bytes32"
        }
      ],
      "name": "PeerSet",
      "type": "event"
    },
    {
      "inputs": [
        {
          "components": [
            {
              "internalType": "uint32",
              "name": "srcEid",
              "type": "uint32"
            },
            {
              "internalType": "bytes32",
              "name": "sender",
              "type": "bytes32"
            },
            {
              "internalType": "uint64",
              "name": "nonce",
              "type": "uint64"
            }
          ],
          "internalType": "struct Origin",
          "name": "origin",
          "type": "tuple"
        }
      ],
      "name": "allowInitializePath",
      "outputs": [
        {
          "internalType": "bool",
          "name": "",
          "type": "bool"
        }
      ],
      "stateMutability": "view",
      "type": "function"
    },
    {
      "inputs": [
        {
          "internalType": "uint32",
          "name": "_eid",
          "type": "uint32"
        },
        {
          "internalType": "uint16",
          "name": "_msgType",
          "type": "uint16"
        },
        {
          "internalType": "bytes",
          "name": "_extraOptions",
          "type": "bytes"
        }
      ],
      "name": "combineOptions",
      "outputs": [
        {
          "internalType": "bytes",
          "name": "",
          "type": "bytes"
        }
      ],
      "stateMutability": "view",
      "type": "function"
    },
    {
      "inputs": [],
      "name": "decimalConversionRate",
      "outputs": [
        {
          "internalType": "uint256",
          "name": "",
          "type": "uint256"
        }
      ],
      "stateMutability": "view",
      "type": "function"
    },
    {
      "inputs": [],
      "name": "endpoint",
      "outputs": [
        {
          "internalType": "contract ILayerZeroEndpointV2",
          "name": "",
          "type": "address"
        }
      ],
      "stateMutability": "view",
      "type": "function"
    },
    {
      "inputs": [
        {
          "internalType": "uint32",
          "name": "eid",
          "type": "uint32"
        },
        {
          "internalType": "uint16",
          "name": "msgType",
          "type": "uint16"
        }
      ],
      "name": "enforcedOptions",
      "outputs": [
        {
          "internalType": "bytes",
          "name": "enforcedOption",
          "type": "bytes"
        }
      ],
      "stateMutability": "view",
      "type": "function"
    },
    {
      "inputs": [],
      "name": "hyperEvmOFT",
      "outputs": [
        {
          "internalType": "address",
          "name": "",
          "type": "address"
        }
      ],
      "stateMutability": "view",
      "type": "function"
    },
    {
      "inputs": [
        {
          "components": [
            {
              "internalType": "uint32",
              "name": "srcEid",
              "type": "uint32"
            },
            {
              "internalType": "bytes32",
              "name": "sender",
              "type": "bytes32"
            },
            {
              "internalType": "uint64",
              "name": "nonce",
              "type": "uint64"
            }
          ],
          "internalType": "struct Origin",
          "name": "",
          "type": "tuple"
        },
        {
          "internalType": "bytes",
          "name": "",
          "type": "bytes"
        },
        {
          "internalType": "address",
          "name": "_sender",
          "type": "address"
        }
      ],
      "name": "isComposeMsgSender",
      "outputs": [
        {
          "internalType": "bool",
          "name": "",
          "type": "bool"
        }
      ],
      "stateMutability": "view",
      "type": "function"
    },
    {
      "inputs": [
        {
          "components": [
            {
              "internalType": "uint32",
              "name": "srcEid",
              "type": "uint32"
            },
            {
              "internalType": "bytes32",
              "name": "sender",
              "type": "bytes32"
            },
            {
              "internalType": "uint64",
              "name": "nonce",
              "type": "uint64"
            }
          ],
          "internalType": "struct Origin",
          "name": "_origin",
          "type": "tuple"
        },
        {
          "internalType": "bytes32",
          "name": "_guid",
          "type": "bytes32"
        },
        {
          "internalType": "bytes",
          "name": "_message",
          "type": "bytes"
        },
        {
          "internalType": "address",
          "name": "_executor",
          "type": "address"
        },
        {
          "internalType": "bytes",
          "name": "_extraData",
          "type": "bytes"
        }
      ],
      "name": "lzReceive",
      "outputs": [],
      "stateMutability": "payable",
      "type": "function"
    },
    {
      "inputs": [
        {
          "internalType": "uint32",
          "name": "",
          "type": "uint32"
        },
        {
          "internalType": "bytes32",
          "name": "",
          "type": "bytes32"
        }
      ],
      "name": "nextNonce",
      "outputs": [
        {
          "internalType": "uint64",
          "name": "nonce",
          "type": "uint64"
        }
      ],
      "stateMutability": "view",
      "type": "function"
    },
    {
      "inputs": [],
      "name": "oAppVersion",
      "outputs": [
        {
          "internalType": "uint64",
          "name": "senderVersion",
          "type": "uint64"
        },
        {
          "internalType": "uint64",
          "name": "receiverVersion",
          "type": "uint64"
        }
      ],
      "stateMutability": "pure",
      "type": "function"
    },
    {
      "inputs": [],
      "name": "owner",
      "outputs": [
        {
          "internalType": "address",
          "name": "",
          "type": "address"
        }
      ],
      "stateMutability": "view",
      "type": "function"
    },
    {
      "inputs": [
        {
          "internalType": "uint32",
          "name": "eid",
          "type": "uint32"
        }
      ],
      "name": "peers",
      "outputs": [
        {
          "internalType": "bytes32",
          "name": "peer",
          "type": "bytes32"
        }
      ],
      "stateMutability": "view",
      "type": "function"
    },
    {
      "inputs": [
        {
          "internalType": "uint32",
          "name": "_dstEid",
          "type": "uint32"
        },
        {
          "internalType": "string",
          "name": "_message",
          "type": "string"
        },
        {
          "internalType": "bytes",
          "name": "_options",
          "type": "bytes"
        },
        {
          "internalType": "bool",
          "name": "_payInLzToken",
          "type": "bool"
        }
      ],
      "name": "quote",
      "outputs": [
        {
          "components": [
            {
              "internalType": "uint256",
              "name": "nativeFee",
              "type": "uint256"
            },
            {
              "internalType": "uint256",
              "name": "lzTokenFee",
              "type": "uint256"
            }
          ],
          "internalType": "struct MessagingFee",
          "name": "fee",
          "type": "tuple"
        }
      ],
      "stateMutability": "view",
      "type": "function"
    },
    {
      "inputs": [],
      "name": "renounceOwnership",
      "outputs": [],
      "stateMutability": "nonpayable",
      "type": "function"
    },
    {
      "inputs": [
        {
          "internalType": "uint32",
          "name": "_dstEid",
          "type": "uint32"
        },
        {
          "internalType": "string",
          "name": "_message",
          "type": "string"
        },
        {
          "internalType": "bytes",
          "name": "_options",
          "type": "bytes"
        }
      ],
      "name": "send",
      "outputs": [
        {
          "components": [
            {
              "internalType": "bytes32",
              "name": "guid",
              "type": "bytes32"
            },
            {
              "internalType": "uint64",
              "name": "nonce",
              "type": "uint64"
            },
            {
              "components": [
                {
                  "internalType": "uint256",
                  "name": "nativeFee",
                  "type": "uint256"
                },
                {
                  "internalType": "uint256",
                  "name": "lzTokenFee",
                  "type": "uint256"
                }
              ],
              "internalType": "struct MessagingFee",
              "name": "fee",
              "type": "tuple"
            }
          ],
          "internalType": "struct MessagingReceipt",
          "name": "receipt",
          "type": "tuple"
        }
      ],
      "stateMutability": "payable",
      "type": "function"
    },
    {
      "inputs": [
        {
          "internalType": "address",
          "name": "_delegate",
          "type": "address"
        }
      ],
      "name": "setDelegate",
      "outputs": [],
      "stateMutability": "nonpayable",
      "type": "function"
    },
    {
      "inputs": [
        {
          "components": [
            {
              "internalType": "uint32",
              "name": "eid",
              "type": "uint32"
            },
            {
              "internalType": "uint16",
              "name": "msgType",
              "type": "uint16"
            },
            {
              "internalType": "bytes",
              "name": "options",
              "type": "bytes"
            }
          ],
          "internalType": "struct EnforcedOptionParam[]",
          "name": "_enforcedOptions",
          "type": "tuple[]"
        }
      ],
      "name": "setEnforcedOptions",
      "outputs": [],
      "stateMutability": "nonpayable",
      "type": "function"
    },
    {
      "inputs": [
        {
          "internalType": "uint32",
          "name": "_eid",
          "type": "uint32"
        },
        {
          "internalType": "bytes32",
          "name": "_peer",
          "type": "bytes32"
        }
      ],
      "name": "setPeer",
      "outputs": [],
      "stateMutability": "nonpayable",
      "type": "function"
    },
    {
      "inputs": [
        {
          "internalType": "address",
          "name": "newOwner",
          "type": "address"
        }
      ],
      "name": "transferOwnership",
      "outputs": [],
      "stateMutability": "nonpayable",
      "type": "function"
    }
  ],
  "bytecode": "0x60a06040523480156200001157600080fd5b5060405162001fab38038062001fab83398101604081905262000034916200017c565b81818181806001600160a01b0381166200006857604051631e4fbdf760e01b81526000600482015260240160405180910390fd5b62000073816200010f565b506001600160a01b038083166080528116620000a257604051632d618d8160e21b815260040160405180910390fd5b60805160405163ca5eb5e160e01b81526001600160a01b0383811660048301529091169063ca5eb5e190602401600060405180830381600087803b158015620000ea57600080fd5b505af1158015620000ff573d6000803e3d6000fd5b50505050505050505050620001b4565b600080546001600160a01b038381166001600160a01b0319831681178455604051919092169283917f8be0079c531659141344cd1fd0a4f28419497f9722a3daafe3b4186f6b6457e09190a35050565b80516001600160a01b03811681146200017757600080fd5b919050565b600080604083850312156200019057600080fd5b6200019b836200015f565b9150620001ab602084016200015f565b90509250929050565b608051611daa62000201600039600081816101f4015281816103f40152818161078801528181610a5901528181610d7301528181610e610152818161103101526110e80152611daa6000f3fe6080604052600436106101145760003560e01c80638da5cb5b116100a0578063ca5eb5e111610064578063ca5eb5e114610345578063e0539e5814610365578063f2fde38b14610385578063f77e5dd3146103a5578063ff7bd03d146103d257600080fd5b80638da5cb5b14610293578063963efcaa146102b1578063b98bd070146102d8578063bb0b6a53146102f8578063bc70b3541461032557600080fd5b80635535d461116100e75780635535d461146101b55780635e280f11146101e2578063715018a6146102165780637d25a05e1461022b57806382413eac1461026357600080fd5b806313137d651461011957806317442b701461012e5780633400288b1461015557806351f27c7f14610175575b600080fd5b61012c610127366004611292565b6103f2565b005b34801561013a57600080fd5b50604080516001815260026020820152015b60405180910390f35b34801561016157600080fd5b5061012c61017036600461134a565b6104b2565b34801561018157600080fd5b5061019d73ad543c6af375b1001e3b08202b1eb3e6e608a42f81565b6040516001600160a01b03909116815260200161014c565b3480156101c157600080fd5b506101d56101d0366004611386565b6104c8565b60405161014c9190611409565b3480156101ee57600080fd5b5061019d7f000000000000000000000000000000000000000000000000000000000000000081565b34801561022257600080fd5b5061012c61056d565b34801561023757600080fd5b5061024b61024636600461134a565b610581565b6040516001600160401b03909116815260200161014c565b34801561026f57600080fd5b5061028361027e36600461141c565b61058a565b604051901515815260200161014c565b34801561029f57600080fd5b506000546001600160a01b031661019d565b3480156102bd57600080fd5b506102ca64e8d4a5100081565b60405190815260200161014c565b3480156102e457600080fd5b5061012c6102f3366004611482565b61059f565b34801561030457600080fd5b506102ca6103133660046114f6565b60016020526000908152604090205481565b34801561033157600080fd5b506101d5610340366004611511565b6105b9565b34801561035157600080fd5b5061012c610360366004611571565b610761565b61037861037336600461166b565b6107e7565b60405161014c91906116d5565b34801561039157600080fd5b5061012c6103a0366004611571565b610870565b3480156103b157600080fd5b506103c56103c0366004611717565b6108ae565b60405161014c9190611797565b3480156103de57600080fd5b506102836103ed3660046117ae565b6108f2565b7f00000000000000000000000000000000000000000000000000000000000000006001600160a01b03163314610442576040516391ac5e4f60e01b81523360048201526024015b60405180910390fd5b6020870180359061045c90610457908a6114f6565b610928565b1461049a5761046e60208801886114f6565b60405163309afaf360e21b815263ffffffff909116600482015260208801356024820152604401610439565b6104a987878787878787610964565b50505050505050565b6104ba610b30565b6104c48282610b5d565b5050565b6002602090815260009283526040808420909152908252902080546104ec906117ca565b80601f0160208091040260200160405190810160405280929190818152602001828054610518906117ca565b80156105655780601f1061053a57610100808354040283529160200191610565565b820191906000526020600020905b81548152906001019060200180831161054857829003601f168201915b505050505081565b610575610b30565b61057f6000610bb2565b565b60005b92915050565b6001600160a01b03811630145b949350505050565b6105a7610b30565b6104c46105b482846117fe565b610c02565b63ffffffff8416600090815260026020908152604080832061ffff871684529091528120805460609291906105ed906117ca565b80601f0160208091040260200160405190810160405280929190818152602001828054610619906117ca565b80156106665780601f1061063b57610100808354040283529160200191610666565b820191906000526020600020905b81548152906001019060200180831161064957829003601f168201915b5050505050905080516000036106b65783838080601f0160208091040260200160405190810160405280939291908181526020018383808284376000920191909152509294506105979350505050565b60008390036106c6579050610597565b600283106107445761070d84848080601f016020809104026020016040519081016040528093929190818152602001838380828437600092019190915250610d1492505050565b8061071b84600281886118d3565b60405160200161072d939291906118fd565b604051602081830303815290604052915050610597565b8383604051639a6d49cd60e01b8152600401610439929190611925565b610769610b30565b60405163ca5eb5e160e01b81526001600160a01b0382811660048301527f0000000000000000000000000000000000000000000000000000000000000000169063ca5eb5e190602401600060405180830381600087803b1580156107cc57600080fd5b505af11580156107e0573d6000803e3d6000fd5b5050505050565b6107ef6111d6565b6000846040516020016108029190611409565b60408051601f198184030181526020601f87018190048102840181019092528583529250610866918891849190889088908190840183828082843760009201829052506040805180820190915234815260208101919091529250339150610d409050565b9695505050505050565b610878610b30565b6001600160a01b0381166108a257604051631e4fbdf760e01b815260006004820152602401610439565b6108ab81610bb2565b50565b60408051808201909152600080825260208201526000846040516020016108d59190611409565b604051602081830303815290604052905061086686828686610e4b565b600060208201803590600190839061090a90866114f6565b63ffffffff1681526020810191909152604001600020541492915050565b63ffffffff8116600090815260016020526040812054806105845760405163f6ff4fb760e01b815263ffffffff84166004820152602401610439565b60006109766109738787610f2c565b90565b9050600061098c6109878888610f4b565b610f6e565b6040516340c10f1960e01b81526001600160a01b03841660048201526024810182905290915073ad543c6af375b1001e3b08202b1eb3e6e608a42f906340c10f1990604401600060405180830381600087803b1580156109eb57600080fd5b505af11580156109ff573d6000803e3d6000fd5b50505060288711905015610ac9576000610a3f610a2260608c0160408d01611969565b610a2f60208d018d6114f6565b84610a3a8c8c610f88565b610fd3565b604051633e5ac80960e11b81529091506001600160a01b037f00000000000000000000000000000000000000000000000000000000000000001690637cb5901290610a959086908d906000908790600401611986565b600060405180830381600087803b158015610aaf57600080fd5b505af1158015610ac3573d6000803e3d6000fd5b50505050505b877fefed6d3500546b29533b128a29e3a94d70788727f0507505ac12eaf2e578fd9c610af860208c018c6114f6565b6040805163ffffffff90921682526001600160a01b0386166020830152810184905260600160405180910390a2505050505050505050565b6000546001600160a01b0316331461057f5760405163118cdaa760e01b8152336004820152602401610439565b63ffffffff8216600081815260016020908152604091829020849055815192835282018390527f238399d427b947898edb290f5ff0f9109849b1c3ba196a42e35f00c50a54b98b910160405180910390a15050565b600080546001600160a01b038381166001600160a01b0319831681178455604051919092169283917f8be0079c531659141344cd1fd0a4f28419497f9722a3daafe3b4186f6b6457e09190a35050565b60005b8151811015610cd957610c34828281518110610c2357610c236119b7565b602002602001015160400151610d14565b818181518110610c4657610c466119b7565b60200260200101516040015160026000848481518110610c6857610c686119b7565b60200260200101516000015163ffffffff1663ffffffff1681526020019081526020016000206000848481518110610ca257610ca26119b7565b60200260200101516020015161ffff1661ffff1681526020019081526020016000209081610cd09190611a1e565b50600101610c05565b507fbe4864a8e820971c0247f5992e2da559595f7bf076a21cb5928d443d2a13b67481604051610d099190611add565b60405180910390a150565b600281015161ffff81166003146104c45781604051639a6d49cd60e01b81526004016104399190611409565b610d486111d6565b6000610d578460000151611005565b602085015190915015610d7157610d71846020015161102d565b7f00000000000000000000000000000000000000000000000000000000000000006001600160a01b0316632637a450826040518060a001604052808b63ffffffff168152602001610dc18c610928565b81526020018a815260200189815260200160008960200151111515815250866040518463ffffffff1660e01b8152600401610dfd929190611b68565b60806040518083038185885af1158015610e1b573d6000803e3d6000fd5b50505050506040513d601f19601f82011682018060405250810190610e409190611c2f565b979650505050505050565b60408051808201909152600080825260208201527f00000000000000000000000000000000000000000000000000000000000000006001600160a01b031663ddc28c586040518060a001604052808863ffffffff168152602001610eae89610928565b8152602001878152602001868152602001851515815250306040518363ffffffff1660e01b8152600401610ee3929190611b68565b6040805180830381865afa158015610eff573d6000803e3d6000fd5b505050506040513d601f19601f82011682018060405250810190610f239190611c79565b95945050505050565b6000610f3b60208284866118d3565b610f4491611c95565b9392505050565b6000610f5b6028602084866118d3565b610f6491611cb3565b60c01c9392505050565b600061058464e8d4a510006001600160401b038416611ce3565b6060610f9782602881866118d3565b8080601f016020809104026020016040519081016040528093929190818152602001838380828437600092019190915250929695505050505050565b606084848484604051602001610fec9493929190611d08565b6040516020818303038152906040529050949350505050565b6000813414611029576040516304fb820960e51b8152346004820152602401610439565b5090565b60007f00000000000000000000000000000000000000000000000000000000000000006001600160a01b031663e4fe1d946040518163ffffffff1660e01b8152600401602060405180830381865afa15801561108d573d6000803e3d6000fd5b505050506040513d601f19601f820116820180604052508101906110b19190611d57565b90506001600160a01b0381166110da576040516329b99a9560e11b815260040160405180910390fd5b6040805133602482018190527f00000000000000000000000000000000000000000000000000000000000000006001600160a01b03818116604485015260648085018890528551808603909101815260849094019094526020830180516001600160e01b03166323b872dd60e01b1790526104c493851692869061115f908590611165565b50505050565b600080602060008451602086016000885af180611188576040513d6000823e3d81fd5b50506000513d915081156111a05780600114156111ad565b6001600160a01b0384163b155b1561115f57604051635274afe760e01b81526001600160a01b0385166004820152602401610439565b60405180606001604052806000801916815260200160006001600160401b03168152602001611218604051806040016040528060008152602001600081525090565b905290565b60006060828403121561122f57600080fd5b50919050565b60008083601f84011261124757600080fd5b5081356001600160401b0381111561125e57600080fd5b60208301915083602082850101111561127657600080fd5b9250929050565b6001600160a01b03811681146108ab57600080fd5b600080600080600080600060e0888a0312156112ad57600080fd5b6112b7898961121d565b96506060880135955060808801356001600160401b03808211156112da57600080fd5b6112e68b838c01611235565b909750955060a08a013591506112fb8261127d565b90935060c0890135908082111561131157600080fd5b5061131e8a828b01611235565b989b979a50959850939692959293505050565b803563ffffffff8116811461134557600080fd5b919050565b6000806040838503121561135d57600080fd5b61136683611331565b946020939093013593505050565b803561ffff8116811461134557600080fd5b6000806040838503121561139957600080fd5b6113a283611331565b91506113b060208401611374565b90509250929050565b60005b838110156113d45781810151838201526020016113bc565b50506000910152565b600081518084526113f58160208601602086016113b9565b601f01601f19169290920160200192915050565b602081526000610f4460208301846113dd565b60008060008060a0858703121561143257600080fd5b61143c868661121d565b935060608501356001600160401b0381111561145757600080fd5b61146387828801611235565b90945092505060808501356114778161127d565b939692955090935050565b6000806020838503121561149557600080fd5b82356001600160401b03808211156114ac57600080fd5b818501915085601f8301126114c057600080fd5b8135818111156114cf57600080fd5b8660208260051b85010111156114e457600080fd5b60209290920196919550909350505050565b60006020828403121561150857600080fd5b610f4482611331565b6000806000806060858703121561152757600080fd5b61153085611331565b935061153e60208601611374565b925060408501356001600160401b0381111561155957600080fd5b61156587828801611235565b95989497509550505050565b60006020828403121561158357600080fd5b8135610f448161127d565b634e487b7160e01b600052604160045260246000fd5b604051606081016001600160401b03811182821017156115c6576115c661158e565b60405290565b604051601f8201601f191681016001600160401b03811182821017156115f4576115f461158e565b604052919050565b600082601f83011261160d57600080fd5b81356001600160401b038111156116265761162661158e565b611639601f8201601f19166020016115cc565b81815284602083860101111561164e57600080fd5b816020850160208301376000918101602001919091529392505050565b6000806000806060858703121561168157600080fd5b61168a85611331565b935060208501356001600160401b03808211156116a657600080fd5b6116b2888389016115fc565b945060408701359150808211156116c857600080fd5b5061156587828801611235565b6000608082019050825182526001600160401b0360208401511660208301526040830151611710604084018280518252602090810151910152565b5092915050565b6000806000806080858703121561172d57600080fd5b61173685611331565b935060208501356001600160401b038082111561175257600080fd5b61175e888389016115fc565b9450604087013591508082111561177457600080fd5b50611781878288016115fc565b9250506060850135801515811461147757600080fd5b815181526020808301519082015260408101610584565b6000606082840312156117c057600080fd5b610f44838361121d565b600181811c908216806117de57607f821691505b60208210810361122f57634e487b7160e01b600052602260045260246000fd5b60006001600160401b03808411156118185761181861158e565b8360051b60206118298183016115cc565b86815291850191818101903684111561184157600080fd5b865b848110156118c75780358681111561185b5760008081fd5b8801606036829003121561186f5760008081fd5b6118776115a4565b61188082611331565b815261188d868301611374565b86820152604080830135898111156118a55760008081fd5b6118b1368286016115fc565b9183019190915250845250918301918301611843565b50979650505050505050565b600080858511156118e357600080fd5b838611156118f057600080fd5b5050820193919092039150565b6000845161190f8184602089016113b9565b8201838582376000930192835250909392505050565b60208152816020820152818360408301376000818301604090810191909152601f909201601f19160101919050565b6001600160401b03811681146108ab57600080fd5b60006020828403121561197b57600080fd5b8135610f4481611954565b60018060a01b038516815283602082015261ffff8316604082015260806060820152600061086660808301846113dd565b634e487b7160e01b600052603260045260246000fd5b601f821115611a19576000816000526020600020601f850160051c810160208610156119f65750805b601f850160051c820191505b81811015611a1557828155600101611a02565b5050505b505050565b81516001600160401b03811115611a3757611a3761158e565b611a4b81611a4584546117ca565b846119cd565b602080601f831160018114611a805760008415611a685750858301515b600019600386901b1c1916600185901b178555611a15565b600085815260208120601f198616915b82811015611aaf57888601518255948401946001909101908401611a90565b5085821015611acd5787850151600019600388901b60f8161c191681555b5050505050600190811b01905550565b600060208083018184528085518083526040925060408601915060408160051b87010184880160005b83811015611b5a57888303603f190185528151805163ffffffff1684528781015161ffff16888501528601516060878501819052611b46818601836113dd565b968901969450505090860190600101611b06565b509098975050505050505050565b6040815263ffffffff8351166040820152602083015160608201526000604084015160a06080840152611b9e60e08401826113dd565b90506060850151603f198483030160a0850152611bbb82826113dd565b60809690960151151560c08501525050506001600160a01b039190911660209091015290565b600060408284031215611bf357600080fd5b604051604081018181106001600160401b0382111715611c1557611c1561158e565b604052825181526020928301519281019290925250919050565b600060808284031215611c4157600080fd5b611c496115a4565b825181526020830151611c5b81611954565b6020820152611c6d8460408501611be1565b60408201529392505050565b600060408284031215611c8b57600080fd5b610f448383611be1565b8035602083101561058457600019602084900360031b1b1692915050565b6001600160c01b03198135818116916008851015611cdb5780818660080360031b1b83161692505b505092915050565b808202811582820484141761058457634e487b7160e01b600052601160045260246000fd5b6001600160401b0360c01b8560c01b16815263ffffffff60e01b8460e01b16600882015282600c82015260008251611d4781602c8501602087016113b9565b91909101602c0195945050505050565b600060208284031215611d6957600080fd5b8151610f448161127d56fea2646970667358221220019f075f7a10c0f50e8743a82afb743320b1bb3328861df416709403b63e6e3764736f6c63430008160033",
  "linkReferences": {},
  "deployedLinkReferences": {}
}