{
  "abi": [
    {
      "type": "constructor",
      "inputs": [
        {
          "name": "_name",
          "type": "string",
          "internalType": "string"
        },
        {
          "name": "_symbol",
          "type": "string",
          "internalType": "string"
        },
        {
          "name": "_lzEndpoint",
          "type": "address",
          "internalType": "address"
        },
        {
          "name": "_delegate",
          "type": "address",
          "internalType": "address"
        }
      ],
      "stateMutability": "nonpayable"
    },
    {
      "type": "function",
      "name": "SEND",
      "inputs": [],
      "outputs": [
        {
          "name": "",
          "type": "uint16",
          "internalType": "uint16"
        }
      ],
      "stateMutability": "view"
    },
    {
      "type": "function",
      "name": "SEND_AND_CALL",
      "inputs": [],
      "outputs": [
        {
          "name": "",
          "type": "uint16",
          "internalType": "uint16"
        }
      ],
      "stateMutability": "view"
    },
    {
      "type": "function",
      "name": "allowInitializePath",
      "inputs": [
        {
          "name": "origin",
          "type": "tuple",
          "internalType": "struct Origin",
          "components": [
            {
              "name": "srcEid",
              "type": "uint32",
              "internalType": "uint32"
            },
            {
              "name": "sender",
              "type": "bytes32",
              "internalType": "bytes32"
            },
            {
              "name": "nonce",
              "type": "uint64",
              "internalType": "uint64"
            }
          ]
        }
      ],
      "outputs": [
        {
          "name": "",
          "type": "bool",
          "internalType": "bool"
        }
      ],
      "stateMutability": "view"
    },
    {
      "type": "function",
      "name": "allowance",
      "inputs": [
        {
          "name": "owner",
          "type": "address",
          "internalType": "address"
        },
        {
          "name": "spender",
          "type": "address",
          "internalType": "address"
        }
      ],
      "outputs": [
        {
          "name": "",
          "type": "uint256",
          "internalType": "uint256"
        }
      ],
      "stateMutability": "view"
    },
    {
      "type": "function",
      "name": "approvalRequired",
      "inputs": [],
      "outputs": [
        {
          "name": "",
          "type": "bool",
          "internalType": "bool"
        }
      ],
      "stateMutability": "pure"
    },
    {
      "type": "function",
      "name": "approve",
      "inputs": [
        {
          "name": "spender",
          "type": "address",
          "internalType": "address"
        },
        {
          "name": "value",
          "type": "uint256",
          "internalType": "uint256"
        }
      ],
      "outputs": [
        {
          "name": "",
          "type": "bool",
          "internalType": "bool"
        }
      ],
      "stateMutability": "nonpayable"
    },
    {
      "type": "function",
      "name": "balanceOf",
      "inputs": [
        {
          "name": "account",
          "type": "address",
          "internalType": "address"
        }
      ],
      "outputs": [
        {
          "name": "",
          "type": "uint256",
          "internalType": "uint256"
        }
      ],
      "stateMutability": "view"
    },
    {
      "type": "function",
      "name": "buildMsgAndOptions",
      "inputs": [
        {
          "name": "_sendParam",
          "type": "tuple",
          "internalType": "struct SendParam",
          "components": [
            {
              "name": "dstEid",
              "type": "uint32",
              "internalType": "uint32"
            },
            {
              "name": "to",
              "type": "bytes32",
              "internalType": "bytes32"
            },
            {
              "name": "amountLD",
              "type": "uint256",
              "internalType": "uint256"
            },
            {
              "name": "minAmountLD",
              "type": "uint256",
              "internalType": "uint256"
            },
            {
              "name": "extraOptions",
              "type": "bytes",
              "internalType": "bytes"
            },
            {
              "name": "composeMsg",
              "type": "bytes",
              "internalType": "bytes"
            },
            {
              "name": "oftCmd",
              "type": "bytes",
              "internalType": "bytes"
            }
          ]
        },
        {
          "name": "_amountToCreditLD",
          "type": "uint256",
          "internalType": "uint256"
        }
      ],
      "outputs": [
        {
          "name": "message",
          "type": "bytes",
          "internalType": "bytes"
        },
        {
          "name": "options",
          "type": "bytes",
          "internalType": "bytes"
        }
      ],
      "stateMutability": "view"
    },
    {
      "type": "function",
      "name": "combineOptions",
      "inputs": [
        {
          "name": "_eid",
          "type": "uint32",
          "internalType": "uint32"
        },
        {
          "name": "_msgType",
          "type": "uint16",
          "internalType": "uint16"
        },
        {
          "name": "_extraOptions",
          "type": "bytes",
          "internalType": "bytes"
        }
      ],
      "outputs": [
        {
          "name": "",
          "type": "bytes",
          "internalType": "bytes"
        }
      ],
      "stateMutability": "view"
    },
    {
      "type": "function",
      "name": "credit",
      "inputs": [
        {
          "name": "_to",
          "type": "address",
          "internalType": "address"
        },
        {
          "name": "_amountToCreditLD",
          "type": "uint256",
          "internalType": "uint256"
        },
        {
          "name": "_srcEid",
          "type": "uint32",
          "internalType": "uint32"
        }
      ],
      "outputs": [
        {
          "name": "amountReceivedLD",
          "type": "uint256",
          "internalType": "uint256"
        }
      ],
      "stateMutability": "nonpayable"
    },
    {
      "type": "function",
      "name": "debit",
      "inputs": [
        {
          "name": "_amountToSendLD",
          "type": "uint256",
          "internalType": "uint256"
        },
        {
          "name": "_minAmountToCreditLD",
          "type": "uint256",
          "internalType": "uint256"
        },
        {
          "name": "_dstEid",
          "type": "uint32",
          "internalType": "uint32"
        }
      ],
      "outputs": [
        {
          "name": "amountDebitedLD",
          "type": "uint256",
          "internalType": "uint256"
        },
        {
          "name": "amountToCreditLD",
          "type": "uint256",
          "internalType": "uint256"
        }
      ],
      "stateMutability": "nonpayable"
    },
    {
      "type": "function",
      "name": "debitView",
      "inputs": [
        {
          "name": "_amountToSendLD",
          "type": "uint256",
          "internalType": "uint256"
        },
        {
          "name": "_minAmountToCreditLD",
          "type": "uint256",
          "internalType": "uint256"
        },
        {
          "name": "_dstEid",
          "type": "uint32",
          "internalType": "uint32"
        }
      ],
      "outputs": [
        {
          "name": "amountDebitedLD",
          "type": "uint256",
          "internalType": "uint256"
        },
        {
          "name": "amountToCreditLD",
          "type": "uint256",
          "internalType": "uint256"
        }
      ],
      "stateMutability": "view"
    },
    {
      "type": "function",
      "name": "decimalConversionRate",
      "inputs": [],
      "outputs": [
        {
          "name": "",
          "type": "uint256",
          "internalType": "uint256"
        }
      ],
      "stateMutability": "view"
    },
    {
      "type": "function",
      "name": "decimals",
      "inputs": [],
      "outputs": [
        {
          "name": "",
          "type": "uint8",
          "internalType": "uint8"
        }
      ],
      "stateMutability": "view"
    },
    {
      "type": "function",
      "name": "endpoint",
      "inputs": [],
      "outputs": [
        {
          "name": "",
          "type": "address",
          "internalType": "contract ILayerZeroEndpointV2"
        }
      ],
      "stateMutability": "view"
    },
    {
      "type": "function",
      "name": "enforcedOptions",
      "inputs": [
        {
          "name": "eid",
          "type": "uint32",
          "internalType": "uint32"
        },
        {
          "name": "msgType",
          "type": "uint16",
          "internalType": "uint16"
        }
      ],
      "outputs": [
        {
          "name": "enforcedOption",
          "type": "bytes",
          "internalType": "bytes"
        }
      ],
      "stateMutability": "view"
    },
    {
      "type": "function",
      "name": "isComposeMsgSender",
      "inputs": [
        {
          "name": "",
          "type": "tuple",
          "internalType": "struct Origin",
          "components": [
            {
              "name": "srcEid",
              "type": "uint32",
              "internalType": "uint32"
            },
            {
              "name": "sender",
              "type": "bytes32",
              "internalType": "bytes32"
            },
            {
              "name": "nonce",
              "type": "uint64",
              "internalType": "uint64"
            }
          ]
        },
        {
          "name": "",
          "type": "bytes",
          "internalType": "bytes"
        },
        {
          "name": "_sender",
          "type": "address",
          "internalType": "address"
        }
      ],
      "outputs": [
        {
          "name": "",
          "type": "bool",
          "internalType": "bool"
        }
      ],
      "stateMutability": "view"
    },
    {
      "type": "function",
      "name": "isPeer",
      "inputs": [
        {
          "name": "_eid",
          "type": "uint32",
          "internalType": "uint32"
        },
        {
          "name": "_peer",
          "type": "bytes32",
          "internalType": "bytes32"
        }
      ],
      "outputs": [
        {
          "name": "",
          "type": "bool",
          "internalType": "bool"
        }
      ],
      "stateMutability": "view"
    },
    {
      "type": "function",
      "name": "lzReceive",
      "inputs": [
        {
          "name": "_origin",
          "type": "tuple",
          "internalType": "struct Origin",
          "components": [
            {
              "name": "srcEid",
              "type": "uint32",
              "internalType": "uint32"
            },
            {
              "name": "sender",
              "type": "bytes32",
              "internalType": "bytes32"
            },
            {
              "name": "nonce",
              "type": "uint64",
              "internalType": "uint64"
            }
          ]
        },
        {
          "name": "_guid",
          "type": "bytes32",
          "internalType": "bytes32"
        },
        {
          "name": "_message",
          "type": "bytes",
          "internalType": "bytes"
        },
        {
          "name": "_executor",
          "type": "address",
          "internalType": "address"
        },
        {
          "name": "_extraData",
          "type": "bytes",
          "internalType": "bytes"
        }
      ],
      "outputs": [],
      "stateMutability": "payable"
    },
    {
      "type": "function",
      "name": "lzReceiveAndRevert",
      "inputs": [
        {
          "name": "_packets",
          "type": "tuple[]",
          "internalType": "struct InboundPacket[]",
          "components": [
            {
              "name": "origin",
              "type": "tuple",
              "internalType": "struct Origin",
              "components": [
                {
                  "name": "srcEid",
                  "type": "uint32",
                  "internalType": "uint32"
                },
                {
                  "name": "sender",
                  "type": "bytes32",
                  "internalType": "bytes32"
                },
                {
                  "name": "nonce",
                  "type": "uint64",
                  "internalType": "uint64"
                }
              ]
            },
            {
              "name": "dstEid",
              "type": "uint32",
              "internalType": "uint32"
            },
            {
              "name": "receiver",
              "type": "address",
              "internalType": "address"
            },
            {
              "name": "guid",
              "type": "bytes32",
              "internalType": "bytes32"
            },
            {
              "name": "value",
              "type": "uint256",
              "internalType": "uint256"
            },
            {
              "name": "executor",
              "type": "address",
              "internalType": "address"
            },
            {
              "name": "message",
              "type": "bytes",
              "internalType": "bytes"
            },
            {
              "name": "extraData",
              "type": "bytes",
              "internalType": "bytes"
            }
          ]
        }
      ],
      "outputs": [],
      "stateMutability": "payable"
    },
    {
      "type": "function",
      "name": "lzReceiveSimulate",
      "inputs": [
        {
          "name": "_origin",
          "type": "tuple",
          "internalType": "struct Origin",
          "components": [
            {
              "name": "srcEid",
              "type": "uint32",
              "internalType": "uint32"
            },
            {
              "name": "sender",
              "type": "bytes32",
              "internalType": "bytes32"
            },
            {
              "name": "nonce",
              "type": "uint64",
              "internalType": "uint64"
            }
          ]
        },
        {
          "name": "_guid",
          "type": "bytes32",
          "internalType": "bytes32"
        },
        {
          "name": "_message",
          "type": "bytes",
          "internalType": "bytes"
        },
        {
          "name": "_executor",
          "type": "address",
          "internalType": "address"
        },
        {
          "name": "_extraData",
          "type": "bytes",
          "internalType": "bytes"
        }
      ],
      "outputs": [],
      "stateMutability": "payable"
    },
    {
      "type": "function",
      "name": "mint",
      "inputs": [
        {
          "name": "_to",
          "type": "address",
          "internalType": "address"
        },
        {
          "name": "_amount",
          "type": "uint256",
          "internalType": "uint256"
        }
      ],
      "outputs": [],
      "stateMutability": "nonpayable"
    },
    {
      "type": "function",
      "name": "msgInspector",
      "inputs": [],
      "outputs": [
        {
          "name": "",
          "type": "address",
          "internalType": "address"
        }
      ],
      "stateMutability": "view"
    },
    {
      "type": "function",
      "name": "name",
      "inputs": [],
      "outputs": [
        {
          "name": "",
          "type": "string",
          "internalType": "string"
        }
      ],
      "stateMutability": "view"
    },
    {
      "type": "function",
      "name": "nextNonce",
      "inputs": [
        {
          "name": "",
          "type": "uint32",
          "internalType": "uint32"
        },
        {
          "name": "",
          "type": "bytes32",
          "internalType": "bytes32"
        }
      ],
      "outputs": [
        {
          "name": "nonce",
          "type": "uint64",
          "internalType": "uint64"
        }
      ],
      "stateMutability": "view"
    },
    {
      "type": "function",
      "name": "oApp",
      "inputs": [],
      "outputs": [
        {
          "name": "",
          "type": "address",
          "internalType": "address"
        }
      ],
      "stateMutability": "view"
    },
    {
      "type": "function",
      "name": "oAppVersion",
      "inputs": [],
      "outputs": [
        {
          "name": "senderVersion",
          "type": "uint64",
          "internalType": "uint64"
        },
        {
          "name": "receiverVersion",
          "type": "uint64",
          "internalType": "uint64"
        }
      ],
      "stateMutability": "pure"
    },
    {
      "type": "function",
      "name": "oftVersion",
      "inputs": [],
      "outputs": [
        {
          "name": "interfaceId",
          "type": "bytes4",
          "internalType": "bytes4"
        },
        {
          "name": "version",
          "type": "uint64",
          "internalType": "uint64"
        }
      ],
      "stateMutability": "pure"
    },
    {
      "type": "function",
      "name": "owner",
      "inputs": [],
      "outputs": [
        {
          "name": "",
          "type": "address",
          "internalType": "address"
        }
      ],
      "stateMutability": "view"
    },
    {
      "type": "function",
      "name": "peers",
      "inputs": [
        {
          "name": "eid",
          "type": "uint32",
          "internalType": "uint32"
        }
      ],
      "outputs": [
        {
          "name": "peer",
          "type": "bytes32",
          "internalType": "bytes32"
        }
      ],
      "stateMutability": "view"
    },
    {
      "type": "function",
      "name": "preCrime",
      "inputs": [],
      "outputs": [
        {
          "name": "",
          "type": "address",
          "internalType": "address"
        }
      ],
      "stateMutability": "view"
    },
    {
      "type": "function",
      "name": "quoteOFT",
      "inputs": [
        {
          "name": "_sendParam",
          "type": "tuple",
          "internalType": "struct SendParam",
          "components": [
            {
              "name": "dstEid",
              "type": "uint32",
              "internalType": "uint32"
            },
            {
              "name": "to",
              "type": "bytes32",
              "internalType": "bytes32"
            },
            {
              "name": "amountLD",
              "type": "uint256",
              "internalType": "uint256"
            },
            {
              "name": "minAmountLD",
              "type": "uint256",
              "internalType": "uint256"
            },
            {
              "name": "extraOptions",
              "type": "bytes",
              "internalType": "bytes"
            },
            {
              "name": "composeMsg",
              "type": "bytes",
              "internalType": "bytes"
            },
            {
              "name": "oftCmd",
              "type": "bytes",
              "internalType": "bytes"
            }
          ]
        }
      ],
      "outputs": [
        {
          "name": "oftLimit",
          "type": "tuple",
          "internalType": "struct OFTLimit",
          "components": [
            {
              "name": "minAmountLD",
              "type": "uint256",
              "internalType": "uint256"
            },
            {
              "name": "maxAmountLD",
              "type": "uint256",
              "internalType": "uint256"
            }
          ]
        },
        {
          "name": "oftFeeDetails",
          "type": "tuple[]",
          "internalType": "struct OFTFeeDetail[]",
          "components": [
            {
              "name": "feeAmountLD",
              "type": "int256",
              "internalType": "int256"
            },
            {
              "name": "description",
              "type": "string",
              "internalType": "string"
            }
          ]
        },
        {
          "name": "oftReceipt",
          "type": "tuple",
          "internalType": "struct OFTReceipt",
          "components": [
            {
              "name": "amountSentLD",
              "type": "uint256",
              "internalType": "uint256"
            },
            {
              "name": "amountReceivedLD",
              "type": "uint256",
              "internalType": "uint256"
            }
          ]
        }
      ],
      "stateMutability": "view"
    },
    {
      "type": "function",
      "name": "quoteSend",
      "inputs": [
        {
          "name": "_sendParam",
          "type": "tuple",
          "internalType": "struct SendParam",
          "components": [
            {
              "name": "dstEid",
              "type": "uint32",
              "internalType": "uint32"
            },
            {
              "name": "to",
              "type": "bytes32",
              "internalType": "bytes32"
            },
            {
              "name": "amountLD",
              "type": "uint256",
              "internalType": "uint256"
            },
            {
              "name": "minAmountLD",
              "type": "uint256",
              "internalType": "uint256"
            },
            {
              "name": "extraOptions",
              "type": "bytes",
              "internalType": "bytes"
            },
            {
              "name": "composeMsg",
              "type": "bytes",
              "internalType": "bytes"
            },
            {
              "name": "oftCmd",
              "type": "bytes",
              "internalType": "bytes"
            }
          ]
        },
        {
          "name": "_payInLzToken",
          "type": "bool",
          "internalType": "bool"
        }
      ],
      "outputs": [
        {
          "name": "msgFee",
          "type": "tuple",
          "internalType": "struct MessagingFee",
          "components": [
            {
              "name": "nativeFee",
              "type": "uint256",
              "internalType": "uint256"
            },
            {
              "name": "lzTokenFee",
              "type": "uint256",
              "internalType": "uint256"
            }
          ]
        }
      ],
      "stateMutability": "view"
    },
    {
      "type": "function",
      "name": "removeDust",
      "inputs": [
        {
          "name": "_amountLD",
          "type": "uint256",
          "internalType": "uint256"
        }
      ],
      "outputs": [
        {
          "name": "amountLD",
          "type": "uint256",
          "internalType": "uint256"
        }
      ],
      "stateMutability": "view"
    },
    {
      "type": "function",
      "name": "renounceOwnership",
      "inputs": [],
      "outputs": [],
      "stateMutability": "nonpayable"
    },
    {
      "type": "function",
      "name": "send",
      "inputs": [
        {
          "name": "_sendParam",
          "type": "tuple",
          "internalType": "struct SendParam",
          "components": [
            {
              "name": "dstEid",
              "type": "uint32",
              "internalType": "uint32"
            },
            {
              "name": "to",
              "type": "bytes32",
              "internalType": "bytes32"
            },
            {
              "name": "amountLD",
              "type": "uint256",
              "internalType": "uint256"
            },
            {
              "name": "minAmountLD",
              "type": "uint256",
              "internalType": "uint256"
            },
            {
              "name": "extraOptions",
              "type": "bytes",
              "internalType": "bytes"
            },
            {
              "name": "composeMsg",
              "type": "bytes",
              "internalType": "bytes"
            },
            {
              "name": "oftCmd",
              "type": "bytes",
              "internalType": "bytes"
            }
          ]
        },
        {
          "name": "_fee",
          "type": "tuple",
          "internalType": "struct MessagingFee",
          "components": [
            {
              "name": "nativeFee",
              "type": "uint256",
              "internalType": "uint256"
            },
            {
              "name": "lzTokenFee",
              "type": "uint256",
              "internalType": "uint256"
            }
          ]
        },
        {
          "name": "_refundAddress",
          "type": "address",
          "internalType": "address"
        }
      ],
      "outputs": [
        {
          "name": "msgReceipt",
          "type": "tuple",
          "internalType": "struct MessagingReceipt",
          "components": [
            {
              "name": "guid",
              "type": "bytes32",
              "internalType": "bytes32"
            },
            {
              "name": "nonce",
              "type": "uint64",
              "internalType": "uint64"
            },
            {
              "name": "fee",
              "type": "tuple",
              "internalType": "struct MessagingFee",
              "components": [
                {
                  "name": "nativeFee",
                  "type": "uint256",
                  "internalType": "uint256"
                },
                {
                  "name": "lzTokenFee",
                  "type": "uint256",
                  "internalType": "uint256"
                }
              ]
            }
          ]
        },
        {
          "name": "oftReceipt",
          "type": "tuple",
          "internalType": "struct OFTReceipt",
          "components": [
            {
              "name": "amountSentLD",
              "type": "uint256",
              "internalType": "uint256"
            },
            {
              "name": "amountReceivedLD",
              "type": "uint256",
              "internalType": "uint256"
            }
          ]
        }
      ],
      "stateMutability": "payable"
    },
    {
      "type": "function",
      "name": "setDelegate",
      "inputs": [
        {
          "name": "_delegate",
          "type": "address",
          "internalType": "address"
        }
      ],
      "outputs": [],
      "stateMutability": "nonpayable"
    },
    {
      "type": "function",
      "name": "setEnforcedOptions",
      "inputs": [
        {
          "name": "_enforcedOptions",
          "type": "tuple[]",
          "internalType": "struct EnforcedOptionParam[]",
          "components": [
            {
              "name": "eid",
              "type": "uint32",
              "internalType": "uint32"
            },
            {
              "name": "msgType",
              "type": "uint16",
              "internalType": "uint16"
            },
            {
              "name": "options",
              "type": "bytes",
              "internalType": "bytes"
            }
          ]
        }
      ],
      "outputs": [],
      "stateMutability": "nonpayable"
    },
    {
      "type": "function",
      "name": "setMsgInspector",
      "inputs": [
        {
          "name": "_msgInspector",
          "type": "address",
          "internalType": "address"
        }
      ],
      "outputs": [],
      "stateMutability": "nonpayable"
    },
    {
      "type": "function",
      "name": "setPeer",
      "inputs": [
        {
          "name": "_eid",
          "type": "uint32",
          "internalType": "uint32"
        },
        {
          "name": "_peer",
          "type": "bytes32",
          "internalType": "bytes32"
        }
      ],
      "outputs": [],
      "stateMutability": "nonpayable"
    },
    {
      "type": "function",
      "name": "setPreCrime",
      "inputs": [
        {
          "name": "_preCrime",
          "type": "address",
          "internalType": "address"
        }
      ],
      "outputs": [],
      "stateMutability": "nonpayable"
    },
    {
      "type": "function",
      "name": "sharedDecimals",
      "inputs": [],
      "outputs": [
        {
          "name": "",
          "type": "uint8",
          "internalType": "uint8"
        }
      ],
      "stateMutability": "view"
    },
    {
      "type": "function",
      "name": "symbol",
      "inputs": [],
      "outputs": [
        {
          "name": "",
          "type": "string",
          "internalType": "string"
        }
      ],
      "stateMutability": "view"
    },
    {
      "type": "function",
      "name": "toLD",
      "inputs": [
        {
          "name": "_amountSD",
          "type": "uint64",
          "internalType": "uint64"
        }
      ],
      "outputs": [
        {
          "name": "amountLD",
          "type": "uint256",
          "internalType": "uint256"
        }
      ],
      "stateMutability": "view"
    },
    {
      "type": "function",
      "name": "toSD",
      "inputs": [
        {
          "name": "_amountLD",
          "type": "uint256",
          "internalType": "uint256"
        }
      ],
      "outputs": [
        {
          "name": "amountSD",
          "type": "uint64",
          "internalType": "uint64"
        }
      ],
      "stateMutability": "view"
    },
    {
      "type": "function",
      "name": "token",
      "inputs": [],
      "outputs": [
        {
          "name": "",
          "type": "address",
          "internalType": "address"
        }
      ],
      "stateMutability": "view"
    },
    {
      "type": "function",
      "name": "totalSupply",
      "inputs": [],
      "outputs": [
        {
          "name": "",
          "type": "uint256",
          "internalType": "uint256"
        }
      ],
      "stateMutability": "view"
    },
    {
      "type": "function",
      "name": "transfer",
      "inputs": [
        {
          "name": "to",
          "type": "address",
          "internalType": "address"
        },
        {
          "name": "value",
          "type": "uint256",
          "internalType": "uint256"
        }
      ],
      "outputs": [
        {
          "name": "",
          "type": "bool",
          "internalType": "bool"
        }
      ],
      "stateMutability": "nonpayable"
    },
    {
      "type": "function",
      "name": "transferFrom",
      "inputs": [
        {
          "name": "from",
          "type": "address",
          "internalType": "address"
        },
        {
          "name": "to",
          "type": "address",
          "internalType": "address"
        },
        {
          "name": "value",
          "type": "uint256",
          "internalType": "uint256"
        }
      ],
      "outputs": [
        {
          "name": "",
          "type": "bool",
          "internalType": "bool"
        }
      ],
      "stateMutability": "nonpayable"
    },
    {
      "type": "function",
      "name": "transferOwnership",
      "inputs": [
        {
          "name": "newOwner",
          "type": "address",
          "internalType": "address"
        }
      ],
      "outputs": [],
      "stateMutability": "nonpayable"
    },
    {
      "type": "event",
      "name": "Approval",
      "inputs": [
        {
          "name": "owner",
          "type": "address",
          "indexed": true,
          "internalType": "address"
        },
        {
          "name": "spender",
          "type": "address",
          "indexed": true,
          "internalType": "address"
        },
        {
          "name": "value",
          "type": "uint256",
          "indexed": false,
          "internalType": "uint256"
        }
      ],
      "anonymous": false
    },
    {
      "type": "event",
      "name": "EnforcedOptionSet",
      "inputs": [
        {
          "name": "_enforcedOptions",
          "type": "tuple[]",
          "indexed": false,
          "internalType": "struct EnforcedOptionParam[]",
          "components": [
            {
              "name": "eid",
              "type": "uint32",
              "internalType": "uint32"
            },
            {
              "name": "msgType",
              "type": "uint16",
              "internalType": "uint16"
            },
            {
              "name": "options",
              "type": "bytes",
              "internalType": "bytes"
            }
          ]
        }
      ],
      "anonymous": false
    },
    {
      "type": "event",
      "name": "MsgInspectorSet",
      "inputs": [
        {
          "name": "inspector",
          "type": "address",
          "indexed": false,
          "internalType": "address"
        }
      ],
      "anonymous": false
    },
    {
      "type": "event",
      "name": "OFTReceived",
      "inputs": [
        {
          "name": "guid",
          "type": "bytes32",
          "indexed": true,
          "internalType": "bytes32"
        },
        {
          "name": "srcEid",
          "type": "uint32",
          "indexed": false,
          "internalType": "uint32"
        },
        {
          "name": "toAddress",
          "type": "address",
          "indexed": true,
          "internalType": "address"
        },
        {
          "name": "amountReceivedLD",
          "type": "uint256",
          "indexed": false,
          "internalType": "uint256"
        }
      ],
      "anonymous": false
    },
    {
      "type": "event",
      "name": "OFTSent",
      "inputs": [
        {
          "name": "guid",
          "type": "bytes32",
          "indexed": true,
          "internalType": "bytes32"
        },
        {
          "name": "dstEid",
          "type": "uint32",
          "indexed": false,
          "internalType": "uint32"
        },
        {
          "name": "fromAddress",
          "type": "address",
          "indexed": true,
          "internalType": "address"
        },
        {
          "name": "amountSentLD",
          "type": "uint256",
          "indexed": false,
          "internalType": "uint256"
        },
        {
          "name": "amountReceivedLD",
          "type": "uint256",
          "indexed": false,
          "internalType": "uint256"
        }
      ],
      "anonymous": false
    },
    {
      "type": "event",
      "name": "OwnershipTransferred",
      "inputs": [
        {
          "name": "previousOwner",
          "type": "address",
          "indexed": true,
          "internalType": "address"
        },
        {
          "name": "newOwner",
          "type": "address",
          "indexed": true,
          "internalType": "address"
        }
      ],
      "anonymous": false
    },
    {
      "type": "event",
      "name": "PeerSet",
      "inputs": [
        {
          "name": "eid",
          "type": "uint32",
          "indexed": false,
          "internalType": "uint32"
        },
        {
          "name": "peer",
          "type": "bytes32",
          "indexed": false,
          "internalType": "bytes32"
        }
      ],
      "anonymous": false
    },
    {
      "type": "event",
      "name": "PreCrimeSet",
      "inputs": [
        {
          "name": "preCrimeAddress",
          "type": "address",
          "indexed": false,
          "internalType": "address"
        }
      ],
      "anonymous": false
    },
    {
      "type": "event",
      "name": "Transfer",
      "inputs": [
        {
          "name": "from",
          "type": "address",
          "indexed": true,
          "internalType": "address"
        },
        {
          "name": "to",
          "type": "address",
          "indexed": true,
          "internalType": "address"
        },
        {
          "name": "value",
          "type": "uint256",
          "indexed": false,
          "internalType": "uint256"
        }
      ],
      "anonymous": false
    },
    {
      "type": "error",
      "name": "ERC20InsufficientAllowance",
      "inputs": [
        {
          "name": "spender",
          "type": "address",
          "internalType": "address"
        },
        {
          "name": "allowance",
          "type": "uint256",
          "internalType": "uint256"
        },
        {
          "name": "needed",
          "type": "uint256",
          "internalType": "uint256"
        }
      ]
    },
    {
      "type": "error",
      "name": "ERC20InsufficientBalance",
      "inputs": [
        {
          "name": "sender",
          "type": "address",
          "internalType": "address"
        },
        {
          "name": "balance",
          "type": "uint256",
          "internalType": "uint256"
        },
        {
          "name": "needed",
          "type": "uint256",
          "internalType": "uint256"
        }
      ]
    },
    {
      "type": "error",
      "name": "ERC20InvalidApprover",
      "inputs": [
        {
          "name": "approver",
          "type": "address",
          "internalType": "address"
        }
      ]
    },
    {
      "type": "error",
      "name": "ERC20InvalidReceiver",
      "inputs": [
        {
          "name": "receiver",
          "type": "address",
          "internalType": "address"
        }
      ]
    },
    {
      "type": "error",
      "name": "ERC20InvalidSender",
      "inputs": [
        {
          "name": "sender",
          "type": "address",
          "internalType": "address"
        }
      ]
    },
    {
      "type": "error",
      "name": "ERC20InvalidSpender",
      "inputs": [
        {
          "name": "spender",
          "type": "address",
          "internalType": "address"
        }
      ]
    },
    {
      "type": "error",
      "name": "InvalidDelegate",
      "inputs": []
    },
    {
      "type": "error",
      "name": "InvalidEndpointCall",
      "inputs": []
    },
    {
      "type": "error",
      "name": "InvalidLocalDecimals",
      "inputs": []
    },
    {
      "type": "error",
      "name": "InvalidOptions",
      "inputs": [
        {
          "name": "options",
          "type": "bytes",
          "internalType": "bytes"
        }
      ]
    },
    {
      "type": "error",
      "name": "LzTokenUnavailable",
      "inputs": []
    },
    {
      "type": "error",
      "name": "NoPeer",
      "inputs": [
        {
          "name": "eid",
          "type": "uint32",
          "internalType": "uint32"
        }
      ]
    },
    {
      "type": "error",
      "name": "NotEnoughNative",
      "inputs": [
        {
          "name": "msgValue",
          "type": "uint256",
          "internalType": "uint256"
        }
      ]
    },
    {
      "type": "error",
      "name": "OnlyEndpoint",
      "inputs": [
        {
          "name": "addr",
          "type": "address",
          "internalType": "address"
        }
      ]
    },
    {
      "type": "error",
      "name": "OnlyPeer",
      "inputs": [
        {
          "name": "eid",
          "type": "uint32",
          "internalType": "uint32"
        },
        {
          "name": "sender",
          "type": "bytes32",
          "internalType": "bytes32"
        }
      ]
    },
    {
      "type": "error",
      "name": "OnlySelf",
      "inputs": []
    },
    {
      "type": "error",
      "name": "OwnableInvalidOwner",
      "inputs": [
        {
          "name": "owner",
          "type": "address",
          "internalType": "address"
        }
      ]
    },
    {
      "type": "error",
      "name": "OwnableUnauthorizedAccount",
      "inputs": [
        {
          "name": "account",
          "type": "address",
          "internalType": "address"
        }
      ]
    },
    {
      "type": "error",
      "name": "SafeERC20FailedOperation",
      "inputs": [
        {
          "name": "token",
          "type": "address",
          "internalType": "address"
        }
      ]
    },
    {
      "type": "error",
      "name": "SimulationResult",
      "inputs": [
        {
          "name": "result",
          "type": "bytes",
          "internalType": "bytes"
        }
      ]
    },
    {
      "type": "error",
      "name": "SlippageExceeded",
      "inputs": [
        {
          "name": "amountLD",
          "type": "uint256",
          "internalType": "uint256"
        },
        {
          "name": "minAmountLD",
          "type": "uint256",
          "internalType": "uint256"
        }
      ]
    }
  ],
  "bytecode": {
    "object": "0x60c06040523480156200001157600080fd5b5060405162003935380380620039358339810160408190526200003491620002d2565b83838383838360128484818181818d6001600160a01b0381166200007257604051631e4fbdf760e01b81526000600482015260240160405180910390fd5b6200007d8162000198565b506001600160a01b038083166080528116620000ac57604051632d618d8160e21b815260040160405180910390fd5b60805160405163ca5eb5e160e01b81526001600160a01b0383811660048301529091169063ca5eb5e190602401600060405180830381600087803b158015620000f457600080fd5b505af115801562000109573d6000803e3d6000fd5b505050505050505062000121620001e860201b60201c565b60ff168360ff16101562000148576040516301e9714b60e41b815260040160405180910390fd5b6200015560068462000377565b6200016290600a62000496565b60a052506008915062000178905083826200053f565b5060096200018782826200053f565b50505050505050505050506200060b565b600080546001600160a01b038381166001600160a01b0319831681178455604051919092169283917f8be0079c531659141344cd1fd0a4f28419497f9722a3daafe3b4186f6b6457e09190a35050565b600690565b634e487b7160e01b600052604160045260246000fd5b600082601f8301126200021557600080fd5b81516001600160401b0380821115620002325762000232620001ed565b604051601f8301601f19908116603f011681019082821181831017156200025d576200025d620001ed565b81604052838152602092508660208588010111156200027b57600080fd5b600091505b838210156200029f578582018301518183018401529082019062000280565b6000602085830101528094505050505092915050565b80516001600160a01b0381168114620002cd57600080fd5b919050565b60008060008060808587031215620002e957600080fd5b84516001600160401b03808211156200030157600080fd5b6200030f8883890162000203565b955060208701519150808211156200032657600080fd5b50620003358782880162000203565b9350506200034660408601620002b5565b91506200035660608601620002b5565b905092959194509250565b634e487b7160e01b600052601160045260246000fd5b60ff828116828216039081111562000393576200039362000361565b92915050565b600181815b80851115620003da578160001904821115620003be57620003be62000361565b80851615620003cc57918102915b93841c93908002906200039e565b509250929050565b600082620003f35750600162000393565b81620004025750600062000393565b81600181146200041b5760028114620004265762000446565b600191505062000393565b60ff8411156200043a576200043a62000361565b50506001821b62000393565b5060208310610133831016604e8410600b84101617156200046b575081810a62000393565b62000477838362000399565b80600019048211156200048e576200048e62000361565b029392505050565b6000620004a760ff841683620003e2565b9392505050565b600181811c90821680620004c357607f821691505b602082108103620004e457634e487b7160e01b600052602260045260246000fd5b50919050565b601f8211156200053a576000816000526020600020601f850160051c81016020861015620005155750805b601f850160051c820191505b81811015620005365782815560010162000521565b5050505b505050565b81516001600160401b038111156200055b576200055b620001ed565b62000573816200056c8454620004ae565b84620004ea565b602080601f831160018114620005ab5760008415620005925750858301515b600019600386901b1c1916600185901b17855562000536565b600085815260208120601f198616915b82811015620005dc57888601518255948401946001909101908401620005bb565b5085821015620005fb5787850151600019600388901b60f8161c191681555b5050505050600190811b01905550565b60805160a0516132be6200067760003960008181610768015281816114b80152818161199b0152611b0001526000818161063001528181610b5b015281816111da015281816115ae015281816117f501528181611fc8015281816120cc015261218301526132be6000f3fe6080604052600436106102c95760003560e01c8063715018a611610175578063bb0b6a53116100dc578063d045a0dc11610095578063f01630231161006f578063f016302314610958578063f2fde38b14610978578063fc0c546a1461057f578063ff7bd03d1461099857600080fd5b8063d045a0dc146108df578063d4243885146108f2578063dd62ed3e1461091257600080fd5b8063bb0b6a531461081e578063bc70b3541461084b578063bd815db01461086b578063c07799881461087e578063c7c7f5b31461089e578063ca5eb5e1146108bf57600080fd5b8063963efcaa1161012e578063963efcaa146107565780639f68b9641461078a578063a9059cbb1461079e578063b3a5abeb146107be578063b731ea0a146107de578063b98bd070146107fe57600080fd5b8063715018a6146106a85780637d25a05e146106bd57806382413eac146106e0578063857749b01461070f5780638da5cb5b1461072357806395d89b411461074157600080fd5b806323b872dd1161023457806352ae2879116101ed5780635a0dfe4d116101c75780635a0dfe4d146105e75780635e280f111461061e5780636fc1b31e1461065257806370a082311461067257600080fd5b806352ae28791461057f57806354f52414146105925780635535d461146105c757600080fd5b806323b872dd146104b0578063313ce567146104d05780633400288b146104f25780633b6f743b1461051257806340c10f191461053f5780634dba701b1461055f57600080fd5b806313137d651161028657806313137d65146103f6578063134d4f251461040b578063156a0d0f1461043357806317442b701461045a57806318160ddd1461047c5780631f5e13341461049b57600080fd5b8063056d62de146102ce57806306fdde0314610305578063095ea7b3146103275780630d35b415146103575780630e78842c14610386578063111ecdad146103be575b600080fd5b3480156102da57600080fd5b506102ee6102e93660046122c3565b6109b8565b6040516102fc929190612357565b60405180910390f35b34801561031157600080fd5b5061031a6109d1565b6040516102fc919061237c565b34801561033357600080fd5b506103476103423660046123a4565b610a63565b60405190151581526020016102fc565b34801561036357600080fd5b506103776103723660046123d0565b610a7d565b6040516102fc93929190612404565b34801561039257600080fd5b506103a66103a136600461249d565b610b4e565b6040516001600160401b0390911681526020016102fc565b3480156103ca57600080fd5b506004546103de906001600160a01b031681565b6040516001600160a01b0390911681526020016102fc565b610409610404366004612509565b610b59565b005b34801561041757600080fd5b50610420600281565b60405161ffff90911681526020016102fc565b34801561043f57600080fd5b506040805162b9270b60e21b815260016020820152016102fc565b34801561046657600080fd5b50604080516001815260026020820152016102fc565b34801561048857600080fd5b506007545b6040519081526020016102fc565b3480156104a757600080fd5b50610420600181565b3480156104bc57600080fd5b506103476104cb3660046125a8565b610c19565b3480156104dc57600080fd5b5060125b60405160ff90911681526020016102fc565b3480156104fe57600080fd5b5061040961050d366004612602565b610c3f565b34801561051e57600080fd5b5061053261052d36600461262c565b610c55565b6040516102fc919061267d565b34801561054b57600080fd5b5061040961055a3660046123a4565b610cbc565b34801561056b57600080fd5b5061048d61057a366004612694565b610cc6565b34801561058b57600080fd5b50306103de565b34801561059e57600080fd5b506105b26105ad3660046126d2565b610cdb565b604080519283526020830191909152016102fc565b3480156105d357600080fd5b5061031a6105e2366004612710565b610cf7565b3480156105f357600080fd5b50610347610602366004612602565b63ffffffff919091166000908152600160205260409020541490565b34801561062a57600080fd5b506103de7f000000000000000000000000000000000000000000000000000000000000000081565b34801561065e57600080fd5b5061040961066d366004612743565b610d9c565b34801561067e57600080fd5b5061048d61068d366004612743565b6001600160a01b031660009081526005602052604090205490565b3480156106b457600080fd5b50610409610df9565b3480156106c957600080fd5b506103a66106d8366004612602565b600092915050565b3480156106ec57600080fd5b506103476106fb366004612760565b6001600160a01b0381163014949350505050565b34801561071b57600080fd5b5060066104e0565b34801561072f57600080fd5b506000546001600160a01b03166103de565b34801561074d57600080fd5b5061031a610e0d565b34801561076257600080fd5b5061048d7f000000000000000000000000000000000000000000000000000000000000000081565b34801561079657600080fd5b506000610347565b3480156107aa57600080fd5b506103476107b93660046123a4565b610e1c565b3480156107ca57600080fd5b5061048d6107d93660046127db565b610e2a565b3480156107ea57600080fd5b506002546103de906001600160a01b031681565b34801561080a57600080fd5b5061040961081936600461283c565b610e35565b34801561082a57600080fd5b5061048d61083936600461287d565b60016020526000908152604090205481565b34801561085757600080fd5b5061031a610866366004612898565b610e4f565b61040961087936600461283c565b610ff7565b34801561088a57600080fd5b5061048d61089936600461249d565b611181565b6108b16108ac3660046128f8565b61118c565b6040516102fc929190612965565b3480156108cb57600080fd5b506104096108da366004612743565b6111b3565b6104096108ed366004612509565b611239565b3480156108fe57600080fd5b5061040961090d366004612743565b611268565b34801561091e57600080fd5b5061048d61092d3660046129b7565b6001600160a01b03918216600090815260066020908152604080832093909416825291909152205490565b34801561096457600080fd5b506105b26109733660046126d2565b6112be565b34801561098457600080fd5b50610409610993366004612743565b6112cc565b3480156109a457600080fd5b506103476109b33660046129e5565b61130a565b6060806109c58484611340565b915091505b9250929050565b6060600880546109e090612a01565b80601f0160208091040260200160405190810160405280929190818152602001828054610a0c90612a01565b8015610a595780601f10610a2e57610100808354040283529160200191610a59565b820191906000526020600020905b815481529060010190602001808311610a3c57829003601f168201915b5050505050905090565b600033610a71818585611463565b60019150505b92915050565b60408051808201909152600080825260208201526060610ab0604051806040016040528060008152602001600081525090565b60408051808201825260008082526001600160401b03602080840182905284518381529081019094529195509182610b0b565b604080518082019091526000815260606020820152815260200190600190039081610ae35790505b509350600080610b30604089013560608a0135610b2b60208c018c61287d565b611475565b60408051808201909152918252602082015296989597505050505050565b6000610a77826114b1565b7f00000000000000000000000000000000000000000000000000000000000000006001600160a01b03163314610ba9576040516391ac5e4f60e01b81523360048201526024015b60405180910390fd5b60208701803590610bc390610bbe908a61287d565b6114dd565b14610c0157610bd5602088018861287d565b60405163309afaf360e21b815263ffffffff909116600482015260208801356024820152604401610ba0565b610c1087878787878787611519565b50505050505050565b600033610c27858285611680565b610c328585856116fe565b60019150505b9392505050565b610c4761175d565b610c51828261178a565b5050565b60408051808201909152600080825260208201526000610c8560408501356060860135610b2b602088018861287d565b915050600080610c958684611340565b9092509050610cb2610caa602088018861287d565b8383886117df565b9695505050505050565b610c5182826118c0565b6000610cd38484846118f6565b949350505050565b600080610cea3386868661191e565b915091505b935093915050565b600360209081526000928352604080842090915290825290208054610d1b90612a01565b80601f0160208091040260200160405190810160405280929190818152602001828054610d4790612a01565b8015610d945780601f10610d6957610100808354040283529160200191610d94565b820191906000526020600020905b815481529060010190602001808311610d7757829003601f168201915b505050505081565b610da461175d565b600480546001600160a01b0319166001600160a01b0383169081179091556040519081527ff0be4f1e87349231d80c36b33f9e8639658eeaf474014dee15a3e6a4d4414197906020015b60405180910390a150565b610e0161175d565b610e0b6000611944565b565b6060600980546109e090612a01565b600033610a718185856116fe565b6000610a7782611994565b610e3d61175d565b610c51610e4a8284612aec565b6119c9565b63ffffffff8416600090815260036020908152604080832061ffff87168452909152812080546060929190610e8390612a01565b80601f0160208091040260200160405190810160405280929190818152602001828054610eaf90612a01565b8015610efc5780601f10610ed157610100808354040283529160200191610efc565b820191906000526020600020905b815481529060010190602001808311610edf57829003601f168201915b505050505090508051600003610f4c5783838080601f016020809104026020016040519081016040528093929190818152602001838380828437600092019190915250929450610cd39350505050565b6000839003610f5c579050610cd3565b60028310610fda57610fa384848080601f016020809104026020016040519081016040528093929190818152602001838380828437600092019190915250611ad092505050565b80610fb18460028188612c01565b604051602001610fc393929190612c2b565b604051602081830303815290604052915050610cd3565b8383604051639a6d49cd60e01b8152600401610ba0929190612c7c565b60005b81811015611100573683838381811061101557611015612c90565b90506020028101906110279190612ca6565b905061105a611039602083018361287d565b602083013563ffffffff919091166000908152600160205260409020541490565b61106457506110f8565b3063d045a0dc60c08301358360a0810135611083610100830183612cc7565b611094610100890160e08a01612743565b6110a26101208a018a612cc7565b6040518963ffffffff1660e01b81526004016110c49796959493929190612d0d565b6000604051808303818588803b1580156110dd57600080fd5b505af11580156110f1573d6000803e3d6000fd5b5050505050505b600101610ffa565b50336001600160a01b0316638e9e70996040518163ffffffff1660e01b8152600401600060405180830381865afa15801561113f573d6000803e3d6000fd5b505050506040513d6000823e601f3d908101601f191682016040526111679190810190612d93565b604051638351eea760e01b8152600401610ba0919061237c565b6000610a7782611afc565b611194612264565b6040805180820190915260008082526020820152610cea858585611b33565b6111bb61175d565b60405163ca5eb5e160e01b81526001600160a01b0382811660048301527f0000000000000000000000000000000000000000000000000000000000000000169063ca5eb5e190602401600060405180830381600087803b15801561121e57600080fd5b505af1158015611232573d6000803e3d6000fd5b5050505050565b3330146112595760405163029a949d60e31b815260040160405180910390fd5b610c1087878787878787610c01565b61127061175d565b600280546001600160a01b0319166001600160a01b0383169081179091556040519081527fd48d879cef83a1c0bdda516f27b13ddb1b3f8bbac1c9e1511bb2a659c242776090602001610dee565b600080610cea858585611475565b6112d461175d565b6001600160a01b0381166112fe57604051631e4fbdf760e01b815260006004820152602401610ba0565b61130781611944565b50565b6000602082018035906001908390611322908661287d565b63ffffffff1681526020810191909152604001600020541492915050565b606080600061139d8560200135611356866114b1565b61136360a0890189612cc7565b8080601f016020809104026020016040519081016040528093929190818152602001838380828437600092019190915250611c2e92505050565b90935090506000816113b05760016113b3565b60025b90506113d36113c5602088018861287d565b8261086660808a018a612cc7565b6004549093506001600160a01b031680156114595760405163043a78eb60e01b81526001600160a01b0382169063043a78eb906114169088908890600401612357565b602060405180830381865afa158015611433573d6000803e3d6000fd5b505050506040513d601f19601f820116820180604052508101906114579190612e00565b505b5050509250929050565b6114708383836001611ca8565b505050565b60008061148185611afc565b915081905083811015610cef576040516371c4efed60e01b81526004810182905260248101859052604401610ba0565b6000610a777f000000000000000000000000000000000000000000000000000000000000000083612e33565b63ffffffff811660009081526001602052604081205480610a775760405163f6ff4fb760e01b815263ffffffff84166004820152602401610ba0565b600061152b6115288787611d7d565b90565b90506000611557826115456115408a8a611d95565b611994565b61155260208d018d61287d565b6118f6565b9050602886111561161e57600061159461157760608c0160408d016127db565b61158460208d018d61287d565b8461158f8c8c611db8565b611e03565b604051633e5ac80960e11b81529091506001600160a01b037f00000000000000000000000000000000000000000000000000000000000000001690637cb59012906115ea9086908d906000908790600401612e55565b600060405180830381600087803b15801561160457600080fd5b505af1158015611618573d6000803e3d6000fd5b50505050505b6001600160a01b038216887fefed6d3500546b29533b128a29e3a94d70788727f0507505ac12eaf2e578fd9c61165760208d018d61287d565b6040805163ffffffff9092168252602082018690520160405180910390a3505050505050505050565b6001600160a01b0383811660009081526006602090815260408083209386168352929052205460001981146116f857818110156116e957604051637dc7a0d960e11b81526001600160a01b03841660048201526024810182905260448101839052606401610ba0565b6116f884848484036000611ca8565b50505050565b6001600160a01b03831661172857604051634b637e8f60e11b815260006004820152602401610ba0565b6001600160a01b0382166117525760405163ec442f0560e01b815260006004820152602401610ba0565b611470838383611e35565b6000546001600160a01b03163314610e0b5760405163118cdaa760e01b8152336004820152602401610ba0565b63ffffffff8216600081815260016020908152604091829020849055815192835282018390527f238399d427b947898edb290f5ff0f9109849b1c3ba196a42e35f00c50a54b98b910160405180910390a15050565b60408051808201909152600080825260208201527f00000000000000000000000000000000000000000000000000000000000000006001600160a01b031663ddc28c586040518060a001604052808863ffffffff168152602001611842896114dd565b8152602001878152602001868152602001851515815250306040518363ffffffff1660e01b8152600401611877929190612e86565b6040805180830381865afa158015611893573d6000803e3d6000fd5b505050506040513d601f19601f820116820180604052508101906118b79190612f2f565b95945050505050565b6001600160a01b0382166118ea5760405163ec442f0560e01b815260006004820152602401610ba0565b610c5160008383611e35565b60006001600160a01b03841661190c5761dead93505b61191684846118c0565b509092915050565b60008061192c858585611475565b909250905061193b8683611f5f565b94509492505050565b600080546001600160a01b038381166001600160a01b0319831681178455604051919092169283917f8be0079c531659141344cd1fd0a4f28419497f9722a3daafe3b4186f6b6457e09190a35050565b6000610a777f00000000000000000000000000000000000000000000000000000000000000006001600160401b038416612f4b565b60005b8151811015611aa0576119fb8282815181106119ea576119ea612c90565b602002602001015160400151611ad0565b818181518110611a0d57611a0d612c90565b60200260200101516040015160036000848481518110611a2f57611a2f612c90565b60200260200101516000015163ffffffff1663ffffffff1681526020019081526020016000206000848481518110611a6957611a69612c90565b60200260200101516020015161ffff1661ffff1681526020019081526020016000209081611a979190612fb2565b506001016119cc565b507fbe4864a8e820971c0247f5992e2da559595f7bf076a21cb5928d443d2a13b67481604051610dee9190613071565b600281015161ffff8116600314610c515781604051639a6d49cd60e01b8152600401610ba0919061237c565b60007f0000000000000000000000000000000000000000000000000000000000000000611b298184612e33565b610a779190612f4b565b611b3b612264565b6040805180820190915260008082526020820152600080611b7233604089013560608a0135611b6d60208c018c61287d565b61191e565b91509150600080611b838984611340565b9092509050611baf611b9860208b018b61287d565b8383611ba9368d90038d018d6130fc565b8b611f95565b60408051808201909152858152602080820186905282519298509096503391907f85496b760a4b7f8d66384b9df21b381f5d1b1e79f229a47aaf4c232edc2fe59a90611bfd908d018d61287d565b6040805163ffffffff909216825260208201899052810187905260600160405180910390a350505050935093915050565b8051606090151580611c77578484604051602001611c6392919091825260c01b6001600160c01b031916602082015260280190565b604051602081830303815290604052611c9e565b84843385604051602001611c8e949392919061312e565b6040516020818303038152906040525b9150935093915050565b6001600160a01b038416611cd25760405163e602df0560e01b815260006004820152602401610ba0565b6001600160a01b038316611cfc57604051634a1406b160e11b815260006004820152602401610ba0565b6001600160a01b03808516600090815260066020908152604080832093871683529290522082905580156116f857826001600160a01b0316846001600160a01b03167f8c5be1e5ebec7d5bd14f71427d1e84f3dd0314c0f7b2291e5b200ac8c7c3b92584604051611d6f91815260200190565b60405180910390a350505050565b6000611d8c6020828486612c01565b610c3891613171565b6000611da5602860208486612c01565b611dae9161318f565b60c01c9392505050565b6060611dc78260288186612c01565b8080601f016020809104026020016040519081016040528093929190818152602001838380828437600092019190915250929695505050505050565b606084848484604051602001611e1c94939291906131bf565b6040516020818303038152906040529050949350505050565b6001600160a01b038316611e60578060076000828254611e55919061320e565b90915550611ed29050565b6001600160a01b03831660009081526005602052604090205481811015611eb35760405163391434e360e21b81526001600160a01b03851660048201526024810182905260448101839052606401610ba0565b6001600160a01b03841660009081526005602052604090209082900390555b6001600160a01b038216611eee57600780548290039055611f0d565b6001600160a01b03821660009081526005602052604090208054820190555b816001600160a01b0316836001600160a01b03167fddf252ad1be2c89b69c2b068fc378daa952ba7f163c4a11628f55a4df523b3ef83604051611f5291815260200190565b60405180910390a3505050565b6001600160a01b038216611f8957604051634b637e8f60e11b815260006004820152602401610ba0565b610c5182600083611e35565b611f9d612264565b6000611fac84600001516120a0565b602085015190915015611fc657611fc684602001516120c8565b7f00000000000000000000000000000000000000000000000000000000000000006001600160a01b0316632637a450826040518060a001604052808b63ffffffff1681526020016120168c6114dd565b81526020018a815260200189815260200160008960200151111515815250866040518463ffffffff1660e01b8152600401612052929190612e86565b60806040518083038185885af1158015612070573d6000803e3d6000fd5b50505050506040513d601f19601f820116820180604052508101906120959190613221565b979650505050505050565b60008134146120c4576040516304fb820960e51b8152346004820152602401610ba0565b5090565b60007f00000000000000000000000000000000000000000000000000000000000000006001600160a01b031663e4fe1d946040518163ffffffff1660e01b8152600401602060405180830381865afa158015612128573d6000803e3d6000fd5b505050506040513d601f19601f8201168201806040525081019061214c919061326b565b90506001600160a01b038116612175576040516329b99a9560e11b815260040160405180910390fd5b6040805133602482018190527f00000000000000000000000000000000000000000000000000000000000000006001600160a01b0381811660448501526064808501889052855180860390910181526084909401909452602080840180516001600160e01b03166323b872dd60e01b1781528451610c519688169589936116f893889360009283929091839182885af180612216576040513d6000823e3d81fd5b50506000513d9150811561222e57806001141561223b565b6001600160a01b0384163b155b156116f857604051635274afe760e01b81526001600160a01b0385166004820152602401610ba0565b60405180606001604052806000801916815260200160006001600160401b031681526020016122a6604051806040016040528060008152602001600081525090565b905290565b600060e082840312156122bd57600080fd5b50919050565b600080604083850312156122d657600080fd5b82356001600160401b038111156122ec57600080fd5b6122f8858286016122ab565b95602094909401359450505050565b60005b8381101561232257818101518382015260200161230a565b50506000910152565b60008151808452612343816020860160208601612307565b601f01601f19169290920160200192915050565b60408152600061236a604083018561232b565b82810360208401526118b7818561232b565b602081526000610c38602083018461232b565b6001600160a01b038116811461130757600080fd5b600080604083850312156123b757600080fd5b82356123c28161238f565b946020939093013593505050565b6000602082840312156123e257600080fd5b81356001600160401b038111156123f857600080fd5b610cd3848285016122ab565b8351815260208085015190820152600060a08201604060a0604085015281865180845260c08601915060c08160051b8701019350602080890160005b8381101561247f5788870360bf1901855281518051885283015183880187905261246c8789018261232b565b9750509382019390820190600101612440565b50508751606088015250505060208501516080850152509050610cd3565b6000602082840312156124af57600080fd5b5035919050565b6000606082840312156122bd57600080fd5b60008083601f8401126124da57600080fd5b5081356001600160401b038111156124f157600080fd5b6020830191508360208285010111156109ca57600080fd5b600080600080600080600060e0888a03121561252457600080fd5b61252e89896124b6565b96506060880135955060808801356001600160401b038082111561255157600080fd5b61255d8b838c016124c8565b909750955060a08a013591506125728261238f565b90935060c0890135908082111561258857600080fd5b506125958a828b016124c8565b989b979a50959850939692959293505050565b6000806000606084860312156125bd57600080fd5b83356125c88161238f565b925060208401356125d88161238f565b929592945050506040919091013590565b803563ffffffff811681146125fd57600080fd5b919050565b6000806040838503121561261557600080fd5b6123c2836125e9565b801515811461130757600080fd5b6000806040838503121561263f57600080fd5b82356001600160401b0381111561265557600080fd5b612661858286016122ab565b92505060208301356126728161261e565b809150509250929050565b815181526020808301519082015260408101610a77565b6000806000606084860312156126a957600080fd5b83356126b48161238f565b9250602084013591506126c9604085016125e9565b90509250925092565b6000806000606084860312156126e757600080fd5b83359250602084013591506126c9604085016125e9565b803561ffff811681146125fd57600080fd5b6000806040838503121561272357600080fd5b61272c836125e9565b915061273a602084016126fe565b90509250929050565b60006020828403121561275557600080fd5b8135610c388161238f565b60008060008060a0858703121561277657600080fd5b61278086866124b6565b935060608501356001600160401b0381111561279b57600080fd5b6127a7878288016124c8565b90945092505060808501356127bb8161238f565b939692955090935050565b6001600160401b038116811461130757600080fd5b6000602082840312156127ed57600080fd5b8135610c38816127c6565b60008083601f84011261280a57600080fd5b5081356001600160401b0381111561282157600080fd5b6020830191508360208260051b85010111156109ca57600080fd5b6000806020838503121561284f57600080fd5b82356001600160401b0381111561286557600080fd5b612871858286016127f8565b90969095509350505050565b60006020828403121561288f57600080fd5b610c38826125e9565b600080600080606085870312156128ae57600080fd5b6128b7856125e9565b93506128c5602086016126fe565b925060408501356001600160401b038111156128e057600080fd5b6128ec878288016124c8565b95989497509550505050565b6000806000838503608081121561290e57600080fd5b84356001600160401b0381111561292457600080fd5b612930878288016122ab565b9450506040601f198201121561294557600080fd5b50602084019150606084013561295a8161238f565b809150509250925092565b600060c082019050835182526001600160401b03602085015116602083015260408401516129a0604084018280518252602090810151910152565b5082516080830152602083015160a0830152610c38565b600080604083850312156129ca57600080fd5b82356129d58161238f565b915060208301356126728161238f565b6000606082840312156129f757600080fd5b610c3883836124b6565b600181811c90821680612a1557607f821691505b6020821081036122bd57634e487b7160e01b600052602260045260246000fd5b634e487b7160e01b600052604160045260246000fd5b604051606081016001600160401b0381118282101715612a6d57612a6d612a35565b60405290565b604080519081016001600160401b0381118282101715612a6d57612a6d612a35565b604051601f8201601f191681016001600160401b0381118282101715612abd57612abd612a35565b604052919050565b60006001600160401b03821115612ade57612ade612a35565b50601f01601f191660200190565b60006001600160401b0380841115612b0657612b06612a35565b8360051b6020612b17818301612a95565b868152918501918181019036841115612b2f57600080fd5b865b84811015612bf557803586811115612b495760008081fd5b88016060368290031215612b5d5760008081fd5b612b65612a4b565b612b6e826125e9565b8152612b7b8683016126fe565b8682015260408083013589811115612b935760008081fd5b929092019136601f840112612ba85760008081fd5b8235612bbb612bb682612ac5565b612a95565b8181523689838701011115612bd05760008081fd5b818986018a830137600091810189019190915290820152845250918301918301612b31565b50979650505050505050565b60008085851115612c1157600080fd5b83861115612c1e57600080fd5b5050820193919092039150565b60008451612c3d818460208901612307565b8201838582376000930192835250909392505050565b81835281816020850137506000828201602090810191909152601f909101601f19169091010190565b602081526000610cd3602083018486612c53565b634e487b7160e01b600052603260045260246000fd5b6000823561013e19833603018112612cbd57600080fd5b9190910192915050565b6000808335601e19843603018112612cde57600080fd5b8301803591506001600160401b03821115612cf857600080fd5b6020019150368190038213156109ca57600080fd5b63ffffffff612d1b896125e9565b1681526020880135602082015260006040890135612d38816127c6565b6001600160401b03811660408401525087606083015260e06080830152612d6360e083018789612c53565b6001600160a01b03861660a084015282810360c0840152612d85818587612c53565b9a9950505050505050505050565b600060208284031215612da557600080fd5b81516001600160401b03811115612dbb57600080fd5b8201601f81018413612dcc57600080fd5b8051612dda612bb682612ac5565b818152856020838501011115612def57600080fd5b6118b7826020830160208601612307565b600060208284031215612e1257600080fd5b8151610c388161261e565b634e487b7160e01b600052601160045260246000fd5b600082612e5057634e487b7160e01b600052601260045260246000fd5b500490565b60018060a01b038516815283602082015261ffff83166040820152608060608201526000610cb2608083018461232b565b6040815263ffffffff8351166040820152602083015160608201526000604084015160a06080840152612ebc60e084018261232b565b90506060850151603f198483030160a0850152612ed9828261232b565b60809690960151151560c08501525050506001600160a01b039190911660209091015290565b600060408284031215612f1157600080fd5b612f19612a73565b9050815181526020820151602082015292915050565b600060408284031215612f4157600080fd5b610c388383612eff565b8082028115828204841417610a7757610a77612e1d565b601f821115611470576000816000526020600020601f850160051c81016020861015612f8b5750805b601f850160051c820191505b81811015612faa57828155600101612f97565b505050505050565b81516001600160401b03811115612fcb57612fcb612a35565b612fdf81612fd98454612a01565b84612f62565b602080601f8311600181146130145760008415612ffc5750858301515b600019600386901b1c1916600185901b178555612faa565b600085815260208120601f198616915b8281101561304357888601518255948401946001909101908401613024565b50858210156130615787850151600019600388901b60f8161c191681555b5050505050600190811b01905550565b600060208083018184528085518083526040925060408601915060408160051b87010184880160005b838110156130ee57888303603f190185528151805163ffffffff1684528781015161ffff168885015286015160608785018190526130da8186018361232b565b96890196945050509086019060010161309a565b509098975050505050505050565b60006040828403121561310e57600080fd5b613116612a73565b82358152602083013560208201528091505092915050565b8481526001600160401b0360c01b8460c01b16602082015282602882015260008251613161816048850160208701612307565b9190910160480195945050505050565b80356020831015610a7757600019602084900360031b1b1692915050565b6001600160c01b031981358181169160088510156131b75780818660080360031b1b83161692505b505092915050565b6001600160401b0360c01b8560c01b16815263ffffffff60e01b8460e01b16600882015282600c820152600082516131fe81602c850160208701612307565b91909101602c0195945050505050565b80820180821115610a7757610a77612e1d565b60006080828403121561323357600080fd5b61323b612a4b565b82518152602083015161324d816127c6565b602082015261325f8460408501612eff565b60408201529392505050565b60006020828403121561327d57600080fd5b8151610c388161238f56fea2646970667358221220c184047f55d32f63a680c09336614b1b1422300e42596cef498353ab916c762e64736f6c63430008160033",
    "linkReferences": {}
  },
  "methodIdentifiers": {
    "SEND()": "1f5e1334",
    "SEND_AND_CALL()": "134d4f25",
    "allowInitializePath((uint32,bytes32,uint64))": "ff7bd03d",
    "allowance(address,address)": "dd62ed3e",
    "approvalRequired()": "9f68b964",
    "approve(address,uint256)": "095ea7b3",
    "balanceOf(address)": "70a08231",
    "buildMsgAndOptions((uint32,bytes32,uint256,uint256,bytes,bytes,bytes),uint256)": "056d62de",
    "combineOptions(uint32,uint16,bytes)": "bc70b354",
    "credit(address,uint256,uint32)": "4dba701b",
    "debit(uint256,uint256,uint32)": "54f52414",
    "debitView(uint256,uint256,uint32)": "f0163023",
    "decimalConversionRate()": "963efcaa",
    "decimals()": "313ce567",
    "endpoint()": "5e280f11",
    "enforcedOptions(uint32,uint16)": "5535d461",
    "isComposeMsgSender((uint32,bytes32,uint64),bytes,address)": "82413eac",
    "isPeer(uint32,bytes32)": "5a0dfe4d",
    "lzReceive((uint32,bytes32,uint64),bytes32,bytes,address,bytes)": "13137d65",
    "lzReceiveAndRevert(((uint32,bytes32,uint64),uint32,address,bytes32,uint256,address,bytes,bytes)[])": "bd815db0",
    "lzReceiveSimulate((uint32,bytes32,uint64),bytes32,bytes,address,bytes)": "d045a0dc",
    "mint(address,uint256)": "40c10f19",
    "msgInspector()": "111ecdad",
    "name()": "06fdde03",
    "nextNonce(uint32,bytes32)": "7d25a05e",
    "oApp()": "52ae2879",
    "oAppVersion()": "17442b70",
    "oftVersion()": "156a0d0f",
    "owner()": "8da5cb5b",
    "peers(uint32)": "bb0b6a53",
    "preCrime()": "b731ea0a",
    "quoteOFT((uint32,bytes32,uint256,uint256,bytes,bytes,bytes))": "0d35b415",
    "quoteSend((uint32,bytes32,uint256,uint256,bytes,bytes,bytes),bool)": "3b6f743b",
    "removeDust(uint256)": "c0779988",
    "renounceOwnership()": "715018a6",
    "send((uint32,bytes32,uint256,uint256,bytes,bytes,bytes),(uint256,uint256),address)": "c7c7f5b3",
    "setDelegate(address)": "ca5eb5e1",
    "setEnforcedOptions((uint32,uint16,bytes)[])": "b98bd070",
    "setMsgInspector(address)": "6fc1b31e",
    "setPeer(uint32,bytes32)": "3400288b",
    "setPreCrime(address)": "d4243885",
    "sharedDecimals()": "857749b0",
    "symbol()": "95d89b41",
    "toLD(uint64)": "b3a5abeb",
    "toSD(uint256)": "0e78842c",
    "token()": "fc0c546a",
    "totalSupply()": "18160ddd",
    "transfer(address,uint256)": "a9059cbb",
    "transferFrom(address,address,uint256)": "23b872dd",
    "transferOwnership(address)": "f2fde38b"
  },
  "id": 131
}