{
  "abi": [
    {
      "type": "constructor",
      "inputs": [
        {
          "name": "_localEidV2",
          "type": "uint32",
          "internalType": "uint32"
        },
        {
          "name": "_vid",
          "type": "uint32",
          "internalType": "uint32"
        },
        {
          "name": "_messageLibs",
          "type": "address[]",
          "internalType": "address[]"
        },
        {
          "name": "_priceFeed",
          "type": "address",
          "internalType": "address"
        },
        {
          "name": "_signers",
          "type": "address[]",
          "internalType": "address[]"
        },
        {
          "name": "_quorum",
          "type": "uint64",
          "internalType": "uint64"
        },
        {
          "name": "_admins",
          "type": "address[]",
          "internalType": "address[]"
        }
      ],
      "stateMutability": "nonpayable"
    },
    {
      "type": "function",
      "name": "DEFAULT_ADMIN_ROLE",
      "inputs": [],
      "outputs": [
        {
          "name": "",
          "type": "bytes32",
          "internalType": "bytes32"
        }
      ],
      "stateMutability": "view"
    },
    {
      "type": "function",
      "name": "allowlistSize",
      "inputs": [],
      "outputs": [
        {
          "name": "",
          "type": "uint64",
          "internalType": "uint64"
        }
      ],
      "stateMutability": "view"
    },
    {
      "type": "function",
      "name": "assignJob",
      "inputs": [
        {
          "name": "_param",
          "type": "tuple",
          "internalType": "struct ILayerZeroDVN.AssignJobParam",
          "components": [
            {
              "name": "dstEid",
              "type": "uint32",
              "internalType": "uint32"
            },
            {
              "name": "packetHeader",
              "type": "bytes",
              "internalType": "bytes"
            },
            {
              "name": "payloadHash",
              "type": "bytes32",
              "internalType": "bytes32"
            },
            {
              "name": "confirmations",
              "type": "uint64",
              "internalType": "uint64"
            },
            {
              "name": "sender",
              "type": "address",
              "internalType": "address"
            }
          ]
        },
        {
          "name": "_options",
          "type": "bytes",
          "internalType": "bytes"
        }
      ],
      "outputs": [
        {
          "name": "totalFee",
          "type": "uint256",
          "internalType": "uint256"
        }
      ],
      "stateMutability": "payable"
    },
    {
      "type": "function",
      "name": "assignJob",
      "inputs": [
        {
          "name": "_dstEid",
          "type": "uint16",
          "internalType": "uint16"
        },
        {
          "name": "",
          "type": "uint16",
          "internalType": "uint16"
        },
        {
          "name": "_confirmations",
          "type": "uint64",
          "internalType": "uint64"
        },
        {
          "name": "_sender",
          "type": "address",
          "internalType": "address"
        }
      ],
      "outputs": [
        {
          "name": "totalFee",
          "type": "uint256",
          "internalType": "uint256"
        }
      ],
      "stateMutability": "nonpayable"
    },
    {
      "type": "function",
      "name": "assignJob",
      "inputs": [
        {
          "name": "_sender",
          "type": "address",
          "internalType": "address"
        },
        {
          "name": "",
          "type": "bytes",
          "internalType": "bytes"
        },
        {
          "name": "_cmd",
          "type": "bytes",
          "internalType": "bytes"
        },
        {
          "name": "_options",
          "type": "bytes",
          "internalType": "bytes"
        }
      ],
      "outputs": [
        {
          "name": "fee",
          "type": "uint256",
          "internalType": "uint256"
        }
      ],
      "stateMutability": "payable"
    },
    {
      "type": "function",
      "name": "defaultMultiplierBps",
      "inputs": [],
      "outputs": [
        {
          "name": "",
          "type": "uint16",
          "internalType": "uint16"
        }
      ],
      "stateMutability": "view"
    },
    {
      "type": "function",
      "name": "dstConfig",
      "inputs": [
        {
          "name": "dstEid",
          "type": "uint32",
          "internalType": "uint32"
        }
      ],
      "outputs": [
        {
          "name": "gas",
          "type": "uint64",
          "internalType": "uint64"
        },
        {
          "name": "multiplierBps",
          "type": "uint16",
          "internalType": "uint16"
        },
        {
          "name": "floorMarginUSD",
          "type": "uint128",
          "internalType": "uint128"
        }
      ],
      "stateMutability": "view"
    },
    {
      "type": "function",
      "name": "execute",
      "inputs": [
        {
          "name": "_params",
          "type": "tuple[]",
          "internalType": "struct ExecuteParam[]",
          "components": [
            {
              "name": "vid",
              "type": "uint32",
              "internalType": "uint32"
            },
            {
              "name": "target",
              "type": "address",
              "internalType": "address"
            },
            {
              "name": "callData",
              "type": "bytes",
              "internalType": "bytes"
            },
            {
              "name": "expiration",
              "type": "uint256",
              "internalType": "uint256"
            },
            {
              "name": "signatures",
              "type": "bytes",
              "internalType": "bytes"
            }
          ]
        }
      ],
      "outputs": [],
      "stateMutability": "nonpayable"
    },
    {
      "type": "function",
      "name": "getFee",
      "inputs": [
        {
          "name": "_dstEid",
          "type": "uint32",
          "internalType": "uint32"
        },
        {
          "name": "_confirmations",
          "type": "uint64",
          "internalType": "uint64"
        },
        {
          "name": "_sender",
          "type": "address",
          "internalType": "address"
        },
        {
          "name": "_options",
          "type": "bytes",
          "internalType": "bytes"
        }
      ],
      "outputs": [
        {
          "name": "fee",
          "type": "uint256",
          "internalType": "uint256"
        }
      ],
      "stateMutability": "view"
    },
    {
      "type": "function",
      "name": "getFee",
      "inputs": [
        {
          "name": "_dstEid",
          "type": "uint16",
          "internalType": "uint16"
        },
        {
          "name": "",
          "type": "uint16",
          "internalType": "uint16"
        },
        {
          "name": "_confirmations",
          "type": "uint64",
          "internalType": "uint64"
        },
        {
          "name": "_sender",
          "type": "address",
          "internalType": "address"
        }
      ],
      "outputs": [
        {
          "name": "fee",
          "type": "uint256",
          "internalType": "uint256"
        }
      ],
      "stateMutability": "view"
    },
    {
      "type": "function",
      "name": "getFee",
      "inputs": [
        {
          "name": "_sender",
          "type": "address",
          "internalType": "address"
        },
        {
          "name": "",
          "type": "bytes",
          "internalType": "bytes"
        },
        {
          "name": "_cmd",
          "type": "bytes",
          "internalType": "bytes"
        },
        {
          "name": "_options",
          "type": "bytes",
          "internalType": "bytes"
        }
      ],
      "outputs": [
        {
          "name": "fee",
          "type": "uint256",
          "internalType": "uint256"
        }
      ],
      "stateMutability": "view"
    },
    {
      "type": "function",
      "name": "getRoleAdmin",
      "inputs": [
        {
          "name": "role",
          "type": "bytes32",
          "internalType": "bytes32"
        }
      ],
      "outputs": [
        {
          "name": "",
          "type": "bytes32",
          "internalType": "bytes32"
        }
      ],
      "stateMutability": "view"
    },
    {
      "type": "function",
      "name": "getSupportedOptionTypes",
      "inputs": [
        {
          "name": "_eid",
          "type": "uint32",
          "internalType": "uint32"
        }
      ],
      "outputs": [
        {
          "name": "",
          "type": "uint8[]",
          "internalType": "uint8[]"
        }
      ],
      "stateMutability": "view"
    },
    {
      "type": "function",
      "name": "grantRole",
      "inputs": [
        {
          "name": "_role",
          "type": "bytes32",
          "internalType": "bytes32"
        },
        {
          "name": "_account",
          "type": "address",
          "internalType": "address"
        }
      ],
      "outputs": [],
      "stateMutability": "nonpayable"
    },
    {
      "type": "function",
      "name": "hasAcl",
      "inputs": [
        {
          "name": "_sender",
          "type": "address",
          "internalType": "address"
        }
      ],
      "outputs": [
        {
          "name": "",
          "type": "bool",
          "internalType": "bool"
        }
      ],
      "stateMutability": "view"
    },
    {
      "type": "function",
      "name": "hasRole",
      "inputs": [
        {
          "name": "role",
          "type": "bytes32",
          "internalType": "bytes32"
        },
        {
          "name": "account",
          "type": "address",
          "internalType": "address"
        }
      ],
      "outputs": [
        {
          "name": "",
          "type": "bool",
          "internalType": "bool"
        }
      ],
      "stateMutability": "view"
    },
    {
      "type": "function",
      "name": "hashCallData",
      "inputs": [
        {
          "name": "_vid",
          "type": "uint32",
          "internalType": "uint32"
        },
        {
          "name": "_target",
          "type": "address",
          "internalType": "address"
        },
        {
          "name": "_callData",
          "type": "bytes",
          "internalType": "bytes"
        },
        {
          "name": "_expiration",
          "type": "uint256",
          "internalType": "uint256"
        }
      ],
      "outputs": [
        {
          "name": "",
          "type": "bytes32",
          "internalType": "bytes32"
        }
      ],
      "stateMutability": "pure"
    },
    {
      "type": "function",
      "name": "localEidV2",
      "inputs": [],
      "outputs": [
        {
          "name": "",
          "type": "uint32",
          "internalType": "uint32"
        }
      ],
      "stateMutability": "view"
    },
    {
      "type": "function",
      "name": "paused",
      "inputs": [],
      "outputs": [
        {
          "name": "",
          "type": "bool",
          "internalType": "bool"
        }
      ],
      "stateMutability": "view"
    },
    {
      "type": "function",
      "name": "priceFeed",
      "inputs": [],
      "outputs": [
        {
          "name": "",
          "type": "address",
          "internalType": "address"
        }
      ],
      "stateMutability": "view"
    },
    {
      "type": "function",
      "name": "quorum",
      "inputs": [],
      "outputs": [
        {
          "name": "",
          "type": "uint64",
          "internalType": "uint64"
        }
      ],
      "stateMutability": "view"
    },
    {
      "type": "function",
      "name": "quorumChangeAdmin",
      "inputs": [
        {
          "name": "_param",
          "type": "tuple",
          "internalType": "struct ExecuteParam",
          "components": [
            {
              "name": "vid",
              "type": "uint32",
              "internalType": "uint32"
            },
            {
              "name": "target",
              "type": "address",
              "internalType": "address"
            },
            {
              "name": "callData",
              "type": "bytes",
              "internalType": "bytes"
            },
            {
              "name": "expiration",
              "type": "uint256",
              "internalType": "uint256"
            },
            {
              "name": "signatures",
              "type": "bytes",
              "internalType": "bytes"
            }
          ]
        }
      ],
      "outputs": [],
      "stateMutability": "nonpayable"
    },
    {
      "type": "function",
      "name": "renounceRole",
      "inputs": [
        {
          "name": "",
          "type": "bytes32",
          "internalType": "bytes32"
        },
        {
          "name": "",
          "type": "address",
          "internalType": "address"
        }
      ],
      "outputs": [],
      "stateMutability": "pure"
    },
    {
      "type": "function",
      "name": "revokeRole",
      "inputs": [
        {
          "name": "_role",
          "type": "bytes32",
          "internalType": "bytes32"
        },
        {
          "name": "_account",
          "type": "address",
          "internalType": "address"
        }
      ],
      "outputs": [],
      "stateMutability": "nonpayable"
    },
    {
      "type": "function",
      "name": "setDefaultMultiplierBps",
      "inputs": [
        {
          "name": "_multiplierBps",
          "type": "uint16",
          "internalType": "uint16"
        }
      ],
      "outputs": [],
      "stateMutability": "nonpayable"
    },
    {
      "type": "function",
      "name": "setDstConfig",
      "inputs": [
        {
          "name": "_params",
          "type": "tuple[]",
          "internalType": "struct IDVN.DstConfigParam[]",
          "components": [
            {
              "name": "dstEid",
              "type": "uint32",
              "internalType": "uint32"
            },
            {
              "name": "gas",
              "type": "uint64",
              "internalType": "uint64"
            },
            {
              "name": "multiplierBps",
              "type": "uint16",
              "internalType": "uint16"
            },
            {
              "name": "floorMarginUSD",
              "type": "uint128",
              "internalType": "uint128"
            }
          ]
        }
      ],
      "outputs": [],
      "stateMutability": "nonpayable"
    },
    {
      "type": "function",
      "name": "setPaused",
      "inputs": [
        {
          "name": "_paused",
          "type": "bool",
          "internalType": "bool"
        }
      ],
      "outputs": [],
      "stateMutability": "nonpayable"
    },
    {
      "type": "function",
      "name": "setPriceFeed",
      "inputs": [
        {
          "name": "_priceFeed",
          "type": "address",
          "internalType": "address"
        }
      ],
      "outputs": [],
      "stateMutability": "nonpayable"
    },
    {
      "type": "function",
      "name": "setQuorum",
      "inputs": [
        {
          "name": "_quorum",
          "type": "uint64",
          "internalType": "uint64"
        }
      ],
      "outputs": [],
      "stateMutability": "nonpayable"
    },
    {
      "type": "function",
      "name": "setSigner",
      "inputs": [
        {
          "name": "_signer",
          "type": "address",
          "internalType": "address"
        },
        {
          "name": "_active",
          "type": "bool",
          "internalType": "bool"
        }
      ],
      "outputs": [],
      "stateMutability": "nonpayable"
    },
    {
      "type": "function",
      "name": "setSupportedOptionTypes",
      "inputs": [
        {
          "name": "_eid",
          "type": "uint32",
          "internalType": "uint32"
        },
        {
          "name": "_optionTypes",
          "type": "uint8[]",
          "internalType": "uint8[]"
        }
      ],
      "outputs": [],
      "stateMutability": "nonpayable"
    },
    {
      "type": "function",
      "name": "setWorkerFeeLib",
      "inputs": [
        {
          "name": "_workerFeeLib",
          "type": "address",
          "internalType": "address"
        }
      ],
      "outputs": [],
      "stateMutability": "nonpayable"
    },
    {
      "type": "function",
      "name": "signerSize",
      "inputs": [],
      "outputs": [
        {
          "name": "",
          "type": "uint64",
          "internalType": "uint64"
        }
      ],
      "stateMutability": "view"
    },
    {
      "type": "function",
      "name": "signers",
      "inputs": [
        {
          "name": "signer",
          "type": "address",
          "internalType": "address"
        }
      ],
      "outputs": [
        {
          "name": "active",
          "type": "bool",
          "internalType": "bool"
        }
      ],
      "stateMutability": "view"
    },
    {
      "type": "function",
      "name": "supportsInterface",
      "inputs": [
        {
          "name": "interfaceId",
          "type": "bytes4",
          "internalType": "bytes4"
        }
      ],
      "outputs": [
        {
          "name": "",
          "type": "bool",
          "internalType": "bool"
        }
      ],
      "stateMutability": "view"
    },
    {
      "type": "function",
      "name": "usedHashes",
      "inputs": [
        {
          "name": "executableHash",
          "type": "bytes32",
          "internalType": "bytes32"
        }
      ],
      "outputs": [
        {
          "name": "used",
          "type": "bool",
          "internalType": "bool"
        }
      ],
      "stateMutability": "view"
    },
    {
      "type": "function",
      "name": "verifySignatures",
      "inputs": [
        {
          "name": "_hash",
          "type": "bytes32",
          "internalType": "bytes32"
        },
        {
          "name": "_signatures",
          "type": "bytes",
          "internalType": "bytes"
        }
      ],
      "outputs": [
        {
          "name": "",
          "type": "bool",
          "internalType": "bool"
        },
        {
          "name": "",
          "type": "uint8",
          "internalType": "enum MultiSigMock.Errors"
        }
      ],
      "stateMutability": "view"
    },
    {
      "type": "function",
      "name": "vid",
      "inputs": [],
      "outputs": [
        {
          "name": "",
          "type": "uint32",
          "internalType": "uint32"
        }
      ],
      "stateMutability": "view"
    },
    {
      "type": "function",
      "name": "withdrawFee",
      "inputs": [
        {
          "name": "_lib",
          "type": "address",
          "internalType": "address"
        },
        {
          "name": "_to",
          "type": "address",
          "internalType": "address"
        },
        {
          "name": "_amount",
          "type": "uint256",
          "internalType": "uint256"
        }
      ],
      "outputs": [],
      "stateMutability": "nonpayable"
    },
    {
      "type": "function",
      "name": "withdrawFeeFromUlnV2",
      "inputs": [
        {
          "name": "_lib",
          "type": "address",
          "internalType": "address"
        },
        {
          "name": "_to",
          "type": "address",
          "internalType": "address payable"
        },
        {
          "name": "_amount",
          "type": "uint256",
          "internalType": "uint256"
        }
      ],
      "outputs": [],
      "stateMutability": "nonpayable"
    },
    {
      "type": "function",
      "name": "withdrawToken",
      "inputs": [
        {
          "name": "_token",
          "type": "address",
          "internalType": "address"
        },
        {
          "name": "_to",
          "type": "address",
          "internalType": "address"
        },
        {
          "name": "_amount",
          "type": "uint256",
          "internalType": "uint256"
        }
      ],
      "outputs": [],
      "stateMutability": "nonpayable"
    },
    {
      "type": "function",
      "name": "workerFeeLib",
      "inputs": [],
      "outputs": [
        {
          "name": "",
          "type": "address",
          "internalType": "address"
        }
      ],
      "stateMutability": "view"
    },
    {
      "type": "event",
      "name": "ExecuteFailed",
      "inputs": [
        {
          "name": "_index",
          "type": "uint256",
          "indexed": false,
          "internalType": "uint256"
        },
        {
          "name": "_data",
          "type": "bytes",
          "indexed": false,
          "internalType": "bytes"
        }
      ],
      "anonymous": false
    },
    {
      "type": "event",
      "name": "HashAlreadyUsed",
      "inputs": [
        {
          "name": "param",
          "type": "tuple",
          "indexed": false,
          "internalType": "struct ExecuteParam",
          "components": [
            {
              "name": "vid",
              "type": "uint32",
              "internalType": "uint32"
            },
            {
              "name": "target",
              "type": "address",
              "internalType": "address"
            },
            {
              "name": "callData",
              "type": "bytes",
              "internalType": "bytes"
            },
            {
              "name": "expiration",
              "type": "uint256",
              "internalType": "uint256"
            },
            {
              "name": "signatures",
              "type": "bytes",
              "internalType": "bytes"
            }
          ]
        },
        {
          "name": "_hash",
          "type": "bytes32",
          "indexed": false,
          "internalType": "bytes32"
        }
      ],
      "anonymous": false
    },
    {
      "type": "event",
      "name": "Paused",
      "inputs": [
        {
          "name": "account",
          "type": "address",
          "indexed": false,
          "internalType": "address"
        }
      ],
      "anonymous": false
    },
    {
      "type": "event",
      "name": "RoleAdminChanged",
      "inputs": [
        {
          "name": "role",
          "type": "bytes32",
          "indexed": true,
          "internalType": "bytes32"
        },
        {
          "name": "previousAdminRole",
          "type": "bytes32",
          "indexed": true,
          "internalType": "bytes32"
        },
        {
          "name": "newAdminRole",
          "type": "bytes32",
          "indexed": true,
          "internalType": "bytes32"
        }
      ],
      "anonymous": false
    },
    {
      "type": "event",
      "name": "RoleGranted",
      "inputs": [
        {
          "name": "role",
          "type": "bytes32",
          "indexed": true,
          "internalType": "bytes32"
        },
        {
          "name": "account",
          "type": "address",
          "indexed": true,
          "internalType": "address"
        },
        {
          "name": "sender",
          "type": "address",
          "indexed": true,
          "internalType": "address"
        }
      ],
      "anonymous": false
    },
    {
      "type": "event",
      "name": "RoleRevoked",
      "inputs": [
        {
          "name": "role",
          "type": "bytes32",
          "indexed": true,
          "internalType": "bytes32"
        },
        {
          "name": "account",
          "type": "address",
          "indexed": true,
          "internalType": "address"
        },
        {
          "name": "sender",
          "type": "address",
          "indexed": true,
          "internalType": "address"
        }
      ],
      "anonymous": false
    },
    {
      "type": "event",
      "name": "SetDefaultMultiplierBps",
      "inputs": [
        {
          "name": "multiplierBps",
          "type": "uint16",
          "indexed": false,
          "internalType": "uint16"
        }
      ],
      "anonymous": false
    },
    {
      "type": "event",
      "name": "SetDstConfig",
      "inputs": [
        {
          "name": "params",
          "type": "tuple[]",
          "indexed": false,
          "internalType": "struct IDVN.DstConfigParam[]",
          "components": [
            {
              "name": "dstEid",
              "type": "uint32",
              "internalType": "uint32"
            },
            {
              "name": "gas",
              "type": "uint64",
              "internalType": "uint64"
            },
            {
              "name": "multiplierBps",
              "type": "uint16",
              "internalType": "uint16"
            },
            {
              "name": "floorMarginUSD",
              "type": "uint128",
              "internalType": "uint128"
            }
          ]
        }
      ],
      "anonymous": false
    },
    {
      "type": "event",
      "name": "SetPriceFeed",
      "inputs": [
        {
          "name": "priceFeed",
          "type": "address",
          "indexed": false,
          "internalType": "address"
        }
      ],
      "anonymous": false
    },
    {
      "type": "event",
      "name": "SetSupportedOptionTypes",
      "inputs": [
        {
          "name": "dstEid",
          "type": "uint32",
          "indexed": false,
          "internalType": "uint32"
        },
        {
          "name": "optionTypes",
          "type": "uint8[]",
          "indexed": false,
          "internalType": "uint8[]"
        }
      ],
      "anonymous": false
    },
    {
      "type": "event",
      "name": "SetWorkerLib",
      "inputs": [
        {
          "name": "workerLib",
          "type": "address",
          "indexed": false,
          "internalType": "address"
        }
      ],
      "anonymous": false
    },
    {
      "type": "event",
      "name": "Unpaused",
      "inputs": [
        {
          "name": "account",
          "type": "address",
          "indexed": false,
          "internalType": "address"
        }
      ],
      "anonymous": false
    },
    {
      "type": "event",
      "name": "UpdateQuorum",
      "inputs": [
        {
          "name": "_quorum",
          "type": "uint64",
          "indexed": false,
          "internalType": "uint64"
        }
      ],
      "anonymous": false
    },
    {
      "type": "event",
      "name": "UpdateSigner",
      "inputs": [
        {
          "name": "_signer",
          "type": "address",
          "indexed": false,
          "internalType": "address"
        },
        {
          "name": "_active",
          "type": "bool",
          "indexed": false,
          "internalType": "bool"
        }
      ],
      "anonymous": false
    },
    {
      "type": "event",
      "name": "VerifierFeePaid",
      "inputs": [
        {
          "name": "fee",
          "type": "uint256",
          "indexed": false,
          "internalType": "uint256"
        }
      ],
      "anonymous": false
    },
    {
      "type": "event",
      "name": "VerifySignaturesFailed",
      "inputs": [
        {
          "name": "idx",
          "type": "uint256",
          "indexed": false,
          "internalType": "uint256"
        }
      ],
      "anonymous": false
    },
    {
      "type": "event",
      "name": "Withdraw",
      "inputs": [
        {
          "name": "lib",
          "type": "address",
          "indexed": false,
          "internalType": "address"
        },
        {
          "name": "to",
          "type": "address",
          "indexed": false,
          "internalType": "address"
        },
        {
          "name": "amount",
          "type": "uint256",
          "indexed": false,
          "internalType": "uint256"
        }
      ],
      "anonymous": false
    },
    {
      "type": "error",
      "name": "AccessControlBadConfirmation",
      "inputs": []
    },
    {
      "type": "error",
      "name": "AccessControlUnauthorizedAccount",
      "inputs": [
        {
          "name": "account",
          "type": "address",
          "internalType": "address"
        },
        {
          "name": "neededRole",
          "type": "bytes32",
          "internalType": "bytes32"
        }
      ]
    },
    {
      "type": "error",
      "name": "DVN_DuplicatedHash",
      "inputs": [
        {
          "name": "executableHash",
          "type": "bytes32",
          "internalType": "bytes32"
        }
      ]
    },
    {
      "type": "error",
      "name": "DVN_InstructionExpired",
      "inputs": []
    },
    {
      "type": "error",
      "name": "DVN_InvalidRole",
      "inputs": [
        {
          "name": "role",
          "type": "bytes32",
          "internalType": "bytes32"
        }
      ]
    },
    {
      "type": "error",
      "name": "DVN_InvalidSignatures",
      "inputs": []
    },
    {
      "type": "error",
      "name": "DVN_InvalidTarget",
      "inputs": [
        {
          "name": "target",
          "type": "address",
          "internalType": "address"
        }
      ]
    },
    {
      "type": "error",
      "name": "DVN_InvalidVid",
      "inputs": [
        {
          "name": "vid",
          "type": "uint32",
          "internalType": "uint32"
        }
      ]
    },
    {
      "type": "error",
      "name": "DVN_OnlySelf",
      "inputs": []
    },
    {
      "type": "error",
      "name": "EnforcedPause",
      "inputs": []
    },
    {
      "type": "error",
      "name": "ExpectedPause",
      "inputs": []
    },
    {
      "type": "error",
      "name": "MultiSig_OnlySigner",
      "inputs": []
    },
    {
      "type": "error",
      "name": "MultiSig_QuorumIsZero",
      "inputs": []
    },
    {
      "type": "error",
      "name": "MultiSig_SignersSizeIsLessThanQuorum",
      "inputs": [
        {
          "name": "signersSize",
          "type": "uint64",
          "internalType": "uint64"
        },
        {
          "name": "quorum",
          "type": "uint64",
          "internalType": "uint64"
        }
      ]
    },
    {
      "type": "error",
      "name": "MultiSig_StateAlreadySet",
      "inputs": [
        {
          "name": "signer",
          "type": "address",
          "internalType": "address"
        },
        {
          "name": "active",
          "type": "bool",
          "internalType": "bool"
        }
      ]
    },
    {
      "type": "error",
      "name": "MultiSig_UnorderedSigners",
      "inputs": []
    },
    {
      "type": "error",
      "name": "SafeERC20FailedOperation",
      "inputs": [
        {
          "name": "token",
          "type": "address",
          "internalType": "address"
        }
      ]
    },
    {
      "type": "error",
      "name": "Transfer_NativeFailed",
      "inputs": [
        {
          "name": "_to",
          "type": "address",
          "internalType": "address"
        },
        {
          "name": "_value",
          "type": "uint256",
          "internalType": "uint256"
        }
      ]
    },
    {
      "type": "error",
      "name": "Transfer_ToAddressIsZero",
      "inputs": []
    },
    {
      "type": "error",
      "name": "Worker_NotAllowed",
      "inputs": []
    },
    {
      "type": "error",
      "name": "Worker_OnlyMessageLib",
      "inputs": []
    },
    {
      "type": "error",
      "name": "Worker_RoleRenouncingDisabled",
      "inputs": []
    }
  ],
  "bytecode": {
    "object": "0x60c06040523480156200001157600080fd5b5060405162003bf738038062003bf78339810160408190526200003491620004de565b6001805460ff61ffff60e81b01191661017760ed1b179055600280546001600160a01b0319166001600160a01b03861617905582828686612ee060008660005b8551811015620000d657620000cc7f724aface199fe5bed93ae8508474576a9adf3dc443b2c451842a2242919f19de878381518110620000b857620000b8620005c2565b60200260200101516200028060201b60201c565b5060010162000074565b5060005b815181101562000128576200011e7fa49807205ce4d355092ef5a8a18f56e8913cf4a201fbe287825b095693c21775838381518110620000b857620000b8620005c2565b50600101620000da565b505050505050806001600160401b03166000036200015957604051635f86e17760e01b815260040160405180910390fd5b806001600160401b0316825110156200019f5781516040516378e2c15760e11b81526001600160401b039182166004820152908216602482015260440160405180910390fd5b6000805b835181101562000231576000848281518110620001c457620001c4620005c2565b60200260200101519050826001600160a01b0316816001600160a01b03161162000201576040516305fa937f60e11b815260040160405180910390fd5b6001600160a01b0381166000908152600460205260409020805460ff1916600190811790915590925001620001a3565b50509051600580546001600160401b0393841668010000000000000000026001600160801b0319909116939092169290921717905550505063ffffffff92831660805250501660a05262000615565b60007f74845de37cfabd357633214b47fa91ccd19b05b7c5a08ac22c187f811fb62bca83148015620002d357506000838152602081815260408083206001600160a01b038616845290915290205460ff16155b15620003205760018054601590620002fb90600160a81b90046001600160401b0316620005d8565b91906101000a8154816001600160401b0302191690836001600160401b031602179055505b6200032c838362000338565b50600190505b92915050565b6000828152602081815260408083206001600160a01b038516845290915281205460ff16620003dd576000838152602081815260408083206001600160a01b03861684529091529020805460ff19166001179055620003943390565b6001600160a01b0316826001600160a01b0316847f2f8788117e7eff1d82e926ec794901d17c78024a50270940304540a733656f0d60405160405180910390a450600162000332565b50600062000332565b805163ffffffff81168114620003fb57600080fd5b919050565b634e487b7160e01b600052604160045260246000fd5b80516001600160a01b0381168114620003fb57600080fd5b600082601f8301126200044057600080fd5b815160206001600160401b03808311156200045f576200045f62000400565b8260051b604051601f19603f8301168101818110848211171562000487576200048762000400565b6040529384526020818701810194908101925087851115620004a857600080fd5b6020870191505b84821015620004d357620004c38262000416565b83529183019190830190620004af565b979650505050505050565b600080600080600080600060e0888a031215620004fa57600080fd5b6200050588620003e6565b96506200051560208901620003e6565b60408901519096506001600160401b03808211156200053357600080fd5b620005418b838c016200042e565b96506200055160608b0162000416565b955060808a01519150808211156200056857600080fd5b620005768b838c016200042e565b945060a08a0151915080821682146200058e57600080fd5b60c08a015191935080821115620005a457600080fd5b50620005b38a828b016200042e565b91505092959891949750929550565b634e487b7160e01b600052603260045260246000fd5b60006001600160401b038281166002600160401b031981016200060b57634e487b7160e01b600052601160045260246000fd5b6001019392505050565b60805160a0516135a0620006576000396000818161081d01528181611d5a0152611e8f01526000818161076d015281816112b00152611b9801526135a06000f3fe6080604052600436106102505760003560e01c806395d376d711610139578063cd88b903116100b6578063e395eb5c1161007a578063e395eb5c1461080b578063f010cb231461083f578063f3b4ebd01461085f578063f42ed2ed1461087f578063fd62e75014610892578063fdb9b0f1146108b257600080fd5b8063cd88b9031461073b578063cf34c7681461075b578063d2ae2104146107a4578063d547741f146107cb578063dafe0ccc146107eb57600080fd5b8063c358de0a116100fd578063c358de0a14610688578063c416aa51146106a8578063c5e193cd146106cd578063c7a823e0146106ed578063c7b2370b1461071b57600080fd5b806395d376d71461058b5780639e9449651461059e578063a217fddf14610623578063aef18bf714610638578063b143044b1461066857600080fd5b806330bb3aac116101d25780635c975abb116101965780635c975abb146104ab578063724e78da146104c3578063736c0d5b146104e3578063741bef1a146105135780638585c9451461054b57806391d148541461056b57600080fd5b806330bb3aac1461040b57806331cb61051461042b57806336568abe1461044b57806352d3b8711461046b5780635553fb8e1461048b57600080fd5b80631703a018116102195780631703a01814610321578063248a9ca31461036057806326e67a371461039e5780632de11376146103cb5780632f2ff15d146103eb57600080fd5b8062bf2e801461025557806301e336671461028f57806301ffc9a7146102b15780631095b6d7146102e157806316c38b3c14610301575b600080fd5b34801561026157600080fd5b5060015461027790600160e81b900461ffff1681565b60405161ffff90911681526020015b60405180910390f35b34801561029b57600080fd5b506102af6102aa366004612893565b6108d2565b005b3480156102bd57600080fd5b506102d16102cc3660046128d4565b6108fb565b6040519015158152602001610286565b3480156102ed57600080fd5b506102af6102fc366004612893565b610932565b34801561030d57600080fd5b506102af61031c366004612915565b610a34565b34801561032d57600080fd5b5060055461034890600160401b90046001600160401b031681565b6040516001600160401b039091168152602001610286565b34801561036c57600080fd5b5061039061037b366004612930565b60009081526020819052604090206001015490565b604051908152602001610286565b3480156103aa57600080fd5b506103be6103b936600461295d565b610a59565b6040516102869190612978565b3480156103d757600080fd5b506102d16103e63660046129bf565b610ae0565b3480156103f757600080fd5b506102af6104063660046129dc565b610b65565b34801561041757600080fd5b50610390610426366004612a6b565b610c3a565b34801561043757600080fd5b506102af610446366004612ae2565b610d52565b34801561045757600080fd5b506102af6104663660046129dc565b610d7c565b34801561047757600080fd5b506102af610486366004612b17565b610d95565b34801561049757600080fd5b506103906104a6366004612b9d565b610f0e565b3480156104b757600080fd5b5060015460ff166102d1565b3480156104cf57600080fd5b506102af6104de3660046129bf565b611026565b3480156104ef57600080fd5b506102d16104fe3660046129bf565b60046020526000908152604090205460ff1681565b34801561051f57600080fd5b50600254610533906001600160a01b031681565b6040516001600160a01b039091168152602001610286565b34801561055757600080fd5b506102af610566366004612bf3565b611094565b34801561057757600080fd5b506102d16105863660046129dc565b6110c0565b610390610599366004612c26565b6110e9565b3480156105aa57600080fd5b506105f26105b936600461295d565b6006602052600090815260409020546001600160401b03811690600160401b810461ffff1690600160501b90046001600160801b031683565b604080516001600160401b03909416845261ffff90921660208401526001600160801b031690820152606001610286565b34801561062f57600080fd5b50610390600081565b34801561064457600080fd5b506102d1610653366004612930565b60076020526000908152604090205460ff1681565b34801561067457600080fd5b506102af610683366004612cd2565b61125f565b34801561069457600080fd5b506102af6106a3366004612d13565b611514565b3480156106b457600080fd5b506001546105339061010090046001600160a01b031681565b3480156106d957600080fd5b506103906106e8366004612b9d565b61157c565b3480156106f957600080fd5b5061070d610708366004612d2e565b6116e9565b604051610286929190612d82565b34801561072757600080fd5b506102af6107363660046129bf565b6118c7565b34801561074757600080fd5b506102af610756366004612db6565b611935565b34801561076757600080fd5b5061078f7f000000000000000000000000000000000000000000000000000000000000000081565b60405163ffffffff9091168152602001610286565b3480156107b057600080fd5b5060015461034890600160a81b90046001600160401b031681565b3480156107d757600080fd5b506102af6107e63660046129dc565b611974565b3480156107f757600080fd5b506102af610806366004612893565b611a28565b34801561081757600080fd5b5061078f7f000000000000000000000000000000000000000000000000000000000000000081565b34801561084b57600080fd5b5061039061085a366004612dfb565b611add565b34801561086b57600080fd5b506102af61087a366004612e65565b611b19565b61039061088d366004612ea1565b611cc7565b34801561089e57600080fd5b50600554610348906001600160401b031681565b3480156108be57600080fd5b506103906108cd366004612ea1565b611e14565b60008051602061352b8339815191526108ea81611f45565b6108f5848484611f4f565b50505050565b60006001600160e01b03198216637965db0b60e01b148061092c57506301ffc9a760e01b6001600160e01b03198316145b92915050565b60008051602061352b83398151915261094a81611f45565b61096260008051602061350b833981519152856110c0565b61097f57604051635ee08b9760e01b815260040160405180910390fd5b604051637ecdf29160e11b81526001600160a01b0384811660048301526024820184905285169063fd9be52290604401600060405180830381600087803b1580156109c957600080fd5b505af11580156109dd573d6000803e3d6000fd5b5050604080516001600160a01b038089168252871660208201529081018590527f9b1bfa7fa9ee420a16e124f794c35ac9f90472acc99140eb2f6447c714cad8eb925060600190505b60405180910390a150505050565b6000610a3f81611f45565b8115610a5157610a4d611f77565b5050565b610a4d611fcb565b63ffffffff8116600090815260036020908152604091829020805483518184028101840190945280845260609392830182828015610ad457602002820191906000526020600020906000905b825461010083900a900460ff16815260206001928301818104948501949093039092029101808411610aa55790505b50505050509050919050565b6000610b0c7f4270fae16c6d150d00e80b689daca99e8073b1838ff2b6063a37be9d851283e4836110c0565b15610b1957506000919050565b600154600160a81b90046001600160401b03161580610b4b5750610b4b60008051602061354b833981519152836110c0565b15610b5857506001919050565b506000919050565b919050565b8160008051602061354b833981519152811480610ba157507f4270fae16c6d150d00e80b689daca99e8073b1838ff2b6063a37be9d851283e481145b80610bb9575060008051602061350b83398151915281145b15610be357303314610bde57604051637d5d391d60e11b815260040160405180910390fd5b610c30565b60008051602061352b8339815191528103610c0f57610bde60008051602061352b833981519152611f45565b604051634a7ee1b960e11b8152600481018290526024015b60405180910390fd5b6108f58383612004565b600083610c4681610ae0565b610c6357604051634ab5ebcd60e01b815260040160405180910390fd5b6040805160c0810182526002546001600160a01b03908116825263ffffffff8a1660208084018290526001600160401b03808c16858701528a84166060860152600554600160401b900416608085015260015461ffff600160e81b82041660a086015260009283526006909152908490209351637bfa20a960e01b8152929361010090910490911691637bfa20a991610d05918591908a908a90600401613004565b602060405180830381865afa158015610d22573d6000803e3d6000fd5b505050506040513d601f19601f82011682018060405250810190610d469190613034565b98975050505050505050565b303314610d7257604051637d5d391d60e11b815260040160405180910390fd5b610a4d8282612088565b60405163dec9f03160e01b815260040160405180910390fd5b60008051602061352b833981519152610dad81611f45565b60005b82811015610ecf5736848483818110610dcb57610dcb61304d565b90506080020190506040518060600160405280826020016020810190610df19190612bf3565b6001600160401b03168152602001610e0f6060840160408501612d13565b61ffff168152602001610e28608084016060850161307a565b6001600160801b0316905260066000610e44602085018561295d565b63ffffffff1681526020808201929092526040908101600020835181549385015194909201516001600160801b0316600160501b026fffffffffffffffffffffffffffffffff60501b1961ffff909516600160401b0269ffffffffffffffffffff199094166001600160401b0390931692909217929092179290921691909117905550600101610db0565b507f7dd21e42791b013d1929e86f0c59085e4fca24251f0f1aa81917b3b1611766e08383604051610f01929190613095565b60405180910390a1505050565b600081610f1a81610ae0565b610f3757604051634ab5ebcd60e01b815260040160405180910390fd5b6040805160c0810182526002546001600160a01b03908116825261ffff808a1660208085018290526001600160401b03808b16868801528985166060870152600554600160401b9004166080860152600154600160e81b810490931660a0860152600091825260068152858220865191820187529181529451637bfa20a960e01b8152939461010090920490921692637bfa20a992610fda92869260040161316f565b602060405180830381865afa158015610ff7573d6000803e3d6000fd5b505050506040513d601f19601f8201168201806040525081019061101b9190613034565b979650505050505050565b60008051602061352b83398151915261103e81611f45565b600280546001600160a01b0319166001600160a01b0384169081179091556040519081527ff724a45d041687842411f2b977ef22ab8f43c8f1104f4592b42a00f9b34a643d906020015b60405180910390a15050565b3033146110b457604051637d5d391d60e11b815260040160405180910390fd5b6110bd816121e3565b50565b6000918252602082815260408084206001600160a01b0393909316845291905290205460ff1690565b600060008051602061350b83398151915261110381611f45565b61111360a08601608087016129bf565b61111c81610ae0565b61113957604051634ab5ebcd60e01b815260040160405180910390fd5b6040805160c081019091526002546001600160a01b03168152600090602080820190611167908a018a61295d565b63ffffffff16815260200161118260808a0160608b01612bf3565b6001600160401b031681526020016111a060a08a0160808b016129bf565b6001600160a01b039081168252600554600160401b90046001600160401b0316602080840191909152600154600160e81b810461ffff16604090940193909352929350610100909104169063df2b057e908390600690600090611205908d018d61295d565b63ffffffff1663ffffffff16815260200190815260200160002089896040518563ffffffff1660e01b81526004016112409493929190613004565b6020604051808303816000875af1158015610ff7573d6000803e3d6000fd5b60008051602061352b83398151915261127781611f45565b60005b828110156108f557368484838181106112955761129561304d565b90506020028101906112a791906131a8565b905063ffffffff7f0000000000000000000000000000000000000000000000000000000000000000166112dd602083018361295d565b63ffffffff16146112ee575061150c565b428160600135116112ff575061150c565b6000611338611311602084018461295d565b61132160408501602086016129bf565b61132e60408601866131c8565b8660600135611add565b9050600061134d8261070860808601866131c8565b50905080611390576040518481527fd6d90193101048cc1b6edcdc2348f5acf7a4a4a97d3e7b668b74cb7602ab3ebc9060200160405180910390a150505061150c565b60006113b06113a260408601866131c8565b6113ab9161320e565b6122b1565b9050801561142b5760008381526007602052604090205460ff1615611411577f9bb9bddbdf537a2104255307230b323d7982f4512ee8e5bd15df62ddca50ab978484604051611400929190613283565b60405180910390a15050505061150c565b6000838152600760205260409020805460ff191660011790555b60008061143e60408701602088016129bf565b6001600160a01b031661145460408801886131c8565b60405161146292919061331e565b6000604051808303816000865af19150503d806000811461149f576040519150601f19603f3d011682016040523d82523d6000602084013e6114a4565b606091505b5091509150816115055782156114cb576000858152600760205260409020805460ff191690555b7fdc8cdd96296241bbefda4a8e18ad2e0985a8da6495b34d409cfc4c886ee3b0cf87826040516114fc92919061332e565b60405180910390a15b5050505050505b60010161127a565b60008051602061352b83398151915261152c81611f45565b6001805461ffff60e81b1916600160e81b61ffff8516908102919091179091556040519081527f7af0ac740036ffb1c97b03697859d729e80a44ae5030543d64971c313565ab4d90602001611088565b600060008051602061350b83398151915261159681611f45565b826115a081610ae0565b6115bd57604051634ab5ebcd60e01b815260040160405180910390fd5b6040805160c0810182526002546001600160a01b03908116825261ffff808b1660208085018290526001600160401b03808c16868801528a85166060870152600554600160401b9004166080860152600154600160e81b810490931660a0860152600091825260068152858220865191820187529181529451636f9582bf60e11b815293946101009092049092169263df2b057e9261166092869260040161316f565b6020604051808303816000875af115801561167f573d6000803e3d6000fd5b505050506040513d601f19601f820116820180604052508101906116a39190613034565b93507f87e46b0a6199bc734632187269a103c05714ee0adae5b28f30723955724f37ef846040516116d691815260200190565b60405180910390a1505050949350505050565b600554600090819061170c90600160401b90046001600160401b0316604161335d565b831461171e57506000905060016118bf565b6000611777866040517f19457468657265756d205369676e6564204d6573736167653a0a3332000000006020820152603c8101829052600090605c01604051602081830303815290604052805190602001209050919050565b90506000805b600554600160401b90046001600160401b03168110156118b35736600088886117a785604161335d565b906117b3866001613374565b6117be90604161335d565b926117cb93929190613387565b915091506000806118128785858080601f01602080910402602001604051908101604052809392919081815260200183838082843760009201919091525061230792505050565b509092509050600081600381111561182c5761182c612d6c565b14611845576000600198509850505050505050506118bf565b856001600160a01b0316826001600160a01b031611611872576000600298509850505050505050506118bf565b6001600160a01b03821660009081526004602052604090205460ff166118a6576000600398509850505050505050506118bf565b509350505060010161177d565b50600160009350935050505b935093915050565b60008051602061352b8339815191526118df81611f45565b60018054610100600160a81b0319166101006001600160a01b038516908102919091179091556040519081527f1399be28223800f8669b3ba5f8721d9fc16fc4e8d0bbf98378791c8c5a3015e090602001611088565b60008051602061352b83398151915261194d81611f45565b63ffffffff8416600090815260036020526040902061196d9084846127c0565b5050505050565b8160008051602061354b8339815191528114806119b057507f4270fae16c6d150d00e80b689daca99e8073b1838ff2b6063a37be9d851283e481145b806119c8575060008051602061350b83398151915281145b156119f2573033146119ed57604051637d5d391d60e11b815260040160405180910390fd5b611a1e565b60008051602061352b8339815191528103610c0f576119ed60008051602061352b833981519152611f45565b6108f58383612354565b60008051602061352b833981519152611a4081611f45565b611a5860008051602061350b833981519152856110c0565b611a7557604051635ee08b9760e01b815260040160405180910390fd5b6040516303d8c5ef60e11b81526001600160a01b038481166004830152602482018490528516906307b18bde90604401600060405180830381600087803b158015611abf57600080fd5b505af1158015611ad3573d6000803e3d6000fd5b5050505050505050565b60008585838686604051602001611af89594939291906133b1565b60405160208183030381529060405280519060200120905095945050505050565b42816060013511611b3d57604051630bbaf26360e01b815260040160405180910390fd5b30611b4e60408301602084016129bf565b6001600160a01b031614611b9157611b6c60408201602083016129bf565b604051631ce0bfcd60e01b81526001600160a01b039091166004820152602401610c27565b63ffffffff7f000000000000000000000000000000000000000000000000000000000000000016611bc5602083018361295d565b63ffffffff1614611bff57611bdd602082018261295d565b60405163134bf0e160e11b815263ffffffff9091166004820152602401610c27565b6000611c11611311602084018461295d565b90506000611c268261070860808601866131c8565b50905080611c4757604051630af656f760e11b815260040160405180910390fd5b60008281526007602052604090205460ff1615611c7a57604051634eb522d360e11b815260048101839052602401610c27565b60008281526007602052604090819020805460ff191660011790556108f59060008051602061352b83398151915290611cb5908601866131c8565b810190611cc291906129bf565b612004565b600060008051602061350b833981519152611ce181611f45565b88611ceb81610ae0565b611d0857604051634ab5ebcd60e01b815260040160405180910390fd5b604080516080810182526002546001600160a01b0390811682528c8116602080840191909152600554600160401b90046001600160401b031683850152600154600160e81b810461ffff1660608501527f000000000000000000000000000000000000000000000000000000000000000063ffffffff166000908152600690925290849020935163bbc5a33b60e01b815292936101009091049091169163bbc5a33b91611dc2918591908d908d908d908d906004016133f7565b6020604051808303816000875af1158015611de1573d6000803e3d6000fd5b505050506040513d601f19601f82011682018060405250810190611e059190613034565b9b9a5050505050505050505050565b600087611e2081610ae0565b611e3d57604051634ab5ebcd60e01b815260040160405180910390fd5b604080516080810182526002546001600160a01b0390811682528b8116602080840191909152600554600160401b90046001600160401b031683850152600154600160e81b810461ffff1660608501527f000000000000000000000000000000000000000000000000000000000000000063ffffffff166000908152600690925290849020935162d358b360e81b815292936101009091049091169163d358b30091611ef6918591908c908c908c908c906004016133f7565b602060405180830381865afa158015611f13573d6000803e3d6000fd5b505050506040513d601f19601f82011682018060405250810190611f379190613034565b9a9950505050505050505050565b6110bd81336123cc565b6001600160a01b038316611f6c57611f678282612405565b505050565b611f678383836124b2565b611f7f6124ed565b6001805460ff1916811790557f62e78cea01bee320cd4e420270b5ea74000d11b0c9f74754ebdbfc544b05a258335b6040516001600160a01b03909116815260200160405180910390a1565b611fd3612513565b6001805460ff191690557f5db9ee0a495bf2e6ff9c91a7834c1ba4fdd244a5e8aa4e537bd38aeae4b073aa33611fae565b600060008051602061354b8339815191528314801561202a575061202883836110c0565b155b15612074576001805460159061204f90600160a81b90046001600160401b031661347a565b91906101000a8154816001600160401b0302191690836001600160401b031602179055505b61207e8383612536565b5060019392505050565b6001600160a01b03821660009081526004602052604090205481151560ff9091161515036120dc576040516302c6469560e51b81526001600160a01b03831660048201528115156024820152604401610c27565b6001600160a01b0382166000908152600460205260408120805460ff1916831515179055816121225760055461211d906001906001600160401b03166134a0565b612139565b600554612139906001600160401b031660016134c7565b6005549091506001600160401b03600160401b9091048116908216811115612187576040516378e2c15760e11b81526001600160401b03808416600483015282166024820152604401610c27565b6005805467ffffffffffffffff19166001600160401b038416179055604080516001600160a01b038616815284151560208201527f863d338cad74814b108a06288ad5e0e80d56495e0332238b1d2cdcfa0ca8e5ce9101610a26565b806001600160401b031660000361220d57604051635f86e17760e01b815260040160405180910390fd5b6005546001600160401b03908116908216811015612251576040516378e2c15760e11b81526001600160401b03808316600483015283166024820152604401610c27565b600580546fffffffffffffffff00000000000000001916600160401b6001600160401b038516908102919091179091556040519081527fb600f3cf7f38a4b49bb0c75f722ef69f7e3e39ef3bb4aa8207fd86e724a2324990602001611088565b60006001600160e01b03198216630111a9b760e11b148015906122e557506001600160e01b0319821663ab750e7560e01b14155b801561092c57506001600160e01b0319821663704316e560e01b141592915050565b600080600083516041036123415760208401516040850151606086015160001a612333888285856125c8565b95509550955050505061234d565b50508151600091506002905b9250925092565b600060008051602061354b83398151915283148015612378575061237883836110c0565b156123c2576001805460159061239d90600160a81b90046001600160401b03166134e7565b91906101000a8154816001600160401b0302191690836001600160401b031602179055505b61207e8383612697565b6123d682826110c0565b610a4d5760405163e2517d3f60e01b81526001600160a01b038216600482015260248101839052604401610c27565b6001600160a01b03821661242c576040516306b7a93160e41b815260040160405180910390fd5b6000826001600160a01b03168260405160006040518083038185875af1925050503d8060008114612479576040519150601f19603f3d011682016040523d82523d6000602084013e61247e565b606091505b5050905080611f6757604051631196f20d60e21b81526001600160a01b038416600482015260248101839052604401610c27565b6001600160a01b0382166124d9576040516306b7a93160e41b815260040160405180910390fd5b611f676001600160a01b0384168383612702565b60015460ff16156125115760405163d93c066560e01b815260040160405180910390fd5b565b60015460ff1661251157604051638dfc202b60e01b815260040160405180910390fd5b600061254283836110c0565b6125c0576000838152602081815260408083206001600160a01b03861684529091529020805460ff191660011790556125783390565b6001600160a01b0316826001600160a01b0316847f2f8788117e7eff1d82e926ec794901d17c78024a50270940304540a733656f0d60405160405180910390a450600161092c565b50600061092c565b600080807f7fffffffffffffffffffffffffffffff5d576e7357a4501ddfe92f46681b20a0841115612603575060009150600390508261268d565b604080516000808252602082018084528a905260ff891692820192909252606081018790526080810186905260019060a0016020604051602081039080840390855afa158015612657573d6000803e3d6000fd5b5050604051601f1901519150506001600160a01b0381166126835750600092506001915082905061268d565b9250600091508190505b9450945094915050565b60006126a383836110c0565b156125c0576000838152602081815260408083206001600160a01b0386168085529252808320805460ff1916905551339286917ff6391f5c32d9c69d2a47ea670b442974b53935d1edc7fd64eb21e047a839171b9190a450600161092c565b604080516001600160a01b03841660248201526044808201849052825180830390910181526064909101909152602080820180516001600160e01b031663a9059cbb60e01b1781528251611f67938793909260009283929183919082885af180612772576040513d6000823e3d81fd5b50506000513d9150811561278a578060011415612797565b6001600160a01b0384163b155b156108f557604051635274afe760e01b81526001600160a01b0385166004820152602401610c27565b82805482825590600052602060002090601f016020900481019282156128595791602002820160005b8382111561282a57833560ff1683826101000a81548160ff021916908360ff16021790555092602001926001016020816000010492830192600103026127e9565b80156128575782816101000a81549060ff021916905560010160208160000104928301926001030261282a565b505b50612865929150612869565b5090565b5b80821115612865576000815560010161286a565b6001600160a01b03811681146110bd57600080fd5b6000806000606084860312156128a857600080fd5b83356128b38161287e565b925060208401356128c38161287e565b929592945050506040919091013590565b6000602082840312156128e657600080fd5b81356001600160e01b0319811681146128fe57600080fd5b9392505050565b80358015158114610b6057600080fd5b60006020828403121561292757600080fd5b6128fe82612905565b60006020828403121561294257600080fd5b5035919050565b803563ffffffff81168114610b6057600080fd5b60006020828403121561296f57600080fd5b6128fe82612949565b6020808252825182820181905260009190848201906040850190845b818110156129b357835160ff1683529284019291840191600101612994565b50909695505050505050565b6000602082840312156129d157600080fd5b81356128fe8161287e565b600080604083850312156129ef57600080fd5b823591506020830135612a018161287e565b809150509250929050565b80356001600160401b0381168114610b6057600080fd5b60008083601f840112612a3557600080fd5b5081356001600160401b03811115612a4c57600080fd5b602083019150836020828501011115612a6457600080fd5b9250929050565b600080600080600060808688031215612a8357600080fd5b612a8c86612949565b9450612a9a60208701612a0c565b93506040860135612aaa8161287e565b925060608601356001600160401b03811115612ac557600080fd5b612ad188828901612a23565b969995985093965092949392505050565b60008060408385031215612af557600080fd5b8235612b008161287e565b9150612b0e60208401612905565b90509250929050565b60008060208385031215612b2a57600080fd5b82356001600160401b0380821115612b4157600080fd5b818501915085601f830112612b5557600080fd5b813581811115612b6457600080fd5b8660208260071b8501011115612b7957600080fd5b60209290920196919550909350505050565b803561ffff81168114610b6057600080fd5b60008060008060808587031215612bb357600080fd5b612bbc85612b8b565b9350612bca60208601612b8b565b9250612bd860408601612a0c565b91506060850135612be88161287e565b939692955090935050565b600060208284031215612c0557600080fd5b6128fe82612a0c565b600060a08284031215612c2057600080fd5b50919050565b600080600060408486031215612c3b57600080fd5b83356001600160401b0380821115612c5257600080fd5b612c5e87838801612c0e565b94506020860135915080821115612c7457600080fd5b50612c8186828701612a23565b9497909650939450505050565b60008083601f840112612ca057600080fd5b5081356001600160401b03811115612cb757600080fd5b6020830191508360208260051b8501011115612a6457600080fd5b60008060208385031215612ce557600080fd5b82356001600160401b03811115612cfb57600080fd5b612d0785828601612c8e565b90969095509350505050565b600060208284031215612d2557600080fd5b6128fe82612b8b565b600080600060408486031215612d4357600080fd5b8335925060208401356001600160401b03811115612d6057600080fd5b612c8186828701612a23565b634e487b7160e01b600052602160045260246000fd5b82151581526040810160048310612da957634e487b7160e01b600052602160045260246000fd5b8260208301529392505050565b600080600060408486031215612dcb57600080fd5b612dd484612949565b925060208401356001600160401b03811115612def57600080fd5b612c8186828701612c8e565b600080600080600060808688031215612e1357600080fd5b612e1c86612949565b94506020860135612e2c8161287e565b935060408601356001600160401b03811115612e4757600080fd5b612e5388828901612a23565b96999598509660600135949350505050565b600060208284031215612e7757600080fd5b81356001600160401b03811115612e8d57600080fd5b612e9984828501612c0e565b949350505050565b60008060008060008060006080888a031215612ebc57600080fd5b8735612ec78161287e565b965060208801356001600160401b0380821115612ee357600080fd5b612eef8b838c01612a23565b909850965060408a0135915080821115612f0857600080fd5b612f148b838c01612a23565b909650945060608a0135915080821115612f2d57600080fd5b50612f3a8a828b01612a23565b989b979a50959850939692959293505050565b60018060a01b0380825116835263ffffffff602083015116602084015260408201516001600160401b03808216604086015282606085015116606086015280608085015116608086015250505061ffff60a08201511660a08301525050565b546001600160401b0381168252604081811c61ffff16602084015260509190911c6001600160801b0316910152565b81835281816020850137506000828201602090810191909152601f909101601f19169091010190565b60006101406130138388612f4d565b61302060c0840187612fac565b8061012084015261101b8184018587612fdb565b60006020828403121561304657600080fd5b5051919050565b634e487b7160e01b600052603260045260246000fd5b80356001600160801b0381168114610b6057600080fd5b60006020828403121561308c57600080fd5b6128fe82613063565b6020808252818101839052600090604080840186845b8781101561311c5763ffffffff6130c183612949565b1683526001600160401b036130d7868401612a0c565b168584015261ffff6130ea858401612b8b565b168484015260606001600160801b03613104828501613063565b169084015260809283019291909101906001016130ab565b5090979650505050505050565b6000815180845260005b8181101561314f57602081850181015186830182015201613133565b506000602082860101526020601f19601f83011685010191505092915050565b600061014061317e8387612f4d565b61318b60c0840186612fac565b8061012084015261319e81840185613129565b9695505050505050565b60008235609e198336030181126131be57600080fd5b9190910192915050565b6000808335601e198436030181126131df57600080fd5b8301803591506001600160401b038211156131f957600080fd5b602001915036819003821315612a6457600080fd5b6001600160e01b031981358181169160048510156132365780818660040360031b1b83161692505b505092915050565b6000808335601e1984360301811261325557600080fd5b83016020810192503590506001600160401b0381111561327457600080fd5b803603821315612a6457600080fd5b6040815263ffffffff61329584612949565b166040820152600060208401356132ab8161287e565b6001600160a01b031660608301526132c6604085018561323e565b60a060808501526132db60e085018284612fdb565b915050606085013560a08401526132f5608086018661323e565b848303603f190160c086015261330c838284612fdb565b93505050508260208301529392505050565b8183823760009101908152919050565b828152604060208201526000612e996040830184613129565b634e487b7160e01b600052601160045260246000fd5b808202811582820484141761092c5761092c613347565b8082018082111561092c5761092c613347565b6000808585111561339757600080fd5b838611156133a457600080fd5b5050820193919092039150565b63ffffffff60e01b8660e01b1681526bffffffffffffffffffffffff198560601b1660048201528360188201528183603883013760009101603801908152949350505050565b600061012060018060a01b03808a511684528060208b0151166020850152506001600160401b0360408a015116604084015261ffff60608a01511660608401526134446080840189612fac565b8060e08401526134578184018789612fdb565b905082810361010084015261346d818587612fdb565b9998505050505050505050565b60006001600160401b0380831681810361349657613496613347565b6001019392505050565b6001600160401b038281168282160390808211156134c0576134c0613347565b5092915050565b6001600160401b038181168382160190808211156134c0576134c0613347565b60006001600160401b0382168061350057613500613347565b600019019291505056fe724aface199fe5bed93ae8508474576a9adf3dc443b2c451842a2242919f19dea49807205ce4d355092ef5a8a18f56e8913cf4a201fbe287825b095693c2177574845de37cfabd357633214b47fa91ccd19b05b7c5a08ac22c187f811fb62bcaa264697066735822122024327161ffb7d62bcb3e3b78be45b9ccbc1a11373295fe0f97bd10b71bcadb8164736f6c63430008160033",
    "linkReferences": {}
  },
  "methodIdentifiers": {
    "DEFAULT_ADMIN_ROLE()": "a217fddf",
    "allowlistSize()": "d2ae2104",
    "assignJob((uint32,bytes,bytes32,uint64,address),bytes)": "95d376d7",
    "assignJob(address,bytes,bytes,bytes)": "f42ed2ed",
    "assignJob(uint16,uint16,uint64,address)": "c5e193cd",
    "defaultMultiplierBps()": "00bf2e80",
    "dstConfig(uint32)": "9e944965",
    "execute((uint32,address,bytes,uint256,bytes)[])": "b143044b",
    "getFee(address,bytes,bytes,bytes)": "fdb9b0f1",
    "getFee(uint16,uint16,uint64,address)": "5553fb8e",
    "getFee(uint32,uint64,address,bytes)": "30bb3aac",
    "getRoleAdmin(bytes32)": "248a9ca3",
    "getSupportedOptionTypes(uint32)": "26e67a37",
    "grantRole(bytes32,address)": "2f2ff15d",
    "hasAcl(address)": "2de11376",
    "hasRole(bytes32,address)": "91d14854",
    "hashCallData(uint32,address,bytes,uint256)": "f010cb23",
    "localEidV2()": "e395eb5c",
    "paused()": "5c975abb",
    "priceFeed()": "741bef1a",
    "quorum()": "1703a018",
    "quorumChangeAdmin((uint32,address,bytes,uint256,bytes))": "f3b4ebd0",
    "renounceRole(bytes32,address)": "36568abe",
    "revokeRole(bytes32,address)": "d547741f",
    "setDefaultMultiplierBps(uint16)": "c358de0a",
    "setDstConfig((uint32,uint64,uint16,uint128)[])": "52d3b871",
    "setPaused(bool)": "16c38b3c",
    "setPriceFeed(address)": "724e78da",
    "setQuorum(uint64)": "8585c945",
    "setSigner(address,bool)": "31cb6105",
    "setSupportedOptionTypes(uint32,uint8[])": "cd88b903",
    "setWorkerFeeLib(address)": "c7b2370b",
    "signerSize()": "fd62e750",
    "signers(address)": "736c0d5b",
    "supportsInterface(bytes4)": "01ffc9a7",
    "usedHashes(bytes32)": "aef18bf7",
    "verifySignatures(bytes32,bytes)": "c7a823e0",
    "vid()": "cf34c768",
    "withdrawFee(address,address,uint256)": "1095b6d7",
    "withdrawFeeFromUlnV2(address,address,uint256)": "dafe0ccc",
    "withdrawToken(address,address,uint256)": "01e33667",
    "workerFeeLib()": "c416aa51"
  },
  "id": 73
}