{
  "abi": [
    {
      "type": "constructor",
      "inputs": [
        {
          "name": "_verifyHelper",
          "type": "address",
          "internalType": "address payable"
        },
        {
          "name": "_endpoint",
          "type": "address",
          "internalType": "address"
        },
        {
          "name": "_treasuryGasLimit",
          "type": "uint256",
          "internalType": "uint256"
        },
        {
          "name": "_treasuryGasForFeeCap",
          "type": "uint256",
          "internalType": "uint256"
        }
      ],
      "stateMutability": "nonpayable"
    },
    {
      "type": "receive",
      "stateMutability": "payable"
    },
    {
      "type": "function",
      "name": "cmdHashLookup",
      "inputs": [
        {
          "name": "oapp",
          "type": "address",
          "internalType": "address"
        },
        {
          "name": "eid",
          "type": "uint32",
          "internalType": "uint32"
        },
        {
          "name": "nonce",
          "type": "uint64",
          "internalType": "uint64"
        }
      ],
      "outputs": [
        {
          "name": "cmdHash",
          "type": "bytes32",
          "internalType": "bytes32"
        }
      ],
      "stateMutability": "view"
    },
    {
      "type": "function",
      "name": "commitVerification",
      "inputs": [
        {
          "name": "_packetHeader",
          "type": "bytes",
          "internalType": "bytes"
        },
        {
          "name": "_cmdHash",
          "type": "bytes32",
          "internalType": "bytes32"
        },
        {
          "name": "_payloadHash",
          "type": "bytes32",
          "internalType": "bytes32"
        }
      ],
      "outputs": [],
      "stateMutability": "nonpayable"
    },
    {
      "type": "function",
      "name": "fees",
      "inputs": [
        {
          "name": "worker",
          "type": "address",
          "internalType": "address"
        }
      ],
      "outputs": [
        {
          "name": "fee",
          "type": "uint256",
          "internalType": "uint256"
        }
      ],
      "stateMutability": "view"
    },
    {
      "type": "function",
      "name": "getAppReadLibConfig",
      "inputs": [
        {
          "name": "_oapp",
          "type": "address",
          "internalType": "address"
        },
        {
          "name": "_remoteEid",
          "type": "uint32",
          "internalType": "uint32"
        }
      ],
      "outputs": [
        {
          "name": "",
          "type": "tuple",
          "internalType": "struct ReadLibConfig",
          "components": [
            {
              "name": "executor",
              "type": "address",
              "internalType": "address"
            },
            {
              "name": "requiredDVNCount",
              "type": "uint8",
              "internalType": "uint8"
            },
            {
              "name": "optionalDVNCount",
              "type": "uint8",
              "internalType": "uint8"
            },
            {
              "name": "optionalDVNThreshold",
              "type": "uint8",
              "internalType": "uint8"
            },
            {
              "name": "requiredDVNs",
              "type": "address[]",
              "internalType": "address[]"
            },
            {
              "name": "optionalDVNs",
              "type": "address[]",
              "internalType": "address[]"
            }
          ]
        }
      ],
      "stateMutability": "view"
    },
    {
      "type": "function",
      "name": "getConfig",
      "inputs": [
        {
          "name": "_eid",
          "type": "uint32",
          "internalType": "uint32"
        },
        {
          "name": "_oapp",
          "type": "address",
          "internalType": "address"
        },
        {
          "name": "_configType",
          "type": "uint32",
          "internalType": "uint32"
        }
      ],
      "outputs": [
        {
          "name": "",
          "type": "bytes",
          "internalType": "bytes"
        }
      ],
      "stateMutability": "view"
    },
    {
      "type": "function",
      "name": "getReadLibConfig",
      "inputs": [
        {
          "name": "_oapp",
          "type": "address",
          "internalType": "address"
        },
        {
          "name": "_remoteEid",
          "type": "uint32",
          "internalType": "uint32"
        }
      ],
      "outputs": [
        {
          "name": "rtnConfig",
          "type": "tuple",
          "internalType": "struct ReadLibConfig",
          "components": [
            {
              "name": "executor",
              "type": "address",
              "internalType": "address"
            },
            {
              "name": "requiredDVNCount",
              "type": "uint8",
              "internalType": "uint8"
            },
            {
              "name": "optionalDVNCount",
              "type": "uint8",
              "internalType": "uint8"
            },
            {
              "name": "optionalDVNThreshold",
              "type": "uint8",
              "internalType": "uint8"
            },
            {
              "name": "requiredDVNs",
              "type": "address[]",
              "internalType": "address[]"
            },
            {
              "name": "optionalDVNs",
              "type": "address[]",
              "internalType": "address[]"
            }
          ]
        }
      ],
      "stateMutability": "view"
    },
    {
      "type": "function",
      "name": "getTreasuryAndNativeFeeCap",
      "inputs": [],
      "outputs": [
        {
          "name": "",
          "type": "address",
          "internalType": "address"
        },
        {
          "name": "",
          "type": "uint256",
          "internalType": "uint256"
        }
      ],
      "stateMutability": "view"
    },
    {
      "type": "function",
      "name": "hashLookup",
      "inputs": [
        {
          "name": "headerHash",
          "type": "bytes32",
          "internalType": "bytes32"
        },
        {
          "name": "cmdHash",
          "type": "bytes32",
          "internalType": "bytes32"
        },
        {
          "name": "dvn",
          "type": "address",
          "internalType": "address"
        }
      ],
      "outputs": [
        {
          "name": "payloadHash",
          "type": "bytes32",
          "internalType": "bytes32"
        }
      ],
      "stateMutability": "view"
    },
    {
      "type": "function",
      "name": "isSupportedEid",
      "inputs": [
        {
          "name": "_eid",
          "type": "uint32",
          "internalType": "uint32"
        }
      ],
      "outputs": [
        {
          "name": "",
          "type": "bool",
          "internalType": "bool"
        }
      ],
      "stateMutability": "view"
    },
    {
      "type": "function",
      "name": "messageLibType",
      "inputs": [],
      "outputs": [
        {
          "name": "",
          "type": "uint8",
          "internalType": "enum MessageLibType"
        }
      ],
      "stateMutability": "pure"
    },
    {
      "type": "function",
      "name": "owner",
      "inputs": [],
      "outputs": [
        {
          "name": "",
          "type": "address",
          "internalType": "address"
        }
      ],
      "stateMutability": "view"
    },
    {
      "type": "function",
      "name": "quote",
      "inputs": [
        {
          "name": "_packet",
          "type": "tuple",
          "internalType": "struct Packet",
          "components": [
            {
              "name": "nonce",
              "type": "uint64",
              "internalType": "uint64"
            },
            {
              "name": "srcEid",
              "type": "uint32",
              "internalType": "uint32"
            },
            {
              "name": "sender",
              "type": "address",
              "internalType": "address"
            },
            {
              "name": "dstEid",
              "type": "uint32",
              "internalType": "uint32"
            },
            {
              "name": "receiver",
              "type": "bytes32",
              "internalType": "bytes32"
            },
            {
              "name": "guid",
              "type": "bytes32",
              "internalType": "bytes32"
            },
            {
              "name": "message",
              "type": "bytes",
              "internalType": "bytes"
            }
          ]
        },
        {
          "name": "_options",
          "type": "bytes",
          "internalType": "bytes"
        },
        {
          "name": "_payInLzToken",
          "type": "bool",
          "internalType": "bool"
        }
      ],
      "outputs": [
        {
          "name": "",
          "type": "tuple",
          "internalType": "struct MessagingFee",
          "components": [
            {
              "name": "nativeFee",
              "type": "uint256",
              "internalType": "uint256"
            },
            {
              "name": "lzTokenFee",
              "type": "uint256",
              "internalType": "uint256"
            }
          ]
        }
      ],
      "stateMutability": "view"
    },
    {
      "type": "function",
      "name": "renounceOwnership",
      "inputs": [],
      "outputs": [],
      "stateMutability": "nonpayable"
    },
    {
      "type": "function",
      "name": "send",
      "inputs": [
        {
          "name": "_packet",
          "type": "tuple",
          "internalType": "struct Packet",
          "components": [
            {
              "name": "nonce",
              "type": "uint64",
              "internalType": "uint64"
            },
            {
              "name": "srcEid",
              "type": "uint32",
              "internalType": "uint32"
            },
            {
              "name": "sender",
              "type": "address",
              "internalType": "address"
            },
            {
              "name": "dstEid",
              "type": "uint32",
              "internalType": "uint32"
            },
            {
              "name": "receiver",
              "type": "bytes32",
              "internalType": "bytes32"
            },
            {
              "name": "guid",
              "type": "bytes32",
              "internalType": "bytes32"
            },
            {
              "name": "message",
              "type": "bytes",
              "internalType": "bytes"
            }
          ]
        },
        {
          "name": "_options",
          "type": "bytes",
          "internalType": "bytes"
        },
        {
          "name": "_payInLzToken",
          "type": "bool",
          "internalType": "bool"
        }
      ],
      "outputs": [
        {
          "name": "",
          "type": "tuple",
          "internalType": "struct MessagingFee",
          "components": [
            {
              "name": "nativeFee",
              "type": "uint256",
              "internalType": "uint256"
            },
            {
              "name": "lzTokenFee",
              "type": "uint256",
              "internalType": "uint256"
            }
          ]
        },
        {
          "name": "",
          "type": "bytes",
          "internalType": "bytes"
        }
      ],
      "stateMutability": "nonpayable"
    },
    {
      "type": "function",
      "name": "setConfig",
      "inputs": [
        {
          "name": "_oapp",
          "type": "address",
          "internalType": "address"
        },
        {
          "name": "_params",
          "type": "tuple[]",
          "internalType": "struct SetConfigParam[]",
          "components": [
            {
              "name": "eid",
              "type": "uint32",
              "internalType": "uint32"
            },
            {
              "name": "configType",
              "type": "uint32",
              "internalType": "uint32"
            },
            {
              "name": "config",
              "type": "bytes",
              "internalType": "bytes"
            }
          ]
        }
      ],
      "outputs": [],
      "stateMutability": "nonpayable"
    },
    {
      "type": "function",
      "name": "setDefaultReadLibConfigs",
      "inputs": [
        {
          "name": "_params",
          "type": "tuple[]",
          "internalType": "struct SetDefaultReadLibConfigParam[]",
          "components": [
            {
              "name": "eid",
              "type": "uint32",
              "internalType": "uint32"
            },
            {
              "name": "config",
              "type": "tuple",
              "internalType": "struct ReadLibConfig",
              "components": [
                {
                  "name": "executor",
                  "type": "address",
                  "internalType": "address"
                },
                {
                  "name": "requiredDVNCount",
                  "type": "uint8",
                  "internalType": "uint8"
                },
                {
                  "name": "optionalDVNCount",
                  "type": "uint8",
                  "internalType": "uint8"
                },
                {
                  "name": "optionalDVNThreshold",
                  "type": "uint8",
                  "internalType": "uint8"
                },
                {
                  "name": "requiredDVNs",
                  "type": "address[]",
                  "internalType": "address[]"
                },
                {
                  "name": "optionalDVNs",
                  "type": "address[]",
                  "internalType": "address[]"
                }
              ]
            }
          ]
        }
      ],
      "outputs": [],
      "stateMutability": "nonpayable"
    },
    {
      "type": "function",
      "name": "setTreasury",
      "inputs": [
        {
          "name": "_treasury",
          "type": "address",
          "internalType": "address"
        }
      ],
      "outputs": [],
      "stateMutability": "nonpayable"
    },
    {
      "type": "function",
      "name": "setTreasuryNativeFeeCap",
      "inputs": [
        {
          "name": "_newTreasuryNativeFeeCap",
          "type": "uint256",
          "internalType": "uint256"
        }
      ],
      "outputs": [],
      "stateMutability": "nonpayable"
    },
    {
      "type": "function",
      "name": "supportsInterface",
      "inputs": [
        {
          "name": "_interfaceId",
          "type": "bytes4",
          "internalType": "bytes4"
        }
      ],
      "outputs": [
        {
          "name": "",
          "type": "bool",
          "internalType": "bool"
        }
      ],
      "stateMutability": "view"
    },
    {
      "type": "function",
      "name": "testHelper",
      "inputs": [],
      "outputs": [
        {
          "name": "",
          "type": "address",
          "internalType": "contract TestHelperOz5"
        }
      ],
      "stateMutability": "view"
    },
    {
      "type": "function",
      "name": "transferOwnership",
      "inputs": [
        {
          "name": "newOwner",
          "type": "address",
          "internalType": "address"
        }
      ],
      "outputs": [],
      "stateMutability": "nonpayable"
    },
    {
      "type": "function",
      "name": "verifiable",
      "inputs": [
        {
          "name": "_config",
          "type": "tuple",
          "internalType": "struct ReadLibConfig",
          "components": [
            {
              "name": "executor",
              "type": "address",
              "internalType": "address"
            },
            {
              "name": "requiredDVNCount",
              "type": "uint8",
              "internalType": "uint8"
            },
            {
              "name": "optionalDVNCount",
              "type": "uint8",
              "internalType": "uint8"
            },
            {
              "name": "optionalDVNThreshold",
              "type": "uint8",
              "internalType": "uint8"
            },
            {
              "name": "requiredDVNs",
              "type": "address[]",
              "internalType": "address[]"
            },
            {
              "name": "optionalDVNs",
              "type": "address[]",
              "internalType": "address[]"
            }
          ]
        },
        {
          "name": "_headerHash",
          "type": "bytes32",
          "internalType": "bytes32"
        },
        {
          "name": "_cmdHash",
          "type": "bytes32",
          "internalType": "bytes32"
        },
        {
          "name": "_payloadHash",
          "type": "bytes32",
          "internalType": "bytes32"
        }
      ],
      "outputs": [
        {
          "name": "",
          "type": "bool",
          "internalType": "bool"
        }
      ],
      "stateMutability": "view"
    },
    {
      "type": "function",
      "name": "verify",
      "inputs": [
        {
          "name": "_packetHeader",
          "type": "bytes",
          "internalType": "bytes"
        },
        {
          "name": "_cmdHash",
          "type": "bytes32",
          "internalType": "bytes32"
        },
        {
          "name": "_payloadHash",
          "type": "bytes32",
          "internalType": "bytes32"
        }
      ],
      "outputs": [],
      "stateMutability": "nonpayable"
    },
    {
      "type": "function",
      "name": "version",
      "inputs": [],
      "outputs": [
        {
          "name": "major",
          "type": "uint64",
          "internalType": "uint64"
        },
        {
          "name": "minor",
          "type": "uint8",
          "internalType": "uint8"
        },
        {
          "name": "endpointVersion",
          "type": "uint8",
          "internalType": "uint8"
        }
      ],
      "stateMutability": "pure"
    },
    {
      "type": "function",
      "name": "withdrawFee",
      "inputs": [
        {
          "name": "_to",
          "type": "address",
          "internalType": "address"
        },
        {
          "name": "_amount",
          "type": "uint256",
          "internalType": "uint256"
        }
      ],
      "outputs": [],
      "stateMutability": "nonpayable"
    },
    {
      "type": "function",
      "name": "withdrawLzTokenFee",
      "inputs": [
        {
          "name": "_lzToken",
          "type": "address",
          "internalType": "address"
        },
        {
          "name": "_to",
          "type": "address",
          "internalType": "address"
        },
        {
          "name": "_amount",
          "type": "uint256",
          "internalType": "uint256"
        }
      ],
      "outputs": [],
      "stateMutability": "nonpayable"
    },
    {
      "type": "event",
      "name": "DVNFeePaid",
      "inputs": [
        {
          "name": "requiredDVNs",
          "type": "address[]",
          "indexed": false,
          "internalType": "address[]"
        },
        {
          "name": "optionalDVNs",
          "type": "address[]",
          "indexed": false,
          "internalType": "address[]"
        },
        {
          "name": "fees",
          "type": "uint256[]",
          "indexed": false,
          "internalType": "uint256[]"
        }
      ],
      "anonymous": false
    },
    {
      "type": "event",
      "name": "DefaultReadLibConfigsSet",
      "inputs": [
        {
          "name": "params",
          "type": "tuple[]",
          "indexed": false,
          "internalType": "struct SetDefaultReadLibConfigParam[]",
          "components": [
            {
              "name": "eid",
              "type": "uint32",
              "internalType": "uint32"
            },
            {
              "name": "config",
              "type": "tuple",
              "internalType": "struct ReadLibConfig",
              "components": [
                {
                  "name": "executor",
                  "type": "address",
                  "internalType": "address"
                },
                {
                  "name": "requiredDVNCount",
                  "type": "uint8",
                  "internalType": "uint8"
                },
                {
                  "name": "optionalDVNCount",
                  "type": "uint8",
                  "internalType": "uint8"
                },
                {
                  "name": "optionalDVNThreshold",
                  "type": "uint8",
                  "internalType": "uint8"
                },
                {
                  "name": "requiredDVNs",
                  "type": "address[]",
                  "internalType": "address[]"
                },
                {
                  "name": "optionalDVNs",
                  "type": "address[]",
                  "internalType": "address[]"
                }
              ]
            }
          ]
        }
      ],
      "anonymous": false
    },
    {
      "type": "event",
      "name": "ExecutorFeePaid",
      "inputs": [
        {
          "name": "executor",
          "type": "address",
          "indexed": false,
          "internalType": "address"
        },
        {
          "name": "fee",
          "type": "uint256",
          "indexed": false,
          "internalType": "uint256"
        }
      ],
      "anonymous": false
    },
    {
      "type": "event",
      "name": "LzTokenFeeWithdrawn",
      "inputs": [
        {
          "name": "lzToken",
          "type": "address",
          "indexed": false,
          "internalType": "address"
        },
        {
          "name": "receiver",
          "type": "address",
          "indexed": false,
          "internalType": "address"
        },
        {
          "name": "amount",
          "type": "uint256",
          "indexed": false,
          "internalType": "uint256"
        }
      ],
      "anonymous": false
    },
    {
      "type": "event",
      "name": "NativeFeeWithdrawn",
      "inputs": [
        {
          "name": "worker",
          "type": "address",
          "indexed": false,
          "internalType": "address"
        },
        {
          "name": "receiver",
          "type": "address",
          "indexed": false,
          "internalType": "address"
        },
        {
          "name": "amount",
          "type": "uint256",
          "indexed": false,
          "internalType": "uint256"
        }
      ],
      "anonymous": false
    },
    {
      "type": "event",
      "name": "OwnershipTransferred",
      "inputs": [
        {
          "name": "previousOwner",
          "type": "address",
          "indexed": true,
          "internalType": "address"
        },
        {
          "name": "newOwner",
          "type": "address",
          "indexed": true,
          "internalType": "address"
        }
      ],
      "anonymous": false
    },
    {
      "type": "event",
      "name": "PayloadVerified",
      "inputs": [
        {
          "name": "dvn",
          "type": "address",
          "indexed": false,
          "internalType": "address"
        },
        {
          "name": "header",
          "type": "bytes",
          "indexed": false,
          "internalType": "bytes"
        },
        {
          "name": "cmdHash",
          "type": "bytes32",
          "indexed": false,
          "internalType": "bytes32"
        },
        {
          "name": "payloadHash",
          "type": "bytes32",
          "indexed": false,
          "internalType": "bytes32"
        }
      ],
      "anonymous": false
    },
    {
      "type": "event",
      "name": "ReadLibConfigSet",
      "inputs": [
        {
          "name": "oapp",
          "type": "address",
          "indexed": false,
          "internalType": "address"
        },
        {
          "name": "eid",
          "type": "uint32",
          "indexed": false,
          "internalType": "uint32"
        },
        {
          "name": "config",
          "type": "tuple",
          "indexed": false,
          "internalType": "struct ReadLibConfig",
          "components": [
            {
              "name": "executor",
              "type": "address",
              "internalType": "address"
            },
            {
              "name": "requiredDVNCount",
              "type": "uint8",
              "internalType": "uint8"
            },
            {
              "name": "optionalDVNCount",
              "type": "uint8",
              "internalType": "uint8"
            },
            {
              "name": "optionalDVNThreshold",
              "type": "uint8",
              "internalType": "uint8"
            },
            {
              "name": "requiredDVNs",
              "type": "address[]",
              "internalType": "address[]"
            },
            {
              "name": "optionalDVNs",
              "type": "address[]",
              "internalType": "address[]"
            }
          ]
        }
      ],
      "anonymous": false
    },
    {
      "type": "event",
      "name": "TreasuryNativeFeeCapSet",
      "inputs": [
        {
          "name": "newTreasuryNativeFeeCap",
          "type": "uint256",
          "indexed": false,
          "internalType": "uint256"
        }
      ],
      "anonymous": false
    },
    {
      "type": "event",
      "name": "TreasurySet",
      "inputs": [
        {
          "name": "treasury",
          "type": "address",
          "indexed": false,
          "internalType": "address"
        }
      ],
      "anonymous": false
    },
    {
      "type": "error",
      "name": "DVN_InvalidDVNIdx",
      "inputs": []
    },
    {
      "type": "error",
      "name": "DVN_InvalidDVNOptions",
      "inputs": [
        {
          "name": "cursor",
          "type": "uint256",
          "internalType": "uint256"
        }
      ]
    },
    {
      "type": "error",
      "name": "LZ_MessageLib_OnlyEndpoint",
      "inputs": []
    },
    {
      "type": "error",
      "name": "LZ_RL_AtLeastOneDVN",
      "inputs": []
    },
    {
      "type": "error",
      "name": "LZ_RL_CannotWithdrawAltToken",
      "inputs": []
    },
    {
      "type": "error",
      "name": "LZ_RL_InvalidAmount",
      "inputs": [
        {
          "name": "requested",
          "type": "uint256",
          "internalType": "uint256"
        },
        {
          "name": "available",
          "type": "uint256",
          "internalType": "uint256"
        }
      ]
    },
    {
      "type": "error",
      "name": "LZ_RL_InvalidCmdHash",
      "inputs": []
    },
    {
      "type": "error",
      "name": "LZ_RL_InvalidConfigType",
      "inputs": [
        {
          "name": "configType",
          "type": "uint32",
          "internalType": "uint32"
        }
      ]
    },
    {
      "type": "error",
      "name": "LZ_RL_InvalidEid",
      "inputs": []
    },
    {
      "type": "error",
      "name": "LZ_RL_InvalidExecutor",
      "inputs": []
    },
    {
      "type": "error",
      "name": "LZ_RL_InvalidOptionalDVNCount",
      "inputs": []
    },
    {
      "type": "error",
      "name": "LZ_RL_InvalidOptionalDVNThreshold",
      "inputs": []
    },
    {
      "type": "error",
      "name": "LZ_RL_InvalidPacketHeader",
      "inputs": []
    },
    {
      "type": "error",
      "name": "LZ_RL_InvalidPacketVersion",
      "inputs": []
    },
    {
      "type": "error",
      "name": "LZ_RL_InvalidReceiver",
      "inputs": []
    },
    {
      "type": "error",
      "name": "LZ_RL_InvalidRequiredDVNCount",
      "inputs": []
    },
    {
      "type": "error",
      "name": "LZ_RL_NotTreasury",
      "inputs": []
    },
    {
      "type": "error",
      "name": "LZ_RL_Unsorted",
      "inputs": []
    },
    {
      "type": "error",
      "name": "LZ_RL_UnsupportedEid",
      "inputs": [
        {
          "name": "eid",
          "type": "uint32",
          "internalType": "uint32"
        }
      ]
    },
    {
      "type": "error",
      "name": "LZ_RL_Verifying",
      "inputs": []
    },
    {
      "type": "error",
      "name": "LZ_ULN_InvalidLegacyType1Option",
      "inputs": []
    },
    {
      "type": "error",
      "name": "LZ_ULN_InvalidLegacyType2Option",
      "inputs": []
    },
    {
      "type": "error",
      "name": "LZ_ULN_InvalidWorkerId",
      "inputs": [
        {
          "name": "workerId",
          "type": "uint8",
          "internalType": "uint8"
        }
      ]
    },
    {
      "type": "error",
      "name": "LZ_ULN_InvalidWorkerOptions",
      "inputs": [
        {
          "name": "cursor",
          "type": "uint256",
          "internalType": "uint256"
        }
      ]
    },
    {
      "type": "error",
      "name": "LZ_ULN_UnsupportedOptionType",
      "inputs": [
        {
          "name": "optionType",
          "type": "uint16",
          "internalType": "uint16"
        }
      ]
    },
    {
      "type": "error",
      "name": "OwnableInvalidOwner",
      "inputs": [
        {
          "name": "owner",
          "type": "address",
          "internalType": "address"
        }
      ]
    },
    {
      "type": "error",
      "name": "OwnableUnauthorizedAccount",
      "inputs": [
        {
          "name": "account",
          "type": "address",
          "internalType": "address"
        }
      ]
    },
    {
      "type": "error",
      "name": "SafeCastOverflowedUintDowncast",
      "inputs": [
        {
          "name": "bits",
          "type": "uint8",
          "internalType": "uint8"
        },
        {
          "name": "value",
          "type": "uint256",
          "internalType": "uint256"
        }
      ]
    },
    {
      "type": "error",
      "name": "SafeERC20FailedOperation",
      "inputs": [
        {
          "name": "token",
          "type": "address",
          "internalType": "address"
        }
      ]
    },
    {
      "type": "error",
      "name": "Transfer_NativeFailed",
      "inputs": [
        {
          "name": "_to",
          "type": "address",
          "internalType": "address"
        },
        {
          "name": "_value",
          "type": "uint256",
          "internalType": "uint256"
        }
      ]
    },
    {
      "type": "error",
      "name": "Transfer_ToAddressIsZero",
      "inputs": []
    }
  ],
  "bytecode": {
    "object": "0x60e06040523480156200001157600080fd5b5060405162004c0738038062004c07833981016040819052620000349162000176565b82836001600160a01b031663416ecebf6040518163ffffffff1660e01b8152600401602060405180830381865afa15801562000074573d6000803e3d6000fd5b505050506040513d601f19601f820116820180604052508101906200009a9190620001c3565b3380620000c157604051631e4fbdf760e01b81526000600482015260240160405180910390fd5b620000cc816200010d565b506001600160a01b0391821660805263ffffffff1660a05260c092909252600655600280546001600160a01b031916939091169290921790915550620001f2565b600080546001600160a01b038381166001600160a01b0319831681178455604051919092169283917f8be0079c531659141344cd1fd0a4f28419497f9722a3daafe3b4186f6b6457e09190a35050565b6001600160a01b03811681146200017357600080fd5b50565b600080600080608085870312156200018d57600080fd5b84516200019a816200015d565b6020860151909450620001ad816200015d565b6040860151606090960151949790965092505050565b600060208284031215620001d657600080fd5b815163ffffffff81168114620001eb57600080fd5b9392505050565b60805160a05160c0516149c26200024560003960008181611b52015261262c01526000610be50152600081816106550152818161075a0152818161089801528181610d6d015261176101526149c26000f3fe6080604052600436106101855760003560e01c80637620fd01116100d1578063d15b0d491161008a578063f0f4426011610064578063f0f442601461051e578063f2fde38b1461053e578063faaebd211461055e578063fd9be5221461058b57600080fd5b8063d15b0d49146104b1578063d80e9bd9146104d1578063ea69d69d146104fe57600080fd5b80637620fd01146103b65780638da5cb5b146103f95780638eb0bf30146104175780639c33abf714610444578063ab750e7514610471578063c85f4b4e1461049157600080fd5b806320efd7221161013e57806354fd4d501161011857806354fd4d5014610334578063594924da146103615780636750cd4c14610381578063715018a6146103a157600080fd5b806320efd722146102a85780633c782a52146102c85780634389e58f1461030657600080fd5b806301ffc9a714610191578063052368ca146101c65780630e97289b146101e65780631881d94d1461021e5780631fb512251461023a578063200175f71461028657600080fd5b3661018c57005b600080fd5b34801561019d57600080fd5b506101b16101ac36600461389c565b6105ab565b60405190151581526020015b60405180910390f35b3480156101d257600080fd5b506101b16101e13660046138c6565b6105fd565b3480156101f257600080fd5b50600254610206906001600160a01b031681565b6040516001600160a01b0390911681526020016101bd565b34801561022a57600080fd5b5060026040516101bd919061391e565b34801561024657600080fd5b50610278610255366004613996565b600360209081526000938452604080852082529284528284209052825290205481565b6040519081526020016101bd565b34801561029257600080fd5b506102a66102a13660046139db565b61061e565b005b3480156102b457600080fd5b506102a66102c3366004613a67565b610758565b3480156102d457600080fd5b506102786102e3366004613abb565b600460209081526000938452604080852082529284528284209052825290205481565b34801561031257600080fd5b50610326610321366004613b35565b610880565b6040516101bd929190613c0d565b34801561034057600080fd5b5060408051600a8152600060208201526002918101919091526060016101bd565b34801561036d57600080fd5b506102a661037c366004613c31565b610b95565b34801561038d57600080fd5b506101b161039c366004613c81565b610dd6565b3480156103ad57600080fd5b506102a6610de1565b3480156103c257600080fd5b506103da6007546006546001600160a01b0390911691565b604080516001600160a01b0390931683526020830191909152016101bd565b34801561040557600080fd5b506000546001600160a01b0316610206565b34801561042357600080fd5b50610437610432366004613c9c565b610df5565b6040516101bd9190613d86565b34801561045057600080fd5b5061046461045f366004613d99565b6110ed565b6040516101bd9190613dd5565b34801561047d57600080fd5b506102a661048c366004613c31565b611156565b34801561049d57600080fd5b506102a66104ac366004613de8565b6111e1565b3480156104bd57600080fd5b506102a66104cc366004613e29565b611373565b3480156104dd57600080fd5b506104f16104ec366004613b35565b6113e8565b6040516101bd9190613e42565b34801561050a57600080fd5b50610437610519366004613c9c565b611534565b34801561052a57600080fd5b506102a6610539366004613e59565b61166b565b34801561054a57600080fd5b506102a6610559366004613e59565b6116c1565b34801561056a57600080fd5b50610278610579366004613e59565b60056020526000908152604090205481565b34801561059757600080fd5b506102a66105a6366004613e76565b6116ff565b60006001600160e01b031982166325fc096160e21b14806105dc57506001600160e01b0319821663b6e9ace360e01b145b806105f757506301ffc9a760e01b6001600160e01b03198316145b92915050565b600061061361060b8661407d565b858585611827565b90505b949350505050565b6007546001600160a01b0316331461064957604051634b41868f60e11b815260040160405180910390fd5b826001600160a01b03167f00000000000000000000000000000000000000000000000000000000000000006001600160a01b031663e1758bd86040518163ffffffff1660e01b8152600401602060405180830381865afa1580156106b1573d6000803e3d6000fd5b505050506040513d601f19601f820116820180604052508101906106d59190614089565b6001600160a01b0316036106fc57604051632ddfd41160e21b815260040160405180910390fd5b610707838383611983565b604080516001600160a01b038086168252841660208201529081018290527fe081464b7278501267de69fa85b7b9560b0ae05d5fbfaab9b1986c70356e2efe906060015b60405180910390a1505050565b7f00000000000000000000000000000000000000000000000000000000000000006001600160a01b031633146107a15760405163467409c360e01b815260040160405180910390fd5b60005b8181101561087a57368383838181106107bf576107bf6140a6565b90506020028101906107d191906140bc565b90506107e86107e36020830183613c81565b6119c3565b60016107fa6040830160208401613c81565b63ffffffff160361083a576108356108156020830183613c81565b8661082360408501856140dc565b8101906108309190614122565b6119f1565b610871565b61084a6040820160208301613c81565b60405163065c274160e11b815263ffffffff90911660048201526024015b60405180910390fd5b506001016107a4565b50505050565b604080518082019091526000808252602082015260607f00000000000000000000000000000000000000000000000000000000000000006001600160a01b031633146108df5760405163467409c360e01b815260040160405180910390fd5b60808601356109036108f76060890160408a01613e59565b6001600160a01b031690565b146109215760405163a4884a5960e01b815260040160405180910390fd5b60008061092f888888611a3a565b909250905060008061096161094a60608c0160408d01613e59565b61095a60808d0160608e01613c81565b858a611ac3565b9092509050610970828461416c565b925061097f60c08b018b6140dc565b60405161098d92919061417f565b6040518091039020600360008c60400160208101906109ac9190613e59565b6001600160a01b0316815260208101919091526040016000908120906109d860808e0160608f01613c81565b63ffffffff1681526020808201929092526040016000908120916109fe908e018e61418f565b6001600160401b03166001600160401b03168152602001908152602001600020819055506000610b0c6040518060e001604052808d6000016020810190610a45919061418f565b6001600160401b031681526020018d6060016020810190610a669190613c81565b63ffffffff1681526020018d6040016020810190610a849190613e59565b6001600160a01b031681526020018d6020016020810190610aa59190613c81565b63ffffffff16815260808e0135602082015260a08e01356040820152606001610ad160c08f018f6140dc565b8080601f0160208091040260200160405190810160405280939291908181526020018383808284376000920191909152505050915250611bd1565b600254604051631f5dad8b60e31b81529192506001600160a01b03169063faed6c5890610b419084908e908e906004016141d3565b600060405180830381600087803b158015610b5b57600080fd5b505af1158015610b6f573d6000803e3d6000fd5b505060408051808201909152958652505050602083015250925090505b94509492505050565b60518314610bb65760405163864d08b360e01b815260040160405180910390fd5b6001610bc28585611c29565b60ff1614610be357604051637952a82f60e01b815260040160405180910390fd5b7f000000000000000000000000000000000000000000000000000000000000000063ffffffff16610c148585611c4b565b63ffffffff1614610c3857604051631f4b6f8b60e11b815260040160405180910390fd5b6000610c448585611c6e565b90506000610c528686611c80565b90506000610c608787611c90565b6001600160a01b038416600090815260036020908152604080832063ffffffff8716845282528083206001600160401b03851684529091529020549091508514610cbd576040516333074b7760e11b815260040160405180910390fd5b6000610cc98484610df5565b9050610cee818989604051610cdf92919061417f565b60405180910390208888611cb3565b600060405180606001604052808563ffffffff168152602001610d118b8b611e03565b81526001600160401b038581166020928301526040805163a825d74760e01b8152845163ffffffff1660048201529284015160248401528301511660448201526001600160a01b038781166064830152608482018990529192507f00000000000000000000000000000000000000000000000000000000000000009091169063a825d7479060a401600060405180830381600087803b158015610db357600080fd5b505af1158015610dc7573d6000803e3d6000fd5b50505050505050505050505050565b60006105f782611e1c565b610de9611e77565b610df36000611ea4565b565b610dfd6137e3565b63ffffffff821660008181527fa6eef7e35abe7026729641147f7915573c7e97b47efa546f5f6e3230263bcb49602090815260408083206001600160a01b03888116855260018452828520958552949092529091208054919290911680610e6e5782546001600160a01b0316610e70565b805b6001600160a01b031684528154600160a01b900460ff16610f15578254600160a01b900460ff1615610f105782600101805480602002602001604051908101604052809291908181526020018280548015610ef457602002820191906000526020600020905b81546001600160a01b03168152600190910190602001808311610ed6575b505050505060808501528254600160a01b900460ff1660208501525b610f9c565b8154600160a01b900460ff90811614610f9c5781600101805480602002602001604051908101604052809291908181526020018280548015610f8057602002820191906000526020600020905b81546001600160a01b03168152600190910190602001808311610f62575b505050505060808501528154600160a01b900460ff1660208501525b8154600160a81b900460ff16611045578254600160a81b900460ff1615611040578260020180548060200260200160405190810160405280929190818152602001828054801561101557602002820191906000526020600020905b81546001600160a01b03168152600190910190602001808311610ff7575b505050505060a0850152825460ff600160a81b820481166040870152600160b01b9091041660608501525b6110db565b8154600160a81b900460ff908116146110db57816002018054806020026020016040519081016040528092919081815260200182805480156110b057602002820191906000526020600020905b81546001600160a01b03168152600190910190602001808311611092575b505050505060a0850152815460ff600160a81b820481166040870152600160b01b9091041660608501525b6110e484611ef4565b50505092915050565b606060001963ffffffff83160161112e576111088385610df5565b6040516020016111189190613d86565b604051602081830303815290604052905061114f565b60405163065c274160e11b815263ffffffff83166004820152602401610868565b9392505050565b8060046000868660405161116b92919061417f565b60408051918290039091208252602080830193909352908101600090812086825283528181203380835293528190209290925590517f04708e5dfef6005d6d646eb761e3b9e412e1cc5749fc9d884bca441cc7a95258916111d3918790879087908790614203565b60405180910390a150505050565b6111e9611e77565b60005b818110156113355736838383818110611207576112076140a6565b9050602002810190611219919061423c565b905060ff61122a6020830183614252565b61123b906040810190602001614268565b60ff160361125c57604051632ad00e0160e11b815260040160405180910390fd5b60ff61126b6020830183614252565b61127c906060810190604001614268565b60ff160361129d576040516371aa1b6360e11b815260040160405180910390fd5b6112bb6112ad6020830183614252565b6112b69061407d565b611ef4565b60006112ca6020830183614252565b6112d8906020810190613e59565b6001600160a01b0316036112ff57604051633b6faad360e11b815260040160405180910390fd5b61132c60006113116020840184613c81565b61131e6020850185614252565b6113279061407d565b611f2c565b506001016111ec565b507f65edb7dc0f21ba15c998f8bd220ea9fec30757ff9fb07696c634bcce00ce6f348282604051611367929190614309565b60405180910390a15050565b61137b611e77565b6006548111156113ac5760065460405163b79d126360e01b8152610868918391600401918252602082015260400190565b60068190556040518181527f491ff913b5444f4136b0d4075f020cfe3a5f60de926ec0b091612401a22b7842906020015b60405180910390a150565b604080518082019091526000808252602082015260008061140986866121b5565b909250905060006114206060890160408a01613e59565b9050600061143460808a0160608b01613c81565b905060006114428383610df5565b90506000611472828561145c6114578f6144bc565b612374565b8e8060c0019061146c91906140dc565b8a6123ef565b825160405163c8f8dcd160e01b81529192506001600160a01b03169063c8f8dcd1906114a49087908a90600401614559565b602060405180830381865afa1580156114c1573d6000803e3d6000fd5b505050506040513d601f19601f820116820180604052508101906114e5919061457d565b6114ef908261416c565b90506000806115008686858d61259d565b909250905061150f828461416c565b6040805180820190915290815260208101919091529c9b505050505050505050505050565b61153c6137e3565b6001600160a01b03808416600090815260016020818152604080842063ffffffff88168552825292839020835160c0810185528154958616815260ff600160a01b8704811682850152600160a81b8704811682870152600160b01b909604909516606086015291820180548451818402810184019095528085529293608086019390928301828280156115f857602002820191906000526020600020905b81546001600160a01b031681526001909101906020018083116115da575b505050505081526020016002820180548060200260200160405190810160405280929190818152602001828054801561165a57602002820191906000526020600020905b81546001600160a01b0316815260019091019060200180831161163c575b505050505081525050905092915050565b611673611e77565b600780546001600160a01b0319166001600160a01b0383169081179091556040519081527f3c864541ef71378c6229510ed90f376565ee42d9c5e0904a984a9e863e6db44f906020016113dd565b6116c9611e77565b6001600160a01b0381166116f357604051631e4fbdf760e01b815260006004820152602401610868565b6116fc81611ea4565b50565b336000908152600560205260409020548082111561173a5760405163b79d126360e01b81526004810183905260248101829052604401610868565b33600090815260056020908152604080832085850390558051631c2eb17b60e31b815290517f00000000000000000000000000000000000000000000000000000000000000006001600160a01b03169263e1758bd892600480820193918290030181865afa1580156117b0573d6000803e3d6000fd5b505050506040513d601f19601f820116820180604052508101906117d49190614089565b90506117e181858561266e565b604080513381526001600160a01b03861660208201529081018490527f820b7fd51bf79c54350bab98400651b3314ff6e79b33528821871d94a6669883906060016111d3565b602084015160009060ff16156118d35760005b856020015160ff168160ff1610156118bb576118a586608001518260ff1681518110611868576118686140a6565b602002602001015186868660009283526004602090815260408085209385529281528284206001600160a01b039095168452939093529020541490565b6118b3576000915050610616565b60010161183a565b50846040015160ff166000036118d357506001610616565b606085015160005b866040015160ff168160ff161015611976576119468760a001518260ff1681518110611909576119096140a6565b602002602001015187878760009283526004602090815260408085209385529281528284206001600160a01b039095168452939093529020541490565b1561196e578161195581614596565b9250508160ff1660000361196e57600192505050610616565b6001016118db565b5060009695505050505050565b6001600160a01b0382166119aa576040516306b7a93160e41b815260040160405180910390fd5b6119be6001600160a01b0384168383612691565b505050565b6119cc81611e1c565b6116fc576040516303fc0f9560e21b815263ffffffff82166004820152602401610868565b6119fc828483611f2c565b611a068284610df5565b507fe8e2a5b92fc69ac50188ea142042492be8e8c34febb10b2cd02983684336e14282848360405161074b939291906145b3565b60606000806000611a4b86866121b5565b90925090506000611a75611a6560608a0160408b01613e59565b61043260808b0160608c01613c81565b8051909150611a9490611a8e60608b0160408c01613e59565b856126e3565b9350600080611aa4838b866127d6565b9092509050611ab3828761416c565b909a909950975050505050505050565b60075460009081906001600160a01b031615610b8c576040516001600160a01b038716602482015263ffffffff8616604482015260648101859052831515608482015260009060a40160408051601f19818403018152919052602080820180516001600160e01b0316636a8e2a4360e11b1790526007549192506000918291611b7a916001600160a01b0316907f00000000000000000000000000000000000000000000000000000000000000009084908761289e565b91509150611b8a8787848461294e565b90955093508415611bc5576007546001600160a01b031660009081526005602052604081208054879290611bbf90849061416c565b90915550505b50505094509492505050565b8051602080830151604080850151606080870151608088015160a089015160c08a015195519398611c1398600198919791966001600160a01b031695016145e3565b6040516020818303038152906040529050919050565b6000611c38600182848661465e565b611c4191614688565b60f81c9392505050565b6000611c5b6031602d848661465e565b611c64916146b8565b60e01c9392505050565b600061114f611c7d84846129c9565b90565b6000611c5b600d6009848661465e565b6000611ca060096001848661465e565b611ca9916146e6565b60c01c9392505050565b611cbf84848484611827565b611cdc576040516328ca4b5160e01b815260040160405180910390fd5b602084015160ff1615611d6d5760005b846020015160ff168160ff161015611d6b57600084815260046020908152604080832086845290915281206080870151805191929160ff8516908110611d3457611d346140a6565b60200260200101516001600160a01b03166001600160a01b0316815260200190815260200160002060009055806001019050611cec565b505b604084015160ff161561087a5760005b846040015160ff168160ff161015611dfc576000848152600460209081526040808320868452909152812060a0870151805191929160ff8516908110611dc557611dc56140a6565b60200260200101516001600160a01b03166001600160a01b0316815260200190815260200160002060009055806001019050611d7d565b5050505050565b6000611e13602d600d848661465e565b61114f91614714565b63ffffffff811660009081527fa6eef7e35abe7026729641147f7915573c7e97b47efa546f5f6e3230263bcb49602052604081208054600160a01b900460ff1615158061114f575054600160b01b900460ff16151592915050565b6000546001600160a01b03163314610df35760405163118cdaa760e01b8152336004820152602401610868565b600080546001600160a01b038381166001600160a01b0319831681178455604051919092169283917f8be0079c531659141344cd1fd0a4f28419497f9722a3daafe3b4186f6b6457e09190a35050565b602081015160ff16158015611f0e5750606081015160ff16155b156116fc57604051634dafcfbd60e11b815260040160405180910390fd5b602081015160ff9081161480611f475750602081015160ff16155b15611f755760808101515115611f7057604051632ad00e0160e11b815260040160405180910390fd5b611fdb565b806020015160ff16816080015151141580611fb057506002611f99600160ff614732565b611fa3919061474b565b60ff16816020015160ff16115b15611fce57604051632ad00e0160e11b815260040160405180910390fd5b611fdb81608001516129d9565b604081015160ff9081161480611ff65750604081015160ff16155b1561204a5760a0810151511561201f576040516371aa1b6360e11b815260040160405180910390fd5b606081015160ff161561204557604051637c94a05f60e11b815260040160405180910390fd5b6120ef565b806040015160ff168160a00151511415806120855750600261206e600160ff614732565b612078919061474b565b60ff16816040015160ff16115b156120a3576040516371aa1b6360e11b815260040160405180910390fd5b606081015160ff1615806120c45750806040015160ff16816060015160ff16115b156120e257604051637c94a05f60e11b815260040160405180910390fd5b6120ef8160a001516129d9565b6001600160a01b03838116600090815260016020818152604080842063ffffffff881685528252928390208551815487840151958801516060890151929097166001600160a81b031990911617600160a01b60ff968716021761ffff60a81b1916600160a81b9686169690960260ff60b01b191695909517600160b01b949095169390930293909317825560808401518051859461219193850192019061382b565b5060a082015180516121ad91600284019160209091019061382b565b505050505050565b60608060028310156121dd5760405163196499c760e21b815260006004820152602401610868565b60006121ec600282868861465e565b6121f59161477b565b60f01c90506002600219820161235d578060005b8683101561230257600061222260018501858a8c61465e565b61222b91614688565b60f81c9050600081900361225557604051636780cfaf60e01b815260006004820152602401610868565b8160ff16600003612268578091506122a5565b8160ff168160ff16146122a55736600061228486868c8e61465e565b915091506122958989868585612a40565b9099509750859450919250829150505b60018401936000906122bc90600301868b8d61465e565b6122c59161477b565b60f01c905060008190036122ef5760405163196499c760e21b815260048101869052602401610868565b8060020161ffff16850194505050612209565b8287146123255760405163196499c760e21b815260048101849052602401610868565b60028711156123565736600061233d85858b8d61465e565b9150915061234e8888858585612a40565b909850965050505b505061236b565b612368828787612b60565b93505b50509250929050565b805160208083015160408085015160608087015160808801519351600160f81b9681019690965260c09690961b6001600160c01b031916602186015260e093841b6001600160e01b031990811660298701526001600160a01b03909216602d8601529490921b909116604d8301526051820152607101611c13565b60008060006123fd84612ceb565b91509150600089604001518a6020015161241791906147a9565b905060005b8160ff168160ff16101561258f5760008b6020015160ff168260ff16106124715760a08c015160208d01516124519084614732565b60ff1681518110612464576124646140a6565b6020026020010151612493565b8b608001518260ff168151811061248a5761248a6140a6565b60200260200101515b60408051602081019091526000808252919250905b8551811015612500578360ff168682815181106124c7576124c76140a6565b602002602001015160ff16036124f8578681815181106124e9576124e96140a6565b60200260200101519150612500565b6001016124a8565b5060405163fdb9b0f160e01b81526001600160a01b0383169063fdb9b0f190612535908f908f908f908f9088906004016147c2565b602060405180830381865afa158015612552573d6000803e3d6000fd5b505050506040513d601f19601f82011682018060405250810190612576919061457d565b612580908861416c565b9650505080600101905061241c565b505050509695505050505050565b60075460009081906001600160a01b031615610b8c576040516001600160a01b038716602482015263ffffffff8616604482015260648101859052831515608482015260009060a40160408051601f19818403018152919052602080820180516001600160e01b031663d424422160e01b1790526007549192506000918291612652916001600160a01b0316907f00000000000000000000000000000000000000000000000000000000000000009086612f51565b915091506126628787848461294e565b94509450505050610b8c565b6001600160a01b038316612686576119be8282612ffd565b6119be838383611983565b604080516001600160a01b038416602482015260448082018490528251808303909101815260649091019091526020810180516001600160e01b031663a9059cbb60e01b1790526119be9084906130aa565b60405163c015bb7d60e01b81526000906001600160a01b0385169063c015bb7d906127149086908690600401614559565b6020604051808303816000875af1158015612733573d6000803e3d6000fd5b505050506040513d601f19601f82011682018060405250810190612757919061457d565b9050801561278d576001600160a01b0384166000908152600560205260408120805483929061278790849061416c565b90915550505b604080516001600160a01b0386168152602081018390527f61ed099e74a97a1d7f8bb0952a88ca8b7b8ebd00c126ea04671f92a81213318a910160405180910390a19392505050565b60006060816127e7611457866144bc565b905060006127fc6127f7876144bc565b61311b565b905060606128278861281389840160408b01613e59565b8561282160c08c018c6140dc565b8b613138565b604051919650915061283f9084908490602001614819565b60405160208183030381529060405293507f07ea52d82345d6e838192107d8fd7123d9c2ec8e916cd0aad13fd2b60db2464488608001518960a001518360405161288b93929190614848565b60405180910390a1505050935093915050565b60006060863b8083036128c557604080516000808252602082019092529250925050612944565b60008060008761ffff166001600160401b038111156128e6576128e6613ea2565b6040519080825280601f01601f191660200182016040528015612910576020820181803683370190505b509050600080885160208a018c8f8ff191503d925087831115612931578792505b828152826000602083013e909450925050505b9550959350505050565b60008083158061295f575082516020115b1561296f57506000905080610b8c565b600083806020019051810190612985919061457d565b90508515612995578091506129bf565b600060065488116129a8576006546129aa565b875b90508082116129b957816129bb565b805b9350505b5094509492505050565b6000611e1360516031848661465e565b6000805b82518110156119be5760008382815181106129fa576129fa6140a6565b60200260200101519050826001600160a01b0316816001600160a01b031611612a365760405163c0762a5d60e01b815260040160405180910390fd5b91506001016129dd565b60608060001960ff861601612abd57865115612a7f57868484604051602001612a6b939291906148a6565b604051602081830303815290604052612ab6565b83838080601f0160208091040260200160405190810160405280939291908181526020018383808284376000920191909152505050505b9650612b55565b60011960ff861601612b3757855115612af957858484604051602001612ae5939291906148a6565b604051602081830303815290604052612b30565b83838080601f0160208091040260200160405190810160405280939291908181526020018383808284376000920191909152505050505b9550612b55565b604051636780cfaf60e01b815260ff86166004820152602401610868565b509495939450505050565b606060001961ffff851601612c005760228214612b90576040516301b8ca5560e31b815260040160405180910390fd5b6000612bb1612ba360226002868861465e565b612bac91614714565b6133ec565b604051600160f81b60208201819052601160f01b602183015260238201526001600160801b0319608083901b16602482015290915060340160405160208183030381529060405291505061114f565b60011961ffff851601612ccc57604282111580612c1d5750606282115b15612c3b576040516360493e2b60e11b815260040160405180910390fd5b6000612c4e612ba360226002868861465e565b90506000612c63612ba360426022878961465e565b905060006041198501612c79866042818a61465e565b612c8291614714565b60405160086020938403029190911c9250612cb3916001916011918391889183916031916002918b918b91016148ce565b604051602081830303815290604052935050505061114f565b604051630417051360e41b815261ffff85166004820152602401610868565b6060808251600003612cfc57915091565b6000612d078461342d565b90508060ff16600103612db95760408051600180825281830190925290816020015b6060815260200190600190039081612d295790505092508383600081518110612d5457612d546140a6565b602090810291909101015260408051600180825281830190925290816020016020820280368337019050509150612d8c846003613507565b82600081518110612d9f57612d9f6140a6565b602002602001019060ff16908160ff168152505050915091565b8060ff166001600160401b03811115612dd457612dd4613ea2565b604051908082528060200260200182016040528015612dfd578160200160208202803683370190505b5091508060ff166001600160401b03811115612e1b57612e1b613ea2565b604051908082528060200260200182016040528015612e4e57816020015b6060815260200190600190039081612e395790505b50925060008060ff5b8651831015612ee4576001909201916000612e728885613563565b6002949094019390506000612e878986613507565b90508260ff1660ff03612e9c57809250612ed5565b8260ff168160ff1614612ed557600219848603016000612ebd8b87846135c0565b9050612ecb8a8a87846136cd565b5093909301929150815b5061ffff169290920191612e57565b8183036000612ef48985846135c0565b9050612f02888885846136cd565b60005b8660ff168160ff161015612f4557878160ff1681518110612f2857612f286140a6565b6020908102919091010180516000190160ff169052600101612f05565b50505050505050915091565b60006060853b808303612f7857604080516000808252602082019092529250925050610b8c565b60008060008761ffff166001600160401b03811115612f9957612f99613ea2565b6040519080825280601f01601f191660200182016040528015612fc3576020820181803683370190505b509050600080885160208a018d8dfa91503d925087831115612fe3578792505b828152826000602083013e90999098509650505050505050565b6001600160a01b038216613024576040516306b7a93160e41b815260040160405180910390fd5b6000826001600160a01b03168260405160006040518083038185875af1925050503d8060008114613071576040519150601f19603f3d011682016040523d82523d6000602084013e613076565b606091505b50509050806119be57604051631196f20d60e21b81526001600160a01b038416600482015260248101839052604401610868565b600080602060008451602086016000885af1806130cd576040513d6000823e3d81fd5b50506000513d915081156130e55780600114156130f2565b6001600160a01b0384163b155b1561087a57604051635274afe760e01b81526001600160a01b0385166004820152602401610868565b60608160a001518260c00151604051602001611c13929190614966565b6000606060008061314885612ceb565b9150915060008a604001518b6020015161316291906147a9565b90508060ff166001600160401b0381111561317f5761317f613ea2565b6040519080825280602002602001820160405280156131a8578160200160208202803683370190505b50935060005b8160ff168160ff1610156133dd5760008c6020015160ff168260ff16106132035760a08d015160208e01516131e39084614732565b60ff16815181106131f6576131f66140a6565b6020026020010151613225565b8c608001518260ff168151811061321c5761321c6140a6565b60200260200101515b60408051602081019091526000808252919250905b8551811015613292578360ff16868281518110613259576132596140a6565b602002602001015160ff160361328a5786818151811061327b5761327b6140a6565b60200260200101519150613292565b60010161323a565b50816001600160a01b031663f42ed2ed8e8e8e8e866040518663ffffffff1660e01b81526004016132c79594939291906147c2565b6020604051808303816000875af11580156132e6573d6000803e3d6000fd5b505050506040513d601f19601f8201168201806040525081019061330a919061457d565b878460ff168151811061331f5761331f6140a6565b6020026020010181815250506000878460ff1681518110613342576133426140a6565b602002602001015111156133d357868360ff1681518110613365576133656140a6565b602002602001015160056000846001600160a01b03166001600160a01b0316815260200190815260200160002060008282546133a1919061416c565b92505081905550868360ff16815181106133bd576133bd6140a6565b6020026020010151886133d0919061416c565b97505b50506001016131ae565b50505050965096945050505050565b60006fffffffffffffffffffffffffffffffff821115613429576040516306dfcc6560e41b81526080600482015260248101839052604401610868565b5090565b600080805b83518210156134dc57600190910190600061344d8584613563565b905060028301925060028161ffff16101561347e5760405163013adb8360e21b815260048101849052602401610868565b600061348a8685613507565b90508060ff1660ff036134b0576040516334f4f66f60e21b815260040160405180910390fd5b600160ff82161b83166134cd5760019485019460ff82161b831792505b5061ffff169190910190613432565b835182146135005760405163013adb8360e21b815260048101839052602401610868565b5050919050565b600061351482600161416c565b8351101561355a5760405162461bcd60e51b8152602060048201526013602482015272746f55696e74385f6f75744f66426f756e647360681b6044820152606401610868565b50016001015190565b600061357082600261416c565b835110156135b75760405162461bcd60e51b8152602060048201526014602482015273746f55696e7431365f6f75744f66426f756e647360601b6044820152606401610868565b50016002015190565b6060816135ce81601f61416c565b101561360d5760405162461bcd60e51b815260206004820152600e60248201526d736c6963655f6f766572666c6f7760901b6044820152606401610868565b613617828461416c565b8451101561365b5760405162461bcd60e51b8152602060048201526011602482015270736c6963655f6f75744f66426f756e647360781b6044820152606401610868565b60608215801561367a57604051915060008252602082016040526136c4565b6040519150601f8416801560200281840101858101878315602002848b0101015b818310156136b357805183526020928301920161369b565b5050858452601f01601f1916604052505b50949350505050565b8160ff1660ff036136f1576040516334f4f66f60e21b815260040160405180910390fd5b60006136fe8360016147a9565b905060005b84518110156121ad576000858281518110613720576137206140a6565b602002602001015190508060ff168360ff160361379557868281518110613749576137496140a6565b602002602001015184604051602001613763929190614819565b604051602081830303815290604052878381518110613784576137846140a6565b6020026020010181905250506121ad565b8060ff166000036137da57828683815181106137b3576137b36140a6565b602002602001019060ff16908160ff168152505083878381518110613784576137846140a6565b50600101613703565b6040518060c0016040528060006001600160a01b03168152602001600060ff168152602001600060ff168152602001600060ff16815260200160608152602001606081525090565b828054828255906000526020600020908101928215613880579160200282015b8281111561388057825182546001600160a01b0319166001600160a01b0390911617825560209092019160019091019061384b565b506134299291505b808211156134295760008155600101613888565b6000602082840312156138ae57600080fd5b81356001600160e01b03198116811461114f57600080fd5b600080600080608085870312156138dc57600080fd5b84356001600160401b038111156138f257600080fd5b850160c0818803121561390457600080fd5b966020860135965060408601359560600135945092505050565b602081016003831061394057634e487b7160e01b600052602160045260246000fd5b91905290565b6001600160a01b03811681146116fc57600080fd5b803561396681613946565b919050565b803563ffffffff8116811461396657600080fd5b80356001600160401b038116811461396657600080fd5b6000806000606084860312156139ab57600080fd5b83356139b681613946565b92506139c46020850161396b565b91506139d26040850161397f565b90509250925092565b6000806000606084860312156139f057600080fd5b83356139fb81613946565b92506020840135613a0b81613946565b929592945050506040919091013590565b60008083601f840112613a2e57600080fd5b5081356001600160401b03811115613a4557600080fd5b6020830191508360208260051b8501011115613a6057600080fd5b9250929050565b600080600060408486031215613a7c57600080fd5b8335613a8781613946565b925060208401356001600160401b03811115613aa257600080fd5b613aae86828701613a1c565b9497909650939450505050565b600080600060608486031215613ad057600080fd5b83359250602084013591506040840135613ae981613946565b809150509250925092565b60008083601f840112613b0657600080fd5b5081356001600160401b03811115613b1d57600080fd5b602083019150836020828501011115613a6057600080fd5b60008060008060608587031215613b4b57600080fd5b84356001600160401b0380821115613b6257600080fd5b9086019060e08289031215613b7657600080fd5b90945060208601359080821115613b8c57600080fd5b50613b9987828801613af4565b90945092505060408501358015158114613bb257600080fd5b939692955090935050565b60005b83811015613bd8578181015183820152602001613bc0565b50506000910152565b60008151808452613bf9816020860160208601613bbd565b601f01601f19169290920160200192915050565b82518152602080840151908201526060604082015260006106166060830184613be1565b60008060008060608587031215613c4757600080fd5b84356001600160401b03811115613c5d57600080fd5b613c6987828801613af4565b90989097506020870135966040013595509350505050565b600060208284031215613c9357600080fd5b61114f8261396b565b60008060408385031215613caf57600080fd5b8235613cba81613946565b9150613cc86020840161396b565b90509250929050565b60008151808452602080850194506020840160005b83811015613d0b5781516001600160a01b031687529582019590820190600101613ce6565b509495945050505050565b60018060a01b03815116825260ff602082015116602083015260ff604082015116604083015260ff60608201511660608301526000608082015160c06080850152613d6460c0850182613cd1565b905060a083015184820360a0860152613d7d8282613cd1565b95945050505050565b60208152600061114f6020830184613d16565b600080600060608486031215613dae57600080fd5b613db78461396b565b92506020840135613dc781613946565b91506139d26040850161396b565b60208152600061114f6020830184613be1565b60008060208385031215613dfb57600080fd5b82356001600160401b03811115613e1157600080fd5b613e1d85828601613a1c565b90969095509350505050565b600060208284031215613e3b57600080fd5b5035919050565b8151815260208083015190820152604081016105f7565b600060208284031215613e6b57600080fd5b813561114f81613946565b60008060408385031215613e8957600080fd5b8235613e9481613946565b946020939093013593505050565b634e487b7160e01b600052604160045260246000fd5b60405160c081016001600160401b0381118282101715613eda57613eda613ea2565b60405290565b60405160e081016001600160401b0381118282101715613eda57613eda613ea2565b604051601f8201601f191681016001600160401b0381118282101715613f2a57613f2a613ea2565b604052919050565b803560ff8116811461396657600080fd5b600082601f830112613f5457600080fd5b813560206001600160401b03821115613f6f57613f6f613ea2565b8160051b613f7e828201613f02565b9283528481018201928281019087851115613f9857600080fd5b83870192505b84831015613fc0578235613fb181613946565b82529183019190830190613f9e565b979650505050505050565b600060c08284031215613fdd57600080fd5b613fe5613eb8565b9050613ff08261395b565b8152613ffe60208301613f32565b602082015261400f60408301613f32565b604082015261402060608301613f32565b606082015260808201356001600160401b038082111561403f57600080fd5b61404b85838601613f43565b608084015260a084013591508082111561406457600080fd5b5061407184828501613f43565b60a08301525092915050565b60006105f73683613fcb565b60006020828403121561409b57600080fd5b815161114f81613946565b634e487b7160e01b600052603260045260246000fd5b60008235605e198336030181126140d257600080fd5b9190910192915050565b6000808335601e198436030181126140f357600080fd5b8301803591506001600160401b0382111561410d57600080fd5b602001915036819003821315613a6057600080fd5b60006020828403121561413457600080fd5b81356001600160401b0381111561414a57600080fd5b61061684828501613fcb565b634e487b7160e01b600052601160045260246000fd5b808201808211156105f7576105f7614156565b8183823760009101908152919050565b6000602082840312156141a157600080fd5b61114f8261397f565b81835281816020850137506000828201602090810191909152601f909101601f19169091010190565b6040815260006141e66040830186613be1565b82810360208401526141f98185876141aa565b9695505050505050565b6001600160a01b038616815260806020820181905260009061422890830186886141aa565b604083019490945250606001529392505050565b60008235603e198336030181126140d257600080fd5b6000823560be198336030181126140d257600080fd5b60006020828403121561427a57600080fd5b61114f82613f32565b6000808335601e1984360301811261429a57600080fd5b83016020810192503590506001600160401b038111156142b957600080fd5b8060051b3603821315613a6057600080fd5b8183526000602080850194508260005b85811015613d0b5781356142ee81613946565b6001600160a01b0316875295820195908201906001016142db565b60208082528181018390526000906040808401600586901b8501820187855b8881101561443f57603f19808985030185528235603e198c360301811261434e57600080fd5b8b0163ffffffff61435e8261396b565b1685528781013560be1982360301811261437757600080fd5b85890188905201803561438981613946565b6001600160a01b0316858801526143a1818901613f32565b606060ff808316828901526143b78a8501613f32565b92506080818416818a01526143cd838601613f32565b935060a09250818416838a01526143e681860186614283565b60c08b810152945091506144019050610100890184836142cb565b92505061441081840184614283565b93509050838783030160e08801526144298284836142cb565b978a019796505050928701925050600101614328565b509098975050505050505050565b600082601f83011261445e57600080fd5b81356001600160401b0381111561447757614477613ea2565b61448a601f8201601f1916602001613f02565b81815284602083860101111561449f57600080fd5b816020850160208301376000918101602001919091529392505050565b600060e082360312156144ce57600080fd5b6144d6613ee0565b6144df8361397f565b81526144ed6020840161396b565b60208201526144fe6040840161395b565b604082015261450f6060840161396b565b60608201526080830135608082015260a083013560a082015260c08301356001600160401b0381111561454157600080fd5b61454d3682860161444d565b60c08301525092915050565b6001600160a01b038316815260406020820181905260009061061690830184613be1565b60006020828403121561458f57600080fd5b5051919050565b600060ff8216806145a9576145a9614156565b6000190192915050565b6001600160a01b038416815263ffffffff8316602082015260606040820181905260009061061390830184613d16565b60ff60f81b8960f81b1681526001600160401b0360c01b8860c01b166001820152600063ffffffff60e01b808960e01b16600984015287600d840152808760e01b16602d84015250846031830152836051830152825161464a816071850160208701613bbd565b919091016071019998505050505050505050565b6000808585111561466e57600080fd5b8386111561467b57600080fd5b5050820193919092039150565b6001600160f81b031981358181169160018510156146b05780818660010360031b1b83161692505b505092915050565b6001600160e01b031981358181169160048510156146b05760049490940360031b84901b1690921692915050565b6001600160c01b031981358181169160088510156146b05760089490940360031b84901b1690921692915050565b803560208310156105f757600019602084900360031b1b1692915050565b60ff82811682821603908111156105f7576105f7614156565b600060ff83168061476c57634e487b7160e01b600052601260045260246000fd5b8060ff84160491505092915050565b6001600160f01b031981358181169160028510156146b05760029490940360031b84901b1690921692915050565b60ff81811683821601908111156105f7576105f7614156565b6001600160a01b03861681526080602082018190526000906147e690830187613be1565b82810360408401526147f98186886141aa565b9050828103606084015261480d8185613be1565b98975050505050505050565b6000835161482b818460208801613bbd565b83519083019061483f818360208801613bbd565b01949350505050565b60608152600061485b6060830186613cd1565b6020838203602085015261486f8287613cd1565b84810360408601528551808252602080880194509091019060005b8181101561443f5784518352938301939183019160010161488a565b600084516148b8818460208901613bbd565b8201838582376000930192835250909392505050565b60f88a811b6001600160f81b0319908116835260f08b811b6001600160f01b031990811660018601528b841b8316600386015260808b901b6001600160801b031916600486015289841b831660148601529088901b1660158401529085901b166017820152600061494e601883018560801b6001600160801b0319169052565b50602881019190915260480198975050505050505050565b8281526000825161497e816020850160208701613bbd565b91909101602001939250505056fea2646970667358221220aa3c2aa17972b91a5ad74e17a6fe1bc85298f9e147161924798ce8a3a1115efc64736f6c63430008160033",
    "linkReferences": {}
  },
  "methodIdentifiers": {
    "cmdHashLookup(address,uint32,uint64)": "1fb51225",
    "commitVerification(bytes,bytes32,bytes32)": "594924da",
    "fees(address)": "faaebd21",
    "getAppReadLibConfig(address,uint32)": "ea69d69d",
    "getConfig(uint32,address,uint32)": "9c33abf7",
    "getReadLibConfig(address,uint32)": "8eb0bf30",
    "getTreasuryAndNativeFeeCap()": "7620fd01",
    "hashLookup(bytes32,bytes32,address)": "3c782a52",
    "isSupportedEid(uint32)": "6750cd4c",
    "messageLibType()": "1881d94d",
    "owner()": "8da5cb5b",
    "quote((uint64,uint32,address,uint32,bytes32,bytes32,bytes),bytes,bool)": "d80e9bd9",
    "renounceOwnership()": "715018a6",
    "send((uint64,uint32,address,uint32,bytes32,bytes32,bytes),bytes,bool)": "4389e58f",
    "setConfig(address,(uint32,uint32,bytes)[])": "20efd722",
    "setDefaultReadLibConfigs((uint32,(address,uint8,uint8,uint8,address[],address[]))[])": "c85f4b4e",
    "setTreasury(address)": "f0f44260",
    "setTreasuryNativeFeeCap(uint256)": "d15b0d49",
    "supportsInterface(bytes4)": "01ffc9a7",
    "testHelper()": "0e97289b",
    "transferOwnership(address)": "f2fde38b",
    "verifiable((address,uint8,uint8,uint8,address[],address[]),bytes32,bytes32,bytes32)": "052368ca",
    "verify(bytes,bytes32,bytes32)": "ab750e75",
    "version()": "54fd4d50",
    "withdrawFee(address,uint256)": "fd9be522",
    "withdrawLzTokenFee(address,address,uint256)": "200175f7"
  },
  "id": 80
}