{
  "abi": [
    {
      "type": "constructor",
      "inputs": [
        {
          "name": "_name",
          "type": "string",
          "internalType": "string"
        },
        {
          "name": "_symbol",
          "type": "string",
          "internalType": "string"
        },
        {
          "name": "_lzEndpoint",
          "type": "address",
          "internalType": "address"
        },
        {
          "name": "_delegate",
          "type": "address",
          "internalType": "address"
        }
      ],
      "stateMutability": "nonpayable"
    },
    {
      "type": "function",
      "name": "SEND",
      "inputs": [],
      "outputs": [
        {
          "name": "",
          "type": "uint16",
          "internalType": "uint16"
        }
      ],
      "stateMutability": "view"
    },
    {
      "type": "function",
      "name": "SEND_AND_CALL",
      "inputs": [],
      "outputs": [
        {
          "name": "",
          "type": "uint16",
          "internalType": "uint16"
        }
      ],
      "stateMutability": "view"
    },
    {
      "type": "function",
      "name": "allowInitializePath",
      "inputs": [
        {
          "name": "origin",
          "type": "tuple",
          "internalType": "struct Origin",
          "components": [
            {
              "name": "srcEid",
              "type": "uint32",
              "internalType": "uint32"
            },
            {
              "name": "sender",
              "type": "bytes32",
              "internalType": "bytes32"
            },
            {
              "name": "nonce",
              "type": "uint64",
              "internalType": "uint64"
            }
          ]
        }
      ],
      "outputs": [
        {
          "name": "",
          "type": "bool",
          "internalType": "bool"
        }
      ],
      "stateMutability": "view"
    },
    {
      "type": "function",
      "name": "allowance",
      "inputs": [
        {
          "name": "owner",
          "type": "address",
          "internalType": "address"
        },
        {
          "name": "spender",
          "type": "address",
          "internalType": "address"
        }
      ],
      "outputs": [
        {
          "name": "",
          "type": "uint256",
          "internalType": "uint256"
        }
      ],
      "stateMutability": "view"
    },
    {
      "type": "function",
      "name": "approvalRequired",
      "inputs": [],
      "outputs": [
        {
          "name": "",
          "type": "bool",
          "internalType": "bool"
        }
      ],
      "stateMutability": "pure"
    },
    {
      "type": "function",
      "name": "approve",
      "inputs": [
        {
          "name": "spender",
          "type": "address",
          "internalType": "address"
        },
        {
          "name": "value",
          "type": "uint256",
          "internalType": "uint256"
        }
      ],
      "outputs": [
        {
          "name": "",
          "type": "bool",
          "internalType": "bool"
        }
      ],
      "stateMutability": "nonpayable"
    },
    {
      "type": "function",
      "name": "balanceOf",
      "inputs": [
        {
          "name": "account",
          "type": "address",
          "internalType": "address"
        }
      ],
      "outputs": [
        {
          "name": "",
          "type": "uint256",
          "internalType": "uint256"
        }
      ],
      "stateMutability": "view"
    },
    {
      "type": "function",
      "name": "buildMsgAndOptions",
      "inputs": [
        {
          "name": "_sendParam",
          "type": "tuple",
          "internalType": "struct SendParam",
          "components": [
            {
              "name": "dstEid",
              "type": "uint32",
              "internalType": "uint32"
            },
            {
              "name": "to",
              "type": "bytes32",
              "internalType": "bytes32"
            },
            {
              "name": "amountLD",
              "type": "uint256",
              "internalType": "uint256"
            },
            {
              "name": "minAmountLD",
              "type": "uint256",
              "internalType": "uint256"
            },
            {
              "name": "extraOptions",
              "type": "bytes",
              "internalType": "bytes"
            },
            {
              "name": "composeMsg",
              "type": "bytes",
              "internalType": "bytes"
            },
            {
              "name": "oftCmd",
              "type": "bytes",
              "internalType": "bytes"
            }
          ]
        },
        {
          "name": "_amountToCreditLD",
          "type": "uint256",
          "internalType": "uint256"
        }
      ],
      "outputs": [
        {
          "name": "message",
          "type": "bytes",
          "internalType": "bytes"
        },
        {
          "name": "options",
          "type": "bytes",
          "internalType": "bytes"
        }
      ],
      "stateMutability": "view"
    },
    {
      "type": "function",
      "name": "combineOptions",
      "inputs": [
        {
          "name": "_eid",
          "type": "uint32",
          "internalType": "uint32"
        },
        {
          "name": "_msgType",
          "type": "uint16",
          "internalType": "uint16"
        },
        {
          "name": "_extraOptions",
          "type": "bytes",
          "internalType": "bytes"
        }
      ],
      "outputs": [
        {
          "name": "",
          "type": "bytes",
          "internalType": "bytes"
        }
      ],
      "stateMutability": "view"
    },
    {
      "type": "function",
      "name": "credit",
      "inputs": [
        {
          "name": "_to",
          "type": "address",
          "internalType": "address"
        },
        {
          "name": "_amountToCreditLD",
          "type": "uint256",
          "internalType": "uint256"
        },
        {
          "name": "_srcEid",
          "type": "uint32",
          "internalType": "uint32"
        }
      ],
      "outputs": [
        {
          "name": "amountReceivedLD",
          "type": "uint256",
          "internalType": "uint256"
        }
      ],
      "stateMutability": "nonpayable"
    },
    {
      "type": "function",
      "name": "debit",
      "inputs": [
        {
          "name": "_amountToSendLD",
          "type": "uint256",
          "internalType": "uint256"
        },
        {
          "name": "_minAmountToCreditLD",
          "type": "uint256",
          "internalType": "uint256"
        },
        {
          "name": "_dstEid",
          "type": "uint32",
          "internalType": "uint32"
        }
      ],
      "outputs": [
        {
          "name": "amountDebitedLD",
          "type": "uint256",
          "internalType": "uint256"
        },
        {
          "name": "amountToCreditLD",
          "type": "uint256",
          "internalType": "uint256"
        }
      ],
      "stateMutability": "nonpayable"
    },
    {
      "type": "function",
      "name": "debitView",
      "inputs": [
        {
          "name": "_amountToSendLD",
          "type": "uint256",
          "internalType": "uint256"
        },
        {
          "name": "_minAmountToCreditLD",
          "type": "uint256",
          "internalType": "uint256"
        },
        {
          "name": "_dstEid",
          "type": "uint32",
          "internalType": "uint32"
        }
      ],
      "outputs": [
        {
          "name": "amountDebitedLD",
          "type": "uint256",
          "internalType": "uint256"
        },
        {
          "name": "amountToCreditLD",
          "type": "uint256",
          "internalType": "uint256"
        }
      ],
      "stateMutability": "view"
    },
    {
      "type": "function",
      "name": "decimalConversionRate",
      "inputs": [],
      "outputs": [
        {
          "name": "",
          "type": "uint256",
          "internalType": "uint256"
        }
      ],
      "stateMutability": "view"
    },
    {
      "type": "function",
      "name": "decimals",
      "inputs": [],
      "outputs": [
        {
          "name": "",
          "type": "uint8",
          "internalType": "uint8"
        }
      ],
      "stateMutability": "view"
    },
    {
      "type": "function",
      "name": "endpoint",
      "inputs": [],
      "outputs": [
        {
          "name": "",
          "type": "address",
          "internalType": "contract ILayerZeroEndpointV2"
        }
      ],
      "stateMutability": "view"
    },
    {
      "type": "function",
      "name": "enforcedOptions",
      "inputs": [
        {
          "name": "eid",
          "type": "uint32",
          "internalType": "uint32"
        },
        {
          "name": "msgType",
          "type": "uint16",
          "internalType": "uint16"
        }
      ],
      "outputs": [
        {
          "name": "enforcedOption",
          "type": "bytes",
          "internalType": "bytes"
        }
      ],
      "stateMutability": "view"
    },
    {
      "type": "function",
      "name": "isComposeMsgSender",
      "inputs": [
        {
          "name": "",
          "type": "tuple",
          "internalType": "struct Origin",
          "components": [
            {
              "name": "srcEid",
              "type": "uint32",
              "internalType": "uint32"
            },
            {
              "name": "sender",
              "type": "bytes32",
              "internalType": "bytes32"
            },
            {
              "name": "nonce",
              "type": "uint64",
              "internalType": "uint64"
            }
          ]
        },
        {
          "name": "",
          "type": "bytes",
          "internalType": "bytes"
        },
        {
          "name": "_sender",
          "type": "address",
          "internalType": "address"
        }
      ],
      "outputs": [
        {
          "name": "",
          "type": "bool",
          "internalType": "bool"
        }
      ],
      "stateMutability": "view"
    },
    {
      "type": "function",
      "name": "isPeer",
      "inputs": [
        {
          "name": "_eid",
          "type": "uint32",
          "internalType": "uint32"
        },
        {
          "name": "_peer",
          "type": "bytes32",
          "internalType": "bytes32"
        }
      ],
      "outputs": [
        {
          "name": "",
          "type": "bool",
          "internalType": "bool"
        }
      ],
      "stateMutability": "view"
    },
    {
      "type": "function",
      "name": "lzReceive",
      "inputs": [
        {
          "name": "_origin",
          "type": "tuple",
          "internalType": "struct Origin",
          "components": [
            {
              "name": "srcEid",
              "type": "uint32",
              "internalType": "uint32"
            },
            {
              "name": "sender",
              "type": "bytes32",
              "internalType": "bytes32"
            },
            {
              "name": "nonce",
              "type": "uint64",
              "internalType": "uint64"
            }
          ]
        },
        {
          "name": "_guid",
          "type": "bytes32",
          "internalType": "bytes32"
        },
        {
          "name": "_message",
          "type": "bytes",
          "internalType": "bytes"
        },
        {
          "name": "_executor",
          "type": "address",
          "internalType": "address"
        },
        {
          "name": "_extraData",
          "type": "bytes",
          "internalType": "bytes"
        }
      ],
      "outputs": [],
      "stateMutability": "payable"
    },
    {
      "type": "function",
      "name": "lzReceiveAndRevert",
      "inputs": [
        {
          "name": "_packets",
          "type": "tuple[]",
          "internalType": "struct InboundPacket[]",
          "components": [
            {
              "name": "origin",
              "type": "tuple",
              "internalType": "struct Origin",
              "components": [
                {
                  "name": "srcEid",
                  "type": "uint32",
                  "internalType": "uint32"
                },
                {
                  "name": "sender",
                  "type": "bytes32",
                  "internalType": "bytes32"
                },
                {
                  "name": "nonce",
                  "type": "uint64",
                  "internalType": "uint64"
                }
              ]
            },
            {
              "name": "dstEid",
              "type": "uint32",
              "internalType": "uint32"
            },
            {
              "name": "receiver",
              "type": "address",
              "internalType": "address"
            },
            {
              "name": "guid",
              "type": "bytes32",
              "internalType": "bytes32"
            },
            {
              "name": "value",
              "type": "uint256",
              "internalType": "uint256"
            },
            {
              "name": "executor",
              "type": "address",
              "internalType": "address"
            },
            {
              "name": "message",
              "type": "bytes",
              "internalType": "bytes"
            },
            {
              "name": "extraData",
              "type": "bytes",
              "internalType": "bytes"
            }
          ]
        }
      ],
      "outputs": [],
      "stateMutability": "payable"
    },
    {
      "type": "function",
      "name": "lzReceiveSimulate",
      "inputs": [
        {
          "name": "_origin",
          "type": "tuple",
          "internalType": "struct Origin",
          "components": [
            {
              "name": "srcEid",
              "type": "uint32",
              "internalType": "uint32"
            },
            {
              "name": "sender",
              "type": "bytes32",
              "internalType": "bytes32"
            },
            {
              "name": "nonce",
              "type": "uint64",
              "internalType": "uint64"
            }
          ]
        },
        {
          "name": "_guid",
          "type": "bytes32",
          "internalType": "bytes32"
        },
        {
          "name": "_message",
          "type": "bytes",
          "internalType": "bytes"
        },
        {
          "name": "_executor",
          "type": "address",
          "internalType": "address"
        },
        {
          "name": "_extraData",
          "type": "bytes",
          "internalType": "bytes"
        }
      ],
      "outputs": [],
      "stateMutability": "payable"
    },
    {
      "type": "function",
      "name": "mint",
      "inputs": [
        {
          "name": "_to",
          "type": "address",
          "internalType": "address"
        },
        {
          "name": "_amount",
          "type": "uint256",
          "internalType": "uint256"
        }
      ],
      "outputs": [],
      "stateMutability": "nonpayable"
    },
    {
      "type": "function",
      "name": "msgInspector",
      "inputs": [],
      "outputs": [
        {
          "name": "",
          "type": "address",
          "internalType": "address"
        }
      ],
      "stateMutability": "view"
    },
    {
      "type": "function",
      "name": "name",
      "inputs": [],
      "outputs": [
        {
          "name": "",
          "type": "string",
          "internalType": "string"
        }
      ],
      "stateMutability": "view"
    },
    {
      "type": "function",
      "name": "nextNonce",
      "inputs": [
        {
          "name": "",
          "type": "uint32",
          "internalType": "uint32"
        },
        {
          "name": "",
          "type": "bytes32",
          "internalType": "bytes32"
        }
      ],
      "outputs": [
        {
          "name": "nonce",
          "type": "uint64",
          "internalType": "uint64"
        }
      ],
      "stateMutability": "view"
    },
    {
      "type": "function",
      "name": "oApp",
      "inputs": [],
      "outputs": [
        {
          "name": "",
          "type": "address",
          "internalType": "address"
        }
      ],
      "stateMutability": "view"
    },
    {
      "type": "function",
      "name": "oAppVersion",
      "inputs": [],
      "outputs": [
        {
          "name": "senderVersion",
          "type": "uint64",
          "internalType": "uint64"
        },
        {
          "name": "receiverVersion",
          "type": "uint64",
          "internalType": "uint64"
        }
      ],
      "stateMutability": "pure"
    },
    {
      "type": "function",
      "name": "oftVersion",
      "inputs": [],
      "outputs": [
        {
          "name": "interfaceId",
          "type": "bytes4",
          "internalType": "bytes4"
        },
        {
          "name": "version",
          "type": "uint64",
          "internalType": "uint64"
        }
      ],
      "stateMutability": "pure"
    },
    {
      "type": "function",
      "name": "owner",
      "inputs": [],
      "outputs": [
        {
          "name": "",
          "type": "address",
          "internalType": "address"
        }
      ],
      "stateMutability": "view"
    },
    {
      "type": "function",
      "name": "peers",
      "inputs": [
        {
          "name": "eid",
          "type": "uint32",
          "internalType": "uint32"
        }
      ],
      "outputs": [
        {
          "name": "peer",
          "type": "bytes32",
          "internalType": "bytes32"
        }
      ],
      "stateMutability": "view"
    },
    {
      "type": "function",
      "name": "preCrime",
      "inputs": [],
      "outputs": [
        {
          "name": "",
          "type": "address",
          "internalType": "address"
        }
      ],
      "stateMutability": "view"
    },
    {
      "type": "function",
      "name": "quoteOFT",
      "inputs": [
        {
          "name": "_sendParam",
          "type": "tuple",
          "internalType": "struct SendParam",
          "components": [
            {
              "name": "dstEid",
              "type": "uint32",
              "internalType": "uint32"
            },
            {
              "name": "to",
              "type": "bytes32",
              "internalType": "bytes32"
            },
            {
              "name": "amountLD",
              "type": "uint256",
              "internalType": "uint256"
            },
            {
              "name": "minAmountLD",
              "type": "uint256",
              "internalType": "uint256"
            },
            {
              "name": "extraOptions",
              "type": "bytes",
              "internalType": "bytes"
            },
            {
              "name": "composeMsg",
              "type": "bytes",
              "internalType": "bytes"
            },
            {
              "name": "oftCmd",
              "type": "bytes",
              "internalType": "bytes"
            }
          ]
        }
      ],
      "outputs": [
        {
          "name": "oftLimit",
          "type": "tuple",
          "internalType": "struct OFTLimit",
          "components": [
            {
              "name": "minAmountLD",
              "type": "uint256",
              "internalType": "uint256"
            },
            {
              "name": "maxAmountLD",
              "type": "uint256",
              "internalType": "uint256"
            }
          ]
        },
        {
          "name": "oftFeeDetails",
          "type": "tuple[]",
          "internalType": "struct OFTFeeDetail[]",
          "components": [
            {
              "name": "feeAmountLD",
              "type": "int256",
              "internalType": "int256"
            },
            {
              "name": "description",
              "type": "string",
              "internalType": "string"
            }
          ]
        },
        {
          "name": "oftReceipt",
          "type": "tuple",
          "internalType": "struct OFTReceipt",
          "components": [
            {
              "name": "amountSentLD",
              "type": "uint256",
              "internalType": "uint256"
            },
            {
              "name": "amountReceivedLD",
              "type": "uint256",
              "internalType": "uint256"
            }
          ]
        }
      ],
      "stateMutability": "view"
    },
    {
      "type": "function",
      "name": "quoteSend",
      "inputs": [
        {
          "name": "_sendParam",
          "type": "tuple",
          "internalType": "struct SendParam",
          "components": [
            {
              "name": "dstEid",
              "type": "uint32",
              "internalType": "uint32"
            },
            {
              "name": "to",
              "type": "bytes32",
              "internalType": "bytes32"
            },
            {
              "name": "amountLD",
              "type": "uint256",
              "internalType": "uint256"
            },
            {
              "name": "minAmountLD",
              "type": "uint256",
              "internalType": "uint256"
            },
            {
              "name": "extraOptions",
              "type": "bytes",
              "internalType": "bytes"
            },
            {
              "name": "composeMsg",
              "type": "bytes",
              "internalType": "bytes"
            },
            {
              "name": "oftCmd",
              "type": "bytes",
              "internalType": "bytes"
            }
          ]
        },
        {
          "name": "_payInLzToken",
          "type": "bool",
          "internalType": "bool"
        }
      ],
      "outputs": [
        {
          "name": "msgFee",
          "type": "tuple",
          "internalType": "struct MessagingFee",
          "components": [
            {
              "name": "nativeFee",
              "type": "uint256",
              "internalType": "uint256"
            },
            {
              "name": "lzTokenFee",
              "type": "uint256",
              "internalType": "uint256"
            }
          ]
        }
      ],
      "stateMutability": "view"
    },
    {
      "type": "function",
      "name": "removeDust",
      "inputs": [
        {
          "name": "_amountLD",
          "type": "uint256",
          "internalType": "uint256"
        }
      ],
      "outputs": [
        {
          "name": "amountLD",
          "type": "uint256",
          "internalType": "uint256"
        }
      ],
      "stateMutability": "view"
    },
    {
      "type": "function",
      "name": "renounceOwnership",
      "inputs": [],
      "outputs": [],
      "stateMutability": "nonpayable"
    },
    {
      "type": "function",
      "name": "send",
      "inputs": [
        {
          "name": "_sendParam",
          "type": "tuple",
          "internalType": "struct SendParam",
          "components": [
            {
              "name": "dstEid",
              "type": "uint32",
              "internalType": "uint32"
            },
            {
              "name": "to",
              "type": "bytes32",
              "internalType": "bytes32"
            },
            {
              "name": "amountLD",
              "type": "uint256",
              "internalType": "uint256"
            },
            {
              "name": "minAmountLD",
              "type": "uint256",
              "internalType": "uint256"
            },
            {
              "name": "extraOptions",
              "type": "bytes",
              "internalType": "bytes"
            },
            {
              "name": "composeMsg",
              "type": "bytes",
              "internalType": "bytes"
            },
            {
              "name": "oftCmd",
              "type": "bytes",
              "internalType": "bytes"
            }
          ]
        },
        {
          "name": "_fee",
          "type": "tuple",
          "internalType": "struct MessagingFee",
          "components": [
            {
              "name": "nativeFee",
              "type": "uint256",
              "internalType": "uint256"
            },
            {
              "name": "lzTokenFee",
              "type": "uint256",
              "internalType": "uint256"
            }
          ]
        },
        {
          "name": "_refundAddress",
          "type": "address",
          "internalType": "address"
        }
      ],
      "outputs": [
        {
          "name": "msgReceipt",
          "type": "tuple",
          "internalType": "struct MessagingReceipt",
          "components": [
            {
              "name": "guid",
              "type": "bytes32",
              "internalType": "bytes32"
            },
            {
              "name": "nonce",
              "type": "uint64",
              "internalType": "uint64"
            },
            {
              "name": "fee",
              "type": "tuple",
              "internalType": "struct MessagingFee",
              "components": [
                {
                  "name": "nativeFee",
                  "type": "uint256",
                  "internalType": "uint256"
                },
                {
                  "name": "lzTokenFee",
                  "type": "uint256",
                  "internalType": "uint256"
                }
              ]
            }
          ]
        },
        {
          "name": "oftReceipt",
          "type": "tuple",
          "internalType": "struct OFTReceipt",
          "components": [
            {
              "name": "amountSentLD",
              "type": "uint256",
              "internalType": "uint256"
            },
            {
              "name": "amountReceivedLD",
              "type": "uint256",
              "internalType": "uint256"
            }
          ]
        }
      ],
      "stateMutability": "payable"
    },
    {
      "type": "function",
      "name": "setDelegate",
      "inputs": [
        {
          "name": "_delegate",
          "type": "address",
          "internalType": "address"
        }
      ],
      "outputs": [],
      "stateMutability": "nonpayable"
    },
    {
      "type": "function",
      "name": "setEnforcedOptions",
      "inputs": [
        {
          "name": "_enforcedOptions",
          "type": "tuple[]",
          "internalType": "struct EnforcedOptionParam[]",
          "components": [
            {
              "name": "eid",
              "type": "uint32",
              "internalType": "uint32"
            },
            {
              "name": "msgType",
              "type": "uint16",
              "internalType": "uint16"
            },
            {
              "name": "options",
              "type": "bytes",
              "internalType": "bytes"
            }
          ]
        }
      ],
      "outputs": [],
      "stateMutability": "nonpayable"
    },
    {
      "type": "function",
      "name": "setMsgInspector",
      "inputs": [
        {
          "name": "_msgInspector",
          "type": "address",
          "internalType": "address"
        }
      ],
      "outputs": [],
      "stateMutability": "nonpayable"
    },
    {
      "type": "function",
      "name": "setPeer",
      "inputs": [
        {
          "name": "_eid",
          "type": "uint32",
          "internalType": "uint32"
        },
        {
          "name": "_peer",
          "type": "bytes32",
          "internalType": "bytes32"
        }
      ],
      "outputs": [],
      "stateMutability": "nonpayable"
    },
    {
      "type": "function",
      "name": "setPreCrime",
      "inputs": [
        {
          "name": "_preCrime",
          "type": "address",
          "internalType": "address"
        }
      ],
      "outputs": [],
      "stateMutability": "nonpayable"
    },
    {
      "type": "function",
      "name": "sharedDecimals",
      "inputs": [],
      "outputs": [
        {
          "name": "",
          "type": "uint8",
          "internalType": "uint8"
        }
      ],
      "stateMutability": "view"
    },
    {
      "type": "function",
      "name": "symbol",
      "inputs": [],
      "outputs": [
        {
          "name": "",
          "type": "string",
          "internalType": "string"
        }
      ],
      "stateMutability": "view"
    },
    {
      "type": "function",
      "name": "toLD",
      "inputs": [
        {
          "name": "_amountSD",
          "type": "uint64",
          "internalType": "uint64"
        }
      ],
      "outputs": [
        {
          "name": "amountLD",
          "type": "uint256",
          "internalType": "uint256"
        }
      ],
      "stateMutability": "view"
    },
    {
      "type": "function",
      "name": "toSD",
      "inputs": [
        {
          "name": "_amountLD",
          "type": "uint256",
          "internalType": "uint256"
        }
      ],
      "outputs": [
        {
          "name": "amountSD",
          "type": "uint64",
          "internalType": "uint64"
        }
      ],
      "stateMutability": "view"
    },
    {
      "type": "function",
      "name": "token",
      "inputs": [],
      "outputs": [
        {
          "name": "",
          "type": "address",
          "internalType": "address"
        }
      ],
      "stateMutability": "view"
    },
    {
      "type": "function",
      "name": "totalSupply",
      "inputs": [],
      "outputs": [
        {
          "name": "",
          "type": "uint256",
          "internalType": "uint256"
        }
      ],
      "stateMutability": "view"
    },
    {
      "type": "function",
      "name": "transfer",
      "inputs": [
        {
          "name": "to",
          "type": "address",
          "internalType": "address"
        },
        {
          "name": "value",
          "type": "uint256",
          "internalType": "uint256"
        }
      ],
      "outputs": [
        {
          "name": "",
          "type": "bool",
          "internalType": "bool"
        }
      ],
      "stateMutability": "nonpayable"
    },
    {
      "type": "function",
      "name": "transferFrom",
      "inputs": [
        {
          "name": "from",
          "type": "address",
          "internalType": "address"
        },
        {
          "name": "to",
          "type": "address",
          "internalType": "address"
        },
        {
          "name": "value",
          "type": "uint256",
          "internalType": "uint256"
        }
      ],
      "outputs": [
        {
          "name": "",
          "type": "bool",
          "internalType": "bool"
        }
      ],
      "stateMutability": "nonpayable"
    },
    {
      "type": "function",
      "name": "transferOwnership",
      "inputs": [
        {
          "name": "newOwner",
          "type": "address",
          "internalType": "address"
        }
      ],
      "outputs": [],
      "stateMutability": "nonpayable"
    },
    {
      "type": "event",
      "name": "Approval",
      "inputs": [
        {
          "name": "owner",
          "type": "address",
          "indexed": true,
          "internalType": "address"
        },
        {
          "name": "spender",
          "type": "address",
          "indexed": true,
          "internalType": "address"
        },
        {
          "name": "value",
          "type": "uint256",
          "indexed": false,
          "internalType": "uint256"
        }
      ],
      "anonymous": false
    },
    {
      "type": "event",
      "name": "EnforcedOptionSet",
      "inputs": [
        {
          "name": "_enforcedOptions",
          "type": "tuple[]",
          "indexed": false,
          "internalType": "struct EnforcedOptionParam[]",
          "components": [
            {
              "name": "eid",
              "type": "uint32",
              "internalType": "uint32"
            },
            {
              "name": "msgType",
              "type": "uint16",
              "internalType": "uint16"
            },
            {
              "name": "options",
              "type": "bytes",
              "internalType": "bytes"
            }
          ]
        }
      ],
      "anonymous": false
    },
    {
      "type": "event",
      "name": "MsgInspectorSet",
      "inputs": [
        {
          "name": "inspector",
          "type": "address",
          "indexed": false,
          "internalType": "address"
        }
      ],
      "anonymous": false
    },
    {
      "type": "event",
      "name": "OFTReceived",
      "inputs": [
        {
          "name": "guid",
          "type": "bytes32",
          "indexed": true,
          "internalType": "bytes32"
        },
        {
          "name": "srcEid",
          "type": "uint32",
          "indexed": false,
          "internalType": "uint32"
        },
        {
          "name": "toAddress",
          "type": "address",
          "indexed": true,
          "internalType": "address"
        },
        {
          "name": "amountReceivedLD",
          "type": "uint256",
          "indexed": false,
          "internalType": "uint256"
        }
      ],
      "anonymous": false
    },
    {
      "type": "event",
      "name": "OFTSent",
      "inputs": [
        {
          "name": "guid",
          "type": "bytes32",
          "indexed": true,
          "internalType": "bytes32"
        },
        {
          "name": "dstEid",
          "type": "uint32",
          "indexed": false,
          "internalType": "uint32"
        },
        {
          "name": "fromAddress",
          "type": "address",
          "indexed": true,
          "internalType": "address"
        },
        {
          "name": "amountSentLD",
          "type": "uint256",
          "indexed": false,
          "internalType": "uint256"
        },
        {
          "name": "amountReceivedLD",
          "type": "uint256",
          "indexed": false,
          "internalType": "uint256"
        }
      ],
      "anonymous": false
    },
    {
      "type": "event",
      "name": "OwnershipTransferred",
      "inputs": [
        {
          "name": "previousOwner",
          "type": "address",
          "indexed": true,
          "internalType": "address"
        },
        {
          "name": "newOwner",
          "type": "address",
          "indexed": true,
          "internalType": "address"
        }
      ],
      "anonymous": false
    },
    {
      "type": "event",
      "name": "PeerSet",
      "inputs": [
        {
          "name": "eid",
          "type": "uint32",
          "indexed": false,
          "internalType": "uint32"
        },
        {
          "name": "peer",
          "type": "bytes32",
          "indexed": false,
          "internalType": "bytes32"
        }
      ],
      "anonymous": false
    },
    {
      "type": "event",
      "name": "PreCrimeSet",
      "inputs": [
        {
          "name": "preCrimeAddress",
          "type": "address",
          "indexed": false,
          "internalType": "address"
        }
      ],
      "anonymous": false
    },
    {
      "type": "event",
      "name": "Transfer",
      "inputs": [
        {
          "name": "from",
          "type": "address",
          "indexed": true,
          "internalType": "address"
        },
        {
          "name": "to",
          "type": "address",
          "indexed": true,
          "internalType": "address"
        },
        {
          "name": "value",
          "type": "uint256",
          "indexed": false,
          "internalType": "uint256"
        }
      ],
      "anonymous": false
    },
    {
      "type": "error",
      "name": "AddressEmptyCode",
      "inputs": [
        {
          "name": "target",
          "type": "address",
          "internalType": "address"
        }
      ]
    },
    {
      "type": "error",
      "name": "AddressInsufficientBalance",
      "inputs": [
        {
          "name": "account",
          "type": "address",
          "internalType": "address"
        }
      ]
    },
    {
      "type": "error",
      "name": "ERC20InsufficientAllowance",
      "inputs": [
        {
          "name": "spender",
          "type": "address",
          "internalType": "address"
        },
        {
          "name": "allowance",
          "type": "uint256",
          "internalType": "uint256"
        },
        {
          "name": "needed",
          "type": "uint256",
          "internalType": "uint256"
        }
      ]
    },
    {
      "type": "error",
      "name": "ERC20InsufficientBalance",
      "inputs": [
        {
          "name": "sender",
          "type": "address",
          "internalType": "address"
        },
        {
          "name": "balance",
          "type": "uint256",
          "internalType": "uint256"
        },
        {
          "name": "needed",
          "type": "uint256",
          "internalType": "uint256"
        }
      ]
    },
    {
      "type": "error",
      "name": "ERC20InvalidApprover",
      "inputs": [
        {
          "name": "approver",
          "type": "address",
          "internalType": "address"
        }
      ]
    },
    {
      "type": "error",
      "name": "ERC20InvalidReceiver",
      "inputs": [
        {
          "name": "receiver",
          "type": "address",
          "internalType": "address"
        }
      ]
    },
    {
      "type": "error",
      "name": "ERC20InvalidSender",
      "inputs": [
        {
          "name": "sender",
          "type": "address",
          "internalType": "address"
        }
      ]
    },
    {
      "type": "error",
      "name": "ERC20InvalidSpender",
      "inputs": [
        {
          "name": "spender",
          "type": "address",
          "internalType": "address"
        }
      ]
    },
    {
      "type": "error",
      "name": "FailedInnerCall",
      "inputs": []
    },
    {
      "type": "error",
      "name": "InvalidDelegate",
      "inputs": []
    },
    {
      "type": "error",
      "name": "InvalidEndpointCall",
      "inputs": []
    },
    {
      "type": "error",
      "name": "InvalidLocalDecimals",
      "inputs": []
    },
    {
      "type": "error",
      "name": "InvalidOptions",
      "inputs": [
        {
          "name": "options",
          "type": "bytes",
          "internalType": "bytes"
        }
      ]
    },
    {
      "type": "error",
      "name": "LzTokenUnavailable",
      "inputs": []
    },
    {
      "type": "error",
      "name": "NoPeer",
      "inputs": [
        {
          "name": "eid",
          "type": "uint32",
          "internalType": "uint32"
        }
      ]
    },
    {
      "type": "error",
      "name": "NotEnoughNative",
      "inputs": [
        {
          "name": "msgValue",
          "type": "uint256",
          "internalType": "uint256"
        }
      ]
    },
    {
      "type": "error",
      "name": "OnlyEndpoint",
      "inputs": [
        {
          "name": "addr",
          "type": "address",
          "internalType": "address"
        }
      ]
    },
    {
      "type": "error",
      "name": "OnlyPeer",
      "inputs": [
        {
          "name": "eid",
          "type": "uint32",
          "internalType": "uint32"
        },
        {
          "name": "sender",
          "type": "bytes32",
          "internalType": "bytes32"
        }
      ]
    },
    {
      "type": "error",
      "name": "OnlySelf",
      "inputs": []
    },
    {
      "type": "error",
      "name": "OwnableInvalidOwner",
      "inputs": [
        {
          "name": "owner",
          "type": "address",
          "internalType": "address"
        }
      ]
    },
    {
      "type": "error",
      "name": "OwnableUnauthorizedAccount",
      "inputs": [
        {
          "name": "account",
          "type": "address",
          "internalType": "address"
        }
      ]
    },
    {
      "type": "error",
      "name": "SafeERC20FailedOperation",
      "inputs": [
        {
          "name": "token",
          "type": "address",
          "internalType": "address"
        }
      ]
    },
    {
      "type": "error",
      "name": "SimulationResult",
      "inputs": [
        {
          "name": "result",
          "type": "bytes",
          "internalType": "bytes"
        }
      ]
    },
    {
      "type": "error",
      "name": "SlippageExceeded",
      "inputs": [
        {
          "name": "amountLD",
          "type": "uint256",
          "internalType": "uint256"
        },
        {
          "name": "minAmountLD",
          "type": "uint256",
          "internalType": "uint256"
        }
      ]
    }
  ],
  "bytecode": {
    "object": "0x60c06040523480156200001157600080fd5b5060405162003a0338038062003a038339810160408190526200003491620002d2565b83838383838360128484818181818d6001600160a01b0381166200007257604051631e4fbdf760e01b81526000600482015260240160405180910390fd5b6200007d8162000198565b506001600160a01b038083166080528116620000ac57604051632d618d8160e21b815260040160405180910390fd5b60805160405163ca5eb5e160e01b81526001600160a01b0383811660048301529091169063ca5eb5e190602401600060405180830381600087803b158015620000f457600080fd5b505af115801562000109573d6000803e3d6000fd5b505050505050505062000121620001e860201b60201c565b60ff168360ff16101562000148576040516301e9714b60e41b815260040160405180910390fd5b6200015560068462000377565b6200016290600a62000496565b60a052506008915062000178905083826200053f565b5060096200018782826200053f565b50505050505050505050506200060b565b600080546001600160a01b038381166001600160a01b0319831681178455604051919092169283917f8be0079c531659141344cd1fd0a4f28419497f9722a3daafe3b4186f6b6457e09190a35050565b600690565b634e487b7160e01b600052604160045260246000fd5b600082601f8301126200021557600080fd5b81516001600160401b0380821115620002325762000232620001ed565b604051601f8301601f19908116603f011681019082821181831017156200025d576200025d620001ed565b81604052838152602092508660208588010111156200027b57600080fd5b600091505b838210156200029f578582018301518183018401529082019062000280565b6000602085830101528094505050505092915050565b80516001600160a01b0381168114620002cd57600080fd5b919050565b60008060008060808587031215620002e957600080fd5b84516001600160401b03808211156200030157600080fd5b6200030f8883890162000203565b955060208701519150808211156200032657600080fd5b50620003358782880162000203565b9350506200034660408601620002b5565b91506200035660608601620002b5565b905092959194509250565b634e487b7160e01b600052601160045260246000fd5b60ff828116828216039081111562000393576200039362000361565b92915050565b600181815b80851115620003da578160001904821115620003be57620003be62000361565b80851615620003cc57918102915b93841c93908002906200039e565b509250929050565b600082620003f35750600162000393565b81620004025750600062000393565b81600181146200041b5760028114620004265762000446565b600191505062000393565b60ff8411156200043a576200043a62000361565b50506001821b62000393565b5060208310610133831016604e8410600b84101617156200046b575081810a62000393565b62000477838362000399565b80600019048211156200048e576200048e62000361565b029392505050565b6000620004a760ff841683620003e2565b9392505050565b600181811c90821680620004c357607f821691505b602082108103620004e457634e487b7160e01b600052602260045260246000fd5b50919050565b601f8211156200053a576000816000526020600020601f850160051c81016020861015620005155750805b601f850160051c820191505b81811015620005365782815560010162000521565b5050505b505050565b81516001600160401b038111156200055b576200055b620001ed565b62000573816200056c8454620004ae565b84620004ea565b602080601f831160018114620005ab5760008415620005925750858301515b600019600386901b1c1916600185901b17855562000536565b600085815260208120601f198616915b82811015620005dc57888601518255948401946001909101908401620005bb565b5085821015620005fb5787850151600019600388901b60f8161c191681555b5050505050600190811b01905550565b60805160a05161338c62000677600039600081816107680152818161158c01528181611a6f0152611bd401526000818161063001528181610b5b015281816112ae01528181611682015281816118c901528181611c3a015281816120a5015261215c015261338c6000f3fe6080604052600436106102c95760003560e01c8063715018a611610175578063bb0b6a53116100dc578063d045a0dc11610095578063f01630231161006f578063f016302314610958578063f2fde38b14610978578063fc0c546a1461057f578063ff7bd03d1461099857600080fd5b8063d045a0dc146108df578063d4243885146108f2578063dd62ed3e1461091257600080fd5b8063bb0b6a531461081e578063bc70b3541461084b578063bd815db01461086b578063c07799881461087e578063c7c7f5b31461089e578063ca5eb5e1146108bf57600080fd5b8063963efcaa1161012e578063963efcaa146107565780639f68b9641461078a578063a9059cbb1461079e578063b3a5abeb146107be578063b731ea0a146107de578063b98bd070146107fe57600080fd5b8063715018a6146106a85780637d25a05e146106bd57806382413eac146106e0578063857749b01461070f5780638da5cb5b1461072357806395d89b411461074157600080fd5b806323b872dd1161023457806352ae2879116101ed5780635a0dfe4d116101c75780635a0dfe4d146105e75780635e280f111461061e5780636fc1b31e1461065257806370a082311461067257600080fd5b806352ae28791461057f57806354f52414146105925780635535d461146105c757600080fd5b806323b872dd146104b0578063313ce567146104d05780633400288b146104f25780633b6f743b1461051257806340c10f191461053f5780634dba701b1461055f57600080fd5b806313137d651161028657806313137d65146103f6578063134d4f251461040b578063156a0d0f1461043357806317442b701461045a57806318160ddd1461047c5780631f5e13341461049b57600080fd5b8063056d62de146102ce57806306fdde0314610305578063095ea7b3146103275780630d35b415146103575780630e78842c14610386578063111ecdad146103be575b600080fd5b3480156102da57600080fd5b506102ee6102e936600461237f565b6109b8565b6040516102fc929190612413565b60405180910390f35b34801561031157600080fd5b5061031a6109d1565b6040516102fc9190612438565b34801561033357600080fd5b50610347610342366004612460565b610a63565b60405190151581526020016102fc565b34801561036357600080fd5b5061037761037236600461248c565b610a7d565b6040516102fc939291906124c0565b34801561039257600080fd5b506103a66103a1366004612559565b610b4e565b6040516001600160401b0390911681526020016102fc565b3480156103ca57600080fd5b506004546103de906001600160a01b031681565b6040516001600160a01b0390911681526020016102fc565b6104096104043660046125c5565b610b59565b005b34801561041757600080fd5b50610420600281565b60405161ffff90911681526020016102fc565b34801561043f57600080fd5b506040805162b9270b60e21b815260016020820152016102fc565b34801561046657600080fd5b50604080516001815260026020820152016102fc565b34801561048857600080fd5b506007545b6040519081526020016102fc565b3480156104a757600080fd5b50610420600181565b3480156104bc57600080fd5b506103476104cb366004612664565b610c19565b3480156104dc57600080fd5b5060125b60405160ff90911681526020016102fc565b3480156104fe57600080fd5b5061040961050d3660046126be565b610c3f565b34801561051e57600080fd5b5061053261052d3660046126e8565b610c55565b6040516102fc9190612739565b34801561054b57600080fd5b5061040961055a366004612460565b610cbc565b34801561056b57600080fd5b5061048d61057a366004612750565b610cc6565b34801561058b57600080fd5b50306103de565b34801561059e57600080fd5b506105b26105ad36600461278e565b610cdb565b604080519283526020830191909152016102fc565b3480156105d357600080fd5b5061031a6105e23660046127cc565b610cf7565b3480156105f357600080fd5b506103476106023660046126be565b63ffffffff919091166000908152600160205260409020541490565b34801561062a57600080fd5b506103de7f000000000000000000000000000000000000000000000000000000000000000081565b34801561065e57600080fd5b5061040961066d3660046127ff565b610d9c565b34801561067e57600080fd5b5061048d61068d3660046127ff565b6001600160a01b031660009081526005602052604090205490565b3480156106b457600080fd5b50610409610df9565b3480156106c957600080fd5b506103a66106d83660046126be565b600092915050565b3480156106ec57600080fd5b506103476106fb36600461281c565b6001600160a01b0381163014949350505050565b34801561071b57600080fd5b5060066104e0565b34801561072f57600080fd5b506000546001600160a01b03166103de565b34801561074d57600080fd5b5061031a610e0d565b34801561076257600080fd5b5061048d7f000000000000000000000000000000000000000000000000000000000000000081565b34801561079657600080fd5b506000610347565b3480156107aa57600080fd5b506103476107b9366004612460565b610e1c565b3480156107ca57600080fd5b5061048d6107d9366004612897565b610e2a565b3480156107ea57600080fd5b506002546103de906001600160a01b031681565b34801561080a57600080fd5b506104096108193660046128f8565b610e35565b34801561082a57600080fd5b5061048d610839366004612939565b60016020526000908152604090205481565b34801561085757600080fd5b5061031a610866366004612954565b610e4f565b6104096108793660046128f8565b610ff7565b34801561088a57600080fd5b5061048d610899366004612559565b611181565b6108b16108ac3660046129b4565b61118c565b6040516102fc929190612a21565b3480156108cb57600080fd5b506104096108da3660046127ff565b611287565b6104096108ed3660046125c5565b61130d565b3480156108fe57600080fd5b5061040961090d3660046127ff565b61133c565b34801561091e57600080fd5b5061048d61092d366004612a73565b6001600160a01b03918216600090815260066020908152604080832093909416825291909152205490565b34801561096457600080fd5b506105b261097336600461278e565b611392565b34801561098457600080fd5b506104096109933660046127ff565b6113a0565b3480156109a457600080fd5b506103476109b3366004612aa1565b6113de565b6060806109c58484611414565b915091505b9250929050565b6060600880546109e090612abd565b80601f0160208091040260200160405190810160405280929190818152602001828054610a0c90612abd565b8015610a595780601f10610a2e57610100808354040283529160200191610a59565b820191906000526020600020905b815481529060010190602001808311610a3c57829003601f168201915b5050505050905090565b600033610a71818585611537565b60019150505b92915050565b60408051808201909152600080825260208201526060610ab0604051806040016040528060008152602001600081525090565b60408051808201825260008082526001600160401b03602080840182905284518381529081019094529195509182610b0b565b604080518082019091526000815260606020820152815260200190600190039081610ae35790505b509350600080610b30604089013560608a0135610b2b60208c018c612939565b611549565b60408051808201909152918252602082015296989597505050505050565b6000610a7782611585565b7f00000000000000000000000000000000000000000000000000000000000000006001600160a01b03163314610ba9576040516391ac5e4f60e01b81523360048201526024015b60405180910390fd5b60208701803590610bc390610bbe908a612939565b6115b1565b14610c0157610bd56020880188612939565b60405163309afaf360e21b815263ffffffff909116600482015260208801356024820152604401610ba0565b610c10878787878787876115ed565b50505050505050565b600033610c27858285611754565b610c328585856117d2565b60019150505b9392505050565b610c47611831565b610c51828261185e565b5050565b60408051808201909152600080825260208201526000610c8560408501356060860135610b2b6020880188612939565b915050600080610c958684611414565b9092509050610cb2610caa6020880188612939565b8383886118b3565b9695505050505050565b610c518282611994565b6000610cd38484846119ca565b949350505050565b600080610cea338686866119f2565b915091505b935093915050565b600360209081526000928352604080842090915290825290208054610d1b90612abd565b80601f0160208091040260200160405190810160405280929190818152602001828054610d4790612abd565b8015610d945780601f10610d6957610100808354040283529160200191610d94565b820191906000526020600020905b815481529060010190602001808311610d7757829003601f168201915b505050505081565b610da4611831565b600480546001600160a01b0319166001600160a01b0383169081179091556040519081527ff0be4f1e87349231d80c36b33f9e8639658eeaf474014dee15a3e6a4d4414197906020015b60405180910390a150565b610e01611831565b610e0b6000611a18565b565b6060600980546109e090612abd565b600033610a718185856117d2565b6000610a7782611a68565b610e3d611831565b610c51610e4a8284612ba8565b611a9d565b63ffffffff8416600090815260036020908152604080832061ffff87168452909152812080546060929190610e8390612abd565b80601f0160208091040260200160405190810160405280929190818152602001828054610eaf90612abd565b8015610efc5780601f10610ed157610100808354040283529160200191610efc565b820191906000526020600020905b815481529060010190602001808311610edf57829003601f168201915b505050505090508051600003610f4c5783838080601f016020809104026020016040519081016040528093929190818152602001838380828437600092019190915250929450610cd39350505050565b6000839003610f5c579050610cd3565b60028310610fda57610fa384848080601f016020809104026020016040519081016040528093929190818152602001838380828437600092019190915250611ba492505050565b80610fb18460028188612cbd565b604051602001610fc393929190612ce7565b604051602081830303815290604052915050610cd3565b8383604051639a6d49cd60e01b8152600401610ba0929190612d38565b60005b81811015611100573683838381811061101557611015612d4c565b90506020028101906110279190612d62565b905061105a6110396020830183612939565b602083013563ffffffff919091166000908152600160205260409020541490565b61106457506110f8565b3063d045a0dc60c08301358360a0810135611083610100830183612d83565b611094610100890160e08a016127ff565b6110a26101208a018a612d83565b6040518963ffffffff1660e01b81526004016110c49796959493929190612dc9565b6000604051808303818588803b1580156110dd57600080fd5b505af11580156110f1573d6000803e3d6000fd5b5050505050505b600101610ffa565b50336001600160a01b0316638e9e70996040518163ffffffff1660e01b8152600401600060405180830381865afa15801561113f573d6000803e3d6000fd5b505050506040513d6000823e601f3d908101601f191682016040526111679190810190612e4f565b604051638351eea760e01b8152600401610ba09190612438565b6000610a7782611bd0565b611194612320565b60408051808201909152600080825260208201526000806111cb33604089013560608a01356111c660208c018c612939565b6119f2565b915091506000806111dc8984611414565b90925090506112086111f160208b018b612939565b8383611202368d90038d018d612ebc565b8b611c07565b60408051808201909152858152602080820186905282519298509096503391907f85496b760a4b7f8d66384b9df21b381f5d1b1e79f229a47aaf4c232edc2fe59a90611256908d018d612939565b6040805163ffffffff909216825260208201899052810187905260600160405180910390a350505050935093915050565b61128f611831565b60405163ca5eb5e160e01b81526001600160a01b0382811660048301527f0000000000000000000000000000000000000000000000000000000000000000169063ca5eb5e190602401600060405180830381600087803b1580156112f257600080fd5b505af1158015611306573d6000803e3d6000fd5b5050505050565b33301461132d5760405163029a949d60e31b815260040160405180910390fd5b610c1087878787878787610c01565b611344611831565b600280546001600160a01b0319166001600160a01b0383169081179091556040519081527fd48d879cef83a1c0bdda516f27b13ddb1b3f8bbac1c9e1511bb2a659c242776090602001610dee565b600080610cea858585611549565b6113a8611831565b6001600160a01b0381166113d257604051631e4fbdf760e01b815260006004820152602401610ba0565b6113db81611a18565b50565b60006020820180359060019083906113f69086612939565b63ffffffff1681526020810191909152604001600020541492915050565b6060806000611471856020013561142a86611585565b61143760a0890189612d83565b8080601f016020809104026020016040519081016040528093929190818152602001838380828437600092019190915250611d1292505050565b9093509050600081611484576001611487565b60025b90506114a76114996020880188612939565b8261086660808a018a612d83565b6004549093506001600160a01b0316801561152d5760405163043a78eb60e01b81526001600160a01b0382169063043a78eb906114ea9088908890600401612413565b602060405180830381865afa158015611507573d6000803e3d6000fd5b505050506040513d601f19601f8201168201806040525081019061152b9190612eee565b505b5050509250929050565b6115448383836001611d8c565b505050565b60008061155585611bd0565b915081905083811015610cef576040516371c4efed60e01b81526004810182905260248101859052604401610ba0565b6000610a777f000000000000000000000000000000000000000000000000000000000000000083612f21565b63ffffffff811660009081526001602052604081205480610a775760405163f6ff4fb760e01b815263ffffffff84166004820152602401610ba0565b60006115ff6115fc8787611e61565b90565b9050600061162b826116196116148a8a611e79565b611a68565b61162660208d018d612939565b6119ca565b905060288611156116f257600061166861164b60608c0160408d01612897565b61165860208d018d612939565b846116638c8c611e9c565b611ee7565b604051633e5ac80960e11b81529091506001600160a01b037f00000000000000000000000000000000000000000000000000000000000000001690637cb59012906116be9086908d906000908790600401612f43565b600060405180830381600087803b1580156116d857600080fd5b505af11580156116ec573d6000803e3d6000fd5b50505050505b6001600160a01b038216887fefed6d3500546b29533b128a29e3a94d70788727f0507505ac12eaf2e578fd9c61172b60208d018d612939565b6040805163ffffffff9092168252602082018690520160405180910390a3505050505050505050565b6001600160a01b0383811660009081526006602090815260408083209386168352929052205460001981146117cc57818110156117bd57604051637dc7a0d960e11b81526001600160a01b03841660048201526024810182905260448101839052606401610ba0565b6117cc84848484036000611d8c565b50505050565b6001600160a01b0383166117fc57604051634b637e8f60e11b815260006004820152602401610ba0565b6001600160a01b0382166118265760405163ec442f0560e01b815260006004820152602401610ba0565b611544838383611f19565b6000546001600160a01b03163314610e0b5760405163118cdaa760e01b8152336004820152602401610ba0565b63ffffffff8216600081815260016020908152604091829020849055815192835282018390527f238399d427b947898edb290f5ff0f9109849b1c3ba196a42e35f00c50a54b98b910160405180910390a15050565b60408051808201909152600080825260208201527f00000000000000000000000000000000000000000000000000000000000000006001600160a01b031663ddc28c586040518060a001604052808863ffffffff168152602001611916896115b1565b8152602001878152602001868152602001851515815250306040518363ffffffff1660e01b815260040161194b929190612f74565b6040805180830381865afa158015611967573d6000803e3d6000fd5b505050506040513d601f19601f8201168201806040525081019061198b919061301d565b95945050505050565b6001600160a01b0382166119be5760405163ec442f0560e01b815260006004820152602401610ba0565b610c5160008383611f19565b60006001600160a01b0384166119e05761dead93505b6119ea8484611994565b509092915050565b600080611a00858585611549565b9092509050611a0f8683612043565b94509492505050565b600080546001600160a01b038381166001600160a01b0319831681178455604051919092169283917f8be0079c531659141344cd1fd0a4f28419497f9722a3daafe3b4186f6b6457e09190a35050565b6000610a777f00000000000000000000000000000000000000000000000000000000000000006001600160401b038416613039565b60005b8151811015611b7457611acf828281518110611abe57611abe612d4c565b602002602001015160400151611ba4565b818181518110611ae157611ae1612d4c565b60200260200101516040015160036000848481518110611b0357611b03612d4c565b60200260200101516000015163ffffffff1663ffffffff1681526020019081526020016000206000848481518110611b3d57611b3d612d4c565b60200260200101516020015161ffff1661ffff1681526020019081526020016000209081611b6b91906130a0565b50600101611aa0565b507fbe4864a8e820971c0247f5992e2da559595f7bf076a21cb5928d443d2a13b67481604051610dee919061315f565b600281015161ffff8116600314610c515781604051639a6d49cd60e01b8152600401610ba09190612438565b60007f0000000000000000000000000000000000000000000000000000000000000000611bfd8184612f21565b610a779190613039565b611c0f612320565b6000611c1e8460000151612079565b602085015190915015611c3857611c3884602001516120a1565b7f00000000000000000000000000000000000000000000000000000000000000006001600160a01b0316632637a450826040518060a001604052808b63ffffffff168152602001611c888c6115b1565b81526020018a815260200189815260200160008960200151111515815250866040518463ffffffff1660e01b8152600401611cc4929190612f74565b60806040518083038185885af1158015611ce2573d6000803e3d6000fd5b50505050506040513d601f19601f82011682018060405250810190611d0791906131ea565b979650505050505050565b8051606090151580611d5b578484604051602001611d4792919091825260c01b6001600160c01b031916602082015260280190565b604051602081830303815290604052611d82565b84843385604051602001611d729493929190613234565b6040516020818303038152906040525b9150935093915050565b6001600160a01b038416611db65760405163e602df0560e01b815260006004820152602401610ba0565b6001600160a01b038316611de057604051634a1406b160e11b815260006004820152602401610ba0565b6001600160a01b03808516600090815260066020908152604080832093871683529290522082905580156117cc57826001600160a01b0316846001600160a01b03167f8c5be1e5ebec7d5bd14f71427d1e84f3dd0314c0f7b2291e5b200ac8c7c3b92584604051611e5391815260200190565b60405180910390a350505050565b6000611e706020828486612cbd565b610c3891613277565b6000611e89602860208486612cbd565b611e9291613295565b60c01c9392505050565b6060611eab8260288186612cbd565b8080601f016020809104026020016040519081016040528093929190818152602001838380828437600092019190915250929695505050505050565b606084848484604051602001611f0094939291906132c5565b6040516020818303038152906040529050949350505050565b6001600160a01b038316611f44578060076000828254611f399190613314565b90915550611fb69050565b6001600160a01b03831660009081526005602052604090205481811015611f975760405163391434e360e21b81526001600160a01b03851660048201526024810182905260448101839052606401610ba0565b6001600160a01b03841660009081526005602052604090209082900390555b6001600160a01b038216611fd257600780548290039055611ff1565b6001600160a01b03821660009081526005602052604090208054820190555b816001600160a01b0316836001600160a01b03167fddf252ad1be2c89b69c2b068fc378daa952ba7f163c4a11628f55a4df523b3ef8360405161203691815260200190565b60405180910390a3505050565b6001600160a01b03821661206d57604051634b637e8f60e11b815260006004820152602401610ba0565b610c5182600083611f19565b600081341461209d576040516304fb820960e51b8152346004820152602401610ba0565b5090565b60007f00000000000000000000000000000000000000000000000000000000000000006001600160a01b031663e4fe1d946040518163ffffffff1660e01b8152600401602060405180830381865afa158015612101573d6000803e3d6000fd5b505050506040513d601f19601f820116820180604052508101906121259190613327565b90506001600160a01b03811661214e576040516329b99a9560e11b815260040160405180910390fd5b6040805133602482018190527f00000000000000000000000000000000000000000000000000000000000000006001600160a01b03818116604485015260648085018890528551808603909101815260849094019094526020830180516001600160e01b03166323b872dd60e01b179052610c519385169286906117cc90859060006121da8383612228565b905080516000141580156121ff5750808060200190518101906121fd9190612eee565b155b1561154457604051635274afe760e01b81526001600160a01b0384166004820152602401610ba0565b6060610c388383600084600080856001600160a01b0316848660405161224e9190613344565b60006040518083038185875af1925050503d806000811461228b576040519150601f19603f3d011682016040523d82523d6000602084013e612290565b606091505b5091509150610cb28683836060826122b0576122ab826122f7565b610c38565b81511580156122c757506001600160a01b0384163b155b156122f057604051639996b31560e01b81526001600160a01b0385166004820152602401610ba0565b5080610c38565b8051156123075780518082602001fd5b604051630a12f52160e11b815260040160405180910390fd5b60405180606001604052806000801916815260200160006001600160401b03168152602001612362604051806040016040528060008152602001600081525090565b905290565b600060e0828403121561237957600080fd5b50919050565b6000806040838503121561239257600080fd5b82356001600160401b038111156123a857600080fd5b6123b485828601612367565b95602094909401359450505050565b60005b838110156123de5781810151838201526020016123c6565b50506000910152565b600081518084526123ff8160208601602086016123c3565b601f01601f19169290920160200192915050565b60408152600061242660408301856123e7565b828103602084015261198b81856123e7565b602081526000610c3860208301846123e7565b6001600160a01b03811681146113db57600080fd5b6000806040838503121561247357600080fd5b823561247e8161244b565b946020939093013593505050565b60006020828403121561249e57600080fd5b81356001600160401b038111156124b457600080fd5b610cd384828501612367565b8351815260208085015190820152600060a08201604060a0604085015281865180845260c08601915060c08160051b8701019350602080890160005b8381101561253b5788870360bf19018552815180518852830151838801879052612528878901826123e7565b97505093820193908201906001016124fc565b50508751606088015250505060208501516080850152509050610cd3565b60006020828403121561256b57600080fd5b5035919050565b60006060828403121561237957600080fd5b60008083601f84011261259657600080fd5b5081356001600160401b038111156125ad57600080fd5b6020830191508360208285010111156109ca57600080fd5b600080600080600080600060e0888a0312156125e057600080fd5b6125ea8989612572565b96506060880135955060808801356001600160401b038082111561260d57600080fd5b6126198b838c01612584565b909750955060a08a0135915061262e8261244b565b90935060c0890135908082111561264457600080fd5b506126518a828b01612584565b989b979a50959850939692959293505050565b60008060006060848603121561267957600080fd5b83356126848161244b565b925060208401356126948161244b565b929592945050506040919091013590565b803563ffffffff811681146126b957600080fd5b919050565b600080604083850312156126d157600080fd5b61247e836126a5565b80151581146113db57600080fd5b600080604083850312156126fb57600080fd5b82356001600160401b0381111561271157600080fd5b61271d85828601612367565b925050602083013561272e816126da565b809150509250929050565b815181526020808301519082015260408101610a77565b60008060006060848603121561276557600080fd5b83356127708161244b565b925060208401359150612785604085016126a5565b90509250925092565b6000806000606084860312156127a357600080fd5b8335925060208401359150612785604085016126a5565b803561ffff811681146126b957600080fd5b600080604083850312156127df57600080fd5b6127e8836126a5565b91506127f6602084016127ba565b90509250929050565b60006020828403121561281157600080fd5b8135610c388161244b565b60008060008060a0858703121561283257600080fd5b61283c8686612572565b935060608501356001600160401b0381111561285757600080fd5b61286387828801612584565b90945092505060808501356128778161244b565b939692955090935050565b6001600160401b03811681146113db57600080fd5b6000602082840312156128a957600080fd5b8135610c3881612882565b60008083601f8401126128c657600080fd5b5081356001600160401b038111156128dd57600080fd5b6020830191508360208260051b85010111156109ca57600080fd5b6000806020838503121561290b57600080fd5b82356001600160401b0381111561292157600080fd5b61292d858286016128b4565b90969095509350505050565b60006020828403121561294b57600080fd5b610c38826126a5565b6000806000806060858703121561296a57600080fd5b612973856126a5565b9350612981602086016127ba565b925060408501356001600160401b0381111561299c57600080fd5b6129a887828801612584565b95989497509550505050565b600080600083850360808112156129ca57600080fd5b84356001600160401b038111156129e057600080fd5b6129ec87828801612367565b9450506040601f1982011215612a0157600080fd5b506020840191506060840135612a168161244b565b809150509250925092565b600060c082019050835182526001600160401b0360208501511660208301526040840151612a5c604084018280518252602090810151910152565b5082516080830152602083015160a0830152610c38565b60008060408385031215612a8657600080fd5b8235612a918161244b565b9150602083013561272e8161244b565b600060608284031215612ab357600080fd5b610c388383612572565b600181811c90821680612ad157607f821691505b60208210810361237957634e487b7160e01b600052602260045260246000fd5b634e487b7160e01b600052604160045260246000fd5b604051606081016001600160401b0381118282101715612b2957612b29612af1565b60405290565b604080519081016001600160401b0381118282101715612b2957612b29612af1565b604051601f8201601f191681016001600160401b0381118282101715612b7957612b79612af1565b604052919050565b60006001600160401b03821115612b9a57612b9a612af1565b50601f01601f191660200190565b60006001600160401b0380841115612bc257612bc2612af1565b8360051b6020612bd3818301612b51565b868152918501918181019036841115612beb57600080fd5b865b84811015612cb157803586811115612c055760008081fd5b88016060368290031215612c195760008081fd5b612c21612b07565b612c2a826126a5565b8152612c378683016127ba565b8682015260408083013589811115612c4f5760008081fd5b929092019136601f840112612c645760008081fd5b8235612c77612c7282612b81565b612b51565b8181523689838701011115612c8c5760008081fd5b818986018a830137600091810189019190915290820152845250918301918301612bed565b50979650505050505050565b60008085851115612ccd57600080fd5b83861115612cda57600080fd5b5050820193919092039150565b60008451612cf98184602089016123c3565b8201838582376000930192835250909392505050565b81835281816020850137506000828201602090810191909152601f909101601f19169091010190565b602081526000610cd3602083018486612d0f565b634e487b7160e01b600052603260045260246000fd5b6000823561013e19833603018112612d7957600080fd5b9190910192915050565b6000808335601e19843603018112612d9a57600080fd5b8301803591506001600160401b03821115612db457600080fd5b6020019150368190038213156109ca57600080fd5b63ffffffff612dd7896126a5565b1681526020880135602082015260006040890135612df481612882565b6001600160401b03811660408401525087606083015260e06080830152612e1f60e083018789612d0f565b6001600160a01b03861660a084015282810360c0840152612e41818587612d0f565b9a9950505050505050505050565b600060208284031215612e6157600080fd5b81516001600160401b03811115612e7757600080fd5b8201601f81018413612e8857600080fd5b8051612e96612c7282612b81565b818152856020838501011115612eab57600080fd5b61198b8260208301602086016123c3565b600060408284031215612ece57600080fd5b612ed6612b2f565b82358152602083013560208201528091505092915050565b600060208284031215612f0057600080fd5b8151610c38816126da565b634e487b7160e01b600052601160045260246000fd5b600082612f3e57634e487b7160e01b600052601260045260246000fd5b500490565b60018060a01b038516815283602082015261ffff83166040820152608060608201526000610cb260808301846123e7565b6040815263ffffffff8351166040820152602083015160608201526000604084015160a06080840152612faa60e08401826123e7565b90506060850151603f198483030160a0850152612fc782826123e7565b60809690960151151560c08501525050506001600160a01b039190911660209091015290565b600060408284031215612fff57600080fd5b613007612b2f565b9050815181526020820151602082015292915050565b60006040828403121561302f57600080fd5b610c388383612fed565b8082028115828204841417610a7757610a77612f0b565b601f821115611544576000816000526020600020601f850160051c810160208610156130795750805b601f850160051c820191505b8181101561309857828155600101613085565b505050505050565b81516001600160401b038111156130b9576130b9612af1565b6130cd816130c78454612abd565b84613050565b602080601f83116001811461310257600084156130ea5750858301515b600019600386901b1c1916600185901b178555613098565b600085815260208120601f198616915b8281101561313157888601518255948401946001909101908401613112565b508582101561314f5787850151600019600388901b60f8161c191681555b5050505050600190811b01905550565b600060208083018184528085518083526040925060408601915060408160051b87010184880160005b838110156131dc57888303603f190185528151805163ffffffff1684528781015161ffff168885015286015160608785018190526131c8818601836123e7565b968901969450505090860190600101613188565b509098975050505050505050565b6000608082840312156131fc57600080fd5b613204612b07565b82518152602083015161321681612882565b60208201526132288460408501612fed565b60408201529392505050565b8481526001600160401b0360c01b8460c01b166020820152826028820152600082516132678160488501602087016123c3565b9190910160480195945050505050565b80356020831015610a7757600019602084900360031b1b1692915050565b6001600160c01b031981358181169160088510156132bd5780818660080360031b1b83161692505b505092915050565b6001600160401b0360c01b8560c01b16815263ffffffff60e01b8460e01b16600882015282600c8201526000825161330481602c8501602087016123c3565b91909101602c0195945050505050565b80820180821115610a7757610a77612f0b565b60006020828403121561333957600080fd5b8151610c388161244b565b60008251612d798184602087016123c356fea2646970667358221220e84833022779ebd17005b950ced8c1785926494db9adf13328344af36abb361164736f6c63430008160033",
    "linkReferences": {}
  },
  "methodIdentifiers": {
    "SEND()": "1f5e1334",
    "SEND_AND_CALL()": "134d4f25",
    "allowInitializePath((uint32,bytes32,uint64))": "ff7bd03d",
    "allowance(address,address)": "dd62ed3e",
    "approvalRequired()": "9f68b964",
    "approve(address,uint256)": "095ea7b3",
    "balanceOf(address)": "70a08231",
    "buildMsgAndOptions((uint32,bytes32,uint256,uint256,bytes,bytes,bytes),uint256)": "056d62de",
    "combineOptions(uint32,uint16,bytes)": "bc70b354",
    "credit(address,uint256,uint32)": "4dba701b",
    "debit(uint256,uint256,uint32)": "54f52414",
    "debitView(uint256,uint256,uint32)": "f0163023",
    "decimalConversionRate()": "963efcaa",
    "decimals()": "313ce567",
    "endpoint()": "5e280f11",
    "enforcedOptions(uint32,uint16)": "5535d461",
    "isComposeMsgSender((uint32,bytes32,uint64),bytes,address)": "82413eac",
    "isPeer(uint32,bytes32)": "5a0dfe4d",
    "lzReceive((uint32,bytes32,uint64),bytes32,bytes,address,bytes)": "13137d65",
    "lzReceiveAndRevert(((uint32,bytes32,uint64),uint32,address,bytes32,uint256,address,bytes,bytes)[])": "bd815db0",
    "lzReceiveSimulate((uint32,bytes32,uint64),bytes32,bytes,address,bytes)": "d045a0dc",
    "mint(address,uint256)": "40c10f19",
    "msgInspector()": "111ecdad",
    "name()": "06fdde03",
    "nextNonce(uint32,bytes32)": "7d25a05e",
    "oApp()": "52ae2879",
    "oAppVersion()": "17442b70",
    "oftVersion()": "156a0d0f",
    "owner()": "8da5cb5b",
    "peers(uint32)": "bb0b6a53",
    "preCrime()": "b731ea0a",
    "quoteOFT((uint32,bytes32,uint256,uint256,bytes,bytes,bytes))": "0d35b415",
    "quoteSend((uint32,bytes32,uint256,uint256,bytes,bytes,bytes),bool)": "3b6f743b",
    "removeDust(uint256)": "c0779988",
    "renounceOwnership()": "715018a6",
    "send((uint32,bytes32,uint256,uint256,bytes,bytes,bytes),(uint256,uint256),address)": "c7c7f5b3",
    "setDelegate(address)": "ca5eb5e1",
    "setEnforcedOptions((uint32,uint16,bytes)[])": "b98bd070",
    "setMsgInspector(address)": "6fc1b31e",
    "setPeer(uint32,bytes32)": "3400288b",
    "setPreCrime(address)": "d4243885",
    "sharedDecimals()": "857749b0",
    "symbol()": "95d89b41",
    "toLD(uint64)": "b3a5abeb",
    "toSD(uint256)": "0e78842c",
    "token()": "fc0c546a",
    "totalSupply()": "18160ddd",
    "transfer(address,uint256)": "a9059cbb",
    "transferFrom(address,address,uint256)": "23b872dd",
    "transferOwnership(address)": "f2fde38b"
  },
  "id": 121
}