{
  "abi": [
    {
      "type": "constructor",
      "inputs": [
        {
          "name": "_name",
          "type": "string",
          "internalType": "string"
        },
        {
          "name": "_symbol",
          "type": "string",
          "internalType": "string"
        },
        {
          "name": "_lzEndpoint",
          "type": "address",
          "internalType": "address"
        },
        {
          "name": "_delegate",
          "type": "address",
          "internalType": "address"
        }
      ],
      "stateMutability": "nonpayable"
    },
    {
      "type": "function",
      "name": "SEND",
      "inputs": [],
      "outputs": [
        {
          "name": "",
          "type": "uint16",
          "internalType": "uint16"
        }
      ],
      "stateMutability": "view"
    },
    {
      "type": "function",
      "name": "SEND_AND_COMPOSE",
      "inputs": [],
      "outputs": [
        {
          "name": "",
          "type": "uint16",
          "internalType": "uint16"
        }
      ],
      "stateMutability": "view"
    },
    {
      "type": "function",
      "name": "allowInitializePath",
      "inputs": [
        {
          "name": "origin",
          "type": "tuple",
          "internalType": "struct Origin",
          "components": [
            {
              "name": "srcEid",
              "type": "uint32",
              "internalType": "uint32"
            },
            {
              "name": "sender",
              "type": "bytes32",
              "internalType": "bytes32"
            },
            {
              "name": "nonce",
              "type": "uint64",
              "internalType": "uint64"
            }
          ]
        }
      ],
      "outputs": [
        {
          "name": "",
          "type": "bool",
          "internalType": "bool"
        }
      ],
      "stateMutability": "view"
    },
    {
      "type": "function",
      "name": "approvalRequired",
      "inputs": [],
      "outputs": [
        {
          "name": "",
          "type": "bool",
          "internalType": "bool"
        }
      ],
      "stateMutability": "pure"
    },
    {
      "type": "function",
      "name": "approve",
      "inputs": [
        {
          "name": "to",
          "type": "address",
          "internalType": "address"
        },
        {
          "name": "tokenId",
          "type": "uint256",
          "internalType": "uint256"
        }
      ],
      "outputs": [],
      "stateMutability": "nonpayable"
    },
    {
      "type": "function",
      "name": "balanceOf",
      "inputs": [
        {
          "name": "owner",
          "type": "address",
          "internalType": "address"
        }
      ],
      "outputs": [
        {
          "name": "",
          "type": "uint256",
          "internalType": "uint256"
        }
      ],
      "stateMutability": "view"
    },
    {
      "type": "function",
      "name": "buildMsgAndOptions",
      "inputs": [
        {
          "name": "_sendParam",
          "type": "tuple",
          "internalType": "struct SendParam",
          "components": [
            {
              "name": "dstEid",
              "type": "uint32",
              "internalType": "uint32"
            },
            {
              "name": "to",
              "type": "bytes32",
              "internalType": "bytes32"
            },
            {
              "name": "tokenId",
              "type": "uint256",
              "internalType": "uint256"
            },
            {
              "name": "extraOptions",
              "type": "bytes",
              "internalType": "bytes"
            },
            {
              "name": "composeMsg",
              "type": "bytes",
              "internalType": "bytes"
            },
            {
              "name": "onftCmd",
              "type": "bytes",
              "internalType": "bytes"
            }
          ]
        }
      ],
      "outputs": [
        {
          "name": "",
          "type": "bytes",
          "internalType": "bytes"
        },
        {
          "name": "",
          "type": "bytes",
          "internalType": "bytes"
        }
      ],
      "stateMutability": "view"
    },
    {
      "type": "function",
      "name": "combineOptions",
      "inputs": [
        {
          "name": "_eid",
          "type": "uint32",
          "internalType": "uint32"
        },
        {
          "name": "_msgType",
          "type": "uint16",
          "internalType": "uint16"
        },
        {
          "name": "_extraOptions",
          "type": "bytes",
          "internalType": "bytes"
        }
      ],
      "outputs": [
        {
          "name": "",
          "type": "bytes",
          "internalType": "bytes"
        }
      ],
      "stateMutability": "view"
    },
    {
      "type": "function",
      "name": "credit",
      "inputs": [
        {
          "name": "_toAddress",
          "type": "address",
          "internalType": "address"
        },
        {
          "name": "_tokenId",
          "type": "uint256",
          "internalType": "uint256"
        },
        {
          "name": "_srcEid",
          "type": "uint32",
          "internalType": "uint32"
        }
      ],
      "outputs": [],
      "stateMutability": "nonpayable"
    },
    {
      "type": "function",
      "name": "debit",
      "inputs": [
        {
          "name": "_tokenId",
          "type": "uint256",
          "internalType": "uint256"
        },
        {
          "name": "_dstEid",
          "type": "uint32",
          "internalType": "uint32"
        }
      ],
      "outputs": [],
      "stateMutability": "nonpayable"
    },
    {
      "type": "function",
      "name": "endpoint",
      "inputs": [],
      "outputs": [
        {
          "name": "",
          "type": "address",
          "internalType": "contract ILayerZeroEndpointV2"
        }
      ],
      "stateMutability": "view"
    },
    {
      "type": "function",
      "name": "enforcedOptions",
      "inputs": [
        {
          "name": "eid",
          "type": "uint32",
          "internalType": "uint32"
        },
        {
          "name": "msgType",
          "type": "uint16",
          "internalType": "uint16"
        }
      ],
      "outputs": [
        {
          "name": "enforcedOption",
          "type": "bytes",
          "internalType": "bytes"
        }
      ],
      "stateMutability": "view"
    },
    {
      "type": "function",
      "name": "exists",
      "inputs": [
        {
          "name": "_tokenId",
          "type": "uint256",
          "internalType": "uint256"
        }
      ],
      "outputs": [
        {
          "name": "",
          "type": "bool",
          "internalType": "bool"
        }
      ],
      "stateMutability": "view"
    },
    {
      "type": "function",
      "name": "getApproved",
      "inputs": [
        {
          "name": "tokenId",
          "type": "uint256",
          "internalType": "uint256"
        }
      ],
      "outputs": [
        {
          "name": "",
          "type": "address",
          "internalType": "address"
        }
      ],
      "stateMutability": "view"
    },
    {
      "type": "function",
      "name": "isApprovedForAll",
      "inputs": [
        {
          "name": "owner",
          "type": "address",
          "internalType": "address"
        },
        {
          "name": "operator",
          "type": "address",
          "internalType": "address"
        }
      ],
      "outputs": [
        {
          "name": "",
          "type": "bool",
          "internalType": "bool"
        }
      ],
      "stateMutability": "view"
    },
    {
      "type": "function",
      "name": "isComposeMsgSender",
      "inputs": [
        {
          "name": "",
          "type": "tuple",
          "internalType": "struct Origin",
          "components": [
            {
              "name": "srcEid",
              "type": "uint32",
              "internalType": "uint32"
            },
            {
              "name": "sender",
              "type": "bytes32",
              "internalType": "bytes32"
            },
            {
              "name": "nonce",
              "type": "uint64",
              "internalType": "uint64"
            }
          ]
        },
        {
          "name": "",
          "type": "bytes",
          "internalType": "bytes"
        },
        {
          "name": "_sender",
          "type": "address",
          "internalType": "address"
        }
      ],
      "outputs": [
        {
          "name": "",
          "type": "bool",
          "internalType": "bool"
        }
      ],
      "stateMutability": "view"
    },
    {
      "type": "function",
      "name": "isPeer",
      "inputs": [
        {
          "name": "_eid",
          "type": "uint32",
          "internalType": "uint32"
        },
        {
          "name": "_peer",
          "type": "bytes32",
          "internalType": "bytes32"
        }
      ],
      "outputs": [
        {
          "name": "",
          "type": "bool",
          "internalType": "bool"
        }
      ],
      "stateMutability": "view"
    },
    {
      "type": "function",
      "name": "lzReceive",
      "inputs": [
        {
          "name": "_origin",
          "type": "tuple",
          "internalType": "struct Origin",
          "components": [
            {
              "name": "srcEid",
              "type": "uint32",
              "internalType": "uint32"
            },
            {
              "name": "sender",
              "type": "bytes32",
              "internalType": "bytes32"
            },
            {
              "name": "nonce",
              "type": "uint64",
              "internalType": "uint64"
            }
          ]
        },
        {
          "name": "_guid",
          "type": "bytes32",
          "internalType": "bytes32"
        },
        {
          "name": "_message",
          "type": "bytes",
          "internalType": "bytes"
        },
        {
          "name": "_executor",
          "type": "address",
          "internalType": "address"
        },
        {
          "name": "_extraData",
          "type": "bytes",
          "internalType": "bytes"
        }
      ],
      "outputs": [],
      "stateMutability": "payable"
    },
    {
      "type": "function",
      "name": "lzReceiveAndRevert",
      "inputs": [
        {
          "name": "_packets",
          "type": "tuple[]",
          "internalType": "struct InboundPacket[]",
          "components": [
            {
              "name": "origin",
              "type": "tuple",
              "internalType": "struct Origin",
              "components": [
                {
                  "name": "srcEid",
                  "type": "uint32",
                  "internalType": "uint32"
                },
                {
                  "name": "sender",
                  "type": "bytes32",
                  "internalType": "bytes32"
                },
                {
                  "name": "nonce",
                  "type": "uint64",
                  "internalType": "uint64"
                }
              ]
            },
            {
              "name": "dstEid",
              "type": "uint32",
              "internalType": "uint32"
            },
            {
              "name": "receiver",
              "type": "address",
              "internalType": "address"
            },
            {
              "name": "guid",
              "type": "bytes32",
              "internalType": "bytes32"
            },
            {
              "name": "value",
              "type": "uint256",
              "internalType": "uint256"
            },
            {
              "name": "executor",
              "type": "address",
              "internalType": "address"
            },
            {
              "name": "message",
              "type": "bytes",
              "internalType": "bytes"
            },
            {
              "name": "extraData",
              "type": "bytes",
              "internalType": "bytes"
            }
          ]
        }
      ],
      "outputs": [],
      "stateMutability": "payable"
    },
    {
      "type": "function",
      "name": "lzReceiveSimulate",
      "inputs": [
        {
          "name": "_origin",
          "type": "tuple",
          "internalType": "struct Origin",
          "components": [
            {
              "name": "srcEid",
              "type": "uint32",
              "internalType": "uint32"
            },
            {
              "name": "sender",
              "type": "bytes32",
              "internalType": "bytes32"
            },
            {
              "name": "nonce",
              "type": "uint64",
              "internalType": "uint64"
            }
          ]
        },
        {
          "name": "_guid",
          "type": "bytes32",
          "internalType": "bytes32"
        },
        {
          "name": "_message",
          "type": "bytes",
          "internalType": "bytes"
        },
        {
          "name": "_executor",
          "type": "address",
          "internalType": "address"
        },
        {
          "name": "_extraData",
          "type": "bytes",
          "internalType": "bytes"
        }
      ],
      "outputs": [],
      "stateMutability": "payable"
    },
    {
      "type": "function",
      "name": "mint",
      "inputs": [
        {
          "name": "_to",
          "type": "address",
          "internalType": "address"
        },
        {
          "name": "_tokenId",
          "type": "uint256",
          "internalType": "uint256"
        }
      ],
      "outputs": [],
      "stateMutability": "nonpayable"
    },
    {
      "type": "function",
      "name": "msgInspector",
      "inputs": [],
      "outputs": [
        {
          "name": "",
          "type": "address",
          "internalType": "address"
        }
      ],
      "stateMutability": "view"
    },
    {
      "type": "function",
      "name": "name",
      "inputs": [],
      "outputs": [
        {
          "name": "",
          "type": "string",
          "internalType": "string"
        }
      ],
      "stateMutability": "view"
    },
    {
      "type": "function",
      "name": "nextNonce",
      "inputs": [
        {
          "name": "",
          "type": "uint32",
          "internalType": "uint32"
        },
        {
          "name": "",
          "type": "bytes32",
          "internalType": "bytes32"
        }
      ],
      "outputs": [
        {
          "name": "nonce",
          "type": "uint64",
          "internalType": "uint64"
        }
      ],
      "stateMutability": "view"
    },
    {
      "type": "function",
      "name": "oApp",
      "inputs": [],
      "outputs": [
        {
          "name": "",
          "type": "address",
          "internalType": "address"
        }
      ],
      "stateMutability": "view"
    },
    {
      "type": "function",
      "name": "oAppVersion",
      "inputs": [],
      "outputs": [
        {
          "name": "senderVersion",
          "type": "uint64",
          "internalType": "uint64"
        },
        {
          "name": "receiverVersion",
          "type": "uint64",
          "internalType": "uint64"
        }
      ],
      "stateMutability": "pure"
    },
    {
      "type": "function",
      "name": "onftVersion",
      "inputs": [],
      "outputs": [
        {
          "name": "interfaceId",
          "type": "bytes4",
          "internalType": "bytes4"
        },
        {
          "name": "version",
          "type": "uint64",
          "internalType": "uint64"
        }
      ],
      "stateMutability": "pure"
    },
    {
      "type": "function",
      "name": "owner",
      "inputs": [],
      "outputs": [
        {
          "name": "",
          "type": "address",
          "internalType": "address"
        }
      ],
      "stateMutability": "view"
    },
    {
      "type": "function",
      "name": "ownerOf",
      "inputs": [
        {
          "name": "tokenId",
          "type": "uint256",
          "internalType": "uint256"
        }
      ],
      "outputs": [
        {
          "name": "",
          "type": "address",
          "internalType": "address"
        }
      ],
      "stateMutability": "view"
    },
    {
      "type": "function",
      "name": "peers",
      "inputs": [
        {
          "name": "eid",
          "type": "uint32",
          "internalType": "uint32"
        }
      ],
      "outputs": [
        {
          "name": "peer",
          "type": "bytes32",
          "internalType": "bytes32"
        }
      ],
      "stateMutability": "view"
    },
    {
      "type": "function",
      "name": "preCrime",
      "inputs": [],
      "outputs": [
        {
          "name": "",
          "type": "address",
          "internalType": "address"
        }
      ],
      "stateMutability": "view"
    },
    {
      "type": "function",
      "name": "quoteSend",
      "inputs": [
        {
          "name": "_sendParam",
          "type": "tuple",
          "internalType": "struct SendParam",
          "components": [
            {
              "name": "dstEid",
              "type": "uint32",
              "internalType": "uint32"
            },
            {
              "name": "to",
              "type": "bytes32",
              "internalType": "bytes32"
            },
            {
              "name": "tokenId",
              "type": "uint256",
              "internalType": "uint256"
            },
            {
              "name": "extraOptions",
              "type": "bytes",
              "internalType": "bytes"
            },
            {
              "name": "composeMsg",
              "type": "bytes",
              "internalType": "bytes"
            },
            {
              "name": "onftCmd",
              "type": "bytes",
              "internalType": "bytes"
            }
          ]
        },
        {
          "name": "_payInLzToken",
          "type": "bool",
          "internalType": "bool"
        }
      ],
      "outputs": [
        {
          "name": "msgFee",
          "type": "tuple",
          "internalType": "struct MessagingFee",
          "components": [
            {
              "name": "nativeFee",
              "type": "uint256",
              "internalType": "uint256"
            },
            {
              "name": "lzTokenFee",
              "type": "uint256",
              "internalType": "uint256"
            }
          ]
        }
      ],
      "stateMutability": "view"
    },
    {
      "type": "function",
      "name": "renounceOwnership",
      "inputs": [],
      "outputs": [],
      "stateMutability": "nonpayable"
    },
    {
      "type": "function",
      "name": "safeTransferFrom",
      "inputs": [
        {
          "name": "from",
          "type": "address",
          "internalType": "address"
        },
        {
          "name": "to",
          "type": "address",
          "internalType": "address"
        },
        {
          "name": "tokenId",
          "type": "uint256",
          "internalType": "uint256"
        }
      ],
      "outputs": [],
      "stateMutability": "nonpayable"
    },
    {
      "type": "function",
      "name": "safeTransferFrom",
      "inputs": [
        {
          "name": "from",
          "type": "address",
          "internalType": "address"
        },
        {
          "name": "to",
          "type": "address",
          "internalType": "address"
        },
        {
          "name": "tokenId",
          "type": "uint256",
          "internalType": "uint256"
        },
        {
          "name": "data",
          "type": "bytes",
          "internalType": "bytes"
        }
      ],
      "outputs": [],
      "stateMutability": "nonpayable"
    },
    {
      "type": "function",
      "name": "send",
      "inputs": [
        {
          "name": "_sendParam",
          "type": "tuple",
          "internalType": "struct SendParam",
          "components": [
            {
              "name": "dstEid",
              "type": "uint32",
              "internalType": "uint32"
            },
            {
              "name": "to",
              "type": "bytes32",
              "internalType": "bytes32"
            },
            {
              "name": "tokenId",
              "type": "uint256",
              "internalType": "uint256"
            },
            {
              "name": "extraOptions",
              "type": "bytes",
              "internalType": "bytes"
            },
            {
              "name": "composeMsg",
              "type": "bytes",
              "internalType": "bytes"
            },
            {
              "name": "onftCmd",
              "type": "bytes",
              "internalType": "bytes"
            }
          ]
        },
        {
          "name": "_fee",
          "type": "tuple",
          "internalType": "struct MessagingFee",
          "components": [
            {
              "name": "nativeFee",
              "type": "uint256",
              "internalType": "uint256"
            },
            {
              "name": "lzTokenFee",
              "type": "uint256",
              "internalType": "uint256"
            }
          ]
        },
        {
          "name": "_refundAddress",
          "type": "address",
          "internalType": "address"
        }
      ],
      "outputs": [
        {
          "name": "msgReceipt",
          "type": "tuple",
          "internalType": "struct MessagingReceipt",
          "components": [
            {
              "name": "guid",
              "type": "bytes32",
              "internalType": "bytes32"
            },
            {
              "name": "nonce",
              "type": "uint64",
              "internalType": "uint64"
            },
            {
              "name": "fee",
              "type": "tuple",
              "internalType": "struct MessagingFee",
              "components": [
                {
                  "name": "nativeFee",
                  "type": "uint256",
                  "internalType": "uint256"
                },
                {
                  "name": "lzTokenFee",
                  "type": "uint256",
                  "internalType": "uint256"
                }
              ]
            }
          ]
        }
      ],
      "stateMutability": "payable"
    },
    {
      "type": "function",
      "name": "setApprovalForAll",
      "inputs": [
        {
          "name": "operator",
          "type": "address",
          "internalType": "address"
        },
        {
          "name": "approved",
          "type": "bool",
          "internalType": "bool"
        }
      ],
      "outputs": [],
      "stateMutability": "nonpayable"
    },
    {
      "type": "function",
      "name": "setBaseURI",
      "inputs": [
        {
          "name": "_baseTokenURI",
          "type": "string",
          "internalType": "string"
        }
      ],
      "outputs": [],
      "stateMutability": "nonpayable"
    },
    {
      "type": "function",
      "name": "setDelegate",
      "inputs": [
        {
          "name": "_delegate",
          "type": "address",
          "internalType": "address"
        }
      ],
      "outputs": [],
      "stateMutability": "nonpayable"
    },
    {
      "type": "function",
      "name": "setEnforcedOptions",
      "inputs": [
        {
          "name": "_enforcedOptions",
          "type": "tuple[]",
          "internalType": "struct EnforcedOptionParam[]",
          "components": [
            {
              "name": "eid",
              "type": "uint32",
              "internalType": "uint32"
            },
            {
              "name": "msgType",
              "type": "uint16",
              "internalType": "uint16"
            },
            {
              "name": "options",
              "type": "bytes",
              "internalType": "bytes"
            }
          ]
        }
      ],
      "outputs": [],
      "stateMutability": "nonpayable"
    },
    {
      "type": "function",
      "name": "setMsgInspector",
      "inputs": [
        {
          "name": "_msgInspector",
          "type": "address",
          "internalType": "address"
        }
      ],
      "outputs": [],
      "stateMutability": "nonpayable"
    },
    {
      "type": "function",
      "name": "setPeer",
      "inputs": [
        {
          "name": "_eid",
          "type": "uint32",
          "internalType": "uint32"
        },
        {
          "name": "_peer",
          "type": "bytes32",
          "internalType": "bytes32"
        }
      ],
      "outputs": [],
      "stateMutability": "nonpayable"
    },
    {
      "type": "function",
      "name": "setPreCrime",
      "inputs": [
        {
          "name": "_preCrime",
          "type": "address",
          "internalType": "address"
        }
      ],
      "outputs": [],
      "stateMutability": "nonpayable"
    },
    {
      "type": "function",
      "name": "supportsInterface",
      "inputs": [
        {
          "name": "interfaceId",
          "type": "bytes4",
          "internalType": "bytes4"
        }
      ],
      "outputs": [
        {
          "name": "",
          "type": "bool",
          "internalType": "bool"
        }
      ],
      "stateMutability": "view"
    },
    {
      "type": "function",
      "name": "symbol",
      "inputs": [],
      "outputs": [
        {
          "name": "",
          "type": "string",
          "internalType": "string"
        }
      ],
      "stateMutability": "view"
    },
    {
      "type": "function",
      "name": "token",
      "inputs": [],
      "outputs": [
        {
          "name": "",
          "type": "address",
          "internalType": "address"
        }
      ],
      "stateMutability": "view"
    },
    {
      "type": "function",
      "name": "tokenURI",
      "inputs": [
        {
          "name": "tokenId",
          "type": "uint256",
          "internalType": "uint256"
        }
      ],
      "outputs": [
        {
          "name": "",
          "type": "string",
          "internalType": "string"
        }
      ],
      "stateMutability": "view"
    },
    {
      "type": "function",
      "name": "transferFrom",
      "inputs": [
        {
          "name": "from",
          "type": "address",
          "internalType": "address"
        },
        {
          "name": "to",
          "type": "address",
          "internalType": "address"
        },
        {
          "name": "tokenId",
          "type": "uint256",
          "internalType": "uint256"
        }
      ],
      "outputs": [],
      "stateMutability": "nonpayable"
    },
    {
      "type": "function",
      "name": "transferOwnership",
      "inputs": [
        {
          "name": "newOwner",
          "type": "address",
          "internalType": "address"
        }
      ],
      "outputs": [],
      "stateMutability": "nonpayable"
    },
    {
      "type": "event",
      "name": "Approval",
      "inputs": [
        {
          "name": "owner",
          "type": "address",
          "indexed": true,
          "internalType": "address"
        },
        {
          "name": "approved",
          "type": "address",
          "indexed": true,
          "internalType": "address"
        },
        {
          "name": "tokenId",
          "type": "uint256",
          "indexed": true,
          "internalType": "uint256"
        }
      ],
      "anonymous": false
    },
    {
      "type": "event",
      "name": "ApprovalForAll",
      "inputs": [
        {
          "name": "owner",
          "type": "address",
          "indexed": true,
          "internalType": "address"
        },
        {
          "name": "operator",
          "type": "address",
          "indexed": true,
          "internalType": "address"
        },
        {
          "name": "approved",
          "type": "bool",
          "indexed": false,
          "internalType": "bool"
        }
      ],
      "anonymous": false
    },
    {
      "type": "event",
      "name": "EnforcedOptionSet",
      "inputs": [
        {
          "name": "_enforcedOptions",
          "type": "tuple[]",
          "indexed": false,
          "internalType": "struct EnforcedOptionParam[]",
          "components": [
            {
              "name": "eid",
              "type": "uint32",
              "internalType": "uint32"
            },
            {
              "name": "msgType",
              "type": "uint16",
              "internalType": "uint16"
            },
            {
              "name": "options",
              "type": "bytes",
              "internalType": "bytes"
            }
          ]
        }
      ],
      "anonymous": false
    },
    {
      "type": "event",
      "name": "MsgInspectorSet",
      "inputs": [
        {
          "name": "inspector",
          "type": "address",
          "indexed": false,
          "internalType": "address"
        }
      ],
      "anonymous": false
    },
    {
      "type": "event",
      "name": "ONFTReceived",
      "inputs": [
        {
          "name": "guid",
          "type": "bytes32",
          "indexed": true,
          "internalType": "bytes32"
        },
        {
          "name": "srcEid",
          "type": "uint32",
          "indexed": false,
          "internalType": "uint32"
        },
        {
          "name": "toAddress",
          "type": "address",
          "indexed": true,
          "internalType": "address"
        },
        {
          "name": "tokenId",
          "type": "uint256",
          "indexed": false,
          "internalType": "uint256"
        }
      ],
      "anonymous": false
    },
    {
      "type": "event",
      "name": "ONFTSent",
      "inputs": [
        {
          "name": "guid",
          "type": "bytes32",
          "indexed": true,
          "internalType": "bytes32"
        },
        {
          "name": "dstEid",
          "type": "uint32",
          "indexed": false,
          "internalType": "uint32"
        },
        {
          "name": "fromAddress",
          "type": "address",
          "indexed": true,
          "internalType": "address"
        },
        {
          "name": "tokenId",
          "type": "uint256",
          "indexed": false,
          "internalType": "uint256"
        }
      ],
      "anonymous": false
    },
    {
      "type": "event",
      "name": "OwnershipTransferred",
      "inputs": [
        {
          "name": "previousOwner",
          "type": "address",
          "indexed": true,
          "internalType": "address"
        },
        {
          "name": "newOwner",
          "type": "address",
          "indexed": true,
          "internalType": "address"
        }
      ],
      "anonymous": false
    },
    {
      "type": "event",
      "name": "PeerSet",
      "inputs": [
        {
          "name": "eid",
          "type": "uint32",
          "indexed": false,
          "internalType": "uint32"
        },
        {
          "name": "peer",
          "type": "bytes32",
          "indexed": false,
          "internalType": "bytes32"
        }
      ],
      "anonymous": false
    },
    {
      "type": "event",
      "name": "PreCrimeSet",
      "inputs": [
        {
          "name": "preCrimeAddress",
          "type": "address",
          "indexed": false,
          "internalType": "address"
        }
      ],
      "anonymous": false
    },
    {
      "type": "event",
      "name": "Transfer",
      "inputs": [
        {
          "name": "from",
          "type": "address",
          "indexed": true,
          "internalType": "address"
        },
        {
          "name": "to",
          "type": "address",
          "indexed": true,
          "internalType": "address"
        },
        {
          "name": "tokenId",
          "type": "uint256",
          "indexed": true,
          "internalType": "uint256"
        }
      ],
      "anonymous": false
    },
    {
      "type": "error",
      "name": "AddressEmptyCode",
      "inputs": [
        {
          "name": "target",
          "type": "address",
          "internalType": "address"
        }
      ]
    },
    {
      "type": "error",
      "name": "AddressInsufficientBalance",
      "inputs": [
        {
          "name": "account",
          "type": "address",
          "internalType": "address"
        }
      ]
    },
    {
      "type": "error",
      "name": "ERC721IncorrectOwner",
      "inputs": [
        {
          "name": "sender",
          "type": "address",
          "internalType": "address"
        },
        {
          "name": "tokenId",
          "type": "uint256",
          "internalType": "uint256"
        },
        {
          "name": "owner",
          "type": "address",
          "internalType": "address"
        }
      ]
    },
    {
      "type": "error",
      "name": "ERC721InsufficientApproval",
      "inputs": [
        {
          "name": "operator",
          "type": "address",
          "internalType": "address"
        },
        {
          "name": "tokenId",
          "type": "uint256",
          "internalType": "uint256"
        }
      ]
    },
    {
      "type": "error",
      "name": "ERC721InvalidApprover",
      "inputs": [
        {
          "name": "approver",
          "type": "address",
          "internalType": "address"
        }
      ]
    },
    {
      "type": "error",
      "name": "ERC721InvalidOperator",
      "inputs": [
        {
          "name": "operator",
          "type": "address",
          "internalType": "address"
        }
      ]
    },
    {
      "type": "error",
      "name": "ERC721InvalidOwner",
      "inputs": [
        {
          "name": "owner",
          "type": "address",
          "internalType": "address"
        }
      ]
    },
    {
      "type": "error",
      "name": "ERC721InvalidReceiver",
      "inputs": [
        {
          "name": "receiver",
          "type": "address",
          "internalType": "address"
        }
      ]
    },
    {
      "type": "error",
      "name": "ERC721InvalidSender",
      "inputs": [
        {
          "name": "sender",
          "type": "address",
          "internalType": "address"
        }
      ]
    },
    {
      "type": "error",
      "name": "ERC721NonexistentToken",
      "inputs": [
        {
          "name": "tokenId",
          "type": "uint256",
          "internalType": "uint256"
        }
      ]
    },
    {
      "type": "error",
      "name": "FailedInnerCall",
      "inputs": []
    },
    {
      "type": "error",
      "name": "InvalidDelegate",
      "inputs": []
    },
    {
      "type": "error",
      "name": "InvalidEndpointCall",
      "inputs": []
    },
    {
      "type": "error",
      "name": "InvalidOptions",
      "inputs": [
        {
          "name": "options",
          "type": "bytes",
          "internalType": "bytes"
        }
      ]
    },
    {
      "type": "error",
      "name": "InvalidReceiver",
      "inputs": []
    },
    {
      "type": "error",
      "name": "LzTokenUnavailable",
      "inputs": []
    },
    {
      "type": "error",
      "name": "NoPeer",
      "inputs": [
        {
          "name": "eid",
          "type": "uint32",
          "internalType": "uint32"
        }
      ]
    },
    {
      "type": "error",
      "name": "NotEnoughNative",
      "inputs": [
        {
          "name": "msgValue",
          "type": "uint256",
          "internalType": "uint256"
        }
      ]
    },
    {
      "type": "error",
      "name": "OnlyEndpoint",
      "inputs": [
        {
          "name": "addr",
          "type": "address",
          "internalType": "address"
        }
      ]
    },
    {
      "type": "error",
      "name": "OnlyNFTOwner",
      "inputs": [
        {
          "name": "caller",
          "type": "address",
          "internalType": "address"
        },
        {
          "name": "owner",
          "type": "address",
          "internalType": "address"
        }
      ]
    },
    {
      "type": "error",
      "name": "OnlyPeer",
      "inputs": [
        {
          "name": "eid",
          "type": "uint32",
          "internalType": "uint32"
        },
        {
          "name": "sender",
          "type": "bytes32",
          "internalType": "bytes32"
        }
      ]
    },
    {
      "type": "error",
      "name": "OnlySelf",
      "inputs": []
    },
    {
      "type": "error",
      "name": "OwnableInvalidOwner",
      "inputs": [
        {
          "name": "owner",
          "type": "address",
          "internalType": "address"
        }
      ]
    },
    {
      "type": "error",
      "name": "OwnableUnauthorizedAccount",
      "inputs": [
        {
          "name": "account",
          "type": "address",
          "internalType": "address"
        }
      ]
    },
    {
      "type": "error",
      "name": "SafeERC20FailedOperation",
      "inputs": [
        {
          "name": "token",
          "type": "address",
          "internalType": "address"
        }
      ]
    },
    {
      "type": "error",
      "name": "SimulationResult",
      "inputs": [
        {
          "name": "result",
          "type": "bytes",
          "internalType": "bytes"
        }
      ]
    }
  ],
  "bytecode": {
    "object": "0x60a06040523480156200001157600080fd5b5060405162003b4538038062003b45833981016040819052620000349162000277565b838383838383838381818181806001600160a01b0381166200007057604051631e4fbdf760e01b81526000600482015260240160405180910390fd5b6200007b8162000142565b506001600160a01b038083166080528116620000aa57604051632d618d8160e21b815260040160405180910390fd5b60805160405163ca5eb5e160e01b81526001600160a01b0383811660048301529091169063ca5eb5e190602401600060405180830381600087803b158015620000f257600080fd5b505af115801562000107573d6000803e3d6000fd5b50505050505050505050816005908162000122919062000397565b50600662000131828262000397565b505050505050505050505062000463565b600080546001600160a01b038381166001600160a01b0319831681178455604051919092169283917f8be0079c531659141344cd1fd0a4f28419497f9722a3daafe3b4186f6b6457e09190a35050565b634e487b7160e01b600052604160045260246000fd5b600082601f830112620001ba57600080fd5b81516001600160401b0380821115620001d757620001d762000192565b604051601f8301601f19908116603f0116810190828211818310171562000202576200020262000192565b81604052838152602092508660208588010111156200022057600080fd5b600091505b8382101562000244578582018301518183018401529082019062000225565b6000602085830101528094505050505092915050565b80516001600160a01b03811681146200027257600080fd5b919050565b600080600080608085870312156200028e57600080fd5b84516001600160401b0380821115620002a657600080fd5b620002b488838901620001a8565b95506020870151915080821115620002cb57600080fd5b50620002da87828801620001a8565b935050620002eb604086016200025a565b9150620002fb606086016200025a565b905092959194509250565b600181811c908216806200031b57607f821691505b6020821081036200033c57634e487b7160e01b600052602260045260246000fd5b50919050565b601f82111562000392576000816000526020600020601f850160051c810160208610156200036d5750805b601f850160051c820191505b818110156200038e5782815560010162000379565b5050505b505050565b81516001600160401b03811115620003b357620003b362000192565b620003cb81620003c4845462000306565b8462000342565b602080601f831160018114620004035760008415620003ea5750858301515b600019600386901b1c1916600185901b1785556200038e565b600085815260208120601f198616915b82811015620004345788860151825594840194600190910190840162000413565b5085821015620004535787850151600019600388901b60f8161c191681555b5050505050600190811b01905550565b608051613695620004b06000396000818161057501528181610a450152818161128701528181611527015281816117cc01528181611de8015281816121cc015261228501526136956000f3fe6080604052600436106102ae5760003560e01c8063715018a611610175578063bb0b6a53116100dc578063d045a0dc11610095578063e985e9c51161006f578063e985e9c5146108c7578063f2fde38b146108e7578063fc0c546a146104d9578063ff7bd03d1461090757600080fd5b8063d045a0dc14610874578063d424388514610887578063dcdfd911146108a757600080fd5b8063bb0b6a53146107a7578063bc70b354146107d4578063bd815db0146107f4578063c6414e7b14610807578063c87b56dd14610834578063ca5eb5e11461085457600080fd5b8063a22cb4651161012e578063a22cb465146106ea578063a72f5dd81461070a578063b21a33e414610732578063b731ea0a14610747578063b88d4fde14610767578063b98bd0701461078757600080fd5b8063715018a6146106335780637d25a05e1461064857806382413eac146106835780638da5cb5b146106a357806395d89b41146106c15780639f68b964146106d657600080fd5b806342842e0e116102195780635a0dfe4d116101d25780635a0dfe4d1461052c5780635e280f11146105635780636352211e146105975780636fc1b31e146105b75780637048de9a146105d757806370a082311461060557600080fd5b806342842e0e146104615780634dba701b146104815780634f558e79146104a157806352ae2879146104d95780635535d461146104ec57806355f804b31461050c57600080fd5b806317442b701161026b57806317442b70146103975780631f5e1334146103b957806321eb730b146103e157806323b872dd146104015780633400288b1461042157806340c10f191461044157600080fd5b806301ffc9a7146102b357806306fdde03146102e8578063081812fc1461030a578063095ea7b314610342578063111ecdad1461036457806313137d6514610384575b600080fd5b3480156102bf57600080fd5b506102d36102ce36600461266a565b610927565b60405190151581526020015b60405180910390f35b3480156102f457600080fd5b506102fd610979565b6040516102df91906126d7565b34801561031657600080fd5b5061032a6103253660046126ea565b610a0b565b6040516001600160a01b0390911681526020016102df565b34801561034e57600080fd5b5061036261035d366004612718565b610a34565b005b34801561037057600080fd5b5060045461032a906001600160a01b031681565b6103626103923660046127a4565b610a43565b3480156103a357600080fd5b50604080516001815260026020820152016102df565b3480156103c557600080fd5b506103ce600181565b60405161ffff90911681526020016102df565b6103f46103ef366004612855565b610b03565b6040516102df91906128c2565b34801561040d57600080fd5b5061036261041c366004612904565b610bbc565b34801561042d57600080fd5b5061036261043c36600461295e565b610c47565b34801561044d57600080fd5b5061036261045c366004612718565b610c59565b34801561046d57600080fd5b5061036261047c366004612904565b610c63565b34801561048d57600080fd5b5061036261049c36600461297a565b610c83565b3480156104ad57600080fd5b506102d36104bc3660046126ea565b6000908152600760205260409020546001600160a01b0316151590565b3480156104e557600080fd5b503061032a565b3480156104f857600080fd5b506102fd6105073660046129ca565b610c8e565b34801561051857600080fd5b50610362610527366004612af2565b610d33565b34801561053857600080fd5b506102d361054736600461295e565b63ffffffff919091166000908152600160205260409020541490565b34801561056f57600080fd5b5061032a7f000000000000000000000000000000000000000000000000000000000000000081565b3480156105a357600080fd5b5061032a6105b23660046126ea565b610d47565b3480156105c357600080fd5b506103626105d2366004612b3a565b610d52565b3480156105e357600080fd5b506105f76105f2366004612b57565b610daf565b6040516102df929190612b8b565b34801561061157600080fd5b50610625610620366004612b3a565b610dc4565b6040519081526020016102df565b34801561063f57600080fd5b50610362610e0c565b34801561065457600080fd5b5061066b61066336600461295e565b600092915050565b6040516001600160401b0390911681526020016102df565b34801561068f57600080fd5b506102d361069e366004612bb0565b610e20565b3480156106af57600080fd5b506000546001600160a01b031661032a565b3480156106cd57600080fd5b506102fd610e35565b3480156106e257600080fd5b5060006102d3565b3480156106f657600080fd5b50610362610705366004612c24565b610e44565b34801561071657600080fd5b50604080516311f0c6d360e11b815260016020820152016102df565b34801561073e57600080fd5b506103ce600281565b34801561075357600080fd5b5060025461032a906001600160a01b031681565b34801561077357600080fd5b50610362610782366004612c7d565b610e4f565b34801561079357600080fd5b506103626107a2366004612d2c565b610e66565b3480156107b357600080fd5b506106256107c2366004612d6d565b60016020526000908152604090205481565b3480156107e057600080fd5b506102fd6107ef366004612d88565b610e80565b610362610802366004612d2c565b611028565b34801561081357600080fd5b50610827610822366004612de8565b6111b2565b6040516102df9190612e2e565b34801561084057600080fd5b506102fd61084f3660046126ea565b6111f8565b34801561086057600080fd5b5061036261086f366004612b3a565b611260565b6103626108823660046127a4565b6112e6565b34801561089357600080fd5b506103626108a2366004612b3a565b611315565b3480156108b357600080fd5b506103626108c2366004612e45565b61136b565b3480156108d357600080fd5b506102d36108e2366004612e68565b611376565b3480156108f357600080fd5b50610362610902366004612b3a565b6113a4565b34801561091357600080fd5b506102d3610922366004612e96565b6113e2565b60006001600160e01b031982166380ac58cd60e01b148061095857506001600160e01b03198216635b5e139f60e01b145b8061097357506301ffc9a760e01b6001600160e01b03198316145b92915050565b60606005805461098890612eb2565b80601f01602080910402602001604051908101604052809291908181526020018280546109b490612eb2565b8015610a015780601f106109d657610100808354040283529160200191610a01565b820191906000526020600020905b8154815290600101906020018083116109e457829003601f168201915b5050505050905090565b6000610a1682611418565b506000828152600960205260409020546001600160a01b0316610973565b610a3f828233611451565b5050565b7f00000000000000000000000000000000000000000000000000000000000000006001600160a01b03163314610a93576040516391ac5e4f60e01b81523360048201526024015b60405180910390fd5b60208701803590610aad90610aa8908a612d6d565b61145e565b14610aeb57610abf6020880188612d6d565b60405163309afaf360e21b815263ffffffff909116600482015260208801356024820152604401610a8a565b610afa8787878787878761149a565b50505050505050565b610b0b61260d565b610b26336040860135610b216020880188612d6d565b6115f9565b600080610b3286611659565b9092509050610b5e610b476020880188612d6d565b8383610b58368a90038a018a612ee6565b88611799565b805190935033907f986156872b2ee0022b9585231dbbfde457f87f8a16b6c45e1a81c54c4ad8351f610b9360208a018a612d6d565b6040805163ffffffff9092168252808b013560208301520160405180910390a350509392505050565b6001600160a01b038216610be657604051633250574960e11b815260006004820152602401610a8a565b6000610bf38383336118a4565b9050836001600160a01b0316816001600160a01b031614610c41576040516364283d7b60e01b81526001600160a01b0380861660048301526024820184905282166044820152606401610a8a565b50505050565b610c4f61199d565b610a3f82826119ca565b610a3f8282611a1f565b610c7e83838360405180602001604052806000815250610e4f565b505050565b610c7e838383611a84565b600360209081526000928352604080842090915290825290208054610cb290612eb2565b80601f0160208091040260200160405190810160405280929190818152602001828054610cde90612eb2565b8015610d2b5780601f10610d0057610100808354040283529160200191610d2b565b820191906000526020600020905b815481529060010190602001808311610d0e57829003601f168201915b505050505081565b610d3b61199d565b600b610a3f8282612f68565b600061097382611418565b610d5a61199d565b600480546001600160a01b0319166001600160a01b0383169081179091556040519081527ff0be4f1e87349231d80c36b33f9e8639658eeaf474014dee15a3e6a4d4414197906020015b60405180910390a150565b606080610dbb83611659565b91509150915091565b60006001600160a01b038216610df0576040516322718ad960e21b815260006004820152602401610a8a565b506001600160a01b031660009081526008602052604090205490565b610e1461199d565b610e1e6000611a8e565b565b6001600160a01b03811630145b949350505050565b60606006805461098890612eb2565b610a3f338383611ade565b610e5a848484610bbc565b610c4184848484611b7d565b610e6e61199d565b610a3f610e7b8284613027565b611c9f565b63ffffffff8416600090815260036020908152604080832061ffff87168452909152812080546060929190610eb490612eb2565b80601f0160208091040260200160405190810160405280929190818152602001828054610ee090612eb2565b8015610f2d5780601f10610f0257610100808354040283529160200191610f2d565b820191906000526020600020905b815481529060010190602001808311610f1057829003601f168201915b505050505090508051600003610f7d5783838080601f016020809104026020016040519081016040528093929190818152602001838380828437600092019190915250929450610e2d9350505050565b6000839003610f8d579050610e2d565b6002831061100b57610fd484848080601f016020809104026020016040519081016040528093929190818152602001838380828437600092019190915250611da692505050565b80610fe284600281886130fc565b604051602001610ff493929190613126565b604051602081830303815290604052915050610e2d565b8383604051639a6d49cd60e01b8152600401610a8a929190613177565b60005b8181101561113157368383838181106110465761104661318b565b905060200281019061105891906131a1565b905061108b61106a6020830183612d6d565b602083013563ffffffff919091166000908152600160205260409020541490565b6110955750611129565b3063d045a0dc60c08301358360a08101356110b46101008301836131c2565b6110c5610100890160e08a01612b3a565b6110d36101208a018a6131c2565b6040518963ffffffff1660e01b81526004016110f5979695949392919061321d565b6000604051808303818588803b15801561110e57600080fd5b505af1158015611122573d6000803e3d6000fd5b5050505050505b60010161102b565b50336001600160a01b0316638e9e70996040518163ffffffff1660e01b8152600401600060405180830381865afa158015611170573d6000803e3d6000fd5b505050506040513d6000823e601f3d908101601f1916820160405261119891908101906132a3565b604051638351eea760e01b8152600401610a8a91906126d7565b60408051808201909152600080825260208201526000806111d285611659565b90925090506111ef6111e76020870187612d6d565b838387611dd2565b95945050505050565b606061120382611418565b50600061120e611eaa565b9050600081511161122e5760405180602001604052806000815250611259565b8061123884611eb9565b604051602001611249929190613310565b6040516020818303038152906040525b9392505050565b61126861199d565b60405163ca5eb5e160e01b81526001600160a01b0382811660048301527f0000000000000000000000000000000000000000000000000000000000000000169063ca5eb5e190602401600060405180830381600087803b1580156112cb57600080fd5b505af11580156112df573d6000803e3d6000fd5b5050505050565b3330146113065760405163029a949d60e31b815260040160405180910390fd5b610afa87878787878787610aeb565b61131d61199d565b600280546001600160a01b0319166001600160a01b0383169081179091556040519081527fd48d879cef83a1c0bdda516f27b13ddb1b3f8bbac1c9e1511bb2a659c242776090602001610da4565b610a3f3383836115f9565b6001600160a01b039182166000908152600a6020908152604080832093909416825291909152205460ff1690565b6113ac61199d565b6001600160a01b0381166113d657604051631e4fbdf760e01b815260006004820152602401610a8a565b6113df81611a8e565b50565b60006020820180359060019083906113fa9086612d6d565b63ffffffff1681526020810191909152604001600020541492915050565b6000818152600760205260408120546001600160a01b03168061097357604051637e27328960e01b815260048101849052602401610a8a565b610c7e8383836001611f4b565b63ffffffff8116600090815260016020526040812054806109735760405163f6ff4fb760e01b815263ffffffff84166004820152602401610a8a565b60006114ac6114a98787612051565b90565b905060006114ba8787612069565b90506114d382826114ce60208d018d612d6d565b611a84565b604086111561159757600061150d6114f160608c0160408d0161333f565b6114fe60208d018d612d6d565b6115088b8b612086565b6120d1565b604051633e5ac80960e11b81529091506001600160a01b037f00000000000000000000000000000000000000000000000000000000000000001690637cb59012906115639086908d90600090879060040161335c565b600060405180830381600087803b15801561157d57600080fd5b505af1158015611591573d6000803e3d6000fd5b50505050505b6001600160a01b038216887f7883fa30ea56937810e36990b0bbb8d629d0cf59f68baf8431ff657cebe7eef56115d060208d018d612d6d565b6040805163ffffffff9092168252602082018690520160405180910390a3505050505050505050565b61160282610d47565b6001600160a01b0316836001600160a01b031614611650578261162483610d47565b604051634342715b60e11b81526001600160a01b03928316600482015291166024820152604401610a8a565b610c7e82612100565b606080602083013561167e57604051631e4ec46b60e01b815260040160405180910390fd5b60006116d46020850135604086013561169a60808801886131c2565b8080601f01602080910402602001604051908101604052809392919081815260200183838082843760009201919091525061213b92505050565b90935090506000816116e75760016116ea565b60025b905061170a6116fc6020870187612d6d565b826107ef60608901896131c2565b6004549093506001600160a01b031615611792576004805460405163043a78eb60e01b81526001600160a01b039091169163043a78eb9161174f918891889101612b8b565b602060405180830381865afa15801561176c573d6000803e3d6000fd5b505050506040513d601f19601f82011682018060405250810190611790919061338d565b505b5050915091565b6117a161260d565b60006117b084600001516121a0565b6020850151909150156117ca576117ca84602001516121c8565b7f00000000000000000000000000000000000000000000000000000000000000006001600160a01b0316632637a450826040518060a001604052808b63ffffffff16815260200161181a8c61145e565b81526020018a815260200189815260200160008960200151111515815250866040518463ffffffff1660e01b81526004016118569291906133aa565b60806040518083038185885af1158015611874573d6000803e3d6000fd5b50505050506040513d601f19601f820116820180604052508101906118999190613453565b979650505050505050565b6000828152600760205260408120546001600160a01b03908116908316156118d1576118d18184866122aa565b6001600160a01b0381161561190f576118ee600085600080611f4b565b6001600160a01b038116600090815260086020526040902080546000190190555b6001600160a01b0385161561193e576001600160a01b0385166000908152600860205260409020805460010190555b60008481526007602052604080822080546001600160a01b0319166001600160a01b0389811691821790925591518793918516917fddf252ad1be2c89b69c2b068fc378daa952ba7f163c4a11628f55a4df523b3ef91a4949350505050565b6000546001600160a01b03163314610e1e5760405163118cdaa760e01b8152336004820152602401610a8a565b63ffffffff8216600081815260016020908152604091829020849055815192835282018390527f238399d427b947898edb290f5ff0f9109849b1c3ba196a42e35f00c50a54b98b910160405180910390a15050565b6001600160a01b038216611a4957604051633250574960e11b815260006004820152602401610a8a565b6000611a57838360006118a4565b90506001600160a01b03811615610c7e576040516339e3563760e11b815260006004820152602401610a8a565b610c7e8383611a1f565b600080546001600160a01b038381166001600160a01b0319831681178455604051919092169283917f8be0079c531659141344cd1fd0a4f28419497f9722a3daafe3b4186f6b6457e09190a35050565b6001600160a01b038216611b1057604051630b61174360e31b81526001600160a01b0383166004820152602401610a8a565b6001600160a01b038381166000818152600a6020908152604080832094871680845294825291829020805460ff191686151590811790915591519182527f17307eab39ab6107e8899845ad3d59bd9653f200f220920489ca2b5937696c31910160405180910390a3505050565b6001600160a01b0383163b15610c4157604051630a85bd0160e11b81526001600160a01b0384169063150b7a0290611bbf90339088908790879060040161349d565b6020604051808303816000875af1925050508015611bfa575060408051601f3d908101601f19168201909252611bf7918101906134d0565b60015b611c63573d808015611c28576040519150601f19603f3d011682016040523d82523d6000602084013e611c2d565b606091505b508051600003611c5b57604051633250574960e11b81526001600160a01b0385166004820152602401610a8a565b805181602001fd5b6001600160e01b03198116630a85bd0160e11b146112df57604051633250574960e11b81526001600160a01b0385166004820152602401610a8a565b60005b8151811015611d7657611cd1828281518110611cc057611cc061318b565b602002602001015160400151611da6565b818181518110611ce357611ce361318b565b60200260200101516040015160036000848481518110611d0557611d0561318b565b60200260200101516000015163ffffffff1663ffffffff1681526020019081526020016000206000848481518110611d3f57611d3f61318b565b60200260200101516020015161ffff1661ffff1681526020019081526020016000209081611d6d9190612f68565b50600101611ca2565b507fbe4864a8e820971c0247f5992e2da559595f7bf076a21cb5928d443d2a13b67481604051610da491906134ed565b600281015161ffff8116600314610a3f5781604051639a6d49cd60e01b8152600401610a8a91906126d7565b60408051808201909152600080825260208201527f00000000000000000000000000000000000000000000000000000000000000006001600160a01b031663ddc28c586040518060a001604052808863ffffffff168152602001611e358961145e565b8152602001878152602001868152602001851515815250306040518363ffffffff1660e01b8152600401611e6a9291906133aa565b6040805180830381865afa158015611e86573d6000803e3d6000fd5b505050506040513d601f19601f820116820180604052508101906111ef9190613578565b6060600b805461098890612eb2565b60606000611ec68361230e565b60010190506000816001600160401b03811115611ee557611ee56129fd565b6040519080825280601f01601f191660200182016040528015611f0f576020820181803683370190505b5090508181016020015b600019016f181899199a1a9b1b9c1cb0b131b232b360811b600a86061a8153600a8504945084611f1957509392505050565b8080611f5f57506001600160a01b03821615155b15612021576000611f6f84611418565b90506001600160a01b03831615801590611f9b5750826001600160a01b0316816001600160a01b031614155b8015611fae5750611fac8184611376565b155b15611fd75760405163a9fbf51f60e01b81526001600160a01b0384166004820152602401610a8a565b811561201f5783856001600160a01b0316826001600160a01b03167f8c5be1e5ebec7d5bd14f71427d1e84f3dd0314c0f7b2291e5b200ac8c7c3b92560405160405180910390a45b505b5050600090815260096020526040902080546001600160a01b0319166001600160a01b0392909216919091179055565b600061206060208284866130fc565b61125991613594565b60006120796040602084866130fc565b81019061125991906126ea565b606061209582604081866130fc565b8080601f016020809104026020016040519081016040528093929190818152602001838380828437600092019190915250929695505050505050565b60608383836040516020016120e8939291906135b2565b60405160208183030381529060405290509392505050565b600061210f60008360006118a4565b90506001600160a01b038116610a3f57604051637e27328960e01b815260048101839052602401610a8a565b805160609015158061216f576040805160208101879052908101859052606001604051602081830303815290604052612196565b8484338560405160200161218694939291906135fc565b6040516020818303038152906040525b9150935093915050565b60008134146121c4576040516304fb820960e51b8152346004820152602401610a8a565b5090565b60007f00000000000000000000000000000000000000000000000000000000000000006001600160a01b031663e4fe1d946040518163ffffffff1660e01b8152600401602060405180830381865afa158015612228573d6000803e3d6000fd5b505050506040513d601f19601f8201168201806040525081019061224c9190613630565b90506001600160a01b038116612275576040516329b99a9560e11b815260040160405180910390fd5b610a3f6001600160a01b038216337f0000000000000000000000000000000000000000000000000000000000000000856123e6565b6122b5838383612440565b610c7e576001600160a01b0383166122e357604051637e27328960e01b815260048101829052602401610a8a565b60405163177e802f60e01b81526001600160a01b038316600482015260248101829052604401610a8a565b60008072184f03e93ff9f4daa797ed6e38ed64bf6a1f0160401b831061234d5772184f03e93ff9f4daa797ed6e38ed64bf6a1f0160401b830492506040015b6d04ee2d6d415b85acef81000000008310612379576d04ee2d6d415b85acef8100000000830492506020015b662386f26fc10000831061239757662386f26fc10000830492506010015b6305f5e10083106123af576305f5e100830492506008015b61271083106123c357612710830492506004015b606483106123d5576064830492506002015b600a83106109735760010192915050565b604080516001600160a01b0385811660248301528416604482015260648082018490528251808303909101815260849091019091526020810180516001600160e01b03166323b872dd60e01b179052610c419085906124a3565b60006001600160a01b03831615801590610e2d5750826001600160a01b0316846001600160a01b0316148061247a575061247a8484611376565b80610e2d5750506000908152600960205260409020546001600160a01b03908116911614919050565b60006124b86001600160a01b03841683612506565b905080516000141580156124dd5750808060200190518101906124db919061338d565b155b15610c7e57604051635274afe760e01b81526001600160a01b0384166004820152602401610a8a565b60606112598383600084600080856001600160a01b0316848660405161252c919061364d565b60006040518083038185875af1925050503d8060008114612569576040519150601f19603f3d011682016040523d82523d6000602084013e61256e565b606091505b509150915061257e868383612588565b9695505050505050565b60608261259d57612598826125e4565b611259565b81511580156125b457506001600160a01b0384163b155b156125dd57604051639996b31560e01b81526001600160a01b0385166004820152602401610a8a565b5080611259565b8051156125f45780518082602001fd5b604051630a12f52160e11b815260040160405180910390fd5b60405180606001604052806000801916815260200160006001600160401b0316815260200161264f604051806040016040528060008152602001600081525090565b905290565b6001600160e01b0319811681146113df57600080fd5b60006020828403121561267c57600080fd5b813561125981612654565b60005b838110156126a257818101518382015260200161268a565b50506000910152565b600081518084526126c3816020860160208601612687565b601f01601f19169290920160200192915050565b60208152600061125960208301846126ab565b6000602082840312156126fc57600080fd5b5035919050565b6001600160a01b03811681146113df57600080fd5b6000806040838503121561272b57600080fd5b823561273681612703565b946020939093013593505050565b60006060828403121561275657600080fd5b50919050565b60008083601f84011261276e57600080fd5b5081356001600160401b0381111561278557600080fd5b60208301915083602082850101111561279d57600080fd5b9250929050565b600080600080600080600060e0888a0312156127bf57600080fd5b6127c98989612744565b96506060880135955060808801356001600160401b03808211156127ec57600080fd5b6127f88b838c0161275c565b909750955060a08a0135915061280d82612703565b90935060c0890135908082111561282357600080fd5b506128308a828b0161275c565b989b979a50959850939692959293505050565b600060c0828403121561275657600080fd5b6000806000838503608081121561286b57600080fd5b84356001600160401b0381111561288157600080fd5b61288d87828801612843565b9450506040601f19820112156128a257600080fd5b5060208401915060608401356128b781612703565b809150509250925092565b6000608082019050825182526001600160401b03602084015116602083015260408301516128fd604084018280518252602090810151910152565b5092915050565b60008060006060848603121561291957600080fd5b833561292481612703565b9250602084013561293481612703565b929592945050506040919091013590565b803563ffffffff8116811461295957600080fd5b919050565b6000806040838503121561297157600080fd5b61273683612945565b60008060006060848603121561298f57600080fd5b833561299a81612703565b9250602084013591506129af60408501612945565b90509250925092565b803561ffff8116811461295957600080fd5b600080604083850312156129dd57600080fd5b6129e683612945565b91506129f4602084016129b8565b90509250929050565b634e487b7160e01b600052604160045260246000fd5b604080519081016001600160401b0381118282101715612a3557612a356129fd565b60405290565b604051606081016001600160401b0381118282101715612a3557612a356129fd565b604051601f8201601f191681016001600160401b0381118282101715612a8557612a856129fd565b604052919050565b60006001600160401b03821115612aa657612aa66129fd565b50601f01601f191660200190565b6000612ac7612ac284612a8d565b612a5d565b9050828152838383011115612adb57600080fd5b828260208301376000602084830101529392505050565b600060208284031215612b0457600080fd5b81356001600160401b03811115612b1a57600080fd5b8201601f81018413612b2b57600080fd5b610e2d84823560208401612ab4565b600060208284031215612b4c57600080fd5b813561125981612703565b600060208284031215612b6957600080fd5b81356001600160401b03811115612b7f57600080fd5b610e2d84828501612843565b604081526000612b9e60408301856126ab565b82810360208401526111ef81856126ab565b60008060008060a08587031215612bc657600080fd5b612bd08686612744565b935060608501356001600160401b03811115612beb57600080fd5b612bf78782880161275c565b9094509250506080850135612c0b81612703565b939692955090935050565b80151581146113df57600080fd5b60008060408385031215612c3757600080fd5b8235612c4281612703565b91506020830135612c5281612c16565b809150509250929050565b600082601f830112612c6e57600080fd5b61125983833560208501612ab4565b60008060008060808587031215612c9357600080fd5b8435612c9e81612703565b93506020850135612cae81612703565b92506040850135915060608501356001600160401b03811115612cd057600080fd5b612cdc87828801612c5d565b91505092959194509250565b60008083601f840112612cfa57600080fd5b5081356001600160401b03811115612d1157600080fd5b6020830191508360208260051b850101111561279d57600080fd5b60008060208385031215612d3f57600080fd5b82356001600160401b03811115612d5557600080fd5b612d6185828601612ce8565b90969095509350505050565b600060208284031215612d7f57600080fd5b61125982612945565b60008060008060608587031215612d9e57600080fd5b612da785612945565b9350612db5602086016129b8565b925060408501356001600160401b03811115612dd057600080fd5b612ddc8782880161275c565b95989497509550505050565b60008060408385031215612dfb57600080fd5b82356001600160401b03811115612e1157600080fd5b612e1d85828601612843565b9250506020830135612c5281612c16565b815181526020808301519082015260408101610973565b60008060408385031215612e5857600080fd5b823591506129f460208401612945565b60008060408385031215612e7b57600080fd5b8235612e8681612703565b91506020830135612c5281612703565b600060608284031215612ea857600080fd5b6112598383612744565b600181811c90821680612ec657607f821691505b60208210810361275657634e487b7160e01b600052602260045260246000fd5b600060408284031215612ef857600080fd5b612f00612a13565b82358152602083013560208201528091505092915050565b601f821115610c7e576000816000526020600020601f850160051c81016020861015612f415750805b601f850160051c820191505b81811015612f6057828155600101612f4d565b505050505050565b81516001600160401b03811115612f8157612f816129fd565b612f9581612f8f8454612eb2565b84612f18565b602080601f831160018114612fca5760008415612fb25750858301515b600019600386901b1c1916600185901b178555612f60565b600085815260208120601f198616915b82811015612ff957888601518255948401946001909101908401612fda565b50858210156130175787850151600019600388901b60f8161c191681555b5050505050600190811b01905550565b60006001600160401b0380841115613041576130416129fd565b8360051b6020613052818301612a5d565b86815291850191818101903684111561306a57600080fd5b865b848110156130f0578035868111156130845760008081fd5b880160603682900312156130985760008081fd5b6130a0612a3b565b6130a982612945565b81526130b68683016129b8565b86820152604080830135898111156130ce5760008081fd5b6130da36828601612c5d565b918301919091525084525091830191830161306c565b50979650505050505050565b6000808585111561310c57600080fd5b8386111561311957600080fd5b5050820193919092039150565b60008451613138818460208901612687565b8201838582376000930192835250909392505050565b81835281816020850137506000828201602090810191909152601f909101601f19169091010190565b602081526000610e2d60208301848661314e565b634e487b7160e01b600052603260045260246000fd5b6000823561013e198336030181126131b857600080fd5b9190910192915050565b6000808335601e198436030181126131d957600080fd5b8301803591506001600160401b038211156131f357600080fd5b60200191503681900382131561279d57600080fd5b6001600160401b03811681146113df57600080fd5b63ffffffff61322b89612945565b168152602088013560208201526000604089013561324881613208565b6001600160401b03811660408401525087606083015260e0608083015261327360e08301878961314e565b6001600160a01b03861660a084015282810360c084015261329581858761314e565b9a9950505050505050505050565b6000602082840312156132b557600080fd5b81516001600160401b038111156132cb57600080fd5b8201601f810184136132dc57600080fd5b80516132ea612ac282612a8d565b8181528560208385010111156132ff57600080fd5b6111ef826020830160208601612687565b60008351613322818460208801612687565b835190830190613336818360208801612687565b01949350505050565b60006020828403121561335157600080fd5b813561125981613208565b60018060a01b038516815283602082015261ffff8316604082015260806060820152600061257e60808301846126ab565b60006020828403121561339f57600080fd5b815161125981612c16565b6040815263ffffffff8351166040820152602083015160608201526000604084015160a060808401526133e060e08401826126ab565b90506060850151603f198483030160a08501526133fd82826126ab565b60809690960151151560c08501525050506001600160a01b039190911660209091015290565b60006040828403121561343557600080fd5b61343d612a13565b9050815181526020820151602082015292915050565b60006080828403121561346557600080fd5b61346d612a3b565b82518152602083015161347f81613208565b60208201526134918460408501613423565b60408201529392505050565b6001600160a01b038581168252841660208201526040810183905260806060820181905260009061257e908301846126ab565b6000602082840312156134e257600080fd5b815161125981612654565b600060208083018184528085518083526040925060408601915060408160051b87010184880160005b8381101561356a57888303603f190185528151805163ffffffff1684528781015161ffff16888501528601516060878501819052613556818601836126ab565b968901969450505090860190600101613516565b509098975050505050505050565b60006040828403121561358a57600080fd5b6112598383613423565b8035602083101561097357600019602084900360031b1b1692915050565b60c084901b6001600160c01b031916815260e083901b6001600160e01b031916600882015281516000906135ed81600c850160208701612687565b91909101600c01949350505050565b84815283602082015282604082015260008251613620816060850160208701612687565b9190910160600195945050505050565b60006020828403121561364257600080fd5b815161125981612703565b600082516131b881846020870161268756fea26469706673582212201bfbfe7fe1d367f8a5e5b39bec37f154120d2c6b8b8d08a445e089616048adbc64736f6c63430008160033",
    "linkReferences": {}
  },
  "methodIdentifiers": {
    "SEND()": "1f5e1334",
    "SEND_AND_COMPOSE()": "b21a33e4",
    "allowInitializePath((uint32,bytes32,uint64))": "ff7bd03d",
    "approvalRequired()": "9f68b964",
    "approve(address,uint256)": "095ea7b3",
    "balanceOf(address)": "70a08231",
    "buildMsgAndOptions((uint32,bytes32,uint256,bytes,bytes,bytes))": "7048de9a",
    "combineOptions(uint32,uint16,bytes)": "bc70b354",
    "credit(address,uint256,uint32)": "4dba701b",
    "debit(uint256,uint32)": "dcdfd911",
    "endpoint()": "5e280f11",
    "enforcedOptions(uint32,uint16)": "5535d461",
    "exists(uint256)": "4f558e79",
    "getApproved(uint256)": "081812fc",
    "isApprovedForAll(address,address)": "e985e9c5",
    "isComposeMsgSender((uint32,bytes32,uint64),bytes,address)": "82413eac",
    "isPeer(uint32,bytes32)": "5a0dfe4d",
    "lzReceive((uint32,bytes32,uint64),bytes32,bytes,address,bytes)": "13137d65",
    "lzReceiveAndRevert(((uint32,bytes32,uint64),uint32,address,bytes32,uint256,address,bytes,bytes)[])": "bd815db0",
    "lzReceiveSimulate((uint32,bytes32,uint64),bytes32,bytes,address,bytes)": "d045a0dc",
    "mint(address,uint256)": "40c10f19",
    "msgInspector()": "111ecdad",
    "name()": "06fdde03",
    "nextNonce(uint32,bytes32)": "7d25a05e",
    "oApp()": "52ae2879",
    "oAppVersion()": "17442b70",
    "onftVersion()": "a72f5dd8",
    "owner()": "8da5cb5b",
    "ownerOf(uint256)": "6352211e",
    "peers(uint32)": "bb0b6a53",
    "preCrime()": "b731ea0a",
    "quoteSend((uint32,bytes32,uint256,bytes,bytes,bytes),bool)": "c6414e7b",
    "renounceOwnership()": "715018a6",
    "safeTransferFrom(address,address,uint256)": "42842e0e",
    "safeTransferFrom(address,address,uint256,bytes)": "b88d4fde",
    "send((uint32,bytes32,uint256,bytes,bytes,bytes),(uint256,uint256),address)": "21eb730b",
    "setApprovalForAll(address,bool)": "a22cb465",
    "setBaseURI(string)": "55f804b3",
    "setDelegate(address)": "ca5eb5e1",
    "setEnforcedOptions((uint32,uint16,bytes)[])": "b98bd070",
    "setMsgInspector(address)": "6fc1b31e",
    "setPeer(uint32,bytes32)": "3400288b",
    "setPreCrime(address)": "d4243885",
    "supportsInterface(bytes4)": "01ffc9a7",
    "symbol()": "95d89b41",
    "token()": "fc0c546a",
    "tokenURI(uint256)": "c87b56dd",
    "transferFrom(address,address,uint256)": "23b872dd",
    "transferOwnership(address)": "f2fde38b"
  },
  "id": 129
}