{
  "abi": [
    {
      "type": "function",
      "name": "DEFAULT_ADMIN_ROLE",
      "inputs": [],
      "outputs": [
        {
          "name": "",
          "type": "bytes32",
          "internalType": "bytes32"
        }
      ],
      "stateMutability": "view"
    },
    {
      "type": "function",
      "name": "allowlistSize",
      "inputs": [],
      "outputs": [
        {
          "name": "",
          "type": "uint64",
          "internalType": "uint64"
        }
      ],
      "stateMutability": "view"
    },
    {
      "type": "function",
      "name": "assignJob",
      "inputs": [
        {
          "name": "_dstEid",
          "type": "uint32",
          "internalType": "uint32"
        },
        {
          "name": "_sender",
          "type": "address",
          "internalType": "address"
        },
        {
          "name": "_calldataSize",
          "type": "uint256",
          "internalType": "uint256"
        },
        {
          "name": "_options",
          "type": "bytes",
          "internalType": "bytes"
        }
      ],
      "outputs": [
        {
          "name": "fee",
          "type": "uint256",
          "internalType": "uint256"
        }
      ],
      "stateMutability": "nonpayable"
    },
    {
      "type": "function",
      "name": "compose302",
      "inputs": [
        {
          "name": "_from",
          "type": "address",
          "internalType": "address"
        },
        {
          "name": "_to",
          "type": "address",
          "internalType": "address"
        },
        {
          "name": "_guid",
          "type": "bytes32",
          "internalType": "bytes32"
        },
        {
          "name": "_index",
          "type": "uint16",
          "internalType": "uint16"
        },
        {
          "name": "_message",
          "type": "bytes",
          "internalType": "bytes"
        },
        {
          "name": "_extraData",
          "type": "bytes",
          "internalType": "bytes"
        },
        {
          "name": "_gasLimit",
          "type": "uint256",
          "internalType": "uint256"
        }
      ],
      "outputs": [],
      "stateMutability": "payable"
    },
    {
      "type": "function",
      "name": "defaultMultiplierBps",
      "inputs": [],
      "outputs": [
        {
          "name": "",
          "type": "uint16",
          "internalType": "uint16"
        }
      ],
      "stateMutability": "view"
    },
    {
      "type": "function",
      "name": "dstConfig",
      "inputs": [
        {
          "name": "dstEid",
          "type": "uint32",
          "internalType": "uint32"
        }
      ],
      "outputs": [
        {
          "name": "lzReceiveBaseGas",
          "type": "uint64",
          "internalType": "uint64"
        },
        {
          "name": "multiplierBps",
          "type": "uint16",
          "internalType": "uint16"
        },
        {
          "name": "floorMarginUSD",
          "type": "uint128",
          "internalType": "uint128"
        },
        {
          "name": "nativeCap",
          "type": "uint128",
          "internalType": "uint128"
        },
        {
          "name": "lzComposeBaseGas",
          "type": "uint64",
          "internalType": "uint64"
        }
      ],
      "stateMutability": "view"
    },
    {
      "type": "function",
      "name": "endpoint",
      "inputs": [],
      "outputs": [
        {
          "name": "",
          "type": "address",
          "internalType": "address"
        }
      ],
      "stateMutability": "view"
    },
    {
      "type": "function",
      "name": "execute301",
      "inputs": [
        {
          "name": "_packet",
          "type": "bytes",
          "internalType": "bytes"
        },
        {
          "name": "_gasLimit",
          "type": "uint256",
          "internalType": "uint256"
        }
      ],
      "outputs": [],
      "stateMutability": "nonpayable"
    },
    {
      "type": "function",
      "name": "execute302",
      "inputs": [
        {
          "name": "_executionParams",
          "type": "tuple",
          "internalType": "struct IExecutor.ExecutionParams",
          "components": [
            {
              "name": "receiver",
              "type": "address",
              "internalType": "address"
            },
            {
              "name": "origin",
              "type": "tuple",
              "internalType": "struct Origin",
              "components": [
                {
                  "name": "srcEid",
                  "type": "uint32",
                  "internalType": "uint32"
                },
                {
                  "name": "sender",
                  "type": "bytes32",
                  "internalType": "bytes32"
                },
                {
                  "name": "nonce",
                  "type": "uint64",
                  "internalType": "uint64"
                }
              ]
            },
            {
              "name": "guid",
              "type": "bytes32",
              "internalType": "bytes32"
            },
            {
              "name": "message",
              "type": "bytes",
              "internalType": "bytes"
            },
            {
              "name": "extraData",
              "type": "bytes",
              "internalType": "bytes"
            },
            {
              "name": "gasLimit",
              "type": "uint256",
              "internalType": "uint256"
            }
          ]
        }
      ],
      "outputs": [],
      "stateMutability": "payable"
    },
    {
      "type": "function",
      "name": "getFee",
      "inputs": [
        {
          "name": "_dstEid",
          "type": "uint32",
          "internalType": "uint32"
        },
        {
          "name": "_sender",
          "type": "address",
          "internalType": "address"
        },
        {
          "name": "_calldataSize",
          "type": "uint256",
          "internalType": "uint256"
        },
        {
          "name": "_options",
          "type": "bytes",
          "internalType": "bytes"
        }
      ],
      "outputs": [
        {
          "name": "fee",
          "type": "uint256",
          "internalType": "uint256"
        }
      ],
      "stateMutability": "view"
    },
    {
      "type": "function",
      "name": "getRoleAdmin",
      "inputs": [
        {
          "name": "role",
          "type": "bytes32",
          "internalType": "bytes32"
        }
      ],
      "outputs": [
        {
          "name": "",
          "type": "bytes32",
          "internalType": "bytes32"
        }
      ],
      "stateMutability": "view"
    },
    {
      "type": "function",
      "name": "getSupportedOptionTypes",
      "inputs": [
        {
          "name": "_eid",
          "type": "uint32",
          "internalType": "uint32"
        }
      ],
      "outputs": [
        {
          "name": "",
          "type": "uint8[]",
          "internalType": "uint8[]"
        }
      ],
      "stateMutability": "view"
    },
    {
      "type": "function",
      "name": "grantRole",
      "inputs": [
        {
          "name": "role",
          "type": "bytes32",
          "internalType": "bytes32"
        },
        {
          "name": "account",
          "type": "address",
          "internalType": "address"
        }
      ],
      "outputs": [],
      "stateMutability": "nonpayable"
    },
    {
      "type": "function",
      "name": "hasAcl",
      "inputs": [
        {
          "name": "_sender",
          "type": "address",
          "internalType": "address"
        }
      ],
      "outputs": [
        {
          "name": "",
          "type": "bool",
          "internalType": "bool"
        }
      ],
      "stateMutability": "view"
    },
    {
      "type": "function",
      "name": "hasRole",
      "inputs": [
        {
          "name": "role",
          "type": "bytes32",
          "internalType": "bytes32"
        },
        {
          "name": "account",
          "type": "address",
          "internalType": "address"
        }
      ],
      "outputs": [
        {
          "name": "",
          "type": "bool",
          "internalType": "bool"
        }
      ],
      "stateMutability": "view"
    },
    {
      "type": "function",
      "name": "initialize",
      "inputs": [
        {
          "name": "_endpoint",
          "type": "address",
          "internalType": "address"
        },
        {
          "name": "_receiveUln301",
          "type": "address",
          "internalType": "address"
        },
        {
          "name": "_messageLibs",
          "type": "address[]",
          "internalType": "address[]"
        },
        {
          "name": "_priceFeed",
          "type": "address",
          "internalType": "address"
        },
        {
          "name": "_roleAdmin",
          "type": "address",
          "internalType": "address"
        },
        {
          "name": "_admins",
          "type": "address[]",
          "internalType": "address[]"
        }
      ],
      "outputs": [],
      "stateMutability": "nonpayable"
    },
    {
      "type": "function",
      "name": "localEid",
      "inputs": [],
      "outputs": [
        {
          "name": "",
          "type": "uint32",
          "internalType": "uint32"
        }
      ],
      "stateMutability": "view"
    },
    {
      "type": "function",
      "name": "nativeDrop",
      "inputs": [
        {
          "name": "_origin",
          "type": "tuple",
          "internalType": "struct Origin",
          "components": [
            {
              "name": "srcEid",
              "type": "uint32",
              "internalType": "uint32"
            },
            {
              "name": "sender",
              "type": "bytes32",
              "internalType": "bytes32"
            },
            {
              "name": "nonce",
              "type": "uint64",
              "internalType": "uint64"
            }
          ]
        },
        {
          "name": "_dstEid",
          "type": "uint32",
          "internalType": "uint32"
        },
        {
          "name": "_oapp",
          "type": "address",
          "internalType": "address"
        },
        {
          "name": "_nativeDropParams",
          "type": "tuple[]",
          "internalType": "struct IExecutor.NativeDropParams[]",
          "components": [
            {
              "name": "receiver",
              "type": "address",
              "internalType": "address"
            },
            {
              "name": "amount",
              "type": "uint256",
              "internalType": "uint256"
            }
          ]
        },
        {
          "name": "_nativeDropGasLimit",
          "type": "uint256",
          "internalType": "uint256"
        }
      ],
      "outputs": [],
      "stateMutability": "payable"
    },
    {
      "type": "function",
      "name": "nativeDropAndExecute301",
      "inputs": [
        {
          "name": "_origin",
          "type": "tuple",
          "internalType": "struct Origin",
          "components": [
            {
              "name": "srcEid",
              "type": "uint32",
              "internalType": "uint32"
            },
            {
              "name": "sender",
              "type": "bytes32",
              "internalType": "bytes32"
            },
            {
              "name": "nonce",
              "type": "uint64",
              "internalType": "uint64"
            }
          ]
        },
        {
          "name": "_nativeDropParams",
          "type": "tuple[]",
          "internalType": "struct IExecutor.NativeDropParams[]",
          "components": [
            {
              "name": "receiver",
              "type": "address",
              "internalType": "address"
            },
            {
              "name": "amount",
              "type": "uint256",
              "internalType": "uint256"
            }
          ]
        },
        {
          "name": "_nativeDropGasLimit",
          "type": "uint256",
          "internalType": "uint256"
        },
        {
          "name": "_packet",
          "type": "bytes",
          "internalType": "bytes"
        },
        {
          "name": "_gasLimit",
          "type": "uint256",
          "internalType": "uint256"
        }
      ],
      "outputs": [],
      "stateMutability": "payable"
    },
    {
      "type": "function",
      "name": "nativeDropAndExecute302",
      "inputs": [
        {
          "name": "_nativeDropParams",
          "type": "tuple[]",
          "internalType": "struct IExecutor.NativeDropParams[]",
          "components": [
            {
              "name": "receiver",
              "type": "address",
              "internalType": "address"
            },
            {
              "name": "amount",
              "type": "uint256",
              "internalType": "uint256"
            }
          ]
        },
        {
          "name": "_nativeDropGasLimit",
          "type": "uint256",
          "internalType": "uint256"
        },
        {
          "name": "_executionParams",
          "type": "tuple",
          "internalType": "struct IExecutor.ExecutionParams",
          "components": [
            {
              "name": "receiver",
              "type": "address",
              "internalType": "address"
            },
            {
              "name": "origin",
              "type": "tuple",
              "internalType": "struct Origin",
              "components": [
                {
                  "name": "srcEid",
                  "type": "uint32",
                  "internalType": "uint32"
                },
                {
                  "name": "sender",
                  "type": "bytes32",
                  "internalType": "bytes32"
                },
                {
                  "name": "nonce",
                  "type": "uint64",
                  "internalType": "uint64"
                }
              ]
            },
            {
              "name": "guid",
              "type": "bytes32",
              "internalType": "bytes32"
            },
            {
              "name": "message",
              "type": "bytes",
              "internalType": "bytes"
            },
            {
              "name": "extraData",
              "type": "bytes",
              "internalType": "bytes"
            },
            {
              "name": "gasLimit",
              "type": "uint256",
              "internalType": "uint256"
            }
          ]
        }
      ],
      "outputs": [],
      "stateMutability": "payable"
    },
    {
      "type": "function",
      "name": "onUpgrade",
      "inputs": [
        {
          "name": "_receiveUln301",
          "type": "address",
          "internalType": "address"
        }
      ],
      "outputs": [],
      "stateMutability": "nonpayable"
    },
    {
      "type": "function",
      "name": "paused",
      "inputs": [],
      "outputs": [
        {
          "name": "",
          "type": "bool",
          "internalType": "bool"
        }
      ],
      "stateMutability": "view"
    },
    {
      "type": "function",
      "name": "priceFeed",
      "inputs": [],
      "outputs": [
        {
          "name": "",
          "type": "address",
          "internalType": "address"
        }
      ],
      "stateMutability": "view"
    },
    {
      "type": "function",
      "name": "receiveUln301",
      "inputs": [],
      "outputs": [
        {
          "name": "",
          "type": "address",
          "internalType": "address"
        }
      ],
      "stateMutability": "view"
    },
    {
      "type": "function",
      "name": "renounceRole",
      "inputs": [
        {
          "name": "",
          "type": "bytes32",
          "internalType": "bytes32"
        },
        {
          "name": "",
          "type": "address",
          "internalType": "address"
        }
      ],
      "outputs": [],
      "stateMutability": "pure"
    },
    {
      "type": "function",
      "name": "revokeRole",
      "inputs": [
        {
          "name": "role",
          "type": "bytes32",
          "internalType": "bytes32"
        },
        {
          "name": "account",
          "type": "address",
          "internalType": "address"
        }
      ],
      "outputs": [],
      "stateMutability": "nonpayable"
    },
    {
      "type": "function",
      "name": "setDefaultMultiplierBps",
      "inputs": [
        {
          "name": "_multiplierBps",
          "type": "uint16",
          "internalType": "uint16"
        }
      ],
      "outputs": [],
      "stateMutability": "nonpayable"
    },
    {
      "type": "function",
      "name": "setDstConfig",
      "inputs": [
        {
          "name": "_params",
          "type": "tuple[]",
          "internalType": "struct IExecutor.DstConfigParam[]",
          "components": [
            {
              "name": "dstEid",
              "type": "uint32",
              "internalType": "uint32"
            },
            {
              "name": "lzReceiveBaseGas",
              "type": "uint64",
              "internalType": "uint64"
            },
            {
              "name": "lzComposeBaseGas",
              "type": "uint64",
              "internalType": "uint64"
            },
            {
              "name": "multiplierBps",
              "type": "uint16",
              "internalType": "uint16"
            },
            {
              "name": "floorMarginUSD",
              "type": "uint128",
              "internalType": "uint128"
            },
            {
              "name": "nativeCap",
              "type": "uint128",
              "internalType": "uint128"
            }
          ]
        }
      ],
      "outputs": [],
      "stateMutability": "nonpayable"
    },
    {
      "type": "function",
      "name": "setPaused",
      "inputs": [
        {
          "name": "_paused",
          "type": "bool",
          "internalType": "bool"
        }
      ],
      "outputs": [],
      "stateMutability": "nonpayable"
    },
    {
      "type": "function",
      "name": "setPriceFeed",
      "inputs": [
        {
          "name": "_priceFeed",
          "type": "address",
          "internalType": "address"
        }
      ],
      "outputs": [],
      "stateMutability": "nonpayable"
    },
    {
      "type": "function",
      "name": "setSupportedOptionTypes",
      "inputs": [
        {
          "name": "_eid",
          "type": "uint32",
          "internalType": "uint32"
        },
        {
          "name": "_optionTypes",
          "type": "uint8[]",
          "internalType": "uint8[]"
        }
      ],
      "outputs": [],
      "stateMutability": "nonpayable"
    },
    {
      "type": "function",
      "name": "setWorkerFeeLib",
      "inputs": [
        {
          "name": "_workerFeeLib",
          "type": "address",
          "internalType": "address"
        }
      ],
      "outputs": [],
      "stateMutability": "nonpayable"
    },
    {
      "type": "function",
      "name": "supportsInterface",
      "inputs": [
        {
          "name": "interfaceId",
          "type": "bytes4",
          "internalType": "bytes4"
        }
      ],
      "outputs": [
        {
          "name": "",
          "type": "bool",
          "internalType": "bool"
        }
      ],
      "stateMutability": "view"
    },
    {
      "type": "function",
      "name": "withdrawFee",
      "inputs": [
        {
          "name": "_lib",
          "type": "address",
          "internalType": "address"
        },
        {
          "name": "_to",
          "type": "address",
          "internalType": "address"
        },
        {
          "name": "_amount",
          "type": "uint256",
          "internalType": "uint256"
        }
      ],
      "outputs": [],
      "stateMutability": "nonpayable"
    },
    {
      "type": "function",
      "name": "withdrawToken",
      "inputs": [
        {
          "name": "_token",
          "type": "address",
          "internalType": "address"
        },
        {
          "name": "_to",
          "type": "address",
          "internalType": "address"
        },
        {
          "name": "_amount",
          "type": "uint256",
          "internalType": "uint256"
        }
      ],
      "outputs": [],
      "stateMutability": "nonpayable"
    },
    {
      "type": "function",
      "name": "workerFeeLib",
      "inputs": [],
      "outputs": [
        {
          "name": "",
          "type": "address",
          "internalType": "address"
        }
      ],
      "stateMutability": "view"
    },
    {
      "type": "event",
      "name": "DstConfigSet",
      "inputs": [
        {
          "name": "params",
          "type": "tuple[]",
          "indexed": false,
          "internalType": "struct IExecutor.DstConfigParam[]",
          "components": [
            {
              "name": "dstEid",
              "type": "uint32",
              "internalType": "uint32"
            },
            {
              "name": "lzReceiveBaseGas",
              "type": "uint64",
              "internalType": "uint64"
            },
            {
              "name": "lzComposeBaseGas",
              "type": "uint64",
              "internalType": "uint64"
            },
            {
              "name": "multiplierBps",
              "type": "uint16",
              "internalType": "uint16"
            },
            {
              "name": "floorMarginUSD",
              "type": "uint128",
              "internalType": "uint128"
            },
            {
              "name": "nativeCap",
              "type": "uint128",
              "internalType": "uint128"
            }
          ]
        }
      ],
      "anonymous": false
    },
    {
      "type": "event",
      "name": "Initialized",
      "inputs": [
        {
          "name": "version",
          "type": "uint8",
          "indexed": false,
          "internalType": "uint8"
        }
      ],
      "anonymous": false
    },
    {
      "type": "event",
      "name": "NativeDropApplied",
      "inputs": [
        {
          "name": "origin",
          "type": "tuple",
          "indexed": false,
          "internalType": "struct Origin",
          "components": [
            {
              "name": "srcEid",
              "type": "uint32",
              "internalType": "uint32"
            },
            {
              "name": "sender",
              "type": "bytes32",
              "internalType": "bytes32"
            },
            {
              "name": "nonce",
              "type": "uint64",
              "internalType": "uint64"
            }
          ]
        },
        {
          "name": "dstEid",
          "type": "uint32",
          "indexed": false,
          "internalType": "uint32"
        },
        {
          "name": "oapp",
          "type": "address",
          "indexed": false,
          "internalType": "address"
        },
        {
          "name": "params",
          "type": "tuple[]",
          "indexed": false,
          "internalType": "struct IExecutor.NativeDropParams[]",
          "components": [
            {
              "name": "receiver",
              "type": "address",
              "internalType": "address"
            },
            {
              "name": "amount",
              "type": "uint256",
              "internalType": "uint256"
            }
          ]
        },
        {
          "name": "success",
          "type": "bool[]",
          "indexed": false,
          "internalType": "bool[]"
        }
      ],
      "anonymous": false
    },
    {
      "type": "event",
      "name": "Paused",
      "inputs": [
        {
          "name": "account",
          "type": "address",
          "indexed": false,
          "internalType": "address"
        }
      ],
      "anonymous": false
    },
    {
      "type": "event",
      "name": "RoleAdminChanged",
      "inputs": [
        {
          "name": "role",
          "type": "bytes32",
          "indexed": true,
          "internalType": "bytes32"
        },
        {
          "name": "previousAdminRole",
          "type": "bytes32",
          "indexed": true,
          "internalType": "bytes32"
        },
        {
          "name": "newAdminRole",
          "type": "bytes32",
          "indexed": true,
          "internalType": "bytes32"
        }
      ],
      "anonymous": false
    },
    {
      "type": "event",
      "name": "RoleGranted",
      "inputs": [
        {
          "name": "role",
          "type": "bytes32",
          "indexed": true,
          "internalType": "bytes32"
        },
        {
          "name": "account",
          "type": "address",
          "indexed": true,
          "internalType": "address"
        },
        {
          "name": "sender",
          "type": "address",
          "indexed": true,
          "internalType": "address"
        }
      ],
      "anonymous": false
    },
    {
      "type": "event",
      "name": "RoleRevoked",
      "inputs": [
        {
          "name": "role",
          "type": "bytes32",
          "indexed": true,
          "internalType": "bytes32"
        },
        {
          "name": "account",
          "type": "address",
          "indexed": true,
          "internalType": "address"
        },
        {
          "name": "sender",
          "type": "address",
          "indexed": true,
          "internalType": "address"
        }
      ],
      "anonymous": false
    },
    {
      "type": "event",
      "name": "SetDefaultMultiplierBps",
      "inputs": [
        {
          "name": "multiplierBps",
          "type": "uint16",
          "indexed": false,
          "internalType": "uint16"
        }
      ],
      "anonymous": false
    },
    {
      "type": "event",
      "name": "SetPriceFeed",
      "inputs": [
        {
          "name": "priceFeed",
          "type": "address",
          "indexed": false,
          "internalType": "address"
        }
      ],
      "anonymous": false
    },
    {
      "type": "event",
      "name": "SetSupportedOptionTypes",
      "inputs": [
        {
          "name": "dstEid",
          "type": "uint32",
          "indexed": false,
          "internalType": "uint32"
        },
        {
          "name": "optionTypes",
          "type": "uint8[]",
          "indexed": false,
          "internalType": "uint8[]"
        }
      ],
      "anonymous": false
    },
    {
      "type": "event",
      "name": "SetWorkerLib",
      "inputs": [
        {
          "name": "workerLib",
          "type": "address",
          "indexed": false,
          "internalType": "address"
        }
      ],
      "anonymous": false
    },
    {
      "type": "event",
      "name": "Unpaused",
      "inputs": [
        {
          "name": "account",
          "type": "address",
          "indexed": false,
          "internalType": "address"
        }
      ],
      "anonymous": false
    },
    {
      "type": "event",
      "name": "Withdraw",
      "inputs": [
        {
          "name": "lib",
          "type": "address",
          "indexed": false,
          "internalType": "address"
        },
        {
          "name": "to",
          "type": "address",
          "indexed": false,
          "internalType": "address"
        },
        {
          "name": "amount",
          "type": "uint256",
          "indexed": false,
          "internalType": "uint256"
        }
      ],
      "anonymous": false
    },
    {
      "type": "error",
      "name": "Transfer_NativeFailed",
      "inputs": [
        {
          "name": "_to",
          "type": "address",
          "internalType": "address"
        },
        {
          "name": "_value",
          "type": "uint256",
          "internalType": "uint256"
        }
      ]
    },
    {
      "type": "error",
      "name": "Transfer_ToAddressIsZero",
      "inputs": []
    },
    {
      "type": "error",
      "name": "Worker_NotAllowed",
      "inputs": []
    },
    {
      "type": "error",
      "name": "Worker_OnlyMessageLib",
      "inputs": []
    },
    {
      "type": "error",
      "name": "Worker_RoleRenouncingDisabled",
      "inputs": []
    }
  ],
  "bytecode": {
    "object": "0x608060405234801561001057600080fd5b50614865806100206000396000f3fe60806040526004361061024d5760003560e01c8063717e8a4211610138578063c2803b2c116100b0578063cd88b9031161007f578063d2ae210411610064578063d2ae210414610804578063d547741f14610856578063fa34c84e1461087657600080fd5b8063cd88b903146107d1578063cfc32570146107f157600080fd5b8063c2803b2c14610736578063c358de0a14610764578063c416aa5114610784578063c7b2370b146107b157600080fd5b80637cd447341161010757806391d14854116100ec57806391d14854146105f15780639e94496514610644578063a217fddf1461072157600080fd5b80637cd44734146105cb5780638624ba07146105de57600080fd5b8063717e8a4214610513578063724e78da146105335780637260753714610553578063741bef1a1461059e57600080fd5b80632f2ff15d116101cb5780633d85ac331161019a5780635c975abb1161017f5780635c975abb146104885780635e280f11146104a0578063709eb664146104f357600080fd5b80633d85ac3314610455578063475b6d9e1461047557600080fd5b80632f2ff15d146103e25780633146646a1461040257806336568abe146104225780633927c0751461044257600080fd5b80631095b6d711610222578063248a9ca311610207578063248a9ca31461035757806326e67a37146103955780632de11376146103c257600080fd5b80631095b6d71461031757806316c38b3c1461033757600080fd5b80629fc68114610252578062bf2e801461027457806301e33667146102c757806301ffc9a7146102e7575b600080fd5b34801561025e57600080fd5b5061027261026d366004613716565b610896565b005b34801561028057600080fd5b5060c9546102af907c0100000000000000000000000000000000000000000000000000000000900461ffff1681565b60405161ffff90911681526020015b60405180910390f35b3480156102d357600080fd5b506102726102e23660046137bb565b610c35565b3480156102f357600080fd5b506103076103023660046137f7565b610c70565b60405190151581526020016102be565b34801561032357600080fd5b506102726103323660046137bb565b610d09565b34801561034357600080fd5b50610272610352366004613847565b610e98565b34801561036357600080fd5b50610387610372366004613864565b60009081526065602052604090206001015490565b6040519081526020016102be565b3480156103a157600080fd5b506103b56103b036600461388f565b610ebd565b6040516102be91906138ac565b3480156103ce57600080fd5b506103076103dd3660046138f3565b610f44565b3480156103ee57600080fd5b506102726103fd36600461390e565b611028565b34801561040e57600080fd5b5061027261041d366004613983565b611052565b34801561042e57600080fd5b5061027261043d36600461390e565b61111b565b610272610450366004613a2c565b61114d565b34801561046157600080fd5b50610272610470366004613b0a565b611237565b610272610483366004613c12565b611424565b34801561049457600080fd5b5060975460ff16610307565b3480156104ac57600080fd5b5061012e546104ce9073ffffffffffffffffffffffffffffffffffffffff1681565b60405173ffffffffffffffffffffffffffffffffffffffff90911681526020016102be565b3480156104ff57600080fd5b5061038761050e366004613c93565b611478565b34801561051f57600080fd5b5061038761052e366004613c93565b6115d1565b34801561053f57600080fd5b5061027261054e3660046138f3565b611757565b34801561055f57600080fd5b5061012e546105899074010000000000000000000000000000000000000000900463ffffffff1681565b60405163ffffffff90911681526020016102be565b3480156105aa57600080fd5b5060ca546104ce9073ffffffffffffffffffffffffffffffffffffffff1681565b6102726105d9366004613d04565b6117f4565b6102726105ec366004613dca565b6119a9565b3480156105fd57600080fd5b5061030761060c36600461390e565b600091825260656020908152604080842073ffffffffffffffffffffffffffffffffffffffff93909316845291905290205460ff1690565b34801561065057600080fd5b506106d461065f36600461388f565b61012d602052600090815260409020805460019091015467ffffffffffffffff8083169261ffff68010000000000000000820416926fffffffffffffffffffffffffffffffff6a0100000000000000000000909204821692918116917001000000000000000000000000000000009091041685565b6040805167ffffffffffffffff968716815261ffff90951660208601526fffffffffffffffffffffffffffffffff938416908501529116606083015291909116608082015260a0016102be565b34801561072d57600080fd5b50610387600081565b34801561074257600080fd5b5061012f546104ce9073ffffffffffffffffffffffffffffffffffffffff1681565b34801561077057600080fd5b5061027261077f366004613e3d565b611bbf565b34801561079057600080fd5b5060c9546104ce9073ffffffffffffffffffffffffffffffffffffffff1681565b3480156107bd57600080fd5b506102726107cc3660046138f3565b611c6c565b3480156107dd57600080fd5b506102726107ec366004613e58565b611d09565b6102726107ff366004613ee0565b611d53565b34801561081057600080fd5b5060c95461083d9074010000000000000000000000000000000000000000900467ffffffffffffffff1681565b60405167ffffffffffffffff90911681526020016102be565b34801561086257600080fd5b5061027261087136600461390e565b611f0f565b34801561088257600080fd5b506102726108913660046138f3565b611f34565b60006108c07fb53127684a568b3173ae13b9f8a6016e243e63b6e8ee1178d6a717850b5d61035490565b905073ffffffffffffffffffffffffffffffffffffffff81166109195773ffffffffffffffffffffffffffffffffffffffff7fb53127684a568b3173ae13b9f8a6016e243e63b6e8ee1178d6a717850b5d61035561093b565b3373ffffffffffffffffffffffffffffffffffffffff82161461093b57600080fd5b600054610100900460ff161580801561095b5750600054600160ff909116105b806109755750303b158015610975575060005460ff166001145b610a06576040517f08c379a000000000000000000000000000000000000000000000000000000000815260206004820152602e60248201527f496e697469616c697a61626c653a20636f6e747261637420697320616c72656160448201527f647920696e697469616c697a656400000000000000000000000000000000000060648201526084015b60405180910390fd5b600080547fffffffffffffffffffffffffffffffffffffffffffffffffffffffffffffff001660011790558015610a6457600080547fffffffffffffffffffffffffffffffffffffffffffffffffffffffffffff00ff166101001790555b610a6c612022565b610a7b8686612ee087876120c3565b61012e80547fffffffffffffffffffffffff00000000000000000000000000000000000000001673ffffffffffffffffffffffffffffffffffffffff8a16908117909155604080517f416ecebf000000000000000000000000000000000000000000000000000000008152905163416ecebf916004808201926020929091908290030181865afa158015610b13573d6000803e3d6000fd5b505050506040513d601f19601f82011682018060405250810190610b379190613f15565b61012e80547fffffffffffffffff00000000ffffffffffffffffffffffffffffffffffffffff167401000000000000000000000000000000000000000063ffffffff939093169290920291909117905561012f80547fffffffffffffffffffffffff00000000000000000000000000000000000000001673ffffffffffffffffffffffffffffffffffffffff89161790558015610c2b57600080547fffffffffffffffffffffffffffffffffffffffffffffffffffffffffffff00ff169055604051600181527f7f26b83ff96e1f2b6a682f133852f6798a09c465da95921460cefb38474024989060200160405180910390a15b5050505050505050565b7fa49807205ce4d355092ef5a8a18f56e8913cf4a201fbe287825b095693c21775610c5f8161217f565b610c6a84848461218c565b50505050565b60007fffffffff0000000000000000000000000000000000000000000000000000000082167f7965db0b000000000000000000000000000000000000000000000000000000001480610d0357507f01ffc9a7000000000000000000000000000000000000000000000000000000007fffffffff000000000000000000000000000000000000000000000000000000008316145b92915050565b7fa49807205ce4d355092ef5a8a18f56e8913cf4a201fbe287825b095693c21775610d338161217f565b73ffffffffffffffffffffffffffffffffffffffff841660009081527fe3a3b2721d010eec8988605a93cd7c15d969808c0e2b42f6155dc2b4fa13c081602052604090205460ff16610db1576040517f5ee08b9700000000000000000000000000000000000000000000000000000000815260040160405180910390fd5b6040517ffd9be52200000000000000000000000000000000000000000000000000000000815273ffffffffffffffffffffffffffffffffffffffff84811660048301526024820184905285169063fd9be52290604401600060405180830381600087803b158015610e2157600080fd5b505af1158015610e35573d6000803e3d6000fd5b50506040805173ffffffffffffffffffffffffffffffffffffffff8089168252871660208201529081018590527f9b1bfa7fa9ee420a16e124f794c35ac9f90472acc99140eb2f6447c714cad8eb9250606001905060405180910390a150505050565b6000610ea38161217f565b8115610eb557610eb16121bc565b5050565b610eb1612241565b63ffffffff8116600090815260cb6020908152604091829020805483518184028101840190945280845260609392830182828015610f3857602002820191906000526020600020906000905b825461010083900a900460ff16815260206001928301818104948501949093039092029101808411610f095790505b50505050509050919050565b73ffffffffffffffffffffffffffffffffffffffff811660009081527f0f6a9529577ef7bf1cbc8fccda1cc3c881f755c7e92e34c7c4deac1fa3c1c791602052604081205460ff1615610f9957506000919050565b60c95474010000000000000000000000000000000000000000900467ffffffffffffffff16158061100e575073ffffffffffffffffffffffffffffffffffffffff821660009081527f35c5067391a9036240763c1067bfa438a7b0131204a675a2fe562dd73782ce85602052604090205460ff165b1561101b57506001919050565b506000919050565b919050565b6000828152606560205260409020600101546110438161217f565b61104d8383612298565b505050565b7fa49807205ce4d355092ef5a8a18f56e8913cf4a201fbe287825b095693c2177561107c8161217f565b61108461235f565b61012f546040517fe65106f800000000000000000000000000000000000000000000000000000000815273ffffffffffffffffffffffffffffffffffffffff9091169063e65106f8906110df90879087908790600401613f7b565b600060405180830381600087803b1580156110f957600080fd5b505af115801561110d573d6000803e3d6000fd5b50505050610c6a600160fb55565b6040517fdec9f03100000000000000000000000000000000000000000000000000000000815260040160405180910390fd5b7fa49807205ce4d355092ef5a8a18f56e8913cf4a201fbe287825b095693c217756111778161217f565b61117f61235f565b61119f8861118d86866123d9565b61119787876123fc565b8a8a8a612415565b5061012f546040517fe65106f800000000000000000000000000000000000000000000000000000000815273ffffffffffffffffffffffffffffffffffffffff9091169063e65106f8906111fb90879087908790600401613f7b565b600060405180830381600087803b15801561121557600080fd5b505af1158015611229573d6000803e3d6000fd5b50505050610c2b600160fb55565b7fa49807205ce4d355092ef5a8a18f56e8913cf4a201fbe287825b095693c217756112618161217f565b60005b82518110156113e857600083828151811061128157611281613f9f565b6020908102919091018101516040805160a080820183528385015167ffffffffffffffff908116835260608086015161ffff9081168589019081526080808901516fffffffffffffffffffffffffffffffff908116888a01908152968a01518116948801948552888a01518616918801918252985163ffffffff16600090815261012d909a5296909820945185549851945188166a0100000000000000000000027fffffffffffff00000000000000000000000000000000ffffffffffffffffffff9590921668010000000000000000027fffffffffffffffffffffffffffffffffffffffffffff0000000000000000000090991690841617979097179290921695909517825551600190910180549251909416700100000000000000000000000000000000027fffffffffffffffff00000000000000000000000000000000000000000000000090921692169190911717905550806113e081613ffd565b915050611264565b507fb99f6de5e22c60c178b03bfacf2daeb4b6089f5b37e0fe2c48a5d5141191fc53826040516114189190614035565b60405180910390a15050565b7fa49807205ce4d355092ef5a8a18f56e8913cf4a201fbe287825b095693c2177561144e8161217f565b61145661235f565b611464878787878787612415565b5061146f600160fb55565b50505050505050565b60008461148481610f44565b6114ba576040517f4ab5ebcd00000000000000000000000000000000000000000000000000000000815260040160405180910390fd5b6114c2612595565b6040805160a08101825260ca5473ffffffffffffffffffffffffffffffffffffffff908116825263ffffffff8a1660208084018290528a831684860152606084018a905260c95461ffff7c01000000000000000000000000000000000000000000000000000000008204166080860152600092835261012d9091529084902093517f434ee016000000000000000000000000000000000000000000000000000000008152929391169163434ee01691611584918591908a908a906004016140dc565b602060405180830381865afa1580156115a1573d6000803e3d6000fd5b505050506040513d601f19601f820116820180604052508101906115c5919061419c565b98975050505050505050565b60007f724aface199fe5bed93ae8508474576a9adf3dc443b2c451842a2242919f19de6115fd8161217f565b8561160781610f44565b61163d576040517f4ab5ebcd00000000000000000000000000000000000000000000000000000000815260040160405180910390fd5b611645612595565b6040805160a08101825260ca5473ffffffffffffffffffffffffffffffffffffffff908116825263ffffffff8b1660208084018290528b831684860152606084018b905260c95461ffff7c01000000000000000000000000000000000000000000000000000000008204166080860152600092835261012d9091529084902093517f566ef762000000000000000000000000000000000000000000000000000000008152929391169163566ef76291611707918591908b908b906004016140dc565b6020604051808303816000875af1158015611726573d6000803e3d6000fd5b505050506040513d601f19601f8201168201806040525081019061174a919061419c565b9998505050505050505050565b7fa49807205ce4d355092ef5a8a18f56e8913cf4a201fbe287825b095693c217756117818161217f565b60ca80547fffffffffffffffffffffffff00000000000000000000000000000000000000001673ffffffffffffffffffffffffffffffffffffffff84169081179091556040519081527ff724a45d041687842411f2b977ef22ab8f43c8f1104f4592b42a00f9b34a643d90602001611418565b7fa49807205ce4d355092ef5a8a18f56e8913cf4a201fbe287825b095693c2177561181e8161217f565b61182661235f565b61012e546040517f91d20fa100000000000000000000000000000000000000000000000000000000815273ffffffffffffffffffffffffffffffffffffffff909116906391d20fa1908490349061188f908f908f908f908f908f908f908f908f906004016141b5565b6000604051808303818589803b1580156118a857600080fd5b5088f194505050505080156118bb575060015b611993573d8080156118e9576040519150601f19603f3d011682016040523d82523d6000602084013e6118ee565b606091505b5061012e60009054906101000a900473ffffffffffffffffffffffffffffffffffffffff1673ffffffffffffffffffffffffffffffffffffffff1663697fe6b68c8c8c8c88348e8e8e8e8c6040518c63ffffffff1660e01b815260040161195f9b9a9998979695949392919061428f565b600060405180830381600087803b15801561197957600080fd5b505af115801561198d573d6000803e3d6000fd5b50505050505b61199d600160fb55565b50505050505050505050565b7fa49807205ce4d355092ef5a8a18f56e8913cf4a201fbe287825b095693c217756119d38161217f565b6119db61235f565b61012e54600090611a1b90602085019074010000000000000000000000000000000000000000900463ffffffff16611a1382876138f3565b898989612415565b90506000611a298234614322565b61012e5490915073ffffffffffffffffffffffffffffffffffffffff16630c0c389e60e08601358360208801611a5f818a6138f3565b60808a0135611a7160a08c018c614335565b611a7e60c08e018e614335565b6040518a63ffffffff1660e01b8152600401611aa097969594939291906143d6565b6000604051808303818589803b158015611ab957600080fd5b5088f19450505050508015611acc575060015b611bac573d808015611afa576040519150601f19603f3d011682016040523d82523d6000602084013e611aff565b606091505b5061012e5473ffffffffffffffffffffffffffffffffffffffff16636bf73fa360208701611b2d81896138f3565b608089013560e08a013587611b4560a08d018d614335565b611b5260c08f018f614335565b8b6040518b63ffffffff1660e01b8152600401611b789a9998979695949392919061443a565b600060405180830381600087803b158015611b9257600080fd5b505af1158015611ba6573d6000803e3d6000fd5b50505050505b5050611bb8600160fb55565b5050505050565b7fa49807205ce4d355092ef5a8a18f56e8913cf4a201fbe287825b095693c21775611be98161217f565b60c980547fffff0000ffffffffffffffffffffffffffffffffffffffffffffffffffffffff167c010000000000000000000000000000000000000000000000000000000061ffff8516908102919091179091556040519081527f7af0ac740036ffb1c97b03697859d729e80a44ae5030543d64971c313565ab4d90602001611418565b7fa49807205ce4d355092ef5a8a18f56e8913cf4a201fbe287825b095693c21775611c968161217f565b60c980547fffffffffffffffffffffffff00000000000000000000000000000000000000001673ffffffffffffffffffffffffffffffffffffffff84169081179091556040519081527f1399be28223800f8669b3ba5f8721d9fc16fc4e8d0bbf98378791c8c5a3015e090602001611418565b7fa49807205ce4d355092ef5a8a18f56e8913cf4a201fbe287825b095693c21775611d338161217f565b63ffffffff8416600090815260cb60205260409020611bb89084846134f7565b7fa49807205ce4d355092ef5a8a18f56e8913cf4a201fbe287825b095693c21775611d7d8161217f565b611d8561235f565b61012e5473ffffffffffffffffffffffffffffffffffffffff16630c0c389e60e08401353460208601611db881886138f3565b6080880135611dca60a08a018a614335565b611dd760c08c018c614335565b6040518a63ffffffff1660e01b8152600401611df997969594939291906143d6565b6000604051808303818589803b158015611e1257600080fd5b5088f19450505050508015611e25575060015b611f05573d808015611e53576040519150601f19603f3d011682016040523d82523d6000602084013e611e58565b606091505b5061012e5473ffffffffffffffffffffffffffffffffffffffff16636bf73fa360208501611e8681876138f3565b608087013560e088013534611e9e60a08b018b614335565b611eab60c08d018d614335565b8b6040518b63ffffffff1660e01b8152600401611ed19a9998979695949392919061443a565b600060405180830381600087803b158015611eeb57600080fd5b505af1158015611eff573d6000803e3d6000fd5b50505050505b610eb1600160fb55565b600082815260656020526040902060010154611f2a8161217f565b61104d8383612602565b6000611f5e7fb53127684a568b3173ae13b9f8a6016e243e63b6e8ee1178d6a717850b5d61035490565b905073ffffffffffffffffffffffffffffffffffffffff8116611fb75773ffffffffffffffffffffffffffffffffffffffff7fb53127684a568b3173ae13b9f8a6016e243e63b6e8ee1178d6a717850b5d610355611fd9565b3373ffffffffffffffffffffffffffffffffffffffff821614611fd957600080fd5b5061012f80547fffffffffffffffffffffffff00000000000000000000000000000000000000001673ffffffffffffffffffffffffffffffffffffffff92909216919091179055565b600054610100900460ff166120b9576040517f08c379a000000000000000000000000000000000000000000000000000000000815260206004820152602b60248201527f496e697469616c697a61626c653a20636f6e7472616374206973206e6f74206960448201527f6e697469616c697a696e6700000000000000000000000000000000000000000060648201526084016109fd565b6120c16126c8565b565b600054610100900460ff1661215a576040517f08c379a000000000000000000000000000000000000000000000000000000000815260206004820152602b60248201527f496e697469616c697a61626c653a20636f6e7472616374206973206e6f74206960448201527f6e697469616c697a696e6700000000000000000000000000000000000000000060648201526084016109fd565b61216261275f565b61216a61275f565b6121726127f6565b611bb885858585856128b7565b6121898133612aac565b50565b73ffffffffffffffffffffffffffffffffffffffff83166121b15761104d8282612b66565b61104d838383612c6c565b6121c4612595565b609780547fffffffffffffffffffffffffffffffffffffffffffffffffffffffffffffff001660011790557f62e78cea01bee320cd4e420270b5ea74000d11b0c9f74754ebdbfc544b05a2586122173390565b60405173ffffffffffffffffffffffffffffffffffffffff909116815260200160405180910390a1565b612249612cda565b609780547fffffffffffffffffffffffffffffffffffffffffffffffffffffffffffffff001690557f5db9ee0a495bf2e6ff9c91a7834c1ba4fdd244a5e8aa4e537bd38aeae4b073aa33612217565b7f74845de37cfabd357633214b47fa91ccd19b05b7c5a08ac22c187f811fb62bca821480156122f75750600082815260656020908152604080832073ffffffffffffffffffffffffffffffffffffffff8516845290915290205460ff16155b156123555760c9805460149061232e9074010000000000000000000000000000000000000000900467ffffffffffffffff166144c6565b91906101000a81548167ffffffffffffffff021916908367ffffffffffffffff1602179055505b610eb18282612d46565b600260fb54036123cb576040517f08c379a000000000000000000000000000000000000000000000000000000000815260206004820152601f60248201527f5265656e7472616e637947756172643a207265656e7472616e742063616c6c0060448201526064016109fd565b600260fb55565b600160fb55565b60006123e96031602d84866144ed565b6123f291614517565b60e01c9392505050565b600061240e61240b8484612e3a565b90565b9392505050565b6000808367ffffffffffffffff811115612431576124316135d9565b60405190808252806020026020018201604052801561245a578160200160208202803683370190505b50905060005b8481101561254857600086868381811061247c5761247c613f9f565b905060400201803603810190612492919061455f565b90506000816000015173ffffffffffffffffffffffffffffffffffffffff1682602001518790604051600060405180830381858888f193505050503d80600081146124f9576040519150601f19603f3d011682016040523d82523d6000602084013e6124fe565b606091505b505090508084848151811061251557612515613f9f565b91151560209283029190910182015282015161253190866145b6565b94505050808061254090613ffd565b915050612460565b507f1f48172553121d8bf273ce457a5a3dd180d464e0add3e0143045b7fa039c346888888888888660405161258296959493929190614606565b60405180910390a1509695505050505050565b60975460ff16156120c1576040517f08c379a000000000000000000000000000000000000000000000000000000000815260206004820152601060248201527f5061757361626c653a207061757365640000000000000000000000000000000060448201526064016109fd565b7f74845de37cfabd357633214b47fa91ccd19b05b7c5a08ac22c187f811fb62bca821480156126605750600082815260656020908152604080832073ffffffffffffffffffffffffffffffffffffffff8516845290915290205460ff165b156126be5760c980546014906126979074010000000000000000000000000000000000000000900467ffffffffffffffff16614698565b91906101000a81548167ffffffffffffffff021916908367ffffffffffffffff1602179055505b610eb18282612e53565b600054610100900460ff166123d2576040517f08c379a000000000000000000000000000000000000000000000000000000000815260206004820152602b60248201527f496e697469616c697a61626c653a20636f6e7472616374206973206e6f74206960448201527f6e697469616c697a696e6700000000000000000000000000000000000000000060648201526084016109fd565b600054610100900460ff166120c1576040517f08c379a000000000000000000000000000000000000000000000000000000000815260206004820152602b60248201527f496e697469616c697a61626c653a20636f6e7472616374206973206e6f74206960448201527f6e697469616c697a696e6700000000000000000000000000000000000000000060648201526084016109fd565b600054610100900460ff1661288d576040517f08c379a000000000000000000000000000000000000000000000000000000000815260206004820152602b60248201527f496e697469616c697a61626c653a20636f6e7472616374206973206e6f74206960448201527f6e697469616c697a696e6700000000000000000000000000000000000000000060648201526084016109fd565b609780547fffffffffffffffffffffffffffffffffffffffffffffffffffffffffffffff00169055565b600054610100900460ff1661294e576040517f08c379a000000000000000000000000000000000000000000000000000000000815260206004820152602b60248201527f496e697469616c697a61626c653a20636f6e7472616374206973206e6f74206960448201527f6e697469616c697a696e6700000000000000000000000000000000000000000060648201526084016109fd565b60c980547fffff0000ffffffffffffffffffffffffffffffffffffffffffffffffffffffff167c010000000000000000000000000000000000000000000000000000000061ffff86160217905560ca80547fffffffffffffffffffffffff00000000000000000000000000000000000000001673ffffffffffffffffffffffffffffffffffffffff868116919091179091558216156129f2576129f2600083612298565b60005b8551811015612a5157612a417f724aface199fe5bed93ae8508474576a9adf3dc443b2c451842a2242919f19de878381518110612a3457612a34613f9f565b6020026020010151612298565b612a4a81613ffd565b90506129f5565b5060005b8151811015612aa457612a947fa49807205ce4d355092ef5a8a18f56e8913cf4a201fbe287825b095693c21775838381518110612a3457612a34613f9f565b612a9d81613ffd565b9050612a55565b505050505050565b600082815260656020908152604080832073ffffffffffffffffffffffffffffffffffffffff8516845290915290205460ff16610eb157612aec81612f0e565b612af7836020612f2d565b604051602001612b089291906146da565b604080517fffffffffffffffffffffffffffffffffffffffffffffffffffffffffffffffe0818403018152908290527f08c379a00000000000000000000000000000000000000000000000000000000082526109fd9160040161475b565b73ffffffffffffffffffffffffffffffffffffffff8216612bb3576040517f6b7a931000000000000000000000000000000000000000000000000000000000815260040160405180910390fd5b60008273ffffffffffffffffffffffffffffffffffffffff168260405160006040518083038185875af1925050503d8060008114612c0d576040519150601f19603f3d011682016040523d82523d6000602084013e612c12565b606091505b505090508061104d576040517f465bc83400000000000000000000000000000000000000000000000000000000815273ffffffffffffffffffffffffffffffffffffffff84166004820152602481018390526044016109fd565b73ffffffffffffffffffffffffffffffffffffffff8216612cb9576040517f6b7a931000000000000000000000000000000000000000000000000000000000815260040160405180910390fd5b61104d73ffffffffffffffffffffffffffffffffffffffff84168383613170565b60975460ff166120c1576040517f08c379a000000000000000000000000000000000000000000000000000000000815260206004820152601460248201527f5061757361626c653a206e6f742070617573656400000000000000000000000060448201526064016109fd565b600082815260656020908152604080832073ffffffffffffffffffffffffffffffffffffffff8516845290915290205460ff16610eb157600082815260656020908152604080832073ffffffffffffffffffffffffffffffffffffffff85168452909152902080547fffffffffffffffffffffffffffffffffffffffffffffffffffffffffffffff00166001179055612ddc3390565b73ffffffffffffffffffffffffffffffffffffffff168173ffffffffffffffffffffffffffffffffffffffff16837f2f8788117e7eff1d82e926ec794901d17c78024a50270940304540a733656f0d60405160405180910390a45050565b6000612e4a6051603184866144ed565b61240e9161476e565b600082815260656020908152604080832073ffffffffffffffffffffffffffffffffffffffff8516845290915290205460ff1615610eb157600082815260656020908152604080832073ffffffffffffffffffffffffffffffffffffffff8516808552925280832080547fffffffffffffffffffffffffffffffffffffffffffffffffffffffffffffff0016905551339285917ff6391f5c32d9c69d2a47ea670b442974b53935d1edc7fd64eb21e047a839171b9190a45050565b6060610d0373ffffffffffffffffffffffffffffffffffffffff831660145b60606000612f3c8360026147aa565b612f479060026145b6565b67ffffffffffffffff811115612f5f57612f5f6135d9565b6040519080825280601f01601f191660200182016040528015612f89576020820181803683370190505b5090507f300000000000000000000000000000000000000000000000000000000000000081600081518110612fc057612fc0613f9f565b60200101907effffffffffffffffffffffffffffffffffffffffffffffffffffffffffffff1916908160001a9053507f78000000000000000000000000000000000000000000000000000000000000008160018151811061302357613023613f9f565b60200101907effffffffffffffffffffffffffffffffffffffffffffffffffffffffffffff1916908160001a905350600061305f8460026147aa565b61306a9060016145b6565b90505b6001811115613107577f303132333435363738396162636465660000000000000000000000000000000085600f16601081106130ab576130ab613f9f565b1a60f81b8282815181106130c1576130c1613f9f565b60200101907effffffffffffffffffffffffffffffffffffffffffffffffffffffffffffff1916908160001a90535060049490941c93613100816147c1565b905061306d565b50831561240e576040517f08c379a000000000000000000000000000000000000000000000000000000000815260206004820181905260248201527f537472696e67733a20686578206c656e67746820696e73756666696369656e7460448201526064016109fd565b6040805173ffffffffffffffffffffffffffffffffffffffff848116602483015260448083018590528351808403909101815260649092018352602080830180517bffffffffffffffffffffffffffffffffffffffffffffffffffffffff167fa9059cbb0000000000000000000000000000000000000000000000000000000017905283518085019094528084527f5361666545524332303a206c6f772d6c6576656c2063616c6c206661696c65649084015261104d9286929160009161323b9185169084906132e8565b905080516000148061325c57508080602001905181019061325c91906147f6565b61104d576040517f08c379a000000000000000000000000000000000000000000000000000000000815260206004820152602a60248201527f5361666545524332303a204552433230206f7065726174696f6e20646964206e60448201527f6f7420737563636565640000000000000000000000000000000000000000000060648201526084016109fd565b60606132f784846000856132ff565b949350505050565b606082471015613391576040517f08c379a000000000000000000000000000000000000000000000000000000000815260206004820152602660248201527f416464726573733a20696e73756666696369656e742062616c616e636520666f60448201527f722063616c6c000000000000000000000000000000000000000000000000000060648201526084016109fd565b6000808673ffffffffffffffffffffffffffffffffffffffff1685876040516133ba9190614813565b60006040518083038185875af1925050503d80600081146133f7576040519150601f19603f3d011682016040523d82523d6000602084013e6133fc565b606091505b509150915061340d87838387613418565b979650505050505050565b606083156134ae5782516000036134a75773ffffffffffffffffffffffffffffffffffffffff85163b6134a7576040517f08c379a000000000000000000000000000000000000000000000000000000000815260206004820152601d60248201527f416464726573733a2063616c6c20746f206e6f6e2d636f6e747261637400000060448201526064016109fd565b50816132f7565b6132f783838151156134c35781518083602001fd5b806040517f08c379a00000000000000000000000000000000000000000000000000000000081526004016109fd919061475b565b82805482825590600052602060002090601f016020900481019282156135905791602002820160005b8382111561356157833560ff1683826101000a81548160ff021916908360ff1602179055509260200192600101602081600001049283019260010302613520565b801561358e5782816101000a81549060ff0219169055600101602081600001049283019260010302613561565b505b5061359c9291506135a0565b5090565b5b8082111561359c57600081556001016135a1565b803573ffffffffffffffffffffffffffffffffffffffff8116811461102357600080fd5b7f4e487b7100000000000000000000000000000000000000000000000000000000600052604160045260246000fd5b60405160c0810167ffffffffffffffff8111828210171561362b5761362b6135d9565b60405290565b604051601f82017fffffffffffffffffffffffffffffffffffffffffffffffffffffffffffffffe016810167ffffffffffffffff81118282101715613678576136786135d9565b604052919050565b600067ffffffffffffffff82111561369a5761369a6135d9565b5060051b60200190565b600082601f8301126136b557600080fd5b813560206136ca6136c583613680565b613631565b82815260059290921b840181019181810190868411156136e957600080fd5b8286015b8481101561370b576136fe816135b5565b83529183019183016136ed565b509695505050505050565b60008060008060008060c0878903121561372f57600080fd5b613738876135b5565b9550613746602088016135b5565b9450604087013567ffffffffffffffff8082111561376357600080fd5b61376f8a838b016136a4565b955061377d60608a016135b5565b945061378b60808a016135b5565b935060a08901359150808211156137a157600080fd5b506137ae89828a016136a4565b9150509295509295509295565b6000806000606084860312156137d057600080fd5b6137d9846135b5565b92506137e7602085016135b5565b9150604084013590509250925092565b60006020828403121561380957600080fd5b81357fffffffff000000000000000000000000000000000000000000000000000000008116811461240e57600080fd5b801515811461218957600080fd5b60006020828403121561385957600080fd5b813561240e81613839565b60006020828403121561387657600080fd5b5035919050565b63ffffffff8116811461218957600080fd5b6000602082840312156138a157600080fd5b813561240e8161387d565b6020808252825182820181905260009190848201906040850190845b818110156138e757835160ff16835292840192918401916001016138c8565b50909695505050505050565b60006020828403121561390557600080fd5b61240e826135b5565b6000806040838503121561392157600080fd5b82359150613931602084016135b5565b90509250929050565b60008083601f84011261394c57600080fd5b50813567ffffffffffffffff81111561396457600080fd5b60208301915083602082850101111561397c57600080fd5b9250929050565b60008060006040848603121561399857600080fd5b833567ffffffffffffffff8111156139af57600080fd5b6139bb8682870161393a565b909790965060209590950135949350505050565b6000606082840312156139e157600080fd5b50919050565b60008083601f8401126139f957600080fd5b50813567ffffffffffffffff811115613a1157600080fd5b6020830191508360208260061b850101111561397c57600080fd5b600080600080600080600060e0888a031215613a4757600080fd5b613a5189896139cf565b9650606088013567ffffffffffffffff80821115613a6e57600080fd5b613a7a8b838c016139e7565b909850965060808a0135955060a08a0135915080821115613a9a57600080fd5b50613aa78a828b0161393a565b989b979a5095989497959660c090950135949350505050565b803567ffffffffffffffff8116811461102357600080fd5b803561ffff8116811461102357600080fd5b80356fffffffffffffffffffffffffffffffff8116811461102357600080fd5b60006020808385031215613b1d57600080fd5b823567ffffffffffffffff811115613b3457600080fd5b8301601f81018513613b4557600080fd5b8035613b536136c582613680565b81815260c09182028301840191848201919088841115613b7257600080fd5b938501935b83851015613c065780858a031215613b8f5760008081fd5b613b97613608565b8535613ba28161387d565b8152613baf868801613ac0565b878201526040613bc0818801613ac0565b908201526060613bd1878201613ad8565b908201526080613be2878201613aea565b9082015260a0613bf3878201613aea565b9082015283529384019391850191613b77565b50979650505050505050565b60008060008060008060e08789031215613c2b57600080fd5b613c3588886139cf565b95506060870135613c458161387d565b9450613c53608088016135b5565b935060a087013567ffffffffffffffff811115613c6f57600080fd5b613c7b89828a016139e7565b979a969950949794969560c090950135949350505050565b600080600080600060808688031215613cab57600080fd5b8535613cb68161387d565b9450613cc4602087016135b5565b935060408601359250606086013567ffffffffffffffff811115613ce757600080fd5b613cf38882890161393a565b969995985093965092949392505050565b600080600080600080600080600060e08a8c031215613d2257600080fd5b613d2b8a6135b5565b9850613d3960208b016135b5565b975060408a01359650613d4e60608b01613ad8565b955060808a013567ffffffffffffffff80821115613d6b57600080fd5b613d778d838e0161393a565b909750955060a08c0135915080821115613d9057600080fd5b50613d9d8c828d0161393a565b9a9d999c50979a9699959894979660c00135949350505050565b600061010082840312156139e157600080fd5b60008060008060608587031215613de057600080fd5b843567ffffffffffffffff80821115613df857600080fd5b613e04888389016139e7565b9096509450602087013593506040870135915080821115613e2457600080fd5b50613e3187828801613db7565b91505092959194509250565b600060208284031215613e4f57600080fd5b61240e82613ad8565b600080600060408486031215613e6d57600080fd5b8335613e788161387d565b9250602084013567ffffffffffffffff80821115613e9557600080fd5b818601915086601f830112613ea957600080fd5b813581811115613eb857600080fd5b8760208260051b8501011115613ecd57600080fd5b6020830194508093505050509250925092565b600060208284031215613ef257600080fd5b813567ffffffffffffffff811115613f0957600080fd5b6132f784828501613db7565b600060208284031215613f2757600080fd5b815161240e8161387d565b8183528181602085013750600060208284010152600060207fffffffffffffffffffffffffffffffffffffffffffffffffffffffffffffffe0601f840116840101905092915050565b604081526000613f8f604083018587613f32565b9050826020830152949350505050565b7f4e487b7100000000000000000000000000000000000000000000000000000000600052603260045260246000fd5b7f4e487b7100000000000000000000000000000000000000000000000000000000600052601160045260246000fd5b60007fffffffffffffffffffffffffffffffffffffffffffffffffffffffffffffffff820361402e5761402e613fce565b5060010190565b602080825282518282018190526000919060409081850190868401855b828110156140cf578151805163ffffffff1685528681015167ffffffffffffffff9081168887015286820151168686015260608082015161ffff16908601526080808201516fffffffffffffffffffffffffffffffff9081169187019190915260a091820151169085015260c09093019290850190600101614052565b5091979650505050505050565b845173ffffffffffffffffffffffffffffffffffffffff908116825260208087015163ffffffff1690830152604080870151909116818301526060808701519083015260808087015161ffff90811682850152865467ffffffffffffffff80821660a08701529381901c90911660c085015260501c6fffffffffffffffffffffffffffffffff90811660e08501526001870154908116610100850152901c16610120820152610160610140820181905260009061340d8382018587613f32565b6000602082840312156141ae57600080fd5b5051919050565b600073ffffffffffffffffffffffffffffffffffffffff808b168352808a1660208401525087604083015261ffff8716606083015260c060808301526141ff60c083018688613f32565b82810360a0840152614212818587613f32565b9b9a5050505050505050505050565b60005b8381101561423c578181015183820152602001614224565b50506000910152565b6000815180845261425d816020860160208601614221565b601f017fffffffffffffffffffffffffffffffffffffffffffffffffffffffffffffffe0169290920160200192915050565b600061012073ffffffffffffffffffffffffffffffffffffffff808f168452808e166020850152508b604084015261ffff8b1660608401528960808401528860a08401528060c08401526142e6818401888a613f32565b905082810360e08401526142fb818688613f32565b90508281036101008401526143108185614245565b9e9d5050505050505050505050505050565b81810381811115610d0357610d03613fce565b60008083357fffffffffffffffffffffffffffffffffffffffffffffffffffffffffffffffe184360301811261436a57600080fd5b83018035915067ffffffffffffffff82111561438557600080fd5b60200191503681900382131561397c57600080fd5b80356143a58161387d565b63ffffffff1682526020818101359083015267ffffffffffffffff6143cc60408301613ac0565b1660408301525050565b6143e0818961439a565b73ffffffffffffffffffffffffffffffffffffffff8716606082015285608082015260e060a0820152600061441960e083018688613f32565b82810360c084015261442c818587613f32565b9a9950505050505050505050565b6000610140614449838e61439a565b73ffffffffffffffffffffffffffffffffffffffff8c1660608401528a60808401528960a08401528860c08401528060e084015261448a818401888a613f32565b90508281036101008401526144a0818688613f32565b90508281036101208401526144b58185614245565b9d9c50505050505050505050505050565b600067ffffffffffffffff8083168181036144e3576144e3613fce565b6001019392505050565b600080858511156144fd57600080fd5b8386111561450a57600080fd5b5050820193919092039150565b7fffffffff0000000000000000000000000000000000000000000000000000000081358181169160048510156145575780818660040360031b1b83161692505b505092915050565b60006040828403121561457157600080fd5b6040516040810181811067ffffffffffffffff82111715614594576145946135d9565b6040526145a0836135b5565b8152602083013560208201528091505092915050565b80820180821115610d0357610d03613fce565b600081518084526020808501945080840160005b838110156145fb5781511515875295820195908201906001016145dd565b509495945050505050565b600060e08201614616838a61439a565b63ffffffff8816606084015273ffffffffffffffffffffffffffffffffffffffff878116608085015260e060a0850152908590528590610100840160005b878110156146855782614666856135b5565b1682526020848101359083015260409384019390910190600101614654565b5084810360c086015261421281876145c9565b600067ffffffffffffffff8216806146b2576146b2613fce565b7fffffffffffffffffffffffffffffffffffffffffffffffffffffffffffffffff0192915050565b7f416363657373436f6e74726f6c3a206163636f756e7420000000000000000000815260008351614712816017850160208801614221565b7f206973206d697373696e6720726f6c6520000000000000000000000000000000601791840191820152835161474f816028840160208801614221565b01602801949350505050565b60208152600061240e6020830184614245565b80356020831015610d03577fffffffffffffffffffffffffffffffffffffffffffffffffffffffffffffffff602084900360031b1b1692915050565b8082028115828204841417610d0357610d03613fce565b6000816147d0576147d0613fce565b507fffffffffffffffffffffffffffffffffffffffffffffffffffffffffffffffff0190565b60006020828403121561480857600080fd5b815161240e81613839565b60008251614825818460208701614221565b919091019291505056fea2646970667358221220d9b093e0ac606b3a6162cc1afb399309c11572baab8a1d019476cd3c466bdbd664736f6c63430008140033",
    "linkReferences": {}
  },
  "methodIdentifiers": {
    "DEFAULT_ADMIN_ROLE()": "a217fddf",
    "allowlistSize()": "d2ae2104",
    "assignJob(uint32,address,uint256,bytes)": "717e8a42",
    "compose302(address,address,bytes32,uint16,bytes,bytes,uint256)": "7cd44734",
    "defaultMultiplierBps()": "00bf2e80",
    "dstConfig(uint32)": "9e944965",
    "endpoint()": "5e280f11",
    "execute301(bytes,uint256)": "3146646a",
    "execute302((address,(uint32,bytes32,uint64),bytes32,bytes,bytes,uint256))": "cfc32570",
    "getFee(uint32,address,uint256,bytes)": "709eb664",
    "getRoleAdmin(bytes32)": "248a9ca3",
    "getSupportedOptionTypes(uint32)": "26e67a37",
    "grantRole(bytes32,address)": "2f2ff15d",
    "hasAcl(address)": "2de11376",
    "hasRole(bytes32,address)": "91d14854",
    "initialize(address,address,address[],address,address,address[])": "009fc681",
    "localEid()": "72607537",
    "nativeDrop((uint32,bytes32,uint64),uint32,address,(address,uint256)[],uint256)": "475b6d9e",
    "nativeDropAndExecute301((uint32,bytes32,uint64),(address,uint256)[],uint256,bytes,uint256)": "3927c075",
    "nativeDropAndExecute302((address,uint256)[],uint256,(address,(uint32,bytes32,uint64),bytes32,bytes,bytes,uint256))": "8624ba07",
    "onUpgrade(address)": "fa34c84e",
    "paused()": "5c975abb",
    "priceFeed()": "741bef1a",
    "receiveUln301()": "c2803b2c",
    "renounceRole(bytes32,address)": "36568abe",
    "revokeRole(bytes32,address)": "d547741f",
    "setDefaultMultiplierBps(uint16)": "c358de0a",
    "setDstConfig((uint32,uint64,uint64,uint16,uint128,uint128)[])": "3d85ac33",
    "setPaused(bool)": "16c38b3c",
    "setPriceFeed(address)": "724e78da",
    "setSupportedOptionTypes(uint32,uint8[])": "cd88b903",
    "setWorkerFeeLib(address)": "c7b2370b",
    "supportsInterface(bytes4)": "01ffc9a7",
    "withdrawFee(address,address,uint256)": "1095b6d7",
    "withdrawToken(address,address,uint256)": "01e33667",
    "workerFeeLib()": "c416aa51"
  },
  "id": 6
}