{
  "_format": "hh-sol-artifact-1",
  "contractName": "DefaultOApp",
  "sourceName": "contracts/DefaultOApp.sol",
  "abi": [
    {
      "inputs": [
        {
          "internalType": "address",
          "name": "_endpoint",
          "type": "address"
        },
        {
          "internalType": "address",
          "name": "_owner",
          "type": "address"
        }
      ],
      "stateMutability": "nonpayable",
      "type": "constructor"
    },
    {
      "inputs": [],
      "name": "LzTokenUnavailable",
      "type": "error"
    },
    {
      "inputs": [
        {
          "internalType": "uint32",
          "name": "eid",
          "type": "uint32"
        }
      ],
      "name": "NoPeer",
      "type": "error"
    },
    {
      "inputs": [
        {
          "internalType": "uint256",
          "name": "msgValue",
          "type": "uint256"
        }
      ],
      "name": "NotEnoughNative",
      "type": "error"
    },
    {
      "inputs": [
        {
          "internalType": "address",
          "name": "addr",
          "type": "address"
        }
      ],
      "name": "OnlyEndpoint",
      "type": "error"
    },
    {
      "inputs": [
        {
          "internalType": "uint32",
          "name": "eid",
          "type": "uint32"
        },
        {
          "internalType": "bytes32",
          "name": "sender",
          "type": "bytes32"
        }
      ],
      "name": "OnlyPeer",
      "type": "error"
    },
    {
      "anonymous": false,
      "inputs": [
        {
          "indexed": true,
          "internalType": "address",
          "name": "previousOwner",
          "type": "address"
        },
        {
          "indexed": true,
          "internalType": "address",
          "name": "newOwner",
          "type": "address"
        }
      ],
      "name": "OwnershipTransferred",
      "type": "event"
    },
    {
      "anonymous": false,
      "inputs": [
        {
          "indexed": false,
          "internalType": "uint32",
          "name": "eid",
          "type": "uint32"
        },
        {
          "indexed": false,
          "internalType": "bytes32",
          "name": "peer",
          "type": "bytes32"
        }
      ],
      "name": "PeerSet",
      "type": "event"
    },
    {
      "inputs": [
        {
          "components": [
            {
              "internalType": "uint32",
              "name": "srcEid",
              "type": "uint32"
            },
            {
              "internalType": "bytes32",
              "name": "sender",
              "type": "bytes32"
            },
            {
              "internalType": "uint64",
              "name": "nonce",
              "type": "uint64"
            }
          ],
          "internalType": "struct Origin",
          "name": "origin",
          "type": "tuple"
        }
      ],
      "name": "allowInitializePath",
      "outputs": [
        {
          "internalType": "bool",
          "name": "",
          "type": "bool"
        }
      ],
      "stateMutability": "view",
      "type": "function"
    },
    {
      "inputs": [
        {
          "internalType": "bytes",
          "name": "_callData",
          "type": "bytes"
        }
      ],
      "name": "callEndpoint",
      "outputs": [],
      "stateMutability": "nonpayable",
      "type": "function"
    },
    {
      "inputs": [],
      "name": "endpoint",
      "outputs": [
        {
          "internalType": "contract ILayerZeroEndpointV2",
          "name": "",
          "type": "address"
        }
      ],
      "stateMutability": "view",
      "type": "function"
    },
    {
      "inputs": [
        {
          "components": [
            {
              "internalType": "uint32",
              "name": "srcEid",
              "type": "uint32"
            },
            {
              "internalType": "bytes32",
              "name": "sender",
              "type": "bytes32"
            },
            {
              "internalType": "uint64",
              "name": "nonce",
              "type": "uint64"
            }
          ],
          "internalType": "struct Origin",
          "name": "_origin",
          "type": "tuple"
        },
        {
          "internalType": "bytes32",
          "name": "_guid",
          "type": "bytes32"
        },
        {
          "internalType": "bytes",
          "name": "_message",
          "type": "bytes"
        },
        {
          "internalType": "address",
          "name": "_executor",
          "type": "address"
        },
        {
          "internalType": "bytes",
          "name": "_extraData",
          "type": "bytes"
        }
      ],
      "name": "lzReceive",
      "outputs": [],
      "stateMutability": "payable",
      "type": "function"
    },
    {
      "inputs": [
        {
          "internalType": "uint32",
          "name": "",
          "type": "uint32"
        },
        {
          "internalType": "bytes32",
          "name": "",
          "type": "bytes32"
        }
      ],
      "name": "nextNonce",
      "outputs": [
        {
          "internalType": "uint64",
          "name": "nonce",
          "type": "uint64"
        }
      ],
      "stateMutability": "view",
      "type": "function"
    },
    {
      "inputs": [],
      "name": "oAppVersion",
      "outputs": [
        {
          "internalType": "uint64",
          "name": "senderVersion",
          "type": "uint64"
        },
        {
          "internalType": "uint64",
          "name": "receiverVersion",
          "type": "uint64"
        }
      ],
      "stateMutability": "pure",
      "type": "function"
    },
    {
      "inputs": [],
      "name": "owner",
      "outputs": [
        {
          "internalType": "address",
          "name": "",
          "type": "address"
        }
      ],
      "stateMutability": "view",
      "type": "function"
    },
    {
      "inputs": [
        {
          "internalType": "uint32",
          "name": "eid",
          "type": "uint32"
        }
      ],
      "name": "peers",
      "outputs": [
        {
          "internalType": "bytes32",
          "name": "peer",
          "type": "bytes32"
        }
      ],
      "stateMutability": "view",
      "type": "function"
    },
    {
      "inputs": [],
      "name": "renounceOwnership",
      "outputs": [],
      "stateMutability": "nonpayable",
      "type": "function"
    },
    {
      "inputs": [
        {
          "internalType": "uint32",
          "name": "_eid",
          "type": "uint32"
        },
        {
          "internalType": "bytes32",
          "name": "_peer",
          "type": "bytes32"
        }
      ],
      "name": "setPeer",
      "outputs": [],
      "stateMutability": "nonpayable",
      "type": "function"
    },
    {
      "inputs": [
        {
          "internalType": "address",
          "name": "newOwner",
          "type": "address"
        }
      ],
      "name": "transferOwnership",
      "outputs": [],
      "stateMutability": "nonpayable",
      "type": "function"
    }
  ],
  "bytecode": "0x60a06040523480156200001157600080fd5b50604051620011c2380380620011c28339818101604052810190620000379190620001e2565b818181816200005b6200004f620000ac60201b60201c565b620000b460201b60201c565b6200006c81620000b460201b60201c565b8173ffffffffffffffffffffffffffffffffffffffff1660808173ffffffffffffffffffffffffffffffffffffffff168152505050505050505062000229565b600033905090565b60008060009054906101000a900473ffffffffffffffffffffffffffffffffffffffff169050816000806101000a81548173ffffffffffffffffffffffffffffffffffffffff021916908373ffffffffffffffffffffffffffffffffffffffff1602179055508173ffffffffffffffffffffffffffffffffffffffff168173ffffffffffffffffffffffffffffffffffffffff167f8be0079c531659141344cd1fd0a4f28419497f9722a3daafe3b4186f6b6457e060405160405180910390a35050565b600080fd5b600073ffffffffffffffffffffffffffffffffffffffff82169050919050565b6000620001aa826200017d565b9050919050565b620001bc816200019d565b8114620001c857600080fd5b50565b600081519050620001dc81620001b1565b92915050565b60008060408385031215620001fc57620001fb62000178565b5b60006200020c85828601620001cb565b92505060206200021f85828601620001cb565b9150509250929050565b608051610f6f62000253600039600081816102a10152818161042401526105120152610f6f6000f3fe60806040526004361061009c5760003560e01c80637d25a05e116100645780637d25a05e146101545780638da5cb5b14610191578063bb0b6a53146101bc578063dbcd3b91146101f9578063f2fde38b14610222578063ff7bd03d1461024b5761009c565b806313137d65146100a157806317442b70146100bd5780633400288b146100e95780635e280f1114610112578063715018a61461013d575b600080fd5b6100bb60048036038101906100b69190610965565b610288565b005b3480156100c957600080fd5b506100d26103aa565b6040516100e0929190610a44565b60405180910390f35b3480156100f557600080fd5b50610110600480360381019061010b9190610aa9565b6103b9565b005b34801561011e57600080fd5b50610127610422565b6040516101349190610b48565b60405180910390f35b34801561014957600080fd5b50610152610446565b005b34801561016057600080fd5b5061017b60048036038101906101769190610aa9565b61045a565b6040516101889190610b63565b60405180910390f35b34801561019d57600080fd5b506101a6610462565b6040516101b39190610b8d565b60405180910390f35b3480156101c857600080fd5b506101e360048036038101906101de9190610ba8565b61048b565b6040516101f09190610be4565b60405180910390f35b34801561020557600080fd5b50610220600480360381019061021b9190610bff565b6104a3565b005b34801561022e57600080fd5b5061024960048036038101906102449190610c4c565b6105b2565b005b34801561025757600080fd5b50610272600480360381019061026d9190610c79565b610635565b60405161027f9190610cc1565b60405180910390f35b3373ffffffffffffffffffffffffffffffffffffffff167f000000000000000000000000000000000000000000000000000000000000000073ffffffffffffffffffffffffffffffffffffffff161461031857336040517f91ac5e4f00000000000000000000000000000000000000000000000000000000815260040161030f9190610b8d565b60405180910390fd5b86602001356103388860000160208101906103339190610ba8565b610676565b14610392578660000160208101906103509190610ba8565b87602001356040517fc26bebcc000000000000000000000000000000000000000000000000000000008152600401610389929190610ceb565b60405180910390fd5b6103a1878787878787876106eb565b50505050505050565b60008060019150600190509091565b6103c16106f4565b80600160008463ffffffff1663ffffffff168152602001908152602001600020819055507f238399d427b947898edb290f5ff0f9109849b1c3ba196a42e35f00c50a54b98b8282604051610416929190610ceb565b60405180910390a15050565b7f000000000000000000000000000000000000000000000000000000000000000081565b61044e6106f4565b6104586000610772565b565b600092915050565b60008060009054906101000a900473ffffffffffffffffffffffffffffffffffffffff16905090565b60016020528060005260406000206000915090505481565b6104ab6106f4565b60008282906104ba9190610d58565b9050632637a45060e01b7bffffffffffffffffffffffffffffffffffffffffffffffffffffffff1916817bffffffffffffffffffffffffffffffffffffffffffffffffffffffff19160361050d57600080fd5b6000807f000000000000000000000000000000000000000000000000000000000000000073ffffffffffffffffffffffffffffffffffffffff168585604051610557929190610df6565b6000604051808303816000865af19150503d8060008114610594576040519150601f19603f3d011682016040523d82523d6000602084013e610599565b606091505b5091509150816105ab57805160208201fd5b5050505050565b6105ba6106f4565b600073ffffffffffffffffffffffffffffffffffffffff168173ffffffffffffffffffffffffffffffffffffffff1603610629576040517f08c379a000000000000000000000000000000000000000000000000000000000815260040161062090610e92565b60405180910390fd5b61063281610772565b50565b60008160200135600160008460000160208101906106539190610ba8565b63ffffffff1663ffffffff16815260200190815260200160002054149050919050565b600080600160008463ffffffff1663ffffffff1681526020019081526020016000205490506000801b81036106e257826040517ff6ff4fb70000000000000000000000000000000000000000000000000000000081526004016106d99190610eb2565b60405180910390fd5b80915050919050565b50505050505050565b6106fc610836565b73ffffffffffffffffffffffffffffffffffffffff1661071a610462565b73ffffffffffffffffffffffffffffffffffffffff1614610770576040517f08c379a000000000000000000000000000000000000000000000000000000000815260040161076790610f19565b60405180910390fd5b565b60008060009054906101000a900473ffffffffffffffffffffffffffffffffffffffff169050816000806101000a81548173ffffffffffffffffffffffffffffffffffffffff021916908373ffffffffffffffffffffffffffffffffffffffff1602179055508173ffffffffffffffffffffffffffffffffffffffff168173ffffffffffffffffffffffffffffffffffffffff167f8be0079c531659141344cd1fd0a4f28419497f9722a3daafe3b4186f6b6457e060405160405180910390a35050565b600033905090565b600080fd5b600080fd5b600080fd5b60006060828403121561086357610862610848565b5b81905092915050565b6000819050919050565b61087f8161086c565b811461088a57600080fd5b50565b60008135905061089c81610876565b92915050565b600080fd5b600080fd5b600080fd5b60008083601f8401126108c7576108c66108a2565b5b8235905067ffffffffffffffff8111156108e4576108e36108a7565b5b602083019150836001820283011115610900576108ff6108ac565b5b9250929050565b600073ffffffffffffffffffffffffffffffffffffffff82169050919050565b600061093282610907565b9050919050565b61094281610927565b811461094d57600080fd5b50565b60008135905061095f81610939565b92915050565b600080600080600080600060e0888a0312156109845761098361083e565b5b60006109928a828b0161084d565b97505060606109a38a828b0161088d565b965050608088013567ffffffffffffffff8111156109c4576109c3610843565b5b6109d08a828b016108b1565b955095505060a06109e38a828b01610950565b93505060c088013567ffffffffffffffff811115610a0457610a03610843565b5b610a108a828b016108b1565b925092505092959891949750929550565b600067ffffffffffffffff82169050919050565b610a3e81610a21565b82525050565b6000604082019050610a596000830185610a35565b610a666020830184610a35565b9392505050565b600063ffffffff82169050919050565b610a8681610a6d565b8114610a9157600080fd5b50565b600081359050610aa381610a7d565b92915050565b60008060408385031215610ac057610abf61083e565b5b6000610ace85828601610a94565b9250506020610adf8582860161088d565b9150509250929050565b6000819050919050565b6000610b0e610b09610b0484610907565b610ae9565b610907565b9050919050565b6000610b2082610af3565b9050919050565b6000610b3282610b15565b9050919050565b610b4281610b27565b82525050565b6000602082019050610b5d6000830184610b39565b92915050565b6000602082019050610b786000830184610a35565b92915050565b610b8781610927565b82525050565b6000602082019050610ba26000830184610b7e565b92915050565b600060208284031215610bbe57610bbd61083e565b5b6000610bcc84828501610a94565b91505092915050565b610bde8161086c565b82525050565b6000602082019050610bf96000830184610bd5565b92915050565b60008060208385031215610c1657610c1561083e565b5b600083013567ffffffffffffffff811115610c3457610c33610843565b5b610c40858286016108b1565b92509250509250929050565b600060208284031215610c6257610c6161083e565b5b6000610c7084828501610950565b91505092915050565b600060608284031215610c8f57610c8e61083e565b5b6000610c9d8482850161084d565b91505092915050565b60008115159050919050565b610cbb81610ca6565b82525050565b6000602082019050610cd66000830184610cb2565b92915050565b610ce581610a6d565b82525050565b6000604082019050610d006000830185610cdc565b610d0d6020830184610bd5565b9392505050565b600082905092915050565b60007fffffffff0000000000000000000000000000000000000000000000000000000082169050919050565b600082821b905092915050565b6000610d648383610d14565b82610d6f8135610d1f565b92506004821015610daf57610daa7fffffffff0000000000000000000000000000000000000000000000000000000083600403600802610d4b565b831692505b505092915050565b600081905092915050565b82818337600083830152505050565b6000610ddd8385610db7565b9350610dea838584610dc2565b82840190509392505050565b6000610e03828486610dd1565b91508190509392505050565b600082825260208201905092915050565b7f4f776e61626c653a206e6577206f776e657220697320746865207a65726f206160008201527f6464726573730000000000000000000000000000000000000000000000000000602082015250565b6000610e7c602683610e0f565b9150610e8782610e20565b604082019050919050565b60006020820190508181036000830152610eab81610e6f565b9050919050565b6000602082019050610ec76000830184610cdc565b92915050565b7f4f776e61626c653a2063616c6c6572206973206e6f7420746865206f776e6572600082015250565b6000610f03602083610e0f565b9150610f0e82610ecd565b602082019050919050565b60006020820190508181036000830152610f3281610ef6565b905091905056fea26469706673582212209576be68152bfe48cb73e66cb4207976e1d44f2f6fc03f7751b6e2cd57a2b92c64736f6c63430008160033",
  "linkReferences": {},
  "deployedLinkReferences": {}
}