{
  "_format": "hh-sol-artifact-1",
  "contractName": "HyperLiquidOFTComposeMsgCodec",
  "sourceName": "@layerzerolabs/oft-hyperliquid-evm/contracts/library/HyperLiquidOFTComposeMsgCodec.sol",
  "abi": [
    {
      "inputs": [
        {
          "internalType": "bytes",
          "name": "message",
          "type": "bytes"
        },
        {
          "internalType": "uint256",
          "name": "length",
          "type": "uint256"
        }
      ],
      "name": "HyperLiquidComposer_Codec_InvalidMessage_UnexpectedLength",
      "type": "error"
    },
    {
      "inputs": [],
      "name": "VALID_COMPOSE_MESSAGE_LENGTH_PACKED",
      "outputs": [
        {
          "internalType": "uint256",
          "name": "",
          "type": "uint256"
        }
      ],
      "stateMutability": "view",
      "type": "function"
    }
  ],
  "bytecode": "0x6087610038600b82828239805160001a607314602b57634e487b7160e01b600052600060045260246000fd5b30600052607381538281f3fe730000000000000000000000000000000000000000301460806040526004361060335760003560e01c8063807d6c3f146038575b600080fd5b603f601481565b60405190815260200160405180910390f3fea264697066735822122079c1fa01864da7a931439f8fd3ee592caacc325d28d016c459d599003cec05d764736f6c63430008160033",
  "linkReferences": {},
  "deployedLinkReferences": {}
}