{
  "_format": "hh-sol-artifact-1",
  "contractName": "MyOFTMock",
  "sourceName": "contracts/mocks/MyOFTMock.sol",
  "abi": [
    {
      "inputs": [
        {
          "internalType": "string",
          "name": "_name",
          "type": "string"
        },
        {
          "internalType": "string",
          "name": "_symbol",
          "type": "string"
        },
        {
          "internalType": "address",
          "name": "_lzEndpoint",
          "type": "address"
        },
        {
          "internalType": "address",
          "name": "_delegate",
          "type": "address"
        }
      ],
      "stateMutability": "nonpayable",
      "type": "constructor"
    },
    {
      "inputs": [
        {
          "internalType": "address",
          "name": "spender",
          "type": "address"
        },
        {
          "internalType": "uint256",
          "name": "allowance",
          "type": "uint256"
        },
        {
          "internalType": "uint256",
          "name": "needed",
          "type": "uint256"
        }
      ],
      "name": "ERC20InsufficientAllowance",
      "type": "error"
    },
    {
      "inputs": [
        {
          "internalType": "address",
          "name": "sender",
          "type": "address"
        },
        {
          "internalType": "uint256",
          "name": "balance",
          "type": "uint256"
        },
        {
          "internalType": "uint256",
          "name": "needed",
          "type": "uint256"
        }
      ],
      "name": "ERC20InsufficientBalance",
      "type": "error"
    },
    {
      "inputs": [
        {
          "internalType": "address",
          "name": "approver",
          "type": "address"
        }
      ],
      "name": "ERC20InvalidApprover",
      "type": "error"
    },
    {
      "inputs": [
        {
          "internalType": "address",
          "name": "receiver",
          "type": "address"
        }
      ],
      "name": "ERC20InvalidReceiver",
      "type": "error"
    },
    {
      "inputs": [
        {
          "internalType": "address",
          "name": "sender",
          "type": "address"
        }
      ],
      "name": "ERC20InvalidSender",
      "type": "error"
    },
    {
      "inputs": [
        {
          "internalType": "address",
          "name": "spender",
          "type": "address"
        }
      ],
      "name": "ERC20InvalidSpender",
      "type": "error"
    },
    {
      "inputs": [],
      "name": "InvalidDelegate",
      "type": "error"
    },
    {
      "inputs": [],
      "name": "InvalidEndpointCall",
      "type": "error"
    },
    {
      "inputs": [],
      "name": "InvalidLocalDecimals",
      "type": "error"
    },
    {
      "inputs": [
        {
          "internalType": "bytes",
          "name": "options",
          "type": "bytes"
        }
      ],
      "name": "InvalidOptions",
      "type": "error"
    },
    {
      "inputs": [],
      "name": "LzTokenUnavailable",
      "type": "error"
    },
    {
      "inputs": [
        {
          "internalType": "uint32",
          "name": "eid",
          "type": "uint32"
        }
      ],
      "name": "NoPeer",
      "type": "error"
    },
    {
      "inputs": [
        {
          "internalType": "uint256",
          "name": "msgValue",
          "type": "uint256"
        }
      ],
      "name": "NotEnoughNative",
      "type": "error"
    },
    {
      "inputs": [
        {
          "internalType": "address",
          "name": "addr",
          "type": "address"
        }
      ],
      "name": "OnlyEndpoint",
      "type": "error"
    },
    {
      "inputs": [
        {
          "internalType": "uint32",
          "name": "eid",
          "type": "uint32"
        },
        {
          "internalType": "bytes32",
          "name": "sender",
          "type": "bytes32"
        }
      ],
      "name": "OnlyPeer",
      "type": "error"
    },
    {
      "inputs": [],
      "name": "OnlySelf",
      "type": "error"
    },
    {
      "inputs": [
        {
          "internalType": "address",
          "name": "owner",
          "type": "address"
        }
      ],
      "name": "OwnableInvalidOwner",
      "type": "error"
    },
    {
      "inputs": [
        {
          "internalType": "address",
          "name": "account",
          "type": "address"
        }
      ],
      "name": "OwnableUnauthorizedAccount",
      "type": "error"
    },
    {
      "inputs": [
        {
          "internalType": "address",
          "name": "token",
          "type": "address"
        }
      ],
      "name": "SafeERC20FailedOperation",
      "type": "error"
    },
    {
      "inputs": [
        {
          "internalType": "bytes",
          "name": "result",
          "type": "bytes"
        }
      ],
      "name": "SimulationResult",
      "type": "error"
    },
    {
      "inputs": [
        {
          "internalType": "uint256",
          "name": "amountLD",
          "type": "uint256"
        },
        {
          "internalType": "uint256",
          "name": "minAmountLD",
          "type": "uint256"
        }
      ],
      "name": "SlippageExceeded",
      "type": "error"
    },
    {
      "anonymous": false,
      "inputs": [
        {
          "indexed": true,
          "internalType": "address",
          "name": "owner",
          "type": "address"
        },
        {
          "indexed": true,
          "internalType": "address",
          "name": "spender",
          "type": "address"
        },
        {
          "indexed": false,
          "internalType": "uint256",
          "name": "value",
          "type": "uint256"
        }
      ],
      "name": "Approval",
      "type": "event"
    },
    {
      "anonymous": false,
      "inputs": [
        {
          "components": [
            {
              "internalType": "uint32",
              "name": "eid",
              "type": "uint32"
            },
            {
              "internalType": "uint16",
              "name": "msgType",
              "type": "uint16"
            },
            {
              "internalType": "bytes",
              "name": "options",
              "type": "bytes"
            }
          ],
          "indexed": false,
          "internalType": "struct EnforcedOptionParam[]",
          "name": "_enforcedOptions",
          "type": "tuple[]"
        }
      ],
      "name": "EnforcedOptionSet",
      "type": "event"
    },
    {
      "anonymous": false,
      "inputs": [
        {
          "indexed": false,
          "internalType": "address",
          "name": "inspector",
          "type": "address"
        }
      ],
      "name": "MsgInspectorSet",
      "type": "event"
    },
    {
      "anonymous": false,
      "inputs": [
        {
          "indexed": true,
          "internalType": "bytes32",
          "name": "guid",
          "type": "bytes32"
        },
        {
          "indexed": false,
          "internalType": "uint32",
          "name": "srcEid",
          "type": "uint32"
        },
        {
          "indexed": true,
          "internalType": "address",
          "name": "toAddress",
          "type": "address"
        },
        {
          "indexed": false,
          "internalType": "uint256",
          "name": "amountReceivedLD",
          "type": "uint256"
        }
      ],
      "name": "OFTReceived",
      "type": "event"
    },
    {
      "anonymous": false,
      "inputs": [
        {
          "indexed": true,
          "internalType": "bytes32",
          "name": "guid",
          "type": "bytes32"
        },
        {
          "indexed": false,
          "internalType": "uint32",
          "name": "dstEid",
          "type": "uint32"
        },
        {
          "indexed": true,
          "internalType": "address",
          "name": "fromAddress",
          "type": "address"
        },
        {
          "indexed": false,
          "internalType": "uint256",
          "name": "amountSentLD",
          "type": "uint256"
        },
        {
          "indexed": false,
          "internalType": "uint256",
          "name": "amountReceivedLD",
          "type": "uint256"
        }
      ],
      "name": "OFTSent",
      "type": "event"
    },
    {
      "anonymous": false,
      "inputs": [
        {
          "indexed": true,
          "internalType": "address",
          "name": "previousOwner",
          "type": "address"
        },
        {
          "indexed": true,
          "internalType": "address",
          "name": "newOwner",
          "type": "address"
        }
      ],
      "name": "OwnershipTransferred",
      "type": "event"
    },
    {
      "anonymous": false,
      "inputs": [
        {
          "indexed": false,
          "internalType": "uint32",
          "name": "eid",
          "type": "uint32"
        },
        {
          "indexed": false,
          "internalType": "bytes32",
          "name": "peer",
          "type": "bytes32"
        }
      ],
      "name": "PeerSet",
      "type": "event"
    },
    {
      "anonymous": false,
      "inputs": [
        {
          "indexed": false,
          "internalType": "address",
          "name": "preCrimeAddress",
          "type": "address"
        }
      ],
      "name": "PreCrimeSet",
      "type": "event"
    },
    {
      "anonymous": false,
      "inputs": [
        {
          "indexed": true,
          "internalType": "address",
          "name": "from",
          "type": "address"
        },
        {
          "indexed": true,
          "internalType": "address",
          "name": "to",
          "type": "address"
        },
        {
          "indexed": false,
          "internalType": "uint256",
          "name": "value",
          "type": "uint256"
        }
      ],
      "name": "Transfer",
      "type": "event"
    },
    {
      "inputs": [],
      "name": "SEND",
      "outputs": [
        {
          "internalType": "uint16",
          "name": "",
          "type": "uint16"
        }
      ],
      "stateMutability": "view",
      "type": "function"
    },
    {
      "inputs": [],
      "name": "SEND_AND_CALL",
      "outputs": [
        {
          "internalType": "uint16",
          "name": "",
          "type": "uint16"
        }
      ],
      "stateMutability": "view",
      "type": "function"
    },
    {
      "inputs": [
        {
          "components": [
            {
              "internalType": "uint32",
              "name": "srcEid",
              "type": "uint32"
            },
            {
              "internalType": "bytes32",
              "name": "sender",
              "type": "bytes32"
            },
            {
              "internalType": "uint64",
              "name": "nonce",
              "type": "uint64"
            }
          ],
          "internalType": "struct Origin",
          "name": "origin",
          "type": "tuple"
        }
      ],
      "name": "allowInitializePath",
      "outputs": [
        {
          "internalType": "bool",
          "name": "",
          "type": "bool"
        }
      ],
      "stateMutability": "view",
      "type": "function"
    },
    {
      "inputs": [
        {
          "internalType": "address",
          "name": "owner",
          "type": "address"
        },
        {
          "internalType": "address",
          "name": "spender",
          "type": "address"
        }
      ],
      "name": "allowance",
      "outputs": [
        {
          "internalType": "uint256",
          "name": "",
          "type": "uint256"
        }
      ],
      "stateMutability": "view",
      "type": "function"
    },
    {
      "inputs": [],
      "name": "approvalRequired",
      "outputs": [
        {
          "internalType": "bool",
          "name": "",
          "type": "bool"
        }
      ],
      "stateMutability": "pure",
      "type": "function"
    },
    {
      "inputs": [
        {
          "internalType": "address",
          "name": "spender",
          "type": "address"
        },
        {
          "internalType": "uint256",
          "name": "value",
          "type": "uint256"
        }
      ],
      "name": "approve",
      "outputs": [
        {
          "internalType": "bool",
          "name": "",
          "type": "bool"
        }
      ],
      "stateMutability": "nonpayable",
      "type": "function"
    },
    {
      "inputs": [
        {
          "internalType": "address",
          "name": "account",
          "type": "address"
        }
      ],
      "name": "balanceOf",
      "outputs": [
        {
          "internalType": "uint256",
          "name": "",
          "type": "uint256"
        }
      ],
      "stateMutability": "view",
      "type": "function"
    },
    {
      "inputs": [
        {
          "internalType": "uint32",
          "name": "_eid",
          "type": "uint32"
        },
        {
          "internalType": "uint16",
          "name": "_msgType",
          "type": "uint16"
        },
        {
          "internalType": "bytes",
          "name": "_extraOptions",
          "type": "bytes"
        }
      ],
      "name": "combineOptions",
      "outputs": [
        {
          "internalType": "bytes",
          "name": "",
          "type": "bytes"
        }
      ],
      "stateMutability": "view",
      "type": "function"
    },
    {
      "inputs": [],
      "name": "decimalConversionRate",
      "outputs": [
        {
          "internalType": "uint256",
          "name": "",
          "type": "uint256"
        }
      ],
      "stateMutability": "view",
      "type": "function"
    },
    {
      "inputs": [],
      "name": "decimals",
      "outputs": [
        {
          "internalType": "uint8",
          "name": "",
          "type": "uint8"
        }
      ],
      "stateMutability": "view",
      "type": "function"
    },
    {
      "inputs": [],
      "name": "endpoint",
      "outputs": [
        {
          "internalType": "contract ILayerZeroEndpointV2",
          "name": "",
          "type": "address"
        }
      ],
      "stateMutability": "view",
      "type": "function"
    },
    {
      "inputs": [
        {
          "internalType": "uint32",
          "name": "eid",
          "type": "uint32"
        },
        {
          "internalType": "uint16",
          "name": "msgType",
          "type": "uint16"
        }
      ],
      "name": "enforcedOptions",
      "outputs": [
        {
          "internalType": "bytes",
          "name": "enforcedOption",
          "type": "bytes"
        }
      ],
      "stateMutability": "view",
      "type": "function"
    },
    {
      "inputs": [
        {
          "components": [
            {
              "internalType": "uint32",
              "name": "srcEid",
              "type": "uint32"
            },
            {
              "internalType": "bytes32",
              "name": "sender",
              "type": "bytes32"
            },
            {
              "internalType": "uint64",
              "name": "nonce",
              "type": "uint64"
            }
          ],
          "internalType": "struct Origin",
          "name": "",
          "type": "tuple"
        },
        {
          "internalType": "bytes",
          "name": "",
          "type": "bytes"
        },
        {
          "internalType": "address",
          "name": "_sender",
          "type": "address"
        }
      ],
      "name": "isComposeMsgSender",
      "outputs": [
        {
          "internalType": "bool",
          "name": "",
          "type": "bool"
        }
      ],
      "stateMutability": "view",
      "type": "function"
    },
    {
      "inputs": [
        {
          "internalType": "uint32",
          "name": "_eid",
          "type": "uint32"
        },
        {
          "internalType": "bytes32",
          "name": "_peer",
          "type": "bytes32"
        }
      ],
      "name": "isPeer",
      "outputs": [
        {
          "internalType": "bool",
          "name": "",
          "type": "bool"
        }
      ],
      "stateMutability": "view",
      "type": "function"
    },
    {
      "inputs": [
        {
          "components": [
            {
              "internalType": "uint32",
              "name": "srcEid",
              "type": "uint32"
            },
            {
              "internalType": "bytes32",
              "name": "sender",
              "type": "bytes32"
            },
            {
              "internalType": "uint64",
              "name": "nonce",
              "type": "uint64"
            }
          ],
          "internalType": "struct Origin",
          "name": "_origin",
          "type": "tuple"
        },
        {
          "internalType": "bytes32",
          "name": "_guid",
          "type": "bytes32"
        },
        {
          "internalType": "bytes",
          "name": "_message",
          "type": "bytes"
        },
        {
          "internalType": "address",
          "name": "_executor",
          "type": "address"
        },
        {
          "internalType": "bytes",
          "name": "_extraData",
          "type": "bytes"
        }
      ],
      "name": "lzReceive",
      "outputs": [],
      "stateMutability": "payable",
      "type": "function"
    },
    {
      "inputs": [
        {
          "components": [
            {
              "components": [
                {
                  "internalType": "uint32",
                  "name": "srcEid",
                  "type": "uint32"
                },
                {
                  "internalType": "bytes32",
                  "name": "sender",
                  "type": "bytes32"
                },
                {
                  "internalType": "uint64",
                  "name": "nonce",
                  "type": "uint64"
                }
              ],
              "internalType": "struct Origin",
              "name": "origin",
              "type": "tuple"
            },
            {
              "internalType": "uint32",
              "name": "dstEid",
              "type": "uint32"
            },
            {
              "internalType": "address",
              "name": "receiver",
              "type": "address"
            },
            {
              "internalType": "bytes32",
              "name": "guid",
              "type": "bytes32"
            },
            {
              "internalType": "uint256",
              "name": "value",
              "type": "uint256"
            },
            {
              "internalType": "address",
              "name": "executor",
              "type": "address"
            },
            {
              "internalType": "bytes",
              "name": "message",
              "type": "bytes"
            },
            {
              "internalType": "bytes",
              "name": "extraData",
              "type": "bytes"
            }
          ],
          "internalType": "struct InboundPacket[]",
          "name": "_packets",
          "type": "tuple[]"
        }
      ],
      "name": "lzReceiveAndRevert",
      "outputs": [],
      "stateMutability": "payable",
      "type": "function"
    },
    {
      "inputs": [
        {
          "components": [
            {
              "internalType": "uint32",
              "name": "srcEid",
              "type": "uint32"
            },
            {
              "internalType": "bytes32",
              "name": "sender",
              "type": "bytes32"
            },
            {
              "internalType": "uint64",
              "name": "nonce",
              "type": "uint64"
            }
          ],
          "internalType": "struct Origin",
          "name": "_origin",
          "type": "tuple"
        },
        {
          "internalType": "bytes32",
          "name": "_guid",
          "type": "bytes32"
        },
        {
          "internalType": "bytes",
          "name": "_message",
          "type": "bytes"
        },
        {
          "internalType": "address",
          "name": "_executor",
          "type": "address"
        },
        {
          "internalType": "bytes",
          "name": "_extraData",
          "type": "bytes"
        }
      ],
      "name": "lzReceiveSimulate",
      "outputs": [],
      "stateMutability": "payable",
      "type": "function"
    },
    {
      "inputs": [
        {
          "internalType": "address",
          "name": "_to",
          "type": "address"
        },
        {
          "internalType": "uint256",
          "name": "_amount",
          "type": "uint256"
        }
      ],
      "name": "mint",
      "outputs": [],
      "stateMutability": "nonpayable",
      "type": "function"
    },
    {
      "inputs": [],
      "name": "msgInspector",
      "outputs": [
        {
          "internalType": "address",
          "name": "",
          "type": "address"
        }
      ],
      "stateMutability": "view",
      "type": "function"
    },
    {
      "inputs": [],
      "name": "name",
      "outputs": [
        {
          "internalType": "string",
          "name": "",
          "type": "string"
        }
      ],
      "stateMutability": "view",
      "type": "function"
    },
    {
      "inputs": [
        {
          "internalType": "uint32",
          "name": "",
          "type": "uint32"
        },
        {
          "internalType": "bytes32",
          "name": "",
          "type": "bytes32"
        }
      ],
      "name": "nextNonce",
      "outputs": [
        {
          "internalType": "uint64",
          "name": "nonce",
          "type": "uint64"
        }
      ],
      "stateMutability": "view",
      "type": "function"
    },
    {
      "inputs": [],
      "name": "oApp",
      "outputs": [
        {
          "internalType": "address",
          "name": "",
          "type": "address"
        }
      ],
      "stateMutability": "view",
      "type": "function"
    },
    {
      "inputs": [],
      "name": "oAppVersion",
      "outputs": [
        {
          "internalType": "uint64",
          "name": "senderVersion",
          "type": "uint64"
        },
        {
          "internalType": "uint64",
          "name": "receiverVersion",
          "type": "uint64"
        }
      ],
      "stateMutability": "pure",
      "type": "function"
    },
    {
      "inputs": [],
      "name": "oftVersion",
      "outputs": [
        {
          "internalType": "bytes4",
          "name": "interfaceId",
          "type": "bytes4"
        },
        {
          "internalType": "uint64",
          "name": "version",
          "type": "uint64"
        }
      ],
      "stateMutability": "pure",
      "type": "function"
    },
    {
      "inputs": [],
      "name": "owner",
      "outputs": [
        {
          "internalType": "address",
          "name": "",
          "type": "address"
        }
      ],
      "stateMutability": "view",
      "type": "function"
    },
    {
      "inputs": [
        {
          "internalType": "uint32",
          "name": "eid",
          "type": "uint32"
        }
      ],
      "name": "peers",
      "outputs": [
        {
          "internalType": "bytes32",
          "name": "peer",
          "type": "bytes32"
        }
      ],
      "stateMutability": "view",
      "type": "function"
    },
    {
      "inputs": [],
      "name": "preCrime",
      "outputs": [
        {
          "internalType": "address",
          "name": "",
          "type": "address"
        }
      ],
      "stateMutability": "view",
      "type": "function"
    },
    {
      "inputs": [
        {
          "components": [
            {
              "internalType": "uint32",
              "name": "dstEid",
              "type": "uint32"
            },
            {
              "internalType": "bytes32",
              "name": "to",
              "type": "bytes32"
            },
            {
              "internalType": "uint256",
              "name": "amountLD",
              "type": "uint256"
            },
            {
              "internalType": "uint256",
              "name": "minAmountLD",
              "type": "uint256"
            },
            {
              "internalType": "bytes",
              "name": "extraOptions",
              "type": "bytes"
            },
            {
              "internalType": "bytes",
              "name": "composeMsg",
              "type": "bytes"
            },
            {
              "internalType": "bytes",
              "name": "oftCmd",
              "type": "bytes"
            }
          ],
          "internalType": "struct SendParam",
          "name": "_sendParam",
          "type": "tuple"
        }
      ],
      "name": "quoteOFT",
      "outputs": [
        {
          "components": [
            {
              "internalType": "uint256",
              "name": "minAmountLD",
              "type": "uint256"
            },
            {
              "internalType": "uint256",
              "name": "maxAmountLD",
              "type": "uint256"
            }
          ],
          "internalType": "struct OFTLimit",
          "name": "oftLimit",
          "type": "tuple"
        },
        {
          "components": [
            {
              "internalType": "int256",
              "name": "feeAmountLD",
              "type": "int256"
            },
            {
              "internalType": "string",
              "name": "description",
              "type": "string"
            }
          ],
          "internalType": "struct OFTFeeDetail[]",
          "name": "oftFeeDetails",
          "type": "tuple[]"
        },
        {
          "components": [
            {
              "internalType": "uint256",
              "name": "amountSentLD",
              "type": "uint256"
            },
            {
              "internalType": "uint256",
              "name": "amountReceivedLD",
              "type": "uint256"
            }
          ],
          "internalType": "struct OFTReceipt",
          "name": "oftReceipt",
          "type": "tuple"
        }
      ],
      "stateMutability": "view",
      "type": "function"
    },
    {
      "inputs": [
        {
          "components": [
            {
              "internalType": "uint32",
              "name": "dstEid",
              "type": "uint32"
            },
            {
              "internalType": "bytes32",
              "name": "to",
              "type": "bytes32"
            },
            {
              "internalType": "uint256",
              "name": "amountLD",
              "type": "uint256"
            },
            {
              "internalType": "uint256",
              "name": "minAmountLD",
              "type": "uint256"
            },
            {
              "internalType": "bytes",
              "name": "extraOptions",
              "type": "bytes"
            },
            {
              "internalType": "bytes",
              "name": "composeMsg",
              "type": "bytes"
            },
            {
              "internalType": "bytes",
              "name": "oftCmd",
              "type": "bytes"
            }
          ],
          "internalType": "struct SendParam",
          "name": "_sendParam",
          "type": "tuple"
        },
        {
          "internalType": "bool",
          "name": "_payInLzToken",
          "type": "bool"
        }
      ],
      "name": "quoteSend",
      "outputs": [
        {
          "components": [
            {
              "internalType": "uint256",
              "name": "nativeFee",
              "type": "uint256"
            },
            {
              "internalType": "uint256",
              "name": "lzTokenFee",
              "type": "uint256"
            }
          ],
          "internalType": "struct MessagingFee",
          "name": "msgFee",
          "type": "tuple"
        }
      ],
      "stateMutability": "view",
      "type": "function"
    },
    {
      "inputs": [],
      "name": "renounceOwnership",
      "outputs": [],
      "stateMutability": "nonpayable",
      "type": "function"
    },
    {
      "inputs": [
        {
          "components": [
            {
              "internalType": "uint32",
              "name": "dstEid",
              "type": "uint32"
            },
            {
              "internalType": "bytes32",
              "name": "to",
              "type": "bytes32"
            },
            {
              "internalType": "uint256",
              "name": "amountLD",
              "type": "uint256"
            },
            {
              "internalType": "uint256",
              "name": "minAmountLD",
              "type": "uint256"
            },
            {
              "internalType": "bytes",
              "name": "extraOptions",
              "type": "bytes"
            },
            {
              "internalType": "bytes",
              "name": "composeMsg",
              "type": "bytes"
            },
            {
              "internalType": "bytes",
              "name": "oftCmd",
              "type": "bytes"
            }
          ],
          "internalType": "struct SendParam",
          "name": "_sendParam",
          "type": "tuple"
        },
        {
          "components": [
            {
              "internalType": "uint256",
              "name": "nativeFee",
              "type": "uint256"
            },
            {
              "internalType": "uint256",
              "name": "lzTokenFee",
              "type": "uint256"
            }
          ],
          "internalType": "struct MessagingFee",
          "name": "_fee",
          "type": "tuple"
        },
        {
          "internalType": "address",
          "name": "_refundAddress",
          "type": "address"
        }
      ],
      "name": "send",
      "outputs": [
        {
          "components": [
            {
              "internalType": "bytes32",
              "name": "guid",
              "type": "bytes32"
            },
            {
              "internalType": "uint64",
              "name": "nonce",
              "type": "uint64"
            },
            {
              "components": [
                {
                  "internalType": "uint256",
                  "name": "nativeFee",
                  "type": "uint256"
                },
                {
                  "internalType": "uint256",
                  "name": "lzTokenFee",
                  "type": "uint256"
                }
              ],
              "internalType": "struct MessagingFee",
              "name": "fee",
              "type": "tuple"
            }
          ],
          "internalType": "struct MessagingReceipt",
          "name": "msgReceipt",
          "type": "tuple"
        },
        {
          "components": [
            {
              "internalType": "uint256",
              "name": "amountSentLD",
              "type": "uint256"
            },
            {
              "internalType": "uint256",
              "name": "amountReceivedLD",
              "type": "uint256"
            }
          ],
          "internalType": "struct OFTReceipt",
          "name": "oftReceipt",
          "type": "tuple"
        }
      ],
      "stateMutability": "payable",
      "type": "function"
    },
    {
      "inputs": [
        {
          "internalType": "address",
          "name": "_delegate",
          "type": "address"
        }
      ],
      "name": "setDelegate",
      "outputs": [],
      "stateMutability": "nonpayable",
      "type": "function"
    },
    {
      "inputs": [
        {
          "components": [
            {
              "internalType": "uint32",
              "name": "eid",
              "type": "uint32"
            },
            {
              "internalType": "uint16",
              "name": "msgType",
              "type": "uint16"
            },
            {
              "internalType": "bytes",
              "name": "options",
              "type": "bytes"
            }
          ],
          "internalType": "struct EnforcedOptionParam[]",
          "name": "_enforcedOptions",
          "type": "tuple[]"
        }
      ],
      "name": "setEnforcedOptions",
      "outputs": [],
      "stateMutability": "nonpayable",
      "type": "function"
    },
    {
      "inputs": [
        {
          "internalType": "address",
          "name": "_msgInspector",
          "type": "address"
        }
      ],
      "name": "setMsgInspector",
      "outputs": [],
      "stateMutability": "nonpayable",
      "type": "function"
    },
    {
      "inputs": [
        {
          "internalType": "uint32",
          "name": "_eid",
          "type": "uint32"
        },
        {
          "internalType": "bytes32",
          "name": "_peer",
          "type": "bytes32"
        }
      ],
      "name": "setPeer",
      "outputs": [],
      "stateMutability": "nonpayable",
      "type": "function"
    },
    {
      "inputs": [
        {
          "internalType": "address",
          "name": "_preCrime",
          "type": "address"
        }
      ],
      "name": "setPreCrime",
      "outputs": [],
      "stateMutability": "nonpayable",
      "type": "function"
    },
    {
      "inputs": [],
      "name": "sharedDecimals",
      "outputs": [
        {
          "internalType": "uint8",
          "name": "",
          "type": "uint8"
        }
      ],
      "stateMutability": "view",
      "type": "function"
    },
    {
      "inputs": [],
      "name": "symbol",
      "outputs": [
        {
          "internalType": "string",
          "name": "",
          "type": "string"
        }
      ],
      "stateMutability": "view",
      "type": "function"
    },
    {
      "inputs": [],
      "name": "token",
      "outputs": [
        {
          "internalType": "address",
          "name": "",
          "type": "address"
        }
      ],
      "stateMutability": "view",
      "type": "function"
    },
    {
      "inputs": [],
      "name": "totalSupply",
      "outputs": [
        {
          "internalType": "uint256",
          "name": "",
          "type": "uint256"
        }
      ],
      "stateMutability": "view",
      "type": "function"
    },
    {
      "inputs": [
        {
          "internalType": "address",
          "name": "to",
          "type": "address"
        },
        {
          "internalType": "uint256",
          "name": "value",
          "type": "uint256"
        }
      ],
      "name": "transfer",
      "outputs": [
        {
          "internalType": "bool",
          "name": "",
          "type": "bool"
        }
      ],
      "stateMutability": "nonpayable",
      "type": "function"
    },
    {
      "inputs": [
        {
          "internalType": "address",
          "name": "from",
          "type": "address"
        },
        {
          "internalType": "address",
          "name": "to",
          "type": "address"
        },
        {
          "internalType": "uint256",
          "name": "value",
          "type": "uint256"
        }
      ],
      "name": "transferFrom",
      "outputs": [
        {
          "internalType": "bool",
          "name": "",
          "type": "bool"
        }
      ],
      "stateMutability": "nonpayable",
      "type": "function"
    },
    {
      "inputs": [
        {
          "internalType": "address",
          "name": "newOwner",
          "type": "address"
        }
      ],
      "name": "transferOwnership",
      "outputs": [],
      "stateMutability": "nonpayable",
      "type": "function"
    }
  ],
  "bytecode": "0x60c06040523480156200001157600080fd5b50604051620036a7380380620036a78339810160408190526200003491620002da565b8383838383838383838360128484818181818d6001600160a01b0381166200007657604051631e4fbdf760e01b81526000600482015260240160405180910390fd5b6200008181620001a0565b506001600160a01b038083166080528116620000b057604051632d618d8160e21b815260040160405180910390fd5b60805160405163ca5eb5e160e01b81526001600160a01b0383811660048301529091169063ca5eb5e190602401600060405180830381600087803b158015620000f857600080fd5b505af11580156200010d573d6000803e3d6000fd5b505050505050505062000125620001f060201b60201c565b60ff168360ff1610156200014c576040516301e9714b60e41b815260040160405180910390fd5b620001596006846200037f565b6200016690600a6200049e565b60a05250600891506200017c9050838262000547565b5060096200018b828262000547565b50505050505050505050505050505062000613565b600080546001600160a01b038381166001600160a01b0319831681178455604051919092169283917f8be0079c531659141344cd1fd0a4f28419497f9722a3daafe3b4186f6b6457e09190a35050565b600690565b634e487b7160e01b600052604160045260246000fd5b600082601f8301126200021d57600080fd5b81516001600160401b03808211156200023a576200023a620001f5565b604051601f8301601f19908116603f01168101908282118183101715620002655762000265620001f5565b81604052838152602092508660208588010111156200028357600080fd5b600091505b83821015620002a7578582018301518183018401529082019062000288565b6000602085830101528094505050505092915050565b80516001600160a01b0381168114620002d557600080fd5b919050565b60008060008060808587031215620002f157600080fd5b84516001600160401b03808211156200030957600080fd5b62000317888389016200020b565b955060208701519150808211156200032e57600080fd5b506200033d878288016200020b565b9350506200034e60408601620002bd565b91506200035e60608601620002bd565b905092959194509250565b634e487b7160e01b600052601160045260246000fd5b60ff82811682821603908111156200039b576200039b62000369565b92915050565b600181815b80851115620003e2578160001904821115620003c657620003c662000369565b80851615620003d457918102915b93841c9390800290620003a6565b509250929050565b600082620003fb575060016200039b565b816200040a575060006200039b565b81600181146200042357600281146200042e576200044e565b60019150506200039b565b60ff84111562000442576200044262000369565b50506001821b6200039b565b5060208310610133831016604e8410600b841016171562000473575081810a6200039b565b6200047f8383620003a1565b806000190482111562000496576200049662000369565b029392505050565b6000620004af60ff841683620003ea565b9392505050565b600181811c90821680620004cb57607f821691505b602082108103620004ec57634e487b7160e01b600052602260045260246000fd5b50919050565b601f82111562000542576000816000526020600020601f850160051c810160208610156200051d5750805b601f850160051c820191505b818110156200053e5782815560010162000529565b5050505b505050565b81516001600160401b03811115620005635762000563620001f5565b6200057b81620005748454620004b6565b84620004f2565b602080601f831160018114620005b357600084156200059a5750858301515b600019600386901b1c1916600185901b1785556200053e565b600085815260208120601f198616915b82811015620005e457888601518255948401946001909101908401620005c3565b5085821015620006035787850151600019600388901b60f8161c191681555b5050505050600190811b01905550565b60805160a0516130286200067f6000396000818161064901528181611a4b01528181611ac00152611cc4015260008181610508015281816109b80152818161101201528181611289015281816115f301528181611dbc01528181611ef60152611fad01526130286000f3fe60806040526004361061025c5760003560e01c8063715018a611610144578063bb0b6a53116100b6578063d045a0dc1161007a578063d045a0dc14610780578063d424388514610793578063dd62ed3e146107b3578063f2fde38b146107f9578063fc0c546a1461048c578063ff7bd03d1461081957600080fd5b8063bb0b6a53146106df578063bc70b3541461070c578063bd815db01461072c578063c7c7f5b31461073f578063ca5eb5e11461076057600080fd5b806395d89b411161010857806395d89b4114610622578063963efcaa146106375780639f68b9641461066b578063a9059cbb1461067f578063b731ea0a1461069f578063b98bd070146106bf57600080fd5b8063715018a6146105805780637d25a05e1461059557806382413eac146105d0578063857749b0146105f05780638da5cb5b1461060457600080fd5b806323b872dd116101dd57806352ae2879116101a157806352ae28791461048c5780635535d4611461049f5780635a0dfe4d146104bf5780635e280f11146104f65780636fc1b31e1461052a57806370a082311461054a57600080fd5b806323b872dd146103dd578063313ce567146103fd5780633400288b1461041f5780633b6f743b1461043f57806340c10f191461046c57600080fd5b8063134d4f2511610224578063134d4f2514610338578063156a0d0f1461036057806317442b701461038757806318160ddd146103a95780631f5e1334146103c857600080fd5b806306fdde0314610261578063095ea7b31461028c5780630d35b415146102bc578063111ecdad146102eb57806313137d6514610323575b600080fd5b34801561026d57600080fd5b50610276610839565b6040516102839190612125565b60405180910390f35b34801561029857600080fd5b506102ac6102a736600461214d565b6108cb565b6040519015158152602001610283565b3480156102c857600080fd5b506102dc6102d7366004612191565b6108e5565b604051610283939291906121c5565b3480156102f757600080fd5b5060045461030b906001600160a01b031681565b6040516001600160a01b039091168152602001610283565b6103366103313660046122b8565b6109b6565b005b34801561034457600080fd5b5061034d600281565b60405161ffff9091168152602001610283565b34801561036c57600080fd5b506040805162b9270b60e21b81526001602082015201610283565b34801561039357600080fd5b5060408051600181526002602082015201610283565b3480156103b557600080fd5b506007545b604051908152602001610283565b3480156103d457600080fd5b5061034d600181565b3480156103e957600080fd5b506102ac6103f8366004612357565b610a76565b34801561040957600080fd5b5060125b60405160ff9091168152602001610283565b34801561042b57600080fd5b5061033661043a3660046123b1565b610a9c565b34801561044b57600080fd5b5061045f61045a3660046123db565b610ab2565b604051610283919061242c565b34801561047857600080fd5b5061033661048736600461214d565b610b19565b34801561049857600080fd5b503061030b565b3480156104ab57600080fd5b506102766104ba366004612455565b610b23565b3480156104cb57600080fd5b506102ac6104da3660046123b1565b63ffffffff919091166000908152600160205260409020541490565b34801561050257600080fd5b5061030b7f000000000000000000000000000000000000000000000000000000000000000081565b34801561053657600080fd5b50610336610545366004612488565b610bc8565b34801561055657600080fd5b506103ba610565366004612488565b6001600160a01b031660009081526005602052604090205490565b34801561058c57600080fd5b50610336610c25565b3480156105a157600080fd5b506105b86105b03660046123b1565b600092915050565b6040516001600160401b039091168152602001610283565b3480156105dc57600080fd5b506102ac6105eb3660046124a5565b610c39565b3480156105fc57600080fd5b50600661040d565b34801561061057600080fd5b506000546001600160a01b031661030b565b34801561062e57600080fd5b50610276610c4e565b34801561064357600080fd5b506103ba7f000000000000000000000000000000000000000000000000000000000000000081565b34801561067757600080fd5b5060006102ac565b34801561068b57600080fd5b506102ac61069a36600461214d565b610c5d565b3480156106ab57600080fd5b5060025461030b906001600160a01b031681565b3480156106cb57600080fd5b506103366106da36600461254f565b610c6b565b3480156106eb57600080fd5b506103ba6106fa366004612590565b60016020526000908152604090205481565b34801561071857600080fd5b506102766107273660046125ab565b610c85565b61033661073a36600461254f565b610e2d565b61075261074d36600461260b565b610fb7565b604051610283929190612678565b34801561076c57600080fd5b5061033661077b366004612488565b610feb565b61033661078e3660046122b8565b611071565b34801561079f57600080fd5b506103366107ae366004612488565b6110a0565b3480156107bf57600080fd5b506103ba6107ce3660046126ca565b6001600160a01b03918216600090815260066020908152604080832093909416825291909152205490565b34801561080557600080fd5b50610336610814366004612488565b6110f6565b34801561082557600080fd5b506102ac6108343660046126f8565b611134565b60606008805461084890612714565b80601f016020809104026020016040519081016040528092919081815260200182805461087490612714565b80156108c15780601f10610896576101008083540402835291602001916108c1565b820191906000526020600020905b8154815290600101906020018083116108a457829003601f168201915b5050505050905090565b6000336108d981858561116a565b60019150505b92915050565b60408051808201909152600080825260208201526060610918604051806040016040528060008152602001600081525090565b60408051808201825260008082526001600160401b03602080840182905284518381529081019094529195509182610973565b60408051808201909152600081526060602082015281526020019060019003908161094b5790505b509350600080610998604089013560608a013561099360208c018c612590565b61117c565b60408051808201909152918252602082015296989597505050505050565b7f00000000000000000000000000000000000000000000000000000000000000006001600160a01b03163314610a06576040516391ac5e4f60e01b81523360048201526024015b60405180910390fd5b60208701803590610a2090610a1b908a612590565b6111b8565b14610a5e57610a326020880188612590565b60405163309afaf360e21b815263ffffffff9091166004820152602088013560248201526044016109fd565b610a6d878787878787876111f4565b50505050505050565b600033610a8485828561135b565b610a8f8585856113d9565b60019150505b9392505050565b610aa4611438565b610aae8282611465565b5050565b60408051808201909152600080825260208201526000610ae2604085013560608601356109936020880188612590565b915050600080610af286846114ba565b9092509050610b0f610b076020880188612590565b8383886115dd565b9695505050505050565b610aae82826116be565b600360209081526000928352604080842090915290825290208054610b4790612714565b80601f0160208091040260200160405190810160405280929190818152602001828054610b7390612714565b8015610bc05780601f10610b9557610100808354040283529160200191610bc0565b820191906000526020600020905b815481529060010190602001808311610ba357829003601f168201915b505050505081565b610bd0611438565b600480546001600160a01b0319166001600160a01b0383169081179091556040519081527ff0be4f1e87349231d80c36b33f9e8639658eeaf474014dee15a3e6a4d4414197906020015b60405180910390a150565b610c2d611438565b610c3760006116f4565b565b6001600160a01b03811630145b949350505050565b60606009805461084890612714565b6000336108d98185856113d9565b610c73611438565b610aae610c8082846127ff565b611744565b63ffffffff8416600090815260036020908152604080832061ffff87168452909152812080546060929190610cb990612714565b80601f0160208091040260200160405190810160405280929190818152602001828054610ce590612714565b8015610d325780601f10610d0757610100808354040283529160200191610d32565b820191906000526020600020905b815481529060010190602001808311610d1557829003601f168201915b505050505090508051600003610d825783838080601f016020809104026020016040519081016040528093929190818152602001838380828437600092019190915250929450610c469350505050565b6000839003610d92579050610c46565b60028310610e1057610dd984848080601f01602080910402602001604051908101604052809392919081815260200183838082843760009201919091525061184b92505050565b80610de78460028188612914565b604051602001610df99392919061293e565b604051602081830303815290604052915050610c46565b8383604051639a6d49cd60e01b81526004016109fd92919061298f565b60005b81811015610f365736838383818110610e4b57610e4b6129a3565b9050602002810190610e5d91906129b9565b9050610e90610e6f6020830183612590565b602083013563ffffffff919091166000908152600160205260409020541490565b610e9a5750610f2e565b3063d045a0dc60c08301358360a0810135610eb96101008301836129da565b610eca610100890160e08a01612488565b610ed86101208a018a6129da565b6040518963ffffffff1660e01b8152600401610efa9796959493929190612a35565b6000604051808303818588803b158015610f1357600080fd5b505af1158015610f27573d6000803e3d6000fd5b5050505050505b600101610e30565b50336001600160a01b0316638e9e70996040518163ffffffff1660e01b8152600401600060405180830381865afa158015610f75573d6000803e3d6000fd5b505050506040513d6000823e601f3d908101601f19168201604052610f9d9190810190612abb565b604051638351eea760e01b81526004016109fd9190612125565b610fbf61208e565b6040805180820190915260008082526020820152610fde858585611877565b915091505b935093915050565b610ff3611438565b60405163ca5eb5e160e01b81526001600160a01b0382811660048301527f0000000000000000000000000000000000000000000000000000000000000000169063ca5eb5e190602401600060405180830381600087803b15801561105657600080fd5b505af115801561106a573d6000803e3d6000fd5b5050505050565b3330146110915760405163029a949d60e31b815260040160405180910390fd5b610a6d87878787878787610a5e565b6110a8611438565b600280546001600160a01b0319166001600160a01b0383169081179091556040519081527fd48d879cef83a1c0bdda516f27b13ddb1b3f8bbac1c9e1511bb2a659c242776090602001610c1a565b6110fe611438565b6001600160a01b03811661112857604051631e4fbdf760e01b8152600060048201526024016109fd565b611131816116f4565b50565b600060208201803590600190839061114c9086612590565b63ffffffff1681526020810191909152604001600020541492915050565b6111778383836001611972565b505050565b60008061118885611a47565b915081905083811015610fe3576040516371c4efed60e01b815260048101829052602481018590526044016109fd565b63ffffffff8116600090815260016020526040812054806108df5760405163f6ff4fb760e01b815263ffffffff841660048201526024016109fd565b60006112066112038787611a7e565b90565b905060006112328261122061121b8a8a611a96565b611ab9565b61122d60208d018d612590565b611aee565b905060288611156112f957600061126f61125260608c0160408d01612b28565b61125f60208d018d612590565b8461126a8c8c611b16565b611b61565b604051633e5ac80960e11b81529091506001600160a01b037f00000000000000000000000000000000000000000000000000000000000000001690637cb59012906112c59086908d906000908790600401612b45565b600060405180830381600087803b1580156112df57600080fd5b505af11580156112f3573d6000803e3d6000fd5b50505050505b6001600160a01b038216887fefed6d3500546b29533b128a29e3a94d70788727f0507505ac12eaf2e578fd9c61133260208d018d612590565b6040805163ffffffff9092168252602082018690520160405180910390a3505050505050505050565b6001600160a01b0383811660009081526006602090815260408083209386168352929052205460001981146113d357818110156113c457604051637dc7a0d960e11b81526001600160a01b038416600482015260248101829052604481018390526064016109fd565b6113d384848484036000611972565b50505050565b6001600160a01b03831661140357604051634b637e8f60e11b8152600060048201526024016109fd565b6001600160a01b03821661142d5760405163ec442f0560e01b8152600060048201526024016109fd565b611177838383611b93565b6000546001600160a01b03163314610c375760405163118cdaa760e01b81523360048201526024016109fd565b63ffffffff8216600081815260016020908152604091829020849055815192835282018390527f238399d427b947898edb290f5ff0f9109849b1c3ba196a42e35f00c50a54b98b910160405180910390a15050565b606080600061151785602001356114d086611cbd565b6114dd60a08901896129da565b8080601f016020809104026020016040519081016040528093929190818152602001838380828437600092019190915250611ce992505050565b909350905060008161152a57600161152d565b60025b905061154d61153f6020880188612590565b8261072760808a018a6129da565b6004549093506001600160a01b031680156115d35760405163043a78eb60e01b81526001600160a01b0382169063043a78eb906115909088908890600401612b76565b602060405180830381865afa1580156115ad573d6000803e3d6000fd5b505050506040513d601f19601f820116820180604052508101906115d19190612b9b565b505b5050509250929050565b60408051808201909152600080825260208201527f00000000000000000000000000000000000000000000000000000000000000006001600160a01b031663ddc28c586040518060a001604052808863ffffffff168152602001611640896111b8565b8152602001878152602001868152602001851515815250306040518363ffffffff1660e01b8152600401611675929190612bb8565b6040805180830381865afa158015611691573d6000803e3d6000fd5b505050506040513d601f19601f820116820180604052508101906116b59190612c61565b95945050505050565b6001600160a01b0382166116e85760405163ec442f0560e01b8152600060048201526024016109fd565b610aae60008383611b93565b600080546001600160a01b038381166001600160a01b0319831681178455604051919092169283917f8be0079c531659141344cd1fd0a4f28419497f9722a3daafe3b4186f6b6457e09190a35050565b60005b815181101561181b57611776828281518110611765576117656129a3565b60200260200101516040015161184b565b818181518110611788576117886129a3565b602002602001015160400151600360008484815181106117aa576117aa6129a3565b60200260200101516000015163ffffffff1663ffffffff16815260200190815260200160002060008484815181106117e4576117e46129a3565b60200260200101516020015161ffff1661ffff16815260200190815260200160002090816118129190612ccd565b50600101611747565b507fbe4864a8e820971c0247f5992e2da559595f7bf076a21cb5928d443d2a13b67481604051610c1a9190612d8c565b600281015161ffff8116600314610aae5781604051639a6d49cd60e01b81526004016109fd9190612125565b61187f61208e565b60408051808201909152600080825260208201526000806118b633604089013560608a01356118b160208c018c612590565b611d63565b915091506000806118c789846114ba565b90925090506118f36118dc60208b018b612590565b83836118ed368d90038d018d612e17565b8b611d89565b60408051808201909152858152602080820186905282519298509096503391907f85496b760a4b7f8d66384b9df21b381f5d1b1e79f229a47aaf4c232edc2fe59a90611941908d018d612590565b6040805163ffffffff909216825260208201899052810187905260600160405180910390a350505050935093915050565b6001600160a01b03841661199c5760405163e602df0560e01b8152600060048201526024016109fd565b6001600160a01b0383166119c657604051634a1406b160e11b8152600060048201526024016109fd565b6001600160a01b03808516600090815260066020908152604080832093871683529290522082905580156113d357826001600160a01b0316846001600160a01b03167f8c5be1e5ebec7d5bd14f71427d1e84f3dd0314c0f7b2291e5b200ac8c7c3b92584604051611a3991815260200190565b60405180910390a350505050565b60007f0000000000000000000000000000000000000000000000000000000000000000611a748184612e5f565b6108df9190612e81565b6000611a8d6020828486612914565b610a9591612e98565b6000611aa6602860208486612914565b611aaf91612eb6565b60c01c9392505050565b60006108df7f00000000000000000000000000000000000000000000000000000000000000006001600160401b038416612e81565b60006001600160a01b038416611b045761dead93505b611b0e84846116be565b509092915050565b6060611b258260288186612914565b8080601f016020809104026020016040519081016040528093929190818152602001838380828437600092019190915250929695505050505050565b606084848484604051602001611b7a9493929190612ee6565b6040516020818303038152906040529050949350505050565b6001600160a01b038316611bbe578060076000828254611bb39190612f35565b90915550611c309050565b6001600160a01b03831660009081526005602052604090205481811015611c115760405163391434e360e21b81526001600160a01b038516600482015260248101829052604481018390526064016109fd565b6001600160a01b03841660009081526005602052604090209082900390555b6001600160a01b038216611c4c57600780548290039055611c6b565b6001600160a01b03821660009081526005602052604090208054820190555b816001600160a01b0316836001600160a01b03167fddf252ad1be2c89b69c2b068fc378daa952ba7f163c4a11628f55a4df523b3ef83604051611cb091815260200190565b60405180910390a3505050565b60006108df7f000000000000000000000000000000000000000000000000000000000000000083612e5f565b8051606090151580611d32578484604051602001611d1e92919091825260c01b6001600160c01b031916602082015260280190565b604051602081830303815290604052611d59565b84843385604051602001611d499493929190612f48565b6040516020818303038152906040525b9150935093915050565b600080611d7185858561117c565b9092509050611d808683611e94565b94509492505050565b611d9161208e565b6000611da08460000151611eca565b602085015190915015611dba57611dba8460200151611ef2565b7f00000000000000000000000000000000000000000000000000000000000000006001600160a01b0316632637a450826040518060a001604052808b63ffffffff168152602001611e0a8c6111b8565b81526020018a815260200189815260200160008960200151111515815250866040518463ffffffff1660e01b8152600401611e46929190612bb8565b60806040518083038185885af1158015611e64573d6000803e3d6000fd5b50505050506040513d601f19601f82011682018060405250810190611e899190612f8b565b979650505050505050565b6001600160a01b038216611ebe57604051634b637e8f60e11b8152600060048201526024016109fd565b610aae82600083611b93565b6000813414611eee576040516304fb820960e51b81523460048201526024016109fd565b5090565b60007f00000000000000000000000000000000000000000000000000000000000000006001600160a01b031663e4fe1d946040518163ffffffff1660e01b8152600401602060405180830381865afa158015611f52573d6000803e3d6000fd5b505050506040513d601f19601f82011682018060405250810190611f769190612fd5565b90506001600160a01b038116611f9f576040516329b99a9560e11b815260040160405180910390fd5b6040805133602482018190527f00000000000000000000000000000000000000000000000000000000000000006001600160a01b0381811660448501526064808501889052855180860390910181526084909401909452602080840180516001600160e01b03166323b872dd60e01b1781528451610aae9688169589936113d393889360009283929091839182885af180612040576040513d6000823e3d81fd5b50506000513d91508115612058578060011415612065565b6001600160a01b0384163b155b156113d357604051635274afe760e01b81526001600160a01b03851660048201526024016109fd565b60405180606001604052806000801916815260200160006001600160401b031681526020016120d0604051806040016040528060008152602001600081525090565b905290565b60005b838110156120f05781810151838201526020016120d8565b50506000910152565b600081518084526121118160208601602086016120d5565b601f01601f19169290920160200192915050565b602081526000610a9560208301846120f9565b6001600160a01b038116811461113157600080fd5b6000806040838503121561216057600080fd5b823561216b81612138565b946020939093013593505050565b600060e0828403121561218b57600080fd5b50919050565b6000602082840312156121a357600080fd5b81356001600160401b038111156121b957600080fd5b610c4684828501612179565b8351815260208085015190820152600060a08201604060a0604085015281865180845260c08601915060c08160051b8701019350602080890160005b838110156122405788870360bf1901855281518051885283015183880187905261222d878901826120f9565b9750509382019390820190600101612201565b50508751606088015250505060208501516080850152509050610c46565b60006060828403121561218b57600080fd5b60008083601f84011261228257600080fd5b5081356001600160401b0381111561229957600080fd5b6020830191508360208285010111156122b157600080fd5b9250929050565b600080600080600080600060e0888a0312156122d357600080fd5b6122dd898961225e565b96506060880135955060808801356001600160401b038082111561230057600080fd5b61230c8b838c01612270565b909750955060a08a0135915061232182612138565b90935060c0890135908082111561233757600080fd5b506123448a828b01612270565b989b979a50959850939692959293505050565b60008060006060848603121561236c57600080fd5b833561237781612138565b9250602084013561238781612138565b929592945050506040919091013590565b803563ffffffff811681146123ac57600080fd5b919050565b600080604083850312156123c457600080fd5b61216b83612398565b801515811461113157600080fd5b600080604083850312156123ee57600080fd5b82356001600160401b0381111561240457600080fd5b61241085828601612179565b9250506020830135612421816123cd565b809150509250929050565b8151815260208083015190820152604081016108df565b803561ffff811681146123ac57600080fd5b6000806040838503121561246857600080fd5b61247183612398565b915061247f60208401612443565b90509250929050565b60006020828403121561249a57600080fd5b8135610a9581612138565b60008060008060a085870312156124bb57600080fd5b6124c5868661225e565b935060608501356001600160401b038111156124e057600080fd5b6124ec87828801612270565b909450925050608085013561250081612138565b939692955090935050565b60008083601f84011261251d57600080fd5b5081356001600160401b0381111561253457600080fd5b6020830191508360208260051b85010111156122b157600080fd5b6000806020838503121561256257600080fd5b82356001600160401b0381111561257857600080fd5b6125848582860161250b565b90969095509350505050565b6000602082840312156125a257600080fd5b610a9582612398565b600080600080606085870312156125c157600080fd5b6125ca85612398565b93506125d860208601612443565b925060408501356001600160401b038111156125f357600080fd5b6125ff87828801612270565b95989497509550505050565b6000806000838503608081121561262157600080fd5b84356001600160401b0381111561263757600080fd5b61264387828801612179565b9450506040601f198201121561265857600080fd5b50602084019150606084013561266d81612138565b809150509250925092565b600060c082019050835182526001600160401b03602085015116602083015260408401516126b3604084018280518252602090810151910152565b5082516080830152602083015160a0830152610a95565b600080604083850312156126dd57600080fd5b82356126e881612138565b9150602083013561242181612138565b60006060828403121561270a57600080fd5b610a95838361225e565b600181811c9082168061272857607f821691505b60208210810361218b57634e487b7160e01b600052602260045260246000fd5b634e487b7160e01b600052604160045260246000fd5b604051606081016001600160401b038111828210171561278057612780612748565b60405290565b604080519081016001600160401b038111828210171561278057612780612748565b604051601f8201601f191681016001600160401b03811182821017156127d0576127d0612748565b604052919050565b60006001600160401b038211156127f1576127f1612748565b50601f01601f191660200190565b60006001600160401b038084111561281957612819612748565b8360051b602061282a8183016127a8565b86815291850191818101903684111561284257600080fd5b865b848110156129085780358681111561285c5760008081fd5b880160603682900312156128705760008081fd5b61287861275e565b61288182612398565b815261288e868301612443565b86820152604080830135898111156128a65760008081fd5b929092019136601f8401126128bb5760008081fd5b82356128ce6128c9826127d8565b6127a8565b81815236898387010111156128e35760008081fd5b818986018a830137600091810189019190915290820152845250918301918301612844565b50979650505050505050565b6000808585111561292457600080fd5b8386111561293157600080fd5b5050820193919092039150565b600084516129508184602089016120d5565b8201838582376000930192835250909392505050565b81835281816020850137506000828201602090810191909152601f909101601f19169091010190565b602081526000610c46602083018486612966565b634e487b7160e01b600052603260045260246000fd5b6000823561013e198336030181126129d057600080fd5b9190910192915050565b6000808335601e198436030181126129f157600080fd5b8301803591506001600160401b03821115612a0b57600080fd5b6020019150368190038213156122b157600080fd5b6001600160401b038116811461113157600080fd5b63ffffffff612a4389612398565b1681526020880135602082015260006040890135612a6081612a20565b6001600160401b03811660408401525087606083015260e06080830152612a8b60e083018789612966565b6001600160a01b03861660a084015282810360c0840152612aad818587612966565b9a9950505050505050505050565b600060208284031215612acd57600080fd5b81516001600160401b03811115612ae357600080fd5b8201601f81018413612af457600080fd5b8051612b026128c9826127d8565b818152856020838501011115612b1757600080fd5b6116b58260208301602086016120d5565b600060208284031215612b3a57600080fd5b8135610a9581612a20565b60018060a01b038516815283602082015261ffff83166040820152608060608201526000610b0f60808301846120f9565b604081526000612b8960408301856120f9565b82810360208401526116b581856120f9565b600060208284031215612bad57600080fd5b8151610a95816123cd565b6040815263ffffffff8351166040820152602083015160608201526000604084015160a06080840152612bee60e08401826120f9565b90506060850151603f198483030160a0850152612c0b82826120f9565b60809690960151151560c08501525050506001600160a01b039190911660209091015290565b600060408284031215612c4357600080fd5b612c4b612786565b9050815181526020820151602082015292915050565b600060408284031215612c7357600080fd5b610a958383612c31565b601f821115611177576000816000526020600020601f850160051c81016020861015612ca65750805b601f850160051c820191505b81811015612cc557828155600101612cb2565b505050505050565b81516001600160401b03811115612ce657612ce6612748565b612cfa81612cf48454612714565b84612c7d565b602080601f831160018114612d2f5760008415612d175750858301515b600019600386901b1c1916600185901b178555612cc5565b600085815260208120601f198616915b82811015612d5e57888601518255948401946001909101908401612d3f565b5085821015612d7c5787850151600019600388901b60f8161c191681555b5050505050600190811b01905550565b600060208083018184528085518083526040925060408601915060408160051b87010184880160005b83811015612e0957888303603f190185528151805163ffffffff1684528781015161ffff16888501528601516060878501819052612df5818601836120f9565b968901969450505090860190600101612db5565b509098975050505050505050565b600060408284031215612e2957600080fd5b612e31612786565b82358152602083013560208201528091505092915050565b634e487b7160e01b600052601160045260246000fd5b600082612e7c57634e487b7160e01b600052601260045260246000fd5b500490565b80820281158282048414176108df576108df612e49565b803560208310156108df57600019602084900360031b1b1692915050565b6001600160c01b03198135818116916008851015612ede5780818660080360031b1b83161692505b505092915050565b6001600160401b0360c01b8560c01b16815263ffffffff60e01b8460e01b16600882015282600c82015260008251612f2581602c8501602087016120d5565b91909101602c0195945050505050565b808201808211156108df576108df612e49565b8481526001600160401b0360c01b8460c01b16602082015282602882015260008251612f7b8160488501602087016120d5565b9190910160480195945050505050565b600060808284031215612f9d57600080fd5b612fa561275e565b825181526020830151612fb781612a20565b6020820152612fc98460408501612c31565b60408201529392505050565b600060208284031215612fe757600080fd5b8151610a958161213856fea2646970667358221220645fbf12560a7699955d058d106f0e740ad9cbc14ee055c7fe136365795a23de64736f6c63430008160033",
  "linkReferences": {},
  "deployedLinkReferences": {}
}