{
  "abi": [
    {
      "type": "constructor",
      "inputs": [
        {
          "name": "_endpoint",
          "type": "address",
          "internalType": "address"
        },
        {
          "name": "_receiveUln301",
          "type": "address",
          "internalType": "address"
        },
        {
          "name": "_messageLibs",
          "type": "address[]",
          "internalType": "address[]"
        },
        {
          "name": "_priceFeed",
          "type": "address",
          "internalType": "address"
        },
        {
          "name": "_roleAdmin",
          "type": "address",
          "internalType": "address"
        },
        {
          "name": "_admins",
          "type": "address[]",
          "internalType": "address[]"
        }
      ],
      "stateMutability": "nonpayable"
    },
    {
      "type": "function",
      "name": "DEFAULT_ADMIN_ROLE",
      "inputs": [],
      "outputs": [
        {
          "name": "",
          "type": "bytes32",
          "internalType": "bytes32"
        }
      ],
      "stateMutability": "view"
    },
    {
      "type": "function",
      "name": "allowlistSize",
      "inputs": [],
      "outputs": [
        {
          "name": "",
          "type": "uint64",
          "internalType": "uint64"
        }
      ],
      "stateMutability": "view"
    },
    {
      "type": "function",
      "name": "assignJob",
      "inputs": [
        {
          "name": "_dstEid",
          "type": "uint32",
          "internalType": "uint32"
        },
        {
          "name": "_sender",
          "type": "address",
          "internalType": "address"
        },
        {
          "name": "_calldataSize",
          "type": "uint256",
          "internalType": "uint256"
        },
        {
          "name": "_options",
          "type": "bytes",
          "internalType": "bytes"
        }
      ],
      "outputs": [
        {
          "name": "fee",
          "type": "uint256",
          "internalType": "uint256"
        }
      ],
      "stateMutability": "nonpayable"
    },
    {
      "type": "function",
      "name": "defaultMultiplierBps",
      "inputs": [],
      "outputs": [
        {
          "name": "",
          "type": "uint16",
          "internalType": "uint16"
        }
      ],
      "stateMutability": "view"
    },
    {
      "type": "function",
      "name": "dstConfig",
      "inputs": [
        {
          "name": "dstEid",
          "type": "uint32",
          "internalType": "uint32"
        }
      ],
      "outputs": [
        {
          "name": "lzReceiveBaseGas",
          "type": "uint64",
          "internalType": "uint64"
        },
        {
          "name": "multiplierBps",
          "type": "uint16",
          "internalType": "uint16"
        },
        {
          "name": "floorMarginUSD",
          "type": "uint128",
          "internalType": "uint128"
        },
        {
          "name": "nativeCap",
          "type": "uint128",
          "internalType": "uint128"
        },
        {
          "name": "lzComposeBaseGas",
          "type": "uint64",
          "internalType": "uint64"
        }
      ],
      "stateMutability": "view"
    },
    {
      "type": "function",
      "name": "endpoint",
      "inputs": [],
      "outputs": [
        {
          "name": "",
          "type": "address",
          "internalType": "address"
        }
      ],
      "stateMutability": "view"
    },
    {
      "type": "function",
      "name": "execute301",
      "inputs": [
        {
          "name": "_packet",
          "type": "bytes",
          "internalType": "bytes"
        },
        {
          "name": "_gasLimit",
          "type": "uint256",
          "internalType": "uint256"
        }
      ],
      "outputs": [],
      "stateMutability": "nonpayable"
    },
    {
      "type": "function",
      "name": "getFee",
      "inputs": [
        {
          "name": "_dstEid",
          "type": "uint32",
          "internalType": "uint32"
        },
        {
          "name": "_sender",
          "type": "address",
          "internalType": "address"
        },
        {
          "name": "_calldataSize",
          "type": "uint256",
          "internalType": "uint256"
        },
        {
          "name": "_options",
          "type": "bytes",
          "internalType": "bytes"
        }
      ],
      "outputs": [
        {
          "name": "fee",
          "type": "uint256",
          "internalType": "uint256"
        }
      ],
      "stateMutability": "view"
    },
    {
      "type": "function",
      "name": "getRoleAdmin",
      "inputs": [
        {
          "name": "role",
          "type": "bytes32",
          "internalType": "bytes32"
        }
      ],
      "outputs": [
        {
          "name": "",
          "type": "bytes32",
          "internalType": "bytes32"
        }
      ],
      "stateMutability": "view"
    },
    {
      "type": "function",
      "name": "getSupportedOptionTypes",
      "inputs": [
        {
          "name": "_eid",
          "type": "uint32",
          "internalType": "uint32"
        }
      ],
      "outputs": [
        {
          "name": "",
          "type": "uint8[]",
          "internalType": "uint8[]"
        }
      ],
      "stateMutability": "view"
    },
    {
      "type": "function",
      "name": "grantRole",
      "inputs": [
        {
          "name": "role",
          "type": "bytes32",
          "internalType": "bytes32"
        },
        {
          "name": "account",
          "type": "address",
          "internalType": "address"
        }
      ],
      "outputs": [],
      "stateMutability": "nonpayable"
    },
    {
      "type": "function",
      "name": "hasAcl",
      "inputs": [
        {
          "name": "_sender",
          "type": "address",
          "internalType": "address"
        }
      ],
      "outputs": [
        {
          "name": "",
          "type": "bool",
          "internalType": "bool"
        }
      ],
      "stateMutability": "view"
    },
    {
      "type": "function",
      "name": "hasRole",
      "inputs": [
        {
          "name": "role",
          "type": "bytes32",
          "internalType": "bytes32"
        },
        {
          "name": "account",
          "type": "address",
          "internalType": "address"
        }
      ],
      "outputs": [
        {
          "name": "",
          "type": "bool",
          "internalType": "bool"
        }
      ],
      "stateMutability": "view"
    },
    {
      "type": "function",
      "name": "localEid",
      "inputs": [],
      "outputs": [
        {
          "name": "",
          "type": "uint32",
          "internalType": "uint32"
        }
      ],
      "stateMutability": "view"
    },
    {
      "type": "function",
      "name": "nativeDrop",
      "inputs": [
        {
          "name": "_origin",
          "type": "tuple",
          "internalType": "struct Origin",
          "components": [
            {
              "name": "srcEid",
              "type": "uint32",
              "internalType": "uint32"
            },
            {
              "name": "sender",
              "type": "bytes32",
              "internalType": "bytes32"
            },
            {
              "name": "nonce",
              "type": "uint64",
              "internalType": "uint64"
            }
          ]
        },
        {
          "name": "_dstEid",
          "type": "uint32",
          "internalType": "uint32"
        },
        {
          "name": "_oapp",
          "type": "address",
          "internalType": "address"
        },
        {
          "name": "_nativeDropParams",
          "type": "tuple[]",
          "internalType": "struct IExecutor.NativeDropParams[]",
          "components": [
            {
              "name": "receiver",
              "type": "address",
              "internalType": "address"
            },
            {
              "name": "amount",
              "type": "uint256",
              "internalType": "uint256"
            }
          ]
        },
        {
          "name": "_nativeDropGasLimit",
          "type": "uint256",
          "internalType": "uint256"
        }
      ],
      "outputs": [],
      "stateMutability": "payable"
    },
    {
      "type": "function",
      "name": "nativeDropAndExecute301",
      "inputs": [
        {
          "name": "_origin",
          "type": "tuple",
          "internalType": "struct Origin",
          "components": [
            {
              "name": "srcEid",
              "type": "uint32",
              "internalType": "uint32"
            },
            {
              "name": "sender",
              "type": "bytes32",
              "internalType": "bytes32"
            },
            {
              "name": "nonce",
              "type": "uint64",
              "internalType": "uint64"
            }
          ]
        },
        {
          "name": "_nativeDropParams",
          "type": "tuple[]",
          "internalType": "struct IExecutor.NativeDropParams[]",
          "components": [
            {
              "name": "receiver",
              "type": "address",
              "internalType": "address"
            },
            {
              "name": "amount",
              "type": "uint256",
              "internalType": "uint256"
            }
          ]
        },
        {
          "name": "_nativeDropGasLimit",
          "type": "uint256",
          "internalType": "uint256"
        },
        {
          "name": "_packet",
          "type": "bytes",
          "internalType": "bytes"
        },
        {
          "name": "_gasLimit",
          "type": "uint256",
          "internalType": "uint256"
        }
      ],
      "outputs": [],
      "stateMutability": "payable"
    },
    {
      "type": "function",
      "name": "nativeDropAndExecute302",
      "inputs": [
        {
          "name": "_nativeDropParams",
          "type": "tuple[]",
          "internalType": "struct IExecutor.NativeDropParams[]",
          "components": [
            {
              "name": "receiver",
              "type": "address",
              "internalType": "address"
            },
            {
              "name": "amount",
              "type": "uint256",
              "internalType": "uint256"
            }
          ]
        },
        {
          "name": "_nativeDropGasLimit",
          "type": "uint256",
          "internalType": "uint256"
        },
        {
          "name": "_executionParams",
          "type": "tuple",
          "internalType": "struct IExecutor.ExecutionParams",
          "components": [
            {
              "name": "receiver",
              "type": "address",
              "internalType": "address"
            },
            {
              "name": "origin",
              "type": "tuple",
              "internalType": "struct Origin",
              "components": [
                {
                  "name": "srcEid",
                  "type": "uint32",
                  "internalType": "uint32"
                },
                {
                  "name": "sender",
                  "type": "bytes32",
                  "internalType": "bytes32"
                },
                {
                  "name": "nonce",
                  "type": "uint64",
                  "internalType": "uint64"
                }
              ]
            },
            {
              "name": "guid",
              "type": "bytes32",
              "internalType": "bytes32"
            },
            {
              "name": "message",
              "type": "bytes",
              "internalType": "bytes"
            },
            {
              "name": "extraData",
              "type": "bytes",
              "internalType": "bytes"
            },
            {
              "name": "gasLimit",
              "type": "uint256",
              "internalType": "uint256"
            }
          ]
        }
      ],
      "outputs": [],
      "stateMutability": "payable"
    },
    {
      "type": "function",
      "name": "paused",
      "inputs": [],
      "outputs": [
        {
          "name": "",
          "type": "bool",
          "internalType": "bool"
        }
      ],
      "stateMutability": "view"
    },
    {
      "type": "function",
      "name": "priceFeed",
      "inputs": [],
      "outputs": [
        {
          "name": "",
          "type": "address",
          "internalType": "address"
        }
      ],
      "stateMutability": "view"
    },
    {
      "type": "function",
      "name": "receiveUln301",
      "inputs": [],
      "outputs": [
        {
          "name": "",
          "type": "address",
          "internalType": "address"
        }
      ],
      "stateMutability": "view"
    },
    {
      "type": "function",
      "name": "renounceRole",
      "inputs": [
        {
          "name": "",
          "type": "bytes32",
          "internalType": "bytes32"
        },
        {
          "name": "",
          "type": "address",
          "internalType": "address"
        }
      ],
      "outputs": [],
      "stateMutability": "pure"
    },
    {
      "type": "function",
      "name": "revokeRole",
      "inputs": [
        {
          "name": "role",
          "type": "bytes32",
          "internalType": "bytes32"
        },
        {
          "name": "account",
          "type": "address",
          "internalType": "address"
        }
      ],
      "outputs": [],
      "stateMutability": "nonpayable"
    },
    {
      "type": "function",
      "name": "setDefaultMultiplierBps",
      "inputs": [
        {
          "name": "_multiplierBps",
          "type": "uint16",
          "internalType": "uint16"
        }
      ],
      "outputs": [],
      "stateMutability": "nonpayable"
    },
    {
      "type": "function",
      "name": "setDstConfig",
      "inputs": [
        {
          "name": "_params",
          "type": "tuple[]",
          "internalType": "struct IExecutor.DstConfigParam[]",
          "components": [
            {
              "name": "dstEid",
              "type": "uint32",
              "internalType": "uint32"
            },
            {
              "name": "lzReceiveBaseGas",
              "type": "uint64",
              "internalType": "uint64"
            },
            {
              "name": "lzComposeBaseGas",
              "type": "uint64",
              "internalType": "uint64"
            },
            {
              "name": "multiplierBps",
              "type": "uint16",
              "internalType": "uint16"
            },
            {
              "name": "floorMarginUSD",
              "type": "uint128",
              "internalType": "uint128"
            },
            {
              "name": "nativeCap",
              "type": "uint128",
              "internalType": "uint128"
            }
          ]
        }
      ],
      "outputs": [],
      "stateMutability": "nonpayable"
    },
    {
      "type": "function",
      "name": "setPaused",
      "inputs": [
        {
          "name": "_paused",
          "type": "bool",
          "internalType": "bool"
        }
      ],
      "outputs": [],
      "stateMutability": "nonpayable"
    },
    {
      "type": "function",
      "name": "setPriceFeed",
      "inputs": [
        {
          "name": "_priceFeed",
          "type": "address",
          "internalType": "address"
        }
      ],
      "outputs": [],
      "stateMutability": "nonpayable"
    },
    {
      "type": "function",
      "name": "setSupportedOptionTypes",
      "inputs": [
        {
          "name": "_eid",
          "type": "uint32",
          "internalType": "uint32"
        },
        {
          "name": "_optionTypes",
          "type": "uint8[]",
          "internalType": "uint8[]"
        }
      ],
      "outputs": [],
      "stateMutability": "nonpayable"
    },
    {
      "type": "function",
      "name": "setWorkerFeeLib",
      "inputs": [
        {
          "name": "_workerFeeLib",
          "type": "address",
          "internalType": "address"
        }
      ],
      "outputs": [],
      "stateMutability": "nonpayable"
    },
    {
      "type": "function",
      "name": "supportsInterface",
      "inputs": [
        {
          "name": "interfaceId",
          "type": "bytes4",
          "internalType": "bytes4"
        }
      ],
      "outputs": [
        {
          "name": "",
          "type": "bool",
          "internalType": "bool"
        }
      ],
      "stateMutability": "view"
    },
    {
      "type": "function",
      "name": "withdrawFee",
      "inputs": [
        {
          "name": "_lib",
          "type": "address",
          "internalType": "address"
        },
        {
          "name": "_to",
          "type": "address",
          "internalType": "address"
        },
        {
          "name": "_amount",
          "type": "uint256",
          "internalType": "uint256"
        }
      ],
      "outputs": [],
      "stateMutability": "nonpayable"
    },
    {
      "type": "function",
      "name": "withdrawToken",
      "inputs": [
        {
          "name": "_token",
          "type": "address",
          "internalType": "address"
        },
        {
          "name": "_to",
          "type": "address",
          "internalType": "address"
        },
        {
          "name": "_amount",
          "type": "uint256",
          "internalType": "uint256"
        }
      ],
      "outputs": [],
      "stateMutability": "nonpayable"
    },
    {
      "type": "function",
      "name": "workerFeeLib",
      "inputs": [],
      "outputs": [
        {
          "name": "",
          "type": "address",
          "internalType": "address"
        }
      ],
      "stateMutability": "view"
    },
    {
      "type": "event",
      "name": "DstConfigSet",
      "inputs": [
        {
          "name": "params",
          "type": "tuple[]",
          "indexed": false,
          "internalType": "struct IExecutor.DstConfigParam[]",
          "components": [
            {
              "name": "dstEid",
              "type": "uint32",
              "internalType": "uint32"
            },
            {
              "name": "lzReceiveBaseGas",
              "type": "uint64",
              "internalType": "uint64"
            },
            {
              "name": "lzComposeBaseGas",
              "type": "uint64",
              "internalType": "uint64"
            },
            {
              "name": "multiplierBps",
              "type": "uint16",
              "internalType": "uint16"
            },
            {
              "name": "floorMarginUSD",
              "type": "uint128",
              "internalType": "uint128"
            },
            {
              "name": "nativeCap",
              "type": "uint128",
              "internalType": "uint128"
            }
          ]
        }
      ],
      "anonymous": false
    },
    {
      "type": "event",
      "name": "NativeDropApplied",
      "inputs": [
        {
          "name": "origin",
          "type": "tuple",
          "indexed": false,
          "internalType": "struct Origin",
          "components": [
            {
              "name": "srcEid",
              "type": "uint32",
              "internalType": "uint32"
            },
            {
              "name": "sender",
              "type": "bytes32",
              "internalType": "bytes32"
            },
            {
              "name": "nonce",
              "type": "uint64",
              "internalType": "uint64"
            }
          ]
        },
        {
          "name": "dstEid",
          "type": "uint32",
          "indexed": false,
          "internalType": "uint32"
        },
        {
          "name": "oapp",
          "type": "address",
          "indexed": false,
          "internalType": "address"
        },
        {
          "name": "params",
          "type": "tuple[]",
          "indexed": false,
          "internalType": "struct IExecutor.NativeDropParams[]",
          "components": [
            {
              "name": "receiver",
              "type": "address",
              "internalType": "address"
            },
            {
              "name": "amount",
              "type": "uint256",
              "internalType": "uint256"
            }
          ]
        },
        {
          "name": "success",
          "type": "bool[]",
          "indexed": false,
          "internalType": "bool[]"
        }
      ],
      "anonymous": false
    },
    {
      "type": "event",
      "name": "Paused",
      "inputs": [
        {
          "name": "account",
          "type": "address",
          "indexed": false,
          "internalType": "address"
        }
      ],
      "anonymous": false
    },
    {
      "type": "event",
      "name": "RoleAdminChanged",
      "inputs": [
        {
          "name": "role",
          "type": "bytes32",
          "indexed": true,
          "internalType": "bytes32"
        },
        {
          "name": "previousAdminRole",
          "type": "bytes32",
          "indexed": true,
          "internalType": "bytes32"
        },
        {
          "name": "newAdminRole",
          "type": "bytes32",
          "indexed": true,
          "internalType": "bytes32"
        }
      ],
      "anonymous": false
    },
    {
      "type": "event",
      "name": "RoleGranted",
      "inputs": [
        {
          "name": "role",
          "type": "bytes32",
          "indexed": true,
          "internalType": "bytes32"
        },
        {
          "name": "account",
          "type": "address",
          "indexed": true,
          "internalType": "address"
        },
        {
          "name": "sender",
          "type": "address",
          "indexed": true,
          "internalType": "address"
        }
      ],
      "anonymous": false
    },
    {
      "type": "event",
      "name": "RoleRevoked",
      "inputs": [
        {
          "name": "role",
          "type": "bytes32",
          "indexed": true,
          "internalType": "bytes32"
        },
        {
          "name": "account",
          "type": "address",
          "indexed": true,
          "internalType": "address"
        },
        {
          "name": "sender",
          "type": "address",
          "indexed": true,
          "internalType": "address"
        }
      ],
      "anonymous": false
    },
    {
      "type": "event",
      "name": "SetDefaultMultiplierBps",
      "inputs": [
        {
          "name": "multiplierBps",
          "type": "uint16",
          "indexed": false,
          "internalType": "uint16"
        }
      ],
      "anonymous": false
    },
    {
      "type": "event",
      "name": "SetPriceFeed",
      "inputs": [
        {
          "name": "priceFeed",
          "type": "address",
          "indexed": false,
          "internalType": "address"
        }
      ],
      "anonymous": false
    },
    {
      "type": "event",
      "name": "SetSupportedOptionTypes",
      "inputs": [
        {
          "name": "dstEid",
          "type": "uint32",
          "indexed": false,
          "internalType": "uint32"
        },
        {
          "name": "optionTypes",
          "type": "uint8[]",
          "indexed": false,
          "internalType": "uint8[]"
        }
      ],
      "anonymous": false
    },
    {
      "type": "event",
      "name": "SetWorkerLib",
      "inputs": [
        {
          "name": "workerLib",
          "type": "address",
          "indexed": false,
          "internalType": "address"
        }
      ],
      "anonymous": false
    },
    {
      "type": "event",
      "name": "Unpaused",
      "inputs": [
        {
          "name": "account",
          "type": "address",
          "indexed": false,
          "internalType": "address"
        }
      ],
      "anonymous": false
    },
    {
      "type": "event",
      "name": "Withdraw",
      "inputs": [
        {
          "name": "lib",
          "type": "address",
          "indexed": false,
          "internalType": "address"
        },
        {
          "name": "to",
          "type": "address",
          "indexed": false,
          "internalType": "address"
        },
        {
          "name": "amount",
          "type": "uint256",
          "indexed": false,
          "internalType": "uint256"
        }
      ],
      "anonymous": false
    },
    {
      "type": "error",
      "name": "AccessControlBadConfirmation",
      "inputs": []
    },
    {
      "type": "error",
      "name": "AccessControlUnauthorizedAccount",
      "inputs": [
        {
          "name": "account",
          "type": "address",
          "internalType": "address"
        },
        {
          "name": "neededRole",
          "type": "bytes32",
          "internalType": "bytes32"
        }
      ]
    },
    {
      "type": "error",
      "name": "AddressEmptyCode",
      "inputs": [
        {
          "name": "target",
          "type": "address",
          "internalType": "address"
        }
      ]
    },
    {
      "type": "error",
      "name": "AddressInsufficientBalance",
      "inputs": [
        {
          "name": "account",
          "type": "address",
          "internalType": "address"
        }
      ]
    },
    {
      "type": "error",
      "name": "EnforcedPause",
      "inputs": []
    },
    {
      "type": "error",
      "name": "ExpectedPause",
      "inputs": []
    },
    {
      "type": "error",
      "name": "FailedInnerCall",
      "inputs": []
    },
    {
      "type": "error",
      "name": "ReentrancyGuardReentrantCall",
      "inputs": []
    },
    {
      "type": "error",
      "name": "SafeERC20FailedOperation",
      "inputs": [
        {
          "name": "token",
          "type": "address",
          "internalType": "address"
        }
      ]
    },
    {
      "type": "error",
      "name": "Transfer_NativeFailed",
      "inputs": [
        {
          "name": "_to",
          "type": "address",
          "internalType": "address"
        },
        {
          "name": "_value",
          "type": "uint256",
          "internalType": "uint256"
        }
      ]
    },
    {
      "type": "error",
      "name": "Transfer_ToAddressIsZero",
      "inputs": []
    },
    {
      "type": "error",
      "name": "Worker_NotAllowed",
      "inputs": []
    },
    {
      "type": "error",
      "name": "Worker_OnlyMessageLib",
      "inputs": []
    },
    {
      "type": "error",
      "name": "Worker_RoleRenouncingDisabled",
      "inputs": []
    }
  ],
  "bytecode": {
    "object": "0x60806040523480156200001157600080fd5b5060405162002c7038038062002c7083398101604081905262000034916200046f565b6001805460ff61ffff60e81b01191661017760ed1b179055600280546001600160a01b0319166001600160a01b038581169190911790915584908490612ee090859085908216156200008f576200008d60008362000226565b505b60005b8551811015620000f457620000ea7f724aface199fe5bed93ae8508474576a9adf3dc443b2c451842a2242919f19de878381518110620000d657620000d662000523565b60200260200101516200022660201b60201c565b5060010162000092565b5060005b815181101562000146576200013c7fa49807205ce4d355092ef5a8a18f56e8913cf4a201fbe287825b095693c21775838381518110620000d657620000d662000523565b50600101620000f8565b505060016004908155600680546001600160a01b0319166001600160a01b038d169081179091556040805163416ecebf60e01b8152905191965063416ecebf95508083019450602093509091908290030181865afa158015620001ad573d6000803e3d6000fd5b505050506040513d601f19601f82011682018060405250810190620001d3919062000539565b6006805463ffffffff92909216600160a01b0263ffffffff60a01b199092169190911790555050600780546001600160a01b039094166001600160a01b03199094169390931790925550620005a5915050565b60007f74845de37cfabd357633214b47fa91ccd19b05b7c5a08ac22c187f811fb62bca831480156200027957506000838152602081815260408083206001600160a01b038616845290915290205460ff16155b15620002c65760018054601590620002a190600160a81b90046001600160401b031662000568565b91906101000a8154816001600160401b0302191690836001600160401b031602179055505b620002d28383620002de565b50600190505b92915050565b6000828152602081815260408083206001600160a01b038516845290915281205460ff1662000383576000838152602081815260408083206001600160a01b03861684529091529020805460ff191660011790556200033a3390565b6001600160a01b0316826001600160a01b0316847f2f8788117e7eff1d82e926ec794901d17c78024a50270940304540a733656f0d60405160405180910390a4506001620002d8565b506000620002d8565b80516001600160a01b0381168114620003a457600080fd5b919050565b634e487b7160e01b600052604160045260246000fd5b600082601f830112620003d157600080fd5b815160206001600160401b0380831115620003f057620003f0620003a9565b8260051b604051601f19603f83011681018181108482111715620004185762000418620003a9565b60405293845260208187018101949081019250878511156200043957600080fd5b6020870191505b84821015620004645762000454826200038c565b8352918301919083019062000440565b979650505050505050565b60008060008060008060c087890312156200048957600080fd5b62000494876200038c565b9550620004a4602088016200038c565b60408801519095506001600160401b0380821115620004c257600080fd5b620004d08a838b01620003bf565b9550620004e060608a016200038c565b9450620004f060808a016200038c565b935060a08901519150808211156200050757600080fd5b506200051689828a01620003bf565b9150509295509295509295565b634e487b7160e01b600052603260045260246000fd5b6000602082840312156200054c57600080fd5b815163ffffffff811681146200056157600080fd5b9392505050565b60006001600160401b038281166002600160401b031981016200059b57634e487b7160e01b600052601160045260246000fd5b6001019392505050565b6126bb80620005b56000396000f3fe6080604052600436106101e25760003560e01c8063709eb66411610102578063a217fddf11610095578063c7b2370b11610064578063c7b2370b14610649578063cd88b90314610669578063d2ae210414610689578063d547741f146106c857600080fd5b8063a217fddf146105cf578063c2803b2c146105e4578063c358de0a14610604578063c416aa511461062457600080fd5b8063741bef1a116100d1578063741bef1a146104cd5780638624ba07146104ed57806391d14854146105005780639e9449651461052057600080fd5b8063709eb66414610434578063717e8a4214610454578063724e78da14610474578063726075371461049457600080fd5b80632f2ff15d1161017a5780633d85ac33116101495780633d85ac33146103b1578063475b6d9e146103d15780635c975abb146103e45780635e280f11146103fc57600080fd5b80632f2ff15d1461033e5780633146646a1461035e57806336568abe1461037e5780633927c0751461039e57600080fd5b806316c38b3c116101b657806316c38b3c14610293578063248a9ca3146102b357806326e67a37146102f15780632de113761461031e57600080fd5b8062bf2e80146101e757806301e336671461022157806301ffc9a7146102435780631095b6d714610273575b600080fd5b3480156101f357600080fd5b5060015461020990600160e81b900461ffff1681565b60405161ffff90911681526020015b60405180910390f35b34801561022d57600080fd5b5061024161023c366004611a9c565b6106e8565b005b34801561024f57600080fd5b5061026361025e366004611ad8565b610711565b6040519015158152602001610218565b34801561027f57600080fd5b5061024161028e366004611a9c565b610748565b34801561029f57600080fd5b506102416102ae366004611b10565b61085b565b3480156102bf57600080fd5b506102e36102ce366004611b2d565b60009081526020819052604090206001015490565b604051908152602001610218565b3480156102fd57600080fd5b5061031161030c366004611b5a565b610880565b6040516102189190611b75565b34801561032a57600080fd5b50610263610339366004611bbc565b610907565b34801561034a57600080fd5b50610241610359366004611bd7565b61099e565b34801561036a57600080fd5b50610241610379366004611c4b565b6109c3565b34801561038a57600080fd5b50610241610399366004611bd7565b610a53565b6102416103ac366004611cf2565b610a6c565b3480156103bd57600080fd5b506102416103cc366004611e33565b610b27565b6102416103df366004611f4e565b610c9e565b3480156103f057600080fd5b5060015460ff16610263565b34801561040857600080fd5b5060065461041c906001600160a01b031681565b6040516001600160a01b039091168152602001610218565b34801561044057600080fd5b506102e361044f366004611fcc565b610ce0565b34801561046057600080fd5b506102e361046f366004611fcc565b610de7565b34801561048057600080fd5b5061024161048f366004611bbc565b610f13565b3480156104a057600080fd5b506006546104b890600160a01b900463ffffffff1681565b60405163ffffffff9091168152602001610218565b3480156104d957600080fd5b5060025461041c906001600160a01b031681565b6102416104fb36600461203a565b610f79565b34801561050c57600080fd5b5061026361051b366004611bd7565b611084565b34801561052c57600080fd5b5061058c61053b366004611b5a565b600560205260009081526040902080546001909101546001600160401b038083169261ffff600160401b820416926001600160801b03600160501b90920482169291811691600160801b9091041685565b604080516001600160401b03968716815261ffff90951660208601526001600160801b03938416908501529116606083015291909116608082015260a001610218565b3480156105db57600080fd5b506102e3600081565b3480156105f057600080fd5b5060075461041c906001600160a01b031681565b34801561061057600080fd5b5061024161061f3660046120b2565b6110ad565b34801561063057600080fd5b5060015461041c9061010090046001600160a01b031681565b34801561065557600080fd5b50610241610664366004611bbc565b611115565b34801561067557600080fd5b506102416106843660046120cd565b611183565b34801561069557600080fd5b506001546106b090600160a81b90046001600160401b031681565b6040516001600160401b039091168152602001610218565b3480156106d457600080fd5b506102416106e3366004611bd7565b6111bb565b600080516020612666833981519152610700816111e0565b61070b8484846111ed565b50505050565b60006001600160e01b03198216637965db0b60e01b148061074257506301ffc9a760e01b6001600160e01b03198316145b92915050565b600080516020612666833981519152610760816111e0565b61078a7f724aface199fe5bed93ae8508474576a9adf3dc443b2c451842a2242919f19de85611084565b6107a757604051635ee08b9760e01b815260040160405180910390fd5b604051637ecdf29160e11b81526001600160a01b0384811660048301526024820184905285169063fd9be52290604401600060405180830381600087803b1580156107f157600080fd5b505af1158015610805573d6000803e3d6000fd5b5050604080516001600160a01b038089168252871660208201529081018590527f9b1bfa7fa9ee420a16e124f794c35ac9f90472acc99140eb2f6447c714cad8eb9250606001905060405180910390a150505050565b6000610866816111e0565b811561087857610874611215565b5050565b610874611269565b63ffffffff81166000908152600360209081526040918290208054835181840281018401909452808452606093928301828280156108fb57602002820191906000526020600020906000905b825461010083900a900460ff168152602060019283018181049485019490930390920291018084116108cc5790505b50505050509050919050565b60006109337f4270fae16c6d150d00e80b689daca99e8073b1838ff2b6063a37be9d851283e483611084565b1561094057506000919050565b600154600160a81b90046001600160401b0316158061098457506109847f74845de37cfabd357633214b47fa91ccd19b05b7c5a08ac22c187f811fb62bca83611084565b1561099157506001919050565b506000919050565b919050565b6000828152602081905260409020600101546109b9816111e0565b61070b83836112a2565b6000805160206126668339815191526109db816111e0565b6109e3611338565b600754604051631cca20df60e31b81526001600160a01b039091169063e65106f890610a179087908790879060040161217b565b600060405180830381600087803b158015610a3157600080fd5b505af1158015610a45573d6000803e3d6000fd5b5050505061070b6001600455565b60405163dec9f03160e01b815260040160405180910390fd5b600080516020612666833981519152610a84816111e0565b610a8c611338565b610aac88610a9a8686611362565b610aa48787611385565b8a8a8a61139e565b50600754604051631cca20df60e31b81526001600160a01b039091169063e65106f890610ae19087908790879060040161217b565b600060405180830381600087803b158015610afb57600080fd5b505af1158015610b0f573d6000803e3d6000fd5b50505050610b1d6001600455565b5050505050505050565b600080516020612666833981519152610b3f816111e0565b60005b8251811015610c62576000838281518110610b5f57610b5f61219f565b6020908102919091018101516040805160a08082018352838501516001600160401b03908116835260608086015161ffff9081168589019081526080808901516001600160801b03908116888a01908152968a01518116948801948552888a01518616918801918252985163ffffffff1660009081526005909a529690982094518554985194518816600160501b026fffffffffffffffffffffffffffffffff60501b1995909216600160401b0269ffffffffffffffffffff1990991690841617979097179290921695909517825551600191820180549351909516600160801b026001600160c01b031990931693169290921717909155919091019050610b42565b507fb99f6de5e22c60c178b03bfacf2daeb4b6089f5b37e0fe2c48a5d5141191fc5382604051610c9291906121b5565b60405180910390a15050565b600080516020612666833981519152610cb6816111e0565b610cbe611338565b610ccc87878787878761139e565b50610cd76001600455565b50505050505050565b600084610cec81610907565b610d0957604051634ab5ebcd60e01b815260040160405180910390fd5b610d11611505565b6040805160a0810182526002546001600160a01b03908116825263ffffffff8a1660208084018290528a831684860152606084018a905260015461ffff600160e81b8204166080860152600092835260059091529084902093516321a7700b60e11b815292936101009091049091169163434ee01691610d9a918591908a908a90600401612252565b602060405180830381865afa158015610db7573d6000803e3d6000fd5b505050506040513d601f19601f82011682018060405250810190610ddb9190612306565b98975050505050505050565b60007f724aface199fe5bed93ae8508474576a9adf3dc443b2c451842a2242919f19de610e13816111e0565b85610e1d81610907565b610e3a57604051634ab5ebcd60e01b815260040160405180910390fd5b6040805160a0810182526002546001600160a01b03908116825263ffffffff8b1660208084018290528b831684860152606084018b905260015461ffff600160e81b820416608086015260009283526005909152908490209351632b377bb160e11b815292936101009091049091169163566ef76291610ec3918591908b908b90600401612252565b6020604051808303816000875af1158015610ee2573d6000803e3d6000fd5b505050506040513d601f19601f82011682018060405250810190610f069190612306565b9998505050505050505050565b600080516020612666833981519152610f2b816111e0565b600280546001600160a01b0319166001600160a01b0384169081179091556040519081527ff724a45d041687842411f2b977ef22ab8f43c8f1104f4592b42a00f9b34a643d90602001610c92565b600080516020612666833981519152610f91816111e0565b610f99611338565b600654600090610fc7906020850190600160a01b900463ffffffff16610fbf8287611bbc565b89898961139e565b90506000610fd58234612335565b6006549091506001600160a01b0316630c0c389e60e08601358360208801610ffd818a611bbc565b60808a013561100f60a08c018c612348565b61101c60c08e018e612348565b6040518a63ffffffff1660e01b815260040161103e97969594939291906123c7565b6000604051808303818589803b15801561105757600080fd5b5088f115801561106b573d6000803e3d6000fd5b505050505050505061107d6001600455565b5050505050565b6000918252602082815260408084206001600160a01b0393909316845291905290205460ff1690565b6000805160206126668339815191526110c5816111e0565b6001805461ffff60e81b1916600160e81b61ffff8516908102919091179091556040519081527f7af0ac740036ffb1c97b03697859d729e80a44ae5030543d64971c313565ab4d90602001610c92565b60008051602061266683398151915261112d816111e0565b60018054610100600160a81b0319166101006001600160a01b038516908102919091179091556040519081527f1399be28223800f8669b3ba5f8721d9fc16fc4e8d0bbf98378791c8c5a3015e090602001610c92565b60008051602061266683398151915261119b816111e0565b63ffffffff8416600090815260036020526040902061107d9084846119c7565b6000828152602081905260409020600101546111d6816111e0565b61070b838361152b565b6111ea81336115b5565b50565b6001600160a01b03831661120a5761120582826115f3565b505050565b6112058383836116a0565b61121d611505565b6001805460ff1916811790557f62e78cea01bee320cd4e420270b5ea74000d11b0c9f74754ebdbfc544b05a258335b6040516001600160a01b03909116815260200160405180910390a1565b6112716116db565b6001805460ff191690557f5db9ee0a495bf2e6ff9c91a7834c1ba4fdd244a5e8aa4e537bd38aeae4b073aa3361124c565b60007f74845de37cfabd357633214b47fa91ccd19b05b7c5a08ac22c187f811fb62bca831480156112da57506112d88383611084565b155b1561132457600180546015906112ff90600160a81b90046001600160401b031661241d565b91906101000a8154816001600160401b0302191690836001600160401b031602179055505b61132e83836116fe565b5060019392505050565b60026004540361135b57604051633ee5aeb560e01b815260040160405180910390fd5b6002600455565b60006113726031602d8486612443565b61137b9161246d565b60e01c9392505050565b60006113976113948484611790565b90565b9392505050565b600080836001600160401b038111156113b9576113b9611d85565b6040519080825280602002602001820160405280156113e2578160200160208202803683370190505b50905060005b848110156114b85760008686838181106114045761140461219f565b90506040020180360381019061141a919061249d565b9050600081600001516001600160a01b031682602001518790604051600060405180830381858888f193505050503d8060008114611474576040519150601f19603f3d011682016040523d82523d6000602084013e611479565b606091505b50509050808484815181106114905761149061219f565b9115156020928302919091018201528201516114ac90866124f3565b945050506001016113e8565b507f1f48172553121d8bf273ce457a5a3dd180d464e0add3e0143045b7fa039c34688888888888866040516114f296959493929190612544565b60405180910390a1509695505050505050565b60015460ff16156115295760405163d93c066560e01b815260040160405180910390fd5b565b60007f74845de37cfabd357633214b47fa91ccd19b05b7c5a08ac22c187f811fb62bca8314801561156157506115618383611084565b156115ab576001805460159061158690600160a81b90046001600160401b03166125d8565b91906101000a8154816001600160401b0302191690836001600160401b031602179055505b61132e83836117a9565b6115bf8282611084565b6108745760405163e2517d3f60e01b81526001600160a01b0382166004820152602481018390526044015b60405180910390fd5b6001600160a01b03821661161a576040516306b7a93160e41b815260040160405180910390fd5b6000826001600160a01b03168260405160006040518083038185875af1925050503d8060008114611667576040519150601f19603f3d011682016040523d82523d6000602084013e61166c565b606091505b505090508061120557604051631196f20d60e21b81526001600160a01b0384166004820152602481018390526044016115ea565b6001600160a01b0382166116c7576040516306b7a93160e41b815260040160405180910390fd5b6112056001600160a01b0384168383611814565b60015460ff1661152957604051638dfc202b60e01b815260040160405180910390fd5b600061170a8383611084565b611788576000838152602081815260408083206001600160a01b03861684529091529020805460ff191660011790556117403390565b6001600160a01b0316826001600160a01b0316847f2f8788117e7eff1d82e926ec794901d17c78024a50270940304540a733656f0d60405160405180910390a4506001610742565b506000610742565b60006117a0605160318486612443565b611397916125fb565b60006117b58383611084565b15611788576000838152602081815260408083206001600160a01b0386168085529252808320805460ff1916905551339286917ff6391f5c32d9c69d2a47ea670b442974b53935d1edc7fd64eb21e047a839171b9190a4506001610742565b604080516001600160a01b03848116602483015260448083018590528351808403909101815260649092019092526020810180516001600160e01b031663a9059cbb60e01b17905261120591859190600090611872908416836118c0565b905080516000141580156118975750808060200190518101906118959190612619565b155b1561120557604051635274afe760e01b81526001600160a01b03841660048201526024016115ea565b60606113978383600084600080856001600160a01b031684866040516118e69190612636565b60006040518083038185875af1925050503d8060008114611923576040519150601f19603f3d011682016040523d82523d6000602084013e611928565b606091505b5091509150611938868383611942565b9695505050505050565b606082611957576119528261199e565b611397565b815115801561196e57506001600160a01b0384163b155b1561199757604051639996b31560e01b81526001600160a01b03851660048201526024016115ea565b5080611397565b8051156119ae5780518082602001fd5b604051630a12f52160e11b815260040160405180910390fd5b82805482825590600052602060002090601f01602090048101928215611a605791602002820160005b83821115611a3157833560ff1683826101000a81548160ff021916908360ff16021790555092602001926001016020816000010492830192600103026119f0565b8015611a5e5782816101000a81549060ff0219169055600101602081600001049283019260010302611a31565b505b50611a6c929150611a70565b5090565b5b80821115611a6c5760008155600101611a71565b80356001600160a01b038116811461099957600080fd5b600080600060608486031215611ab157600080fd5b611aba84611a85565b9250611ac860208501611a85565b9150604084013590509250925092565b600060208284031215611aea57600080fd5b81356001600160e01b03198116811461139757600080fd5b80151581146111ea57600080fd5b600060208284031215611b2257600080fd5b813561139781611b02565b600060208284031215611b3f57600080fd5b5035919050565b803563ffffffff8116811461099957600080fd5b600060208284031215611b6c57600080fd5b61139782611b46565b6020808252825182820181905260009190848201906040850190845b81811015611bb057835160ff1683529284019291840191600101611b91565b50909695505050505050565b600060208284031215611bce57600080fd5b61139782611a85565b60008060408385031215611bea57600080fd5b82359150611bfa60208401611a85565b90509250929050565b60008083601f840112611c1557600080fd5b5081356001600160401b03811115611c2c57600080fd5b602083019150836020828501011115611c4457600080fd5b9250929050565b600080600060408486031215611c6057600080fd5b83356001600160401b03811115611c7657600080fd5b611c8286828701611c03565b909790965060209590950135949350505050565b600060608284031215611ca857600080fd5b50919050565b60008083601f840112611cc057600080fd5b5081356001600160401b03811115611cd757600080fd5b6020830191508360208260061b8501011115611c4457600080fd5b600080600080600080600060e0888a031215611d0d57600080fd5b611d178989611c96565b965060608801356001600160401b0380821115611d3357600080fd5b611d3f8b838c01611cae565b909850965060808a0135955060a08a0135915080821115611d5f57600080fd5b50611d6c8a828b01611c03565b989b979a5095989497959660c090950135949350505050565b634e487b7160e01b600052604160045260246000fd5b60405160c081016001600160401b0381118282101715611dbd57611dbd611d85565b60405290565b604051601f8201601f191681016001600160401b0381118282101715611deb57611deb611d85565b604052919050565b80356001600160401b038116811461099957600080fd5b803561ffff8116811461099957600080fd5b80356001600160801b038116811461099957600080fd5b60006020808385031215611e4657600080fd5b82356001600160401b0380821115611e5d57600080fd5b818501915085601f830112611e7157600080fd5b813581811115611e8357611e83611d85565b611e91848260051b01611dc3565b818152848101925060c0918202840185019188831115611eb057600080fd5b938501935b82851015611f425780858a031215611ecd5760008081fd5b611ed5611d9b565b611ede86611b46565b8152611eeb878701611df3565b878201526040611efc818801611df3565b908201526060611f0d878201611e0a565b908201526080611f1e878201611e1c565b9082015260a0611f2f878201611e1c565b9082015284529384019392850192611eb5565b50979650505050505050565b60008060008060008060e08789031215611f6757600080fd5b611f718888611c96565b9550611f7f60608801611b46565b9450611f8d60808801611a85565b935060a08701356001600160401b03811115611fa857600080fd5b611fb489828a01611cae565b979a969950949794969560c090950135949350505050565b600080600080600060808688031215611fe457600080fd5b611fed86611b46565b9450611ffb60208701611a85565b93506040860135925060608601356001600160401b0381111561201d57600080fd5b61202988828901611c03565b969995985093965092949392505050565b6000806000806060858703121561205057600080fd5b84356001600160401b038082111561206757600080fd5b61207388838901611cae565b909650945060208701359350604087013591508082111561209357600080fd5b50850161010081880312156120a757600080fd5b939692955090935050565b6000602082840312156120c457600080fd5b61139782611e0a565b6000806000604084860312156120e257600080fd5b6120eb84611b46565b925060208401356001600160401b038082111561210757600080fd5b818601915086601f83011261211b57600080fd5b81358181111561212a57600080fd5b8760208260051b850101111561213f57600080fd5b6020830194508093505050509250925092565b81835281816020850137506000828201602090810191909152601f909101601f19169091010190565b60408152600061218f604083018587612152565b9050826020830152949350505050565b634e487b7160e01b600052603260045260246000fd5b602080825282518282018190526000919060409081850190868401855b82811015612245578151805163ffffffff168552868101516001600160401b039081168887015286820151168686015260608082015161ffff16908601526080808201516001600160801b039081169187019190915260a091820151169085015260c090930192908501906001016121d2565b5091979650505050505050565b84516001600160a01b03908116825260208087015163ffffffff1690830152604080870151909116818301526060808701519083015260808087015161ffff9081168285015286546001600160401b0380821660a08701529381901c90911660c085015260501c6001600160801b0390811660e08501526001870154908116610100850152901c1661012082015261016061014082018190526000906122fb8382018587612152565b979650505050505050565b60006020828403121561231857600080fd5b5051919050565b634e487b7160e01b600052601160045260246000fd5b818103818111156107425761074261231f565b6000808335601e1984360301811261235f57600080fd5b8301803591506001600160401b0382111561237957600080fd5b602001915036819003821315611c4457600080fd5b63ffffffff61239c82611b46565b168252602081013560208301526001600160401b036123bd60408301611df3565b1660408301525050565b6123d1818961238e565b60018060a01b038716606082015285608082015260e060a082015260006123fc60e083018688612152565b82810360c084015261240f818587612152565b9a9950505050505050505050565b60006001600160401b038083168181036124395761243961231f565b6001019392505050565b6000808585111561245357600080fd5b8386111561246057600080fd5b5050820193919092039150565b6001600160e01b031981358181169160048510156124955780818660040360031b1b83161692505b505092915050565b6000604082840312156124af57600080fd5b604051604081018181106001600160401b03821117156124d1576124d1611d85565b6040526124dd83611a85565b8152602083013560208201528091505092915050565b808201808211156107425761074261231f565b60008151808452602080850194506020840160005b8381101561253957815115158752958201959082019060010161251b565b509495945050505050565b600060e08201612554838a61238e565b63ffffffff881660608401526001600160a01b03878116608085015260e060a0850152908590528590610100840160005b878110156125b6578261259785611a85565b1682526020848101359083015260409384019390910190600101612585565b5084810360c08601526125c98187612506565b9b9a5050505050505050505050565b60006001600160401b038216806125f1576125f161231f565b6000190192915050565b8035602083101561074257600019602084900360031b1b1692915050565b60006020828403121561262b57600080fd5b815161139781611b02565b6000825160005b81811015612657576020818601810151858301520161263d565b50600092019182525091905056fea49807205ce4d355092ef5a8a18f56e8913cf4a201fbe287825b095693c21775a2646970667358221220cab19ebaa8e6602c84c9f9f739a45b5571c5513ee60da41f638da9127243412364736f6c63430008160033",
    "linkReferences": {}
  },
  "methodIdentifiers": {
    "DEFAULT_ADMIN_ROLE()": "a217fddf",
    "allowlistSize()": "d2ae2104",
    "assignJob(uint32,address,uint256,bytes)": "717e8a42",
    "defaultMultiplierBps()": "00bf2e80",
    "dstConfig(uint32)": "9e944965",
    "endpoint()": "5e280f11",
    "execute301(bytes,uint256)": "3146646a",
    "getFee(uint32,address,uint256,bytes)": "709eb664",
    "getRoleAdmin(bytes32)": "248a9ca3",
    "getSupportedOptionTypes(uint32)": "26e67a37",
    "grantRole(bytes32,address)": "2f2ff15d",
    "hasAcl(address)": "2de11376",
    "hasRole(bytes32,address)": "91d14854",
    "localEid()": "72607537",
    "nativeDrop((uint32,bytes32,uint64),uint32,address,(address,uint256)[],uint256)": "475b6d9e",
    "nativeDropAndExecute301((uint32,bytes32,uint64),(address,uint256)[],uint256,bytes,uint256)": "3927c075",
    "nativeDropAndExecute302((address,uint256)[],uint256,(address,(uint32,bytes32,uint64),bytes32,bytes,bytes,uint256))": "8624ba07",
    "paused()": "5c975abb",
    "priceFeed()": "741bef1a",
    "receiveUln301()": "c2803b2c",
    "renounceRole(bytes32,address)": "36568abe",
    "revokeRole(bytes32,address)": "d547741f",
    "setDefaultMultiplierBps(uint16)": "c358de0a",
    "setDstConfig((uint32,uint64,uint64,uint16,uint128,uint128)[])": "3d85ac33",
    "setPaused(bool)": "16c38b3c",
    "setPriceFeed(address)": "724e78da",
    "setSupportedOptionTypes(uint32,uint8[])": "cd88b903",
    "setWorkerFeeLib(address)": "c7b2370b",
    "supportsInterface(bytes4)": "01ffc9a7",
    "withdrawFee(address,address,uint256)": "1095b6d7",
    "withdrawToken(address,address,uint256)": "01e33667",
    "workerFeeLib()": "c416aa51"
  },
  "id": 76
}