{"abi":[{"type":"constructor","inputs":[{"name":"_localEidV2","type":"uint32","internalType":"uint32"}],"stateMutability":"nonpayable"},{"type":"receive","stateMutability":"payable"},{"type":"function","name":"getFee","inputs":[{"name":"_params","type":"tuple","internalType":"struct IExecutorFeeLib.FeeParamsForRead","components":[{"name":"priceFeed","type":"address","internalType":"address"},{"name":"sender","type":"address","internalType":"address"},{"name":"defaultMultiplierBps","type":"uint16","internalType":"uint16"}]},{"name":"_dstConfig","type":"tuple","internalType":"struct IExecutor.DstConfig","components":[{"name":"lzReceiveBaseGas","type":"uint64","internalType":"uint64"},{"name":"multiplierBps","type":"uint16","internalType":"uint16"},{"name":"floorMarginUSD","type":"uint128","internalType":"uint128"},{"name":"nativeCap","type":"uint128","internalType":"uint128"},{"name":"lzComposeBaseGas","type":"uint64","internalType":"uint64"}]},{"name":"_options","type":"bytes","internalType":"bytes"}],"outputs":[{"name":"fee","type":"uint256","internalType":"uint256"}],"stateMutability":"view"},{"type":"function","name":"getFee","inputs":[{"name":"_params","type":"tuple","internalType":"struct IExecutorFeeLib.FeeParams","components":[{"name":"priceFeed","type":"address","internalType":"address"},{"name":"dstEid","type":"uint32","internalType":"uint32"},{"name":"sender","type":"address","internalType":"address"},{"name":"calldataSize","type":"uint256","internalType":"uint256"},{"name":"defaultMultiplierBps","type":"uint16","internalType":"uint16"}]},{"name":"_dstConfig","type":"tuple","internalType":"struct IExecutor.DstConfig","components":[{"name":"lzReceiveBaseGas","type":"uint64","internalType":"uint64"},{"name":"multiplierBps","type":"uint16","internalType":"uint16"},{"name":"floorMarginUSD","type":"uint128","internalType":"uint128"},{"name":"nativeCap","type":"uint128","internalType":"uint128"},{"name":"lzComposeBaseGas","type":"uint64","internalType":"uint64"}]},{"name":"_options","type":"bytes","internalType":"bytes"}],"outputs":[{"name":"fee","type":"uint256","internalType":"uint256"}],"stateMutability":"view"},{"type":"function","name":"getFeeOnSend","inputs":[{"name":"_params","type":"tuple","internalType":"struct IExecutorFeeLib.FeeParams","components":[{"name":"priceFeed","type":"address","internalType":"address"},{"name":"dstEid","type":"uint32","internalType":"uint32"},{"name":"sender","type":"address","internalType":"address"},{"name":"calldataSize","type":"uint256","internalType":"uint256"},{"name":"defaultMultiplierBps","type":"uint16","internalType":"uint16"}]},{"name":"_dstConfig","type":"tuple","internalType":"struct IExecutor.DstConfig","components":[{"name":"lzReceiveBaseGas","type":"uint64","internalType":"uint64"},{"name":"multiplierBps","type":"uint16","internalType":"uint16"},{"name":"floorMarginUSD","type":"uint128","internalType":"uint128"},{"name":"nativeCap","type":"uint128","internalType":"uint128"},{"name":"lzComposeBaseGas","type":"uint64","internalType":"uint64"}]},{"name":"_options","type":"bytes","internalType":"bytes"}],"outputs":[{"name":"fee","type":"uint256","internalType":"uint256"}],"stateMutability":"view"},{"type":"function","name":"getFeeOnSend","inputs":[{"name":"_params","type":"tuple","internalType":"struct IExecutorFeeLib.FeeParamsForRead","components":[{"name":"priceFeed","type":"address","internalType":"address"},{"name":"sender","type":"address","internalType":"address"},{"name":"defaultMultiplierBps","type":"uint16","internalType":"uint16"}]},{"name":"_dstConfig","type":"tuple","internalType":"struct IExecutor.DstConfig","components":[{"name":"lzReceiveBaseGas","type":"uint64","internalType":"uint64"},{"name":"multiplierBps","type":"uint16","internalType":"uint16"},{"name":"floorMarginUSD","type":"uint128","internalType":"uint128"},{"name":"nativeCap","type":"uint128","internalType":"uint128"},{"name":"lzComposeBaseGas","type":"uint64","internalType":"uint64"}]},{"name":"_options","type":"bytes","internalType":"bytes"}],"outputs":[{"name":"fee","type":"uint256","internalType":"uint256"}],"stateMutability":"view"},{"type":"function","name":"owner","inputs":[],"outputs":[{"name":"","type":"address","internalType":"address"}],"stateMutability":"view"},{"type":"function","name":"renounceOwnership","inputs":[],"outputs":[],"stateMutability":"nonpayable"},{"type":"function","name":"transferOwnership","inputs":[{"name":"newOwner","type":"address","internalType":"address"}],"outputs":[],"stateMutability":"nonpayable"},{"type":"function","name":"version","inputs":[],"outputs":[{"name":"major","type":"uint64","internalType":"uint64"},{"name":"minor","type":"uint8","internalType":"uint8"}],"stateMutability":"pure"},{"type":"function","name":"withdrawToken","inputs":[{"name":"_token","type":"address","internalType":"address"},{"name":"_to","type":"address","internalType":"address"},{"name":"_amount","type":"uint256","internalType":"uint256"}],"outputs":[],"stateMutability":"nonpayable"},{"type":"event","name":"OwnershipTransferred","inputs":[{"name":"previousOwner","type":"address","indexed":true,"internalType":"address"},{"name":"newOwner","type":"address","indexed":true,"internalType":"address"}],"anonymous":false},{"type":"error","name":"Executor_EidNotSupported","inputs":[{"name":"eid","type":"uint32","internalType":"uint32"}]},{"type":"error","name":"Executor_InvalidExecutorOptions","inputs":[{"name":"cursor","type":"uint256","internalType":"uint256"}]},{"type":"error","name":"Executor_InvalidLzComposeOption","inputs":[]},{"type":"error","name":"Executor_InvalidLzReadOption","inputs":[]},{"type":"error","name":"Executor_InvalidLzReceiveOption","inputs":[]},{"type":"error","name":"Executor_InvalidNativeDropOption","inputs":[]},{"type":"error","name":"Executor_NativeAmountExceedsCap","inputs":[{"name":"amount","type":"uint256","internalType":"uint256"},{"name":"cap","type":"uint256","internalType":"uint256"}]},{"type":"error","name":"Executor_NoOptions","inputs":[]},{"type":"error","name":"Executor_UnsupportedOptionType","inputs":[{"name":"optionType","type":"uint8","internalType":"uint8"}]},{"type":"error","name":"Executor_ZeroCalldataSizeProvided","inputs":[]},{"type":"error","name":"Executor_ZeroLzComposeGasProvided","inputs":[]},{"type":"error","name":"Executor_ZeroLzReceiveGasProvided","inputs":[]},{"type":"error","name":"OwnableInvalidOwner","inputs":[{"name":"owner","type":"address","internalType":"address"}]},{"type":"error","name":"OwnableUnauthorizedAccount","inputs":[{"name":"account","type":"address","internalType":"address"}]},{"type":"error","name":"SafeERC20FailedOperation","inputs":[{"name":"token","type":"address","internalType":"address"}]},{"type":"error","name":"Transfer_NativeFailed","inputs":[{"name":"_to","type":"address","internalType":"address"},{"name":"_value","type":"uint256","internalType":"uint256"}]},{"type":"error","name":"Transfer_ToAddressIsZero","inputs":[]}],"bytecode":{"object":"0x60c060405234801562000010575f80fd5b5060405162001b5038038062001b508339810160408190526200003391620000cf565b33806200005957604051631e4fbdf760e01b81525f600482015260240160405180910390fd5b620000648162000080565b5063ffffffff1660a052670de0b6b3a7640000608052620000fb565b5f80546001600160a01b038381166001600160a01b0319831681178455604051919092169283917f8be0079c531659141344cd1fd0a4f28419497f9722a3daafe3b4186f6b6457e09190a35050565b5f60208284031215620000e0575f80fd5b815163ffffffff81168114620000f4575f80fd5b9392505050565b60805160a051611a2c620001245f395f818161023a01526102ee01525f61083d0152611a2c5ff3fe608060405260043610610096575f3560e01c8063566ef76211610066578063715018a61161004c578063715018a6146101715780638da5cb5b14610185578063f2fde38b146101b8575f80fd5b8063566ef762146101335780636500378414610152575f80fd5b806301e33667146100a1578063337c7a9e146100c2578063434ee016146100f457806354fd4d5014610113575f80fd5b3661009d57005b5f80fd5b3480156100ac575f80fd5b506100c06100bb366004611549565b6101d7565b005b3480156100cd575f80fd5b506100e16100dc3660046115dd565b6101ef565b6040519081526020015b60405180910390f35b3480156100ff575f80fd5b506100e161010e366004611644565b610408565b34801561011e575f80fd5b506040805160018082526020820152016100eb565b34801561013e575f80fd5b506100e161014d366004611644565b61060a565b34801561015d575f80fd5b506100e161016c3660046115dd565b610620565b34801561017c575f80fd5b506100c061062d565b348015610190575f80fd5b505f5460405173ffffffffffffffffffffffffffffffffffffffff90911681526020016100eb565b3480156101c3575f80fd5b506100c06101d236600461168d565b610640565b6101df6106a3565b6101ea8383836106f5565b505050565b5f6101fd60208501856116ad565b67ffffffffffffffff165f0361026c576040517fc3baa0b700000000000000000000000000000000000000000000000000000000815263ffffffff7f00000000000000000000000000000000000000000000000000000000000000001660048201526024015b60405180910390fd5b5f80806102a960018261028260208b018b6116ad565b61029260a08c0160808d016116ad565b6102a260808d0160608e016116f1565b8b8b610725565b919450925090505f8080806102c160208d018d61168d565b6040517f88a4124c00000000000000000000000000000000000000000000000000000000815263ffffffff7f000000000000000000000000000000000000000000000000000000000000000081166004830152871660248201526044810188905273ffffffffffffffffffffffffffffffffffffffff91909116906388a4124c90606401608060405180830381865afa158015610360573d5f803e3d5ffd5b505050506040513d601f19601f82011682018060405250810190610384919061170c565b929650909450925090506103ce846103a260408e0160208f0161175e565b8e60400160208101906103b5919061175e565b8e60400160208101906103c891906116f1565b856107b5565b97506103ee8784848f60400160208101906103e9919061175e565b6108ab565b6103f890896117ac565b9c9b505050505050505050505050565b5f61041660208501856116ad565b67ffffffffffffffff165f036104715761043660408601602087016117c5565b6040517fc3baa0b700000000000000000000000000000000000000000000000000000000815263ffffffff9091166004820152602401610263565b5f806104c38161048f61048a60408b0160208c016117c5565b505f90565b61049c60208a018a6116ad565b6104ac60a08b0160808c016116ad565b6104bc60808c0160608d016116f1565b8a8a610725565b5090925090505f8080806104da60208c018c61168d565b73ffffffffffffffffffffffffffffffffffffffff166388a4124c61050560408e0160208f016117c5565b6040517fffffffff0000000000000000000000000000000000000000000000000000000060e084901b16815263ffffffff91909116600482015260608e0135602482015260448101889052606401608060405180830381865afa15801561056e573d5f803e3d5ffd5b505050506040513d601f19601f82011682018060405250810190610592919061170c565b929650909450925090506105d6846105b060408d0160208e0161175e565b8d60800160208101906105c3919061175e565b8d60400160208101906103c891906116f1565b96506105f18684848e60800160208101906103e9919061175e565b6105fb90886117ac565b9b9a5050505050505050505050565b5f61061785858585610408565b95945050505050565b5f610617858585856101ef565b6106356106a3565b61063e5f610911565b565b6106486106a3565b73ffffffffffffffffffffffffffffffffffffffff8116610697576040517f1e4fbdf70000000000000000000000000000000000000000000000000000000081525f6004820152602401610263565b6106a081610911565b50565b5f5473ffffffffffffffffffffffffffffffffffffffff16331461063e576040517f118cdaa7000000000000000000000000000000000000000000000000000000008152336004820152602401610263565b73ffffffffffffffffffffffffffffffffffffffff831661071a576101ea8282610985565b6101ea838383610a87565b5f805f8061073686868d8d8b610af5565b805160608201516080830151919650935090915061075e9067ffffffffffffffff8a166117e8565b60208201516107779067ffffffffffffffff8c166117ac565b61078191906117ac565b92508060400151156107a757606461079a8460666117e8565b6107a491906117ff565b92505b509750975097945050505050565b5f8061ffff8616156107c757856107c9565b845b90505f6127106107dd61ffff84168a6117e8565b6107e791906117ff565b90506fffffffffffffffffffffffffffffffff8416158061081857506fffffffffffffffffffffffffffffffff8516155b156108265791506106179050565b5f88856fffffffffffffffffffffffffffffffff167f0000000000000000000000000000000000000000000000000000000000000000886fffffffffffffffffffffffffffffffff1661087991906117e8565b61088391906117ff565b61088d91906117ac565b905081811161089c578161089e565b805b9998505050505050505050565b5f8415610909576127108261ffff16846fffffffffffffffffffffffffffffffff16866fffffffffffffffffffffffffffffffff16886108eb91906117e8565b6108f591906117ff565b6108ff91906117e8565b61061791906117ff565b949350505050565b5f805473ffffffffffffffffffffffffffffffffffffffff8381167fffffffffffffffffffffffff0000000000000000000000000000000000000000831681178455604051919092169283917f8be0079c531659141344cd1fd0a4f28419497f9722a3daafe3b4186f6b6457e09190a35050565b73ffffffffffffffffffffffffffffffffffffffff82166109d2576040517f6b7a931000000000000000000000000000000000000000000000000000000000815260040160405180910390fd5b5f8273ffffffffffffffffffffffffffffffffffffffff16826040515f6040518083038185875af1925050503d805f8114610a28576040519150601f19603f3d011682016040523d82523d5f602084013e610a2d565b606091505b50509050806101ea576040517f465bc83400000000000000000000000000000000000000000000000000000000815273ffffffffffffffffffffffffffffffffffffffff8416600482015260248101839052604401610263565b73ffffffffffffffffffffffffffffffffffffffff8216610ad4576040517f6b7a931000000000000000000000000000000000000000000000000000000000815260040160405180910390fd5b6101ea73ffffffffffffffffffffffffffffffffffffffff8416838361110f565b610b2a6040518060a001604052805f81526020015f81526020015f151581526020015f63ffffffff1681526020015f81525090565b5f859003610b63576040517e575ea100000000000000000000000000000000000000000000000000000000815260040160405180910390fd5b5f80805b87831015610fbc575f368180610b7e8d8d8961119c565b9950919550935091508690507fffffffffffffffffffffffffffffffffffffffffffffffffffffffffffffffff60ff851601610ca6578a15610bf1576040517f052e551500000000000000000000000000000000000000000000000000000000815260ff85166004820152602401610263565b5f80610bfd85856111f1565b915091508b8015610c1f57505f816fffffffffffffffffffffffffffffffff16115b15610c5b576040517f052e551500000000000000000000000000000000000000000000000000000000815260ff87166004820152602401610263565b806fffffffffffffffffffffffffffffffff168a5f01818151610c7e91906117ac565b905250610c9d6fffffffffffffffffffffffffffffffff8316896117ac565b97505050610fb3565b7ffffffffffffffffffffffffffffffffffffffffffffffffffffffffffffffffe60ff851601610d48578a15610d0d576040517f052e551500000000000000000000000000000000000000000000000000000000815260ff85166004820152602401610263565b5f610d18848461126c565b509050806fffffffffffffffffffffffffffffffff16895f01818151610d3e91906117ac565b905250610fb39050565b7ffffffffffffffffffffffffffffffffffffffffffffffffffffffffffffffffd60ff851601610e75578915610daf576040517f052e551500000000000000000000000000000000000000000000000000000000815260ff85166004820152602401610263565b5f80610dbb85856112c1565b9250925050816fffffffffffffffffffffffffffffffff165f03610e0b576040517fa169d0e100000000000000000000000000000000000000000000000000000000815260040160405180910390fd5b806fffffffffffffffffffffffffffffffff168a5f01818151610e2e91906117ac565b90525060208a0180516fffffffffffffffffffffffffffffffff84169190610e579083906117ac565b90525060808a01805190610e6a82611837565b815250505050610fb3565b7ffffffffffffffffffffffffffffffffffffffffffffffffffffffffffffffffc60ff851601610eab5760016040890152610fb3565b7ffffffffffffffffffffffffffffffffffffffffffffffffffffffffffffffffb60ff851601610f7c578a610f11576040517f052e551500000000000000000000000000000000000000000000000000000000815260ff85166004820152602401610263565b5f805f610f1e868661134b565b925092509250806fffffffffffffffffffffffffffffffff168b5f01818151610f4791906117ac565b905250610f666fffffffffffffffffffffffffffffffff84168a6117ac565b9850610f72828961186e565b9750505050610fb3565b6040517f052e551500000000000000000000000000000000000000000000000000000000815260ff85166004820152602401610263565b50505050610b67565b828814610ff8576040517f990776ea00000000000000000000000000000000000000000000000000000000815260048101849052602401610263565b83516fffffffffffffffffffffffffffffffff861610156110625783516040517e84ce0200000000000000000000000000000000000000000000000000000000815260048101919091526fffffffffffffffffffffffffffffffff86166024820152604401610263565b815f0361109b576040517fe5eb8f3000000000000000000000000000000000000000000000000000000000815260040160405180910390fd5b8680156110ac575063ffffffff8116155b156110e3576040517f6cc33f0600000000000000000000000000000000000000000000000000000000815260040160405180910390fd5b81846020018181516110f591906117ac565b90525063ffffffff16606084015250909695505050505050565b6040805173ffffffffffffffffffffffffffffffffffffffff8416602482015260448082018490528251808303909101815260649091019091526020810180517bffffffffffffffffffffffffffffffffffffffffffffffffffffffff167fa9059cbb000000000000000000000000000000000000000000000000000000001790526101ea9084906113cc565b5f368160018401816111af888884611471565b6002929092019190506111c3888884611497565b94506001820161ffff821683016111dc81838b8d611892565b979b909a50969850505061ffff160193505050565b5f8060108314801590611205575060208314155b1561123c576040517f4796aee100000000000000000000000000000000000000000000000000000000815260040160405180910390fd5b61124784845f6114bb565b915060208314611257575f611263565b611263848460106114bb565b90509250929050565b5f80603083146112a8576040517fc3a1858e00000000000000000000000000000000000000000000000000000000815260040160405180910390fd5b6112b384845f6114bb565b9150611263848460106114e1565b5f8080601284148015906112d6575060228414155b1561130d576040517f8b4aa70b00000000000000000000000000000000000000000000000000000000815260040160405180910390fd5b61131885855f611471565b9250611326858560026114bb565b915060228414611336575f611342565b611342858560126114bb565b90509250925092565b5f808060148414801590611360575060248414155b15611397576040517fdeb7fe4200000000000000000000000000000000000000000000000000000000815260040160405180910390fd5b6113a285855f6114bb565b92506113b0858560106114fb565b9150602484146113c0575f611342565b611342858560146114bb565b5f8060205f8451602086015f885af1806113eb576040513d5f823e3d81fd5b50505f513d9150811561140257806001141561141c565b73ffffffffffffffffffffffffffffffffffffffff84163b155b1561146b576040517f5274afe700000000000000000000000000000000000000000000000000000000815273ffffffffffffffffffffffffffffffffffffffff85166004820152602401610263565b50505050565b5f6002820161148281848688611892565b61148b916118b9565b60f01c95945050505050565b5f8383838181106114aa576114aa611901565b919091013560f81c95945050505050565b5f601082016114cc81848688611892565b6114d59161192e565b60801c95945050505050565b5f602082016114f281848688611892565b61061791611974565b5f6004820161150c81848688611892565b611515916119b0565b60e01c95945050505050565b803573ffffffffffffffffffffffffffffffffffffffff81168114611544575f80fd5b919050565b5f805f6060848603121561155b575f80fd5b61156484611521565b925061157260208501611521565b9150604084013590509250925092565b5f60a08284031215611592575f80fd5b50919050565b5f8083601f8401126115a8575f80fd5b50813567ffffffffffffffff8111156115bf575f80fd5b6020830191508360208285010111156115d6575f80fd5b9250929050565b5f805f808486036101208112156115f2575f80fd5b60608112156115ff575f80fd5b508493506116108660608701611582565b925061010085013567ffffffffffffffff81111561162c575f80fd5b61163887828801611598565b95989497509550505050565b5f805f806101608587031215611658575f80fd5b6116628686611582565b93506116718660a08701611582565b925061014085013567ffffffffffffffff81111561162c575f80fd5b5f6020828403121561169d575f80fd5b6116a682611521565b9392505050565b5f602082840312156116bd575f80fd5b813567ffffffffffffffff811681146116a6575f80fd5b6fffffffffffffffffffffffffffffffff811681146106a0575f80fd5b5f60208284031215611701575f80fd5b81356116a6816116d4565b5f805f806080858703121561171f575f80fd5b845193506020850151611731816116d4565b6040860151909350611742816116d4565b6060860151909250611753816116d4565b939692955090935050565b5f6020828403121561176e575f80fd5b813561ffff811681146116a6575f80fd5b7f4e487b71000000000000000000000000000000000000000000000000000000005f52601160045260245ffd5b808201808211156117bf576117bf61177f565b92915050565b5f602082840312156117d5575f80fd5b813563ffffffff811681146116a6575f80fd5b80820281158282048414176117bf576117bf61177f565b5f82611832577f4e487b71000000000000000000000000000000000000000000000000000000005f52601260045260245ffd5b500490565b5f7fffffffffffffffffffffffffffffffffffffffffffffffffffffffffffffffff82036118675761186761177f565b5060010190565b63ffffffff81811683821601908082111561188b5761188b61177f565b5092915050565b5f80858511156118a0575f80fd5b838611156118ac575f80fd5b5050820193919092039150565b7fffff00000000000000000000000000000000000000000000000000000000000081358181169160028510156118f95780818660020360031b1b83161692505b505092915050565b7f4e487b71000000000000000000000000000000000000000000000000000000005f52603260045260245ffd5b7fffffffffffffffffffffffffffffffff0000000000000000000000000000000081358181169160108510156118f95760109490940360031b84901b1690921692915050565b803560208310156117bf577fffffffffffffffffffffffffffffffffffffffffffffffffffffffffffffffff602084900360031b1b1692915050565b7fffffffff0000000000000000000000000000000000000000000000000000000081358181169160048510156118f95760049490940360031b84901b169092169291505056fea264697066735822122072fd2da7ad2bf3e55a87f65d22044a6891cfc85556f244da6e0f7e3954474f0964736f6c63430008160033","linkReferences":{}},"methodIdentifiers":{"getFee((address,address,uint16),(uint64,uint16,uint128,uint128,uint64),bytes)":"337c7a9e","getFee((address,uint32,address,uint256,uint16),(uint64,uint16,uint128,uint128,uint64),bytes)":"434ee016","getFeeOnSend((address,address,uint16),(uint64,uint16,uint128,uint128,uint64),bytes)":"65003784","getFeeOnSend((address,uint32,address,uint256,uint16),(uint64,uint16,uint128,uint128,uint64),bytes)":"566ef762","owner()":"8da5cb5b","renounceOwnership()":"715018a6","transferOwnership(address)":"f2fde38b","version()":"54fd4d50","withdrawToken(address,address,uint256)":"01e33667"},"id":84}