{
  "abi": [
    {
      "type": "function",
      "name": "decodeLzComposeOption",
      "inputs": [
        {
          "name": "_option",
          "type": "bytes",
          "internalType": "bytes"
        }
      ],
      "outputs": [
        {
          "name": "index",
          "type": "uint16",
          "internalType": "uint16"
        },
        {
          "name": "gas",
          "type": "uint128",
          "internalType": "uint128"
        },
        {
          "name": "value",
          "type": "uint128",
          "internalType": "uint128"
        }
      ],
      "stateMutability": "pure"
    },
    {
      "type": "function",
      "name": "decodeLzReceiveOption",
      "inputs": [
        {
          "name": "_option",
          "type": "bytes",
          "internalType": "bytes"
        }
      ],
      "outputs": [
        {
          "name": "gas",
          "type": "uint128",
          "internalType": "uint128"
        },
        {
          "name": "value",
          "type": "uint128",
          "internalType": "uint128"
        }
      ],
      "stateMutability": "pure"
    },
    {
      "type": "function",
      "name": "decodeNativeDropOption",
      "inputs": [
        {
          "name": "_option",
          "type": "bytes",
          "internalType": "bytes"
        }
      ],
      "outputs": [
        {
          "name": "amount",
          "type": "uint128",
          "internalType": "uint128"
        },
        {
          "name": "receiver",
          "type": "bytes32",
          "internalType": "bytes32"
        }
      ],
      "stateMutability": "pure"
    },
    {
      "type": "function",
      "name": "nextExecutorOption",
      "inputs": [
        {
          "name": "_options",
          "type": "bytes",
          "internalType": "bytes"
        },
        {
          "name": "_cursor",
          "type": "uint256",
          "internalType": "uint256"
        }
      ],
      "outputs": [
        {
          "name": "optionType",
          "type": "uint8",
          "internalType": "uint8"
        },
        {
          "name": "option",
          "type": "bytes",
          "internalType": "bytes"
        },
        {
          "name": "cursor",
          "type": "uint256",
          "internalType": "uint256"
        }
      ],
      "stateMutability": "pure"
    },
    {
      "type": "error",
      "name": "Executor_InvalidLzComposeOption",
      "inputs": []
    },
    {
      "type": "error",
      "name": "Executor_InvalidLzReceiveOption",
      "inputs": []
    },
    {
      "type": "error",
      "name": "Executor_InvalidNativeDropOption",
      "inputs": []
    }
  ],
  "bytecode": {
    "object": "0x60806040526040516100109061005f565b604051809103906000f08015801561002c573d6000803e3d6000fd5b50600080546001600160a01b0319166001600160a01b039290921691909117905534801561005957600080fd5b5061006c565b6107f28061060d83390190565b6105928061007b6000396000f3fe608060405234801561001057600080fd5b506004361061004c5760003560e01c8063518e8ab0146100515780636e1775e314610093578063b954fdf6146100b6578063f93e1d61146100e8575b600080fd5b61006461005f3660046103c5565b61011b565b6040805161ffff90941684526001600160801b0392831660208501529116908201526060015b60405180910390f35b6100a66100a1366004610407565b610137565b60405161008a9493929190610453565b6100c96100c43660046103c5565b610159565b604080516001600160801b03909316835260208301919091520161008a565b6100fb6100f63660046103c5565b610172565b604080516001600160801b0393841681529290911660208301520161008a565b600080600061012a858561017f565b9250925092509250925092565b6000366000806101488787876101f3565b935093509350935093509350935093565b6000806101668484610249565b915091505b9250929050565b6000806101668484610290565b6000808060128414801590610195575060228414155b156101b357604051638b4aa70b60e01b815260040160405180910390fd5b6101bf858560006102ec565b92506101cd85856002610313565b9150602284146101de5760006101ea565b6101ea85856012610313565b90509250925092565b6000368160018401816102078888846102ec565b60029290920191905061021b88888461033a565b94506001820161ffff8216830161023481838b8d610496565b979b909a50969850505061ffff160193505050565b6000806030831461026d576040516361d0c2c760e11b815260040160405180910390fd5b61027984846000610313565b91506102878484601061035f565b90509250929050565b600080601083148015906102a5575060208314155b156102c357604051634796aee160e01b815260040160405180910390fd5b6102cf84846000610313565b9150602083146102e0576000610287565b61028784846010610313565b6000600282016102fe81848688610496565b610307916104c0565b60f01c95945050505050565b60006010820161032581848688610496565b61032e916104f0565b60801c95945050505050565b600083838381811061034e5761034e610527565b919091013560f81c95945050505050565b60006020820161037181848688610496565b61037a9161053d565b95945050505050565b60008083601f84011261039557600080fd5b50813567ffffffffffffffff8111156103ad57600080fd5b60208301915083602082850101111561016b57600080fd5b600080602083850312156103d857600080fd5b823567ffffffffffffffff8111156103ef57600080fd5b6103fb85828601610383565b90969095509350505050565b60008060006040848603121561041c57600080fd5b833567ffffffffffffffff81111561043357600080fd5b61043f86828701610383565b909790965060209590950135949350505050565b60ff85168152606060208201528260608201528284608083013760006080848301015260006080601f19601f860116830101905082604083015295945050505050565b600080858511156104a657600080fd5b838611156104b357600080fd5b5050820193919092039150565b6001600160f01b031981358181169160028510156104e85780818660020360031b1b83161692505b505092915050565b6fffffffffffffffffffffffffffffffff1981358181169160108510156104e85760109490940360031b84901b1690921692915050565b634e487b7160e01b600052603260045260246000fd5b8035602083101561055657600019602084900360031b1b165b9291505056fea2646970667358221220e0f790568e81edcf66242bc9ce07999543c0d4974dcac504475545a3a821e82a64736f6c63430008160033608060405234801561001057600080fd5b506107d2806100206000396000f3fe608060405234801561001057600080fd5b506004361061002b5760003560e01c8063e5c5e9a314610030575b600080fd5b61004361003e366004610529565b61005a565b6040516100519291906105eb565b60405180910390f35b6060806100678484610072565b915091509250929050565b606080600283101561009f5760405163196499c760e21b8152600060048201526024015b60405180910390fd5b60006100ae6002828688610619565b6100b791610643565b60f01c90506002600219820161021f578060005b868310156101c45760006100e460018501858a8c610619565b6100ed91610673565b60f81c9050600081900361011757604051636780cfaf60e01b815260006004820152602401610096565b8160ff1660000361012a57809150610167565b8160ff168160ff16146101675736600061014686868c8e610619565b915091506101578989868585610236565b9099509750859450919250829150505b600184019360009061017e90600301868b8d610619565b61018791610643565b60f01c905060008190036101b15760405163196499c760e21b815260048101869052602401610096565b8060020161ffff168501945050506100cb565b8287146101e75760405163196499c760e21b815260048101849052602401610096565b6002871115610218573660006101ff85858b8d610619565b915091506102108888858585610236565b909850965050505b505061022d565b61022a828787610356565b93505b50509250929050565b60608060001960ff8616016102b35786511561027557868484604051602001610261939291906106a1565b6040516020818303038152906040526102ac565b83838080601f0160208091040260200160405190810160405280939291908181526020018383808284376000920191909152505050505b965061034b565b60011960ff86160161032d578551156102ef578584846040516020016102db939291906106a1565b604051602081830303815290604052610326565b83838080601f0160208091040260200160405190810160405280939291908181526020018383808284376000920191909152505050505b955061034b565b604051636780cfaf60e01b815260ff86166004820152602401610096565b509495939450505050565b606060001961ffff8516016103f65760228214610386576040516301b8ca5560e31b815260040160405180910390fd5b60006103a7610399602260028688610619565b6103a2916106c9565b6104e8565b604051600160f81b60208201819052601160f01b602183015260238201526001600160801b0319608083901b1660248201529091506034016040516020818303038152906040529150506104e1565b60011961ffff8516016104c2576042821115806104135750606282115b15610431576040516360493e2b60e11b815260040160405180910390fd5b6000610444610399602260028688610619565b90506000610459610399604260228789610619565b90506000604119850161046f866042818a610619565b610478916106c9565b60405160086020938403029190911c92506104a9916001916011918391889183916031916002918b918b91016106e8565b60405160208183030381529060405293505050506104e1565b604051630417051360e41b815261ffff85166004820152602401610096565b9392505050565b60006fffffffffffffffffffffffffffffffff821115610525576040516306dfcc6560e41b81526080600482015260248101839052604401610096565b5090565b6000806020838503121561053c57600080fd5b823567ffffffffffffffff8082111561055457600080fd5b818501915085601f83011261056857600080fd5b81358181111561057757600080fd5b86602082850101111561058957600080fd5b60209290920196919550909350505050565b60005b838110156105b657818101518382015260200161059e565b50506000910152565b600081518084526105d781602086016020860161059b565b601f01601f19169290920160200192915050565b6040815260006105fe60408301856105bf565b828103602084015261061081856105bf565b95945050505050565b6000808585111561062957600080fd5b8386111561063657600080fd5b5050820193919092039150565b6001600160f01b0319813581811691600285101561066b5780818660020360031b1b83161692505b505092915050565b6001600160f81b0319813581811691600185101561066b5760019490940360031b84901b1690921692915050565b600084516106b381846020890161059b565b8201838582376000930192835250909392505050565b803560208310156106e257600019602084900360031b1b165b92915050565b60f88a811b6001600160f81b0319908116835260f08b901b6001600160f01b031916600184015289821b81166003840152608089901b6001600160801b03191660048401529087901b1660148201526000610752601583018760f01b6001600160f01b0319169052565b61076b601783018660f81b6001600160f81b0319169052565b610784601883018560801b6001600160801b0319169052565b5060288101919091526048019897505050505050505056fea264697066735822122087d1c9c3e8590d10bed154cb00b42abedc531024576bc1b43da0430052468aa364736f6c63430008160033",
    "linkReferences": {}
  },
  "methodIdentifiers": {
    "decodeLzComposeOption(bytes)": "518e8ab0",
    "decodeLzReceiveOption(bytes)": "f93e1d61",
    "decodeNativeDropOption(bytes)": "b954fdf6",
    "nextExecutorOption(bytes,uint256)": "6e1775e3"
  },
  "id": 58
}