{"abi":[{"type":"function","name":"decodeLzComposeOption","inputs":[{"name":"_option","type":"bytes","internalType":"bytes"}],"outputs":[{"name":"index","type":"uint16","internalType":"uint16"},{"name":"gas","type":"uint128","internalType":"uint128"},{"name":"value","type":"uint128","internalType":"uint128"}],"stateMutability":"pure"},{"type":"function","name":"decodeLzReadOption","inputs":[{"name":"_option","type":"bytes","internalType":"bytes"}],"outputs":[{"name":"gas","type":"uint128","internalType":"uint128"},{"name":"size","type":"uint32","internalType":"uint32"},{"name":"value","type":"uint128","internalType":"uint128"}],"stateMutability":"pure"},{"type":"function","name":"decodeLzReceiveOption","inputs":[{"name":"_option","type":"bytes","internalType":"bytes"}],"outputs":[{"name":"gas","type":"uint128","internalType":"uint128"},{"name":"value","type":"uint128","internalType":"uint128"}],"stateMutability":"pure"},{"type":"function","name":"decodeNativeDropOption","inputs":[{"name":"_option","type":"bytes","internalType":"bytes"}],"outputs":[{"name":"amount","type":"uint128","internalType":"uint128"},{"name":"receiver","type":"bytes32","internalType":"bytes32"}],"stateMutability":"pure"},{"type":"function","name":"nextExecutorOption","inputs":[{"name":"_options","type":"bytes","internalType":"bytes"},{"name":"_cursor","type":"uint256","internalType":"uint256"}],"outputs":[{"name":"optionType","type":"uint8","internalType":"uint8"},{"name":"option","type":"bytes","internalType":"bytes"},{"name":"cursor","type":"uint256","internalType":"uint256"}],"stateMutability":"pure"},{"type":"error","name":"Executor_InvalidLzComposeOption","inputs":[]},{"type":"error","name":"Executor_InvalidLzReadOption","inputs":[]},{"type":"error","name":"Executor_InvalidLzReceiveOption","inputs":[]},{"type":"error","name":"Executor_InvalidNativeDropOption","inputs":[]}],"bytecode":{"object":"0x60806040526040516100109061005a565b604051809103905ff080158015610029573d5f803e3d5ffd5b505f80546001600160a01b0319166001600160a01b0392909216919091179055348015610054575f80fd5b50610067565b610aa98061081f83390190565b6107ab806100745f395ff3fe608060405234801561000f575f80fd5b5060043610610064575f3560e01c80639751ca861161004d5780639751ca86146100d6578063b954fdf614610121578063f93e1d611461015c575f80fd5b8063518e8ab0146100685780636e1775e3146100b3575b5f80fd5b61007b61007636600461052a565b610198565b6040805161ffff90941684526fffffffffffffffffffffffffffffffff92831660208501529116908201526060015b60405180910390f35b6100c66100c1366004610569565b6101b2565b6040516100aa94939291906105b1565b6100e96100e436600461052a565b6101d2565b604080516fffffffffffffffffffffffffffffffff948516815263ffffffff90931660208401529216918101919091526060016100aa565b61013461012f36600461052a565b6101df565b604080516fffffffffffffffffffffffffffffffff90931683526020830191909152016100aa565b61016f61016a36600461052a565b6101f7565b604080516fffffffffffffffffffffffffffffffff9384168152929091166020830152016100aa565b5f805f6101a58585610203565b9250925092509250925092565b5f365f806101c187878761028d565b935093509350935093509350935093565b5f805f6101a585856102e2565b5f806101eb8484610363565b915091505b9250929050565b5f806101eb84846103c1565b5f808060128414801590610218575060228414155b1561024f576040517f8b4aa70b00000000000000000000000000000000000000000000000000000000815260040160405180910390fd5b61025a85855f610433565b925061026885856002610459565b915060228414610278575f610284565b61028485856012610459565b90509250925092565b5f368160018401816102a0888884610433565b6002929092019190506102b488888461047f565b94506001820161ffff821683016102cd81838b8d610610565b979b909a50969850505061ffff160193505050565b5f8080601484148015906102f7575060248414155b1561032e576040517fdeb7fe4200000000000000000000000000000000000000000000000000000000815260040160405180910390fd5b61033985855f610459565b9250610347858560106104a3565b915060248414610357575f610284565b61028485856014610459565b5f806030831461039f576040517fc3a1858e00000000000000000000000000000000000000000000000000000000815260040160405180910390fd5b6103aa84845f610459565b91506103b8848460106104c9565b90509250929050565b5f80601083148015906103d5575060208314155b1561040c576040517f4796aee100000000000000000000000000000000000000000000000000000000815260040160405180910390fd5b61041784845f610459565b915060208314610427575f6103b8565b6103b884846010610459565b5f6002820161044481848688610610565b61044d91610637565b60f01c95945050505050565b5f6010820161046a81848688610610565b6104739161067f565b60801c95945050505050565b5f838383818110610492576104926106c5565b919091013560f81c95945050505050565b5f600482016104b481848688610610565b6104bd916106f2565b60e01c95945050505050565b5f602082016104da81848688610610565b6104e391610738565b95945050505050565b5f8083601f8401126104fc575f80fd5b50813567ffffffffffffffff811115610513575f80fd5b6020830191508360208285010111156101f0575f80fd5b5f806020838503121561053b575f80fd5b823567ffffffffffffffff811115610551575f80fd5b61055d858286016104ec565b90969095509350505050565b5f805f6040848603121561057b575f80fd5b833567ffffffffffffffff811115610591575f80fd5b61059d868287016104ec565b909790965060209590950135949350505050565b60ff8516815260606020820152826060820152828460808301375f608084830101525f60807fffffffffffffffffffffffffffffffffffffffffffffffffffffffffffffffe0601f860116830101905082604083015295945050505050565b5f808585111561061e575f80fd5b8386111561062a575f80fd5b5050820193919092039150565b7fffff00000000000000000000000000000000000000000000000000000000000081358181169160028510156106775780818660020360031b1b83161692505b505092915050565b7fffffffffffffffffffffffffffffffff0000000000000000000000000000000081358181169160108510156106775760109490940360031b84901b1690921692915050565b7f4e487b71000000000000000000000000000000000000000000000000000000005f52603260045260245ffd5b7fffffffff0000000000000000000000000000000000000000000000000000000081358181169160048510156106775760049490940360031b84901b1690921692915050565b8035602083101561076f577fffffffffffffffffffffffffffffffffffffffffffffffffffffffffffffffff602084900360031b1b165b9291505056fea26469706673582212206427f06f67a16aeb50fbec9ad9f079c0ae41ec674c54eca221a17418aefaba3164736f6c63430008160033608060405234801561000f575f80fd5b50610a8c8061001d5f395ff3fe608060405234801561000f575f80fd5b5060043610610029575f3560e01c8063e5c5e9a31461002d575b5f80fd5b61004061003b3660046106f8565b610057565b60405161004e9291906107cf565b60405180910390f35b606080610064848461006f565b915091509250929050565b60608060028310156100b4576040517f6592671c0000000000000000000000000000000000000000000000000000000081525f60048201526024015b60405180910390fd5b5f6100c260028286886107fc565b6100cb91610823565b60f01c905060027ffffffffffffffffffffffffffffffffffffffffffffffffffffffffffffffffd820161029357805f5b86831015610220575f61011460018501858a8c6107fc565b61011d9161086b565b60f81c90505f81900361015e576040517f6780cfaf0000000000000000000000000000000000000000000000000000000081525f60048201526024016100ab565b8160ff165f03610170578091506101ac565b8160ff168160ff16146101ac57365f61018b86868c8e6107fc565b9150915061019c89898685856102aa565b9099509750859450919250829150505b60018401935f906101c290600301868b8d6107fc565b6101cb91610823565b60f01c90505f81900361020d576040517f6592671c000000000000000000000000000000000000000000000000000000008152600481018690526024016100ab565b8060020161ffff168501945050506100fc565b82871461025c576040517f6592671c000000000000000000000000000000000000000000000000000000008152600481018490526024016100ab565b600287111561028c57365f61027385858b8d6107fc565b9150915061028488888585856102aa565b909850965050505b50506102a1565b61029e82878761041d565b93505b50509250929050565b6060807fffffffffffffffffffffffffffffffffffffffffffffffffffffffffffffffff60ff86160161034457865115610307578684846040516020016102f3939291906108b1565b60405160208183030381529060405261033d565b83838080601f0160208091040260200160405190810160405280939291908181526020018383808284375f920191909152505050505b9650610412565b7ffffffffffffffffffffffffffffffffffffffffffffffffffffffffffffffffe60ff8616016103db5785511561039e5785848460405160200161038a939291906108b1565b6040516020818303038152906040526103d4565b83838080601f0160208091040260200160405190810160405280939291908181526020018383808284375f920191909152505050505b9550610412565b6040517f6780cfaf00000000000000000000000000000000000000000000000000000000815260ff861660048201526024016100ab565b509495939450505050565b60607fffffffffffffffffffffffffffffffffffffffffffffffffffffffffffffffff61ffff8516016105425760228214610484576040517f0dc652a800000000000000000000000000000000000000000000000000000000815260040160405180910390fd5b5f6104a46104966022600286886107fc565b61049f916108d7565b61069f565b6040517f0100000000000000000000000000000000000000000000000000000000000000602082018190527e11000000000000000000000000000000000000000000000000000000000000602183015260238201527fffffffffffffffffffffffffffffffff00000000000000000000000000000000608083901b166024820152909150603401604051602081830303815290604052915050610698565b7ffffffffffffffffffffffffffffffffffffffffffffffffffffffffffffffffe61ffff8516016106605760428211158061057d5750606282115b156105b4576040517fc0927c5600000000000000000000000000000000000000000000000000000000815260040160405180910390fd5b5f6105c66104966022600286886107fc565b90505f6105da6104966042602287896107fc565b90505f7fffffffffffffffffffffffffffffffffffffffffffffffffffffffffffffffbe850161060d866042818a6107fc565b610616916108d7565b60405160086020938403029190911c9250610647916001916011918391889183916031916002918b918b9101610914565b6040516020818303038152906040529350505050610698565b6040517f4170513000000000000000000000000000000000000000000000000000000000815261ffff851660048201526024016100ab565b9392505050565b5f6fffffffffffffffffffffffffffffffff8211156106f4576040517f6dfcc65000000000000000000000000000000000000000000000000000000000815260806004820152602481018390526044016100ab565b5090565b5f8060208385031215610709575f80fd5b823567ffffffffffffffff80821115610720575f80fd5b818501915085601f830112610733575f80fd5b813581811115610741575f80fd5b866020828501011115610752575f80fd5b60209290920196919550909350505050565b5f5b8381101561077e578181015183820152602001610766565b50505f910152565b5f815180845261079d816020860160208601610764565b601f017fffffffffffffffffffffffffffffffffffffffffffffffffffffffffffffffe0169290920160200192915050565b604081525f6107e16040830185610786565b82810360208401526107f38185610786565b95945050505050565b5f808585111561080a575f80fd5b83861115610816575f80fd5b5050820193919092039150565b7fffff00000000000000000000000000000000000000000000000000000000000081358181169160028510156108635780818660020360031b1b83161692505b505092915050565b7fff0000000000000000000000000000000000000000000000000000000000000081358181169160018510156108635760019490940360031b84901b1690921692915050565b5f84516108c2818460208901610764565b8201838582375f930192835250909392505050565b8035602083101561090e577fffffffffffffffffffffffffffffffffffffffffffffffffffffffffffffffff602084900360031b1b165b92915050565b5f7fff00000000000000000000000000000000000000000000000000000000000000808c60f81b1683527fffff0000000000000000000000000000000000000000000000000000000000008b60f01b166001840152808a60f81b1660038401527fffffffffffffffffffffffffffffffff000000000000000000000000000000008960801b166004840152808860f81b166014840152506109dc601583018760f01b7fffff000000000000000000000000000000000000000000000000000000000000169052565b610a0d601783018660f81b7fff00000000000000000000000000000000000000000000000000000000000000169052565b610a3e601883018560801b7fffffffffffffffffffffffffffffffff00000000000000000000000000000000169052565b5060288101919091526048019897505050505050505056fea26469706673582212204ff37c20639d41d68fd2e1bdba7ef8f609720f4ac29cc5fa68a5c501ff703b5c64736f6c63430008160033","linkReferences":{}},"methodIdentifiers":{"decodeLzComposeOption(bytes)":"518e8ab0","decodeLzReadOption(bytes)":"9751ca86","decodeLzReceiveOption(bytes)":"f93e1d61","decodeNativeDropOption(bytes)":"b954fdf6","nextExecutorOption(bytes,uint256)":"6e1775e3"},"id":78}