{
  "_format": "hh-sol-artifact-1",
  "contractName": "MyHyperCoreAdapter",
  "sourceName": "contracts/MyHyperCoreAdapter.sol",
  "abi": [
    {
      "inputs": [
        {
          "internalType": "address",
          "name": "_lzEndpoint",
          "type": "address"
        },
        {
          "internalType": "address",
          "name": "_oft",
          "type": "address"
        },
        {
          "internalType": "uint64",
          "name": "_hlIndexId",
          "type": "uint64"
        },
        {
          "internalType": "uint256",
          "name": "_weiDiff",
          "type": "uint256"
        }
      ],
      "stateMutability": "nonpayable",
      "type": "constructor"
    },
    {
      "inputs": [
        {
          "internalType": "bytes",
          "name": "message",
          "type": "bytes"
        },
        {
          "internalType": "uint256",
          "name": "length",
          "type": "uint256"
        }
      ],
      "name": "HyperLiquidComposer_Codec_InvalidMessage_UnexpectedLength",
      "type": "error"
    },
    {
      "inputs": [
        {
          "internalType": "address",
          "name": "_notEndpointAddress",
          "type": "address"
        }
      ],
      "name": "HyperLiquidComposer_InvalidCall_NotEndpoint",
      "type": "error"
    },
    {
      "inputs": [
        {
          "internalType": "address",
          "name": "_internalOFTAddress",
          "type": "address"
        },
        {
          "internalType": "address",
          "name": "_receivedOFTAddress",
          "type": "address"
        }
      ],
      "name": "HyperLiquidComposer_InvalidCall_NotOFT",
      "type": "error"
    },
    {
      "inputs": [
        {
          "internalType": "address",
          "name": "_oft",
          "type": "address"
        },
        {
          "internalType": "address",
          "name": "_token",
          "type": "address"
        }
      ],
      "name": "HyperLiquidComposer_InvalidCall_TokenDoesNotSupportExtension",
      "type": "error"
    },
    {
      "inputs": [],
      "name": "HYPER_CORE_INDEX_ID",
      "outputs": [
        {
          "internalType": "uint64",
          "name": "",
          "type": "uint64"
        }
      ],
      "stateMutability": "view",
      "type": "function"
    },
    {
      "inputs": [],
      "name": "HYPER_CORE_INDEX_ID_DECIMAL_DIFF",
      "outputs": [
        {
          "internalType": "uint256",
          "name": "",
          "type": "uint256"
        }
      ],
      "stateMutability": "view",
      "type": "function"
    },
    {
      "inputs": [],
      "name": "HYPE_ASSET_BRIDGE_ADDRESS",
      "outputs": [
        {
          "internalType": "address payable",
          "name": "",
          "type": "address"
        }
      ],
      "stateMutability": "view",
      "type": "function"
    },
    {
      "inputs": [],
      "name": "L1WritePrecompileAddress",
      "outputs": [
        {
          "internalType": "address",
          "name": "",
          "type": "address"
        }
      ],
      "stateMutability": "view",
      "type": "function"
    },
    {
      "inputs": [],
      "name": "OFT_TOKEN_ASSET_BRIDGE_ADDRESS",
      "outputs": [
        {
          "internalType": "address",
          "name": "",
          "type": "address"
        }
      ],
      "stateMutability": "view",
      "type": "function"
    },
    {
      "inputs": [],
      "name": "OFT_TOKEN_CORE_INDEX_ID",
      "outputs": [
        {
          "internalType": "uint64",
          "name": "",
          "type": "uint64"
        }
      ],
      "stateMutability": "view",
      "type": "function"
    },
    {
      "inputs": [],
      "name": "endpoint",
      "outputs": [
        {
          "internalType": "address",
          "name": "",
          "type": "address"
        }
      ],
      "stateMutability": "view",
      "type": "function"
    },
    {
      "inputs": [
        {
          "internalType": "address",
          "name": "receiever",
          "type": "address"
        },
        {
          "internalType": "uint256",
          "name": "amount",
          "type": "uint256"
        }
      ],
      "name": "fundAddressOnHyperCore",
      "outputs": [],
      "stateMutability": "nonpayable",
      "type": "function"
    },
    {
      "inputs": [
        {
          "internalType": "address",
          "name": "_oft",
          "type": "address"
        },
        {
          "internalType": "bytes32",
          "name": "",
          "type": "bytes32"
        },
        {
          "internalType": "bytes",
          "name": "_message",
          "type": "bytes"
        },
        {
          "internalType": "address",
          "name": "",
          "type": "address"
        },
        {
          "internalType": "bytes",
          "name": "",
          "type": "bytes"
        }
      ],
      "name": "lzCompose",
      "outputs": [],
      "stateMutability": "payable",
      "type": "function"
    },
    {
      "inputs": [],
      "name": "oft",
      "outputs": [
        {
          "internalType": "contract IOFT",
          "name": "",
          "type": "address"
        }
      ],
      "stateMutability": "view",
      "type": "function"
    },
    {
      "inputs": [
        {
          "internalType": "address",
          "name": "receiever",
          "type": "address"
        },
        {
          "internalType": "uint256",
          "name": "amount",
          "type": "uint256"
        }
      ],
      "name": "sendAssetToHyperCore",
      "outputs": [],
      "stateMutability": "nonpayable",
      "type": "function"
    },
    {
      "inputs": [],
      "name": "token",
      "outputs": [
        {
          "internalType": "contract IERC20",
          "name": "",
          "type": "address"
        }
      ],
      "stateMutability": "view",
      "type": "function"
    },
    {
      "inputs": [],
      "name": "weiDiff",
      "outputs": [
        {
          "internalType": "uint256",
          "name": "",
          "type": "uint256"
        }
      ],
      "stateMutability": "view",
      "type": "function"
    },
    {
      "stateMutability": "payable",
      "type": "receive"
    }
  ],
  "bytecode": "0x6101406040523480156200001257600080fd5b5060405162000de538038062000de5833981016040819052620000359162000142565b83838383826001600160a01b031660e0816001600160a01b03168152505060e0516001600160a01b031663fc0c546a6040518163ffffffff1660e01b8152600401602060405180830381865afa15801562000094573d6000803e3d6000fd5b505050506040513d601f19601f82011682018060405250810190620000ba9190620001a2565b6001600160a01b0390811661010052841660c052620000e26001600160401b0383166200010d565b6001600160a01b03166080526001600160401b0390911660a0526101205250620001e9945050505050565b60006200011f826001609d1b620001c7565b92915050565b80516001600160a01b03811681146200013d57600080fd5b919050565b600080600080608085870312156200015957600080fd5b620001648562000125565b9350620001746020860162000125565b60408601519093506001600160401b03811681146200019257600080fd5b6060959095015193969295505050565b600060208284031215620001b557600080fd5b620001c08262000125565b9392505050565b808201808211156200011f57634e487b7160e01b600052601160045260246000fd5b60805160a05160c05160e0516101005161012051610b7b6200026a6000396000818161011801526106e40152600081816102fc015261063501526000818161025e0152818161038801526103cc01526000818161019a015261033701526000818161022a01526106c00152600081816101f601526106060152610b7b6000f3fe6080604052600436106100c65760003560e01c80639a923b9a1161007f578063d0a1026011610059578063d0a10260146102a2578063d9acf0ec146102b5578063dd4c07c8146102d5578063fc0c546a146102ea57600080fd5b80639a923b9a146102185780639b5215f61461024c578063b7c312e61461028057600080fd5b80630813f32f146100d2578063303f1e811461010657806355cd1378146101485780635e280f11146101885780636e3bf0ad146101bc57806384123305146101e457600080fd5b366100cd57005b600080fd5b3480156100de57600080fd5b506100e861045181565b60405167ffffffffffffffff90911681526020015b60405180910390f35b34801561011257600080fd5b5061013a7f000000000000000000000000000000000000000000000000000000000000000081565b6040519081526020016100fd565b34801561015457600080fd5b5061017073333333333333333333333333333333333333333381565b6040516001600160a01b0390911681526020016100fd565b34801561019457600080fd5b506101707f000000000000000000000000000000000000000000000000000000000000000081565b3480156101c857600080fd5b5061017073222222222222222222222222222222222222222281565b3480156101f057600080fd5b506101707f000000000000000000000000000000000000000000000000000000000000000081565b34801561022457600080fd5b506100e87f000000000000000000000000000000000000000000000000000000000000000081565b34801561025857600080fd5b506101707f000000000000000000000000000000000000000000000000000000000000000081565b34801561028c57600080fd5b506102a061029b366004610811565b61031e565b005b6102a06102b0366004610884565b61032c565b3480156102c157600080fd5b506102a06102d0366004610811565b610438565b3480156102e157600080fd5b5061013a600a81565b3480156102f657600080fd5b506101707f000000000000000000000000000000000000000000000000000000000000000081565b6103288282610442565b5050565b336001600160a01b037f0000000000000000000000000000000000000000000000000000000000000000161461037c5760405163eee35e6f60e01b81523360048201526024015b60405180910390fd5b866001600160a01b03167f00000000000000000000000000000000000000000000000000000000000000006001600160a01b0316146104015760405163021bfb8360e61b81526001600160a01b037f00000000000000000000000000000000000000000000000000000000000000008116600483015288166024820152604401610373565b60008061040e8787610596565b90925090503415610423576104238234610442565b61042d82826105ef565b505050505050505050565b61032882826105ef565b6040516000907322222222222222222222222222222222222222229083908381818185875af1925050503d8060008114610498576040519150601f19603f3d011682016040523d82523d6000602084013e61049d565b606091505b50509050806104ee5760405162461bcd60e51b815260206004820181905260248201527f4661696c656420746f2073656e64204859504520746f204879706572436f72656044820152606401610373565b733333333333333333333333333333333333333333630b0ac0ab84610451610517600a80610a1c565b6105219087610a28565b6040516001600160e01b031960e086901b1681526001600160a01b03909316600484015267ffffffffffffffff9182166024840152166044820152606401600060405180830381600087803b15801561057957600080fd5b505af115801561058d573d6000803e3d6000fd5b50505050505050565b60008060006105a58585610788565b905060148151146105cd5780516040516309b3473160e01b8152610373918391600401610a4a565b6105d681610a9f565b60601c92506105e585856107d5565b9150509250929050565b60405163a9059cbb60e01b81526001600160a01b037f000000000000000000000000000000000000000000000000000000000000000081166004830152602482018390527f0000000000000000000000000000000000000000000000000000000000000000169063a9059cbb906044016020604051808303816000875af115801561067e573d6000803e3d6000fd5b505050506040513d601f19601f820116820180604052508101906106a29190610adb565b50733333333333333333333333333333333333333333630b0ac0ab837f000000000000000000000000000000000000000000000000000000000000000061070a7f0000000000000000000000000000000000000000000000000000000000000000600a610a1c565b6107149086610a28565b6040516001600160e01b031960e086901b1681526001600160a01b03909316600484015267ffffffffffffffff9182166024840152166044820152606401600060405180830381600087803b15801561076c57600080fd5b505af1158015610780573d6000803e3d6000fd5b505050505050565b606061079782604c8186610afd565b8080601f0160208091040260200160405190810160405280939291908181526020018383808284376000920191909152509293505050505b92915050565b60006107e5602c600c8486610afd565b6107ee91610b27565b9392505050565b80356001600160a01b038116811461080c57600080fd5b919050565b6000806040838503121561082457600080fd5b61082d836107f5565b946020939093013593505050565b60008083601f84011261084d57600080fd5b50813567ffffffffffffffff81111561086557600080fd5b60208301915083602082850101111561087d57600080fd5b9250929050565b600080600080600080600060a0888a03121561089f57600080fd5b6108a8886107f5565b965060208801359550604088013567ffffffffffffffff808211156108cc57600080fd5b6108d88b838c0161083b565b90975095508591506108ec60608b016107f5565b945060808a013591508082111561090257600080fd5b5061090f8a828b0161083b565b989b979a50959850939692959293505050565b634e487b7160e01b600052601160045260246000fd5b600181815b8085111561097357816000190482111561095957610959610922565b8085161561096657918102915b93841c939080029061093d565b509250929050565b60008261098a575060016107cf565b81610997575060006107cf565b81600181146109ad57600281146109b7576109d3565b60019150506107cf565b60ff8411156109c8576109c8610922565b50506001821b6107cf565b5060208310610133831016604e8410600b84101617156109f6575081810a6107cf565b610a008383610938565b8060001904821115610a1457610a14610922565b029392505050565b60006107ee838361097b565b600082610a4557634e487b7160e01b600052601260045260246000fd5b500490565b604081526000835180604084015260005b81811015610a785760208187018101516060868401015201610a5b565b506000606082850101526060601f19601f8301168401019150508260208301529392505050565b805160208201516bffffffffffffffffffffffff198082169291906014831015610ad35780818460140360031b1b83161693505b505050919050565b600060208284031215610aed57600080fd5b815180151581146107ee57600080fd5b60008085851115610b0d57600080fd5b83861115610b1a57600080fd5b5050820193919092039150565b803560208310156107cf57600019602084900360031b1b169291505056fea2646970667358221220c4f2710927a196119e967aafdb892ea710f6b3d7b1399206d6df3be388014a1764736f6c63430008160033",
  "linkReferences": {},
  "deployedLinkReferences": {}
}