{
  "abi": [
    {
      "type": "constructor",
      "inputs": [
        {
          "name": "_verifyHelper",
          "type": "address",
          "internalType": "address payable"
        },
        {
          "name": "_endpoint",
          "type": "address",
          "internalType": "address"
        }
      ],
      "stateMutability": "nonpayable"
    },
    {
      "type": "fallback",
      "stateMutability": "payable"
    },
    {
      "type": "receive",
      "stateMutability": "payable"
    },
    {
      "type": "function",
      "name": "PACKET_VERSION",
      "inputs": [],
      "outputs": [
        {
          "name": "",
          "type": "uint8",
          "internalType": "uint8"
        }
      ],
      "stateMutability": "view"
    },
    {
      "type": "function",
      "name": "defaultOption",
      "inputs": [],
      "outputs": [
        {
          "name": "",
          "type": "bytes",
          "internalType": "bytes"
        }
      ],
      "stateMutability": "view"
    },
    {
      "type": "function",
      "name": "endpoint",
      "inputs": [],
      "outputs": [
        {
          "name": "",
          "type": "address",
          "internalType": "address"
        }
      ],
      "stateMutability": "view"
    },
    {
      "type": "function",
      "name": "isSupportedEid",
      "inputs": [
        {
          "name": "",
          "type": "uint32",
          "internalType": "uint32"
        }
      ],
      "outputs": [
        {
          "name": "",
          "type": "bool",
          "internalType": "bool"
        }
      ],
      "stateMutability": "pure"
    },
    {
      "type": "function",
      "name": "localEid",
      "inputs": [],
      "outputs": [
        {
          "name": "",
          "type": "uint32",
          "internalType": "uint32"
        }
      ],
      "stateMutability": "view"
    },
    {
      "type": "function",
      "name": "lzTokenFee",
      "inputs": [],
      "outputs": [
        {
          "name": "",
          "type": "uint256",
          "internalType": "uint256"
        }
      ],
      "stateMutability": "view"
    },
    {
      "type": "function",
      "name": "messageLibType",
      "inputs": [],
      "outputs": [
        {
          "name": "",
          "type": "uint8",
          "internalType": "enum MessageLibType"
        }
      ],
      "stateMutability": "pure"
    },
    {
      "type": "function",
      "name": "nativeFee",
      "inputs": [],
      "outputs": [
        {
          "name": "",
          "type": "uint256",
          "internalType": "uint256"
        }
      ],
      "stateMutability": "view"
    },
    {
      "type": "function",
      "name": "owner",
      "inputs": [],
      "outputs": [
        {
          "name": "",
          "type": "address",
          "internalType": "address"
        }
      ],
      "stateMutability": "view"
    },
    {
      "type": "function",
      "name": "quote",
      "inputs": [
        {
          "name": "",
          "type": "tuple",
          "internalType": "struct Packet",
          "components": [
            {
              "name": "nonce",
              "type": "uint64",
              "internalType": "uint64"
            },
            {
              "name": "srcEid",
              "type": "uint32",
              "internalType": "uint32"
            },
            {
              "name": "sender",
              "type": "address",
              "internalType": "address"
            },
            {
              "name": "dstEid",
              "type": "uint32",
              "internalType": "uint32"
            },
            {
              "name": "receiver",
              "type": "bytes32",
              "internalType": "bytes32"
            },
            {
              "name": "guid",
              "type": "bytes32",
              "internalType": "bytes32"
            },
            {
              "name": "message",
              "type": "bytes",
              "internalType": "bytes"
            }
          ]
        },
        {
          "name": "",
          "type": "bytes",
          "internalType": "bytes"
        },
        {
          "name": "_payInLzToken",
          "type": "bool",
          "internalType": "bool"
        }
      ],
      "outputs": [
        {
          "name": "",
          "type": "tuple",
          "internalType": "struct MessagingFee",
          "components": [
            {
              "name": "nativeFee",
              "type": "uint256",
              "internalType": "uint256"
            },
            {
              "name": "lzTokenFee",
              "type": "uint256",
              "internalType": "uint256"
            }
          ]
        }
      ],
      "stateMutability": "view"
    },
    {
      "type": "function",
      "name": "renounceOwnership",
      "inputs": [],
      "outputs": [],
      "stateMutability": "nonpayable"
    },
    {
      "type": "function",
      "name": "send",
      "inputs": [
        {
          "name": "_packet",
          "type": "tuple",
          "internalType": "struct Packet",
          "components": [
            {
              "name": "nonce",
              "type": "uint64",
              "internalType": "uint64"
            },
            {
              "name": "srcEid",
              "type": "uint32",
              "internalType": "uint32"
            },
            {
              "name": "sender",
              "type": "address",
              "internalType": "address"
            },
            {
              "name": "dstEid",
              "type": "uint32",
              "internalType": "uint32"
            },
            {
              "name": "receiver",
              "type": "bytes32",
              "internalType": "bytes32"
            },
            {
              "name": "guid",
              "type": "bytes32",
              "internalType": "bytes32"
            },
            {
              "name": "message",
              "type": "bytes",
              "internalType": "bytes"
            }
          ]
        },
        {
          "name": "_options",
          "type": "bytes",
          "internalType": "bytes"
        },
        {
          "name": "_payInLzToken",
          "type": "bool",
          "internalType": "bool"
        }
      ],
      "outputs": [
        {
          "name": "fee",
          "type": "tuple",
          "internalType": "struct MessagingFee",
          "components": [
            {
              "name": "nativeFee",
              "type": "uint256",
              "internalType": "uint256"
            },
            {
              "name": "lzTokenFee",
              "type": "uint256",
              "internalType": "uint256"
            }
          ]
        },
        {
          "name": "encodedPacket",
          "type": "bytes",
          "internalType": "bytes"
        },
        {
          "name": "options",
          "type": "bytes",
          "internalType": "bytes"
        }
      ],
      "stateMutability": "nonpayable"
    },
    {
      "type": "function",
      "name": "setDefaultOption",
      "inputs": [
        {
          "name": "_defaultOption",
          "type": "bytes",
          "internalType": "bytes"
        }
      ],
      "outputs": [],
      "stateMutability": "nonpayable"
    },
    {
      "type": "function",
      "name": "setMessagingFee",
      "inputs": [
        {
          "name": "_nativeFee",
          "type": "uint256",
          "internalType": "uint256"
        },
        {
          "name": "_lzTokenFee",
          "type": "uint256",
          "internalType": "uint256"
        }
      ],
      "outputs": [],
      "stateMutability": "nonpayable"
    },
    {
      "type": "function",
      "name": "setWhitelistCaller",
      "inputs": [
        {
          "name": "_whitelistCaller",
          "type": "address",
          "internalType": "address"
        }
      ],
      "outputs": [],
      "stateMutability": "nonpayable"
    },
    {
      "type": "function",
      "name": "supportsInterface",
      "inputs": [
        {
          "name": "interfaceId",
          "type": "bytes4",
          "internalType": "bytes4"
        }
      ],
      "outputs": [
        {
          "name": "",
          "type": "bool",
          "internalType": "bool"
        }
      ],
      "stateMutability": "view"
    },
    {
      "type": "function",
      "name": "testHelper",
      "inputs": [],
      "outputs": [
        {
          "name": "",
          "type": "address",
          "internalType": "contract TestHelper"
        }
      ],
      "stateMutability": "view"
    },
    {
      "type": "function",
      "name": "transferOwnership",
      "inputs": [
        {
          "name": "newOwner",
          "type": "address",
          "internalType": "address"
        }
      ],
      "outputs": [],
      "stateMutability": "nonpayable"
    },
    {
      "type": "function",
      "name": "treasury",
      "inputs": [],
      "outputs": [
        {
          "name": "",
          "type": "address",
          "internalType": "address"
        }
      ],
      "stateMutability": "view"
    },
    {
      "type": "function",
      "name": "validatePacket",
      "inputs": [
        {
          "name": "packetBytes",
          "type": "bytes",
          "internalType": "bytes"
        }
      ],
      "outputs": [],
      "stateMutability": "nonpayable"
    },
    {
      "type": "function",
      "name": "version",
      "inputs": [],
      "outputs": [
        {
          "name": "major",
          "type": "uint64",
          "internalType": "uint64"
        },
        {
          "name": "minor",
          "type": "uint8",
          "internalType": "uint8"
        },
        {
          "name": "endpointVersion",
          "type": "uint8",
          "internalType": "uint8"
        }
      ],
      "stateMutability": "pure"
    },
    {
      "type": "function",
      "name": "whitelistCaller",
      "inputs": [],
      "outputs": [
        {
          "name": "",
          "type": "address",
          "internalType": "address"
        }
      ],
      "stateMutability": "view"
    },
    {
      "type": "function",
      "name": "withdrawFee",
      "inputs": [
        {
          "name": "_to",
          "type": "address",
          "internalType": "address"
        },
        {
          "name": "_amount",
          "type": "uint256",
          "internalType": "uint256"
        }
      ],
      "outputs": [],
      "stateMutability": "nonpayable"
    },
    {
      "type": "function",
      "name": "withdrawLzTokenFee",
      "inputs": [
        {
          "name": "_to",
          "type": "address",
          "internalType": "address"
        },
        {
          "name": "_amount",
          "type": "uint256",
          "internalType": "uint256"
        }
      ],
      "outputs": [],
      "stateMutability": "nonpayable"
    },
    {
      "type": "event",
      "name": "OwnershipTransferred",
      "inputs": [
        {
          "name": "previousOwner",
          "type": "address",
          "indexed": true,
          "internalType": "address"
        },
        {
          "name": "newOwner",
          "type": "address",
          "indexed": true,
          "internalType": "address"
        }
      ],
      "anonymous": false
    },
    {
      "type": "error",
      "name": "InvalidEndpoint",
      "inputs": [
        {
          "name": "expected",
          "type": "address",
          "internalType": "address"
        },
        {
          "name": "actual",
          "type": "address",
          "internalType": "address"
        }
      ]
    },
    {
      "type": "error",
      "name": "LZ_NotImplemented",
      "inputs": []
    },
    {
      "type": "error",
      "name": "LzTokenIsAddressZero",
      "inputs": []
    },
    {
      "type": "error",
      "name": "OnlyEndpoint",
      "inputs": []
    },
    {
      "type": "error",
      "name": "OnlyWhitelistCaller",
      "inputs": []
    },
    {
      "type": "error",
      "name": "ToIsAddressZero",
      "inputs": []
    },
    {
      "type": "error",
      "name": "TransferFailed",
      "inputs": []
    },
    {
      "type": "error",
      "name": "Transfer_NativeFailed",
      "inputs": [
        {
          "name": "_to",
          "type": "address",
          "internalType": "address"
        },
        {
          "name": "_value",
          "type": "uint256",
          "internalType": "uint256"
        }
      ]
    },
    {
      "type": "error",
      "name": "Transfer_ToAddressIsZero",
      "inputs": []
    }
  ],
  "bytecode": {
    "object": "0x60e06040523480156200001157600080fd5b506040516200211e3803806200211e83398101604081905262000034916200015f565b8060006200004233620000f6565b6001600160a01b03808316608081905290821660a0526040805163416ecebf60e01b8152905163416ecebf916004808201926020929091908290030181865afa15801562000094573d6000803e3d6000fd5b505050506040513d601f19601f82011682018060405250810190620000ba91906200019e565b63ffffffff1660c05250506063600255506064600355600580546001600160a01b0319166001600160a01b0392909216919091179055620001cd565b600080546001600160a01b038381166001600160a01b0319831681178455604051919092169283917f8be0079c531659141344cd1fd0a4f28419497f9722a3daafe3b4186f6b6457e09190a35050565b6001600160a01b03811681146200015c57600080fd5b50565b600080604083850312156200017357600080fd5b8251620001808162000146565b6020840151909250620001938162000146565b809150509250929050565b600060208284031215620001b157600080fd5b815163ffffffff81168114620001c657600080fd5b9392505050565b60805160a05160c051611f0562000219600039600061040c0152600061037b015260008181610347015281816107060152818161083501528181610a870152610d490152611f056000f3fe60806040526004361061018f5760003560e01c8063715018a6116100d6578063996f79c01161007f578063dabca06311610059578063dabca06314610537578063f2fde38b14610557578063fd9be5221461057757610196565b8063996f79c0146104d4578063aec336e6146104ea578063d80e9bd91461050a57610196565b80638da5cb5b116100b05780638da5cb5b146104655780638f58aa7a1461049057806390953238146104b057610196565b8063715018a6146103e557806372607537146103fa57806372d713221461044357610196565b80634389e58f1161013857806361d027b31161011257806361d027b3146103695780636251b6371461039d5780636750cd4c146103c457610196565b80634389e58f146102da57806354fd4d50146103095780635e280f111461033557610196565b80631881d94d116101695780631881d94d146102715780631c7c294e1461028d578063334993ff146102ba57610196565b806301ffc9a7146101c85780630e97289b146101fd57806312cc947f1461024f57610196565b3661019657005b6040517f2657b6c300000000000000000000000000000000000000000000000000000000815260040160405180910390fd5b3480156101d457600080fd5b506101e86101e3366004611521565b610597565b60405190151581526020015b60405180910390f35b34801561020957600080fd5b5060055461022a9073ffffffffffffffffffffffffffffffffffffffff1681565b60405173ffffffffffffffffffffffffffffffffffffffff90911681526020016101f4565b34801561025b57600080fd5b5061026f61026a3660046115a5565b610630565b005b34801561027d57600080fd5b5060026040516101f491906115e7565b34801561029957600080fd5b5060015461022a9073ffffffffffffffffffffffffffffffffffffffff1681565b3480156102c657600080fd5b5061026f6102d5366004611628565b610809565b3480156102e657600080fd5b506102fa6102f5366004611773565b61081c565b6040516101f493929190611859565b34801561031557600080fd5b5060408051600080825260208201526002918101919091526060016101f4565b34801561034157600080fd5b5061022a7f000000000000000000000000000000000000000000000000000000000000000081565b34801561037557600080fd5b5061022a7f000000000000000000000000000000000000000000000000000000000000000081565b3480156103a957600080fd5b506103b2600181565b60405160ff90911681526020016101f4565b3480156103d057600080fd5b506101e86103df3660046118b2565b50600190565b3480156103f157600080fd5b5061026f61098c565b34801561040657600080fd5b5061042e7f000000000000000000000000000000000000000000000000000000000000000081565b60405163ffffffff90911681526020016101f4565b34801561044f57600080fd5b506104586109a0565b6040516101f491906118cd565b34801561047157600080fd5b5060005473ffffffffffffffffffffffffffffffffffffffff1661022a565b34801561049c57600080fd5b5061026f6104ab36600461190d565b610a2e565b3480156104bc57600080fd5b506104c660025481565b6040519081526020016101f4565b3480156104e057600080fd5b506104c660035481565b3480156104f657600080fd5b5061026f610505366004611939565b610b89565b34801561051657600080fd5b5061052a610525366004611956565b610bd8565b6040516101f491906119d2565b34801561054357600080fd5b5061026f6105523660046119e9565b610c1c565b34801561056357600080fd5b5061026f610572366004611939565b610c34565b34801561058357600080fd5b5061026f61059236600461190d565b610cf0565b60007fffffffff0000000000000000000000000000000000000000000000000000000082167f97f0258400000000000000000000000000000000000000000000000000000000148061062a57507f01ffc9a7000000000000000000000000000000000000000000000000000000007fffffffff000000000000000000000000000000000000000000000000000000008316145b92915050565b60015473ffffffffffffffffffffffffffffffffffffffff161580159061066f575060015473ffffffffffffffffffffffffffffffffffffffff163314155b156106a6576040517f70b216ec00000000000000000000000000000000000000000000000000000000815260040160405180910390fd5b600060405180606001604052806106bd8585610de3565b63ffffffff1681526020016106d28585610e06565b81526020016106e18585610e26565b67ffffffffffffffff169052905073ffffffffffffffffffffffffffffffffffffffff7f00000000000000000000000000000000000000000000000000000000000000001663a825d747826107368686610e49565b6107408787610e5b565b60405161074e929190611a1e565b6040805191829003822060e086901b7fffffffff00000000000000000000000000000000000000000000000000000000168352845163ffffffff1660048401526020850151602484015293015167ffffffffffffffff16604482015273ffffffffffffffffffffffffffffffffffffffff9091166064820152608481019190915260a401600060405180830381600087803b1580156107ec57600080fd5b505af1158015610800573d6000803e3d6000fd5b50505050505050565b610811610e77565b600391909155600255565b60408051808201909152600080825260208201526060807f000000000000000000000000000000000000000000000000000000000000000073ffffffffffffffffffffffffffffffffffffffff1633146108a2576040517f7eb966c800000000000000000000000000000000000000000000000000000000815260040160405180910390fd5b6108b36108ae87611a46565b610ef8565b915084516000146108c45784610950565b600480546108d190611ae4565b80601f01602080910402602001604051908101604052809291908181526020018280546108fd90611ae4565b801561094a5780601f1061091f5761010080835404028352916020019161094a565b820191906000526020600020905b81548152906001019060200180831161092d57829003601f168201915b50505050505b905061095c8282610f5d565b604051806040016040528060035481526020018561097b57600061097f565b6002545b9052969195509350915050565b610994610e77565b61099e6000610feb565b565b600480546109ad90611ae4565b80601f01602080910402602001604051908101604052809291908181526020018280546109d990611ae4565b8015610a265780601f106109fb57610100808354040283529160200191610a26565b820191906000526020600020905b815481529060010190602001808311610a0957829003601f168201915b505050505081565b610a36610e77565b73ffffffffffffffffffffffffffffffffffffffff8216610a83576040517f3d3496e100000000000000000000000000000000000000000000000000000000815260040160405180910390fd5b60007f000000000000000000000000000000000000000000000000000000000000000073ffffffffffffffffffffffffffffffffffffffff1663e4fe1d946040518163ffffffff1660e01b8152600401602060405180830381865afa158015610af0573d6000803e3d6000fd5b505050506040513d601f19601f82011682018060405250810190610b149190611b31565b905073ffffffffffffffffffffffffffffffffffffffff8116610b63576040517f54c1781b00000000000000000000000000000000000000000000000000000000815260040160405180910390fd5b610b8473ffffffffffffffffffffffffffffffffffffffff82168484611060565b505050565b610b91610e77565b600180547fffffffffffffffffffffffff00000000000000000000000000000000000000001673ffffffffffffffffffffffffffffffffffffffff92909216919091179055565b60408051808201909152600080825260208201526040518060400160405280600354815260200183610c0b576000610c0f565b6002545b905290505b949350505050565b610c24610e77565b6004610c308282611b94565b5050565b610c3c610e77565b73ffffffffffffffffffffffffffffffffffffffff8116610ce4576040517f08c379a000000000000000000000000000000000000000000000000000000000815260206004820152602660248201527f4f776e61626c653a206e6577206f776e657220697320746865207a65726f206160448201527f646472657373000000000000000000000000000000000000000000000000000060648201526084015b60405180910390fd5b610ced81610feb565b50565b610cf8610e77565b73ffffffffffffffffffffffffffffffffffffffff8216610d45576040517f3d3496e100000000000000000000000000000000000000000000000000000000815260040160405180910390fd5b60007f000000000000000000000000000000000000000000000000000000000000000073ffffffffffffffffffffffffffffffffffffffff1663e1758bd86040518163ffffffff1660e01b8152600401602060405180830381865afa158015610db2573d6000803e3d6000fd5b505050506040513d601f19601f82011682018060405250810190610dd69190611b31565b9050610b848184846110ed565b6000610df3600d60098486611cae565b610dfc91611cd8565b60e01c9392505050565b6000610e16602d600d8486611cae565b610e1f91611d20565b9392505050565b6000610e36600960018486611cae565b610e3f91611d5c565b60c01c9392505050565b6000610e1f610e58848461111d565b90565b366000610e6b8360518187611cae565b915091505b9250929050565b60005473ffffffffffffffffffffffffffffffffffffffff16331461099e576040517f08c379a000000000000000000000000000000000000000000000000000000000815260206004820181905260248201527f4f776e61626c653a2063616c6c6572206973206e6f7420746865206f776e65726044820152606401610cdb565b8051602080830151604080850151606080870151608088015160a089015160c08a015195519398610f47986001989197919673ffffffffffffffffffffffffffffffffffffffff169501611da2565b6040516020818303038152906040529050919050565b6005546040517ffaed6c5800000000000000000000000000000000000000000000000000000000815273ffffffffffffffffffffffffffffffffffffffff9091169063faed6c5890610fb59085908590600401611e68565b600060405180830381600087803b158015610fcf57600080fd5b505af1158015610fe3573d6000803e3d6000fd5b505050505050565b6000805473ffffffffffffffffffffffffffffffffffffffff8381167fffffffffffffffffffffffff0000000000000000000000000000000000000000831681178455604051919092169283917f8be0079c531659141344cd1fd0a4f28419497f9722a3daafe3b4186f6b6457e09190a35050565b6040805173ffffffffffffffffffffffffffffffffffffffff8416602482015260448082018490528251808303909101815260649091019091526020810180517bffffffffffffffffffffffffffffffffffffffffffffffffffffffff167fa9059cbb00000000000000000000000000000000000000000000000000000000179052610b8490849061112d565b73ffffffffffffffffffffffffffffffffffffffff831661111257610b84828261123c565b610b84838383611342565b6000610e16605160318486611cae565b600061118f826040518060400160405280602081526020017f5361666545524332303a206c6f772d6c6576656c2063616c6c206661696c65648152508573ffffffffffffffffffffffffffffffffffffffff166113b09092919063ffffffff16565b90508051600014806111b05750808060200190518101906111b09190611e96565b610b84576040517f08c379a000000000000000000000000000000000000000000000000000000000815260206004820152602a60248201527f5361666545524332303a204552433230206f7065726174696f6e20646964206e60448201527f6f742073756363656564000000000000000000000000000000000000000000006064820152608401610cdb565b73ffffffffffffffffffffffffffffffffffffffff8216611289576040517f6b7a931000000000000000000000000000000000000000000000000000000000815260040160405180910390fd5b60008273ffffffffffffffffffffffffffffffffffffffff168260405160006040518083038185875af1925050503d80600081146112e3576040519150601f19603f3d011682016040523d82523d6000602084013e6112e8565b606091505b5050905080610b84576040517f465bc83400000000000000000000000000000000000000000000000000000000815273ffffffffffffffffffffffffffffffffffffffff8416600482015260248101839052604401610cdb565b73ffffffffffffffffffffffffffffffffffffffff821661138f576040517f6b7a931000000000000000000000000000000000000000000000000000000000815260040160405180910390fd5b610b8473ffffffffffffffffffffffffffffffffffffffff84168383611060565b6060610c148484600085856000808673ffffffffffffffffffffffffffffffffffffffff1685876040516113e49190611eb3565b60006040518083038185875af1925050503d8060008114611421576040519150601f19603f3d011682016040523d82523d6000602084013e611426565b606091505b509150915061143787838387611442565b979650505050505050565b606083156114d85782516000036114d15773ffffffffffffffffffffffffffffffffffffffff85163b6114d1576040517f08c379a000000000000000000000000000000000000000000000000000000000815260206004820152601d60248201527f416464726573733a2063616c6c20746f206e6f6e2d636f6e74726163740000006044820152606401610cdb565b5081610c14565b610c1483838151156114ed5781518083602001fd5b806040517f08c379a0000000000000000000000000000000000000000000000000000000008152600401610cdb91906118cd565b60006020828403121561153357600080fd5b81357fffffffff0000000000000000000000000000000000000000000000000000000081168114610e1f57600080fd5b60008083601f84011261157557600080fd5b50813567ffffffffffffffff81111561158d57600080fd5b602083019150836020828501011115610e7057600080fd5b600080602083850312156115b857600080fd5b823567ffffffffffffffff8111156115cf57600080fd5b6115db85828601611563565b90969095509350505050565b6020810160038310611622577f4e487b7100000000000000000000000000000000000000000000000000000000600052602160045260246000fd5b91905290565b6000806040838503121561163b57600080fd5b50508035926020909101359150565b600060e0828403121561165c57600080fd5b50919050565b7f4e487b7100000000000000000000000000000000000000000000000000000000600052604160045260246000fd5b60405160e0810167ffffffffffffffff811182821017156116b4576116b4611662565b60405290565b600082601f8301126116cb57600080fd5b813567ffffffffffffffff808211156116e6576116e6611662565b604051601f83017fffffffffffffffffffffffffffffffffffffffffffffffffffffffffffffffe0908116603f0116810190828211818310171561172c5761172c611662565b8160405283815286602085880101111561174557600080fd5b836020870160208301376000602085830101528094505050505092915050565b8015158114610ced57600080fd5b60008060006060848603121561178857600080fd5b833567ffffffffffffffff808211156117a057600080fd5b6117ac8783880161164a565b945060208601359150808211156117c257600080fd5b506117cf868287016116ba565b92505060408401356117e081611765565b809150509250925092565b60005b838110156118065781810151838201526020016117ee565b50506000910152565b600081518084526118278160208601602086016117eb565b601f017fffffffffffffffffffffffffffffffffffffffffffffffffffffffffffffffe0169290920160200192915050565b835181526020808501519082015260806040820152600061187d608083018561180f565b828103606084015261188f818561180f565b9695505050505050565b803563ffffffff811681146118ad57600080fd5b919050565b6000602082840312156118c457600080fd5b610e1f82611899565b602081526000610e1f602083018461180f565b73ffffffffffffffffffffffffffffffffffffffff81168114610ced57600080fd5b80356118ad816118e0565b6000806040838503121561192057600080fd5b823561192b816118e0565b946020939093013593505050565b60006020828403121561194b57600080fd5b8135610e1f816118e0565b6000806000806060858703121561196c57600080fd5b843567ffffffffffffffff8082111561198457600080fd5b6119908883890161164a565b955060208701359150808211156119a657600080fd5b506119b387828801611563565b90945092505060408501356119c781611765565b939692955090935050565b81518152602080830151908201526040810161062a565b6000602082840312156119fb57600080fd5b813567ffffffffffffffff811115611a1257600080fd5b610c14848285016116ba565b8183823760009101908152919050565b803567ffffffffffffffff811681146118ad57600080fd5b600060e08236031215611a5857600080fd5b611a60611691565b611a6983611a2e565b8152611a7760208401611899565b6020820152611a8860408401611902565b6040820152611a9960608401611899565b60608201526080830135608082015260a083013560a082015260c083013567ffffffffffffffff811115611acc57600080fd5b611ad8368286016116ba565b60c08301525092915050565b600181811c90821680611af857607f821691505b60208210810361165c577f4e487b7100000000000000000000000000000000000000000000000000000000600052602260045260246000fd5b600060208284031215611b4357600080fd5b8151610e1f816118e0565b601f821115610b8457600081815260208120601f850160051c81016020861015611b755750805b601f850160051c820191505b81811015610fe357828155600101611b81565b815167ffffffffffffffff811115611bae57611bae611662565b611bc281611bbc8454611ae4565b84611b4e565b602080601f831160018114611c155760008415611bdf5750858301515b7fffffffffffffffffffffffffffffffffffffffffffffffffffffffffffffffff600386901b1c1916600185901b178555610fe3565b6000858152602081207fffffffffffffffffffffffffffffffffffffffffffffffffffffffffffffffe08616915b82811015611c6257888601518255948401946001909101908401611c43565b5085821015611c9e57878501517fffffffffffffffffffffffffffffffffffffffffffffffffffffffffffffffff600388901b60f8161c191681555b5050505050600190811b01905550565b60008085851115611cbe57600080fd5b83861115611ccb57600080fd5b5050820193919092039150565b7fffffffff000000000000000000000000000000000000000000000000000000008135818116916004851015611d185780818660040360031b1b83161692505b505092915050565b8035602083101561062a577fffffffffffffffffffffffffffffffffffffffffffffffffffffffffffffffff602084900360031b1b1692915050565b7fffffffffffffffff0000000000000000000000000000000000000000000000008135818116916008851015611d185760089490940360031b84901b1690921692915050565b7fff000000000000000000000000000000000000000000000000000000000000008960f81b1681527fffffffffffffffff0000000000000000000000000000000000000000000000008860c01b16600182015260007fffffffff00000000000000000000000000000000000000000000000000000000808960e01b16600984015287600d840152808760e01b16602d840152508460318301528360518301528251611e548160718501602087016117eb565b919091016071019998505050505050505050565b604081526000611e7b604083018561180f565b8281036020840152611e8d818561180f565b95945050505050565b600060208284031215611ea857600080fd5b8151610e1f81611765565b60008251611ec58184602087016117eb565b919091019291505056fea26469706673582212209c7627cbcc8cf261b0cdf43143922715f6af52ce8add670c98660475afe3e6a664736f6c63430008140033",
    "linkReferences": {}
  },
  "methodIdentifiers": {
    "PACKET_VERSION()": "6251b637",
    "defaultOption()": "72d71322",
    "endpoint()": "5e280f11",
    "isSupportedEid(uint32)": "6750cd4c",
    "localEid()": "72607537",
    "lzTokenFee()": "90953238",
    "messageLibType()": "1881d94d",
    "nativeFee()": "996f79c0",
    "owner()": "8da5cb5b",
    "quote((uint64,uint32,address,uint32,bytes32,bytes32,bytes),bytes,bool)": "d80e9bd9",
    "renounceOwnership()": "715018a6",
    "send((uint64,uint32,address,uint32,bytes32,bytes32,bytes),bytes,bool)": "4389e58f",
    "setDefaultOption(bytes)": "dabca063",
    "setMessagingFee(uint256,uint256)": "334993ff",
    "setWhitelistCaller(address)": "aec336e6",
    "supportsInterface(bytes4)": "01ffc9a7",
    "testHelper()": "0e97289b",
    "transferOwnership(address)": "f2fde38b",
    "treasury()": "61d027b3",
    "validatePacket(bytes)": "12cc947f",
    "version()": "54fd4d50",
    "whitelistCaller()": "1c7c294e",
    "withdrawFee(address,uint256)": "fd9be522",
    "withdrawLzTokenFee(address,uint256)": "8f58aa7a"
  },
  "id": 141
}