{"abi":[{"type":"constructor","inputs":[{"name":"_lzEndpoint","type":"address","internalType":"address"},{"name":"_oft","type":"address","internalType":"address"},{"name":"_hlIndexId","type":"uint64","internalType":"uint64"}],"stateMutability":"nonpayable"},{"type":"function","name":"OFT_TOKEN_ASSET_BRIDGE_ADDRESS","inputs":[],"outputs":[{"name":"","type":"address","internalType":"address"}],"stateMutability":"view"},{"type":"function","name":"OFT_TOKEN_CORE_INDEX_ID","inputs":[],"outputs":[{"name":"","type":"uint64","internalType":"uint64"}],"stateMutability":"view"},{"type":"function","name":"endpoint","inputs":[],"outputs":[{"name":"","type":"address","internalType":"address"}],"stateMutability":"view"},{"type":"function","name":"hyperliquidHopTransferableToken","inputs":[],"outputs":[{"name":"","type":"address","internalType":"contract IERC20HyperliquidHopTransferable"}],"stateMutability":"view"},{"type":"function","name":"lzCompose","inputs":[{"name":"_oft","type":"address","internalType":"address"},{"name":"","type":"bytes32","internalType":"bytes32"},{"name":"_message","type":"bytes","internalType":"bytes"},{"name":"","type":"address","internalType":"address"},{"name":"","type":"bytes","internalType":"bytes"}],"outputs":[],"stateMutability":"payable"},{"type":"function","name":"oft","inputs":[],"outputs":[{"name":"","type":"address","internalType":"address"}],"stateMutability":"view"},{"type":"error","name":"HyperLiquidComposer_Codec_InvalidMessage_UnexpectedLength","inputs":[{"name":"message","type":"bytes","internalType":"bytes"},{"name":"length","type":"uint256","internalType":"uint256"}]},{"type":"error","name":"HyperLiquidComposer_InvalidCall_NotEndpoint","inputs":[{"name":"_notEndpointAddress","type":"address","internalType":"address"}]},{"type":"error","name":"HyperLiquidComposer_InvalidCall_NotOFT","inputs":[{"name":"_internalOFTAddress","type":"address","internalType":"address"},{"name":"_receivedOFTAddress","type":"address","internalType":"address"}]},{"type":"error","name":"HyperLiquidComposer_InvalidCall_TokenDoesNotSupportExtension","inputs":[{"name":"_oft","type":"address","internalType":"address"},{"name":"_token","type":"address","internalType":"address"}]}],"bytecode":{"object":"0x610120604052348015610010575f80fd5b506040516109d53803806109d583398101604081905261002f916101af565b828282816001600160a01b031663fc0c546a6040518163ffffffff1660e01b8152600401602060405180830381865afa15801561006e573d5f803e3d5ffd5b505050506040513d601f19601f8201168201806040525081019061009291906101ff565b6001600160a01b0316610100819052604080516367ddeba960e01b815290516367ddeba9916004808201926020929091908290030181865afa1580156100da573d5f803e3d5ffd5b505050506040513d601f19601f820116820180604052508101906100fe919061021f565b610137576101005160405163db9a4c6b60e01b81526001600160a01b038085166004830152909116602482015260440160405180910390fd5b6001600160a01b0380841660c052821660e05261015c6001600160401b03821661017f565b6001600160a01b03166080526001600160401b031660a0525061025d9350505050565b5f61018e826001609d1b61023e565b92915050565b80516001600160a01b03811681146101aa575f80fd5b919050565b5f805f606084860312156101c1575f80fd5b6101ca84610194565b92506101d860208501610194565b60408501519092506001600160401b03811681146101f4575f80fd5b809150509250925092565b5f6020828403121561020f575f80fd5b61021882610194565b9392505050565b5f6020828403121561022f575f80fd5b81518015158114610218575f80fd5b8082018082111561018e57634e487b7160e01b5f52601160045260245ffd5b60805160a05160c05160e0516101005161071a6102bb5f395f818161019c015261037f01525f81816101540152818161024d01526102c401525f8181607801526101d601525f61010801525f818160d5015261034a015261071a5ff3fe608060405260043610610063575f3560e01c80639b5215f6116100415780639b5215f614610143578063d0a1026014610176578063d21595471461018b575f80fd5b80635e280f111461006757806384123305146100c45780639a923b9a146100f7575b5f80fd5b348015610072575f80fd5b5061009a7f000000000000000000000000000000000000000000000000000000000000000081565b60405173ffffffffffffffffffffffffffffffffffffffff90911681526020015b60405180910390f35b3480156100cf575f80fd5b5061009a7f000000000000000000000000000000000000000000000000000000000000000081565b348015610102575f80fd5b5061012a7f000000000000000000000000000000000000000000000000000000000000000081565b60405167ffffffffffffffff90911681526020016100bb565b34801561014e575f80fd5b5061009a7f000000000000000000000000000000000000000000000000000000000000000081565b61018961018436600461052b565b6101be565b005b348015610196575f80fd5b5061009a7f000000000000000000000000000000000000000000000000000000000000000081565b3373ffffffffffffffffffffffffffffffffffffffff7f00000000000000000000000000000000000000000000000000000000000000001614610234576040517feee35e6f0000000000000000000000000000000000000000000000000000000081523360048201526024015b60405180910390fd5b8673ffffffffffffffffffffffffffffffffffffffff167f000000000000000000000000000000000000000000000000000000000000000073ffffffffffffffffffffffffffffffffffffffff16146102f9576040517f86fee0c000000000000000000000000000000000000000000000000000000000815273ffffffffffffffffffffffffffffffffffffffff7f0000000000000000000000000000000000000000000000000000000000000000811660048301528816602482015260440161022b565b5f8061030587876103e3565b6040517fb034fd0700000000000000000000000000000000000000000000000000000000815273ffffffffffffffffffffffffffffffffffffffff80841660048301527f000000000000000000000000000000000000000000000000000000000000000081166024830152604482018390529294509092507f00000000000000000000000000000000000000000000000000000000000000009091169063b034fd07906064015f604051808303815f87803b1580156103c2575f80fd5b505af11580156103d4573d5f803e3d5ffd5b50505050505050505050505050565b5f805f6103f08585610453565b905060148151146104315780516040517f09b3473100000000000000000000000000000000000000000000000000000000815261022b9183916004016105c2565b61043a81610632565b60601c9250610449858561049f565b9150509250929050565b606061046282604c8186610681565b8080601f0160208091040260200160405190810160405280939291908181526020018383808284375f920191909152509293505050505b92915050565b5f6104ae602c600c8486610681565b6104b7916106a8565b9392505050565b803573ffffffffffffffffffffffffffffffffffffffff811681146104e1575f80fd5b919050565b5f8083601f8401126104f6575f80fd5b50813567ffffffffffffffff81111561050d575f80fd5b602083019150836020828501011115610524575f80fd5b9250929050565b5f805f805f805f60a0888a031215610541575f80fd5b61054a886104be565b965060208801359550604088013567ffffffffffffffff8082111561056d575f80fd5b6105798b838c016104e6565b909750955085915061058d60608b016104be565b945060808a01359150808211156105a2575f80fd5b506105af8a828b016104e6565b989b979a50959850939692959293505050565b604081525f83518060408401525f5b818110156105ee57602081870181015160608684010152016105d1565b505f6060828501015260607fffffffffffffffffffffffffffffffffffffffffffffffffffffffffffffffe0601f8301168401019150508260208301529392505050565b5f815160208301517fffffffffffffffffffffffffffffffffffffffff000000000000000000000000808216935060148310156106795780818460140360031b1b83161693505b505050919050565b5f808585111561068f575f80fd5b8386111561069b575f80fd5b5050820193919092039150565b80356020831015610499577fffffffffffffffffffffffffffffffffffffffffffffffffffffffffffffffff602084900360031b1b169291505056fea26469706673582212207bda9bcf99be3f2690c2007d16df9b219badfd84a29ddfc984ddb3aa38a89d4d64736f6c63430008160033","linkReferences":{}},"methodIdentifiers":{"OFT_TOKEN_ASSET_BRIDGE_ADDRESS()":"84123305","OFT_TOKEN_CORE_INDEX_ID()":"9a923b9a","endpoint()":"5e280f11","hyperliquidHopTransferableToken()":"d2159547","lzCompose(address,bytes32,bytes,address,bytes)":"d0a10260","oft()":"9b5215f6"},"id":1}