{
  "address": "0xeBc2aFc3DE72a17f42962E912d03DbA5ee8af898",
  "abi": [
    {
      "inputs": [
        {
          "internalType": "address",
          "name": "_lzEndpoint",
          "type": "address"
        },
        {
          "internalType": "address",
          "name": "_proxyToken",
          "type": "address"
        }
      ],
      "stateMutability": "nonpayable",
      "type": "constructor"
    },
    {
      "anonymous": false,
      "inputs": [
        {
          "indexed": false,
          "internalType": "uint16",
          "name": "_srcChainId",
          "type": "uint16"
        },
        {
          "indexed": false,
          "internalType": "bytes",
          "name": "_srcAddress",
          "type": "bytes"
        },
        {
          "indexed": false,
          "internalType": "uint64",
          "name": "_nonce",
          "type": "uint64"
        },
        {
          "indexed": false,
          "internalType": "bytes",
          "name": "_payload",
          "type": "bytes"
        },
        {
          "indexed": false,
          "internalType": "bytes",
          "name": "_reason",
          "type": "bytes"
        }
      ],
      "name": "MessageFailed",
      "type": "event"
    },
    {
      "anonymous": false,
      "inputs": [
        {
          "indexed": true,
          "internalType": "address",
          "name": "previousOwner",
          "type": "address"
        },
        {
          "indexed": true,
          "internalType": "address",
          "name": "newOwner",
          "type": "address"
        }
      ],
      "name": "OwnershipTransferred",
      "type": "event"
    },
    {
      "anonymous": false,
      "inputs": [
        {
          "indexed": true,
          "internalType": "uint16",
          "name": "_srcChainId",
          "type": "uint16"
        },
        {
          "indexed": true,
          "internalType": "bytes",
          "name": "_srcAddress",
          "type": "bytes"
        },
        {
          "indexed": true,
          "internalType": "address",
          "name": "_toAddress",
          "type": "address"
        },
        {
          "indexed": false,
          "internalType": "uint256[]",
          "name": "_tokenIds",
          "type": "uint256[]"
        },
        {
          "indexed": false,
          "internalType": "uint256[]",
          "name": "_amounts",
          "type": "uint256[]"
        }
      ],
      "name": "ReceiveBatchFromChain",
      "type": "event"
    },
    {
      "anonymous": false,
      "inputs": [
        {
          "indexed": true,
          "internalType": "uint16",
          "name": "_srcChainId",
          "type": "uint16"
        },
        {
          "indexed": true,
          "internalType": "bytes",
          "name": "_srcAddress",
          "type": "bytes"
        },
        {
          "indexed": true,
          "internalType": "address",
          "name": "_toAddress",
          "type": "address"
        },
        {
          "indexed": false,
          "internalType": "uint256",
          "name": "_tokenId",
          "type": "uint256"
        },
        {
          "indexed": false,
          "internalType": "uint256",
          "name": "_amount",
          "type": "uint256"
        }
      ],
      "name": "ReceiveFromChain",
      "type": "event"
    },
    {
      "anonymous": false,
      "inputs": [
        {
          "indexed": false,
          "internalType": "uint16",
          "name": "_srcChainId",
          "type": "uint16"
        },
        {
          "indexed": false,
          "internalType": "bytes",
          "name": "_srcAddress",
          "type": "bytes"
        },
        {
          "indexed": false,
          "internalType": "uint64",
          "name": "_nonce",
          "type": "uint64"
        },
        {
          "indexed": false,
          "internalType": "bytes32",
          "name": "_payloadHash",
          "type": "bytes32"
        }
      ],
      "name": "RetryMessageSuccess",
      "type": "event"
    },
    {
      "anonymous": false,
      "inputs": [
        {
          "indexed": true,
          "internalType": "uint16",
          "name": "_dstChainId",
          "type": "uint16"
        },
        {
          "indexed": true,
          "internalType": "address",
          "name": "_from",
          "type": "address"
        },
        {
          "indexed": true,
          "internalType": "bytes",
          "name": "_toAddress",
          "type": "bytes"
        },
        {
          "indexed": false,
          "internalType": "uint256[]",
          "name": "_tokenIds",
          "type": "uint256[]"
        },
        {
          "indexed": false,
          "internalType": "uint256[]",
          "name": "_amounts",
          "type": "uint256[]"
        }
      ],
      "name": "SendBatchToChain",
      "type": "event"
    },
    {
      "anonymous": false,
      "inputs": [
        {
          "indexed": true,
          "internalType": "uint16",
          "name": "_dstChainId",
          "type": "uint16"
        },
        {
          "indexed": true,
          "internalType": "address",
          "name": "_from",
          "type": "address"
        },
        {
          "indexed": true,
          "internalType": "bytes",
          "name": "_toAddress",
          "type": "bytes"
        },
        {
          "indexed": false,
          "internalType": "uint256",
          "name": "_tokenId",
          "type": "uint256"
        },
        {
          "indexed": false,
          "internalType": "uint256",
          "name": "_amount",
          "type": "uint256"
        }
      ],
      "name": "SendToChain",
      "type": "event"
    },
    {
      "anonymous": false,
      "inputs": [
        {
          "indexed": false,
          "internalType": "uint16",
          "name": "_dstChainId",
          "type": "uint16"
        },
        {
          "indexed": false,
          "internalType": "uint16",
          "name": "_type",
          "type": "uint16"
        },
        {
          "indexed": false,
          "internalType": "uint256",
          "name": "_minDstGas",
          "type": "uint256"
        }
      ],
      "name": "SetMinDstGas",
      "type": "event"
    },
    {
      "anonymous": false,
      "inputs": [
        {
          "indexed": false,
          "internalType": "address",
          "name": "precrime",
          "type": "address"
        }
      ],
      "name": "SetPrecrime",
      "type": "event"
    },
    {
      "anonymous": false,
      "inputs": [
        {
          "indexed": false,
          "internalType": "uint16",
          "name": "_remoteChainId",
          "type": "uint16"
        },
        {
          "indexed": false,
          "internalType": "bytes",
          "name": "_path",
          "type": "bytes"
        }
      ],
      "name": "SetTrustedRemote",
      "type": "event"
    },
    {
      "anonymous": false,
      "inputs": [
        {
          "indexed": false,
          "internalType": "uint16",
          "name": "_remoteChainId",
          "type": "uint16"
        },
        {
          "indexed": false,
          "internalType": "bytes",
          "name": "_remoteAddress",
          "type": "bytes"
        }
      ],
      "name": "SetTrustedRemoteAddress",
      "type": "event"
    },
    {
      "anonymous": false,
      "inputs": [
        {
          "indexed": false,
          "internalType": "bool",
          "name": "_useCustomAdapterParams",
          "type": "bool"
        }
      ],
      "name": "SetUseCustomAdapterParams",
      "type": "event"
    },
    {
      "inputs": [],
      "name": "DEFAULT_PAYLOAD_SIZE_LIMIT",
      "outputs": [
        {
          "internalType": "uint256",
          "name": "",
          "type": "uint256"
        }
      ],
      "stateMutability": "view",
      "type": "function"
    },
    {
      "inputs": [],
      "name": "FUNCTION_TYPE_SEND",
      "outputs": [
        {
          "internalType": "uint16",
          "name": "",
          "type": "uint16"
        }
      ],
      "stateMutability": "view",
      "type": "function"
    },
    {
      "inputs": [],
      "name": "FUNCTION_TYPE_SEND_BATCH",
      "outputs": [
        {
          "internalType": "uint16",
          "name": "",
          "type": "uint16"
        }
      ],
      "stateMutability": "view",
      "type": "function"
    },
    {
      "inputs": [],
      "name": "NO_EXTRA_GAS",
      "outputs": [
        {
          "internalType": "uint256",
          "name": "",
          "type": "uint256"
        }
      ],
      "stateMutability": "view",
      "type": "function"
    },
    {
      "inputs": [
        {
          "internalType": "uint16",
          "name": "_dstChainId",
          "type": "uint16"
        },
        {
          "internalType": "bytes",
          "name": "_toAddress",
          "type": "bytes"
        },
        {
          "internalType": "uint256[]",
          "name": "_tokenIds",
          "type": "uint256[]"
        },
        {
          "internalType": "uint256[]",
          "name": "_amounts",
          "type": "uint256[]"
        },
        {
          "internalType": "bool",
          "name": "_useZro",
          "type": "bool"
        },
        {
          "internalType": "bytes",
          "name": "_adapterParams",
          "type": "bytes"
        }
      ],
      "name": "estimateSendBatchFee",
      "outputs": [
        {
          "internalType": "uint256",
          "name": "nativeFee",
          "type": "uint256"
        },
        {
          "internalType": "uint256",
          "name": "zroFee",
          "type": "uint256"
        }
      ],
      "stateMutability": "view",
      "type": "function"
    },
    {
      "inputs": [
        {
          "internalType": "uint16",
          "name": "_dstChainId",
          "type": "uint16"
        },
        {
          "internalType": "bytes",
          "name": "_toAddress",
          "type": "bytes"
        },
        {
          "internalType": "uint256",
          "name": "_tokenId",
          "type": "uint256"
        },
        {
          "internalType": "uint256",
          "name": "_amount",
          "type": "uint256"
        },
        {
          "internalType": "bool",
          "name": "_useZro",
          "type": "bool"
        },
        {
          "internalType": "bytes",
          "name": "_adapterParams",
          "type": "bytes"
        }
      ],
      "name": "estimateSendFee",
      "outputs": [
        {
          "internalType": "uint256",
          "name": "nativeFee",
          "type": "uint256"
        },
        {
          "internalType": "uint256",
          "name": "zroFee",
          "type": "uint256"
        }
      ],
      "stateMutability": "view",
      "type": "function"
    },
    {
      "inputs": [
        {
          "internalType": "uint16",
          "name": "",
          "type": "uint16"
        },
        {
          "internalType": "bytes",
          "name": "",
          "type": "bytes"
        },
        {
          "internalType": "uint64",
          "name": "",
          "type": "uint64"
        }
      ],
      "name": "failedMessages",
      "outputs": [
        {
          "internalType": "bytes32",
          "name": "",
          "type": "bytes32"
        }
      ],
      "stateMutability": "view",
      "type": "function"
    },
    {
      "inputs": [
        {
          "internalType": "uint16",
          "name": "_srcChainId",
          "type": "uint16"
        },
        {
          "internalType": "bytes",
          "name": "_srcAddress",
          "type": "bytes"
        }
      ],
      "name": "forceResumeReceive",
      "outputs": [],
      "stateMutability": "nonpayable",
      "type": "function"
    },
    {
      "inputs": [
        {
          "internalType": "uint16",
          "name": "_version",
          "type": "uint16"
        },
        {
          "internalType": "uint16",
          "name": "_chainId",
          "type": "uint16"
        },
        {
          "internalType": "address",
          "name": "",
          "type": "address"
        },
        {
          "internalType": "uint256",
          "name": "_configType",
          "type": "uint256"
        }
      ],
      "name": "getConfig",
      "outputs": [
        {
          "internalType": "bytes",
          "name": "",
          "type": "bytes"
        }
      ],
      "stateMutability": "view",
      "type": "function"
    },
    {
      "inputs": [
        {
          "internalType": "uint16",
          "name": "_remoteChainId",
          "type": "uint16"
        }
      ],
      "name": "getTrustedRemoteAddress",
      "outputs": [
        {
          "internalType": "bytes",
          "name": "",
          "type": "bytes"
        }
      ],
      "stateMutability": "view",
      "type": "function"
    },
    {
      "inputs": [
        {
          "internalType": "uint16",
          "name": "_srcChainId",
          "type": "uint16"
        },
        {
          "internalType": "bytes",
          "name": "_srcAddress",
          "type": "bytes"
        }
      ],
      "name": "isTrustedRemote",
      "outputs": [
        {
          "internalType": "bool",
          "name": "",
          "type": "bool"
        }
      ],
      "stateMutability": "view",
      "type": "function"
    },
    {
      "inputs": [],
      "name": "lzEndpoint",
      "outputs": [
        {
          "internalType": "contract ILayerZeroEndpoint",
          "name": "",
          "type": "address"
        }
      ],
      "stateMutability": "view",
      "type": "function"
    },
    {
      "inputs": [
        {
          "internalType": "uint16",
          "name": "_srcChainId",
          "type": "uint16"
        },
        {
          "internalType": "bytes",
          "name": "_srcAddress",
          "type": "bytes"
        },
        {
          "internalType": "uint64",
          "name": "_nonce",
          "type": "uint64"
        },
        {
          "internalType": "bytes",
          "name": "_payload",
          "type": "bytes"
        }
      ],
      "name": "lzReceive",
      "outputs": [],
      "stateMutability": "nonpayable",
      "type": "function"
    },
    {
      "inputs": [
        {
          "internalType": "uint16",
          "name": "",
          "type": "uint16"
        },
        {
          "internalType": "uint16",
          "name": "",
          "type": "uint16"
        }
      ],
      "name": "minDstGasLookup",
      "outputs": [
        {
          "internalType": "uint256",
          "name": "",
          "type": "uint256"
        }
      ],
      "stateMutability": "view",
      "type": "function"
    },
    {
      "inputs": [
        {
          "internalType": "uint16",
          "name": "_srcChainId",
          "type": "uint16"
        },
        {
          "internalType": "bytes",
          "name": "_srcAddress",
          "type": "bytes"
        },
        {
          "internalType": "uint64",
          "name": "_nonce",
          "type": "uint64"
        },
        {
          "internalType": "bytes",
          "name": "_payload",
          "type": "bytes"
        }
      ],
      "name": "nonblockingLzReceive",
      "outputs": [],
      "stateMutability": "nonpayable",
      "type": "function"
    },
    {
      "inputs": [
        {
          "internalType": "address",
          "name": "_operator",
          "type": "address"
        },
        {
          "internalType": "address",
          "name": "",
          "type": "address"
        },
        {
          "internalType": "uint256[]",
          "name": "",
          "type": "uint256[]"
        },
        {
          "internalType": "uint256[]",
          "name": "",
          "type": "uint256[]"
        },
        {
          "internalType": "bytes",
          "name": "",
          "type": "bytes"
        }
      ],
      "name": "onERC1155BatchReceived",
      "outputs": [
        {
          "internalType": "bytes4",
          "name": "",
          "type": "bytes4"
        }
      ],
      "stateMutability": "nonpayable",
      "type": "function"
    },
    {
      "inputs": [
        {
          "internalType": "address",
          "name": "_operator",
          "type": "address"
        },
        {
          "internalType": "address",
          "name": "",
          "type": "address"
        },
        {
          "internalType": "uint256",
          "name": "",
          "type": "uint256"
        },
        {
          "internalType": "uint256",
          "name": "",
          "type": "uint256"
        },
        {
          "internalType": "bytes",
          "name": "",
          "type": "bytes"
        }
      ],
      "name": "onERC1155Received",
      "outputs": [
        {
          "internalType": "bytes4",
          "name": "",
          "type": "bytes4"
        }
      ],
      "stateMutability": "nonpayable",
      "type": "function"
    },
    {
      "inputs": [],
      "name": "owner",
      "outputs": [
        {
          "internalType": "address",
          "name": "",
          "type": "address"
        }
      ],
      "stateMutability": "view",
      "type": "function"
    },
    {
      "inputs": [
        {
          "internalType": "uint16",
          "name": "",
          "type": "uint16"
        }
      ],
      "name": "payloadSizeLimitLookup",
      "outputs": [
        {
          "internalType": "uint256",
          "name": "",
          "type": "uint256"
        }
      ],
      "stateMutability": "view",
      "type": "function"
    },
    {
      "inputs": [],
      "name": "precrime",
      "outputs": [
        {
          "internalType": "address",
          "name": "",
          "type": "address"
        }
      ],
      "stateMutability": "view",
      "type": "function"
    },
    {
      "inputs": [],
      "name": "renounceOwnership",
      "outputs": [],
      "stateMutability": "nonpayable",
      "type": "function"
    },
    {
      "inputs": [
        {
          "internalType": "uint16",
          "name": "_srcChainId",
          "type": "uint16"
        },
        {
          "internalType": "bytes",
          "name": "_srcAddress",
          "type": "bytes"
        },
        {
          "internalType": "uint64",
          "name": "_nonce",
          "type": "uint64"
        },
        {
          "internalType": "bytes",
          "name": "_payload",
          "type": "bytes"
        }
      ],
      "name": "retryMessage",
      "outputs": [],
      "stateMutability": "payable",
      "type": "function"
    },
    {
      "inputs": [
        {
          "internalType": "address",
          "name": "_from",
          "type": "address"
        },
        {
          "internalType": "uint16",
          "name": "_dstChainId",
          "type": "uint16"
        },
        {
          "internalType": "bytes",
          "name": "_toAddress",
          "type": "bytes"
        },
        {
          "internalType": "uint256[]",
          "name": "_tokenIds",
          "type": "uint256[]"
        },
        {
          "internalType": "uint256[]",
          "name": "_amounts",
          "type": "uint256[]"
        },
        {
          "internalType": "address payable",
          "name": "_refundAddress",
          "type": "address"
        },
        {
          "internalType": "address",
          "name": "_zroPaymentAddress",
          "type": "address"
        },
        {
          "internalType": "bytes",
          "name": "_adapterParams",
          "type": "bytes"
        }
      ],
      "name": "sendBatchFrom",
      "outputs": [],
      "stateMutability": "payable",
      "type": "function"
    },
    {
      "inputs": [
        {
          "internalType": "address",
          "name": "_from",
          "type": "address"
        },
        {
          "internalType": "uint16",
          "name": "_dstChainId",
          "type": "uint16"
        },
        {
          "internalType": "bytes",
          "name": "_toAddress",
          "type": "bytes"
        },
        {
          "internalType": "uint256",
          "name": "_tokenId",
          "type": "uint256"
        },
        {
          "internalType": "uint256",
          "name": "_amount",
          "type": "uint256"
        },
        {
          "internalType": "address payable",
          "name": "_refundAddress",
          "type": "address"
        },
        {
          "internalType": "address",
          "name": "_zroPaymentAddress",
          "type": "address"
        },
        {
          "internalType": "bytes",
          "name": "_adapterParams",
          "type": "bytes"
        }
      ],
      "name": "sendFrom",
      "outputs": [],
      "stateMutability": "payable",
      "type": "function"
    },
    {
      "inputs": [
        {
          "internalType": "uint16",
          "name": "_version",
          "type": "uint16"
        },
        {
          "internalType": "uint16",
          "name": "_chainId",
          "type": "uint16"
        },
        {
          "internalType": "uint256",
          "name": "_configType",
          "type": "uint256"
        },
        {
          "internalType": "bytes",
          "name": "_config",
          "type": "bytes"
        }
      ],
      "name": "setConfig",
      "outputs": [],
      "stateMutability": "nonpayable",
      "type": "function"
    },
    {
      "inputs": [
        {
          "internalType": "uint16",
          "name": "_dstChainId",
          "type": "uint16"
        },
        {
          "internalType": "uint16",
          "name": "_packetType",
          "type": "uint16"
        },
        {
          "internalType": "uint256",
          "name": "_minGas",
          "type": "uint256"
        }
      ],
      "name": "setMinDstGas",
      "outputs": [],
      "stateMutability": "nonpayable",
      "type": "function"
    },
    {
      "inputs": [
        {
          "internalType": "uint16",
          "name": "_dstChainId",
          "type": "uint16"
        },
        {
          "internalType": "uint256",
          "name": "_size",
          "type": "uint256"
        }
      ],
      "name": "setPayloadSizeLimit",
      "outputs": [],
      "stateMutability": "nonpayable",
      "type": "function"
    },
    {
      "inputs": [
        {
          "internalType": "address",
          "name": "_precrime",
          "type": "address"
        }
      ],
      "name": "setPrecrime",
      "outputs": [],
      "stateMutability": "nonpayable",
      "type": "function"
    },
    {
      "inputs": [
        {
          "internalType": "uint16",
          "name": "_version",
          "type": "uint16"
        }
      ],
      "name": "setReceiveVersion",
      "outputs": [],
      "stateMutability": "nonpayable",
      "type": "function"
    },
    {
      "inputs": [
        {
          "internalType": "uint16",
          "name": "_version",
          "type": "uint16"
        }
      ],
      "name": "setSendVersion",
      "outputs": [],
      "stateMutability": "nonpayable",
      "type": "function"
    },
    {
      "inputs": [
        {
          "internalType": "uint16",
          "name": "_remoteChainId",
          "type": "uint16"
        },
        {
          "internalType": "bytes",
          "name": "_path",
          "type": "bytes"
        }
      ],
      "name": "setTrustedRemote",
      "outputs": [],
      "stateMutability": "nonpayable",
      "type": "function"
    },
    {
      "inputs": [
        {
          "internalType": "uint16",
          "name": "_remoteChainId",
          "type": "uint16"
        },
        {
          "internalType": "bytes",
          "name": "_remoteAddress",
          "type": "bytes"
        }
      ],
      "name": "setTrustedRemoteAddress",
      "outputs": [],
      "stateMutability": "nonpayable",
      "type": "function"
    },
    {
      "inputs": [
        {
          "internalType": "bool",
          "name": "_useCustomAdapterParams",
          "type": "bool"
        }
      ],
      "name": "setUseCustomAdapterParams",
      "outputs": [],
      "stateMutability": "nonpayable",
      "type": "function"
    },
    {
      "inputs": [
        {
          "internalType": "bytes4",
          "name": "interfaceId",
          "type": "bytes4"
        }
      ],
      "name": "supportsInterface",
      "outputs": [
        {
          "internalType": "bool",
          "name": "",
          "type": "bool"
        }
      ],
      "stateMutability": "view",
      "type": "function"
    },
    {
      "inputs": [],
      "name": "token",
      "outputs": [
        {
          "internalType": "contract IERC1155",
          "name": "",
          "type": "address"
        }
      ],
      "stateMutability": "view",
      "type": "function"
    },
    {
      "inputs": [
        {
          "internalType": "address",
          "name": "newOwner",
          "type": "address"
        }
      ],
      "name": "transferOwnership",
      "outputs": [],
      "stateMutability": "nonpayable",
      "type": "function"
    },
    {
      "inputs": [
        {
          "internalType": "uint16",
          "name": "",
          "type": "uint16"
        }
      ],
      "name": "trustedRemoteLookup",
      "outputs": [
        {
          "internalType": "bytes",
          "name": "",
          "type": "bytes"
        }
      ],
      "stateMutability": "view",
      "type": "function"
    },
    {
      "inputs": [],
      "name": "useCustomAdapterParams",
      "outputs": [
        {
          "internalType": "bool",
          "name": "",
          "type": "bool"
        }
      ],
      "stateMutability": "view",
      "type": "function"
    }
  ],
  "transactionHash": "0x28e94c7b7b5fa54ee996389cdbad1605a8bde0a1f808cf76f935409de729126f",
  "args": [
    "0x93f54D755A063cE7bB9e6Ac47Eccc8e33411d706",
    "0xFc13c28024Ac57B0FbfF311FccFF2dA452B7Ff26"
  ],
  "numDeployments": 1,
  "solcInputHash": "339d1b9f3fa1541abe678a39e0d52515",
  "bytecode": "0x60c06040523480156200001157600080fd5b506040516200374d3803806200374d8339810160408190526200003491620002a9565b8180806200004233620000e4565b6001600160a01b0390811660805262000074925083169050636cdb3d1360e11b62000134602090811b6200167817901c565b620000d15760405162461bcd60e51b8152602060048201526024808201527f50726f78794f4e4654313135353a20696e76616c69642045524331313535207460448201526337b5b2b760e11b606482015260840160405180910390fd5b6001600160a01b031660a0525062000339565b600080546001600160a01b038381166001600160a01b0319831681178455604051919092169283917f8be0079c531659141344cd1fd0a4f28419497f9722a3daafe3b4186f6b6457e09190a35050565b600062000141836200015e565b801562000155575062000155838362000196565b90505b92915050565b600062000173826301ffc9a760e01b62000196565b80156200015857506200018f826001600160e01b031962000196565b1592915050565b604080516001600160e01b0319831660248083019190915282518083039091018152604490910182526020810180516001600160e01b03166301ffc9a760e01b179052905160009190829081906001600160a01b0387169061753090620001ff908690620002e1565b6000604051808303818686fa925050503d80600081146200023d576040519150601f19603f3d011682016040523d82523d6000602084013e62000242565b606091505b50915091506020815110156200025f576000935050505062000158565b8180156200028257506000818060200190518101906200028091906200031f565b115b9695505050505050565b80516001600160a01b0381168114620002a457600080fd5b919050565b60008060408385031215620002bd57600080fd5b620002c8836200028c565b9150620002d8602084016200028c565b90509250929050565b6000825160005b81811015620003045760208186018101518583015201620002e8565b8181111562000314576000828501525b509190910192915050565b6000602082840312156200033257600080fd5b5051919050565b60805160a0516133a8620003a56000396000818161076501528181611f4001526122170152600081816105b50152818161078a01528181610a0401528181610aac01528181610bce015281816110140152818161114a01528181611601015261218401526133a86000f3fe6080604052600436106102245760003560e01c8063950c8a7411610123578063cbed8b9c116100ab578063ed629c5c1161006f578063ed629c5c146106d9578063f23a6e61146106f3578063f2fde38b14610713578063f5ecbdbc14610733578063fc0c546a1461075357600080fd5b8063cbed8b9c14610646578063d1deba1f14610666578063df2a5b3b14610679578063eab45d9c14610699578063eb8d72b7146106b957600080fd5b8063b2535663116100f2578063b253566314610583578063b353aaa7146105a3578063baf3292d146105d7578063bc197c81146105f7578063c44618341461063057600080fd5b8063950c8a741461050e5780639f38369a1461052e578063a6c3d1651461054e578063af3fb21c1461056e57600080fd5b806344770515116101b1578063715018a611610175578063715018a61461042d5780637533d788146104425780638608e5f81461046f5780638cfd8f5c146104a45780638da5cb5b146104dc57600080fd5b806344770515146103835780634ab4e687146103985780634db8226a146103ab5780635b8c41e6146103be57806366ad5c8a1461040d57600080fd5b806310ddb137116101f857806310ddb137146102c0578063149e3e1f146102e05780633d8b38f6146103085780633f1f4fa41461032857806342d65a8d1461036357600080fd5b80621d35671461022957806301ffc9a71461024b57806307e0db17146102805780630df37483146102a0575b600080fd5b34801561023557600080fd5b506102496102443660046124d2565b610787565b005b34801561025757600080fd5b5061026b610266366004612565565b6109b8565b60405190151581526020015b60405180910390f35b34801561028c57600080fd5b5061024961029b36600461258f565b6109e3565b3480156102ac57600080fd5b506102496102bb3660046125aa565b610a6c565b3480156102cc57600080fd5b506102496102db36600461258f565b610a8b565b3480156102ec57600080fd5b506102f5600281565b60405161ffff9091168152602001610277565b34801561031457600080fd5b5061026b6103233660046125d4565b610ae3565b34801561033457600080fd5b5061035561034336600461258f565b60036020526000908152604090205481565b604051908152602001610277565b34801561036f57600080fd5b5061024961037e3660046125d4565b610baf565b34801561038f57600080fd5b50610355600081565b6102496103a6366004612792565b610c35565b6102496103b9366004612881565b610c4f565b3480156103ca57600080fd5b506103556103d9366004612927565b6005602090815260009384526040808520845180860184018051928152908401958401959095209452929052825290205481565b34801561041957600080fd5b506102496104283660046124d2565b610c6f565b34801561043957600080fd5b50610249610d4b565b34801561044e57600080fd5b5061046261045d36600461258f565b610d5f565b60405161027791906129e0565b34801561047b57600080fd5b5061048f61048a366004612a03565b610df9565b60408051928352602083019190915201610277565b3480156104b057600080fd5b506103556104bf366004612a99565b600260209081526000928352604080842090915290825290205481565b3480156104e857600080fd5b506000546001600160a01b03165b6040516001600160a01b039091168152602001610277565b34801561051a57600080fd5b506004546104f6906001600160a01b031681565b34801561053a57600080fd5b5061046261054936600461258f565b610e29565b34801561055a57600080fd5b506102496105693660046125d4565b610f40565b34801561057a57600080fd5b506102f5600181565b34801561058f57600080fd5b5061048f61059e366004612acc565b610fd3565b3480156105af57600080fd5b506104f67f000000000000000000000000000000000000000000000000000000000000000081565b3480156105e357600080fd5b506102496105f2366004612b68565b6110a1565b34801561060357600080fd5b50610617610612366004612b85565b6110fe565b6040516001600160e01b03199091168152602001610277565b34801561063c57600080fd5b5061035561271081565b34801561065257600080fd5b50610249610661366004612c32565b61112b565b6102496106743660046124d2565b6111c0565b34801561068557600080fd5b50610249610694366004612ca0565b6113d6565b3480156106a557600080fd5b506102496106b4366004612cdc565b611488565b3480156106c557600080fd5b506102496106d43660046125d4565b6114d1565b3480156106e557600080fd5b5060065461026b9060ff1681565b3480156106ff57600080fd5b5061061761070e366004612cf7565b61152b565b34801561071f57600080fd5b5061024961072e366004612b68565b611557565b34801561073f57600080fd5b5061046261074e366004612d5f565b6115d0565b34801561075f57600080fd5b506104f67f000000000000000000000000000000000000000000000000000000000000000081565b337f00000000000000000000000000000000000000000000000000000000000000006001600160a01b0316146108045760405162461bcd60e51b815260206004820152601e60248201527f4c7a4170703a20696e76616c696420656e64706f696e742063616c6c6572000060448201526064015b60405180910390fd5b61ffff86166000908152600160205260408120805461082290612dac565b80601f016020809104026020016040519081016040528092919081815260200182805461084e90612dac565b801561089b5780601f106108705761010080835404028352916020019161089b565b820191906000526020600020905b81548152906001019060200180831161087e57829003601f168201915b505050505090508051868690501480156108b6575060008151115b80156108de5750805160208201206040516108d49088908890612de7565b6040518091039020145b6109395760405162461bcd60e51b815260206004820152602660248201527f4c7a4170703a20696e76616c696420736f757263652073656e64696e6720636f6044820152651b9d1c9858dd60d21b60648201526084016107fb565b6109af8787878080601f01602080910402602001604051908101604052809392919081815260200183838082843760009201919091525050604080516020601f8a018190048102820181019092528881528a93509150889088908190840183828082843760009201919091525061169492505050565b50505050505050565b60006001600160e01b03198216630271189760e51b14806109dd57506109dd8261170d565b92915050565b6109eb611742565b6040516307e0db1760e01b815261ffff821660048201527f00000000000000000000000000000000000000000000000000000000000000006001600160a01b0316906307e0db17906024015b600060405180830381600087803b158015610a5157600080fd5b505af1158015610a65573d6000803e3d6000fd5b5050505050565b610a74611742565b61ffff909116600090815260036020526040902055565b610a93611742565b6040516310ddb13760e01b815261ffff821660048201527f00000000000000000000000000000000000000000000000000000000000000006001600160a01b0316906310ddb13790602401610a37565b61ffff831660009081526001602052604081208054829190610b0490612dac565b80601f0160208091040260200160405190810160405280929190818152602001828054610b3090612dac565b8015610b7d5780601f10610b5257610100808354040283529160200191610b7d565b820191906000526020600020905b815481529060010190602001808311610b6057829003601f168201915b505050505090508383604051610b94929190612de7565b60405180910390208180519060200120149150509392505050565b610bb7611742565b6040516342d65a8d60e01b81526001600160a01b037f000000000000000000000000000000000000000000000000000000000000000016906342d65a8d90610c0790869086908690600401612e20565b600060405180830381600087803b158015610c2157600080fd5b505af11580156109af573d6000803e3d6000fd5b610c45888888888888888861179c565b5050505050505050565b610c45888888610c5e89611984565b610c6789611984565b88888861179c565b333014610ccd5760405162461bcd60e51b815260206004820152602660248201527f4e6f6e626c6f636b696e674c7a4170703a2063616c6c6572206d7573742062656044820152650204c7a4170760d41b60648201526084016107fb565b610d438686868080601f01602080910402602001604051908101604052809392919081815260200183838082843760009201919091525050604080516020601f8901819004810282018101909252878152899350915087908790819084018382808284376000920191909152506119cf92505050565b505050505050565b610d53611742565b610d5d6000611b1d565b565b60016020526000908152604090208054610d7890612dac565b80601f0160208091040260200160405190810160405280929190818152602001828054610da490612dac565b8015610df15780601f10610dc657610100808354040283529160200191610df1565b820191906000526020600020905b815481529060010190602001808311610dd457829003601f168201915b505050505081565b600080610e1a8888610e0a89611984565b610e1389611984565b8888610fd3565b91509150965096945050505050565b61ffff8116600090815260016020526040812080546060929190610e4c90612dac565b80601f0160208091040260200160405190810160405280929190818152602001828054610e7890612dac565b8015610ec55780601f10610e9a57610100808354040283529160200191610ec5565b820191906000526020600020905b815481529060010190602001808311610ea857829003601f168201915b50505050509050805160001415610f1e5760405162461bcd60e51b815260206004820152601d60248201527f4c7a4170703a206e6f20747275737465642070617468207265636f726400000060448201526064016107fb565b610f39600060148351610f319190612e54565b839190611b6d565b9392505050565b610f48611742565b818130604051602001610f5d93929190612e6b565b60408051601f1981840301815291815261ffff85166000908152600160209081529190208251610f929391929091019061234f565b507f8c0400cfe2d1199b1a725c78960bcc2a344d869b80590d0f2bd005db15a572ce838383604051610fc693929190612e20565b60405180910390a1505050565b6000806000878787604051602001610fed93929190612ecc565b60408051601f198184030181529082905263040a7bb160e41b825291506001600160a01b037f000000000000000000000000000000000000000000000000000000000000000016906340a7bb1090611051908c90309086908b908b90600401612f05565b6040805180830381865afa15801561106d573d6000803e3d6000fd5b505050506040513d601f19601f820116820180604052508101906110919190612f59565b9250925050965096945050505050565b6110a9611742565b600480546001600160a01b0319166001600160a01b0383169081179091556040519081527f5db758e995a17ec1ad84bdef7e8c3293a0bd6179bcce400dff5d4c3d87db726b906020015b60405180910390a150565b60006001600160a01b038616301461111857506000611122565b5063bc197c8160e01b5b95945050505050565b611133611742565b6040516332fb62e760e21b81526001600160a01b037f0000000000000000000000000000000000000000000000000000000000000000169063cbed8b9c906111879088908890889088908890600401612f7d565b600060405180830381600087803b1580156111a157600080fd5b505af11580156111b5573d6000803e3d6000fd5b505050505050505050565b61ffff861660009081526005602052604080822090516111e39088908890612de7565b90815260408051602092819003830190206001600160401b038716600090815292529020549050806112635760405162461bcd60e51b815260206004820152602360248201527f4e6f6e626c6f636b696e674c7a4170703a206e6f2073746f726564206d65737360448201526261676560e81b60648201526084016107fb565b808383604051611274929190612de7565b6040518091039020146112d35760405162461bcd60e51b815260206004820152602160248201527f4e6f6e626c6f636b696e674c7a4170703a20696e76616c6964207061796c6f616044820152601960fa1b60648201526084016107fb565b61ffff871660009081526005602052604080822090516112f69089908990612de7565b90815260408051602092819003830181206001600160401b038916600090815290845282902093909355601f8801829004820283018201905286825261138e918991899089908190840183828082843760009201919091525050604080516020601f8a018190048102820181019092528881528a9350915088908890819084018382808284376000920191909152506119cf92505050565b7fc264d91f3adc5588250e1551f547752ca0cfa8f6b530d243b9f9f4cab10ea8e587878787856040516113c5959493929190612fb6565b60405180910390a150505050505050565b6113de611742565b600081116114265760405162461bcd60e51b81526020600482015260156024820152744c7a4170703a20696e76616c6964206d696e47617360581b60448201526064016107fb565b61ffff83811660008181526002602090815260408083209487168084529482529182902085905581519283528201929092529081018290527f9d5c7c0b934da8fefa9c7760c98383778a12dfbfc0c3b3106518f43fb9508ac090606001610fc6565b611490611742565b6006805460ff19168215159081179091556040519081527f1584ad594a70cbe1e6515592e1272a987d922b097ead875069cebe8b40c004a4906020016110f3565b6114d9611742565b61ffff831660009081526001602052604090206114f79083836123d3565b507ffa41487ad5d6728f0b19276fa1eddc16558578f5109fc39d2dc33c3230470dab838383604051610fc693929190612e20565b60006001600160a01b038616301461154557506000611122565b5063f23a6e6160e01b95945050505050565b61155f611742565b6001600160a01b0381166115c45760405162461bcd60e51b815260206004820152602660248201527f4f776e61626c653a206e6577206f776e657220697320746865207a65726f206160448201526564647265737360d01b60648201526084016107fb565b6115cd81611b1d565b50565b604051633d7b2f6f60e21b815261ffff808616600483015284166024820152306044820152606481018290526060907f00000000000000000000000000000000000000000000000000000000000000006001600160a01b03169063f5ecbdbc90608401600060405180830381865afa158015611650573d6000803e3d6000fd5b505050506040513d6000823e601f3d908101601f19168201604052611122919081019061303e565b600061168383611c7a565b8015610f395750610f398383611cad565b6000806116f75a60966366ad5c8a60e01b898989896040516024016116bc9493929190613072565b60408051601f198184030181529190526020810180516001600160e01b03166001600160e01b03199093169290921790915230929190611d9a565b9150915081610d4357610d438686868685611e24565b60006001600160e01b031982166319abbbbb60e11b14806109dd57506301ffc9a760e01b6001600160e01b03198316146109dd565b6000546001600160a01b03163314610d5d5760405162461bcd60e51b815260206004820181905260248201527f4f776e61626c653a2063616c6c6572206973206e6f7420746865206f776e657260448201526064016107fb565b6117a98888888888611ec1565b60008686866040516020016117c093929190612ecc565b60405160208183030381529060405290508551600114156118c65760065460ff16156117f9576117f4886001846000611f7b565b611818565b8151156118185760405162461bcd60e51b81526004016107fb906130b0565b61182688828686863461205a565b8660405161183491906130f4565b6040518091039020896001600160a01b03168961ffff167f968b0d61ebcf43e5d76ed87bd2c4ee2f22b4969b9f4ca49e3373c025eddd5eeb8960008151811061187f5761187f613110565b60200260200101518960008151811061189a5761189a613110565b60200260200101516040516118b9929190918252602082015260400190565b60405180910390a46111b5565b6001865111156111b55760065460ff16156118ee576118e9886002846000611f7b565b61190d565b81511561190d5760405162461bcd60e51b81526004016107fb906130b0565b61191b88828686863461205a565b8660405161192991906130f4565b6040518091039020896001600160a01b03168961ffff167fddd15f7cfbd674ac2096d598f1650367f8a8bd72b4e3abd85591099ea3b57e338989604051611971929190613126565b60405180910390a4505050505050505050565b604080516001808252818301909252606091600091906020808301908036833701905050905082816000815181106119be576119be613110565b602090810291909101015292915050565b6000806000838060200190518101906119e891906131a6565b60148301519295509093509150611a0188828585612200565b825160011415611aab57806001600160a01b031687604051611a2391906130f4565b60405180910390208961ffff167f1bf64e58d19fc43de4c44b3d1bb1fae313979af831a7a39f3297564294329f0f86600081518110611a6457611a64613110565b602002602001015186600081518110611a7f57611a7f613110565b6020026020010151604051611a9e929190918252602082015260400190565b60405180910390a4610c45565b600183511115610c4557806001600160a01b031687604051611acd91906130f4565b60405180910390208961ffff167f1ae08edbbcd7baa8d064835de8593ce16b313414525ac89534e349f4da7926e48686604051611b0b929190613126565b60405180910390a45050505050505050565b600080546001600160a01b038381166001600160a01b0319831681178455604051919092169283917f8be0079c531659141344cd1fd0a4f28419497f9722a3daafe3b4186f6b6457e09190a35050565b606081611b7b81601f61322d565b1015611bba5760405162461bcd60e51b815260206004820152600e60248201526d736c6963655f6f766572666c6f7760901b60448201526064016107fb565b611bc4828461322d565b84511015611c085760405162461bcd60e51b8152602060048201526011602482015270736c6963655f6f75744f66426f756e647360781b60448201526064016107fb565b606082158015611c275760405191506000825260208201604052611c71565b6040519150601f8416801560200281840101858101878315602002848b0101015b81831015611c60578051835260209283019201611c48565b5050858452601f01601f1916604052505b50949350505050565b6000611c8d826301ffc9a760e01b611cad565b80156109dd5750611ca6826001600160e01b0319611cad565b1592915050565b604080516001600160e01b0319831660248083019190915282518083039091018152604490910182526020810180516001600160e01b03166301ffc9a760e01b179052905160009190829081906001600160a01b0387169061753090611d149086906130f4565b6000604051808303818686fa925050503d8060008114611d50576040519150601f19603f3d011682016040523d82523d6000602084013e611d55565b606091505b5091509150602081511015611d7057600093505050506109dd565b818015611d905750600081806020019051810190611d8e9190613245565b115b9695505050505050565b6000606060008060008661ffff166001600160401b03811115611dbf57611dbf612646565b6040519080825280601f01601f191660200182016040528015611de9576020820181803683370190505b50905060008087516020890160008d8df191503d925086831115611e0b578692505b828152826000602083013e909890975095505050505050565b8180519060200120600560008761ffff1661ffff16815260200190815260200160002085604051611e5591906130f4565b9081526040805191829003602090810183206001600160401b0388166000908152915220919091557fe183f33de2837795525b4792ca4cd60535bd77c53b7e7030060bfcf5734d6b0c90611eb2908790879087908790879061325e565b60405180910390a15050505050565b6001600160a01b0385163314611f295760405162461bcd60e51b815260206004820152602760248201527f50726f78794f4e4654313135353a206f776e6572206973206e6f742073656e646044820152661031b0b63632b960c91b60648201526084016107fb565b604051631759616b60e11b81526001600160a01b037f00000000000000000000000000000000000000000000000000000000000000001690632eb2c2d6906111879088903090879087906004016132b0565b6000611f8683612280565b61ffff808716600090815260026020908152604080832093891683529290529081205491925090611fb890849061322d565b90506000811161200a5760405162461bcd60e51b815260206004820152601a60248201527f4c7a4170703a206d696e4761734c696d6974206e6f742073657400000000000060448201526064016107fb565b80821015610d435760405162461bcd60e51b815260206004820152601b60248201527f4c7a4170703a20676173206c696d697420697320746f6f206c6f77000000000060448201526064016107fb565b61ffff86166000908152600160205260408120805461207890612dac565b80601f01602080910402602001604051908101604052809291908181526020018280546120a490612dac565b80156120f15780601f106120c6576101008083540402835291602001916120f1565b820191906000526020600020905b8154815290600101906020018083116120d457829003601f168201915b505050505090508051600014156121635760405162461bcd60e51b815260206004820152603060248201527f4c7a4170703a2064657374696e6174696f6e20636861696e206973206e6f742060448201526f61207472757374656420736f7572636560801b60648201526084016107fb565b61216e8787516122dc565b60405162c5803160e81b81526001600160a01b037f0000000000000000000000000000000000000000000000000000000000000000169063c58031009084906121c5908b9086908c908c908c908c9060040161330b565b6000604051808303818588803b1580156121de57600080fd5b505af11580156121f2573d6000803e3d6000fd5b505050505050505050505050565b604051631759616b60e11b81526001600160a01b037f00000000000000000000000000000000000000000000000000000000000000001690632eb2c2d6906122529030908790879087906004016132b0565b600060405180830381600087803b15801561226c57600080fd5b505af1158015610c45573d6000803e3d6000fd5b60006022825110156122d45760405162461bcd60e51b815260206004820152601c60248201527f4c7a4170703a20696e76616c69642061646170746572506172616d730000000060448201526064016107fb565b506022015190565b61ffff8216600090815260036020526040902054806122fa57506127105b8082111561234a5760405162461bcd60e51b815260206004820181905260248201527f4c7a4170703a207061796c6f61642073697a6520697320746f6f206c6172676560448201526064016107fb565b505050565b82805461235b90612dac565b90600052602060002090601f01602090048101928261237d57600085556123c3565b82601f1061239657805160ff19168380011785556123c3565b828001600101855582156123c3579182015b828111156123c35782518255916020019190600101906123a8565b506123cf929150612447565b5090565b8280546123df90612dac565b90600052602060002090601f01602090048101928261240157600085556123c3565b82601f1061241a5782800160ff198235161785556123c3565b828001600101855582156123c3579182015b828111156123c357823582559160200191906001019061242c565b5b808211156123cf5760008155600101612448565b803561ffff8116811461246e57600080fd5b919050565b60008083601f84011261248557600080fd5b5081356001600160401b0381111561249c57600080fd5b6020830191508360208285010111156124b457600080fd5b9250929050565b80356001600160401b038116811461246e57600080fd5b600080600080600080608087890312156124eb57600080fd5b6124f48761245c565b955060208701356001600160401b038082111561251057600080fd5b61251c8a838b01612473565b909750955085915061253060408a016124bb565b9450606089013591508082111561254657600080fd5b5061255389828a01612473565b979a9699509497509295939492505050565b60006020828403121561257757600080fd5b81356001600160e01b031981168114610f3957600080fd5b6000602082840312156125a157600080fd5b610f398261245c565b600080604083850312156125bd57600080fd5b6125c68361245c565b946020939093013593505050565b6000806000604084860312156125e957600080fd5b6125f28461245c565b925060208401356001600160401b0381111561260d57600080fd5b61261986828701612473565b9497909650939450505050565b6001600160a01b03811681146115cd57600080fd5b803561246e81612626565b634e487b7160e01b600052604160045260246000fd5b604051601f8201601f191681016001600160401b038111828210171561268457612684612646565b604052919050565b60006001600160401b038211156126a5576126a5612646565b50601f01601f191660200190565b600082601f8301126126c457600080fd5b81356126d76126d28261268c565b61265c565b8181528460208386010111156126ec57600080fd5b816020850160208301376000918101602001919091529392505050565b60006001600160401b0382111561272257612722612646565b5060051b60200190565b600082601f83011261273d57600080fd5b8135602061274d6126d283612709565b82815260059290921b8401810191818101908684111561276c57600080fd5b8286015b848110156127875780358352918301918301612770565b509695505050505050565b600080600080600080600080610100898b0312156127af57600080fd5b6127b88961263b565b97506127c660208a0161245c565b965060408901356001600160401b03808211156127e257600080fd5b6127ee8c838d016126b3565b975060608b013591508082111561280457600080fd5b6128108c838d0161272c565b965060808b013591508082111561282657600080fd5b6128328c838d0161272c565b955061284060a08c0161263b565b945061284e60c08c0161263b565b935060e08b013591508082111561286457600080fd5b506128718b828c016126b3565b9150509295985092959890939650565b600080600080600080600080610100898b03121561289e57600080fd5b88356128a981612626565b97506128b760208a0161245c565b965060408901356001600160401b03808211156128d357600080fd5b6128df8c838d016126b3565b975060608b0135965060808b0135955060a08b013591506128ff82612626565b90935060c08a01359061291182612626565b90925060e08a0135908082111561286457600080fd5b60008060006060848603121561293c57600080fd5b6129458461245c565b925060208401356001600160401b0381111561296057600080fd5b61296c868287016126b3565b92505061297b604085016124bb565b90509250925092565b60005b8381101561299f578181015183820152602001612987565b838111156129ae576000848401525b50505050565b600081518084526129cc816020860160208601612984565b601f01601f19169290920160200192915050565b602081526000610f3960208301846129b4565b8035801515811461246e57600080fd5b60008060008060008060c08789031215612a1c57600080fd5b612a258761245c565b955060208701356001600160401b0380821115612a4157600080fd5b612a4d8a838b016126b3565b96506040890135955060608901359450612a6960808a016129f3565b935060a0890135915080821115612a7f57600080fd5b50612a8c89828a016126b3565b9150509295509295509295565b60008060408385031215612aac57600080fd5b612ab58361245c565b9150612ac36020840161245c565b90509250929050565b60008060008060008060c08789031215612ae557600080fd5b612aee8761245c565b955060208701356001600160401b0380821115612b0a57600080fd5b612b168a838b016126b3565b96506040890135915080821115612b2c57600080fd5b612b388a838b0161272c565b95506060890135915080821115612b4e57600080fd5b612b5a8a838b0161272c565b9450612a6960808a016129f3565b600060208284031215612b7a57600080fd5b8135610f3981612626565b600080600080600060a08688031215612b9d57600080fd5b8535612ba881612626565b94506020860135612bb881612626565b935060408601356001600160401b0380821115612bd457600080fd5b612be089838a0161272c565b94506060880135915080821115612bf657600080fd5b612c0289838a0161272c565b93506080880135915080821115612c1857600080fd5b50612c25888289016126b3565b9150509295509295909350565b600080600080600060808688031215612c4a57600080fd5b612c538661245c565b9450612c616020870161245c565b93506040860135925060608601356001600160401b03811115612c8357600080fd5b612c8f88828901612473565b969995985093965092949392505050565b600080600060608486031215612cb557600080fd5b612cbe8461245c565b9250612ccc6020850161245c565b9150604084013590509250925092565b600060208284031215612cee57600080fd5b610f39826129f3565b600080600080600060a08688031215612d0f57600080fd5b8535612d1a81612626565b94506020860135612d2a81612626565b9350604086013592506060860135915060808601356001600160401b03811115612d5357600080fd5b612c25888289016126b3565b60008060008060808587031215612d7557600080fd5b612d7e8561245c565b9350612d8c6020860161245c565b92506040850135612d9c81612626565b9396929550929360600135925050565b600181811c90821680612dc057607f821691505b60208210811415612de157634e487b7160e01b600052602260045260246000fd5b50919050565b8183823760009101908152919050565b81835281816020850137506000828201602090810191909152601f909101601f19169091010190565b61ffff84168152604060208201526000611122604083018486612df7565b634e487b7160e01b600052601160045260246000fd5b600082821015612e6657612e66612e3e565b500390565b8284823760609190911b6bffffffffffffffffffffffff19169101908152601401919050565b600081518084526020808501945080840160005b83811015612ec157815187529582019590820190600101612ea5565b509495945050505050565b606081526000612edf60608301866129b4565b8281036020840152612ef18186612e91565b90508281036040840152611d908185612e91565b61ffff861681526001600160a01b038516602082015260a060408201819052600090612f33908301866129b4565b84151560608401528281036080840152612f4d81856129b4565b98975050505050505050565b60008060408385031215612f6c57600080fd5b505080516020909101519092909150565b600061ffff808816835280871660208401525084604083015260806060830152612fab608083018486612df7565b979650505050505050565b61ffff86168152608060208201526000612fd4608083018688612df7565b6001600160401b0394909416604083015250606001529392505050565b600082601f83011261300257600080fd5b81516130106126d28261268c565b81815284602083860101111561302557600080fd5b613036826020830160208701612984565b949350505050565b60006020828403121561305057600080fd5b81516001600160401b0381111561306657600080fd5b61303684828501612ff1565b61ffff8516815260806020820152600061308f60808301866129b4565b6001600160401b03851660408401528281036060840152612fab81856129b4565b60208082526024908201527f4c7a4170703a205f61646170746572506172616d73206d75737420626520656d604082015263383a3c9760e11b606082015260800190565b60008251613106818460208701612984565b9190910192915050565b634e487b7160e01b600052603260045260246000fd5b6040815260006131396040830185612e91565b82810360208401526111228185612e91565b600082601f83011261315c57600080fd5b8151602061316c6126d283612709565b82815260059290921b8401810191818101908684111561318b57600080fd5b8286015b84811015612787578051835291830191830161318f565b6000806000606084860312156131bb57600080fd5b83516001600160401b03808211156131d257600080fd5b6131de87838801612ff1565b945060208601519150808211156131f457600080fd5b6132008783880161314b565b9350604086015191508082111561321657600080fd5b506132238682870161314b565b9150509250925092565b6000821982111561324057613240612e3e565b500190565b60006020828403121561325757600080fd5b5051919050565b61ffff8616815260a06020820152600061327b60a08301876129b4565b6001600160401b0386166040840152828103606084015261329c81866129b4565b90508281036080840152612f4d81856129b4565b6001600160a01b0385811682528416602082015260a0604082018190526000906132dc90830185612e91565b82810360608401526132ee8185612e91565b838103608090940193909352505060008152602001949350505050565b61ffff8716815260c06020820152600061332860c08301886129b4565b828103604084015261333a81886129b4565b6001600160a01b0387811660608601528616608085015283810360a0850152905061336581856129b4565b999850505050505050505056fea2646970667358221220a0a49260bb5fc7c5f83a96a58773b4acc6d4f6c8d72a3ce0a63e97d566d5ef2c64736f6c634300080c0033",
  "devdoc": {
    "kind": "dev",
    "methods": {
      "owner()": {
        "details": "Returns the address of the current owner."
      },
      "renounceOwnership()": {
        "details": "Leaves the contract without owner. It will not be possible to call `onlyOwner` functions anymore. Can only be called by the current owner. NOTE: Renouncing ownership will leave the contract without an owner, thereby removing any functionality that is only available to the owner."
      },
      "transferOwnership(address)": {
        "details": "Transfers ownership of the contract to a new account (`newOwner`). Can only be called by the current owner."
      }
    },
    "version": 1
  },
  "userdoc": {
    "kind": "user",
    "methods": {},
    "version": 1
  },
  "storageLayout": {
    "storage": [
      {
        "astId": 4047,
        "contract": "contracts/token/onft/extension/ProxyONFT1155.sol:ProxyONFT1155",
        "label": "_owner",
        "offset": 0,
        "slot": "0",
        "type": "t_address"
      },
      {
        "astId": 14693,
        "contract": "contracts/token/onft/extension/ProxyONFT1155.sol:ProxyONFT1155",
        "label": "trustedRemoteLookup",
        "offset": 0,
        "slot": "1",
        "type": "t_mapping(t_uint16,t_bytes_storage)"
      },
      {
        "astId": 14699,
        "contract": "contracts/token/onft/extension/ProxyONFT1155.sol:ProxyONFT1155",
        "label": "minDstGasLookup",
        "offset": 0,
        "slot": "2",
        "type": "t_mapping(t_uint16,t_mapping(t_uint16,t_uint256))"
      },
      {
        "astId": 14703,
        "contract": "contracts/token/onft/extension/ProxyONFT1155.sol:ProxyONFT1155",
        "label": "payloadSizeLimitLookup",
        "offset": 0,
        "slot": "3",
        "type": "t_mapping(t_uint16,t_uint256)"
      },
      {
        "astId": 14705,
        "contract": "contracts/token/onft/extension/ProxyONFT1155.sol:ProxyONFT1155",
        "label": "precrime",
        "offset": 0,
        "slot": "4",
        "type": "t_address"
      },
      {
        "astId": 15242,
        "contract": "contracts/token/onft/extension/ProxyONFT1155.sol:ProxyONFT1155",
        "label": "failedMessages",
        "offset": 0,
        "slot": "5",
        "type": "t_mapping(t_uint16,t_mapping(t_bytes_memory_ptr,t_mapping(t_uint64,t_bytes32)))"
      },
      {
        "astId": 23858,
        "contract": "contracts/token/onft/extension/ProxyONFT1155.sol:ProxyONFT1155",
        "label": "useCustomAdapterParams",
        "offset": 0,
        "slot": "6",
        "type": "t_bool"
      }
    ],
    "types": {
      "t_address": {
        "encoding": "inplace",
        "label": "address",
        "numberOfBytes": "20"
      },
      "t_bool": {
        "encoding": "inplace",
        "label": "bool",
        "numberOfBytes": "1"
      },
      "t_bytes32": {
        "encoding": "inplace",
        "label": "bytes32",
        "numberOfBytes": "32"
      },
      "t_bytes_memory_ptr": {
        "encoding": "bytes",
        "label": "bytes",
        "numberOfBytes": "32"
      },
      "t_bytes_storage": {
        "encoding": "bytes",
        "label": "bytes",
        "numberOfBytes": "32"
      },
      "t_mapping(t_bytes_memory_ptr,t_mapping(t_uint64,t_bytes32))": {
        "encoding": "mapping",
        "key": "t_bytes_memory_ptr",
        "label": "mapping(bytes => mapping(uint64 => bytes32))",
        "numberOfBytes": "32",
        "value": "t_mapping(t_uint64,t_bytes32)"
      },
      "t_mapping(t_uint16,t_bytes_storage)": {
        "encoding": "mapping",
        "key": "t_uint16",
        "label": "mapping(uint16 => bytes)",
        "numberOfBytes": "32",
        "value": "t_bytes_storage"
      },
      "t_mapping(t_uint16,t_mapping(t_bytes_memory_ptr,t_mapping(t_uint64,t_bytes32)))": {
        "encoding": "mapping",
        "key": "t_uint16",
        "label": "mapping(uint16 => mapping(bytes => mapping(uint64 => bytes32)))",
        "numberOfBytes": "32",
        "value": "t_mapping(t_bytes_memory_ptr,t_mapping(t_uint64,t_bytes32))"
      },
      "t_mapping(t_uint16,t_mapping(t_uint16,t_uint256))": {
        "encoding": "mapping",
        "key": "t_uint16",
        "label": "mapping(uint16 => mapping(uint16 => uint256))",
        "numberOfBytes": "32",
        "value": "t_mapping(t_uint16,t_uint256)"
      },
      "t_mapping(t_uint16,t_uint256)": {
        "encoding": "mapping",
        "key": "t_uint16",
        "label": "mapping(uint16 => uint256)",
        "numberOfBytes": "32",
        "value": "t_uint256"
      },
      "t_mapping(t_uint64,t_bytes32)": {
        "encoding": "mapping",
        "key": "t_uint64",
        "label": "mapping(uint64 => bytes32)",
        "numberOfBytes": "32",
        "value": "t_bytes32"
      },
      "t_uint16": {
        "encoding": "inplace",
        "label": "uint16",
        "numberOfBytes": "2"
      },
      "t_uint256": {
        "encoding": "inplace",
        "label": "uint256",
        "numberOfBytes": "32"
      },
      "t_uint64": {
        "encoding": "inplace",
        "label": "uint64",
        "numberOfBytes": "8"
      }
    }
  }
}