{
  "abi": [
    {
      "type": "constructor",
      "inputs": [
        {
          "name": "_token",
          "type": "address",
          "internalType": "address"
        },
        {
          "name": "_lzEndpoint",
          "type": "address",
          "internalType": "address"
        },
        {
          "name": "_delegate",
          "type": "address",
          "internalType": "address"
        }
      ],
      "stateMutability": "nonpayable"
    },
    {
      "type": "function",
      "name": "SEND",
      "inputs": [],
      "outputs": [
        {
          "name": "",
          "type": "uint16",
          "internalType": "uint16"
        }
      ],
      "stateMutability": "view"
    },
    {
      "type": "function",
      "name": "SEND_AND_CALL",
      "inputs": [],
      "outputs": [
        {
          "name": "",
          "type": "uint16",
          "internalType": "uint16"
        }
      ],
      "stateMutability": "view"
    },
    {
      "type": "function",
      "name": "allowInitializePath",
      "inputs": [
        {
          "name": "origin",
          "type": "tuple",
          "internalType": "struct Origin",
          "components": [
            {
              "name": "srcEid",
              "type": "uint32",
              "internalType": "uint32"
            },
            {
              "name": "sender",
              "type": "bytes32",
              "internalType": "bytes32"
            },
            {
              "name": "nonce",
              "type": "uint64",
              "internalType": "uint64"
            }
          ]
        }
      ],
      "outputs": [
        {
          "name": "",
          "type": "bool",
          "internalType": "bool"
        }
      ],
      "stateMutability": "view"
    },
    {
      "type": "function",
      "name": "approvalRequired",
      "inputs": [],
      "outputs": [
        {
          "name": "",
          "type": "bool",
          "internalType": "bool"
        }
      ],
      "stateMutability": "pure"
    },
    {
      "type": "function",
      "name": "combineOptions",
      "inputs": [
        {
          "name": "_eid",
          "type": "uint32",
          "internalType": "uint32"
        },
        {
          "name": "_msgType",
          "type": "uint16",
          "internalType": "uint16"
        },
        {
          "name": "_extraOptions",
          "type": "bytes",
          "internalType": "bytes"
        }
      ],
      "outputs": [
        {
          "name": "",
          "type": "bytes",
          "internalType": "bytes"
        }
      ],
      "stateMutability": "view"
    },
    {
      "type": "function",
      "name": "credit",
      "inputs": [
        {
          "name": "_to",
          "type": "address",
          "internalType": "address"
        },
        {
          "name": "_amountToCreditLD",
          "type": "uint256",
          "internalType": "uint256"
        },
        {
          "name": "_srcEid",
          "type": "uint32",
          "internalType": "uint32"
        }
      ],
      "outputs": [
        {
          "name": "amountReceivedLD",
          "type": "uint256",
          "internalType": "uint256"
        }
      ],
      "stateMutability": "nonpayable"
    },
    {
      "type": "function",
      "name": "debit",
      "inputs": [
        {
          "name": "_amountToSendLD",
          "type": "uint256",
          "internalType": "uint256"
        },
        {
          "name": "_minAmountToCreditLD",
          "type": "uint256",
          "internalType": "uint256"
        },
        {
          "name": "_dstEid",
          "type": "uint32",
          "internalType": "uint32"
        }
      ],
      "outputs": [
        {
          "name": "amountDebitedLD",
          "type": "uint256",
          "internalType": "uint256"
        },
        {
          "name": "amountToCreditLD",
          "type": "uint256",
          "internalType": "uint256"
        }
      ],
      "stateMutability": "nonpayable"
    },
    {
      "type": "function",
      "name": "debitView",
      "inputs": [
        {
          "name": "_amountToSendLD",
          "type": "uint256",
          "internalType": "uint256"
        },
        {
          "name": "_minAmountToCreditLD",
          "type": "uint256",
          "internalType": "uint256"
        },
        {
          "name": "_dstEid",
          "type": "uint32",
          "internalType": "uint32"
        }
      ],
      "outputs": [
        {
          "name": "amountDebitedLD",
          "type": "uint256",
          "internalType": "uint256"
        },
        {
          "name": "amountToCreditLD",
          "type": "uint256",
          "internalType": "uint256"
        }
      ],
      "stateMutability": "view"
    },
    {
      "type": "function",
      "name": "decimalConversionRate",
      "inputs": [],
      "outputs": [
        {
          "name": "",
          "type": "uint256",
          "internalType": "uint256"
        }
      ],
      "stateMutability": "view"
    },
    {
      "type": "function",
      "name": "endpoint",
      "inputs": [],
      "outputs": [
        {
          "name": "",
          "type": "address",
          "internalType": "contract ILayerZeroEndpointV2"
        }
      ],
      "stateMutability": "view"
    },
    {
      "type": "function",
      "name": "enforcedOptions",
      "inputs": [
        {
          "name": "eid",
          "type": "uint32",
          "internalType": "uint32"
        },
        {
          "name": "msgType",
          "type": "uint16",
          "internalType": "uint16"
        }
      ],
      "outputs": [
        {
          "name": "enforcedOption",
          "type": "bytes",
          "internalType": "bytes"
        }
      ],
      "stateMutability": "view"
    },
    {
      "type": "function",
      "name": "isComposeMsgSender",
      "inputs": [
        {
          "name": "",
          "type": "tuple",
          "internalType": "struct Origin",
          "components": [
            {
              "name": "srcEid",
              "type": "uint32",
              "internalType": "uint32"
            },
            {
              "name": "sender",
              "type": "bytes32",
              "internalType": "bytes32"
            },
            {
              "name": "nonce",
              "type": "uint64",
              "internalType": "uint64"
            }
          ]
        },
        {
          "name": "",
          "type": "bytes",
          "internalType": "bytes"
        },
        {
          "name": "_sender",
          "type": "address",
          "internalType": "address"
        }
      ],
      "outputs": [
        {
          "name": "",
          "type": "bool",
          "internalType": "bool"
        }
      ],
      "stateMutability": "view"
    },
    {
      "type": "function",
      "name": "isPeer",
      "inputs": [
        {
          "name": "_eid",
          "type": "uint32",
          "internalType": "uint32"
        },
        {
          "name": "_peer",
          "type": "bytes32",
          "internalType": "bytes32"
        }
      ],
      "outputs": [
        {
          "name": "",
          "type": "bool",
          "internalType": "bool"
        }
      ],
      "stateMutability": "view"
    },
    {
      "type": "function",
      "name": "lzReceive",
      "inputs": [
        {
          "name": "_origin",
          "type": "tuple",
          "internalType": "struct Origin",
          "components": [
            {
              "name": "srcEid",
              "type": "uint32",
              "internalType": "uint32"
            },
            {
              "name": "sender",
              "type": "bytes32",
              "internalType": "bytes32"
            },
            {
              "name": "nonce",
              "type": "uint64",
              "internalType": "uint64"
            }
          ]
        },
        {
          "name": "_guid",
          "type": "bytes32",
          "internalType": "bytes32"
        },
        {
          "name": "_message",
          "type": "bytes",
          "internalType": "bytes"
        },
        {
          "name": "_executor",
          "type": "address",
          "internalType": "address"
        },
        {
          "name": "_extraData",
          "type": "bytes",
          "internalType": "bytes"
        }
      ],
      "outputs": [],
      "stateMutability": "payable"
    },
    {
      "type": "function",
      "name": "lzReceiveAndRevert",
      "inputs": [
        {
          "name": "_packets",
          "type": "tuple[]",
          "internalType": "struct InboundPacket[]",
          "components": [
            {
              "name": "origin",
              "type": "tuple",
              "internalType": "struct Origin",
              "components": [
                {
                  "name": "srcEid",
                  "type": "uint32",
                  "internalType": "uint32"
                },
                {
                  "name": "sender",
                  "type": "bytes32",
                  "internalType": "bytes32"
                },
                {
                  "name": "nonce",
                  "type": "uint64",
                  "internalType": "uint64"
                }
              ]
            },
            {
              "name": "dstEid",
              "type": "uint32",
              "internalType": "uint32"
            },
            {
              "name": "receiver",
              "type": "address",
              "internalType": "address"
            },
            {
              "name": "guid",
              "type": "bytes32",
              "internalType": "bytes32"
            },
            {
              "name": "value",
              "type": "uint256",
              "internalType": "uint256"
            },
            {
              "name": "executor",
              "type": "address",
              "internalType": "address"
            },
            {
              "name": "message",
              "type": "bytes",
              "internalType": "bytes"
            },
            {
              "name": "extraData",
              "type": "bytes",
              "internalType": "bytes"
            }
          ]
        }
      ],
      "outputs": [],
      "stateMutability": "payable"
    },
    {
      "type": "function",
      "name": "lzReceiveSimulate",
      "inputs": [
        {
          "name": "_origin",
          "type": "tuple",
          "internalType": "struct Origin",
          "components": [
            {
              "name": "srcEid",
              "type": "uint32",
              "internalType": "uint32"
            },
            {
              "name": "sender",
              "type": "bytes32",
              "internalType": "bytes32"
            },
            {
              "name": "nonce",
              "type": "uint64",
              "internalType": "uint64"
            }
          ]
        },
        {
          "name": "_guid",
          "type": "bytes32",
          "internalType": "bytes32"
        },
        {
          "name": "_message",
          "type": "bytes",
          "internalType": "bytes"
        },
        {
          "name": "_executor",
          "type": "address",
          "internalType": "address"
        },
        {
          "name": "_extraData",
          "type": "bytes",
          "internalType": "bytes"
        }
      ],
      "outputs": [],
      "stateMutability": "payable"
    },
    {
      "type": "function",
      "name": "msgInspector",
      "inputs": [],
      "outputs": [
        {
          "name": "",
          "type": "address",
          "internalType": "address"
        }
      ],
      "stateMutability": "view"
    },
    {
      "type": "function",
      "name": "nextNonce",
      "inputs": [
        {
          "name": "",
          "type": "uint32",
          "internalType": "uint32"
        },
        {
          "name": "",
          "type": "bytes32",
          "internalType": "bytes32"
        }
      ],
      "outputs": [
        {
          "name": "nonce",
          "type": "uint64",
          "internalType": "uint64"
        }
      ],
      "stateMutability": "view"
    },
    {
      "type": "function",
      "name": "oApp",
      "inputs": [],
      "outputs": [
        {
          "name": "",
          "type": "address",
          "internalType": "address"
        }
      ],
      "stateMutability": "view"
    },
    {
      "type": "function",
      "name": "oAppVersion",
      "inputs": [],
      "outputs": [
        {
          "name": "senderVersion",
          "type": "uint64",
          "internalType": "uint64"
        },
        {
          "name": "receiverVersion",
          "type": "uint64",
          "internalType": "uint64"
        }
      ],
      "stateMutability": "pure"
    },
    {
      "type": "function",
      "name": "oftVersion",
      "inputs": [],
      "outputs": [
        {
          "name": "interfaceId",
          "type": "bytes4",
          "internalType": "bytes4"
        },
        {
          "name": "version",
          "type": "uint64",
          "internalType": "uint64"
        }
      ],
      "stateMutability": "pure"
    },
    {
      "type": "function",
      "name": "owner",
      "inputs": [],
      "outputs": [
        {
          "name": "",
          "type": "address",
          "internalType": "address"
        }
      ],
      "stateMutability": "view"
    },
    {
      "type": "function",
      "name": "peers",
      "inputs": [
        {
          "name": "eid",
          "type": "uint32",
          "internalType": "uint32"
        }
      ],
      "outputs": [
        {
          "name": "peer",
          "type": "bytes32",
          "internalType": "bytes32"
        }
      ],
      "stateMutability": "view"
    },
    {
      "type": "function",
      "name": "preCrime",
      "inputs": [],
      "outputs": [
        {
          "name": "",
          "type": "address",
          "internalType": "address"
        }
      ],
      "stateMutability": "view"
    },
    {
      "type": "function",
      "name": "quoteOFT",
      "inputs": [
        {
          "name": "_sendParam",
          "type": "tuple",
          "internalType": "struct SendParam",
          "components": [
            {
              "name": "dstEid",
              "type": "uint32",
              "internalType": "uint32"
            },
            {
              "name": "to",
              "type": "bytes32",
              "internalType": "bytes32"
            },
            {
              "name": "amountLD",
              "type": "uint256",
              "internalType": "uint256"
            },
            {
              "name": "minAmountLD",
              "type": "uint256",
              "internalType": "uint256"
            },
            {
              "name": "extraOptions",
              "type": "bytes",
              "internalType": "bytes"
            },
            {
              "name": "composeMsg",
              "type": "bytes",
              "internalType": "bytes"
            },
            {
              "name": "oftCmd",
              "type": "bytes",
              "internalType": "bytes"
            }
          ]
        }
      ],
      "outputs": [
        {
          "name": "oftLimit",
          "type": "tuple",
          "internalType": "struct OFTLimit",
          "components": [
            {
              "name": "minAmountLD",
              "type": "uint256",
              "internalType": "uint256"
            },
            {
              "name": "maxAmountLD",
              "type": "uint256",
              "internalType": "uint256"
            }
          ]
        },
        {
          "name": "oftFeeDetails",
          "type": "tuple[]",
          "internalType": "struct OFTFeeDetail[]",
          "components": [
            {
              "name": "feeAmountLD",
              "type": "int256",
              "internalType": "int256"
            },
            {
              "name": "description",
              "type": "string",
              "internalType": "string"
            }
          ]
        },
        {
          "name": "oftReceipt",
          "type": "tuple",
          "internalType": "struct OFTReceipt",
          "components": [
            {
              "name": "amountSentLD",
              "type": "uint256",
              "internalType": "uint256"
            },
            {
              "name": "amountReceivedLD",
              "type": "uint256",
              "internalType": "uint256"
            }
          ]
        }
      ],
      "stateMutability": "view"
    },
    {
      "type": "function",
      "name": "quoteSend",
      "inputs": [
        {
          "name": "_sendParam",
          "type": "tuple",
          "internalType": "struct SendParam",
          "components": [
            {
              "name": "dstEid",
              "type": "uint32",
              "internalType": "uint32"
            },
            {
              "name": "to",
              "type": "bytes32",
              "internalType": "bytes32"
            },
            {
              "name": "amountLD",
              "type": "uint256",
              "internalType": "uint256"
            },
            {
              "name": "minAmountLD",
              "type": "uint256",
              "internalType": "uint256"
            },
            {
              "name": "extraOptions",
              "type": "bytes",
              "internalType": "bytes"
            },
            {
              "name": "composeMsg",
              "type": "bytes",
              "internalType": "bytes"
            },
            {
              "name": "oftCmd",
              "type": "bytes",
              "internalType": "bytes"
            }
          ]
        },
        {
          "name": "_payInLzToken",
          "type": "bool",
          "internalType": "bool"
        }
      ],
      "outputs": [
        {
          "name": "msgFee",
          "type": "tuple",
          "internalType": "struct MessagingFee",
          "components": [
            {
              "name": "nativeFee",
              "type": "uint256",
              "internalType": "uint256"
            },
            {
              "name": "lzTokenFee",
              "type": "uint256",
              "internalType": "uint256"
            }
          ]
        }
      ],
      "stateMutability": "view"
    },
    {
      "type": "function",
      "name": "removeDust",
      "inputs": [
        {
          "name": "_amountLD",
          "type": "uint256",
          "internalType": "uint256"
        }
      ],
      "outputs": [
        {
          "name": "amountLD",
          "type": "uint256",
          "internalType": "uint256"
        }
      ],
      "stateMutability": "view"
    },
    {
      "type": "function",
      "name": "renounceOwnership",
      "inputs": [],
      "outputs": [],
      "stateMutability": "nonpayable"
    },
    {
      "type": "function",
      "name": "send",
      "inputs": [
        {
          "name": "_sendParam",
          "type": "tuple",
          "internalType": "struct SendParam",
          "components": [
            {
              "name": "dstEid",
              "type": "uint32",
              "internalType": "uint32"
            },
            {
              "name": "to",
              "type": "bytes32",
              "internalType": "bytes32"
            },
            {
              "name": "amountLD",
              "type": "uint256",
              "internalType": "uint256"
            },
            {
              "name": "minAmountLD",
              "type": "uint256",
              "internalType": "uint256"
            },
            {
              "name": "extraOptions",
              "type": "bytes",
              "internalType": "bytes"
            },
            {
              "name": "composeMsg",
              "type": "bytes",
              "internalType": "bytes"
            },
            {
              "name": "oftCmd",
              "type": "bytes",
              "internalType": "bytes"
            }
          ]
        },
        {
          "name": "_fee",
          "type": "tuple",
          "internalType": "struct MessagingFee",
          "components": [
            {
              "name": "nativeFee",
              "type": "uint256",
              "internalType": "uint256"
            },
            {
              "name": "lzTokenFee",
              "type": "uint256",
              "internalType": "uint256"
            }
          ]
        },
        {
          "name": "_refundAddress",
          "type": "address",
          "internalType": "address"
        }
      ],
      "outputs": [
        {
          "name": "msgReceipt",
          "type": "tuple",
          "internalType": "struct MessagingReceipt",
          "components": [
            {
              "name": "guid",
              "type": "bytes32",
              "internalType": "bytes32"
            },
            {
              "name": "nonce",
              "type": "uint64",
              "internalType": "uint64"
            },
            {
              "name": "fee",
              "type": "tuple",
              "internalType": "struct MessagingFee",
              "components": [
                {
                  "name": "nativeFee",
                  "type": "uint256",
                  "internalType": "uint256"
                },
                {
                  "name": "lzTokenFee",
                  "type": "uint256",
                  "internalType": "uint256"
                }
              ]
            }
          ]
        },
        {
          "name": "oftReceipt",
          "type": "tuple",
          "internalType": "struct OFTReceipt",
          "components": [
            {
              "name": "amountSentLD",
              "type": "uint256",
              "internalType": "uint256"
            },
            {
              "name": "amountReceivedLD",
              "type": "uint256",
              "internalType": "uint256"
            }
          ]
        }
      ],
      "stateMutability": "payable"
    },
    {
      "type": "function",
      "name": "setDelegate",
      "inputs": [
        {
          "name": "_delegate",
          "type": "address",
          "internalType": "address"
        }
      ],
      "outputs": [],
      "stateMutability": "nonpayable"
    },
    {
      "type": "function",
      "name": "setEnforcedOptions",
      "inputs": [
        {
          "name": "_enforcedOptions",
          "type": "tuple[]",
          "internalType": "struct EnforcedOptionParam[]",
          "components": [
            {
              "name": "eid",
              "type": "uint32",
              "internalType": "uint32"
            },
            {
              "name": "msgType",
              "type": "uint16",
              "internalType": "uint16"
            },
            {
              "name": "options",
              "type": "bytes",
              "internalType": "bytes"
            }
          ]
        }
      ],
      "outputs": [],
      "stateMutability": "nonpayable"
    },
    {
      "type": "function",
      "name": "setMsgInspector",
      "inputs": [
        {
          "name": "_msgInspector",
          "type": "address",
          "internalType": "address"
        }
      ],
      "outputs": [],
      "stateMutability": "nonpayable"
    },
    {
      "type": "function",
      "name": "setPeer",
      "inputs": [
        {
          "name": "_eid",
          "type": "uint32",
          "internalType": "uint32"
        },
        {
          "name": "_peer",
          "type": "bytes32",
          "internalType": "bytes32"
        }
      ],
      "outputs": [],
      "stateMutability": "nonpayable"
    },
    {
      "type": "function",
      "name": "setPreCrime",
      "inputs": [
        {
          "name": "_preCrime",
          "type": "address",
          "internalType": "address"
        }
      ],
      "outputs": [],
      "stateMutability": "nonpayable"
    },
    {
      "type": "function",
      "name": "sharedDecimals",
      "inputs": [],
      "outputs": [
        {
          "name": "",
          "type": "uint8",
          "internalType": "uint8"
        }
      ],
      "stateMutability": "view"
    },
    {
      "type": "function",
      "name": "token",
      "inputs": [],
      "outputs": [
        {
          "name": "",
          "type": "address",
          "internalType": "address"
        }
      ],
      "stateMutability": "view"
    },
    {
      "type": "function",
      "name": "transferOwnership",
      "inputs": [
        {
          "name": "newOwner",
          "type": "address",
          "internalType": "address"
        }
      ],
      "outputs": [],
      "stateMutability": "nonpayable"
    },
    {
      "type": "event",
      "name": "EnforcedOptionSet",
      "inputs": [
        {
          "name": "_enforcedOptions",
          "type": "tuple[]",
          "indexed": false,
          "internalType": "struct EnforcedOptionParam[]",
          "components": [
            {
              "name": "eid",
              "type": "uint32",
              "internalType": "uint32"
            },
            {
              "name": "msgType",
              "type": "uint16",
              "internalType": "uint16"
            },
            {
              "name": "options",
              "type": "bytes",
              "internalType": "bytes"
            }
          ]
        }
      ],
      "anonymous": false
    },
    {
      "type": "event",
      "name": "MsgInspectorSet",
      "inputs": [
        {
          "name": "inspector",
          "type": "address",
          "indexed": false,
          "internalType": "address"
        }
      ],
      "anonymous": false
    },
    {
      "type": "event",
      "name": "OFTReceived",
      "inputs": [
        {
          "name": "guid",
          "type": "bytes32",
          "indexed": true,
          "internalType": "bytes32"
        },
        {
          "name": "srcEid",
          "type": "uint32",
          "indexed": false,
          "internalType": "uint32"
        },
        {
          "name": "toAddress",
          "type": "address",
          "indexed": true,
          "internalType": "address"
        },
        {
          "name": "amountReceivedLD",
          "type": "uint256",
          "indexed": false,
          "internalType": "uint256"
        }
      ],
      "anonymous": false
    },
    {
      "type": "event",
      "name": "OFTSent",
      "inputs": [
        {
          "name": "guid",
          "type": "bytes32",
          "indexed": true,
          "internalType": "bytes32"
        },
        {
          "name": "dstEid",
          "type": "uint32",
          "indexed": false,
          "internalType": "uint32"
        },
        {
          "name": "fromAddress",
          "type": "address",
          "indexed": true,
          "internalType": "address"
        },
        {
          "name": "amountSentLD",
          "type": "uint256",
          "indexed": false,
          "internalType": "uint256"
        },
        {
          "name": "amountReceivedLD",
          "type": "uint256",
          "indexed": false,
          "internalType": "uint256"
        }
      ],
      "anonymous": false
    },
    {
      "type": "event",
      "name": "OwnershipTransferred",
      "inputs": [
        {
          "name": "previousOwner",
          "type": "address",
          "indexed": true,
          "internalType": "address"
        },
        {
          "name": "newOwner",
          "type": "address",
          "indexed": true,
          "internalType": "address"
        }
      ],
      "anonymous": false
    },
    {
      "type": "event",
      "name": "PeerSet",
      "inputs": [
        {
          "name": "eid",
          "type": "uint32",
          "indexed": false,
          "internalType": "uint32"
        },
        {
          "name": "peer",
          "type": "bytes32",
          "indexed": false,
          "internalType": "bytes32"
        }
      ],
      "anonymous": false
    },
    {
      "type": "event",
      "name": "PreCrimeSet",
      "inputs": [
        {
          "name": "preCrimeAddress",
          "type": "address",
          "indexed": false,
          "internalType": "address"
        }
      ],
      "anonymous": false
    },
    {
      "type": "error",
      "name": "InvalidDelegate",
      "inputs": []
    },
    {
      "type": "error",
      "name": "InvalidEndpointCall",
      "inputs": []
    },
    {
      "type": "error",
      "name": "InvalidLocalDecimals",
      "inputs": []
    },
    {
      "type": "error",
      "name": "InvalidOptions",
      "inputs": [
        {
          "name": "options",
          "type": "bytes",
          "internalType": "bytes"
        }
      ]
    },
    {
      "type": "error",
      "name": "LzTokenUnavailable",
      "inputs": []
    },
    {
      "type": "error",
      "name": "NoPeer",
      "inputs": [
        {
          "name": "eid",
          "type": "uint32",
          "internalType": "uint32"
        }
      ]
    },
    {
      "type": "error",
      "name": "NotEnoughNative",
      "inputs": [
        {
          "name": "msgValue",
          "type": "uint256",
          "internalType": "uint256"
        }
      ]
    },
    {
      "type": "error",
      "name": "OnlyEndpoint",
      "inputs": [
        {
          "name": "addr",
          "type": "address",
          "internalType": "address"
        }
      ]
    },
    {
      "type": "error",
      "name": "OnlyPeer",
      "inputs": [
        {
          "name": "eid",
          "type": "uint32",
          "internalType": "uint32"
        },
        {
          "name": "sender",
          "type": "bytes32",
          "internalType": "bytes32"
        }
      ]
    },
    {
      "type": "error",
      "name": "OnlySelf",
      "inputs": []
    },
    {
      "type": "error",
      "name": "SimulationResult",
      "inputs": [
        {
          "name": "result",
          "type": "bytes",
          "internalType": "bytes"
        }
      ]
    },
    {
      "type": "error",
      "name": "SlippageExceeded",
      "inputs": [
        {
          "name": "amountLD",
          "type": "uint256",
          "internalType": "uint256"
        },
        {
          "name": "minAmountLD",
          "type": "uint256",
          "internalType": "uint256"
        }
      ]
    }
  ],
  "bytecode": {
    "object": "0x60e06040523480156200001157600080fd5b50604051620039e6380380620039e6833981016040819052620000349162000223565b828282826001600160a01b031663313ce5676040518163ffffffff1660e01b8152600401602060405180830381865afa15801562000076573d6000803e3d6000fd5b505050506040513d601f19601f820116820180604052508101906200009c91906200026d565b828281818181620000ad33620001b1565b6001600160a01b038083166080528116620000db57604051632d618d8160e21b815260040160405180910390fd5b60805160405163ca5eb5e160e01b81526001600160a01b0383811660048301529091169063ca5eb5e190602401600060405180830381600087803b1580156200012357600080fd5b505af115801562000138573d6000803e3d6000fd5b5050505050505050620001506200020160201b60201c565b60ff168360ff16101562000177576040516301e9714b60e41b815260040160405180910390fd5b62000184600684620002af565b6200019190600a620003ce565b60a0525050506001600160a01b0390921660c05250620003df9350505050565b600080546001600160a01b038381166001600160a01b0319831681178455604051919092169283917f8be0079c531659141344cd1fd0a4f28419497f9722a3daafe3b4186f6b6457e09190a35050565b600690565b80516001600160a01b03811681146200021e57600080fd5b919050565b6000806000606084860312156200023957600080fd5b620002448462000206565b9250620002546020850162000206565b9150620002646040850162000206565b90509250925092565b6000602082840312156200028057600080fd5b815160ff811681146200029257600080fd5b9392505050565b634e487b7160e01b600052601160045260246000fd5b60ff8281168282160390811115620002cb57620002cb62000299565b92915050565b600181815b8085111562000312578160001904821115620002f657620002f662000299565b808516156200030457918102915b93841c9390800290620002d6565b509250929050565b6000826200032b57506001620002cb565b816200033a57506000620002cb565b81600181146200035357600281146200035e576200037e565b6001915050620002cb565b60ff84111562000372576200037262000299565b50506001821b620002cb565b5060208310610133831016604e8410600b8410161715620003a3575081810a620002cb565b620003af8383620002d1565b8060001904821115620003c657620003c662000299565b029392505050565b60006200029260ff8416836200031a565b60805160a05160c05161358362000463600039600081816107c90152818161188b01526118e701526000818161060301528181611ae701528181611c740152611d270152600081816104f7015281816108e1015281816110f3015281816114750152818161179701528181611b4d01528181611f60015261205901526135836000f3fe60806040526004361061026a5760003560e01c806382413eac11610153578063bd815db0116100cb578063d42438851161007f578063f2fde38b11610064578063f2fde38b1461079a578063fc0c546a146107ba578063ff7bd03d146107ed57600080fd5b8063d42438851461075a578063f01630231461077a57600080fd5b8063c7c7f5b3116100b0578063c7c7f5b314610706578063ca5eb5e114610727578063d045a0dc1461074757600080fd5b8063bd815db0146106d3578063c0779988146106e657600080fd5b80639f68b96411610122578063b98bd07011610107578063b98bd07014610666578063bb0b6a5314610686578063bc70b354146106b357600080fd5b80639f68b96414610625578063b731ea0a1461063957600080fd5b806382413eac1461058a578063857749b0146105aa5780638da5cb5b146105c6578063963efcaa146105f157600080fd5b80634dba701b116101e65780635a0dfe4d116101b55780636fc1b31e1161019a5780636fc1b31e14610519578063715018a6146105395780637d25a05e1461054e57600080fd5b80635a0dfe4d1461049e5780635e280f11146104e557600080fd5b80634dba701b146103fb57806352ae28791461042957806354f524141461043c5780635535d4611461047157600080fd5b8063156a0d0f1161023d5780631f5e1334116102225780631f5e1334146103995780633400288b146103ae5780633b6f743b146103ce57600080fd5b8063156a0d0f1461033657806317442b701461037757600080fd5b80630d35b4151461026f578063111ecdad146102a757806313137d65146102f9578063134d4f251461030e575b600080fd5b34801561027b57600080fd5b5061028f61028a36600461234e565b61080d565b60405161029e939291906123f1565b60405180910390f35b3480156102b357600080fd5b506004546102d49073ffffffffffffffffffffffffffffffffffffffff1681565b60405173ffffffffffffffffffffffffffffffffffffffff909116815260200161029e565b61030c610307366004612524565b6108df565b005b34801561031a57600080fd5b50610323600281565b60405161ffff909116815260200161029e565b34801561034257600080fd5b50604080517f02e49c2c000000000000000000000000000000000000000000000000000000008152600160208201520161029e565b34801561038357600080fd5b506040805160018152600260208201520161029e565b3480156103a557600080fd5b50610323600181565b3480156103ba57600080fd5b5061030c6103c93660046125dd565b6109de565b3480156103da57600080fd5b506103ee6103e9366004612615565b6109f4565b60405161029e9190612667565b34801561040757600080fd5b5061041b61041636600461267e565b610a5d565b60405190815260200161029e565b34801561043557600080fd5b50306102d4565b34801561044857600080fd5b5061045c6104573660046126bc565b610a74565b6040805192835260208301919091520161029e565b34801561047d57600080fd5b5061049161048c3660046126fa565b610a90565b60405161029e919061272d565b3480156104aa57600080fd5b506104d56104b93660046125dd565b63ffffffff919091166000908152600160205260409020541490565b604051901515815260200161029e565b3480156104f157600080fd5b506102d47f000000000000000000000000000000000000000000000000000000000000000081565b34801561052557600080fd5b5061030c610534366004612740565b610b35565b34801561054557600080fd5b5061030c610bb7565b34801561055a57600080fd5b506105716105693660046125dd565b600092915050565b60405167ffffffffffffffff909116815260200161029e565b34801561059657600080fd5b506104d56105a536600461275d565b610bcb565b3480156105b657600080fd5b506040516006815260200161029e565b3480156105d257600080fd5b5060005473ffffffffffffffffffffffffffffffffffffffff166102d4565b3480156105fd57600080fd5b5061041b7f000000000000000000000000000000000000000000000000000000000000000081565b34801561063157600080fd5b5060016104d5565b34801561064557600080fd5b506002546102d49073ffffffffffffffffffffffffffffffffffffffff1681565b34801561067257600080fd5b5061030c610681366004612809565b610bed565b34801561069257600080fd5b5061041b6106a136600461284b565b60016020526000908152604090205481565b3480156106bf57600080fd5b506104916106ce366004612866565b610c07565b61030c6106e1366004612809565b610dc8565b3480156106f257600080fd5b5061041b6107013660046128c7565b610fa0565b6107196107143660046128e0565b610fab565b60405161029e92919061296c565b34801561073357600080fd5b5061030c610742366004612740565b6110a6565b61030c610755366004612524565b611152565b34801561076657600080fd5b5061030c610775366004612740565b61119a565b34801561078657600080fd5b5061045c6107953660046126bc565b611215565b3480156107a657600080fd5b5061030c6107b5366004612740565b611223565b3480156107c657600080fd5b507f00000000000000000000000000000000000000000000000000000000000000006102d4565b3480156107f957600080fd5b506104d56108083660046129bf565b6112da565b60408051808201909152600080825260208201526060610840604051806040016040528060008152602001600081525090565b604080518082018252600080825267ffffffffffffffff60208084018290528451838152908101909452919550918261089c565b6040805180820190915260008152606060208201528152602001906001900390816108745790505b5093506000806108c1604089013560608a01356108bc60208c018c61284b565b611310565b60408051808201909152918252602082015296989597505050505050565b7f000000000000000000000000000000000000000000000000000000000000000073ffffffffffffffffffffffffffffffffffffffff163314610955576040517f91ac5e4f0000000000000000000000000000000000000000000000000000000081523360048201526024015b60405180910390fd5b6020870180359061096f9061096a908a61284b565b611365565b146109c657610981602088018861284b565b6040517fc26bebcc00000000000000000000000000000000000000000000000000000000815263ffffffff90911660048201526020880135602482015260440161094c565b6109d5878787878787876113ba565b50505050505050565b6109e6611554565b6109f082826115d5565b5050565b60408051808201909152600080825260208201526000610a24604085013560608601356108bc602088018861284b565b915050600080610a34868461162a565b9092509050610a51610a49602088018861284b565b838388611781565b93505050505b92915050565b6000610a6a84848461186f565b90505b9392505050565b600080610a83338686866118ba565b915091505b935093915050565b600360209081526000928352604080842090915290825290208054610ab490612a0a565b80601f0160208091040260200160405190810160405280929190818152602001828054610ae090612a0a565b8015610b2d5780601f10610b0257610100808354040283529160200191610b2d565b820191906000526020600020905b815481529060010190602001808311610b1057829003601f168201915b505050505081565b610b3d611554565b600480547fffffffffffffffffffffffff00000000000000000000000000000000000000001673ffffffffffffffffffffffffffffffffffffffff83169081179091556040519081527ff0be4f1e87349231d80c36b33f9e8639658eeaf474014dee15a3e6a4d4414197906020015b60405180910390a150565b610bbf611554565b610bc96000611918565b565b73ffffffffffffffffffffffffffffffffffffffff811630145b949350505050565b610bf5611554565b6109f0610c028284612b38565b61198d565b63ffffffff8416600090815260036020908152604080832061ffff87168452909152812080546060929190610c3b90612a0a565b80601f0160208091040260200160405190810160405280929190818152602001828054610c6790612a0a565b8015610cb45780601f10610c8957610100808354040283529160200191610cb4565b820191906000526020600020905b815481529060010190602001808311610c9757829003601f168201915b505050505090508051600003610d045783838080601f016020809104026020016040519081016040528093929190818152602001838380828437600092019190915250929450610be59350505050565b6000839003610d14579050610be5565b60028310610d9257610d5b84848080601f016020809104026020016040519081016040528093929190818152602001838380828437600092019190915250611a9e92505050565b80610d698460028188612c4e565b604051602001610d7b93929190612c78565b604051602081830303815290604052915050610be5565b83836040517f9a6d49cd00000000000000000000000000000000000000000000000000000000815260040161094c929190612ce9565b60005b81811015610edb5736838383818110610de657610de6612cfd565b9050602002810190610df89190612d2c565b9050610e2b610e0a602083018361284b565b602083013563ffffffff919091166000908152600160205260409020541490565b610e355750610ec9565b3063d045a0dc60c08301358360a0810135610e54610100830183612d6a565b610e65610100890160e08a01612740565b610e736101208a018a612d6a565b6040518963ffffffff1660e01b8152600401610e959796959493929190612de5565b6000604051808303818588803b158015610eae57600080fd5b505af1158015610ec2573d6000803e3d6000fd5b5050505050505b80610ed381612ea8565b915050610dcb565b503373ffffffffffffffffffffffffffffffffffffffff16638e9e70996040518163ffffffff1660e01b8152600401600060405180830381865afa158015610f27573d6000803e3d6000fd5b505050506040513d6000823e601f3d9081017fffffffffffffffffffffffffffffffffffffffffffffffffffffffffffffffe0168201604052610f6d9190810190612ee0565b6040517f8351eea700000000000000000000000000000000000000000000000000000000815260040161094c919061272d565b6000610a5782611ae3565b610fb36122ee565b6040805180820190915260008082526020820152600080610fea33604089013560608a0135610fe560208c018c61284b565b6118ba565b91509150600080610ffb898461162a565b909250905061102761101060208b018b61284b565b8383611021368d90038d018d612f4e565b8b611b1a565b60408051808201909152858152602080820186905282519298509096503391907f85496b760a4b7f8d66384b9df21b381f5d1b1e79f229a47aaf4c232edc2fe59a90611075908d018d61284b565b6040805163ffffffff909216825260208201899052810187905260600160405180910390a350505050935093915050565b6110ae611554565b6040517fca5eb5e100000000000000000000000000000000000000000000000000000000815273ffffffffffffffffffffffffffffffffffffffff82811660048301527f0000000000000000000000000000000000000000000000000000000000000000169063ca5eb5e190602401600060405180830381600087803b15801561113757600080fd5b505af115801561114b573d6000803e3d6000fd5b5050505050565b33301461118b576040517f14d4a4e800000000000000000000000000000000000000000000000000000000815260040160405180910390fd5b6109d5878787878787876109c6565b6111a2611554565b600280547fffffffffffffffffffffffff00000000000000000000000000000000000000001673ffffffffffffffffffffffffffffffffffffffff83169081179091556040519081527fd48d879cef83a1c0bdda516f27b13ddb1b3f8bbac1c9e1511bb2a659c242776090602001610bac565b600080610a83858585611310565b61122b611554565b73ffffffffffffffffffffffffffffffffffffffff81166112ce576040517f08c379a000000000000000000000000000000000000000000000000000000000815260206004820152602660248201527f4f776e61626c653a206e6577206f776e657220697320746865207a65726f206160448201527f6464726573730000000000000000000000000000000000000000000000000000606482015260840161094c565b6112d781611918565b50565b60006020820180359060019083906112f2908661284b565b63ffffffff1681526020810191909152604001600020541492915050565b60008061131c85611ae3565b915081905083811015610a88576040517f71c4efed000000000000000000000000000000000000000000000000000000008152600481018290526024810185905260440161094c565b63ffffffff811660009081526001602052604081205480610a57576040517ff6ff4fb700000000000000000000000000000000000000000000000000000000815263ffffffff8416600482015260240161094c565b60006113cc6113c98787611c32565b90565b905060006113f8826113e66113e18a8a611c4a565b611c6d565b6113f360208d018d61284b565b61186f565b905060288611156114e557600061143561141860608c0160408d01612f80565b61142560208d018d61284b565b846114308c8c611ca3565b611cee565b6040517f7cb5901200000000000000000000000000000000000000000000000000000000815290915073ffffffffffffffffffffffffffffffffffffffff7f00000000000000000000000000000000000000000000000000000000000000001690637cb59012906114b19086908d906000908790600401612f9d565b600060405180830381600087803b1580156114cb57600080fd5b505af11580156114df573d6000803e3d6000fd5b50505050505b73ffffffffffffffffffffffffffffffffffffffff8216887fefed6d3500546b29533b128a29e3a94d70788727f0507505ac12eaf2e578fd9c61152b60208d018d61284b565b6040805163ffffffff9092168252602082018690520160405180910390a3505050505050505050565b60005473ffffffffffffffffffffffffffffffffffffffff163314610bc9576040517f08c379a000000000000000000000000000000000000000000000000000000000815260206004820181905260248201527f4f776e61626c653a2063616c6c6572206973206e6f7420746865206f776e6572604482015260640161094c565b63ffffffff8216600081815260016020908152604091829020849055815192835282018390527f238399d427b947898edb290f5ff0f9109849b1c3ba196a42e35f00c50a54b98b910160405180910390a15050565b6060806000611687856020013561164086611d20565b61164d60a0890189612d6a565b8080601f016020809104026020016040519081016040528093929190818152602001838380828437600092019190915250611d4c92505050565b909350905060008161169a57600161169d565b60025b90506116bd6116af602088018861284b565b826106ce60808a018a612d6a565b60045490935073ffffffffffffffffffffffffffffffffffffffff161561177857600480546040517f043a78eb00000000000000000000000000000000000000000000000000000000815273ffffffffffffffffffffffffffffffffffffffff9091169163043a78eb91611735918891889101612fe6565b602060405180830381865afa158015611752573d6000803e3d6000fd5b505050506040513d601f19601f82011682018060405250810190611776919061300b565b505b50509250929050565b60408051808201909152600080825260208201527f000000000000000000000000000000000000000000000000000000000000000073ffffffffffffffffffffffffffffffffffffffff1663ddc28c586040518060a001604052808863ffffffff1681526020016117f189611365565b8152602001878152602001868152602001851515815250306040518363ffffffff1660e01b8152600401611826929190613028565b6040805180830381865afa158015611842573d6000803e3d6000fd5b505050506040513d601f19601f8201168201806040525081019061186691906130fc565b95945050505050565b60006118b273ffffffffffffffffffffffffffffffffffffffff7f0000000000000000000000000000000000000000000000000000000000000000168585611dde565b509092915050565b6000806118c8858585611310565b909250905061190f73ffffffffffffffffffffffffffffffffffffffff7f000000000000000000000000000000000000000000000000000000000000000016873085611eb7565b94509492505050565b6000805473ffffffffffffffffffffffffffffffffffffffff8381167fffffffffffffffffffffffff0000000000000000000000000000000000000000831681178455604051919092169283917f8be0079c531659141344cd1fd0a4f28419497f9722a3daafe3b4186f6b6457e09190a35050565b60005b8151811015611a6e576119bf8282815181106119ae576119ae612cfd565b602002602001015160400151611a9e565b8181815181106119d1576119d1612cfd565b602002602001015160400151600360008484815181106119f3576119f3612cfd565b60200260200101516000015163ffffffff1663ffffffff1681526020019081526020016000206000848481518110611a2d57611a2d612cfd565b60200260200101516020015161ffff1661ffff1681526020019081526020016000209081611a5b9190613166565b5080611a6681612ea8565b915050611990565b507fbe4864a8e820971c0247f5992e2da559595f7bf076a21cb5928d443d2a13b67481604051610bac9190613280565b600281015161ffff81166003146109f057816040517f9a6d49cd00000000000000000000000000000000000000000000000000000000815260040161094c919061272d565b60007f0000000000000000000000000000000000000000000000000000000000000000611b108184613327565b610a579190613362565b611b226122ee565b6000611b318460000151611f1b565b602085015190915015611b4b57611b4b8460200151611f5c565b7f000000000000000000000000000000000000000000000000000000000000000073ffffffffffffffffffffffffffffffffffffffff16632637a450826040518060a001604052808b63ffffffff168152602001611ba88c611365565b81526020018a815260200189815260200160008960200151111515815250866040518463ffffffff1660e01b8152600401611be4929190613028565b60806040518083038185885af1158015611c02573d6000803e3d6000fd5b50505050506040513d601f19601f82011682018060405250810190611c279190613379565b979650505050505050565b6000611c416020828486612c4e565b610a6d916133c3565b6000611c5a602860208486612c4e565b611c63916133ff565b60c01c9392505050565b6000610a577f000000000000000000000000000000000000000000000000000000000000000067ffffffffffffffff8416613362565b6060611cb28260288186612c4e565b8080601f016020809104026020016040519081016040528093929190818152602001838380828437600092019190915250929695505050505050565b606084848484604051602001611d079493929190613447565b6040516020818303038152906040529050949350505050565b6000610a577f000000000000000000000000000000000000000000000000000000000000000083613327565b8051606090151580611dad578484604051602001611d9992919091825260c01b7fffffffffffffffff00000000000000000000000000000000000000000000000016602082015260280190565b604051602081830303815290604052611dd4565b84843385604051602001611dc494939291906134c5565b6040516020818303038152906040525b9150935093915050565b60405173ffffffffffffffffffffffffffffffffffffffff8316602482015260448101829052611eb29084907fa9059cbb00000000000000000000000000000000000000000000000000000000906064015b604080517fffffffffffffffffffffffffffffffffffffffffffffffffffffffffffffffe08184030181529190526020810180517bffffffffffffffffffffffffffffffffffffffffffffffffffffffff167fffffffff000000000000000000000000000000000000000000000000000000009093169290921790915261207e565b505050565b60405173ffffffffffffffffffffffffffffffffffffffff80851660248301528316604482015260648101829052611f159085907f23b872dd0000000000000000000000000000000000000000000000000000000090608401611e30565b50505050565b6000813414611f58576040517f9f70412000000000000000000000000000000000000000000000000000000000815234600482015260240161094c565b5090565b60007f000000000000000000000000000000000000000000000000000000000000000073ffffffffffffffffffffffffffffffffffffffff1663e4fe1d946040518163ffffffff1660e01b8152600401602060405180830381865afa158015611fc9573d6000803e3d6000fd5b505050506040513d601f19601f82011682018060405250810190611fed919061351e565b905073ffffffffffffffffffffffffffffffffffffffff811661203c576040517f5373352a00000000000000000000000000000000000000000000000000000000815260040160405180910390fd5b6109f073ffffffffffffffffffffffffffffffffffffffff8216337f000000000000000000000000000000000000000000000000000000000000000085611eb7565b60006120e0826040518060400160405280602081526020017f5361666545524332303a206c6f772d6c6576656c2063616c6c206661696c65648152508573ffffffffffffffffffffffffffffffffffffffff1661218d9092919063ffffffff16565b9050805160001480612101575080806020019051810190612101919061300b565b611eb2576040517f08c379a000000000000000000000000000000000000000000000000000000000815260206004820152602a60248201527f5361666545524332303a204552433230206f7065726174696f6e20646964206e60448201527f6f74207375636365656400000000000000000000000000000000000000000000606482015260840161094c565b6060610a6a8484600085856000808673ffffffffffffffffffffffffffffffffffffffff1685876040516121c1919061353b565b60006040518083038185875af1925050503d80600081146121fe576040519150601f19603f3d011682016040523d82523d6000602084013e612203565b606091505b5091509150611c2787838387606083156122a557825160000361229e5773ffffffffffffffffffffffffffffffffffffffff85163b61229e576040517f08c379a000000000000000000000000000000000000000000000000000000000815260206004820152601d60248201527f416464726573733a2063616c6c20746f206e6f6e2d636f6e7472616374000000604482015260640161094c565b5081610be5565b610be583838151156122ba5781518083602001fd5b806040517f08c379a000000000000000000000000000000000000000000000000000000000815260040161094c919061272d565b604051806060016040528060008019168152602001600067ffffffffffffffff168152602001612331604051806040016040528060008152602001600081525090565b905290565b600060e0828403121561234857600080fd5b50919050565b60006020828403121561236057600080fd5b813567ffffffffffffffff81111561237757600080fd5b610be584828501612336565b60005b8381101561239e578181015183820152602001612386565b50506000910152565b600081518084526123bf816020860160208601612383565b601f017fffffffffffffffffffffffffffffffffffffffffffffffffffffffffffffffe0169290920160200192915050565b8351815260208085015190820152600060a08201604060a08185015281865180845260c08601915060c08160051b8701019350602080890160005b83811015612489578887037fffffffffffffffffffffffffffffffffffffffffffffffffffffffffffffff40018552815180518852830151838801879052612476878901826123a7565b975050938201939082019060010161242c565b50508751606088015250505060208501516080850152509050610be5565b60006060828403121561234857600080fd5b60008083601f8401126124cb57600080fd5b50813567ffffffffffffffff8111156124e357600080fd5b6020830191508360208285010111156124fb57600080fd5b9250929050565b73ffffffffffffffffffffffffffffffffffffffff811681146112d757600080fd5b600080600080600080600060e0888a03121561253f57600080fd5b61254989896124a7565b965060608801359550608088013567ffffffffffffffff8082111561256d57600080fd5b6125798b838c016124b9565b909750955060a08a0135915061258e82612502565b90935060c089013590808211156125a457600080fd5b506125b18a828b016124b9565b989b979a50959850939692959293505050565b803563ffffffff811681146125d857600080fd5b919050565b600080604083850312156125f057600080fd5b6125f9836125c4565b946020939093013593505050565b80151581146112d757600080fd5b6000806040838503121561262857600080fd5b823567ffffffffffffffff81111561263f57600080fd5b61264b85828601612336565b925050602083013561265c81612607565b809150509250929050565b815181526020808301519082015260408101610a57565b60008060006060848603121561269357600080fd5b833561269e81612502565b9250602084013591506126b3604085016125c4565b90509250925092565b6000806000606084860312156126d157600080fd5b83359250602084013591506126b3604085016125c4565b803561ffff811681146125d857600080fd5b6000806040838503121561270d57600080fd5b612716836125c4565b9150612724602084016126e8565b90509250929050565b602081526000610a6d60208301846123a7565b60006020828403121561275257600080fd5b8135610a6d81612502565b60008060008060a0858703121561277357600080fd5b61277d86866124a7565b9350606085013567ffffffffffffffff81111561279957600080fd5b6127a5878288016124b9565b90945092505060808501356127b981612502565b939692955090935050565b60008083601f8401126127d657600080fd5b50813567ffffffffffffffff8111156127ee57600080fd5b6020830191508360208260051b85010111156124fb57600080fd5b6000806020838503121561281c57600080fd5b823567ffffffffffffffff81111561283357600080fd5b61283f858286016127c4565b90969095509350505050565b60006020828403121561285d57600080fd5b610a6d826125c4565b6000806000806060858703121561287c57600080fd5b612885856125c4565b9350612893602086016126e8565b9250604085013567ffffffffffffffff8111156128af57600080fd5b6128bb878288016124b9565b95989497509550505050565b6000602082840312156128d957600080fd5b5035919050565b600080600083850360808112156128f657600080fd5b843567ffffffffffffffff81111561290d57600080fd5b61291987828801612336565b94505060407fffffffffffffffffffffffffffffffffffffffffffffffffffffffffffffffe08201121561294c57600080fd5b50602084019150606084013561296181612502565b809150509250925092565b600060c0820190508351825267ffffffffffffffff602085015116602083015260408401516129a8604084018280518252602090810151910152565b5082516080830152602083015160a0830152610a6d565b6000606082840312156129d157600080fd5b610a6d83836124a7565b7f4e487b7100000000000000000000000000000000000000000000000000000000600052604160045260246000fd5b600181811c90821680612a1e57607f821691505b602082108103612348577f4e487b7100000000000000000000000000000000000000000000000000000000600052602260045260246000fd5b6040516060810167ffffffffffffffff81118282101715612a7a57612a7a6129db565b60405290565b6040805190810167ffffffffffffffff81118282101715612a7a57612a7a6129db565b604051601f82017fffffffffffffffffffffffffffffffffffffffffffffffffffffffffffffffe016810167ffffffffffffffff81118282101715612aea57612aea6129db565b604052919050565b600067ffffffffffffffff821115612b0c57612b0c6129db565b50601f017fffffffffffffffffffffffffffffffffffffffffffffffffffffffffffffffe01660200190565b600067ffffffffffffffff80841115612b5357612b536129db565b8360051b6020612b64818301612aa3565b868152918501918181019036841115612b7c57600080fd5b865b84811015612c4257803586811115612b965760008081fd5b88016060368290031215612baa5760008081fd5b612bb2612a57565b612bbb826125c4565b8152612bc88683016126e8565b8682015260408083013589811115612be05760008081fd5b929092019136601f840112612bf55760008081fd5b8235612c08612c0382612af2565b612aa3565b8181523689838701011115612c1d5760008081fd5b818986018a830137600091810189019190915290820152845250918301918301612b7e565b50979650505050505050565b60008085851115612c5e57600080fd5b83861115612c6b57600080fd5b5050820193919092039150565b60008451612c8a818460208901612383565b8201838582376000930192835250909392505050565b8183528181602085013750600060208284010152600060207fffffffffffffffffffffffffffffffffffffffffffffffffffffffffffffffe0601f840116840101905092915050565b602081526000610a6a602083018486612ca0565b7f4e487b7100000000000000000000000000000000000000000000000000000000600052603260045260246000fd5b600082357ffffffffffffffffffffffffffffffffffffffffffffffffffffffffffffffec1833603018112612d6057600080fd5b9190910192915050565b60008083357fffffffffffffffffffffffffffffffffffffffffffffffffffffffffffffffe1843603018112612d9f57600080fd5b83018035915067ffffffffffffffff821115612dba57600080fd5b6020019150368190038213156124fb57600080fd5b67ffffffffffffffff811681146112d757600080fd5b63ffffffff612df3896125c4565b1681526020880135602082015260006040890135612e1081612dcf565b67ffffffffffffffff811660408401525087606083015260e06080830152612e3c60e083018789612ca0565b73ffffffffffffffffffffffffffffffffffffffff861660a084015282810360c0840152612e6b818587612ca0565b9a9950505050505050505050565b7f4e487b7100000000000000000000000000000000000000000000000000000000600052601160045260246000fd5b60007fffffffffffffffffffffffffffffffffffffffffffffffffffffffffffffffff8203612ed957612ed9612e79565b5060010190565b600060208284031215612ef257600080fd5b815167ffffffffffffffff811115612f0957600080fd5b8201601f81018413612f1a57600080fd5b8051612f28612c0382612af2565b818152856020838501011115612f3d57600080fd5b611866826020830160208601612383565b600060408284031215612f6057600080fd5b612f68612a80565b82358152602083013560208201528091505092915050565b600060208284031215612f9257600080fd5b8135610a6d81612dcf565b73ffffffffffffffffffffffffffffffffffffffff8516815283602082015261ffff83166040820152608060608201526000612fdc60808301846123a7565b9695505050505050565b604081526000612ff960408301856123a7565b828103602084015261186681856123a7565b60006020828403121561301d57600080fd5b8151610a6d81612607565b6040815263ffffffff8351166040820152602083015160608201526000604084015160a0608084015261305e60e08401826123a7565b905060608501517fffffffffffffffffffffffffffffffffffffffffffffffffffffffffffffffc08483030160a085015261309982826123a7565b60809690960151151560c085015250505073ffffffffffffffffffffffffffffffffffffffff9190911660209091015290565b6000604082840312156130de57600080fd5b6130e6612a80565b9050815181526020820151602082015292915050565b60006040828403121561310e57600080fd5b610a6d83836130cc565b601f821115611eb257600081815260208120601f850160051c8101602086101561313f5750805b601f850160051c820191505b8181101561315e5782815560010161314b565b505050505050565b815167ffffffffffffffff811115613180576131806129db565b6131948161318e8454612a0a565b84613118565b602080601f8311600181146131e757600084156131b15750858301515b7fffffffffffffffffffffffffffffffffffffffffffffffffffffffffffffffff600386901b1c1916600185901b17855561315e565b6000858152602081207fffffffffffffffffffffffffffffffffffffffffffffffffffffffffffffffe08616915b8281101561323457888601518255948401946001909101908401613215565b508582101561327057878501517fffffffffffffffffffffffffffffffffffffffffffffffffffffffffffffffff600388901b60f8161c191681555b5050505050600190811b01905550565b60006020808301818452808551808352604092508286019150828160051b87010184880160005b83811015613319578883037fffffffffffffffffffffffffffffffffffffffffffffffffffffffffffffffc00185528151805163ffffffff1684528781015161ffff16888501528601516060878501819052613305818601836123a7565b9689019694505050908601906001016132a7565b509098975050505050505050565b60008261335d577f4e487b7100000000000000000000000000000000000000000000000000000000600052601260045260246000fd5b500490565b8082028115828204841417610a5757610a57612e79565b60006080828403121561338b57600080fd5b613393612a57565b8251815260208301516133a581612dcf565b60208201526133b784604085016130cc565b60408201529392505050565b80356020831015610a57577fffffffffffffffffffffffffffffffffffffffffffffffffffffffffffffffff602084900360031b1b1692915050565b7fffffffffffffffff000000000000000000000000000000000000000000000000813581811691600885101561343f5780818660080360031b1b83161692505b505092915050565b7fffffffffffffffff0000000000000000000000000000000000000000000000008560c01b1681527fffffffff000000000000000000000000000000000000000000000000000000008460e01b16600882015282600c820152600082516134b581602c850160208701612383565b91909101602c0195945050505050565b8481527fffffffffffffffff0000000000000000000000000000000000000000000000008460c01b1660208201528260288201526000825161350e816048850160208701612383565b9190910160480195945050505050565b60006020828403121561353057600080fd5b8151610a6d81612502565b60008251612d6081846020870161238356fea2646970667358221220e08205ea7c04345ef6fadb9ff81f0a464e0e215bc777d6e07cdac79754dafbd864736f6c63430008140033",
    "linkReferences": {}
  },
  "methodIdentifiers": {
    "SEND()": "1f5e1334",
    "SEND_AND_CALL()": "134d4f25",
    "allowInitializePath((uint32,bytes32,uint64))": "ff7bd03d",
    "approvalRequired()": "9f68b964",
    "combineOptions(uint32,uint16,bytes)": "bc70b354",
    "credit(address,uint256,uint32)": "4dba701b",
    "debit(uint256,uint256,uint32)": "54f52414",
    "debitView(uint256,uint256,uint32)": "f0163023",
    "decimalConversionRate()": "963efcaa",
    "endpoint()": "5e280f11",
    "enforcedOptions(uint32,uint16)": "5535d461",
    "isComposeMsgSender((uint32,bytes32,uint64),bytes,address)": "82413eac",
    "isPeer(uint32,bytes32)": "5a0dfe4d",
    "lzReceive((uint32,bytes32,uint64),bytes32,bytes,address,bytes)": "13137d65",
    "lzReceiveAndRevert(((uint32,bytes32,uint64),uint32,address,bytes32,uint256,address,bytes,bytes)[])": "bd815db0",
    "lzReceiveSimulate((uint32,bytes32,uint64),bytes32,bytes,address,bytes)": "d045a0dc",
    "msgInspector()": "111ecdad",
    "nextNonce(uint32,bytes32)": "7d25a05e",
    "oApp()": "52ae2879",
    "oAppVersion()": "17442b70",
    "oftVersion()": "156a0d0f",
    "owner()": "8da5cb5b",
    "peers(uint32)": "bb0b6a53",
    "preCrime()": "b731ea0a",
    "quoteOFT((uint32,bytes32,uint256,uint256,bytes,bytes,bytes))": "0d35b415",
    "quoteSend((uint32,bytes32,uint256,uint256,bytes,bytes,bytes),bool)": "3b6f743b",
    "removeDust(uint256)": "c0779988",
    "renounceOwnership()": "715018a6",
    "send((uint32,bytes32,uint256,uint256,bytes,bytes,bytes),(uint256,uint256),address)": "c7c7f5b3",
    "setDelegate(address)": "ca5eb5e1",
    "setEnforcedOptions((uint32,uint16,bytes)[])": "b98bd070",
    "setMsgInspector(address)": "6fc1b31e",
    "setPeer(uint32,bytes32)": "3400288b",
    "setPreCrime(address)": "d4243885",
    "sharedDecimals()": "857749b0",
    "token()": "fc0c546a",
    "transferOwnership(address)": "f2fde38b"
  },
  "id": 136
}