{
  "abi": [
    {
      "type": "function",
      "name": "decodeLzComposeOption",
      "inputs": [
        {
          "name": "_option",
          "type": "bytes",
          "internalType": "bytes"
        }
      ],
      "outputs": [
        {
          "name": "index",
          "type": "uint16",
          "internalType": "uint16"
        },
        {
          "name": "gas",
          "type": "uint128",
          "internalType": "uint128"
        },
        {
          "name": "value",
          "type": "uint128",
          "internalType": "uint128"
        }
      ],
      "stateMutability": "pure"
    },
    {
      "type": "function",
      "name": "decodeLzReceiveOption",
      "inputs": [
        {
          "name": "_option",
          "type": "bytes",
          "internalType": "bytes"
        }
      ],
      "outputs": [
        {
          "name": "gas",
          "type": "uint128",
          "internalType": "uint128"
        },
        {
          "name": "value",
          "type": "uint128",
          "internalType": "uint128"
        }
      ],
      "stateMutability": "pure"
    },
    {
      "type": "function",
      "name": "decodeNativeDropOption",
      "inputs": [
        {
          "name": "_option",
          "type": "bytes",
          "internalType": "bytes"
        }
      ],
      "outputs": [
        {
          "name": "amount",
          "type": "uint128",
          "internalType": "uint128"
        },
        {
          "name": "receiver",
          "type": "bytes32",
          "internalType": "bytes32"
        }
      ],
      "stateMutability": "pure"
    },
    {
      "type": "function",
      "name": "nextExecutorOption",
      "inputs": [
        {
          "name": "_options",
          "type": "bytes",
          "internalType": "bytes"
        },
        {
          "name": "_cursor",
          "type": "uint256",
          "internalType": "uint256"
        }
      ],
      "outputs": [
        {
          "name": "optionType",
          "type": "uint8",
          "internalType": "uint8"
        },
        {
          "name": "option",
          "type": "bytes",
          "internalType": "bytes"
        },
        {
          "name": "cursor",
          "type": "uint256",
          "internalType": "uint256"
        }
      ],
      "stateMutability": "pure"
    },
    {
      "type": "error",
      "name": "Executor_InvalidLzComposeOption",
      "inputs": []
    },
    {
      "type": "error",
      "name": "Executor_InvalidLzReceiveOption",
      "inputs": []
    },
    {
      "type": "error",
      "name": "Executor_InvalidNativeDropOption",
      "inputs": []
    }
  ],
  "bytecode": {
    "object": "0x60806040526040516100109061005f565b604051809103906000f08015801561002c573d6000803e3d6000fd5b50600080546001600160a01b0319166001600160a01b039290921691909117905534801561005957600080fd5b5061006c565b610b1d806106ef83390190565b6106748061007b6000396000f3fe608060405234801561001057600080fd5b506004361061004c5760003560e01c8063518e8ab0146100515780636e1775e31461009c578063b954fdf6146100bf578063f93e1d61146100fa575b600080fd5b61006461005f36600461042b565b610136565b6040805161ffff90941684526fffffffffffffffffffffffffffffffff92831660208501529116908201526060015b60405180910390f35b6100af6100aa36600461046d565b610152565b60405161009394939291906104b9565b6100d26100cd36600461042b565b610174565b604080516fffffffffffffffffffffffffffffffff9093168352602083019190915201610093565b61010d61010836600461042b565b61018d565b604080516fffffffffffffffffffffffffffffffff938416815292909116602083015201610093565b6000806000610145858561019a565b9250925092509250925092565b600036600080610163878787610227565b935093509350935093509350935093565b600080610181848461027d565b915091505b9250929050565b60008061018184846102dd565b60008080601284148015906101b0575060228414155b156101e7576040517f8b4aa70b00000000000000000000000000000000000000000000000000000000815260040160405180910390fd5b6101f385856000610352565b925061020185856002610379565b91506022841461021257600061021e565b61021e85856012610379565b90509250925092565b60003681600184018161023b888884610352565b60029290920191905061024f8888846103a0565b94506001820161ffff8216830161026881838b8d61051a565b979b909a50969850505061ffff160193505050565b600080603083146102ba576040517fc3a1858e00000000000000000000000000000000000000000000000000000000815260040160405180910390fd5b6102c684846000610379565b91506102d4848460106103c5565b90509250929050565b600080601083148015906102f2575060208314155b15610329576040517f4796aee100000000000000000000000000000000000000000000000000000000815260040160405180910390fd5b61033584846000610379565b9150602083146103465760006102d4565b6102d484846010610379565b6000600282016103648184868861051a565b61036d91610544565b60f01c95945050505050565b60006010820161038b8184868861051a565b6103949161058c565b60801c95945050505050565b60008383838181106103b4576103b46105d2565b919091013560f81c95945050505050565b6000602082016103d78184868861051a565b6103e091610601565b95945050505050565b60008083601f8401126103fb57600080fd5b50813567ffffffffffffffff81111561041357600080fd5b60208301915083602082850101111561018657600080fd5b6000806020838503121561043e57600080fd5b823567ffffffffffffffff81111561045557600080fd5b610461858286016103e9565b90969095509350505050565b60008060006040848603121561048257600080fd5b833567ffffffffffffffff81111561049957600080fd5b6104a5868287016103e9565b909790965060209590950135949350505050565b60ff851681526060602082015282606082015282846080830137600060808483010152600060807fffffffffffffffffffffffffffffffffffffffffffffffffffffffffffffffe0601f860116830101905082604083015295945050505050565b6000808585111561052a57600080fd5b8386111561053757600080fd5b5050820193919092039150565b7fffff00000000000000000000000000000000000000000000000000000000000081358181169160028510156105845780818660020360031b1b83161692505b505092915050565b7fffffffffffffffffffffffffffffffff0000000000000000000000000000000081358181169160108510156105845760109490940360031b84901b1690921692915050565b7f4e487b7100000000000000000000000000000000000000000000000000000000600052603260045260246000fd5b80356020831015610638577fffffffffffffffffffffffffffffffffffffffffffffffffffffffffffffffff602084900360031b1b165b9291505056fea26469706673582212204c092ce19b657ea718243d31159f7e706bcad799d116b2daec2d38c283b4703364736f6c63430008140033608060405234801561001057600080fd5b50610afd806100206000396000f3fe608060405234801561001057600080fd5b506004361061002b5760003560e01c8063e5c5e9a314610030575b600080fd5b61004361003e366004610759565b61005a565b604051610051929190610839565b60405180910390f35b6060806100678484610072565b915091509250929050565b60608060028310156100b8576040517f6592671c000000000000000000000000000000000000000000000000000000008152600060048201526024015b60405180910390fd5b60006100c76002828688610867565b6100d091610891565b60f01c905060027ffffffffffffffffffffffffffffffffffffffffffffffffffffffffffffffffd82016102a1578060005b8683101561022d57600061011b60018501858a8c610867565b610124916108d9565b60f81c90506000819003610167576040517f6780cfaf000000000000000000000000000000000000000000000000000000008152600060048201526024016100af565b8160ff1660000361017a578091506101b7565b8160ff168160ff16146101b75736600061019686868c8e610867565b915091506101a789898685856102b8565b9099509750859450919250829150505b60018401936000906101ce90600301868b8d610867565b6101d791610891565b60f01c9050600081900361021a576040517f6592671c000000000000000000000000000000000000000000000000000000008152600481018690526024016100af565b8060020161ffff16850194505050610102565b828714610269576040517f6592671c000000000000000000000000000000000000000000000000000000008152600481018490526024016100af565b600287111561029a5736600061028185858b8d610867565b9150915061029288888585856102b8565b909850965050505b50506102af565b6102ac82878761042d565b93505b50509250929050565b6060807fffffffffffffffffffffffffffffffffffffffffffffffffffffffffffffffff60ff86160161035357865115610315578684846040516020016103019392919061091f565b60405160208183030381529060405261034c565b83838080601f0160208091040260200160405190810160405280939291908181526020018383808284376000920191909152505050505b9650610422565b7ffffffffffffffffffffffffffffffffffffffffffffffffffffffffffffffffe60ff8616016103eb578551156103ad578584846040516020016103999392919061091f565b6040516020818303038152906040526103e4565b83838080601f0160208091040260200160405190810160405280939291908181526020018383808284376000920191909152505050505b9550610422565b6040517f6780cfaf00000000000000000000000000000000000000000000000000000000815260ff861660048201526024016100af565b509495939450505050565b60607fffffffffffffffffffffffffffffffffffffffffffffffffffffffffffffffff61ffff8516016105535760228214610494576040517f0dc652a800000000000000000000000000000000000000000000000000000000815260040160405180910390fd5b60006104b56104a7602260028688610867565b6104b091610947565b6106b3565b6040517f0100000000000000000000000000000000000000000000000000000000000000602082018190527e11000000000000000000000000000000000000000000000000000000000000602183015260238201527fffffffffffffffffffffffffffffffff00000000000000000000000000000000608083901b1660248201529091506034016040516020818303038152906040529150506106ac565b7ffffffffffffffffffffffffffffffffffffffffffffffffffffffffffffffffe61ffff8516016106745760428211158061058e5750606282115b156105c5576040517fc0927c5600000000000000000000000000000000000000000000000000000000815260040160405180910390fd5b60006105d86104a7602260028688610867565b905060006105ed6104a7604260228789610867565b905060007fffffffffffffffffffffffffffffffffffffffffffffffffffffffffffffffbe8501610621866042818a610867565b61062a91610947565b60405160086020938403029190911c925061065b916001916011918391889183916031916002918b918b9101610984565b60405160208183030381529060405293505050506106ac565b6040517f4170513000000000000000000000000000000000000000000000000000000000815261ffff851660048201526024016100af565b9392505050565b60006fffffffffffffffffffffffffffffffff821115610755576040517f08c379a000000000000000000000000000000000000000000000000000000000815260206004820152602760248201527f53616665436173743a2076616c756520646f65736e27742066697420696e203160448201527f323820626974730000000000000000000000000000000000000000000000000060648201526084016100af565b5090565b6000806020838503121561076c57600080fd5b823567ffffffffffffffff8082111561078457600080fd5b818501915085601f83011261079857600080fd5b8135818111156107a757600080fd5b8660208285010111156107b957600080fd5b60209290920196919550909350505050565b60005b838110156107e65781810151838201526020016107ce565b50506000910152565b600081518084526108078160208601602086016107cb565b601f017fffffffffffffffffffffffffffffffffffffffffffffffffffffffffffffffe0169290920160200192915050565b60408152600061084c60408301856107ef565b828103602084015261085e81856107ef565b95945050505050565b6000808585111561087757600080fd5b8386111561088457600080fd5b5050820193919092039150565b7fffff00000000000000000000000000000000000000000000000000000000000081358181169160028510156108d15780818660020360031b1b83161692505b505092915050565b7fff0000000000000000000000000000000000000000000000000000000000000081358181169160018510156108d15760019490940360031b84901b1690921692915050565b600084516109318184602089016107cb565b8201838582376000930192835250909392505050565b8035602083101561097e577fffffffffffffffffffffffffffffffffffffffffffffffffffffffffffffffff602084900360031b1b165b92915050565b60007fff00000000000000000000000000000000000000000000000000000000000000808c60f81b1683527fffff0000000000000000000000000000000000000000000000000000000000008b60f01b166001840152808a60f81b1660038401527fffffffffffffffffffffffffffffffff000000000000000000000000000000008960801b166004840152808860f81b16601484015250610a4d601583018760f01b7fffff000000000000000000000000000000000000000000000000000000000000169052565b610a7e601783018660f81b7fff00000000000000000000000000000000000000000000000000000000000000169052565b610aaf601883018560801b7fffffffffffffffffffffffffffffffff00000000000000000000000000000000169052565b5060288101919091526048019897505050505050505056fea26469706673582212202222b3e062ee70743702c37f4cd41937947ae2c7c5725b46480eb4c75ce4973164736f6c63430008140033",
    "linkReferences": {}
  },
  "methodIdentifiers": {
    "decodeLzComposeOption(bytes)": "518e8ab0",
    "decodeLzReceiveOption(bytes)": "f93e1d61",
    "decodeNativeDropOption(bytes)": "b954fdf6",
    "nextExecutorOption(bytes,uint256)": "6e1775e3"
  },
  "id": 132
}