{
  "abi": [
    {
      "type": "constructor",
      "inputs": [
        {
          "name": "_verifyHelper",
          "type": "address",
          "internalType": "address payable"
        },
        {
          "name": "_endpoint",
          "type": "address",
          "internalType": "address"
        },
        {
          "name": "_treasuryGasCap",
          "type": "uint256",
          "internalType": "uint256"
        },
        {
          "name": "_treasuryGasForFeeCap",
          "type": "uint256",
          "internalType": "uint256"
        }
      ],
      "stateMutability": "nonpayable"
    },
    {
      "type": "receive",
      "stateMutability": "payable"
    },
    {
      "type": "function",
      "name": "executorConfigs",
      "inputs": [
        {
          "name": "oapp",
          "type": "address",
          "internalType": "address"
        },
        {
          "name": "eid",
          "type": "uint32",
          "internalType": "uint32"
        }
      ],
      "outputs": [
        {
          "name": "maxMessageSize",
          "type": "uint32",
          "internalType": "uint32"
        },
        {
          "name": "executor",
          "type": "address",
          "internalType": "address"
        }
      ],
      "stateMutability": "view"
    },
    {
      "type": "function",
      "name": "fees",
      "inputs": [
        {
          "name": "worker",
          "type": "address",
          "internalType": "address"
        }
      ],
      "outputs": [
        {
          "name": "",
          "type": "uint256",
          "internalType": "uint256"
        }
      ],
      "stateMutability": "view"
    },
    {
      "type": "function",
      "name": "getAppUlnConfig",
      "inputs": [
        {
          "name": "_oapp",
          "type": "address",
          "internalType": "address"
        },
        {
          "name": "_remoteEid",
          "type": "uint32",
          "internalType": "uint32"
        }
      ],
      "outputs": [
        {
          "name": "",
          "type": "tuple",
          "internalType": "struct UlnConfig",
          "components": [
            {
              "name": "confirmations",
              "type": "uint64",
              "internalType": "uint64"
            },
            {
              "name": "requiredDVNCount",
              "type": "uint8",
              "internalType": "uint8"
            },
            {
              "name": "optionalDVNCount",
              "type": "uint8",
              "internalType": "uint8"
            },
            {
              "name": "optionalDVNThreshold",
              "type": "uint8",
              "internalType": "uint8"
            },
            {
              "name": "requiredDVNs",
              "type": "address[]",
              "internalType": "address[]"
            },
            {
              "name": "optionalDVNs",
              "type": "address[]",
              "internalType": "address[]"
            }
          ]
        }
      ],
      "stateMutability": "view"
    },
    {
      "type": "function",
      "name": "getConfig",
      "inputs": [
        {
          "name": "_eid",
          "type": "uint32",
          "internalType": "uint32"
        },
        {
          "name": "_oapp",
          "type": "address",
          "internalType": "address"
        },
        {
          "name": "_configType",
          "type": "uint32",
          "internalType": "uint32"
        }
      ],
      "outputs": [
        {
          "name": "",
          "type": "bytes",
          "internalType": "bytes"
        }
      ],
      "stateMutability": "view"
    },
    {
      "type": "function",
      "name": "getExecutorConfig",
      "inputs": [
        {
          "name": "_oapp",
          "type": "address",
          "internalType": "address"
        },
        {
          "name": "_remoteEid",
          "type": "uint32",
          "internalType": "uint32"
        }
      ],
      "outputs": [
        {
          "name": "rtnConfig",
          "type": "tuple",
          "internalType": "struct ExecutorConfig",
          "components": [
            {
              "name": "maxMessageSize",
              "type": "uint32",
              "internalType": "uint32"
            },
            {
              "name": "executor",
              "type": "address",
              "internalType": "address"
            }
          ]
        }
      ],
      "stateMutability": "view"
    },
    {
      "type": "function",
      "name": "getUlnConfig",
      "inputs": [
        {
          "name": "_oapp",
          "type": "address",
          "internalType": "address"
        },
        {
          "name": "_remoteEid",
          "type": "uint32",
          "internalType": "uint32"
        }
      ],
      "outputs": [
        {
          "name": "rtnConfig",
          "type": "tuple",
          "internalType": "struct UlnConfig",
          "components": [
            {
              "name": "confirmations",
              "type": "uint64",
              "internalType": "uint64"
            },
            {
              "name": "requiredDVNCount",
              "type": "uint8",
              "internalType": "uint8"
            },
            {
              "name": "optionalDVNCount",
              "type": "uint8",
              "internalType": "uint8"
            },
            {
              "name": "optionalDVNThreshold",
              "type": "uint8",
              "internalType": "uint8"
            },
            {
              "name": "requiredDVNs",
              "type": "address[]",
              "internalType": "address[]"
            },
            {
              "name": "optionalDVNs",
              "type": "address[]",
              "internalType": "address[]"
            }
          ]
        }
      ],
      "stateMutability": "view"
    },
    {
      "type": "function",
      "name": "isSupportedEid",
      "inputs": [
        {
          "name": "_eid",
          "type": "uint32",
          "internalType": "uint32"
        }
      ],
      "outputs": [
        {
          "name": "",
          "type": "bool",
          "internalType": "bool"
        }
      ],
      "stateMutability": "view"
    },
    {
      "type": "function",
      "name": "messageLibType",
      "inputs": [],
      "outputs": [
        {
          "name": "",
          "type": "uint8",
          "internalType": "enum MessageLibType"
        }
      ],
      "stateMutability": "pure"
    },
    {
      "type": "function",
      "name": "owner",
      "inputs": [],
      "outputs": [
        {
          "name": "",
          "type": "address",
          "internalType": "address"
        }
      ],
      "stateMutability": "view"
    },
    {
      "type": "function",
      "name": "quote",
      "inputs": [
        {
          "name": "_packet",
          "type": "tuple",
          "internalType": "struct Packet",
          "components": [
            {
              "name": "nonce",
              "type": "uint64",
              "internalType": "uint64"
            },
            {
              "name": "srcEid",
              "type": "uint32",
              "internalType": "uint32"
            },
            {
              "name": "sender",
              "type": "address",
              "internalType": "address"
            },
            {
              "name": "dstEid",
              "type": "uint32",
              "internalType": "uint32"
            },
            {
              "name": "receiver",
              "type": "bytes32",
              "internalType": "bytes32"
            },
            {
              "name": "guid",
              "type": "bytes32",
              "internalType": "bytes32"
            },
            {
              "name": "message",
              "type": "bytes",
              "internalType": "bytes"
            }
          ]
        },
        {
          "name": "_options",
          "type": "bytes",
          "internalType": "bytes"
        },
        {
          "name": "_payInLzToken",
          "type": "bool",
          "internalType": "bool"
        }
      ],
      "outputs": [
        {
          "name": "",
          "type": "tuple",
          "internalType": "struct MessagingFee",
          "components": [
            {
              "name": "nativeFee",
              "type": "uint256",
              "internalType": "uint256"
            },
            {
              "name": "lzTokenFee",
              "type": "uint256",
              "internalType": "uint256"
            }
          ]
        }
      ],
      "stateMutability": "view"
    },
    {
      "type": "function",
      "name": "renounceOwnership",
      "inputs": [],
      "outputs": [],
      "stateMutability": "nonpayable"
    },
    {
      "type": "function",
      "name": "send",
      "inputs": [
        {
          "name": "_packet",
          "type": "tuple",
          "internalType": "struct Packet",
          "components": [
            {
              "name": "nonce",
              "type": "uint64",
              "internalType": "uint64"
            },
            {
              "name": "srcEid",
              "type": "uint32",
              "internalType": "uint32"
            },
            {
              "name": "sender",
              "type": "address",
              "internalType": "address"
            },
            {
              "name": "dstEid",
              "type": "uint32",
              "internalType": "uint32"
            },
            {
              "name": "receiver",
              "type": "bytes32",
              "internalType": "bytes32"
            },
            {
              "name": "guid",
              "type": "bytes32",
              "internalType": "bytes32"
            },
            {
              "name": "message",
              "type": "bytes",
              "internalType": "bytes"
            }
          ]
        },
        {
          "name": "_options",
          "type": "bytes",
          "internalType": "bytes"
        },
        {
          "name": "_payInLzToken",
          "type": "bool",
          "internalType": "bool"
        }
      ],
      "outputs": [
        {
          "name": "fee",
          "type": "tuple",
          "internalType": "struct MessagingFee",
          "components": [
            {
              "name": "nativeFee",
              "type": "uint256",
              "internalType": "uint256"
            },
            {
              "name": "lzTokenFee",
              "type": "uint256",
              "internalType": "uint256"
            }
          ]
        },
        {
          "name": "encodedPacket",
          "type": "bytes",
          "internalType": "bytes"
        }
      ],
      "stateMutability": "nonpayable"
    },
    {
      "type": "function",
      "name": "setConfig",
      "inputs": [
        {
          "name": "_oapp",
          "type": "address",
          "internalType": "address"
        },
        {
          "name": "_params",
          "type": "tuple[]",
          "internalType": "struct SetConfigParam[]",
          "components": [
            {
              "name": "eid",
              "type": "uint32",
              "internalType": "uint32"
            },
            {
              "name": "configType",
              "type": "uint32",
              "internalType": "uint32"
            },
            {
              "name": "config",
              "type": "bytes",
              "internalType": "bytes"
            }
          ]
        }
      ],
      "outputs": [],
      "stateMutability": "nonpayable"
    },
    {
      "type": "function",
      "name": "setDefaultExecutorConfigs",
      "inputs": [
        {
          "name": "_params",
          "type": "tuple[]",
          "internalType": "struct SetDefaultExecutorConfigParam[]",
          "components": [
            {
              "name": "eid",
              "type": "uint32",
              "internalType": "uint32"
            },
            {
              "name": "config",
              "type": "tuple",
              "internalType": "struct ExecutorConfig",
              "components": [
                {
                  "name": "maxMessageSize",
                  "type": "uint32",
                  "internalType": "uint32"
                },
                {
                  "name": "executor",
                  "type": "address",
                  "internalType": "address"
                }
              ]
            }
          ]
        }
      ],
      "outputs": [],
      "stateMutability": "nonpayable"
    },
    {
      "type": "function",
      "name": "setDefaultUlnConfigs",
      "inputs": [
        {
          "name": "_params",
          "type": "tuple[]",
          "internalType": "struct SetDefaultUlnConfigParam[]",
          "components": [
            {
              "name": "eid",
              "type": "uint32",
              "internalType": "uint32"
            },
            {
              "name": "config",
              "type": "tuple",
              "internalType": "struct UlnConfig",
              "components": [
                {
                  "name": "confirmations",
                  "type": "uint64",
                  "internalType": "uint64"
                },
                {
                  "name": "requiredDVNCount",
                  "type": "uint8",
                  "internalType": "uint8"
                },
                {
                  "name": "optionalDVNCount",
                  "type": "uint8",
                  "internalType": "uint8"
                },
                {
                  "name": "optionalDVNThreshold",
                  "type": "uint8",
                  "internalType": "uint8"
                },
                {
                  "name": "requiredDVNs",
                  "type": "address[]",
                  "internalType": "address[]"
                },
                {
                  "name": "optionalDVNs",
                  "type": "address[]",
                  "internalType": "address[]"
                }
              ]
            }
          ]
        }
      ],
      "outputs": [],
      "stateMutability": "nonpayable"
    },
    {
      "type": "function",
      "name": "setTreasury",
      "inputs": [
        {
          "name": "_treasury",
          "type": "address",
          "internalType": "address"
        }
      ],
      "outputs": [],
      "stateMutability": "nonpayable"
    },
    {
      "type": "function",
      "name": "setTreasuryNativeFeeCap",
      "inputs": [
        {
          "name": "_newTreasuryNativeFeeCap",
          "type": "uint256",
          "internalType": "uint256"
        }
      ],
      "outputs": [],
      "stateMutability": "nonpayable"
    },
    {
      "type": "function",
      "name": "supportsInterface",
      "inputs": [
        {
          "name": "_interfaceId",
          "type": "bytes4",
          "internalType": "bytes4"
        }
      ],
      "outputs": [
        {
          "name": "",
          "type": "bool",
          "internalType": "bool"
        }
      ],
      "stateMutability": "view"
    },
    {
      "type": "function",
      "name": "testHelper",
      "inputs": [],
      "outputs": [
        {
          "name": "",
          "type": "address",
          "internalType": "contract TestHelperOz5"
        }
      ],
      "stateMutability": "view"
    },
    {
      "type": "function",
      "name": "transferOwnership",
      "inputs": [
        {
          "name": "newOwner",
          "type": "address",
          "internalType": "address"
        }
      ],
      "outputs": [],
      "stateMutability": "nonpayable"
    },
    {
      "type": "function",
      "name": "treasury",
      "inputs": [],
      "outputs": [
        {
          "name": "",
          "type": "address",
          "internalType": "address"
        }
      ],
      "stateMutability": "view"
    },
    {
      "type": "function",
      "name": "version",
      "inputs": [],
      "outputs": [
        {
          "name": "major",
          "type": "uint64",
          "internalType": "uint64"
        },
        {
          "name": "minor",
          "type": "uint8",
          "internalType": "uint8"
        },
        {
          "name": "endpointVersion",
          "type": "uint8",
          "internalType": "uint8"
        }
      ],
      "stateMutability": "pure"
    },
    {
      "type": "function",
      "name": "withdrawFee",
      "inputs": [
        {
          "name": "_to",
          "type": "address",
          "internalType": "address"
        },
        {
          "name": "_amount",
          "type": "uint256",
          "internalType": "uint256"
        }
      ],
      "outputs": [],
      "stateMutability": "nonpayable"
    },
    {
      "type": "function",
      "name": "withdrawLzTokenFee",
      "inputs": [
        {
          "name": "_lzToken",
          "type": "address",
          "internalType": "address"
        },
        {
          "name": "_to",
          "type": "address",
          "internalType": "address"
        },
        {
          "name": "_amount",
          "type": "uint256",
          "internalType": "uint256"
        }
      ],
      "outputs": [],
      "stateMutability": "nonpayable"
    },
    {
      "type": "event",
      "name": "DVNFeePaid",
      "inputs": [
        {
          "name": "requiredDVNs",
          "type": "address[]",
          "indexed": false,
          "internalType": "address[]"
        },
        {
          "name": "optionalDVNs",
          "type": "address[]",
          "indexed": false,
          "internalType": "address[]"
        },
        {
          "name": "fees",
          "type": "uint256[]",
          "indexed": false,
          "internalType": "uint256[]"
        }
      ],
      "anonymous": false
    },
    {
      "type": "event",
      "name": "DefaultExecutorConfigsSet",
      "inputs": [
        {
          "name": "params",
          "type": "tuple[]",
          "indexed": false,
          "internalType": "struct SetDefaultExecutorConfigParam[]",
          "components": [
            {
              "name": "eid",
              "type": "uint32",
              "internalType": "uint32"
            },
            {
              "name": "config",
              "type": "tuple",
              "internalType": "struct ExecutorConfig",
              "components": [
                {
                  "name": "maxMessageSize",
                  "type": "uint32",
                  "internalType": "uint32"
                },
                {
                  "name": "executor",
                  "type": "address",
                  "internalType": "address"
                }
              ]
            }
          ]
        }
      ],
      "anonymous": false
    },
    {
      "type": "event",
      "name": "DefaultUlnConfigsSet",
      "inputs": [
        {
          "name": "params",
          "type": "tuple[]",
          "indexed": false,
          "internalType": "struct SetDefaultUlnConfigParam[]",
          "components": [
            {
              "name": "eid",
              "type": "uint32",
              "internalType": "uint32"
            },
            {
              "name": "config",
              "type": "tuple",
              "internalType": "struct UlnConfig",
              "components": [
                {
                  "name": "confirmations",
                  "type": "uint64",
                  "internalType": "uint64"
                },
                {
                  "name": "requiredDVNCount",
                  "type": "uint8",
                  "internalType": "uint8"
                },
                {
                  "name": "optionalDVNCount",
                  "type": "uint8",
                  "internalType": "uint8"
                },
                {
                  "name": "optionalDVNThreshold",
                  "type": "uint8",
                  "internalType": "uint8"
                },
                {
                  "name": "requiredDVNs",
                  "type": "address[]",
                  "internalType": "address[]"
                },
                {
                  "name": "optionalDVNs",
                  "type": "address[]",
                  "internalType": "address[]"
                }
              ]
            }
          ]
        }
      ],
      "anonymous": false
    },
    {
      "type": "event",
      "name": "ExecutorConfigSet",
      "inputs": [
        {
          "name": "oapp",
          "type": "address",
          "indexed": false,
          "internalType": "address"
        },
        {
          "name": "eid",
          "type": "uint32",
          "indexed": false,
          "internalType": "uint32"
        },
        {
          "name": "config",
          "type": "tuple",
          "indexed": false,
          "internalType": "struct ExecutorConfig",
          "components": [
            {
              "name": "maxMessageSize",
              "type": "uint32",
              "internalType": "uint32"
            },
            {
              "name": "executor",
              "type": "address",
              "internalType": "address"
            }
          ]
        }
      ],
      "anonymous": false
    },
    {
      "type": "event",
      "name": "ExecutorFeePaid",
      "inputs": [
        {
          "name": "executor",
          "type": "address",
          "indexed": false,
          "internalType": "address"
        },
        {
          "name": "fee",
          "type": "uint256",
          "indexed": false,
          "internalType": "uint256"
        }
      ],
      "anonymous": false
    },
    {
      "type": "event",
      "name": "LzTokenFeeWithdrawn",
      "inputs": [
        {
          "name": "lzToken",
          "type": "address",
          "indexed": false,
          "internalType": "address"
        },
        {
          "name": "receiver",
          "type": "address",
          "indexed": false,
          "internalType": "address"
        },
        {
          "name": "amount",
          "type": "uint256",
          "indexed": false,
          "internalType": "uint256"
        }
      ],
      "anonymous": false
    },
    {
      "type": "event",
      "name": "NativeFeeWithdrawn",
      "inputs": [
        {
          "name": "worker",
          "type": "address",
          "indexed": false,
          "internalType": "address"
        },
        {
          "name": "receiver",
          "type": "address",
          "indexed": false,
          "internalType": "address"
        },
        {
          "name": "amount",
          "type": "uint256",
          "indexed": false,
          "internalType": "uint256"
        }
      ],
      "anonymous": false
    },
    {
      "type": "event",
      "name": "OwnershipTransferred",
      "inputs": [
        {
          "name": "previousOwner",
          "type": "address",
          "indexed": true,
          "internalType": "address"
        },
        {
          "name": "newOwner",
          "type": "address",
          "indexed": true,
          "internalType": "address"
        }
      ],
      "anonymous": false
    },
    {
      "type": "event",
      "name": "TreasuryNativeFeeCapSet",
      "inputs": [
        {
          "name": "newTreasuryNativeFeeCap",
          "type": "uint256",
          "indexed": false,
          "internalType": "uint256"
        }
      ],
      "anonymous": false
    },
    {
      "type": "event",
      "name": "TreasurySet",
      "inputs": [
        {
          "name": "treasury",
          "type": "address",
          "indexed": false,
          "internalType": "address"
        }
      ],
      "anonymous": false
    },
    {
      "type": "event",
      "name": "UlnConfigSet",
      "inputs": [
        {
          "name": "oapp",
          "type": "address",
          "indexed": false,
          "internalType": "address"
        },
        {
          "name": "eid",
          "type": "uint32",
          "indexed": false,
          "internalType": "uint32"
        },
        {
          "name": "config",
          "type": "tuple",
          "indexed": false,
          "internalType": "struct UlnConfig",
          "components": [
            {
              "name": "confirmations",
              "type": "uint64",
              "internalType": "uint64"
            },
            {
              "name": "requiredDVNCount",
              "type": "uint8",
              "internalType": "uint8"
            },
            {
              "name": "optionalDVNCount",
              "type": "uint8",
              "internalType": "uint8"
            },
            {
              "name": "optionalDVNThreshold",
              "type": "uint8",
              "internalType": "uint8"
            },
            {
              "name": "requiredDVNs",
              "type": "address[]",
              "internalType": "address[]"
            },
            {
              "name": "optionalDVNs",
              "type": "address[]",
              "internalType": "address[]"
            }
          ]
        }
      ],
      "anonymous": false
    },
    {
      "type": "error",
      "name": "AddressEmptyCode",
      "inputs": [
        {
          "name": "target",
          "type": "address",
          "internalType": "address"
        }
      ]
    },
    {
      "type": "error",
      "name": "AddressInsufficientBalance",
      "inputs": [
        {
          "name": "account",
          "type": "address",
          "internalType": "address"
        }
      ]
    },
    {
      "type": "error",
      "name": "DVN_InvalidDVNIdx",
      "inputs": []
    },
    {
      "type": "error",
      "name": "DVN_InvalidDVNOptions",
      "inputs": [
        {
          "name": "cursor",
          "type": "uint256",
          "internalType": "uint256"
        }
      ]
    },
    {
      "type": "error",
      "name": "FailedInnerCall",
      "inputs": []
    },
    {
      "type": "error",
      "name": "LZ_MessageLib_CannotWithdrawAltToken",
      "inputs": []
    },
    {
      "type": "error",
      "name": "LZ_MessageLib_InvalidAmount",
      "inputs": [
        {
          "name": "requested",
          "type": "uint256",
          "internalType": "uint256"
        },
        {
          "name": "available",
          "type": "uint256",
          "internalType": "uint256"
        }
      ]
    },
    {
      "type": "error",
      "name": "LZ_MessageLib_InvalidExecutor",
      "inputs": []
    },
    {
      "type": "error",
      "name": "LZ_MessageLib_InvalidMessageSize",
      "inputs": [
        {
          "name": "actual",
          "type": "uint256",
          "internalType": "uint256"
        },
        {
          "name": "max",
          "type": "uint256",
          "internalType": "uint256"
        }
      ]
    },
    {
      "type": "error",
      "name": "LZ_MessageLib_NotTreasury",
      "inputs": []
    },
    {
      "type": "error",
      "name": "LZ_MessageLib_OnlyEndpoint",
      "inputs": []
    },
    {
      "type": "error",
      "name": "LZ_MessageLib_TransferFailed",
      "inputs": []
    },
    {
      "type": "error",
      "name": "LZ_MessageLib_ZeroMessageSize",
      "inputs": []
    },
    {
      "type": "error",
      "name": "LZ_ULN_AtLeastOneDVN",
      "inputs": []
    },
    {
      "type": "error",
      "name": "LZ_ULN_InvalidConfigType",
      "inputs": [
        {
          "name": "configType",
          "type": "uint32",
          "internalType": "uint32"
        }
      ]
    },
    {
      "type": "error",
      "name": "LZ_ULN_InvalidConfirmations",
      "inputs": []
    },
    {
      "type": "error",
      "name": "LZ_ULN_InvalidLegacyType1Option",
      "inputs": []
    },
    {
      "type": "error",
      "name": "LZ_ULN_InvalidLegacyType2Option",
      "inputs": []
    },
    {
      "type": "error",
      "name": "LZ_ULN_InvalidOptionalDVNCount",
      "inputs": []
    },
    {
      "type": "error",
      "name": "LZ_ULN_InvalidOptionalDVNThreshold",
      "inputs": []
    },
    {
      "type": "error",
      "name": "LZ_ULN_InvalidRequiredDVNCount",
      "inputs": []
    },
    {
      "type": "error",
      "name": "LZ_ULN_InvalidWorkerId",
      "inputs": [
        {
          "name": "workerId",
          "type": "uint8",
          "internalType": "uint8"
        }
      ]
    },
    {
      "type": "error",
      "name": "LZ_ULN_InvalidWorkerOptions",
      "inputs": [
        {
          "name": "cursor",
          "type": "uint256",
          "internalType": "uint256"
        }
      ]
    },
    {
      "type": "error",
      "name": "LZ_ULN_Unsorted",
      "inputs": []
    },
    {
      "type": "error",
      "name": "LZ_ULN_UnsupportedEid",
      "inputs": [
        {
          "name": "eid",
          "type": "uint32",
          "internalType": "uint32"
        }
      ]
    },
    {
      "type": "error",
      "name": "LZ_ULN_UnsupportedOptionType",
      "inputs": [
        {
          "name": "optionType",
          "type": "uint16",
          "internalType": "uint16"
        }
      ]
    },
    {
      "type": "error",
      "name": "OwnableInvalidOwner",
      "inputs": [
        {
          "name": "owner",
          "type": "address",
          "internalType": "address"
        }
      ]
    },
    {
      "type": "error",
      "name": "OwnableUnauthorizedAccount",
      "inputs": [
        {
          "name": "account",
          "type": "address",
          "internalType": "address"
        }
      ]
    },
    {
      "type": "error",
      "name": "SafeCastOverflowedUintDowncast",
      "inputs": [
        {
          "name": "bits",
          "type": "uint8",
          "internalType": "uint8"
        },
        {
          "name": "value",
          "type": "uint256",
          "internalType": "uint256"
        }
      ]
    },
    {
      "type": "error",
      "name": "SafeERC20FailedOperation",
      "inputs": [
        {
          "name": "token",
          "type": "address",
          "internalType": "address"
        }
      ]
    },
    {
      "type": "error",
      "name": "Transfer_NativeFailed",
      "inputs": [
        {
          "name": "_to",
          "type": "address",
          "internalType": "address"
        },
        {
          "name": "_value",
          "type": "uint256",
          "internalType": "uint256"
        }
      ]
    },
    {
      "type": "error",
      "name": "Transfer_ToAddressIsZero",
      "inputs": []
    }
  ],
  "bytecode": {
    "object": "0x60e06040523480156200001157600080fd5b5060405162004ac038038062004ac083398101604081905262000034916200018b565b82828282836001600160a01b031663416ecebf6040518163ffffffff1660e01b8152600401602060405180830381865afa15801562000077573d6000803e3d6000fd5b505050506040513d601f19601f820116820180604052508101906200009d9190620001d8565b6001600160a01b03821660805263ffffffff811660a05283833380620000dd57604051631e4fbdf760e01b81526000600482015260240160405180910390fd5b620000e88162000122565b5060c0919091526002555050600680546001600160a01b0319166001600160a01b0398909816979097179096555062000207945050505050565b600080546001600160a01b038381166001600160a01b0319831681178455604051919092169283917f8be0079c531659141344cd1fd0a4f28419497f9722a3daafe3b4186f6b6457e09190a35050565b6001600160a01b03811681146200018857600080fd5b50565b60008060008060808587031215620001a257600080fd5b8451620001af8162000172565b6020860151909450620001c28162000172565b6040860151606090960151949790965092505050565b600060208284031215620001eb57600080fd5b815163ffffffff811681146200020057600080fd5b9392505050565b60805160a05160c0516148706200025060003960008181611d100152611e730152600050506000818161069a0152818161079f015281816112b101526117d901526148706000f3fe60806040526004361061014f5760003560e01c806361d027b3116100b6578063d15b0d491161006f578063d15b0d4914610450578063d80e9bd914610470578063f0f442601461049d578063f2fde38b146104bd578063faaebd21146104dd578063fd9be5221461051857600080fd5b806361d027b3146103905780636750cd4c146103b0578063715018a6146103d05780638da5cb5b146103e55780639c33abf714610403578063c14c43491461043057600080fd5b806329460b0b1161010857806329460b0b1461025357806339e3f938146102735780634389e58f146102a057806343ea4fa9146102ce5780634d963200146102ee57806354fd4d501461036357600080fd5b806301ffc9a71461015b5780630e97289b14610190578063188183f4146101c85780631881d94d146101f5578063200175f71461021157806320efd7221461023357600080fd5b3661015657005b600080fd5b34801561016757600080fd5b5061017b6101763660046136fd565b610538565b60405190151581526020015b60405180910390f35b34801561019c57600080fd5b506006546101b0906001600160a01b031681565b6040516001600160a01b039091168152602001610187565b3480156101d457600080fd5b506101e86101e3366004613769565b61058a565b60405161018791906137a2565b34801561020157600080fd5b50600060405161018791906137c8565b34801561021d57600080fd5b5061023161022c3660046137f0565b610663565b005b34801561023f57600080fd5b5061023161024e366004613875565b61079d565b34801561025f57600080fd5b5061023161026e3660046138c9565b610912565b34801561027f57600080fd5b5061029361028e366004613769565b610aaa565b60405161018791906139c0565b3480156102ac57600080fd5b506102c06102bb3660046139ec565b610be5565b604051610187929190613aeb565b3480156102da57600080fd5b506102936102e9366004613769565b610c7a565b3480156102fa57600080fd5b5061033f610309366004613769565b600460209081526000928352604080842090915290825290205463ffffffff81169064010000000090046001600160a01b031682565b6040805163ffffffff90931683526001600160a01b03909116602083015201610187565b34801561036f57600080fd5b50604080516003815260006020820152600291810191909152606001610187565b34801561039c57600080fd5b506003546101b0906001600160a01b031681565b3480156103bc57600080fd5b5061017b6103cb366004613b0f565b610f86565b3480156103dc57600080fd5b50610231610f91565b3480156103f157600080fd5b506000546001600160a01b03166101b0565b34801561040f57600080fd5b5061042361041e366004613b2c565b610fa5565b6040516101879190613b77565b34801561043c57600080fd5b5061023161044b366004613b8a565b611037565b34801561045c57600080fd5b5061023161046b366004613bfe565b611170565b34801561047c57600080fd5b5061049061048b3660046139ec565b6111e5565b6040516101879190613c17565b3480156104a957600080fd5b506102316104b8366004613c2e565b611255565b3480156104c957600080fd5b506102316104d8366004613c2e565b611269565b3480156104e957600080fd5b5061050a6104f8366004613c2e565b60056020526000908152604090205481565b604051908152602001610187565b34801561052457600080fd5b50610231610533366004613c4b565b6112a4565b60006001600160e01b031982166325fc096160e21b148061056957506001600160e01b0319821663b6e9ace360e01b145b8061058457506301ffc9a760e01b6001600160e01b03198316145b92915050565b604080518082019091526000808252602082015263ffffffff80831660008181527f17ef568e3e12ab5b9c7254a8d58478811de00f9e6eb34345acd53bf8fd09d3ec602090815260408083206001600160a01b038916845260048352818420948452939091528120805492939092169081900361060e57825463ffffffff16610610565b805b63ffffffff168452815464010000000090046001600160a01b03168061064857835464010000000090046001600160a01b031661064a565b805b6001600160a01b03166020860152509295945050505050565b6003546001600160a01b0316331461068e5760405163885762a760e01b815260040160405180910390fd5b826001600160a01b03167f00000000000000000000000000000000000000000000000000000000000000006001600160a01b031663e1758bd86040518163ffffffff1660e01b8152600401602060405180830381865afa1580156106f6573d6000803e3d6000fd5b505050506040513d601f19601f8201168201806040525081019061071a9190613c77565b6001600160a01b031603610741576040516339a5741160e21b815260040160405180910390fd5b61074c838383611384565b604080516001600160a01b038086168252841660208201529081018290527fe081464b7278501267de69fa85b7b9560b0ae05d5fbfaab9b1986c70356e2efe906060015b60405180910390a1505050565b7f00000000000000000000000000000000000000000000000000000000000000006001600160a01b031633146107e65760405163467409c360e01b815260040160405180910390fd5b60005b8181101561090c573683838381811061080457610804613c94565b90506020028101906108169190613caa565b905061082d6108286020830183613b0f565b6113c4565b600161083f6040830160208401613b0f565b63ffffffff160361087f5761087a61085a6020830183613b0f565b866108686040850185613cca565b8101906108759190613da0565b6113f2565b610903565b60026108916040830160208401613b0f565b63ffffffff16036108cc5761087a6108ac6020830183613b0f565b866108ba6040850185613cca565b8101906108c79190613f60565b61147a565b6108dc6040820160208301613b0f565b604051635d4be0fd60e11b815263ffffffff90911660048201526024015b60405180910390fd5b506001016107e9565b50505050565b61091a6114c3565b60005b81811015610a6c573683838381811061093857610938613c94565b905060200281019061094a9190613f94565b905060ff61095b6020830183613faa565b61096c906040810190602001613fc0565b60ff160361098d576040516341d50bed60e11b815260040160405180910390fd5b60ff61099c6020830183613faa565b6109ad906060810190604001613fc0565b60ff16036109ce5760405163211089b360e11b815260040160405180910390fd5b6001600160401b036109e36020830183613faa565b6109f1906020810190613fdb565b6001600160401b031603610a185760405163281b33d760e11b815260040160405180910390fd5b610a36610a286020830183613faa565b610a3190613ff6565b6114f0565b610a636000610a486020840184613b0f565b610a556020850185613faa565b610a5e90613ff6565b611528565b5060010161091d565b507faaf3aaa0c11056e86ac56eb653e25b005ca1a7d4dcd21ba24647f7ab63f3b5608282604051610a9e929190614088565b60405180910390a15050565b610ab2613644565b6001600160a01b038316600090815260016020818152604080842063ffffffff87168552825292839020835160c08101855281546001600160401b038116825260ff600160401b8204811683860152600160481b8204811683880152600160501b9091041660608201529281018054855181850281018501909652808652939491936080860193830182828015610b7257602002820191906000526020600020905b81546001600160a01b03168152600190910190602001808311610b54575b5050505050815260200160028201805480602002602001604051908101604052809291908181526020018280548015610bd457602002820191906000526020600020905b81546001600160a01b03168152600190910190602001808311610bb6575b505050505081525050905092915050565b60408051808201909152600080825260208201526060610c07868686866117c1565b600654604051631f5dad8b60e31b81529294509092506001600160a01b03169063faed6c5890610c3f908490899089906004016141cd565b600060405180830381600087803b158015610c5957600080fd5b505af1158015610c6d573d6000803e3d6000fd5b5050505094509492505050565b610c82613644565b63ffffffff821660008181527fa6eef7e35abe7026729641147f7915573c7e97b47efa546f5f6e3230263bcb49602090815260408083206001600160a01b03881684526001835281842094845293909152902080546001600160401b031680610cf75782546001600160401b03168452610d14565b6001600160401b0381811614610d14576001600160401b03811684525b8154600160401b900460ff16610dae578254600160401b900460ff1615610da95782600101805480602002602001604051908101604052809291908181526020018280548015610d8d57602002820191906000526020600020905b81546001600160a01b03168152600190910190602001808311610d6f575b505050505060808501528254600160401b900460ff1660208501525b610e35565b8154600160401b900460ff90811614610e355781600101805480602002602001604051908101604052809291908181526020018280548015610e1957602002820191906000526020600020905b81546001600160a01b03168152600190910190602001808311610dfb575b505050505060808501528154600160401b900460ff1660208501525b8154600160481b900460ff16610ede578254600160481b900460ff1615610ed95782600201805480602002602001604051908101604052809291908181526020018280548015610eae57602002820191906000526020600020905b81546001600160a01b03168152600190910190602001808311610e90575b505050505060a0850152825460ff600160481b820481166040870152600160501b9091041660608501525b610f74565b8154600160481b900460ff90811614610f745781600201805480602002602001604051908101604052809291908181526020018280548015610f4957602002820191906000526020600020905b81546001600160a01b03168152600190910190602001808311610f2b575b505050505060a0850152815460ff600160481b820481166040870152600160501b9091041660608501525b610f7d846114f0565b50505092915050565b600061058482611895565b610f996114c3565b610fa360006118f0565b565b606060001963ffffffff831601610fe657610fc0838561058a565b604051602001610fd091906137a2565b6040516020818303038152906040529050611030565b60011963ffffffff83160161100f57610fff8385610c7a565b604051602001610fd091906139c0565b604051635d4be0fd60e11b815263ffffffff831660048201526024016108fa565b9392505050565b61103f6114c3565b60005b8181101561113e573683838381811061105d5761105d613c94565b606090810292909201925060009161107b9150830160408401613c2e565b6001600160a01b0316036110a257604051631074e82d60e11b815260040160405180910390fd5b6110b26040820160208301613b0f565b63ffffffff166000036110d8576040516349cfac4360e01b815260040160405180910390fd5b6000808052600460209081528201907f17ef568e3e12ab5b9c7254a8d58478811de00f9e6eb34345acd53bf8fd09d3ec906111138385613b0f565b63ffffffff16815260208101919091526040016000206111338282614213565b505050600101611042565b507f2b001e1c6683bf79cc52891bd7215b204c787d18134fc7f3d21b4f32a49e47de8282604051610a9e92919061426c565b6111786114c3565b6002548111156111a95760025460405163068109f760e31b81526108fa918391600401918252602082015260400190565b60028190556040518181527f491ff913b5444f4136b0d4075f020cfe3a5f60de926ec0b091612401a22b7842906020015b60405180910390a150565b604080518082019091526000808252602082015260008061123661120f6060890160408a01613c2e565b61121f60808a0160608b01613b0f565b61122c60c08b018b613cca565b9050878a8a611940565b604080518082019091529182526020820152925050505b949350505050565b61125d6114c3565b61126681611a39565b50565b6112716114c3565b6001600160a01b03811661129b57604051631e4fbdf760e01b8152600060048201526024016108fa565b611266816118f0565b6112ad81611a87565b60007f00000000000000000000000000000000000000000000000000000000000000006001600160a01b031663e1758bd86040518163ffffffff1660e01b8152600401602060405180830381865afa15801561130d573d6000803e3d6000fd5b505050506040513d601f19601f820116820180604052508101906113319190613c77565b905061133e818484611ad8565b604080513381526001600160a01b03851660208201529081018390527f820b7fd51bf79c54350bab98400651b3314ff6e79b33528821871d94a666988390606001610790565b6001600160a01b0382166113ab576040516306b7a93160e41b815260040160405180910390fd5b6113bf6001600160a01b0384168383611afb565b505050565b6113cd81611895565b61126657604051633c30434160e21b815263ffffffff821660048201526024016108fa565b6001600160a01b03808316600090815260046020908152604080832063ffffffff8089168552908352928190208551815493870151909516640100000000026001600160c01b03199093169490931693909317179055517f779cb2dd9d2bb1be1737d05435d744facbfb84a2a4912e21379d39beddcdc80590610790908490869085906142ec565b611485828483611528565b61148f8284610c7a565b507f82118522aa536ac0e96cc5c689407ae42b89d592aa133890a01f1509842f50818284836040516107909392919061432e565b6000546001600160a01b03163314610fa35760405163118cdaa760e01b81523360048201526024016108fa565b602081015160ff1615801561150a5750606081015160ff16155b156112665760405163ce2c375160e01b815260040160405180910390fd5b602081015160ff90811614806115435750602081015160ff16155b15611571576080810151511561156c576040516341d50bed60e11b815260040160405180910390fd5b6115d7565b806020015160ff168160800151511415806115ac57506002611595600160ff614374565b61159f919061438d565b60ff16816020015160ff16115b156115ca576040516341d50bed60e11b815260040160405180910390fd5b6115d78160800151611b4d565b604081015160ff90811614806115f25750604081015160ff16155b156116465760a0810151511561161b5760405163211089b360e11b815260040160405180910390fd5b606081015160ff1615611641576040516338682fa960e01b815260040160405180910390fd5b6116eb565b806040015160ff168160a00151511415806116815750600261166a600160ff614374565b611674919061438d565b60ff16816040015160ff16115b1561169f5760405163211089b360e11b815260040160405180910390fd5b606081015160ff1615806116c05750806040015160ff16816060015160ff16115b156116de576040516338682fa960e01b815260040160405180910390fd5b6116eb8160a00151611b4d565b6001600160a01b038316600090815260016020818152604080842063ffffffff8716855282529283902084518154868401519587015160608801516001600160401b0390931668ffffffffffffffffff1990921691909117600160401b60ff97881602176affff0000000000000000001916600160481b9187169190910260ff60501b191617600160501b95909116949094029390931783556080840151805185949361179d9390850192019061368c565b5060a082015180516117b991600284019160209091019061368c565b505050505050565b604080518082019091526000808252602082015260607f00000000000000000000000000000000000000000000000000000000000000006001600160a01b031633146118205760405163467409c360e01b815260040160405180910390fd5b60008061182e888888611bb4565b909250905060008061186061184960608c0160408d01613c2e565b61185960808d0160608e01613b0f565b858a611c81565b909250905061186f82846143bd565b604080518082019091529081526020810191909152945091925050505b94509492505050565b63ffffffff811660009081527fa6eef7e35abe7026729641147f7915573c7e97b47efa546f5f6e3230263bcb49602052604081208054600160401b900460ff16151580611030575054600160501b900460ff16151592915050565b600080546001600160a01b038381166001600160a01b0319831681178455604051919092169283917f8be0079c531659141344cd1fd0a4f28419497f9722a3daafe3b4186f6b6457e09190a35050565b6000806000806119508686611d8f565b9150915060006119618b8b84611da8565b9050600061196f8c8c61058a565b90506119858a826000015163ffffffff16611db5565b80602001516001600160a01b031663709eb6648c8e8d886040518563ffffffff1660e01b81526004016119bb94939291906143d0565b602060405180830381865afa1580156119d8573d6000803e3d6000fd5b505050506040513d601f19601f820116820180604052508101906119fc9190614403565b611a0690836143bd565b9150600080611a178e8e868e611de4565b9092509050611a2682856143bd565b9e909d509b505050505050505050505050565b600380546001600160a01b0319166001600160a01b0383169081179091556040519081527f3c864541ef71378c6229510ed90f376565ee42d9c5e0904a984a9e863e6db44f906020016111da565b3360009081526005602052604090205480821115611ac25760405163068109f760e31b815260048101839052602481018290526044016108fa565b3360009081526005602052604090209190039055565b6001600160a01b038316611af0576113bf8282611eb5565b6113bf838383611384565b604080516001600160a01b038416602482015260448082018490528251808303909101815260649091019091526020810180516001600160e01b031663a9059cbb60e01b1790526113bf908490611f62565b6000805b82518110156113bf576000838281518110611b6e57611b6e613c94565b60200260200101519050826001600160a01b0316816001600160a01b031611611baa5760405163447516e160e01b815260040160405180910390fd5b9150600101611b51565b60606000806000611bc58686611d8f565b90925090506000611bef611bdf60608a0160408b01613c2e565b6101e360808b0160608c01613b0f565b90506000611c0060c08a018a613cca565b90509050611c1881836000015163ffffffff16611db5565b6020820151611c4890611c3160808c0160608d01613b0f565b611c4160608d0160408e01613c2e565b8488611fc5565b611c5290866143bd565b9450600080611c618b866120be565b9092509050611c7082886143bd565b909b909a5098505050505050505050565b60035460009081906001600160a01b03161561188c576040516001600160a01b038716602482015263ffffffff8616604482015260648101859052831515608482015260009060a40160408051601f19818403018152919052602080820180516001600160e01b0316636a8e2a4360e11b1790526003549192506000918291611d38916001600160a01b0316907f0000000000000000000000000000000000000000000000000000000000000000908490876120e1565b91509150611d4887878484612191565b90955093508415611d83576003546001600160a01b031660009081526005602052604081208054879290611d7d9084906143bd565b90915550505b50505094509492505050565b606080611d9c848461220c565b915091505b9250929050565b600061124d8484846122f9565b80821115611de057604051636333d79f60e11b815260048101839052602481018290526044016108fa565b5050565b60035460009081906001600160a01b03161561188c576040516001600160a01b038716602482015263ffffffff8616604482015260648101859052831515608482015260009060a40160408051601f19818403018152919052602080820180516001600160e01b031663d424422160e01b1790526003549192506000918291611e99916001600160a01b0316907f00000000000000000000000000000000000000000000000000000000000000009086612373565b91509150611ea987878484612191565b9450945050505061188c565b6001600160a01b038216611edc576040516306b7a93160e41b815260040160405180910390fd5b6000826001600160a01b03168260405160006040518083038185875af1925050503d8060008114611f29576040519150601f19603f3d011682016040523d82523d6000602084013e611f2e565b606091505b50509050806113bf57604051631196f20d60e21b81526001600160a01b0384166004820152602481018390526044016108fa565b6000611f776001600160a01b0384168361241f565b90508051600014158015611f9c575080806020019051810190611f9a919061441c565b155b156113bf57604051635274afe760e01b81526001600160a01b03841660048201526024016108fa565b6040516338bf452160e11b81526000906001600160a01b0387169063717e8a4290611ffa9088908890889088906004016143d0565b6020604051808303816000875af1158015612019573d6000803e3d6000fd5b505050506040513d601f19601f8201168201806040525081019061203d9190614403565b90508015612073576001600160a01b0386166000908152600560205260408120805483929061206d9084906143bd565b90915550505b604080516001600160a01b0388168152602081018390527f61ed099e74a97a1d7f8bb0952a88ca8b7b8ebd00c126ea04671f92a81213318a910160405180910390a195945050505050565b600060606120d660056120d0866144a8565b8561242d565b909590945092505050565b60006060863b80830361210857604080516000808252602082019092529250925050612187565b60008060008761ffff166001600160401b0381111561212957612129613d10565b6040519080825280601f01601f191660200182016040528015612153576020820181803683370190505b509050600080885160208a018c8f8ff191503d925087831115612174578792505b828152826000602083013e909450925050505b9550959350505050565b6000808315806121a2575082516020115b156121b25750600090508061188c565b6000838060200190518101906121c89190614403565b905085156121d857809150612202565b600060025488116121eb576002546121ed565b875b90508082116121fc57816121fe565b805b9350505b5094509492505050565b60608060008061221c868661257b565b91509150805160000361227457604080516000808252602082019092528391612268565b6040805180820190915260008152606060208201528152602001906001900390816122405790505b50935093505050611da1565b604080516001808252818301909252600091816020015b60408051808201909152600081526060602082015281526020019060019003908161228b5790505090506040518060400160405280600260ff16815260200183815250816000815181106122e1576122e1613c94565b60209081029190910101529196919550909350505050565b6000806123068585610c7a565b905060008351600014612337578360008151811061232657612326613c94565b602002602001015160200151612348565b604051806020016040528060008152505b90506000806123568361273a565b9150915061236784888a85856129a0565b98975050505050505050565b60006060853b80830361239a5760408051600080825260208201909252925092505061188c565b60008060008761ffff166001600160401b038111156123bb576123bb613d10565b6040519080825280601f01601f1916602001820160405280156123e5576020820181803683370190505b509050600080885160208a018d8dfa91503d925087831115612405578792505b828152826000602083013e90999098509650505050505050565b606061103083836000612b38565b60006060600061243c85612bd5565b9050600061244986612c62565b80516020820120606088015160408901519293509091600061246b8284610c7a565b90506000895160001461249c578960008151811061248b5761248b613c94565b6020026020010151602001516124ad565b604051806020016040528060008152505b905060606124ff8d846040518060a001604052808963ffffffff1681526020018c81526020018a815260200187600001516001600160401b03168152602001886001600160a01b031681525085612c7f565b604051919b5091506125179089908990602001614545565b60405160208183030381529060405298507f07ea52d82345d6e838192107d8fd7123d9c2ec8e916cd0aad13fd2b60db2464483608001518460a001518360405161256393929190614574565b60405180910390a15050505050505050935093915050565b60608060028310156125a35760405163196499c760e21b8152600060048201526024016108fa565b60006125b260028286886145d2565b6125bb916145fc565b60f01c905060026002198201612723578060005b868310156126c85760006125e860018501858a8c6145d2565b6125f19161462c565b60f81c9050600081900361261b57604051636780cfaf60e01b8152600060048201526024016108fa565b8160ff1660000361262e5780915061266b565b8160ff168160ff161461266b5736600061264a86868c8e6145d2565b9150915061265b8989868585612f1d565b9099509750859450919250829150505b600184019360009061268290600301868b8d6145d2565b61268b916145fc565b60f01c905060008190036126b55760405163196499c760e21b8152600481018690526024016108fa565b8060020161ffff168501945050506125cf565b8287146126eb5760405163196499c760e21b8152600481018490526024016108fa565b600287111561271c5736600061270385858b8d6145d2565b915091506127148888858585612f1d565b909850965050505b5050612731565b61272e82878761303d565b93505b50509250929050565b606080825160000361274b57915091565b6000612756846131c8565b90508060ff166001036128085760408051600180825281830190925290816020015b606081526020019060019003908161277857905050925083836000815181106127a3576127a3613c94565b6020908102919091010152604080516001808252818301909252908160200160208202803683370190505091506127db8460036132a2565b826000815181106127ee576127ee613c94565b602002602001019060ff16908160ff168152505050915091565b8060ff166001600160401b0381111561282357612823613d10565b60405190808252806020026020018201604052801561284c578160200160208202803683370190505b5091508060ff166001600160401b0381111561286a5761286a613d10565b60405190808252806020026020018201604052801561289d57816020015b60608152602001906001900390816128885790505b50925060008060ff5b86518310156129335760019092019160006128c188856132fe565b60029490940193905060006128d689866132a2565b90508260ff1660ff036128eb57809250612924565b8260ff168160ff16146129245760021984860301600061290c8b878461335b565b905061291a8a8a8784613468565b5093909301929150815b5061ffff1692909201916128a6565b818303600061294389858461335b565b905061295188888584613468565b60005b8660ff168160ff16101561299457878160ff168151811061297757612977613c94565b6020908102919091010180516000190160ff169052600101612954565b50505050505050915091565b600080866040015187602001516129b7919061465a565b905060005b8160ff168160ff161015612b2d576000886020015160ff168260ff1610612a115760a089015160208a01516129f19084614374565b60ff1681518110612a0457612a04613c94565b6020026020010151612a33565b88608001518260ff1681518110612a2a57612a2a613c94565b60200260200101515b60408051602081019091526000808252919250905b8651811015612aa0578360ff16878281518110612a6757612a67613c94565b602002602001015160ff1603612a9857878181518110612a8957612a89613c94565b60200260200101519150612aa0565b600101612a48565b508951604051630c2eceab60e21b81526001600160a01b038416916330bb3aac91612ad3918d918d908790600401614673565b602060405180830381865afa158015612af0573d6000803e3d6000fd5b505050506040513d601f19601f82011682018060405250810190612b149190614403565b612b1e90866143bd565b945050508060010190506129bc565b505095945050505050565b606081471015612b5d5760405163cd78605960e01b81523060048201526024016108fa565b600080856001600160a01b03168486604051612b7991906146b2565b60006040518083038185875af1925050503d8060008114612bb6576040519150601f19603f3d011682016040523d82523d6000602084013e612bbb565b606091505b5091509150612bcb86838361357e565b9695505050505050565b805160208083015160408085015160608087015160808801519351600160f81b9681019690965260c09690961b6001600160c01b031916602186015260e093841b6001600160e01b031990811660298701526001600160a01b03909216602d8601529490921b909116604d83015260518201526071015b6040516020818303038152906040529050919050565b60608160a001518260c00151604051602001612c4c9291906146c4565b60006060600080612c8f8561273a565b91509150600087604001518860200151612ca9919061465a565b90508060ff166001600160401b03811115612cc657612cc6613d10565b604051908082528060200260200182016040528015612cef578160200160208202803683370190505b50935060005b8160ff168160ff161015610c6d576000896020015160ff168260ff1610612d4a5760a08a015160208b0151612d2a9084614374565b60ff1681518110612d3d57612d3d613c94565b6020026020010151612d6c565b89608001518260ff1681518110612d6357612d63613c94565b60200260200101515b60408051602081019091526000808252919250905b8551811015612dd9578360ff16868281518110612da057612da0613c94565b602002602001015160ff1603612dd157868181518110612dc257612dc2613c94565b60200260200101519150612dd9565b600101612d81565b506040516395d376d760e01b81526001600160a01b038316906395d376d790612e08908d9085906004016146ea565b6020604051808303816000875af1158015612e27573d6000803e3d6000fd5b505050506040513d601f19601f82011682018060405250810190612e4b9190614403565b878460ff1681518110612e6057612e60613c94565b6020026020010181815250506000878460ff1681518110612e8357612e83613c94565b60200260200101511115612f1357868360ff1681518110612ea657612ea6613c94565b60200260200101518c6000846001600160a01b03166001600160a01b031681526020019081526020016000206000828254612ee191906143bd565b92505081905550868360ff1681518110612efd57612efd613c94565b602002602001015188612f1091906143bd565b97505b5050600101612cf5565b60608060001960ff861601612f9a57865115612f5c57868484604051602001612f489392919061475c565b604051602081830303815290604052612f93565b83838080601f0160208091040260200160405190810160405280939291908181526020018383808284376000920191909152505050505b9650613032565b60011960ff86160161301457855115612fd657858484604051602001612fc29392919061475c565b60405160208183030381529060405261300d565b83838080601f0160208091040260200160405190810160405280939291908181526020018383808284376000920191909152505050505b9550613032565b604051636780cfaf60e01b815260ff861660048201526024016108fa565b509495939450505050565b606060001961ffff8516016130dd576022821461306d576040516301b8ca5560e31b815260040160405180910390fd5b600061308e6130806022600286886145d2565b61308991614784565b6135da565b604051600160f81b60208201819052601160f01b602183015260238201526001600160801b0319608083901b166024820152909150603401604051602081830303815290604052915050611030565b60011961ffff8516016131a9576042821115806130fa5750606282115b15613118576040516360493e2b60e11b815260040160405180910390fd5b600061312b6130806022600286886145d2565b905060006131406130806042602287896145d2565b905060006041198501613156866042818a6145d2565b61315f91614784565b60405160086020938403029190911c9250613190916001916011918391889183916031916002918b918b91016147a2565b6040516020818303038152906040529350505050611030565b604051630417051360e41b815261ffff851660048201526024016108fa565b600080805b83518210156132775760019091019060006131e885846132fe565b905060028301925060028161ffff1610156132195760405163013adb8360e21b8152600481018490526024016108fa565b600061322586856132a2565b90508060ff1660ff0361324b576040516334f4f66f60e21b815260040160405180910390fd5b600160ff82161b83166132685760019485019460ff82161b831792505b5061ffff1691909101906131cd565b8351821461329b5760405163013adb8360e21b8152600481018390526024016108fa565b5050919050565b60006132af8260016143bd565b835110156132f55760405162461bcd60e51b8152602060048201526013602482015272746f55696e74385f6f75744f66426f756e647360681b60448201526064016108fa565b50016001015190565b600061330b8260026143bd565b835110156133525760405162461bcd60e51b8152602060048201526014602482015273746f55696e7431365f6f75744f66426f756e647360601b60448201526064016108fa565b50016002015190565b60608161336981601f6143bd565b10156133a85760405162461bcd60e51b815260206004820152600e60248201526d736c6963655f6f766572666c6f7760901b60448201526064016108fa565b6133b282846143bd565b845110156133f65760405162461bcd60e51b8152602060048201526011602482015270736c6963655f6f75744f66426f756e647360781b60448201526064016108fa565b606082158015613415576040519150600082526020820160405261345f565b6040519150601f8416801560200281840101858101878315602002848b0101015b8183101561344e578051835260209283019201613436565b5050858452601f01601f1916604052505b50949350505050565b8160ff1660ff0361348c576040516334f4f66f60e21b815260040160405180910390fd5b600061349983600161465a565b905060005b84518110156117b95760008582815181106134bb576134bb613c94565b602002602001015190508060ff168360ff1603613530578682815181106134e4576134e4613c94565b6020026020010151846040516020016134fe929190614545565b60405160208183030381529060405287838151811061351f5761351f613c94565b6020026020010181905250506117b9565b8060ff16600003613575578286838151811061354e5761354e613c94565b602002602001019060ff16908160ff16815250508387838151811061351f5761351f613c94565b5060010161349e565b6060826135935761358e8261361b565b611030565b81511580156135aa57506001600160a01b0384163b155b156135d357604051639996b31560e01b81526001600160a01b03851660048201526024016108fa565b5080611030565b60006fffffffffffffffffffffffffffffffff821115613617576040516306dfcc6560e41b815260806004820152602481018390526044016108fa565b5090565b80511561362b5780518082602001fd5b604051630a12f52160e11b815260040160405180910390fd5b6040518060c0016040528060006001600160401b03168152602001600060ff168152602001600060ff168152602001600060ff16815260200160608152602001606081525090565b8280548282559060005260206000209081019282156136e1579160200282015b828111156136e157825182546001600160a01b0319166001600160a01b039091161782556020909201916001909101906136ac565b506136179291505b8082111561361757600081556001016136e9565b60006020828403121561370f57600080fd5b81356001600160e01b03198116811461103057600080fd5b6001600160a01b038116811461126657600080fd5b803561374781613727565b919050565b63ffffffff8116811461126657600080fd5b80356137478161374c565b6000806040838503121561377c57600080fd5b823561378781613727565b915060208301356137978161374c565b809150509250929050565b815163ffffffff1681526020808301516001600160a01b03169082015260408101610584565b60208101600383106137ea57634e487b7160e01b600052602160045260246000fd5b91905290565b60008060006060848603121561380557600080fd5b833561381081613727565b9250602084013561382081613727565b929592945050506040919091013590565b60008083601f84011261384357600080fd5b5081356001600160401b0381111561385a57600080fd5b6020830191508360208260051b8501011115611da157600080fd5b60008060006040848603121561388a57600080fd5b833561389581613727565b925060208401356001600160401b038111156138b057600080fd5b6138bc86828701613831565b9497909650939450505050565b600080602083850312156138dc57600080fd5b82356001600160401b038111156138f257600080fd5b6138fe85828601613831565b90969095509350505050565b60008151808452602080850194506020840160005b838110156139445781516001600160a01b03168752958201959082019060010161391f565b509495945050505050565b6001600160401b03815116825260ff602082015116602083015260ff604082015116604083015260ff60608201511660608301526000608082015160c0608085015261399e60c085018261390a565b905060a083015184820360a08601526139b7828261390a565b95945050505050565b602081526000611030602083018461394f565b801515811461126657600080fd5b8035613747816139d3565b60008060008060608587031215613a0257600080fd5b84356001600160401b0380821115613a1957600080fd5b9086019060e08289031215613a2d57600080fd5b90945060208601359080821115613a4357600080fd5b818701915087601f830112613a5757600080fd5b813581811115613a6657600080fd5b886020828501011115613a7857600080fd5b602083019550809450505050613a90604086016139e1565b905092959194509250565b60005b83811015613ab6578181015183820152602001613a9e565b50506000910152565b60008151808452613ad7816020860160208601613a9b565b601f01601f19169290920160200192915050565b825181526020808401519082015260606040820152600061124d6060830184613abf565b600060208284031215613b2157600080fd5b81356110308161374c565b600080600060608486031215613b4157600080fd5b8335613b4c8161374c565b92506020840135613b5c81613727565b91506040840135613b6c8161374c565b809150509250925092565b6020815260006110306020830184613abf565b60008060208385031215613b9d57600080fd5b82356001600160401b0380821115613bb457600080fd5b818501915085601f830112613bc857600080fd5b813581811115613bd757600080fd5b866020606083028501011115613bec57600080fd5b60209290920196919550909350505050565b600060208284031215613c1057600080fd5b5035919050565b815181526020808301519082015260408101610584565b600060208284031215613c4057600080fd5b813561103081613727565b60008060408385031215613c5e57600080fd5b8235613c6981613727565b946020939093013593505050565b600060208284031215613c8957600080fd5b815161103081613727565b634e487b7160e01b600052603260045260246000fd5b60008235605e19833603018112613cc057600080fd5b9190910192915050565b6000808335601e19843603018112613ce157600080fd5b8301803591506001600160401b03821115613cfb57600080fd5b602001915036819003821315611da157600080fd5b634e487b7160e01b600052604160045260246000fd5b60405160c081016001600160401b0381118282101715613d4857613d48613d10565b60405290565b60405160e081016001600160401b0381118282101715613d4857613d48613d10565b604051601f8201601f191681016001600160401b0381118282101715613d9857613d98613d10565b604052919050565b600060408284031215613db257600080fd5b604051604081018181106001600160401b0382111715613dd457613dd4613d10565b6040528235613de28161374c565b81526020830135613df281613727565b60208201529392505050565b80356001600160401b038116811461374757600080fd5b803560ff8116811461374757600080fd5b600082601f830112613e3757600080fd5b813560206001600160401b03821115613e5257613e52613d10565b8160051b613e61828201613d70565b9283528481018201928281019087851115613e7b57600080fd5b83870192505b84831015613ea3578235613e9481613727565b82529183019190830190613e81565b979650505050505050565b600060c08284031215613ec057600080fd5b613ec8613d26565b9050613ed382613dfe565b8152613ee160208301613e15565b6020820152613ef260408301613e15565b6040820152613f0360608301613e15565b606082015260808201356001600160401b0380821115613f2257600080fd5b613f2e85838601613e26565b608084015260a0840135915080821115613f4757600080fd5b50613f5484828501613e26565b60a08301525092915050565b600060208284031215613f7257600080fd5b81356001600160401b03811115613f8857600080fd5b61124d84828501613eae565b60008235603e19833603018112613cc057600080fd5b6000823560be19833603018112613cc057600080fd5b600060208284031215613fd257600080fd5b61103082613e15565b600060208284031215613fed57600080fd5b61103082613dfe565b60006105843683613eae565b6000808335601e1984360301811261401957600080fd5b83016020810192503590506001600160401b0381111561403857600080fd5b8060051b3603821315611da157600080fd5b8183526000602080850194508260005b8581101561394457813561406d81613727565b6001600160a01b03168752958201959082019060010161405a565b60208082528181018390526000906040808401600586901b8501820187855b888110156141bf57603f19808985030185528235603e198c36030181126140cd57600080fd5b8b0180356140da8161374c565b63ffffffff168552808801353682900360be190181126140f957600080fd5b858901889052016001600160401b0361411182613dfe565b1687860152614121888201613e15565b606060ff808316828901526141378a8501613e15565b92506080818416818a015261414d838601613e15565b935060a09250818416838a015261416681860186614002565b60c08b8101529450915061418190506101008901848361404a565b92505061419081840184614002565b93509050838783030160e08801526141a982848361404a565b978a0197965050509287019250506001016140a7565b509098975050505050505050565b6040815260006141e06040830186613abf565b8281036020840152838152838560208301376000602085830101526020601f19601f860116820101915050949350505050565b813561421e8161374c565b63ffffffff8116905081548163ffffffff198216178355602084013561424381613727565b6001600160c01b03199190911690911760209190911b640100000000600160c01b031617905550565b6020808252818101839052600090604080840186845b878110156142df5781356142958161374c565b63ffffffff908116845282860135906142ad8261374c565b1683860152818401356142bf81613727565b6001600160a01b0316838501526060928301929190910190600101614282565b5090979650505050505050565b6001600160a01b038416815263ffffffff831660208201526080810161124d6040830184805163ffffffff1682526020908101516001600160a01b0316910152565b6001600160a01b038416815263ffffffff831660208201526060604082018190526000906139b79083018461394f565b634e487b7160e01b600052601160045260246000fd5b60ff82811682821603908111156105845761058461435e565b600060ff8316806143ae57634e487b7160e01b600052601260045260246000fd5b8060ff84160491505092915050565b808201808211156105845761058461435e565b63ffffffff8516815260018060a01b0384166020820152826040820152608060608201526000612bcb6080830184613abf565b60006020828403121561441557600080fd5b5051919050565b60006020828403121561442e57600080fd5b8151611030816139d3565b600082601f83011261444a57600080fd5b81356001600160401b0381111561446357614463613d10565b614476601f8201601f1916602001613d70565b81815284602083860101111561448b57600080fd5b816020850160208301376000918101602001919091529392505050565b600060e082360312156144ba57600080fd5b6144c2613d4e565b6144cb83613dfe565b81526144d96020840161375e565b60208201526144ea6040840161373c565b60408201526144fb6060840161375e565b60608201526080830135608082015260a083013560a082015260c08301356001600160401b0381111561452d57600080fd5b61453936828601614439565b60c08301525092915050565b60008351614557818460208801613a9b565b83519083019061456b818360208801613a9b565b01949350505050565b606081526000614587606083018661390a565b6020838203602085015261459b828761390a565b84810360408601528551808252602080880194509091019060005b818110156141bf578451835293830193918301916001016145b6565b600080858511156145e257600080fd5b838611156145ef57600080fd5b5050820193919092039150565b6001600160f01b031981358181169160028510156146245780818660020360031b1b83161692505b505092915050565b6001600160f81b031981358181169160018510156146245760019490940360031b84901b1690921692915050565b60ff81811683821601908111156105845761058461435e565b63ffffffff851681526001600160401b03841660208201526001600160a01b0383166040820152608060608201819052600090612bcb90830184613abf565b60008251613cc0818460208701613a9b565b828152600082516146dc816020850160208701613a9b565b919091016020019392505050565b6040815263ffffffff83511660408201526000602084015160a0606084015261471660e0840182613abf565b604086015160808581019190915260608701516001600160401b031660a08601528601516001600160a01b031660c0850152838103602085015290506139b78185613abf565b6000845161476e818460208901613a9b565b8201838582376000930192835250909392505050565b8035602083101561058457600019602084900360031b1b1692915050565b60f88a811b6001600160f81b0319908116835260f08b811b6001600160f01b031990811660018601528b841b8316600386015260808b901b6001600160801b031916600486015289841b831660148601529088901b1660158401529085901b1660178201526000614822601883018560801b6001600160801b0319169052565b5060288101919091526048019897505050505050505056fea26469706673582212209c4e56d6c67105dfab95a5db652280357c444a31ddd8e746e20a46bf6d44b3bb64736f6c63430008160033",
    "linkReferences": {}
  },
  "methodIdentifiers": {
    "executorConfigs(address,uint32)": "4d963200",
    "fees(address)": "faaebd21",
    "getAppUlnConfig(address,uint32)": "39e3f938",
    "getConfig(uint32,address,uint32)": "9c33abf7",
    "getExecutorConfig(address,uint32)": "188183f4",
    "getUlnConfig(address,uint32)": "43ea4fa9",
    "isSupportedEid(uint32)": "6750cd4c",
    "messageLibType()": "1881d94d",
    "owner()": "8da5cb5b",
    "quote((uint64,uint32,address,uint32,bytes32,bytes32,bytes),bytes,bool)": "d80e9bd9",
    "renounceOwnership()": "715018a6",
    "send((uint64,uint32,address,uint32,bytes32,bytes32,bytes),bytes,bool)": "4389e58f",
    "setConfig(address,(uint32,uint32,bytes)[])": "20efd722",
    "setDefaultExecutorConfigs((uint32,(uint32,address))[])": "c14c4349",
    "setDefaultUlnConfigs((uint32,(uint64,uint8,uint8,uint8,address[],address[]))[])": "29460b0b",
    "setTreasury(address)": "f0f44260",
    "setTreasuryNativeFeeCap(uint256)": "d15b0d49",
    "supportsInterface(bytes4)": "01ffc9a7",
    "testHelper()": "0e97289b",
    "transferOwnership(address)": "f2fde38b",
    "treasury()": "61d027b3",
    "version()": "54fd4d50",
    "withdrawFee(address,uint256)": "fd9be522",
    "withdrawLzTokenFee(address,address,uint256)": "200175f7"
  },
  "id": 80
}