{
  "abi": [
    {
      "type": "constructor",
      "inputs": [
        {
          "name": "_endpoint",
          "type": "address",
          "internalType": "address"
        }
      ],
      "stateMutability": "nonpayable"
    },
    {
      "type": "function",
      "name": "assertHeader",
      "inputs": [
        {
          "name": "_packetHeader",
          "type": "bytes",
          "internalType": "bytes"
        },
        {
          "name": "_localEid",
          "type": "uint32",
          "internalType": "uint32"
        }
      ],
      "outputs": [],
      "stateMutability": "pure"
    },
    {
      "type": "function",
      "name": "commitVerification",
      "inputs": [
        {
          "name": "_packetHeader",
          "type": "bytes",
          "internalType": "bytes"
        },
        {
          "name": "_payloadHash",
          "type": "bytes32",
          "internalType": "bytes32"
        }
      ],
      "outputs": [],
      "stateMutability": "nonpayable"
    },
    {
      "type": "function",
      "name": "getAppUlnConfig",
      "inputs": [
        {
          "name": "_oapp",
          "type": "address",
          "internalType": "address"
        },
        {
          "name": "_remoteEid",
          "type": "uint32",
          "internalType": "uint32"
        }
      ],
      "outputs": [
        {
          "name": "",
          "type": "tuple",
          "internalType": "struct UlnConfig",
          "components": [
            {
              "name": "confirmations",
              "type": "uint64",
              "internalType": "uint64"
            },
            {
              "name": "requiredDVNCount",
              "type": "uint8",
              "internalType": "uint8"
            },
            {
              "name": "optionalDVNCount",
              "type": "uint8",
              "internalType": "uint8"
            },
            {
              "name": "optionalDVNThreshold",
              "type": "uint8",
              "internalType": "uint8"
            },
            {
              "name": "requiredDVNs",
              "type": "address[]",
              "internalType": "address[]"
            },
            {
              "name": "optionalDVNs",
              "type": "address[]",
              "internalType": "address[]"
            }
          ]
        }
      ],
      "stateMutability": "view"
    },
    {
      "type": "function",
      "name": "getConfig",
      "inputs": [
        {
          "name": "_eid",
          "type": "uint32",
          "internalType": "uint32"
        },
        {
          "name": "_oapp",
          "type": "address",
          "internalType": "address"
        },
        {
          "name": "_configType",
          "type": "uint32",
          "internalType": "uint32"
        }
      ],
      "outputs": [
        {
          "name": "",
          "type": "bytes",
          "internalType": "bytes"
        }
      ],
      "stateMutability": "view"
    },
    {
      "type": "function",
      "name": "getUlnConfig",
      "inputs": [
        {
          "name": "_oapp",
          "type": "address",
          "internalType": "address"
        },
        {
          "name": "_remoteEid",
          "type": "uint32",
          "internalType": "uint32"
        }
      ],
      "outputs": [
        {
          "name": "rtnConfig",
          "type": "tuple",
          "internalType": "struct UlnConfig",
          "components": [
            {
              "name": "confirmations",
              "type": "uint64",
              "internalType": "uint64"
            },
            {
              "name": "requiredDVNCount",
              "type": "uint8",
              "internalType": "uint8"
            },
            {
              "name": "optionalDVNCount",
              "type": "uint8",
              "internalType": "uint8"
            },
            {
              "name": "optionalDVNThreshold",
              "type": "uint8",
              "internalType": "uint8"
            },
            {
              "name": "requiredDVNs",
              "type": "address[]",
              "internalType": "address[]"
            },
            {
              "name": "optionalDVNs",
              "type": "address[]",
              "internalType": "address[]"
            }
          ]
        }
      ],
      "stateMutability": "view"
    },
    {
      "type": "function",
      "name": "hashLookup",
      "inputs": [
        {
          "name": "headerHash",
          "type": "bytes32",
          "internalType": "bytes32"
        },
        {
          "name": "payloadHash",
          "type": "bytes32",
          "internalType": "bytes32"
        },
        {
          "name": "dvn",
          "type": "address",
          "internalType": "address"
        }
      ],
      "outputs": [
        {
          "name": "submitted",
          "type": "bool",
          "internalType": "bool"
        },
        {
          "name": "confirmations",
          "type": "uint64",
          "internalType": "uint64"
        }
      ],
      "stateMutability": "view"
    },
    {
      "type": "function",
      "name": "isSupportedEid",
      "inputs": [
        {
          "name": "_eid",
          "type": "uint32",
          "internalType": "uint32"
        }
      ],
      "outputs": [
        {
          "name": "",
          "type": "bool",
          "internalType": "bool"
        }
      ],
      "stateMutability": "view"
    },
    {
      "type": "function",
      "name": "messageLibType",
      "inputs": [],
      "outputs": [
        {
          "name": "",
          "type": "uint8",
          "internalType": "enum MessageLibType"
        }
      ],
      "stateMutability": "pure"
    },
    {
      "type": "function",
      "name": "owner",
      "inputs": [],
      "outputs": [
        {
          "name": "",
          "type": "address",
          "internalType": "address"
        }
      ],
      "stateMutability": "view"
    },
    {
      "type": "function",
      "name": "renounceOwnership",
      "inputs": [],
      "outputs": [],
      "stateMutability": "nonpayable"
    },
    {
      "type": "function",
      "name": "setConfig",
      "inputs": [
        {
          "name": "_oapp",
          "type": "address",
          "internalType": "address"
        },
        {
          "name": "_params",
          "type": "tuple[]",
          "internalType": "struct SetConfigParam[]",
          "components": [
            {
              "name": "eid",
              "type": "uint32",
              "internalType": "uint32"
            },
            {
              "name": "configType",
              "type": "uint32",
              "internalType": "uint32"
            },
            {
              "name": "config",
              "type": "bytes",
              "internalType": "bytes"
            }
          ]
        }
      ],
      "outputs": [],
      "stateMutability": "nonpayable"
    },
    {
      "type": "function",
      "name": "setDefaultUlnConfigs",
      "inputs": [
        {
          "name": "_params",
          "type": "tuple[]",
          "internalType": "struct SetDefaultUlnConfigParam[]",
          "components": [
            {
              "name": "eid",
              "type": "uint32",
              "internalType": "uint32"
            },
            {
              "name": "config",
              "type": "tuple",
              "internalType": "struct UlnConfig",
              "components": [
                {
                  "name": "confirmations",
                  "type": "uint64",
                  "internalType": "uint64"
                },
                {
                  "name": "requiredDVNCount",
                  "type": "uint8",
                  "internalType": "uint8"
                },
                {
                  "name": "optionalDVNCount",
                  "type": "uint8",
                  "internalType": "uint8"
                },
                {
                  "name": "optionalDVNThreshold",
                  "type": "uint8",
                  "internalType": "uint8"
                },
                {
                  "name": "requiredDVNs",
                  "type": "address[]",
                  "internalType": "address[]"
                },
                {
                  "name": "optionalDVNs",
                  "type": "address[]",
                  "internalType": "address[]"
                }
              ]
            }
          ]
        }
      ],
      "outputs": [],
      "stateMutability": "nonpayable"
    },
    {
      "type": "function",
      "name": "supportsInterface",
      "inputs": [
        {
          "name": "_interfaceId",
          "type": "bytes4",
          "internalType": "bytes4"
        }
      ],
      "outputs": [
        {
          "name": "",
          "type": "bool",
          "internalType": "bool"
        }
      ],
      "stateMutability": "view"
    },
    {
      "type": "function",
      "name": "transferOwnership",
      "inputs": [
        {
          "name": "newOwner",
          "type": "address",
          "internalType": "address"
        }
      ],
      "outputs": [],
      "stateMutability": "nonpayable"
    },
    {
      "type": "function",
      "name": "verifiable",
      "inputs": [
        {
          "name": "_config",
          "type": "tuple",
          "internalType": "struct UlnConfig",
          "components": [
            {
              "name": "confirmations",
              "type": "uint64",
              "internalType": "uint64"
            },
            {
              "name": "requiredDVNCount",
              "type": "uint8",
              "internalType": "uint8"
            },
            {
              "name": "optionalDVNCount",
              "type": "uint8",
              "internalType": "uint8"
            },
            {
              "name": "optionalDVNThreshold",
              "type": "uint8",
              "internalType": "uint8"
            },
            {
              "name": "requiredDVNs",
              "type": "address[]",
              "internalType": "address[]"
            },
            {
              "name": "optionalDVNs",
              "type": "address[]",
              "internalType": "address[]"
            }
          ]
        },
        {
          "name": "_headerHash",
          "type": "bytes32",
          "internalType": "bytes32"
        },
        {
          "name": "_payloadHash",
          "type": "bytes32",
          "internalType": "bytes32"
        }
      ],
      "outputs": [
        {
          "name": "",
          "type": "bool",
          "internalType": "bool"
        }
      ],
      "stateMutability": "view"
    },
    {
      "type": "function",
      "name": "verify",
      "inputs": [
        {
          "name": "_packetHeader",
          "type": "bytes",
          "internalType": "bytes"
        },
        {
          "name": "_payloadHash",
          "type": "bytes32",
          "internalType": "bytes32"
        },
        {
          "name": "_confirmations",
          "type": "uint64",
          "internalType": "uint64"
        }
      ],
      "outputs": [],
      "stateMutability": "nonpayable"
    },
    {
      "type": "function",
      "name": "version",
      "inputs": [],
      "outputs": [
        {
          "name": "major",
          "type": "uint64",
          "internalType": "uint64"
        },
        {
          "name": "minor",
          "type": "uint8",
          "internalType": "uint8"
        },
        {
          "name": "endpointVersion",
          "type": "uint8",
          "internalType": "uint8"
        }
      ],
      "stateMutability": "pure"
    },
    {
      "type": "event",
      "name": "DefaultUlnConfigsSet",
      "inputs": [
        {
          "name": "params",
          "type": "tuple[]",
          "indexed": false,
          "internalType": "struct SetDefaultUlnConfigParam[]",
          "components": [
            {
              "name": "eid",
              "type": "uint32",
              "internalType": "uint32"
            },
            {
              "name": "config",
              "type": "tuple",
              "internalType": "struct UlnConfig",
              "components": [
                {
                  "name": "confirmations",
                  "type": "uint64",
                  "internalType": "uint64"
                },
                {
                  "name": "requiredDVNCount",
                  "type": "uint8",
                  "internalType": "uint8"
                },
                {
                  "name": "optionalDVNCount",
                  "type": "uint8",
                  "internalType": "uint8"
                },
                {
                  "name": "optionalDVNThreshold",
                  "type": "uint8",
                  "internalType": "uint8"
                },
                {
                  "name": "requiredDVNs",
                  "type": "address[]",
                  "internalType": "address[]"
                },
                {
                  "name": "optionalDVNs",
                  "type": "address[]",
                  "internalType": "address[]"
                }
              ]
            }
          ]
        }
      ],
      "anonymous": false
    },
    {
      "type": "event",
      "name": "OwnershipTransferred",
      "inputs": [
        {
          "name": "previousOwner",
          "type": "address",
          "indexed": true,
          "internalType": "address"
        },
        {
          "name": "newOwner",
          "type": "address",
          "indexed": true,
          "internalType": "address"
        }
      ],
      "anonymous": false
    },
    {
      "type": "event",
      "name": "PayloadVerified",
      "inputs": [
        {
          "name": "dvn",
          "type": "address",
          "indexed": false,
          "internalType": "address"
        },
        {
          "name": "header",
          "type": "bytes",
          "indexed": false,
          "internalType": "bytes"
        },
        {
          "name": "confirmations",
          "type": "uint256",
          "indexed": false,
          "internalType": "uint256"
        },
        {
          "name": "proofHash",
          "type": "bytes32",
          "indexed": false,
          "internalType": "bytes32"
        }
      ],
      "anonymous": false
    },
    {
      "type": "event",
      "name": "UlnConfigSet",
      "inputs": [
        {
          "name": "oapp",
          "type": "address",
          "indexed": false,
          "internalType": "address"
        },
        {
          "name": "eid",
          "type": "uint32",
          "indexed": false,
          "internalType": "uint32"
        },
        {
          "name": "config",
          "type": "tuple",
          "indexed": false,
          "internalType": "struct UlnConfig",
          "components": [
            {
              "name": "confirmations",
              "type": "uint64",
              "internalType": "uint64"
            },
            {
              "name": "requiredDVNCount",
              "type": "uint8",
              "internalType": "uint8"
            },
            {
              "name": "optionalDVNCount",
              "type": "uint8",
              "internalType": "uint8"
            },
            {
              "name": "optionalDVNThreshold",
              "type": "uint8",
              "internalType": "uint8"
            },
            {
              "name": "requiredDVNs",
              "type": "address[]",
              "internalType": "address[]"
            },
            {
              "name": "optionalDVNs",
              "type": "address[]",
              "internalType": "address[]"
            }
          ]
        }
      ],
      "anonymous": false
    },
    {
      "type": "error",
      "name": "LZ_MessageLib_OnlyEndpoint",
      "inputs": []
    },
    {
      "type": "error",
      "name": "LZ_ULN_AtLeastOneDVN",
      "inputs": []
    },
    {
      "type": "error",
      "name": "LZ_ULN_InvalidConfigType",
      "inputs": [
        {
          "name": "configType",
          "type": "uint32",
          "internalType": "uint32"
        }
      ]
    },
    {
      "type": "error",
      "name": "LZ_ULN_InvalidConfirmations",
      "inputs": []
    },
    {
      "type": "error",
      "name": "LZ_ULN_InvalidEid",
      "inputs": []
    },
    {
      "type": "error",
      "name": "LZ_ULN_InvalidOptionalDVNCount",
      "inputs": []
    },
    {
      "type": "error",
      "name": "LZ_ULN_InvalidOptionalDVNThreshold",
      "inputs": []
    },
    {
      "type": "error",
      "name": "LZ_ULN_InvalidPacketHeader",
      "inputs": []
    },
    {
      "type": "error",
      "name": "LZ_ULN_InvalidPacketVersion",
      "inputs": []
    },
    {
      "type": "error",
      "name": "LZ_ULN_InvalidRequiredDVNCount",
      "inputs": []
    },
    {
      "type": "error",
      "name": "LZ_ULN_Unsorted",
      "inputs": []
    },
    {
      "type": "error",
      "name": "LZ_ULN_UnsupportedEid",
      "inputs": [
        {
          "name": "eid",
          "type": "uint32",
          "internalType": "uint32"
        }
      ]
    },
    {
      "type": "error",
      "name": "LZ_ULN_Verifying",
      "inputs": []
    }
  ],
  "bytecode": {
    "object": "0x60c06040523480156200001157600080fd5b5060405162002d2d38038062002d2d833981016040819052620000349162000116565b8080816001600160a01b031663416ecebf6040518163ffffffff1660e01b8152600401602060405180830381865afa15801562000075573d6000803e3d6000fd5b505050506040513d601f19601f820116820180604052508101906200009b919062000148565b620000a633620000c6565b6001600160a01b0390911660805263ffffffff1660a05250620001709050565b600080546001600160a01b038381166001600160a01b0319831681178455604051919092169283917f8be0079c531659141344cd1fd0a4f28419497f9722a3daafe3b4186f6b6457e09190a35050565b6000602082840312156200012957600080fd5b81516001600160a01b03811681146200014157600080fd5b9392505050565b6000602082840312156200015b57600080fd5b815163ffffffff811681146200014157600080fd5b60805160a051612b906200019d600039600061036e01526000818161049201526104fb0152612b906000f3fe608060405234801561001057600080fd5b506004361061011b5760003560e01c806343ea4fa9116100b25780638da5cb5b11610081578063c40ff83511610066578063c40ff835146102c0578063e084d952146102d3578063f2fde38b146102e657600080fd5b80638da5cb5b146102785780639c33abf7146102a057600080fd5b806343ea4fa91461022a57806354fd4d501461023d5780636750cd4c1461025d578063715018a61461027057600080fd5b806320efd722116100ee57806320efd7221461017f57806329460b0b1461019257806339e3f938146101a55780633c782a52146101c557600080fd5b806301ffc9a7146101205780630223536e146101485780630894edf11461015d5780631881d94d14610170575b600080fd5b61013361012e366004611cfc565b6102f9565b60405190151581526020015b60405180910390f35b61015b610156366004611da4565b610355565b005b61015b61016b366004611e01565b610367565b600160405161013f9190611e4d565b61015b61018d366004611ef7565b6104f9565b61015b6101a0366004611f4a565b610664565b6101b86101b3366004611fa0565b610851565b60405161013f9190612096565b61020a6101d33660046120a9565b600260209081526000938452604080852082529284528284209052825290205460ff811690610100900467ffffffffffffffff1682565b60408051921515835267ffffffffffffffff90911660208301520161013f565b6101b8610238366004611fa0565b6109f2565b60408051600381526000602082015260029181019190915260600161013f565b61013361026b3660046120de565b610dac565b61015b610db7565b60005460405173ffffffffffffffffffffffffffffffffffffffff909116815260200161013f565b6102b36102ae3660046120f9565b610dcb565b60405161013f9190612133565b61015b6102ce36600461219f565b610e6b565b6101336102e13660046123c6565b610e7b565b61015b6102f4366004612414565b610e90565b60007fffffffff0000000000000000000000000000000000000000000000000000000082167f0ab7be9f00000000000000000000000000000000000000000000000000000000148061034f575061034f82610f47565b92915050565b61036184848484610fde565b50505050565b61039283837f00000000000000000000000000000000000000000000000000000000000000006110f2565b600061039e84846111c0565b905060006103ac85856111d2565b905060006103ba83836109f2565b90506103de8187876040516103d092919061242f565b6040518091039020866111f5565b600060405180606001604052808463ffffffff16815260200161040189896113b4565b815260200161041089896113cd565b67ffffffffffffffff908116909152604080517fa825d747000000000000000000000000000000000000000000000000000000008152835163ffffffff1660048201526020840151602482015290830151909116604482015273ffffffffffffffffffffffffffffffffffffffff8681166064830152608482018890529192507f00000000000000000000000000000000000000000000000000000000000000009091169063a825d7479060a401600060405180830381600087803b1580156104d857600080fd5b505af11580156104ec573d6000803e3d6000fd5b5050505050505050505050565b7f000000000000000000000000000000000000000000000000000000000000000073ffffffffffffffffffffffffffffffffffffffff163314610568576040517f467409c300000000000000000000000000000000000000000000000000000000815260040160405180910390fd5b60005b8181101561036157368383838181106105865761058661243f565b9050602002810190610598919061246e565b90506105af6105aa60208301836120de565b6113f0565b60026105c160408301602084016120de565b63ffffffff1603610601576105fc6105dc60208301836120de565b866105ea60408501856124ac565b8101906105f79190612511565b611437565b610651565b61061160408201602083016120de565b6040517fba97c1fa00000000000000000000000000000000000000000000000000000000815263ffffffff90911660048201526024015b60405180910390fd5b508061065c81612575565b91505061056b565b61066c61148d565b60005b81811015610813573683838381811061068a5761068a61243f565b905060200281019061069c91906125ad565b905060ff6106ad60208301836125e1565b6106be906040810190602001612615565b60ff16036106f8576040517f83aa17da00000000000000000000000000000000000000000000000000000000815260040160405180910390fd5b60ff61070760208301836125e1565b610718906060810190604001612615565b60ff1603610752576040517f4221136600000000000000000000000000000000000000000000000000000000815260040160405180910390fd5b67ffffffffffffffff61076860208301836125e1565b610776906020810190612630565b67ffffffffffffffff16036107b7576040517f503667ae00000000000000000000000000000000000000000000000000000000815260040160405180910390fd5b6107d56107c760208301836125e1565b6107d09061264b565b61150e565b61080260006107e760208401846120de565b6107f460208501856125e1565b6107fd9061264b565b61155f565b5061080c81612575565b905061066f565b507faaf3aaa0c11056e86ac56eb653e25b005ca1a7d4dcd21ba24647f7ab63f3b5608282604051610845929190612707565b60405180910390a15050565b6040805160c0810182526000808252602082018190529181018290526060808201929092526080810182905260a081019190915273ffffffffffffffffffffffffffffffffffffffff8316600090815260016020818152604080842063ffffffff87168552825292839020835160c081018552815467ffffffffffffffff8116825260ff680100000000000000008204811683860152690100000000000000000082048116838801526a0100000000000000000000909104166060820152928101805485518185028101850190965280865293949193608086019383018282801561097257602002820191906000526020600020905b815473ffffffffffffffffffffffffffffffffffffffff168152600190910190602001808311610947575b50505050508152602001600282018054806020026020016040519081016040528092919081815260200182805480156109e157602002820191906000526020600020905b815473ffffffffffffffffffffffffffffffffffffffff1681526001909101906020018083116109b6575b505050505081525050905092915050565b6040805160c0810182526000808252602080830182905282840182905260608084018390526080840181905260a084015263ffffffff85168083527fa6eef7e35abe7026729641147f7915573c7e97b47efa546f5f6e3230263bcb49825284832073ffffffffffffffffffffffffffffffffffffffff88168452600183528584209184529152929020805491929167ffffffffffffffff1680610aa257825467ffffffffffffffff168452610ac1565b67ffffffffffffffff81811614610ac15767ffffffffffffffff811684525b815468010000000000000000900460ff16610b7757825468010000000000000000900460ff1615610b725782600101805480602002602001604051908101604052809291908181526020018280548015610b5157602002820191906000526020600020905b815473ffffffffffffffffffffffffffffffffffffffff168152600190910190602001808311610b26575b50505050506080850152825468010000000000000000900460ff1660208501525b610c15565b815468010000000000000000900460ff90811614610c155781600101805480602002602001604051908101604052809291908181526020018280548015610bf457602002820191906000526020600020905b815473ffffffffffffffffffffffffffffffffffffffff168152600190910190602001808311610bc9575b50505050506080850152815468010000000000000000900460ff1660208501525b81546901000000000000000000900460ff16610ce45782546901000000000000000000900460ff1615610cdf5782600201805480602002602001604051908101604052809291908181526020018280548015610ca757602002820191906000526020600020905b815473ffffffffffffffffffffffffffffffffffffffff168152600190910190602001808311610c7c575b505050505060a0850152825460ff69010000000000000000008204811660408701526a01000000000000000000009091041660608501525b610d9a565b81546901000000000000000000900460ff90811614610d9a5781600201805480602002602001604051908101604052809291908181526020018280548015610d6257602002820191906000526020600020905b815473ffffffffffffffffffffffffffffffffffffffff168152600190910190602001808311610d37575b505050505060a0850152815460ff69010000000000000000008204811660408701526a01000000000000000000009091041660608501525b610da38461150e565b50505092915050565b600061034f826118f3565b610dbf61148d565b610dc9600061195a565b565b60607ffffffffffffffffffffffffffffffffffffffffffffffffffffffffffffffffe63ffffffff831601610e2a57610e0483856109f2565b604051602001610e149190612096565b6040516020818303038152906040529050610e64565b6040517fba97c1fa00000000000000000000000000000000000000000000000000000000815263ffffffff83166004820152602401610648565b9392505050565b610e768383836110f2565b505050565b6000610e888484846119cf565b949350505050565b610e9861148d565b73ffffffffffffffffffffffffffffffffffffffff8116610f3b576040517f08c379a000000000000000000000000000000000000000000000000000000000815260206004820152602660248201527f4f776e61626c653a206e6577206f776e657220697320746865207a65726f206160448201527f64647265737300000000000000000000000000000000000000000000000000006064820152608401610648565b610f448161195a565b50565b60007fffffffff0000000000000000000000000000000000000000000000000000000082167f97f0258400000000000000000000000000000000000000000000000000000000148061034f57507f01ffc9a7000000000000000000000000000000000000000000000000000000007fffffffff0000000000000000000000000000000000000000000000000000000083161461034f565b6040805180820182526001815267ffffffffffffffff831660208201529051600290600090611010908890889061242f565b6040805191829003909120825260208083019390935290810160009081208682528352818120338083529084529082902084518154959094015167ffffffffffffffff16610100027fffffffffffffffffffffffffffffffffffffffffffffff0000000000000000ff941515949094167fffffffffffffffffffffffffffffffffffffffffffffff000000000000000000909516949094179290921790925590517f2cb0eed7538baeae4c6fde038c0fd0384d27de0dd55a228c65847bda6aa1ab56916110e49187908790869088906128a4565b60405180910390a150505050565b6051821461112c576040517fc9bf37b700000000000000000000000000000000000000000000000000000000815260040160405180910390fd5b60016111388484611ae8565b60ff1614611172576040517f3a9ae7b900000000000000000000000000000000000000000000000000000000815260040160405180910390fd5b8063ffffffff166111838484611b0a565b63ffffffff1614610e76576040517f42d2c97e00000000000000000000000000000000000000000000000000000000815260040160405180910390fd5b6000610e646111cf8484611b1a565b90565b60006111e2600d60098486612929565b6111eb91612953565b60e01c9392505050565b6112008383836119cf565b611236576040517f4c3118d400000000000000000000000000000000000000000000000000000000815260040160405180910390fd5b602083015160ff16156112f65760005b836020015160ff168160ff1610156112f457600083815260026020908152604080832085845290915281206080860151805191929160ff851690811061128e5761128e61243f565b60209081029190910181015173ffffffffffffffffffffffffffffffffffffffff16825281019190915260400160002080547fffffffffffffffffffffffffffffffffffffffffffffff0000000000000000001690556112ed8161299b565b9050611246565b505b604083015160ff1615610e765760005b836040015160ff168160ff161015610361576000838152600260209081526040808320858452909152812060a0860151805191929160ff851690811061134e5761134e61243f565b60209081029190910181015173ffffffffffffffffffffffffffffffffffffffff16825281019190915260400160002080547fffffffffffffffffffffffffffffffffffffffffffffff0000000000000000001690556113ad8161299b565b9050611306565b60006113c4602d600d8486612929565b610e64916129ba565b60006113dd600960018486612929565b6113e6916129f6565b60c01c9392505050565b6113f9816118f3565b610f44576040517ff0c10d0400000000000000000000000000000000000000000000000000000000815263ffffffff82166004820152602401610648565b61144282848361155f565b61144c82846109f2565b507f82118522aa536ac0e96cc5c689407ae42b89d592aa133890a01f1509842f508182848360405161148093929190612a3c565b60405180910390a1505050565b60005473ffffffffffffffffffffffffffffffffffffffff163314610dc9576040517f08c379a000000000000000000000000000000000000000000000000000000000815260206004820181905260248201527f4f776e61626c653a2063616c6c6572206973206e6f7420746865206f776e65726044820152606401610648565b602081015160ff161580156115285750606081015160ff16155b15610f44576040517fce2c375100000000000000000000000000000000000000000000000000000000815260040160405180910390fd5b602081015160ff908116148061157a5750602081015160ff16155b156115c157608081015151156115bc576040517f83aa17da00000000000000000000000000000000000000000000000000000000815260040160405180910390fd5b611640565b806020015160ff168160800151511415806115fc575060026115e5600160ff612a77565b6115ef9190612a90565b60ff16816020015160ff16115b15611633576040517f83aa17da00000000000000000000000000000000000000000000000000000000815260040160405180910390fd5b6116408160800151611b2a565b604081015160ff908116148061165b5750604081015160ff16155b156116e15760a0810151511561169d576040517f4221136600000000000000000000000000000000000000000000000000000000815260040160405180910390fd5b606081015160ff16156116dc576040517f38682fa900000000000000000000000000000000000000000000000000000000815260040160405180910390fd5b6117b8565b806040015160ff168160a001515114158061171c57506002611705600160ff612a77565b61170f9190612a90565b60ff16816040015160ff16115b15611753576040517f4221136600000000000000000000000000000000000000000000000000000000815260040160405180910390fd5b606081015160ff1615806117745750806040015160ff16816060015160ff16115b156117ab576040517f38682fa900000000000000000000000000000000000000000000000000000000815260040160405180910390fd5b6117b88160a00151611b2a565b73ffffffffffffffffffffffffffffffffffffffff8316600090815260016020818152604080842063ffffffff87168552825292839020845181548684015195870151606088015167ffffffffffffffff9093167fffffffffffffffffffffffffffffffffffffffffffffff000000000000000000909216919091176801000000000000000060ff97881602177fffffffffffffffffffffffffffffffffffffffffff0000ffffffffffffffffff166901000000000000000000918716919091027fffffffffffffffffffffffffffffffffffffffffff00ffffffffffffffffffff16176a01000000000000000000009590911694909402939093178355608084015180518594936118cf93908501920190611c5d565b5060a082015180516118eb916002840191602090910190611c5d565b505050505050565b63ffffffff811660009081527fa6eef7e35abe7026729641147f7915573c7e97b47efa546f5f6e3230263bcb4960205260408120805468010000000000000000900460ff16151580610e645750546a0100000000000000000000900460ff16151592915050565b6000805473ffffffffffffffffffffffffffffffffffffffff8381167fffffffffffffffffffffffff0000000000000000000000000000000000000000831681178455604051919092169283917f8be0079c531659141344cd1fd0a4f28419497f9722a3daafe3b4186f6b6457e09190a35050565b602083015160009060ff1615611a5a5760005b846020015160ff168160ff161015611a4257611a2485608001518260ff1681518110611a1057611a1061243f565b602002602001015185858860000151611bce565b611a32576000915050610e64565b611a3b8161299b565b90506119e2565b50836040015160ff16600003611a5a57506001610e64565b606084015160005b856040015160ff168160ff161015611adc57611aa48660a001518260ff1681518110611a9057611a9061243f565b602002602001015186868960000151611bce565b15611acc5781611ab381612ad9565b9250508160ff16600003611acc57600192505050610e64565b611ad58161299b565b9050611a62565b50600095945050505050565b6000611af76001828486612929565b611b0091612b14565b60f81c9392505050565b60006111e26031602d8486612929565b60006113c4605160318486612929565b6000805b8251811015610e76576000838281518110611b4b57611b4b61243f565b602002602001015190508273ffffffffffffffffffffffffffffffffffffffff168173ffffffffffffffffffffffffffffffffffffffff1611611bba576040517f447516e100000000000000000000000000000000000000000000000000000000815260040160405180910390fd5b915080611bc681612575565b915050611b2e565b6000838152600260209081526040808320858452825280832073ffffffffffffffffffffffffffffffffffffffff88168452825280832081518083019092525460ff811615801580845261010090920467ffffffffffffffff16938301939093529091611c5357508267ffffffffffffffff16816020015167ffffffffffffffff1610155b9695505050505050565b828054828255906000526020600020908101928215611cd7579160200282015b82811115611cd757825182547fffffffffffffffffffffffff00000000000000000000000000000000000000001673ffffffffffffffffffffffffffffffffffffffff909116178255602090920191600190910190611c7d565b50611ce3929150611ce7565b5090565b5b80821115611ce35760008155600101611ce8565b600060208284031215611d0e57600080fd5b81357fffffffff0000000000000000000000000000000000000000000000000000000081168114610e6457600080fd5b60008083601f840112611d5057600080fd5b50813567ffffffffffffffff811115611d6857600080fd5b602083019150836020828501011115611d8057600080fd5b9250929050565b803567ffffffffffffffff81168114611d9f57600080fd5b919050565b60008060008060608587031215611dba57600080fd5b843567ffffffffffffffff811115611dd157600080fd5b611ddd87828801611d3e565b90955093505060208501359150611df660408601611d87565b905092959194509250565b600080600060408486031215611e1657600080fd5b833567ffffffffffffffff811115611e2d57600080fd5b611e3986828701611d3e565b909790965060209590950135949350505050565b6020810160038310611e88577f4e487b7100000000000000000000000000000000000000000000000000000000600052602160045260246000fd5b91905290565b803573ffffffffffffffffffffffffffffffffffffffff81168114611d9f57600080fd5b60008083601f840112611ec457600080fd5b50813567ffffffffffffffff811115611edc57600080fd5b6020830191508360208260051b8501011115611d8057600080fd5b600080600060408486031215611f0c57600080fd5b611f1584611e8e565b9250602084013567ffffffffffffffff811115611f3157600080fd5b611f3d86828701611eb2565b9497909650939450505050565b60008060208385031215611f5d57600080fd5b823567ffffffffffffffff811115611f7457600080fd5b611f8085828601611eb2565b90969095509350505050565b803563ffffffff81168114611d9f57600080fd5b60008060408385031215611fb357600080fd5b611fbc83611e8e565b9150611fca60208401611f8c565b90509250929050565b600081518084526020808501945080840160005b8381101561201957815173ffffffffffffffffffffffffffffffffffffffff1687529582019590820190600101611fe7565b509495945050505050565b67ffffffffffffffff815116825260ff602082015116602083015260ff604082015116604083015260ff60608201511660608301526000608082015160c0608085015261207460c0850182611fd3565b905060a083015184820360a086015261208d8282611fd3565b95945050505050565b602081526000610e646020830184612024565b6000806000606084860312156120be57600080fd5b83359250602084013591506120d560408501611e8e565b90509250925092565b6000602082840312156120f057600080fd5b610e6482611f8c565b60008060006060848603121561210e57600080fd5b61211784611f8c565b925061212560208501611e8e565b91506120d560408501611f8c565b600060208083528351808285015260005b8181101561216057858101830151858201604001528201612144565b5060006040828601015260407fffffffffffffffffffffffffffffffffffffffffffffffffffffffffffffffe0601f8301168501019250505092915050565b6000806000604084860312156121b457600080fd5b833567ffffffffffffffff8111156121cb57600080fd5b6121d786828701611d3e565b90945092506120d5905060208501611f8c565b7f4e487b7100000000000000000000000000000000000000000000000000000000600052604160045260246000fd5b60405160c0810167ffffffffffffffff8111828210171561223c5761223c6121ea565b60405290565b803560ff81168114611d9f57600080fd5b600082601f83011261226457600080fd5b8135602067ffffffffffffffff80831115612281576122816121ea565b8260051b6040517fffffffffffffffffffffffffffffffffffffffffffffffffffffffffffffffe0603f830116810181811084821117156122c4576122c46121ea565b6040529384528581018301938381019250878511156122e257600080fd5b83870191505b84821015612308576122f982611e8e565b835291830191908301906122e8565b979650505050505050565b600060c0828403121561232557600080fd5b61232d612219565b905061233882611d87565b815261234660208301612242565b602082015261235760408301612242565b604082015261236860608301612242565b6060820152608082013567ffffffffffffffff8082111561238857600080fd5b61239485838601612253565b608084015260a08401359150808211156123ad57600080fd5b506123ba84828501612253565b60a08301525092915050565b6000806000606084860312156123db57600080fd5b833567ffffffffffffffff8111156123f257600080fd5b6123fe86828701612313565b9660208601359650604090950135949350505050565b60006020828403121561242657600080fd5b610e6482611e8e565b8183823760009101908152919050565b7f4e487b7100000000000000000000000000000000000000000000000000000000600052603260045260246000fd5b600082357fffffffffffffffffffffffffffffffffffffffffffffffffffffffffffffffa18336030181126124a257600080fd5b9190910192915050565b60008083357fffffffffffffffffffffffffffffffffffffffffffffffffffffffffffffffe18436030181126124e157600080fd5b83018035915067ffffffffffffffff8211156124fc57600080fd5b602001915036819003821315611d8057600080fd5b60006020828403121561252357600080fd5b813567ffffffffffffffff81111561253a57600080fd5b610e8884828501612313565b7f4e487b7100000000000000000000000000000000000000000000000000000000600052601160045260246000fd5b60007fffffffffffffffffffffffffffffffffffffffffffffffffffffffffffffffff82036125a6576125a6612546565b5060010190565b600082357fffffffffffffffffffffffffffffffffffffffffffffffffffffffffffffffc18336030181126124a257600080fd5b600082357fffffffffffffffffffffffffffffffffffffffffffffffffffffffffffffff418336030181126124a257600080fd5b60006020828403121561262757600080fd5b610e6482612242565b60006020828403121561264257600080fd5b610e6482611d87565b600061034f3683612313565b60008083357fffffffffffffffffffffffffffffffffffffffffffffffffffffffffffffffe184360301811261268c57600080fd5b830160208101925035905067ffffffffffffffff8111156126ac57600080fd5b8060051b3603821315611d8057600080fd5b8183526000602080850194508260005b858110156120195773ffffffffffffffffffffffffffffffffffffffff6126f483611e8e565b16875295820195908201906001016126ce565b60208082528181018390526000906040808401600586901b8501820187855b88811015612896577fffffffffffffffffffffffffffffffffffffffffffffffffffffffffffffffc08089850301855282357fffffffffffffffffffffffffffffffffffffffffffffffffffffffffffffffc18c360301811261278857600080fd5b8b0163ffffffff61279882611f8c565b168552878101357fffffffffffffffffffffffffffffffffffffffffffffffffffffffffffffff418236030181126127cf57600080fd5b8589018890520167ffffffffffffffff6127e882611d87565b16878601526127f8888201612242565b606060ff8083168289015261280e8a8501612242565b92506080818416818a0152612824838601612242565b935060a09250818416838a015261283d81860186612657565b60c08b810152945091506128589050610100890184836126be565b92505061286781840184612657565b93509050838783030160e08801526128808284836126be565b978a019796505050928701925050600101612726565b509098975050505050505050565b73ffffffffffffffffffffffffffffffffffffffff8616815260806020820152836080820152838560a0830137600060a08583010152600060a07fffffffffffffffffffffffffffffffffffffffffffffffffffffffffffffffe0601f870116830101905067ffffffffffffffff841660408301528260608301529695505050505050565b6000808585111561293957600080fd5b8386111561294657600080fd5b5050820193919092039150565b7fffffffff0000000000000000000000000000000000000000000000000000000081358181169160048510156129935780818660040360031b1b83161692505b505092915050565b600060ff821660ff81036129b1576129b1612546565b60010192915050565b8035602083101561034f577fffffffffffffffffffffffffffffffffffffffffffffffffffffffffffffffff602084900360031b1b1692915050565b7fffffffffffffffff00000000000000000000000000000000000000000000000081358181169160088510156129935760089490940360031b84901b1690921692915050565b73ffffffffffffffffffffffffffffffffffffffff8416815263ffffffff8316602082015260606040820152600061208d6060830184612024565b60ff828116828216039081111561034f5761034f612546565b600060ff831680612aca577f4e487b7100000000000000000000000000000000000000000000000000000000600052601260045260246000fd5b8060ff84160491505092915050565b600060ff821680612aec57612aec612546565b7fffffffffffffffffffffffffffffffffffffffffffffffffffffffffffffffff0192915050565b7fff0000000000000000000000000000000000000000000000000000000000000081358181169160018510156129935760019490940360031b84901b169092169291505056fea2646970667358221220437bf7e00be80761bf404f2712e92c24e255bb83b4ec1a9c4d6136d8b3040cfe64736f6c63430008140033",
    "linkReferences": {}
  },
  "methodIdentifiers": {
    "assertHeader(bytes,uint32)": "c40ff835",
    "commitVerification(bytes,bytes32)": "0894edf1",
    "getAppUlnConfig(address,uint32)": "39e3f938",
    "getConfig(uint32,address,uint32)": "9c33abf7",
    "getUlnConfig(address,uint32)": "43ea4fa9",
    "hashLookup(bytes32,bytes32,address)": "3c782a52",
    "isSupportedEid(uint32)": "6750cd4c",
    "messageLibType()": "1881d94d",
    "owner()": "8da5cb5b",
    "renounceOwnership()": "715018a6",
    "setConfig(address,(uint32,uint32,bytes)[])": "20efd722",
    "setDefaultUlnConfigs((uint32,(uint64,uint8,uint8,uint8,address[],address[]))[])": "29460b0b",
    "supportsInterface(bytes4)": "01ffc9a7",
    "transferOwnership(address)": "f2fde38b",
    "verifiable((uint64,uint8,uint8,uint8,address[],address[]),bytes32,bytes32)": "e084d952",
    "verify(bytes,bytes32,uint64)": "0223536e",
    "version()": "54fd4d50"
  },
  "id": 34
}