{"abi":[{"type":"constructor","inputs":[{"name":"_endpoint","type":"address","internalType":"address"}],"stateMutability":"nonpayable"},{"type":"function","name":"assertHeader","inputs":[{"name":"_packetHeader","type":"bytes","internalType":"bytes"},{"name":"_localEid","type":"uint32","internalType":"uint32"}],"outputs":[],"stateMutability":"pure"},{"type":"function","name":"commitVerification","inputs":[{"name":"_packetHeader","type":"bytes","internalType":"bytes"},{"name":"_payloadHash","type":"bytes32","internalType":"bytes32"}],"outputs":[],"stateMutability":"nonpayable"},{"type":"function","name":"getAppUlnConfig","inputs":[{"name":"_oapp","type":"address","internalType":"address"},{"name":"_remoteEid","type":"uint32","internalType":"uint32"}],"outputs":[{"name":"","type":"tuple","internalType":"struct UlnConfig","components":[{"name":"confirmations","type":"uint64","internalType":"uint64"},{"name":"requiredDVNCount","type":"uint8","internalType":"uint8"},{"name":"optionalDVNCount","type":"uint8","internalType":"uint8"},{"name":"optionalDVNThreshold","type":"uint8","internalType":"uint8"},{"name":"requiredDVNs","type":"address[]","internalType":"address[]"},{"name":"optionalDVNs","type":"address[]","internalType":"address[]"}]}],"stateMutability":"view"},{"type":"function","name":"getConfig","inputs":[{"name":"_eid","type":"uint32","internalType":"uint32"},{"name":"_oapp","type":"address","internalType":"address"},{"name":"_configType","type":"uint32","internalType":"uint32"}],"outputs":[{"name":"","type":"bytes","internalType":"bytes"}],"stateMutability":"view"},{"type":"function","name":"getUlnConfig","inputs":[{"name":"_oapp","type":"address","internalType":"address"},{"name":"_remoteEid","type":"uint32","internalType":"uint32"}],"outputs":[{"name":"rtnConfig","type":"tuple","internalType":"struct UlnConfig","components":[{"name":"confirmations","type":"uint64","internalType":"uint64"},{"name":"requiredDVNCount","type":"uint8","internalType":"uint8"},{"name":"optionalDVNCount","type":"uint8","internalType":"uint8"},{"name":"optionalDVNThreshold","type":"uint8","internalType":"uint8"},{"name":"requiredDVNs","type":"address[]","internalType":"address[]"},{"name":"optionalDVNs","type":"address[]","internalType":"address[]"}]}],"stateMutability":"view"},{"type":"function","name":"hashLookup","inputs":[{"name":"headerHash","type":"bytes32","internalType":"bytes32"},{"name":"payloadHash","type":"bytes32","internalType":"bytes32"},{"name":"dvn","type":"address","internalType":"address"}],"outputs":[{"name":"submitted","type":"bool","internalType":"bool"},{"name":"confirmations","type":"uint64","internalType":"uint64"}],"stateMutability":"view"},{"type":"function","name":"isSupportedEid","inputs":[{"name":"_eid","type":"uint32","internalType":"uint32"}],"outputs":[{"name":"","type":"bool","internalType":"bool"}],"stateMutability":"view"},{"type":"function","name":"messageLibType","inputs":[],"outputs":[{"name":"","type":"uint8","internalType":"enum MessageLibType"}],"stateMutability":"pure"},{"type":"function","name":"owner","inputs":[],"outputs":[{"name":"","type":"address","internalType":"address"}],"stateMutability":"view"},{"type":"function","name":"renounceOwnership","inputs":[],"outputs":[],"stateMutability":"nonpayable"},{"type":"function","name":"setConfig","inputs":[{"name":"_oapp","type":"address","internalType":"address"},{"name":"_params","type":"tuple[]","internalType":"struct SetConfigParam[]","components":[{"name":"eid","type":"uint32","internalType":"uint32"},{"name":"configType","type":"uint32","internalType":"uint32"},{"name":"config","type":"bytes","internalType":"bytes"}]}],"outputs":[],"stateMutability":"nonpayable"},{"type":"function","name":"setDefaultUlnConfigs","inputs":[{"name":"_params","type":"tuple[]","internalType":"struct SetDefaultUlnConfigParam[]","components":[{"name":"eid","type":"uint32","internalType":"uint32"},{"name":"config","type":"tuple","internalType":"struct UlnConfig","components":[{"name":"confirmations","type":"uint64","internalType":"uint64"},{"name":"requiredDVNCount","type":"uint8","internalType":"uint8"},{"name":"optionalDVNCount","type":"uint8","internalType":"uint8"},{"name":"optionalDVNThreshold","type":"uint8","internalType":"uint8"},{"name":"requiredDVNs","type":"address[]","internalType":"address[]"},{"name":"optionalDVNs","type":"address[]","internalType":"address[]"}]}]}],"outputs":[],"stateMutability":"nonpayable"},{"type":"function","name":"supportsInterface","inputs":[{"name":"_interfaceId","type":"bytes4","internalType":"bytes4"}],"outputs":[{"name":"","type":"bool","internalType":"bool"}],"stateMutability":"view"},{"type":"function","name":"transferOwnership","inputs":[{"name":"newOwner","type":"address","internalType":"address"}],"outputs":[],"stateMutability":"nonpayable"},{"type":"function","name":"verifiable","inputs":[{"name":"_config","type":"tuple","internalType":"struct UlnConfig","components":[{"name":"confirmations","type":"uint64","internalType":"uint64"},{"name":"requiredDVNCount","type":"uint8","internalType":"uint8"},{"name":"optionalDVNCount","type":"uint8","internalType":"uint8"},{"name":"optionalDVNThreshold","type":"uint8","internalType":"uint8"},{"name":"requiredDVNs","type":"address[]","internalType":"address[]"},{"name":"optionalDVNs","type":"address[]","internalType":"address[]"}]},{"name":"_headerHash","type":"bytes32","internalType":"bytes32"},{"name":"_payloadHash","type":"bytes32","internalType":"bytes32"}],"outputs":[{"name":"","type":"bool","internalType":"bool"}],"stateMutability":"view"},{"type":"function","name":"verify","inputs":[{"name":"_packetHeader","type":"bytes","internalType":"bytes"},{"name":"_payloadHash","type":"bytes32","internalType":"bytes32"},{"name":"_confirmations","type":"uint64","internalType":"uint64"}],"outputs":[],"stateMutability":"nonpayable"},{"type":"function","name":"version","inputs":[],"outputs":[{"name":"major","type":"uint64","internalType":"uint64"},{"name":"minor","type":"uint8","internalType":"uint8"},{"name":"endpointVersion","type":"uint8","internalType":"uint8"}],"stateMutability":"pure"},{"type":"event","name":"DefaultUlnConfigsSet","inputs":[{"name":"params","type":"tuple[]","indexed":false,"internalType":"struct SetDefaultUlnConfigParam[]","components":[{"name":"eid","type":"uint32","internalType":"uint32"},{"name":"config","type":"tuple","internalType":"struct UlnConfig","components":[{"name":"confirmations","type":"uint64","internalType":"uint64"},{"name":"requiredDVNCount","type":"uint8","internalType":"uint8"},{"name":"optionalDVNCount","type":"uint8","internalType":"uint8"},{"name":"optionalDVNThreshold","type":"uint8","internalType":"uint8"},{"name":"requiredDVNs","type":"address[]","internalType":"address[]"},{"name":"optionalDVNs","type":"address[]","internalType":"address[]"}]}]}],"anonymous":false},{"type":"event","name":"OwnershipTransferred","inputs":[{"name":"previousOwner","type":"address","indexed":true,"internalType":"address"},{"name":"newOwner","type":"address","indexed":true,"internalType":"address"}],"anonymous":false},{"type":"event","name":"PayloadVerified","inputs":[{"name":"dvn","type":"address","indexed":false,"internalType":"address"},{"name":"header","type":"bytes","indexed":false,"internalType":"bytes"},{"name":"confirmations","type":"uint256","indexed":false,"internalType":"uint256"},{"name":"proofHash","type":"bytes32","indexed":false,"internalType":"bytes32"}],"anonymous":false},{"type":"event","name":"UlnConfigSet","inputs":[{"name":"oapp","type":"address","indexed":false,"internalType":"address"},{"name":"eid","type":"uint32","indexed":false,"internalType":"uint32"},{"name":"config","type":"tuple","indexed":false,"internalType":"struct UlnConfig","components":[{"name":"confirmations","type":"uint64","internalType":"uint64"},{"name":"requiredDVNCount","type":"uint8","internalType":"uint8"},{"name":"optionalDVNCount","type":"uint8","internalType":"uint8"},{"name":"optionalDVNThreshold","type":"uint8","internalType":"uint8"},{"name":"requiredDVNs","type":"address[]","internalType":"address[]"},{"name":"optionalDVNs","type":"address[]","internalType":"address[]"}]}],"anonymous":false},{"type":"error","name":"LZ_MessageLib_OnlyEndpoint","inputs":[]},{"type":"error","name":"LZ_ULN_AtLeastOneDVN","inputs":[]},{"type":"error","name":"LZ_ULN_InvalidConfigType","inputs":[{"name":"configType","type":"uint32","internalType":"uint32"}]},{"type":"error","name":"LZ_ULN_InvalidConfirmations","inputs":[]},{"type":"error","name":"LZ_ULN_InvalidEid","inputs":[]},{"type":"error","name":"LZ_ULN_InvalidOptionalDVNCount","inputs":[]},{"type":"error","name":"LZ_ULN_InvalidOptionalDVNThreshold","inputs":[]},{"type":"error","name":"LZ_ULN_InvalidPacketHeader","inputs":[]},{"type":"error","name":"LZ_ULN_InvalidPacketVersion","inputs":[]},{"type":"error","name":"LZ_ULN_InvalidRequiredDVNCount","inputs":[]},{"type":"error","name":"LZ_ULN_Unsorted","inputs":[]},{"type":"error","name":"LZ_ULN_UnsupportedEid","inputs":[{"name":"eid","type":"uint32","internalType":"uint32"}]},{"type":"error","name":"LZ_ULN_Verifying","inputs":[]},{"type":"error","name":"OwnableInvalidOwner","inputs":[{"name":"owner","type":"address","internalType":"address"}]},{"type":"error","name":"OwnableUnauthorizedAccount","inputs":[{"name":"account","type":"address","internalType":"address"}]}],"bytecode":{"object":"0x60c060405234801562000010575f80fd5b5060405162002b7c38038062002b7c833981016040819052620000339162000139565b8080816001600160a01b031663416ecebf6040518163ffffffff1660e01b8152600401602060405180830381865afa15801562000072573d5f803e3d5ffd5b505050506040513d601f19601f8201168201806040525081019062000098919062000168565b3380620000be57604051631e4fbdf760e01b81525f600482015260240160405180910390fd5b620000c981620000ea565b506001600160a01b0390911660805263ffffffff1660a052506200018d9050565b5f80546001600160a01b038381166001600160a01b0319831681178455604051919092169283917f8be0079c531659141344cd1fd0a4f28419497f9722a3daafe3b4186f6b6457e09190a35050565b5f602082840312156200014a575f80fd5b81516001600160a01b038116811462000161575f80fd5b9392505050565b5f6020828403121562000179575f80fd5b815163ffffffff8116811462000161575f80fd5b60805160a0516129c6620001b65f395f61036301525f818161048301526104e701526129c65ff3fe608060405234801561000f575f80fd5b5060043610610115575f3560e01c806343ea4fa9116100ad5780638da5cb5b1161007d578063c40ff83511610063578063c40ff835146102b6578063e084d952146102c9578063f2fde38b146102dc575f80fd5b80638da5cb5b1461026f5780639c33abf714610296575f80fd5b806343ea4fa91461022257806354fd4d50146102355780636750cd4c14610254578063715018a614610267575f80fd5b806320efd722116100e857806320efd7221461017857806329460b0b1461018b57806339e3f9381461019e5780633c782a52146101be575f80fd5b806301ffc9a7146101195780630223536e146101415780630894edf1146101565780631881d94d14610169575b5f80fd5b61012c610127366004611bf2565b6102ef565b60405190151581526020015b60405180910390f35b61015461014f366004611c92565b61034a565b005b610154610164366004611ceb565b61035c565b60016040516101389190611d33565b610154610186366004611dd6565b6104e5565b610154610199366004611e25565b610645565b6101b16101ac366004611e77565b610828565b6040516101389190611f69565b6102026101cc366004611f7b565b600260209081525f938452604080852082529284528284209052825290205460ff811690610100900467ffffffffffffffff1682565b60408051921515835267ffffffffffffffff909116602083015201610138565b6101b1610230366004611e77565b6109c3565b60408051600381525f6020820152600291810191909152606001610138565b61012c610262366004611fad565b610d74565b610154610d7e565b5f5460405173ffffffffffffffffffffffffffffffffffffffff9091168152602001610138565b6102a96102a4366004611fc6565b610d91565b6040516101389190611ffd565b6101546102c4366004612067565b610e31565b61012c6102d7366004612283565b610e41565b6101546102ea3660046122cd565b610e55565b5f7fffffffff0000000000000000000000000000000000000000000000000000000082167f0ab7be9f000000000000000000000000000000000000000000000000000000001480610344575061034482610eb8565b92915050565b61035684848484610f4e565b50505050565b61038783837f0000000000000000000000000000000000000000000000000000000000000000611060565b5f610392848461112e565b90505f61039f858561113f565b90505f6103ac83836109c3565b90506103d08187876040516103c29291906122e6565b604051809103902086611161565b5f60405180606001604052808463ffffffff1681526020016103f2898961130a565b81526020016104018989611322565b67ffffffffffffffff908116909152604080517fa825d747000000000000000000000000000000000000000000000000000000008152835163ffffffff1660048201526020840151602482015290830151909116604482015273ffffffffffffffffffffffffffffffffffffffff8681166064830152608482018890529192507f00000000000000000000000000000000000000000000000000000000000000009091169063a825d7479060a4015f604051808303815f87803b1580156104c6575f80fd5b505af11580156104d8573d5f803e3d5ffd5b5050505050505050505050565b7f000000000000000000000000000000000000000000000000000000000000000073ffffffffffffffffffffffffffffffffffffffff163314610554576040517f467409c300000000000000000000000000000000000000000000000000000000815260040160405180910390fd5b5f5b818110156103565736838383818110610571576105716122f5565b90506020028101906105839190612322565b905061059a6105956020830183611fad565b611344565b60026105ac6040830160208401611fad565b63ffffffff16036105ec576105e76105c76020830183611fad565b866105d5604085018561235e565b8101906105e291906123bf565b61138b565b61063c565b6105fc6040820160208301611fad565b6040517fba97c1fa00000000000000000000000000000000000000000000000000000000815263ffffffff90911660048201526024015b60405180910390fd5b50600101610556565b61064d6113e1565b5f5b818110156107ea573683838381811061066a5761066a6122f5565b905060200281019061067c91906123f1565b905060ff61068d6020830183612423565b61069e906040810190602001612455565b60ff16036106d8576040517f83aa17da00000000000000000000000000000000000000000000000000000000815260040160405180910390fd5b60ff6106e76020830183612423565b6106f8906060810190604001612455565b60ff1603610732576040517f4221136600000000000000000000000000000000000000000000000000000000815260040160405180910390fd5b67ffffffffffffffff6107486020830183612423565b61075690602081019061246e565b67ffffffffffffffff1603610797576040517f503667ae00000000000000000000000000000000000000000000000000000000815260040160405180910390fd5b6107b56107a76020830183612423565b6107b090612487565b611433565b6107e15f6107c66020840184611fad565b6107d36020850185612423565b6107dc90612487565b611484565b5060010161064f565b507faaf3aaa0c11056e86ac56eb653e25b005ca1a7d4dcd21ba24647f7ab63f3b560828260405161081c92919061253c565b60405180910390a15050565b6040805160c0810182525f808252602082018190529181018290526060808201929092526080810182905260a081019190915273ffffffffffffffffffffffffffffffffffffffff83165f90815260016020818152604080842063ffffffff87168552825292839020835160c081018552815467ffffffffffffffff8116825260ff680100000000000000008204811683860152690100000000000000000082048116838801526a0100000000000000000000909104166060820152928101805485518185028101850190965280865293949193608086019383018282801561094557602002820191905f5260205f20905b815473ffffffffffffffffffffffffffffffffffffffff16815260019091019060200180831161091a575b50505050508152602001600282018054806020026020016040519081016040528092919081815260200182805480156109b257602002820191905f5260205f20905b815473ffffffffffffffffffffffffffffffffffffffff168152600190910190602001808311610987575b505050505081525050905092915050565b6040805160c0810182525f808252602080830182905282840182905260608084018390526080840181905260a084015263ffffffff85168083527fa6eef7e35abe7026729641147f7915573c7e97b47efa546f5f6e3230263bcb49825284832073ffffffffffffffffffffffffffffffffffffffff88168452600183528584209184529152929020805491929167ffffffffffffffff1680610a7257825467ffffffffffffffff168452610a91565b67ffffffffffffffff81811614610a915767ffffffffffffffff811684525b815468010000000000000000900460ff16610b4557825468010000000000000000900460ff1615610b405782600101805480602002602001604051908101604052809291908181526020018280548015610b1f57602002820191905f5260205f20905b815473ffffffffffffffffffffffffffffffffffffffff168152600190910190602001808311610af4575b50505050506080850152825468010000000000000000900460ff1660208501525b610be1565b815468010000000000000000900460ff90811614610be15781600101805480602002602001604051908101604052809291908181526020018280548015610bc057602002820191905f5260205f20905b815473ffffffffffffffffffffffffffffffffffffffff168152600190910190602001808311610b95575b50505050506080850152815468010000000000000000900460ff1660208501525b81546901000000000000000000900460ff16610cae5782546901000000000000000000900460ff1615610ca95782600201805480602002602001604051908101604052809291908181526020018280548015610c7157602002820191905f5260205f20905b815473ffffffffffffffffffffffffffffffffffffffff168152600190910190602001808311610c46575b505050505060a0850152825460ff69010000000000000000008204811660408701526a01000000000000000000009091041660608501525b610d62565b81546901000000000000000000900460ff90811614610d625781600201805480602002602001604051908101604052809291908181526020018280548015610d2a57602002820191905f5260205f20905b815473ffffffffffffffffffffffffffffffffffffffff168152600190910190602001808311610cff575b505050505060a0850152815460ff69010000000000000000008204811660408701526a01000000000000000000009091041660608501525b610d6b84611433565b50505092915050565b5f61034482611817565b610d866113e1565b610d8f5f61187d565b565b60607ffffffffffffffffffffffffffffffffffffffffffffffffffffffffffffffffe63ffffffff831601610df057610dca83856109c3565b604051602001610dda9190611f69565b6040516020818303038152906040529050610e2a565b6040517fba97c1fa00000000000000000000000000000000000000000000000000000000815263ffffffff83166004820152602401610633565b9392505050565b610e3c838383611060565b505050565b5f610e4d8484846118f1565b949350505050565b610e5d6113e1565b73ffffffffffffffffffffffffffffffffffffffff8116610eac576040517f1e4fbdf70000000000000000000000000000000000000000000000000000000081525f6004820152602401610633565b610eb58161187d565b50565b5f7fffffffff0000000000000000000000000000000000000000000000000000000082167f97f0258400000000000000000000000000000000000000000000000000000000148061034457507f01ffc9a7000000000000000000000000000000000000000000000000000000007fffffffff00000000000000000000000000000000000000000000000000000000831614610344565b6040805180820182526001815267ffffffffffffffff8316602082015290516002905f90610f7f90889088906122e6565b604080519182900390912082526020808301939093529081015f9081208682528352818120338083529084529082902084518154959094015167ffffffffffffffff16610100027fffffffffffffffffffffffffffffffffffffffffffffff0000000000000000ff941515949094167fffffffffffffffffffffffffffffffffffffffffffffff000000000000000000909516949094179290921790925590517f2cb0eed7538baeae4c6fde038c0fd0384d27de0dd55a228c65847bda6aa1ab56916110529187908790869088906126d6565b60405180910390a150505050565b6051821461109a576040517fc9bf37b700000000000000000000000000000000000000000000000000000000815260040160405180910390fd5b60016110a684846119f1565b60ff16146110e0576040517f3a9ae7b900000000000000000000000000000000000000000000000000000000815260040160405180910390fd5b8063ffffffff166110f18484611a12565b63ffffffff1614610e3c576040517f42d2c97e00000000000000000000000000000000000000000000000000000000815260040160405180910390fd5b5f610e2a61113c8484611a21565b90565b5f61114e600d60098486612759565b61115791612780565b60e01c9392505050565b61116c8383836118f1565b6111a2576040517f4c3118d400000000000000000000000000000000000000000000000000000000815260040160405180910390fd5b602083015160ff1615611257575f5b836020015160ff168160ff161015611255575f83815260026020908152604080832085845290915281206080860151805191929160ff85169081106111f8576111f86122f5565b60209081029190910181015173ffffffffffffffffffffffffffffffffffffffff1682528101919091526040015f2080547fffffffffffffffffffffffffffffffffffffffffffffff0000000000000000001690556001016111b1565b505b604083015160ff1615610e3c575f5b836040015160ff168160ff161015610356575f838152600260209081526040808320858452909152812060a0860151805191929160ff85169081106112ad576112ad6122f5565b60209081029190910181015173ffffffffffffffffffffffffffffffffffffffff1682528101919091526040015f2080547fffffffffffffffffffffffffffffffffffffffffffffff000000000000000000169055600101611266565b5f611319602d600d8486612759565b610e2a916127c8565b5f611331600960018486612759565b61133a91612804565b60c01c9392505050565b61134d81611817565b610eb5576040517ff0c10d0400000000000000000000000000000000000000000000000000000000815263ffffffff82166004820152602401610633565b611396828483611484565b6113a082846109c3565b507f82118522aa536ac0e96cc5c689407ae42b89d592aa133890a01f1509842f50818284836040516113d49392919061284a565b60405180910390a1505050565b5f5473ffffffffffffffffffffffffffffffffffffffff163314610d8f576040517f118cdaa7000000000000000000000000000000000000000000000000000000008152336004820152602401610633565b602081015160ff1615801561144d5750606081015160ff16155b15610eb5576040517fce2c375100000000000000000000000000000000000000000000000000000000815260040160405180910390fd5b602081015160ff908116148061149f5750602081015160ff16155b156114e657608081015151156114e1576040517f83aa17da00000000000000000000000000000000000000000000000000000000815260040160405180910390fd5b611565565b806020015160ff168160800151511415806115215750600261150a600160ff6128b1565b61151491906128ca565b60ff16816020015160ff16115b15611558576040517f83aa17da00000000000000000000000000000000000000000000000000000000815260040160405180910390fd5b6115658160800151611a30565b604081015160ff90811614806115805750604081015160ff16155b156116065760a081015151156115c2576040517f4221136600000000000000000000000000000000000000000000000000000000815260040160405180910390fd5b606081015160ff1615611601576040517f38682fa900000000000000000000000000000000000000000000000000000000815260040160405180910390fd5b6116dd565b806040015160ff168160a00151511415806116415750600261162a600160ff6128b1565b61163491906128ca565b60ff16816040015160ff16115b15611678576040517f4221136600000000000000000000000000000000000000000000000000000000815260040160405180910390fd5b606081015160ff1615806116995750806040015160ff16816060015160ff16115b156116d0576040517f38682fa900000000000000000000000000000000000000000000000000000000815260040160405180910390fd5b6116dd8160a00151611a30565b73ffffffffffffffffffffffffffffffffffffffff83165f90815260016020818152604080842063ffffffff87168552825292839020845181548684015195870151606088015167ffffffffffffffff9093167fffffffffffffffffffffffffffffffffffffffffffffff000000000000000000909216919091176801000000000000000060ff97881602177fffffffffffffffffffffffffffffffffffffffffff0000ffffffffffffffffff166901000000000000000000918716919091027fffffffffffffffffffffffffffffffffffffffffff00ffffffffffffffffffff16176a01000000000000000000009590911694909402939093178355608084015180518594936117f393908501920190611b56565b5060a0820151805161180f916002840191602090910190611b56565b505050505050565b63ffffffff81165f9081527fa6eef7e35abe7026729641147f7915573c7e97b47efa546f5f6e3230263bcb4960205260408120805468010000000000000000900460ff16151580610e2a5750546a0100000000000000000000900460ff16151592915050565b5f805473ffffffffffffffffffffffffffffffffffffffff8381167fffffffffffffffffffffffff0000000000000000000000000000000000000000831681178455604051919092169283917f8be0079c531659141344cd1fd0a4f28419497f9722a3daafe3b4186f6b6457e09190a35050565b60208301515f9060ff161561196f575f5b846020015160ff168160ff1610156119585761194385608001518260ff1681518110611930576119306122f5565b60200260200101518585885f0151611ac8565b611950575f915050610e2a565b600101611902565b50836040015160ff165f0361196f57506001610e2a565b60608401515f5b856040015160ff168160ff1610156119e6576119b78660a001518260ff16815181106119a4576119a46122f5565b60200260200101518686895f0151611ac8565b156119de57816119c681612910565b9250508160ff165f036119de57600192505050610e2a565b600101611976565b505f95945050505050565b5f6119ff6001828486612759565b611a089161294a565b60f81c9392505050565b5f61114e6031602d8486612759565b5f611319605160318486612759565b5f805b8251811015610e3c575f838281518110611a4f57611a4f6122f5565b602002602001015190508273ffffffffffffffffffffffffffffffffffffffff168173ffffffffffffffffffffffffffffffffffffffff1611611abe576040517f447516e100000000000000000000000000000000000000000000000000000000815260040160405180910390fd5b9150600101611a33565b5f838152600260209081526040808320858452825280832073ffffffffffffffffffffffffffffffffffffffff88168452825280832081518083019092525460ff811615801580845261010090920467ffffffffffffffff16938301939093529091611b4c57508267ffffffffffffffff16816020015167ffffffffffffffff1610155b9695505050505050565b828054828255905f5260205f20908101928215611bce579160200282015b82811115611bce57825182547fffffffffffffffffffffffff00000000000000000000000000000000000000001673ffffffffffffffffffffffffffffffffffffffff909116178255602090920191600190910190611b74565b50611bda929150611bde565b5090565b5b80821115611bda575f8155600101611bdf565b5f60208284031215611c02575f80fd5b81357fffffffff0000000000000000000000000000000000000000000000000000000081168114610e2a575f80fd5b5f8083601f840112611c41575f80fd5b50813567ffffffffffffffff811115611c58575f80fd5b602083019150836020828501011115611c6f575f80fd5b9250929050565b803567ffffffffffffffff81168114611c8d575f80fd5b919050565b5f805f8060608587031215611ca5575f80fd5b843567ffffffffffffffff811115611cbb575f80fd5b611cc787828801611c31565b90955093505060208501359150611ce060408601611c76565b905092959194509250565b5f805f60408486031215611cfd575f80fd5b833567ffffffffffffffff811115611d13575f80fd5b611d1f86828701611c31565b909790965060209590950135949350505050565b6020810160038310611d6c577f4e487b71000000000000000000000000000000000000000000000000000000005f52602160045260245ffd5b91905290565b803573ffffffffffffffffffffffffffffffffffffffff81168114611c8d575f80fd5b5f8083601f840112611da5575f80fd5b50813567ffffffffffffffff811115611dbc575f80fd5b6020830191508360208260051b8501011115611c6f575f80fd5b5f805f60408486031215611de8575f80fd5b611df184611d72565b9250602084013567ffffffffffffffff811115611e0c575f80fd5b611e1886828701611d95565b9497909650939450505050565b5f8060208385031215611e36575f80fd5b823567ffffffffffffffff811115611e4c575f80fd5b611e5885828601611d95565b90969095509350505050565b803563ffffffff81168114611c8d575f80fd5b5f8060408385031215611e88575f80fd5b611e9183611d72565b9150611e9f60208401611e64565b90509250929050565b5f815180845260208085019450602084015f5b83811015611eed57815173ffffffffffffffffffffffffffffffffffffffff1687529582019590820190600101611ebb565b509495945050505050565b67ffffffffffffffff815116825260ff602082015116602083015260ff604082015116604083015260ff60608201511660608301525f608082015160c06080850152611f4760c0850182611ea8565b905060a083015184820360a0860152611f608282611ea8565b95945050505050565b602081525f610e2a6020830184611ef8565b5f805f60608486031215611f8d575f80fd5b8335925060208401359150611fa460408501611d72565b90509250925092565b5f60208284031215611fbd575f80fd5b610e2a82611e64565b5f805f60608486031215611fd8575f80fd5b611fe184611e64565b9250611fef60208501611d72565b9150611fa460408501611e64565b5f602080835283518060208501525f5b818110156120295785810183015185820160400152820161200d565b505f6040828601015260407fffffffffffffffffffffffffffffffffffffffffffffffffffffffffffffffe0601f8301168501019250505092915050565b5f805f60408486031215612079575f80fd5b833567ffffffffffffffff81111561208f575f80fd5b61209b86828701611c31565b9094509250611fa4905060208501611e64565b7f4e487b71000000000000000000000000000000000000000000000000000000005f52604160045260245ffd5b60405160c0810167ffffffffffffffff811182821017156120fe576120fe6120ae565b60405290565b803560ff81168114611c8d575f80fd5b5f82601f830112612123575f80fd5b8135602067ffffffffffffffff80831115612140576121406120ae565b8260051b6040517fffffffffffffffffffffffffffffffffffffffffffffffffffffffffffffffe0603f83011681018181108482111715612183576121836120ae565b60405293845260208187018101949081019250878511156121a2575f80fd5b6020870191505b848210156121c9576121ba82611d72565b835291830191908301906121a9565b979650505050505050565b5f60c082840312156121e4575f80fd5b6121ec6120db565b90506121f782611c76565b815261220560208301612104565b602082015261221660408301612104565b604082015261222760608301612104565b6060820152608082013567ffffffffffffffff80821115612246575f80fd5b61225285838601612114565b608084015260a084013591508082111561226a575f80fd5b5061227784828501612114565b60a08301525092915050565b5f805f60608486031215612295575f80fd5b833567ffffffffffffffff8111156122ab575f80fd5b6122b7868287016121d4565b9660208601359650604090950135949350505050565b5f602082840312156122dd575f80fd5b610e2a82611d72565b818382375f9101908152919050565b7f4e487b71000000000000000000000000000000000000000000000000000000005f52603260045260245ffd5b5f82357fffffffffffffffffffffffffffffffffffffffffffffffffffffffffffffffa1833603018112612354575f80fd5b9190910192915050565b5f8083357fffffffffffffffffffffffffffffffffffffffffffffffffffffffffffffffe1843603018112612391575f80fd5b83018035915067ffffffffffffffff8211156123ab575f80fd5b602001915036819003821315611c6f575f80fd5b5f602082840312156123cf575f80fd5b813567ffffffffffffffff8111156123e5575f80fd5b610e4d848285016121d4565b5f82357fffffffffffffffffffffffffffffffffffffffffffffffffffffffffffffffc1833603018112612354575f80fd5b5f82357fffffffffffffffffffffffffffffffffffffffffffffffffffffffffffffff41833603018112612354575f80fd5b5f60208284031215612465575f80fd5b610e2a82612104565b5f6020828403121561247e575f80fd5b610e2a82611c76565b5f61034436836121d4565b5f8083357fffffffffffffffffffffffffffffffffffffffffffffffffffffffffffffffe18436030181126124c5575f80fd5b830160208101925035905067ffffffffffffffff8111156124e4575f80fd5b8060051b3603821315611c6f575f80fd5b8183525f60208085019450825f5b85811015611eed5773ffffffffffffffffffffffffffffffffffffffff61252983611d72565b1687529582019590820190600101612503565b60208082528181018390525f906040808401600586901b8501820187855b888110156126c8577fffffffffffffffffffffffffffffffffffffffffffffffffffffffffffffffc08089850301855282357fffffffffffffffffffffffffffffffffffffffffffffffffffffffffffffffc18c36030181126125bb575f80fd5b8b0163ffffffff6125cb82611e64565b168552878101357fffffffffffffffffffffffffffffffffffffffffffffffffffffffffffffff41823603018112612601575f80fd5b8589018890520167ffffffffffffffff61261a82611c76565b168786015261262a888201612104565b606060ff808316828901526126408a8501612104565b92506080818416818a0152612656838601612104565b935060a09250818416838a015261266f81860186612492565b60c08b8101529450915061268a9050610100890184836124f5565b92505061269981840184612492565b93509050838783030160e08801526126b28284836124f5565b978a01979650505092870192505060010161255a565b509098975050505050505050565b73ffffffffffffffffffffffffffffffffffffffff8616815260806020820152836080820152838560a08301375f60a085830101525f60a07fffffffffffffffffffffffffffffffffffffffffffffffffffffffffffffffe0601f870116830101905067ffffffffffffffff841660408301528260608301529695505050505050565b5f8085851115612767575f80fd5b83861115612773575f80fd5b5050820193919092039150565b7fffffffff0000000000000000000000000000000000000000000000000000000081358181169160048510156127c05780818660040360031b1b83161692505b505092915050565b80356020831015610344577fffffffffffffffffffffffffffffffffffffffffffffffffffffffffffffffff602084900360031b1b1692915050565b7fffffffffffffffff00000000000000000000000000000000000000000000000081358181169160088510156127c05760089490940360031b84901b1690921692915050565b73ffffffffffffffffffffffffffffffffffffffff8416815263ffffffff83166020820152606060408201525f611f606060830184611ef8565b7f4e487b71000000000000000000000000000000000000000000000000000000005f52601160045260245ffd5b60ff828116828216039081111561034457610344612884565b5f60ff831680612901577f4e487b71000000000000000000000000000000000000000000000000000000005f52601260045260245ffd5b8060ff84160491505092915050565b5f60ff82168061292257612922612884565b7fffffffffffffffffffffffffffffffffffffffffffffffffffffffffffffffff0192915050565b7fff0000000000000000000000000000000000000000000000000000000000000081358181169160018510156127c05760019490940360031b84901b169092169291505056fea264697066735822122077e67ebf383acd0b8af065e898e8222a669637b0e01ab8f86b8d2330a41201fc64736f6c63430008160033","linkReferences":{}},"methodIdentifiers":{"assertHeader(bytes,uint32)":"c40ff835","commitVerification(bytes,bytes32)":"0894edf1","getAppUlnConfig(address,uint32)":"39e3f938","getConfig(uint32,address,uint32)":"9c33abf7","getUlnConfig(address,uint32)":"43ea4fa9","hashLookup(bytes32,bytes32,address)":"3c782a52","isSupportedEid(uint32)":"6750cd4c","messageLibType()":"1881d94d","owner()":"8da5cb5b","renounceOwnership()":"715018a6","setConfig(address,(uint32,uint32,bytes)[])":"20efd722","setDefaultUlnConfigs((uint32,(uint64,uint8,uint8,uint8,address[],address[]))[])":"29460b0b","supportsInterface(bytes4)":"01ffc9a7","transferOwnership(address)":"f2fde38b","verifiable((uint64,uint8,uint8,uint8,address[],address[]),bytes32,bytes32)":"e084d952","verify(bytes,bytes32,uint64)":"0223536e","version()":"54fd4d50"},"id":94}