{
  "address": "0x9748733678AB402e3B0464213D7f629709A87260",
  "abi": [
    {
      "inputs": [
        {
          "internalType": "string",
          "name": "_uri",
          "type": "string"
        },
        {
          "internalType": "address",
          "name": "_lzEndpoint",
          "type": "address"
        }
      ],
      "stateMutability": "nonpayable",
      "type": "constructor"
    },
    {
      "anonymous": false,
      "inputs": [
        {
          "indexed": true,
          "internalType": "address",
          "name": "account",
          "type": "address"
        },
        {
          "indexed": true,
          "internalType": "address",
          "name": "operator",
          "type": "address"
        },
        {
          "indexed": false,
          "internalType": "bool",
          "name": "approved",
          "type": "bool"
        }
      ],
      "name": "ApprovalForAll",
      "type": "event"
    },
    {
      "anonymous": false,
      "inputs": [
        {
          "indexed": false,
          "internalType": "uint16",
          "name": "_srcChainId",
          "type": "uint16"
        },
        {
          "indexed": false,
          "internalType": "bytes",
          "name": "_srcAddress",
          "type": "bytes"
        },
        {
          "indexed": false,
          "internalType": "uint64",
          "name": "_nonce",
          "type": "uint64"
        },
        {
          "indexed": false,
          "internalType": "bytes",
          "name": "_payload",
          "type": "bytes"
        },
        {
          "indexed": false,
          "internalType": "bytes",
          "name": "_reason",
          "type": "bytes"
        }
      ],
      "name": "MessageFailed",
      "type": "event"
    },
    {
      "anonymous": false,
      "inputs": [
        {
          "indexed": true,
          "internalType": "address",
          "name": "previousOwner",
          "type": "address"
        },
        {
          "indexed": true,
          "internalType": "address",
          "name": "newOwner",
          "type": "address"
        }
      ],
      "name": "OwnershipTransferred",
      "type": "event"
    },
    {
      "anonymous": false,
      "inputs": [
        {
          "indexed": true,
          "internalType": "uint16",
          "name": "_srcChainId",
          "type": "uint16"
        },
        {
          "indexed": true,
          "internalType": "bytes",
          "name": "_srcAddress",
          "type": "bytes"
        },
        {
          "indexed": true,
          "internalType": "address",
          "name": "_toAddress",
          "type": "address"
        },
        {
          "indexed": false,
          "internalType": "uint256[]",
          "name": "_tokenIds",
          "type": "uint256[]"
        },
        {
          "indexed": false,
          "internalType": "uint256[]",
          "name": "_amounts",
          "type": "uint256[]"
        }
      ],
      "name": "ReceiveBatchFromChain",
      "type": "event"
    },
    {
      "anonymous": false,
      "inputs": [
        {
          "indexed": true,
          "internalType": "uint16",
          "name": "_srcChainId",
          "type": "uint16"
        },
        {
          "indexed": true,
          "internalType": "bytes",
          "name": "_srcAddress",
          "type": "bytes"
        },
        {
          "indexed": true,
          "internalType": "address",
          "name": "_toAddress",
          "type": "address"
        },
        {
          "indexed": false,
          "internalType": "uint256",
          "name": "_tokenId",
          "type": "uint256"
        },
        {
          "indexed": false,
          "internalType": "uint256",
          "name": "_amount",
          "type": "uint256"
        }
      ],
      "name": "ReceiveFromChain",
      "type": "event"
    },
    {
      "anonymous": false,
      "inputs": [
        {
          "indexed": false,
          "internalType": "uint16",
          "name": "_srcChainId",
          "type": "uint16"
        },
        {
          "indexed": false,
          "internalType": "bytes",
          "name": "_srcAddress",
          "type": "bytes"
        },
        {
          "indexed": false,
          "internalType": "uint64",
          "name": "_nonce",
          "type": "uint64"
        },
        {
          "indexed": false,
          "internalType": "bytes32",
          "name": "_payloadHash",
          "type": "bytes32"
        }
      ],
      "name": "RetryMessageSuccess",
      "type": "event"
    },
    {
      "anonymous": false,
      "inputs": [
        {
          "indexed": true,
          "internalType": "uint16",
          "name": "_dstChainId",
          "type": "uint16"
        },
        {
          "indexed": true,
          "internalType": "address",
          "name": "_from",
          "type": "address"
        },
        {
          "indexed": true,
          "internalType": "bytes",
          "name": "_toAddress",
          "type": "bytes"
        },
        {
          "indexed": false,
          "internalType": "uint256[]",
          "name": "_tokenIds",
          "type": "uint256[]"
        },
        {
          "indexed": false,
          "internalType": "uint256[]",
          "name": "_amounts",
          "type": "uint256[]"
        }
      ],
      "name": "SendBatchToChain",
      "type": "event"
    },
    {
      "anonymous": false,
      "inputs": [
        {
          "indexed": true,
          "internalType": "uint16",
          "name": "_dstChainId",
          "type": "uint16"
        },
        {
          "indexed": true,
          "internalType": "address",
          "name": "_from",
          "type": "address"
        },
        {
          "indexed": true,
          "internalType": "bytes",
          "name": "_toAddress",
          "type": "bytes"
        },
        {
          "indexed": false,
          "internalType": "uint256",
          "name": "_tokenId",
          "type": "uint256"
        },
        {
          "indexed": false,
          "internalType": "uint256",
          "name": "_amount",
          "type": "uint256"
        }
      ],
      "name": "SendToChain",
      "type": "event"
    },
    {
      "anonymous": false,
      "inputs": [
        {
          "indexed": false,
          "internalType": "uint16",
          "name": "_dstChainId",
          "type": "uint16"
        },
        {
          "indexed": false,
          "internalType": "uint16",
          "name": "_type",
          "type": "uint16"
        },
        {
          "indexed": false,
          "internalType": "uint256",
          "name": "_minDstGas",
          "type": "uint256"
        }
      ],
      "name": "SetMinDstGas",
      "type": "event"
    },
    {
      "anonymous": false,
      "inputs": [
        {
          "indexed": false,
          "internalType": "address",
          "name": "precrime",
          "type": "address"
        }
      ],
      "name": "SetPrecrime",
      "type": "event"
    },
    {
      "anonymous": false,
      "inputs": [
        {
          "indexed": false,
          "internalType": "uint16",
          "name": "_remoteChainId",
          "type": "uint16"
        },
        {
          "indexed": false,
          "internalType": "bytes",
          "name": "_path",
          "type": "bytes"
        }
      ],
      "name": "SetTrustedRemote",
      "type": "event"
    },
    {
      "anonymous": false,
      "inputs": [
        {
          "indexed": false,
          "internalType": "uint16",
          "name": "_remoteChainId",
          "type": "uint16"
        },
        {
          "indexed": false,
          "internalType": "bytes",
          "name": "_remoteAddress",
          "type": "bytes"
        }
      ],
      "name": "SetTrustedRemoteAddress",
      "type": "event"
    },
    {
      "anonymous": false,
      "inputs": [
        {
          "indexed": false,
          "internalType": "bool",
          "name": "_useCustomAdapterParams",
          "type": "bool"
        }
      ],
      "name": "SetUseCustomAdapterParams",
      "type": "event"
    },
    {
      "anonymous": false,
      "inputs": [
        {
          "indexed": true,
          "internalType": "address",
          "name": "operator",
          "type": "address"
        },
        {
          "indexed": true,
          "internalType": "address",
          "name": "from",
          "type": "address"
        },
        {
          "indexed": true,
          "internalType": "address",
          "name": "to",
          "type": "address"
        },
        {
          "indexed": false,
          "internalType": "uint256[]",
          "name": "ids",
          "type": "uint256[]"
        },
        {
          "indexed": false,
          "internalType": "uint256[]",
          "name": "values",
          "type": "uint256[]"
        }
      ],
      "name": "TransferBatch",
      "type": "event"
    },
    {
      "anonymous": false,
      "inputs": [
        {
          "indexed": true,
          "internalType": "address",
          "name": "operator",
          "type": "address"
        },
        {
          "indexed": true,
          "internalType": "address",
          "name": "from",
          "type": "address"
        },
        {
          "indexed": true,
          "internalType": "address",
          "name": "to",
          "type": "address"
        },
        {
          "indexed": false,
          "internalType": "uint256",
          "name": "id",
          "type": "uint256"
        },
        {
          "indexed": false,
          "internalType": "uint256",
          "name": "value",
          "type": "uint256"
        }
      ],
      "name": "TransferSingle",
      "type": "event"
    },
    {
      "anonymous": false,
      "inputs": [
        {
          "indexed": false,
          "internalType": "string",
          "name": "value",
          "type": "string"
        },
        {
          "indexed": true,
          "internalType": "uint256",
          "name": "id",
          "type": "uint256"
        }
      ],
      "name": "URI",
      "type": "event"
    },
    {
      "inputs": [],
      "name": "DEFAULT_PAYLOAD_SIZE_LIMIT",
      "outputs": [
        {
          "internalType": "uint256",
          "name": "",
          "type": "uint256"
        }
      ],
      "stateMutability": "view",
      "type": "function"
    },
    {
      "inputs": [],
      "name": "FUNCTION_TYPE_SEND",
      "outputs": [
        {
          "internalType": "uint16",
          "name": "",
          "type": "uint16"
        }
      ],
      "stateMutability": "view",
      "type": "function"
    },
    {
      "inputs": [],
      "name": "FUNCTION_TYPE_SEND_BATCH",
      "outputs": [
        {
          "internalType": "uint16",
          "name": "",
          "type": "uint16"
        }
      ],
      "stateMutability": "view",
      "type": "function"
    },
    {
      "inputs": [],
      "name": "NO_EXTRA_GAS",
      "outputs": [
        {
          "internalType": "uint256",
          "name": "",
          "type": "uint256"
        }
      ],
      "stateMutability": "view",
      "type": "function"
    },
    {
      "inputs": [
        {
          "internalType": "address",
          "name": "account",
          "type": "address"
        },
        {
          "internalType": "uint256",
          "name": "id",
          "type": "uint256"
        }
      ],
      "name": "balanceOf",
      "outputs": [
        {
          "internalType": "uint256",
          "name": "",
          "type": "uint256"
        }
      ],
      "stateMutability": "view",
      "type": "function"
    },
    {
      "inputs": [
        {
          "internalType": "address[]",
          "name": "accounts",
          "type": "address[]"
        },
        {
          "internalType": "uint256[]",
          "name": "ids",
          "type": "uint256[]"
        }
      ],
      "name": "balanceOfBatch",
      "outputs": [
        {
          "internalType": "uint256[]",
          "name": "",
          "type": "uint256[]"
        }
      ],
      "stateMutability": "view",
      "type": "function"
    },
    {
      "inputs": [
        {
          "internalType": "uint16",
          "name": "_dstChainId",
          "type": "uint16"
        },
        {
          "internalType": "bytes",
          "name": "_toAddress",
          "type": "bytes"
        },
        {
          "internalType": "uint256[]",
          "name": "_tokenIds",
          "type": "uint256[]"
        },
        {
          "internalType": "uint256[]",
          "name": "_amounts",
          "type": "uint256[]"
        },
        {
          "internalType": "bool",
          "name": "_useZro",
          "type": "bool"
        },
        {
          "internalType": "bytes",
          "name": "_adapterParams",
          "type": "bytes"
        }
      ],
      "name": "estimateSendBatchFee",
      "outputs": [
        {
          "internalType": "uint256",
          "name": "nativeFee",
          "type": "uint256"
        },
        {
          "internalType": "uint256",
          "name": "zroFee",
          "type": "uint256"
        }
      ],
      "stateMutability": "view",
      "type": "function"
    },
    {
      "inputs": [
        {
          "internalType": "uint16",
          "name": "_dstChainId",
          "type": "uint16"
        },
        {
          "internalType": "bytes",
          "name": "_toAddress",
          "type": "bytes"
        },
        {
          "internalType": "uint256",
          "name": "_tokenId",
          "type": "uint256"
        },
        {
          "internalType": "uint256",
          "name": "_amount",
          "type": "uint256"
        },
        {
          "internalType": "bool",
          "name": "_useZro",
          "type": "bool"
        },
        {
          "internalType": "bytes",
          "name": "_adapterParams",
          "type": "bytes"
        }
      ],
      "name": "estimateSendFee",
      "outputs": [
        {
          "internalType": "uint256",
          "name": "nativeFee",
          "type": "uint256"
        },
        {
          "internalType": "uint256",
          "name": "zroFee",
          "type": "uint256"
        }
      ],
      "stateMutability": "view",
      "type": "function"
    },
    {
      "inputs": [
        {
          "internalType": "uint16",
          "name": "",
          "type": "uint16"
        },
        {
          "internalType": "bytes",
          "name": "",
          "type": "bytes"
        },
        {
          "internalType": "uint64",
          "name": "",
          "type": "uint64"
        }
      ],
      "name": "failedMessages",
      "outputs": [
        {
          "internalType": "bytes32",
          "name": "",
          "type": "bytes32"
        }
      ],
      "stateMutability": "view",
      "type": "function"
    },
    {
      "inputs": [
        {
          "internalType": "uint16",
          "name": "_srcChainId",
          "type": "uint16"
        },
        {
          "internalType": "bytes",
          "name": "_srcAddress",
          "type": "bytes"
        }
      ],
      "name": "forceResumeReceive",
      "outputs": [],
      "stateMutability": "nonpayable",
      "type": "function"
    },
    {
      "inputs": [
        {
          "internalType": "uint16",
          "name": "_version",
          "type": "uint16"
        },
        {
          "internalType": "uint16",
          "name": "_chainId",
          "type": "uint16"
        },
        {
          "internalType": "address",
          "name": "",
          "type": "address"
        },
        {
          "internalType": "uint256",
          "name": "_configType",
          "type": "uint256"
        }
      ],
      "name": "getConfig",
      "outputs": [
        {
          "internalType": "bytes",
          "name": "",
          "type": "bytes"
        }
      ],
      "stateMutability": "view",
      "type": "function"
    },
    {
      "inputs": [
        {
          "internalType": "uint16",
          "name": "_remoteChainId",
          "type": "uint16"
        }
      ],
      "name": "getTrustedRemoteAddress",
      "outputs": [
        {
          "internalType": "bytes",
          "name": "",
          "type": "bytes"
        }
      ],
      "stateMutability": "view",
      "type": "function"
    },
    {
      "inputs": [
        {
          "internalType": "address",
          "name": "account",
          "type": "address"
        },
        {
          "internalType": "address",
          "name": "operator",
          "type": "address"
        }
      ],
      "name": "isApprovedForAll",
      "outputs": [
        {
          "internalType": "bool",
          "name": "",
          "type": "bool"
        }
      ],
      "stateMutability": "view",
      "type": "function"
    },
    {
      "inputs": [
        {
          "internalType": "uint16",
          "name": "_srcChainId",
          "type": "uint16"
        },
        {
          "internalType": "bytes",
          "name": "_srcAddress",
          "type": "bytes"
        }
      ],
      "name": "isTrustedRemote",
      "outputs": [
        {
          "internalType": "bool",
          "name": "",
          "type": "bool"
        }
      ],
      "stateMutability": "view",
      "type": "function"
    },
    {
      "inputs": [],
      "name": "lzEndpoint",
      "outputs": [
        {
          "internalType": "contract ILayerZeroEndpoint",
          "name": "",
          "type": "address"
        }
      ],
      "stateMutability": "view",
      "type": "function"
    },
    {
      "inputs": [
        {
          "internalType": "uint16",
          "name": "_srcChainId",
          "type": "uint16"
        },
        {
          "internalType": "bytes",
          "name": "_srcAddress",
          "type": "bytes"
        },
        {
          "internalType": "uint64",
          "name": "_nonce",
          "type": "uint64"
        },
        {
          "internalType": "bytes",
          "name": "_payload",
          "type": "bytes"
        }
      ],
      "name": "lzReceive",
      "outputs": [],
      "stateMutability": "nonpayable",
      "type": "function"
    },
    {
      "inputs": [
        {
          "internalType": "uint16",
          "name": "",
          "type": "uint16"
        },
        {
          "internalType": "uint16",
          "name": "",
          "type": "uint16"
        }
      ],
      "name": "minDstGasLookup",
      "outputs": [
        {
          "internalType": "uint256",
          "name": "",
          "type": "uint256"
        }
      ],
      "stateMutability": "view",
      "type": "function"
    },
    {
      "inputs": [
        {
          "internalType": "uint16",
          "name": "_srcChainId",
          "type": "uint16"
        },
        {
          "internalType": "bytes",
          "name": "_srcAddress",
          "type": "bytes"
        },
        {
          "internalType": "uint64",
          "name": "_nonce",
          "type": "uint64"
        },
        {
          "internalType": "bytes",
          "name": "_payload",
          "type": "bytes"
        }
      ],
      "name": "nonblockingLzReceive",
      "outputs": [],
      "stateMutability": "nonpayable",
      "type": "function"
    },
    {
      "inputs": [],
      "name": "owner",
      "outputs": [
        {
          "internalType": "address",
          "name": "",
          "type": "address"
        }
      ],
      "stateMutability": "view",
      "type": "function"
    },
    {
      "inputs": [
        {
          "internalType": "uint16",
          "name": "",
          "type": "uint16"
        }
      ],
      "name": "payloadSizeLimitLookup",
      "outputs": [
        {
          "internalType": "uint256",
          "name": "",
          "type": "uint256"
        }
      ],
      "stateMutability": "view",
      "type": "function"
    },
    {
      "inputs": [],
      "name": "precrime",
      "outputs": [
        {
          "internalType": "address",
          "name": "",
          "type": "address"
        }
      ],
      "stateMutability": "view",
      "type": "function"
    },
    {
      "inputs": [],
      "name": "renounceOwnership",
      "outputs": [],
      "stateMutability": "nonpayable",
      "type": "function"
    },
    {
      "inputs": [
        {
          "internalType": "uint16",
          "name": "_srcChainId",
          "type": "uint16"
        },
        {
          "internalType": "bytes",
          "name": "_srcAddress",
          "type": "bytes"
        },
        {
          "internalType": "uint64",
          "name": "_nonce",
          "type": "uint64"
        },
        {
          "internalType": "bytes",
          "name": "_payload",
          "type": "bytes"
        }
      ],
      "name": "retryMessage",
      "outputs": [],
      "stateMutability": "payable",
      "type": "function"
    },
    {
      "inputs": [
        {
          "internalType": "address",
          "name": "from",
          "type": "address"
        },
        {
          "internalType": "address",
          "name": "to",
          "type": "address"
        },
        {
          "internalType": "uint256[]",
          "name": "ids",
          "type": "uint256[]"
        },
        {
          "internalType": "uint256[]",
          "name": "amounts",
          "type": "uint256[]"
        },
        {
          "internalType": "bytes",
          "name": "data",
          "type": "bytes"
        }
      ],
      "name": "safeBatchTransferFrom",
      "outputs": [],
      "stateMutability": "nonpayable",
      "type": "function"
    },
    {
      "inputs": [
        {
          "internalType": "address",
          "name": "from",
          "type": "address"
        },
        {
          "internalType": "address",
          "name": "to",
          "type": "address"
        },
        {
          "internalType": "uint256",
          "name": "id",
          "type": "uint256"
        },
        {
          "internalType": "uint256",
          "name": "amount",
          "type": "uint256"
        },
        {
          "internalType": "bytes",
          "name": "data",
          "type": "bytes"
        }
      ],
      "name": "safeTransferFrom",
      "outputs": [],
      "stateMutability": "nonpayable",
      "type": "function"
    },
    {
      "inputs": [
        {
          "internalType": "address",
          "name": "_from",
          "type": "address"
        },
        {
          "internalType": "uint16",
          "name": "_dstChainId",
          "type": "uint16"
        },
        {
          "internalType": "bytes",
          "name": "_toAddress",
          "type": "bytes"
        },
        {
          "internalType": "uint256[]",
          "name": "_tokenIds",
          "type": "uint256[]"
        },
        {
          "internalType": "uint256[]",
          "name": "_amounts",
          "type": "uint256[]"
        },
        {
          "internalType": "address payable",
          "name": "_refundAddress",
          "type": "address"
        },
        {
          "internalType": "address",
          "name": "_zroPaymentAddress",
          "type": "address"
        },
        {
          "internalType": "bytes",
          "name": "_adapterParams",
          "type": "bytes"
        }
      ],
      "name": "sendBatchFrom",
      "outputs": [],
      "stateMutability": "payable",
      "type": "function"
    },
    {
      "inputs": [
        {
          "internalType": "address",
          "name": "_from",
          "type": "address"
        },
        {
          "internalType": "uint16",
          "name": "_dstChainId",
          "type": "uint16"
        },
        {
          "internalType": "bytes",
          "name": "_toAddress",
          "type": "bytes"
        },
        {
          "internalType": "uint256",
          "name": "_tokenId",
          "type": "uint256"
        },
        {
          "internalType": "uint256",
          "name": "_amount",
          "type": "uint256"
        },
        {
          "internalType": "address payable",
          "name": "_refundAddress",
          "type": "address"
        },
        {
          "internalType": "address",
          "name": "_zroPaymentAddress",
          "type": "address"
        },
        {
          "internalType": "bytes",
          "name": "_adapterParams",
          "type": "bytes"
        }
      ],
      "name": "sendFrom",
      "outputs": [],
      "stateMutability": "payable",
      "type": "function"
    },
    {
      "inputs": [
        {
          "internalType": "address",
          "name": "operator",
          "type": "address"
        },
        {
          "internalType": "bool",
          "name": "approved",
          "type": "bool"
        }
      ],
      "name": "setApprovalForAll",
      "outputs": [],
      "stateMutability": "nonpayable",
      "type": "function"
    },
    {
      "inputs": [
        {
          "internalType": "uint16",
          "name": "_version",
          "type": "uint16"
        },
        {
          "internalType": "uint16",
          "name": "_chainId",
          "type": "uint16"
        },
        {
          "internalType": "uint256",
          "name": "_configType",
          "type": "uint256"
        },
        {
          "internalType": "bytes",
          "name": "_config",
          "type": "bytes"
        }
      ],
      "name": "setConfig",
      "outputs": [],
      "stateMutability": "nonpayable",
      "type": "function"
    },
    {
      "inputs": [
        {
          "internalType": "uint16",
          "name": "_dstChainId",
          "type": "uint16"
        },
        {
          "internalType": "uint16",
          "name": "_packetType",
          "type": "uint16"
        },
        {
          "internalType": "uint256",
          "name": "_minGas",
          "type": "uint256"
        }
      ],
      "name": "setMinDstGas",
      "outputs": [],
      "stateMutability": "nonpayable",
      "type": "function"
    },
    {
      "inputs": [
        {
          "internalType": "uint16",
          "name": "_dstChainId",
          "type": "uint16"
        },
        {
          "internalType": "uint256",
          "name": "_size",
          "type": "uint256"
        }
      ],
      "name": "setPayloadSizeLimit",
      "outputs": [],
      "stateMutability": "nonpayable",
      "type": "function"
    },
    {
      "inputs": [
        {
          "internalType": "address",
          "name": "_precrime",
          "type": "address"
        }
      ],
      "name": "setPrecrime",
      "outputs": [],
      "stateMutability": "nonpayable",
      "type": "function"
    },
    {
      "inputs": [
        {
          "internalType": "uint16",
          "name": "_version",
          "type": "uint16"
        }
      ],
      "name": "setReceiveVersion",
      "outputs": [],
      "stateMutability": "nonpayable",
      "type": "function"
    },
    {
      "inputs": [
        {
          "internalType": "uint16",
          "name": "_version",
          "type": "uint16"
        }
      ],
      "name": "setSendVersion",
      "outputs": [],
      "stateMutability": "nonpayable",
      "type": "function"
    },
    {
      "inputs": [
        {
          "internalType": "uint16",
          "name": "_remoteChainId",
          "type": "uint16"
        },
        {
          "internalType": "bytes",
          "name": "_path",
          "type": "bytes"
        }
      ],
      "name": "setTrustedRemote",
      "outputs": [],
      "stateMutability": "nonpayable",
      "type": "function"
    },
    {
      "inputs": [
        {
          "internalType": "uint16",
          "name": "_remoteChainId",
          "type": "uint16"
        },
        {
          "internalType": "bytes",
          "name": "_remoteAddress",
          "type": "bytes"
        }
      ],
      "name": "setTrustedRemoteAddress",
      "outputs": [],
      "stateMutability": "nonpayable",
      "type": "function"
    },
    {
      "inputs": [
        {
          "internalType": "bool",
          "name": "_useCustomAdapterParams",
          "type": "bool"
        }
      ],
      "name": "setUseCustomAdapterParams",
      "outputs": [],
      "stateMutability": "nonpayable",
      "type": "function"
    },
    {
      "inputs": [
        {
          "internalType": "bytes4",
          "name": "interfaceId",
          "type": "bytes4"
        }
      ],
      "name": "supportsInterface",
      "outputs": [
        {
          "internalType": "bool",
          "name": "",
          "type": "bool"
        }
      ],
      "stateMutability": "view",
      "type": "function"
    },
    {
      "inputs": [
        {
          "internalType": "address",
          "name": "newOwner",
          "type": "address"
        }
      ],
      "name": "transferOwnership",
      "outputs": [],
      "stateMutability": "nonpayable",
      "type": "function"
    },
    {
      "inputs": [
        {
          "internalType": "uint16",
          "name": "",
          "type": "uint16"
        }
      ],
      "name": "trustedRemoteLookup",
      "outputs": [
        {
          "internalType": "bytes",
          "name": "",
          "type": "bytes"
        }
      ],
      "stateMutability": "view",
      "type": "function"
    },
    {
      "inputs": [
        {
          "internalType": "uint256",
          "name": "id",
          "type": "uint256"
        }
      ],
      "name": "uri",
      "outputs": [
        {
          "internalType": "string",
          "name": "",
          "type": "string"
        }
      ],
      "stateMutability": "view",
      "type": "function"
    },
    {
      "inputs": [],
      "name": "useCustomAdapterParams",
      "outputs": [
        {
          "internalType": "bool",
          "name": "",
          "type": "bool"
        }
      ],
      "stateMutability": "view",
      "type": "function"
    }
  ],
  "transactionHash": "0x6c9d94dedba499e365c4a0fc3b375ff719ca77215b5b30f946b78fb13cf1f7f5",
  "args": [
    "LZ1155",
    "0x6aB5Ae6822647046626e83ee6dB8187151E1d5ab"
  ],
  "numDeployments": 1,
  "solcInputHash": "5abf947a6f2549e23764f2bae3b8a744",
  "bytecode": "0x60a06040523480156200001157600080fd5b5060405162004b4038038062004b408339810160408190526200003491620001a8565b81818080620000433362000066565b6001600160a01b0316608052506200005d905081620000b6565b505050620002d6565b600080546001600160a01b038381166001600160a01b0319831681178455604051919092169283917f8be0079c531659141344cd1fd0a4f28419497f9722a3daafe3b4186f6b6457e09190a35050565b8051620000cb906009906020840190620000cf565b5050565b828054620000dd9062000299565b90600052602060002090601f0160209004810192826200010157600085556200014c565b82601f106200011c57805160ff19168380011785556200014c565b828001600101855582156200014c579182015b828111156200014c5782518255916020019190600101906200012f565b506200015a9291506200015e565b5090565b5b808211156200015a57600081556001016200015f565b634e487b7160e01b600052604160045260246000fd5b80516001600160a01b0381168114620001a357600080fd5b919050565b60008060408385031215620001bc57600080fd5b82516001600160401b0380821115620001d457600080fd5b818501915085601f830112620001e957600080fd5b815181811115620001fe57620001fe62000175565b604051601f8201601f19908116603f0116810190838211818310171562000229576200022962000175565b816040528281526020935088848487010111156200024657600080fd5b600091505b828210156200026a57848201840151818301850152908301906200024b565b828211156200027c5760008484830101525b95506200028e9150508582016200018b565b925050509250929050565b600181811c90821680620002ae57607f821691505b60208210811415620002d057634e487b7160e01b600052602260045260246000fd5b50919050565b6080516148166200032a6000396000818161068d0152818161083e01528181610b4301528181610caf01528181610e16015281816113940152818161149d0152818161196d0152612b1e01526148166000f3fe60806040526004361061024f5760003560e01c80638cfd8f5c11610139578063c4461834116100b6578063eab45d9c1161007a578063eab45d9c14610781578063eb8d72b7146107a1578063ed629c5c146107c1578063f242432a146107db578063f2fde38b146107fb578063f5ecbdbc1461081b57600080fd5b8063c4461834146106cf578063cbed8b9c146106e5578063d1deba1f14610705578063df2a5b3b14610718578063e985e9c51461073857600080fd5b8063a6c3d165116100fd578063a6c3d16514610626578063af3fb21c14610646578063b25356631461065b578063b353aaa71461067b578063baf3292d146106af57600080fd5b80638cfd8f5c1461055c5780638da5cb5b14610594578063950c8a74146105c65780639f38369a146105e6578063a22cb4651461060657600080fd5b80633f1f4fa4116101d25780634e1273f4116101965780634e1273f4146104565780635b8c41e61461048357806366ad5c8a146104d2578063715018a6146104f25780637533d788146105075780638608e5f81461052757600080fd5b80633f1f4fa4146103ce57806342d65a8d146103fb578063447705151461041b5780634ab4e687146104305780634db8226a1461044357600080fd5b80630e89341c116102195780630e89341c1461031957806310ddb13714610346578063149e3e1f146103665780632eb2c2d61461038e5780633d8b38f6146103ae57600080fd5b80621d356714610254578062fdd58e1461027657806301ffc9a7146102a957806307e0db17146102d95780630df37483146102f9575b600080fd5b34801561026057600080fd5b5061027461026f366004613253565b61083b565b005b34801561028257600080fd5b50610296610291366004613306565b610a6c565b6040519081526020015b60405180910390f35b3480156102b557600080fd5b506102c96102c4366004613348565b610aff565b60405190151581526020016102a0565b3480156102e557600080fd5b506102746102f4366004613365565b610b22565b34801561030557600080fd5b50610274610314366004613380565b610bab565b34801561032557600080fd5b5061033961033436600461339c565b610bca565b6040516102a0919061340d565b34801561035257600080fd5b50610274610361366004613365565b610c8e565b34801561037257600080fd5b5061037b600281565b60405161ffff90911681526020016102a0565b34801561039a57600080fd5b506102746103a9366004613579565b610ce6565b3480156103ba57600080fd5b506102c96103c9366004613626565b610d2b565b3480156103da57600080fd5b506102966103e9366004613365565b60036020526000908152604090205481565b34801561040757600080fd5b50610274610416366004613626565b610df7565b34801561042757600080fd5b50610296600081565b61027461043e366004613678565b610e7d565b610274610451366004613767565b610e97565b34801561046257600080fd5b5061047661047136600461380d565b610eb7565b6040516102a09190613914565b34801561048f57600080fd5b5061029661049e366004613927565b6005602090815260009384526040808520845180860184018051928152908401958401959095209452929052825290205481565b3480156104de57600080fd5b506102746104ed366004613253565b610fe0565b3480156104fe57600080fd5b506102746110bc565b34801561051357600080fd5b50610339610522366004613365565b6110d0565b34801561053357600080fd5b50610547610542366004613994565b61116a565b604080519283526020830191909152016102a0565b34801561056857600080fd5b50610296610577366004613a2a565b600260209081526000928352604080842090915290825290205481565b3480156105a057600080fd5b506000546001600160a01b03165b6040516001600160a01b0390911681526020016102a0565b3480156105d257600080fd5b506004546105ae906001600160a01b031681565b3480156105f257600080fd5b50610339610601366004613365565b61119a565b34801561061257600080fd5b50610274610621366004613a5d565b6112b1565b34801561063257600080fd5b50610274610641366004613626565b6112c0565b34801561065257600080fd5b5061037b600181565b34801561066757600080fd5b50610547610676366004613a89565b611353565b34801561068757600080fd5b506105ae7f000000000000000000000000000000000000000000000000000000000000000081565b3480156106bb57600080fd5b506102746106ca366004613b25565b611421565b3480156106db57600080fd5b5061029661271081565b3480156106f157600080fd5b50610274610700366004613b42565b61147e565b610274610713366004613253565b611513565b34801561072457600080fd5b50610274610733366004613bb0565b611729565b34801561074457600080fd5b506102c9610753366004613bec565b6001600160a01b03918216600090815260086020908152604080832093909416825291909152205460ff1690565b34801561078d57600080fd5b5061027461079c366004613c25565b6117db565b3480156107ad57600080fd5b506102746107bc366004613626565b611824565b3480156107cd57600080fd5b506006546102c99060ff1681565b3480156107e757600080fd5b506102746107f6366004613c40565b61187e565b34801561080757600080fd5b50610274610816366004613b25565b6118c3565b34801561082757600080fd5b50610339610836366004613ca8565b61193c565b337f00000000000000000000000000000000000000000000000000000000000000006001600160a01b0316146108b85760405162461bcd60e51b815260206004820152601e60248201527f4c7a4170703a20696e76616c696420656e64706f696e742063616c6c6572000060448201526064015b60405180910390fd5b61ffff8616600090815260016020526040812080546108d690613cf5565b80601f016020809104026020016040519081016040528092919081815260200182805461090290613cf5565b801561094f5780601f106109245761010080835404028352916020019161094f565b820191906000526020600020905b81548152906001019060200180831161093257829003601f168201915b5050505050905080518686905014801561096a575060008151115b80156109925750805160208201206040516109889088908890613d30565b6040518091039020145b6109ed5760405162461bcd60e51b815260206004820152602660248201527f4c7a4170703a20696e76616c696420736f757263652073656e64696e6720636f6044820152651b9d1c9858dd60d21b60648201526084016108af565b610a638787878080601f01602080910402602001604051908101604052809392919081815260200183838082843760009201919091525050604080516020601f8a018190048102820181019092528881528a9350915088908890819084018382808284376000920191909152506119ed92505050565b50505050505050565b60006001600160a01b038316610ad75760405162461bcd60e51b815260206004820152602a60248201527f455243313135353a2061646472657373207a65726f206973206e6f742061207660448201526930b634b21037bbb732b960b11b60648201526084016108af565b5060009081526007602090815260408083206001600160a01b03949094168352929052205490565b60006001600160e01b031982161580610b1c5750610b1c82611a66565b92915050565b610b2a611aa6565b6040516307e0db1760e01b815261ffff821660048201527f00000000000000000000000000000000000000000000000000000000000000006001600160a01b0316906307e0db17906024015b600060405180830381600087803b158015610b9057600080fd5b505af1158015610ba4573d6000803e3d6000fd5b5050505050565b610bb3611aa6565b61ffff909116600090815260036020526040902055565b60606000610bda61010084613d56565b90506000610be782611b00565b90506000610c17828384604051602001610c0393929190613d6a565b604051602081830303815290604052611c05565b9050600081604051602001610c2c9190613e83565b60405160208183030381529060405290506000610c5d610c4b88611b00565b83604051602001610c03929190613ec8565b9050600081604051602001610c729190613f8c565b60408051601f1981840301815291905298975050505050505050565b610c96611aa6565b6040516310ddb13760e01b815261ffff821660048201527f00000000000000000000000000000000000000000000000000000000000000006001600160a01b0316906310ddb13790602401610b76565b6001600160a01b038516331480610d025750610d028533610753565b610d1e5760405162461bcd60e51b81526004016108af90613fd1565b610ba48585858585611d58565b61ffff831660009081526001602052604081208054829190610d4c90613cf5565b80601f0160208091040260200160405190810160405280929190818152602001828054610d7890613cf5565b8015610dc55780601f10610d9a57610100808354040283529160200191610dc5565b820191906000526020600020905b815481529060010190602001808311610da857829003601f168201915b505050505090508383604051610ddc929190613d30565b60405180910390208180519060200120149150509392505050565b610dff611aa6565b6040516342d65a8d60e01b81526001600160a01b037f000000000000000000000000000000000000000000000000000000000000000016906342d65a8d90610e4f90869086908690600401614049565b600060405180830381600087803b158015610e6957600080fd5b505af1158015610a63573d6000803e3d6000fd5b610e8d8888888888888888611eef565b5050505050505050565b610e8d888888610ea6896120d7565b610eaf896120d7565b888888611eef565b60608151835114610f1c5760405162461bcd60e51b815260206004820152602960248201527f455243313135353a206163636f756e747320616e6420696473206c656e677468604482015268040dad2e6dac2e8c6d60bb1b60648201526084016108af565b600083516001600160401b03811115610f3757610f37613420565b604051908082528060200260200182016040528015610f60578160200160208202803683370190505b50905060005b8451811015610fd857610fab858281518110610f8457610f84614067565b6020026020010151858381518110610f9e57610f9e614067565b6020026020010151610a6c565b828281518110610fbd57610fbd614067565b6020908102919091010152610fd181614093565b9050610f66565b509392505050565b33301461103e5760405162461bcd60e51b815260206004820152602660248201527f4e6f6e626c6f636b696e674c7a4170703a2063616c6c6572206d7573742062656044820152650204c7a4170760d41b60648201526084016108af565b6110b48686868080601f01602080910402602001604051908101604052809392919081815260200183838082843760009201919091525050604080516020601f89018190048102820181019092528781528993509150879087908190840183828082843760009201919091525061212292505050565b505050505050565b6110c4611aa6565b6110ce6000612270565b565b600160205260009081526040902080546110e990613cf5565b80601f016020809104026020016040519081016040528092919081815260200182805461111590613cf5565b80156111625780601f1061113757610100808354040283529160200191611162565b820191906000526020600020905b81548152906001019060200180831161114557829003601f168201915b505050505081565b60008061118b888861117b896120d7565b611184896120d7565b8888611353565b91509150965096945050505050565b61ffff81166000908152600160205260408120805460609291906111bd90613cf5565b80601f01602080910402602001604051908101604052809291908181526020018280546111e990613cf5565b80156112365780601f1061120b57610100808354040283529160200191611236565b820191906000526020600020905b81548152906001019060200180831161121957829003601f168201915b5050505050905080516000141561128f5760405162461bcd60e51b815260206004820152601d60248201527f4c7a4170703a206e6f20747275737465642070617468207265636f726400000060448201526064016108af565b6112aa6000601483516112a291906140ae565b8391906122c0565b9392505050565b6112bc3383836123cd565b5050565b6112c8611aa6565b8181306040516020016112dd939291906140c5565b60408051601f1981840301815291815261ffff85166000908152600160209081529190208251611312939192909101906130d0565b507f8c0400cfe2d1199b1a725c78960bcc2a344d869b80590d0f2bd005db15a572ce83838360405161134693929190614049565b60405180910390a1505050565b600080600087878760405160200161136d939291906140eb565b60408051601f198184030181529082905263040a7bb160e41b825291506001600160a01b037f000000000000000000000000000000000000000000000000000000000000000016906340a7bb10906113d1908c90309086908b908b90600401614124565b6040805180830381865afa1580156113ed573d6000803e3d6000fd5b505050506040513d601f19601f820116820180604052508101906114119190614178565b9250925050965096945050505050565b611429611aa6565b600480546001600160a01b0319166001600160a01b0383169081179091556040519081527f5db758e995a17ec1ad84bdef7e8c3293a0bd6179bcce400dff5d4c3d87db726b906020015b60405180910390a150565b611486611aa6565b6040516332fb62e760e21b81526001600160a01b037f0000000000000000000000000000000000000000000000000000000000000000169063cbed8b9c906114da908890889088908890889060040161419c565b600060405180830381600087803b1580156114f457600080fd5b505af1158015611508573d6000803e3d6000fd5b505050505050505050565b61ffff861660009081526005602052604080822090516115369088908890613d30565b90815260408051602092819003830190206001600160401b038716600090815292529020549050806115b65760405162461bcd60e51b815260206004820152602360248201527f4e6f6e626c6f636b696e674c7a4170703a206e6f2073746f726564206d65737360448201526261676560e81b60648201526084016108af565b8083836040516115c7929190613d30565b6040518091039020146116265760405162461bcd60e51b815260206004820152602160248201527f4e6f6e626c6f636b696e674c7a4170703a20696e76616c6964207061796c6f616044820152601960fa1b60648201526084016108af565b61ffff871660009081526005602052604080822090516116499089908990613d30565b90815260408051602092819003830181206001600160401b038916600090815290845282902093909355601f880182900482028301820190528682526116e1918991899089908190840183828082843760009201919091525050604080516020601f8a018190048102820181019092528881528a93509150889088908190840183828082843760009201919091525061212292505050565b7fc264d91f3adc5588250e1551f547752ca0cfa8f6b530d243b9f9f4cab10ea8e587878787856040516117189594939291906141d5565b60405180910390a150505050505050565b611731611aa6565b600081116117795760405162461bcd60e51b81526020600482015260156024820152744c7a4170703a20696e76616c6964206d696e47617360581b60448201526064016108af565b61ffff83811660008181526002602090815260408083209487168084529482529182902085905581519283528201929092529081018290527f9d5c7c0b934da8fefa9c7760c98383778a12dfbfc0c3b3106518f43fb9508ac090606001611346565b6117e3611aa6565b6006805460ff19168215159081179091556040519081527f1584ad594a70cbe1e6515592e1272a987d922b097ead875069cebe8b40c004a490602001611473565b61182c611aa6565b61ffff8316600090815260016020526040902061184a908383613154565b507ffa41487ad5d6728f0b19276fa1eddc16558578f5109fc39d2dc33c3230470dab83838360405161134693929190614049565b6001600160a01b03851633148061189a575061189a8533610753565b6118b65760405162461bcd60e51b81526004016108af90613fd1565b610ba485858585856124ae565b6118cb611aa6565b6001600160a01b0381166119305760405162461bcd60e51b815260206004820152602660248201527f4f776e61626c653a206e6577206f776e657220697320746865207a65726f206160448201526564647265737360d01b60648201526084016108af565b61193981612270565b50565b604051633d7b2f6f60e21b815261ffff808616600483015284166024820152306044820152606481018290526060907f00000000000000000000000000000000000000000000000000000000000000006001600160a01b03169063f5ecbdbc90608401600060405180830381865afa1580156119bc573d6000803e3d6000fd5b505050506040513d6000823e601f3d908101601f191682016040526119e4919081019061425f565b95945050505050565b600080611a505a60966366ad5c8a60e01b89898989604051602401611a159493929190614293565b60408051601f198184030181529190526020810180516001600160e01b03166001600160e01b031990931692909217909152309291906125d1565b91509150816110b4576110b4868686868561265b565b60006001600160e01b03198216636cdb3d1360e11b1480611a9757506001600160e01b031982166303a24d0760e21b145b80610b1c5750610b1c826126f8565b6000546001600160a01b031633146110ce5760405162461bcd60e51b815260206004820181905260248201527f4f776e61626c653a2063616c6c6572206973206e6f7420746865206f776e657260448201526064016108af565b606081611b245750506040805180820190915260018152600360fc1b602082015290565b8160005b8115611b4e5780611b3881614093565b9150611b479050600a836142d1565b9150611b28565b6000816001600160401b03811115611b6857611b68613420565b6040519080825280601f01601f191660200182016040528015611b92576020820181803683370190505b5090505b8415611bfd57611ba76001836140ae565b9150611bb4600a86613d56565b611bbf9060306142e5565b60f81b818381518110611bd457611bd4614067565b60200101906001600160f81b031916908160001a905350611bf6600a866142d1565b9450611b96565b949350505050565b6060815160001415611c2557505060408051602081019091526000815290565b60006040518060600160405280604081526020016147a16040913990506000600384516002611c5491906142e5565b611c5e91906142d1565b611c699060046142fd565b6001600160401b03811115611c8057611c80613420565b6040519080825280601f01601f191660200182016040528015611caa576020820181803683370190505b509050600182016020820185865187015b80821015611d16576003820191508151603f8160121c168501518453600184019350603f81600c1c168501518453600184019350603f8160061c168501518453600184019350603f8116850151845350600183019250611cbb565b5050600386510660018114611d325760028114611d4557611d4d565b603d6001830353603d6002830353611d4d565b603d60018303535b509195945050505050565b8151835114611d795760405162461bcd60e51b81526004016108af9061431c565b6001600160a01b038416611d9f5760405162461bcd60e51b81526004016108af90614364565b3360005b8451811015611e89576000858281518110611dc057611dc0614067565b602002602001015190506000858381518110611dde57611dde614067565b60209081029190910181015160008481526007835260408082206001600160a01b038e168352909352919091205490915081811015611e2f5760405162461bcd60e51b81526004016108af906143a9565b60008381526007602090815260408083206001600160a01b038e8116855292528083208585039055908b16825281208054849290611e6e9084906142e5565b9250508190555050505080611e8290614093565b9050611da3565b50846001600160a01b0316866001600160a01b0316826001600160a01b03167f4a39dc06d4c0dbc64b70af90fd698a233a518aa5d07e595d983b8c0526c8f7fb8787604051611ed99291906143f3565b60405180910390a46110b481878787878761272d565b611efc8888888888612889565b6000868686604051602001611f13939291906140eb565b60405160208183030381529060405290508551600114156120195760065460ff1615611f4c57611f47886001846000612915565b611f6b565b815115611f6b5760405162461bcd60e51b81526004016108af90614418565b611f798882868686346129f4565b86604051611f87919061445c565b6040518091039020896001600160a01b03168961ffff167f968b0d61ebcf43e5d76ed87bd2c4ee2f22b4969b9f4ca49e3373c025eddd5eeb89600081518110611fd257611fd2614067565b602002602001015189600081518110611fed57611fed614067565b602002602001015160405161200c929190918252602082015260400190565b60405180910390a4611508565b6001865111156115085760065460ff16156120415761203c886002846000612915565b612060565b8151156120605760405162461bcd60e51b81526004016108af90614418565b61206e8882868686346129f4565b8660405161207c919061445c565b6040518091039020896001600160a01b03168961ffff167fddd15f7cfbd674ac2096d598f1650367f8a8bd72b4e3abd85591099ea3b57e3389896040516120c49291906143f3565b60405180910390a4505050505050505050565b6040805160018082528183019092526060916000919060208083019080368337019050509050828160008151811061211157612111614067565b602090810291909101015292915050565b60008060008380602001905181019061213b91906144de565b6014830151929550909350915061215488828585612b9a565b8251600114156121fe57806001600160a01b031687604051612176919061445c565b60405180910390208961ffff167f1bf64e58d19fc43de4c44b3d1bb1fae313979af831a7a39f3297564294329f0f866000815181106121b7576121b7614067565b6020026020010151866000815181106121d2576121d2614067565b60200260200101516040516121f1929190918252602082015260400190565b60405180910390a4610e8d565b600183511115610e8d57806001600160a01b031687604051612220919061445c565b60405180910390208961ffff167f1ae08edbbcd7baa8d064835de8593ce16b313414525ac89534e349f4da7926e4868660405161225e9291906143f3565b60405180910390a45050505050505050565b600080546001600160a01b038381166001600160a01b0319831681178455604051919092169283917f8be0079c531659141344cd1fd0a4f28419497f9722a3daafe3b4186f6b6457e09190a35050565b6060816122ce81601f6142e5565b101561230d5760405162461bcd60e51b815260206004820152600e60248201526d736c6963655f6f766572666c6f7760901b60448201526064016108af565b61231782846142e5565b8451101561235b5760405162461bcd60e51b8152602060048201526011602482015270736c6963655f6f75744f66426f756e647360781b60448201526064016108af565b60608215801561237a57604051915060008252602082016040526123c4565b6040519150601f8416801560200281840101858101878315602002848b0101015b818310156123b357805183526020928301920161239b565b5050858452601f01601f1916604052505b50949350505050565b816001600160a01b0316836001600160a01b031614156124415760405162461bcd60e51b815260206004820152602960248201527f455243313135353a2073657474696e6720617070726f76616c20737461747573604482015268103337b91039b2b63360b91b60648201526084016108af565b6001600160a01b03838116600081815260086020908152604080832094871680845294825291829020805460ff191686151590811790915591519182527f17307eab39ab6107e8899845ad3d59bd9653f200f220920489ca2b5937696c31910160405180910390a3505050565b6001600160a01b0384166124d45760405162461bcd60e51b81526004016108af90614364565b3360006124e0856120d7565b905060006124ed856120d7565b905060008681526007602090815260408083206001600160a01b038c168452909152902054858110156125325760405162461bcd60e51b81526004016108af906143a9565b60008781526007602090815260408083206001600160a01b038d8116855292528083208985039055908a168252812080548892906125719084906142e5565b909155505060408051888152602081018890526001600160a01b03808b16928c821692918816917fc3d58168c5ae7397731d063d5bbf3d657854427343f4c083240f7aacaa2d0f62910160405180910390a4611508848a8a8a8a8a612bbb565b6000606060008060008661ffff166001600160401b038111156125f6576125f6613420565b6040519080825280601f01601f191660200182016040528015612620576020820181803683370190505b50905060008087516020890160008d8df191503d925086831115612642578692505b828152826000602083013e909890975095505050505050565b8180519060200120600560008761ffff1661ffff1681526020019081526020016000208560405161268c919061445c565b9081526040805191829003602090810183206001600160401b0388166000908152915220919091557fe183f33de2837795525b4792ca4cd60535bd77c53b7e7030060bfcf5734d6b0c906126e99087908790879087908790614565565b60405180910390a15050505050565b60006001600160e01b031982166319abbbbb60e11b1480610b1c57506301ffc9a760e01b6001600160e01b0319831614610b1c565b6001600160a01b0384163b156110b45760405163bc197c8160e01b81526001600160a01b0385169063bc197c819061277190899089908890889088906004016145b7565b6020604051808303816000875af19250505080156127ac575060408051601f3d908101601f191682019092526127a9918101906145f5565b60015b612859576127b8614612565b806308c379a014156127f257506127cd61462e565b806127d857506127f4565b8060405162461bcd60e51b81526004016108af919061340d565b505b60405162461bcd60e51b815260206004820152603460248201527f455243313135353a207472616e7366657220746f206e6f6e20455243313135356044820152732932b1b2b4bb32b91034b6b83632b6b2b73a32b960611b60648201526084016108af565b6001600160e01b0319811663bc197c8160e01b14610a635760405162461bcd60e51b81526004016108af906146b7565b336001600160a01b0386168114806128a657506128a68682610753565b61290a5760405162461bcd60e51b815260206004820152602f60248201527f4f4e4654313135353a2073656e642063616c6c6572206973206e6f74206f776e60448201526e195c881b9bdc88185c1c1c9bdd9959608a1b60648201526084016108af565b6110b4868484612c76565b600061292083612e7b565b61ffff8087166000908152600260209081526040808320938916835292905290812054919250906129529084906142e5565b9050600081116129a45760405162461bcd60e51b815260206004820152601a60248201527f4c7a4170703a206d696e4761734c696d6974206e6f742073657400000000000060448201526064016108af565b808210156110b45760405162461bcd60e51b815260206004820152601b60248201527f4c7a4170703a20676173206c696d697420697320746f6f206c6f77000000000060448201526064016108af565b61ffff861660009081526001602052604081208054612a1290613cf5565b80601f0160208091040260200160405190810160405280929190818152602001828054612a3e90613cf5565b8015612a8b5780601f10612a6057610100808354040283529160200191612a8b565b820191906000526020600020905b815481529060010190602001808311612a6e57829003601f168201915b50505050509050805160001415612afd5760405162461bcd60e51b815260206004820152603060248201527f4c7a4170703a2064657374696e6174696f6e20636861696e206973206e6f742060448201526f61207472757374656420736f7572636560801b60648201526084016108af565b612b08878751612ed7565b60405162c5803160e81b81526001600160a01b037f0000000000000000000000000000000000000000000000000000000000000000169063c5803100908490612b5f908b9086908c908c908c908c906004016146ff565b6000604051808303818588803b158015612b7857600080fd5b505af1158015612b8c573d6000803e3d6000fd5b505050505050505050505050565b612bb583838360405180602001604052806000815250612f4a565b50505050565b6001600160a01b0384163b156110b45760405163f23a6e6160e01b81526001600160a01b0385169063f23a6e6190612bff9089908990889088908890600401614766565b6020604051808303816000875af1925050508015612c3a575060408051601f3d908101601f19168201909252612c37918101906145f5565b60015b612c46576127b8614612565b6001600160e01b0319811663f23a6e6160e01b14610a635760405162461bcd60e51b81526004016108af906146b7565b6001600160a01b038316612cd85760405162461bcd60e51b815260206004820152602360248201527f455243313135353a206275726e2066726f6d20746865207a65726f206164647260448201526265737360e81b60648201526084016108af565b8051825114612cf95760405162461bcd60e51b81526004016108af9061431c565b604080516020810190915260009081905233905b8351811015612e0e576000848281518110612d2a57612d2a614067565b602002602001015190506000848381518110612d4857612d48614067565b60209081029190910181015160008481526007835260408082206001600160a01b038c168352909352919091205490915081811015612dd55760405162461bcd60e51b8152602060048201526024808201527f455243313135353a206275726e20616d6f756e7420657863656564732062616c604482015263616e636560e01b60648201526084016108af565b60009283526007602090815260408085206001600160a01b038b1686529091529092209103905580612e0681614093565b915050612d0d565b5060006001600160a01b0316846001600160a01b0316826001600160a01b03167f4a39dc06d4c0dbc64b70af90fd698a233a518aa5d07e595d983b8c0526c8f7fb8686604051612e5f9291906143f3565b60405180910390a4604080516020810190915260009052612bb5565b6000602282511015612ecf5760405162461bcd60e51b815260206004820152601c60248201527f4c7a4170703a20696e76616c69642061646170746572506172616d730000000060448201526064016108af565b506022015190565b61ffff821660009081526003602052604090205480612ef557506127105b80821115612f455760405162461bcd60e51b815260206004820181905260248201527f4c7a4170703a207061796c6f61642073697a6520697320746f6f206c6172676560448201526064016108af565b505050565b6001600160a01b038416612faa5760405162461bcd60e51b815260206004820152602160248201527f455243313135353a206d696e7420746f20746865207a65726f206164647265736044820152607360f81b60648201526084016108af565b8151835114612fcb5760405162461bcd60e51b81526004016108af9061431c565b3360005b845181101561306857838181518110612fea57612fea614067565b60200260200101516007600087848151811061300857613008614067565b602002602001015181526020019081526020016000206000886001600160a01b03166001600160a01b03168152602001908152602001600020600082825461305091906142e5565b9091555081905061306081614093565b915050612fcf565b50846001600160a01b031660006001600160a01b0316826001600160a01b03167f4a39dc06d4c0dbc64b70af90fd698a233a518aa5d07e595d983b8c0526c8f7fb87876040516130b99291906143f3565b60405180910390a4610ba48160008787878761272d565b8280546130dc90613cf5565b90600052602060002090601f0160209004810192826130fe5760008555613144565b82601f1061311757805160ff1916838001178555613144565b82800160010185558215613144579182015b82811115613144578251825591602001919060010190613129565b506131509291506131c8565b5090565b82805461316090613cf5565b90600052602060002090601f0160209004810192826131825760008555613144565b82601f1061319b5782800160ff19823516178555613144565b82800160010185558215613144579182015b828111156131445782358255916020019190600101906131ad565b5b8082111561315057600081556001016131c9565b803561ffff811681146131ef57600080fd5b919050565b60008083601f84011261320657600080fd5b5081356001600160401b0381111561321d57600080fd5b60208301915083602082850101111561323557600080fd5b9250929050565b80356001600160401b03811681146131ef57600080fd5b6000806000806000806080878903121561326c57600080fd5b613275876131dd565b955060208701356001600160401b038082111561329157600080fd5b61329d8a838b016131f4565b90975095508591506132b160408a0161323c565b945060608901359150808211156132c757600080fd5b506132d489828a016131f4565b979a9699509497509295939492505050565b6001600160a01b038116811461193957600080fd5b80356131ef816132e6565b6000806040838503121561331957600080fd5b8235613324816132e6565b946020939093013593505050565b6001600160e01b03198116811461193957600080fd5b60006020828403121561335a57600080fd5b81356112aa81613332565b60006020828403121561337757600080fd5b6112aa826131dd565b6000806040838503121561339357600080fd5b613324836131dd565b6000602082840312156133ae57600080fd5b5035919050565b60005b838110156133d05781810151838201526020016133b8565b83811115612bb55750506000910152565b600081518084526133f98160208601602086016133b5565b601f01601f19169290920160200192915050565b6020815260006112aa60208301846133e1565b634e487b7160e01b600052604160045260246000fd5b601f8201601f191681016001600160401b038111828210171561345b5761345b613420565b6040525050565b60006001600160401b0382111561347b5761347b613420565b5060051b60200190565b600082601f83011261349657600080fd5b813560206134a382613462565b6040516134b08282613436565b83815260059390931b85018201928281019150868411156134d057600080fd5b8286015b848110156134eb57803583529183019183016134d4565b509695505050505050565b60006001600160401b0382111561350f5761350f613420565b50601f01601f191660200190565b600082601f83011261352e57600080fd5b8135613539816134f6565b6040516135468282613436565b82815285602084870101111561355b57600080fd5b82602086016020830137600092810160200192909252509392505050565b600080600080600060a0868803121561359157600080fd5b853561359c816132e6565b945060208601356135ac816132e6565b935060408601356001600160401b03808211156135c857600080fd5b6135d489838a01613485565b945060608801359150808211156135ea57600080fd5b6135f689838a01613485565b9350608088013591508082111561360c57600080fd5b506136198882890161351d565b9150509295509295909350565b60008060006040848603121561363b57600080fd5b613644846131dd565b925060208401356001600160401b0381111561365f57600080fd5b61366b868287016131f4565b9497909650939450505050565b600080600080600080600080610100898b03121561369557600080fd5b61369e896132fb565b97506136ac60208a016131dd565b965060408901356001600160401b03808211156136c857600080fd5b6136d48c838d0161351d565b975060608b01359150808211156136ea57600080fd5b6136f68c838d01613485565b965060808b013591508082111561370c57600080fd5b6137188c838d01613485565b955061372660a08c016132fb565b945061373460c08c016132fb565b935060e08b013591508082111561374a57600080fd5b506137578b828c0161351d565b9150509295985092959890939650565b600080600080600080600080610100898b03121561378457600080fd5b883561378f816132e6565b975061379d60208a016131dd565b965060408901356001600160401b03808211156137b957600080fd5b6137c58c838d0161351d565b975060608b0135965060808b0135955060a08b013591506137e5826132e6565b90935060c08a0135906137f7826132e6565b90925060e08a0135908082111561374a57600080fd5b6000806040838503121561382057600080fd5b82356001600160401b038082111561383757600080fd5b818501915085601f83011261384b57600080fd5b8135602061385882613462565b6040516138658282613436565b83815260059390931b850182019282810191508984111561388557600080fd5b948201945b838610156138ac57853561389d816132e6565b8252948201949082019061388a565b965050860135925050808211156138c257600080fd5b506138cf85828601613485565b9150509250929050565b600081518084526020808501945080840160005b83811015613909578151875295820195908201906001016138ed565b509495945050505050565b6020815260006112aa60208301846138d9565b60008060006060848603121561393c57600080fd5b613945846131dd565b925060208401356001600160401b0381111561396057600080fd5b61396c8682870161351d565b92505061397b6040850161323c565b90509250925092565b803580151581146131ef57600080fd5b60008060008060008060c087890312156139ad57600080fd5b6139b6876131dd565b955060208701356001600160401b03808211156139d257600080fd5b6139de8a838b0161351d565b965060408901359550606089013594506139fa60808a01613984565b935060a0890135915080821115613a1057600080fd5b50613a1d89828a0161351d565b9150509295509295509295565b60008060408385031215613a3d57600080fd5b613a46836131dd565b9150613a54602084016131dd565b90509250929050565b60008060408385031215613a7057600080fd5b8235613a7b816132e6565b9150613a5460208401613984565b60008060008060008060c08789031215613aa257600080fd5b613aab876131dd565b955060208701356001600160401b0380821115613ac757600080fd5b613ad38a838b0161351d565b96506040890135915080821115613ae957600080fd5b613af58a838b01613485565b95506060890135915080821115613b0b57600080fd5b613b178a838b01613485565b94506139fa60808a01613984565b600060208284031215613b3757600080fd5b81356112aa816132e6565b600080600080600060808688031215613b5a57600080fd5b613b63866131dd565b9450613b71602087016131dd565b93506040860135925060608601356001600160401b03811115613b9357600080fd5b613b9f888289016131f4565b969995985093965092949392505050565b600080600060608486031215613bc557600080fd5b613bce846131dd565b9250613bdc602085016131dd565b9150604084013590509250925092565b60008060408385031215613bff57600080fd5b8235613c0a816132e6565b91506020830135613c1a816132e6565b809150509250929050565b600060208284031215613c3757600080fd5b6112aa82613984565b600080600080600060a08688031215613c5857600080fd5b8535613c63816132e6565b94506020860135613c73816132e6565b9350604086013592506060860135915060808601356001600160401b03811115613c9c57600080fd5b6136198882890161351d565b60008060008060808587031215613cbe57600080fd5b613cc7856131dd565b9350613cd5602086016131dd565b92506040850135613ce5816132e6565b9396929550929360600135925050565b600181811c90821680613d0957607f821691505b60208210811415613d2a57634e487b7160e01b600052602260045260246000fd5b50919050565b8183823760009101908152919050565b634e487b7160e01b600052601260045260246000fd5b600082613d6557613d65613d40565b500690565b7f3c7376672076696577426f783d2230203020312031222076657273696f6e3d2281527f312e312220786d6c6e733d22687474703a2f2f7777772e77332e6f72672f3230602082015267181817b9bb33911f60c11b60408201527f3c726563742077696474683d223122206865696768743d223122207374796c6560488201526a07a44ccd2d8d874e4cec4560ab1b606882015260008451613e138160738501602089016133b5565b8083019050600b60fa1b8060738301528551613e36816074850160208a016133b5565b60749201918201528351613e518160758401602088016133b5565b65149d9110179f60d11b91016075810191909152651e17b9bb339f60d11b607b820152608181015b9695505050505050565b7f646174613a696d6167652f7376672b786d6c3b6261736536342c000000000000815260008251613ebb81601a8501602087016133b5565b91909101601a0192915050565b7f7b226e616d65223a20224c617965725a65726f204578616d706c652045524331815264313535202360d81b602082015260008351613f0e8160258501602088016133b5565b7f222c20226465736372697074696f6e223a2022416e206578616d706c652045526025918401918201527f433131353520746f6b656e222c2022696d616765223a2022000000000000000060458201528351613f7181605d8401602088016133b5565b61227d60f01b605d9290910191820152605f01949350505050565b7f646174613a6170706c69636174696f6e2f6a736f6e3b6261736536342c000000815260008251613fc481601d8501602087016133b5565b91909101601d0192915050565b6020808252602f908201527f455243313135353a2063616c6c6572206973206e6f7420746f6b656e206f776e60408201526e195c881b9bdc88185c1c1c9bdd9959608a1b606082015260800190565b81835281816020850137506000828201602090810191909152601f909101601f19169091010190565b61ffff841681526040602082015260006119e4604083018486614020565b634e487b7160e01b600052603260045260246000fd5b634e487b7160e01b600052601160045260246000fd5b60006000198214156140a7576140a761407d565b5060010190565b6000828210156140c0576140c061407d565b500390565b8284823760609190911b6bffffffffffffffffffffffff19169101908152601401919050565b6060815260006140fe60608301866133e1565b828103602084015261411081866138d9565b90508281036040840152613e7981856138d9565b61ffff861681526001600160a01b038516602082015260a060408201819052600090614152908301866133e1565b8415156060840152828103608084015261416c81856133e1565b98975050505050505050565b6000806040838503121561418b57600080fd5b505080516020909101519092909150565b600061ffff8088168352808716602084015250846040830152608060608301526141ca608083018486614020565b979650505050505050565b61ffff861681526080602082015260006141f3608083018688614020565b6001600160401b0394909416604083015250606001529392505050565b600082601f83011261422157600080fd5b815161422c816134f6565b6040516142398282613436565b82815285602084870101111561424e57600080fd5b6119e48360208301602088016133b5565b60006020828403121561427157600080fd5b81516001600160401b0381111561428757600080fd5b611bfd84828501614210565b61ffff851681526080602082015260006142b060808301866133e1565b6001600160401b038516604084015282810360608401526141ca81856133e1565b6000826142e0576142e0613d40565b500490565b600082198211156142f8576142f861407d565b500190565b60008160001904831182151516156143175761431761407d565b500290565b60208082526028908201527f455243313135353a2069647320616e6420616d6f756e7473206c656e677468206040820152670dad2e6dac2e8c6d60c31b606082015260800190565b60208082526025908201527f455243313135353a207472616e7366657220746f20746865207a65726f206164604082015264647265737360d81b606082015260800190565b6020808252602a908201527f455243313135353a20696e73756666696369656e742062616c616e636520666f60408201526939103a3930b739b332b960b11b606082015260800190565b60408152600061440660408301856138d9565b82810360208401526119e481856138d9565b60208082526024908201527f4c7a4170703a205f61646170746572506172616d73206d75737420626520656d604082015263383a3c9760e11b606082015260800190565b6000825161446e8184602087016133b5565b9190910192915050565b600082601f83011261448957600080fd5b8151602061449682613462565b6040516144a38282613436565b83815260059390931b85018201928281019150868411156144c357600080fd5b8286015b848110156134eb57805183529183019183016144c7565b6000806000606084860312156144f357600080fd5b83516001600160401b038082111561450a57600080fd5b61451687838801614210565b9450602086015191508082111561452c57600080fd5b61453887838801614478565b9350604086015191508082111561454e57600080fd5b5061455b86828701614478565b9150509250925092565b61ffff8616815260a06020820152600061458260a08301876133e1565b6001600160401b038616604084015282810360608401526145a381866133e1565b9050828103608084015261416c81856133e1565b6001600160a01b0386811682528516602082015260a0604082018190526000906145e3908301866138d9565b82810360608401526145a381866138d9565b60006020828403121561460757600080fd5b81516112aa81613332565b600060033d111561462b5760046000803e5060005160e01c5b90565b600060443d101561463c5790565b6040516003193d81016004833e81513d6001600160401b03816024840111818411171561466b57505050505090565b82850191508151818111156146835750505050505090565b843d870101602082850101111561469d5750505050505090565b6146ac60208286010187613436565b509095945050505050565b60208082526028908201527f455243313135353a204552433131353552656365697665722072656a656374656040820152676420746f6b656e7360c01b606082015260800190565b61ffff8716815260c06020820152600061471c60c08301886133e1565b828103604084015261472e81886133e1565b6001600160a01b0387811660608601528616608085015283810360a0850152905061475981856133e1565b9998505050505050505050565b6001600160a01b03868116825285166020820152604081018490526060810183905260a0608082018190526000906141ca908301846133e156fe4142434445464748494a4b4c4d4e4f505152535455565758595a6162636465666768696a6b6c6d6e6f707172737475767778797a303132333435363738392b2fa2646970667358221220c6ee73f30befed2bbde45afd98ba08621fa8e35c6d97afaedba90215ee15f6e064736f6c634300080c0033",
  "devdoc": {
    "kind": "dev",
    "methods": {
      "balanceOf(address,uint256)": {
        "details": "See {IERC1155-balanceOf}. Requirements: - `account` cannot be the zero address."
      },
      "balanceOfBatch(address[],uint256[])": {
        "details": "See {IERC1155-balanceOfBatch}. Requirements: - `accounts` and `ids` must have the same length."
      },
      "isApprovedForAll(address,address)": {
        "details": "See {IERC1155-isApprovedForAll}."
      },
      "owner()": {
        "details": "Returns the address of the current owner."
      },
      "renounceOwnership()": {
        "details": "Leaves the contract without owner. It will not be possible to call `onlyOwner` functions anymore. Can only be called by the current owner. NOTE: Renouncing ownership will leave the contract without an owner, thereby removing any functionality that is only available to the owner."
      },
      "safeBatchTransferFrom(address,address,uint256[],uint256[],bytes)": {
        "details": "See {IERC1155-safeBatchTransferFrom}."
      },
      "safeTransferFrom(address,address,uint256,uint256,bytes)": {
        "details": "See {IERC1155-safeTransferFrom}."
      },
      "setApprovalForAll(address,bool)": {
        "details": "See {IERC1155-setApprovalForAll}."
      },
      "transferOwnership(address)": {
        "details": "Transfers ownership of the contract to a new account (`newOwner`). Can only be called by the current owner."
      }
    },
    "version": 1
  },
  "userdoc": {
    "kind": "user",
    "methods": {},
    "version": 1
  },
  "storageLayout": {
    "storage": [
      {
        "astId": 4047,
        "contract": "contracts/token/onft/ONFT1155.sol:ONFT1155",
        "label": "_owner",
        "offset": 0,
        "slot": "0",
        "type": "t_address"
      },
      {
        "astId": 14693,
        "contract": "contracts/token/onft/ONFT1155.sol:ONFT1155",
        "label": "trustedRemoteLookup",
        "offset": 0,
        "slot": "1",
        "type": "t_mapping(t_uint16,t_bytes_storage)"
      },
      {
        "astId": 14699,
        "contract": "contracts/token/onft/ONFT1155.sol:ONFT1155",
        "label": "minDstGasLookup",
        "offset": 0,
        "slot": "2",
        "type": "t_mapping(t_uint16,t_mapping(t_uint16,t_uint256))"
      },
      {
        "astId": 14703,
        "contract": "contracts/token/onft/ONFT1155.sol:ONFT1155",
        "label": "payloadSizeLimitLookup",
        "offset": 0,
        "slot": "3",
        "type": "t_mapping(t_uint16,t_uint256)"
      },
      {
        "astId": 14705,
        "contract": "contracts/token/onft/ONFT1155.sol:ONFT1155",
        "label": "precrime",
        "offset": 0,
        "slot": "4",
        "type": "t_address"
      },
      {
        "astId": 15242,
        "contract": "contracts/token/onft/ONFT1155.sol:ONFT1155",
        "label": "failedMessages",
        "offset": 0,
        "slot": "5",
        "type": "t_mapping(t_uint16,t_mapping(t_bytes_memory_ptr,t_mapping(t_uint64,t_bytes32)))"
      },
      {
        "astId": 23956,
        "contract": "contracts/token/onft/ONFT1155.sol:ONFT1155",
        "label": "useCustomAdapterParams",
        "offset": 0,
        "slot": "6",
        "type": "t_bool"
      },
      {
        "astId": 4326,
        "contract": "contracts/token/onft/ONFT1155.sol:ONFT1155",
        "label": "_balances",
        "offset": 0,
        "slot": "7",
        "type": "t_mapping(t_uint256,t_mapping(t_address,t_uint256))"
      },
      {
        "astId": 4332,
        "contract": "contracts/token/onft/ONFT1155.sol:ONFT1155",
        "label": "_operatorApprovals",
        "offset": 0,
        "slot": "8",
        "type": "t_mapping(t_address,t_mapping(t_address,t_bool))"
      },
      {
        "astId": 4334,
        "contract": "contracts/token/onft/ONFT1155.sol:ONFT1155",
        "label": "_uri",
        "offset": 0,
        "slot": "9",
        "type": "t_string_storage"
      }
    ],
    "types": {
      "t_address": {
        "encoding": "inplace",
        "label": "address",
        "numberOfBytes": "20"
      },
      "t_bool": {
        "encoding": "inplace",
        "label": "bool",
        "numberOfBytes": "1"
      },
      "t_bytes32": {
        "encoding": "inplace",
        "label": "bytes32",
        "numberOfBytes": "32"
      },
      "t_bytes_memory_ptr": {
        "encoding": "bytes",
        "label": "bytes",
        "numberOfBytes": "32"
      },
      "t_bytes_storage": {
        "encoding": "bytes",
        "label": "bytes",
        "numberOfBytes": "32"
      },
      "t_mapping(t_address,t_bool)": {
        "encoding": "mapping",
        "key": "t_address",
        "label": "mapping(address => bool)",
        "numberOfBytes": "32",
        "value": "t_bool"
      },
      "t_mapping(t_address,t_mapping(t_address,t_bool))": {
        "encoding": "mapping",
        "key": "t_address",
        "label": "mapping(address => mapping(address => bool))",
        "numberOfBytes": "32",
        "value": "t_mapping(t_address,t_bool)"
      },
      "t_mapping(t_address,t_uint256)": {
        "encoding": "mapping",
        "key": "t_address",
        "label": "mapping(address => uint256)",
        "numberOfBytes": "32",
        "value": "t_uint256"
      },
      "t_mapping(t_bytes_memory_ptr,t_mapping(t_uint64,t_bytes32))": {
        "encoding": "mapping",
        "key": "t_bytes_memory_ptr",
        "label": "mapping(bytes => mapping(uint64 => bytes32))",
        "numberOfBytes": "32",
        "value": "t_mapping(t_uint64,t_bytes32)"
      },
      "t_mapping(t_uint16,t_bytes_storage)": {
        "encoding": "mapping",
        "key": "t_uint16",
        "label": "mapping(uint16 => bytes)",
        "numberOfBytes": "32",
        "value": "t_bytes_storage"
      },
      "t_mapping(t_uint16,t_mapping(t_bytes_memory_ptr,t_mapping(t_uint64,t_bytes32)))": {
        "encoding": "mapping",
        "key": "t_uint16",
        "label": "mapping(uint16 => mapping(bytes => mapping(uint64 => bytes32)))",
        "numberOfBytes": "32",
        "value": "t_mapping(t_bytes_memory_ptr,t_mapping(t_uint64,t_bytes32))"
      },
      "t_mapping(t_uint16,t_mapping(t_uint16,t_uint256))": {
        "encoding": "mapping",
        "key": "t_uint16",
        "label": "mapping(uint16 => mapping(uint16 => uint256))",
        "numberOfBytes": "32",
        "value": "t_mapping(t_uint16,t_uint256)"
      },
      "t_mapping(t_uint16,t_uint256)": {
        "encoding": "mapping",
        "key": "t_uint16",
        "label": "mapping(uint16 => uint256)",
        "numberOfBytes": "32",
        "value": "t_uint256"
      },
      "t_mapping(t_uint256,t_mapping(t_address,t_uint256))": {
        "encoding": "mapping",
        "key": "t_uint256",
        "label": "mapping(uint256 => mapping(address => uint256))",
        "numberOfBytes": "32",
        "value": "t_mapping(t_address,t_uint256)"
      },
      "t_mapping(t_uint64,t_bytes32)": {
        "encoding": "mapping",
        "key": "t_uint64",
        "label": "mapping(uint64 => bytes32)",
        "numberOfBytes": "32",
        "value": "t_bytes32"
      },
      "t_string_storage": {
        "encoding": "bytes",
        "label": "string",
        "numberOfBytes": "32"
      },
      "t_uint16": {
        "encoding": "inplace",
        "label": "uint16",
        "numberOfBytes": "2"
      },
      "t_uint256": {
        "encoding": "inplace",
        "label": "uint256",
        "numberOfBytes": "32"
      },
      "t_uint64": {
        "encoding": "inplace",
        "label": "uint64",
        "numberOfBytes": "8"
      }
    }
  }
}