{
  "_format": "hh-sol-artifact-1",
  "contractName": "MyHyperLiquidOFTMock",
  "sourceName": "contracts/mocks/MyHyperLiquidOFTMock.sol",
  "abi": [
    {
      "inputs": [
        {
          "internalType": "string",
          "name": "_name",
          "type": "string"
        },
        {
          "internalType": "string",
          "name": "_symbol",
          "type": "string"
        },
        {
          "internalType": "address",
          "name": "_lzEndpoint",
          "type": "address"
        },
        {
          "internalType": "address",
          "name": "_delegate",
          "type": "address"
        }
      ],
      "stateMutability": "nonpayable",
      "type": "constructor"
    },
    {
      "inputs": [],
      "name": "ERC20HyperliquidHopTransferable_NotApprovedCaller",
      "type": "error"
    },
    {
      "inputs": [
        {
          "internalType": "address",
          "name": "spender",
          "type": "address"
        },
        {
          "internalType": "uint256",
          "name": "allowance",
          "type": "uint256"
        },
        {
          "internalType": "uint256",
          "name": "needed",
          "type": "uint256"
        }
      ],
      "name": "ERC20InsufficientAllowance",
      "type": "error"
    },
    {
      "inputs": [
        {
          "internalType": "address",
          "name": "sender",
          "type": "address"
        },
        {
          "internalType": "uint256",
          "name": "balance",
          "type": "uint256"
        },
        {
          "internalType": "uint256",
          "name": "needed",
          "type": "uint256"
        }
      ],
      "name": "ERC20InsufficientBalance",
      "type": "error"
    },
    {
      "inputs": [
        {
          "internalType": "address",
          "name": "approver",
          "type": "address"
        }
      ],
      "name": "ERC20InvalidApprover",
      "type": "error"
    },
    {
      "inputs": [
        {
          "internalType": "address",
          "name": "receiver",
          "type": "address"
        }
      ],
      "name": "ERC20InvalidReceiver",
      "type": "error"
    },
    {
      "inputs": [
        {
          "internalType": "address",
          "name": "sender",
          "type": "address"
        }
      ],
      "name": "ERC20InvalidSender",
      "type": "error"
    },
    {
      "inputs": [
        {
          "internalType": "address",
          "name": "spender",
          "type": "address"
        }
      ],
      "name": "ERC20InvalidSpender",
      "type": "error"
    },
    {
      "inputs": [],
      "name": "InvalidDelegate",
      "type": "error"
    },
    {
      "inputs": [],
      "name": "InvalidEndpointCall",
      "type": "error"
    },
    {
      "inputs": [],
      "name": "InvalidLocalDecimals",
      "type": "error"
    },
    {
      "inputs": [
        {
          "internalType": "bytes",
          "name": "options",
          "type": "bytes"
        }
      ],
      "name": "InvalidOptions",
      "type": "error"
    },
    {
      "inputs": [],
      "name": "LzTokenUnavailable",
      "type": "error"
    },
    {
      "inputs": [
        {
          "internalType": "uint32",
          "name": "eid",
          "type": "uint32"
        }
      ],
      "name": "NoPeer",
      "type": "error"
    },
    {
      "inputs": [
        {
          "internalType": "uint256",
          "name": "msgValue",
          "type": "uint256"
        }
      ],
      "name": "NotEnoughNative",
      "type": "error"
    },
    {
      "inputs": [
        {
          "internalType": "address",
          "name": "addr",
          "type": "address"
        }
      ],
      "name": "OnlyEndpoint",
      "type": "error"
    },
    {
      "inputs": [
        {
          "internalType": "uint32",
          "name": "eid",
          "type": "uint32"
        },
        {
          "internalType": "bytes32",
          "name": "sender",
          "type": "bytes32"
        }
      ],
      "name": "OnlyPeer",
      "type": "error"
    },
    {
      "inputs": [],
      "name": "OnlySelf",
      "type": "error"
    },
    {
      "inputs": [
        {
          "internalType": "address",
          "name": "owner",
          "type": "address"
        }
      ],
      "name": "OwnableInvalidOwner",
      "type": "error"
    },
    {
      "inputs": [
        {
          "internalType": "address",
          "name": "account",
          "type": "address"
        }
      ],
      "name": "OwnableUnauthorizedAccount",
      "type": "error"
    },
    {
      "inputs": [
        {
          "internalType": "address",
          "name": "token",
          "type": "address"
        }
      ],
      "name": "SafeERC20FailedOperation",
      "type": "error"
    },
    {
      "inputs": [
        {
          "internalType": "bytes",
          "name": "result",
          "type": "bytes"
        }
      ],
      "name": "SimulationResult",
      "type": "error"
    },
    {
      "inputs": [
        {
          "internalType": "uint256",
          "name": "amountLD",
          "type": "uint256"
        },
        {
          "internalType": "uint256",
          "name": "minAmountLD",
          "type": "uint256"
        }
      ],
      "name": "SlippageExceeded",
      "type": "error"
    },
    {
      "anonymous": false,
      "inputs": [
        {
          "indexed": true,
          "internalType": "address",
          "name": "owner",
          "type": "address"
        },
        {
          "indexed": true,
          "internalType": "address",
          "name": "spender",
          "type": "address"
        },
        {
          "indexed": false,
          "internalType": "uint256",
          "name": "value",
          "type": "uint256"
        }
      ],
      "name": "Approval",
      "type": "event"
    },
    {
      "anonymous": false,
      "inputs": [
        {
          "components": [
            {
              "internalType": "uint32",
              "name": "eid",
              "type": "uint32"
            },
            {
              "internalType": "uint16",
              "name": "msgType",
              "type": "uint16"
            },
            {
              "internalType": "bytes",
              "name": "options",
              "type": "bytes"
            }
          ],
          "indexed": false,
          "internalType": "struct EnforcedOptionParam[]",
          "name": "_enforcedOptions",
          "type": "tuple[]"
        }
      ],
      "name": "EnforcedOptionSet",
      "type": "event"
    },
    {
      "anonymous": false,
      "inputs": [
        {
          "indexed": true,
          "internalType": "address",
          "name": "_caller",
          "type": "address"
        }
      ],
      "name": "HyperLiquidL1CallerApproved",
      "type": "event"
    },
    {
      "anonymous": false,
      "inputs": [
        {
          "indexed": true,
          "internalType": "address",
          "name": "_caller",
          "type": "address"
        }
      ],
      "name": "HyperLiquidL1CallerRemoved",
      "type": "event"
    },
    {
      "anonymous": false,
      "inputs": [
        {
          "indexed": true,
          "internalType": "address",
          "name": "_receiver",
          "type": "address"
        },
        {
          "indexed": true,
          "internalType": "address",
          "name": "_hlTokenBridge",
          "type": "address"
        },
        {
          "indexed": false,
          "internalType": "uint256",
          "name": "_amountLD",
          "type": "uint256"
        }
      ],
      "name": "HyperLiquidL1Transfer",
      "type": "event"
    },
    {
      "anonymous": false,
      "inputs": [
        {
          "indexed": false,
          "internalType": "address",
          "name": "inspector",
          "type": "address"
        }
      ],
      "name": "MsgInspectorSet",
      "type": "event"
    },
    {
      "anonymous": false,
      "inputs": [
        {
          "indexed": true,
          "internalType": "bytes32",
          "name": "guid",
          "type": "bytes32"
        },
        {
          "indexed": false,
          "internalType": "uint32",
          "name": "srcEid",
          "type": "uint32"
        },
        {
          "indexed": true,
          "internalType": "address",
          "name": "toAddress",
          "type": "address"
        },
        {
          "indexed": false,
          "internalType": "uint256",
          "name": "amountReceivedLD",
          "type": "uint256"
        }
      ],
      "name": "OFTReceived",
      "type": "event"
    },
    {
      "anonymous": false,
      "inputs": [
        {
          "indexed": true,
          "internalType": "bytes32",
          "name": "guid",
          "type": "bytes32"
        },
        {
          "indexed": false,
          "internalType": "uint32",
          "name": "dstEid",
          "type": "uint32"
        },
        {
          "indexed": true,
          "internalType": "address",
          "name": "fromAddress",
          "type": "address"
        },
        {
          "indexed": false,
          "internalType": "uint256",
          "name": "amountSentLD",
          "type": "uint256"
        },
        {
          "indexed": false,
          "internalType": "uint256",
          "name": "amountReceivedLD",
          "type": "uint256"
        }
      ],
      "name": "OFTSent",
      "type": "event"
    },
    {
      "anonymous": false,
      "inputs": [
        {
          "indexed": true,
          "internalType": "address",
          "name": "previousOwner",
          "type": "address"
        },
        {
          "indexed": true,
          "internalType": "address",
          "name": "newOwner",
          "type": "address"
        }
      ],
      "name": "OwnershipTransferred",
      "type": "event"
    },
    {
      "anonymous": false,
      "inputs": [
        {
          "indexed": false,
          "internalType": "uint32",
          "name": "eid",
          "type": "uint32"
        },
        {
          "indexed": false,
          "internalType": "bytes32",
          "name": "peer",
          "type": "bytes32"
        }
      ],
      "name": "PeerSet",
      "type": "event"
    },
    {
      "anonymous": false,
      "inputs": [
        {
          "indexed": false,
          "internalType": "address",
          "name": "preCrimeAddress",
          "type": "address"
        }
      ],
      "name": "PreCrimeSet",
      "type": "event"
    },
    {
      "anonymous": false,
      "inputs": [
        {
          "indexed": true,
          "internalType": "address",
          "name": "from",
          "type": "address"
        },
        {
          "indexed": true,
          "internalType": "address",
          "name": "to",
          "type": "address"
        },
        {
          "indexed": false,
          "internalType": "uint256",
          "name": "value",
          "type": "uint256"
        }
      ],
      "name": "Transfer",
      "type": "event"
    },
    {
      "inputs": [],
      "name": "SEND",
      "outputs": [
        {
          "internalType": "uint16",
          "name": "",
          "type": "uint16"
        }
      ],
      "stateMutability": "view",
      "type": "function"
    },
    {
      "inputs": [],
      "name": "SEND_AND_CALL",
      "outputs": [
        {
          "internalType": "uint16",
          "name": "",
          "type": "uint16"
        }
      ],
      "stateMutability": "view",
      "type": "function"
    },
    {
      "inputs": [
        {
          "components": [
            {
              "internalType": "uint32",
              "name": "srcEid",
              "type": "uint32"
            },
            {
              "internalType": "bytes32",
              "name": "sender",
              "type": "bytes32"
            },
            {
              "internalType": "uint64",
              "name": "nonce",
              "type": "uint64"
            }
          ],
          "internalType": "struct Origin",
          "name": "origin",
          "type": "tuple"
        }
      ],
      "name": "allowInitializePath",
      "outputs": [
        {
          "internalType": "bool",
          "name": "",
          "type": "bool"
        }
      ],
      "stateMutability": "view",
      "type": "function"
    },
    {
      "inputs": [
        {
          "internalType": "address",
          "name": "owner",
          "type": "address"
        },
        {
          "internalType": "address",
          "name": "spender",
          "type": "address"
        }
      ],
      "name": "allowance",
      "outputs": [
        {
          "internalType": "uint256",
          "name": "",
          "type": "uint256"
        }
      ],
      "stateMutability": "view",
      "type": "function"
    },
    {
      "inputs": [],
      "name": "approvalRequired",
      "outputs": [
        {
          "internalType": "bool",
          "name": "",
          "type": "bool"
        }
      ],
      "stateMutability": "pure",
      "type": "function"
    },
    {
      "inputs": [
        {
          "internalType": "address",
          "name": "spender",
          "type": "address"
        },
        {
          "internalType": "uint256",
          "name": "value",
          "type": "uint256"
        }
      ],
      "name": "approve",
      "outputs": [
        {
          "internalType": "bool",
          "name": "",
          "type": "bool"
        }
      ],
      "stateMutability": "nonpayable",
      "type": "function"
    },
    {
      "inputs": [
        {
          "internalType": "address",
          "name": "_caller",
          "type": "address"
        }
      ],
      "name": "approveCaller",
      "outputs": [],
      "stateMutability": "nonpayable",
      "type": "function"
    },
    {
      "inputs": [
        {
          "internalType": "address",
          "name": "approvedCaller",
          "type": "address"
        }
      ],
      "name": "approvedCallers",
      "outputs": [
        {
          "internalType": "bool",
          "name": "",
          "type": "bool"
        }
      ],
      "stateMutability": "view",
      "type": "function"
    },
    {
      "inputs": [
        {
          "internalType": "address",
          "name": "account",
          "type": "address"
        }
      ],
      "name": "balanceOf",
      "outputs": [
        {
          "internalType": "uint256",
          "name": "",
          "type": "uint256"
        }
      ],
      "stateMutability": "view",
      "type": "function"
    },
    {
      "inputs": [
        {
          "internalType": "uint32",
          "name": "_eid",
          "type": "uint32"
        },
        {
          "internalType": "uint16",
          "name": "_msgType",
          "type": "uint16"
        },
        {
          "internalType": "bytes",
          "name": "_extraOptions",
          "type": "bytes"
        }
      ],
      "name": "combineOptions",
      "outputs": [
        {
          "internalType": "bytes",
          "name": "",
          "type": "bytes"
        }
      ],
      "stateMutability": "view",
      "type": "function"
    },
    {
      "inputs": [],
      "name": "decimalConversionRate",
      "outputs": [
        {
          "internalType": "uint256",
          "name": "",
          "type": "uint256"
        }
      ],
      "stateMutability": "view",
      "type": "function"
    },
    {
      "inputs": [],
      "name": "decimals",
      "outputs": [
        {
          "internalType": "uint8",
          "name": "",
          "type": "uint8"
        }
      ],
      "stateMutability": "view",
      "type": "function"
    },
    {
      "inputs": [],
      "name": "endpoint",
      "outputs": [
        {
          "internalType": "contract ILayerZeroEndpointV2",
          "name": "",
          "type": "address"
        }
      ],
      "stateMutability": "view",
      "type": "function"
    },
    {
      "inputs": [
        {
          "internalType": "uint32",
          "name": "eid",
          "type": "uint32"
        },
        {
          "internalType": "uint16",
          "name": "msgType",
          "type": "uint16"
        }
      ],
      "name": "enforcedOptions",
      "outputs": [
        {
          "internalType": "bytes",
          "name": "enforcedOption",
          "type": "bytes"
        }
      ],
      "stateMutability": "view",
      "type": "function"
    },
    {
      "inputs": [
        {
          "internalType": "address",
          "name": "_receiver",
          "type": "address"
        },
        {
          "internalType": "address",
          "name": "_hlTokenBridge",
          "type": "address"
        },
        {
          "internalType": "uint256",
          "name": "_amountLD",
          "type": "uint256"
        }
      ],
      "name": "hopTransferToHyperLiquidL1",
      "outputs": [],
      "stateMutability": "nonpayable",
      "type": "function"
    },
    {
      "inputs": [],
      "name": "implementsHopTransferFunctionality",
      "outputs": [
        {
          "internalType": "bool",
          "name": "",
          "type": "bool"
        }
      ],
      "stateMutability": "pure",
      "type": "function"
    },
    {
      "inputs": [
        {
          "components": [
            {
              "internalType": "uint32",
              "name": "srcEid",
              "type": "uint32"
            },
            {
              "internalType": "bytes32",
              "name": "sender",
              "type": "bytes32"
            },
            {
              "internalType": "uint64",
              "name": "nonce",
              "type": "uint64"
            }
          ],
          "internalType": "struct Origin",
          "name": "",
          "type": "tuple"
        },
        {
          "internalType": "bytes",
          "name": "",
          "type": "bytes"
        },
        {
          "internalType": "address",
          "name": "_sender",
          "type": "address"
        }
      ],
      "name": "isComposeMsgSender",
      "outputs": [
        {
          "internalType": "bool",
          "name": "",
          "type": "bool"
        }
      ],
      "stateMutability": "view",
      "type": "function"
    },
    {
      "inputs": [
        {
          "internalType": "uint32",
          "name": "_eid",
          "type": "uint32"
        },
        {
          "internalType": "bytes32",
          "name": "_peer",
          "type": "bytes32"
        }
      ],
      "name": "isPeer",
      "outputs": [
        {
          "internalType": "bool",
          "name": "",
          "type": "bool"
        }
      ],
      "stateMutability": "view",
      "type": "function"
    },
    {
      "inputs": [
        {
          "components": [
            {
              "internalType": "uint32",
              "name": "srcEid",
              "type": "uint32"
            },
            {
              "internalType": "bytes32",
              "name": "sender",
              "type": "bytes32"
            },
            {
              "internalType": "uint64",
              "name": "nonce",
              "type": "uint64"
            }
          ],
          "internalType": "struct Origin",
          "name": "_origin",
          "type": "tuple"
        },
        {
          "internalType": "bytes32",
          "name": "_guid",
          "type": "bytes32"
        },
        {
          "internalType": "bytes",
          "name": "_message",
          "type": "bytes"
        },
        {
          "internalType": "address",
          "name": "_executor",
          "type": "address"
        },
        {
          "internalType": "bytes",
          "name": "_extraData",
          "type": "bytes"
        }
      ],
      "name": "lzReceive",
      "outputs": [],
      "stateMutability": "payable",
      "type": "function"
    },
    {
      "inputs": [
        {
          "components": [
            {
              "components": [
                {
                  "internalType": "uint32",
                  "name": "srcEid",
                  "type": "uint32"
                },
                {
                  "internalType": "bytes32",
                  "name": "sender",
                  "type": "bytes32"
                },
                {
                  "internalType": "uint64",
                  "name": "nonce",
                  "type": "uint64"
                }
              ],
              "internalType": "struct Origin",
              "name": "origin",
              "type": "tuple"
            },
            {
              "internalType": "uint32",
              "name": "dstEid",
              "type": "uint32"
            },
            {
              "internalType": "address",
              "name": "receiver",
              "type": "address"
            },
            {
              "internalType": "bytes32",
              "name": "guid",
              "type": "bytes32"
            },
            {
              "internalType": "uint256",
              "name": "value",
              "type": "uint256"
            },
            {
              "internalType": "address",
              "name": "executor",
              "type": "address"
            },
            {
              "internalType": "bytes",
              "name": "message",
              "type": "bytes"
            },
            {
              "internalType": "bytes",
              "name": "extraData",
              "type": "bytes"
            }
          ],
          "internalType": "struct InboundPacket[]",
          "name": "_packets",
          "type": "tuple[]"
        }
      ],
      "name": "lzReceiveAndRevert",
      "outputs": [],
      "stateMutability": "payable",
      "type": "function"
    },
    {
      "inputs": [
        {
          "components": [
            {
              "internalType": "uint32",
              "name": "srcEid",
              "type": "uint32"
            },
            {
              "internalType": "bytes32",
              "name": "sender",
              "type": "bytes32"
            },
            {
              "internalType": "uint64",
              "name": "nonce",
              "type": "uint64"
            }
          ],
          "internalType": "struct Origin",
          "name": "_origin",
          "type": "tuple"
        },
        {
          "internalType": "bytes32",
          "name": "_guid",
          "type": "bytes32"
        },
        {
          "internalType": "bytes",
          "name": "_message",
          "type": "bytes"
        },
        {
          "internalType": "address",
          "name": "_executor",
          "type": "address"
        },
        {
          "internalType": "bytes",
          "name": "_extraData",
          "type": "bytes"
        }
      ],
      "name": "lzReceiveSimulate",
      "outputs": [],
      "stateMutability": "payable",
      "type": "function"
    },
    {
      "inputs": [
        {
          "internalType": "address",
          "name": "_to",
          "type": "address"
        },
        {
          "internalType": "uint256",
          "name": "_amount",
          "type": "uint256"
        }
      ],
      "name": "mint",
      "outputs": [],
      "stateMutability": "nonpayable",
      "type": "function"
    },
    {
      "inputs": [],
      "name": "msgInspector",
      "outputs": [
        {
          "internalType": "address",
          "name": "",
          "type": "address"
        }
      ],
      "stateMutability": "view",
      "type": "function"
    },
    {
      "inputs": [],
      "name": "name",
      "outputs": [
        {
          "internalType": "string",
          "name": "",
          "type": "string"
        }
      ],
      "stateMutability": "view",
      "type": "function"
    },
    {
      "inputs": [
        {
          "internalType": "uint32",
          "name": "",
          "type": "uint32"
        },
        {
          "internalType": "bytes32",
          "name": "",
          "type": "bytes32"
        }
      ],
      "name": "nextNonce",
      "outputs": [
        {
          "internalType": "uint64",
          "name": "nonce",
          "type": "uint64"
        }
      ],
      "stateMutability": "view",
      "type": "function"
    },
    {
      "inputs": [],
      "name": "oApp",
      "outputs": [
        {
          "internalType": "address",
          "name": "",
          "type": "address"
        }
      ],
      "stateMutability": "view",
      "type": "function"
    },
    {
      "inputs": [],
      "name": "oAppVersion",
      "outputs": [
        {
          "internalType": "uint64",
          "name": "senderVersion",
          "type": "uint64"
        },
        {
          "internalType": "uint64",
          "name": "receiverVersion",
          "type": "uint64"
        }
      ],
      "stateMutability": "pure",
      "type": "function"
    },
    {
      "inputs": [],
      "name": "oftVersion",
      "outputs": [
        {
          "internalType": "bytes4",
          "name": "interfaceId",
          "type": "bytes4"
        },
        {
          "internalType": "uint64",
          "name": "version",
          "type": "uint64"
        }
      ],
      "stateMutability": "pure",
      "type": "function"
    },
    {
      "inputs": [],
      "name": "owner",
      "outputs": [
        {
          "internalType": "address",
          "name": "",
          "type": "address"
        }
      ],
      "stateMutability": "view",
      "type": "function"
    },
    {
      "inputs": [
        {
          "internalType": "uint32",
          "name": "eid",
          "type": "uint32"
        }
      ],
      "name": "peers",
      "outputs": [
        {
          "internalType": "bytes32",
          "name": "peer",
          "type": "bytes32"
        }
      ],
      "stateMutability": "view",
      "type": "function"
    },
    {
      "inputs": [],
      "name": "preCrime",
      "outputs": [
        {
          "internalType": "address",
          "name": "",
          "type": "address"
        }
      ],
      "stateMutability": "view",
      "type": "function"
    },
    {
      "inputs": [
        {
          "components": [
            {
              "internalType": "uint32",
              "name": "dstEid",
              "type": "uint32"
            },
            {
              "internalType": "bytes32",
              "name": "to",
              "type": "bytes32"
            },
            {
              "internalType": "uint256",
              "name": "amountLD",
              "type": "uint256"
            },
            {
              "internalType": "uint256",
              "name": "minAmountLD",
              "type": "uint256"
            },
            {
              "internalType": "bytes",
              "name": "extraOptions",
              "type": "bytes"
            },
            {
              "internalType": "bytes",
              "name": "composeMsg",
              "type": "bytes"
            },
            {
              "internalType": "bytes",
              "name": "oftCmd",
              "type": "bytes"
            }
          ],
          "internalType": "struct SendParam",
          "name": "_sendParam",
          "type": "tuple"
        }
      ],
      "name": "quoteOFT",
      "outputs": [
        {
          "components": [
            {
              "internalType": "uint256",
              "name": "minAmountLD",
              "type": "uint256"
            },
            {
              "internalType": "uint256",
              "name": "maxAmountLD",
              "type": "uint256"
            }
          ],
          "internalType": "struct OFTLimit",
          "name": "oftLimit",
          "type": "tuple"
        },
        {
          "components": [
            {
              "internalType": "int256",
              "name": "feeAmountLD",
              "type": "int256"
            },
            {
              "internalType": "string",
              "name": "description",
              "type": "string"
            }
          ],
          "internalType": "struct OFTFeeDetail[]",
          "name": "oftFeeDetails",
          "type": "tuple[]"
        },
        {
          "components": [
            {
              "internalType": "uint256",
              "name": "amountSentLD",
              "type": "uint256"
            },
            {
              "internalType": "uint256",
              "name": "amountReceivedLD",
              "type": "uint256"
            }
          ],
          "internalType": "struct OFTReceipt",
          "name": "oftReceipt",
          "type": "tuple"
        }
      ],
      "stateMutability": "view",
      "type": "function"
    },
    {
      "inputs": [
        {
          "components": [
            {
              "internalType": "uint32",
              "name": "dstEid",
              "type": "uint32"
            },
            {
              "internalType": "bytes32",
              "name": "to",
              "type": "bytes32"
            },
            {
              "internalType": "uint256",
              "name": "amountLD",
              "type": "uint256"
            },
            {
              "internalType": "uint256",
              "name": "minAmountLD",
              "type": "uint256"
            },
            {
              "internalType": "bytes",
              "name": "extraOptions",
              "type": "bytes"
            },
            {
              "internalType": "bytes",
              "name": "composeMsg",
              "type": "bytes"
            },
            {
              "internalType": "bytes",
              "name": "oftCmd",
              "type": "bytes"
            }
          ],
          "internalType": "struct SendParam",
          "name": "_sendParam",
          "type": "tuple"
        },
        {
          "internalType": "bool",
          "name": "_payInLzToken",
          "type": "bool"
        }
      ],
      "name": "quoteSend",
      "outputs": [
        {
          "components": [
            {
              "internalType": "uint256",
              "name": "nativeFee",
              "type": "uint256"
            },
            {
              "internalType": "uint256",
              "name": "lzTokenFee",
              "type": "uint256"
            }
          ],
          "internalType": "struct MessagingFee",
          "name": "msgFee",
          "type": "tuple"
        }
      ],
      "stateMutability": "view",
      "type": "function"
    },
    {
      "inputs": [
        {
          "internalType": "address",
          "name": "_caller",
          "type": "address"
        }
      ],
      "name": "removeApprovedCaller",
      "outputs": [],
      "stateMutability": "nonpayable",
      "type": "function"
    },
    {
      "inputs": [],
      "name": "renounceOwnership",
      "outputs": [],
      "stateMutability": "nonpayable",
      "type": "function"
    },
    {
      "inputs": [
        {
          "components": [
            {
              "internalType": "uint32",
              "name": "dstEid",
              "type": "uint32"
            },
            {
              "internalType": "bytes32",
              "name": "to",
              "type": "bytes32"
            },
            {
              "internalType": "uint256",
              "name": "amountLD",
              "type": "uint256"
            },
            {
              "internalType": "uint256",
              "name": "minAmountLD",
              "type": "uint256"
            },
            {
              "internalType": "bytes",
              "name": "extraOptions",
              "type": "bytes"
            },
            {
              "internalType": "bytes",
              "name": "composeMsg",
              "type": "bytes"
            },
            {
              "internalType": "bytes",
              "name": "oftCmd",
              "type": "bytes"
            }
          ],
          "internalType": "struct SendParam",
          "name": "_sendParam",
          "type": "tuple"
        },
        {
          "components": [
            {
              "internalType": "uint256",
              "name": "nativeFee",
              "type": "uint256"
            },
            {
              "internalType": "uint256",
              "name": "lzTokenFee",
              "type": "uint256"
            }
          ],
          "internalType": "struct MessagingFee",
          "name": "_fee",
          "type": "tuple"
        },
        {
          "internalType": "address",
          "name": "_refundAddress",
          "type": "address"
        }
      ],
      "name": "send",
      "outputs": [
        {
          "components": [
            {
              "internalType": "bytes32",
              "name": "guid",
              "type": "bytes32"
            },
            {
              "internalType": "uint64",
              "name": "nonce",
              "type": "uint64"
            },
            {
              "components": [
                {
                  "internalType": "uint256",
                  "name": "nativeFee",
                  "type": "uint256"
                },
                {
                  "internalType": "uint256",
                  "name": "lzTokenFee",
                  "type": "uint256"
                }
              ],
              "internalType": "struct MessagingFee",
              "name": "fee",
              "type": "tuple"
            }
          ],
          "internalType": "struct MessagingReceipt",
          "name": "msgReceipt",
          "type": "tuple"
        },
        {
          "components": [
            {
              "internalType": "uint256",
              "name": "amountSentLD",
              "type": "uint256"
            },
            {
              "internalType": "uint256",
              "name": "amountReceivedLD",
              "type": "uint256"
            }
          ],
          "internalType": "struct OFTReceipt",
          "name": "oftReceipt",
          "type": "tuple"
        }
      ],
      "stateMutability": "payable",
      "type": "function"
    },
    {
      "inputs": [
        {
          "internalType": "address",
          "name": "_delegate",
          "type": "address"
        }
      ],
      "name": "setDelegate",
      "outputs": [],
      "stateMutability": "nonpayable",
      "type": "function"
    },
    {
      "inputs": [
        {
          "components": [
            {
              "internalType": "uint32",
              "name": "eid",
              "type": "uint32"
            },
            {
              "internalType": "uint16",
              "name": "msgType",
              "type": "uint16"
            },
            {
              "internalType": "bytes",
              "name": "options",
              "type": "bytes"
            }
          ],
          "internalType": "struct EnforcedOptionParam[]",
          "name": "_enforcedOptions",
          "type": "tuple[]"
        }
      ],
      "name": "setEnforcedOptions",
      "outputs": [],
      "stateMutability": "nonpayable",
      "type": "function"
    },
    {
      "inputs": [
        {
          "internalType": "address",
          "name": "_msgInspector",
          "type": "address"
        }
      ],
      "name": "setMsgInspector",
      "outputs": [],
      "stateMutability": "nonpayable",
      "type": "function"
    },
    {
      "inputs": [
        {
          "internalType": "uint32",
          "name": "_eid",
          "type": "uint32"
        },
        {
          "internalType": "bytes32",
          "name": "_peer",
          "type": "bytes32"
        }
      ],
      "name": "setPeer",
      "outputs": [],
      "stateMutability": "nonpayable",
      "type": "function"
    },
    {
      "inputs": [
        {
          "internalType": "address",
          "name": "_preCrime",
          "type": "address"
        }
      ],
      "name": "setPreCrime",
      "outputs": [],
      "stateMutability": "nonpayable",
      "type": "function"
    },
    {
      "inputs": [],
      "name": "sharedDecimals",
      "outputs": [
        {
          "internalType": "uint8",
          "name": "",
          "type": "uint8"
        }
      ],
      "stateMutability": "view",
      "type": "function"
    },
    {
      "inputs": [],
      "name": "symbol",
      "outputs": [
        {
          "internalType": "string",
          "name": "",
          "type": "string"
        }
      ],
      "stateMutability": "view",
      "type": "function"
    },
    {
      "inputs": [],
      "name": "token",
      "outputs": [
        {
          "internalType": "address",
          "name": "",
          "type": "address"
        }
      ],
      "stateMutability": "view",
      "type": "function"
    },
    {
      "inputs": [],
      "name": "totalSupply",
      "outputs": [
        {
          "internalType": "uint256",
          "name": "",
          "type": "uint256"
        }
      ],
      "stateMutability": "view",
      "type": "function"
    },
    {
      "inputs": [
        {
          "internalType": "address",
          "name": "to",
          "type": "address"
        },
        {
          "internalType": "uint256",
          "name": "value",
          "type": "uint256"
        }
      ],
      "name": "transfer",
      "outputs": [
        {
          "internalType": "bool",
          "name": "",
          "type": "bool"
        }
      ],
      "stateMutability": "nonpayable",
      "type": "function"
    },
    {
      "inputs": [
        {
          "internalType": "address",
          "name": "_newDelegateOwner",
          "type": "address"
        }
      ],
      "name": "transferDelegateOwner",
      "outputs": [],
      "stateMutability": "nonpayable",
      "type": "function"
    },
    {
      "inputs": [
        {
          "internalType": "address",
          "name": "from",
          "type": "address"
        },
        {
          "internalType": "address",
          "name": "to",
          "type": "address"
        },
        {
          "internalType": "uint256",
          "name": "value",
          "type": "uint256"
        }
      ],
      "name": "transferFrom",
      "outputs": [
        {
          "internalType": "bool",
          "name": "",
          "type": "bool"
        }
      ],
      "stateMutability": "nonpayable",
      "type": "function"
    },
    {
      "inputs": [
        {
          "internalType": "address",
          "name": "newOwner",
          "type": "address"
        }
      ],
      "name": "transferOwnership",
      "outputs": [],
      "stateMutability": "nonpayable",
      "type": "function"
    }
  ],
  "bytecode": "0x60c06040523480156200001157600080fd5b5060405162003b7e38038062003b7e833981016040819052620000349162000472565b8383838383838260128585818181818e8a8a600362000054838262000592565b50600462000063828262000592565b5050506001600160a01b0381166200009657604051631e4fbdf760e01b8152600060048201526024015b60405180910390fd5b620000a181620001c5565b506001600160a01b038083166080528116620000d057604051632d618d8160e21b815260040160405180910390fd5b60805160405163ca5eb5e160e01b81526001600160a01b0383811660048301529091169063ca5eb5e190602401600060405180830381600087803b1580156200011857600080fd5b505af11580156200012d573d6000803e3d6000fd5b5050505050505050620001456200021760201b60201c565b60ff168360ff1610156200016c576040516301e9714b60e41b815260040160405180910390fd5b6200017960068462000674565b6200018690600a62000793565b60a05250620001999150829050620001c5565b50505050505050620001bb8168056bc75e2d631000006200021c60201b60201c565b50505050620007c1565b600580546001600160a01b038381166001600160a01b0319831681179093556040519116919082907f8be0079c531659141344cd1fd0a4f28419497f9722a3daafe3b4186f6b6457e090600090a35050565b600690565b6001600160a01b038216620002485760405163ec442f0560e01b8152600060048201526024016200008d565b62000256600083836200025a565b5050565b6001600160a01b038316620002895780600260008282546200027d9190620007ab565b90915550620002fd9050565b6001600160a01b03831660009081526020819052604090205481811015620002de5760405163391434e360e21b81526001600160a01b038516600482015260248101829052604481018390526064016200008d565b6001600160a01b03841660009081526020819052604090209082900390555b6001600160a01b0382166200031b576002805482900390556200033a565b6001600160a01b03821660009081526020819052604090208054820190555b816001600160a01b0316836001600160a01b03167fddf252ad1be2c89b69c2b068fc378daa952ba7f163c4a11628f55a4df523b3ef836040516200038091815260200190565b60405180910390a3505050565b634e487b7160e01b600052604160045260246000fd5b600082601f830112620003b557600080fd5b81516001600160401b0380821115620003d257620003d26200038d565b604051601f8301601f19908116603f01168101908282118183101715620003fd57620003fd6200038d565b81604052838152602092508660208588010111156200041b57600080fd5b600091505b838210156200043f578582018301518183018401529082019062000420565b6000602085830101528094505050505092915050565b80516001600160a01b03811681146200046d57600080fd5b919050565b600080600080608085870312156200048957600080fd5b84516001600160401b0380821115620004a157600080fd5b620004af88838901620003a3565b95506020870151915080821115620004c657600080fd5b50620004d587828801620003a3565b935050620004e66040860162000455565b9150620004f66060860162000455565b905092959194509250565b600181811c908216806200051657607f821691505b6020821081036200053757634e487b7160e01b600052602260045260246000fd5b50919050565b601f8211156200058d576000816000526020600020601f850160051c81016020861015620005685750805b601f850160051c820191505b81811015620005895782815560010162000574565b5050505b505050565b81516001600160401b03811115620005ae57620005ae6200038d565b620005c681620005bf845462000501565b846200053d565b602080601f831160018114620005fe5760008415620005e55750858301515b600019600386901b1c1916600185901b17855562000589565b600085815260208120601f198616915b828110156200062f578886015182559484019460019091019084016200060e565b50858210156200064e5787850151600019600388901b60f8161c191681555b5050505050600190811b01905550565b634e487b7160e01b600052601160045260246000fd5b60ff82811682821603908111156200069057620006906200065e565b92915050565b600181815b80851115620006d7578160001904821115620006bb57620006bb6200065e565b80851615620006c957918102915b93841c93908002906200069b565b509250929050565b600082620006f05750600162000690565b81620006ff5750600062000690565b8160018114620007185760028114620007235762000743565b600191505062000690565b60ff8411156200073757620007376200065e565b50506001821b62000690565b5060208310610133831016604e8410600b841016171562000768575081810a62000690565b62000774838362000696565b80600019048211156200078b576200078b6200065e565b029392505050565b6000620007a460ff841683620006df565b9392505050565b808201808211156200069057620006906200065e565b60805160a0516133516200082d600039600081816106ef01528181611d6801528181611ddd0152611fd401526000818161057a01528181610b8e01528181611339015281816115a40152818161190e015281816120cc0152818161220601526122bd01526133516000f3fe6080604052600436106102ae5760003560e01c80637d25a05e11610175578063b731ea0a116100dc578063ca5eb5e111610095578063dd62ed3e1161006f578063dd62ed3e146108c9578063f2fde38b1461090f578063fc0c546a146104de578063ff7bd03d1461092f57600080fd5b8063ca5eb5e114610876578063d045a0dc14610896578063d4243885146108a957600080fd5b8063b731ea0a146107b5578063b98bd070146107d5578063bb0b6a53146107f5578063bc70b35414610822578063bd815db014610842578063c7c7f5b31461085557600080fd5b8063963efcaa1161012e578063963efcaa146106dd5780639f68b964146107115780639fab7d9914610725578063a71975af14610745578063a9059cbb14610775578063b034fd071461079557600080fd5b80637d25a05e1461061b57806382413eac14610656578063857749b0146106765780638affa0871461068a5780638da5cb5b146106aa57806395d89b41146106c857600080fd5b80633400288b116102195780635bf77a5a116101d25780635bf77a5a146105485780635e280f111461056857806367ddeba91461059c5780636fc1b31e146105b057806370a08231146105d0578063715018a61461060657600080fd5b80633400288b146104715780633b6f743b1461049157806340c10f19146104be57806352ae2879146104de5780635535d461146104f15780635a0dfe4d1461051157600080fd5b8063156a0d0f1161026b578063156a0d0f146103b257806317442b70146103d957806318160ddd146103fb5780631f5e13341461041a57806323b872dd1461042f578063313ce5671461044f57600080fd5b806306fdde03146102b3578063095ea7b3146102de5780630d35b4151461030e578063111ecdad1461033d57806313137d6514610375578063134d4f251461038a575b600080fd5b3480156102bf57600080fd5b506102c861094f565b6040516102d59190612435565b60405180910390f35b3480156102ea57600080fd5b506102fe6102f936600461245d565b6109e1565b60405190151581526020016102d5565b34801561031a57600080fd5b5061032e6103293660046124a1565b6109fb565b6040516102d5939291906124d5565b34801561034957600080fd5b5060095461035d906001600160a01b031681565b6040516001600160a01b0390911681526020016102d5565b6103886103833660046125c8565b610b8c565b005b34801561039657600080fd5b5061039f600281565b60405161ffff90911681526020016102d5565b3480156103be57600080fd5b506040805162b9270b60e21b815260016020820152016102d5565b3480156103e557600080fd5b50604080516001815260026020820152016102d5565b34801561040757600080fd5b506002545b6040519081526020016102d5565b34801561042657600080fd5b5061039f600181565b34801561043b57600080fd5b506102fe61044a366004612667565b610c4c565b34801561045b57600080fd5b5060125b60405160ff90911681526020016102d5565b34801561047d57600080fd5b5061038861048c3660046126c1565b610c72565b34801561049d57600080fd5b506104b16104ac3660046126eb565b610c88565b6040516102d5919061273c565b3480156104ca57600080fd5b506103886104d936600461245d565b610cef565b3480156104ea57600080fd5b503061035d565b3480156104fd57600080fd5b506102c861050c366004612765565b610cf9565b34801561051d57600080fd5b506102fe61052c3660046126c1565b63ffffffff919091166000908152600660205260409020541490565b34801561055457600080fd5b50610388610563366004612798565b610d9e565b34801561057457600080fd5b5061035d7f000000000000000000000000000000000000000000000000000000000000000081565b3480156105a857600080fd5b5060016102fe565b3480156105bc57600080fd5b506103886105cb366004612798565b610def565b3480156105dc57600080fd5b5061040c6105eb366004612798565b6001600160a01b031660009081526020819052604090205490565b34801561061257600080fd5b50610388610e4c565b34801561062757600080fd5b5061063e6106363660046126c1565b600092915050565b6040516001600160401b0390911681526020016102d5565b34801561066257600080fd5b506102fe6106713660046127b5565b610e60565b34801561068257600080fd5b50600661045f565b34801561069657600080fd5b506103886106a5366004612798565b610e75565b3480156106b657600080fd5b506005546001600160a01b031661035d565b3480156106d457600080fd5b506102c8610ec9565b3480156106e957600080fd5b5061040c7f000000000000000000000000000000000000000000000000000000000000000081565b34801561071d57600080fd5b5060006102fe565b34801561073157600080fd5b50610388610740366004612798565b610ed8565b34801561075157600080fd5b506102fe610760366004612798565b600a6020526000908152604090205460ff1681565b34801561078157600080fd5b506102fe61079036600461245d565b610eec565b3480156107a157600080fd5b506103886107b0366004612667565b610efa565b3480156107c157600080fd5b5060075461035d906001600160a01b031681565b3480156107e157600080fd5b506103886107f036600461285f565b610f92565b34801561080157600080fd5b5061040c6108103660046128a0565b60066020526000908152604090205481565b34801561082e57600080fd5b506102c861083d3660046128bb565b610fac565b61038861085036600461285f565b611154565b61086861086336600461291b565b6112de565b6040516102d5929190612988565b34801561088257600080fd5b50610388610891366004612798565b611312565b6103886108a43660046125c8565b611398565b3480156108b557600080fd5b506103886108c4366004612798565b6113c7565b3480156108d557600080fd5b5061040c6108e43660046129da565b6001600160a01b03918216600090815260016020908152604080832093909416825291909152205490565b34801561091b57600080fd5b5061038861092a366004612798565b61141d565b34801561093b57600080fd5b506102fe61094a366004612a08565b61144f565b60606003805461095e90612a24565b80601f016020809104026020016040519081016040528092919081815260200182805461098a90612a24565b80156109d75780601f106109ac576101008083540402835291602001916109d7565b820191906000526020600020905b8154815290600101906020018083116109ba57829003601f168201915b5050505050905090565b6000336109ef818585611485565b60019150505b92915050565b60408051808201909152600080825260208201526060610a2e604051806040016040528060008152602001600081525090565b600080306001600160a01b031663fc0c546a6040518163ffffffff1660e01b8152600401602060405180830381865afa158015610a6f573d6000803e3d6000fd5b505050506040513d601f19601f82011682018060405250810190610a939190612a58565b6001600160a01b03166318160ddd6040518163ffffffff1660e01b8152600401602060405180830381865afa158015610ad0573d6000803e3d6000fd5b505050506040513d601f19601f82011682018060405250810190610af49190612a75565b60408051808201825284815260208082018490528251600080825291810190935290975091925090610b49565b604080518082019091526000815260606020820152815260200190600190039081610b215790505b509350600080610b6e604089013560608a0135610b6960208c018c6128a0565b611497565b60408051808201909152918252602082015296989597505050505050565b7f00000000000000000000000000000000000000000000000000000000000000006001600160a01b03163314610bdc576040516391ac5e4f60e01b81523360048201526024015b60405180910390fd5b60208701803590610bf690610bf1908a6128a0565b6114d3565b14610c3457610c0860208801886128a0565b60405163309afaf360e21b815263ffffffff909116600482015260208801356024820152604401610bd3565b610c438787878787878761150f565b50505050505050565b600033610c5a858285611676565b610c658585856116f4565b60019150505b9392505050565b610c7a611753565b610c848282611780565b5050565b60408051808201909152600080825260208201526000610cb860408501356060860135610b6960208801886128a0565b915050600080610cc886846117d5565b9092509050610ce5610cdd60208801886128a0565b8383886118f8565b9695505050505050565b610c8482826119d9565b600860209081526000928352604080842090915290825290208054610d1d90612a24565b80601f0160208091040260200160405190810160405280929190818152602001828054610d4990612a24565b8015610d965780601f10610d6b57610100808354040283529160200191610d96565b820191906000526020600020905b815481529060010190602001808311610d7957829003601f168201915b505050505081565b610da6611753565b6001600160a01b0381166000818152600a6020526040808220805460ff19169055517f5fc597998ba9351cd6174b546616e79039ec215315adc6a12de9d9950d3a843a9190a250565b610df7611753565b600980546001600160a01b0319166001600160a01b0383169081179091556040519081527ff0be4f1e87349231d80c36b33f9e8639658eeaf474014dee15a3e6a4d4414197906020015b60405180910390a150565b610e54611753565b610e5e6000611a0f565b565b6001600160a01b03811630145b949350505050565b610e7d611753565b6001600160a01b0381166000818152600a6020526040808220805460ff19166001179055517f6f8152f9193fca543127be266798e0b1498be096feb86444f65d5453face181d9190a250565b60606004805461095e90612a24565b610ee0611753565b610ee981611a0f565b50565b6000336109ef8185856116f4565b336000908152600a602052604090205460ff16610f2a576040516305cd4cb960e41b815260040160405180910390fd5b610f353384836116f4565b610f408383836116f4565b816001600160a01b0316836001600160a01b03167f8cce12fdc3e8f94e66669e4f9c67a9eeed90735fed4cf86ce30a0b201a8441cb83604051610f8591815260200190565b60405180910390a3505050565b610f9a611753565b610c84610fa78284612b45565b611a61565b63ffffffff8416600090815260086020908152604080832061ffff87168452909152812080546060929190610fe090612a24565b80601f016020809104026020016040519081016040528092919081815260200182805461100c90612a24565b80156110595780601f1061102e57610100808354040283529160200191611059565b820191906000526020600020905b81548152906001019060200180831161103c57829003601f168201915b5050505050905080516000036110a95783838080601f016020809104026020016040519081016040528093929190818152602001838380828437600092019190915250929450610e6d9350505050565b60008390036110b9579050610e6d565b600283106111375761110084848080601f016020809104026020016040519081016040528093929190818152602001838380828437600092019190915250611b6892505050565b8061110e8460028188612c5a565b60405160200161112093929190612c84565b604051602081830303815290604052915050610e6d565b8383604051639a6d49cd60e01b8152600401610bd3929190612cd5565b60005b8181101561125d573683838381811061117257611172612ce9565b90506020028101906111849190612cff565b90506111b761119660208301836128a0565b602083013563ffffffff919091166000908152600660205260409020541490565b6111c15750611255565b3063d045a0dc60c08301358360a08101356111e0610100830183612d20565b6111f1610100890160e08a01612798565b6111ff6101208a018a612d20565b6040518963ffffffff1660e01b81526004016112219796959493929190612d7b565b6000604051808303818588803b15801561123a57600080fd5b505af115801561124e573d6000803e3d6000fd5b5050505050505b600101611157565b50336001600160a01b0316638e9e70996040518163ffffffff1660e01b8152600401600060405180830381865afa15801561129c573d6000803e3d6000fd5b505050506040513d6000823e601f3d908101601f191682016040526112c49190810190612e01565b604051638351eea760e01b8152600401610bd39190612435565b6112e661239e565b6040805180820190915260008082526020820152611305858585611b94565b915091505b935093915050565b61131a611753565b60405163ca5eb5e160e01b81526001600160a01b0382811660048301527f0000000000000000000000000000000000000000000000000000000000000000169063ca5eb5e190602401600060405180830381600087803b15801561137d57600080fd5b505af1158015611391573d6000803e3d6000fd5b5050505050565b3330146113b85760405163029a949d60e31b815260040160405180910390fd5b610c4387878787878787610c34565b6113cf611753565b600780546001600160a01b0319166001600160a01b0383169081179091556040519081527fd48d879cef83a1c0bdda516f27b13ddb1b3f8bbac1c9e1511bb2a659c242776090602001610e41565b611425611753565b6001600160a01b038116610ee057604051631e4fbdf760e01b815260006004820152602401610bd3565b600060208201803590600690839061146790866128a0565b63ffffffff1681526020810191909152604001600020541492915050565b6114928383836001611c8f565b505050565b6000806114a385611d64565b91508190508381101561130a576040516371c4efed60e01b81526004810182905260248101859052604401610bd3565b63ffffffff8116600090815260066020526040812054806109f55760405163f6ff4fb760e01b815263ffffffff84166004820152602401610bd3565b600061152161151e8787611d9b565b90565b9050600061154d8261153b6115368a8a611db3565b611dd6565b61154860208d018d6128a0565b611e0b565b9050602886111561161457600061158a61156d60608c0160408d01612e6e565b61157a60208d018d6128a0565b846115858c8c611e33565b611e7e565b604051633e5ac80960e11b81529091506001600160a01b037f00000000000000000000000000000000000000000000000000000000000000001690637cb59012906115e09086908d906000908790600401612e8b565b600060405180830381600087803b1580156115fa57600080fd5b505af115801561160e573d6000803e3d6000fd5b50505050505b6001600160a01b038216887fefed6d3500546b29533b128a29e3a94d70788727f0507505ac12eaf2e578fd9c61164d60208d018d6128a0565b6040805163ffffffff9092168252602082018690520160405180910390a3505050505050505050565b6001600160a01b0383811660009081526001602090815260408083209386168352929052205460001981146116ee57818110156116df57604051637dc7a0d960e11b81526001600160a01b03841660048201526024810182905260448101839052606401610bd3565b6116ee84848484036000611c8f565b50505050565b6001600160a01b03831661171e57604051634b637e8f60e11b815260006004820152602401610bd3565b6001600160a01b0382166117485760405163ec442f0560e01b815260006004820152602401610bd3565b611492838383611eb0565b6005546001600160a01b03163314610e5e5760405163118cdaa760e01b8152336004820152602401610bd3565b63ffffffff8216600081815260066020908152604091829020849055815192835282018390527f238399d427b947898edb290f5ff0f9109849b1c3ba196a42e35f00c50a54b98b910160405180910390a15050565b606080600061183285602001356117eb86611fcd565b6117f860a0890189612d20565b8080601f016020809104026020016040519081016040528093929190818152602001838380828437600092019190915250611ff992505050565b9093509050600081611845576001611848565b60025b905061186861185a60208801886128a0565b8261083d60808a018a612d20565b6009549093506001600160a01b031680156118ee5760405163043a78eb60e01b81526001600160a01b0382169063043a78eb906118ab9088908890600401612ebc565b602060405180830381865afa1580156118c8573d6000803e3d6000fd5b505050506040513d601f19601f820116820180604052508101906118ec9190612ee1565b505b5050509250929050565b60408051808201909152600080825260208201527f00000000000000000000000000000000000000000000000000000000000000006001600160a01b031663ddc28c586040518060a001604052808863ffffffff16815260200161195b896114d3565b8152602001878152602001868152602001851515815250306040518363ffffffff1660e01b8152600401611990929190612efe565b6040805180830381865afa1580156119ac573d6000803e3d6000fd5b505050506040513d601f19601f820116820180604052508101906119d09190612fa7565b95945050505050565b6001600160a01b038216611a035760405163ec442f0560e01b815260006004820152602401610bd3565b610c8460008383611eb0565b600580546001600160a01b038381166001600160a01b0319831681179093556040519116919082907f8be0079c531659141344cd1fd0a4f28419497f9722a3daafe3b4186f6b6457e090600090a35050565b60005b8151811015611b3857611a93828281518110611a8257611a82612ce9565b602002602001015160400151611b68565b818181518110611aa557611aa5612ce9565b60200260200101516040015160086000848481518110611ac757611ac7612ce9565b60200260200101516000015163ffffffff1663ffffffff1681526020019081526020016000206000848481518110611b0157611b01612ce9565b60200260200101516020015161ffff1661ffff1681526020019081526020016000209081611b2f9190613013565b50600101611a64565b507fbe4864a8e820971c0247f5992e2da559595f7bf076a21cb5928d443d2a13b67481604051610e4191906130d2565b600281015161ffff8116600314610c845781604051639a6d49cd60e01b8152600401610bd39190612435565b611b9c61239e565b6040805180820190915260008082526020820152600080611bd333604089013560608a0135611bce60208c018c6128a0565b612073565b91509150600080611be489846117d5565b9092509050611c10611bf960208b018b6128a0565b8383611c0a368d90038d018d61315d565b8b612099565b60408051808201909152858152602080820186905282519298509096503391907f85496b760a4b7f8d66384b9df21b381f5d1b1e79f229a47aaf4c232edc2fe59a90611c5e908d018d6128a0565b6040805163ffffffff909216825260208201899052810187905260600160405180910390a350505050935093915050565b6001600160a01b038416611cb95760405163e602df0560e01b815260006004820152602401610bd3565b6001600160a01b038316611ce357604051634a1406b160e11b815260006004820152602401610bd3565b6001600160a01b03808516600090815260016020908152604080832093871683529290522082905580156116ee57826001600160a01b0316846001600160a01b03167f8c5be1e5ebec7d5bd14f71427d1e84f3dd0314c0f7b2291e5b200ac8c7c3b92584604051611d5691815260200190565b60405180910390a350505050565b60007f0000000000000000000000000000000000000000000000000000000000000000611d9181846131a5565b6109f591906131c7565b6000611daa6020828486612c5a565b610c6b916131de565b6000611dc3602860208486612c5a565b611dcc916131fc565b60c01c9392505050565b60006109f57f00000000000000000000000000000000000000000000000000000000000000006001600160401b0384166131c7565b60006001600160a01b038416611e215761dead93505b611e2b84846119d9565b509092915050565b6060611e428260288186612c5a565b8080601f016020809104026020016040519081016040528093929190818152602001838380828437600092019190915250929695505050505050565b606084848484604051602001611e97949392919061322c565b6040516020818303038152906040529050949350505050565b6001600160a01b038316611edb578060026000828254611ed0919061327b565b90915550611f4d9050565b6001600160a01b03831660009081526020819052604090205481811015611f2e5760405163391434e360e21b81526001600160a01b03851660048201526024810182905260448101839052606401610bd3565b6001600160a01b03841660009081526020819052604090209082900390555b6001600160a01b038216611f6957600280548290039055611f88565b6001600160a01b03821660009081526020819052604090208054820190555b816001600160a01b0316836001600160a01b03167fddf252ad1be2c89b69c2b068fc378daa952ba7f163c4a11628f55a4df523b3ef83604051610f8591815260200190565b60006109f57f0000000000000000000000000000000000000000000000000000000000000000836131a5565b805160609015158061204257848460405160200161202e92919091825260c01b6001600160c01b031916602082015260280190565b604051602081830303815290604052612069565b84843385604051602001612059949392919061328e565b6040516020818303038152906040525b9150935093915050565b600080612081858585611497565b909250905061209086836121a4565b94509492505050565b6120a161239e565b60006120b084600001516121da565b6020850151909150156120ca576120ca8460200151612202565b7f00000000000000000000000000000000000000000000000000000000000000006001600160a01b0316632637a450826040518060a001604052808b63ffffffff16815260200161211a8c6114d3565b81526020018a815260200189815260200160008960200151111515815250866040518463ffffffff1660e01b8152600401612156929190612efe565b60806040518083038185885af1158015612174573d6000803e3d6000fd5b50505050506040513d601f19601f8201168201806040525081019061219991906132d1565b979650505050505050565b6001600160a01b0382166121ce57604051634b637e8f60e11b815260006004820152602401610bd3565b610c8482600083611eb0565b60008134146121fe576040516304fb820960e51b8152346004820152602401610bd3565b5090565b60007f00000000000000000000000000000000000000000000000000000000000000006001600160a01b031663e4fe1d946040518163ffffffff1660e01b8152600401602060405180830381865afa158015612262573d6000803e3d6000fd5b505050506040513d601f19601f820116820180604052508101906122869190612a58565b90506001600160a01b0381166122af576040516329b99a9560e11b815260040160405180910390fd5b6040805133602482018190527f00000000000000000000000000000000000000000000000000000000000000006001600160a01b0381811660448501526064808501889052855180860390910181526084909401909452602080840180516001600160e01b03166323b872dd60e01b1781528451610c849688169589936116ee93889360009283929091839182885af180612350576040513d6000823e3d81fd5b50506000513d91508115612368578060011415612375565b6001600160a01b0384163b155b156116ee57604051635274afe760e01b81526001600160a01b0385166004820152602401610bd3565b60405180606001604052806000801916815260200160006001600160401b031681526020016123e0604051806040016040528060008152602001600081525090565b905290565b60005b838110156124005781810151838201526020016123e8565b50506000910152565b600081518084526124218160208601602086016123e5565b601f01601f19169290920160200192915050565b602081526000610c6b6020830184612409565b6001600160a01b0381168114610ee957600080fd5b6000806040838503121561247057600080fd5b823561247b81612448565b946020939093013593505050565b600060e0828403121561249b57600080fd5b50919050565b6000602082840312156124b357600080fd5b81356001600160401b038111156124c957600080fd5b610e6d84828501612489565b8351815260208085015190820152600060a08201604060a0604085015281865180845260c08601915060c08160051b8701019350602080890160005b838110156125505788870360bf1901855281518051885283015183880187905261253d87890182612409565b9750509382019390820190600101612511565b50508751606088015250505060208501516080850152509050610e6d565b60006060828403121561249b57600080fd5b60008083601f84011261259257600080fd5b5081356001600160401b038111156125a957600080fd5b6020830191508360208285010111156125c157600080fd5b9250929050565b600080600080600080600060e0888a0312156125e357600080fd5b6125ed898961256e565b96506060880135955060808801356001600160401b038082111561261057600080fd5b61261c8b838c01612580565b909750955060a08a0135915061263182612448565b90935060c0890135908082111561264757600080fd5b506126548a828b01612580565b989b979a50959850939692959293505050565b60008060006060848603121561267c57600080fd5b833561268781612448565b9250602084013561269781612448565b929592945050506040919091013590565b803563ffffffff811681146126bc57600080fd5b919050565b600080604083850312156126d457600080fd5b61247b836126a8565b8015158114610ee957600080fd5b600080604083850312156126fe57600080fd5b82356001600160401b0381111561271457600080fd5b61272085828601612489565b9250506020830135612731816126dd565b809150509250929050565b8151815260208083015190820152604081016109f5565b803561ffff811681146126bc57600080fd5b6000806040838503121561277857600080fd5b612781836126a8565b915061278f60208401612753565b90509250929050565b6000602082840312156127aa57600080fd5b8135610c6b81612448565b60008060008060a085870312156127cb57600080fd5b6127d5868661256e565b935060608501356001600160401b038111156127f057600080fd5b6127fc87828801612580565b909450925050608085013561281081612448565b939692955090935050565b60008083601f84011261282d57600080fd5b5081356001600160401b0381111561284457600080fd5b6020830191508360208260051b85010111156125c157600080fd5b6000806020838503121561287257600080fd5b82356001600160401b0381111561288857600080fd5b6128948582860161281b565b90969095509350505050565b6000602082840312156128b257600080fd5b610c6b826126a8565b600080600080606085870312156128d157600080fd5b6128da856126a8565b93506128e860208601612753565b925060408501356001600160401b0381111561290357600080fd5b61290f87828801612580565b95989497509550505050565b6000806000838503608081121561293157600080fd5b84356001600160401b0381111561294757600080fd5b61295387828801612489565b9450506040601f198201121561296857600080fd5b50602084019150606084013561297d81612448565b809150509250925092565b600060c082019050835182526001600160401b03602085015116602083015260408401516129c3604084018280518252602090810151910152565b5082516080830152602083015160a0830152610c6b565b600080604083850312156129ed57600080fd5b82356129f881612448565b9150602083013561273181612448565b600060608284031215612a1a57600080fd5b610c6b838361256e565b600181811c90821680612a3857607f821691505b60208210810361249b57634e487b7160e01b600052602260045260246000fd5b600060208284031215612a6a57600080fd5b8151610c6b81612448565b600060208284031215612a8757600080fd5b5051919050565b634e487b7160e01b600052604160045260246000fd5b604051606081016001600160401b0381118282101715612ac657612ac6612a8e565b60405290565b604080519081016001600160401b0381118282101715612ac657612ac6612a8e565b604051601f8201601f191681016001600160401b0381118282101715612b1657612b16612a8e565b604052919050565b60006001600160401b03821115612b3757612b37612a8e565b50601f01601f191660200190565b60006001600160401b0380841115612b5f57612b5f612a8e565b8360051b6020612b70818301612aee565b868152918501918181019036841115612b8857600080fd5b865b84811015612c4e57803586811115612ba25760008081fd5b88016060368290031215612bb65760008081fd5b612bbe612aa4565b612bc7826126a8565b8152612bd4868301612753565b8682015260408083013589811115612bec5760008081fd5b929092019136601f840112612c015760008081fd5b8235612c14612c0f82612b1e565b612aee565b8181523689838701011115612c295760008081fd5b818986018a830137600091810189019190915290820152845250918301918301612b8a565b50979650505050505050565b60008085851115612c6a57600080fd5b83861115612c7757600080fd5b5050820193919092039150565b60008451612c968184602089016123e5565b8201838582376000930192835250909392505050565b81835281816020850137506000828201602090810191909152601f909101601f19169091010190565b602081526000610e6d602083018486612cac565b634e487b7160e01b600052603260045260246000fd5b6000823561013e19833603018112612d1657600080fd5b9190910192915050565b6000808335601e19843603018112612d3757600080fd5b8301803591506001600160401b03821115612d5157600080fd5b6020019150368190038213156125c157600080fd5b6001600160401b0381168114610ee957600080fd5b63ffffffff612d89896126a8565b1681526020880135602082015260006040890135612da681612d66565b6001600160401b03811660408401525087606083015260e06080830152612dd160e083018789612cac565b6001600160a01b03861660a084015282810360c0840152612df3818587612cac565b9a9950505050505050505050565b600060208284031215612e1357600080fd5b81516001600160401b03811115612e2957600080fd5b8201601f81018413612e3a57600080fd5b8051612e48612c0f82612b1e565b818152856020838501011115612e5d57600080fd5b6119d08260208301602086016123e5565b600060208284031215612e8057600080fd5b8135610c6b81612d66565b60018060a01b038516815283602082015261ffff83166040820152608060608201526000610ce56080830184612409565b604081526000612ecf6040830185612409565b82810360208401526119d08185612409565b600060208284031215612ef357600080fd5b8151610c6b816126dd565b6040815263ffffffff8351166040820152602083015160608201526000604084015160a06080840152612f3460e0840182612409565b90506060850151603f198483030160a0850152612f518282612409565b60809690960151151560c08501525050506001600160a01b039190911660209091015290565b600060408284031215612f8957600080fd5b612f91612acc565b9050815181526020820151602082015292915050565b600060408284031215612fb957600080fd5b610c6b8383612f77565b601f821115611492576000816000526020600020601f850160051c81016020861015612fec5750805b601f850160051c820191505b8181101561300b57828155600101612ff8565b505050505050565b81516001600160401b0381111561302c5761302c612a8e565b6130408161303a8454612a24565b84612fc3565b602080601f831160018114613075576000841561305d5750858301515b600019600386901b1c1916600185901b17855561300b565b600085815260208120601f198616915b828110156130a457888601518255948401946001909101908401613085565b50858210156130c25787850151600019600388901b60f8161c191681555b5050505050600190811b01905550565b600060208083018184528085518083526040925060408601915060408160051b87010184880160005b8381101561314f57888303603f190185528151805163ffffffff1684528781015161ffff1688850152860151606087850181905261313b81860183612409565b9689019694505050908601906001016130fb565b509098975050505050505050565b60006040828403121561316f57600080fd5b613177612acc565b82358152602083013560208201528091505092915050565b634e487b7160e01b600052601160045260246000fd5b6000826131c257634e487b7160e01b600052601260045260246000fd5b500490565b80820281158282048414176109f5576109f561318f565b803560208310156109f557600019602084900360031b1b1692915050565b6001600160c01b031981358181169160088510156132245780818660080360031b1b83161692505b505092915050565b6001600160401b0360c01b8560c01b16815263ffffffff60e01b8460e01b16600882015282600c8201526000825161326b81602c8501602087016123e5565b91909101602c0195945050505050565b808201808211156109f5576109f561318f565b8481526001600160401b0360c01b8460c01b166020820152826028820152600082516132c18160488501602087016123e5565b9190910160480195945050505050565b6000608082840312156132e357600080fd5b6132eb612aa4565b8251815260208301516132fd81612d66565b602082015261330f8460408501612f77565b6040820152939250505056fea2646970667358221220a27728c9053556507a0c098a4b697c73b6308df38acc114c677b802bae02a60964736f6c63430008160033",
  "linkReferences": {},
  "deployedLinkReferences": {}
}