{
  "address": "0xa1f743B67979554Adc87d4eb2596d2C99bD74dCC",
  "abi": [
    {
      "inputs": [
        {
          "internalType": "address",
          "name": "_lzEndpoint",
          "type": "address"
        },
        {
          "internalType": "address",
          "name": "_oft",
          "type": "address"
        },
        {
          "internalType": "uint64",
          "name": "_hlIndexId",
          "type": "uint64"
        },
        {
          "internalType": "uint256",
          "name": "_weiDiff",
          "type": "uint256"
        }
      ],
      "stateMutability": "nonpayable",
      "type": "constructor"
    },
    {
      "inputs": [
        {
          "internalType": "bytes",
          "name": "message",
          "type": "bytes"
        },
        {
          "internalType": "uint256",
          "name": "length",
          "type": "uint256"
        }
      ],
      "name": "HyperLiquidComposer_Codec_InvalidMessage_UnexpectedLength",
      "type": "error"
    },
    {
      "inputs": [
        {
          "internalType": "address",
          "name": "_notEndpointAddress",
          "type": "address"
        }
      ],
      "name": "HyperLiquidComposer_InvalidCall_NotEndpoint",
      "type": "error"
    },
    {
      "inputs": [
        {
          "internalType": "address",
          "name": "_internalOFTAddress",
          "type": "address"
        },
        {
          "internalType": "address",
          "name": "_receivedOFTAddress",
          "type": "address"
        }
      ],
      "name": "HyperLiquidComposer_InvalidCall_NotOFT",
      "type": "error"
    },
    {
      "inputs": [
        {
          "internalType": "address",
          "name": "_oft",
          "type": "address"
        },
        {
          "internalType": "address",
          "name": "_token",
          "type": "address"
        }
      ],
      "name": "HyperLiquidComposer_InvalidCall_TokenDoesNotSupportExtension",
      "type": "error"
    },
    {
      "inputs": [],
      "name": "HYPER_CORE_INDEX_ID",
      "outputs": [
        {
          "internalType": "uint64",
          "name": "",
          "type": "uint64"
        }
      ],
      "stateMutability": "view",
      "type": "function"
    },
    {
      "inputs": [],
      "name": "HYPER_CORE_INDEX_ID_DECIMAL_DIFF",
      "outputs": [
        {
          "internalType": "uint256",
          "name": "",
          "type": "uint256"
        }
      ],
      "stateMutability": "view",
      "type": "function"
    },
    {
      "inputs": [],
      "name": "HYPE_ASSET_BRIDGE_ADDRESS",
      "outputs": [
        {
          "internalType": "address payable",
          "name": "",
          "type": "address"
        }
      ],
      "stateMutability": "view",
      "type": "function"
    },
    {
      "inputs": [],
      "name": "L1WritePrecompileAddress",
      "outputs": [
        {
          "internalType": "address",
          "name": "",
          "type": "address"
        }
      ],
      "stateMutability": "view",
      "type": "function"
    },
    {
      "inputs": [],
      "name": "OFT_TOKEN_ASSET_BRIDGE_ADDRESS",
      "outputs": [
        {
          "internalType": "address",
          "name": "",
          "type": "address"
        }
      ],
      "stateMutability": "view",
      "type": "function"
    },
    {
      "inputs": [],
      "name": "OFT_TOKEN_CORE_INDEX_ID",
      "outputs": [
        {
          "internalType": "uint64",
          "name": "",
          "type": "uint64"
        }
      ],
      "stateMutability": "view",
      "type": "function"
    },
    {
      "inputs": [],
      "name": "endpoint",
      "outputs": [
        {
          "internalType": "address",
          "name": "",
          "type": "address"
        }
      ],
      "stateMutability": "view",
      "type": "function"
    },
    {
      "inputs": [
        {
          "internalType": "address",
          "name": "receiever",
          "type": "address"
        },
        {
          "internalType": "uint256",
          "name": "amount",
          "type": "uint256"
        }
      ],
      "name": "fundAddressOnHyperCore",
      "outputs": [],
      "stateMutability": "payable",
      "type": "function"
    },
    {
      "inputs": [
        {
          "internalType": "address",
          "name": "",
          "type": "address"
        },
        {
          "internalType": "bytes32",
          "name": "",
          "type": "bytes32"
        },
        {
          "internalType": "bytes",
          "name": "_message",
          "type": "bytes"
        },
        {
          "internalType": "address",
          "name": "",
          "type": "address"
        },
        {
          "internalType": "bytes",
          "name": "",
          "type": "bytes"
        }
      ],
      "name": "lzCompose",
      "outputs": [],
      "stateMutability": "payable",
      "type": "function"
    },
    {
      "inputs": [],
      "name": "oft",
      "outputs": [
        {
          "internalType": "contract IOFT",
          "name": "",
          "type": "address"
        }
      ],
      "stateMutability": "view",
      "type": "function"
    },
    {
      "inputs": [
        {
          "internalType": "address",
          "name": "receiever",
          "type": "address"
        },
        {
          "internalType": "uint256",
          "name": "amount",
          "type": "uint256"
        }
      ],
      "name": "sendAssetToHyperCore",
      "outputs": [],
      "stateMutability": "nonpayable",
      "type": "function"
    },
    {
      "inputs": [],
      "name": "token",
      "outputs": [
        {
          "internalType": "contract IERC20",
          "name": "",
          "type": "address"
        }
      ],
      "stateMutability": "view",
      "type": "function"
    },
    {
      "inputs": [],
      "name": "weiDiff",
      "outputs": [
        {
          "internalType": "uint256",
          "name": "",
          "type": "uint256"
        }
      ],
      "stateMutability": "view",
      "type": "function"
    },
    {
      "stateMutability": "payable",
      "type": "receive"
    }
  ],
  "transactionHash": "0xdb6c1833fe00a156d3067b9e82d65bf8c28a5b81a36711430ebb4ac69c244283",
  "args": [
    "0xf9e1815F151024bDE4B7C10BAC10e8Ba9F6b53E1",
    "0xAd543c6aF375b1001E3b08202b1Eb3e6e608A42F",
    1231,
    12
  ],
  "numDeployments": 2,
  "solcInputHash": "a83eb7f09df5482e4903ab27ee29c001",
  "bytecode": "0x61014060405234801561001157600080fd5b5060405162000d2f38038062000d2f83398101604081905261003291610136565b83838383826001600160a01b031660e0816001600160a01b03168152505060e0516001600160a01b031663fc0c546a6040518163ffffffff1660e01b8152600401602060405180830381865afa158015610090573d6000803e3d6000fd5b505050506040513d601f19601f820116820180604052508101906100b49190610190565b6001600160a01b0390811661010052841660c0526100da6001600160401b038316610104565b6001600160a01b03166080526001600160401b0390911660a05261012052506101d3945050505050565b6000610114826001609d1b6101b2565b92915050565b80516001600160a01b038116811461013157600080fd5b919050565b6000806000806080858703121561014c57600080fd5b6101558561011a565b93506101636020860161011a565b60408601519093506001600160401b038116811461018057600080fd5b6060959095015193969295505050565b6000602082840312156101a257600080fd5b6101ab8261011a565b9392505050565b8082018082111561011457634e487b7160e01b600052601160045260246000fd5b60805160a05160c05160e0516101005161012051610ae9620002466000396000818161011801526106520152600081816102ef01526105a30152600061025e01526000818161019a015261032a01526000818161022a015261062e0152600081816101f601526105740152610ae96000f3fe6080604052600436106100c65760003560e01c80639a923b9a1161007f578063d0a1026011610059578063d0a1026014610295578063d9acf0ec146102a8578063dd4c07c8146102c8578063fc0c546a146102dd57600080fd5b80639a923b9a146102185780639b5215f61461024c578063b7c312e61461028057600080fd5b80630813f32f146100d2578063303f1e811461010657806355cd1378146101485780635e280f11146101885780636e3bf0ad146101bc57806384123305146101e457600080fd5b366100cd57005b600080fd5b3480156100de57600080fd5b506100e861045181565b60405167ffffffffffffffff90911681526020015b60405180910390f35b34801561011257600080fd5b5061013a7f000000000000000000000000000000000000000000000000000000000000000081565b6040519081526020016100fd565b34801561015457600080fd5b5061017073333333333333333333333333333333333333333381565b6040516001600160a01b0390911681526020016100fd565b34801561019457600080fd5b506101707f000000000000000000000000000000000000000000000000000000000000000081565b3480156101c857600080fd5b5061017073222222222222222222222222222222222222222281565b3480156101f057600080fd5b506101707f000000000000000000000000000000000000000000000000000000000000000081565b34801561022457600080fd5b506100e87f000000000000000000000000000000000000000000000000000000000000000081565b34801561025857600080fd5b506101707f000000000000000000000000000000000000000000000000000000000000000081565b61029361028e36600461077f565b610311565b005b6102936102a33660046107f2565b61031f565b3480156102b457600080fd5b506102936102c336600461077f565b6103a6565b3480156102d457600080fd5b5061013a600a81565b3480156102e957600080fd5b506101707f000000000000000000000000000000000000000000000000000000000000000081565b61031b82826103b0565b5050565b336001600160a01b037f0000000000000000000000000000000000000000000000000000000000000000161461036f5760405163eee35e6f60e01b81523360048201526024015b60405180910390fd5b60008061037c8787610504565b909250905034156103915761039182346103b0565b61039b828261055d565b505050505050505050565b61031b828261055d565b6040516000907322222222222222222222222222222222222222229083908381818185875af1925050503d8060008114610406576040519150601f19603f3d011682016040523d82523d6000602084013e61040b565b606091505b505090508061045c5760405162461bcd60e51b815260206004820181905260248201527f4661696c656420746f2073656e64204859504520746f204879706572436f72656044820152606401610366565b733333333333333333333333333333333333333333630b0ac0ab84610451610485600a8061098a565b61048f9087610996565b6040516001600160e01b031960e086901b1681526001600160a01b03909316600484015267ffffffffffffffff9182166024840152166044820152606401600060405180830381600087803b1580156104e757600080fd5b505af11580156104fb573d6000803e3d6000fd5b50505050505050565b600080600061051385856106f6565b9050601481511461053b5780516040516309b3473160e01b81526103669183916004016109b8565b61054481610a0d565b60601c92506105538585610743565b9150509250929050565b60405163a9059cbb60e01b81526001600160a01b037f000000000000000000000000000000000000000000000000000000000000000081166004830152602482018390527f0000000000000000000000000000000000000000000000000000000000000000169063a9059cbb906044016020604051808303816000875af11580156105ec573d6000803e3d6000fd5b505050506040513d601f19601f820116820180604052508101906106109190610a49565b50733333333333333333333333333333333333333333630b0ac0ab837f00000000000000000000000000000000000000000000000000000000000000006106787f0000000000000000000000000000000000000000000000000000000000000000600a61098a565b6106829086610996565b6040516001600160e01b031960e086901b1681526001600160a01b03909316600484015267ffffffffffffffff9182166024840152166044820152606401600060405180830381600087803b1580156106da57600080fd5b505af11580156106ee573d6000803e3d6000fd5b505050505050565b606061070582604c8186610a6b565b8080601f0160208091040260200160405190810160405280939291908181526020018383808284376000920191909152509293505050505b92915050565b6000610753602c600c8486610a6b565b61075c91610a95565b9392505050565b80356001600160a01b038116811461077a57600080fd5b919050565b6000806040838503121561079257600080fd5b61079b83610763565b946020939093013593505050565b60008083601f8401126107bb57600080fd5b50813567ffffffffffffffff8111156107d357600080fd5b6020830191508360208285010111156107eb57600080fd5b9250929050565b600080600080600080600060a0888a03121561080d57600080fd5b61081688610763565b965060208801359550604088013567ffffffffffffffff8082111561083a57600080fd5b6108468b838c016107a9565b909750955085915061085a60608b01610763565b945060808a013591508082111561087057600080fd5b5061087d8a828b016107a9565b989b979a50959850939692959293505050565b634e487b7160e01b600052601160045260246000fd5b600181815b808511156108e15781600019048211156108c7576108c7610890565b808516156108d457918102915b93841c93908002906108ab565b509250929050565b6000826108f85750600161073d565b816109055750600061073d565b816001811461091b576002811461092557610941565b600191505061073d565b60ff84111561093657610936610890565b50506001821b61073d565b5060208310610133831016604e8410600b8410161715610964575081810a61073d565b61096e83836108a6565b806000190482111561098257610982610890565b029392505050565b600061075c83836108e9565b6000826109b357634e487b7160e01b600052601260045260246000fd5b500490565b604081526000835180604084015260005b818110156109e657602081870181015160608684010152016109c9565b506000606082850101526060601f19601f8301168401019150508260208301529392505050565b805160208201516bffffffffffffffffffffffff198082169291906014831015610a415780818460140360031b1b83161693505b505050919050565b600060208284031215610a5b57600080fd5b8151801515811461075c57600080fd5b60008085851115610a7b57600080fd5b83861115610a8857600080fd5b5050820193919092039150565b8035602083101561073d57600019602084900360031b1b169291505056fea264697066735822122096e575855173f3aff01684e119e497ee12c59c8fa020778b512faf8933c71a8e64736f6c63430008160033",
  "devdoc": {
    "kind": "dev",
    "methods": {
      "lzCompose(address,bytes32,bytes,address,bytes)": {
        "details": "This function is called by the OFTCore contract when a message is sent",
        "params": {
          "_message": "The encoded message content, expected to be of type: (address receiver)."
        }
      }
    },
    "version": 1
  },
  "userdoc": {
    "kind": "user",
    "methods": {
      "lzCompose(address,bytes32,bytes,address,bytes)": {
        "notice": "Composes a message to be sent to the HyperLiquidLZComposerThis function is the only new addition to the OFT standard"
      }
    },
    "version": 1
  },
  "storageLayout": {
    "storage": [],
    "types": null
  }
}