{"abi":[{"type":"constructor","inputs":[{"name":"_name","type":"string","internalType":"string"},{"name":"_symbol","type":"string","internalType":"string"},{"name":"_lzEndpoint","type":"address","internalType":"address"},{"name":"_delegate","type":"address","internalType":"address"}],"stateMutability":"nonpayable"},{"type":"function","name":"SEND","inputs":[],"outputs":[{"name":"","type":"uint16","internalType":"uint16"}],"stateMutability":"view"},{"type":"function","name":"SEND_AND_CALL","inputs":[],"outputs":[{"name":"","type":"uint16","internalType":"uint16"}],"stateMutability":"view"},{"type":"function","name":"allowInitializePath","inputs":[{"name":"origin","type":"tuple","internalType":"struct Origin","components":[{"name":"srcEid","type":"uint32","internalType":"uint32"},{"name":"sender","type":"bytes32","internalType":"bytes32"},{"name":"nonce","type":"uint64","internalType":"uint64"}]}],"outputs":[{"name":"","type":"bool","internalType":"bool"}],"stateMutability":"view"},{"type":"function","name":"allowance","inputs":[{"name":"owner","type":"address","internalType":"address"},{"name":"spender","type":"address","internalType":"address"}],"outputs":[{"name":"","type":"uint256","internalType":"uint256"}],"stateMutability":"view"},{"type":"function","name":"approvalRequired","inputs":[],"outputs":[{"name":"","type":"bool","internalType":"bool"}],"stateMutability":"pure"},{"type":"function","name":"approve","inputs":[{"name":"spender","type":"address","internalType":"address"},{"name":"value","type":"uint256","internalType":"uint256"}],"outputs":[{"name":"","type":"bool","internalType":"bool"}],"stateMutability":"nonpayable"},{"type":"function","name":"approveCaller","inputs":[{"name":"_caller","type":"address","internalType":"address"}],"outputs":[],"stateMutability":"nonpayable"},{"type":"function","name":"approvedCallers","inputs":[{"name":"approvedCaller","type":"address","internalType":"address"}],"outputs":[{"name":"","type":"bool","internalType":"bool"}],"stateMutability":"view"},{"type":"function","name":"balanceOf","inputs":[{"name":"account","type":"address","internalType":"address"}],"outputs":[{"name":"","type":"uint256","internalType":"uint256"}],"stateMutability":"view"},{"type":"function","name":"combineOptions","inputs":[{"name":"_eid","type":"uint32","internalType":"uint32"},{"name":"_msgType","type":"uint16","internalType":"uint16"},{"name":"_extraOptions","type":"bytes","internalType":"bytes"}],"outputs":[{"name":"","type":"bytes","internalType":"bytes"}],"stateMutability":"view"},{"type":"function","name":"decimalConversionRate","inputs":[],"outputs":[{"name":"","type":"uint256","internalType":"uint256"}],"stateMutability":"view"},{"type":"function","name":"decimals","inputs":[],"outputs":[{"name":"","type":"uint8","internalType":"uint8"}],"stateMutability":"view"},{"type":"function","name":"endpoint","inputs":[],"outputs":[{"name":"","type":"address","internalType":"contract ILayerZeroEndpointV2"}],"stateMutability":"view"},{"type":"function","name":"enforcedOptions","inputs":[{"name":"eid","type":"uint32","internalType":"uint32"},{"name":"msgType","type":"uint16","internalType":"uint16"}],"outputs":[{"name":"enforcedOption","type":"bytes","internalType":"bytes"}],"stateMutability":"view"},{"type":"function","name":"hopTransferToHyperLiquidL1","inputs":[{"name":"_receiver","type":"address","internalType":"address"},{"name":"_hlTokenBridge","type":"address","internalType":"address"},{"name":"_amountLD","type":"uint256","internalType":"uint256"}],"outputs":[],"stateMutability":"nonpayable"},{"type":"function","name":"implementsHopTransferFunctionality","inputs":[],"outputs":[{"name":"","type":"bool","internalType":"bool"}],"stateMutability":"pure"},{"type":"function","name":"isComposeMsgSender","inputs":[{"name":"","type":"tuple","internalType":"struct Origin","components":[{"name":"srcEid","type":"uint32","internalType":"uint32"},{"name":"sender","type":"bytes32","internalType":"bytes32"},{"name":"nonce","type":"uint64","internalType":"uint64"}]},{"name":"","type":"bytes","internalType":"bytes"},{"name":"_sender","type":"address","internalType":"address"}],"outputs":[{"name":"","type":"bool","internalType":"bool"}],"stateMutability":"view"},{"type":"function","name":"isPeer","inputs":[{"name":"_eid","type":"uint32","internalType":"uint32"},{"name":"_peer","type":"bytes32","internalType":"bytes32"}],"outputs":[{"name":"","type":"bool","internalType":"bool"}],"stateMutability":"view"},{"type":"function","name":"lzReceive","inputs":[{"name":"_origin","type":"tuple","internalType":"struct Origin","components":[{"name":"srcEid","type":"uint32","internalType":"uint32"},{"name":"sender","type":"bytes32","internalType":"bytes32"},{"name":"nonce","type":"uint64","internalType":"uint64"}]},{"name":"_guid","type":"bytes32","internalType":"bytes32"},{"name":"_message","type":"bytes","internalType":"bytes"},{"name":"_executor","type":"address","internalType":"address"},{"name":"_extraData","type":"bytes","internalType":"bytes"}],"outputs":[],"stateMutability":"payable"},{"type":"function","name":"lzReceiveAndRevert","inputs":[{"name":"_packets","type":"tuple[]","internalType":"struct InboundPacket[]","components":[{"name":"origin","type":"tuple","internalType":"struct Origin","components":[{"name":"srcEid","type":"uint32","internalType":"uint32"},{"name":"sender","type":"bytes32","internalType":"bytes32"},{"name":"nonce","type":"uint64","internalType":"uint64"}]},{"name":"dstEid","type":"uint32","internalType":"uint32"},{"name":"receiver","type":"address","internalType":"address"},{"name":"guid","type":"bytes32","internalType":"bytes32"},{"name":"value","type":"uint256","internalType":"uint256"},{"name":"executor","type":"address","internalType":"address"},{"name":"message","type":"bytes","internalType":"bytes"},{"name":"extraData","type":"bytes","internalType":"bytes"}]}],"outputs":[],"stateMutability":"payable"},{"type":"function","name":"lzReceiveSimulate","inputs":[{"name":"_origin","type":"tuple","internalType":"struct Origin","components":[{"name":"srcEid","type":"uint32","internalType":"uint32"},{"name":"sender","type":"bytes32","internalType":"bytes32"},{"name":"nonce","type":"uint64","internalType":"uint64"}]},{"name":"_guid","type":"bytes32","internalType":"bytes32"},{"name":"_message","type":"bytes","internalType":"bytes"},{"name":"_executor","type":"address","internalType":"address"},{"name":"_extraData","type":"bytes","internalType":"bytes"}],"outputs":[],"stateMutability":"payable"},{"type":"function","name":"mint","inputs":[{"name":"_to","type":"address","internalType":"address"},{"name":"_amount","type":"uint256","internalType":"uint256"}],"outputs":[],"stateMutability":"nonpayable"},{"type":"function","name":"msgInspector","inputs":[],"outputs":[{"name":"","type":"address","internalType":"address"}],"stateMutability":"view"},{"type":"function","name":"name","inputs":[],"outputs":[{"name":"","type":"string","internalType":"string"}],"stateMutability":"view"},{"type":"function","name":"nextNonce","inputs":[{"name":"","type":"uint32","internalType":"uint32"},{"name":"","type":"bytes32","internalType":"bytes32"}],"outputs":[{"name":"nonce","type":"uint64","internalType":"uint64"}],"stateMutability":"view"},{"type":"function","name":"oApp","inputs":[],"outputs":[{"name":"","type":"address","internalType":"address"}],"stateMutability":"view"},{"type":"function","name":"oAppVersion","inputs":[],"outputs":[{"name":"senderVersion","type":"uint64","internalType":"uint64"},{"name":"receiverVersion","type":"uint64","internalType":"uint64"}],"stateMutability":"pure"},{"type":"function","name":"oftVersion","inputs":[],"outputs":[{"name":"interfaceId","type":"bytes4","internalType":"bytes4"},{"name":"version","type":"uint64","internalType":"uint64"}],"stateMutability":"pure"},{"type":"function","name":"owner","inputs":[],"outputs":[{"name":"","type":"address","internalType":"address"}],"stateMutability":"view"},{"type":"function","name":"peers","inputs":[{"name":"eid","type":"uint32","internalType":"uint32"}],"outputs":[{"name":"peer","type":"bytes32","internalType":"bytes32"}],"stateMutability":"view"},{"type":"function","name":"preCrime","inputs":[],"outputs":[{"name":"","type":"address","internalType":"address"}],"stateMutability":"view"},{"type":"function","name":"quoteOFT","inputs":[{"name":"_sendParam","type":"tuple","internalType":"struct SendParam","components":[{"name":"dstEid","type":"uint32","internalType":"uint32"},{"name":"to","type":"bytes32","internalType":"bytes32"},{"name":"amountLD","type":"uint256","internalType":"uint256"},{"name":"minAmountLD","type":"uint256","internalType":"uint256"},{"name":"extraOptions","type":"bytes","internalType":"bytes"},{"name":"composeMsg","type":"bytes","internalType":"bytes"},{"name":"oftCmd","type":"bytes","internalType":"bytes"}]}],"outputs":[{"name":"oftLimit","type":"tuple","internalType":"struct OFTLimit","components":[{"name":"minAmountLD","type":"uint256","internalType":"uint256"},{"name":"maxAmountLD","type":"uint256","internalType":"uint256"}]},{"name":"oftFeeDetails","type":"tuple[]","internalType":"struct OFTFeeDetail[]","components":[{"name":"feeAmountLD","type":"int256","internalType":"int256"},{"name":"description","type":"string","internalType":"string"}]},{"name":"oftReceipt","type":"tuple","internalType":"struct OFTReceipt","components":[{"name":"amountSentLD","type":"uint256","internalType":"uint256"},{"name":"amountReceivedLD","type":"uint256","internalType":"uint256"}]}],"stateMutability":"view"},{"type":"function","name":"quoteSend","inputs":[{"name":"_sendParam","type":"tuple","internalType":"struct SendParam","components":[{"name":"dstEid","type":"uint32","internalType":"uint32"},{"name":"to","type":"bytes32","internalType":"bytes32"},{"name":"amountLD","type":"uint256","internalType":"uint256"},{"name":"minAmountLD","type":"uint256","internalType":"uint256"},{"name":"extraOptions","type":"bytes","internalType":"bytes"},{"name":"composeMsg","type":"bytes","internalType":"bytes"},{"name":"oftCmd","type":"bytes","internalType":"bytes"}]},{"name":"_payInLzToken","type":"bool","internalType":"bool"}],"outputs":[{"name":"msgFee","type":"tuple","internalType":"struct MessagingFee","components":[{"name":"nativeFee","type":"uint256","internalType":"uint256"},{"name":"lzTokenFee","type":"uint256","internalType":"uint256"}]}],"stateMutability":"view"},{"type":"function","name":"removeApprovedCaller","inputs":[{"name":"_caller","type":"address","internalType":"address"}],"outputs":[],"stateMutability":"nonpayable"},{"type":"function","name":"renounceOwnership","inputs":[],"outputs":[],"stateMutability":"nonpayable"},{"type":"function","name":"send","inputs":[{"name":"_sendParam","type":"tuple","internalType":"struct SendParam","components":[{"name":"dstEid","type":"uint32","internalType":"uint32"},{"name":"to","type":"bytes32","internalType":"bytes32"},{"name":"amountLD","type":"uint256","internalType":"uint256"},{"name":"minAmountLD","type":"uint256","internalType":"uint256"},{"name":"extraOptions","type":"bytes","internalType":"bytes"},{"name":"composeMsg","type":"bytes","internalType":"bytes"},{"name":"oftCmd","type":"bytes","internalType":"bytes"}]},{"name":"_fee","type":"tuple","internalType":"struct MessagingFee","components":[{"name":"nativeFee","type":"uint256","internalType":"uint256"},{"name":"lzTokenFee","type":"uint256","internalType":"uint256"}]},{"name":"_refundAddress","type":"address","internalType":"address"}],"outputs":[{"name":"msgReceipt","type":"tuple","internalType":"struct MessagingReceipt","components":[{"name":"guid","type":"bytes32","internalType":"bytes32"},{"name":"nonce","type":"uint64","internalType":"uint64"},{"name":"fee","type":"tuple","internalType":"struct MessagingFee","components":[{"name":"nativeFee","type":"uint256","internalType":"uint256"},{"name":"lzTokenFee","type":"uint256","internalType":"uint256"}]}]},{"name":"oftReceipt","type":"tuple","internalType":"struct OFTReceipt","components":[{"name":"amountSentLD","type":"uint256","internalType":"uint256"},{"name":"amountReceivedLD","type":"uint256","internalType":"uint256"}]}],"stateMutability":"payable"},{"type":"function","name":"setDelegate","inputs":[{"name":"_delegate","type":"address","internalType":"address"}],"outputs":[],"stateMutability":"nonpayable"},{"type":"function","name":"setEnforcedOptions","inputs":[{"name":"_enforcedOptions","type":"tuple[]","internalType":"struct EnforcedOptionParam[]","components":[{"name":"eid","type":"uint32","internalType":"uint32"},{"name":"msgType","type":"uint16","internalType":"uint16"},{"name":"options","type":"bytes","internalType":"bytes"}]}],"outputs":[],"stateMutability":"nonpayable"},{"type":"function","name":"setMsgInspector","inputs":[{"name":"_msgInspector","type":"address","internalType":"address"}],"outputs":[],"stateMutability":"nonpayable"},{"type":"function","name":"setPeer","inputs":[{"name":"_eid","type":"uint32","internalType":"uint32"},{"name":"_peer","type":"bytes32","internalType":"bytes32"}],"outputs":[],"stateMutability":"nonpayable"},{"type":"function","name":"setPreCrime","inputs":[{"name":"_preCrime","type":"address","internalType":"address"}],"outputs":[],"stateMutability":"nonpayable"},{"type":"function","name":"sharedDecimals","inputs":[],"outputs":[{"name":"","type":"uint8","internalType":"uint8"}],"stateMutability":"view"},{"type":"function","name":"symbol","inputs":[],"outputs":[{"name":"","type":"string","internalType":"string"}],"stateMutability":"view"},{"type":"function","name":"token","inputs":[],"outputs":[{"name":"","type":"address","internalType":"address"}],"stateMutability":"view"},{"type":"function","name":"totalSupply","inputs":[],"outputs":[{"name":"","type":"uint256","internalType":"uint256"}],"stateMutability":"view"},{"type":"function","name":"transfer","inputs":[{"name":"to","type":"address","internalType":"address"},{"name":"value","type":"uint256","internalType":"uint256"}],"outputs":[{"name":"","type":"bool","internalType":"bool"}],"stateMutability":"nonpayable"},{"type":"function","name":"transferDelegateOwner","inputs":[{"name":"_newDelegateOwner","type":"address","internalType":"address"}],"outputs":[],"stateMutability":"nonpayable"},{"type":"function","name":"transferFrom","inputs":[{"name":"from","type":"address","internalType":"address"},{"name":"to","type":"address","internalType":"address"},{"name":"value","type":"uint256","internalType":"uint256"}],"outputs":[{"name":"","type":"bool","internalType":"bool"}],"stateMutability":"nonpayable"},{"type":"function","name":"transferOwnership","inputs":[{"name":"newOwner","type":"address","internalType":"address"}],"outputs":[],"stateMutability":"nonpayable"},{"type":"event","name":"Approval","inputs":[{"name":"owner","type":"address","indexed":true,"internalType":"address"},{"name":"spender","type":"address","indexed":true,"internalType":"address"},{"name":"value","type":"uint256","indexed":false,"internalType":"uint256"}],"anonymous":false},{"type":"event","name":"EnforcedOptionSet","inputs":[{"name":"_enforcedOptions","type":"tuple[]","indexed":false,"internalType":"struct EnforcedOptionParam[]","components":[{"name":"eid","type":"uint32","internalType":"uint32"},{"name":"msgType","type":"uint16","internalType":"uint16"},{"name":"options","type":"bytes","internalType":"bytes"}]}],"anonymous":false},{"type":"event","name":"HyperLiquidL1CallerApproved","inputs":[{"name":"_caller","type":"address","indexed":true,"internalType":"address"}],"anonymous":false},{"type":"event","name":"HyperLiquidL1CallerRemoved","inputs":[{"name":"_caller","type":"address","indexed":true,"internalType":"address"}],"anonymous":false},{"type":"event","name":"HyperLiquidL1Transfer","inputs":[{"name":"_receiver","type":"address","indexed":true,"internalType":"address"},{"name":"_hlTokenBridge","type":"address","indexed":true,"internalType":"address"},{"name":"_amountLD","type":"uint256","indexed":false,"internalType":"uint256"}],"anonymous":false},{"type":"event","name":"MsgInspectorSet","inputs":[{"name":"inspector","type":"address","indexed":false,"internalType":"address"}],"anonymous":false},{"type":"event","name":"OFTReceived","inputs":[{"name":"guid","type":"bytes32","indexed":true,"internalType":"bytes32"},{"name":"srcEid","type":"uint32","indexed":false,"internalType":"uint32"},{"name":"toAddress","type":"address","indexed":true,"internalType":"address"},{"name":"amountReceivedLD","type":"uint256","indexed":false,"internalType":"uint256"}],"anonymous":false},{"type":"event","name":"OFTSent","inputs":[{"name":"guid","type":"bytes32","indexed":true,"internalType":"bytes32"},{"name":"dstEid","type":"uint32","indexed":false,"internalType":"uint32"},{"name":"fromAddress","type":"address","indexed":true,"internalType":"address"},{"name":"amountSentLD","type":"uint256","indexed":false,"internalType":"uint256"},{"name":"amountReceivedLD","type":"uint256","indexed":false,"internalType":"uint256"}],"anonymous":false},{"type":"event","name":"OwnershipTransferred","inputs":[{"name":"previousOwner","type":"address","indexed":true,"internalType":"address"},{"name":"newOwner","type":"address","indexed":true,"internalType":"address"}],"anonymous":false},{"type":"event","name":"PeerSet","inputs":[{"name":"eid","type":"uint32","indexed":false,"internalType":"uint32"},{"name":"peer","type":"bytes32","indexed":false,"internalType":"bytes32"}],"anonymous":false},{"type":"event","name":"PreCrimeSet","inputs":[{"name":"preCrimeAddress","type":"address","indexed":false,"internalType":"address"}],"anonymous":false},{"type":"event","name":"Transfer","inputs":[{"name":"from","type":"address","indexed":true,"internalType":"address"},{"name":"to","type":"address","indexed":true,"internalType":"address"},{"name":"value","type":"uint256","indexed":false,"internalType":"uint256"}],"anonymous":false},{"type":"error","name":"ERC20HyperliquidHopTransferable_NotApprovedCaller","inputs":[]},{"type":"error","name":"ERC20InsufficientAllowance","inputs":[{"name":"spender","type":"address","internalType":"address"},{"name":"allowance","type":"uint256","internalType":"uint256"},{"name":"needed","type":"uint256","internalType":"uint256"}]},{"type":"error","name":"ERC20InsufficientBalance","inputs":[{"name":"sender","type":"address","internalType":"address"},{"name":"balance","type":"uint256","internalType":"uint256"},{"name":"needed","type":"uint256","internalType":"uint256"}]},{"type":"error","name":"ERC20InvalidApprover","inputs":[{"name":"approver","type":"address","internalType":"address"}]},{"type":"error","name":"ERC20InvalidReceiver","inputs":[{"name":"receiver","type":"address","internalType":"address"}]},{"type":"error","name":"ERC20InvalidSender","inputs":[{"name":"sender","type":"address","internalType":"address"}]},{"type":"error","name":"ERC20InvalidSpender","inputs":[{"name":"spender","type":"address","internalType":"address"}]},{"type":"error","name":"InvalidDelegate","inputs":[]},{"type":"error","name":"InvalidEndpointCall","inputs":[]},{"type":"error","name":"InvalidLocalDecimals","inputs":[]},{"type":"error","name":"InvalidOptions","inputs":[{"name":"options","type":"bytes","internalType":"bytes"}]},{"type":"error","name":"LzTokenUnavailable","inputs":[]},{"type":"error","name":"NoPeer","inputs":[{"name":"eid","type":"uint32","internalType":"uint32"}]},{"type":"error","name":"NotEnoughNative","inputs":[{"name":"msgValue","type":"uint256","internalType":"uint256"}]},{"type":"error","name":"OnlyEndpoint","inputs":[{"name":"addr","type":"address","internalType":"address"}]},{"type":"error","name":"OnlyPeer","inputs":[{"name":"eid","type":"uint32","internalType":"uint32"},{"name":"sender","type":"bytes32","internalType":"bytes32"}]},{"type":"error","name":"OnlySelf","inputs":[]},{"type":"error","name":"OwnableInvalidOwner","inputs":[{"name":"owner","type":"address","internalType":"address"}]},{"type":"error","name":"OwnableUnauthorizedAccount","inputs":[{"name":"account","type":"address","internalType":"address"}]},{"type":"error","name":"SafeERC20FailedOperation","inputs":[{"name":"token","type":"address","internalType":"address"}]},{"type":"error","name":"SimulationResult","inputs":[{"name":"result","type":"bytes","internalType":"bytes"}]},{"type":"error","name":"SlippageExceeded","inputs":[{"name":"amountLD","type":"uint256","internalType":"uint256"},{"name":"minAmountLD","type":"uint256","internalType":"uint256"}]}],"bytecode":{"object":"0x60c060405234801562000010575f80fd5b50604051620043703803806200437083398101604081905262000033916200045c565b8383838383838260128585818181818e8a8a600362000053838262000570565b50600462000062828262000570565b5050506001600160a01b0381166200009457604051631e4fbdf760e01b81525f60048201526024015b60405180910390fd5b6200009f81620001be565b506001600160a01b038083166080528116620000ce57604051632d618d8160e21b815260040160405180910390fd5b60805160405163ca5eb5e160e01b81526001600160a01b0383811660048301529091169063ca5eb5e1906024015f604051808303815f87803b15801562000113575f80fd5b505af115801562000126573d5f803e3d5ffd5b50505050505050506200013e6200020f60201b60201c565b60ff168360ff16101562000165576040516301e9714b60e41b815260040160405180910390fd5b6200017260068462000650565b6200017f90600a6200076b565b60a05250620001929150829050620001be565b50505050505050620001b48168056bc75e2d631000006200021460201b60201c565b5050505062000798565b600580546001600160a01b038381166001600160a01b0319831681179093556040519116919082907f8be0079c531659141344cd1fd0a4f28419497f9722a3daafe3b4186f6b6457e0905f90a35050565b600690565b6001600160a01b0382166200023f5760405163ec442f0560e01b81525f60048201526024016200008b565b6200024c5f838362000250565b5050565b6001600160a01b0383166200027e578060025f82825462000272919062000782565b90915550620002f09050565b6001600160a01b0383165f9081526020819052604090205481811015620002d25760405163391434e360e21b81526001600160a01b038516600482015260248101829052604481018390526064016200008b565b6001600160a01b0384165f9081526020819052604090209082900390555b6001600160a01b0382166200030e576002805482900390556200032c565b6001600160a01b0382165f9081526020819052604090208054820190555b816001600160a01b0316836001600160a01b03167fddf252ad1be2c89b69c2b068fc378daa952ba7f163c4a11628f55a4df523b3ef836040516200037291815260200190565b60405180910390a3505050565b634e487b7160e01b5f52604160045260245ffd5b5f82601f830112620003a3575f80fd5b81516001600160401b0380821115620003c057620003c06200037f565b604051601f8301601f19908116603f01168101908282118183101715620003eb57620003eb6200037f565b816040528381526020925086602085880101111562000408575f80fd5b5f91505b838210156200042b57858201830151818301840152908201906200040c565b5f602085830101528094505050505092915050565b80516001600160a01b038116811462000457575f80fd5b919050565b5f805f806080858703121562000470575f80fd5b84516001600160401b038082111562000487575f80fd5b620004958883890162000393565b95506020870151915080821115620004ab575f80fd5b50620004ba8782880162000393565b935050620004cb6040860162000440565b9150620004db6060860162000440565b905092959194509250565b600181811c90821680620004fb57607f821691505b6020821081036200051a57634e487b7160e01b5f52602260045260245ffd5b50919050565b601f8211156200056b57805f5260205f20601f840160051c81016020851015620005475750805b601f840160051c820191505b8181101562000568575f815560010162000553565b50505b505050565b81516001600160401b038111156200058c576200058c6200037f565b620005a4816200059d8454620004e6565b8462000520565b602080601f831160018114620005da575f8415620005c25750858301515b5f19600386901b1c1916600185901b17855562000634565b5f85815260208120601f198616915b828110156200060a57888601518255948401946001909101908401620005e9565b50858210156200062857878501515f19600388901b60f8161c191681555b505060018460011b0185555b505050505050565b634e487b7160e01b5f52601160045260245ffd5b60ff82811682821603908111156200066c576200066c6200063c565b92915050565b600181815b80851115620006b257815f19048211156200069657620006966200063c565b80851615620006a457918102915b93841c939080029062000677565b509250929050565b5f82620006ca575060016200066c565b81620006d857505f6200066c565b8160018114620006f15760028114620006fc576200071c565b60019150506200066c565b60ff8411156200071057620007106200063c565b50506001821b6200066c565b5060208310610133831016604e8410600b841016171562000741575081810a6200066c565b6200074d838362000672565b805f19048211156200076357620007636200063c565b029392505050565b5f6200077b60ff841683620006ba565b9392505050565b808201808211156200066c576200066c6200063c565b60805160a051613b70620008005f395f818161077c015281816121db0152818161224d01526124cc01525f81816105f901528181610c2f015281816115390152818161185301528181611caf015281816125d90152818161275801526128400152613b705ff3fe60806040526004361061030e575f3560e01c80637d25a05e1161019c578063b731ea0a116100e7578063ca5eb5e111610092578063dd62ed3e1161006d578063dd62ed3e14610955578063f2fde38b146109a6578063fc0c546a14610563578063ff7bd03d146109c5575f80fd5b8063ca5eb5e114610904578063d045a0dc14610923578063d424388514610936575f80fd5b8063bc70b354116100c2578063bc70b354146108b1578063bd815db0146108d0578063c7c7f5b3146108e3575f80fd5b8063b731ea0a1461083b578063b98bd07014610867578063bb0b6a5314610886575f80fd5b8063963efcaa11610147578063a71975af11610122578063a71975af146107cf578063a9059cbb146107fd578063b034fd071461081c575f80fd5b8063963efcaa1461076b5780639f68b9641461079e5780639fab7d99146107b0575f80fd5b80638affa087116101775780638affa0871461070e5780638da5cb5b1461072d57806395d89b4114610757575f80fd5b80637d25a05e146106a257806382413eac146106dc578063857749b0146106fb575f80fd5b80633400288b1161025c5780635bf77a5a116102075780636fc1b31e116101e25780636fc1b31e1461062e57806370a082311461064d578063715018a61461068e575f80fd5b80635bf77a5a146105c95780635e280f11146105e857806367ddeba91461061b575f80fd5b806352ae28791161023757806352ae2879146105635780635535d461146105755780635a0dfe4d14610594575f80fd5b80633400288b146104f95780633b6f743b1461051857806340c10f1914610544575f80fd5b8063156a0d0f116102bc5780631f5e1334116102975780631f5e1334146104a557806323b872dd146104b9578063313ce567146104d8575f80fd5b8063156a0d0f1461042657806317442b701461046657806318160ddd14610487575f80fd5b8063111ecdad116102ec578063111ecdad1461039957806313137d65146103ea578063134d4f25146103ff575f80fd5b806306fdde0314610312578063095ea7b31461033c5780630d35b4151461036b575b5f80fd5b34801561031d575f80fd5b506103266109e4565b6040516103339190612a3b565b60405180910390f35b348015610347575f80fd5b5061035b610356366004612a6e565b610a74565b6040519015158152602001610333565b348015610376575f80fd5b5061038a610385366004612aae565b610a8d565b60405161033393929190612ae0565b3480156103a4575f80fd5b506009546103c59073ffffffffffffffffffffffffffffffffffffffff1681565b60405173ffffffffffffffffffffffffffffffffffffffff9091168152602001610333565b6103fd6103f8366004612bea565b610c2d565b005b34801561040a575f80fd5b50610413600281565b60405161ffff9091168152602001610333565b348015610431575f80fd5b50604080517f02e49c2c0000000000000000000000000000000000000000000000000000000081526001602082015201610333565b348015610471575f80fd5b5060408051600181526002602082015201610333565b348015610492575f80fd5b506002545b604051908152602001610333565b3480156104b0575f80fd5b50610413600181565b3480156104c4575f80fd5b5061035b6104d3366004612c83565b610d2c565b3480156104e3575f80fd5b5060125b60405160ff9091168152602001610333565b348015610504575f80fd5b506103fd610513366004612cd9565b610d51565b348015610523575f80fd5b50610537610532366004612d00565b610d67565b6040516103339190612d4f565b34801561054f575f80fd5b506103fd61055e366004612a6e565b610dcb565b34801561056e575f80fd5b50306103c5565b348015610580575f80fd5b5061032661058f366004612d77565b610dd5565b34801561059f575f80fd5b5061035b6105ae366004612cd9565b63ffffffff919091165f908152600660205260409020541490565b3480156105d4575f80fd5b506103fd6105e3366004612da8565b610e77565b3480156105f3575f80fd5b506103c57f000000000000000000000000000000000000000000000000000000000000000081565b348015610626575f80fd5b50600161035b565b348015610639575f80fd5b506103fd610648366004612da8565b610ef2565b348015610658575f80fd5b50610497610667366004612da8565b73ffffffffffffffffffffffffffffffffffffffff165f9081526020819052604090205490565b348015610699575f80fd5b506103fd610f74565b3480156106ad575f80fd5b506106c36106bc366004612cd9565b5f92915050565b60405167ffffffffffffffff9091168152602001610333565b3480156106e7575f80fd5b5061035b6106f6366004612dc3565b610f87565b348015610706575f80fd5b5060066104e7565b348015610719575f80fd5b506103fd610728366004612da8565b610fa9565b348015610738575f80fd5b5060055473ffffffffffffffffffffffffffffffffffffffff166103c5565b348015610762575f80fd5b50610326611027565b348015610776575f80fd5b506104977f000000000000000000000000000000000000000000000000000000000000000081565b3480156107a9575f80fd5b505f61035b565b3480156107bb575f80fd5b506103fd6107ca366004612da8565b611036565b3480156107da575f80fd5b5061035b6107e9366004612da8565b600a6020525f908152604090205460ff1681565b348015610808575f80fd5b5061035b610817366004612a6e565b61104a565b348015610827575f80fd5b506103fd610836366004612c83565b611057565b348015610846575f80fd5b506007546103c59073ffffffffffffffffffffffffffffffffffffffff1681565b348015610872575f80fd5b506103fd610881366004612e67565b611121565b348015610891575f80fd5b506104976108a0366004612ea6565b60066020525f908152604090205481565b3480156108bc575f80fd5b506103266108cb366004612ebf565b61113b565b6103fd6108de366004612e67565b6112f5565b6108f66108f1366004612f1c565b6114b9565b604051610333929190612fa3565b34801561090f575f80fd5b506103fd61091e366004612da8565b6114ec565b6103fd610931366004612bea565b611593565b348015610941575f80fd5b506103fd610950366004612da8565b6115db565b348015610960575f80fd5b5061049761096f366004612ff5565b73ffffffffffffffffffffffffffffffffffffffff9182165f90815260016020908152604080832093909416825291909152205490565b3480156109b1575f80fd5b506103fd6109c0366004612da8565b611656565b3480156109d0575f80fd5b5061035b6109df366004613021565b6116ad565b6060600380546109f39061303b565b80601f0160208091040260200160405190810160405280929190818152602001828054610a1f9061303b565b8015610a6a5780601f10610a4157610100808354040283529160200191610a6a565b820191905f5260205f20905b815481529060010190602001808311610a4d57829003601f168201915b5050505050905090565b5f33610a818185856116e1565b60019150505b92915050565b604080518082019091525f80825260208201526060610abd60405180604001604052805f81526020015f81525090565b5f803073ffffffffffffffffffffffffffffffffffffffff1663fc0c546a6040518163ffffffff1660e01b8152600401602060405180830381865afa158015610b08573d5f803e3d5ffd5b505050506040513d601f19601f82011682018060405250810190610b2c9190613086565b73ffffffffffffffffffffffffffffffffffffffff166318160ddd6040518163ffffffff1660e01b8152600401602060405180830381865afa158015610b74573d5f803e3d5ffd5b505050506040513d601f19601f82011682018060405250810190610b9891906130a1565b604080518082018252848152602080820184905282515f80825291810190935290975091925090610beb565b604080518082019091525f815260606020820152815260200190600190039081610bc45790505b5093505f80610c0f604089013560608a0135610c0a60208c018c612ea6565b6116f3565b60408051808201909152918252602082015296989597505050505050565b7f000000000000000000000000000000000000000000000000000000000000000073ffffffffffffffffffffffffffffffffffffffff163314610ca3576040517f91ac5e4f0000000000000000000000000000000000000000000000000000000081523360048201526024015b60405180910390fd5b60208701803590610cbd90610cb8908a612ea6565b611747565b14610d1457610ccf6020880188612ea6565b6040517fc26bebcc00000000000000000000000000000000000000000000000000000000815263ffffffff909116600482015260208801356024820152604401610c9a565b610d238787878787878761179b565b50505050505050565b5f33610d3985828561192c565b610d448585856119f9565b60019150505b9392505050565b610d59611aa2565b610d638282611af5565b5050565b604080518082019091525f80825260208201525f610d9560408501356060860135610c0a6020880188612ea6565b9150505f80610da48684611b49565b9092509050610dc1610db96020880188612ea6565b838388611c9a565b9695505050505050565b610d638282611d85565b600860209081525f928352604080842090915290825290208054610df89061303b565b80601f0160208091040260200160405190810160405280929190818152602001828054610e249061303b565b8015610e6f5780601f10610e4657610100808354040283529160200191610e6f565b820191905f5260205f20905b815481529060010190602001808311610e5257829003601f168201915b505050505081565b610e7f611aa2565b73ffffffffffffffffffffffffffffffffffffffff81165f818152600a602052604080822080547fffffffffffffffffffffffffffffffffffffffffffffffffffffffffffffff00169055517f5fc597998ba9351cd6174b546616e79039ec215315adc6a12de9d9950d3a843a9190a250565b610efa611aa2565b600980547fffffffffffffffffffffffff00000000000000000000000000000000000000001673ffffffffffffffffffffffffffffffffffffffff83169081179091556040519081527ff0be4f1e87349231d80c36b33f9e8639658eeaf474014dee15a3e6a4d4414197906020015b60405180910390a150565b610f7c611aa2565b610f855f611ddf565b565b73ffffffffffffffffffffffffffffffffffffffff811630145b949350505050565b610fb1611aa2565b73ffffffffffffffffffffffffffffffffffffffff81165f818152600a602052604080822080547fffffffffffffffffffffffffffffffffffffffffffffffffffffffffffffff00166001179055517f6f8152f9193fca543127be266798e0b1498be096feb86444f65d5453face181d9190a250565b6060600480546109f39061303b565b61103e611aa2565b61104781611ddf565b50565b5f33610a818185856119f9565b335f908152600a602052604090205460ff1661109f576040517f5cd4cb9000000000000000000000000000000000000000000000000000000000815260040160405180910390fd5b6110aa3384836119f9565b6110b58383836119f9565b8173ffffffffffffffffffffffffffffffffffffffff168373ffffffffffffffffffffffffffffffffffffffff167f8cce12fdc3e8f94e66669e4f9c67a9eeed90735fed4cf86ce30a0b201a8441cb8360405161111491815260200190565b60405180910390a3505050565b611129611aa2565b610d6361113682846131c5565b611e55565b63ffffffff84165f90815260086020908152604080832061ffff8716845290915281208054606092919061116e9061303b565b80601f016020809104026020016040519081016040528092919081815260200182805461119a9061303b565b80156111e55780601f106111bc576101008083540402835291602001916111e5565b820191905f5260205f20905b8154815290600101906020018083116111c857829003601f168201915b5050505050905080515f036112335783838080601f0160208091040260200160405190810160405280939291908181526020018383808284375f92019190915250929450610fa19350505050565b5f839003611242579050610fa1565b600283106112bf5761128884848080601f0160208091040260200160405190810160405280939291908181526020018383808284375f92019190915250611f5692505050565b8061129684600281886132ce565b6040516020016112a8939291906132f5565b604051602081830303815290604052915050610fa1565b83836040517f9a6d49cd000000000000000000000000000000000000000000000000000000008152600401610c9a929190613362565b5f5b818110156113f8573683838381811061131257611312613375565b905060200281019061132491906133a2565b90506113566113366020830183612ea6565b602083013563ffffffff919091165f908152600660205260409020541490565b61136057506113f0565b3063d045a0dc60c08301358360a081013561137f6101008301836133de565b611390610100890160e08a01612da8565b61139e6101208a018a6133de565b6040518963ffffffff1660e01b81526004016113c09796959493929190613454565b5f604051808303818588803b1580156113d7575f80fd5b505af11580156113e9573d5f803e3d5ffd5b5050505050505b6001016112f7565b503373ffffffffffffffffffffffffffffffffffffffff16638e9e70996040518163ffffffff1660e01b81526004015f60405180830381865afa158015611441573d5f803e3d5ffd5b505050506040513d5f823e601f3d9081017fffffffffffffffffffffffffffffffffffffffffffffffffffffffffffffffe016820160405261148691908101906134e7565b6040517f8351eea7000000000000000000000000000000000000000000000000000000008152600401610c9a9190612a3b565b6114c161298c565b604080518082019091525f80825260208201526114df858585611f9b565b915091505b935093915050565b6114f4611aa2565b6040517fca5eb5e100000000000000000000000000000000000000000000000000000000815273ffffffffffffffffffffffffffffffffffffffff82811660048301527f0000000000000000000000000000000000000000000000000000000000000000169063ca5eb5e1906024015f604051808303815f87803b15801561157a575f80fd5b505af115801561158c573d5f803e3d5ffd5b5050505050565b3330146115cc576040517f14d4a4e800000000000000000000000000000000000000000000000000000000815260040160405180910390fd5b610d2387878787878787610d14565b6115e3611aa2565b600780547fffffffffffffffffffffffff00000000000000000000000000000000000000001673ffffffffffffffffffffffffffffffffffffffff83169081179091556040519081527fd48d879cef83a1c0bdda516f27b13ddb1b3f8bbac1c9e1511bb2a659c242776090602001610f69565b61165e611aa2565b73ffffffffffffffffffffffffffffffffffffffff811661103e576040517f1e4fbdf70000000000000000000000000000000000000000000000000000000081525f6004820152602401610c9a565b5f6020820180359060069083906116c49086612ea6565b63ffffffff16815260208101919091526040015f20541492915050565b6116ee8383836001612093565b505050565b5f806116fe856121d8565b9150819050838110156114e4576040517f71c4efed0000000000000000000000000000000000000000000000000000000081526004810182905260248101859052604401610c9a565b63ffffffff81165f9081526006602052604081205480610a87576040517ff6ff4fb700000000000000000000000000000000000000000000000000000000815263ffffffff84166004820152602401610c9a565b5f6117ac6117a9878761220e565b90565b90505f6117d7826117c56117c08a8a612225565b612247565b6117d260208d018d612ea6565b61227c565b905060288611156118bd575f6118136117f660608c0160408d01613550565b61180360208d018d612ea6565b8461180e8c8c6122b0565b6122fa565b6040517f7cb5901200000000000000000000000000000000000000000000000000000000815290915073ffffffffffffffffffffffffffffffffffffffff7f00000000000000000000000000000000000000000000000000000000000000001690637cb590129061188e9086908d905f90879060040161356b565b5f604051808303815f87803b1580156118a5575f80fd5b505af11580156118b7573d5f803e3d5ffd5b50505050505b73ffffffffffffffffffffffffffffffffffffffff8216887fefed6d3500546b29533b128a29e3a94d70788727f0507505ac12eaf2e578fd9c61190360208d018d612ea6565b6040805163ffffffff9092168252602082018690520160405180910390a3505050505050505050565b73ffffffffffffffffffffffffffffffffffffffff8381165f908152600160209081526040808320938616835292905220547fffffffffffffffffffffffffffffffffffffffffffffffffffffffffffffffff81146119f357818110156119e5576040517ffb8f41b200000000000000000000000000000000000000000000000000000000815273ffffffffffffffffffffffffffffffffffffffff841660048201526024810182905260448101839052606401610c9a565b6119f384848484035f612093565b50505050565b73ffffffffffffffffffffffffffffffffffffffff8316611a48576040517f96c6fd1e0000000000000000000000000000000000000000000000000000000081525f6004820152602401610c9a565b73ffffffffffffffffffffffffffffffffffffffff8216611a97576040517fec442f050000000000000000000000000000000000000000000000000000000081525f6004820152602401610c9a565b6116ee83838361232c565b60055473ffffffffffffffffffffffffffffffffffffffff163314610f85576040517f118cdaa7000000000000000000000000000000000000000000000000000000008152336004820152602401610c9a565b63ffffffff82165f81815260066020908152604091829020849055815192835282018390527f238399d427b947898edb290f5ff0f9109849b1c3ba196a42e35f00c50a54b98b910160405180910390a15050565b6060805f611ba48560200135611b5e866124c6565b611b6b60a08901896133de565b8080601f0160208091040260200160405190810160405280939291908181526020018383808284375f920191909152506124f192505050565b90935090505f81611bb6576001611bb9565b60025b9050611bd9611bcb6020880188612ea6565b826108cb60808a018a6133de565b60095490935073ffffffffffffffffffffffffffffffffffffffff168015611c90576040517f043a78eb00000000000000000000000000000000000000000000000000000000815273ffffffffffffffffffffffffffffffffffffffff82169063043a78eb90611c4f90889088906004016135a9565b602060405180830381865afa158015611c6a573d5f803e3d5ffd5b505050506040513d601f19601f82011682018060405250810190611c8e91906135cd565b505b5050509250929050565b604080518082019091525f80825260208201527f000000000000000000000000000000000000000000000000000000000000000073ffffffffffffffffffffffffffffffffffffffff1663ddc28c586040518060a001604052808863ffffffff168152602001611d0989611747565b8152602001878152602001868152602001851515815250306040518363ffffffff1660e01b8152600401611d3e9291906135e8565b6040805180830381865afa158015611d58573d5f803e3d5ffd5b505050506040513d601f19601f82011682018060405250810190611d7c91906136b9565b95945050505050565b73ffffffffffffffffffffffffffffffffffffffff8216611dd4576040517fec442f050000000000000000000000000000000000000000000000000000000081525f6004820152602401610c9a565b610d635f838361232c565b6005805473ffffffffffffffffffffffffffffffffffffffff8381167fffffffffffffffffffffffff0000000000000000000000000000000000000000831681179093556040519116919082907f8be0079c531659141344cd1fd0a4f28419497f9722a3daafe3b4186f6b6457e0905f90a35050565b5f5b8151811015611f2657611e86828281518110611e7557611e75613375565b602002602001015160400151611f56565b818181518110611e9857611e98613375565b60200260200101516040015160085f848481518110611eb957611eb9613375565b60200260200101515f015163ffffffff1663ffffffff1681526020019081526020015f205f848481518110611ef057611ef0613375565b60200260200101516020015161ffff1661ffff1681526020019081526020015f209081611f1d9190613717565b50600101611e57565b507fbe4864a8e820971c0247f5992e2da559595f7bf076a21cb5928d443d2a13b67481604051610f699190613833565b600281015161ffff8116600314610d6357816040517f9a6d49cd000000000000000000000000000000000000000000000000000000008152600401610c9a9190612a3b565b611fa361298c565b604080518082019091525f80825260208201525f80611fd833604089013560608a0135611fd360208c018c612ea6565b612583565b915091505f80611fe88984611b49565b9092509050612014611ffd60208b018b612ea6565b838361200e368d90038d018d6138da565b8b6125a8565b60408051808201909152858152602080820186905282519298509096503391907f85496b760a4b7f8d66384b9df21b381f5d1b1e79f229a47aaf4c232edc2fe59a90612062908d018d612ea6565b6040805163ffffffff909216825260208201899052810187905260600160405180910390a350505050935093915050565b73ffffffffffffffffffffffffffffffffffffffff84166120e2576040517fe602df050000000000000000000000000000000000000000000000000000000081525f6004820152602401610c9a565b73ffffffffffffffffffffffffffffffffffffffff8316612131576040517f94280d620000000000000000000000000000000000000000000000000000000081525f6004820152602401610c9a565b73ffffffffffffffffffffffffffffffffffffffff8085165f90815260016020908152604080832093871683529290522082905580156119f3578273ffffffffffffffffffffffffffffffffffffffff168473ffffffffffffffffffffffffffffffffffffffff167f8c5be1e5ebec7d5bd14f71427d1e84f3dd0314c0f7b2291e5b200ac8c7c3b925846040516121ca91815260200190565b60405180910390a350505050565b5f7f00000000000000000000000000000000000000000000000000000000000000006122048184613937565b610a87919061396f565b5f61221c60208284866132ce565b610d4a91613986565b5f6122346028602084866132ce565b61223d916139c2565b60c01c9392505050565b5f610a877f000000000000000000000000000000000000000000000000000000000000000067ffffffffffffffff841661396f565b5f73ffffffffffffffffffffffffffffffffffffffff841661229e5761dead93505b6122a88484611d85565b509092915050565b60606122bf82602881866132ce565b8080601f0160208091040260200160405190810160405280939291908181526020018383808284375f92019190915250929695505050505050565b6060848484846040516020016123139493929190613a0a565b6040516020818303038152906040529050949350505050565b73ffffffffffffffffffffffffffffffffffffffff8316612363578060025f8282546123589190613a87565b909155506124139050565b73ffffffffffffffffffffffffffffffffffffffff83165f90815260208190526040902054818110156123e8576040517fe450d38c00000000000000000000000000000000000000000000000000000000815273ffffffffffffffffffffffffffffffffffffffff851660048201526024810182905260448101839052606401610c9a565b73ffffffffffffffffffffffffffffffffffffffff84165f9081526020819052604090209082900390555b73ffffffffffffffffffffffffffffffffffffffff821661243c57600280548290039055612467565b73ffffffffffffffffffffffffffffffffffffffff82165f9081526020819052604090208054820190555b8173ffffffffffffffffffffffffffffffffffffffff168373ffffffffffffffffffffffffffffffffffffffff167fddf252ad1be2c89b69c2b068fc378daa952ba7f163c4a11628f55a4df523b3ef8360405161111491815260200190565b5f610a877f000000000000000000000000000000000000000000000000000000000000000083613937565b805160609015158061255257848460405160200161253e92919091825260c01b7fffffffffffffffff00000000000000000000000000000000000000000000000016602082015260280190565b604051602081830303815290604052612579565b848433856040516020016125699493929190613a9a565b6040516020818303038152906040525b9150935093915050565b5f806125908585856116f3565b909250905061259f86836126bb565b94509492505050565b6125b061298c565b5f6125bd845f0151612715565b6020850151909150156125d7576125d78460200151612755565b7f000000000000000000000000000000000000000000000000000000000000000073ffffffffffffffffffffffffffffffffffffffff16632637a450826040518060a001604052808b63ffffffff1681526020016126348c611747565b81526020018a81526020018981526020015f8960200151111515815250866040518463ffffffff1660e01b815260040161266f9291906135e8565b60806040518083038185885af115801561268b573d5f803e3d5ffd5b50505050506040513d601f19601f820116820180604052508101906126b09190613af2565b979650505050505050565b73ffffffffffffffffffffffffffffffffffffffff821661270a576040517f96c6fd1e0000000000000000000000000000000000000000000000000000000081525f6004820152602401610c9a565b610d63825f8361232c565b5f813414612751576040517f9f704120000000000000000000000000000000000000000000000000000000008152346004820152602401610c9a565b5090565b5f7f000000000000000000000000000000000000000000000000000000000000000073ffffffffffffffffffffffffffffffffffffffff1663e4fe1d946040518163ffffffff1660e01b8152600401602060405180830381865afa1580156127bf573d5f803e3d5ffd5b505050506040513d601f19601f820116820180604052508101906127e39190613086565b905073ffffffffffffffffffffffffffffffffffffffff8116612832576040517f5373352a00000000000000000000000000000000000000000000000000000000815260040160405180910390fd5b6040805133602482018190527f000000000000000000000000000000000000000000000000000000000000000073ffffffffffffffffffffffffffffffffffffffff81811660448501526064808501889052855180860390910181526084909401909452602080840180517bffffffffffffffffffffffffffffffffffffffffffffffffffffffff167f23b872dd000000000000000000000000000000000000000000000000000000001781528451610d639688169589936119f39388935f9283929091839182885af18061290c576040513d5f823e3d81fd5b50505f513d9150811561292357806001141561293d565b73ffffffffffffffffffffffffffffffffffffffff84163b155b156119f3576040517f5274afe700000000000000000000000000000000000000000000000000000000815273ffffffffffffffffffffffffffffffffffffffff85166004820152602401610c9a565b60405180606001604052805f80191681526020015f67ffffffffffffffff1681526020016129cb60405180604001604052805f81526020015f81525090565b905290565b5f5b838110156129ea5781810151838201526020016129d2565b50505f910152565b5f8151808452612a098160208601602086016129d0565b601f017fffffffffffffffffffffffffffffffffffffffffffffffffffffffffffffffe0169290920160200192915050565b602081525f610d4a60208301846129f2565b73ffffffffffffffffffffffffffffffffffffffff81168114611047575f80fd5b5f8060408385031215612a7f575f80fd5b8235612a8a81612a4d565b946020939093013593505050565b5f60e08284031215612aa8575f80fd5b50919050565b5f60208284031215612abe575f80fd5b813567ffffffffffffffff811115612ad4575f80fd5b610fa184828501612a98565b83518152602080850151908201525f60a08201604060a0604085015281865180845260c08601915060c08160051b870101935060208089015f5b83811015612b77578887037fffffffffffffffffffffffffffffffffffffffffffffffffffffffffffffff40018552815180518852830151838801879052612b64878901826129f2565b9750509382019390820190600101612b1a565b50508751606088015250505060208501516080850152509050610fa1565b5f60608284031215612aa8575f80fd5b5f8083601f840112612bb5575f80fd5b50813567ffffffffffffffff811115612bcc575f80fd5b602083019150836020828501011115612be3575f80fd5b9250929050565b5f805f805f805f60e0888a031215612c00575f80fd5b612c0a8989612b95565b965060608801359550608088013567ffffffffffffffff80821115612c2d575f80fd5b612c398b838c01612ba5565b909750955060a08a01359150612c4e82612a4d565b90935060c08901359080821115612c63575f80fd5b50612c708a828b01612ba5565b989b979a50959850939692959293505050565b5f805f60608486031215612c95575f80fd5b8335612ca081612a4d565b92506020840135612cb081612a4d565b929592945050506040919091013590565b803563ffffffff81168114612cd4575f80fd5b919050565b5f8060408385031215612cea575f80fd5b612a8a83612cc1565b8015158114611047575f80fd5b5f8060408385031215612d11575f80fd5b823567ffffffffffffffff811115612d27575f80fd5b612d3385828601612a98565b9250506020830135612d4481612cf3565b809150509250929050565b815181526020808301519082015260408101610a87565b803561ffff81168114612cd4575f80fd5b5f8060408385031215612d88575f80fd5b612d9183612cc1565b9150612d9f60208401612d66565b90509250929050565b5f60208284031215612db8575f80fd5b8135610d4a81612a4d565b5f805f8060a08587031215612dd6575f80fd5b612de08686612b95565b9350606085013567ffffffffffffffff811115612dfb575f80fd5b612e0787828801612ba5565b9094509250506080850135612e1b81612a4d565b939692955090935050565b5f8083601f840112612e36575f80fd5b50813567ffffffffffffffff811115612e4d575f80fd5b6020830191508360208260051b8501011115612be3575f80fd5b5f8060208385031215612e78575f80fd5b823567ffffffffffffffff811115612e8e575f80fd5b612e9a85828601612e26565b90969095509350505050565b5f60208284031215612eb6575f80fd5b610d4a82612cc1565b5f805f8060608587031215612ed2575f80fd5b612edb85612cc1565b9350612ee960208601612d66565b9250604085013567ffffffffffffffff811115612f04575f80fd5b612f1087828801612ba5565b95989497509550505050565b5f805f8385036080811215612f2f575f80fd5b843567ffffffffffffffff811115612f45575f80fd5b612f5187828801612a98565b94505060407fffffffffffffffffffffffffffffffffffffffffffffffffffffffffffffffe082011215612f83575f80fd5b506020840191506060840135612f9881612a4d565b809150509250925092565b5f60c0820190508351825267ffffffffffffffff60208501511660208301526040840151612fde604084018280518252602090810151910152565b5082516080830152602083015160a0830152610d4a565b5f8060408385031215613006575f80fd5b823561301181612a4d565b91506020830135612d4481612a4d565b5f60608284031215613031575f80fd5b610d4a8383612b95565b600181811c9082168061304f57607f821691505b602082108103612aa8577f4e487b71000000000000000000000000000000000000000000000000000000005f52602260045260245ffd5b5f60208284031215613096575f80fd5b8151610d4a81612a4d565b5f602082840312156130b1575f80fd5b5051919050565b7f4e487b71000000000000000000000000000000000000000000000000000000005f52604160045260245ffd5b6040516060810167ffffffffffffffff81118282101715613108576131086130b8565b60405290565b6040805190810167ffffffffffffffff81118282101715613108576131086130b8565b604051601f82017fffffffffffffffffffffffffffffffffffffffffffffffffffffffffffffffe016810167ffffffffffffffff81118282101715613178576131786130b8565b604052919050565b5f67ffffffffffffffff821115613199576131996130b8565b50601f017fffffffffffffffffffffffffffffffffffffffffffffffffffffffffffffffe01660200190565b5f67ffffffffffffffff808411156131df576131df6130b8565b8360051b60206131f0818301613131565b868152918501918181019036841115613207575f80fd5b865b848110156132c25780358681111561321f575f80fd5b88016060368290031215613231575f80fd5b6132396130e5565b61324282612cc1565b815261324f868301612d66565b8682015260408083013589811115613265575f80fd5b929092019136601f840112613278575f80fd5b823561328b61328682613180565b613131565b818152368983870101111561329e575f80fd5b818986018a8301375f91810189019190915290820152845250918301918301613209565b50979650505050505050565b5f80858511156132dc575f80fd5b838611156132e8575f80fd5b5050820193919092039150565b5f84516133068184602089016129d0565b8201838582375f930192835250909392505050565b81835281816020850137505f602082840101525f60207fffffffffffffffffffffffffffffffffffffffffffffffffffffffffffffffe0601f840116840101905092915050565b602081525f610fa160208301848661331b565b7f4e487b71000000000000000000000000000000000000000000000000000000005f52603260045260245ffd5b5f82357ffffffffffffffffffffffffffffffffffffffffffffffffffffffffffffffec18336030181126133d4575f80fd5b9190910192915050565b5f8083357fffffffffffffffffffffffffffffffffffffffffffffffffffffffffffffffe1843603018112613411575f80fd5b83018035915067ffffffffffffffff82111561342b575f80fd5b602001915036819003821315612be3575f80fd5b67ffffffffffffffff81168114611047575f80fd5b63ffffffff61346289612cc1565b168152602088013560208201525f604089013561347e8161343f565b67ffffffffffffffff811660408401525087606083015260e060808301526134aa60e08301878961331b565b73ffffffffffffffffffffffffffffffffffffffff861660a084015282810360c08401526134d981858761331b565b9a9950505050505050505050565b5f602082840312156134f7575f80fd5b815167ffffffffffffffff81111561350d575f80fd5b8201601f8101841361351d575f80fd5b805161352b61328682613180565b81815285602083850101111561353f575f80fd5b611d7c8260208301602086016129d0565b5f60208284031215613560575f80fd5b8135610d4a8161343f565b73ffffffffffffffffffffffffffffffffffffffff8516815283602082015261ffff83166040820152608060608201525f610dc160808301846129f2565b604081525f6135bb60408301856129f2565b8281036020840152611d7c81856129f2565b5f602082840312156135dd575f80fd5b8151610d4a81612cf3565b6040815263ffffffff8351166040820152602083015160608201525f604084015160a0608084015261361d60e08401826129f2565b905060608501517fffffffffffffffffffffffffffffffffffffffffffffffffffffffffffffffc08483030160a085015261365882826129f2565b60809690960151151560c085015250505073ffffffffffffffffffffffffffffffffffffffff9190911660209091015290565b5f6040828403121561369b575f80fd5b6136a361310e565b9050815181526020820151602082015292915050565b5f604082840312156136c9575f80fd5b610d4a838361368b565b601f8211156116ee57805f5260205f20601f840160051c810160208510156136f85750805b601f840160051c820191505b8181101561158c575f8155600101613704565b815167ffffffffffffffff811115613731576137316130b8565b6137458161373f845461303b565b846136d3565b602080601f831160018114613797575f84156137615750858301515b7fffffffffffffffffffffffffffffffffffffffffffffffffffffffffffffffff600386901b1c1916600185901b17855561382b565b5f858152602081207fffffffffffffffffffffffffffffffffffffffffffffffffffffffffffffffe08616915b828110156137e3578886015182559484019460019091019084016137c4565b508582101561381f57878501517fffffffffffffffffffffffffffffffffffffffffffffffffffffffffffffffff600388901b60f8161c191681555b505060018460011b0185555b505050505050565b5f60208083018184528085518083526040925060408601915060408160051b8701018488015f5b838110156138cc578883037fffffffffffffffffffffffffffffffffffffffffffffffffffffffffffffffc00185528151805163ffffffff1684528781015161ffff168885015286015160608785018190526138b8818601836129f2565b96890196945050509086019060010161385a565b509098975050505050505050565b5f604082840312156138ea575f80fd5b6138f261310e565b82358152602083013560208201528091505092915050565b7f4e487b71000000000000000000000000000000000000000000000000000000005f52601160045260245ffd5b5f8261396a577f4e487b71000000000000000000000000000000000000000000000000000000005f52601260045260245ffd5b500490565b8082028115828204841417610a8757610a8761390a565b80356020831015610a87577fffffffffffffffffffffffffffffffffffffffffffffffffffffffffffffffff602084900360031b1b1692915050565b7fffffffffffffffff0000000000000000000000000000000000000000000000008135818116916008851015613a025780818660080360031b1b83161692505b505092915050565b7fffffffffffffffff0000000000000000000000000000000000000000000000008560c01b1681527fffffffff000000000000000000000000000000000000000000000000000000008460e01b16600882015282600c8201525f8251613a7781602c8501602087016129d0565b91909101602c0195945050505050565b80820180821115610a8757610a8761390a565b8481527fffffffffffffffff0000000000000000000000000000000000000000000000008460c01b1660208201528260288201525f8251613ae28160488501602087016129d0565b9190910160480195945050505050565b5f60808284031215613b02575f80fd5b613b0a6130e5565b825181526020830151613b1c8161343f565b6020820152613b2e846040850161368b565b6040820152939250505056fea264697066735822122020c69298d220c4d3c35e69b062cc2ca87785cc94bdbe52c0db9f730742896bb664736f6c63430008160033","linkReferences":{}},"methodIdentifiers":{"SEND()":"1f5e1334","SEND_AND_CALL()":"134d4f25","allowInitializePath((uint32,bytes32,uint64))":"ff7bd03d","allowance(address,address)":"dd62ed3e","approvalRequired()":"9f68b964","approve(address,uint256)":"095ea7b3","approveCaller(address)":"8affa087","approvedCallers(address)":"a71975af","balanceOf(address)":"70a08231","combineOptions(uint32,uint16,bytes)":"bc70b354","decimalConversionRate()":"963efcaa","decimals()":"313ce567","endpoint()":"5e280f11","enforcedOptions(uint32,uint16)":"5535d461","hopTransferToHyperLiquidL1(address,address,uint256)":"b034fd07","implementsHopTransferFunctionality()":"67ddeba9","isComposeMsgSender((uint32,bytes32,uint64),bytes,address)":"82413eac","isPeer(uint32,bytes32)":"5a0dfe4d","lzReceive((uint32,bytes32,uint64),bytes32,bytes,address,bytes)":"13137d65","lzReceiveAndRevert(((uint32,bytes32,uint64),uint32,address,bytes32,uint256,address,bytes,bytes)[])":"bd815db0","lzReceiveSimulate((uint32,bytes32,uint64),bytes32,bytes,address,bytes)":"d045a0dc","mint(address,uint256)":"40c10f19","msgInspector()":"111ecdad","name()":"06fdde03","nextNonce(uint32,bytes32)":"7d25a05e","oApp()":"52ae2879","oAppVersion()":"17442b70","oftVersion()":"156a0d0f","owner()":"8da5cb5b","peers(uint32)":"bb0b6a53","preCrime()":"b731ea0a","quoteOFT((uint32,bytes32,uint256,uint256,bytes,bytes,bytes))":"0d35b415","quoteSend((uint32,bytes32,uint256,uint256,bytes,bytes,bytes),bool)":"3b6f743b","removeApprovedCaller(address)":"5bf77a5a","renounceOwnership()":"715018a6","send((uint32,bytes32,uint256,uint256,bytes,bytes,bytes),(uint256,uint256),address)":"c7c7f5b3","setDelegate(address)":"ca5eb5e1","setEnforcedOptions((uint32,uint16,bytes)[])":"b98bd070","setMsgInspector(address)":"6fc1b31e","setPeer(uint32,bytes32)":"3400288b","setPreCrime(address)":"d4243885","sharedDecimals()":"857749b0","symbol()":"95d89b41","token()":"fc0c546a","totalSupply()":"18160ddd","transfer(address,uint256)":"a9059cbb","transferDelegateOwner(address)":"9fab7d99","transferFrom(address,address,uint256)":"23b872dd","transferOwnership(address)":"f2fde38b"},"id":5}