{"abi":[{"type":"constructor","inputs":[{"name":"_endpoint","type":"address","internalType":"address"},{"name":"_delegate","type":"address","internalType":"address"}],"stateMutability":"nonpayable"},{"type":"function","name":"allowInitializePath","inputs":[{"name":"origin","type":"tuple","internalType":"struct Origin","components":[{"name":"srcEid","type":"uint32","internalType":"uint32"},{"name":"sender","type":"bytes32","internalType":"bytes32"},{"name":"nonce","type":"uint64","internalType":"uint64"}]}],"outputs":[{"name":"","type":"bool","internalType":"bool"}],"stateMutability":"view"},{"type":"function","name":"combineOptions","inputs":[{"name":"_eid","type":"uint32","internalType":"uint32"},{"name":"_msgType","type":"uint16","internalType":"uint16"},{"name":"_extraOptions","type":"bytes","internalType":"bytes"}],"outputs":[{"name":"","type":"bytes","internalType":"bytes"}],"stateMutability":"view"},{"type":"function","name":"decimalConversionRate","inputs":[],"outputs":[{"name":"","type":"uint256","internalType":"uint256"}],"stateMutability":"view"},{"type":"function","name":"endpoint","inputs":[],"outputs":[{"name":"","type":"address","internalType":"contract ILayerZeroEndpointV2"}],"stateMutability":"view"},{"type":"function","name":"enforcedOptions","inputs":[{"name":"eid","type":"uint32","internalType":"uint32"},{"name":"msgType","type":"uint16","internalType":"uint16"}],"outputs":[{"name":"enforcedOption","type":"bytes","internalType":"bytes"}],"stateMutability":"view"},{"type":"function","name":"hyperEvmOFT","inputs":[],"outputs":[{"name":"","type":"address","internalType":"address"}],"stateMutability":"view"},{"type":"function","name":"isComposeMsgSender","inputs":[{"name":"","type":"tuple","internalType":"struct Origin","components":[{"name":"srcEid","type":"uint32","internalType":"uint32"},{"name":"sender","type":"bytes32","internalType":"bytes32"},{"name":"nonce","type":"uint64","internalType":"uint64"}]},{"name":"","type":"bytes","internalType":"bytes"},{"name":"_sender","type":"address","internalType":"address"}],"outputs":[{"name":"","type":"bool","internalType":"bool"}],"stateMutability":"view"},{"type":"function","name":"lzReceive","inputs":[{"name":"_origin","type":"tuple","internalType":"struct Origin","components":[{"name":"srcEid","type":"uint32","internalType":"uint32"},{"name":"sender","type":"bytes32","internalType":"bytes32"},{"name":"nonce","type":"uint64","internalType":"uint64"}]},{"name":"_guid","type":"bytes32","internalType":"bytes32"},{"name":"_message","type":"bytes","internalType":"bytes"},{"name":"_executor","type":"address","internalType":"address"},{"name":"_extraData","type":"bytes","internalType":"bytes"}],"outputs":[],"stateMutability":"payable"},{"type":"function","name":"nextNonce","inputs":[{"name":"","type":"uint32","internalType":"uint32"},{"name":"","type":"bytes32","internalType":"bytes32"}],"outputs":[{"name":"nonce","type":"uint64","internalType":"uint64"}],"stateMutability":"view"},{"type":"function","name":"oAppVersion","inputs":[],"outputs":[{"name":"senderVersion","type":"uint64","internalType":"uint64"},{"name":"receiverVersion","type":"uint64","internalType":"uint64"}],"stateMutability":"pure"},{"type":"function","name":"owner","inputs":[],"outputs":[{"name":"","type":"address","internalType":"address"}],"stateMutability":"view"},{"type":"function","name":"peers","inputs":[{"name":"eid","type":"uint32","internalType":"uint32"}],"outputs":[{"name":"peer","type":"bytes32","internalType":"bytes32"}],"stateMutability":"view"},{"type":"function","name":"quote","inputs":[{"name":"_dstEid","type":"uint32","internalType":"uint32"},{"name":"_message","type":"string","internalType":"string"},{"name":"_options","type":"bytes","internalType":"bytes"},{"name":"_payInLzToken","type":"bool","internalType":"bool"}],"outputs":[{"name":"fee","type":"tuple","internalType":"struct MessagingFee","components":[{"name":"nativeFee","type":"uint256","internalType":"uint256"},{"name":"lzTokenFee","type":"uint256","internalType":"uint256"}]}],"stateMutability":"view"},{"type":"function","name":"renounceOwnership","inputs":[],"outputs":[],"stateMutability":"nonpayable"},{"type":"function","name":"send","inputs":[{"name":"_dstEid","type":"uint32","internalType":"uint32"},{"name":"_message","type":"string","internalType":"string"},{"name":"_options","type":"bytes","internalType":"bytes"}],"outputs":[{"name":"receipt","type":"tuple","internalType":"struct MessagingReceipt","components":[{"name":"guid","type":"bytes32","internalType":"bytes32"},{"name":"nonce","type":"uint64","internalType":"uint64"},{"name":"fee","type":"tuple","internalType":"struct MessagingFee","components":[{"name":"nativeFee","type":"uint256","internalType":"uint256"},{"name":"lzTokenFee","type":"uint256","internalType":"uint256"}]}]}],"stateMutability":"payable"},{"type":"function","name":"setDelegate","inputs":[{"name":"_delegate","type":"address","internalType":"address"}],"outputs":[],"stateMutability":"nonpayable"},{"type":"function","name":"setEnforcedOptions","inputs":[{"name":"_enforcedOptions","type":"tuple[]","internalType":"struct EnforcedOptionParam[]","components":[{"name":"eid","type":"uint32","internalType":"uint32"},{"name":"msgType","type":"uint16","internalType":"uint16"},{"name":"options","type":"bytes","internalType":"bytes"}]}],"outputs":[],"stateMutability":"nonpayable"},{"type":"function","name":"setPeer","inputs":[{"name":"_eid","type":"uint32","internalType":"uint32"},{"name":"_peer","type":"bytes32","internalType":"bytes32"}],"outputs":[],"stateMutability":"nonpayable"},{"type":"function","name":"transferOwnership","inputs":[{"name":"newOwner","type":"address","internalType":"address"}],"outputs":[],"stateMutability":"nonpayable"},{"type":"event","name":"EnforcedOptionSet","inputs":[{"name":"_enforcedOptions","type":"tuple[]","indexed":false,"internalType":"struct EnforcedOptionParam[]","components":[{"name":"eid","type":"uint32","internalType":"uint32"},{"name":"msgType","type":"uint16","internalType":"uint16"},{"name":"options","type":"bytes","internalType":"bytes"}]}],"anonymous":false},{"type":"event","name":"OFTReceived","inputs":[{"name":"guid","type":"bytes32","indexed":true,"internalType":"bytes32"},{"name":"srcEid","type":"uint32","indexed":false,"internalType":"uint32"},{"name":"toAddress","type":"address","indexed":false,"internalType":"address"},{"name":"amountReceivedLD","type":"uint256","indexed":false,"internalType":"uint256"}],"anonymous":false},{"type":"event","name":"OwnershipTransferred","inputs":[{"name":"previousOwner","type":"address","indexed":true,"internalType":"address"},{"name":"newOwner","type":"address","indexed":true,"internalType":"address"}],"anonymous":false},{"type":"event","name":"PeerSet","inputs":[{"name":"eid","type":"uint32","indexed":false,"internalType":"uint32"},{"name":"peer","type":"bytes32","indexed":false,"internalType":"bytes32"}],"anonymous":false},{"type":"error","name":"InvalidDelegate","inputs":[]},{"type":"error","name":"InvalidEndpointCall","inputs":[]},{"type":"error","name":"InvalidOptions","inputs":[{"name":"options","type":"bytes","internalType":"bytes"}]},{"type":"error","name":"LzTokenUnavailable","inputs":[]},{"type":"error","name":"NoPeer","inputs":[{"name":"eid","type":"uint32","internalType":"uint32"}]},{"type":"error","name":"NotEnoughNative","inputs":[{"name":"msgValue","type":"uint256","internalType":"uint256"}]},{"type":"error","name":"OnlyEndpoint","inputs":[{"name":"addr","type":"address","internalType":"address"}]},{"type":"error","name":"OnlyPeer","inputs":[{"name":"eid","type":"uint32","internalType":"uint32"},{"name":"sender","type":"bytes32","internalType":"bytes32"}]},{"type":"error","name":"OwnableInvalidOwner","inputs":[{"name":"owner","type":"address","internalType":"address"}]},{"type":"error","name":"OwnableUnauthorizedAccount","inputs":[{"name":"account","type":"address","internalType":"address"}]},{"type":"error","name":"SafeERC20FailedOperation","inputs":[{"name":"token","type":"address","internalType":"address"}]}],"bytecode":{"object":"0x60a060405234801562000010575f80fd5b50604051620023a5380380620023a5833981016040819052620000339162000173565b81818181806001600160a01b0381166200006657604051631e4fbdf760e01b81525f600482015260240160405180910390fd5b620000718162000108565b506001600160a01b038083166080528116620000a057604051632d618d8160e21b815260040160405180910390fd5b60805160405163ca5eb5e160e01b81526001600160a01b0383811660048301529091169063ca5eb5e1906024015f604051808303815f87803b158015620000e5575f80fd5b505af1158015620000f8573d5f803e3d5ffd5b50505050505050505050620001a9565b5f80546001600160a01b038381166001600160a01b0319831681178455604051919092169283917f8be0079c531659141344cd1fd0a4f28419497f9722a3daafe3b4186f6b6457e09190a35050565b80516001600160a01b03811681146200016e575f80fd5b919050565b5f806040838503121562000185575f80fd5b620001908362000157565b9150620001a06020840162000157565b90509250929050565b6080516121b2620001f35f395f8181610224015281816104240152818161083701528181610b9c01528181610f160152818161100d015281816111fc01526112e401526121b25ff3fe60806040526004361061013d575f3560e01c80638da5cb5b116100bb578063ca5eb5e111610071578063f2fde38b11610057578063f2fde38b146103b8578063f77e5dd3146103d7578063ff7bd03d14610403575f80fd5b8063ca5eb5e114610379578063e0539e5814610398575f80fd5b8063b98bd070116100a1578063b98bd07014610310578063bb0b6a531461032f578063bc70b3541461035a575f80fd5b80638da5cb5b146102c1578063963efcaa146102ea575f80fd5b80635535d46111610110578063715018a6116100f6578063715018a6146102465780637d25a05e1461025a57806382413eac14610292575f80fd5b80635535d461146101e75780635e280f1114610213575f80fd5b806313137d651461014157806317442b70146101565780633400288b1461017c57806351f27c7f1461019b575b5f80fd5b61015461014f3660046114fb565b610422565b005b348015610161575f80fd5b50604080516001815260026020820152015b60405180910390f35b348015610187575f80fd5b506101546101963660046115ac565b610521565b3480156101a6575f80fd5b506101c273ad543c6af375b1001e3b08202b1eb3e6e608a42f81565b60405173ffffffffffffffffffffffffffffffffffffffff9091168152602001610173565b3480156101f2575f80fd5b506102066102013660046115e5565b610537565b6040516101739190611681565b34801561021e575f80fd5b506101c27f000000000000000000000000000000000000000000000000000000000000000081565b348015610251575f80fd5b506101546105d9565b348015610265575f80fd5b506102796102743660046115ac565b6105ec565b60405167ffffffffffffffff9091168152602001610173565b34801561029d575f80fd5b506102b16102ac366004611693565b6105f4565b6040519015158152602001610173565b3480156102cc575f80fd5b505f5473ffffffffffffffffffffffffffffffffffffffff166101c2565b3480156102f5575f80fd5b5061030264e8d4a5100081565b604051908152602001610173565b34801561031b575f80fd5b5061015461032a3660046116f6565b610616565b34801561033a575f80fd5b50610302610349366004611765565b60016020525f908152604090205481565b348015610365575f80fd5b5061020661037436600461177e565b610630565b348015610384575f80fd5b506101546103933660046117db565b6107ea565b6103ab6103a6366004611925565b610891565b604051610173919061198b565b3480156103c3575f80fd5b506101546103d23660046117db565b610936565b3480156103e2575f80fd5b506103f66103f13660046119cd565b610999565b6040516101739190611a48565b34801561040e575f80fd5b506102b161041d366004611a5f565b6109db565b7f000000000000000000000000000000000000000000000000000000000000000073ffffffffffffffffffffffffffffffffffffffff163314610498576040517f91ac5e4f0000000000000000000000000000000000000000000000000000000081523360048201526024015b60405180910390fd5b602087018035906104b2906104ad908a611765565b610a0f565b14610509576104c46020880188611765565b6040517fc26bebcc00000000000000000000000000000000000000000000000000000000815263ffffffff90911660048201526020880135602482015260440161048f565b61051887878787878787610a63565b50505050505050565b610529610c7a565b6105338282610ccc565b5050565b600260209081525f92835260408084209091529082529020805461055a90611a79565b80601f016020809104026020016040519081016040528092919081815260200182805461058690611a79565b80156105d15780601f106105a8576101008083540402835291602001916105d1565b820191905f5260205f20905b8154815290600101906020018083116105b457829003601f168201915b505050505081565b6105e1610c7a565b6105ea5f610d20565b565b5f5b92915050565b73ffffffffffffffffffffffffffffffffffffffff811630145b949350505050565b61061e610c7a565b61053361062b8284611ac4565b610d94565b63ffffffff84165f90815260026020908152604080832061ffff8716845290915281208054606092919061066390611a79565b80601f016020809104026020016040519081016040528092919081815260200182805461068f90611a79565b80156106da5780601f106106b1576101008083540402835291602001916106da565b820191905f5260205f20905b8154815290600101906020018083116106bd57829003601f168201915b5050505050905080515f036107285783838080601f0160208091040260200160405190810160405280939291908181526020018383808284375f9201919091525092945061060e9350505050565b5f83900361073757905061060e565b600283106107b45761077d84848080601f0160208091040260200160405190810160405280939291908181526020018383808284375f92019190915250610ea092505050565b8061078b8460028188611b92565b60405160200161079d93929190611bb9565b60405160208183030381529060405291505061060e565b83836040517f9a6d49cd00000000000000000000000000000000000000000000000000000000815260040161048f929190611bdf565b6107f2610c7a565b6040517fca5eb5e100000000000000000000000000000000000000000000000000000000815273ffffffffffffffffffffffffffffffffffffffff82811660048301527f0000000000000000000000000000000000000000000000000000000000000000169063ca5eb5e1906024015f604051808303815f87803b158015610878575f80fd5b505af115801561088a573d5f803e3d5ffd5b5050505050565b61089961143b565b5f846040516020016108ab9190611681565b604080517fffffffffffffffffffffffffffffffffffffffffffffffffffffffffffffffe08184030181526020601f8701819004810284018101909252858352925061092c91889184919088908890819084018382808284375f9201829052506040805180820190915234815260208101919091529250339150610ee59050565b9695505050505050565b61093e610c7a565b73ffffffffffffffffffffffffffffffffffffffff811661098d576040517f1e4fbdf70000000000000000000000000000000000000000000000000000000081525f600482015260240161048f565b61099681610d20565b50565b604080518082019091525f80825260208201525f846040516020016109be9190611681565b604051602081830303815290604052905061092c86828686610ff8565b5f6020820180359060019083906109f29086611765565b63ffffffff16815260208101919091526040015f20541492915050565b63ffffffff81165f90815260016020526040812054806105ee576040517ff6ff4fb700000000000000000000000000000000000000000000000000000000815263ffffffff8416600482015260240161048f565b5f610a74610a7187876110e3565b90565b90505f610a89610a848888611101565b611123565b6040517f40c10f1900000000000000000000000000000000000000000000000000000000815273ffffffffffffffffffffffffffffffffffffffff841660048201526024810182905290915073ad543c6af375b1001e3b08202b1eb3e6e608a42f906340c10f19906044015f604051808303815f87803b158015610b0b575f80fd5b505af1158015610b1d573d5f803e3d5ffd5b50505060288711905015610c06575f610b5c610b3f60608c0160408d01611c40565b610b4c60208d018d611765565b84610b578c8c61113d565b611187565b6040517f7cb5901200000000000000000000000000000000000000000000000000000000815290915073ffffffffffffffffffffffffffffffffffffffff7f00000000000000000000000000000000000000000000000000000000000000001690637cb5901290610bd79086908d905f908790600401611c5b565b5f604051808303815f87803b158015610bee575f80fd5b505af1158015610c00573d5f803e3d5ffd5b50505050505b877fefed6d3500546b29533b128a29e3a94d70788727f0507505ac12eaf2e578fd9c610c3560208c018c611765565b6040805163ffffffff909216825273ffffffffffffffffffffffffffffffffffffffff86166020830152810184905260600160405180910390a2505050505050505050565b5f5473ffffffffffffffffffffffffffffffffffffffff1633146105ea576040517f118cdaa700000000000000000000000000000000000000000000000000000000815233600482015260240161048f565b63ffffffff82165f81815260016020908152604091829020849055815192835282018390527f238399d427b947898edb290f5ff0f9109849b1c3ba196a42e35f00c50a54b98b910160405180910390a15050565b5f805473ffffffffffffffffffffffffffffffffffffffff8381167fffffffffffffffffffffffff0000000000000000000000000000000000000000831681178455604051919092169283917f8be0079c531659141344cd1fd0a4f28419497f9722a3daafe3b4186f6b6457e09190a35050565b5f5b8151811015610e6557610dc5828281518110610db457610db4611c99565b602002602001015160400151610ea0565b818181518110610dd757610dd7611c99565b60200260200101516040015160025f848481518110610df857610df8611c99565b60200260200101515f015163ffffffff1663ffffffff1681526020019081526020015f205f848481518110610e2f57610e2f611c99565b60200260200101516020015161ffff1661ffff1681526020019081526020015f209081610e5c9190611d0f565b50600101610d96565b507fbe4864a8e820971c0247f5992e2da559595f7bf076a21cb5928d443d2a13b67481604051610e959190611e2b565b60405180910390a150565b600281015161ffff811660031461053357816040517f9a6d49cd00000000000000000000000000000000000000000000000000000000815260040161048f9190611681565b610eed61143b565b5f610efa845f01516111b9565b602085015190915015610f1457610f1484602001516111f9565b7f000000000000000000000000000000000000000000000000000000000000000073ffffffffffffffffffffffffffffffffffffffff16632637a450826040518060a001604052808b63ffffffff168152602001610f718c610a0f565b81526020018a81526020018981526020015f8960200151111515815250866040518463ffffffff1660e01b8152600401610fac929190611ed2565b60806040518083038185885af1158015610fc8573d5f803e3d5ffd5b50505050506040513d601f19601f82011682018060405250810190610fed9190611fc2565b979650505050505050565b604080518082019091525f80825260208201527f000000000000000000000000000000000000000000000000000000000000000073ffffffffffffffffffffffffffffffffffffffff1663ddc28c586040518060a001604052808863ffffffff16815260200161106789610a0f565b8152602001878152602001868152602001851515815250306040518363ffffffff1660e01b815260040161109c929190611ed2565b6040805180830381865afa1580156110b6573d5f803e3d5ffd5b505050506040513d601f19601f820116820180604052508101906110da919061200a565b95945050505050565b5f6110f16020828486611b92565b6110fa91612024565b9392505050565b5f611110602860208486611b92565b61111991612060565b60c01c9392505050565b5f6105ee64e8d4a5100067ffffffffffffffff84166120a8565b606061114c8260288186611b92565b8080601f0160208091040260200160405190810160405280939291908181526020018383808284375f92019190915250929695505050505050565b6060848484846040516020016111a094939291906120e4565b6040516020818303038152906040529050949350505050565b5f8134146111f5576040517f9f70412000000000000000000000000000000000000000000000000000000000815234600482015260240161048f565b5090565b5f7f000000000000000000000000000000000000000000000000000000000000000073ffffffffffffffffffffffffffffffffffffffff1663e4fe1d946040518163ffffffff1660e01b8152600401602060405180830381865afa158015611263573d5f803e3d5ffd5b505050506040513d601f19601f820116820180604052508101906112879190612161565b905073ffffffffffffffffffffffffffffffffffffffff81166112d6576040517f5373352a00000000000000000000000000000000000000000000000000000000815260040160405180910390fd5b6040805133602482018190527f000000000000000000000000000000000000000000000000000000000000000073ffffffffffffffffffffffffffffffffffffffff818116604485015260648085018890528551808603909101815260849094019094526020830180517bffffffffffffffffffffffffffffffffffffffffffffffffffffffff167f23b872dd0000000000000000000000000000000000000000000000000000000017905261053393851692869061139690859061139c565b50505050565b5f8060205f8451602086015f885af1806113bb576040513d5f823e3d81fd5b50505f513d915081156113d25780600114156113ec565b73ffffffffffffffffffffffffffffffffffffffff84163b155b15611396576040517f5274afe700000000000000000000000000000000000000000000000000000000815273ffffffffffffffffffffffffffffffffffffffff8516600482015260240161048f565b60405180606001604052805f80191681526020015f67ffffffffffffffff16815260200161147a60405180604001604052805f81526020015f81525090565b905290565b5f6060828403121561148f575f80fd5b50919050565b5f8083601f8401126114a5575f80fd5b50813567ffffffffffffffff8111156114bc575f80fd5b6020830191508360208285010111156114d3575f80fd5b9250929050565b73ffffffffffffffffffffffffffffffffffffffff81168114610996575f80fd5b5f805f805f805f60e0888a031215611511575f80fd5b61151b898961147f565b965060608801359550608088013567ffffffffffffffff8082111561153e575f80fd5b61154a8b838c01611495565b909750955060a08a0135915061155f826114da565b90935060c08901359080821115611574575f80fd5b506115818a828b01611495565b989b979a50959850939692959293505050565b803563ffffffff811681146115a7575f80fd5b919050565b5f80604083850312156115bd575f80fd5b6115c683611594565b946020939093013593505050565b803561ffff811681146115a7575f80fd5b5f80604083850312156115f6575f80fd5b6115ff83611594565b915061160d602084016115d4565b90509250929050565b5f5b83811015611630578181015183820152602001611618565b50505f910152565b5f815180845261164f816020860160208601611616565b601f017fffffffffffffffffffffffffffffffffffffffffffffffffffffffffffffffe0169290920160200192915050565b602081525f6110fa6020830184611638565b5f805f8060a085870312156116a6575f80fd5b6116b0868661147f565b9350606085013567ffffffffffffffff8111156116cb575f80fd5b6116d787828801611495565b90945092505060808501356116eb816114da565b939692955090935050565b5f8060208385031215611707575f80fd5b823567ffffffffffffffff8082111561171e575f80fd5b818501915085601f830112611731575f80fd5b81358181111561173f575f80fd5b8660208260051b8501011115611753575f80fd5b60209290920196919550909350505050565b5f60208284031215611775575f80fd5b6110fa82611594565b5f805f8060608587031215611791575f80fd5b61179a85611594565b93506117a8602086016115d4565b9250604085013567ffffffffffffffff8111156117c3575f80fd5b6117cf87828801611495565b95989497509550505050565b5f602082840312156117eb575f80fd5b81356110fa816114da565b7f4e487b71000000000000000000000000000000000000000000000000000000005f52604160045260245ffd5b6040516060810167ffffffffffffffff81118282101715611846576118466117f6565b60405290565b604051601f82017fffffffffffffffffffffffffffffffffffffffffffffffffffffffffffffffe016810167ffffffffffffffff81118282101715611893576118936117f6565b604052919050565b5f82601f8301126118aa575f80fd5b813567ffffffffffffffff8111156118c4576118c46117f6565b6118f560207fffffffffffffffffffffffffffffffffffffffffffffffffffffffffffffffe0601f8401160161184c565b818152846020838601011115611909575f80fd5b816020850160208301375f918101602001919091529392505050565b5f805f8060608587031215611938575f80fd5b61194185611594565b9350602085013567ffffffffffffffff8082111561195d575f80fd5b6119698883890161189b565b9450604087013591508082111561197e575f80fd5b506117cf87828801611495565b5f6080820190508251825267ffffffffffffffff602084015116602083015260408301516119c6604084018280518252602090810151910152565b5092915050565b5f805f80608085870312156119e0575f80fd5b6119e985611594565b9350602085013567ffffffffffffffff80821115611a05575f80fd5b611a118883890161189b565b94506040870135915080821115611a26575f80fd5b50611a338782880161189b565b925050606085013580151581146116eb575f80fd5b8151815260208083015190820152604081016105ee565b5f60608284031215611a6f575f80fd5b6110fa838361147f565b600181811c90821680611a8d57607f821691505b60208210810361148f577f4e487b71000000000000000000000000000000000000000000000000000000005f52602260045260245ffd5b5f67ffffffffffffffff80841115611ade57611ade6117f6565b8360051b6020611aef81830161184c565b868152918501918181019036841115611b06575f80fd5b865b84811015611b8657803586811115611b1e575f80fd5b88016060368290031215611b30575f80fd5b611b38611823565b611b4182611594565b8152611b4e8683016115d4565b8682015260408083013589811115611b64575f80fd5b611b703682860161189b565b9183019190915250845250918301918301611b08565b50979650505050505050565b5f8085851115611ba0575f80fd5b83861115611bac575f80fd5b5050820193919092039150565b5f8451611bca818460208901611616565b8201838582375f930192835250909392505050565b60208152816020820152818360408301375f818301604090810191909152601f9092017fffffffffffffffffffffffffffffffffffffffffffffffffffffffffffffffe0160101919050565b67ffffffffffffffff81168114610996575f80fd5b5f60208284031215611c50575f80fd5b81356110fa81611c2b565b73ffffffffffffffffffffffffffffffffffffffff8516815283602082015261ffff83166040820152608060608201525f61092c6080830184611638565b7f4e487b71000000000000000000000000000000000000000000000000000000005f52603260045260245ffd5b601f821115611d0a57805f5260205f20601f840160051c81016020851015611ceb5750805b601f840160051c820191505b8181101561088a575f8155600101611cf7565b505050565b815167ffffffffffffffff811115611d2957611d296117f6565b611d3d81611d378454611a79565b84611cc6565b602080601f831160018114611d8f575f8415611d595750858301515b7fffffffffffffffffffffffffffffffffffffffffffffffffffffffffffffffff600386901b1c1916600185901b178555611e23565b5f858152602081207fffffffffffffffffffffffffffffffffffffffffffffffffffffffffffffffe08616915b82811015611ddb57888601518255948401946001909101908401611dbc565b5085821015611e1757878501517fffffffffffffffffffffffffffffffffffffffffffffffffffffffffffffffff600388901b60f8161c191681555b505060018460011b0185555b505050505050565b5f60208083018184528085518083526040925060408601915060408160051b8701018488015f5b83811015611ec4578883037fffffffffffffffffffffffffffffffffffffffffffffffffffffffffffffffc00185528151805163ffffffff1684528781015161ffff16888501528601516060878501819052611eb081860183611638565b968901969450505090860190600101611e52565b509098975050505050505050565b6040815263ffffffff8351166040820152602083015160608201525f604084015160a06080840152611f0760e0840182611638565b905060608501517fffffffffffffffffffffffffffffffffffffffffffffffffffffffffffffffc08483030160a0850152611f428282611638565b60809690960151151560c085015250505073ffffffffffffffffffffffffffffffffffffffff9190911660209091015290565b5f60408284031215611f85575f80fd5b6040516040810181811067ffffffffffffffff82111715611fa857611fa86117f6565b604052825181526020928301519281019290925250919050565b5f60808284031215611fd2575f80fd5b611fda611823565b825181526020830151611fec81611c2b565b6020820152611ffe8460408501611f75565b60408201529392505050565b5f6040828403121561201a575f80fd5b6110fa8383611f75565b803560208310156105ee577fffffffffffffffffffffffffffffffffffffffffffffffffffffffffffffffff602084900360031b1b1692915050565b7fffffffffffffffff00000000000000000000000000000000000000000000000081358181169160088510156120a05780818660080360031b1b83161692505b505092915050565b80820281158282048414176105ee577f4e487b71000000000000000000000000000000000000000000000000000000005f52601160045260245ffd5b7fffffffffffffffff0000000000000000000000000000000000000000000000008560c01b1681527fffffffff000000000000000000000000000000000000000000000000000000008460e01b16600882015282600c8201525f825161215181602c850160208701611616565b91909101602c0195945050505050565b5f60208284031215612171575f80fd5b81516110fa816114da56fea2646970667358221220b1e6fb862f562b4c0c06ad807660aa6ef42d9733bbb932ab62a6f364d2e68a3464736f6c63430008160033","linkReferences":{}},"methodIdentifiers":{"allowInitializePath((uint32,bytes32,uint64))":"ff7bd03d","combineOptions(uint32,uint16,bytes)":"bc70b354","decimalConversionRate()":"963efcaa","endpoint()":"5e280f11","enforcedOptions(uint32,uint16)":"5535d461","hyperEvmOFT()":"51f27c7f","isComposeMsgSender((uint32,bytes32,uint64),bytes,address)":"82413eac","lzReceive((uint32,bytes32,uint64),bytes32,bytes,address,bytes)":"13137d65","nextNonce(uint32,bytes32)":"7d25a05e","oAppVersion()":"17442b70","owner()":"8da5cb5b","peers(uint32)":"bb0b6a53","quote(uint32,string,bytes,bool)":"f77e5dd3","renounceOwnership()":"715018a6","send(uint32,string,bytes)":"e0539e58","setDelegate(address)":"ca5eb5e1","setEnforcedOptions((uint32,uint16,bytes)[])":"b98bd070","setPeer(uint32,bytes32)":"3400288b","transferOwnership(address)":"f2fde38b"},"id":4}