{"abi":[{"type":"constructor","inputs":[{"name":"_token","type":"address","internalType":"address"},{"name":"_lzEndpoint","type":"address","internalType":"address"},{"name":"_delegate","type":"address","internalType":"address"}],"stateMutability":"nonpayable"},{"type":"function","name":"SEND","inputs":[],"outputs":[{"name":"","type":"uint16","internalType":"uint16"}],"stateMutability":"view"},{"type":"function","name":"SEND_AND_COMPOSE","inputs":[],"outputs":[{"name":"","type":"uint16","internalType":"uint16"}],"stateMutability":"view"},{"type":"function","name":"allowInitializePath","inputs":[{"name":"origin","type":"tuple","internalType":"struct Origin","components":[{"name":"srcEid","type":"uint32","internalType":"uint32"},{"name":"sender","type":"bytes32","internalType":"bytes32"},{"name":"nonce","type":"uint64","internalType":"uint64"}]}],"outputs":[{"name":"","type":"bool","internalType":"bool"}],"stateMutability":"view"},{"type":"function","name":"approvalRequired","inputs":[],"outputs":[{"name":"","type":"bool","internalType":"bool"}],"stateMutability":"pure"},{"type":"function","name":"combineOptions","inputs":[{"name":"_eid","type":"uint32","internalType":"uint32"},{"name":"_msgType","type":"uint16","internalType":"uint16"},{"name":"_extraOptions","type":"bytes","internalType":"bytes"}],"outputs":[{"name":"","type":"bytes","internalType":"bytes"}],"stateMutability":"view"},{"type":"function","name":"credit","inputs":[{"name":"_to","type":"address","internalType":"address"},{"name":"_tokenId","type":"uint256","internalType":"uint256"},{"name":"_srcEid","type":"uint32","internalType":"uint32"}],"outputs":[],"stateMutability":"nonpayable"},{"type":"function","name":"debit","inputs":[{"name":"_tokenId","type":"uint256","internalType":"uint256"},{"name":"_dstEid","type":"uint32","internalType":"uint32"}],"outputs":[],"stateMutability":"nonpayable"},{"type":"function","name":"endpoint","inputs":[],"outputs":[{"name":"","type":"address","internalType":"contract ILayerZeroEndpointV2"}],"stateMutability":"view"},{"type":"function","name":"enforcedOptions","inputs":[{"name":"eid","type":"uint32","internalType":"uint32"},{"name":"msgType","type":"uint16","internalType":"uint16"}],"outputs":[{"name":"enforcedOption","type":"bytes","internalType":"bytes"}],"stateMutability":"view"},{"type":"function","name":"isComposeMsgSender","inputs":[{"name":"","type":"tuple","internalType":"struct Origin","components":[{"name":"srcEid","type":"uint32","internalType":"uint32"},{"name":"sender","type":"bytes32","internalType":"bytes32"},{"name":"nonce","type":"uint64","internalType":"uint64"}]},{"name":"","type":"bytes","internalType":"bytes"},{"name":"_sender","type":"address","internalType":"address"}],"outputs":[{"name":"","type":"bool","internalType":"bool"}],"stateMutability":"view"},{"type":"function","name":"isPeer","inputs":[{"name":"_eid","type":"uint32","internalType":"uint32"},{"name":"_peer","type":"bytes32","internalType":"bytes32"}],"outputs":[{"name":"","type":"bool","internalType":"bool"}],"stateMutability":"view"},{"type":"function","name":"lzReceive","inputs":[{"name":"_origin","type":"tuple","internalType":"struct Origin","components":[{"name":"srcEid","type":"uint32","internalType":"uint32"},{"name":"sender","type":"bytes32","internalType":"bytes32"},{"name":"nonce","type":"uint64","internalType":"uint64"}]},{"name":"_guid","type":"bytes32","internalType":"bytes32"},{"name":"_message","type":"bytes","internalType":"bytes"},{"name":"_executor","type":"address","internalType":"address"},{"name":"_extraData","type":"bytes","internalType":"bytes"}],"outputs":[],"stateMutability":"payable"},{"type":"function","name":"lzReceiveAndRevert","inputs":[{"name":"_packets","type":"tuple[]","internalType":"struct InboundPacket[]","components":[{"name":"origin","type":"tuple","internalType":"struct Origin","components":[{"name":"srcEid","type":"uint32","internalType":"uint32"},{"name":"sender","type":"bytes32","internalType":"bytes32"},{"name":"nonce","type":"uint64","internalType":"uint64"}]},{"name":"dstEid","type":"uint32","internalType":"uint32"},{"name":"receiver","type":"address","internalType":"address"},{"name":"guid","type":"bytes32","internalType":"bytes32"},{"name":"value","type":"uint256","internalType":"uint256"},{"name":"executor","type":"address","internalType":"address"},{"name":"message","type":"bytes","internalType":"bytes"},{"name":"extraData","type":"bytes","internalType":"bytes"}]}],"outputs":[],"stateMutability":"payable"},{"type":"function","name":"lzReceiveSimulate","inputs":[{"name":"_origin","type":"tuple","internalType":"struct Origin","components":[{"name":"srcEid","type":"uint32","internalType":"uint32"},{"name":"sender","type":"bytes32","internalType":"bytes32"},{"name":"nonce","type":"uint64","internalType":"uint64"}]},{"name":"_guid","type":"bytes32","internalType":"bytes32"},{"name":"_message","type":"bytes","internalType":"bytes"},{"name":"_executor","type":"address","internalType":"address"},{"name":"_extraData","type":"bytes","internalType":"bytes"}],"outputs":[],"stateMutability":"payable"},{"type":"function","name":"msgInspector","inputs":[],"outputs":[{"name":"","type":"address","internalType":"address"}],"stateMutability":"view"},{"type":"function","name":"nextNonce","inputs":[{"name":"","type":"uint32","internalType":"uint32"},{"name":"","type":"bytes32","internalType":"bytes32"}],"outputs":[{"name":"nonce","type":"uint64","internalType":"uint64"}],"stateMutability":"view"},{"type":"function","name":"oApp","inputs":[],"outputs":[{"name":"","type":"address","internalType":"address"}],"stateMutability":"view"},{"type":"function","name":"oAppVersion","inputs":[],"outputs":[{"name":"senderVersion","type":"uint64","internalType":"uint64"},{"name":"receiverVersion","type":"uint64","internalType":"uint64"}],"stateMutability":"pure"},{"type":"function","name":"onERC721Received","inputs":[{"name":"","type":"address","internalType":"address"},{"name":"","type":"address","internalType":"address"},{"name":"","type":"uint256","internalType":"uint256"},{"name":"","type":"bytes","internalType":"bytes"}],"outputs":[{"name":"","type":"bytes4","internalType":"bytes4"}],"stateMutability":"nonpayable"},{"type":"function","name":"onftVersion","inputs":[],"outputs":[{"name":"interfaceId","type":"bytes4","internalType":"bytes4"},{"name":"version","type":"uint64","internalType":"uint64"}],"stateMutability":"pure"},{"type":"function","name":"owner","inputs":[],"outputs":[{"name":"","type":"address","internalType":"address"}],"stateMutability":"view"},{"type":"function","name":"peers","inputs":[{"name":"eid","type":"uint32","internalType":"uint32"}],"outputs":[{"name":"peer","type":"bytes32","internalType":"bytes32"}],"stateMutability":"view"},{"type":"function","name":"preCrime","inputs":[],"outputs":[{"name":"","type":"address","internalType":"address"}],"stateMutability":"view"},{"type":"function","name":"quoteSend","inputs":[{"name":"_sendParam","type":"tuple","internalType":"struct SendParam","components":[{"name":"dstEid","type":"uint32","internalType":"uint32"},{"name":"to","type":"bytes32","internalType":"bytes32"},{"name":"tokenId","type":"uint256","internalType":"uint256"},{"name":"extraOptions","type":"bytes","internalType":"bytes"},{"name":"composeMsg","type":"bytes","internalType":"bytes"},{"name":"onftCmd","type":"bytes","internalType":"bytes"}]},{"name":"_payInLzToken","type":"bool","internalType":"bool"}],"outputs":[{"name":"msgFee","type":"tuple","internalType":"struct MessagingFee","components":[{"name":"nativeFee","type":"uint256","internalType":"uint256"},{"name":"lzTokenFee","type":"uint256","internalType":"uint256"}]}],"stateMutability":"view"},{"type":"function","name":"renounceOwnership","inputs":[],"outputs":[],"stateMutability":"nonpayable"},{"type":"function","name":"send","inputs":[{"name":"_sendParam","type":"tuple","internalType":"struct SendParam","components":[{"name":"dstEid","type":"uint32","internalType":"uint32"},{"name":"to","type":"bytes32","internalType":"bytes32"},{"name":"tokenId","type":"uint256","internalType":"uint256"},{"name":"extraOptions","type":"bytes","internalType":"bytes"},{"name":"composeMsg","type":"bytes","internalType":"bytes"},{"name":"onftCmd","type":"bytes","internalType":"bytes"}]},{"name":"_fee","type":"tuple","internalType":"struct MessagingFee","components":[{"name":"nativeFee","type":"uint256","internalType":"uint256"},{"name":"lzTokenFee","type":"uint256","internalType":"uint256"}]},{"name":"_refundAddress","type":"address","internalType":"address"}],"outputs":[{"name":"msgReceipt","type":"tuple","internalType":"struct MessagingReceipt","components":[{"name":"guid","type":"bytes32","internalType":"bytes32"},{"name":"nonce","type":"uint64","internalType":"uint64"},{"name":"fee","type":"tuple","internalType":"struct MessagingFee","components":[{"name":"nativeFee","type":"uint256","internalType":"uint256"},{"name":"lzTokenFee","type":"uint256","internalType":"uint256"}]}]}],"stateMutability":"payable"},{"type":"function","name":"setDelegate","inputs":[{"name":"_delegate","type":"address","internalType":"address"}],"outputs":[],"stateMutability":"nonpayable"},{"type":"function","name":"setEnforcedOptions","inputs":[{"name":"_enforcedOptions","type":"tuple[]","internalType":"struct EnforcedOptionParam[]","components":[{"name":"eid","type":"uint32","internalType":"uint32"},{"name":"msgType","type":"uint16","internalType":"uint16"},{"name":"options","type":"bytes","internalType":"bytes"}]}],"outputs":[],"stateMutability":"nonpayable"},{"type":"function","name":"setMsgInspector","inputs":[{"name":"_msgInspector","type":"address","internalType":"address"}],"outputs":[],"stateMutability":"nonpayable"},{"type":"function","name":"setPeer","inputs":[{"name":"_eid","type":"uint32","internalType":"uint32"},{"name":"_peer","type":"bytes32","internalType":"bytes32"}],"outputs":[],"stateMutability":"nonpayable"},{"type":"function","name":"setPreCrime","inputs":[{"name":"_preCrime","type":"address","internalType":"address"}],"outputs":[],"stateMutability":"nonpayable"},{"type":"function","name":"token","inputs":[],"outputs":[{"name":"","type":"address","internalType":"address"}],"stateMutability":"view"},{"type":"function","name":"transferOwnership","inputs":[{"name":"newOwner","type":"address","internalType":"address"}],"outputs":[],"stateMutability":"nonpayable"},{"type":"event","name":"EnforcedOptionSet","inputs":[{"name":"_enforcedOptions","type":"tuple[]","indexed":false,"internalType":"struct EnforcedOptionParam[]","components":[{"name":"eid","type":"uint32","internalType":"uint32"},{"name":"msgType","type":"uint16","internalType":"uint16"},{"name":"options","type":"bytes","internalType":"bytes"}]}],"anonymous":false},{"type":"event","name":"MsgInspectorSet","inputs":[{"name":"inspector","type":"address","indexed":false,"internalType":"address"}],"anonymous":false},{"type":"event","name":"ONFTReceived","inputs":[{"name":"guid","type":"bytes32","indexed":true,"internalType":"bytes32"},{"name":"srcEid","type":"uint32","indexed":false,"internalType":"uint32"},{"name":"toAddress","type":"address","indexed":true,"internalType":"address"},{"name":"tokenId","type":"uint256","indexed":false,"internalType":"uint256"}],"anonymous":false},{"type":"event","name":"ONFTSent","inputs":[{"name":"guid","type":"bytes32","indexed":true,"internalType":"bytes32"},{"name":"dstEid","type":"uint32","indexed":false,"internalType":"uint32"},{"name":"fromAddress","type":"address","indexed":true,"internalType":"address"},{"name":"tokenId","type":"uint256","indexed":false,"internalType":"uint256"}],"anonymous":false},{"type":"event","name":"OwnershipTransferred","inputs":[{"name":"previousOwner","type":"address","indexed":true,"internalType":"address"},{"name":"newOwner","type":"address","indexed":true,"internalType":"address"}],"anonymous":false},{"type":"event","name":"PeerSet","inputs":[{"name":"eid","type":"uint32","indexed":false,"internalType":"uint32"},{"name":"peer","type":"bytes32","indexed":false,"internalType":"bytes32"}],"anonymous":false},{"type":"event","name":"PreCrimeSet","inputs":[{"name":"preCrimeAddress","type":"address","indexed":false,"internalType":"address"}],"anonymous":false},{"type":"error","name":"AddressEmptyCode","inputs":[{"name":"target","type":"address","internalType":"address"}]},{"type":"error","name":"AddressInsufficientBalance","inputs":[{"name":"account","type":"address","internalType":"address"}]},{"type":"error","name":"FailedInnerCall","inputs":[]},{"type":"error","name":"InvalidDelegate","inputs":[]},{"type":"error","name":"InvalidEndpointCall","inputs":[]},{"type":"error","name":"InvalidOptions","inputs":[{"name":"options","type":"bytes","internalType":"bytes"}]},{"type":"error","name":"InvalidReceiver","inputs":[]},{"type":"error","name":"LzTokenUnavailable","inputs":[]},{"type":"error","name":"NoPeer","inputs":[{"name":"eid","type":"uint32","internalType":"uint32"}]},{"type":"error","name":"NotEnoughNative","inputs":[{"name":"msgValue","type":"uint256","internalType":"uint256"}]},{"type":"error","name":"OnlyEndpoint","inputs":[{"name":"addr","type":"address","internalType":"address"}]},{"type":"error","name":"OnlyNFTOwner","inputs":[{"name":"caller","type":"address","internalType":"address"},{"name":"owner","type":"address","internalType":"address"}]},{"type":"error","name":"OnlyPeer","inputs":[{"name":"eid","type":"uint32","internalType":"uint32"},{"name":"sender","type":"bytes32","internalType":"bytes32"}]},{"type":"error","name":"OnlySelf","inputs":[]},{"type":"error","name":"OwnableInvalidOwner","inputs":[{"name":"owner","type":"address","internalType":"address"}]},{"type":"error","name":"OwnableUnauthorizedAccount","inputs":[{"name":"account","type":"address","internalType":"address"}]},{"type":"error","name":"SafeERC20FailedOperation","inputs":[{"name":"token","type":"address","internalType":"address"}]},{"type":"error","name":"SimulationResult","inputs":[{"name":"result","type":"bytes","internalType":"bytes"}]}],"bytecode":{"object":"0x60c06040523480156200001157600080fd5b5060405162002b0a38038062002b0a833981016040819052620000349162000195565b828282818181818181806001600160a01b0381166200006d57604051631e4fbdf760e01b81526000600482015260240160405180910390fd5b620000788162000128565b506001600160a01b038083166080528116620000a757604051632d618d8160e21b815260040160405180910390fd5b60805160405163ca5eb5e160e01b81526001600160a01b0383811660048301529091169063ca5eb5e190602401600060405180830381600087803b158015620000ef57600080fd5b505af115801562000104573d6000803e3d6000fd5b5050506001600160a01b0390991660a05250620001df9a5050505050505050505050565b600080546001600160a01b038381166001600160a01b0319831681178455604051919092169283917f8be0079c531659141344cd1fd0a4f28419497f9722a3daafe3b4186f6b6457e09190a35050565b80516001600160a01b03811681146200019057600080fd5b919050565b600080600060608486031215620001ab57600080fd5b620001b68462000178565b9250620001c66020850162000178565b9150620001d66040850162000178565b90509250925092565b60805160a0516128c662000244600039600081816106570152818161109001526113c00152600081816103aa0152818161069d01528181610d6601528181610f920152818161123a0152818161158801528181611791015261184801526128c66000f3fe6080604052600436106101ee5760003560e01c80638da5cb5b1161010d578063bd815db0116100a0578063d42438851161006f578063d4243885146105e8578063dcdfd91114610608578063f2fde38b14610628578063fc0c546a14610648578063ff7bd03d1461067b57600080fd5b8063bd815db014610575578063c6414e7b14610588578063ca5eb5e1146105b5578063d045a0dc146105d557600080fd5b8063b731ea0a116100dc578063b731ea0a146104da578063b98bd070146104fa578063bb0b6a531461051a578063bc70b3541461055557600080fd5b80638da5cb5b1461046b5780639f68b96414610489578063a72f5dd81461049d578063b21a33e4146104c557600080fd5b806352ae2879116101855780636fc1b31e116101545780636fc1b31e146103cc578063715018a6146103ec5780637d25a05e1461040157806382413eac1461043c57600080fd5b806352ae2879146103285780635535d4611461033b5780635a0dfe4d146103685780635e280f111461039857600080fd5b80631f5e1334116101c15780631f5e1334146102a057806321eb730b146102c85780633400288b146102e85780634dba701b1461030857600080fd5b8063111ecdad146101f357806313137d6514610230578063150b7a021461024557806317442b701461027e575b600080fd5b3480156101ff57600080fd5b50600454610213906001600160a01b031681565b6040516001600160a01b0390911681526020015b60405180910390f35b61024361023e366004611aeb565b61069b565b005b34801561025157600080fd5b50610265610260366004611c97565b61075b565b6040516001600160e01b03199091168152602001610227565b34801561028a57600080fd5b5060408051600181526002602082015201610227565b3480156102ac57600080fd5b506102b5600181565b60405161ffff9091168152602001610227565b6102db6102d6366004611d14565b61076c565b6040516102279190611d81565b3480156102f457600080fd5b50610243610303366004611ddc565b610847565b34801561031457600080fd5b50610243610323366004611e06565b61085d565b34801561033457600080fd5b5030610213565b34801561034757600080fd5b5061035b610356366004611e56565b61086d565b6040516102279190611ed9565b34801561037457600080fd5b50610388610383366004611ddc565b610912565b6040519015158152602001610227565b3480156103a457600080fd5b506102137f000000000000000000000000000000000000000000000000000000000000000081565b3480156103d857600080fd5b506102436103e7366004611eec565b610931565b3480156103f857600080fd5b5061024361098e565b34801561040d57600080fd5b5061042461041c366004611ddc565b600092915050565b6040516001600160401b039091168152602001610227565b34801561044857600080fd5b50610388610457366004611f09565b6001600160a01b0381163014949350505050565b34801561047757600080fd5b506000546001600160a01b0316610213565b34801561049557600080fd5b506001610388565b3480156104a957600080fd5b50604080516311f0c6d360e11b81526001602082015201610227565b3480156104d157600080fd5b506102b5600281565b3480156104e657600080fd5b50600254610213906001600160a01b031681565b34801561050657600080fd5b50610243610515366004611fb3565b6109a2565b34801561052657600080fd5b50610547610535366004611ff4565b60016020526000908152604090205481565b604051908152602001610227565b34801561056157600080fd5b5061035b61057036600461200f565b6109bc565b610243610583366004611fb3565b610b64565b34801561059457600080fd5b506105a86105a336600461207d565b610cd7565b60405161022791906120ce565b3480156105c157600080fd5b506102436105d0366004611eec565b610d3f565b6102436105e3366004611aeb565b610dc5565b3480156105f457600080fd5b50610243610603366004611eec565b610df4565b34801561061457600080fd5b506102436106233660046120e5565b610e4a565b34801561063457600080fd5b50610243610643366004611eec565b610e55565b34801561065457600080fd5b507f0000000000000000000000000000000000000000000000000000000000000000610213565b34801561068757600080fd5b50610388610696366004612108565b610e93565b7f00000000000000000000000000000000000000000000000000000000000000006001600160a01b031633146106eb576040516391ac5e4f60e01b81523360048201526024015b60405180910390fd5b6020870180359061070590610700908a611ff4565b610ec9565b14610743576107176020880188611ff4565b60405163309afaf360e21b815263ffffffff9091166004820152602088013560248201526044016106e2565b61075287878787878787610f05565b50505050505050565b630a85bd0160e11b5b949350505050565b610774611a2f565b602084013561079657604051631e4ec46b60e01b815260040160405180910390fd5b6107b13360408601356107ac6020880188611ff4565b611064565b6000806107bd866110e9565b90925090506107e96107d26020880188611ff4565b83836107e3368a90038a018a612124565b88611207565b805190935033907f986156872b2ee0022b9585231dbbfde457f87f8a16b6c45e1a81c54c4ad8351f61081e60208a018a611ff4565b6040805163ffffffff9092168252808b013560208301520160405180910390a350509392505050565b61084f611312565b610859828261133f565b5050565b610868838383611394565b505050565b60036020908152600092835260408084209091529082529020805461089190612156565b80601f01602080910402602001604051908101604052809291908181526020018280546108bd90612156565b801561090a5780601f106108df5761010080835404028352916020019161090a565b820191906000526020600020905b8154815290600101906020018083116108ed57829003601f168201915b505050505081565b63ffffffff821660009081526001602052604090205481145b92915050565b610939611312565b600480546001600160a01b0319166001600160a01b0383169081179091556040519081527ff0be4f1e87349231d80c36b33f9e8639658eeaf474014dee15a3e6a4d4414197906020015b60405180910390a150565b610996611312565b6109a060006113ef565b565b6109aa611312565b6108596109b7828461218a565b61143f565b63ffffffff8416600090815260036020908152604080832061ffff871684529091528120805460609291906109f090612156565b80601f0160208091040260200160405190810160405280929190818152602001828054610a1c90612156565b8015610a695780601f10610a3e57610100808354040283529160200191610a69565b820191906000526020600020905b815481529060010190602001808311610a4c57829003601f168201915b505050505090508051600003610ab95783838080601f0160208091040260200160405190810160405280939291908181526020018383808284376000920191909152509294506107649350505050565b6000839003610ac9579050610764565b60028310610b4757610b1084848080601f01602080910402602001604051908101604052809392919081815260200183838082843760009201919091525061154692505050565b80610b1e846002818861225f565b604051602001610b3093929190612289565b604051602081830303815290604052915050610764565b8383604051639a6d49cd60e01b81526004016106e29291906122da565b60005b81811015610c565736838383818110610b8257610b826122ee565b9050602002810190610b949190612304565b9050610bb0610ba66020830183611ff4565b6020830135610912565b610bba5750610c4e565b3063d045a0dc60c08301358360a0810135610bd9610100830183612325565b610bea610100890160e08a01611eec565b610bf86101208a018a612325565b6040518963ffffffff1660e01b8152600401610c1a9796959493929190612380565b6000604051808303818588803b158015610c3357600080fd5b505af1158015610c47573d6000803e3d6000fd5b5050505050505b600101610b67565b50336001600160a01b0316638e9e70996040518163ffffffff1660e01b8152600401600060405180830381865afa158015610c95573d6000803e3d6000fd5b505050506040513d6000823e601f3d908101601f19168201604052610cbd9190810190612406565b604051638351eea760e01b81526004016106e29190611ed9565b60408051808201909152600080825260208201526020830135610d0d57604051631e4ec46b60e01b815260040160405180910390fd5b600080610d19856110e9565b9092509050610d36610d2e6020870187611ff4565b838387611572565b95945050505050565b610d47611312565b60405163ca5eb5e160e01b81526001600160a01b0382811660048301527f0000000000000000000000000000000000000000000000000000000000000000169063ca5eb5e190602401600060405180830381600087803b158015610daa57600080fd5b505af1158015610dbe573d6000803e3d6000fd5b5050505050565b333014610de55760405163029a949d60e31b815260040160405180910390fd5b61075287878787878787610743565b610dfc611312565b600280546001600160a01b0319166001600160a01b0383169081179091556040519081527fd48d879cef83a1c0bdda516f27b13ddb1b3f8bbac1c9e1511bb2a659c242776090602001610983565b610859338383611064565b610e5d611312565b6001600160a01b038116610e8757604051631e4fbdf760e01b8152600060048201526024016106e2565b610e90816113ef565b50565b6000602082018035906001908390610eab9086611ff4565b63ffffffff1681526020810191909152604001600020541492915050565b63ffffffff81166000908152600160205260408120548061092b5760405163f6ff4fb760e01b815263ffffffff841660048201526024016106e2565b6000610f17610f14878761164a565b90565b90506000610f258787611669565b9050610f3e8282610f3960208d018d611ff4565b611394565b6040861115611002576000610f78610f5c60608c0160408d01612473565b610f6960208d018d611ff4565b610f738b8b611686565b6116d1565b604051633e5ac80960e11b81529091506001600160a01b037f00000000000000000000000000000000000000000000000000000000000000001690637cb5901290610fce9086908d906000908790600401612490565b600060405180830381600087803b158015610fe857600080fd5b505af1158015610ffc573d6000803e3d6000fd5b50505050505b6001600160a01b038216887f7883fa30ea56937810e36990b0bbb8d629d0cf59f68baf8431ff657cebe7eef561103b60208d018d611ff4565b6040805163ffffffff9092168252602082018690520160405180910390a3505050505050505050565b6040516323b872dd60e01b81526001600160a01b038481166004830152306024830152604482018490527f000000000000000000000000000000000000000000000000000000000000000016906323b872dd906064015b600060405180830381600087803b1580156110d557600080fd5b505af1158015610752573d6000803e3d6000fd5b6060806000611142602085013560408601356111086080880188612325565b8080601f01602080910402602001604051908101604052809392919081815260200183838082843760009201919091525061170092505050565b9093509050600081611155576001611158565b60025b905061117861116a6020870187611ff4565b826105706060890189612325565b6004549093506001600160a01b031615611200576004805460405163043a78eb60e01b81526001600160a01b039091169163043a78eb916111bd9188918891016124c1565b602060405180830381865afa1580156111da573d6000803e3d6000fd5b505050506040513d601f19601f820116820180604052508101906111fe91906124e6565b505b5050915091565b61120f611a2f565b600061121e8460000151611765565b60208501519091501561123857611238846020015161178d565b7f00000000000000000000000000000000000000000000000000000000000000006001600160a01b0316632637a450826040518060a001604052808b63ffffffff1681526020016112888c610ec9565b81526020018a815260200189815260200160008960200151111515815250866040518463ffffffff1660e01b81526004016112c4929190612503565b60806040518083038185885af11580156112e2573d6000803e3d6000fd5b50505050506040513d601f19601f8201168201806040525081019061130791906125ac565b979650505050505050565b6000546001600160a01b031633146109a05760405163118cdaa760e01b81523360048201526024016106e2565b63ffffffff8216600081815260016020908152604091829020849055815192835282018390527f238399d427b947898edb290f5ff0f9109849b1c3ba196a42e35f00c50a54b98b910160405180910390a15050565b604051632142170760e11b81523060048201526001600160a01b038481166024830152604482018490527f000000000000000000000000000000000000000000000000000000000000000016906342842e0e906064016110bb565b600080546001600160a01b038381166001600160a01b0319831681178455604051919092169283917f8be0079c531659141344cd1fd0a4f28419497f9722a3daafe3b4186f6b6457e09190a35050565b60005b815181101561151657611471828281518110611460576114606122ee565b602002602001015160400151611546565b818181518110611483576114836122ee565b602002602001015160400151600360008484815181106114a5576114a56122ee565b60200260200101516000015163ffffffff1663ffffffff16815260200190815260200160002060008484815181106114df576114df6122ee565b60200260200101516020015161ffff1661ffff168152602001908152602001600020908161150d9190612646565b50600101611442565b507fbe4864a8e820971c0247f5992e2da559595f7bf076a21cb5928d443d2a13b674816040516109839190612705565b600281015161ffff81166003146108595781604051639a6d49cd60e01b81526004016106e29190611ed9565b60408051808201909152600080825260208201527f00000000000000000000000000000000000000000000000000000000000000006001600160a01b031663ddc28c586040518060a001604052808863ffffffff1681526020016115d589610ec9565b8152602001878152602001868152602001851515815250306040518363ffffffff1660e01b815260040161160a929190612503565b6040805180830381865afa158015611626573d6000803e3d6000fd5b505050506040513d601f19601f82011682018060405250810190610d369190612790565b6000611659602082848661225f565b611662916127ac565b9392505050565b600061167960406020848661225f565b81019061166291906127ca565b6060611695826040818661225f565b8080601f016020809104026020016040519081016040528093929190818152602001838380828437600092019190915250929695505050505050565b60608383836040516020016116e8939291906127e3565b60405160208183030381529060405290509392505050565b805160609015158061173457604080516020810187905290810185905260600160405160208183030381529060405261175b565b8484338560405160200161174b949392919061282d565b6040516020818303038152906040525b9150935093915050565b6000813414611789576040516304fb820960e51b81523460048201526024016106e2565b5090565b60007f00000000000000000000000000000000000000000000000000000000000000006001600160a01b031663e4fe1d946040518163ffffffff1660e01b8152600401602060405180830381865afa1580156117ed573d6000803e3d6000fd5b505050506040513d601f19601f820116820180604052508101906118119190612861565b90506001600160a01b03811661183a576040516329b99a9560e11b815260040160405180910390fd5b6040805133602482018190527f00000000000000000000000000000000000000000000000000000000000000006001600160a01b03818116604485015260648085018890528551808603909101815260849094019094526020830180516001600160e01b03166323b872dd60e01b1790526108599385169286906118bf9085906118c5565b50505050565b60006118da6001600160a01b03841683611928565b905080516000141580156118ff5750808060200190518101906118fd91906124e6565b155b1561086857604051635274afe760e01b81526001600160a01b03841660048201526024016106e2565b60606116628383600084600080856001600160a01b0316848660405161194e919061287e565b60006040518083038185875af1925050503d806000811461198b576040519150601f19603f3d011682016040523d82523d6000602084013e611990565b606091505b50915091506119a08683836119aa565b9695505050505050565b6060826119bf576119ba82611a06565b611662565b81511580156119d657506001600160a01b0384163b155b156119ff57604051639996b31560e01b81526001600160a01b03851660048201526024016106e2565b5080611662565b805115611a165780518082602001fd5b604051630a12f52160e11b815260040160405180910390fd5b60405180606001604052806000801916815260200160006001600160401b03168152602001611a71604051806040016040528060008152602001600081525090565b905290565b600060608284031215611a8857600080fd5b50919050565b60008083601f840112611aa057600080fd5b5081356001600160401b03811115611ab757600080fd5b602083019150836020828501011115611acf57600080fd5b9250929050565b6001600160a01b0381168114610e9057600080fd5b600080600080600080600060e0888a031215611b0657600080fd5b611b108989611a76565b96506060880135955060808801356001600160401b0380821115611b3357600080fd5b611b3f8b838c01611a8e565b909750955060a08a01359150611b5482611ad6565b90935060c08901359080821115611b6a57600080fd5b50611b778a828b01611a8e565b989b979a50959850939692959293505050565b634e487b7160e01b600052604160045260246000fd5b604080519081016001600160401b0381118282101715611bc257611bc2611b8a565b60405290565b604051606081016001600160401b0381118282101715611bc257611bc2611b8a565b604051601f8201601f191681016001600160401b0381118282101715611c1257611c12611b8a565b604052919050565b60006001600160401b03821115611c3357611c33611b8a565b50601f01601f191660200190565b600082601f830112611c5257600080fd5b8135611c65611c6082611c1a565b611bea565b818152846020838601011115611c7a57600080fd5b816020850160208301376000918101602001919091529392505050565b60008060008060808587031215611cad57600080fd5b8435611cb881611ad6565b93506020850135611cc881611ad6565b92506040850135915060608501356001600160401b03811115611cea57600080fd5b611cf687828801611c41565b91505092959194509250565b600060c08284031215611a8857600080fd5b60008060008385036080811215611d2a57600080fd5b84356001600160401b03811115611d4057600080fd5b611d4c87828801611d02565b9450506040601f1982011215611d6157600080fd5b506020840191506060840135611d7681611ad6565b809150509250925092565b6000608082019050825182526001600160401b0360208401511660208301526040830151611dbc604084018280518252602090810151910152565b5092915050565b803563ffffffff81168114611dd757600080fd5b919050565b60008060408385031215611def57600080fd5b611df883611dc3565b946020939093013593505050565b600080600060608486031215611e1b57600080fd5b8335611e2681611ad6565b925060208401359150611e3b60408501611dc3565b90509250925092565b803561ffff81168114611dd757600080fd5b60008060408385031215611e6957600080fd5b611e7283611dc3565b9150611e8060208401611e44565b90509250929050565b60005b83811015611ea4578181015183820152602001611e8c565b50506000910152565b60008151808452611ec5816020860160208601611e89565b601f01601f19169290920160200192915050565b6020815260006116626020830184611ead565b600060208284031215611efe57600080fd5b813561166281611ad6565b60008060008060a08587031215611f1f57600080fd5b611f298686611a76565b935060608501356001600160401b03811115611f4457600080fd5b611f5087828801611a8e565b9094509250506080850135611f6481611ad6565b939692955090935050565b60008083601f840112611f8157600080fd5b5081356001600160401b03811115611f9857600080fd5b6020830191508360208260051b8501011115611acf57600080fd5b60008060208385031215611fc657600080fd5b82356001600160401b03811115611fdc57600080fd5b611fe885828601611f6f565b90969095509350505050565b60006020828403121561200657600080fd5b61166282611dc3565b6000806000806060858703121561202557600080fd5b61202e85611dc3565b935061203c60208601611e44565b925060408501356001600160401b0381111561205757600080fd5b61206387828801611a8e565b95989497509550505050565b8015158114610e9057600080fd5b6000806040838503121561209057600080fd5b82356001600160401b038111156120a657600080fd5b6120b285828601611d02565b92505060208301356120c38161206f565b809150509250929050565b81518152602080830151908201526040810161092b565b600080604083850312156120f857600080fd5b82359150611e8060208401611dc3565b60006060828403121561211a57600080fd5b6116628383611a76565b60006040828403121561213657600080fd5b61213e611ba0565b82358152602083013560208201528091505092915050565b600181811c9082168061216a57607f821691505b602082108103611a8857634e487b7160e01b600052602260045260246000fd5b60006001600160401b03808411156121a4576121a4611b8a565b8360051b60206121b5818301611bea565b8681529185019181810190368411156121cd57600080fd5b865b84811015612253578035868111156121e75760008081fd5b880160603682900312156121fb5760008081fd5b612203611bc8565b61220c82611dc3565b8152612219868301611e44565b86820152604080830135898111156122315760008081fd5b61223d36828601611c41565b91830191909152508452509183019183016121cf565b50979650505050505050565b6000808585111561226f57600080fd5b8386111561227c57600080fd5b5050820193919092039150565b6000845161229b818460208901611e89565b8201838582376000930192835250909392505050565b81835281816020850137506000828201602090810191909152601f909101601f19169091010190565b6020815260006107646020830184866122b1565b634e487b7160e01b600052603260045260246000fd5b6000823561013e1983360301811261231b57600080fd5b9190910192915050565b6000808335601e1984360301811261233c57600080fd5b8301803591506001600160401b0382111561235657600080fd5b602001915036819003821315611acf57600080fd5b6001600160401b0381168114610e9057600080fd5b63ffffffff61238e89611dc3565b16815260208801356020820152600060408901356123ab8161236b565b6001600160401b03811660408401525087606083015260e060808301526123d660e0830187896122b1565b6001600160a01b03861660a084015282810360c08401526123f88185876122b1565b9a9950505050505050505050565b60006020828403121561241857600080fd5b81516001600160401b0381111561242e57600080fd5b8201601f8101841361243f57600080fd5b805161244d611c6082611c1a565b81815285602083850101111561246257600080fd5b610d36826020830160208601611e89565b60006020828403121561248557600080fd5b81356116628161236b565b60018060a01b038516815283602082015261ffff831660408201526080606082015260006119a06080830184611ead565b6040815260006124d46040830185611ead565b8281036020840152610d368185611ead565b6000602082840312156124f857600080fd5b81516116628161206f565b6040815263ffffffff8351166040820152602083015160608201526000604084015160a0608084015261253960e0840182611ead565b90506060850151603f198483030160a08501526125568282611ead565b60809690960151151560c08501525050506001600160a01b039190911660209091015290565b60006040828403121561258e57600080fd5b612596611ba0565b9050815181526020820151602082015292915050565b6000608082840312156125be57600080fd5b6125c6611bc8565b8251815260208301516125d88161236b565b60208201526125ea846040850161257c565b60408201529392505050565b601f821115610868576000816000526020600020601f850160051c8101602086101561261f5750805b601f850160051c820191505b8181101561263e5782815560010161262b565b505050505050565b81516001600160401b0381111561265f5761265f611b8a565b6126738161266d8454612156565b846125f6565b602080601f8311600181146126a857600084156126905750858301515b600019600386901b1c1916600185901b17855561263e565b600085815260208120601f198616915b828110156126d7578886015182559484019460019091019084016126b8565b50858210156126f55787850151600019600388901b60f8161c191681555b5050505050600190811b01905550565b600060208083018184528085518083526040925060408601915060408160051b87010184880160005b8381101561278257888303603f190185528151805163ffffffff1684528781015161ffff1688850152860151606087850181905261276e81860183611ead565b96890196945050509086019060010161272e565b509098975050505050505050565b6000604082840312156127a257600080fd5b611662838361257c565b8035602083101561092b57600019602084900360031b1b1692915050565b6000602082840312156127dc57600080fd5b5035919050565b60c084901b6001600160c01b031916815260e083901b6001600160e01b0319166008820152815160009061281e81600c850160208701611e89565b91909101600c01949350505050565b84815283602082015282604082015260008251612851816060850160208701611e89565b9190910160600195945050505050565b60006020828403121561287357600080fd5b815161166281611ad6565b6000825161231b818460208701611e8956fea26469706673582212207d3ba4a090246cc8a8a9c26a856c9f74e618e1fa27f15b2af2299f3e283fae1764736f6c63430008160033","linkReferences":{}},"methodIdentifiers":{"SEND()":"1f5e1334","SEND_AND_COMPOSE()":"b21a33e4","allowInitializePath((uint32,bytes32,uint64))":"ff7bd03d","approvalRequired()":"9f68b964","combineOptions(uint32,uint16,bytes)":"bc70b354","credit(address,uint256,uint32)":"4dba701b","debit(uint256,uint32)":"dcdfd911","endpoint()":"5e280f11","enforcedOptions(uint32,uint16)":"5535d461","isComposeMsgSender((uint32,bytes32,uint64),bytes,address)":"82413eac","isPeer(uint32,bytes32)":"5a0dfe4d","lzReceive((uint32,bytes32,uint64),bytes32,bytes,address,bytes)":"13137d65","lzReceiveAndRevert(((uint32,bytes32,uint64),uint32,address,bytes32,uint256,address,bytes,bytes)[])":"bd815db0","lzReceiveSimulate((uint32,bytes32,uint64),bytes32,bytes,address,bytes)":"d045a0dc","msgInspector()":"111ecdad","nextNonce(uint32,bytes32)":"7d25a05e","oApp()":"52ae2879","oAppVersion()":"17442b70","onERC721Received(address,address,uint256,bytes)":"150b7a02","onftVersion()":"a72f5dd8","owner()":"8da5cb5b","peers(uint32)":"bb0b6a53","preCrime()":"b731ea0a","quoteSend((uint32,bytes32,uint256,bytes,bytes,bytes),bool)":"c6414e7b","renounceOwnership()":"715018a6","send((uint32,bytes32,uint256,bytes,bytes,bytes),(uint256,uint256),address)":"21eb730b","setDelegate(address)":"ca5eb5e1","setEnforcedOptions((uint32,uint16,bytes)[])":"b98bd070","setMsgInspector(address)":"6fc1b31e","setPeer(uint32,bytes32)":"3400288b","setPreCrime(address)":"d4243885","token()":"fc0c546a","transferOwnership(address)":"f2fde38b"},"id":143}