{
  "address": "0xAB88BaD042336dcC4550182C12BE17f0CC8BB7C5",
  "abi": [
    {
      "inputs": [
        {
          "internalType": "address",
          "name": "_bombToken",
          "type": "address"
        }
      ],
      "stateMutability": "nonpayable",
      "type": "constructor"
    },
    {
      "inputs": [],
      "name": "bombToken",
      "outputs": [
        {
          "internalType": "contract BOMBToken",
          "name": "",
          "type": "address"
        }
      ],
      "stateMutability": "view",
      "type": "function"
    },
    {
      "inputs": [
        {
          "internalType": "address",
          "name": "_from",
          "type": "address"
        },
        {
          "internalType": "uint256",
          "name": "_amount",
          "type": "uint256"
        }
      ],
      "name": "burn",
      "outputs": [
        {
          "internalType": "bool",
          "name": "success",
          "type": "bool"
        }
      ],
      "stateMutability": "nonpayable",
      "type": "function"
    },
    {
      "inputs": [
        {
          "internalType": "address",
          "name": "_to",
          "type": "address"
        },
        {
          "internalType": "uint256",
          "name": "_amount",
          "type": "uint256"
        }
      ],
      "name": "mint",
      "outputs": [
        {
          "internalType": "bool",
          "name": "success",
          "type": "bool"
        }
      ],
      "stateMutability": "nonpayable",
      "type": "function"
    }
  ],
  "transactionHash": "0x2745232d547f97cd82d327518894b7cae441633ab74b2c5c8371bb68e17e7a9b",
  "args": [
    "0xC3D4E9Ac47D7f37bB07C2f8355Bb4940DEA3bbC3"
  ],
  "numDeployments": 1,
  "solcInputHash": "0e32dfba0245e0374537a2f3b2624380",
  "bytecode": "0x60a060405234801561001057600080fd5b5060405161037238038061037283398101604081905261002f91610040565b6001600160a01b0316608052610070565b60006020828403121561005257600080fd5b81516001600160a01b038116811461006957600080fd5b9392505050565b6080516102d461009e6000396000818160730152818160e901528181610180015261020601526102d46000f3fe608060405234801561001057600080fd5b50600436106100415760003560e01c806340c10f19146100465780638f0d43a61461006e5780639dc29fac146100ad575b600080fd5b61005961005436600461023d565b6100c0565b60405190151581526020015b60405180910390f35b6100957f000000000000000000000000000000000000000000000000000000000000000081565b6040516001600160a01b039091168152602001610065565b6100596100bb36600461023d565b610151565b6040516340c10f1960e01b81526001600160a01b038381166004830152602482018390526000917f0000000000000000000000000000000000000000000000000000000000000000909116906340c10f19906044015b600060405180830381600087803b15801561013057600080fd5b505af1158015610144573d6000803e3d6000fd5b5060019695505050505050565b6040516323b872dd60e01b81526001600160a01b038381166004830152306024830152604482018390526000917f0000000000000000000000000000000000000000000000000000000000000000909116906323b872dd906064016020604051808303816000875af11580156101cb573d6000803e3d6000fd5b505050506040513d601f19601f820116820180604052508101906101ef9190610275565b50604051630852cd8d60e31b8152600481018390527f00000000000000000000000000000000000000000000000000000000000000006001600160a01b0316906342966c6890602401610116565b6000806040838503121561025057600080fd5b82356001600160a01b038116811461026757600080fd5b946020939093013593505050565b60006020828403121561028757600080fd5b8151801515811461029757600080fd5b939250505056fea2646970667358221220231e284077a47f714d9f924fd5513785d48a53f76e4438754867442a7602f1a964736f6c63430008160033",
  "devdoc": {
    "kind": "dev",
    "methods": {
      "burn(address,uint256)": {
        "params": {
          "_amount": "Amount of tokens to be burned",
          "_from": "Address from which tokens will be burned"
        },
        "returns": {
          "success": "Indicates whether the operation was successful"
        }
      },
      "mint(address,uint256)": {
        "params": {
          "_amount": "Amount of tokens to be minted",
          "_to": "Address to which tokens will be minted"
        },
        "returns": {
          "success": "Indicates whether the operation was successful"
        }
      }
    },
    "version": 1
  },
  "userdoc": {
    "kind": "user",
    "methods": {
      "burn(address,uint256)": {
        "notice": "Burns tokens from a specified account"
      },
      "mint(address,uint256)": {
        "notice": "Mints tokens to a specified account"
      }
    },
    "version": 1
  },
  "storageLayout": {
    "storage": [],
    "types": null
  }
}