{
  "abi": [
    {
      "type": "constructor",
      "inputs": [
        {
          "name": "_name",
          "type": "string",
          "internalType": "string"
        },
        {
          "name": "_symbol",
          "type": "string",
          "internalType": "string"
        },
        {
          "name": "_lzEndpoint",
          "type": "address",
          "internalType": "address"
        },
        {
          "name": "_delegate",
          "type": "address",
          "internalType": "address"
        }
      ],
      "stateMutability": "nonpayable"
    },
    {
      "type": "function",
      "name": "SEND",
      "inputs": [],
      "outputs": [
        {
          "name": "",
          "type": "uint16",
          "internalType": "uint16"
        }
      ],
      "stateMutability": "view"
    },
    {
      "type": "function",
      "name": "SEND_AND_CALL",
      "inputs": [],
      "outputs": [
        {
          "name": "",
          "type": "uint16",
          "internalType": "uint16"
        }
      ],
      "stateMutability": "view"
    },
    {
      "type": "function",
      "name": "allowInitializePath",
      "inputs": [
        {
          "name": "origin",
          "type": "tuple",
          "internalType": "struct Origin",
          "components": [
            {
              "name": "srcEid",
              "type": "uint32",
              "internalType": "uint32"
            },
            {
              "name": "sender",
              "type": "bytes32",
              "internalType": "bytes32"
            },
            {
              "name": "nonce",
              "type": "uint64",
              "internalType": "uint64"
            }
          ]
        }
      ],
      "outputs": [
        {
          "name": "",
          "type": "bool",
          "internalType": "bool"
        }
      ],
      "stateMutability": "view"
    },
    {
      "type": "function",
      "name": "approvalRequired",
      "inputs": [],
      "outputs": [
        {
          "name": "requiresApproval",
          "type": "bool",
          "internalType": "bool"
        }
      ],
      "stateMutability": "pure"
    },
    {
      "type": "function",
      "name": "approve",
      "inputs": [
        {
          "name": "to",
          "type": "address",
          "internalType": "address"
        },
        {
          "name": "tokenId",
          "type": "uint256",
          "internalType": "uint256"
        }
      ],
      "outputs": [],
      "stateMutability": "nonpayable"
    },
    {
      "type": "function",
      "name": "balanceOf",
      "inputs": [
        {
          "name": "owner",
          "type": "address",
          "internalType": "address"
        }
      ],
      "outputs": [
        {
          "name": "",
          "type": "uint256",
          "internalType": "uint256"
        }
      ],
      "stateMutability": "view"
    },
    {
      "type": "function",
      "name": "buildMsgAndOptions",
      "inputs": [
        {
          "name": "_sendParam",
          "type": "tuple",
          "internalType": "struct SendParam",
          "components": [
            {
              "name": "dstEid",
              "type": "uint32",
              "internalType": "uint32"
            },
            {
              "name": "to",
              "type": "bytes32",
              "internalType": "bytes32"
            },
            {
              "name": "tokenIds",
              "type": "uint256[]",
              "internalType": "uint256[]"
            },
            {
              "name": "extraOptions",
              "type": "bytes",
              "internalType": "bytes"
            },
            {
              "name": "composeMsg",
              "type": "bytes",
              "internalType": "bytes"
            }
          ]
        }
      ],
      "outputs": [
        {
          "name": "",
          "type": "bytes",
          "internalType": "bytes"
        },
        {
          "name": "",
          "type": "bytes",
          "internalType": "bytes"
        }
      ],
      "stateMutability": "view"
    },
    {
      "type": "function",
      "name": "combineOptions",
      "inputs": [
        {
          "name": "_eid",
          "type": "uint32",
          "internalType": "uint32"
        },
        {
          "name": "_msgType",
          "type": "uint16",
          "internalType": "uint16"
        },
        {
          "name": "_extraOptions",
          "type": "bytes",
          "internalType": "bytes"
        }
      ],
      "outputs": [
        {
          "name": "",
          "type": "bytes",
          "internalType": "bytes"
        }
      ],
      "stateMutability": "view"
    },
    {
      "type": "function",
      "name": "credit",
      "inputs": [
        {
          "name": "_toAddress",
          "type": "address",
          "internalType": "address"
        },
        {
          "name": "_tokenId",
          "type": "uint256",
          "internalType": "uint256"
        },
        {
          "name": "_srcEid",
          "type": "uint32",
          "internalType": "uint32"
        }
      ],
      "outputs": [],
      "stateMutability": "nonpayable"
    },
    {
      "type": "function",
      "name": "debit",
      "inputs": [
        {
          "name": "_tokenId",
          "type": "uint256",
          "internalType": "uint256"
        },
        {
          "name": "_dstEid",
          "type": "uint32",
          "internalType": "uint32"
        }
      ],
      "outputs": [],
      "stateMutability": "nonpayable"
    },
    {
      "type": "function",
      "name": "endpoint",
      "inputs": [],
      "outputs": [
        {
          "name": "",
          "type": "address",
          "internalType": "contract ILayerZeroEndpointV2"
        }
      ],
      "stateMutability": "view"
    },
    {
      "type": "function",
      "name": "enforcedOptions",
      "inputs": [
        {
          "name": "eid",
          "type": "uint32",
          "internalType": "uint32"
        },
        {
          "name": "msgType",
          "type": "uint16",
          "internalType": "uint16"
        }
      ],
      "outputs": [
        {
          "name": "enforcedOption",
          "type": "bytes",
          "internalType": "bytes"
        }
      ],
      "stateMutability": "view"
    },
    {
      "type": "function",
      "name": "exists",
      "inputs": [
        {
          "name": "_tokenId",
          "type": "uint256",
          "internalType": "uint256"
        }
      ],
      "outputs": [
        {
          "name": "",
          "type": "bool",
          "internalType": "bool"
        }
      ],
      "stateMutability": "view"
    },
    {
      "type": "function",
      "name": "getApproved",
      "inputs": [
        {
          "name": "tokenId",
          "type": "uint256",
          "internalType": "uint256"
        }
      ],
      "outputs": [
        {
          "name": "",
          "type": "address",
          "internalType": "address"
        }
      ],
      "stateMutability": "view"
    },
    {
      "type": "function",
      "name": "isApprovedForAll",
      "inputs": [
        {
          "name": "owner",
          "type": "address",
          "internalType": "address"
        },
        {
          "name": "operator",
          "type": "address",
          "internalType": "address"
        }
      ],
      "outputs": [
        {
          "name": "",
          "type": "bool",
          "internalType": "bool"
        }
      ],
      "stateMutability": "view"
    },
    {
      "type": "function",
      "name": "isComposeMsgSender",
      "inputs": [
        {
          "name": "",
          "type": "tuple",
          "internalType": "struct Origin",
          "components": [
            {
              "name": "srcEid",
              "type": "uint32",
              "internalType": "uint32"
            },
            {
              "name": "sender",
              "type": "bytes32",
              "internalType": "bytes32"
            },
            {
              "name": "nonce",
              "type": "uint64",
              "internalType": "uint64"
            }
          ]
        },
        {
          "name": "",
          "type": "bytes",
          "internalType": "bytes"
        },
        {
          "name": "_sender",
          "type": "address",
          "internalType": "address"
        }
      ],
      "outputs": [
        {
          "name": "",
          "type": "bool",
          "internalType": "bool"
        }
      ],
      "stateMutability": "view"
    },
    {
      "type": "function",
      "name": "isPeer",
      "inputs": [
        {
          "name": "_eid",
          "type": "uint32",
          "internalType": "uint32"
        },
        {
          "name": "_peer",
          "type": "bytes32",
          "internalType": "bytes32"
        }
      ],
      "outputs": [
        {
          "name": "",
          "type": "bool",
          "internalType": "bool"
        }
      ],
      "stateMutability": "view"
    },
    {
      "type": "function",
      "name": "lzReceive",
      "inputs": [
        {
          "name": "_origin",
          "type": "tuple",
          "internalType": "struct Origin",
          "components": [
            {
              "name": "srcEid",
              "type": "uint32",
              "internalType": "uint32"
            },
            {
              "name": "sender",
              "type": "bytes32",
              "internalType": "bytes32"
            },
            {
              "name": "nonce",
              "type": "uint64",
              "internalType": "uint64"
            }
          ]
        },
        {
          "name": "_guid",
          "type": "bytes32",
          "internalType": "bytes32"
        },
        {
          "name": "_message",
          "type": "bytes",
          "internalType": "bytes"
        },
        {
          "name": "_executor",
          "type": "address",
          "internalType": "address"
        },
        {
          "name": "_extraData",
          "type": "bytes",
          "internalType": "bytes"
        }
      ],
      "outputs": [],
      "stateMutability": "payable"
    },
    {
      "type": "function",
      "name": "lzReceiveAndRevert",
      "inputs": [
        {
          "name": "_packets",
          "type": "tuple[]",
          "internalType": "struct InboundPacket[]",
          "components": [
            {
              "name": "origin",
              "type": "tuple",
              "internalType": "struct Origin",
              "components": [
                {
                  "name": "srcEid",
                  "type": "uint32",
                  "internalType": "uint32"
                },
                {
                  "name": "sender",
                  "type": "bytes32",
                  "internalType": "bytes32"
                },
                {
                  "name": "nonce",
                  "type": "uint64",
                  "internalType": "uint64"
                }
              ]
            },
            {
              "name": "dstEid",
              "type": "uint32",
              "internalType": "uint32"
            },
            {
              "name": "receiver",
              "type": "address",
              "internalType": "address"
            },
            {
              "name": "guid",
              "type": "bytes32",
              "internalType": "bytes32"
            },
            {
              "name": "value",
              "type": "uint256",
              "internalType": "uint256"
            },
            {
              "name": "executor",
              "type": "address",
              "internalType": "address"
            },
            {
              "name": "message",
              "type": "bytes",
              "internalType": "bytes"
            },
            {
              "name": "extraData",
              "type": "bytes",
              "internalType": "bytes"
            }
          ]
        }
      ],
      "outputs": [],
      "stateMutability": "payable"
    },
    {
      "type": "function",
      "name": "lzReceiveSimulate",
      "inputs": [
        {
          "name": "_origin",
          "type": "tuple",
          "internalType": "struct Origin",
          "components": [
            {
              "name": "srcEid",
              "type": "uint32",
              "internalType": "uint32"
            },
            {
              "name": "sender",
              "type": "bytes32",
              "internalType": "bytes32"
            },
            {
              "name": "nonce",
              "type": "uint64",
              "internalType": "uint64"
            }
          ]
        },
        {
          "name": "_guid",
          "type": "bytes32",
          "internalType": "bytes32"
        },
        {
          "name": "_message",
          "type": "bytes",
          "internalType": "bytes"
        },
        {
          "name": "_executor",
          "type": "address",
          "internalType": "address"
        },
        {
          "name": "_extraData",
          "type": "bytes",
          "internalType": "bytes"
        }
      ],
      "outputs": [],
      "stateMutability": "payable"
    },
    {
      "type": "function",
      "name": "mint",
      "inputs": [
        {
          "name": "_to",
          "type": "address",
          "internalType": "address"
        },
        {
          "name": "_tokenId",
          "type": "uint256",
          "internalType": "uint256"
        }
      ],
      "outputs": [],
      "stateMutability": "nonpayable"
    },
    {
      "type": "function",
      "name": "msgInspector",
      "inputs": [],
      "outputs": [
        {
          "name": "",
          "type": "address",
          "internalType": "address"
        }
      ],
      "stateMutability": "view"
    },
    {
      "type": "function",
      "name": "name",
      "inputs": [],
      "outputs": [
        {
          "name": "",
          "type": "string",
          "internalType": "string"
        }
      ],
      "stateMutability": "view"
    },
    {
      "type": "function",
      "name": "nextNonce",
      "inputs": [
        {
          "name": "",
          "type": "uint32",
          "internalType": "uint32"
        },
        {
          "name": "",
          "type": "bytes32",
          "internalType": "bytes32"
        }
      ],
      "outputs": [
        {
          "name": "nonce",
          "type": "uint64",
          "internalType": "uint64"
        }
      ],
      "stateMutability": "view"
    },
    {
      "type": "function",
      "name": "oApp",
      "inputs": [],
      "outputs": [
        {
          "name": "",
          "type": "address",
          "internalType": "address"
        }
      ],
      "stateMutability": "view"
    },
    {
      "type": "function",
      "name": "oAppVersion",
      "inputs": [],
      "outputs": [
        {
          "name": "senderVersion",
          "type": "uint64",
          "internalType": "uint64"
        },
        {
          "name": "receiverVersion",
          "type": "uint64",
          "internalType": "uint64"
        }
      ],
      "stateMutability": "pure"
    },
    {
      "type": "function",
      "name": "onftVersion",
      "inputs": [],
      "outputs": [
        {
          "name": "interfaceId",
          "type": "bytes4",
          "internalType": "bytes4"
        },
        {
          "name": "version",
          "type": "uint64",
          "internalType": "uint64"
        }
      ],
      "stateMutability": "pure"
    },
    {
      "type": "function",
      "name": "owner",
      "inputs": [],
      "outputs": [
        {
          "name": "",
          "type": "address",
          "internalType": "address"
        }
      ],
      "stateMutability": "view"
    },
    {
      "type": "function",
      "name": "ownerOf",
      "inputs": [
        {
          "name": "tokenId",
          "type": "uint256",
          "internalType": "uint256"
        }
      ],
      "outputs": [
        {
          "name": "",
          "type": "address",
          "internalType": "address"
        }
      ],
      "stateMutability": "view"
    },
    {
      "type": "function",
      "name": "peers",
      "inputs": [
        {
          "name": "eid",
          "type": "uint32",
          "internalType": "uint32"
        }
      ],
      "outputs": [
        {
          "name": "peer",
          "type": "bytes32",
          "internalType": "bytes32"
        }
      ],
      "stateMutability": "view"
    },
    {
      "type": "function",
      "name": "preCrime",
      "inputs": [],
      "outputs": [
        {
          "name": "",
          "type": "address",
          "internalType": "address"
        }
      ],
      "stateMutability": "view"
    },
    {
      "type": "function",
      "name": "quoteSend",
      "inputs": [
        {
          "name": "_sendParam",
          "type": "tuple",
          "internalType": "struct SendParam",
          "components": [
            {
              "name": "dstEid",
              "type": "uint32",
              "internalType": "uint32"
            },
            {
              "name": "to",
              "type": "bytes32",
              "internalType": "bytes32"
            },
            {
              "name": "tokenIds",
              "type": "uint256[]",
              "internalType": "uint256[]"
            },
            {
              "name": "extraOptions",
              "type": "bytes",
              "internalType": "bytes"
            },
            {
              "name": "composeMsg",
              "type": "bytes",
              "internalType": "bytes"
            }
          ]
        },
        {
          "name": "_payInLzToken",
          "type": "bool",
          "internalType": "bool"
        }
      ],
      "outputs": [
        {
          "name": "msgFee",
          "type": "tuple",
          "internalType": "struct MessagingFee",
          "components": [
            {
              "name": "nativeFee",
              "type": "uint256",
              "internalType": "uint256"
            },
            {
              "name": "lzTokenFee",
              "type": "uint256",
              "internalType": "uint256"
            }
          ]
        }
      ],
      "stateMutability": "view"
    },
    {
      "type": "function",
      "name": "renounceOwnership",
      "inputs": [],
      "outputs": [],
      "stateMutability": "nonpayable"
    },
    {
      "type": "function",
      "name": "safeTransferFrom",
      "inputs": [
        {
          "name": "from",
          "type": "address",
          "internalType": "address"
        },
        {
          "name": "to",
          "type": "address",
          "internalType": "address"
        },
        {
          "name": "tokenId",
          "type": "uint256",
          "internalType": "uint256"
        }
      ],
      "outputs": [],
      "stateMutability": "nonpayable"
    },
    {
      "type": "function",
      "name": "safeTransferFrom",
      "inputs": [
        {
          "name": "from",
          "type": "address",
          "internalType": "address"
        },
        {
          "name": "to",
          "type": "address",
          "internalType": "address"
        },
        {
          "name": "tokenId",
          "type": "uint256",
          "internalType": "uint256"
        },
        {
          "name": "data",
          "type": "bytes",
          "internalType": "bytes"
        }
      ],
      "outputs": [],
      "stateMutability": "nonpayable"
    },
    {
      "type": "function",
      "name": "send",
      "inputs": [
        {
          "name": "_sendParam",
          "type": "tuple",
          "internalType": "struct SendParam",
          "components": [
            {
              "name": "dstEid",
              "type": "uint32",
              "internalType": "uint32"
            },
            {
              "name": "to",
              "type": "bytes32",
              "internalType": "bytes32"
            },
            {
              "name": "tokenIds",
              "type": "uint256[]",
              "internalType": "uint256[]"
            },
            {
              "name": "extraOptions",
              "type": "bytes",
              "internalType": "bytes"
            },
            {
              "name": "composeMsg",
              "type": "bytes",
              "internalType": "bytes"
            }
          ]
        },
        {
          "name": "_fee",
          "type": "tuple",
          "internalType": "struct MessagingFee",
          "components": [
            {
              "name": "nativeFee",
              "type": "uint256",
              "internalType": "uint256"
            },
            {
              "name": "lzTokenFee",
              "type": "uint256",
              "internalType": "uint256"
            }
          ]
        },
        {
          "name": "_refundAddress",
          "type": "address",
          "internalType": "address"
        }
      ],
      "outputs": [
        {
          "name": "msgReceipt",
          "type": "tuple",
          "internalType": "struct MessagingReceipt",
          "components": [
            {
              "name": "guid",
              "type": "bytes32",
              "internalType": "bytes32"
            },
            {
              "name": "nonce",
              "type": "uint64",
              "internalType": "uint64"
            },
            {
              "name": "fee",
              "type": "tuple",
              "internalType": "struct MessagingFee",
              "components": [
                {
                  "name": "nativeFee",
                  "type": "uint256",
                  "internalType": "uint256"
                },
                {
                  "name": "lzTokenFee",
                  "type": "uint256",
                  "internalType": "uint256"
                }
              ]
            }
          ]
        }
      ],
      "stateMutability": "payable"
    },
    {
      "type": "function",
      "name": "setApprovalForAll",
      "inputs": [
        {
          "name": "operator",
          "type": "address",
          "internalType": "address"
        },
        {
          "name": "approved",
          "type": "bool",
          "internalType": "bool"
        }
      ],
      "outputs": [],
      "stateMutability": "nonpayable"
    },
    {
      "type": "function",
      "name": "setDelegate",
      "inputs": [
        {
          "name": "_delegate",
          "type": "address",
          "internalType": "address"
        }
      ],
      "outputs": [],
      "stateMutability": "nonpayable"
    },
    {
      "type": "function",
      "name": "setEnforcedOptions",
      "inputs": [
        {
          "name": "_enforcedOptions",
          "type": "tuple[]",
          "internalType": "struct EnforcedOptionParam[]",
          "components": [
            {
              "name": "eid",
              "type": "uint32",
              "internalType": "uint32"
            },
            {
              "name": "msgType",
              "type": "uint16",
              "internalType": "uint16"
            },
            {
              "name": "options",
              "type": "bytes",
              "internalType": "bytes"
            }
          ]
        }
      ],
      "outputs": [],
      "stateMutability": "nonpayable"
    },
    {
      "type": "function",
      "name": "setMsgInspector",
      "inputs": [
        {
          "name": "_msgInspector",
          "type": "address",
          "internalType": "address"
        }
      ],
      "outputs": [],
      "stateMutability": "nonpayable"
    },
    {
      "type": "function",
      "name": "setPeer",
      "inputs": [
        {
          "name": "_eid",
          "type": "uint32",
          "internalType": "uint32"
        },
        {
          "name": "_peer",
          "type": "bytes32",
          "internalType": "bytes32"
        }
      ],
      "outputs": [],
      "stateMutability": "nonpayable"
    },
    {
      "type": "function",
      "name": "setPreCrime",
      "inputs": [
        {
          "name": "_preCrime",
          "type": "address",
          "internalType": "address"
        }
      ],
      "outputs": [],
      "stateMutability": "nonpayable"
    },
    {
      "type": "function",
      "name": "supportsInterface",
      "inputs": [
        {
          "name": "interfaceId",
          "type": "bytes4",
          "internalType": "bytes4"
        }
      ],
      "outputs": [
        {
          "name": "",
          "type": "bool",
          "internalType": "bool"
        }
      ],
      "stateMutability": "view"
    },
    {
      "type": "function",
      "name": "symbol",
      "inputs": [],
      "outputs": [
        {
          "name": "",
          "type": "string",
          "internalType": "string"
        }
      ],
      "stateMutability": "view"
    },
    {
      "type": "function",
      "name": "toSingletonArray",
      "inputs": [
        {
          "name": "element",
          "type": "uint256",
          "internalType": "uint256"
        }
      ],
      "outputs": [
        {
          "name": "array",
          "type": "uint256[]",
          "internalType": "uint256[]"
        }
      ],
      "stateMutability": "pure"
    },
    {
      "type": "function",
      "name": "token",
      "inputs": [],
      "outputs": [
        {
          "name": "tokenAddress",
          "type": "address",
          "internalType": "address"
        }
      ],
      "stateMutability": "view"
    },
    {
      "type": "function",
      "name": "tokenURI",
      "inputs": [
        {
          "name": "tokenId",
          "type": "uint256",
          "internalType": "uint256"
        }
      ],
      "outputs": [
        {
          "name": "",
          "type": "string",
          "internalType": "string"
        }
      ],
      "stateMutability": "view"
    },
    {
      "type": "function",
      "name": "transferFrom",
      "inputs": [
        {
          "name": "from",
          "type": "address",
          "internalType": "address"
        },
        {
          "name": "to",
          "type": "address",
          "internalType": "address"
        },
        {
          "name": "tokenId",
          "type": "uint256",
          "internalType": "uint256"
        }
      ],
      "outputs": [],
      "stateMutability": "nonpayable"
    },
    {
      "type": "function",
      "name": "transferOwnership",
      "inputs": [
        {
          "name": "newOwner",
          "type": "address",
          "internalType": "address"
        }
      ],
      "outputs": [],
      "stateMutability": "nonpayable"
    },
    {
      "type": "event",
      "name": "Approval",
      "inputs": [
        {
          "name": "owner",
          "type": "address",
          "indexed": true,
          "internalType": "address"
        },
        {
          "name": "approved",
          "type": "address",
          "indexed": true,
          "internalType": "address"
        },
        {
          "name": "tokenId",
          "type": "uint256",
          "indexed": true,
          "internalType": "uint256"
        }
      ],
      "anonymous": false
    },
    {
      "type": "event",
      "name": "ApprovalForAll",
      "inputs": [
        {
          "name": "owner",
          "type": "address",
          "indexed": true,
          "internalType": "address"
        },
        {
          "name": "operator",
          "type": "address",
          "indexed": true,
          "internalType": "address"
        },
        {
          "name": "approved",
          "type": "bool",
          "indexed": false,
          "internalType": "bool"
        }
      ],
      "anonymous": false
    },
    {
      "type": "event",
      "name": "EnforcedOptionSet",
      "inputs": [
        {
          "name": "_enforcedOptions",
          "type": "tuple[]",
          "indexed": false,
          "internalType": "struct EnforcedOptionParam[]",
          "components": [
            {
              "name": "eid",
              "type": "uint32",
              "internalType": "uint32"
            },
            {
              "name": "msgType",
              "type": "uint16",
              "internalType": "uint16"
            },
            {
              "name": "options",
              "type": "bytes",
              "internalType": "bytes"
            }
          ]
        }
      ],
      "anonymous": false
    },
    {
      "type": "event",
      "name": "MsgInspectorSet",
      "inputs": [
        {
          "name": "inspector",
          "type": "address",
          "indexed": false,
          "internalType": "address"
        }
      ],
      "anonymous": false
    },
    {
      "type": "event",
      "name": "ONFTReceived",
      "inputs": [
        {
          "name": "guid",
          "type": "bytes32",
          "indexed": true,
          "internalType": "bytes32"
        },
        {
          "name": "srcEid",
          "type": "uint32",
          "indexed": false,
          "internalType": "uint32"
        },
        {
          "name": "toAddress",
          "type": "address",
          "indexed": true,
          "internalType": "address"
        },
        {
          "name": "tokenId",
          "type": "uint256[]",
          "indexed": false,
          "internalType": "uint256[]"
        }
      ],
      "anonymous": false
    },
    {
      "type": "event",
      "name": "ONFTSent",
      "inputs": [
        {
          "name": "guid",
          "type": "bytes32",
          "indexed": true,
          "internalType": "bytes32"
        },
        {
          "name": "dstEid",
          "type": "uint32",
          "indexed": false,
          "internalType": "uint32"
        },
        {
          "name": "fromAddress",
          "type": "address",
          "indexed": true,
          "internalType": "address"
        },
        {
          "name": "tokenIds",
          "type": "uint256[]",
          "indexed": false,
          "internalType": "uint256[]"
        }
      ],
      "anonymous": false
    },
    {
      "type": "event",
      "name": "OwnershipTransferred",
      "inputs": [
        {
          "name": "previousOwner",
          "type": "address",
          "indexed": true,
          "internalType": "address"
        },
        {
          "name": "newOwner",
          "type": "address",
          "indexed": true,
          "internalType": "address"
        }
      ],
      "anonymous": false
    },
    {
      "type": "event",
      "name": "PeerSet",
      "inputs": [
        {
          "name": "eid",
          "type": "uint32",
          "indexed": false,
          "internalType": "uint32"
        },
        {
          "name": "peer",
          "type": "bytes32",
          "indexed": false,
          "internalType": "bytes32"
        }
      ],
      "anonymous": false
    },
    {
      "type": "event",
      "name": "PreCrimeSet",
      "inputs": [
        {
          "name": "preCrimeAddress",
          "type": "address",
          "indexed": false,
          "internalType": "address"
        }
      ],
      "anonymous": false
    },
    {
      "type": "event",
      "name": "Transfer",
      "inputs": [
        {
          "name": "from",
          "type": "address",
          "indexed": true,
          "internalType": "address"
        },
        {
          "name": "to",
          "type": "address",
          "indexed": true,
          "internalType": "address"
        },
        {
          "name": "tokenId",
          "type": "uint256",
          "indexed": true,
          "internalType": "uint256"
        }
      ],
      "anonymous": false
    },
    {
      "type": "error",
      "name": "AddressEmptyCode",
      "inputs": [
        {
          "name": "target",
          "type": "address",
          "internalType": "address"
        }
      ]
    },
    {
      "type": "error",
      "name": "AddressInsufficientBalance",
      "inputs": [
        {
          "name": "account",
          "type": "address",
          "internalType": "address"
        }
      ]
    },
    {
      "type": "error",
      "name": "ERC721IncorrectOwner",
      "inputs": [
        {
          "name": "sender",
          "type": "address",
          "internalType": "address"
        },
        {
          "name": "tokenId",
          "type": "uint256",
          "internalType": "uint256"
        },
        {
          "name": "owner",
          "type": "address",
          "internalType": "address"
        }
      ]
    },
    {
      "type": "error",
      "name": "ERC721InsufficientApproval",
      "inputs": [
        {
          "name": "operator",
          "type": "address",
          "internalType": "address"
        },
        {
          "name": "tokenId",
          "type": "uint256",
          "internalType": "uint256"
        }
      ]
    },
    {
      "type": "error",
      "name": "ERC721InvalidApprover",
      "inputs": [
        {
          "name": "approver",
          "type": "address",
          "internalType": "address"
        }
      ]
    },
    {
      "type": "error",
      "name": "ERC721InvalidOperator",
      "inputs": [
        {
          "name": "operator",
          "type": "address",
          "internalType": "address"
        }
      ]
    },
    {
      "type": "error",
      "name": "ERC721InvalidOwner",
      "inputs": [
        {
          "name": "owner",
          "type": "address",
          "internalType": "address"
        }
      ]
    },
    {
      "type": "error",
      "name": "ERC721InvalidReceiver",
      "inputs": [
        {
          "name": "receiver",
          "type": "address",
          "internalType": "address"
        }
      ]
    },
    {
      "type": "error",
      "name": "ERC721InvalidSender",
      "inputs": [
        {
          "name": "sender",
          "type": "address",
          "internalType": "address"
        }
      ]
    },
    {
      "type": "error",
      "name": "ERC721NonexistentToken",
      "inputs": [
        {
          "name": "tokenId",
          "type": "uint256",
          "internalType": "uint256"
        }
      ]
    },
    {
      "type": "error",
      "name": "FailedInnerCall",
      "inputs": []
    },
    {
      "type": "error",
      "name": "InvalidDelegate",
      "inputs": []
    },
    {
      "type": "error",
      "name": "InvalidEndpointCall",
      "inputs": []
    },
    {
      "type": "error",
      "name": "InvalidOptions",
      "inputs": [
        {
          "name": "options",
          "type": "bytes",
          "internalType": "bytes"
        }
      ]
    },
    {
      "type": "error",
      "name": "LzTokenUnavailable",
      "inputs": []
    },
    {
      "type": "error",
      "name": "NoPeer",
      "inputs": [
        {
          "name": "eid",
          "type": "uint32",
          "internalType": "uint32"
        }
      ]
    },
    {
      "type": "error",
      "name": "NotEnoughNative",
      "inputs": [
        {
          "name": "msgValue",
          "type": "uint256",
          "internalType": "uint256"
        }
      ]
    },
    {
      "type": "error",
      "name": "OnlyEndpoint",
      "inputs": [
        {
          "name": "addr",
          "type": "address",
          "internalType": "address"
        }
      ]
    },
    {
      "type": "error",
      "name": "OnlyPeer",
      "inputs": [
        {
          "name": "eid",
          "type": "uint32",
          "internalType": "uint32"
        },
        {
          "name": "sender",
          "type": "bytes32",
          "internalType": "bytes32"
        }
      ]
    },
    {
      "type": "error",
      "name": "OnlySelf",
      "inputs": []
    },
    {
      "type": "error",
      "name": "OwnableInvalidOwner",
      "inputs": [
        {
          "name": "owner",
          "type": "address",
          "internalType": "address"
        }
      ]
    },
    {
      "type": "error",
      "name": "OwnableUnauthorizedAccount",
      "inputs": [
        {
          "name": "account",
          "type": "address",
          "internalType": "address"
        }
      ]
    },
    {
      "type": "error",
      "name": "SafeERC20FailedOperation",
      "inputs": [
        {
          "name": "token",
          "type": "address",
          "internalType": "address"
        }
      ]
    },
    {
      "type": "error",
      "name": "SimulationResult",
      "inputs": [
        {
          "name": "result",
          "type": "bytes",
          "internalType": "bytes"
        }
      ]
    },
    {
      "type": "error",
      "name": "UnapprovedSender",
      "inputs": [
        {
          "name": "caller",
          "type": "address",
          "internalType": "address"
        }
      ]
    }
  ],
  "bytecode": {
    "object": "0x60a06040523480156200001157600080fd5b5060405162003d0838038062003d08833981016040819052620000349162000277565b838383838383838381818181806001600160a01b0381166200007057604051631e4fbdf760e01b81526000600482015260240160405180910390fd5b6200007b8162000142565b506001600160a01b038083166080528116620000aa57604051632d618d8160e21b815260040160405180910390fd5b60805160405163ca5eb5e160e01b81526001600160a01b0383811660048301529091169063ca5eb5e190602401600060405180830381600087803b158015620000f257600080fd5b505af115801562000107573d6000803e3d6000fd5b50505050505050505050816005908162000122919062000397565b50600662000131828262000397565b505050505050505050505062000463565b600080546001600160a01b038381166001600160a01b0319831681178455604051919092169283917f8be0079c531659141344cd1fd0a4f28419497f9722a3daafe3b4186f6b6457e09190a35050565b634e487b7160e01b600052604160045260246000fd5b600082601f830112620001ba57600080fd5b81516001600160401b0380821115620001d757620001d762000192565b604051601f8301601f19908116603f0116810190828211818310171562000202576200020262000192565b81604052838152602092508660208588010111156200022057600080fd5b600091505b8382101562000244578582018301518183018401529082019062000225565b6000602085830101528094505050505092915050565b80516001600160a01b03811681146200027257600080fd5b919050565b600080600080608085870312156200028e57600080fd5b84516001600160401b0380821115620002a657600080fd5b620002b488838901620001a8565b95506020870151915080821115620002cb57600080fd5b50620002da87828801620001a8565b935050620002eb604086016200025a565b9150620002fb606086016200025a565b905092959194509250565b600181811c908216806200031b57607f821691505b6020821081036200033c57634e487b7160e01b600052602260045260246000fd5b50919050565b601f82111562000392576000816000526020600020601f850160051c810160208610156200036d5750805b601f850160051c820191505b818110156200038e5782815560010162000379565b5050505b505050565b81516001600160401b03811115620003b357620003b362000192565b620003cb81620003c4845462000306565b8462000342565b602080601f831160018114620004035760008415620003ea5750858301515b600019600386901b1c1916600185901b1785556200038e565b600085815260208120601f198616915b82811015620004345788860151825594840194600190910190840162000413565b5085821015620004535787850151600019600388901b60f8161c191681555b5050505050600190811b01905550565b608051613858620004b06000396000818161059801528181610a670152818161133c0152818161176301528181611a1601528181611b730152818161234e015261240701526138586000f3fe6080604052600436106102ae5760003560e01c806370a0823111610175578063bb0b6a53116100dc578063d424388511610095578063e985e9c51161006f578063e985e9c5146108d4578063f2fde38b146108f4578063fc0c546a1461051c578063ff7bd03d1461091457600080fd5b8063d424388514610867578063d9f2603914610887578063dcdfd911146108b457600080fd5b8063bb0b6a53146107b4578063bc70b354146107e1578063bd815db014610801578063c87b56dd14610814578063ca5eb5e114610834578063d045a0dc1461085457600080fd5b80639f68b9641161012e5780639f68b964146106f8578063a22cb4651461070c578063a72f5dd81461072c578063b731ea0a14610754578063b88d4fde14610774578063b98bd0701461079457600080fd5b806370a0823114610627578063715018a6146106555780637d25a05e1461066a57806382413eac146106a55780638da5cb5b146106c557806395d89b41146106e357600080fd5b806337feb339116102195780635535d461116101d25780635535d4611461052f5780635a0dfe4d1461054f5780635e280f11146105865780636352211e146105ba57806367d121c7146105da5780636fc1b31e1461060757600080fd5b806337feb3391461046457806340c10f191461048457806342842e0e146104a45780634dba701b146104c45780634f558e79146104e457806352ae28791461051c57600080fd5b806313137d651161026b57806313137d65146103b2578063134d4f25146103c557806317442b70146103ed5780631f5e13341461040f57806323b872dd146104245780633400288b1461044457600080fd5b806301ffc9a7146102b357806306fdde03146102e857806307fa3a971461030a578063081812fc14610338578063095ea7b314610370578063111ecdad14610392575b600080fd5b3480156102bf57600080fd5b506102d36102ce36600461277f565b610934565b60405190151581526020015b60405180910390f35b3480156102f457600080fd5b506102fd610986565b6040516102df91906127ec565b34801561031657600080fd5b5061032a610325366004612817565b610a18565b6040516102df92919061284b565b34801561034457600080fd5b50610358610353366004612870565b610a2d565b6040516001600160a01b0390911681526020016102df565b34801561037c57600080fd5b5061039061038b36600461289e565b610a56565b005b34801561039e57600080fd5b50600454610358906001600160a01b031681565b6103906103c0366004612924565b610a65565b3480156103d157600080fd5b506103da600281565b60405161ffff90911681526020016102df565b3480156103f957600080fd5b50604080516001815260026020820152016102df565b34801561041b57600080fd5b506103da600181565b34801561043057600080fd5b5061039061043f3660046129c3565b610b25565b34801561045057600080fd5b5061039061045f366004612a1d565b610bb0565b610477610472366004612a39565b610bc2565b6040516102df9190612aa6565b34801561049057600080fd5b5061039061049f36600461289e565b610ce7565b3480156104b057600080fd5b506103906104bf3660046129c3565b610cf1565b3480156104d057600080fd5b506103906104df366004612ae8565b610d11565b3480156104f057600080fd5b506102d36104ff366004612870565b6000908152600760205260409020546001600160a01b0316151590565b34801561052857600080fd5b5030610358565b34801561053b57600080fd5b506102fd61054a366004612b38565b610d1c565b34801561055b57600080fd5b506102d361056a366004612a1d565b63ffffffff919091166000908152600160205260409020541490565b34801561059257600080fd5b506103587f000000000000000000000000000000000000000000000000000000000000000081565b3480156105c657600080fd5b506103586105d5366004612870565b610dc1565b3480156105e657600080fd5b506105fa6105f5366004612b79565b610dcc565b6040516102df9190612bca565b34801561061357600080fd5b50610390610622366004612be1565b610e55565b34801561063357600080fd5b50610647610642366004612be1565b610eb2565b6040519081526020016102df565b34801561066157600080fd5b50610390610efa565b34801561067657600080fd5b5061068d610685366004612a1d565b600092915050565b6040516001600160401b0390911681526020016102df565b3480156106b157600080fd5b506102d36106c0366004612bfe565b610f0e565b3480156106d157600080fd5b506000546001600160a01b0316610358565b3480156106ef57600080fd5b506102fd610f23565b34801561070457600080fd5b5060006102d3565b34801561071857600080fd5b50610390610727366004612c64565b610f32565b34801561073857600080fd5b506040805163128c844560e31b815260016020820152016102df565b34801561076057600080fd5b50600254610358906001600160a01b031681565b34801561078057600080fd5b5061039061078f366004612d9f565b610f3d565b3480156107a057600080fd5b506103906107af366004612e4e565b610f54565b3480156107c057600080fd5b506106476107cf366004612e8f565b60016020526000908152604090205481565b3480156107ed57600080fd5b506102fd6107fc366004612eaa565b610f6e565b61039061080f366004612e4e565b611116565b34801561082057600080fd5b506102fd61082f366004612870565b6112a0565b34801561084057600080fd5b5061039061084f366004612be1565b611315565b610390610862366004612924565b61139b565b34801561087357600080fd5b50610390610882366004612be1565b6113ca565b34801561089357600080fd5b506108a76108a2366004612870565b611420565b6040516102df9190612f46565b3480156108c057600080fd5b506103906108cf366004612f59565b611467565b3480156108e057600080fd5b506102d36108ef366004612f7c565b611471565b34801561090057600080fd5b5061039061090f366004612be1565b61149f565b34801561092057600080fd5b506102d361092f366004612faa565b6114dd565b60006001600160e01b031982166380ac58cd60e01b148061096557506001600160e01b03198216635b5e139f60e01b145b8061098057506301ffc9a760e01b6001600160e01b03198316145b92915050565b60606005805461099590612fc6565b80601f01602080910402602001604051908101604052809291908181526020018280546109c190612fc6565b8015610a0e5780601f106109e357610100808354040283529160200191610a0e565b820191906000526020600020905b8154815290600101906020018083116109f157829003601f168201915b5050505050905090565b606080610a2483611513565b91509150915091565b6000610a3882611654565b506000828152600960205260409020546001600160a01b0316610980565b610a6182823361168d565b5050565b7f00000000000000000000000000000000000000000000000000000000000000006001600160a01b03163314610ab5576040516391ac5e4f60e01b81523360048201526024015b60405180910390fd5b60208701803590610acf90610aca908a612e8f565b61169a565b14610b0d57610ae16020880188612e8f565b60405163309afaf360e21b815263ffffffff909116600482015260208801356024820152604401610aac565b610b1c878787878787876116d6565b50505050505050565b6001600160a01b038216610b4f57604051633250574960e11b815260006004820152602401610aac565b6000610b5c838333611836565b9050836001600160a01b0316816001600160a01b031614610baa576040516364283d7b60e01b81526001600160a01b0380861660048301526024820184905282166044820152606401610aac565b50505050565b610bb861192f565b610a61828261195c565b610bca612722565b610bd76040850185612ffa565b9050600114610c0d5760405162461bcd60e51b8152602060048201526002602482015261333360f11b6044820152606401610aac565b610c4d610c1d6040860186612ffa565b6000818110610c2e57610c2e613043565b90506020020135856000016020810190610c489190612e8f565b6119b1565b600080610c5986611513565b9092509050610c85610c6e6020880188612e8f565b8383610c7f368a90038a018a613059565b886119e3565b805190935033907f0401f30341613e4bbcac4afa8218a2bd3f1c5d9a870a1e104d77081f4e72b3d6610cba60208a018a612e8f565b610cc760408b018b612ffa565b604051610cd69392919061308b565b60405180910390a350509392505050565b610a618282611aee565b610d0c83838360405180602001604052806000815250610f3d565b505050565b610d0c838383611b53565b600360209081526000928352604080842090915290825290208054610d4090612fc6565b80601f0160208091040260200160405190810160405280929190818152602001828054610d6c90612fc6565b8015610db95780601f10610d8e57610100808354040283529160200191610db9565b820191906000526020600020905b815481529060010190602001808311610d9c57829003601f168201915b505050505081565b600061098082611654565b6040805180820190915260008082526020820152610ded6040840184612ffa565b9050600114610e235760405162461bcd60e51b8152602060048201526002602482015261333360f11b6044820152606401610aac565b600080610e2f85611513565b9092509050610e4c610e446020870187612e8f565b838387611b5d565b95945050505050565b610e5d61192f565b600480546001600160a01b0319166001600160a01b0383169081179091556040519081527ff0be4f1e87349231d80c36b33f9e8639658eeaf474014dee15a3e6a4d4414197906020015b60405180910390a150565b60006001600160a01b038216610ede576040516322718ad960e21b815260006004820152602401610aac565b506001600160a01b031660009081526008602052604090205490565b610f0261192f565b610f0c6000611c35565b565b6001600160a01b03811630145b949350505050565b60606006805461099590612fc6565b610a61338383611c85565b610f48848484610b25565b610baa84848484611d24565b610f5c61192f565b610a61610f6982846130d2565b611e46565b63ffffffff8416600090815260036020908152604080832061ffff87168452909152812080546060929190610fa290612fc6565b80601f0160208091040260200160405190810160405280929190818152602001828054610fce90612fc6565b801561101b5780601f10610ff05761010080835404028352916020019161101b565b820191906000526020600020905b815481529060010190602001808311610ffe57829003601f168201915b50505050509050805160000361106b5783838080601f016020809104026020016040519081016040528093929190818152602001838380828437600092019190915250929450610f1b9350505050565b600083900361107b579050610f1b565b600283106110f9576110c284848080601f016020809104026020016040519081016040528093929190818152602001838380828437600092019190915250611f4d92505050565b806110d084600281886131a7565b6040516020016110e2939291906131d1565b604051602081830303815290604052915050610f1b565b8383604051639a6d49cd60e01b8152600401610aac929190613222565b60005b8181101561121f573683838381811061113457611134613043565b90506020028101906111469190613236565b90506111796111586020830183612e8f565b602083013563ffffffff919091166000908152600160205260409020541490565b6111835750611217565b3063d045a0dc60c08301358360a08101356111a2610100830183613257565b6111b3610100890160e08a01612be1565b6111c16101208a018a613257565b6040518963ffffffff1660e01b81526004016111e397969594939291906132b2565b6000604051808303818588803b1580156111fc57600080fd5b505af1158015611210573d6000803e3d6000fd5b5050505050505b600101611119565b50336001600160a01b0316638e9e70996040518163ffffffff1660e01b8152600401600060405180830381865afa15801561125e573d6000803e3d6000fd5b505050506040513d6000823e601f3d908101601f191682016040526112869190810190613338565b604051638351eea760e01b8152600401610aac91906127ec565b60606112ab82611654565b5060006112c360408051602081019091526000815290565b905060008151116112e3576040518060200160405280600081525061130e565b806112ed84611f79565b6040516020016112fe9291906133a5565b6040516020818303038152906040525b9392505050565b61131d61192f565b60405163ca5eb5e160e01b81526001600160a01b0382811660048301527f0000000000000000000000000000000000000000000000000000000000000000169063ca5eb5e190602401600060405180830381600087803b15801561138057600080fd5b505af1158015611394573d6000803e3d6000fd5b5050505050565b3330146113bb5760405163029a949d60e31b815260040160405180910390fd5b610b1c87878787878787610b0d565b6113d261192f565b600280546001600160a01b0319166001600160a01b0383169081179091556040519081527fd48d879cef83a1c0bdda516f27b13ddb1b3f8bbac1c9e1511bb2a659c242776090602001610ea7565b60408051600180825281830190925260609160208083019080368337019050509050818160008151811061145657611456613043565b602002602001018181525050919050565b610a6182826119b1565b6001600160a01b039182166000908152600a6020908152604080832093909416825291909152205460ff1690565b6114a761192f565b6001600160a01b0381166114d157604051631e4fbdf760e01b815260006004820152602401610aac565b6114da81611c35565b50565b60006020820180359060019083906114f59086612e8f565b63ffffffff1681526020810191909152604001600020541492915050565b606080600061158f602085013561152d6040870187612ffa565b600081811061153e5761153e613043565b905060200201358680608001906115559190613257565b8080601f01602080910402602001604051908101604052809392919081815260200183838082843760009201919091525061200b92505050565b90935090506000816115a25760016115a5565b60025b90506115c56115b76020870187612e8f565b826107fc6060890189613257565b6004549093506001600160a01b03161561164d576004805460405163043a78eb60e01b81526001600160a01b039091169163043a78eb9161160a91889188910161284b565b602060405180830381865afa158015611627573d6000803e3d6000fd5b505050506040513d601f19601f8201168201806040525081019061164b91906133d4565b505b5050915091565b6000818152600760205260408120546001600160a01b03168061098057604051637e27328960e01b815260048101849052602401610aac565b610d0c8383836001612070565b63ffffffff8116600090815260016020526040812054806109805760405163f6ff4fb760e01b815263ffffffff84166004820152602401610aac565b60006116e86116e58787612176565b90565b905060006116f6878761218e565b905061170f828261170a60208d018d612e8f565b611b53565b60408611156117d357600061174961172d60608c0160408d016133f1565b61173a60208d018d612e8f565b6117448b8b6121ab565b6121f6565b604051633e5ac80960e11b81529091506001600160a01b037f00000000000000000000000000000000000000000000000000000000000000001690637cb590129061179f9086908d90600090879060040161340e565b600060405180830381600087803b1580156117b957600080fd5b505af11580156117cd573d6000803e3d6000fd5b50505050505b6001600160a01b038216887fec8eda5e5445175573c1a93ea9795ecbf8a5a885d113294b585f3f51092bc4ab61180c60208d018d612e8f565b61181585611420565b60405161182392919061343f565b60405180910390a3505050505050505050565b6000828152600760205260408120546001600160a01b039081169083161561186357611863818486612225565b6001600160a01b038116156118a157611880600085600080612070565b6001600160a01b038116600090815260086020526040902080546000190190555b6001600160a01b038516156118d0576001600160a01b0385166000908152600860205260409020805460010190555b60008481526007602052604080822080546001600160a01b0319166001600160a01b0389811691821790925591518793918516917fddf252ad1be2c89b69c2b068fc378daa952ba7f163c4a11628f55a4df523b3ef91a4949350505050565b6000546001600160a01b03163314610f0c5760405163118cdaa760e01b8152336004820152602401610aac565b63ffffffff8216600081815260016020908152604091829020849055815192835282018390527f238399d427b947898edb290f5ff0f9109849b1c3ba196a42e35f00c50a54b98b910160405180910390a15050565b6119bb3383612289565b6119da57604051634ddd35b760e01b8152336004820152602401610aac565b610a61826122e7565b6119eb612722565b60006119fa8460000151612322565b602085015190915015611a1457611a14846020015161234a565b7f00000000000000000000000000000000000000000000000000000000000000006001600160a01b0316632637a450826040518060a001604052808b63ffffffff168152602001611a648c61169a565b81526020018a815260200189815260200160008960200151111515815250866040518463ffffffff1660e01b8152600401611aa092919061345e565b60806040518083038185885af1158015611abe573d6000803e3d6000fd5b50505050506040513d601f19601f82011682018060405250810190611ae39190613507565b979650505050505050565b6001600160a01b038216611b1857604051633250574960e11b815260006004820152602401610aac565b6000611b2683836000611836565b90506001600160a01b03811615610d0c576040516339e3563760e11b815260006004820152602401610aac565b610d0c8383611aee565b60408051808201909152600080825260208201527f00000000000000000000000000000000000000000000000000000000000000006001600160a01b031663ddc28c586040518060a001604052808863ffffffff168152602001611bc08961169a565b8152602001878152602001868152602001851515815250306040518363ffffffff1660e01b8152600401611bf592919061345e565b6040805180830381865afa158015611c11573d6000803e3d6000fd5b505050506040513d601f19601f82011682018060405250810190610e4c9190613551565b600080546001600160a01b038381166001600160a01b0319831681178455604051919092169283917f8be0079c531659141344cd1fd0a4f28419497f9722a3daafe3b4186f6b6457e09190a35050565b6001600160a01b038216611cb757604051630b61174360e31b81526001600160a01b0383166004820152602401610aac565b6001600160a01b038381166000818152600a6020908152604080832094871680845294825291829020805460ff191686151590811790915591519182527f17307eab39ab6107e8899845ad3d59bd9653f200f220920489ca2b5937696c31910160405180910390a3505050565b6001600160a01b0383163b15610baa57604051630a85bd0160e11b81526001600160a01b0384169063150b7a0290611d6690339088908790879060040161356d565b6020604051808303816000875af1925050508015611da1575060408051601f3d908101601f19168201909252611d9e918101906135a0565b60015b611e0a573d808015611dcf576040519150601f19603f3d011682016040523d82523d6000602084013e611dd4565b606091505b508051600003611e0257604051633250574960e11b81526001600160a01b0385166004820152602401610aac565b805181602001fd5b6001600160e01b03198116630a85bd0160e11b1461139457604051633250574960e11b81526001600160a01b0385166004820152602401610aac565b60005b8151811015611f1d57611e78828281518110611e6757611e67613043565b602002602001015160400151611f4d565b818181518110611e8a57611e8a613043565b60200260200101516040015160036000848481518110611eac57611eac613043565b60200260200101516000015163ffffffff1663ffffffff1681526020019081526020016000206000848481518110611ee657611ee6613043565b60200260200101516020015161ffff1661ffff1681526020019081526020016000209081611f14919061360d565b50600101611e49565b507fbe4864a8e820971c0247f5992e2da559595f7bf076a21cb5928d443d2a13b67481604051610ea791906136cc565b600281015161ffff8116600314610a615781604051639a6d49cd60e01b8152600401610aac91906127ec565b60606000611f868361242c565b60010190506000816001600160401b03811115611fa557611fa5612c92565b6040519080825280601f01601f191660200182016040528015611fcf576020820181803683370190505b5090508181016020015b600019016f181899199a1a9b1b9c1cb0b131b232b360811b600a86061a8153600a8504945084611fd957509392505050565b805160609015158061203f576040805160208101879052908101859052606001604051602081830303815290604052612066565b848433856040516020016120569493929190613757565b6040516020818303038152906040525b9150935093915050565b808061208457506001600160a01b03821615155b1561214657600061209484611654565b90506001600160a01b038316158015906120c05750826001600160a01b0316816001600160a01b031614155b80156120d357506120d18184611471565b155b156120fc5760405163a9fbf51f60e01b81526001600160a01b0384166004820152602401610aac565b81156121445783856001600160a01b0316826001600160a01b03167f8c5be1e5ebec7d5bd14f71427d1e84f3dd0314c0f7b2291e5b200ac8c7c3b92560405160405180910390a45b505b5050600090815260096020526040902080546001600160a01b0319166001600160a01b0392909216919091179055565b600061218560208284866131a7565b61130e9161378b565b600061219e6040602084866131a7565b81019061130e9190612870565b60606121ba82604081866131a7565b8080601f016020809104026020016040519081016040528093929190818152602001838380828437600092019190915250929695505050505050565b606083838360405160200161220d939291906137a9565b60405160208183030381529060405290509392505050565b612230838383612504565b610d0c576001600160a01b03831661225e57604051637e27328960e01b815260048101829052602401610aac565b60405163177e802f60e01b81526001600160a01b038316600482015260248101829052604401610aac565b60008061229583610dc1565b9050806001600160a01b0316846001600160a01b031614806122bc57506122bc8185611471565b80610f1b5750836001600160a01b03166122d584610a2d565b6001600160a01b031614949350505050565b60006122f66000836000611836565b90506001600160a01b038116610a6157604051637e27328960e01b815260048101839052602401610aac565b6000813414612346576040516304fb820960e51b8152346004820152602401610aac565b5090565b60007f00000000000000000000000000000000000000000000000000000000000000006001600160a01b031663e4fe1d946040518163ffffffff1660e01b8152600401602060405180830381865afa1580156123aa573d6000803e3d6000fd5b505050506040513d601f19601f820116820180604052508101906123ce91906137f3565b90506001600160a01b0381166123f7576040516329b99a9560e11b815260040160405180910390fd5b610a616001600160a01b038216337f000000000000000000000000000000000000000000000000000000000000000085612567565b60008072184f03e93ff9f4daa797ed6e38ed64bf6a1f0160401b831061246b5772184f03e93ff9f4daa797ed6e38ed64bf6a1f0160401b830492506040015b6d04ee2d6d415b85acef81000000008310612497576d04ee2d6d415b85acef8100000000830492506020015b662386f26fc1000083106124b557662386f26fc10000830492506010015b6305f5e10083106124cd576305f5e100830492506008015b61271083106124e157612710830492506004015b606483106124f3576064830492506002015b600a83106109805760010192915050565b60006001600160a01b03831615801590610f1b5750826001600160a01b0316846001600160a01b0316148061253e575061253e8484611471565b80610f1b5750506000908152600960205260409020546001600160a01b03908116911614919050565b604080516001600160a01b038581166024830152848116604483015260648083018590528351808403909101815260849092019092526020810180516001600160e01b03166323b872dd60e01b179052610baa918691906000906125cd9084168361261b565b905080516000141580156125f25750808060200190518101906125f091906133d4565b155b15610d0c57604051635274afe760e01b81526001600160a01b0384166004820152602401610aac565b606061130e8383600084600080856001600160a01b031684866040516126419190613810565b60006040518083038185875af1925050503d806000811461267e576040519150601f19603f3d011682016040523d82523d6000602084013e612683565b606091505b509150915061269386838361269d565b9695505050505050565b6060826126b2576126ad826126f9565b61130e565b81511580156126c957506001600160a01b0384163b155b156126f257604051639996b31560e01b81526001600160a01b0385166004820152602401610aac565b508061130e565b8051156127095780518082602001fd5b604051630a12f52160e11b815260040160405180910390fd5b60405180606001604052806000801916815260200160006001600160401b03168152602001612764604051806040016040528060008152602001600081525090565b905290565b6001600160e01b0319811681146114da57600080fd5b60006020828403121561279157600080fd5b813561130e81612769565b60005b838110156127b757818101518382015260200161279f565b50506000910152565b600081518084526127d881602086016020860161279c565b601f01601f19169290920160200192915050565b60208152600061130e60208301846127c0565b600060a0828403121561281157600080fd5b50919050565b60006020828403121561282957600080fd5b81356001600160401b0381111561283f57600080fd5b610f1b848285016127ff565b60408152600061285e60408301856127c0565b8281036020840152610e4c81856127c0565b60006020828403121561288257600080fd5b5035919050565b6001600160a01b03811681146114da57600080fd5b600080604083850312156128b157600080fd5b82356128bc81612889565b946020939093013593505050565b60006060828403121561281157600080fd5b60008083601f8401126128ee57600080fd5b5081356001600160401b0381111561290557600080fd5b60208301915083602082850101111561291d57600080fd5b9250929050565b600080600080600080600060e0888a03121561293f57600080fd5b61294989896128ca565b96506060880135955060808801356001600160401b038082111561296c57600080fd5b6129788b838c016128dc565b909750955060a08a0135915061298d82612889565b90935060c089013590808211156129a357600080fd5b506129b08a828b016128dc565b989b979a50959850939692959293505050565b6000806000606084860312156129d857600080fd5b83356129e381612889565b925060208401356129f381612889565b929592945050506040919091013590565b803563ffffffff81168114612a1857600080fd5b919050565b60008060408385031215612a3057600080fd5b6128bc83612a04565b60008060008385036080811215612a4f57600080fd5b84356001600160401b03811115612a6557600080fd5b612a71878288016127ff565b9450506040601f1982011215612a8657600080fd5b506020840191506060840135612a9b81612889565b809150509250925092565b6000608082019050825182526001600160401b0360208401511660208301526040830151612ae1604084018280518252602090810151910152565b5092915050565b600080600060608486031215612afd57600080fd5b8335612b0881612889565b925060208401359150612b1d60408501612a04565b90509250925092565b803561ffff81168114612a1857600080fd5b60008060408385031215612b4b57600080fd5b612b5483612a04565b9150612b6260208401612b26565b90509250929050565b80151581146114da57600080fd5b60008060408385031215612b8c57600080fd5b82356001600160401b03811115612ba257600080fd5b612bae858286016127ff565b9250506020830135612bbf81612b6b565b809150509250929050565b815181526020808301519082015260408101610980565b600060208284031215612bf357600080fd5b813561130e81612889565b60008060008060a08587031215612c1457600080fd5b612c1e86866128ca565b935060608501356001600160401b03811115612c3957600080fd5b612c45878288016128dc565b9094509250506080850135612c5981612889565b939692955090935050565b60008060408385031215612c7757600080fd5b8235612c8281612889565b91506020830135612bbf81612b6b565b634e487b7160e01b600052604160045260246000fd5b604080519081016001600160401b0381118282101715612cca57612cca612c92565b60405290565b604051606081016001600160401b0381118282101715612cca57612cca612c92565b604051601f8201601f191681016001600160401b0381118282101715612d1a57612d1a612c92565b604052919050565b60006001600160401b03821115612d3b57612d3b612c92565b50601f01601f191660200190565b600082601f830112612d5a57600080fd5b8135612d6d612d6882612d22565b612cf2565b818152846020838601011115612d8257600080fd5b816020850160208301376000918101602001919091529392505050565b60008060008060808587031215612db557600080fd5b8435612dc081612889565b93506020850135612dd081612889565b92506040850135915060608501356001600160401b03811115612df257600080fd5b612dfe87828801612d49565b91505092959194509250565b60008083601f840112612e1c57600080fd5b5081356001600160401b03811115612e3357600080fd5b6020830191508360208260051b850101111561291d57600080fd5b60008060208385031215612e6157600080fd5b82356001600160401b03811115612e7757600080fd5b612e8385828601612e0a565b90969095509350505050565b600060208284031215612ea157600080fd5b61130e82612a04565b60008060008060608587031215612ec057600080fd5b612ec985612a04565b9350612ed760208601612b26565b925060408501356001600160401b03811115612ef257600080fd5b612efe878288016128dc565b95989497509550505050565b60008151808452602080850194506020840160005b83811015612f3b57815187529582019590820190600101612f1f565b509495945050505050565b60208152600061130e6020830184612f0a565b60008060408385031215612f6c57600080fd5b82359150612b6260208401612a04565b60008060408385031215612f8f57600080fd5b8235612f9a81612889565b91506020830135612bbf81612889565b600060608284031215612fbc57600080fd5b61130e83836128ca565b600181811c90821680612fda57607f821691505b60208210810361281157634e487b7160e01b600052602260045260246000fd5b6000808335601e1984360301811261301157600080fd5b8301803591506001600160401b0382111561302b57600080fd5b6020019150600581901b360382131561291d57600080fd5b634e487b7160e01b600052603260045260246000fd5b60006040828403121561306b57600080fd5b613073612ca8565b82358152602083013560208201528091505092915050565b63ffffffff84168152604060208201819052810182905260006001600160fb1b038311156130b857600080fd5b8260051b8085606085013791909101606001949350505050565b60006001600160401b03808411156130ec576130ec612c92565b8360051b60206130fd818301612cf2565b86815291850191818101903684111561311557600080fd5b865b8481101561319b5780358681111561312f5760008081fd5b880160603682900312156131435760008081fd5b61314b612cd0565b61315482612a04565b8152613161868301612b26565b86820152604080830135898111156131795760008081fd5b61318536828601612d49565b9183019190915250845250918301918301613117565b50979650505050505050565b600080858511156131b757600080fd5b838611156131c457600080fd5b5050820193919092039150565b600084516131e381846020890161279c565b8201838582376000930192835250909392505050565b81835281816020850137506000828201602090810191909152601f909101601f19169091010190565b602081526000610f1b6020830184866131f9565b6000823561013e1983360301811261324d57600080fd5b9190910192915050565b6000808335601e1984360301811261326e57600080fd5b8301803591506001600160401b0382111561328857600080fd5b60200191503681900382131561291d57600080fd5b6001600160401b03811681146114da57600080fd5b63ffffffff6132c089612a04565b16815260208801356020820152600060408901356132dd8161329d565b6001600160401b03811660408401525087606083015260e0608083015261330860e0830187896131f9565b6001600160a01b03861660a084015282810360c084015261332a8185876131f9565b9a9950505050505050505050565b60006020828403121561334a57600080fd5b81516001600160401b0381111561336057600080fd5b8201601f8101841361337157600080fd5b805161337f612d6882612d22565b81815285602083850101111561339457600080fd5b610e4c82602083016020860161279c565b600083516133b781846020880161279c565b8351908301906133cb81836020880161279c565b01949350505050565b6000602082840312156133e657600080fd5b815161130e81612b6b565b60006020828403121561340357600080fd5b813561130e8161329d565b60018060a01b038516815283602082015261ffff8316604082015260806060820152600061269360808301846127c0565b63ffffffff83168152604060208201526000610f1b6040830184612f0a565b6040815263ffffffff8351166040820152602083015160608201526000604084015160a0608084015261349460e08401826127c0565b90506060850151603f198483030160a08501526134b182826127c0565b60809690960151151560c08501525050506001600160a01b039190911660209091015290565b6000604082840312156134e957600080fd5b6134f1612ca8565b9050815181526020820151602082015292915050565b60006080828403121561351957600080fd5b613521612cd0565b8251815260208301516135338161329d565b602082015261354584604085016134d7565b60408201529392505050565b60006040828403121561356357600080fd5b61130e83836134d7565b6001600160a01b0385811682528416602082015260408101839052608060608201819052600090612693908301846127c0565b6000602082840312156135b257600080fd5b815161130e81612769565b601f821115610d0c576000816000526020600020601f850160051c810160208610156135e65750805b601f850160051c820191505b81811015613605578281556001016135f2565b505050505050565b81516001600160401b0381111561362657613626612c92565b61363a816136348454612fc6565b846135bd565b602080601f83116001811461366f57600084156136575750858301515b600019600386901b1c1916600185901b178555613605565b600085815260208120601f198616915b8281101561369e5788860151825594840194600190910190840161367f565b50858210156136bc5787850151600019600388901b60f8161c191681555b5050505050600190811b01905550565b600060208083018184528085518083526040925060408601915060408160051b87010184880160005b8381101561374957888303603f190185528151805163ffffffff1684528781015161ffff16888501528601516060878501819052613735818601836127c0565b9689019694505050908601906001016136f5565b509098975050505050505050565b8481528360208201528260408201526000825161377b81606085016020870161279c565b9190910160600195945050505050565b8035602083101561098057600019602084900360031b1b1692915050565b60c084901b6001600160c01b031916815260e083901b6001600160e01b031916600882015281516000906137e481600c85016020870161279c565b91909101600c01949350505050565b60006020828403121561380557600080fd5b815161130e81612889565b6000825161324d81846020870161279c56fea2646970667358221220f317fda33c6191a2085ed2a9cf21c2d785bff6447de981a320e1f0a163a1c27564736f6c63430008160033",
    "linkReferences": {}
  },
  "methodIdentifiers": {
    "SEND()": "1f5e1334",
    "SEND_AND_CALL()": "134d4f25",
    "allowInitializePath((uint32,bytes32,uint64))": "ff7bd03d",
    "approvalRequired()": "9f68b964",
    "approve(address,uint256)": "095ea7b3",
    "balanceOf(address)": "70a08231",
    "buildMsgAndOptions((uint32,bytes32,uint256[],bytes,bytes))": "07fa3a97",
    "combineOptions(uint32,uint16,bytes)": "bc70b354",
    "credit(address,uint256,uint32)": "4dba701b",
    "debit(uint256,uint32)": "dcdfd911",
    "endpoint()": "5e280f11",
    "enforcedOptions(uint32,uint16)": "5535d461",
    "exists(uint256)": "4f558e79",
    "getApproved(uint256)": "081812fc",
    "isApprovedForAll(address,address)": "e985e9c5",
    "isComposeMsgSender((uint32,bytes32,uint64),bytes,address)": "82413eac",
    "isPeer(uint32,bytes32)": "5a0dfe4d",
    "lzReceive((uint32,bytes32,uint64),bytes32,bytes,address,bytes)": "13137d65",
    "lzReceiveAndRevert(((uint32,bytes32,uint64),uint32,address,bytes32,uint256,address,bytes,bytes)[])": "bd815db0",
    "lzReceiveSimulate((uint32,bytes32,uint64),bytes32,bytes,address,bytes)": "d045a0dc",
    "mint(address,uint256)": "40c10f19",
    "msgInspector()": "111ecdad",
    "name()": "06fdde03",
    "nextNonce(uint32,bytes32)": "7d25a05e",
    "oApp()": "52ae2879",
    "oAppVersion()": "17442b70",
    "onftVersion()": "a72f5dd8",
    "owner()": "8da5cb5b",
    "ownerOf(uint256)": "6352211e",
    "peers(uint32)": "bb0b6a53",
    "preCrime()": "b731ea0a",
    "quoteSend((uint32,bytes32,uint256[],bytes,bytes),bool)": "67d121c7",
    "renounceOwnership()": "715018a6",
    "safeTransferFrom(address,address,uint256)": "42842e0e",
    "safeTransferFrom(address,address,uint256,bytes)": "b88d4fde",
    "send((uint32,bytes32,uint256[],bytes,bytes),(uint256,uint256),address)": "37feb339",
    "setApprovalForAll(address,bool)": "a22cb465",
    "setDelegate(address)": "ca5eb5e1",
    "setEnforcedOptions((uint32,uint16,bytes)[])": "b98bd070",
    "setMsgInspector(address)": "6fc1b31e",
    "setPeer(uint32,bytes32)": "3400288b",
    "setPreCrime(address)": "d4243885",
    "supportsInterface(bytes4)": "01ffc9a7",
    "symbol()": "95d89b41",
    "toSingletonArray(uint256)": "d9f26039",
    "token()": "fc0c546a",
    "tokenURI(uint256)": "c87b56dd",
    "transferFrom(address,address,uint256)": "23b872dd",
    "transferOwnership(address)": "f2fde38b"
  },
  "id": 133
}