{"@layerzerolabs/oft-hyperliquid-evm/contracts/library/HyperLiquidComposerCodec.sol":{"HyperLiquidComposerCodec":{"abi":[{"inputs":[{"internalType":"bytes","name":"message","type":"bytes"},{"internalType":"uint256","name":"length","type":"uint256"}],"name":"HyperLiquidComposer_Codec_InvalidMessage_UnexpectedLength","type":"error"},{"inputs":[],"name":"BASE_ASSET_BRIDGE_ADDRESS","outputs":[{"internalType":"address","name":"","type":"address"}],"stateMutability":"view","type":"function"},{"inputs":[],"name":"BASE_ASSET_BRIDGE_ADDRESS_UINT256","outputs":[{"internalType":"uint256","name":"","type":"uint256"}],"stateMutability":"view","type":"function"},{"inputs":[],"name":"VALID_COMPOSE_MESSAGE_LENGTH_PACKED","outputs":[{"internalType":"uint256","name":"","type":"uint256"}],"stateMutability":"view","type":"function"}],"devdoc":{"kind":"dev","methods":{},"stateVariables":{"BASE_ASSET_BRIDGE_ADDRESS":{"details":"The base asset bridge address is the address of the HyperLiquid L1 contractThis is the address that the OFT contract will transfer the tokens to when we want to send tokens to HyperLiquid L1https://hyperliquid.gitbook.io/hyperliquid-docs/for-developers/hyperevm/hypercore-less-than-greater-than-hyperevm-transfers#system-addressesIt is formed by 0x2000...0000 + the core index id"},"VALID_COMPOSE_MESSAGE_LENGTH_PACKED":{"details":"The length of the message that is valid for the HyperLiquidComposerThis is 20 bytes because addresses are 20 bytesWe are in encodePacked mode, if we are in encode mode, the length is 42 bytes"}},"version":1},"evm":{"bytecode":{"linkReferences":{},"object":"60c7610039600b82828239805160001a60731461002c57634e487b7160e01b600052600060045260246000fd5b30600052607381538281f3fe730000000000000000000000000000000000000000301460806040526004361060475760003560e01c806303e41b7714604c578063807d6c3f146069578063d58daedf146070575b600080fd5b60566001609d1b81565b6040519081526020015b60405180910390f35b6056601481565b607a6001609d1b81565b6040516001600160a01b039091168152602001606056fea2646970667358221220f94b8dcef822c944719f5b1d4d5ae5caec3900555216d16238b04b3aa962a39c64736f6c63430008160033","opcodes":"PUSH1 0xC7 PUSH2 0x39 PUSH1 0xB DUP3 DUP3 DUP3 CODECOPY DUP1 MLOAD PUSH1 0x0 BYTE PUSH1 0x73 EQ PUSH2 0x2C JUMPI PUSH4 0x4E487B71 PUSH1 0xE0 SHL PUSH1 0x0 MSTORE PUSH1 0x0 PUSH1 0x4 MSTORE PUSH1 0x24 PUSH1 0x0 REVERT JUMPDEST ADDRESS PUSH1 0x0 MSTORE PUSH1 0x73 DUP2 MSTORE8 DUP3 DUP2 RETURN INVALID PUSH20 0x0 ADDRESS EQ PUSH1 0x80 PUSH1 0x40 MSTORE PUSH1 0x4 CALLDATASIZE LT PUSH1 0x47 JUMPI PUSH1 0x0 CALLDATALOAD PUSH1 0xE0 SHR DUP1 PUSH4 0x3E41B77 EQ PUSH1 0x4C JUMPI DUP1 PUSH4 0x807D6C3F EQ PUSH1 0x69 JUMPI DUP1 PUSH4 0xD58DAEDF EQ PUSH1 0x70 JUMPI JUMPDEST PUSH1 0x0 DUP1 REVERT JUMPDEST PUSH1 0x56 PUSH1 0x1 PUSH1 0x9D SHL DUP2 JUMP JUMPDEST PUSH1 0x40 MLOAD SWAP1 DUP2 MSTORE PUSH1 0x20 ADD JUMPDEST PUSH1 0x40 MLOAD DUP1 SWAP2 SUB SWAP1 RETURN JUMPDEST PUSH1 0x56 PUSH1 0x14 DUP2 JUMP JUMPDEST PUSH1 0x7A PUSH1 0x1 PUSH1 0x9D SHL DUP2 JUMP JUMPDEST PUSH1 0x40 MLOAD PUSH1 0x1 PUSH1 0x1 PUSH1 0xA0 SHL SUB SWAP1 SWAP2 AND DUP2 MSTORE PUSH1 0x20 ADD PUSH1 0x60 JUMP INVALID LOG2 PUSH5 0x6970667358 0x22 SLT KECCAK256 0xF9 0x4B DUP14 0xCE 0xF8 0x22 0xC9 PREVRANDAO PUSH18 0x9F5B1D4D5AE5CAEC3900555216D16238B04B GASPRICE 0xA9 PUSH3 0xA39C64 PUSH20 0x6F6C634300081600330000000000000000000000 "},"gasEstimates":{"creation":{"codeDepositCost":"39800","executionCost":"124","totalCost":"39924"},"external":{"BASE_ASSET_BRIDGE_ADDRESS()":"228","BASE_ASSET_BRIDGE_ADDRESS_UINT256()":"152","VALID_COMPOSE_MESSAGE_LENGTH_PACKED()":"168"},"internal":{"into_assetBridgeAddress(uint256)":"infinite","into_tokenId(address)":"infinite","validateAndDecodeMessage(bytes calldata)":"infinite"}},"methodIdentifiers":{"BASE_ASSET_BRIDGE_ADDRESS()":"d58daedf","BASE_ASSET_BRIDGE_ADDRESS_UINT256()":"03e41b77","VALID_COMPOSE_MESSAGE_LENGTH_PACKED()":"807d6c3f"}},"storageLayout":{"storage":[],"types":null},"userdoc":{"kind":"user","methods":{},"version":1}}}}