{"contracts/MyHyperCoreAdapter.sol":{"MyHyperCoreAdapter":{"abi":[{"inputs":[{"internalType":"address","name":"_lzEndpoint","type":"address"},{"internalType":"address","name":"_oft","type":"address"},{"internalType":"uint64","name":"_hlIndexId","type":"uint64"},{"internalType":"uint256","name":"_weiDiff","type":"uint256"}],"stateMutability":"nonpayable","type":"constructor"},{"inputs":[{"internalType":"bytes","name":"message","type":"bytes"},{"internalType":"uint256","name":"length","type":"uint256"}],"name":"HyperLiquidComposer_Codec_InvalidMessage_UnexpectedLength","type":"error"},{"inputs":[{"internalType":"address","name":"_notEndpointAddress","type":"address"}],"name":"HyperLiquidComposer_InvalidCall_NotEndpoint","type":"error"},{"inputs":[{"internalType":"address","name":"_internalOFTAddress","type":"address"},{"internalType":"address","name":"_receivedOFTAddress","type":"address"}],"name":"HyperLiquidComposer_InvalidCall_NotOFT","type":"error"},{"inputs":[{"internalType":"address","name":"_oft","type":"address"},{"internalType":"address","name":"_token","type":"address"}],"name":"HyperLiquidComposer_InvalidCall_TokenDoesNotSupportExtension","type":"error"},{"inputs":[],"name":"HYPER_CORE_INDEX_ID","outputs":[{"internalType":"uint64","name":"","type":"uint64"}],"stateMutability":"view","type":"function"},{"inputs":[],"name":"HYPER_CORE_INDEX_ID_DECIMAL_DIFF","outputs":[{"internalType":"uint256","name":"","type":"uint256"}],"stateMutability":"view","type":"function"},{"inputs":[],"name":"HYPE_ASSET_BRIDGE_ADDRESS","outputs":[{"internalType":"address payable","name":"","type":"address"}],"stateMutability":"view","type":"function"},{"inputs":[],"name":"L1WritePrecompileAddress","outputs":[{"internalType":"address","name":"","type":"address"}],"stateMutability":"view","type":"function"},{"inputs":[],"name":"OFT_TOKEN_ASSET_BRIDGE_ADDRESS","outputs":[{"internalType":"address","name":"","type":"address"}],"stateMutability":"view","type":"function"},{"inputs":[],"name":"OFT_TOKEN_CORE_INDEX_ID","outputs":[{"internalType":"uint64","name":"","type":"uint64"}],"stateMutability":"view","type":"function"},{"inputs":[],"name":"endpoint","outputs":[{"internalType":"address","name":"","type":"address"}],"stateMutability":"view","type":"function"},{"inputs":[{"internalType":"address","name":"receiever","type":"address"},{"internalType":"uint256","name":"amount","type":"uint256"}],"name":"fundAddressOnHyperCore","outputs":[],"stateMutability":"nonpayable","type":"function"},{"inputs":[{"internalType":"address","name":"_oft","type":"address"},{"internalType":"bytes32","name":"","type":"bytes32"},{"internalType":"bytes","name":"_message","type":"bytes"},{"internalType":"address","name":"","type":"address"},{"internalType":"bytes","name":"","type":"bytes"}],"name":"lzCompose","outputs":[],"stateMutability":"payable","type":"function"},{"inputs":[],"name":"oft","outputs":[{"internalType":"contract IOFT","name":"","type":"address"}],"stateMutability":"view","type":"function"},{"inputs":[{"internalType":"address","name":"receiever","type":"address"},{"internalType":"uint256","name":"amount","type":"uint256"}],"name":"sendAssetToHyperCore","outputs":[],"stateMutability":"nonpayable","type":"function"},{"inputs":[],"name":"token","outputs":[{"internalType":"contract IERC20","name":"","type":"address"}],"stateMutability":"view","type":"function"},{"inputs":[],"name":"weiDiff","outputs":[{"internalType":"uint256","name":"","type":"uint256"}],"stateMutability":"view","type":"function"},{"stateMutability":"payable","type":"receive"}],"devdoc":{"kind":"dev","methods":{"lzCompose(address,bytes32,bytes,address,bytes)":{"details":"This function is called by the OFTCore contract when a message is sent","params":{"_message":"The encoded message content, expected to be of type: (address receiver).","_oft":"The address of the OFT contract."}}},"version":1},"evm":{"bytecode":{"linkReferences":{},"object":"6101406040523480156200001257600080fd5b5060405162000de538038062000de5833981016040819052620000359162000142565b83838383826001600160a01b031660e0816001600160a01b03168152505060e0516001600160a01b031663fc0c546a6040518163ffffffff1660e01b8152600401602060405180830381865afa15801562000094573d6000803e3d6000fd5b505050506040513d601f19601f82011682018060405250810190620000ba9190620001a2565b6001600160a01b0390811661010052841660c052620000e26001600160401b0383166200010d565b6001600160a01b03166080526001600160401b0390911660a0526101205250620001e9945050505050565b60006200011f826001609d1b620001c7565b92915050565b80516001600160a01b03811681146200013d57600080fd5b919050565b600080600080608085870312156200015957600080fd5b620001648562000125565b9350620001746020860162000125565b60408601519093506001600160401b03811681146200019257600080fd5b6060959095015193969295505050565b600060208284031215620001b557600080fd5b620001c08262000125565b9392505050565b808201808211156200011f57634e487b7160e01b600052601160045260246000fd5b60805160a05160c05160e0516101005161012051610b7b6200026a6000396000818161011801526106e40152600081816102fc015261063501526000818161025e0152818161038801526103cc01526000818161019a015261033701526000818161022a01526106c00152600081816101f601526106060152610b7b6000f3fe6080604052600436106100c65760003560e01c80639a923b9a1161007f578063d0a1026011610059578063d0a10260146102a2578063d9acf0ec146102b5578063dd4c07c8146102d5578063fc0c546a146102ea57600080fd5b80639a923b9a146102185780639b5215f61461024c578063b7c312e61461028057600080fd5b80630813f32f146100d2578063303f1e811461010657806355cd1378146101485780635e280f11146101885780636e3bf0ad146101bc57806384123305146101e457600080fd5b366100cd57005b600080fd5b3480156100de57600080fd5b506100e861045181565b60405167ffffffffffffffff90911681526020015b60405180910390f35b34801561011257600080fd5b5061013a7f000000000000000000000000000000000000000000000000000000000000000081565b6040519081526020016100fd565b34801561015457600080fd5b5061017073333333333333333333333333333333333333333381565b6040516001600160a01b0390911681526020016100fd565b34801561019457600080fd5b506101707f000000000000000000000000000000000000000000000000000000000000000081565b3480156101c857600080fd5b5061017073222222222222222222222222222222222222222281565b3480156101f057600080fd5b506101707f000000000000000000000000000000000000000000000000000000000000000081565b34801561022457600080fd5b506100e87f000000000000000000000000000000000000000000000000000000000000000081565b34801561025857600080fd5b506101707f000000000000000000000000000000000000000000000000000000000000000081565b34801561028c57600080fd5b506102a061029b366004610811565b61031e565b005b6102a06102b0366004610884565b61032c565b3480156102c157600080fd5b506102a06102d0366004610811565b610438565b3480156102e157600080fd5b5061013a600a81565b3480156102f657600080fd5b506101707f000000000000000000000000000000000000000000000000000000000000000081565b6103288282610442565b5050565b336001600160a01b037f0000000000000000000000000000000000000000000000000000000000000000161461037c5760405163eee35e6f60e01b81523360048201526024015b60405180910390fd5b866001600160a01b03167f00000000000000000000000000000000000000000000000000000000000000006001600160a01b0316146104015760405163021bfb8360e61b81526001600160a01b037f00000000000000000000000000000000000000000000000000000000000000008116600483015288166024820152604401610373565b60008061040e8787610596565b90925090503415610423576104238234610442565b61042d82826105ef565b505050505050505050565b61032882826105ef565b6040516000907322222222222222222222222222222222222222229083908381818185875af1925050503d8060008114610498576040519150601f19603f3d011682016040523d82523d6000602084013e61049d565b606091505b50509050806104ee5760405162461bcd60e51b815260206004820181905260248201527f4661696c656420746f2073656e64204859504520746f204879706572436f72656044820152606401610373565b733333333333333333333333333333333333333333630b0ac0ab84610451610517600a80610a1c565b6105219087610a28565b6040516001600160e01b031960e086901b1681526001600160a01b03909316600484015267ffffffffffffffff9182166024840152166044820152606401600060405180830381600087803b15801561057957600080fd5b505af115801561058d573d6000803e3d6000fd5b50505050505050565b60008060006105a58585610788565b905060148151146105cd5780516040516309b3473160e01b8152610373918391600401610a4a565b6105d681610a9f565b60601c92506105e585856107d5565b9150509250929050565b60405163a9059cbb60e01b81526001600160a01b037f000000000000000000000000000000000000000000000000000000000000000081166004830152602482018390527f0000000000000000000000000000000000000000000000000000000000000000169063a9059cbb906044016020604051808303816000875af115801561067e573d6000803e3d6000fd5b505050506040513d601f19601f820116820180604052508101906106a29190610adb565b50733333333333333333333333333333333333333333630b0ac0ab837f000000000000000000000000000000000000000000000000000000000000000061070a7f0000000000000000000000000000000000000000000000000000000000000000600a610a1c565b6107149086610a28565b6040516001600160e01b031960e086901b1681526001600160a01b03909316600484015267ffffffffffffffff9182166024840152166044820152606401600060405180830381600087803b15801561076c57600080fd5b505af1158015610780573d6000803e3d6000fd5b505050505050565b606061079782604c8186610afd565b8080601f0160208091040260200160405190810160405280939291908181526020018383808284376000920191909152509293505050505b92915050565b60006107e5602c600c8486610afd565b6107ee91610b27565b9392505050565b80356001600160a01b038116811461080c57600080fd5b919050565b6000806040838503121561082457600080fd5b61082d836107f5565b946020939093013593505050565b60008083601f84011261084d57600080fd5b50813567ffffffffffffffff81111561086557600080fd5b60208301915083602082850101111561087d57600080fd5b9250929050565b600080600080600080600060a0888a03121561089f57600080fd5b6108a8886107f5565b965060208801359550604088013567ffffffffffffffff808211156108cc57600080fd5b6108d88b838c0161083b565b90975095508591506108ec60608b016107f5565b945060808a013591508082111561090257600080fd5b5061090f8a828b0161083b565b989b979a50959850939692959293505050565b634e487b7160e01b600052601160045260246000fd5b600181815b8085111561097357816000190482111561095957610959610922565b8085161561096657918102915b93841c939080029061093d565b509250929050565b60008261098a575060016107cf565b81610997575060006107cf565b81600181146109ad57600281146109b7576109d3565b60019150506107cf565b60ff8411156109c8576109c8610922565b50506001821b6107cf565b5060208310610133831016604e8410600b84101617156109f6575081810a6107cf565b610a008383610938565b8060001904821115610a1457610a14610922565b029392505050565b60006107ee838361097b565b600082610a4557634e487b7160e01b600052601260045260246000fd5b500490565b604081526000835180604084015260005b81811015610a785760208187018101516060868401015201610a5b565b506000606082850101526060601f19601f8301168401019150508260208301529392505050565b805160208201516bffffffffffffffffffffffff198082169291906014831015610ad35780818460140360031b1b83161693505b505050919050565b600060208284031215610aed57600080fd5b815180151581146107ee57600080fd5b60008085851115610b0d57600080fd5b83861115610b1a57600080fd5b5050820193919092039150565b803560208310156107cf57600019602084900360031b1b169291505056fea2646970667358221220c4f2710927a196119e967aafdb892ea710f6b3d7b1399206d6df3be388014a1764736f6c63430008160033","opcodes":"PUSH2 0x140 PUSH1 0x40 MSTORE CALLVALUE DUP1 ISZERO PUSH3 0x12 JUMPI PUSH1 0x0 DUP1 REVERT JUMPDEST POP PUSH1 0x40 MLOAD PUSH3 0xDE5 CODESIZE SUB DUP1 PUSH3 0xDE5 DUP4 CODECOPY DUP2 ADD PUSH1 0x40 DUP2 SWAP1 MSTORE PUSH3 0x35 SWAP2 PUSH3 0x142 JUMP JUMPDEST DUP4 DUP4 DUP4 DUP4 DUP3 PUSH1 0x1 PUSH1 0x1 PUSH1 0xA0 SHL SUB AND PUSH1 0xE0 DUP2 PUSH1 0x1 PUSH1 0x1 PUSH1 0xA0 SHL SUB AND DUP2 MSTORE POP POP PUSH1 0xE0 MLOAD PUSH1 0x1 PUSH1 0x1 PUSH1 0xA0 SHL SUB AND PUSH4 0xFC0C546A PUSH1 0x40 MLOAD DUP2 PUSH4 0xFFFFFFFF AND PUSH1 0xE0 SHL DUP2 MSTORE PUSH1 0x4 ADD PUSH1 0x20 PUSH1 0x40 MLOAD DUP1 DUP4 SUB DUP2 DUP7 GAS STATICCALL ISZERO DUP1 ISZERO PUSH3 0x94 JUMPI RETURNDATASIZE PUSH1 0x0 DUP1 RETURNDATACOPY RETURNDATASIZE PUSH1 0x0 REVERT JUMPDEST POP POP POP POP PUSH1 0x40 MLOAD RETURNDATASIZE PUSH1 0x1F NOT PUSH1 0x1F DUP3 ADD AND DUP3 ADD DUP1 PUSH1 0x40 MSTORE POP DUP2 ADD SWAP1 PUSH3 0xBA SWAP2 SWAP1 PUSH3 0x1A2 JUMP JUMPDEST PUSH1 0x1 PUSH1 0x1 PUSH1 0xA0 SHL SUB SWAP1 DUP2 AND PUSH2 0x100 MSTORE DUP5 AND PUSH1 0xC0 MSTORE PUSH3 0xE2 PUSH1 0x1 PUSH1 0x1 PUSH1 0x40 SHL SUB DUP4 AND PUSH3 0x10D JUMP JUMPDEST PUSH1 0x1 PUSH1 0x1 PUSH1 0xA0 SHL SUB AND PUSH1 0x80 MSTORE PUSH1 0x1 PUSH1 0x1 PUSH1 0x40 SHL SUB SWAP1 SWAP2 AND PUSH1 0xA0 MSTORE PUSH2 0x120 MSTORE POP PUSH3 0x1E9 SWAP5 POP POP POP POP POP JUMP JUMPDEST PUSH1 0x0 PUSH3 0x11F DUP3 PUSH1 0x1 PUSH1 0x9D SHL PUSH3 0x1C7 JUMP JUMPDEST SWAP3 SWAP2 POP POP JUMP JUMPDEST DUP1 MLOAD PUSH1 0x1 PUSH1 0x1 PUSH1 0xA0 SHL SUB DUP2 AND DUP2 EQ PUSH3 0x13D JUMPI PUSH1 0x0 DUP1 REVERT JUMPDEST SWAP2 SWAP1 POP JUMP JUMPDEST PUSH1 0x0 DUP1 PUSH1 0x0 DUP1 PUSH1 0x80 DUP6 DUP8 SUB SLT ISZERO PUSH3 0x159 JUMPI PUSH1 0x0 DUP1 REVERT JUMPDEST PUSH3 0x164 DUP6 PUSH3 0x125 JUMP JUMPDEST SWAP4 POP PUSH3 0x174 PUSH1 0x20 DUP7 ADD PUSH3 0x125 JUMP JUMPDEST PUSH1 0x40 DUP7 ADD MLOAD SWAP1 SWAP4 POP PUSH1 0x1 PUSH1 0x1 PUSH1 0x40 SHL SUB DUP2 AND DUP2 EQ PUSH3 0x192 JUMPI PUSH1 0x0 DUP1 REVERT JUMPDEST PUSH1 0x60 SWAP6 SWAP1 SWAP6 ADD MLOAD SWAP4 SWAP7 SWAP3 SWAP6 POP POP POP JUMP JUMPDEST PUSH1 0x0 PUSH1 0x20 DUP3 DUP5 SUB SLT ISZERO PUSH3 0x1B5 JUMPI PUSH1 0x0 DUP1 REVERT JUMPDEST PUSH3 0x1C0 DUP3 PUSH3 0x125 JUMP JUMPDEST SWAP4 SWAP3 POP POP POP JUMP JUMPDEST DUP1 DUP3 ADD DUP1 DUP3 GT ISZERO PUSH3 0x11F JUMPI PUSH4 0x4E487B71 PUSH1 0xE0 SHL PUSH1 0x0 MSTORE PUSH1 0x11 PUSH1 0x4 MSTORE PUSH1 0x24 PUSH1 0x0 REVERT JUMPDEST PUSH1 0x80 MLOAD PUSH1 0xA0 MLOAD PUSH1 0xC0 MLOAD PUSH1 0xE0 MLOAD PUSH2 0x100 MLOAD PUSH2 0x120 MLOAD PUSH2 0xB7B PUSH3 0x26A PUSH1 0x0 CODECOPY PUSH1 0x0 DUP2 DUP2 PUSH2 0x118 ADD MSTORE PUSH2 0x6E4 ADD MSTORE PUSH1 0x0 DUP2 DUP2 PUSH2 0x2FC ADD MSTORE PUSH2 0x635 ADD MSTORE PUSH1 0x0 DUP2 DUP2 PUSH2 0x25E ADD MSTORE DUP2 DUP2 PUSH2 0x388 ADD MSTORE PUSH2 0x3CC ADD MSTORE PUSH1 0x0 DUP2 DUP2 PUSH2 0x19A ADD MSTORE PUSH2 0x337 ADD MSTORE PUSH1 0x0 DUP2 DUP2 PUSH2 0x22A ADD MSTORE PUSH2 0x6C0 ADD MSTORE PUSH1 0x0 DUP2 DUP2 PUSH2 0x1F6 ADD MSTORE PUSH2 0x606 ADD MSTORE PUSH2 0xB7B PUSH1 0x0 RETURN INVALID PUSH1 0x80 PUSH1 0x40 MSTORE PUSH1 0x4 CALLDATASIZE LT PUSH2 0xC6 JUMPI PUSH1 0x0 CALLDATALOAD PUSH1 0xE0 SHR DUP1 PUSH4 0x9A923B9A GT PUSH2 0x7F JUMPI DUP1 PUSH4 0xD0A10260 GT PUSH2 0x59 JUMPI DUP1 PUSH4 0xD0A10260 EQ PUSH2 0x2A2 JUMPI DUP1 PUSH4 0xD9ACF0EC EQ PUSH2 0x2B5 JUMPI DUP1 PUSH4 0xDD4C07C8 EQ PUSH2 0x2D5 JUMPI DUP1 PUSH4 0xFC0C546A EQ PUSH2 0x2EA JUMPI PUSH1 0x0 DUP1 REVERT JUMPDEST DUP1 PUSH4 0x9A923B9A EQ PUSH2 0x218 JUMPI DUP1 PUSH4 0x9B5215F6 EQ PUSH2 0x24C JUMPI DUP1 PUSH4 0xB7C312E6 EQ PUSH2 0x280 JUMPI PUSH1 0x0 DUP1 REVERT JUMPDEST DUP1 PUSH4 0x813F32F EQ PUSH2 0xD2 JUMPI DUP1 PUSH4 0x303F1E81 EQ PUSH2 0x106 JUMPI DUP1 PUSH4 0x55CD1378 EQ PUSH2 0x148 JUMPI DUP1 PUSH4 0x5E280F11 EQ PUSH2 0x188 JUMPI DUP1 PUSH4 0x6E3BF0AD EQ PUSH2 0x1BC JUMPI DUP1 PUSH4 0x84123305 EQ PUSH2 0x1E4 JUMPI PUSH1 0x0 DUP1 REVERT JUMPDEST CALLDATASIZE PUSH2 0xCD JUMPI STOP JUMPDEST PUSH1 0x0 DUP1 REVERT JUMPDEST CALLVALUE DUP1 ISZERO PUSH2 0xDE JUMPI PUSH1 0x0 DUP1 REVERT JUMPDEST POP PUSH2 0xE8 PUSH2 0x451 DUP2 JUMP JUMPDEST PUSH1 0x40 MLOAD PUSH8 0xFFFFFFFFFFFFFFFF SWAP1 SWAP2 AND DUP2 MSTORE PUSH1 0x20 ADD JUMPDEST PUSH1 0x40 MLOAD DUP1 SWAP2 SUB SWAP1 RETURN JUMPDEST CALLVALUE DUP1 ISZERO PUSH2 0x112 JUMPI PUSH1 0x0 DUP1 REVERT JUMPDEST POP PUSH2 0x13A PUSH32 0x0 DUP2 JUMP JUMPDEST PUSH1 0x40 MLOAD SWAP1 DUP2 MSTORE PUSH1 0x20 ADD PUSH2 0xFD JUMP JUMPDEST CALLVALUE DUP1 ISZERO PUSH2 0x154 JUMPI PUSH1 0x0 DUP1 REVERT JUMPDEST POP PUSH2 0x170 PUSH20 0x3333333333333333333333333333333333333333 DUP2 JUMP JUMPDEST PUSH1 0x40 MLOAD PUSH1 0x1 PUSH1 0x1 PUSH1 0xA0 SHL SUB SWAP1 SWAP2 AND DUP2 MSTORE PUSH1 0x20 ADD PUSH2 0xFD JUMP JUMPDEST CALLVALUE DUP1 ISZERO PUSH2 0x194 JUMPI PUSH1 0x0 DUP1 REVERT JUMPDEST POP PUSH2 0x170 PUSH32 0x0 DUP2 JUMP JUMPDEST CALLVALUE DUP1 ISZERO PUSH2 0x1C8 JUMPI PUSH1 0x0 DUP1 REVERT JUMPDEST POP PUSH2 0x170 PUSH20 0x2222222222222222222222222222222222222222 DUP2 JUMP JUMPDEST CALLVALUE DUP1 ISZERO PUSH2 0x1F0 JUMPI PUSH1 0x0 DUP1 REVERT JUMPDEST POP PUSH2 0x170 PUSH32 0x0 DUP2 JUMP JUMPDEST CALLVALUE DUP1 ISZERO PUSH2 0x224 JUMPI PUSH1 0x0 DUP1 REVERT JUMPDEST POP PUSH2 0xE8 PUSH32 0x0 DUP2 JUMP JUMPDEST CALLVALUE DUP1 ISZERO PUSH2 0x258 JUMPI PUSH1 0x0 DUP1 REVERT JUMPDEST POP PUSH2 0x170 PUSH32 0x0 DUP2 JUMP JUMPDEST CALLVALUE DUP1 ISZERO PUSH2 0x28C JUMPI PUSH1 0x0 DUP1 REVERT JUMPDEST POP PUSH2 0x2A0 PUSH2 0x29B CALLDATASIZE PUSH1 0x4 PUSH2 0x811 JUMP JUMPDEST PUSH2 0x31E JUMP JUMPDEST STOP JUMPDEST PUSH2 0x2A0 PUSH2 0x2B0 CALLDATASIZE PUSH1 0x4 PUSH2 0x884 JUMP JUMPDEST PUSH2 0x32C JUMP JUMPDEST CALLVALUE DUP1 ISZERO PUSH2 0x2C1 JUMPI PUSH1 0x0 DUP1 REVERT JUMPDEST POP PUSH2 0x2A0 PUSH2 0x2D0 CALLDATASIZE PUSH1 0x4 PUSH2 0x811 JUMP JUMPDEST PUSH2 0x438 JUMP JUMPDEST CALLVALUE DUP1 ISZERO PUSH2 0x2E1 JUMPI PUSH1 0x0 DUP1 REVERT JUMPDEST POP PUSH2 0x13A PUSH1 0xA DUP2 JUMP JUMPDEST CALLVALUE DUP1 ISZERO PUSH2 0x2F6 JUMPI PUSH1 0x0 DUP1 REVERT JUMPDEST POP PUSH2 0x170 PUSH32 0x0 DUP2 JUMP JUMPDEST PUSH2 0x328 DUP3 DUP3 PUSH2 0x442 JUMP JUMPDEST POP POP JUMP JUMPDEST CALLER PUSH1 0x1 PUSH1 0x1 PUSH1 0xA0 SHL SUB PUSH32 0x0 AND EQ PUSH2 0x37C JUMPI PUSH1 0x40 MLOAD PUSH4 0xEEE35E6F PUSH1 0xE0 SHL DUP2 MSTORE CALLER PUSH1 0x4 DUP3 ADD MSTORE PUSH1 0x24 ADD JUMPDEST PUSH1 0x40 MLOAD DUP1 SWAP2 SUB SWAP1 REVERT JUMPDEST DUP7 PUSH1 0x1 PUSH1 0x1 PUSH1 0xA0 SHL SUB AND PUSH32 0x0 PUSH1 0x1 PUSH1 0x1 PUSH1 0xA0 SHL SUB AND EQ PUSH2 0x401 JUMPI PUSH1 0x40 MLOAD PUSH4 0x21BFB83 PUSH1 0xE6 SHL DUP2 MSTORE PUSH1 0x1 PUSH1 0x1 PUSH1 0xA0 SHL SUB PUSH32 0x0 DUP2 AND PUSH1 0x4 DUP4 ADD MSTORE DUP9 AND PUSH1 0x24 DUP3 ADD MSTORE PUSH1 0x44 ADD PUSH2 0x373 JUMP JUMPDEST PUSH1 0x0 DUP1 PUSH2 0x40E DUP8 DUP8 PUSH2 0x596 JUMP JUMPDEST SWAP1 SWAP3 POP SWAP1 POP CALLVALUE ISZERO PUSH2 0x423 JUMPI PUSH2 0x423 DUP3 CALLVALUE PUSH2 0x442 JUMP JUMPDEST PUSH2 0x42D DUP3 DUP3 PUSH2 0x5EF JUMP JUMPDEST POP POP POP POP POP POP POP POP POP JUMP JUMPDEST PUSH2 0x328 DUP3 DUP3 PUSH2 0x5EF JUMP JUMPDEST PUSH1 0x40 MLOAD PUSH1 0x0 SWAP1 PUSH20 0x2222222222222222222222222222222222222222 SWAP1 DUP4 SWAP1 DUP4 DUP2 DUP2 DUP2 DUP6 DUP8 GAS CALL SWAP3 POP POP POP RETURNDATASIZE DUP1 PUSH1 0x0 DUP2 EQ PUSH2 0x498 JUMPI PUSH1 0x40 MLOAD SWAP2 POP PUSH1 0x1F NOT PUSH1 0x3F RETURNDATASIZE ADD AND DUP3 ADD PUSH1 0x40 MSTORE RETURNDATASIZE DUP3 MSTORE RETURNDATASIZE PUSH1 0x0 PUSH1 0x20 DUP5 ADD RETURNDATACOPY PUSH2 0x49D JUMP JUMPDEST PUSH1 0x60 SWAP2 POP JUMPDEST POP POP SWAP1 POP DUP1 PUSH2 0x4EE JUMPI PUSH1 0x40 MLOAD PUSH3 0x461BCD PUSH1 0xE5 SHL DUP2 MSTORE PUSH1 0x20 PUSH1 0x4 DUP3 ADD DUP2 SWAP1 MSTORE PUSH1 0x24 DUP3 ADD MSTORE PUSH32 0x4661696C656420746F2073656E64204859504520746F204879706572436F7265 PUSH1 0x44 DUP3 ADD MSTORE PUSH1 0x64 ADD PUSH2 0x373 JUMP JUMPDEST PUSH20 0x3333333333333333333333333333333333333333 PUSH4 0xB0AC0AB DUP5 PUSH2 0x451 PUSH2 0x517 PUSH1 0xA DUP1 PUSH2 0xA1C JUMP JUMPDEST PUSH2 0x521 SWAP1 DUP8 PUSH2 0xA28 JUMP JUMPDEST PUSH1 0x40 MLOAD PUSH1 0x1 PUSH1 0x1 PUSH1 0xE0 SHL SUB NOT PUSH1 0xE0 DUP7 SWAP1 SHL AND DUP2 MSTORE PUSH1 0x1 PUSH1 0x1 PUSH1 0xA0 SHL SUB SWAP1 SWAP4 AND PUSH1 0x4 DUP5 ADD MSTORE PUSH8 0xFFFFFFFFFFFFFFFF SWAP2 DUP3 AND PUSH1 0x24 DUP5 ADD MSTORE AND PUSH1 0x44 DUP3 ADD MSTORE PUSH1 0x64 ADD PUSH1 0x0 PUSH1 0x40 MLOAD DUP1 DUP4 SUB DUP2 PUSH1 0x0 DUP8 DUP1 EXTCODESIZE ISZERO DUP1 ISZERO PUSH2 0x579 JUMPI PUSH1 0x0 DUP1 REVERT JUMPDEST POP GAS CALL ISZERO DUP1 ISZERO PUSH2 0x58D JUMPI RETURNDATASIZE PUSH1 0x0 DUP1 RETURNDATACOPY RETURNDATASIZE PUSH1 0x0 REVERT JUMPDEST POP POP POP POP POP POP POP JUMP JUMPDEST PUSH1 0x0 DUP1 PUSH1 0x0 PUSH2 0x5A5 DUP6 DUP6 PUSH2 0x788 JUMP JUMPDEST SWAP1 POP PUSH1 0x14 DUP2 MLOAD EQ PUSH2 0x5CD JUMPI DUP1 MLOAD PUSH1 0x40 MLOAD PUSH4 0x9B34731 PUSH1 0xE0 SHL DUP2 MSTORE PUSH2 0x373 SWAP2 DUP4 SWAP2 PUSH1 0x4 ADD PUSH2 0xA4A JUMP JUMPDEST PUSH2 0x5D6 DUP2 PUSH2 0xA9F JUMP JUMPDEST PUSH1 0x60 SHR SWAP3 POP PUSH2 0x5E5 DUP6 DUP6 PUSH2 0x7D5 JUMP JUMPDEST SWAP2 POP POP SWAP3 POP SWAP3 SWAP1 POP JUMP JUMPDEST PUSH1 0x40 MLOAD PUSH4 0xA9059CBB PUSH1 0xE0 SHL DUP2 MSTORE PUSH1 0x1 PUSH1 0x1 PUSH1 0xA0 SHL SUB PUSH32 0x0 DUP2 AND PUSH1 0x4 DUP4 ADD MSTORE PUSH1 0x24 DUP3 ADD DUP4 SWAP1 MSTORE PUSH32 0x0 AND SWAP1 PUSH4 0xA9059CBB SWAP1 PUSH1 0x44 ADD PUSH1 0x20 PUSH1 0x40 MLOAD DUP1 DUP4 SUB DUP2 PUSH1 0x0 DUP8 GAS CALL ISZERO DUP1 ISZERO PUSH2 0x67E JUMPI RETURNDATASIZE PUSH1 0x0 DUP1 RETURNDATACOPY RETURNDATASIZE PUSH1 0x0 REVERT JUMPDEST POP POP POP POP PUSH1 0x40 MLOAD RETURNDATASIZE PUSH1 0x1F NOT PUSH1 0x1F DUP3 ADD AND DUP3 ADD DUP1 PUSH1 0x40 MSTORE POP DUP2 ADD SWAP1 PUSH2 0x6A2 SWAP2 SWAP1 PUSH2 0xADB JUMP JUMPDEST POP PUSH20 0x3333333333333333333333333333333333333333 PUSH4 0xB0AC0AB DUP4 PUSH32 0x0 PUSH2 0x70A PUSH32 0x0 PUSH1 0xA PUSH2 0xA1C JUMP JUMPDEST PUSH2 0x714 SWAP1 DUP7 PUSH2 0xA28 JUMP JUMPDEST PUSH1 0x40 MLOAD PUSH1 0x1 PUSH1 0x1 PUSH1 0xE0 SHL SUB NOT PUSH1 0xE0 DUP7 SWAP1 SHL AND DUP2 MSTORE PUSH1 0x1 PUSH1 0x1 PUSH1 0xA0 SHL SUB SWAP1 SWAP4 AND PUSH1 0x4 DUP5 ADD MSTORE PUSH8 0xFFFFFFFFFFFFFFFF SWAP2 DUP3 AND PUSH1 0x24 DUP5 ADD MSTORE AND PUSH1 0x44 DUP3 ADD MSTORE PUSH1 0x64 ADD PUSH1 0x0 PUSH1 0x40 MLOAD DUP1 DUP4 SUB DUP2 PUSH1 0x0 DUP8 DUP1 EXTCODESIZE ISZERO DUP1 ISZERO PUSH2 0x76C JUMPI PUSH1 0x0 DUP1 REVERT JUMPDEST POP GAS CALL ISZERO DUP1 ISZERO PUSH2 0x780 JUMPI RETURNDATASIZE PUSH1 0x0 DUP1 RETURNDATACOPY RETURNDATASIZE PUSH1 0x0 REVERT JUMPDEST POP POP POP POP POP POP JUMP JUMPDEST PUSH1 0x60 PUSH2 0x797 DUP3 PUSH1 0x4C DUP2 DUP7 PUSH2 0xAFD JUMP JUMPDEST DUP1 DUP1 PUSH1 0x1F ADD PUSH1 0x20 DUP1 SWAP2 DIV MUL PUSH1 0x20 ADD PUSH1 0x40 MLOAD SWAP1 DUP2 ADD PUSH1 0x40 MSTORE DUP1 SWAP4 SWAP3 SWAP2 SWAP1 DUP2 DUP2 MSTORE PUSH1 0x20 ADD DUP4 DUP4 DUP1 DUP3 DUP5 CALLDATACOPY PUSH1 0x0 SWAP3 ADD SWAP2 SWAP1 SWAP2 MSTORE POP SWAP3 SWAP4 POP POP POP POP JUMPDEST SWAP3 SWAP2 POP POP JUMP JUMPDEST PUSH1 0x0 PUSH2 0x7E5 PUSH1 0x2C PUSH1 0xC DUP5 DUP7 PUSH2 0xAFD JUMP JUMPDEST PUSH2 0x7EE SWAP2 PUSH2 0xB27 JUMP JUMPDEST SWAP4 SWAP3 POP POP POP JUMP JUMPDEST DUP1 CALLDATALOAD PUSH1 0x1 PUSH1 0x1 PUSH1 0xA0 SHL SUB DUP2 AND DUP2 EQ PUSH2 0x80C JUMPI PUSH1 0x0 DUP1 REVERT JUMPDEST SWAP2 SWAP1 POP JUMP JUMPDEST PUSH1 0x0 DUP1 PUSH1 0x40 DUP4 DUP6 SUB SLT ISZERO PUSH2 0x824 JUMPI PUSH1 0x0 DUP1 REVERT JUMPDEST PUSH2 0x82D DUP4 PUSH2 0x7F5 JUMP JUMPDEST SWAP5 PUSH1 0x20 SWAP4 SWAP1 SWAP4 ADD CALLDATALOAD SWAP4 POP POP POP JUMP JUMPDEST PUSH1 0x0 DUP1 DUP4 PUSH1 0x1F DUP5 ADD SLT PUSH2 0x84D JUMPI PUSH1 0x0 DUP1 REVERT JUMPDEST POP DUP2 CALLDATALOAD PUSH8 0xFFFFFFFFFFFFFFFF DUP2 GT ISZERO PUSH2 0x865 JUMPI PUSH1 0x0 DUP1 REVERT JUMPDEST PUSH1 0x20 DUP4 ADD SWAP2 POP DUP4 PUSH1 0x20 DUP3 DUP6 ADD ADD GT ISZERO PUSH2 0x87D JUMPI PUSH1 0x0 DUP1 REVERT JUMPDEST SWAP3 POP SWAP3 SWAP1 POP JUMP JUMPDEST PUSH1 0x0 DUP1 PUSH1 0x0 DUP1 PUSH1 0x0 DUP1 PUSH1 0x0 PUSH1 0xA0 DUP9 DUP11 SUB SLT ISZERO PUSH2 0x89F JUMPI PUSH1 0x0 DUP1 REVERT JUMPDEST PUSH2 0x8A8 DUP9 PUSH2 0x7F5 JUMP JUMPDEST SWAP7 POP PUSH1 0x20 DUP9 ADD CALLDATALOAD SWAP6 POP PUSH1 0x40 DUP9 ADD CALLDATALOAD PUSH8 0xFFFFFFFFFFFFFFFF DUP1 DUP3 GT ISZERO PUSH2 0x8CC JUMPI PUSH1 0x0 DUP1 REVERT JUMPDEST PUSH2 0x8D8 DUP12 DUP4 DUP13 ADD PUSH2 0x83B JUMP JUMPDEST SWAP1 SWAP8 POP SWAP6 POP DUP6 SWAP2 POP PUSH2 0x8EC PUSH1 0x60 DUP12 ADD PUSH2 0x7F5 JUMP JUMPDEST SWAP5 POP PUSH1 0x80 DUP11 ADD CALLDATALOAD SWAP2 POP DUP1 DUP3 GT ISZERO PUSH2 0x902 JUMPI PUSH1 0x0 DUP1 REVERT JUMPDEST POP PUSH2 0x90F DUP11 DUP3 DUP12 ADD PUSH2 0x83B JUMP JUMPDEST SWAP9 SWAP12 SWAP8 SWAP11 POP SWAP6 SWAP9 POP SWAP4 SWAP7 SWAP3 SWAP6 SWAP3 SWAP4 POP POP POP JUMP JUMPDEST PUSH4 0x4E487B71 PUSH1 0xE0 SHL PUSH1 0x0 MSTORE PUSH1 0x11 PUSH1 0x4 MSTORE PUSH1 0x24 PUSH1 0x0 REVERT JUMPDEST PUSH1 0x1 DUP2 DUP2 JUMPDEST DUP1 DUP6 GT ISZERO PUSH2 0x973 JUMPI DUP2 PUSH1 0x0 NOT DIV DUP3 GT ISZERO PUSH2 0x959 JUMPI PUSH2 0x959 PUSH2 0x922 JUMP JUMPDEST DUP1 DUP6 AND ISZERO PUSH2 0x966 JUMPI SWAP2 DUP2 MUL SWAP2 JUMPDEST SWAP4 DUP5 SHR SWAP4 SWAP1 DUP1 MUL SWAP1 PUSH2 0x93D JUMP JUMPDEST POP SWAP3 POP SWAP3 SWAP1 POP JUMP JUMPDEST PUSH1 0x0 DUP3 PUSH2 0x98A JUMPI POP PUSH1 0x1 PUSH2 0x7CF JUMP JUMPDEST DUP2 PUSH2 0x997 JUMPI POP PUSH1 0x0 PUSH2 0x7CF JUMP JUMPDEST DUP2 PUSH1 0x1 DUP2 EQ PUSH2 0x9AD JUMPI PUSH1 0x2 DUP2 EQ PUSH2 0x9B7 JUMPI PUSH2 0x9D3 JUMP JUMPDEST PUSH1 0x1 SWAP2 POP POP PUSH2 0x7CF JUMP JUMPDEST PUSH1 0xFF DUP5 GT ISZERO PUSH2 0x9C8 JUMPI PUSH2 0x9C8 PUSH2 0x922 JUMP JUMPDEST POP POP PUSH1 0x1 DUP3 SHL PUSH2 0x7CF JUMP JUMPDEST POP PUSH1 0x20 DUP4 LT PUSH2 0x133 DUP4 LT AND PUSH1 0x4E DUP5 LT PUSH1 0xB DUP5 LT AND OR ISZERO PUSH2 0x9F6 JUMPI POP DUP2 DUP2 EXP PUSH2 0x7CF JUMP JUMPDEST PUSH2 0xA00 DUP4 DUP4 PUSH2 0x938 JUMP JUMPDEST DUP1 PUSH1 0x0 NOT DIV DUP3 GT ISZERO PUSH2 0xA14 JUMPI PUSH2 0xA14 PUSH2 0x922 JUMP JUMPDEST MUL SWAP4 SWAP3 POP POP POP JUMP JUMPDEST PUSH1 0x0 PUSH2 0x7EE DUP4 DUP4 PUSH2 0x97B JUMP JUMPDEST PUSH1 0x0 DUP3 PUSH2 0xA45 JUMPI PUSH4 0x4E487B71 PUSH1 0xE0 SHL PUSH1 0x0 MSTORE PUSH1 0x12 PUSH1 0x4 MSTORE PUSH1 0x24 PUSH1 0x0 REVERT JUMPDEST POP DIV SWAP1 JUMP JUMPDEST PUSH1 0x40 DUP2 MSTORE PUSH1 0x0 DUP4 MLOAD DUP1 PUSH1 0x40 DUP5 ADD MSTORE PUSH1 0x0 JUMPDEST DUP2 DUP2 LT ISZERO PUSH2 0xA78 JUMPI PUSH1 0x20 DUP2 DUP8 ADD DUP2 ADD MLOAD PUSH1 0x60 DUP7 DUP5 ADD ADD MSTORE ADD PUSH2 0xA5B JUMP JUMPDEST POP PUSH1 0x0 PUSH1 0x60 DUP3 DUP6 ADD ADD MSTORE PUSH1 0x60 PUSH1 0x1F NOT PUSH1 0x1F DUP4 ADD AND DUP5 ADD ADD SWAP2 POP POP DUP3 PUSH1 0x20 DUP4 ADD MSTORE SWAP4 SWAP3 POP POP POP JUMP JUMPDEST DUP1 MLOAD PUSH1 0x20 DUP3 ADD MLOAD PUSH12 0xFFFFFFFFFFFFFFFFFFFFFFFF NOT DUP1 DUP3 AND SWAP3 SWAP2 SWAP1 PUSH1 0x14 DUP4 LT ISZERO PUSH2 0xAD3 JUMPI DUP1 DUP2 DUP5 PUSH1 0x14 SUB PUSH1 0x3 SHL SHL DUP4 AND AND SWAP4 POP JUMPDEST POP POP POP SWAP2 SWAP1 POP JUMP JUMPDEST PUSH1 0x0 PUSH1 0x20 DUP3 DUP5 SUB SLT ISZERO PUSH2 0xAED JUMPI PUSH1 0x0 DUP1 REVERT JUMPDEST DUP2 MLOAD DUP1 ISZERO ISZERO DUP2 EQ PUSH2 0x7EE JUMPI PUSH1 0x0 DUP1 REVERT JUMPDEST PUSH1 0x0 DUP1 DUP6 DUP6 GT ISZERO PUSH2 0xB0D JUMPI PUSH1 0x0 DUP1 REVERT JUMPDEST DUP4 DUP7 GT ISZERO PUSH2 0xB1A JUMPI PUSH1 0x0 DUP1 REVERT JUMPDEST POP POP DUP3 ADD SWAP4 SWAP2 SWAP1 SWAP3 SUB SWAP2 POP JUMP JUMPDEST DUP1 CALLDATALOAD PUSH1 0x20 DUP4 LT ISZERO PUSH2 0x7CF JUMPI PUSH1 0x0 NOT PUSH1 0x20 DUP5 SWAP1 SUB PUSH1 0x3 SHL SHL AND SWAP3 SWAP2 POP POP JUMP INVALID LOG2 PUSH5 0x6970667358 0x22 SLT KECCAK256 0xC4 CALLCODE PUSH18 0x927A196119E967AAFDB892EA710F6B3D7B1 CODECOPY SWAP3 MOD 0xD6 0xDF EXTCODESIZE 0xE3 DUP9 ADD 0x4A OR PUSH5 0x736F6C6343 STOP ADDMOD AND STOP CALLER "},"gasEstimates":{"creation":{"codeDepositCost":"587800","executionCost":"infinite","totalCost":"infinite"},"external":{"HYPER_CORE_INDEX_ID()":"194","HYPER_CORE_INDEX_ID_DECIMAL_DIFF()":"261","HYPE_ASSET_BRIDGE_ADDRESS()":"305","L1WritePrecompileAddress()":"261","OFT_TOKEN_ASSET_BRIDGE_ADDRESS()":"infinite","OFT_TOKEN_CORE_INDEX_ID()":"infinite","endpoint()":"infinite","fundAddressOnHyperCore(address,uint256)":"infinite","lzCompose(address,bytes32,bytes,address,bytes)":"infinite","oft()":"infinite","sendAssetToHyperCore(address,uint256)":"infinite","token()":"infinite","weiDiff()":"infinite"}},"methodIdentifiers":{"HYPER_CORE_INDEX_ID()":"0813f32f","HYPER_CORE_INDEX_ID_DECIMAL_DIFF()":"dd4c07c8","HYPE_ASSET_BRIDGE_ADDRESS()":"6e3bf0ad","L1WritePrecompileAddress()":"55cd1378","OFT_TOKEN_ASSET_BRIDGE_ADDRESS()":"84123305","OFT_TOKEN_CORE_INDEX_ID()":"9a923b9a","endpoint()":"5e280f11","fundAddressOnHyperCore(address,uint256)":"b7c312e6","lzCompose(address,bytes32,bytes,address,bytes)":"d0a10260","oft()":"9b5215f6","sendAssetToHyperCore(address,uint256)":"d9acf0ec","token()":"fc0c546a","weiDiff()":"303f1e81"}},"storageLayout":{"storage":[],"types":null},"userdoc":{"kind":"user","methods":{"lzCompose(address,bytes32,bytes,address,bytes)":{"notice":"Composes a message to be sent to the HyperLiquidLZComposerThis function is the only new addition to the OFT standard"}},"version":1}}}}