{"contracts/WrappedHyperCoreAdapter.sol":{"WrappedHyperCoreAdapter":{"abi":[{"inputs":[{"internalType":"address","name":"_lzEndpoint","type":"address"},{"internalType":"address","name":"_oft","type":"address"},{"internalType":"uint64","name":"_hlIndexId","type":"uint64"},{"internalType":"uint256","name":"_weiDiff","type":"uint256"}],"stateMutability":"nonpayable","type":"constructor"},{"inputs":[{"internalType":"bytes","name":"message","type":"bytes"},{"internalType":"uint256","name":"length","type":"uint256"}],"name":"HyperLiquidComposer_Codec_InvalidMessage_UnexpectedLength","type":"error"},{"inputs":[{"internalType":"address","name":"_notEndpointAddress","type":"address"}],"name":"HyperLiquidComposer_InvalidCall_NotEndpoint","type":"error"},{"inputs":[{"internalType":"address","name":"_internalOFTAddress","type":"address"},{"internalType":"address","name":"_receivedOFTAddress","type":"address"}],"name":"HyperLiquidComposer_InvalidCall_NotOFT","type":"error"},{"inputs":[{"internalType":"address","name":"_oft","type":"address"},{"internalType":"address","name":"_token","type":"address"}],"name":"HyperLiquidComposer_InvalidCall_TokenDoesNotSupportExtension","type":"error"},{"inputs":[],"name":"HYPER_CORE_INDEX_ID","outputs":[{"internalType":"uint64","name":"","type":"uint64"}],"stateMutability":"view","type":"function"},{"inputs":[],"name":"HYPER_CORE_INDEX_ID_DECIMAL_DIFF","outputs":[{"internalType":"uint256","name":"","type":"uint256"}],"stateMutability":"view","type":"function"},{"inputs":[],"name":"HYPE_ASSET_BRIDGE_ADDRESS","outputs":[{"internalType":"address payable","name":"","type":"address"}],"stateMutability":"view","type":"function"},{"inputs":[],"name":"L1WritePrecompileAddress","outputs":[{"internalType":"address","name":"","type":"address"}],"stateMutability":"view","type":"function"},{"inputs":[],"name":"OFT_TOKEN_ASSET_BRIDGE_ADDRESS","outputs":[{"internalType":"address","name":"","type":"address"}],"stateMutability":"view","type":"function"},{"inputs":[],"name":"OFT_TOKEN_CORE_INDEX_ID","outputs":[{"internalType":"uint64","name":"","type":"uint64"}],"stateMutability":"view","type":"function"},{"inputs":[],"name":"endpoint","outputs":[{"internalType":"address","name":"","type":"address"}],"stateMutability":"view","type":"function"},{"inputs":[{"internalType":"address","name":"receiever","type":"address"},{"internalType":"uint256","name":"amount","type":"uint256"}],"name":"fundAddressOnHyperCore","outputs":[],"stateMutability":"payable","type":"function"},{"inputs":[{"internalType":"address","name":"","type":"address"},{"internalType":"bytes32","name":"","type":"bytes32"},{"internalType":"bytes","name":"_message","type":"bytes"},{"internalType":"address","name":"","type":"address"},{"internalType":"bytes","name":"","type":"bytes"}],"name":"lzCompose","outputs":[],"stateMutability":"payable","type":"function"},{"inputs":[],"name":"oft","outputs":[{"internalType":"contract IOFT","name":"","type":"address"}],"stateMutability":"view","type":"function"},{"inputs":[{"internalType":"address","name":"receiever","type":"address"},{"internalType":"uint256","name":"amount","type":"uint256"}],"name":"sendAssetToHyperCore","outputs":[],"stateMutability":"nonpayable","type":"function"},{"inputs":[],"name":"token","outputs":[{"internalType":"contract IERC20","name":"","type":"address"}],"stateMutability":"view","type":"function"},{"inputs":[],"name":"weiDiff","outputs":[{"internalType":"uint256","name":"","type":"uint256"}],"stateMutability":"view","type":"function"},{"stateMutability":"payable","type":"receive"}],"devdoc":{"kind":"dev","methods":{"lzCompose(address,bytes32,bytes,address,bytes)":{"details":"This function is called by the OFTCore contract when a message is sent","params":{"_message":"The encoded message content, expected to be of type: (address receiver)."}}},"version":1},"evm":{"bytecode":{"linkReferences":{},"object":"61014060405234801561001157600080fd5b5060405162000d2f38038062000d2f83398101604081905261003291610136565b83838383826001600160a01b031660e0816001600160a01b03168152505060e0516001600160a01b031663fc0c546a6040518163ffffffff1660e01b8152600401602060405180830381865afa158015610090573d6000803e3d6000fd5b505050506040513d601f19601f820116820180604052508101906100b49190610190565b6001600160a01b0390811661010052841660c0526100da6001600160401b038316610104565b6001600160a01b03166080526001600160401b0390911660a05261012052506101d3945050505050565b6000610114826001609d1b6101b2565b92915050565b80516001600160a01b038116811461013157600080fd5b919050565b6000806000806080858703121561014c57600080fd5b6101558561011a565b93506101636020860161011a565b60408601519093506001600160401b038116811461018057600080fd5b6060959095015193969295505050565b6000602082840312156101a257600080fd5b6101ab8261011a565b9392505050565b8082018082111561011457634e487b7160e01b600052601160045260246000fd5b60805160a05160c05160e0516101005161012051610ae9620002466000396000818161011801526106520152600081816102ef01526105a30152600061025e01526000818161019a015261032a01526000818161022a015261062e0152600081816101f601526105740152610ae96000f3fe6080604052600436106100c65760003560e01c80639a923b9a1161007f578063d0a1026011610059578063d0a1026014610295578063d9acf0ec146102a8578063dd4c07c8146102c8578063fc0c546a146102dd57600080fd5b80639a923b9a146102185780639b5215f61461024c578063b7c312e61461028057600080fd5b80630813f32f146100d2578063303f1e811461010657806355cd1378146101485780635e280f11146101885780636e3bf0ad146101bc57806384123305146101e457600080fd5b366100cd57005b600080fd5b3480156100de57600080fd5b506100e861045181565b60405167ffffffffffffffff90911681526020015b60405180910390f35b34801561011257600080fd5b5061013a7f000000000000000000000000000000000000000000000000000000000000000081565b6040519081526020016100fd565b34801561015457600080fd5b5061017073333333333333333333333333333333333333333381565b6040516001600160a01b0390911681526020016100fd565b34801561019457600080fd5b506101707f000000000000000000000000000000000000000000000000000000000000000081565b3480156101c857600080fd5b5061017073222222222222222222222222222222222222222281565b3480156101f057600080fd5b506101707f000000000000000000000000000000000000000000000000000000000000000081565b34801561022457600080fd5b506100e87f000000000000000000000000000000000000000000000000000000000000000081565b34801561025857600080fd5b506101707f000000000000000000000000000000000000000000000000000000000000000081565b61029361028e36600461077f565b610311565b005b6102936102a33660046107f2565b61031f565b3480156102b457600080fd5b506102936102c336600461077f565b6103a6565b3480156102d457600080fd5b5061013a600a81565b3480156102e957600080fd5b506101707f000000000000000000000000000000000000000000000000000000000000000081565b61031b82826103b0565b5050565b336001600160a01b037f0000000000000000000000000000000000000000000000000000000000000000161461036f5760405163eee35e6f60e01b81523360048201526024015b60405180910390fd5b60008061037c8787610504565b909250905034156103915761039182346103b0565b61039b828261055d565b505050505050505050565b61031b828261055d565b6040516000907322222222222222222222222222222222222222229083908381818185875af1925050503d8060008114610406576040519150601f19603f3d011682016040523d82523d6000602084013e61040b565b606091505b505090508061045c5760405162461bcd60e51b815260206004820181905260248201527f4661696c656420746f2073656e64204859504520746f204879706572436f72656044820152606401610366565b733333333333333333333333333333333333333333630b0ac0ab84610451610485600a8061098a565b61048f9087610996565b6040516001600160e01b031960e086901b1681526001600160a01b03909316600484015267ffffffffffffffff9182166024840152166044820152606401600060405180830381600087803b1580156104e757600080fd5b505af11580156104fb573d6000803e3d6000fd5b50505050505050565b600080600061051385856106f6565b9050601481511461053b5780516040516309b3473160e01b81526103669183916004016109b8565b61054481610a0d565b60601c92506105538585610743565b9150509250929050565b60405163a9059cbb60e01b81526001600160a01b037f000000000000000000000000000000000000000000000000000000000000000081166004830152602482018390527f0000000000000000000000000000000000000000000000000000000000000000169063a9059cbb906044016020604051808303816000875af11580156105ec573d6000803e3d6000fd5b505050506040513d601f19601f820116820180604052508101906106109190610a49565b50733333333333333333333333333333333333333333630b0ac0ab837f00000000000000000000000000000000000000000000000000000000000000006106787f0000000000000000000000000000000000000000000000000000000000000000600a61098a565b6106829086610996565b6040516001600160e01b031960e086901b1681526001600160a01b03909316600484015267ffffffffffffffff9182166024840152166044820152606401600060405180830381600087803b1580156106da57600080fd5b505af11580156106ee573d6000803e3d6000fd5b505050505050565b606061070582604c8186610a6b565b8080601f0160208091040260200160405190810160405280939291908181526020018383808284376000920191909152509293505050505b92915050565b6000610753602c600c8486610a6b565b61075c91610a95565b9392505050565b80356001600160a01b038116811461077a57600080fd5b919050565b6000806040838503121561079257600080fd5b61079b83610763565b946020939093013593505050565b60008083601f8401126107bb57600080fd5b50813567ffffffffffffffff8111156107d357600080fd5b6020830191508360208285010111156107eb57600080fd5b9250929050565b600080600080600080600060a0888a03121561080d57600080fd5b61081688610763565b965060208801359550604088013567ffffffffffffffff8082111561083a57600080fd5b6108468b838c016107a9565b909750955085915061085a60608b01610763565b945060808a013591508082111561087057600080fd5b5061087d8a828b016107a9565b989b979a50959850939692959293505050565b634e487b7160e01b600052601160045260246000fd5b600181815b808511156108e15781600019048211156108c7576108c7610890565b808516156108d457918102915b93841c93908002906108ab565b509250929050565b6000826108f85750600161073d565b816109055750600061073d565b816001811461091b576002811461092557610941565b600191505061073d565b60ff84111561093657610936610890565b50506001821b61073d565b5060208310610133831016604e8410600b8410161715610964575081810a61073d565b61096e83836108a6565b806000190482111561098257610982610890565b029392505050565b600061075c83836108e9565b6000826109b357634e487b7160e01b600052601260045260246000fd5b500490565b604081526000835180604084015260005b818110156109e657602081870181015160608684010152016109c9565b506000606082850101526060601f19601f8301168401019150508260208301529392505050565b805160208201516bffffffffffffffffffffffff198082169291906014831015610a415780818460140360031b1b83161693505b505050919050565b600060208284031215610a5b57600080fd5b8151801515811461075c57600080fd5b60008085851115610a7b57600080fd5b83861115610a8857600080fd5b5050820193919092039150565b8035602083101561073d57600019602084900360031b1b169291505056fea264697066735822122096e575855173f3aff01684e119e497ee12c59c8fa020778b512faf8933c71a8e64736f6c63430008160033","opcodes":"PUSH2 0x140 PUSH1 0x40 MSTORE CALLVALUE DUP1 ISZERO PUSH2 0x11 JUMPI PUSH1 0x0 DUP1 REVERT JUMPDEST POP PUSH1 0x40 MLOAD PUSH3 0xD2F CODESIZE SUB DUP1 PUSH3 0xD2F DUP4 CODECOPY DUP2 ADD PUSH1 0x40 DUP2 SWAP1 MSTORE PUSH2 0x32 SWAP2 PUSH2 0x136 JUMP JUMPDEST DUP4 DUP4 DUP4 DUP4 DUP3 PUSH1 0x1 PUSH1 0x1 PUSH1 0xA0 SHL SUB AND PUSH1 0xE0 DUP2 PUSH1 0x1 PUSH1 0x1 PUSH1 0xA0 SHL SUB AND DUP2 MSTORE POP POP PUSH1 0xE0 MLOAD PUSH1 0x1 PUSH1 0x1 PUSH1 0xA0 SHL SUB AND PUSH4 0xFC0C546A PUSH1 0x40 MLOAD DUP2 PUSH4 0xFFFFFFFF AND PUSH1 0xE0 SHL DUP2 MSTORE PUSH1 0x4 ADD PUSH1 0x20 PUSH1 0x40 MLOAD DUP1 DUP4 SUB DUP2 DUP7 GAS STATICCALL ISZERO DUP1 ISZERO PUSH2 0x90 JUMPI RETURNDATASIZE PUSH1 0x0 DUP1 RETURNDATACOPY RETURNDATASIZE PUSH1 0x0 REVERT JUMPDEST POP POP POP POP PUSH1 0x40 MLOAD RETURNDATASIZE PUSH1 0x1F NOT PUSH1 0x1F DUP3 ADD AND DUP3 ADD DUP1 PUSH1 0x40 MSTORE POP DUP2 ADD SWAP1 PUSH2 0xB4 SWAP2 SWAP1 PUSH2 0x190 JUMP JUMPDEST PUSH1 0x1 PUSH1 0x1 PUSH1 0xA0 SHL SUB SWAP1 DUP2 AND PUSH2 0x100 MSTORE DUP5 AND PUSH1 0xC0 MSTORE PUSH2 0xDA PUSH1 0x1 PUSH1 0x1 PUSH1 0x40 SHL SUB DUP4 AND PUSH2 0x104 JUMP JUMPDEST PUSH1 0x1 PUSH1 0x1 PUSH1 0xA0 SHL SUB AND PUSH1 0x80 MSTORE PUSH1 0x1 PUSH1 0x1 PUSH1 0x40 SHL SUB SWAP1 SWAP2 AND PUSH1 0xA0 MSTORE PUSH2 0x120 MSTORE POP PUSH2 0x1D3 SWAP5 POP POP POP POP POP JUMP JUMPDEST PUSH1 0x0 PUSH2 0x114 DUP3 PUSH1 0x1 PUSH1 0x9D SHL PUSH2 0x1B2 JUMP JUMPDEST SWAP3 SWAP2 POP POP JUMP JUMPDEST DUP1 MLOAD PUSH1 0x1 PUSH1 0x1 PUSH1 0xA0 SHL SUB DUP2 AND DUP2 EQ PUSH2 0x131 JUMPI PUSH1 0x0 DUP1 REVERT JUMPDEST SWAP2 SWAP1 POP JUMP JUMPDEST PUSH1 0x0 DUP1 PUSH1 0x0 DUP1 PUSH1 0x80 DUP6 DUP8 SUB SLT ISZERO PUSH2 0x14C JUMPI PUSH1 0x0 DUP1 REVERT JUMPDEST PUSH2 0x155 DUP6 PUSH2 0x11A JUMP JUMPDEST SWAP4 POP PUSH2 0x163 PUSH1 0x20 DUP7 ADD PUSH2 0x11A JUMP JUMPDEST PUSH1 0x40 DUP7 ADD MLOAD SWAP1 SWAP4 POP PUSH1 0x1 PUSH1 0x1 PUSH1 0x40 SHL SUB DUP2 AND DUP2 EQ PUSH2 0x180 JUMPI PUSH1 0x0 DUP1 REVERT JUMPDEST PUSH1 0x60 SWAP6 SWAP1 SWAP6 ADD MLOAD SWAP4 SWAP7 SWAP3 SWAP6 POP POP POP JUMP JUMPDEST PUSH1 0x0 PUSH1 0x20 DUP3 DUP5 SUB SLT ISZERO PUSH2 0x1A2 JUMPI PUSH1 0x0 DUP1 REVERT JUMPDEST PUSH2 0x1AB DUP3 PUSH2 0x11A JUMP JUMPDEST SWAP4 SWAP3 POP POP POP JUMP JUMPDEST DUP1 DUP3 ADD DUP1 DUP3 GT ISZERO PUSH2 0x114 JUMPI PUSH4 0x4E487B71 PUSH1 0xE0 SHL PUSH1 0x0 MSTORE PUSH1 0x11 PUSH1 0x4 MSTORE PUSH1 0x24 PUSH1 0x0 REVERT JUMPDEST PUSH1 0x80 MLOAD PUSH1 0xA0 MLOAD PUSH1 0xC0 MLOAD PUSH1 0xE0 MLOAD PUSH2 0x100 MLOAD PUSH2 0x120 MLOAD PUSH2 0xAE9 PUSH3 0x246 PUSH1 0x0 CODECOPY PUSH1 0x0 DUP2 DUP2 PUSH2 0x118 ADD MSTORE PUSH2 0x652 ADD MSTORE PUSH1 0x0 DUP2 DUP2 PUSH2 0x2EF ADD MSTORE PUSH2 0x5A3 ADD MSTORE PUSH1 0x0 PUSH2 0x25E ADD MSTORE PUSH1 0x0 DUP2 DUP2 PUSH2 0x19A ADD MSTORE PUSH2 0x32A ADD MSTORE PUSH1 0x0 DUP2 DUP2 PUSH2 0x22A ADD MSTORE PUSH2 0x62E ADD MSTORE PUSH1 0x0 DUP2 DUP2 PUSH2 0x1F6 ADD MSTORE PUSH2 0x574 ADD MSTORE PUSH2 0xAE9 PUSH1 0x0 RETURN INVALID PUSH1 0x80 PUSH1 0x40 MSTORE PUSH1 0x4 CALLDATASIZE LT PUSH2 0xC6 JUMPI PUSH1 0x0 CALLDATALOAD PUSH1 0xE0 SHR DUP1 PUSH4 0x9A923B9A GT PUSH2 0x7F JUMPI DUP1 PUSH4 0xD0A10260 GT PUSH2 0x59 JUMPI DUP1 PUSH4 0xD0A10260 EQ PUSH2 0x295 JUMPI DUP1 PUSH4 0xD9ACF0EC EQ PUSH2 0x2A8 JUMPI DUP1 PUSH4 0xDD4C07C8 EQ PUSH2 0x2C8 JUMPI DUP1 PUSH4 0xFC0C546A EQ PUSH2 0x2DD JUMPI PUSH1 0x0 DUP1 REVERT JUMPDEST DUP1 PUSH4 0x9A923B9A EQ PUSH2 0x218 JUMPI DUP1 PUSH4 0x9B5215F6 EQ PUSH2 0x24C JUMPI DUP1 PUSH4 0xB7C312E6 EQ PUSH2 0x280 JUMPI PUSH1 0x0 DUP1 REVERT JUMPDEST DUP1 PUSH4 0x813F32F EQ PUSH2 0xD2 JUMPI DUP1 PUSH4 0x303F1E81 EQ PUSH2 0x106 JUMPI DUP1 PUSH4 0x55CD1378 EQ PUSH2 0x148 JUMPI DUP1 PUSH4 0x5E280F11 EQ PUSH2 0x188 JUMPI DUP1 PUSH4 0x6E3BF0AD EQ PUSH2 0x1BC JUMPI DUP1 PUSH4 0x84123305 EQ PUSH2 0x1E4 JUMPI PUSH1 0x0 DUP1 REVERT JUMPDEST CALLDATASIZE PUSH2 0xCD JUMPI STOP JUMPDEST PUSH1 0x0 DUP1 REVERT JUMPDEST CALLVALUE DUP1 ISZERO PUSH2 0xDE JUMPI PUSH1 0x0 DUP1 REVERT JUMPDEST POP PUSH2 0xE8 PUSH2 0x451 DUP2 JUMP JUMPDEST PUSH1 0x40 MLOAD PUSH8 0xFFFFFFFFFFFFFFFF SWAP1 SWAP2 AND DUP2 MSTORE PUSH1 0x20 ADD JUMPDEST PUSH1 0x40 MLOAD DUP1 SWAP2 SUB SWAP1 RETURN JUMPDEST CALLVALUE DUP1 ISZERO PUSH2 0x112 JUMPI PUSH1 0x0 DUP1 REVERT JUMPDEST POP PUSH2 0x13A PUSH32 0x0 DUP2 JUMP JUMPDEST PUSH1 0x40 MLOAD SWAP1 DUP2 MSTORE PUSH1 0x20 ADD PUSH2 0xFD JUMP JUMPDEST CALLVALUE DUP1 ISZERO PUSH2 0x154 JUMPI PUSH1 0x0 DUP1 REVERT JUMPDEST POP PUSH2 0x170 PUSH20 0x3333333333333333333333333333333333333333 DUP2 JUMP JUMPDEST PUSH1 0x40 MLOAD PUSH1 0x1 PUSH1 0x1 PUSH1 0xA0 SHL SUB SWAP1 SWAP2 AND DUP2 MSTORE PUSH1 0x20 ADD PUSH2 0xFD JUMP JUMPDEST CALLVALUE DUP1 ISZERO PUSH2 0x194 JUMPI PUSH1 0x0 DUP1 REVERT JUMPDEST POP PUSH2 0x170 PUSH32 0x0 DUP2 JUMP JUMPDEST CALLVALUE DUP1 ISZERO PUSH2 0x1C8 JUMPI PUSH1 0x0 DUP1 REVERT JUMPDEST POP PUSH2 0x170 PUSH20 0x2222222222222222222222222222222222222222 DUP2 JUMP JUMPDEST CALLVALUE DUP1 ISZERO PUSH2 0x1F0 JUMPI PUSH1 0x0 DUP1 REVERT JUMPDEST POP PUSH2 0x170 PUSH32 0x0 DUP2 JUMP JUMPDEST CALLVALUE DUP1 ISZERO PUSH2 0x224 JUMPI PUSH1 0x0 DUP1 REVERT JUMPDEST POP PUSH2 0xE8 PUSH32 0x0 DUP2 JUMP JUMPDEST CALLVALUE DUP1 ISZERO PUSH2 0x258 JUMPI PUSH1 0x0 DUP1 REVERT JUMPDEST POP PUSH2 0x170 PUSH32 0x0 DUP2 JUMP JUMPDEST PUSH2 0x293 PUSH2 0x28E CALLDATASIZE PUSH1 0x4 PUSH2 0x77F JUMP JUMPDEST PUSH2 0x311 JUMP JUMPDEST STOP JUMPDEST PUSH2 0x293 PUSH2 0x2A3 CALLDATASIZE PUSH1 0x4 PUSH2 0x7F2 JUMP JUMPDEST PUSH2 0x31F JUMP JUMPDEST CALLVALUE DUP1 ISZERO PUSH2 0x2B4 JUMPI PUSH1 0x0 DUP1 REVERT JUMPDEST POP PUSH2 0x293 PUSH2 0x2C3 CALLDATASIZE PUSH1 0x4 PUSH2 0x77F JUMP JUMPDEST PUSH2 0x3A6 JUMP JUMPDEST CALLVALUE DUP1 ISZERO PUSH2 0x2D4 JUMPI PUSH1 0x0 DUP1 REVERT JUMPDEST POP PUSH2 0x13A PUSH1 0xA DUP2 JUMP JUMPDEST CALLVALUE DUP1 ISZERO PUSH2 0x2E9 JUMPI PUSH1 0x0 DUP1 REVERT JUMPDEST POP PUSH2 0x170 PUSH32 0x0 DUP2 JUMP JUMPDEST PUSH2 0x31B DUP3 DUP3 PUSH2 0x3B0 JUMP JUMPDEST POP POP JUMP JUMPDEST CALLER PUSH1 0x1 PUSH1 0x1 PUSH1 0xA0 SHL SUB PUSH32 0x0 AND EQ PUSH2 0x36F JUMPI PUSH1 0x40 MLOAD PUSH4 0xEEE35E6F PUSH1 0xE0 SHL DUP2 MSTORE CALLER PUSH1 0x4 DUP3 ADD MSTORE PUSH1 0x24 ADD JUMPDEST PUSH1 0x40 MLOAD DUP1 SWAP2 SUB SWAP1 REVERT JUMPDEST PUSH1 0x0 DUP1 PUSH2 0x37C DUP8 DUP8 PUSH2 0x504 JUMP JUMPDEST SWAP1 SWAP3 POP SWAP1 POP CALLVALUE ISZERO PUSH2 0x391 JUMPI PUSH2 0x391 DUP3 CALLVALUE PUSH2 0x3B0 JUMP JUMPDEST PUSH2 0x39B DUP3 DUP3 PUSH2 0x55D JUMP JUMPDEST POP POP POP POP POP POP POP POP POP JUMP JUMPDEST PUSH2 0x31B DUP3 DUP3 PUSH2 0x55D JUMP JUMPDEST PUSH1 0x40 MLOAD PUSH1 0x0 SWAP1 PUSH20 0x2222222222222222222222222222222222222222 SWAP1 DUP4 SWAP1 DUP4 DUP2 DUP2 DUP2 DUP6 DUP8 GAS CALL SWAP3 POP POP POP RETURNDATASIZE DUP1 PUSH1 0x0 DUP2 EQ PUSH2 0x406 JUMPI PUSH1 0x40 MLOAD SWAP2 POP PUSH1 0x1F NOT PUSH1 0x3F RETURNDATASIZE ADD AND DUP3 ADD PUSH1 0x40 MSTORE RETURNDATASIZE DUP3 MSTORE RETURNDATASIZE PUSH1 0x0 PUSH1 0x20 DUP5 ADD RETURNDATACOPY PUSH2 0x40B JUMP JUMPDEST PUSH1 0x60 SWAP2 POP JUMPDEST POP POP SWAP1 POP DUP1 PUSH2 0x45C JUMPI PUSH1 0x40 MLOAD PUSH3 0x461BCD PUSH1 0xE5 SHL DUP2 MSTORE PUSH1 0x20 PUSH1 0x4 DUP3 ADD DUP2 SWAP1 MSTORE PUSH1 0x24 DUP3 ADD MSTORE PUSH32 0x4661696C656420746F2073656E64204859504520746F204879706572436F7265 PUSH1 0x44 DUP3 ADD MSTORE PUSH1 0x64 ADD PUSH2 0x366 JUMP JUMPDEST PUSH20 0x3333333333333333333333333333333333333333 PUSH4 0xB0AC0AB DUP5 PUSH2 0x451 PUSH2 0x485 PUSH1 0xA DUP1 PUSH2 0x98A JUMP JUMPDEST PUSH2 0x48F SWAP1 DUP8 PUSH2 0x996 JUMP JUMPDEST PUSH1 0x40 MLOAD PUSH1 0x1 PUSH1 0x1 PUSH1 0xE0 SHL SUB NOT PUSH1 0xE0 DUP7 SWAP1 SHL AND DUP2 MSTORE PUSH1 0x1 PUSH1 0x1 PUSH1 0xA0 SHL SUB SWAP1 SWAP4 AND PUSH1 0x4 DUP5 ADD MSTORE PUSH8 0xFFFFFFFFFFFFFFFF SWAP2 DUP3 AND PUSH1 0x24 DUP5 ADD MSTORE AND PUSH1 0x44 DUP3 ADD MSTORE PUSH1 0x64 ADD PUSH1 0x0 PUSH1 0x40 MLOAD DUP1 DUP4 SUB DUP2 PUSH1 0x0 DUP8 DUP1 EXTCODESIZE ISZERO DUP1 ISZERO PUSH2 0x4E7 JUMPI PUSH1 0x0 DUP1 REVERT JUMPDEST POP GAS CALL ISZERO DUP1 ISZERO PUSH2 0x4FB JUMPI RETURNDATASIZE PUSH1 0x0 DUP1 RETURNDATACOPY RETURNDATASIZE PUSH1 0x0 REVERT JUMPDEST POP POP POP POP POP POP POP JUMP JUMPDEST PUSH1 0x0 DUP1 PUSH1 0x0 PUSH2 0x513 DUP6 DUP6 PUSH2 0x6F6 JUMP JUMPDEST SWAP1 POP PUSH1 0x14 DUP2 MLOAD EQ PUSH2 0x53B JUMPI DUP1 MLOAD PUSH1 0x40 MLOAD PUSH4 0x9B34731 PUSH1 0xE0 SHL DUP2 MSTORE PUSH2 0x366 SWAP2 DUP4 SWAP2 PUSH1 0x4 ADD PUSH2 0x9B8 JUMP JUMPDEST PUSH2 0x544 DUP2 PUSH2 0xA0D JUMP JUMPDEST PUSH1 0x60 SHR SWAP3 POP PUSH2 0x553 DUP6 DUP6 PUSH2 0x743 JUMP JUMPDEST SWAP2 POP POP SWAP3 POP SWAP3 SWAP1 POP JUMP JUMPDEST PUSH1 0x40 MLOAD PUSH4 0xA9059CBB PUSH1 0xE0 SHL DUP2 MSTORE PUSH1 0x1 PUSH1 0x1 PUSH1 0xA0 SHL SUB PUSH32 0x0 DUP2 AND PUSH1 0x4 DUP4 ADD MSTORE PUSH1 0x24 DUP3 ADD DUP4 SWAP1 MSTORE PUSH32 0x0 AND SWAP1 PUSH4 0xA9059CBB SWAP1 PUSH1 0x44 ADD PUSH1 0x20 PUSH1 0x40 MLOAD DUP1 DUP4 SUB DUP2 PUSH1 0x0 DUP8 GAS CALL ISZERO DUP1 ISZERO PUSH2 0x5EC JUMPI RETURNDATASIZE PUSH1 0x0 DUP1 RETURNDATACOPY RETURNDATASIZE PUSH1 0x0 REVERT JUMPDEST POP POP POP POP PUSH1 0x40 MLOAD RETURNDATASIZE PUSH1 0x1F NOT PUSH1 0x1F DUP3 ADD AND DUP3 ADD DUP1 PUSH1 0x40 MSTORE POP DUP2 ADD SWAP1 PUSH2 0x610 SWAP2 SWAP1 PUSH2 0xA49 JUMP JUMPDEST POP PUSH20 0x3333333333333333333333333333333333333333 PUSH4 0xB0AC0AB DUP4 PUSH32 0x0 PUSH2 0x678 PUSH32 0x0 PUSH1 0xA PUSH2 0x98A JUMP JUMPDEST PUSH2 0x682 SWAP1 DUP7 PUSH2 0x996 JUMP JUMPDEST PUSH1 0x40 MLOAD PUSH1 0x1 PUSH1 0x1 PUSH1 0xE0 SHL SUB NOT PUSH1 0xE0 DUP7 SWAP1 SHL AND DUP2 MSTORE PUSH1 0x1 PUSH1 0x1 PUSH1 0xA0 SHL SUB SWAP1 SWAP4 AND PUSH1 0x4 DUP5 ADD MSTORE PUSH8 0xFFFFFFFFFFFFFFFF SWAP2 DUP3 AND PUSH1 0x24 DUP5 ADD MSTORE AND PUSH1 0x44 DUP3 ADD MSTORE PUSH1 0x64 ADD PUSH1 0x0 PUSH1 0x40 MLOAD DUP1 DUP4 SUB DUP2 PUSH1 0x0 DUP8 DUP1 EXTCODESIZE ISZERO DUP1 ISZERO PUSH2 0x6DA JUMPI PUSH1 0x0 DUP1 REVERT JUMPDEST POP GAS CALL ISZERO DUP1 ISZERO PUSH2 0x6EE JUMPI RETURNDATASIZE PUSH1 0x0 DUP1 RETURNDATACOPY RETURNDATASIZE PUSH1 0x0 REVERT JUMPDEST POP POP POP POP POP POP JUMP JUMPDEST PUSH1 0x60 PUSH2 0x705 DUP3 PUSH1 0x4C DUP2 DUP7 PUSH2 0xA6B JUMP JUMPDEST DUP1 DUP1 PUSH1 0x1F ADD PUSH1 0x20 DUP1 SWAP2 DIV MUL PUSH1 0x20 ADD PUSH1 0x40 MLOAD SWAP1 DUP2 ADD PUSH1 0x40 MSTORE DUP1 SWAP4 SWAP3 SWAP2 SWAP1 DUP2 DUP2 MSTORE PUSH1 0x20 ADD DUP4 DUP4 DUP1 DUP3 DUP5 CALLDATACOPY PUSH1 0x0 SWAP3 ADD SWAP2 SWAP1 SWAP2 MSTORE POP SWAP3 SWAP4 POP POP POP POP JUMPDEST SWAP3 SWAP2 POP POP JUMP JUMPDEST PUSH1 0x0 PUSH2 0x753 PUSH1 0x2C PUSH1 0xC DUP5 DUP7 PUSH2 0xA6B JUMP JUMPDEST PUSH2 0x75C SWAP2 PUSH2 0xA95 JUMP JUMPDEST SWAP4 SWAP3 POP POP POP JUMP JUMPDEST DUP1 CALLDATALOAD PUSH1 0x1 PUSH1 0x1 PUSH1 0xA0 SHL SUB DUP2 AND DUP2 EQ PUSH2 0x77A JUMPI PUSH1 0x0 DUP1 REVERT JUMPDEST SWAP2 SWAP1 POP JUMP JUMPDEST PUSH1 0x0 DUP1 PUSH1 0x40 DUP4 DUP6 SUB SLT ISZERO PUSH2 0x792 JUMPI PUSH1 0x0 DUP1 REVERT JUMPDEST PUSH2 0x79B DUP4 PUSH2 0x763 JUMP JUMPDEST SWAP5 PUSH1 0x20 SWAP4 SWAP1 SWAP4 ADD CALLDATALOAD SWAP4 POP POP POP JUMP JUMPDEST PUSH1 0x0 DUP1 DUP4 PUSH1 0x1F DUP5 ADD SLT PUSH2 0x7BB JUMPI PUSH1 0x0 DUP1 REVERT JUMPDEST POP DUP2 CALLDATALOAD PUSH8 0xFFFFFFFFFFFFFFFF DUP2 GT ISZERO PUSH2 0x7D3 JUMPI PUSH1 0x0 DUP1 REVERT JUMPDEST PUSH1 0x20 DUP4 ADD SWAP2 POP DUP4 PUSH1 0x20 DUP3 DUP6 ADD ADD GT ISZERO PUSH2 0x7EB JUMPI PUSH1 0x0 DUP1 REVERT JUMPDEST SWAP3 POP SWAP3 SWAP1 POP JUMP JUMPDEST PUSH1 0x0 DUP1 PUSH1 0x0 DUP1 PUSH1 0x0 DUP1 PUSH1 0x0 PUSH1 0xA0 DUP9 DUP11 SUB SLT ISZERO PUSH2 0x80D JUMPI PUSH1 0x0 DUP1 REVERT JUMPDEST PUSH2 0x816 DUP9 PUSH2 0x763 JUMP JUMPDEST SWAP7 POP PUSH1 0x20 DUP9 ADD CALLDATALOAD SWAP6 POP PUSH1 0x40 DUP9 ADD CALLDATALOAD PUSH8 0xFFFFFFFFFFFFFFFF DUP1 DUP3 GT ISZERO PUSH2 0x83A JUMPI PUSH1 0x0 DUP1 REVERT JUMPDEST PUSH2 0x846 DUP12 DUP4 DUP13 ADD PUSH2 0x7A9 JUMP JUMPDEST SWAP1 SWAP8 POP SWAP6 POP DUP6 SWAP2 POP PUSH2 0x85A PUSH1 0x60 DUP12 ADD PUSH2 0x763 JUMP JUMPDEST SWAP5 POP PUSH1 0x80 DUP11 ADD CALLDATALOAD SWAP2 POP DUP1 DUP3 GT ISZERO PUSH2 0x870 JUMPI PUSH1 0x0 DUP1 REVERT JUMPDEST POP PUSH2 0x87D DUP11 DUP3 DUP12 ADD PUSH2 0x7A9 JUMP JUMPDEST SWAP9 SWAP12 SWAP8 SWAP11 POP SWAP6 SWAP9 POP SWAP4 SWAP7 SWAP3 SWAP6 SWAP3 SWAP4 POP POP POP JUMP JUMPDEST PUSH4 0x4E487B71 PUSH1 0xE0 SHL PUSH1 0x0 MSTORE PUSH1 0x11 PUSH1 0x4 MSTORE PUSH1 0x24 PUSH1 0x0 REVERT JUMPDEST PUSH1 0x1 DUP2 DUP2 JUMPDEST DUP1 DUP6 GT ISZERO PUSH2 0x8E1 JUMPI DUP2 PUSH1 0x0 NOT DIV DUP3 GT ISZERO PUSH2 0x8C7 JUMPI PUSH2 0x8C7 PUSH2 0x890 JUMP JUMPDEST DUP1 DUP6 AND ISZERO PUSH2 0x8D4 JUMPI SWAP2 DUP2 MUL SWAP2 JUMPDEST SWAP4 DUP5 SHR SWAP4 SWAP1 DUP1 MUL SWAP1 PUSH2 0x8AB JUMP JUMPDEST POP SWAP3 POP SWAP3 SWAP1 POP JUMP JUMPDEST PUSH1 0x0 DUP3 PUSH2 0x8F8 JUMPI POP PUSH1 0x1 PUSH2 0x73D JUMP JUMPDEST DUP2 PUSH2 0x905 JUMPI POP PUSH1 0x0 PUSH2 0x73D JUMP JUMPDEST DUP2 PUSH1 0x1 DUP2 EQ PUSH2 0x91B JUMPI PUSH1 0x2 DUP2 EQ PUSH2 0x925 JUMPI PUSH2 0x941 JUMP JUMPDEST PUSH1 0x1 SWAP2 POP POP PUSH2 0x73D JUMP JUMPDEST PUSH1 0xFF DUP5 GT ISZERO PUSH2 0x936 JUMPI PUSH2 0x936 PUSH2 0x890 JUMP JUMPDEST POP POP PUSH1 0x1 DUP3 SHL PUSH2 0x73D JUMP JUMPDEST POP PUSH1 0x20 DUP4 LT PUSH2 0x133 DUP4 LT AND PUSH1 0x4E DUP5 LT PUSH1 0xB DUP5 LT AND OR ISZERO PUSH2 0x964 JUMPI POP DUP2 DUP2 EXP PUSH2 0x73D JUMP JUMPDEST PUSH2 0x96E DUP4 DUP4 PUSH2 0x8A6 JUMP JUMPDEST DUP1 PUSH1 0x0 NOT DIV DUP3 GT ISZERO PUSH2 0x982 JUMPI PUSH2 0x982 PUSH2 0x890 JUMP JUMPDEST MUL SWAP4 SWAP3 POP POP POP JUMP JUMPDEST PUSH1 0x0 PUSH2 0x75C DUP4 DUP4 PUSH2 0x8E9 JUMP JUMPDEST PUSH1 0x0 DUP3 PUSH2 0x9B3 JUMPI PUSH4 0x4E487B71 PUSH1 0xE0 SHL PUSH1 0x0 MSTORE PUSH1 0x12 PUSH1 0x4 MSTORE PUSH1 0x24 PUSH1 0x0 REVERT JUMPDEST POP DIV SWAP1 JUMP JUMPDEST PUSH1 0x40 DUP2 MSTORE PUSH1 0x0 DUP4 MLOAD DUP1 PUSH1 0x40 DUP5 ADD MSTORE PUSH1 0x0 JUMPDEST DUP2 DUP2 LT ISZERO PUSH2 0x9E6 JUMPI PUSH1 0x20 DUP2 DUP8 ADD DUP2 ADD MLOAD PUSH1 0x60 DUP7 DUP5 ADD ADD MSTORE ADD PUSH2 0x9C9 JUMP JUMPDEST POP PUSH1 0x0 PUSH1 0x60 DUP3 DUP6 ADD ADD MSTORE PUSH1 0x60 PUSH1 0x1F NOT PUSH1 0x1F DUP4 ADD AND DUP5 ADD ADD SWAP2 POP POP DUP3 PUSH1 0x20 DUP4 ADD MSTORE SWAP4 SWAP3 POP POP POP JUMP JUMPDEST DUP1 MLOAD PUSH1 0x20 DUP3 ADD MLOAD PUSH12 0xFFFFFFFFFFFFFFFFFFFFFFFF NOT DUP1 DUP3 AND SWAP3 SWAP2 SWAP1 PUSH1 0x14 DUP4 LT ISZERO PUSH2 0xA41 JUMPI DUP1 DUP2 DUP5 PUSH1 0x14 SUB PUSH1 0x3 SHL SHL DUP4 AND AND SWAP4 POP JUMPDEST POP POP POP SWAP2 SWAP1 POP JUMP JUMPDEST PUSH1 0x0 PUSH1 0x20 DUP3 DUP5 SUB SLT ISZERO PUSH2 0xA5B JUMPI PUSH1 0x0 DUP1 REVERT JUMPDEST DUP2 MLOAD DUP1 ISZERO ISZERO DUP2 EQ PUSH2 0x75C JUMPI PUSH1 0x0 DUP1 REVERT JUMPDEST PUSH1 0x0 DUP1 DUP6 DUP6 GT ISZERO PUSH2 0xA7B JUMPI PUSH1 0x0 DUP1 REVERT JUMPDEST DUP4 DUP7 GT ISZERO PUSH2 0xA88 JUMPI PUSH1 0x0 DUP1 REVERT JUMPDEST POP POP DUP3 ADD SWAP4 SWAP2 SWAP1 SWAP3 SUB SWAP2 POP JUMP JUMPDEST DUP1 CALLDATALOAD PUSH1 0x20 DUP4 LT ISZERO PUSH2 0x73D JUMPI PUSH1 0x0 NOT PUSH1 0x20 DUP5 SWAP1 SUB PUSH1 0x3 SHL SHL AND SWAP3 SWAP2 POP POP JUMP INVALID LOG2 PUSH5 0x6970667358 0x22 SLT KECCAK256 SWAP7 0xE5 PUSH22 0x855173F3AFF01684E119E497EE12C59C8FA020778B51 0x2F 0xAF DUP10 CALLER 0xC7 BYTE DUP15 PUSH5 0x736F6C6343 STOP ADDMOD AND STOP CALLER "},"gasEstimates":{"creation":{"codeDepositCost":"558600","executionCost":"infinite","totalCost":"infinite"},"external":{"HYPER_CORE_INDEX_ID()":"194","HYPER_CORE_INDEX_ID_DECIMAL_DIFF()":"261","HYPE_ASSET_BRIDGE_ADDRESS()":"305","L1WritePrecompileAddress()":"261","OFT_TOKEN_ASSET_BRIDGE_ADDRESS()":"infinite","OFT_TOKEN_CORE_INDEX_ID()":"infinite","endpoint()":"infinite","fundAddressOnHyperCore(address,uint256)":"infinite","lzCompose(address,bytes32,bytes,address,bytes)":"infinite","oft()":"infinite","sendAssetToHyperCore(address,uint256)":"infinite","token()":"infinite","weiDiff()":"infinite"}},"methodIdentifiers":{"HYPER_CORE_INDEX_ID()":"0813f32f","HYPER_CORE_INDEX_ID_DECIMAL_DIFF()":"dd4c07c8","HYPE_ASSET_BRIDGE_ADDRESS()":"6e3bf0ad","L1WritePrecompileAddress()":"55cd1378","OFT_TOKEN_ASSET_BRIDGE_ADDRESS()":"84123305","OFT_TOKEN_CORE_INDEX_ID()":"9a923b9a","endpoint()":"5e280f11","fundAddressOnHyperCore(address,uint256)":"b7c312e6","lzCompose(address,bytes32,bytes,address,bytes)":"d0a10260","oft()":"9b5215f6","sendAssetToHyperCore(address,uint256)":"d9acf0ec","token()":"fc0c546a","weiDiff()":"303f1e81"}},"storageLayout":{"storage":[],"types":null},"userdoc":{"kind":"user","methods":{"lzCompose(address,bytes32,bytes,address,bytes)":{"notice":"Composes a message to be sent to the HyperLiquidLZComposerThis function is the only new addition to the OFT standard"}},"version":1}}}}