{"contracts/MyHyperCoreAdapter.sol":{"MyHyperCoreAdapter":{"abi":[{"inputs":[{"internalType":"address","name":"_lzEndpoint","type":"address"},{"internalType":"address","name":"_oft","type":"address"},{"internalType":"uint64","name":"_hlIndexId","type":"uint64"},{"internalType":"uint256","name":"_weiDiff","type":"uint256"}],"stateMutability":"nonpayable","type":"constructor"},{"inputs":[{"internalType":"bytes","name":"message","type":"bytes"},{"internalType":"uint256","name":"length","type":"uint256"}],"name":"HyperLiquidComposer_Codec_InvalidMessage_UnexpectedLength","type":"error"},{"inputs":[{"internalType":"address","name":"_notEndpointAddress","type":"address"}],"name":"HyperLiquidComposer_InvalidCall_NotEndpoint","type":"error"},{"inputs":[{"internalType":"address","name":"_internalOFTAddress","type":"address"},{"internalType":"address","name":"_receivedOFTAddress","type":"address"}],"name":"HyperLiquidComposer_InvalidCall_NotOFT","type":"error"},{"inputs":[{"internalType":"address","name":"_oft","type":"address"},{"internalType":"address","name":"_token","type":"address"}],"name":"HyperLiquidComposer_InvalidCall_TokenDoesNotSupportExtension","type":"error"},{"inputs":[],"name":"HYPE_ASSET_BRIDGE_ADDRESS","outputs":[{"internalType":"address payable","name":"","type":"address"}],"stateMutability":"view","type":"function"},{"inputs":[],"name":"L1WritePrecompileAddress","outputs":[{"internalType":"address","name":"","type":"address"}],"stateMutability":"view","type":"function"},{"inputs":[],"name":"OFT_TOKEN_ASSET_BRIDGE_ADDRESS","outputs":[{"internalType":"address","name":"","type":"address"}],"stateMutability":"view","type":"function"},{"inputs":[],"name":"OFT_TOKEN_CORE_INDEX_ID","outputs":[{"internalType":"uint64","name":"","type":"uint64"}],"stateMutability":"view","type":"function"},{"inputs":[],"name":"endpoint","outputs":[{"internalType":"address","name":"","type":"address"}],"stateMutability":"view","type":"function"},{"inputs":[{"internalType":"address","name":"receiever","type":"address"},{"internalType":"uint256","name":"amount","type":"uint256"}],"name":"fundAddressOnHyperCore","outputs":[],"stateMutability":"nonpayable","type":"function"},{"inputs":[{"internalType":"address","name":"_oft","type":"address"},{"internalType":"bytes32","name":"","type":"bytes32"},{"internalType":"bytes","name":"_message","type":"bytes"},{"internalType":"address","name":"","type":"address"},{"internalType":"bytes","name":"","type":"bytes"}],"name":"lzCompose","outputs":[],"stateMutability":"payable","type":"function"},{"inputs":[],"name":"oft","outputs":[{"internalType":"contract IOFT","name":"","type":"address"}],"stateMutability":"view","type":"function"},{"inputs":[{"internalType":"address","name":"receiever","type":"address"},{"internalType":"uint256","name":"amount","type":"uint256"}],"name":"sendAssetToHyperCore","outputs":[],"stateMutability":"nonpayable","type":"function"},{"inputs":[],"name":"token","outputs":[{"internalType":"contract IERC20","name":"","type":"address"}],"stateMutability":"view","type":"function"},{"inputs":[],"name":"weiDiff","outputs":[{"internalType":"uint256","name":"","type":"uint256"}],"stateMutability":"view","type":"function"},{"stateMutability":"payable","type":"receive"}],"devdoc":{"kind":"dev","methods":{"lzCompose(address,bytes32,bytes,address,bytes)":{"details":"This function is called by the OFTCore contract when a message is sent","params":{"_message":"The encoded message content, expected to be of type: (address receiver).","_oft":"The address of the OFT contract."}}},"version":1},"evm":{"bytecode":{"linkReferences":{},"object":"6101406040523480156200001257600080fd5b5060405162000dfb38038062000dfb833981016040819052620000359162000142565b83838383826001600160a01b031660e0816001600160a01b03168152505060e0516001600160a01b031663fc0c546a6040518163ffffffff1660e01b8152600401602060405180830381865afa15801562000094573d6000803e3d6000fd5b505050506040513d601f19601f82011682018060405250810190620000ba9190620001a2565b6001600160a01b0390811661010052841660c052620000e26001600160401b0383166200010d565b6001600160a01b03166080526001600160401b0390911660a0526101205250620001e9945050505050565b60006200011f826001609d1b620001c7565b92915050565b80516001600160a01b03811681146200013d57600080fd5b919050565b600080600080608085870312156200015957600080fd5b620001648562000125565b9350620001746020860162000125565b60408601519093506001600160401b03811681146200019257600080fd5b6060959095015193969295505050565b600060208284031215620001b557600080fd5b620001c08262000125565b9392505050565b808201808211156200011f57634e487b7160e01b600052601160045260246000fd5b60805160a05160c05160e0516101005161012051610b84620002776000396000818160be015281816105f501526106d60152600081816102ab01526105aa01526000818161022201528181610337015261037b01526000818161014501526102e60152600081816101d5015281816104c401526106b20152600081816101a101526105d10152610b846000f3fe6080604052600436106100a05760003560e01c80639a923b9a116100645780639a923b9a146101c35780639b5215f614610210578063b7c312e614610244578063d0a1026014610266578063d9acf0ec14610279578063fc0c546a1461029957600080fd5b8063303f1e81146100ac57806355cd1378146100f35780635e280f11146101335780636e3bf0ad14610167578063841233051461018f57600080fd5b366100a757005b600080fd5b3480156100b857600080fd5b506100e07f000000000000000000000000000000000000000000000000000000000000000081565b6040519081526020015b60405180910390f35b3480156100ff57600080fd5b5061011b73333333333333333333333333333333333333333381565b6040516001600160a01b0390911681526020016100ea565b34801561013f57600080fd5b5061011b7f000000000000000000000000000000000000000000000000000000000000000081565b34801561017357600080fd5b5061011b73222222222222222222222222222222222222222281565b34801561019b57600080fd5b5061011b7f000000000000000000000000000000000000000000000000000000000000000081565b3480156101cf57600080fd5b506101f77f000000000000000000000000000000000000000000000000000000000000000081565b60405167ffffffffffffffff90911681526020016100ea565b34801561021c57600080fd5b5061011b7f000000000000000000000000000000000000000000000000000000000000000081565b34801561025057600080fd5b5061026461025f366004610803565b6102cd565b005b610264610274366004610876565b6102db565b34801561028557600080fd5b50610264610294366004610803565b6103e7565b3480156102a557600080fd5b5061011b7f000000000000000000000000000000000000000000000000000000000000000081565b6102d782826103f1565b5050565b336001600160a01b037f0000000000000000000000000000000000000000000000000000000000000000161461032b5760405163eee35e6f60e01b81523360048201526024015b60405180910390fd5b866001600160a01b03167f00000000000000000000000000000000000000000000000000000000000000006001600160a01b0316146103b05760405163021bfb8360e61b81526001600160a01b037f00000000000000000000000000000000000000000000000000000000000000008116600483015288166024820152604401610322565b6000806103bd8787610547565b909250905034156103d2576103d282346103f1565b6103dc82826105a0565b505050505050505050565b6102d782826105a0565b6040516000907322222222222222222222222222222222222222229083908381818185875af1925050503d8060008114610447576040519150601f19603f3d011682016040523d82523d6000602084013e61044c565b606091505b505090508061049d5760405162461bcd60e51b815260206004820181905260248201527f4661696c656420746f2073656e64204859504520746f204879706572436f72656044820152606401610322565b604051630b0ac0ab60e01b81526001600160a01b038416600482015267ffffffffffffffff7f0000000000000000000000000000000000000000000000000000000000000000811660248301528316604482015273333333333333333333333333333333333333333390630b0ac0ab90606401600060405180830381600087803b15801561052a57600080fd5b505af115801561053e573d6000803e3d6000fd5b50505050505050565b6000806000610556858561077a565b9050601481511461057e5780516040516309b3473160e01b8152610322918391600401610914565b61058781610969565b60601c925061059685856107c7565b9150509250929050565b6001600160a01b037f00000000000000000000000000000000000000000000000000000000000000001663a9059cbb7f000000000000000000000000000000000000000000000000000000000000000061061b7f0000000000000000000000000000000000000000000000000000000000000000600a610a9f565b6106259085610aab565b6040516001600160e01b031960e085901b1681526001600160a01b03909216600483015260248201526044016020604051808303816000875af1158015610670573d6000803e3d6000fd5b505050506040513d601f19601f820116820180604052508101906106949190610ac2565b50733333333333333333333333333333333333333333630b0ac0ab837f00000000000000000000000000000000000000000000000000000000000000006106fc7f0000000000000000000000000000000000000000000000000000000000000000600a610a9f565b6107069086610ae4565b6040516001600160e01b031960e086901b1681526001600160a01b03909316600484015267ffffffffffffffff9182166024840152166044820152606401600060405180830381600087803b15801561075e57600080fd5b505af1158015610772573d6000803e3d6000fd5b505050505050565b606061078982604c8186610b06565b8080601f0160208091040260200160405190810160405280939291908181526020018383808284376000920191909152509293505050505b92915050565b60006107d7602c600c8486610b06565b6107e091610b30565b9392505050565b80356001600160a01b03811681146107fe57600080fd5b919050565b6000806040838503121561081657600080fd5b61081f836107e7565b946020939093013593505050565b60008083601f84011261083f57600080fd5b50813567ffffffffffffffff81111561085757600080fd5b60208301915083602082850101111561086f57600080fd5b9250929050565b600080600080600080600060a0888a03121561089157600080fd5b61089a886107e7565b965060208801359550604088013567ffffffffffffffff808211156108be57600080fd5b6108ca8b838c0161082d565b90975095508591506108de60608b016107e7565b945060808a01359150808211156108f457600080fd5b506109018a828b0161082d565b989b979a50959850939692959293505050565b604081526000835180604084015260005b818110156109425760208187018101516060868401015201610925565b506000606082850101526060601f19601f8301168401019150508260208301529392505050565b805160208201516bffffffffffffffffffffffff19808216929190601483101561099d5780818460140360031b1b83161693505b505050919050565b634e487b7160e01b600052601160045260246000fd5b600181815b808511156109f65781600019048211156109dc576109dc6109a5565b808516156109e957918102915b93841c93908002906109c0565b509250929050565b600082610a0d575060016107c1565b81610a1a575060006107c1565b8160018114610a305760028114610a3a57610a56565b60019150506107c1565b60ff841115610a4b57610a4b6109a5565b50506001821b6107c1565b5060208310610133831016604e8410600b8410161715610a79575081810a6107c1565b610a8383836109bb565b8060001904821115610a9757610a976109a5565b029392505050565b60006107e083836109fe565b80820281158282048414176107c1576107c16109a5565b600060208284031215610ad457600080fd5b815180151581146107e057600080fd5b600082610b0157634e487b7160e01b600052601260045260246000fd5b500490565b60008085851115610b1657600080fd5b83861115610b2357600080fd5b5050820193919092039150565b803560208310156107c157600019602084900360031b1b169291505056fea26469706673582212207a985ea35c001dc0297cb485668d419011e1f8024f812f2a148f8b029b5ca6e664736f6c63430008160033","opcodes":"PUSH2 0x140 PUSH1 0x40 MSTORE CALLVALUE DUP1 ISZERO PUSH3 0x12 JUMPI PUSH1 0x0 DUP1 REVERT JUMPDEST POP PUSH1 0x40 MLOAD PUSH3 0xDFB CODESIZE SUB DUP1 PUSH3 0xDFB DUP4 CODECOPY DUP2 ADD PUSH1 0x40 DUP2 SWAP1 MSTORE PUSH3 0x35 SWAP2 PUSH3 0x142 JUMP JUMPDEST DUP4 DUP4 DUP4 DUP4 DUP3 PUSH1 0x1 PUSH1 0x1 PUSH1 0xA0 SHL SUB AND PUSH1 0xE0 DUP2 PUSH1 0x1 PUSH1 0x1 PUSH1 0xA0 SHL SUB AND DUP2 MSTORE POP POP PUSH1 0xE0 MLOAD PUSH1 0x1 PUSH1 0x1 PUSH1 0xA0 SHL SUB AND PUSH4 0xFC0C546A PUSH1 0x40 MLOAD DUP2 PUSH4 0xFFFFFFFF AND PUSH1 0xE0 SHL DUP2 MSTORE PUSH1 0x4 ADD PUSH1 0x20 PUSH1 0x40 MLOAD DUP1 DUP4 SUB DUP2 DUP7 GAS STATICCALL ISZERO DUP1 ISZERO PUSH3 0x94 JUMPI RETURNDATASIZE PUSH1 0x0 DUP1 RETURNDATACOPY RETURNDATASIZE PUSH1 0x0 REVERT JUMPDEST POP POP POP POP PUSH1 0x40 MLOAD RETURNDATASIZE PUSH1 0x1F NOT PUSH1 0x1F DUP3 ADD AND DUP3 ADD DUP1 PUSH1 0x40 MSTORE POP DUP2 ADD SWAP1 PUSH3 0xBA SWAP2 SWAP1 PUSH3 0x1A2 JUMP JUMPDEST PUSH1 0x1 PUSH1 0x1 PUSH1 0xA0 SHL SUB SWAP1 DUP2 AND PUSH2 0x100 MSTORE DUP5 AND PUSH1 0xC0 MSTORE PUSH3 0xE2 PUSH1 0x1 PUSH1 0x1 PUSH1 0x40 SHL SUB DUP4 AND PUSH3 0x10D JUMP JUMPDEST PUSH1 0x1 PUSH1 0x1 PUSH1 0xA0 SHL SUB AND PUSH1 0x80 MSTORE PUSH1 0x1 PUSH1 0x1 PUSH1 0x40 SHL SUB SWAP1 SWAP2 AND PUSH1 0xA0 MSTORE PUSH2 0x120 MSTORE POP PUSH3 0x1E9 SWAP5 POP POP POP POP POP JUMP JUMPDEST PUSH1 0x0 PUSH3 0x11F DUP3 PUSH1 0x1 PUSH1 0x9D SHL PUSH3 0x1C7 JUMP JUMPDEST SWAP3 SWAP2 POP POP JUMP JUMPDEST DUP1 MLOAD PUSH1 0x1 PUSH1 0x1 PUSH1 0xA0 SHL SUB DUP2 AND DUP2 EQ PUSH3 0x13D JUMPI PUSH1 0x0 DUP1 REVERT JUMPDEST SWAP2 SWAP1 POP JUMP JUMPDEST PUSH1 0x0 DUP1 PUSH1 0x0 DUP1 PUSH1 0x80 DUP6 DUP8 SUB SLT ISZERO PUSH3 0x159 JUMPI PUSH1 0x0 DUP1 REVERT JUMPDEST PUSH3 0x164 DUP6 PUSH3 0x125 JUMP JUMPDEST SWAP4 POP PUSH3 0x174 PUSH1 0x20 DUP7 ADD PUSH3 0x125 JUMP JUMPDEST PUSH1 0x40 DUP7 ADD MLOAD SWAP1 SWAP4 POP PUSH1 0x1 PUSH1 0x1 PUSH1 0x40 SHL SUB DUP2 AND DUP2 EQ PUSH3 0x192 JUMPI PUSH1 0x0 DUP1 REVERT JUMPDEST PUSH1 0x60 SWAP6 SWAP1 SWAP6 ADD MLOAD SWAP4 SWAP7 SWAP3 SWAP6 POP POP POP JUMP JUMPDEST PUSH1 0x0 PUSH1 0x20 DUP3 DUP5 SUB SLT ISZERO PUSH3 0x1B5 JUMPI PUSH1 0x0 DUP1 REVERT JUMPDEST PUSH3 0x1C0 DUP3 PUSH3 0x125 JUMP JUMPDEST SWAP4 SWAP3 POP POP POP JUMP JUMPDEST DUP1 DUP3 ADD DUP1 DUP3 GT ISZERO PUSH3 0x11F JUMPI PUSH4 0x4E487B71 PUSH1 0xE0 SHL PUSH1 0x0 MSTORE PUSH1 0x11 PUSH1 0x4 MSTORE PUSH1 0x24 PUSH1 0x0 REVERT JUMPDEST PUSH1 0x80 MLOAD PUSH1 0xA0 MLOAD PUSH1 0xC0 MLOAD PUSH1 0xE0 MLOAD PUSH2 0x100 MLOAD PUSH2 0x120 MLOAD PUSH2 0xB84 PUSH3 0x277 PUSH1 0x0 CODECOPY PUSH1 0x0 DUP2 DUP2 PUSH1 0xBE ADD MSTORE DUP2 DUP2 PUSH2 0x5F5 ADD MSTORE PUSH2 0x6D6 ADD MSTORE PUSH1 0x0 DUP2 DUP2 PUSH2 0x2AB ADD MSTORE PUSH2 0x5AA ADD MSTORE PUSH1 0x0 DUP2 DUP2 PUSH2 0x222 ADD MSTORE DUP2 DUP2 PUSH2 0x337 ADD MSTORE PUSH2 0x37B ADD MSTORE PUSH1 0x0 DUP2 DUP2 PUSH2 0x145 ADD MSTORE PUSH2 0x2E6 ADD MSTORE PUSH1 0x0 DUP2 DUP2 PUSH2 0x1D5 ADD MSTORE DUP2 DUP2 PUSH2 0x4C4 ADD MSTORE PUSH2 0x6B2 ADD MSTORE PUSH1 0x0 DUP2 DUP2 PUSH2 0x1A1 ADD MSTORE PUSH2 0x5D1 ADD MSTORE PUSH2 0xB84 PUSH1 0x0 RETURN INVALID PUSH1 0x80 PUSH1 0x40 MSTORE PUSH1 0x4 CALLDATASIZE LT PUSH2 0xA0 JUMPI PUSH1 0x0 CALLDATALOAD PUSH1 0xE0 SHR DUP1 PUSH4 0x9A923B9A GT PUSH2 0x64 JUMPI DUP1 PUSH4 0x9A923B9A EQ PUSH2 0x1C3 JUMPI DUP1 PUSH4 0x9B5215F6 EQ PUSH2 0x210 JUMPI DUP1 PUSH4 0xB7C312E6 EQ PUSH2 0x244 JUMPI DUP1 PUSH4 0xD0A10260 EQ PUSH2 0x266 JUMPI DUP1 PUSH4 0xD9ACF0EC EQ PUSH2 0x279 JUMPI DUP1 PUSH4 0xFC0C546A EQ PUSH2 0x299 JUMPI PUSH1 0x0 DUP1 REVERT JUMPDEST DUP1 PUSH4 0x303F1E81 EQ PUSH2 0xAC JUMPI DUP1 PUSH4 0x55CD1378 EQ PUSH2 0xF3 JUMPI DUP1 PUSH4 0x5E280F11 EQ PUSH2 0x133 JUMPI DUP1 PUSH4 0x6E3BF0AD EQ PUSH2 0x167 JUMPI DUP1 PUSH4 0x84123305 EQ PUSH2 0x18F JUMPI PUSH1 0x0 DUP1 REVERT JUMPDEST CALLDATASIZE PUSH2 0xA7 JUMPI STOP JUMPDEST PUSH1 0x0 DUP1 REVERT JUMPDEST CALLVALUE DUP1 ISZERO PUSH2 0xB8 JUMPI PUSH1 0x0 DUP1 REVERT JUMPDEST POP PUSH2 0xE0 PUSH32 0x0 DUP2 JUMP JUMPDEST PUSH1 0x40 MLOAD SWAP1 DUP2 MSTORE PUSH1 0x20 ADD JUMPDEST PUSH1 0x40 MLOAD DUP1 SWAP2 SUB SWAP1 RETURN JUMPDEST CALLVALUE DUP1 ISZERO PUSH2 0xFF JUMPI PUSH1 0x0 DUP1 REVERT JUMPDEST POP PUSH2 0x11B PUSH20 0x3333333333333333333333333333333333333333 DUP2 JUMP JUMPDEST PUSH1 0x40 MLOAD PUSH1 0x1 PUSH1 0x1 PUSH1 0xA0 SHL SUB SWAP1 SWAP2 AND DUP2 MSTORE PUSH1 0x20 ADD PUSH2 0xEA JUMP JUMPDEST CALLVALUE DUP1 ISZERO PUSH2 0x13F JUMPI PUSH1 0x0 DUP1 REVERT JUMPDEST POP PUSH2 0x11B PUSH32 0x0 DUP2 JUMP JUMPDEST CALLVALUE DUP1 ISZERO PUSH2 0x173 JUMPI PUSH1 0x0 DUP1 REVERT JUMPDEST POP PUSH2 0x11B PUSH20 0x2222222222222222222222222222222222222222 DUP2 JUMP JUMPDEST CALLVALUE DUP1 ISZERO PUSH2 0x19B JUMPI PUSH1 0x0 DUP1 REVERT JUMPDEST POP PUSH2 0x11B PUSH32 0x0 DUP2 JUMP JUMPDEST CALLVALUE DUP1 ISZERO PUSH2 0x1CF JUMPI PUSH1 0x0 DUP1 REVERT JUMPDEST POP PUSH2 0x1F7 PUSH32 0x0 DUP2 JUMP JUMPDEST PUSH1 0x40 MLOAD PUSH8 0xFFFFFFFFFFFFFFFF SWAP1 SWAP2 AND DUP2 MSTORE PUSH1 0x20 ADD PUSH2 0xEA JUMP JUMPDEST CALLVALUE DUP1 ISZERO PUSH2 0x21C JUMPI PUSH1 0x0 DUP1 REVERT JUMPDEST POP PUSH2 0x11B PUSH32 0x0 DUP2 JUMP JUMPDEST CALLVALUE DUP1 ISZERO PUSH2 0x250 JUMPI PUSH1 0x0 DUP1 REVERT JUMPDEST POP PUSH2 0x264 PUSH2 0x25F CALLDATASIZE PUSH1 0x4 PUSH2 0x803 JUMP JUMPDEST PUSH2 0x2CD JUMP JUMPDEST STOP JUMPDEST PUSH2 0x264 PUSH2 0x274 CALLDATASIZE PUSH1 0x4 PUSH2 0x876 JUMP JUMPDEST PUSH2 0x2DB JUMP JUMPDEST CALLVALUE DUP1 ISZERO PUSH2 0x285 JUMPI PUSH1 0x0 DUP1 REVERT JUMPDEST POP PUSH2 0x264 PUSH2 0x294 CALLDATASIZE PUSH1 0x4 PUSH2 0x803 JUMP JUMPDEST PUSH2 0x3E7 JUMP JUMPDEST CALLVALUE DUP1 ISZERO PUSH2 0x2A5 JUMPI PUSH1 0x0 DUP1 REVERT JUMPDEST POP PUSH2 0x11B PUSH32 0x0 DUP2 JUMP JUMPDEST PUSH2 0x2D7 DUP3 DUP3 PUSH2 0x3F1 JUMP JUMPDEST POP POP JUMP JUMPDEST CALLER PUSH1 0x1 PUSH1 0x1 PUSH1 0xA0 SHL SUB PUSH32 0x0 AND EQ PUSH2 0x32B JUMPI PUSH1 0x40 MLOAD PUSH4 0xEEE35E6F PUSH1 0xE0 SHL DUP2 MSTORE CALLER PUSH1 0x4 DUP3 ADD MSTORE PUSH1 0x24 ADD JUMPDEST PUSH1 0x40 MLOAD DUP1 SWAP2 SUB SWAP1 REVERT JUMPDEST DUP7 PUSH1 0x1 PUSH1 0x1 PUSH1 0xA0 SHL SUB AND PUSH32 0x0 PUSH1 0x1 PUSH1 0x1 PUSH1 0xA0 SHL SUB AND EQ PUSH2 0x3B0 JUMPI PUSH1 0x40 MLOAD PUSH4 0x21BFB83 PUSH1 0xE6 SHL DUP2 MSTORE PUSH1 0x1 PUSH1 0x1 PUSH1 0xA0 SHL SUB PUSH32 0x0 DUP2 AND PUSH1 0x4 DUP4 ADD MSTORE DUP9 AND PUSH1 0x24 DUP3 ADD MSTORE PUSH1 0x44 ADD PUSH2 0x322 JUMP JUMPDEST PUSH1 0x0 DUP1 PUSH2 0x3BD DUP8 DUP8 PUSH2 0x547 JUMP JUMPDEST SWAP1 SWAP3 POP SWAP1 POP CALLVALUE ISZERO PUSH2 0x3D2 JUMPI PUSH2 0x3D2 DUP3 CALLVALUE PUSH2 0x3F1 JUMP JUMPDEST PUSH2 0x3DC DUP3 DUP3 PUSH2 0x5A0 JUMP JUMPDEST POP POP POP POP POP POP POP POP POP JUMP JUMPDEST PUSH2 0x2D7 DUP3 DUP3 PUSH2 0x5A0 JUMP JUMPDEST PUSH1 0x40 MLOAD PUSH1 0x0 SWAP1 PUSH20 0x2222222222222222222222222222222222222222 SWAP1 DUP4 SWAP1 DUP4 DUP2 DUP2 DUP2 DUP6 DUP8 GAS CALL SWAP3 POP POP POP RETURNDATASIZE DUP1 PUSH1 0x0 DUP2 EQ PUSH2 0x447 JUMPI PUSH1 0x40 MLOAD SWAP2 POP PUSH1 0x1F NOT PUSH1 0x3F RETURNDATASIZE ADD AND DUP3 ADD PUSH1 0x40 MSTORE RETURNDATASIZE DUP3 MSTORE RETURNDATASIZE PUSH1 0x0 PUSH1 0x20 DUP5 ADD RETURNDATACOPY PUSH2 0x44C JUMP JUMPDEST PUSH1 0x60 SWAP2 POP JUMPDEST POP POP SWAP1 POP DUP1 PUSH2 0x49D JUMPI PUSH1 0x40 MLOAD PUSH3 0x461BCD PUSH1 0xE5 SHL DUP2 MSTORE PUSH1 0x20 PUSH1 0x4 DUP3 ADD DUP2 SWAP1 MSTORE PUSH1 0x24 DUP3 ADD MSTORE PUSH32 0x4661696C656420746F2073656E64204859504520746F204879706572436F7265 PUSH1 0x44 DUP3 ADD MSTORE PUSH1 0x64 ADD PUSH2 0x322 JUMP JUMPDEST PUSH1 0x40 MLOAD PUSH4 0xB0AC0AB PUSH1 0xE0 SHL DUP2 MSTORE PUSH1 0x1 PUSH1 0x1 PUSH1 0xA0 SHL SUB DUP5 AND PUSH1 0x4 DUP3 ADD MSTORE PUSH8 0xFFFFFFFFFFFFFFFF PUSH32 0x0 DUP2 AND PUSH1 0x24 DUP4 ADD MSTORE DUP4 AND PUSH1 0x44 DUP3 ADD MSTORE PUSH20 0x3333333333333333333333333333333333333333 SWAP1 PUSH4 0xB0AC0AB SWAP1 PUSH1 0x64 ADD PUSH1 0x0 PUSH1 0x40 MLOAD DUP1 DUP4 SUB DUP2 PUSH1 0x0 DUP8 DUP1 EXTCODESIZE ISZERO DUP1 ISZERO PUSH2 0x52A JUMPI PUSH1 0x0 DUP1 REVERT JUMPDEST POP GAS CALL ISZERO DUP1 ISZERO PUSH2 0x53E JUMPI RETURNDATASIZE PUSH1 0x0 DUP1 RETURNDATACOPY RETURNDATASIZE PUSH1 0x0 REVERT JUMPDEST POP POP POP POP POP POP POP JUMP JUMPDEST PUSH1 0x0 DUP1 PUSH1 0x0 PUSH2 0x556 DUP6 DUP6 PUSH2 0x77A JUMP JUMPDEST SWAP1 POP PUSH1 0x14 DUP2 MLOAD EQ PUSH2 0x57E JUMPI DUP1 MLOAD PUSH1 0x40 MLOAD PUSH4 0x9B34731 PUSH1 0xE0 SHL DUP2 MSTORE PUSH2 0x322 SWAP2 DUP4 SWAP2 PUSH1 0x4 ADD PUSH2 0x914 JUMP JUMPDEST PUSH2 0x587 DUP2 PUSH2 0x969 JUMP JUMPDEST PUSH1 0x60 SHR SWAP3 POP PUSH2 0x596 DUP6 DUP6 PUSH2 0x7C7 JUMP JUMPDEST SWAP2 POP POP SWAP3 POP SWAP3 SWAP1 POP JUMP JUMPDEST PUSH1 0x1 PUSH1 0x1 PUSH1 0xA0 SHL SUB PUSH32 0x0 AND PUSH4 0xA9059CBB PUSH32 0x0 PUSH2 0x61B PUSH32 0x0 PUSH1 0xA PUSH2 0xA9F JUMP JUMPDEST PUSH2 0x625 SWAP1 DUP6 PUSH2 0xAAB JUMP JUMPDEST PUSH1 0x40 MLOAD PUSH1 0x1 PUSH1 0x1 PUSH1 0xE0 SHL SUB NOT PUSH1 0xE0 DUP6 SWAP1 SHL AND DUP2 MSTORE PUSH1 0x1 PUSH1 0x1 PUSH1 0xA0 SHL SUB SWAP1 SWAP3 AND PUSH1 0x4 DUP4 ADD MSTORE PUSH1 0x24 DUP3 ADD MSTORE PUSH1 0x44 ADD PUSH1 0x20 PUSH1 0x40 MLOAD DUP1 DUP4 SUB DUP2 PUSH1 0x0 DUP8 GAS CALL ISZERO DUP1 ISZERO PUSH2 0x670 JUMPI RETURNDATASIZE PUSH1 0x0 DUP1 RETURNDATACOPY RETURNDATASIZE PUSH1 0x0 REVERT JUMPDEST POP POP POP POP PUSH1 0x40 MLOAD RETURNDATASIZE PUSH1 0x1F NOT PUSH1 0x1F DUP3 ADD AND DUP3 ADD DUP1 PUSH1 0x40 MSTORE POP DUP2 ADD SWAP1 PUSH2 0x694 SWAP2 SWAP1 PUSH2 0xAC2 JUMP JUMPDEST POP PUSH20 0x3333333333333333333333333333333333333333 PUSH4 0xB0AC0AB DUP4 PUSH32 0x0 PUSH2 0x6FC PUSH32 0x0 PUSH1 0xA PUSH2 0xA9F JUMP JUMPDEST PUSH2 0x706 SWAP1 DUP7 PUSH2 0xAE4 JUMP JUMPDEST PUSH1 0x40 MLOAD PUSH1 0x1 PUSH1 0x1 PUSH1 0xE0 SHL SUB NOT PUSH1 0xE0 DUP7 SWAP1 SHL AND DUP2 MSTORE PUSH1 0x1 PUSH1 0x1 PUSH1 0xA0 SHL SUB SWAP1 SWAP4 AND PUSH1 0x4 DUP5 ADD MSTORE PUSH8 0xFFFFFFFFFFFFFFFF SWAP2 DUP3 AND PUSH1 0x24 DUP5 ADD MSTORE AND PUSH1 0x44 DUP3 ADD MSTORE PUSH1 0x64 ADD PUSH1 0x0 PUSH1 0x40 MLOAD DUP1 DUP4 SUB DUP2 PUSH1 0x0 DUP8 DUP1 EXTCODESIZE ISZERO DUP1 ISZERO PUSH2 0x75E JUMPI PUSH1 0x0 DUP1 REVERT JUMPDEST POP GAS CALL ISZERO DUP1 ISZERO PUSH2 0x772 JUMPI RETURNDATASIZE PUSH1 0x0 DUP1 RETURNDATACOPY RETURNDATASIZE PUSH1 0x0 REVERT JUMPDEST POP POP POP POP POP POP JUMP JUMPDEST PUSH1 0x60 PUSH2 0x789 DUP3 PUSH1 0x4C DUP2 DUP7 PUSH2 0xB06 JUMP JUMPDEST DUP1 DUP1 PUSH1 0x1F ADD PUSH1 0x20 DUP1 SWAP2 DIV MUL PUSH1 0x20 ADD PUSH1 0x40 MLOAD SWAP1 DUP2 ADD PUSH1 0x40 MSTORE DUP1 SWAP4 SWAP3 SWAP2 SWAP1 DUP2 DUP2 MSTORE PUSH1 0x20 ADD DUP4 DUP4 DUP1 DUP3 DUP5 CALLDATACOPY PUSH1 0x0 SWAP3 ADD SWAP2 SWAP1 SWAP2 MSTORE POP SWAP3 SWAP4 POP POP POP POP JUMPDEST SWAP3 SWAP2 POP POP JUMP JUMPDEST PUSH1 0x0 PUSH2 0x7D7 PUSH1 0x2C PUSH1 0xC DUP5 DUP7 PUSH2 0xB06 JUMP JUMPDEST PUSH2 0x7E0 SWAP2 PUSH2 0xB30 JUMP JUMPDEST SWAP4 SWAP3 POP POP POP JUMP JUMPDEST DUP1 CALLDATALOAD PUSH1 0x1 PUSH1 0x1 PUSH1 0xA0 SHL SUB DUP2 AND DUP2 EQ PUSH2 0x7FE JUMPI PUSH1 0x0 DUP1 REVERT JUMPDEST SWAP2 SWAP1 POP JUMP JUMPDEST PUSH1 0x0 DUP1 PUSH1 0x40 DUP4 DUP6 SUB SLT ISZERO PUSH2 0x816 JUMPI PUSH1 0x0 DUP1 REVERT JUMPDEST PUSH2 0x81F DUP4 PUSH2 0x7E7 JUMP JUMPDEST SWAP5 PUSH1 0x20 SWAP4 SWAP1 SWAP4 ADD CALLDATALOAD SWAP4 POP POP POP JUMP JUMPDEST PUSH1 0x0 DUP1 DUP4 PUSH1 0x1F DUP5 ADD SLT PUSH2 0x83F JUMPI PUSH1 0x0 DUP1 REVERT JUMPDEST POP DUP2 CALLDATALOAD PUSH8 0xFFFFFFFFFFFFFFFF DUP2 GT ISZERO PUSH2 0x857 JUMPI PUSH1 0x0 DUP1 REVERT JUMPDEST PUSH1 0x20 DUP4 ADD SWAP2 POP DUP4 PUSH1 0x20 DUP3 DUP6 ADD ADD GT ISZERO PUSH2 0x86F JUMPI PUSH1 0x0 DUP1 REVERT JUMPDEST SWAP3 POP SWAP3 SWAP1 POP JUMP JUMPDEST PUSH1 0x0 DUP1 PUSH1 0x0 DUP1 PUSH1 0x0 DUP1 PUSH1 0x0 PUSH1 0xA0 DUP9 DUP11 SUB SLT ISZERO PUSH2 0x891 JUMPI PUSH1 0x0 DUP1 REVERT JUMPDEST PUSH2 0x89A DUP9 PUSH2 0x7E7 JUMP JUMPDEST SWAP7 POP PUSH1 0x20 DUP9 ADD CALLDATALOAD SWAP6 POP PUSH1 0x40 DUP9 ADD CALLDATALOAD PUSH8 0xFFFFFFFFFFFFFFFF DUP1 DUP3 GT ISZERO PUSH2 0x8BE JUMPI PUSH1 0x0 DUP1 REVERT JUMPDEST PUSH2 0x8CA DUP12 DUP4 DUP13 ADD PUSH2 0x82D JUMP JUMPDEST SWAP1 SWAP8 POP SWAP6 POP DUP6 SWAP2 POP PUSH2 0x8DE PUSH1 0x60 DUP12 ADD PUSH2 0x7E7 JUMP JUMPDEST SWAP5 POP PUSH1 0x80 DUP11 ADD CALLDATALOAD SWAP2 POP DUP1 DUP3 GT ISZERO PUSH2 0x8F4 JUMPI PUSH1 0x0 DUP1 REVERT JUMPDEST POP PUSH2 0x901 DUP11 DUP3 DUP12 ADD PUSH2 0x82D JUMP JUMPDEST SWAP9 SWAP12 SWAP8 SWAP11 POP SWAP6 SWAP9 POP SWAP4 SWAP7 SWAP3 SWAP6 SWAP3 SWAP4 POP POP POP JUMP JUMPDEST PUSH1 0x40 DUP2 MSTORE PUSH1 0x0 DUP4 MLOAD DUP1 PUSH1 0x40 DUP5 ADD MSTORE PUSH1 0x0 JUMPDEST DUP2 DUP2 LT ISZERO PUSH2 0x942 JUMPI PUSH1 0x20 DUP2 DUP8 ADD DUP2 ADD MLOAD PUSH1 0x60 DUP7 DUP5 ADD ADD MSTORE ADD PUSH2 0x925 JUMP JUMPDEST POP PUSH1 0x0 PUSH1 0x60 DUP3 DUP6 ADD ADD MSTORE PUSH1 0x60 PUSH1 0x1F NOT PUSH1 0x1F DUP4 ADD AND DUP5 ADD ADD SWAP2 POP POP DUP3 PUSH1 0x20 DUP4 ADD MSTORE SWAP4 SWAP3 POP POP POP JUMP JUMPDEST DUP1 MLOAD PUSH1 0x20 DUP3 ADD MLOAD PUSH12 0xFFFFFFFFFFFFFFFFFFFFFFFF NOT DUP1 DUP3 AND SWAP3 SWAP2 SWAP1 PUSH1 0x14 DUP4 LT ISZERO PUSH2 0x99D JUMPI DUP1 DUP2 DUP5 PUSH1 0x14 SUB PUSH1 0x3 SHL SHL DUP4 AND AND SWAP4 POP JUMPDEST POP POP POP SWAP2 SWAP1 POP JUMP JUMPDEST PUSH4 0x4E487B71 PUSH1 0xE0 SHL PUSH1 0x0 MSTORE PUSH1 0x11 PUSH1 0x4 MSTORE PUSH1 0x24 PUSH1 0x0 REVERT JUMPDEST PUSH1 0x1 DUP2 DUP2 JUMPDEST DUP1 DUP6 GT ISZERO PUSH2 0x9F6 JUMPI DUP2 PUSH1 0x0 NOT DIV DUP3 GT ISZERO PUSH2 0x9DC JUMPI PUSH2 0x9DC PUSH2 0x9A5 JUMP JUMPDEST DUP1 DUP6 AND ISZERO PUSH2 0x9E9 JUMPI SWAP2 DUP2 MUL SWAP2 JUMPDEST SWAP4 DUP5 SHR SWAP4 SWAP1 DUP1 MUL SWAP1 PUSH2 0x9C0 JUMP JUMPDEST POP SWAP3 POP SWAP3 SWAP1 POP JUMP JUMPDEST PUSH1 0x0 DUP3 PUSH2 0xA0D JUMPI POP PUSH1 0x1 PUSH2 0x7C1 JUMP JUMPDEST DUP2 PUSH2 0xA1A JUMPI POP PUSH1 0x0 PUSH2 0x7C1 JUMP JUMPDEST DUP2 PUSH1 0x1 DUP2 EQ PUSH2 0xA30 JUMPI PUSH1 0x2 DUP2 EQ PUSH2 0xA3A JUMPI PUSH2 0xA56 JUMP JUMPDEST PUSH1 0x1 SWAP2 POP POP PUSH2 0x7C1 JUMP JUMPDEST PUSH1 0xFF DUP5 GT ISZERO PUSH2 0xA4B JUMPI PUSH2 0xA4B PUSH2 0x9A5 JUMP JUMPDEST POP POP PUSH1 0x1 DUP3 SHL PUSH2 0x7C1 JUMP JUMPDEST POP PUSH1 0x20 DUP4 LT PUSH2 0x133 DUP4 LT AND PUSH1 0x4E DUP5 LT PUSH1 0xB DUP5 LT AND OR ISZERO PUSH2 0xA79 JUMPI POP DUP2 DUP2 EXP PUSH2 0x7C1 JUMP JUMPDEST PUSH2 0xA83 DUP4 DUP4 PUSH2 0x9BB JUMP JUMPDEST DUP1 PUSH1 0x0 NOT DIV DUP3 GT ISZERO PUSH2 0xA97 JUMPI PUSH2 0xA97 PUSH2 0x9A5 JUMP JUMPDEST MUL SWAP4 SWAP3 POP POP POP JUMP JUMPDEST PUSH1 0x0 PUSH2 0x7E0 DUP4 DUP4 PUSH2 0x9FE JUMP JUMPDEST DUP1 DUP3 MUL DUP2 ISZERO DUP3 DUP3 DIV DUP5 EQ OR PUSH2 0x7C1 JUMPI PUSH2 0x7C1 PUSH2 0x9A5 JUMP JUMPDEST PUSH1 0x0 PUSH1 0x20 DUP3 DUP5 SUB SLT ISZERO PUSH2 0xAD4 JUMPI PUSH1 0x0 DUP1 REVERT JUMPDEST DUP2 MLOAD DUP1 ISZERO ISZERO DUP2 EQ PUSH2 0x7E0 JUMPI PUSH1 0x0 DUP1 REVERT JUMPDEST PUSH1 0x0 DUP3 PUSH2 0xB01 JUMPI PUSH4 0x4E487B71 PUSH1 0xE0 SHL PUSH1 0x0 MSTORE PUSH1 0x12 PUSH1 0x4 MSTORE PUSH1 0x24 PUSH1 0x0 REVERT JUMPDEST POP DIV SWAP1 JUMP JUMPDEST PUSH1 0x0 DUP1 DUP6 DUP6 GT ISZERO PUSH2 0xB16 JUMPI PUSH1 0x0 DUP1 REVERT JUMPDEST DUP4 DUP7 GT ISZERO PUSH2 0xB23 JUMPI PUSH1 0x0 DUP1 REVERT JUMPDEST POP POP DUP3 ADD SWAP4 SWAP2 SWAP1 SWAP3 SUB SWAP2 POP JUMP JUMPDEST DUP1 CALLDATALOAD PUSH1 0x20 DUP4 LT ISZERO PUSH2 0x7C1 JUMPI PUSH1 0x0 NOT PUSH1 0x20 DUP5 SWAP1 SUB PUSH1 0x3 SHL SHL AND SWAP3 SWAP2 POP POP JUMP INVALID LOG2 PUSH5 0x6970667358 0x22 SLT KECCAK256 PUSH27 0x985EA35C001DC0297CB485668D419011E1F8024F812F2A148F8B02 SWAP12 0x5C 0xA6 0xE6 PUSH5 0x736F6C6343 STOP ADDMOD AND STOP CALLER "},"gasEstimates":{"creation":{"codeDepositCost":"589600","executionCost":"infinite","totalCost":"infinite"},"external":{"HYPE_ASSET_BRIDGE_ADDRESS()":"283","L1WritePrecompileAddress()":"239","OFT_TOKEN_ASSET_BRIDGE_ADDRESS()":"infinite","OFT_TOKEN_CORE_INDEX_ID()":"infinite","endpoint()":"infinite","fundAddressOnHyperCore(address,uint256)":"infinite","lzCompose(address,bytes32,bytes,address,bytes)":"infinite","oft()":"infinite","sendAssetToHyperCore(address,uint256)":"infinite","token()":"infinite","weiDiff()":"infinite"}},"methodIdentifiers":{"HYPE_ASSET_BRIDGE_ADDRESS()":"6e3bf0ad","L1WritePrecompileAddress()":"55cd1378","OFT_TOKEN_ASSET_BRIDGE_ADDRESS()":"84123305","OFT_TOKEN_CORE_INDEX_ID()":"9a923b9a","endpoint()":"5e280f11","fundAddressOnHyperCore(address,uint256)":"b7c312e6","lzCompose(address,bytes32,bytes,address,bytes)":"d0a10260","oft()":"9b5215f6","sendAssetToHyperCore(address,uint256)":"d9acf0ec","token()":"fc0c546a","weiDiff()":"303f1e81"}},"storageLayout":{"storage":[],"types":null},"userdoc":{"kind":"user","methods":{"lzCompose(address,bytes32,bytes,address,bytes)":{"notice":"Composes a message to be sent to the HyperLiquidLZComposerThis function is the only new addition to the OFT standard"}},"version":1}}}}