{"contracts/WrappedHyperCoreAdapter.sol":{"WrappedHyperCoreAdapter":{"abi":[{"inputs":[{"internalType":"address","name":"_lzEndpoint","type":"address"},{"internalType":"address","name":"_oft","type":"address"},{"internalType":"uint64","name":"_hlIndexId","type":"uint64"},{"internalType":"uint256","name":"_weiDiff","type":"uint256"}],"stateMutability":"nonpayable","type":"constructor"},{"inputs":[{"internalType":"bytes","name":"message","type":"bytes"},{"internalType":"uint256","name":"length","type":"uint256"}],"name":"HyperLiquidComposer_Codec_InvalidMessage_UnexpectedLength","type":"error"},{"inputs":[{"internalType":"address","name":"_notEndpointAddress","type":"address"}],"name":"HyperLiquidComposer_InvalidCall_NotEndpoint","type":"error"},{"inputs":[{"internalType":"address","name":"_internalOFTAddress","type":"address"},{"internalType":"address","name":"_receivedOFTAddress","type":"address"}],"name":"HyperLiquidComposer_InvalidCall_NotOFT","type":"error"},{"inputs":[{"internalType":"address","name":"_oft","type":"address"},{"internalType":"address","name":"_token","type":"address"}],"name":"HyperLiquidComposer_InvalidCall_TokenDoesNotSupportExtension","type":"error"},{"inputs":[],"name":"HYPE_ASSET_BRIDGE_ADDRESS","outputs":[{"internalType":"address payable","name":"","type":"address"}],"stateMutability":"view","type":"function"},{"inputs":[],"name":"L1WritePrecompileAddress","outputs":[{"internalType":"address","name":"","type":"address"}],"stateMutability":"view","type":"function"},{"inputs":[],"name":"OFT_TOKEN_ASSET_BRIDGE_ADDRESS","outputs":[{"internalType":"address","name":"","type":"address"}],"stateMutability":"view","type":"function"},{"inputs":[],"name":"OFT_TOKEN_CORE_INDEX_ID","outputs":[{"internalType":"uint64","name":"","type":"uint64"}],"stateMutability":"view","type":"function"},{"inputs":[],"name":"endpoint","outputs":[{"internalType":"address","name":"","type":"address"}],"stateMutability":"view","type":"function"},{"inputs":[{"internalType":"address","name":"receiever","type":"address"},{"internalType":"uint256","name":"amount","type":"uint256"}],"name":"fundAddressOnHyperCore","outputs":[],"stateMutability":"payable","type":"function"},{"inputs":[{"internalType":"address","name":"","type":"address"},{"internalType":"bytes32","name":"","type":"bytes32"},{"internalType":"bytes","name":"_message","type":"bytes"},{"internalType":"address","name":"","type":"address"},{"internalType":"bytes","name":"","type":"bytes"}],"name":"lzCompose","outputs":[],"stateMutability":"payable","type":"function"},{"inputs":[],"name":"oft","outputs":[{"internalType":"contract IOFT","name":"","type":"address"}],"stateMutability":"view","type":"function"},{"inputs":[{"internalType":"address","name":"receiever","type":"address"},{"internalType":"uint256","name":"amount","type":"uint256"}],"name":"sendAssetToHyperCore","outputs":[],"stateMutability":"nonpayable","type":"function"},{"inputs":[],"name":"token","outputs":[{"internalType":"contract IERC20","name":"","type":"address"}],"stateMutability":"view","type":"function"},{"inputs":[],"name":"weiDiff","outputs":[{"internalType":"uint256","name":"","type":"uint256"}],"stateMutability":"view","type":"function"},{"stateMutability":"payable","type":"receive"}],"devdoc":{"kind":"dev","methods":{"lzCompose(address,bytes32,bytes,address,bytes)":{"details":"This function is called by the OFTCore contract when a message is sent","params":{"_message":"The encoded message content, expected to be of type: (address receiver)."}}},"version":1},"evm":{"bytecode":{"linkReferences":{},"object":"61014060405234801561001157600080fd5b5060405162000d4538038062000d4583398101604081905261003291610136565b83838383826001600160a01b031660e0816001600160a01b03168152505060e0516001600160a01b031663fc0c546a6040518163ffffffff1660e01b8152600401602060405180830381865afa158015610090573d6000803e3d6000fd5b505050506040513d601f19601f820116820180604052508101906100b49190610190565b6001600160a01b0390811661010052841660c0526100da6001600160401b038316610104565b6001600160a01b03166080526001600160401b0390911660a05261012052506101d3945050505050565b6000610114826001609d1b6101b2565b92915050565b80516001600160a01b038116811461013157600080fd5b919050565b6000806000806080858703121561014c57600080fd5b6101558561011a565b93506101636020860161011a565b60408601519093506001600160401b038116811461018057600080fd5b6060959095015193969295505050565b6000602082840312156101a257600080fd5b6101ab8261011a565b9392505050565b8082018082111561011457634e487b7160e01b600052601160045260246000fd5b60805160a05160c05160e0516101005161012051610af2620002536000396000818160be01528181610563015261064401526000818161029e01526105180152600061022201526000818161014501526102d90152600081816101d50152818161043201526106200152600081816101a1015261053f0152610af26000f3fe6080604052600436106100a05760003560e01c80639a923b9a116100645780639a923b9a146101c35780639b5215f614610210578063b7c312e614610244578063d0a1026014610259578063d9acf0ec1461026c578063fc0c546a1461028c57600080fd5b8063303f1e81146100ac57806355cd1378146100f35780635e280f11146101335780636e3bf0ad14610167578063841233051461018f57600080fd5b366100a757005b600080fd5b3480156100b857600080fd5b506100e07f000000000000000000000000000000000000000000000000000000000000000081565b6040519081526020015b60405180910390f35b3480156100ff57600080fd5b5061011b73333333333333333333333333333333333333333381565b6040516001600160a01b0390911681526020016100ea565b34801561013f57600080fd5b5061011b7f000000000000000000000000000000000000000000000000000000000000000081565b34801561017357600080fd5b5061011b73222222222222222222222222222222222222222281565b34801561019b57600080fd5b5061011b7f000000000000000000000000000000000000000000000000000000000000000081565b3480156101cf57600080fd5b506101f77f000000000000000000000000000000000000000000000000000000000000000081565b60405167ffffffffffffffff90911681526020016100ea565b34801561021c57600080fd5b5061011b7f000000000000000000000000000000000000000000000000000000000000000081565b610257610252366004610771565b6102c0565b005b6102576102673660046107e4565b6102ce565b34801561027857600080fd5b50610257610287366004610771565b610355565b34801561029857600080fd5b5061011b7f000000000000000000000000000000000000000000000000000000000000000081565b6102ca828261035f565b5050565b336001600160a01b037f0000000000000000000000000000000000000000000000000000000000000000161461031e5760405163eee35e6f60e01b81523360048201526024015b60405180910390fd5b60008061032b87876104b5565b9092509050341561034057610340823461035f565b61034a828261050e565b505050505050505050565b6102ca828261050e565b6040516000907322222222222222222222222222222222222222229083908381818185875af1925050503d80600081146103b5576040519150601f19603f3d011682016040523d82523d6000602084013e6103ba565b606091505b505090508061040b5760405162461bcd60e51b815260206004820181905260248201527f4661696c656420746f2073656e64204859504520746f204879706572436f72656044820152606401610315565b604051630b0ac0ab60e01b81526001600160a01b038416600482015267ffffffffffffffff7f0000000000000000000000000000000000000000000000000000000000000000811660248301528316604482015273333333333333333333333333333333333333333390630b0ac0ab90606401600060405180830381600087803b15801561049857600080fd5b505af11580156104ac573d6000803e3d6000fd5b50505050505050565b60008060006104c485856106e8565b905060148151146104ec5780516040516309b3473160e01b8152610315918391600401610882565b6104f5816108d7565b60601c92506105048585610735565b9150509250929050565b6001600160a01b037f00000000000000000000000000000000000000000000000000000000000000001663a9059cbb7f00000000000000000000000000000000000000000000000000000000000000006105897f0000000000000000000000000000000000000000000000000000000000000000600a610a0d565b6105939085610a19565b6040516001600160e01b031960e085901b1681526001600160a01b03909216600483015260248201526044016020604051808303816000875af11580156105de573d6000803e3d6000fd5b505050506040513d601f19601f820116820180604052508101906106029190610a30565b50733333333333333333333333333333333333333333630b0ac0ab837f000000000000000000000000000000000000000000000000000000000000000061066a7f0000000000000000000000000000000000000000000000000000000000000000600a610a0d565b6106749086610a52565b6040516001600160e01b031960e086901b1681526001600160a01b03909316600484015267ffffffffffffffff9182166024840152166044820152606401600060405180830381600087803b1580156106cc57600080fd5b505af11580156106e0573d6000803e3d6000fd5b505050505050565b60606106f782604c8186610a74565b8080601f0160208091040260200160405190810160405280939291908181526020018383808284376000920191909152509293505050505b92915050565b6000610745602c600c8486610a74565b61074e91610a9e565b9392505050565b80356001600160a01b038116811461076c57600080fd5b919050565b6000806040838503121561078457600080fd5b61078d83610755565b946020939093013593505050565b60008083601f8401126107ad57600080fd5b50813567ffffffffffffffff8111156107c557600080fd5b6020830191508360208285010111156107dd57600080fd5b9250929050565b600080600080600080600060a0888a0312156107ff57600080fd5b61080888610755565b965060208801359550604088013567ffffffffffffffff8082111561082c57600080fd5b6108388b838c0161079b565b909750955085915061084c60608b01610755565b945060808a013591508082111561086257600080fd5b5061086f8a828b0161079b565b989b979a50959850939692959293505050565b604081526000835180604084015260005b818110156108b05760208187018101516060868401015201610893565b506000606082850101526060601f19601f8301168401019150508260208301529392505050565b805160208201516bffffffffffffffffffffffff19808216929190601483101561090b5780818460140360031b1b83161693505b505050919050565b634e487b7160e01b600052601160045260246000fd5b600181815b8085111561096457816000190482111561094a5761094a610913565b8085161561095757918102915b93841c939080029061092e565b509250929050565b60008261097b5750600161072f565b816109885750600061072f565b816001811461099e57600281146109a8576109c4565b600191505061072f565b60ff8411156109b9576109b9610913565b50506001821b61072f565b5060208310610133831016604e8410600b84101617156109e7575081810a61072f565b6109f18383610929565b8060001904821115610a0557610a05610913565b029392505050565b600061074e838361096c565b808202811582820484141761072f5761072f610913565b600060208284031215610a4257600080fd5b8151801515811461074e57600080fd5b600082610a6f57634e487b7160e01b600052601260045260246000fd5b500490565b60008085851115610a8457600080fd5b83861115610a9157600080fd5b5050820193919092039150565b8035602083101561072f57600019602084900360031b1b169291505056fea2646970667358221220dc92545d14cd8ae54ba0f3fc420848c75e27940f81e4e712be2680a3203242c564736f6c63430008160033","opcodes":"PUSH2 0x140 PUSH1 0x40 MSTORE CALLVALUE DUP1 ISZERO PUSH2 0x11 JUMPI PUSH1 0x0 DUP1 REVERT JUMPDEST POP PUSH1 0x40 MLOAD PUSH3 0xD45 CODESIZE SUB DUP1 PUSH3 0xD45 DUP4 CODECOPY DUP2 ADD PUSH1 0x40 DUP2 SWAP1 MSTORE PUSH2 0x32 SWAP2 PUSH2 0x136 JUMP JUMPDEST DUP4 DUP4 DUP4 DUP4 DUP3 PUSH1 0x1 PUSH1 0x1 PUSH1 0xA0 SHL SUB AND PUSH1 0xE0 DUP2 PUSH1 0x1 PUSH1 0x1 PUSH1 0xA0 SHL SUB AND DUP2 MSTORE POP POP PUSH1 0xE0 MLOAD PUSH1 0x1 PUSH1 0x1 PUSH1 0xA0 SHL SUB AND PUSH4 0xFC0C546A PUSH1 0x40 MLOAD DUP2 PUSH4 0xFFFFFFFF AND PUSH1 0xE0 SHL DUP2 MSTORE PUSH1 0x4 ADD PUSH1 0x20 PUSH1 0x40 MLOAD DUP1 DUP4 SUB DUP2 DUP7 GAS STATICCALL ISZERO DUP1 ISZERO PUSH2 0x90 JUMPI RETURNDATASIZE PUSH1 0x0 DUP1 RETURNDATACOPY RETURNDATASIZE PUSH1 0x0 REVERT JUMPDEST POP POP POP POP PUSH1 0x40 MLOAD RETURNDATASIZE PUSH1 0x1F NOT PUSH1 0x1F DUP3 ADD AND DUP3 ADD DUP1 PUSH1 0x40 MSTORE POP DUP2 ADD SWAP1 PUSH2 0xB4 SWAP2 SWAP1 PUSH2 0x190 JUMP JUMPDEST PUSH1 0x1 PUSH1 0x1 PUSH1 0xA0 SHL SUB SWAP1 DUP2 AND PUSH2 0x100 MSTORE DUP5 AND PUSH1 0xC0 MSTORE PUSH2 0xDA PUSH1 0x1 PUSH1 0x1 PUSH1 0x40 SHL SUB DUP4 AND PUSH2 0x104 JUMP JUMPDEST PUSH1 0x1 PUSH1 0x1 PUSH1 0xA0 SHL SUB AND PUSH1 0x80 MSTORE PUSH1 0x1 PUSH1 0x1 PUSH1 0x40 SHL SUB SWAP1 SWAP2 AND PUSH1 0xA0 MSTORE PUSH2 0x120 MSTORE POP PUSH2 0x1D3 SWAP5 POP POP POP POP POP JUMP JUMPDEST PUSH1 0x0 PUSH2 0x114 DUP3 PUSH1 0x1 PUSH1 0x9D SHL PUSH2 0x1B2 JUMP JUMPDEST SWAP3 SWAP2 POP POP JUMP JUMPDEST DUP1 MLOAD PUSH1 0x1 PUSH1 0x1 PUSH1 0xA0 SHL SUB DUP2 AND DUP2 EQ PUSH2 0x131 JUMPI PUSH1 0x0 DUP1 REVERT JUMPDEST SWAP2 SWAP1 POP JUMP JUMPDEST PUSH1 0x0 DUP1 PUSH1 0x0 DUP1 PUSH1 0x80 DUP6 DUP8 SUB SLT ISZERO PUSH2 0x14C JUMPI PUSH1 0x0 DUP1 REVERT JUMPDEST PUSH2 0x155 DUP6 PUSH2 0x11A JUMP JUMPDEST SWAP4 POP PUSH2 0x163 PUSH1 0x20 DUP7 ADD PUSH2 0x11A JUMP JUMPDEST PUSH1 0x40 DUP7 ADD MLOAD SWAP1 SWAP4 POP PUSH1 0x1 PUSH1 0x1 PUSH1 0x40 SHL SUB DUP2 AND DUP2 EQ PUSH2 0x180 JUMPI PUSH1 0x0 DUP1 REVERT JUMPDEST PUSH1 0x60 SWAP6 SWAP1 SWAP6 ADD MLOAD SWAP4 SWAP7 SWAP3 SWAP6 POP POP POP JUMP JUMPDEST PUSH1 0x0 PUSH1 0x20 DUP3 DUP5 SUB SLT ISZERO PUSH2 0x1A2 JUMPI PUSH1 0x0 DUP1 REVERT JUMPDEST PUSH2 0x1AB DUP3 PUSH2 0x11A JUMP JUMPDEST SWAP4 SWAP3 POP POP POP JUMP JUMPDEST DUP1 DUP3 ADD DUP1 DUP3 GT ISZERO PUSH2 0x114 JUMPI PUSH4 0x4E487B71 PUSH1 0xE0 SHL PUSH1 0x0 MSTORE PUSH1 0x11 PUSH1 0x4 MSTORE PUSH1 0x24 PUSH1 0x0 REVERT JUMPDEST PUSH1 0x80 MLOAD PUSH1 0xA0 MLOAD PUSH1 0xC0 MLOAD PUSH1 0xE0 MLOAD PUSH2 0x100 MLOAD PUSH2 0x120 MLOAD PUSH2 0xAF2 PUSH3 0x253 PUSH1 0x0 CODECOPY PUSH1 0x0 DUP2 DUP2 PUSH1 0xBE ADD MSTORE DUP2 DUP2 PUSH2 0x563 ADD MSTORE PUSH2 0x644 ADD MSTORE PUSH1 0x0 DUP2 DUP2 PUSH2 0x29E ADD MSTORE PUSH2 0x518 ADD MSTORE PUSH1 0x0 PUSH2 0x222 ADD MSTORE PUSH1 0x0 DUP2 DUP2 PUSH2 0x145 ADD MSTORE PUSH2 0x2D9 ADD MSTORE PUSH1 0x0 DUP2 DUP2 PUSH2 0x1D5 ADD MSTORE DUP2 DUP2 PUSH2 0x432 ADD MSTORE PUSH2 0x620 ADD MSTORE PUSH1 0x0 DUP2 DUP2 PUSH2 0x1A1 ADD MSTORE PUSH2 0x53F ADD MSTORE PUSH2 0xAF2 PUSH1 0x0 RETURN INVALID PUSH1 0x80 PUSH1 0x40 MSTORE PUSH1 0x4 CALLDATASIZE LT PUSH2 0xA0 JUMPI PUSH1 0x0 CALLDATALOAD PUSH1 0xE0 SHR DUP1 PUSH4 0x9A923B9A GT PUSH2 0x64 JUMPI DUP1 PUSH4 0x9A923B9A EQ PUSH2 0x1C3 JUMPI DUP1 PUSH4 0x9B5215F6 EQ PUSH2 0x210 JUMPI DUP1 PUSH4 0xB7C312E6 EQ PUSH2 0x244 JUMPI DUP1 PUSH4 0xD0A10260 EQ PUSH2 0x259 JUMPI DUP1 PUSH4 0xD9ACF0EC EQ PUSH2 0x26C JUMPI DUP1 PUSH4 0xFC0C546A EQ PUSH2 0x28C JUMPI PUSH1 0x0 DUP1 REVERT JUMPDEST DUP1 PUSH4 0x303F1E81 EQ PUSH2 0xAC JUMPI DUP1 PUSH4 0x55CD1378 EQ PUSH2 0xF3 JUMPI DUP1 PUSH4 0x5E280F11 EQ PUSH2 0x133 JUMPI DUP1 PUSH4 0x6E3BF0AD EQ PUSH2 0x167 JUMPI DUP1 PUSH4 0x84123305 EQ PUSH2 0x18F JUMPI PUSH1 0x0 DUP1 REVERT JUMPDEST CALLDATASIZE PUSH2 0xA7 JUMPI STOP JUMPDEST PUSH1 0x0 DUP1 REVERT JUMPDEST CALLVALUE DUP1 ISZERO PUSH2 0xB8 JUMPI PUSH1 0x0 DUP1 REVERT JUMPDEST POP PUSH2 0xE0 PUSH32 0x0 DUP2 JUMP JUMPDEST PUSH1 0x40 MLOAD SWAP1 DUP2 MSTORE PUSH1 0x20 ADD JUMPDEST PUSH1 0x40 MLOAD DUP1 SWAP2 SUB SWAP1 RETURN JUMPDEST CALLVALUE DUP1 ISZERO PUSH2 0xFF JUMPI PUSH1 0x0 DUP1 REVERT JUMPDEST POP PUSH2 0x11B PUSH20 0x3333333333333333333333333333333333333333 DUP2 JUMP JUMPDEST PUSH1 0x40 MLOAD PUSH1 0x1 PUSH1 0x1 PUSH1 0xA0 SHL SUB SWAP1 SWAP2 AND DUP2 MSTORE PUSH1 0x20 ADD PUSH2 0xEA JUMP JUMPDEST CALLVALUE DUP1 ISZERO PUSH2 0x13F JUMPI PUSH1 0x0 DUP1 REVERT JUMPDEST POP PUSH2 0x11B PUSH32 0x0 DUP2 JUMP JUMPDEST CALLVALUE DUP1 ISZERO PUSH2 0x173 JUMPI PUSH1 0x0 DUP1 REVERT JUMPDEST POP PUSH2 0x11B PUSH20 0x2222222222222222222222222222222222222222 DUP2 JUMP JUMPDEST CALLVALUE DUP1 ISZERO PUSH2 0x19B JUMPI PUSH1 0x0 DUP1 REVERT JUMPDEST POP PUSH2 0x11B PUSH32 0x0 DUP2 JUMP JUMPDEST CALLVALUE DUP1 ISZERO PUSH2 0x1CF JUMPI PUSH1 0x0 DUP1 REVERT JUMPDEST POP PUSH2 0x1F7 PUSH32 0x0 DUP2 JUMP JUMPDEST PUSH1 0x40 MLOAD PUSH8 0xFFFFFFFFFFFFFFFF SWAP1 SWAP2 AND DUP2 MSTORE PUSH1 0x20 ADD PUSH2 0xEA JUMP JUMPDEST CALLVALUE DUP1 ISZERO PUSH2 0x21C JUMPI PUSH1 0x0 DUP1 REVERT JUMPDEST POP PUSH2 0x11B PUSH32 0x0 DUP2 JUMP JUMPDEST PUSH2 0x257 PUSH2 0x252 CALLDATASIZE PUSH1 0x4 PUSH2 0x771 JUMP JUMPDEST PUSH2 0x2C0 JUMP JUMPDEST STOP JUMPDEST PUSH2 0x257 PUSH2 0x267 CALLDATASIZE PUSH1 0x4 PUSH2 0x7E4 JUMP JUMPDEST PUSH2 0x2CE JUMP JUMPDEST CALLVALUE DUP1 ISZERO PUSH2 0x278 JUMPI PUSH1 0x0 DUP1 REVERT JUMPDEST POP PUSH2 0x257 PUSH2 0x287 CALLDATASIZE PUSH1 0x4 PUSH2 0x771 JUMP JUMPDEST PUSH2 0x355 JUMP JUMPDEST CALLVALUE DUP1 ISZERO PUSH2 0x298 JUMPI PUSH1 0x0 DUP1 REVERT JUMPDEST POP PUSH2 0x11B PUSH32 0x0 DUP2 JUMP JUMPDEST PUSH2 0x2CA DUP3 DUP3 PUSH2 0x35F JUMP JUMPDEST POP POP JUMP JUMPDEST CALLER PUSH1 0x1 PUSH1 0x1 PUSH1 0xA0 SHL SUB PUSH32 0x0 AND EQ PUSH2 0x31E JUMPI PUSH1 0x40 MLOAD PUSH4 0xEEE35E6F PUSH1 0xE0 SHL DUP2 MSTORE CALLER PUSH1 0x4 DUP3 ADD MSTORE PUSH1 0x24 ADD JUMPDEST PUSH1 0x40 MLOAD DUP1 SWAP2 SUB SWAP1 REVERT JUMPDEST PUSH1 0x0 DUP1 PUSH2 0x32B DUP8 DUP8 PUSH2 0x4B5 JUMP JUMPDEST SWAP1 SWAP3 POP SWAP1 POP CALLVALUE ISZERO PUSH2 0x340 JUMPI PUSH2 0x340 DUP3 CALLVALUE PUSH2 0x35F JUMP JUMPDEST PUSH2 0x34A DUP3 DUP3 PUSH2 0x50E JUMP JUMPDEST POP POP POP POP POP POP POP POP POP JUMP JUMPDEST PUSH2 0x2CA DUP3 DUP3 PUSH2 0x50E JUMP JUMPDEST PUSH1 0x40 MLOAD PUSH1 0x0 SWAP1 PUSH20 0x2222222222222222222222222222222222222222 SWAP1 DUP4 SWAP1 DUP4 DUP2 DUP2 DUP2 DUP6 DUP8 GAS CALL SWAP3 POP POP POP RETURNDATASIZE DUP1 PUSH1 0x0 DUP2 EQ PUSH2 0x3B5 JUMPI PUSH1 0x40 MLOAD SWAP2 POP PUSH1 0x1F NOT PUSH1 0x3F RETURNDATASIZE ADD AND DUP3 ADD PUSH1 0x40 MSTORE RETURNDATASIZE DUP3 MSTORE RETURNDATASIZE PUSH1 0x0 PUSH1 0x20 DUP5 ADD RETURNDATACOPY PUSH2 0x3BA JUMP JUMPDEST PUSH1 0x60 SWAP2 POP JUMPDEST POP POP SWAP1 POP DUP1 PUSH2 0x40B JUMPI PUSH1 0x40 MLOAD PUSH3 0x461BCD PUSH1 0xE5 SHL DUP2 MSTORE PUSH1 0x20 PUSH1 0x4 DUP3 ADD DUP2 SWAP1 MSTORE PUSH1 0x24 DUP3 ADD MSTORE PUSH32 0x4661696C656420746F2073656E64204859504520746F204879706572436F7265 PUSH1 0x44 DUP3 ADD MSTORE PUSH1 0x64 ADD PUSH2 0x315 JUMP JUMPDEST PUSH1 0x40 MLOAD PUSH4 0xB0AC0AB PUSH1 0xE0 SHL DUP2 MSTORE PUSH1 0x1 PUSH1 0x1 PUSH1 0xA0 SHL SUB DUP5 AND PUSH1 0x4 DUP3 ADD MSTORE PUSH8 0xFFFFFFFFFFFFFFFF PUSH32 0x0 DUP2 AND PUSH1 0x24 DUP4 ADD MSTORE DUP4 AND PUSH1 0x44 DUP3 ADD MSTORE PUSH20 0x3333333333333333333333333333333333333333 SWAP1 PUSH4 0xB0AC0AB SWAP1 PUSH1 0x64 ADD PUSH1 0x0 PUSH1 0x40 MLOAD DUP1 DUP4 SUB DUP2 PUSH1 0x0 DUP8 DUP1 EXTCODESIZE ISZERO DUP1 ISZERO PUSH2 0x498 JUMPI PUSH1 0x0 DUP1 REVERT JUMPDEST POP GAS CALL ISZERO DUP1 ISZERO PUSH2 0x4AC JUMPI RETURNDATASIZE PUSH1 0x0 DUP1 RETURNDATACOPY RETURNDATASIZE PUSH1 0x0 REVERT JUMPDEST POP POP POP POP POP POP POP JUMP JUMPDEST PUSH1 0x0 DUP1 PUSH1 0x0 PUSH2 0x4C4 DUP6 DUP6 PUSH2 0x6E8 JUMP JUMPDEST SWAP1 POP PUSH1 0x14 DUP2 MLOAD EQ PUSH2 0x4EC JUMPI DUP1 MLOAD PUSH1 0x40 MLOAD PUSH4 0x9B34731 PUSH1 0xE0 SHL DUP2 MSTORE PUSH2 0x315 SWAP2 DUP4 SWAP2 PUSH1 0x4 ADD PUSH2 0x882 JUMP JUMPDEST PUSH2 0x4F5 DUP2 PUSH2 0x8D7 JUMP JUMPDEST PUSH1 0x60 SHR SWAP3 POP PUSH2 0x504 DUP6 DUP6 PUSH2 0x735 JUMP JUMPDEST SWAP2 POP POP SWAP3 POP SWAP3 SWAP1 POP JUMP JUMPDEST PUSH1 0x1 PUSH1 0x1 PUSH1 0xA0 SHL SUB PUSH32 0x0 AND PUSH4 0xA9059CBB PUSH32 0x0 PUSH2 0x589 PUSH32 0x0 PUSH1 0xA PUSH2 0xA0D JUMP JUMPDEST PUSH2 0x593 SWAP1 DUP6 PUSH2 0xA19 JUMP JUMPDEST PUSH1 0x40 MLOAD PUSH1 0x1 PUSH1 0x1 PUSH1 0xE0 SHL SUB NOT PUSH1 0xE0 DUP6 SWAP1 SHL AND DUP2 MSTORE PUSH1 0x1 PUSH1 0x1 PUSH1 0xA0 SHL SUB SWAP1 SWAP3 AND PUSH1 0x4 DUP4 ADD MSTORE PUSH1 0x24 DUP3 ADD MSTORE PUSH1 0x44 ADD PUSH1 0x20 PUSH1 0x40 MLOAD DUP1 DUP4 SUB DUP2 PUSH1 0x0 DUP8 GAS CALL ISZERO DUP1 ISZERO PUSH2 0x5DE JUMPI RETURNDATASIZE PUSH1 0x0 DUP1 RETURNDATACOPY RETURNDATASIZE PUSH1 0x0 REVERT JUMPDEST POP POP POP POP PUSH1 0x40 MLOAD RETURNDATASIZE PUSH1 0x1F NOT PUSH1 0x1F DUP3 ADD AND DUP3 ADD DUP1 PUSH1 0x40 MSTORE POP DUP2 ADD SWAP1 PUSH2 0x602 SWAP2 SWAP1 PUSH2 0xA30 JUMP JUMPDEST POP PUSH20 0x3333333333333333333333333333333333333333 PUSH4 0xB0AC0AB DUP4 PUSH32 0x0 PUSH2 0x66A PUSH32 0x0 PUSH1 0xA PUSH2 0xA0D JUMP JUMPDEST PUSH2 0x674 SWAP1 DUP7 PUSH2 0xA52 JUMP JUMPDEST PUSH1 0x40 MLOAD PUSH1 0x1 PUSH1 0x1 PUSH1 0xE0 SHL SUB NOT PUSH1 0xE0 DUP7 SWAP1 SHL AND DUP2 MSTORE PUSH1 0x1 PUSH1 0x1 PUSH1 0xA0 SHL SUB SWAP1 SWAP4 AND PUSH1 0x4 DUP5 ADD MSTORE PUSH8 0xFFFFFFFFFFFFFFFF SWAP2 DUP3 AND PUSH1 0x24 DUP5 ADD MSTORE AND PUSH1 0x44 DUP3 ADD MSTORE PUSH1 0x64 ADD PUSH1 0x0 PUSH1 0x40 MLOAD DUP1 DUP4 SUB DUP2 PUSH1 0x0 DUP8 DUP1 EXTCODESIZE ISZERO DUP1 ISZERO PUSH2 0x6CC JUMPI PUSH1 0x0 DUP1 REVERT JUMPDEST POP GAS CALL ISZERO DUP1 ISZERO PUSH2 0x6E0 JUMPI RETURNDATASIZE PUSH1 0x0 DUP1 RETURNDATACOPY RETURNDATASIZE PUSH1 0x0 REVERT JUMPDEST POP POP POP POP POP POP JUMP JUMPDEST PUSH1 0x60 PUSH2 0x6F7 DUP3 PUSH1 0x4C DUP2 DUP7 PUSH2 0xA74 JUMP JUMPDEST DUP1 DUP1 PUSH1 0x1F ADD PUSH1 0x20 DUP1 SWAP2 DIV MUL PUSH1 0x20 ADD PUSH1 0x40 MLOAD SWAP1 DUP2 ADD PUSH1 0x40 MSTORE DUP1 SWAP4 SWAP3 SWAP2 SWAP1 DUP2 DUP2 MSTORE PUSH1 0x20 ADD DUP4 DUP4 DUP1 DUP3 DUP5 CALLDATACOPY PUSH1 0x0 SWAP3 ADD SWAP2 SWAP1 SWAP2 MSTORE POP SWAP3 SWAP4 POP POP POP POP JUMPDEST SWAP3 SWAP2 POP POP JUMP JUMPDEST PUSH1 0x0 PUSH2 0x745 PUSH1 0x2C PUSH1 0xC DUP5 DUP7 PUSH2 0xA74 JUMP JUMPDEST PUSH2 0x74E SWAP2 PUSH2 0xA9E JUMP JUMPDEST SWAP4 SWAP3 POP POP POP JUMP JUMPDEST DUP1 CALLDATALOAD PUSH1 0x1 PUSH1 0x1 PUSH1 0xA0 SHL SUB DUP2 AND DUP2 EQ PUSH2 0x76C JUMPI PUSH1 0x0 DUP1 REVERT JUMPDEST SWAP2 SWAP1 POP JUMP JUMPDEST PUSH1 0x0 DUP1 PUSH1 0x40 DUP4 DUP6 SUB SLT ISZERO PUSH2 0x784 JUMPI PUSH1 0x0 DUP1 REVERT JUMPDEST PUSH2 0x78D DUP4 PUSH2 0x755 JUMP JUMPDEST SWAP5 PUSH1 0x20 SWAP4 SWAP1 SWAP4 ADD CALLDATALOAD SWAP4 POP POP POP JUMP JUMPDEST PUSH1 0x0 DUP1 DUP4 PUSH1 0x1F DUP5 ADD SLT PUSH2 0x7AD JUMPI PUSH1 0x0 DUP1 REVERT JUMPDEST POP DUP2 CALLDATALOAD PUSH8 0xFFFFFFFFFFFFFFFF DUP2 GT ISZERO PUSH2 0x7C5 JUMPI PUSH1 0x0 DUP1 REVERT JUMPDEST PUSH1 0x20 DUP4 ADD SWAP2 POP DUP4 PUSH1 0x20 DUP3 DUP6 ADD ADD GT ISZERO PUSH2 0x7DD JUMPI PUSH1 0x0 DUP1 REVERT JUMPDEST SWAP3 POP SWAP3 SWAP1 POP JUMP JUMPDEST PUSH1 0x0 DUP1 PUSH1 0x0 DUP1 PUSH1 0x0 DUP1 PUSH1 0x0 PUSH1 0xA0 DUP9 DUP11 SUB SLT ISZERO PUSH2 0x7FF JUMPI PUSH1 0x0 DUP1 REVERT JUMPDEST PUSH2 0x808 DUP9 PUSH2 0x755 JUMP JUMPDEST SWAP7 POP PUSH1 0x20 DUP9 ADD CALLDATALOAD SWAP6 POP PUSH1 0x40 DUP9 ADD CALLDATALOAD PUSH8 0xFFFFFFFFFFFFFFFF DUP1 DUP3 GT ISZERO PUSH2 0x82C JUMPI PUSH1 0x0 DUP1 REVERT JUMPDEST PUSH2 0x838 DUP12 DUP4 DUP13 ADD PUSH2 0x79B JUMP JUMPDEST SWAP1 SWAP8 POP SWAP6 POP DUP6 SWAP2 POP PUSH2 0x84C PUSH1 0x60 DUP12 ADD PUSH2 0x755 JUMP JUMPDEST SWAP5 POP PUSH1 0x80 DUP11 ADD CALLDATALOAD SWAP2 POP DUP1 DUP3 GT ISZERO PUSH2 0x862 JUMPI PUSH1 0x0 DUP1 REVERT JUMPDEST POP PUSH2 0x86F DUP11 DUP3 DUP12 ADD PUSH2 0x79B JUMP JUMPDEST SWAP9 SWAP12 SWAP8 SWAP11 POP SWAP6 SWAP9 POP SWAP4 SWAP7 SWAP3 SWAP6 SWAP3 SWAP4 POP POP POP JUMP JUMPDEST PUSH1 0x40 DUP2 MSTORE PUSH1 0x0 DUP4 MLOAD DUP1 PUSH1 0x40 DUP5 ADD MSTORE PUSH1 0x0 JUMPDEST DUP2 DUP2 LT ISZERO PUSH2 0x8B0 JUMPI PUSH1 0x20 DUP2 DUP8 ADD DUP2 ADD MLOAD PUSH1 0x60 DUP7 DUP5 ADD ADD MSTORE ADD PUSH2 0x893 JUMP JUMPDEST POP PUSH1 0x0 PUSH1 0x60 DUP3 DUP6 ADD ADD MSTORE PUSH1 0x60 PUSH1 0x1F NOT PUSH1 0x1F DUP4 ADD AND DUP5 ADD ADD SWAP2 POP POP DUP3 PUSH1 0x20 DUP4 ADD MSTORE SWAP4 SWAP3 POP POP POP JUMP JUMPDEST DUP1 MLOAD PUSH1 0x20 DUP3 ADD MLOAD PUSH12 0xFFFFFFFFFFFFFFFFFFFFFFFF NOT DUP1 DUP3 AND SWAP3 SWAP2 SWAP1 PUSH1 0x14 DUP4 LT ISZERO PUSH2 0x90B JUMPI DUP1 DUP2 DUP5 PUSH1 0x14 SUB PUSH1 0x3 SHL SHL DUP4 AND AND SWAP4 POP JUMPDEST POP POP POP SWAP2 SWAP1 POP JUMP JUMPDEST PUSH4 0x4E487B71 PUSH1 0xE0 SHL PUSH1 0x0 MSTORE PUSH1 0x11 PUSH1 0x4 MSTORE PUSH1 0x24 PUSH1 0x0 REVERT JUMPDEST PUSH1 0x1 DUP2 DUP2 JUMPDEST DUP1 DUP6 GT ISZERO PUSH2 0x964 JUMPI DUP2 PUSH1 0x0 NOT DIV DUP3 GT ISZERO PUSH2 0x94A JUMPI PUSH2 0x94A PUSH2 0x913 JUMP JUMPDEST DUP1 DUP6 AND ISZERO PUSH2 0x957 JUMPI SWAP2 DUP2 MUL SWAP2 JUMPDEST SWAP4 DUP5 SHR SWAP4 SWAP1 DUP1 MUL SWAP1 PUSH2 0x92E JUMP JUMPDEST POP SWAP3 POP SWAP3 SWAP1 POP JUMP JUMPDEST PUSH1 0x0 DUP3 PUSH2 0x97B JUMPI POP PUSH1 0x1 PUSH2 0x72F JUMP JUMPDEST DUP2 PUSH2 0x988 JUMPI POP PUSH1 0x0 PUSH2 0x72F JUMP JUMPDEST DUP2 PUSH1 0x1 DUP2 EQ PUSH2 0x99E JUMPI PUSH1 0x2 DUP2 EQ PUSH2 0x9A8 JUMPI PUSH2 0x9C4 JUMP JUMPDEST PUSH1 0x1 SWAP2 POP POP PUSH2 0x72F JUMP JUMPDEST PUSH1 0xFF DUP5 GT ISZERO PUSH2 0x9B9 JUMPI PUSH2 0x9B9 PUSH2 0x913 JUMP JUMPDEST POP POP PUSH1 0x1 DUP3 SHL PUSH2 0x72F JUMP JUMPDEST POP PUSH1 0x20 DUP4 LT PUSH2 0x133 DUP4 LT AND PUSH1 0x4E DUP5 LT PUSH1 0xB DUP5 LT AND OR ISZERO PUSH2 0x9E7 JUMPI POP DUP2 DUP2 EXP PUSH2 0x72F JUMP JUMPDEST PUSH2 0x9F1 DUP4 DUP4 PUSH2 0x929 JUMP JUMPDEST DUP1 PUSH1 0x0 NOT DIV DUP3 GT ISZERO PUSH2 0xA05 JUMPI PUSH2 0xA05 PUSH2 0x913 JUMP JUMPDEST MUL SWAP4 SWAP3 POP POP POP JUMP JUMPDEST PUSH1 0x0 PUSH2 0x74E DUP4 DUP4 PUSH2 0x96C JUMP JUMPDEST DUP1 DUP3 MUL DUP2 ISZERO DUP3 DUP3 DIV DUP5 EQ OR PUSH2 0x72F JUMPI PUSH2 0x72F PUSH2 0x913 JUMP JUMPDEST PUSH1 0x0 PUSH1 0x20 DUP3 DUP5 SUB SLT ISZERO PUSH2 0xA42 JUMPI PUSH1 0x0 DUP1 REVERT JUMPDEST DUP2 MLOAD DUP1 ISZERO ISZERO DUP2 EQ PUSH2 0x74E JUMPI PUSH1 0x0 DUP1 REVERT JUMPDEST PUSH1 0x0 DUP3 PUSH2 0xA6F JUMPI PUSH4 0x4E487B71 PUSH1 0xE0 SHL PUSH1 0x0 MSTORE PUSH1 0x12 PUSH1 0x4 MSTORE PUSH1 0x24 PUSH1 0x0 REVERT JUMPDEST POP DIV SWAP1 JUMP JUMPDEST PUSH1 0x0 DUP1 DUP6 DUP6 GT ISZERO PUSH2 0xA84 JUMPI PUSH1 0x0 DUP1 REVERT JUMPDEST DUP4 DUP7 GT ISZERO PUSH2 0xA91 JUMPI PUSH1 0x0 DUP1 REVERT JUMPDEST POP POP DUP3 ADD SWAP4 SWAP2 SWAP1 SWAP3 SUB SWAP2 POP JUMP JUMPDEST DUP1 CALLDATALOAD PUSH1 0x20 DUP4 LT ISZERO PUSH2 0x72F JUMPI PUSH1 0x0 NOT PUSH1 0x20 DUP5 SWAP1 SUB PUSH1 0x3 SHL SHL AND SWAP3 SWAP2 POP POP JUMP INVALID LOG2 PUSH5 0x6970667358 0x22 SLT KECCAK256 0xDC SWAP3 SLOAD 0x5D EQ 0xCD DUP11 0xE5 0x4B LOG0 RETURN 0xFC TIMESTAMP ADDMOD BASEFEE 0xC7 0x5E 0x27 SWAP5 0xF DUP2 0xE4 0xE7 SLT 0xBE 0x26 DUP1 LOG3 KECCAK256 ORIGIN TIMESTAMP 0xC5 PUSH5 0x736F6C6343 STOP ADDMOD AND STOP CALLER "},"gasEstimates":{"creation":{"codeDepositCost":"560400","executionCost":"infinite","totalCost":"infinite"},"external":{"HYPE_ASSET_BRIDGE_ADDRESS()":"283","L1WritePrecompileAddress()":"239","OFT_TOKEN_ASSET_BRIDGE_ADDRESS()":"infinite","OFT_TOKEN_CORE_INDEX_ID()":"infinite","endpoint()":"infinite","fundAddressOnHyperCore(address,uint256)":"infinite","lzCompose(address,bytes32,bytes,address,bytes)":"infinite","oft()":"infinite","sendAssetToHyperCore(address,uint256)":"infinite","token()":"infinite","weiDiff()":"infinite"}},"methodIdentifiers":{"HYPE_ASSET_BRIDGE_ADDRESS()":"6e3bf0ad","L1WritePrecompileAddress()":"55cd1378","OFT_TOKEN_ASSET_BRIDGE_ADDRESS()":"84123305","OFT_TOKEN_CORE_INDEX_ID()":"9a923b9a","endpoint()":"5e280f11","fundAddressOnHyperCore(address,uint256)":"b7c312e6","lzCompose(address,bytes32,bytes,address,bytes)":"d0a10260","oft()":"9b5215f6","sendAssetToHyperCore(address,uint256)":"d9acf0ec","token()":"fc0c546a","weiDiff()":"303f1e81"}},"storageLayout":{"storage":[],"types":null},"userdoc":{"kind":"user","methods":{"lzCompose(address,bytes32,bytes,address,bytes)":{"notice":"Composes a message to be sent to the HyperLiquidLZComposerThis function is the only new addition to the OFT standard"}},"version":1}}}}