{"@layerzerolabs/oft-hyperliquid-evm/contracts/HyperCoreAdapter.sol":{"HyperCoreAdapter":{"abi":[{"inputs":[{"internalType":"address","name":"_endpoint","type":"address"},{"internalType":"address","name":"_oft","type":"address"},{"internalType":"uint64","name":"_coreIndexId","type":"uint64"},{"internalType":"uint256","name":"_weiDiff","type":"uint256"}],"stateMutability":"nonpayable","type":"constructor"},{"inputs":[{"internalType":"bytes","name":"message","type":"bytes"},{"internalType":"uint256","name":"length","type":"uint256"}],"name":"HyperLiquidComposer_Codec_InvalidMessage_UnexpectedLength","type":"error"},{"inputs":[{"internalType":"address","name":"_notEndpointAddress","type":"address"}],"name":"HyperLiquidComposer_InvalidCall_NotEndpoint","type":"error"},{"inputs":[{"internalType":"address","name":"_internalOFTAddress","type":"address"},{"internalType":"address","name":"_receivedOFTAddress","type":"address"}],"name":"HyperLiquidComposer_InvalidCall_NotOFT","type":"error"},{"inputs":[{"internalType":"address","name":"_oft","type":"address"},{"internalType":"address","name":"_token","type":"address"}],"name":"HyperLiquidComposer_InvalidCall_TokenDoesNotSupportExtension","type":"error"},{"inputs":[],"name":"HYPE_ASSET_BRIDGE_ADDRESS","outputs":[{"internalType":"address payable","name":"","type":"address"}],"stateMutability":"view","type":"function"},{"inputs":[],"name":"L1WritePrecompileAddress","outputs":[{"internalType":"address","name":"","type":"address"}],"stateMutability":"view","type":"function"},{"inputs":[],"name":"OFT_TOKEN_ASSET_BRIDGE_ADDRESS","outputs":[{"internalType":"address","name":"","type":"address"}],"stateMutability":"view","type":"function"},{"inputs":[],"name":"OFT_TOKEN_CORE_INDEX_ID","outputs":[{"internalType":"uint64","name":"","type":"uint64"}],"stateMutability":"view","type":"function"},{"inputs":[],"name":"endpoint","outputs":[{"internalType":"address","name":"","type":"address"}],"stateMutability":"view","type":"function"},{"inputs":[{"internalType":"address","name":"_oft","type":"address"},{"internalType":"bytes32","name":"","type":"bytes32"},{"internalType":"bytes","name":"_message","type":"bytes"},{"internalType":"address","name":"","type":"address"},{"internalType":"bytes","name":"","type":"bytes"}],"name":"lzCompose","outputs":[],"stateMutability":"payable","type":"function"},{"inputs":[],"name":"oft","outputs":[{"internalType":"contract IOFT","name":"","type":"address"}],"stateMutability":"view","type":"function"},{"inputs":[],"name":"token","outputs":[{"internalType":"contract IERC20","name":"","type":"address"}],"stateMutability":"view","type":"function"},{"inputs":[],"name":"weiDiff","outputs":[{"internalType":"uint256","name":"","type":"uint256"}],"stateMutability":"view","type":"function"},{"stateMutability":"payable","type":"receive"}],"devdoc":{"kind":"dev","methods":{"constructor":{"details":"This constructor is called by the `HyperLiquidOFT` contractPost deployment, this address needs to be approved (via approveCaller) by the `owner` of the `HyperLiquidOFT` contract to call the `transferToHyperLiquidL1` function","params":{"_endpoint":"The LayerZero endpoint address","_oft":"The OFT contract address associated with this composer"}},"lzCompose(address,bytes32,bytes,address,bytes)":{"details":"This function is called by the OFTCore contract when a message is sent","params":{"_message":"The encoded message content, expected to be of type: (address receiver).","_oft":"The address of the OFT contract."}}},"version":1},"evm":{"bytecode":{"linkReferences":{},"object":"61014060405234801561001157600080fd5b5060405162000d3538038062000d358339810160408190526100329161011e565b6001600160a01b03831660e081905260408051637e062a3560e11b8152905163fc0c546a916004808201926020929091908290030181865afa15801561007c573d6000803e3d6000fd5b505050506040513d601f19601f820116820180604052508101906100a09190610178565b6001600160a01b0390811661010052841660c0526100c66001600160401b0383166100ec565b6001600160a01b03166080526001600160401b0390911660a05261012052506101bb9050565b60006100fc826001609d1b61019a565b92915050565b80516001600160a01b038116811461011957600080fd5b919050565b6000806000806080858703121561013457600080fd5b61013d85610102565b935061014b60208601610102565b60408601519093506001600160401b038116811461016857600080fd5b6060959095015193969295505050565b60006020828403121561018a57600080fd5b61019382610102565b9392505050565b808201808211156100fc57634e487b7160e01b600052601160045260246000fd5b60805160a05160c05160e0516101005161012051610aec620002496000396000818160a8015281816105870152610668015260008181610255015261053c01526000818161020c015281816102d3015261031701526000818161012f01526102820152600081816101bf015281816104af015261064401526000818161018b01526105630152610aec6000f3fe60806040526004361061008a5760003560e01c8063841233051161005957806384123305146101795780639a923b9a146101ad5780639b5215f6146101fa578063d0a102601461022e578063fc0c546a1461024357600080fd5b8063303f1e811461009657806355cd1378146100dd5780635e280f111461011d5780636e3bf0ad1461015157600080fd5b3661009157005b600080fd5b3480156100a257600080fd5b506100ca7f000000000000000000000000000000000000000000000000000000000000000081565b6040519081526020015b60405180910390f35b3480156100e957600080fd5b5061010573333333333333333333333333333333333333333381565b6040516001600160a01b0390911681526020016100d4565b34801561012957600080fd5b506101057f000000000000000000000000000000000000000000000000000000000000000081565b34801561015d57600080fd5b5061010573222222222222222222222222222222222222222281565b34801561018557600080fd5b506101057f000000000000000000000000000000000000000000000000000000000000000081565b3480156101b957600080fd5b506101e17f000000000000000000000000000000000000000000000000000000000000000081565b60405167ffffffffffffffff90911681526020016100d4565b34801561020657600080fd5b506101057f000000000000000000000000000000000000000000000000000000000000000081565b61024161023c3660046107de565b610277565b005b34801561024f57600080fd5b506101057f000000000000000000000000000000000000000000000000000000000000000081565b336001600160a01b037f000000000000000000000000000000000000000000000000000000000000000016146102c75760405163eee35e6f60e01b81523360048201526024015b60405180910390fd5b866001600160a01b03167f00000000000000000000000000000000000000000000000000000000000000006001600160a01b03161461034c5760405163021bfb8360e61b81526001600160a01b037f000000000000000000000000000000000000000000000000000000000000000081166004830152881660248201526044016102be565b6000806103598787610383565b9092509050341561036e5761036e82346103dc565b6103788282610532565b505050505050505050565b6000806000610392858561070c565b905060148151146103ba5780516040516309b3473160e01b81526102be91839160040161087c565b6103c3816108d1565b60601c92506103d28585610759565b9150509250929050565b6040516000907322222222222222222222222222222222222222229083908381818185875af1925050503d8060008114610432576040519150601f19603f3d011682016040523d82523d6000602084013e610437565b606091505b50509050806104885760405162461bcd60e51b815260206004820181905260248201527f4661696c656420746f2073656e64204859504520746f204879706572436f726560448201526064016102be565b604051630b0ac0ab60e01b81526001600160a01b038416600482015267ffffffffffffffff7f0000000000000000000000000000000000000000000000000000000000000000811660248301528316604482015273333333333333333333333333333333333333333390630b0ac0ab90606401600060405180830381600087803b15801561051557600080fd5b505af1158015610529573d6000803e3d6000fd5b50505050505050565b6001600160a01b037f00000000000000000000000000000000000000000000000000000000000000001663a9059cbb7f00000000000000000000000000000000000000000000000000000000000000006105ad7f0000000000000000000000000000000000000000000000000000000000000000600a610a07565b6105b79085610a13565b6040516001600160e01b031960e085901b1681526001600160a01b03909216600483015260248201526044016020604051808303816000875af1158015610602573d6000803e3d6000fd5b505050506040513d601f19601f820116820180604052508101906106269190610a2a565b50733333333333333333333333333333333333333333630b0ac0ab837f000000000000000000000000000000000000000000000000000000000000000061068e7f0000000000000000000000000000000000000000000000000000000000000000600a610a07565b6106989086610a4c565b6040516001600160e01b031960e086901b1681526001600160a01b03909316600484015267ffffffffffffffff9182166024840152166044820152606401600060405180830381600087803b1580156106f057600080fd5b505af1158015610704573d6000803e3d6000fd5b505050505050565b606061071b82604c8186610a6e565b8080601f0160208091040260200160405190810160405280939291908181526020018383808284376000920191909152509293505050505b92915050565b6000610769602c600c8486610a6e565b61077291610a98565b9392505050565b80356001600160a01b038116811461079057600080fd5b919050565b60008083601f8401126107a757600080fd5b50813567ffffffffffffffff8111156107bf57600080fd5b6020830191508360208285010111156107d757600080fd5b9250929050565b600080600080600080600060a0888a0312156107f957600080fd5b61080288610779565b965060208801359550604088013567ffffffffffffffff8082111561082657600080fd5b6108328b838c01610795565b909750955085915061084660608b01610779565b945060808a013591508082111561085c57600080fd5b506108698a828b01610795565b989b979a50959850939692959293505050565b604081526000835180604084015260005b818110156108aa576020818701810151606086840101520161088d565b506000606082850101526060601f19601f8301168401019150508260208301529392505050565b805160208201516bffffffffffffffffffffffff1980821692919060148310156109055780818460140360031b1b83161693505b505050919050565b634e487b7160e01b600052601160045260246000fd5b600181815b8085111561095e5781600019048211156109445761094461090d565b8085161561095157918102915b93841c9390800290610928565b509250929050565b60008261097557506001610753565b8161098257506000610753565b816001811461099857600281146109a2576109be565b6001915050610753565b60ff8411156109b3576109b361090d565b50506001821b610753565b5060208310610133831016604e8410600b84101617156109e1575081810a610753565b6109eb8383610923565b80600019048211156109ff576109ff61090d565b029392505050565b60006107728383610966565b80820281158282048414176107535761075361090d565b600060208284031215610a3c57600080fd5b8151801515811461077257600080fd5b600082610a6957634e487b7160e01b600052601260045260246000fd5b500490565b60008085851115610a7e57600080fd5b83861115610a8b57600080fd5b5050820193919092039150565b8035602083101561075357600019602084900360031b1b169291505056fea2646970667358221220861a8cf33970915f1a3d4e02641fff43e02659e870d925a953be59a6322ac77f64736f6c63430008160033","opcodes":"PUSH2 0x140 PUSH1 0x40 MSTORE CALLVALUE DUP1 ISZERO PUSH2 0x11 JUMPI PUSH1 0x0 DUP1 REVERT JUMPDEST POP PUSH1 0x40 MLOAD PUSH3 0xD35 CODESIZE SUB DUP1 PUSH3 0xD35 DUP4 CODECOPY DUP2 ADD PUSH1 0x40 DUP2 SWAP1 MSTORE PUSH2 0x32 SWAP2 PUSH2 0x11E JUMP JUMPDEST PUSH1 0x1 PUSH1 0x1 PUSH1 0xA0 SHL SUB DUP4 AND PUSH1 0xE0 DUP2 SWAP1 MSTORE PUSH1 0x40 DUP1 MLOAD PUSH4 0x7E062A35 PUSH1 0xE1 SHL DUP2 MSTORE SWAP1 MLOAD PUSH4 0xFC0C546A SWAP2 PUSH1 0x4 DUP1 DUP3 ADD SWAP3 PUSH1 0x20 SWAP3 SWAP1 SWAP2 SWAP1 DUP3 SWAP1 SUB ADD DUP2 DUP7 GAS STATICCALL ISZERO DUP1 ISZERO PUSH2 0x7C JUMPI RETURNDATASIZE PUSH1 0x0 DUP1 RETURNDATACOPY RETURNDATASIZE PUSH1 0x0 REVERT JUMPDEST POP POP POP POP PUSH1 0x40 MLOAD RETURNDATASIZE PUSH1 0x1F NOT PUSH1 0x1F DUP3 ADD AND DUP3 ADD DUP1 PUSH1 0x40 MSTORE POP DUP2 ADD SWAP1 PUSH2 0xA0 SWAP2 SWAP1 PUSH2 0x178 JUMP JUMPDEST PUSH1 0x1 PUSH1 0x1 PUSH1 0xA0 SHL SUB SWAP1 DUP2 AND PUSH2 0x100 MSTORE DUP5 AND PUSH1 0xC0 MSTORE PUSH2 0xC6 PUSH1 0x1 PUSH1 0x1 PUSH1 0x40 SHL SUB DUP4 AND PUSH2 0xEC JUMP JUMPDEST PUSH1 0x1 PUSH1 0x1 PUSH1 0xA0 SHL SUB AND PUSH1 0x80 MSTORE PUSH1 0x1 PUSH1 0x1 PUSH1 0x40 SHL SUB SWAP1 SWAP2 AND PUSH1 0xA0 MSTORE PUSH2 0x120 MSTORE POP PUSH2 0x1BB SWAP1 POP JUMP JUMPDEST PUSH1 0x0 PUSH2 0xFC DUP3 PUSH1 0x1 PUSH1 0x9D SHL PUSH2 0x19A JUMP JUMPDEST SWAP3 SWAP2 POP POP JUMP JUMPDEST DUP1 MLOAD PUSH1 0x1 PUSH1 0x1 PUSH1 0xA0 SHL SUB DUP2 AND DUP2 EQ PUSH2 0x119 JUMPI PUSH1 0x0 DUP1 REVERT JUMPDEST SWAP2 SWAP1 POP JUMP JUMPDEST PUSH1 0x0 DUP1 PUSH1 0x0 DUP1 PUSH1 0x80 DUP6 DUP8 SUB SLT ISZERO PUSH2 0x134 JUMPI PUSH1 0x0 DUP1 REVERT JUMPDEST PUSH2 0x13D DUP6 PUSH2 0x102 JUMP JUMPDEST SWAP4 POP PUSH2 0x14B PUSH1 0x20 DUP7 ADD PUSH2 0x102 JUMP JUMPDEST PUSH1 0x40 DUP7 ADD MLOAD SWAP1 SWAP4 POP PUSH1 0x1 PUSH1 0x1 PUSH1 0x40 SHL SUB DUP2 AND DUP2 EQ PUSH2 0x168 JUMPI PUSH1 0x0 DUP1 REVERT JUMPDEST PUSH1 0x60 SWAP6 SWAP1 SWAP6 ADD MLOAD SWAP4 SWAP7 SWAP3 SWAP6 POP POP POP JUMP JUMPDEST PUSH1 0x0 PUSH1 0x20 DUP3 DUP5 SUB SLT ISZERO PUSH2 0x18A JUMPI PUSH1 0x0 DUP1 REVERT JUMPDEST PUSH2 0x193 DUP3 PUSH2 0x102 JUMP JUMPDEST SWAP4 SWAP3 POP POP POP JUMP JUMPDEST DUP1 DUP3 ADD DUP1 DUP3 GT ISZERO PUSH2 0xFC JUMPI PUSH4 0x4E487B71 PUSH1 0xE0 SHL PUSH1 0x0 MSTORE PUSH1 0x11 PUSH1 0x4 MSTORE PUSH1 0x24 PUSH1 0x0 REVERT JUMPDEST PUSH1 0x80 MLOAD PUSH1 0xA0 MLOAD PUSH1 0xC0 MLOAD PUSH1 0xE0 MLOAD PUSH2 0x100 MLOAD PUSH2 0x120 MLOAD PUSH2 0xAEC PUSH3 0x249 PUSH1 0x0 CODECOPY PUSH1 0x0 DUP2 DUP2 PUSH1 0xA8 ADD MSTORE DUP2 DUP2 PUSH2 0x587 ADD MSTORE PUSH2 0x668 ADD MSTORE PUSH1 0x0 DUP2 DUP2 PUSH2 0x255 ADD MSTORE PUSH2 0x53C ADD MSTORE PUSH1 0x0 DUP2 DUP2 PUSH2 0x20C ADD MSTORE DUP2 DUP2 PUSH2 0x2D3 ADD MSTORE PUSH2 0x317 ADD MSTORE PUSH1 0x0 DUP2 DUP2 PUSH2 0x12F ADD MSTORE PUSH2 0x282 ADD MSTORE PUSH1 0x0 DUP2 DUP2 PUSH2 0x1BF ADD MSTORE DUP2 DUP2 PUSH2 0x4AF ADD MSTORE PUSH2 0x644 ADD MSTORE PUSH1 0x0 DUP2 DUP2 PUSH2 0x18B ADD MSTORE PUSH2 0x563 ADD MSTORE PUSH2 0xAEC PUSH1 0x0 RETURN INVALID PUSH1 0x80 PUSH1 0x40 MSTORE PUSH1 0x4 CALLDATASIZE LT PUSH2 0x8A JUMPI PUSH1 0x0 CALLDATALOAD PUSH1 0xE0 SHR DUP1 PUSH4 0x84123305 GT PUSH2 0x59 JUMPI DUP1 PUSH4 0x84123305 EQ PUSH2 0x179 JUMPI DUP1 PUSH4 0x9A923B9A EQ PUSH2 0x1AD JUMPI DUP1 PUSH4 0x9B5215F6 EQ PUSH2 0x1FA JUMPI DUP1 PUSH4 0xD0A10260 EQ PUSH2 0x22E JUMPI DUP1 PUSH4 0xFC0C546A EQ PUSH2 0x243 JUMPI PUSH1 0x0 DUP1 REVERT JUMPDEST DUP1 PUSH4 0x303F1E81 EQ PUSH2 0x96 JUMPI DUP1 PUSH4 0x55CD1378 EQ PUSH2 0xDD JUMPI DUP1 PUSH4 0x5E280F11 EQ PUSH2 0x11D JUMPI DUP1 PUSH4 0x6E3BF0AD EQ PUSH2 0x151 JUMPI PUSH1 0x0 DUP1 REVERT JUMPDEST CALLDATASIZE PUSH2 0x91 JUMPI STOP JUMPDEST PUSH1 0x0 DUP1 REVERT JUMPDEST CALLVALUE DUP1 ISZERO PUSH2 0xA2 JUMPI PUSH1 0x0 DUP1 REVERT JUMPDEST POP PUSH2 0xCA PUSH32 0x0 DUP2 JUMP JUMPDEST PUSH1 0x40 MLOAD SWAP1 DUP2 MSTORE PUSH1 0x20 ADD JUMPDEST PUSH1 0x40 MLOAD DUP1 SWAP2 SUB SWAP1 RETURN JUMPDEST CALLVALUE DUP1 ISZERO PUSH2 0xE9 JUMPI PUSH1 0x0 DUP1 REVERT JUMPDEST POP PUSH2 0x105 PUSH20 0x3333333333333333333333333333333333333333 DUP2 JUMP JUMPDEST PUSH1 0x40 MLOAD PUSH1 0x1 PUSH1 0x1 PUSH1 0xA0 SHL SUB SWAP1 SWAP2 AND DUP2 MSTORE PUSH1 0x20 ADD PUSH2 0xD4 JUMP JUMPDEST CALLVALUE DUP1 ISZERO PUSH2 0x129 JUMPI PUSH1 0x0 DUP1 REVERT JUMPDEST POP PUSH2 0x105 PUSH32 0x0 DUP2 JUMP JUMPDEST CALLVALUE DUP1 ISZERO PUSH2 0x15D JUMPI PUSH1 0x0 DUP1 REVERT JUMPDEST POP PUSH2 0x105 PUSH20 0x2222222222222222222222222222222222222222 DUP2 JUMP JUMPDEST CALLVALUE DUP1 ISZERO PUSH2 0x185 JUMPI PUSH1 0x0 DUP1 REVERT JUMPDEST POP PUSH2 0x105 PUSH32 0x0 DUP2 JUMP JUMPDEST CALLVALUE DUP1 ISZERO PUSH2 0x1B9 JUMPI PUSH1 0x0 DUP1 REVERT JUMPDEST POP PUSH2 0x1E1 PUSH32 0x0 DUP2 JUMP JUMPDEST PUSH1 0x40 MLOAD PUSH8 0xFFFFFFFFFFFFFFFF SWAP1 SWAP2 AND DUP2 MSTORE PUSH1 0x20 ADD PUSH2 0xD4 JUMP JUMPDEST CALLVALUE DUP1 ISZERO PUSH2 0x206 JUMPI PUSH1 0x0 DUP1 REVERT JUMPDEST POP PUSH2 0x105 PUSH32 0x0 DUP2 JUMP JUMPDEST PUSH2 0x241 PUSH2 0x23C CALLDATASIZE PUSH1 0x4 PUSH2 0x7DE JUMP JUMPDEST PUSH2 0x277 JUMP JUMPDEST STOP JUMPDEST CALLVALUE DUP1 ISZERO PUSH2 0x24F JUMPI PUSH1 0x0 DUP1 REVERT JUMPDEST POP PUSH2 0x105 PUSH32 0x0 DUP2 JUMP JUMPDEST CALLER PUSH1 0x1 PUSH1 0x1 PUSH1 0xA0 SHL SUB PUSH32 0x0 AND EQ PUSH2 0x2C7 JUMPI PUSH1 0x40 MLOAD PUSH4 0xEEE35E6F PUSH1 0xE0 SHL DUP2 MSTORE CALLER PUSH1 0x4 DUP3 ADD MSTORE PUSH1 0x24 ADD JUMPDEST PUSH1 0x40 MLOAD DUP1 SWAP2 SUB SWAP1 REVERT JUMPDEST DUP7 PUSH1 0x1 PUSH1 0x1 PUSH1 0xA0 SHL SUB AND PUSH32 0x0 PUSH1 0x1 PUSH1 0x1 PUSH1 0xA0 SHL SUB AND EQ PUSH2 0x34C JUMPI PUSH1 0x40 MLOAD PUSH4 0x21BFB83 PUSH1 0xE6 SHL DUP2 MSTORE PUSH1 0x1 PUSH1 0x1 PUSH1 0xA0 SHL SUB PUSH32 0x0 DUP2 AND PUSH1 0x4 DUP4 ADD MSTORE DUP9 AND PUSH1 0x24 DUP3 ADD MSTORE PUSH1 0x44 ADD PUSH2 0x2BE JUMP JUMPDEST PUSH1 0x0 DUP1 PUSH2 0x359 DUP8 DUP8 PUSH2 0x383 JUMP JUMPDEST SWAP1 SWAP3 POP SWAP1 POP CALLVALUE ISZERO PUSH2 0x36E JUMPI PUSH2 0x36E DUP3 CALLVALUE PUSH2 0x3DC JUMP JUMPDEST PUSH2 0x378 DUP3 DUP3 PUSH2 0x532 JUMP JUMPDEST POP POP POP POP POP POP POP POP POP JUMP JUMPDEST PUSH1 0x0 DUP1 PUSH1 0x0 PUSH2 0x392 DUP6 DUP6 PUSH2 0x70C JUMP JUMPDEST SWAP1 POP PUSH1 0x14 DUP2 MLOAD EQ PUSH2 0x3BA JUMPI DUP1 MLOAD PUSH1 0x40 MLOAD PUSH4 0x9B34731 PUSH1 0xE0 SHL DUP2 MSTORE PUSH2 0x2BE SWAP2 DUP4 SWAP2 PUSH1 0x4 ADD PUSH2 0x87C JUMP JUMPDEST PUSH2 0x3C3 DUP2 PUSH2 0x8D1 JUMP JUMPDEST PUSH1 0x60 SHR SWAP3 POP PUSH2 0x3D2 DUP6 DUP6 PUSH2 0x759 JUMP JUMPDEST SWAP2 POP POP SWAP3 POP SWAP3 SWAP1 POP JUMP JUMPDEST PUSH1 0x40 MLOAD PUSH1 0x0 SWAP1 PUSH20 0x2222222222222222222222222222222222222222 SWAP1 DUP4 SWAP1 DUP4 DUP2 DUP2 DUP2 DUP6 DUP8 GAS CALL SWAP3 POP POP POP RETURNDATASIZE DUP1 PUSH1 0x0 DUP2 EQ PUSH2 0x432 JUMPI PUSH1 0x40 MLOAD SWAP2 POP PUSH1 0x1F NOT PUSH1 0x3F RETURNDATASIZE ADD AND DUP3 ADD PUSH1 0x40 MSTORE RETURNDATASIZE DUP3 MSTORE RETURNDATASIZE PUSH1 0x0 PUSH1 0x20 DUP5 ADD RETURNDATACOPY PUSH2 0x437 JUMP JUMPDEST PUSH1 0x60 SWAP2 POP JUMPDEST POP POP SWAP1 POP DUP1 PUSH2 0x488 JUMPI PUSH1 0x40 MLOAD PUSH3 0x461BCD PUSH1 0xE5 SHL DUP2 MSTORE PUSH1 0x20 PUSH1 0x4 DUP3 ADD DUP2 SWAP1 MSTORE PUSH1 0x24 DUP3 ADD MSTORE PUSH32 0x4661696C656420746F2073656E64204859504520746F204879706572436F7265 PUSH1 0x44 DUP3 ADD MSTORE PUSH1 0x64 ADD PUSH2 0x2BE JUMP JUMPDEST PUSH1 0x40 MLOAD PUSH4 0xB0AC0AB PUSH1 0xE0 SHL DUP2 MSTORE PUSH1 0x1 PUSH1 0x1 PUSH1 0xA0 SHL SUB DUP5 AND PUSH1 0x4 DUP3 ADD MSTORE PUSH8 0xFFFFFFFFFFFFFFFF PUSH32 0x0 DUP2 AND PUSH1 0x24 DUP4 ADD MSTORE DUP4 AND PUSH1 0x44 DUP3 ADD MSTORE PUSH20 0x3333333333333333333333333333333333333333 SWAP1 PUSH4 0xB0AC0AB SWAP1 PUSH1 0x64 ADD PUSH1 0x0 PUSH1 0x40 MLOAD DUP1 DUP4 SUB DUP2 PUSH1 0x0 DUP8 DUP1 EXTCODESIZE ISZERO DUP1 ISZERO PUSH2 0x515 JUMPI PUSH1 0x0 DUP1 REVERT JUMPDEST POP GAS CALL ISZERO DUP1 ISZERO PUSH2 0x529 JUMPI RETURNDATASIZE PUSH1 0x0 DUP1 RETURNDATACOPY RETURNDATASIZE PUSH1 0x0 REVERT JUMPDEST POP POP POP POP POP POP POP JUMP JUMPDEST PUSH1 0x1 PUSH1 0x1 PUSH1 0xA0 SHL SUB PUSH32 0x0 AND PUSH4 0xA9059CBB PUSH32 0x0 PUSH2 0x5AD PUSH32 0x0 PUSH1 0xA PUSH2 0xA07 JUMP JUMPDEST PUSH2 0x5B7 SWAP1 DUP6 PUSH2 0xA13 JUMP JUMPDEST PUSH1 0x40 MLOAD PUSH1 0x1 PUSH1 0x1 PUSH1 0xE0 SHL SUB NOT PUSH1 0xE0 DUP6 SWAP1 SHL AND DUP2 MSTORE PUSH1 0x1 PUSH1 0x1 PUSH1 0xA0 SHL SUB SWAP1 SWAP3 AND PUSH1 0x4 DUP4 ADD MSTORE PUSH1 0x24 DUP3 ADD MSTORE PUSH1 0x44 ADD PUSH1 0x20 PUSH1 0x40 MLOAD DUP1 DUP4 SUB DUP2 PUSH1 0x0 DUP8 GAS CALL ISZERO DUP1 ISZERO PUSH2 0x602 JUMPI RETURNDATASIZE PUSH1 0x0 DUP1 RETURNDATACOPY RETURNDATASIZE PUSH1 0x0 REVERT JUMPDEST POP POP POP POP PUSH1 0x40 MLOAD RETURNDATASIZE PUSH1 0x1F NOT PUSH1 0x1F DUP3 ADD AND DUP3 ADD DUP1 PUSH1 0x40 MSTORE POP DUP2 ADD SWAP1 PUSH2 0x626 SWAP2 SWAP1 PUSH2 0xA2A JUMP JUMPDEST POP PUSH20 0x3333333333333333333333333333333333333333 PUSH4 0xB0AC0AB DUP4 PUSH32 0x0 PUSH2 0x68E PUSH32 0x0 PUSH1 0xA PUSH2 0xA07 JUMP JUMPDEST PUSH2 0x698 SWAP1 DUP7 PUSH2 0xA4C JUMP JUMPDEST PUSH1 0x40 MLOAD PUSH1 0x1 PUSH1 0x1 PUSH1 0xE0 SHL SUB NOT PUSH1 0xE0 DUP7 SWAP1 SHL AND DUP2 MSTORE PUSH1 0x1 PUSH1 0x1 PUSH1 0xA0 SHL SUB SWAP1 SWAP4 AND PUSH1 0x4 DUP5 ADD MSTORE PUSH8 0xFFFFFFFFFFFFFFFF SWAP2 DUP3 AND PUSH1 0x24 DUP5 ADD MSTORE AND PUSH1 0x44 DUP3 ADD MSTORE PUSH1 0x64 ADD PUSH1 0x0 PUSH1 0x40 MLOAD DUP1 DUP4 SUB DUP2 PUSH1 0x0 DUP8 DUP1 EXTCODESIZE ISZERO DUP1 ISZERO PUSH2 0x6F0 JUMPI PUSH1 0x0 DUP1 REVERT JUMPDEST POP GAS CALL ISZERO DUP1 ISZERO PUSH2 0x704 JUMPI RETURNDATASIZE PUSH1 0x0 DUP1 RETURNDATACOPY RETURNDATASIZE PUSH1 0x0 REVERT JUMPDEST POP POP POP POP POP POP JUMP JUMPDEST PUSH1 0x60 PUSH2 0x71B DUP3 PUSH1 0x4C DUP2 DUP7 PUSH2 0xA6E JUMP JUMPDEST DUP1 DUP1 PUSH1 0x1F ADD PUSH1 0x20 DUP1 SWAP2 DIV MUL PUSH1 0x20 ADD PUSH1 0x40 MLOAD SWAP1 DUP2 ADD PUSH1 0x40 MSTORE DUP1 SWAP4 SWAP3 SWAP2 SWAP1 DUP2 DUP2 MSTORE PUSH1 0x20 ADD DUP4 DUP4 DUP1 DUP3 DUP5 CALLDATACOPY PUSH1 0x0 SWAP3 ADD SWAP2 SWAP1 SWAP2 MSTORE POP SWAP3 SWAP4 POP POP POP POP JUMPDEST SWAP3 SWAP2 POP POP JUMP JUMPDEST PUSH1 0x0 PUSH2 0x769 PUSH1 0x2C PUSH1 0xC DUP5 DUP7 PUSH2 0xA6E JUMP JUMPDEST PUSH2 0x772 SWAP2 PUSH2 0xA98 JUMP JUMPDEST SWAP4 SWAP3 POP POP POP JUMP JUMPDEST DUP1 CALLDATALOAD PUSH1 0x1 PUSH1 0x1 PUSH1 0xA0 SHL SUB DUP2 AND DUP2 EQ PUSH2 0x790 JUMPI PUSH1 0x0 DUP1 REVERT JUMPDEST SWAP2 SWAP1 POP JUMP JUMPDEST PUSH1 0x0 DUP1 DUP4 PUSH1 0x1F DUP5 ADD SLT PUSH2 0x7A7 JUMPI PUSH1 0x0 DUP1 REVERT JUMPDEST POP DUP2 CALLDATALOAD PUSH8 0xFFFFFFFFFFFFFFFF DUP2 GT ISZERO PUSH2 0x7BF JUMPI PUSH1 0x0 DUP1 REVERT JUMPDEST PUSH1 0x20 DUP4 ADD SWAP2 POP DUP4 PUSH1 0x20 DUP3 DUP6 ADD ADD GT ISZERO PUSH2 0x7D7 JUMPI PUSH1 0x0 DUP1 REVERT JUMPDEST SWAP3 POP SWAP3 SWAP1 POP JUMP JUMPDEST PUSH1 0x0 DUP1 PUSH1 0x0 DUP1 PUSH1 0x0 DUP1 PUSH1 0x0 PUSH1 0xA0 DUP9 DUP11 SUB SLT ISZERO PUSH2 0x7F9 JUMPI PUSH1 0x0 DUP1 REVERT JUMPDEST PUSH2 0x802 DUP9 PUSH2 0x779 JUMP JUMPDEST SWAP7 POP PUSH1 0x20 DUP9 ADD CALLDATALOAD SWAP6 POP PUSH1 0x40 DUP9 ADD CALLDATALOAD PUSH8 0xFFFFFFFFFFFFFFFF DUP1 DUP3 GT ISZERO PUSH2 0x826 JUMPI PUSH1 0x0 DUP1 REVERT JUMPDEST PUSH2 0x832 DUP12 DUP4 DUP13 ADD PUSH2 0x795 JUMP JUMPDEST SWAP1 SWAP8 POP SWAP6 POP DUP6 SWAP2 POP PUSH2 0x846 PUSH1 0x60 DUP12 ADD PUSH2 0x779 JUMP JUMPDEST SWAP5 POP PUSH1 0x80 DUP11 ADD CALLDATALOAD SWAP2 POP DUP1 DUP3 GT ISZERO PUSH2 0x85C JUMPI PUSH1 0x0 DUP1 REVERT JUMPDEST POP PUSH2 0x869 DUP11 DUP3 DUP12 ADD PUSH2 0x795 JUMP JUMPDEST SWAP9 SWAP12 SWAP8 SWAP11 POP SWAP6 SWAP9 POP SWAP4 SWAP7 SWAP3 SWAP6 SWAP3 SWAP4 POP POP POP JUMP JUMPDEST PUSH1 0x40 DUP2 MSTORE PUSH1 0x0 DUP4 MLOAD DUP1 PUSH1 0x40 DUP5 ADD MSTORE PUSH1 0x0 JUMPDEST DUP2 DUP2 LT ISZERO PUSH2 0x8AA JUMPI PUSH1 0x20 DUP2 DUP8 ADD DUP2 ADD MLOAD PUSH1 0x60 DUP7 DUP5 ADD ADD MSTORE ADD PUSH2 0x88D JUMP JUMPDEST POP PUSH1 0x0 PUSH1 0x60 DUP3 DUP6 ADD ADD MSTORE PUSH1 0x60 PUSH1 0x1F NOT PUSH1 0x1F DUP4 ADD AND DUP5 ADD ADD SWAP2 POP POP DUP3 PUSH1 0x20 DUP4 ADD MSTORE SWAP4 SWAP3 POP POP POP JUMP JUMPDEST DUP1 MLOAD PUSH1 0x20 DUP3 ADD MLOAD PUSH12 0xFFFFFFFFFFFFFFFFFFFFFFFF NOT DUP1 DUP3 AND SWAP3 SWAP2 SWAP1 PUSH1 0x14 DUP4 LT ISZERO PUSH2 0x905 JUMPI DUP1 DUP2 DUP5 PUSH1 0x14 SUB PUSH1 0x3 SHL SHL DUP4 AND AND SWAP4 POP JUMPDEST POP POP POP SWAP2 SWAP1 POP JUMP JUMPDEST PUSH4 0x4E487B71 PUSH1 0xE0 SHL PUSH1 0x0 MSTORE PUSH1 0x11 PUSH1 0x4 MSTORE PUSH1 0x24 PUSH1 0x0 REVERT JUMPDEST PUSH1 0x1 DUP2 DUP2 JUMPDEST DUP1 DUP6 GT ISZERO PUSH2 0x95E JUMPI DUP2 PUSH1 0x0 NOT DIV DUP3 GT ISZERO PUSH2 0x944 JUMPI PUSH2 0x944 PUSH2 0x90D JUMP JUMPDEST DUP1 DUP6 AND ISZERO PUSH2 0x951 JUMPI SWAP2 DUP2 MUL SWAP2 JUMPDEST SWAP4 DUP5 SHR SWAP4 SWAP1 DUP1 MUL SWAP1 PUSH2 0x928 JUMP JUMPDEST POP SWAP3 POP SWAP3 SWAP1 POP JUMP JUMPDEST PUSH1 0x0 DUP3 PUSH2 0x975 JUMPI POP PUSH1 0x1 PUSH2 0x753 JUMP JUMPDEST DUP2 PUSH2 0x982 JUMPI POP PUSH1 0x0 PUSH2 0x753 JUMP JUMPDEST DUP2 PUSH1 0x1 DUP2 EQ PUSH2 0x998 JUMPI PUSH1 0x2 DUP2 EQ PUSH2 0x9A2 JUMPI PUSH2 0x9BE JUMP JUMPDEST PUSH1 0x1 SWAP2 POP POP PUSH2 0x753 JUMP JUMPDEST PUSH1 0xFF DUP5 GT ISZERO PUSH2 0x9B3 JUMPI PUSH2 0x9B3 PUSH2 0x90D JUMP JUMPDEST POP POP PUSH1 0x1 DUP3 SHL PUSH2 0x753 JUMP JUMPDEST POP PUSH1 0x20 DUP4 LT PUSH2 0x133 DUP4 LT AND PUSH1 0x4E DUP5 LT PUSH1 0xB DUP5 LT AND OR ISZERO PUSH2 0x9E1 JUMPI POP DUP2 DUP2 EXP PUSH2 0x753 JUMP JUMPDEST PUSH2 0x9EB DUP4 DUP4 PUSH2 0x923 JUMP JUMPDEST DUP1 PUSH1 0x0 NOT DIV DUP3 GT ISZERO PUSH2 0x9FF JUMPI PUSH2 0x9FF PUSH2 0x90D JUMP JUMPDEST MUL SWAP4 SWAP3 POP POP POP JUMP JUMPDEST PUSH1 0x0 PUSH2 0x772 DUP4 DUP4 PUSH2 0x966 JUMP JUMPDEST DUP1 DUP3 MUL DUP2 ISZERO DUP3 DUP3 DIV DUP5 EQ OR PUSH2 0x753 JUMPI PUSH2 0x753 PUSH2 0x90D JUMP JUMPDEST PUSH1 0x0 PUSH1 0x20 DUP3 DUP5 SUB SLT ISZERO PUSH2 0xA3C JUMPI PUSH1 0x0 DUP1 REVERT JUMPDEST DUP2 MLOAD DUP1 ISZERO ISZERO DUP2 EQ PUSH2 0x772 JUMPI PUSH1 0x0 DUP1 REVERT JUMPDEST PUSH1 0x0 DUP3 PUSH2 0xA69 JUMPI PUSH4 0x4E487B71 PUSH1 0xE0 SHL PUSH1 0x0 MSTORE PUSH1 0x12 PUSH1 0x4 MSTORE PUSH1 0x24 PUSH1 0x0 REVERT JUMPDEST POP DIV SWAP1 JUMP JUMPDEST PUSH1 0x0 DUP1 DUP6 DUP6 GT ISZERO PUSH2 0xA7E JUMPI PUSH1 0x0 DUP1 REVERT JUMPDEST DUP4 DUP7 GT ISZERO PUSH2 0xA8B JUMPI PUSH1 0x0 DUP1 REVERT JUMPDEST POP POP DUP3 ADD SWAP4 SWAP2 SWAP1 SWAP3 SUB SWAP2 POP JUMP JUMPDEST DUP1 CALLDATALOAD PUSH1 0x20 DUP4 LT ISZERO PUSH2 0x753 JUMPI PUSH1 0x0 NOT PUSH1 0x20 DUP5 SWAP1 SUB PUSH1 0x3 SHL SHL AND SWAP3 SWAP2 POP POP JUMP INVALID LOG2 PUSH5 0x6970667358 0x22 SLT KECCAK256 DUP7 BYTE DUP13 RETURN CODECOPY PUSH17 0x915F1A3D4E02641FFF43E02659E870D925 0xA9 MSTORE8 0xBE MSIZE 0xA6 ORIGIN 0x2A 0xC7 PUSH32 0x64736F6C63430008160033000000000000000000000000000000000000000000 "},"gasEstimates":{"creation":{"codeDepositCost":"559200","executionCost":"infinite","totalCost":"infinite"},"external":{"HYPE_ASSET_BRIDGE_ADDRESS()":"283","L1WritePrecompileAddress()":"239","OFT_TOKEN_ASSET_BRIDGE_ADDRESS()":"infinite","OFT_TOKEN_CORE_INDEX_ID()":"infinite","endpoint()":"infinite","lzCompose(address,bytes32,bytes,address,bytes)":"infinite","oft()":"infinite","token()":"infinite","weiDiff()":"infinite"},"internal":{"_fundAddressOnHyperCore(address,uint256)":"infinite","_sendAssetToHyperCore(address,uint256)":"infinite"}},"methodIdentifiers":{"HYPE_ASSET_BRIDGE_ADDRESS()":"6e3bf0ad","L1WritePrecompileAddress()":"55cd1378","OFT_TOKEN_ASSET_BRIDGE_ADDRESS()":"84123305","OFT_TOKEN_CORE_INDEX_ID()":"9a923b9a","endpoint()":"5e280f11","lzCompose(address,bytes32,bytes,address,bytes)":"d0a10260","oft()":"9b5215f6","token()":"fc0c546a","weiDiff()":"303f1e81"}},"storageLayout":{"storage":[],"types":null},"userdoc":{"kind":"user","methods":{"constructor":{"notice":"Constructor for the HyperLiquidLZComposer contract"},"lzCompose(address,bytes32,bytes,address,bytes)":{"notice":"Composes a message to be sent to the HyperLiquidLZComposerThis function is the only new addition to the OFT standard"}},"version":1}}}}