{
  "abi": [
    {
      "type": "constructor",
      "inputs": [
        {
          "name": "_vid",
          "type": "uint32",
          "internalType": "uint32"
        },
        {
          "name": "_messageLibs",
          "type": "address[]",
          "internalType": "address[]"
        },
        {
          "name": "_priceFeed",
          "type": "address",
          "internalType": "address"
        },
        {
          "name": "_signers",
          "type": "address[]",
          "internalType": "address[]"
        },
        {
          "name": "_quorum",
          "type": "uint64",
          "internalType": "uint64"
        },
        {
          "name": "_admins",
          "type": "address[]",
          "internalType": "address[]"
        }
      ],
      "stateMutability": "nonpayable"
    },
    {
      "type": "function",
      "name": "DEFAULT_ADMIN_ROLE",
      "inputs": [],
      "outputs": [
        {
          "name": "",
          "type": "bytes32",
          "internalType": "bytes32"
        }
      ],
      "stateMutability": "view"
    },
    {
      "type": "function",
      "name": "allowlistSize",
      "inputs": [],
      "outputs": [
        {
          "name": "",
          "type": "uint64",
          "internalType": "uint64"
        }
      ],
      "stateMutability": "view"
    },
    {
      "type": "function",
      "name": "assignJob",
      "inputs": [
        {
          "name": "_param",
          "type": "tuple",
          "internalType": "struct ILayerZeroDVN.AssignJobParam",
          "components": [
            {
              "name": "dstEid",
              "type": "uint32",
              "internalType": "uint32"
            },
            {
              "name": "packetHeader",
              "type": "bytes",
              "internalType": "bytes"
            },
            {
              "name": "payloadHash",
              "type": "bytes32",
              "internalType": "bytes32"
            },
            {
              "name": "confirmations",
              "type": "uint64",
              "internalType": "uint64"
            },
            {
              "name": "sender",
              "type": "address",
              "internalType": "address"
            }
          ]
        },
        {
          "name": "_options",
          "type": "bytes",
          "internalType": "bytes"
        }
      ],
      "outputs": [
        {
          "name": "totalFee",
          "type": "uint256",
          "internalType": "uint256"
        }
      ],
      "stateMutability": "payable"
    },
    {
      "type": "function",
      "name": "assignJob",
      "inputs": [
        {
          "name": "_dstEid",
          "type": "uint16",
          "internalType": "uint16"
        },
        {
          "name": "",
          "type": "uint16",
          "internalType": "uint16"
        },
        {
          "name": "_confirmations",
          "type": "uint64",
          "internalType": "uint64"
        },
        {
          "name": "_sender",
          "type": "address",
          "internalType": "address"
        }
      ],
      "outputs": [
        {
          "name": "totalFee",
          "type": "uint256",
          "internalType": "uint256"
        }
      ],
      "stateMutability": "nonpayable"
    },
    {
      "type": "function",
      "name": "defaultMultiplierBps",
      "inputs": [],
      "outputs": [
        {
          "name": "",
          "type": "uint16",
          "internalType": "uint16"
        }
      ],
      "stateMutability": "view"
    },
    {
      "type": "function",
      "name": "dstConfig",
      "inputs": [
        {
          "name": "dstEid",
          "type": "uint32",
          "internalType": "uint32"
        }
      ],
      "outputs": [
        {
          "name": "gas",
          "type": "uint64",
          "internalType": "uint64"
        },
        {
          "name": "multiplierBps",
          "type": "uint16",
          "internalType": "uint16"
        },
        {
          "name": "floorMarginUSD",
          "type": "uint128",
          "internalType": "uint128"
        }
      ],
      "stateMutability": "view"
    },
    {
      "type": "function",
      "name": "execute",
      "inputs": [
        {
          "name": "_params",
          "type": "tuple[]",
          "internalType": "struct ExecuteParam[]",
          "components": [
            {
              "name": "vid",
              "type": "uint32",
              "internalType": "uint32"
            },
            {
              "name": "target",
              "type": "address",
              "internalType": "address"
            },
            {
              "name": "callData",
              "type": "bytes",
              "internalType": "bytes"
            },
            {
              "name": "expiration",
              "type": "uint256",
              "internalType": "uint256"
            },
            {
              "name": "signatures",
              "type": "bytes",
              "internalType": "bytes"
            }
          ]
        }
      ],
      "outputs": [],
      "stateMutability": "nonpayable"
    },
    {
      "type": "function",
      "name": "getFee",
      "inputs": [
        {
          "name": "_dstEid",
          "type": "uint32",
          "internalType": "uint32"
        },
        {
          "name": "_confirmations",
          "type": "uint64",
          "internalType": "uint64"
        },
        {
          "name": "_sender",
          "type": "address",
          "internalType": "address"
        },
        {
          "name": "_options",
          "type": "bytes",
          "internalType": "bytes"
        }
      ],
      "outputs": [
        {
          "name": "fee",
          "type": "uint256",
          "internalType": "uint256"
        }
      ],
      "stateMutability": "view"
    },
    {
      "type": "function",
      "name": "getFee",
      "inputs": [
        {
          "name": "_dstEid",
          "type": "uint16",
          "internalType": "uint16"
        },
        {
          "name": "",
          "type": "uint16",
          "internalType": "uint16"
        },
        {
          "name": "_confirmations",
          "type": "uint64",
          "internalType": "uint64"
        },
        {
          "name": "_sender",
          "type": "address",
          "internalType": "address"
        }
      ],
      "outputs": [
        {
          "name": "fee",
          "type": "uint256",
          "internalType": "uint256"
        }
      ],
      "stateMutability": "view"
    },
    {
      "type": "function",
      "name": "getRoleAdmin",
      "inputs": [
        {
          "name": "role",
          "type": "bytes32",
          "internalType": "bytes32"
        }
      ],
      "outputs": [
        {
          "name": "",
          "type": "bytes32",
          "internalType": "bytes32"
        }
      ],
      "stateMutability": "view"
    },
    {
      "type": "function",
      "name": "getSupportedOptionTypes",
      "inputs": [
        {
          "name": "_eid",
          "type": "uint32",
          "internalType": "uint32"
        }
      ],
      "outputs": [
        {
          "name": "",
          "type": "uint8[]",
          "internalType": "uint8[]"
        }
      ],
      "stateMutability": "view"
    },
    {
      "type": "function",
      "name": "grantRole",
      "inputs": [
        {
          "name": "_role",
          "type": "bytes32",
          "internalType": "bytes32"
        },
        {
          "name": "_account",
          "type": "address",
          "internalType": "address"
        }
      ],
      "outputs": [],
      "stateMutability": "nonpayable"
    },
    {
      "type": "function",
      "name": "hasAcl",
      "inputs": [
        {
          "name": "_sender",
          "type": "address",
          "internalType": "address"
        }
      ],
      "outputs": [
        {
          "name": "",
          "type": "bool",
          "internalType": "bool"
        }
      ],
      "stateMutability": "view"
    },
    {
      "type": "function",
      "name": "hasRole",
      "inputs": [
        {
          "name": "role",
          "type": "bytes32",
          "internalType": "bytes32"
        },
        {
          "name": "account",
          "type": "address",
          "internalType": "address"
        }
      ],
      "outputs": [
        {
          "name": "",
          "type": "bool",
          "internalType": "bool"
        }
      ],
      "stateMutability": "view"
    },
    {
      "type": "function",
      "name": "hashCallData",
      "inputs": [
        {
          "name": "_vid",
          "type": "uint32",
          "internalType": "uint32"
        },
        {
          "name": "_target",
          "type": "address",
          "internalType": "address"
        },
        {
          "name": "_callData",
          "type": "bytes",
          "internalType": "bytes"
        },
        {
          "name": "_expiration",
          "type": "uint256",
          "internalType": "uint256"
        }
      ],
      "outputs": [
        {
          "name": "",
          "type": "bytes32",
          "internalType": "bytes32"
        }
      ],
      "stateMutability": "pure"
    },
    {
      "type": "function",
      "name": "paused",
      "inputs": [],
      "outputs": [
        {
          "name": "",
          "type": "bool",
          "internalType": "bool"
        }
      ],
      "stateMutability": "view"
    },
    {
      "type": "function",
      "name": "priceFeed",
      "inputs": [],
      "outputs": [
        {
          "name": "",
          "type": "address",
          "internalType": "address"
        }
      ],
      "stateMutability": "view"
    },
    {
      "type": "function",
      "name": "quorum",
      "inputs": [],
      "outputs": [
        {
          "name": "",
          "type": "uint64",
          "internalType": "uint64"
        }
      ],
      "stateMutability": "view"
    },
    {
      "type": "function",
      "name": "quorumChangeAdmin",
      "inputs": [
        {
          "name": "_param",
          "type": "tuple",
          "internalType": "struct ExecuteParam",
          "components": [
            {
              "name": "vid",
              "type": "uint32",
              "internalType": "uint32"
            },
            {
              "name": "target",
              "type": "address",
              "internalType": "address"
            },
            {
              "name": "callData",
              "type": "bytes",
              "internalType": "bytes"
            },
            {
              "name": "expiration",
              "type": "uint256",
              "internalType": "uint256"
            },
            {
              "name": "signatures",
              "type": "bytes",
              "internalType": "bytes"
            }
          ]
        }
      ],
      "outputs": [],
      "stateMutability": "nonpayable"
    },
    {
      "type": "function",
      "name": "renounceRole",
      "inputs": [
        {
          "name": "",
          "type": "bytes32",
          "internalType": "bytes32"
        },
        {
          "name": "",
          "type": "address",
          "internalType": "address"
        }
      ],
      "outputs": [],
      "stateMutability": "pure"
    },
    {
      "type": "function",
      "name": "revokeRole",
      "inputs": [
        {
          "name": "_role",
          "type": "bytes32",
          "internalType": "bytes32"
        },
        {
          "name": "_account",
          "type": "address",
          "internalType": "address"
        }
      ],
      "outputs": [],
      "stateMutability": "nonpayable"
    },
    {
      "type": "function",
      "name": "setDefaultMultiplierBps",
      "inputs": [
        {
          "name": "_multiplierBps",
          "type": "uint16",
          "internalType": "uint16"
        }
      ],
      "outputs": [],
      "stateMutability": "nonpayable"
    },
    {
      "type": "function",
      "name": "setDstConfig",
      "inputs": [
        {
          "name": "_params",
          "type": "tuple[]",
          "internalType": "struct IDVN.DstConfigParam[]",
          "components": [
            {
              "name": "dstEid",
              "type": "uint32",
              "internalType": "uint32"
            },
            {
              "name": "gas",
              "type": "uint64",
              "internalType": "uint64"
            },
            {
              "name": "multiplierBps",
              "type": "uint16",
              "internalType": "uint16"
            },
            {
              "name": "floorMarginUSD",
              "type": "uint128",
              "internalType": "uint128"
            }
          ]
        }
      ],
      "outputs": [],
      "stateMutability": "nonpayable"
    },
    {
      "type": "function",
      "name": "setPaused",
      "inputs": [
        {
          "name": "_paused",
          "type": "bool",
          "internalType": "bool"
        }
      ],
      "outputs": [],
      "stateMutability": "nonpayable"
    },
    {
      "type": "function",
      "name": "setPriceFeed",
      "inputs": [
        {
          "name": "_priceFeed",
          "type": "address",
          "internalType": "address"
        }
      ],
      "outputs": [],
      "stateMutability": "nonpayable"
    },
    {
      "type": "function",
      "name": "setQuorum",
      "inputs": [
        {
          "name": "_quorum",
          "type": "uint64",
          "internalType": "uint64"
        }
      ],
      "outputs": [],
      "stateMutability": "nonpayable"
    },
    {
      "type": "function",
      "name": "setSigner",
      "inputs": [
        {
          "name": "_signer",
          "type": "address",
          "internalType": "address"
        },
        {
          "name": "_active",
          "type": "bool",
          "internalType": "bool"
        }
      ],
      "outputs": [],
      "stateMutability": "nonpayable"
    },
    {
      "type": "function",
      "name": "setSupportedOptionTypes",
      "inputs": [
        {
          "name": "_eid",
          "type": "uint32",
          "internalType": "uint32"
        },
        {
          "name": "_optionTypes",
          "type": "uint8[]",
          "internalType": "uint8[]"
        }
      ],
      "outputs": [],
      "stateMutability": "nonpayable"
    },
    {
      "type": "function",
      "name": "setWorkerFeeLib",
      "inputs": [
        {
          "name": "_workerFeeLib",
          "type": "address",
          "internalType": "address"
        }
      ],
      "outputs": [],
      "stateMutability": "nonpayable"
    },
    {
      "type": "function",
      "name": "signerSize",
      "inputs": [],
      "outputs": [
        {
          "name": "",
          "type": "uint64",
          "internalType": "uint64"
        }
      ],
      "stateMutability": "view"
    },
    {
      "type": "function",
      "name": "signers",
      "inputs": [
        {
          "name": "signer",
          "type": "address",
          "internalType": "address"
        }
      ],
      "outputs": [
        {
          "name": "active",
          "type": "bool",
          "internalType": "bool"
        }
      ],
      "stateMutability": "view"
    },
    {
      "type": "function",
      "name": "supportsInterface",
      "inputs": [
        {
          "name": "interfaceId",
          "type": "bytes4",
          "internalType": "bytes4"
        }
      ],
      "outputs": [
        {
          "name": "",
          "type": "bool",
          "internalType": "bool"
        }
      ],
      "stateMutability": "view"
    },
    {
      "type": "function",
      "name": "usedHashes",
      "inputs": [
        {
          "name": "executableHash",
          "type": "bytes32",
          "internalType": "bytes32"
        }
      ],
      "outputs": [
        {
          "name": "used",
          "type": "bool",
          "internalType": "bool"
        }
      ],
      "stateMutability": "view"
    },
    {
      "type": "function",
      "name": "verifySignatures",
      "inputs": [
        {
          "name": "_hash",
          "type": "bytes32",
          "internalType": "bytes32"
        },
        {
          "name": "_signatures",
          "type": "bytes",
          "internalType": "bytes"
        }
      ],
      "outputs": [
        {
          "name": "",
          "type": "bool",
          "internalType": "bool"
        },
        {
          "name": "",
          "type": "uint8",
          "internalType": "enum MultiSigMock.Errors"
        }
      ],
      "stateMutability": "view"
    },
    {
      "type": "function",
      "name": "vid",
      "inputs": [],
      "outputs": [
        {
          "name": "",
          "type": "uint32",
          "internalType": "uint32"
        }
      ],
      "stateMutability": "view"
    },
    {
      "type": "function",
      "name": "withdrawFee",
      "inputs": [
        {
          "name": "_lib",
          "type": "address",
          "internalType": "address"
        },
        {
          "name": "_to",
          "type": "address",
          "internalType": "address"
        },
        {
          "name": "_amount",
          "type": "uint256",
          "internalType": "uint256"
        }
      ],
      "outputs": [],
      "stateMutability": "nonpayable"
    },
    {
      "type": "function",
      "name": "withdrawFeeFromUlnV2",
      "inputs": [
        {
          "name": "_lib",
          "type": "address",
          "internalType": "address"
        },
        {
          "name": "_to",
          "type": "address",
          "internalType": "address payable"
        },
        {
          "name": "_amount",
          "type": "uint256",
          "internalType": "uint256"
        }
      ],
      "outputs": [],
      "stateMutability": "nonpayable"
    },
    {
      "type": "function",
      "name": "withdrawToken",
      "inputs": [
        {
          "name": "_token",
          "type": "address",
          "internalType": "address"
        },
        {
          "name": "_to",
          "type": "address",
          "internalType": "address"
        },
        {
          "name": "_amount",
          "type": "uint256",
          "internalType": "uint256"
        }
      ],
      "outputs": [],
      "stateMutability": "nonpayable"
    },
    {
      "type": "function",
      "name": "workerFeeLib",
      "inputs": [],
      "outputs": [
        {
          "name": "",
          "type": "address",
          "internalType": "address"
        }
      ],
      "stateMutability": "view"
    },
    {
      "type": "event",
      "name": "ExecuteFailed",
      "inputs": [
        {
          "name": "_index",
          "type": "uint256",
          "indexed": false,
          "internalType": "uint256"
        },
        {
          "name": "_data",
          "type": "bytes",
          "indexed": false,
          "internalType": "bytes"
        }
      ],
      "anonymous": false
    },
    {
      "type": "event",
      "name": "HashAlreadyUsed",
      "inputs": [
        {
          "name": "param",
          "type": "tuple",
          "indexed": false,
          "internalType": "struct ExecuteParam",
          "components": [
            {
              "name": "vid",
              "type": "uint32",
              "internalType": "uint32"
            },
            {
              "name": "target",
              "type": "address",
              "internalType": "address"
            },
            {
              "name": "callData",
              "type": "bytes",
              "internalType": "bytes"
            },
            {
              "name": "expiration",
              "type": "uint256",
              "internalType": "uint256"
            },
            {
              "name": "signatures",
              "type": "bytes",
              "internalType": "bytes"
            }
          ]
        },
        {
          "name": "_hash",
          "type": "bytes32",
          "indexed": false,
          "internalType": "bytes32"
        }
      ],
      "anonymous": false
    },
    {
      "type": "event",
      "name": "Paused",
      "inputs": [
        {
          "name": "account",
          "type": "address",
          "indexed": false,
          "internalType": "address"
        }
      ],
      "anonymous": false
    },
    {
      "type": "event",
      "name": "RoleAdminChanged",
      "inputs": [
        {
          "name": "role",
          "type": "bytes32",
          "indexed": true,
          "internalType": "bytes32"
        },
        {
          "name": "previousAdminRole",
          "type": "bytes32",
          "indexed": true,
          "internalType": "bytes32"
        },
        {
          "name": "newAdminRole",
          "type": "bytes32",
          "indexed": true,
          "internalType": "bytes32"
        }
      ],
      "anonymous": false
    },
    {
      "type": "event",
      "name": "RoleGranted",
      "inputs": [
        {
          "name": "role",
          "type": "bytes32",
          "indexed": true,
          "internalType": "bytes32"
        },
        {
          "name": "account",
          "type": "address",
          "indexed": true,
          "internalType": "address"
        },
        {
          "name": "sender",
          "type": "address",
          "indexed": true,
          "internalType": "address"
        }
      ],
      "anonymous": false
    },
    {
      "type": "event",
      "name": "RoleRevoked",
      "inputs": [
        {
          "name": "role",
          "type": "bytes32",
          "indexed": true,
          "internalType": "bytes32"
        },
        {
          "name": "account",
          "type": "address",
          "indexed": true,
          "internalType": "address"
        },
        {
          "name": "sender",
          "type": "address",
          "indexed": true,
          "internalType": "address"
        }
      ],
      "anonymous": false
    },
    {
      "type": "event",
      "name": "SetDefaultMultiplierBps",
      "inputs": [
        {
          "name": "multiplierBps",
          "type": "uint16",
          "indexed": false,
          "internalType": "uint16"
        }
      ],
      "anonymous": false
    },
    {
      "type": "event",
      "name": "SetDstConfig",
      "inputs": [
        {
          "name": "params",
          "type": "tuple[]",
          "indexed": false,
          "internalType": "struct IDVN.DstConfigParam[]",
          "components": [
            {
              "name": "dstEid",
              "type": "uint32",
              "internalType": "uint32"
            },
            {
              "name": "gas",
              "type": "uint64",
              "internalType": "uint64"
            },
            {
              "name": "multiplierBps",
              "type": "uint16",
              "internalType": "uint16"
            },
            {
              "name": "floorMarginUSD",
              "type": "uint128",
              "internalType": "uint128"
            }
          ]
        }
      ],
      "anonymous": false
    },
    {
      "type": "event",
      "name": "SetPriceFeed",
      "inputs": [
        {
          "name": "priceFeed",
          "type": "address",
          "indexed": false,
          "internalType": "address"
        }
      ],
      "anonymous": false
    },
    {
      "type": "event",
      "name": "SetSupportedOptionTypes",
      "inputs": [
        {
          "name": "dstEid",
          "type": "uint32",
          "indexed": false,
          "internalType": "uint32"
        },
        {
          "name": "optionTypes",
          "type": "uint8[]",
          "indexed": false,
          "internalType": "uint8[]"
        }
      ],
      "anonymous": false
    },
    {
      "type": "event",
      "name": "SetWorkerLib",
      "inputs": [
        {
          "name": "workerLib",
          "type": "address",
          "indexed": false,
          "internalType": "address"
        }
      ],
      "anonymous": false
    },
    {
      "type": "event",
      "name": "Unpaused",
      "inputs": [
        {
          "name": "account",
          "type": "address",
          "indexed": false,
          "internalType": "address"
        }
      ],
      "anonymous": false
    },
    {
      "type": "event",
      "name": "UpdateQuorum",
      "inputs": [
        {
          "name": "_quorum",
          "type": "uint64",
          "indexed": false,
          "internalType": "uint64"
        }
      ],
      "anonymous": false
    },
    {
      "type": "event",
      "name": "UpdateSigner",
      "inputs": [
        {
          "name": "_signer",
          "type": "address",
          "indexed": false,
          "internalType": "address"
        },
        {
          "name": "_active",
          "type": "bool",
          "indexed": false,
          "internalType": "bool"
        }
      ],
      "anonymous": false
    },
    {
      "type": "event",
      "name": "VerifierFeePaid",
      "inputs": [
        {
          "name": "fee",
          "type": "uint256",
          "indexed": false,
          "internalType": "uint256"
        }
      ],
      "anonymous": false
    },
    {
      "type": "event",
      "name": "VerifySignaturesFailed",
      "inputs": [
        {
          "name": "idx",
          "type": "uint256",
          "indexed": false,
          "internalType": "uint256"
        }
      ],
      "anonymous": false
    },
    {
      "type": "event",
      "name": "Withdraw",
      "inputs": [
        {
          "name": "lib",
          "type": "address",
          "indexed": false,
          "internalType": "address"
        },
        {
          "name": "to",
          "type": "address",
          "indexed": false,
          "internalType": "address"
        },
        {
          "name": "amount",
          "type": "uint256",
          "indexed": false,
          "internalType": "uint256"
        }
      ],
      "anonymous": false
    },
    {
      "type": "error",
      "name": "AccessControlBadConfirmation",
      "inputs": []
    },
    {
      "type": "error",
      "name": "AccessControlUnauthorizedAccount",
      "inputs": [
        {
          "name": "account",
          "type": "address",
          "internalType": "address"
        },
        {
          "name": "neededRole",
          "type": "bytes32",
          "internalType": "bytes32"
        }
      ]
    },
    {
      "type": "error",
      "name": "AddressEmptyCode",
      "inputs": [
        {
          "name": "target",
          "type": "address",
          "internalType": "address"
        }
      ]
    },
    {
      "type": "error",
      "name": "AddressInsufficientBalance",
      "inputs": [
        {
          "name": "account",
          "type": "address",
          "internalType": "address"
        }
      ]
    },
    {
      "type": "error",
      "name": "DVN_DuplicatedHash",
      "inputs": [
        {
          "name": "executableHash",
          "type": "bytes32",
          "internalType": "bytes32"
        }
      ]
    },
    {
      "type": "error",
      "name": "DVN_InstructionExpired",
      "inputs": []
    },
    {
      "type": "error",
      "name": "DVN_InvalidRole",
      "inputs": [
        {
          "name": "role",
          "type": "bytes32",
          "internalType": "bytes32"
        }
      ]
    },
    {
      "type": "error",
      "name": "DVN_InvalidSignatures",
      "inputs": []
    },
    {
      "type": "error",
      "name": "DVN_InvalidTarget",
      "inputs": [
        {
          "name": "target",
          "type": "address",
          "internalType": "address"
        }
      ]
    },
    {
      "type": "error",
      "name": "DVN_InvalidVid",
      "inputs": [
        {
          "name": "vid",
          "type": "uint32",
          "internalType": "uint32"
        }
      ]
    },
    {
      "type": "error",
      "name": "DVN_OnlySelf",
      "inputs": []
    },
    {
      "type": "error",
      "name": "EnforcedPause",
      "inputs": []
    },
    {
      "type": "error",
      "name": "ExpectedPause",
      "inputs": []
    },
    {
      "type": "error",
      "name": "FailedInnerCall",
      "inputs": []
    },
    {
      "type": "error",
      "name": "MultiSig_OnlySigner",
      "inputs": []
    },
    {
      "type": "error",
      "name": "MultiSig_QuorumIsZero",
      "inputs": []
    },
    {
      "type": "error",
      "name": "MultiSig_SignersSizeIsLessThanQuorum",
      "inputs": [
        {
          "name": "signersSize",
          "type": "uint64",
          "internalType": "uint64"
        },
        {
          "name": "quorum",
          "type": "uint64",
          "internalType": "uint64"
        }
      ]
    },
    {
      "type": "error",
      "name": "MultiSig_StateAlreadySet",
      "inputs": [
        {
          "name": "signer",
          "type": "address",
          "internalType": "address"
        },
        {
          "name": "active",
          "type": "bool",
          "internalType": "bool"
        }
      ]
    },
    {
      "type": "error",
      "name": "MultiSig_UnorderedSigners",
      "inputs": []
    },
    {
      "type": "error",
      "name": "SafeERC20FailedOperation",
      "inputs": [
        {
          "name": "token",
          "type": "address",
          "internalType": "address"
        }
      ]
    },
    {
      "type": "error",
      "name": "Transfer_NativeFailed",
      "inputs": [
        {
          "name": "_to",
          "type": "address",
          "internalType": "address"
        },
        {
          "name": "_value",
          "type": "uint256",
          "internalType": "uint256"
        }
      ]
    },
    {
      "type": "error",
      "name": "Transfer_ToAddressIsZero",
      "inputs": []
    },
    {
      "type": "error",
      "name": "Worker_NotAllowed",
      "inputs": []
    },
    {
      "type": "error",
      "name": "Worker_OnlyMessageLib",
      "inputs": []
    },
    {
      "type": "error",
      "name": "Worker_RoleRenouncingDisabled",
      "inputs": []
    }
  ],
  "bytecode": {
    "object": "0x60a06040523480156200001157600080fd5b50604051620038e7380380620038e78339810160408190526200003491620004de565b6001805460ff61ffff60e81b01191661017760ed1b179055600280546001600160a01b0319166001600160a01b03861617905582828686612ee060008660005b8551811015620000d657620000cc7f724aface199fe5bed93ae8508474576a9adf3dc443b2c451842a2242919f19de878381518110620000b857620000b8620005b1565b60200260200101516200027d60201b60201c565b5060010162000074565b5060005b815181101562000128576200011e7fa49807205ce4d355092ef5a8a18f56e8913cf4a201fbe287825b095693c21775838381518110620000b857620000b8620005b1565b50600101620000da565b505050505050806001600160401b03166000036200015957604051635f86e17760e01b815260040160405180910390fd5b806001600160401b0316825110156200019f5781516040516378e2c15760e11b81526001600160401b039182166004820152908216602482015260440160405180910390fd5b6000805b835181101562000231576000848281518110620001c457620001c4620005b1565b60200260200101519050826001600160a01b0316816001600160a01b03161162000201576040516305fa937f60e11b815260040160405180910390fd5b6001600160a01b0381166000908152600460205260409020805460ff1916600190811790915590925001620001a3565b50509051600580546001600160401b0393841668010000000000000000026001600160801b0319909116939092169290921717905550505063ffffffff90921660805250620006049050565b60007f74845de37cfabd357633214b47fa91ccd19b05b7c5a08ac22c187f811fb62bca83148015620002d057506000838152602081815260408083206001600160a01b038616845290915290205460ff16155b156200031d5760018054601590620002f890600160a81b90046001600160401b0316620005c7565b91906101000a8154816001600160401b0302191690836001600160401b031602179055505b62000329838362000335565b50600190505b92915050565b6000828152602081815260408083206001600160a01b038516845290915281205460ff16620003da576000838152602081815260408083206001600160a01b03861684529091529020805460ff19166001179055620003913390565b6001600160a01b0316826001600160a01b0316847f2f8788117e7eff1d82e926ec794901d17c78024a50270940304540a733656f0d60405160405180910390a45060016200032f565b5060006200032f565b634e487b7160e01b600052604160045260246000fd5b80516001600160a01b03811681146200041157600080fd5b919050565b600082601f8301126200042857600080fd5b815160206001600160401b0380831115620004475762000447620003e3565b8260051b604051601f19603f830116810181811084821117156200046f576200046f620003e3565b60405293845260208187018101949081019250878511156200049057600080fd5b6020870191505b84821015620004bb57620004ab82620003f9565b8352918301919083019062000497565b979650505050505050565b80516001600160401b03811681146200041157600080fd5b60008060008060008060c08789031215620004f857600080fd5b865163ffffffff811681146200050d57600080fd5b60208801519096506001600160401b03808211156200052b57600080fd5b620005398a838b0162000416565b96506200054960408a01620003f9565b955060608901519150808211156200056057600080fd5b6200056e8a838b0162000416565b94506200057e60808a01620004c6565b935060a08901519150808211156200059557600080fd5b50620005a489828a0162000416565b9150509295509295509295565b634e487b7160e01b600052603260045260246000fd5b60006001600160401b038281166002600160401b03198101620005fa57634e487b7160e01b600052601160045260246000fd5b6001019392505050565b6080516132b96200062e6000396000818161074c015281816112280152611b1001526132b96000f3fe60806040526004361061022f5760003560e01c80638585c9451161012e578063c7a823e0116100ab578063d547741f1161006f578063d547741f146107aa578063dafe0ccc146107ca578063f010cb23146107ea578063f3b4ebd01461080a578063fd62e7501461082a57600080fd5b8063c7a823e0146106cc578063c7b2370b146106fa578063cd88b9031461071a578063cf34c7681461073a578063d2ae21041461078357600080fd5b8063aef18bf7116100f2578063aef18bf714610617578063b143044b14610647578063c358de0a14610667578063c416aa5114610687578063c5e193cd146106ac57600080fd5b80638585c9451461052a57806391d148541461054a57806395d376d71461056a5780639e9449651461057d578063a217fddf1461060257600080fd5b80632f2ff15d116101bc5780635553fb8e116101805780635553fb8e1461046a5780635c975abb1461048a578063724e78da146104a2578063736c0d5b146104c2578063741bef1a146104f257600080fd5b80632f2ff15d146103ca57806330bb3aac146103ea57806331cb61051461040a57806336568abe1461042a57806352d3b8711461044a57600080fd5b806316c38b3c1161020357806316c38b3c146102e05780631703a01814610300578063248a9ca31461033f57806326e67a371461037d5780632de11376146103aa57600080fd5b8062bf2e801461023457806301e336671461026e57806301ffc9a7146102905780631095b6d7146102c0575b600080fd5b34801561024057600080fd5b5060015461025690600160e81b900461ffff1681565b60405161ffff90911681526020015b60405180910390f35b34801561027a57600080fd5b5061028e610289366004612695565b61084a565b005b34801561029c57600080fd5b506102b06102ab3660046126d6565b610873565b6040519015158152602001610265565b3480156102cc57600080fd5b5061028e6102db366004612695565b6108aa565b3480156102ec57600080fd5b5061028e6102fb36600461270e565b6109ac565b34801561030c57600080fd5b5060055461032790600160401b90046001600160401b031681565b6040516001600160401b039091168152602001610265565b34801561034b57600080fd5b5061036f61035a36600461272b565b60009081526020819052604090206001015490565b604051908152602001610265565b34801561038957600080fd5b5061039d610398366004612758565b6109d1565b6040516102659190612773565b3480156103b657600080fd5b506102b06103c53660046127ba565b610a58565b3480156103d657600080fd5b5061028e6103e53660046127d7565b610add565b3480156103f657600080fd5b5061036f610405366004612866565b610bb2565b34801561041657600080fd5b5061028e6104253660046128dd565b610cca565b34801561043657600080fd5b5061028e6104453660046127d7565b610cf4565b34801561045657600080fd5b5061028e61046536600461290b565b610d0d565b34801561047657600080fd5b5061036f610485366004612991565b610e86565b34801561049657600080fd5b5060015460ff166102b0565b3480156104ae57600080fd5b5061028e6104bd3660046127ba565b610f9e565b3480156104ce57600080fd5b506102b06104dd3660046127ba565b60046020526000908152604090205460ff1681565b3480156104fe57600080fd5b50600254610512906001600160a01b031681565b6040516001600160a01b039091168152602001610265565b34801561053657600080fd5b5061028e6105453660046129e7565b61100c565b34801561055657600080fd5b506102b06105653660046127d7565b611038565b61036f610578366004612a1a565b611061565b34801561058957600080fd5b506105d1610598366004612758565b6006602052600090815260409020546001600160401b03811690600160401b810461ffff1690600160501b90046001600160801b031683565b604080516001600160401b03909416845261ffff90921660208401526001600160801b031690820152606001610265565b34801561060e57600080fd5b5061036f600081565b34801561062357600080fd5b506102b061063236600461272b565b60076020526000908152604090205460ff1681565b34801561065357600080fd5b5061028e610662366004612ac6565b6111d7565b34801561067357600080fd5b5061028e610682366004612b07565b61148c565b34801561069357600080fd5b506001546105129061010090046001600160a01b031681565b3480156106b857600080fd5b5061036f6106c7366004612991565b6114f4565b3480156106d857600080fd5b506106ec6106e7366004612b22565b611661565b604051610265929190612b76565b34801561070657600080fd5b5061028e6107153660046127ba565b61183f565b34801561072657600080fd5b5061028e610735366004612baa565b6118ad565b34801561074657600080fd5b5061076e7f000000000000000000000000000000000000000000000000000000000000000081565b60405163ffffffff9091168152602001610265565b34801561078f57600080fd5b5060015461032790600160a81b90046001600160401b031681565b3480156107b657600080fd5b5061028e6107c53660046127d7565b6118ec565b3480156107d657600080fd5b5061028e6107e5366004612695565b6119a0565b3480156107f657600080fd5b5061036f610805366004612bef565b611a55565b34801561081657600080fd5b5061028e610825366004612c59565b611a91565b34801561083657600080fd5b50600554610327906001600160401b031681565b60008051602061324483398151915261086281611c3f565b61086d848484611c49565b50505050565b60006001600160e01b03198216637965db0b60e01b14806108a457506301ffc9a760e01b6001600160e01b03198316145b92915050565b6000805160206132448339815191526108c281611c3f565b6108da60008051602061322483398151915285611038565b6108f757604051635ee08b9760e01b815260040160405180910390fd5b604051637ecdf29160e11b81526001600160a01b0384811660048301526024820184905285169063fd9be52290604401600060405180830381600087803b15801561094157600080fd5b505af1158015610955573d6000803e3d6000fd5b5050604080516001600160a01b038089168252871660208201529081018590527f9b1bfa7fa9ee420a16e124f794c35ac9f90472acc99140eb2f6447c714cad8eb925060600190505b60405180910390a150505050565b60006109b781611c3f565b81156109c9576109c5611c71565b5050565b6109c5611cc5565b63ffffffff8116600090815260036020908152604091829020805483518184028101840190945280845260609392830182828015610a4c57602002820191906000526020600020906000905b825461010083900a900460ff16815260206001928301818104948501949093039092029101808411610a1d5790505b50505050509050919050565b6000610a847f4270fae16c6d150d00e80b689daca99e8073b1838ff2b6063a37be9d851283e483611038565b15610a9157506000919050565b600154600160a81b90046001600160401b03161580610ac35750610ac360008051602061326483398151915283611038565b15610ad057506001919050565b506000919050565b919050565b81600080516020613264833981519152811480610b1957507f4270fae16c6d150d00e80b689daca99e8073b1838ff2b6063a37be9d851283e481145b80610b31575060008051602061322483398151915281145b15610b5b57303314610b5657604051637d5d391d60e11b815260040160405180910390fd5b610ba8565b6000805160206132448339815191528103610b8757610b56600080516020613244833981519152611c3f565b604051634a7ee1b960e11b8152600481018290526024015b60405180910390fd5b61086d8383611cfe565b600083610bbe81610a58565b610bdb57604051634ab5ebcd60e01b815260040160405180910390fd5b6040805160c0810182526002546001600160a01b03908116825263ffffffff8a1660208084018290526001600160401b03808c16858701528a84166060860152600554600160401b900416608085015260015461ffff600160e81b82041660a086015260009283526006909152908490209351637bfa20a960e01b8152929361010090910490911691637bfa20a991610c7d918591908a908a90600401612d1d565b602060405180830381865afa158015610c9a573d6000803e3d6000fd5b505050506040513d601f19601f82011682018060405250810190610cbe9190612d77565b98975050505050505050565b303314610cea57604051637d5d391d60e11b815260040160405180910390fd5b6109c58282611d82565b60405163dec9f03160e01b815260040160405180910390fd5b600080516020613244833981519152610d2581611c3f565b60005b82811015610e475736848483818110610d4357610d43612d90565b90506080020190506040518060600160405280826020016020810190610d6991906129e7565b6001600160401b03168152602001610d876060840160408501612b07565b61ffff168152602001610da06080840160608501612dbd565b6001600160801b0316905260066000610dbc6020850185612758565b63ffffffff1681526020808201929092526040908101600020835181549385015194909201516001600160801b0316600160501b026fffffffffffffffffffffffffffffffff60501b1961ffff909516600160401b0269ffffffffffffffffffff199094166001600160401b0390931692909217929092179290921691909117905550600101610d28565b507f7dd21e42791b013d1929e86f0c59085e4fca24251f0f1aa81917b3b1611766e08383604051610e79929190612dd8565b60405180910390a1505050565b600081610e9281610a58565b610eaf57604051634ab5ebcd60e01b815260040160405180910390fd5b6040805160c0810182526002546001600160a01b03908116825261ffff808a1660208085018290526001600160401b03808b16868801528985166060870152600554600160401b9004166080860152600154600160e81b810490931660a0860152600091825260068152858220865191820187529181529451637bfa20a960e01b8152939461010090920490921692637bfa20a992610f52928692600401612ebc565b602060405180830381865afa158015610f6f573d6000803e3d6000fd5b505050506040513d601f19601f82011682018060405250810190610f939190612d77565b979650505050505050565b600080516020613244833981519152610fb681611c3f565b600280546001600160a01b0319166001600160a01b0384169081179091556040519081527ff724a45d041687842411f2b977ef22ab8f43c8f1104f4592b42a00f9b34a643d906020015b60405180910390a15050565b30331461102c57604051637d5d391d60e11b815260040160405180910390fd5b61103581611edd565b50565b6000918252602082815260408084206001600160a01b0393909316845291905290205460ff1690565b600060008051602061322483398151915261107b81611c3f565b61108b60a08601608087016127ba565b61109481610a58565b6110b157604051634ab5ebcd60e01b815260040160405180910390fd5b6040805160c081019091526002546001600160a01b031681526000906020808201906110df908a018a612758565b63ffffffff1681526020016110fa60808a0160608b016129e7565b6001600160401b0316815260200161111860a08a0160808b016127ba565b6001600160a01b039081168252600554600160401b90046001600160401b0316602080840191909152600154600160e81b810461ffff16604090940193909352929350610100909104169063df2b057e90839060069060009061117d908d018d612758565b63ffffffff1663ffffffff16815260200190815260200160002089896040518563ffffffff1660e01b81526004016111b89493929190612d1d565b6020604051808303816000875af1158015610f6f573d6000803e3d6000fd5b6000805160206132448339815191526111ef81611c3f565b60005b8281101561086d573684848381811061120d5761120d612d90565b905060200281019061121f9190612f15565b905063ffffffff7f0000000000000000000000000000000000000000000000000000000000000000166112556020830183612758565b63ffffffff16146112665750611484565b428160600135116112775750611484565b60006112b06112896020840184612758565b61129960408501602086016127ba565b6112a66040860186612f35565b8660600135611a55565b905060006112c5826106e76080860186612f35565b50905080611308576040518481527fd6d90193101048cc1b6edcdc2348f5acf7a4a4a97d3e7b668b74cb7602ab3ebc9060200160405180910390a1505050611484565b600061132861131a6040860186612f35565b61132391612f7b565b611fab565b905080156113a35760008381526007602052604090205460ff1615611389577f9bb9bddbdf537a2104255307230b323d7982f4512ee8e5bd15df62ddca50ab978484604051611378929190612ff0565b60405180910390a150505050611484565b6000838152600760205260409020805460ff191660011790555b6000806113b660408701602088016127ba565b6001600160a01b03166113cc6040880188612f35565b6040516113da92919061308b565b6000604051808303816000865af19150503d8060008114611417576040519150601f19603f3d011682016040523d82523d6000602084013e61141c565b606091505b50915091508161147d578215611443576000858152600760205260409020805460ff191690555b7fdc8cdd96296241bbefda4a8e18ad2e0985a8da6495b34d409cfc4c886ee3b0cf878260405161147492919061309b565b60405180910390a15b5050505050505b6001016111f2565b6000805160206132448339815191526114a481611c3f565b6001805461ffff60e81b1916600160e81b61ffff8516908102919091179091556040519081527f7af0ac740036ffb1c97b03697859d729e80a44ae5030543d64971c313565ab4d90602001611000565b600060008051602061322483398151915261150e81611c3f565b8261151881610a58565b61153557604051634ab5ebcd60e01b815260040160405180910390fd5b6040805160c0810182526002546001600160a01b03908116825261ffff808b1660208085018290526001600160401b03808c16868801528a85166060870152600554600160401b9004166080860152600154600160e81b810490931660a0860152600091825260068152858220865191820187529181529451636f9582bf60e11b815293946101009092049092169263df2b057e926115d8928692600401612ebc565b6020604051808303816000875af11580156115f7573d6000803e3d6000fd5b505050506040513d601f19601f8201168201806040525081019061161b9190612d77565b93507f87e46b0a6199bc734632187269a103c05714ee0adae5b28f30723955724f37ef8460405161164e91815260200190565b60405180910390a1505050949350505050565b600554600090819061168490600160401b90046001600160401b031660416130ca565b83146116965750600090506001611837565b60006116ef866040517f19457468657265756d205369676e6564204d6573736167653a0a3332000000006020820152603c8101829052600090605c01604051602081830303815290604052805190602001209050919050565b90506000805b600554600160401b90046001600160401b031681101561182b57366000888861171f8560416130ca565b9061172b8660016130e1565b6117369060416130ca565b92611743939291906130f4565b9150915060008061178a8785858080601f016020809104026020016040519081016040528093929190818152602001838380828437600092019190915250611fe492505050565b50909250905060008160038111156117a4576117a4612b60565b146117bd57600060019850985050505050505050611837565b856001600160a01b0316826001600160a01b0316116117ea57600060029850985050505050505050611837565b6001600160a01b03821660009081526004602052604090205460ff1661181e57600060039850985050505050505050611837565b50935050506001016116f5565b50600160009350935050505b935093915050565b60008051602061324483398151915261185781611c3f565b60018054610100600160a81b0319166101006001600160a01b038516908102919091179091556040519081527f1399be28223800f8669b3ba5f8721d9fc16fc4e8d0bbf98378791c8c5a3015e090602001611000565b6000805160206132448339815191526118c581611c3f565b63ffffffff841660009081526003602052604090206118e59084846125c2565b5050505050565b8160008051602061326483398151915281148061192857507f4270fae16c6d150d00e80b689daca99e8073b1838ff2b6063a37be9d851283e481145b80611940575060008051602061322483398151915281145b1561196a5730331461196557604051637d5d391d60e11b815260040160405180910390fd5b611996565b6000805160206132448339815191528103610b8757611965600080516020613244833981519152611c3f565b61086d8383612031565b6000805160206132448339815191526119b881611c3f565b6119d060008051602061322483398151915285611038565b6119ed57604051635ee08b9760e01b815260040160405180910390fd5b6040516303d8c5ef60e11b81526001600160a01b038481166004830152602482018490528516906307b18bde90604401600060405180830381600087803b158015611a3757600080fd5b505af1158015611a4b573d6000803e3d6000fd5b5050505050505050565b60008585838686604051602001611a7095949392919061311e565b60405160208183030381529060405280519060200120905095945050505050565b42816060013511611ab557604051630bbaf26360e01b815260040160405180910390fd5b30611ac660408301602084016127ba565b6001600160a01b031614611b0957611ae460408201602083016127ba565b604051631ce0bfcd60e01b81526001600160a01b039091166004820152602401610b9f565b63ffffffff7f000000000000000000000000000000000000000000000000000000000000000016611b3d6020830183612758565b63ffffffff1614611b7757611b556020820182612758565b60405163134bf0e160e11b815263ffffffff9091166004820152602401610b9f565b6000611b896112896020840184612758565b90506000611b9e826106e76080860186612f35565b50905080611bbf57604051630af656f760e11b815260040160405180910390fd5b60008281526007602052604090205460ff1615611bf257604051634eb522d360e11b815260048101839052602401610b9f565b60008281526007602052604090819020805460ff1916600117905561086d9060008051602061324483398151915290611c2d90860186612f35565b810190611c3a91906127ba565b611cfe565b61103581336120a9565b6001600160a01b038316611c6657611c6182826120e2565b505050565b611c6183838361218f565b611c796121ca565b6001805460ff1916811790557f62e78cea01bee320cd4e420270b5ea74000d11b0c9f74754ebdbfc544b05a258335b6040516001600160a01b03909116815260200160405180910390a1565b611ccd6121f0565b6001805460ff191690557f5db9ee0a495bf2e6ff9c91a7834c1ba4fdd244a5e8aa4e537bd38aeae4b073aa33611ca8565b600060008051602061326483398151915283148015611d245750611d228383611038565b155b15611d6e5760018054601590611d4990600160a81b90046001600160401b0316613164565b91906101000a8154816001600160401b0302191690836001600160401b031602179055505b611d788383612213565b5060019392505050565b6001600160a01b03821660009081526004602052604090205481151560ff909116151503611dd6576040516302c6469560e51b81526001600160a01b03831660048201528115156024820152604401610b9f565b6001600160a01b0382166000908152600460205260408120805460ff191683151517905581611e1c57600554611e17906001906001600160401b031661318a565b611e33565b600554611e33906001600160401b031660016131b1565b6005549091506001600160401b03600160401b9091048116908216811115611e81576040516378e2c15760e11b81526001600160401b03808416600483015282166024820152604401610b9f565b6005805467ffffffffffffffff19166001600160401b038416179055604080516001600160a01b038616815284151560208201527f863d338cad74814b108a06288ad5e0e80d56495e0332238b1d2cdcfa0ca8e5ce910161099e565b806001600160401b0316600003611f0757604051635f86e17760e01b815260040160405180910390fd5b6005546001600160401b03908116908216811015611f4b576040516378e2c15760e11b81526001600160401b03808316600483015283166024820152604401610b9f565b600580546fffffffffffffffff00000000000000001916600160401b6001600160401b038516908102919091179091556040519081527fb600f3cf7f38a4b49bb0c75f722ef69f7e3e39ef3bb4aa8207fd86e724a2324990602001611000565b60006001600160e01b03198216630111a9b760e11b148015906108a457506001600160e01b0319821663704316e560e01b141592915050565b6000806000835160410361201e5760208401516040850151606086015160001a612010888285856122a5565b95509550955050505061202a565b50508151600091506002905b9250925092565b60006000805160206132648339815191528314801561205557506120558383611038565b1561209f576001805460159061207a90600160a81b90046001600160401b03166131d1565b91906101000a8154816001600160401b0302191690836001600160401b031602179055505b611d788383612374565b6120b38282611038565b6109c55760405163e2517d3f60e01b81526001600160a01b038216600482015260248101839052604401610b9f565b6001600160a01b038216612109576040516306b7a93160e41b815260040160405180910390fd5b6000826001600160a01b03168260405160006040518083038185875af1925050503d8060008114612156576040519150601f19603f3d011682016040523d82523d6000602084013e61215b565b606091505b5050905080611c6157604051631196f20d60e21b81526001600160a01b038416600482015260248101839052604401610b9f565b6001600160a01b0382166121b6576040516306b7a93160e41b815260040160405180910390fd5b611c616001600160a01b03841683836123df565b60015460ff16156121ee5760405163d93c066560e01b815260040160405180910390fd5b565b60015460ff166121ee57604051638dfc202b60e01b815260040160405180910390fd5b600061221f8383611038565b61229d576000838152602081815260408083206001600160a01b03861684529091529020805460ff191660011790556122553390565b6001600160a01b0316826001600160a01b0316847f2f8788117e7eff1d82e926ec794901d17c78024a50270940304540a733656f0d60405160405180910390a45060016108a4565b5060006108a4565b600080807f7fffffffffffffffffffffffffffffff5d576e7357a4501ddfe92f46681b20a08411156122e0575060009150600390508261236a565b604080516000808252602082018084528a905260ff891692820192909252606081018790526080810186905260019060a0016020604051602081039080840390855afa158015612334573d6000803e3d6000fd5b5050604051601f1901519150506001600160a01b0381166123605750600092506001915082905061236a565b9250600091508190505b9450945094915050565b60006123808383611038565b1561229d576000838152602081815260408083206001600160a01b0386168085529252808320805460ff1916905551339286917ff6391f5c32d9c69d2a47ea670b442974b53935d1edc7fd64eb21e047a839171b9190a45060016108a4565b604080516001600160a01b03848116602483015260448083018590528351808403909101815260649092019092526020810180516001600160e01b031663a9059cbb60e01b179052611c619185919060009061243d9084168361248b565b9050805160001415801561246257508080602001905181019061246091906131f4565b155b15611c6157604051635274afe760e01b81526001600160a01b0384166004820152602401610b9f565b6060612499838360006124a0565b9392505050565b6060814710156124c55760405163cd78605960e01b8152306004820152602401610b9f565b600080856001600160a01b031684866040516124e19190613211565b60006040518083038185875af1925050503d806000811461251e576040519150601f19603f3d011682016040523d82523d6000602084013e612523565b606091505b509150915061253386838361253d565b9695505050505050565b6060826125525761254d82612599565b612499565b815115801561256957506001600160a01b0384163b155b1561259257604051639996b31560e01b81526001600160a01b0385166004820152602401610b9f565b5080612499565b8051156125a95780518082602001fd5b604051630a12f52160e11b815260040160405180910390fd5b82805482825590600052602060002090601f0160209004810192821561265b5791602002820160005b8382111561262c57833560ff1683826101000a81548160ff021916908360ff16021790555092602001926001016020816000010492830192600103026125eb565b80156126595782816101000a81549060ff021916905560010160208160000104928301926001030261262c565b505b5061266792915061266b565b5090565b5b80821115612667576000815560010161266c565b6001600160a01b038116811461103557600080fd5b6000806000606084860312156126aa57600080fd5b83356126b581612680565b925060208401356126c581612680565b929592945050506040919091013590565b6000602082840312156126e857600080fd5b81356001600160e01b03198116811461249957600080fd5b801515811461103557600080fd5b60006020828403121561272057600080fd5b813561249981612700565b60006020828403121561273d57600080fd5b5035919050565b803563ffffffff81168114610ad857600080fd5b60006020828403121561276a57600080fd5b61249982612744565b6020808252825182820181905260009190848201906040850190845b818110156127ae57835160ff168352928401929184019160010161278f565b50909695505050505050565b6000602082840312156127cc57600080fd5b813561249981612680565b600080604083850312156127ea57600080fd5b8235915060208301356127fc81612680565b809150509250929050565b80356001600160401b0381168114610ad857600080fd5b60008083601f84011261283057600080fd5b5081356001600160401b0381111561284757600080fd5b60208301915083602082850101111561285f57600080fd5b9250929050565b60008060008060006080868803121561287e57600080fd5b61288786612744565b945061289560208701612807565b935060408601356128a581612680565b925060608601356001600160401b038111156128c057600080fd5b6128cc8882890161281e565b969995985093965092949392505050565b600080604083850312156128f057600080fd5b82356128fb81612680565b915060208301356127fc81612700565b6000806020838503121561291e57600080fd5b82356001600160401b038082111561293557600080fd5b818501915085601f83011261294957600080fd5b81358181111561295857600080fd5b8660208260071b850101111561296d57600080fd5b60209290920196919550909350505050565b803561ffff81168114610ad857600080fd5b600080600080608085870312156129a757600080fd5b6129b08561297f565b93506129be6020860161297f565b92506129cc60408601612807565b915060608501356129dc81612680565b939692955090935050565b6000602082840312156129f957600080fd5b61249982612807565b600060a08284031215612a1457600080fd5b50919050565b600080600060408486031215612a2f57600080fd5b83356001600160401b0380821115612a4657600080fd5b612a5287838801612a02565b94506020860135915080821115612a6857600080fd5b50612a758682870161281e565b9497909650939450505050565b60008083601f840112612a9457600080fd5b5081356001600160401b03811115612aab57600080fd5b6020830191508360208260051b850101111561285f57600080fd5b60008060208385031215612ad957600080fd5b82356001600160401b03811115612aef57600080fd5b612afb85828601612a82565b90969095509350505050565b600060208284031215612b1957600080fd5b6124998261297f565b600080600060408486031215612b3757600080fd5b8335925060208401356001600160401b03811115612b5457600080fd5b612a758682870161281e565b634e487b7160e01b600052602160045260246000fd5b82151581526040810160048310612b9d57634e487b7160e01b600052602160045260246000fd5b8260208301529392505050565b600080600060408486031215612bbf57600080fd5b612bc884612744565b925060208401356001600160401b03811115612be357600080fd5b612a7586828701612a82565b600080600080600060808688031215612c0757600080fd5b612c1086612744565b94506020860135612c2081612680565b935060408601356001600160401b03811115612c3b57600080fd5b612c478882890161281e565b96999598509660600135949350505050565b600060208284031215612c6b57600080fd5b81356001600160401b03811115612c8157600080fd5b612c8d84828501612a02565b949350505050565b60018060a01b0380825116835263ffffffff602083015116602084015260408201516001600160401b03808216604086015282606085015116606086015280608085015116608086015250505061ffff60a08201511660a08301525050565b81835281816020850137506000828201602090810191909152601f909101601f19169091010190565b6000610140612d2c8388612c95565b612d6360c0840187546001600160401b0381168252604081811c61ffff16602084015260509190911c6001600160801b0316910152565b80610120840152610f938184018587612cf4565b600060208284031215612d8957600080fd5b5051919050565b634e487b7160e01b600052603260045260246000fd5b80356001600160801b0381168114610ad857600080fd5b600060208284031215612dcf57600080fd5b61249982612da6565b6020808252818101839052600090604080840186845b87811015612e5f5763ffffffff612e0483612744565b1683526001600160401b03612e1a868401612807565b168584015261ffff612e2d85840161297f565b168484015260606001600160801b03612e47828501612da6565b16908401526080928301929190910190600101612dee565b5090979650505050505050565b60005b83811015612e87578181015183820152602001612e6f565b50506000910152565b60008151808452612ea8816020860160208601612e6c565b601f01601f19169290920160200192915050565b6000610140612ecb8387612c95565b612f0260c0840186546001600160401b0381168252604081811c61ffff16602084015260509190911c6001600160801b0316910152565b8061012084015261253381840185612e90565b60008235609e19833603018112612f2b57600080fd5b9190910192915050565b6000808335601e19843603018112612f4c57600080fd5b8301803591506001600160401b03821115612f6657600080fd5b60200191503681900382131561285f57600080fd5b6001600160e01b03198135818116916004851015612fa35780818660040360031b1b83161692505b505092915050565b6000808335601e19843603018112612fc257600080fd5b83016020810192503590506001600160401b03811115612fe157600080fd5b80360382131561285f57600080fd5b6040815263ffffffff61300284612744565b1660408201526000602084013561301881612680565b6001600160a01b031660608301526130336040850185612fab565b60a0608085015261304860e085018284612cf4565b915050606085013560a08401526130626080860186612fab565b848303603f190160c0860152613079838284612cf4565b93505050508260208301529392505050565b8183823760009101908152919050565b828152604060208201526000612c8d6040830184612e90565b634e487b7160e01b600052601160045260246000fd5b80820281158282048414176108a4576108a46130b4565b808201808211156108a4576108a46130b4565b6000808585111561310457600080fd5b8386111561311157600080fd5b5050820193919092039150565b63ffffffff60e01b8660e01b1681526bffffffffffffffffffffffff198560601b1660048201528360188201528183603883013760009101603801908152949350505050565b60006001600160401b03808316818103613180576131806130b4565b6001019392505050565b6001600160401b038281168282160390808211156131aa576131aa6130b4565b5092915050565b6001600160401b038181168382160190808211156131aa576131aa6130b4565b60006001600160401b038216806131ea576131ea6130b4565b6000190192915050565b60006020828403121561320657600080fd5b815161249981612700565b60008251612f2b818460208701612e6c56fe724aface199fe5bed93ae8508474576a9adf3dc443b2c451842a2242919f19dea49807205ce4d355092ef5a8a18f56e8913cf4a201fbe287825b095693c2177574845de37cfabd357633214b47fa91ccd19b05b7c5a08ac22c187f811fb62bcaa26469706673582212203b61bbdddbd40de2a99f40cf79bc54fd320e09acc6ea01dd4f473c7f674ee39f64736f6c63430008160033",
    "linkReferences": {}
  },
  "methodIdentifiers": {
    "DEFAULT_ADMIN_ROLE()": "a217fddf",
    "allowlistSize()": "d2ae2104",
    "assignJob((uint32,bytes,bytes32,uint64,address),bytes)": "95d376d7",
    "assignJob(uint16,uint16,uint64,address)": "c5e193cd",
    "defaultMultiplierBps()": "00bf2e80",
    "dstConfig(uint32)": "9e944965",
    "execute((uint32,address,bytes,uint256,bytes)[])": "b143044b",
    "getFee(uint16,uint16,uint64,address)": "5553fb8e",
    "getFee(uint32,uint64,address,bytes)": "30bb3aac",
    "getRoleAdmin(bytes32)": "248a9ca3",
    "getSupportedOptionTypes(uint32)": "26e67a37",
    "grantRole(bytes32,address)": "2f2ff15d",
    "hasAcl(address)": "2de11376",
    "hasRole(bytes32,address)": "91d14854",
    "hashCallData(uint32,address,bytes,uint256)": "f010cb23",
    "paused()": "5c975abb",
    "priceFeed()": "741bef1a",
    "quorum()": "1703a018",
    "quorumChangeAdmin((uint32,address,bytes,uint256,bytes))": "f3b4ebd0",
    "renounceRole(bytes32,address)": "36568abe",
    "revokeRole(bytes32,address)": "d547741f",
    "setDefaultMultiplierBps(uint16)": "c358de0a",
    "setDstConfig((uint32,uint64,uint16,uint128)[])": "52d3b871",
    "setPaused(bool)": "16c38b3c",
    "setPriceFeed(address)": "724e78da",
    "setQuorum(uint64)": "8585c945",
    "setSigner(address,bool)": "31cb6105",
    "setSupportedOptionTypes(uint32,uint8[])": "cd88b903",
    "setWorkerFeeLib(address)": "c7b2370b",
    "signerSize()": "fd62e750",
    "signers(address)": "736c0d5b",
    "supportsInterface(bytes4)": "01ffc9a7",
    "usedHashes(bytes32)": "aef18bf7",
    "verifySignatures(bytes32,bytes)": "c7a823e0",
    "vid()": "cf34c768",
    "withdrawFee(address,address,uint256)": "1095b6d7",
    "withdrawFeeFromUlnV2(address,address,uint256)": "dafe0ccc",
    "withdrawToken(address,address,uint256)": "01e33667",
    "workerFeeLib()": "c416aa51"
  },
  "id": 73
}