{
  "abi": [
    {
      "type": "function",
      "name": "executor",
      "inputs": [],
      "outputs": [
        {
          "name": "",
          "type": "address",
          "internalType": "address"
        }
      ],
      "stateMutability": "view"
    },
    {
      "type": "function",
      "name": "extraData",
      "inputs": [],
      "outputs": [
        {
          "name": "",
          "type": "bytes",
          "internalType": "bytes"
        }
      ],
      "stateMutability": "view"
    },
    {
      "type": "function",
      "name": "from",
      "inputs": [],
      "outputs": [
        {
          "name": "",
          "type": "address",
          "internalType": "address"
        }
      ],
      "stateMutability": "view"
    },
    {
      "type": "function",
      "name": "guid",
      "inputs": [],
      "outputs": [
        {
          "name": "",
          "type": "bytes32",
          "internalType": "bytes32"
        }
      ],
      "stateMutability": "view"
    },
    {
      "type": "function",
      "name": "lzCompose",
      "inputs": [
        {
          "name": "_from",
          "type": "address",
          "internalType": "address"
        },
        {
          "name": "_guid",
          "type": "bytes32",
          "internalType": "bytes32"
        },
        {
          "name": "_message",
          "type": "bytes",
          "internalType": "bytes"
        },
        {
          "name": "_executor",
          "type": "address",
          "internalType": "address"
        },
        {
          "name": "",
          "type": "bytes",
          "internalType": "bytes"
        }
      ],
      "outputs": [],
      "stateMutability": "payable"
    },
    {
      "type": "function",
      "name": "message",
      "inputs": [],
      "outputs": [
        {
          "name": "",
          "type": "bytes",
          "internalType": "bytes"
        }
      ],
      "stateMutability": "view"
    }
  ],
  "bytecode": {
    "object": "0x608060405234801561001057600080fd5b5061050c806100206000396000f3fe6080604052600436106100555760003560e01c80630ae6d46b1461005a578063609d333414610083578063c34c08e5146100a5578063d0a10260146100dd578063d5ce3389146100f2578063e21f37ce14610112575b600080fd5b34801561006657600080fd5b5061007060015481565b6040519081526020015b60405180910390f35b34801561008f57600080fd5b50610098610127565b60405161007a9190610222565b3480156100b157600080fd5b506003546100c5906001600160a01b031681565b6040516001600160a01b03909116815260200161007a565b6100f06100eb3660046102d6565b6101b5565b005b3480156100fe57600080fd5b506000546100c5906001600160a01b031681565b34801561011e57600080fd5b50610098610215565b6004805461013490610374565b80601f016020809104026020016040519081016040528092919081815260200182805461016090610374565b80156101ad5780601f10610182576101008083540402835291602001916101ad565b820191906000526020600020905b81548152906001019060200180831161019057829003601f168201915b505050505081565b600080546001600160a01b0319166001600160a01b038916179055600186905560026101e2858783610415565b50600380546001600160a01b0319166001600160a01b038516179055600461020b858783610415565b5050505050505050565b6002805461013490610374565b60006020808352835180602085015260005b8181101561025057858101830151858201604001528201610234565b506000604082860101526040601f19601f8301168501019250505092915050565b80356001600160a01b038116811461028857600080fd5b919050565b60008083601f84011261029f57600080fd5b50813567ffffffffffffffff8111156102b757600080fd5b6020830191508360208285010111156102cf57600080fd5b9250929050565b600080600080600080600060a0888a0312156102f157600080fd5b6102fa88610271565b965060208801359550604088013567ffffffffffffffff8082111561031e57600080fd5b61032a8b838c0161028d565b909750955085915061033e60608b01610271565b945060808a013591508082111561035457600080fd5b506103618a828b0161028d565b989b979a50959850939692959293505050565b600181811c9082168061038857607f821691505b6020821081036103a857634e487b7160e01b600052602260045260246000fd5b50919050565b634e487b7160e01b600052604160045260246000fd5b601f821115610410576000816000526020600020601f850160051c810160208610156103ed5750805b601f850160051c820191505b8181101561040c578281556001016103f9565b5050505b505050565b67ffffffffffffffff83111561042d5761042d6103ae565b6104418361043b8354610374565b836103c4565b6000601f841160018114610475576000851561045d5750838201355b600019600387901b1c1916600186901b1783556104cf565b600083815260209020601f19861690835b828110156104a65786850135825560209485019460019092019101610486565b50868210156104c35760001960f88860031b161c19848701351681555b505060018560011b0183555b505050505056fea2646970667358221220eb22feaa2ed7a5cd3c95f8aeac361d18eaca6b9f0f64a88c34ed0e2b872e3d6a64736f6c63430008160033",
    "linkReferences": {}
  },
  "methodIdentifiers": {
    "executor()": "c34c08e5",
    "extraData()": "609d3334",
    "from()": "d5ce3389",
    "guid()": "0ae6d46b",
    "lzCompose(address,bytes32,bytes,address,bytes)": "d0a10260",
    "message()": "e21f37ce"
  },
  "id": 130
}