{
  "abi": [
    {
      "type": "constructor",
      "inputs": [
        {
          "name": "_nativeDecimalsRate",
          "type": "uint256",
          "internalType": "uint256"
        }
      ],
      "stateMutability": "nonpayable"
    },
    {
      "type": "receive",
      "stateMutability": "payable"
    },
    {
      "type": "function",
      "name": "getFee",
      "inputs": [
        {
          "name": "_params",
          "type": "tuple",
          "internalType": "struct IDVNFeeLib.FeeParams",
          "components": [
            {
              "name": "priceFeed",
              "type": "address",
              "internalType": "address"
            },
            {
              "name": "dstEid",
              "type": "uint32",
              "internalType": "uint32"
            },
            {
              "name": "confirmations",
              "type": "uint64",
              "internalType": "uint64"
            },
            {
              "name": "sender",
              "type": "address",
              "internalType": "address"
            },
            {
              "name": "quorum",
              "type": "uint64",
              "internalType": "uint64"
            },
            {
              "name": "defaultMultiplierBps",
              "type": "uint16",
              "internalType": "uint16"
            }
          ]
        },
        {
          "name": "_dstConfig",
          "type": "tuple",
          "internalType": "struct IDVN.DstConfig",
          "components": [
            {
              "name": "gas",
              "type": "uint64",
              "internalType": "uint64"
            },
            {
              "name": "multiplierBps",
              "type": "uint16",
              "internalType": "uint16"
            },
            {
              "name": "floorMarginUSD",
              "type": "uint128",
              "internalType": "uint128"
            }
          ]
        },
        {
          "name": "_options",
          "type": "bytes",
          "internalType": "bytes"
        }
      ],
      "outputs": [
        {
          "name": "",
          "type": "uint256",
          "internalType": "uint256"
        }
      ],
      "stateMutability": "view"
    },
    {
      "type": "function",
      "name": "getFeeOnSend",
      "inputs": [
        {
          "name": "_params",
          "type": "tuple",
          "internalType": "struct IDVNFeeLib.FeeParams",
          "components": [
            {
              "name": "priceFeed",
              "type": "address",
              "internalType": "address"
            },
            {
              "name": "dstEid",
              "type": "uint32",
              "internalType": "uint32"
            },
            {
              "name": "confirmations",
              "type": "uint64",
              "internalType": "uint64"
            },
            {
              "name": "sender",
              "type": "address",
              "internalType": "address"
            },
            {
              "name": "quorum",
              "type": "uint64",
              "internalType": "uint64"
            },
            {
              "name": "defaultMultiplierBps",
              "type": "uint16",
              "internalType": "uint16"
            }
          ]
        },
        {
          "name": "_dstConfig",
          "type": "tuple",
          "internalType": "struct IDVN.DstConfig",
          "components": [
            {
              "name": "gas",
              "type": "uint64",
              "internalType": "uint64"
            },
            {
              "name": "multiplierBps",
              "type": "uint16",
              "internalType": "uint16"
            },
            {
              "name": "floorMarginUSD",
              "type": "uint128",
              "internalType": "uint128"
            }
          ]
        },
        {
          "name": "_options",
          "type": "bytes",
          "internalType": "bytes"
        }
      ],
      "outputs": [
        {
          "name": "",
          "type": "uint256",
          "internalType": "uint256"
        }
      ],
      "stateMutability": "payable"
    },
    {
      "type": "function",
      "name": "owner",
      "inputs": [],
      "outputs": [
        {
          "name": "",
          "type": "address",
          "internalType": "address"
        }
      ],
      "stateMutability": "view"
    },
    {
      "type": "function",
      "name": "renounceOwnership",
      "inputs": [],
      "outputs": [],
      "stateMutability": "nonpayable"
    },
    {
      "type": "function",
      "name": "transferOwnership",
      "inputs": [
        {
          "name": "newOwner",
          "type": "address",
          "internalType": "address"
        }
      ],
      "outputs": [],
      "stateMutability": "nonpayable"
    },
    {
      "type": "function",
      "name": "withdrawToken",
      "inputs": [
        {
          "name": "_token",
          "type": "address",
          "internalType": "address"
        },
        {
          "name": "_to",
          "type": "address",
          "internalType": "address"
        },
        {
          "name": "_amount",
          "type": "uint256",
          "internalType": "uint256"
        }
      ],
      "outputs": [],
      "stateMutability": "nonpayable"
    },
    {
      "type": "event",
      "name": "OwnershipTransferred",
      "inputs": [
        {
          "name": "previousOwner",
          "type": "address",
          "indexed": true,
          "internalType": "address"
        },
        {
          "name": "newOwner",
          "type": "address",
          "indexed": true,
          "internalType": "address"
        }
      ],
      "anonymous": false
    },
    {
      "type": "error",
      "name": "DVN_EidNotSupported",
      "inputs": [
        {
          "name": "eid",
          "type": "uint32",
          "internalType": "uint32"
        }
      ]
    },
    {
      "type": "error",
      "name": "DVN_InvalidDVNOptions",
      "inputs": [
        {
          "name": "cursor",
          "type": "uint256",
          "internalType": "uint256"
        }
      ]
    },
    {
      "type": "error",
      "name": "DVN_UnsupportedOptionType",
      "inputs": [
        {
          "name": "optionType",
          "type": "uint8",
          "internalType": "uint8"
        }
      ]
    },
    {
      "type": "error",
      "name": "Transfer_NativeFailed",
      "inputs": [
        {
          "name": "_to",
          "type": "address",
          "internalType": "address"
        },
        {
          "name": "_value",
          "type": "uint256",
          "internalType": "uint256"
        }
      ]
    },
    {
      "type": "error",
      "name": "Transfer_ToAddressIsZero",
      "inputs": []
    }
  ],
  "bytecode": {
    "object": "0x60a060405234801561001057600080fd5b506040516112b43803806112b483398101604081905261002f91610090565b61003833610040565b6080526100a9565b600080546001600160a01b038381166001600160a01b0319831681178455604051919092169283917f8be0079c531659141344cd1fd0a4f28419497f9722a3daafe3b4186f6b6457e09190a35050565b6000602082840312156100a257600080fd5b5051919050565b6080516111f06100c460003960006107c801526111f06000f3fe6080604052600436106100695760003560e01c80638da5cb5b116100435780638da5cb5b146100df578063df2b057e14610114578063f2fde38b1461012757600080fd5b806301e3366714610075578063715018a6146100975780637bfa20a9146100ac57600080fd5b3661007057005b600080fd5b34801561008157600080fd5b50610095610090366004610d88565b610147565b005b3480156100a357600080fd5b5061009561015f565b3480156100b857600080fd5b506100cc6100c7366004610dc4565b610173565b6040519081526020015b60405180910390f35b3480156100eb57600080fd5b5060005460405173ffffffffffffffffffffffffffffffffffffffff90911681526020016100d6565b6100cc610122366004610dc4565b610343565b34801561013357600080fd5b50610095610142366004610e84565b610451565b61014f610508565b61015a838383610589565b505050565b610167610508565b61017160006105b9565b565b60006101826020850185610e9f565b67ffffffffffffffff166000036101e3576101a36040860160208701610ec9565b6040517fd009138a00000000000000000000000000000000000000000000000000000000815263ffffffff90911660048201526024015b60405180910390fd5b6101ed838361062e565b50600061021261020360a0880160808901610e9f565b67ffffffffffffffff166106d2565b90506000806102246020890189610e84565b73ffffffffffffffffffffffffffffffffffffffff166388a4124c61024f60408b0160208c01610ec9565b8561025d60208c018c610e9f565b6040517fffffffff0000000000000000000000000000000000000000000000000000000060e086901b16815263ffffffff939093166004840152602483019190915267ffffffffffffffff166044820152606401608060405180830381865afa1580156102ce573d6000803e3d6000fd5b505050506040513d601f19601f820116820180604052508101906102f29190610f0d565b9350505091506103358288602001602081019061030f9190610f62565b61031f60c08c0160a08d01610f62565b61032f60608c0160408d01610f86565b8561073e565b93505050505b949350505050565b60006103526020850185610e9f565b67ffffffffffffffff16600003610373576101a36040860160208701610ec9565b61037d838361062e565b50600061039361020360a0880160808901610e9f565b90506000806103a56020890189610e84565b73ffffffffffffffffffffffffffffffffffffffff1663c1723a1d6103d060408b0160208c01610ec9565b856103de60208c018c610e9f565b6040517fffffffff0000000000000000000000000000000000000000000000000000000060e086901b16815263ffffffff939093166004840152602483019190915267ffffffffffffffff1660448201526064016080604051808303816000875af11580156102ce573d6000803e3d6000fd5b610459610508565b73ffffffffffffffffffffffffffffffffffffffff81166104fc576040517f08c379a000000000000000000000000000000000000000000000000000000000815260206004820152602660248201527f4f776e61626c653a206e6577206f776e657220697320746865207a65726f206160448201527f646472657373000000000000000000000000000000000000000000000000000060648201526084016101da565b610505816105b9565b50565b60005473ffffffffffffffffffffffffffffffffffffffff163314610171576040517f08c379a000000000000000000000000000000000000000000000000000000000815260206004820181905260248201527f4f776e61626c653a2063616c6c6572206973206e6f7420746865206f776e657260448201526064016101da565b73ffffffffffffffffffffffffffffffffffffffff83166105ae5761015a8282610838565b61015a83838361093e565b6000805473ffffffffffffffffffffffffffffffffffffffff8381167fffffffffffffffffffffffff0000000000000000000000000000000000000000831681178455604051919092169283917f8be0079c531659141344cd1fd0a4f28419497f9722a3daafe3b4186f6b6457e09190a35050565b600080821561068a576000806106458686856109ac565b6040517f7085244b00000000000000000000000000000000000000000000000000000000815260ff8516600482015290965092945085935050602490910190506101da565b8083146106c6576040517f04eb6e0c000000000000000000000000000000000000000000000000000000008152600481018290526024016101da565b60009150505b92915050565b6000806106e0604184610fd2565b90506106ed602082611018565b15610715576106fd602082611018565b610707908261102c565b61071290602061103f565b90505b8061072260e0604461103f565b61072c919061103f565b61073790604061103f565b9392505050565b60008061ffff8616156107515785610753565b845b9050600061271061076861ffff84168a610fd2565b6107729190611052565b90506fffffffffffffffffffffffffffffffff841615806107a357506fffffffffffffffffffffffffffffffff8516155b156107b157915061082f9050565b6000846fffffffffffffffffffffffffffffffff167f0000000000000000000000000000000000000000000000000000000000000000876fffffffffffffffffffffffffffffffff166108049190610fd2565b61080e9190611052565b610818908a61103f565b90508181116108275781610829565b805b93505050505b95945050505050565b73ffffffffffffffffffffffffffffffffffffffff8216610885576040517f6b7a931000000000000000000000000000000000000000000000000000000000815260040160405180910390fd5b60008273ffffffffffffffffffffffffffffffffffffffff168260405160006040518083038185875af1925050503d80600081146108df576040519150601f19603f3d011682016040523d82523d6000602084013e6108e4565b606091505b505090508061015a576040517f465bc83400000000000000000000000000000000000000000000000000000000815273ffffffffffffffffffffffffffffffffffffffff84166004820152602481018390526044016101da565b73ffffffffffffffffffffffffffffffffffffffff821661098b576040517f6b7a931000000000000000000000000000000000000000000000000000000000815260040160405180910390fd5b61015a73ffffffffffffffffffffffffffffffffffffffff84168383610a06565b6000368160018401816109c0888884610a93565b60028301929091506109d89089908990600301610aba565b94506002820161ffff821683016109f181838b8d611066565b979b909a50969850505061ffff160193505050565b6040805173ffffffffffffffffffffffffffffffffffffffff8416602482015260448082018490528251808303909101815260649091019091526020810180517bffffffffffffffffffffffffffffffffffffffffffffffffffffffff167fa9059cbb0000000000000000000000000000000000000000000000000000000017905261015a908490610adf565b600060028201610aa581848688611066565b610aae91611090565b60f01c95945050505050565b6000838383818110610ace57610ace6110d8565b919091013560f81c95945050505050565b6000610b41826040518060400160405280602081526020017f5361666545524332303a206c6f772d6c6576656c2063616c6c206661696c65648152508573ffffffffffffffffffffffffffffffffffffffff16610bee9092919063ffffffff16565b9050805160001480610b62575080806020019051810190610b629190611107565b61015a576040517f08c379a000000000000000000000000000000000000000000000000000000000815260206004820152602a60248201527f5361666545524332303a204552433230206f7065726174696f6e20646964206e60448201527f6f7420737563636565640000000000000000000000000000000000000000000060648201526084016101da565b606061033b8484600085856000808673ffffffffffffffffffffffffffffffffffffffff168587604051610c22919061114d565b60006040518083038185875af1925050503d8060008114610c5f576040519150601f19603f3d011682016040523d82523d6000602084013e610c64565b606091505b5091509150610c7587838387610c80565b979650505050505050565b60608315610d16578251600003610d0f5773ffffffffffffffffffffffffffffffffffffffff85163b610d0f576040517f08c379a000000000000000000000000000000000000000000000000000000000815260206004820152601d60248201527f416464726573733a2063616c6c20746f206e6f6e2d636f6e747261637400000060448201526064016101da565b508161033b565b61033b8383815115610d2b5781518083602001fd5b806040517f08c379a00000000000000000000000000000000000000000000000000000000081526004016101da9190611169565b803573ffffffffffffffffffffffffffffffffffffffff81168114610d8357600080fd5b919050565b600080600060608486031215610d9d57600080fd5b610da684610d5f565b9250610db460208501610d5f565b9150604084013590509250925092565b600080600080848603610140811215610ddc57600080fd5b60c0811215610dea57600080fd5b85945060607fffffffffffffffffffffffffffffffffffffffffffffffffffffffffffffff4082011215610e1d57600080fd5b5060c08501925061012085013567ffffffffffffffff80821115610e4057600080fd5b818701915087601f830112610e5457600080fd5b813581811115610e6357600080fd5b886020828501011115610e7557600080fd5b95989497505060200194505050565b600060208284031215610e9657600080fd5b61073782610d5f565b600060208284031215610eb157600080fd5b813567ffffffffffffffff8116811461073757600080fd5b600060208284031215610edb57600080fd5b813563ffffffff8116811461073757600080fd5b6fffffffffffffffffffffffffffffffff8116811461050557600080fd5b60008060008060808587031215610f2357600080fd5b845193506020850151610f3581610eef565b6040860151909350610f4681610eef565b6060860151909250610f5781610eef565b939692955090935050565b600060208284031215610f7457600080fd5b813561ffff8116811461073757600080fd5b600060208284031215610f9857600080fd5b813561073781610eef565b7f4e487b7100000000000000000000000000000000000000000000000000000000600052601160045260246000fd5b80820281158282048414176106cc576106cc610fa3565b7f4e487b7100000000000000000000000000000000000000000000000000000000600052601260045260246000fd5b60008261102757611027610fe9565b500690565b818103818111156106cc576106cc610fa3565b808201808211156106cc576106cc610fa3565b60008261106157611061610fe9565b500490565b6000808585111561107657600080fd5b8386111561108357600080fd5b5050820193919092039150565b7fffff00000000000000000000000000000000000000000000000000000000000081358181169160028510156110d05780818660020360031b1b83161692505b505092915050565b7f4e487b7100000000000000000000000000000000000000000000000000000000600052603260045260246000fd5b60006020828403121561111957600080fd5b8151801515811461073757600080fd5b60005b8381101561114457818101518382015260200161112c565b50506000910152565b6000825161115f818460208701611129565b9190910192915050565b6020815260008251806020840152611188816040850160208701611129565b601f017fffffffffffffffffffffffffffffffffffffffffffffffffffffffffffffffe016919091016040019291505056fea26469706673582212209d80c2e936ecbf29594fe3f5c78589cfd9197fdda20e88b5b9be4763419e75db64736f6c63430008140033",
    "linkReferences": {}
  },
  "methodIdentifiers": {
    "getFee((address,uint32,uint64,address,uint64,uint16),(uint64,uint16,uint128),bytes)": "7bfa20a9",
    "getFeeOnSend((address,uint32,uint64,address,uint64,uint16),(uint64,uint16,uint128),bytes)": "df2b057e",
    "owner()": "8da5cb5b",
    "renounceOwnership()": "715018a6",
    "transferOwnership(address)": "f2fde38b",
    "withdrawToken(address,address,uint256)": "01e33667"
  },
  "id": 25
}