{
  "abi": [
    {
      "type": "function",
      "name": "HLP_PRECOMPILE_READ_SPOT_BALANCE",
      "inputs": [],
      "outputs": [
        {
          "name": "",
          "type": "address",
          "internalType": "address"
        }
      ],
      "stateMutability": "view"
    },
    {
      "type": "function",
      "name": "HLP_PRECOMPILE_WRITE",
      "inputs": [],
      "outputs": [
        {
          "name": "",
          "type": "address",
          "internalType": "address"
        }
      ],
      "stateMutability": "view"
    },
    {
      "type": "function",
      "name": "VALID_COMPOSE_MESSAGE_LENGTH_ENCODE",
      "inputs": [],
      "outputs": [
        {
          "name": "",
          "type": "uint256",
          "internalType": "uint256"
        }
      ],
      "stateMutability": "view"
    },
    {
      "type": "function",
      "name": "VALID_COMPOSE_MESSAGE_LENGTH_PACKED",
      "inputs": [],
      "outputs": [
        {
          "name": "",
          "type": "uint256",
          "internalType": "uint256"
        }
      ],
      "stateMutability": "view"
    },
    {
      "type": "function",
      "name": "balanceOfHyperCore",
      "inputs": [
        {
          "name": "_user",
          "type": "address",
          "internalType": "address"
        },
        {
          "name": "_tokenId",
          "type": "uint64",
          "internalType": "uint64"
        }
      ],
      "outputs": [
        {
          "name": "",
          "type": "uint64",
          "internalType": "uint64"
        }
      ],
      "stateMutability": "view"
    },
    {
      "type": "function",
      "name": "endpoint",
      "inputs": [],
      "outputs": [
        {
          "name": "",
          "type": "address",
          "internalType": "address"
        }
      ],
      "stateMutability": "view"
    },
    {
      "type": "function",
      "name": "getHypeAsset",
      "inputs": [],
      "outputs": [
        {
          "name": "",
          "type": "tuple",
          "internalType": "struct IHyperAsset",
          "components": [
            {
              "name": "assetBridgeAddress",
              "type": "address",
              "internalType": "address"
            },
            {
              "name": "coreIndexId",
              "type": "uint64",
              "internalType": "uint64"
            },
            {
              "name": "decimalDiff",
              "type": "uint64",
              "internalType": "uint64"
            }
          ]
        }
      ],
      "stateMutability": "view"
    },
    {
      "type": "function",
      "name": "getOFTAsset",
      "inputs": [],
      "outputs": [
        {
          "name": "",
          "type": "tuple",
          "internalType": "struct IHyperAsset",
          "components": [
            {
              "name": "assetBridgeAddress",
              "type": "address",
              "internalType": "address"
            },
            {
              "name": "coreIndexId",
              "type": "uint64",
              "internalType": "uint64"
            },
            {
              "name": "decimalDiff",
              "type": "uint64",
              "internalType": "uint64"
            }
          ]
        }
      ],
      "stateMutability": "view"
    },
    {
      "type": "function",
      "name": "hypeAsset",
      "inputs": [],
      "outputs": [
        {
          "name": "assetBridgeAddress",
          "type": "address",
          "internalType": "address"
        },
        {
          "name": "coreIndexId",
          "type": "uint64",
          "internalType": "uint64"
        },
        {
          "name": "decimalDiff",
          "type": "uint64",
          "internalType": "uint64"
        }
      ],
      "stateMutability": "view"
    },
    {
      "type": "function",
      "name": "oft",
      "inputs": [],
      "outputs": [
        {
          "name": "",
          "type": "address",
          "internalType": "contract IOFT"
        }
      ],
      "stateMutability": "view"
    },
    {
      "type": "function",
      "name": "oftAsset",
      "inputs": [],
      "outputs": [
        {
          "name": "assetBridgeAddress",
          "type": "address",
          "internalType": "address"
        },
        {
          "name": "coreIndexId",
          "type": "uint64",
          "internalType": "uint64"
        },
        {
          "name": "decimalDiff",
          "type": "uint64",
          "internalType": "uint64"
        }
      ],
      "stateMutability": "view"
    },
    {
      "type": "function",
      "name": "quoteHyperCoreAmount",
      "inputs": [
        {
          "name": "_amount",
          "type": "uint256",
          "internalType": "uint256"
        },
        {
          "name": "_isOFT",
          "type": "bool",
          "internalType": "bool"
        }
      ],
      "outputs": [
        {
          "name": "",
          "type": "tuple",
          "internalType": "struct IHyperAssetAmount",
          "components": [
            {
              "name": "evm",
              "type": "uint256",
              "internalType": "uint256"
            },
            {
              "name": "dust",
              "type": "uint256",
              "internalType": "uint256"
            },
            {
              "name": "core",
              "type": "uint64",
              "internalType": "uint64"
            }
          ]
        }
      ],
      "stateMutability": "nonpayable"
    },
    {
      "type": "function",
      "name": "refundERC20",
      "inputs": [
        {
          "name": "_refundAddress",
          "type": "address",
          "internalType": "address"
        },
        {
          "name": "_amount",
          "type": "uint256",
          "internalType": "uint256"
        }
      ],
      "outputs": [],
      "stateMutability": "payable"
    },
    {
      "type": "function",
      "name": "refundNativeTokens",
      "inputs": [
        {
          "name": "_refundAddress",
          "type": "address",
          "internalType": "address"
        }
      ],
      "outputs": [],
      "stateMutability": "payable"
    },
    {
      "type": "function",
      "name": "token",
      "inputs": [],
      "outputs": [
        {
          "name": "",
          "type": "address",
          "internalType": "contract IERC20"
        }
      ],
      "stateMutability": "view"
    },
    {
      "type": "function",
      "name": "validate_addresses_or_refund",
      "inputs": [
        {
          "name": "_maybeReceiver",
          "type": "bytes",
          "internalType": "bytes"
        },
        {
          "name": "_senderBytes32",
          "type": "bytes32",
          "internalType": "bytes32"
        },
        {
          "name": "_amountLD",
          "type": "uint256",
          "internalType": "uint256"
        }
      ],
      "outputs": [
        {
          "name": "",
          "type": "address",
          "internalType": "address"
        }
      ],
      "stateMutability": "pure"
    },
    {
      "type": "function",
      "name": "validate_payload",
      "inputs": [
        {
          "name": "_composeMessage",
          "type": "bytes",
          "internalType": "bytes"
        }
      ],
      "outputs": [
        {
          "name": "",
          "type": "uint256",
          "internalType": "uint256"
        },
        {
          "name": "",
          "type": "bytes32",
          "internalType": "bytes32"
        },
        {
          "name": "",
          "type": "bytes",
          "internalType": "bytes"
        }
      ],
      "stateMutability": "pure"
    },
    {
      "type": "event",
      "name": "ErrorERC20_Refund",
      "inputs": [
        {
          "name": "refundTo",
          "type": "address",
          "indexed": false,
          "internalType": "address"
        },
        {
          "name": "refundAmount",
          "type": "uint256",
          "indexed": false,
          "internalType": "uint256"
        }
      ],
      "anonymous": false
    },
    {
      "type": "event",
      "name": "ErrorHYPE_Refund",
      "inputs": [
        {
          "name": "refundTo",
          "type": "address",
          "indexed": false,
          "internalType": "address"
        },
        {
          "name": "refundAmount",
          "type": "uint256",
          "indexed": false,
          "internalType": "uint256"
        }
      ],
      "anonymous": false
    },
    {
      "type": "event",
      "name": "ErrorMessage",
      "inputs": [
        {
          "name": "reason",
          "type": "bytes",
          "indexed": false,
          "internalType": "bytes"
        }
      ],
      "anonymous": false
    },
    {
      "type": "event",
      "name": "OverflowDetected",
      "inputs": [
        {
          "name": "amountCore",
          "type": "uint64",
          "indexed": false,
          "internalType": "uint64"
        },
        {
          "name": "maxTransferableAmount",
          "type": "uint64",
          "indexed": false,
          "internalType": "uint64"
        }
      ],
      "anonymous": false
    },
    {
      "type": "error",
      "name": "ErrorMsg",
      "inputs": [
        {
          "name": "errorMessage",
          "type": "bytes",
          "internalType": "bytes"
        }
      ]
    },
    {
      "type": "error",
      "name": "HyperLiquidComposerCore_SpotBalanceRead_Failed",
      "inputs": [
        {
          "name": "user",
          "type": "address",
          "internalType": "address"
        },
        {
          "name": "tokenId",
          "type": "uint64",
          "internalType": "uint64"
        }
      ]
    },
    {
      "type": "error",
      "name": "HyperLiquidComposer_FailedToRefund_HYPE",
      "inputs": [
        {
          "name": "to",
          "type": "address",
          "internalType": "address"
        },
        {
          "name": "amount",
          "type": "uint256",
          "internalType": "uint256"
        }
      ]
    },
    {
      "type": "error",
      "name": "ErrorMsg",
      "inputs": [
        {
          "name": "errorMessage",
          "type": "bytes",
          "internalType": "bytes"
        }
      ]
    },
    {
      "type": "error",
      "name": "HyperLiquidComposer_InvalidCall_NotComposer",
      "inputs": [
        {
          "name": "notComposerAddress",
          "type": "address",
          "internalType": "address"
        }
      ]
    }
  ],
  "bytecode": {
    "object": "0x60e060405234801561000f575f80fd5b5060805160a05160c0516120dc6100415f395f81816109f70152610d4501525f61083501525f61063101526120dc5ff3fe6080604052600436106100fd575f3560e01c80639278d99a11610094578063dd85007511610063578063dd85007514610325578063ebaeefd61461034f578063f6e6b2401461036b578063f9716faf14610397578063fc0c546a146103d3576100fd565b80639278d99a1461027d5780639b5215f6146102a7578063aae12e46146102d1578063ba872679146102fb576100fd565b8063765008a1116100d0578063765008a1146101cf578063807d6c3f146101fb57806381e8dcb4146102255780638483bc0014610261576100fd565b80631b224831146101015780632d0e315c1461013f5780635241b496146101695780635e280f11146101a5575b5f80fd5b34801561010c575f80fd5b50610127600480360381019061012291906111f7565b6103fd565b604051610136939291906112fc565b60405180910390f35b34801561014a575f80fd5b5061015361043b565b60405161016091906113d9565b60405180910390f35b348015610174575f80fd5b5061018f600480360381019061018a919061156e565b61050a565b60405161019c91906115e9565b60405180910390f35b3480156101b0575f80fd5b506101b961062f565b6040516101c691906115e9565b60405180910390f35b3480156101da575f80fd5b506101e3610653565b6040516101f293929190611611565b60405180910390f35b348015610206575f80fd5b5061020f6106ae565b60405161021c9190611646565b60405180910390f35b348015610230575f80fd5b5061024b600480360381019061024691906116b3565b6106b3565b60405161025891906116f1565b60405180910390f35b61027b6004803603810190610276919061170a565b6106c6565b005b348015610288575f80fd5b5061029161082e565b60405161029e9190611646565b60405180910390f35b3480156102b2575f80fd5b506102bb610833565b6040516102c89190611790565b60405180910390f35b3480156102dc575f80fd5b506102e5610857565b6040516102f291906113d9565b60405180910390f35b348015610306575f80fd5b5061030f610927565b60405161031c91906115e9565b60405180910390f35b348015610330575f80fd5b5061033961092d565b60405161034691906115e9565b60405180910390f35b610369600480360381019061036491906117a9565b610945565b005b348015610376575f80fd5b5061037f610a96565b60405161038e93929190611611565b60405180910390f35b3480156103a2575f80fd5b506103bd60048036038101906103b8919061181c565b610af2565b6040516103ca91906118a9565b60405180910390f35b3480156103de575f80fd5b506103e7610d43565b6040516103f491906118e2565b60405180910390f35b5f8060605f61040c8686610d67565b90505f6104198787610d97565b90505f6104268888610dc5565b90508282829550955095505050509250925092565b610443611115565b5f6040518060600160405290815f82015f9054906101000a900473ffffffffffffffffffffffffffffffffffffffff1673ffffffffffffffffffffffffffffffffffffffff1673ffffffffffffffffffffffffffffffffffffffff1681526020015f820160149054906101000a900467ffffffffffffffff1667ffffffffffffffff1667ffffffffffffffff168152602001600182015f9054906101000a900467ffffffffffffffff1667ffffffffffffffff1667ffffffffffffffff1681525050905090565b5f8061051584610e27565b90505f61052186610e5e565b90505f73ffffffffffffffffffffffffffffffffffffffff168173ffffffffffffffffffffffffffffffffffffffff1603610623575f6309b3473160e01b8788516040516024016105739291906118fb565b604051602081830303815290604052907bffffffffffffffffffffffffffffffffffffffffffffffffffffffff19166020820180517bffffffffffffffffffffffffffffffffffffffffffffffffffffffff838183161783525050505090506105e7838683610eb29092919063ffffffff16565b6040517f4f95203300000000000000000000000000000000000000000000000000000000815260040161061a9190611929565b60405180910390fd5b80925050509392505050565b7f000000000000000000000000000000000000000000000000000000000000000081565b5f805f015f9054906101000a900473ffffffffffffffffffffffffffffffffffffffff1690805f0160149054906101000a900467ffffffffffffffff1690806001015f9054906101000a900467ffffffffffffffff16905083565b601481565b5f6106be8383610f0d565b905092915050565b3073ffffffffffffffffffffffffffffffffffffffff163373ffffffffffffffffffffffffffffffffffffffff161461073657336040517f5950c85e00000000000000000000000000000000000000000000000000000000815260040161072d91906115e9565b60405180910390fd5b5f34111561082b575f8073ffffffffffffffffffffffffffffffffffffffff168273ffffffffffffffffffffffffffffffffffffffff1614610778578161077a565b325b90505f8173ffffffffffffffffffffffffffffffffffffffff16346040516107a190611976565b5f6040518083038185875af1925050503d805f81146107db576040519150601f19603f3d011682016040523d82523d5f602084013e6107e0565b606091505b50509050806108285781346040517fc8ee485e00000000000000000000000000000000000000000000000000000000815260040161081f92919061198a565b60405180910390fd5b50505b50565b602081565b7f000000000000000000000000000000000000000000000000000000000000000081565b61085f611115565b60026040518060600160405290815f82015f9054906101000a900473ffffffffffffffffffffffffffffffffffffffff1673ffffffffffffffffffffffffffffffffffffffff1673ffffffffffffffffffffffffffffffffffffffff1681526020015f820160149054906101000a900467ffffffffffffffff1667ffffffffffffffff1667ffffffffffffffff168152602001600182015f9054906101000a900467ffffffffffffffff1667ffffffffffffffff1667ffffffffffffffff1681525050905090565b61080181565b73333333333333333333333333333333333333333381565b3073ffffffffffffffffffffffffffffffffffffffff163373ffffffffffffffffffffffffffffffffffffffff16146109b557336040517f5950c85e0000000000000000000000000000000000000000000000000000000081526004016109ac91906115e9565b60405180910390fd5b5f811180156109f057505f73ffffffffffffffffffffffffffffffffffffffff168273ffffffffffffffffffffffffffffffffffffffff1614155b15610a92577f000000000000000000000000000000000000000000000000000000000000000073ffffffffffffffffffffffffffffffffffffffff1663a9059cbb83836040518363ffffffff1660e01b8152600401610a5092919061198a565b6020604051808303815f875af1158015610a6c573d5f803e3d5ffd5b505050506040513d601f19601f82011682018060405250810190610a9091906119c5565b505b5050565b6002805f015f9054906101000a900473ffffffffffffffffffffffffffffffffffffffff1690805f0160149054906101000a900467ffffffffffffffff1690806001015f9054906101000a900467ffffffffffffffff16905083565b610afa61115d565b610b02611115565b5f8315610c17575f6040518060600160405290815f82015f9054906101000a900473ffffffffffffffffffffffffffffffffffffffff1673ffffffffffffffffffffffffffffffffffffffff1673ffffffffffffffffffffffffffffffffffffffff1681526020015f820160149054906101000a900467ffffffffffffffff1667ffffffffffffffff1667ffffffffffffffff168152602001600182015f9054906101000a900467ffffffffffffffff1667ffffffffffffffff1667ffffffffffffffff16815250509150610c105f80015f9054906101000a900473ffffffffffffffffffffffffffffffffffffffff165f800160149054906101000a900467ffffffffffffffff16610f0d565b9050610d24565b60026040518060600160405290815f82015f9054906101000a900473ffffffffffffffffffffffffffffffffffffffff1673ffffffffffffffffffffffffffffffffffffffff1673ffffffffffffffffffffffffffffffffffffffff1681526020015f820160149054906101000a900467ffffffffffffffff1667ffffffffffffffff1667ffffffffffffffff168152602001600182015f9054906101000a900467ffffffffffffffff1667ffffffffffffffff1667ffffffffffffffff16815250509150610d2160025f015f9054906101000a900473ffffffffffffffffffffffffffffffffffffffff1660025f0160149054906101000a900467ffffffffffffffff16610f0d565b90505b610d398183876110049092919063ffffffff16565b9250505092915050565b7f000000000000000000000000000000000000000000000000000000000000000081565b5f8282600c60ff1690602c60ff1692610d82939291906119f8565b90610d8d9190611a48565b5f1c905092915050565b5f8282602c60ff1690604c60ff1692610db2939291906119f8565b90610dbd9190611a48565b905092915050565b60608282604c60ff16908092610ddd939291906119f8565b8080601f0160208091040260200160405190810160405280939291908181526020018383808284375f81840152601f19601f82011690508083019250505050505050905092915050565b5f80825f1c905073ffffffffffffffffffffffffffffffffffffffff80168111610e545780915050610e59565b5f9150505b919050565b5f808251905060148103610e815782610e7690611af4565b60601c915050610ead565b60208103610ea8575f83610e9490611b6e565b9050610e9f81610e27565b92505050610ead565b5f9150505b919050565b606060405180606001604052808473ffffffffffffffffffffffffffffffffffffffff16815260200183815260200185815250604051602001610ef59190611c69565b60405160208183030381529060405290509392505050565b5f80606061080173ffffffffffffffffffffffffffffffffffffffff168585604051602001610f3d929190611c89565b604051602081830303815290604052604051610f599190611ce0565b5f60405180830381855afa9150503d805f8114610f91576040519150601f19603f3d011682016040523d82523d5f602084013e610f96565b606091505b50809250819350505081610fe35784846040517fa91ed721000000000000000000000000000000000000000000000000000000008152600401610fda929190611c89565b60405180910390fd5b80806020019051810190610ff79190611d6f565b5f01519250505092915050565b61100c61115d565b5f8260400151600a61101e9190611ef6565b90505f8082878161103257611031611f40565b5b06915081870390505f83886110479190611f6d565b90508667ffffffffffffffff168167ffffffffffffffff1611156110e3577ff17459c2e89c2b011fa739accb3b853858d0a689d31382b9aa4f56a1ca00f9d38188604051611096929190611f9d565b60405180910390a15f8488836110ac9190611fc4565b67ffffffffffffffff166110c09190611fff565b905087915080836110d19190612040565b925080846110df9190612073565b9350505b60405180606001604052808381526020018481526020018267ffffffffffffffff168152509450505050509392505050565b60405180606001604052805f73ffffffffffffffffffffffffffffffffffffffff1681526020015f67ffffffffffffffff1681526020015f67ffffffffffffffff1681525090565b60405180606001604052805f81526020015f81526020015f67ffffffffffffffff1681525090565b5f604051905090565b5f80fd5b5f80fd5b5f80fd5b5f80fd5b5f80fd5b5f8083601f8401126111b7576111b6611196565b5b8235905067ffffffffffffffff8111156111d4576111d361119a565b5b6020830191508360018202830111156111f0576111ef61119e565b5b9250929050565b5f806020838503121561120d5761120c61118e565b5b5f83013567ffffffffffffffff81111561122a57611229611192565b5b611236858286016111a2565b92509250509250929050565b5f819050919050565b61125481611242565b82525050565b5f819050919050565b61126c8161125a565b82525050565b5f81519050919050565b5f82825260208201905092915050565b5f5b838110156112a957808201518184015260208101905061128e565b5f8484015250505050565b5f601f19601f8301169050919050565b5f6112ce82611272565b6112d8818561127c565b93506112e881856020860161128c565b6112f1816112b4565b840191505092915050565b5f60608201905061130f5f83018661124b565b61131c6020830185611263565b818103604083015261132e81846112c4565b9050949350505050565b5f73ffffffffffffffffffffffffffffffffffffffff82169050919050565b5f61136182611338565b9050919050565b61137181611357565b82525050565b5f67ffffffffffffffff82169050919050565b61139381611377565b82525050565b606082015f8201516113ad5f850182611368565b5060208201516113c0602085018261138a565b5060408201516113d3604085018261138a565b50505050565b5f6060820190506113ec5f830184611399565b92915050565b5f80fd5b7f4e487b71000000000000000000000000000000000000000000000000000000005f52604160045260245ffd5b61142c826112b4565b810181811067ffffffffffffffff8211171561144b5761144a6113f6565b5b80604052505050565b5f61145d611185565b90506114698282611423565b919050565b5f67ffffffffffffffff821115611488576114876113f6565b5b611491826112b4565b9050602081019050919050565b828183375f83830152505050565b5f6114be6114b98461146e565b611454565b9050828152602081018484840111156114da576114d96113f2565b5b6114e584828561149e565b509392505050565b5f82601f83011261150157611500611196565b5b81356115118482602086016114ac565b91505092915050565b6115238161125a565b811461152d575f80fd5b50565b5f8135905061153e8161151a565b92915050565b61154d81611242565b8114611557575f80fd5b50565b5f8135905061156881611544565b92915050565b5f805f606084860312156115855761158461118e565b5b5f84013567ffffffffffffffff8111156115a2576115a1611192565b5b6115ae868287016114ed565b93505060206115bf86828701611530565b92505060406115d08682870161155a565b9150509250925092565b6115e381611357565b82525050565b5f6020820190506115fc5f8301846115da565b92915050565b61160b81611377565b82525050565b5f6060820190506116245f8301866115da565b6116316020830185611602565b61163e6040830184611602565b949350505050565b5f6020820190506116595f83018461124b565b92915050565b61166881611357565b8114611672575f80fd5b50565b5f813590506116838161165f565b92915050565b61169281611377565b811461169c575f80fd5b50565b5f813590506116ad81611689565b92915050565b5f80604083850312156116c9576116c861118e565b5b5f6116d685828601611675565b92505060206116e78582860161169f565b9150509250929050565b5f6020820190506117045f830184611602565b92915050565b5f6020828403121561171f5761171e61118e565b5b5f61172c84828501611675565b91505092915050565b5f819050919050565b5f61175861175361174e84611338565b611735565b611338565b9050919050565b5f6117698261173e565b9050919050565b5f61177a8261175f565b9050919050565b61178a81611770565b82525050565b5f6020820190506117a35f830184611781565b92915050565b5f80604083850312156117bf576117be61118e565b5b5f6117cc85828601611675565b92505060206117dd8582860161155a565b9150509250929050565b5f8115159050919050565b6117fb816117e7565b8114611805575f80fd5b50565b5f81359050611816816117f2565b92915050565b5f80604083850312156118325761183161118e565b5b5f61183f8582860161155a565b925050602061185085828601611808565b9150509250929050565b61186381611242565b82525050565b606082015f82015161187d5f85018261185a565b506020820151611890602085018261185a565b5060408201516118a3604085018261138a565b50505050565b5f6060820190506118bc5f830184611869565b92915050565b5f6118cc8261175f565b9050919050565b6118dc816118c2565b82525050565b5f6020820190506118f55f8301846118d3565b92915050565b5f6040820190508181035f83015261191381856112c4565b9050611922602083018461124b565b9392505050565b5f6020820190508181035f83015261194181846112c4565b905092915050565b5f81905092915050565b50565b5f6119615f83611949565b915061196c82611953565b5f82019050919050565b5f61198082611956565b9150819050919050565b5f60408201905061199d5f8301856115da565b6119aa602083018461124b565b9392505050565b5f815190506119bf816117f2565b92915050565b5f602082840312156119da576119d961118e565b5b5f6119e7848285016119b1565b91505092915050565b5f80fd5b5f80fd5b5f8085851115611a0b57611a0a6119f0565b5b83861115611a1c57611a1b6119f4565b5b6001850283019150848603905094509492505050565b5f82905092915050565b5f82821b905092915050565b5f611a538383611a32565b82611a5e813561125a565b92506020821015611a9e57611a997fffffffffffffffffffffffffffffffffffffffffffffffffffffffffffffffff83602003600802611a3c565b831692505b505092915050565b5f819050602082019050919050565b5f7fffffffffffffffffffffffffffffffffffffffff00000000000000000000000082169050919050565b5f611aeb8251611ab5565b80915050919050565b5f611afe82611272565b82611b0884611aa6565b9050611b1381611ae0565b92506014821015611b5357611b4e7fffffffffffffffffffffffffffffffffffffffff00000000000000000000000083601403600802611a3c565b831692505b5050919050565b5f611b65825161125a565b80915050919050565b5f611b7882611272565b82611b8284611aa6565b9050611b8d81611b5a565b92506020821015611bcd57611bc87fffffffffffffffffffffffffffffffffffffffffffffffffffffffffffffffff83602003600802611a3c565b831692505b5050919050565b5f82825260208201905092915050565b5f611bee82611272565b611bf88185611bd4565b9350611c0881856020860161128c565b611c11816112b4565b840191505092915050565b5f606083015f830151611c315f860182611368565b506020830151611c44602086018261185a565b5060408301518482036040860152611c5c8282611be4565b9150508091505092915050565b5f6020820190508181035f830152611c818184611c1c565b905092915050565b5f604082019050611c9c5f8301856115da565b611ca96020830184611602565b9392505050565b5f611cba82611272565b611cc48185611949565b9350611cd481856020860161128c565b80840191505092915050565b5f611ceb8284611cb0565b915081905092915050565b5f80fd5b5f81519050611d0881611689565b92915050565b5f60608284031215611d2357611d22611cf6565b5b611d2d6060611454565b90505f611d3c84828501611cfa565b5f830152506020611d4f84828501611cfa565b6020830152506040611d6384828501611cfa565b60408301525092915050565b5f60608284031215611d8457611d8361118e565b5b5f611d9184828501611d0e565b91505092915050565b7f4e487b71000000000000000000000000000000000000000000000000000000005f52601160045260245ffd5b5f8160011c9050919050565b5f808291508390505b6001851115611e1c57808604811115611df857611df7611d9a565b5b6001851615611e075780820291505b8081029050611e1585611dc7565b9450611ddc565b94509492505050565b5f82611e345760019050611eef565b81611e41575f9050611eef565b8160018114611e575760028114611e6157611e90565b6001915050611eef565b60ff841115611e7357611e72611d9a565b5b8360020a915084821115611e8a57611e89611d9a565b5b50611eef565b5060208310610133831016604e8410600b8410161715611ec55782820a905083811115611ec057611ebf611d9a565b5b611eef565b611ed28484846001611dd3565b92509050818404811115611ee957611ee8611d9a565b5b81810290505b9392505050565b5f611f0082611242565b9150611f0b83611377565b9250611f387fffffffffffffffffffffffffffffffffffffffffffffffffffffffffffffffff8484611e25565b905092915050565b7f4e487b71000000000000000000000000000000000000000000000000000000005f52601260045260245ffd5b5f611f7782611242565b9150611f8283611242565b925082611f9257611f91611f40565b5b828204905092915050565b5f604082019050611fb05f830185611602565b611fbd6020830184611602565b9392505050565b5f611fce82611377565b9150611fd983611377565b9250828203905067ffffffffffffffff811115611ff957611ff8611d9a565b5b92915050565b5f61200982611242565b915061201483611242565b925082820261202281611242565b9150828204841483151761203957612038611d9a565b5b5092915050565b5f61204a82611242565b915061205583611242565b925082820390508181111561206d5761206c611d9a565b5b92915050565b5f61207d82611242565b915061208883611242565b92508282019050808211156120a05761209f611d9a565b5b9291505056fea2646970667358221220cbe875045cc8d6be474c1815820bbab8ce789b5d814409286c98c75b9730f4f464736f6c63430008160033",
    "linkReferences": {}
  },
  "methodIdentifiers": {
    "HLP_PRECOMPILE_READ_SPOT_BALANCE()": "ba872679",
    "HLP_PRECOMPILE_WRITE()": "dd850075",
    "VALID_COMPOSE_MESSAGE_LENGTH_ENCODE()": "9278d99a",
    "VALID_COMPOSE_MESSAGE_LENGTH_PACKED()": "807d6c3f",
    "balanceOfHyperCore(address,uint64)": "81e8dcb4",
    "endpoint()": "5e280f11",
    "getHypeAsset()": "aae12e46",
    "getOFTAsset()": "2d0e315c",
    "hypeAsset()": "f6e6b240",
    "oft()": "9b5215f6",
    "oftAsset()": "765008a1",
    "quoteHyperCoreAmount(uint256,bool)": "f9716faf",
    "refundERC20(address,uint256)": "ebaeefd6",
    "refundNativeTokens(address)": "8483bc00",
    "token()": "fc0c546a",
    "validate_addresses_or_refund(bytes,bytes32,uint256)": "5241b496",
    "validate_payload(bytes)": "1b224831"
  },
  "id": 1
}