{
  "abi": [
    {
      "type": "function",
      "name": "L1ReadPrecompileAddress_SpotBalance",
      "inputs": [],
      "outputs": [
        {
          "name": "",
          "type": "address",
          "internalType": "address"
        }
      ],
      "stateMutability": "view"
    },
    {
      "type": "function",
      "name": "L1WritePrecompileAddress",
      "inputs": [],
      "outputs": [
        {
          "name": "",
          "type": "address",
          "internalType": "address"
        }
      ],
      "stateMutability": "view"
    },
    {
      "type": "function",
      "name": "balanceOfHyperCore",
      "inputs": [
        {
          "name": "_user",
          "type": "address",
          "internalType": "address"
        },
        {
          "name": "_tokenId",
          "type": "uint64",
          "internalType": "uint64"
        }
      ],
      "outputs": [
        {
          "name": "",
          "type": "uint64",
          "internalType": "uint64"
        }
      ],
      "stateMutability": "view"
    },
    {
      "type": "function",
      "name": "endpoint",
      "inputs": [],
      "outputs": [
        {
          "name": "",
          "type": "address",
          "internalType": "address"
        }
      ],
      "stateMutability": "view"
    },
    {
      "type": "function",
      "name": "getHypeAsset",
      "inputs": [],
      "outputs": [
        {
          "name": "",
          "type": "tuple",
          "internalType": "struct IHyperAsset",
          "components": [
            {
              "name": "assetBridgeAddress",
              "type": "address",
              "internalType": "address"
            },
            {
              "name": "coreIndexId",
              "type": "uint64",
              "internalType": "uint64"
            },
            {
              "name": "decimalDiff",
              "type": "uint64",
              "internalType": "uint64"
            }
          ]
        }
      ],
      "stateMutability": "view"
    },
    {
      "type": "function",
      "name": "getOFTAsset",
      "inputs": [],
      "outputs": [
        {
          "name": "",
          "type": "tuple",
          "internalType": "struct IHyperAsset",
          "components": [
            {
              "name": "assetBridgeAddress",
              "type": "address",
              "internalType": "address"
            },
            {
              "name": "coreIndexId",
              "type": "uint64",
              "internalType": "uint64"
            },
            {
              "name": "decimalDiff",
              "type": "uint64",
              "internalType": "uint64"
            }
          ]
        }
      ],
      "stateMutability": "view"
    },
    {
      "type": "function",
      "name": "hypeAsset",
      "inputs": [],
      "outputs": [
        {
          "name": "assetBridgeAddress",
          "type": "address",
          "internalType": "address"
        },
        {
          "name": "coreIndexId",
          "type": "uint64",
          "internalType": "uint64"
        },
        {
          "name": "decimalDiff",
          "type": "uint64",
          "internalType": "uint64"
        }
      ],
      "stateMutability": "view"
    },
    {
      "type": "function",
      "name": "oft",
      "inputs": [],
      "outputs": [
        {
          "name": "",
          "type": "address",
          "internalType": "contract IOFT"
        }
      ],
      "stateMutability": "view"
    },
    {
      "type": "function",
      "name": "oftAsset",
      "inputs": [],
      "outputs": [
        {
          "name": "assetBridgeAddress",
          "type": "address",
          "internalType": "address"
        },
        {
          "name": "coreIndexId",
          "type": "uint64",
          "internalType": "uint64"
        },
        {
          "name": "decimalDiff",
          "type": "uint64",
          "internalType": "uint64"
        }
      ],
      "stateMutability": "view"
    },
    {
      "type": "function",
      "name": "quoteHyperCoreAmount",
      "inputs": [
        {
          "name": "_amount",
          "type": "uint256",
          "internalType": "uint256"
        },
        {
          "name": "_isOFT",
          "type": "bool",
          "internalType": "bool"
        }
      ],
      "outputs": [
        {
          "name": "",
          "type": "tuple",
          "internalType": "struct IHyperAssetAmount",
          "components": [
            {
              "name": "evm",
              "type": "uint256",
              "internalType": "uint256"
            },
            {
              "name": "dust",
              "type": "uint256",
              "internalType": "uint256"
            },
            {
              "name": "core",
              "type": "uint64",
              "internalType": "uint64"
            }
          ]
        }
      ],
      "stateMutability": "nonpayable"
    },
    {
      "type": "function",
      "name": "refundNativeTokens",
      "inputs": [
        {
          "name": "refundAddress",
          "type": "address",
          "internalType": "address"
        }
      ],
      "outputs": [],
      "stateMutability": "payable"
    },
    {
      "type": "function",
      "name": "refundTokens",
      "inputs": [
        {
          "name": "err",
          "type": "bytes",
          "internalType": "bytes"
        }
      ],
      "outputs": [
        {
          "name": "",
          "type": "bytes",
          "internalType": "bytes"
        }
      ],
      "stateMutability": "payable"
    },
    {
      "type": "function",
      "name": "token",
      "inputs": [],
      "outputs": [
        {
          "name": "",
          "type": "address",
          "internalType": "contract IERC20"
        }
      ],
      "stateMutability": "view"
    },
    {
      "type": "event",
      "name": "OverflowDetected",
      "inputs": [
        {
          "name": "amountCore",
          "type": "uint64",
          "indexed": false,
          "internalType": "uint64"
        },
        {
          "name": "maxTransferableAmount",
          "type": "uint64",
          "indexed": false,
          "internalType": "uint64"
        }
      ],
      "anonymous": false
    },
    {
      "type": "event",
      "name": "errorNativeRefund_Failed",
      "inputs": [
        {
          "name": "refundTo",
          "type": "address",
          "indexed": false,
          "internalType": "address"
        },
        {
          "name": "refundAmount",
          "type": "uint256",
          "indexed": false,
          "internalType": "uint256"
        }
      ],
      "anonymous": false
    },
    {
      "type": "event",
      "name": "errorRefund",
      "inputs": [
        {
          "name": "refundTo",
          "type": "address",
          "indexed": false,
          "internalType": "address"
        },
        {
          "name": "refundAmount",
          "type": "uint256",
          "indexed": false,
          "internalType": "uint256"
        }
      ],
      "anonymous": false
    },
    {
      "type": "error",
      "name": "HyperLiquidComposer_InvalidCall_NotComposer",
      "inputs": [
        {
          "name": "notComposerAddress",
          "type": "address",
          "internalType": "address"
        }
      ]
    }
  ],
  "bytecode": {
    "object": "0x60e060405234801561000f575f80fd5b5060805160a05160c0516113296100485f395f81816104ac01528181610573015261077501525f61031901525f61020601526113295ff3fe6080604052600436106100ce575f3560e01c80639b5215f61161007c578063aae12e4611610057578063aae12e4614610370578063f6e6b240146103f9578063f9716faf14610450578063fc0c546a1461049b575f80fd5b80639b5215f6146103085780639c7190241461033b578063aa1a835d14610350575f80fd5b8063765008a1116100ac578063765008a11461022857806381e8dcb4146102bb5780638483bc00146102f3575f80fd5b80632d0e315c146100d257806355cd1378146101a95780635e280f11146101f5575b5f80fd5b3480156100dd575f80fd5b5061015a604080516060810182525f808252602082018190529181019190915250604080516060810182525f5473ffffffffffffffffffffffffffffffffffffffff8116825267ffffffffffffffff7401000000000000000000000000000000000000000090910481166020830152600154169181019190915290565b60408051825173ffffffffffffffffffffffffffffffffffffffff16815260208084015167ffffffffffffffff9081169183019190915292820151909216908201526060015b60405180910390f35b3480156101b4575f80fd5b506101d073333333333333333333333333333333333333333381565b60405173ffffffffffffffffffffffffffffffffffffffff90911681526020016101a0565b348015610200575f80fd5b506101d07f000000000000000000000000000000000000000000000000000000000000000081565b348015610233575f80fd5b505f5460015461027e9173ffffffffffffffffffffffffffffffffffffffff81169167ffffffffffffffff740100000000000000000000000000000000000000009092048216911683565b6040805173ffffffffffffffffffffffffffffffffffffffff909416845267ffffffffffffffff92831660208501529116908201526060016101a0565b3480156102c6575f80fd5b506102da6102d5366004610d2b565b6104ce565b60405167ffffffffffffffff90911681526020016101a0565b610306610301366004610d62565b6104e2565b005b348015610313575f80fd5b506101d07f000000000000000000000000000000000000000000000000000000000000000081565b348015610346575f80fd5b506101d061080181565b61036361035e366004610d84565b6105e2565b6040516101a09190610e12565b34801561037b575f80fd5b5061015a604080516060810182525f8082526020820181905291810191909152506040805160608101825260025473ffffffffffffffffffffffffffffffffffffffff8116825267ffffffffffffffff7401000000000000000000000000000000000000000090910481166020830152600354169181019190915290565b348015610404575f80fd5b5060025460035461027e9173ffffffffffffffffffffffffffffffffffffffff81169167ffffffffffffffff740100000000000000000000000000000000000000009092048216911683565b34801561045b575f80fd5b5061046f61046a366004610e6f565b61093d565b6040805182518152602080840151908201529181015167ffffffffffffffff16908201526060016101a0565b3480156104a6575f80fd5b506101d07f000000000000000000000000000000000000000000000000000000000000000081565b5f6104d98383610a7f565b90505b92915050565b333014610522576040517f5950c85e0000000000000000000000000000000000000000000000000000000081523360048201526024015b60405180910390fd5b34156105df576040517fa9059cbb00000000000000000000000000000000000000000000000000000000815273ffffffffffffffffffffffffffffffffffffffff82811660048301523460248301527f0000000000000000000000000000000000000000000000000000000000000000169063a9059cbb906044016020604051808303815f875af11580156105b9573d5f803e3d5ffd5b505050506040513d601f19601f820116820180604052508101906105dd9190610e92565b505b50565b606033301461061f576040517f5950c85e000000000000000000000000000000000000000000000000000000008152336004820152602401610519565b5f8290036106ca576040516020016106b49060208082526049908201527f4572726f723a204e6f74206c6f676963206261736564202d206d616c666f726d60408201527f6564207265636569766572206164647265737320776974682061206e6f6e2d6560608201527f766d2073656e6465720000000000000000000000000000000000000000000000608082015260a00190565b60405160208183030381529060405290506104dc565b5f6106d88360448187610ead565b8080601f0160208091040260200160405190810160405280939291908181526020018383808284375f920182905250845194955093610724935085016020908101925085019050610f79565b60208101519091501561086057805160208201516040517fa9059cbb00000000000000000000000000000000000000000000000000000000815273ffffffffffffffffffffffffffffffffffffffff7f0000000000000000000000000000000000000000000000000000000000000000169263a9059cbb926107c99260040173ffffffffffffffffffffffffffffffffffffffff929092168252602082015260400190565b6020604051808303815f875af11580156107e5573d5f803e3d5ffd5b505050506040513d601f19601f820116820180604052508101906108099190610e92565b5080516020808301516040805173ffffffffffffffffffffffffffffffffffffffff9094168452918301527faed2da31f162a342bd2c99e78fb299cbff19be89edb8d17ff85c1fcdaca36c0d910160405180910390a15b80516040517f8483bc0000000000000000000000000000000000000000000000000000000000815273ffffffffffffffffffffffffffffffffffffffff90911660048201523090638483bc009034906024015f604051808303818588803b1580156108c9575f80fd5b505af1935050505080156108db575060015b6109315780516040805173ffffffffffffffffffffffffffffffffffffffff90921682523460208301527f72a191be6ba70d88d380ca4e8c0017e7bb8ebd309c702db61488c949c71ba53b910160405180910390a15b60400151949350505050565b61096860405180606001604052805f81526020015f81526020015f67ffffffffffffffff1681525090565b604080516060810182525f808252602082018190529181018290529083156109fc57604080516060810182525f5473ffffffffffffffffffffffffffffffffffffffff811680835267ffffffffffffffff74010000000000000000000000000000000000000000909204821660208401819052600154909216938301939093529093506109f59190610a7f565b9050610a6b565b6040805160608101825260025473ffffffffffffffffffffffffffffffffffffffff811680835267ffffffffffffffff7401000000000000000000000000000000000000000090920482166020840181905260035490921693830193909352909350610a689190610a7f565b90505b610a76858284610bc1565b95945050505050565b6040805173ffffffffffffffffffffffffffffffffffffffff8416602082015267ffffffffffffffff8316818301528151808203830181526060918201928390525f9283929161080191610ad3919061106e565b5f60405180830381855afa9150503d805f8114610b0b576040519150601f19603f3d011682016040523d82523d5f602084013e610b10565b606091505b50909250905081610ba3576040517f08c379a000000000000000000000000000000000000000000000000000000000815260206004820152602260248201527f53706f7442616c616e636520707265636f6d70696c652063616c6c206661696c60448201527f65640000000000000000000000000000000000000000000000000000000000006064820152608401610519565b80806020019051810190610bb79190611089565b5195945050505050565b610bec60405180606001604052805f81526020015f81526020015f67ffffffffffffffff1681525090565b5f8260400151600a610bfe9190611226565b90505f610c0b8287611268565b90505f610c18828861127b565b90505f610c25848961128e565b90508667ffffffffffffffff168167ffffffffffffffff161115610cc6576040805167ffffffffffffffff8084168252891660208201527ff17459c2e89c2b011fa739accb3b853858d0a689d31382b9aa4f56a1ca00f9d3910160405180910390a15f84610c9389846112a1565b67ffffffffffffffff16610ca791906112c9565b8892509050610cb6818461127b565b9250610cc281856112e0565b9350505b60408051606081018252928352602083019390935267ffffffffffffffff169181019190915295945050505050565b73ffffffffffffffffffffffffffffffffffffffff811681146105df575f80fd5b67ffffffffffffffff811681146105df575f80fd5b5f8060408385031215610d3c575f80fd5b8235610d4781610cf5565b91506020830135610d5781610d16565b809150509250929050565b5f60208284031215610d72575f80fd5b8135610d7d81610cf5565b9392505050565b5f8060208385031215610d95575f80fd5b823567ffffffffffffffff80821115610dac575f80fd5b818501915085601f830112610dbf575f80fd5b813581811115610dcd575f80fd5b866020828501011115610dde575f80fd5b60209290920196919550909350505050565b5f5b83811015610e0a578181015183820152602001610df2565b50505f910152565b602081525f8251806020840152610e30816040850160208701610df0565b601f017fffffffffffffffffffffffffffffffffffffffffffffffffffffffffffffffe0169190910160400192915050565b80151581146105df575f80fd5b5f8060408385031215610e80575f80fd5b823591506020830135610d5781610e62565b5f60208284031215610ea2575f80fd5b8151610d7d81610e62565b5f8085851115610ebb575f80fd5b83861115610ec7575f80fd5b5050820193919092039150565b7f4e487b71000000000000000000000000000000000000000000000000000000005f52604160045260245ffd5b6040516060810167ffffffffffffffff81118282101715610f2457610f24610ed4565b60405290565b604051601f82017fffffffffffffffffffffffffffffffffffffffffffffffffffffffffffffffe016810167ffffffffffffffff81118282101715610f7157610f71610ed4565b604052919050565b5f6020808385031215610f8a575f80fd5b825167ffffffffffffffff80821115610fa1575f80fd5b9084019060608287031215610fb4575f80fd5b610fbc610f01565b8251610fc781610cf5565b81528284015184820152604083015182811115610fe2575f80fd5b80840193505086601f840112610ff6575f80fd5b82518281111561100857611008610ed4565b611038857fffffffffffffffffffffffffffffffffffffffffffffffffffffffffffffffe0601f84011601610f2a565b9250808352878582860101111561104d575f80fd5b61105c81868501878701610df0565b50604081019190915295945050505050565b5f825161107f818460208701610df0565b9190910192915050565b5f60608284031215611099575f80fd5b6110a1610f01565b82516110ac81610d16565b815260208301516110bc81610d16565b602082015260408301516110cf81610d16565b60408201529392505050565b7f4e487b71000000000000000000000000000000000000000000000000000000005f52601160045260245ffd5b600181815b8085111561116157817fffffffffffffffffffffffffffffffffffffffffffffffffffffffffffffffff04821115611147576111476110db565b8085161561115457918102915b93841c939080029061110d565b509250929050565b5f82611177575060016104dc565b8161118357505f6104dc565b816001811461119957600281146111a3576111bf565b60019150506104dc565b60ff8411156111b4576111b46110db565b50506001821b6104dc565b5060208310610133831016604e8410600b84101617156111e2575081810a6104dc565b6111ec8383611108565b807fffffffffffffffffffffffffffffffffffffffffffffffffffffffffffffffff0482111561121e5761121e6110db565b029392505050565b5f6104d967ffffffffffffffff841683611169565b7f4e487b71000000000000000000000000000000000000000000000000000000005f52601260045260245ffd5b5f826112765761127661123b565b500690565b818103818111156104dc576104dc6110db565b5f8261129c5761129c61123b565b500490565b67ffffffffffffffff8281168282160390808211156112c2576112c26110db565b5092915050565b80820281158282048414176104dc576104dc6110db565b808201808211156104dc576104dc6110db56fea26469706673582212200e09896248089b1ddc0e7d8f9211dfefa3d07cc64aa7c3d5bb64547b6731aab264736f6c63430008160033",
    "linkReferences": {}
  },
  "methodIdentifiers": {
    "L1ReadPrecompileAddress_SpotBalance()": "9c719024",
    "L1WritePrecompileAddress()": "55cd1378",
    "balanceOfHyperCore(address,uint64)": "81e8dcb4",
    "endpoint()": "5e280f11",
    "getHypeAsset()": "aae12e46",
    "getOFTAsset()": "2d0e315c",
    "hypeAsset()": "f6e6b240",
    "oft()": "9b5215f6",
    "oftAsset()": "765008a1",
    "quoteHyperCoreAmount(uint256,bool)": "f9716faf",
    "refundNativeTokens(address)": "8483bc00",
    "refundTokens(bytes)": "aa1a835d",
    "token()": "fc0c546a"
  },
  "id": 1
}