{
  "abi": [
    {
      "type": "function",
      "name": "L1ReadPrecompileAddress_SpotBalance",
      "inputs": [],
      "outputs": [
        {
          "name": "",
          "type": "address",
          "internalType": "address"
        }
      ],
      "stateMutability": "view"
    },
    {
      "type": "function",
      "name": "L1WritePrecompileAddress",
      "inputs": [],
      "outputs": [
        {
          "name": "",
          "type": "address",
          "internalType": "address"
        }
      ],
      "stateMutability": "view"
    },
    {
      "type": "function",
      "name": "VALID_COMPOSE_MESSAGE_LENGTH_ENCODE",
      "inputs": [],
      "outputs": [
        {
          "name": "",
          "type": "uint256",
          "internalType": "uint256"
        }
      ],
      "stateMutability": "view"
    },
    {
      "type": "function",
      "name": "VALID_COMPOSE_MESSAGE_LENGTH_PACKED",
      "inputs": [],
      "outputs": [
        {
          "name": "",
          "type": "uint256",
          "internalType": "uint256"
        }
      ],
      "stateMutability": "view"
    },
    {
      "type": "function",
      "name": "balanceOfHyperCore",
      "inputs": [
        {
          "name": "_user",
          "type": "address",
          "internalType": "address"
        },
        {
          "name": "_tokenId",
          "type": "uint64",
          "internalType": "uint64"
        }
      ],
      "outputs": [
        {
          "name": "",
          "type": "uint64",
          "internalType": "uint64"
        }
      ],
      "stateMutability": "view"
    },
    {
      "type": "function",
      "name": "endpoint",
      "inputs": [],
      "outputs": [
        {
          "name": "",
          "type": "address",
          "internalType": "address"
        }
      ],
      "stateMutability": "view"
    },
    {
      "type": "function",
      "name": "getHypeAsset",
      "inputs": [],
      "outputs": [
        {
          "name": "",
          "type": "tuple",
          "internalType": "struct IHyperAsset",
          "components": [
            {
              "name": "assetBridgeAddress",
              "type": "address",
              "internalType": "address"
            },
            {
              "name": "coreIndexId",
              "type": "uint64",
              "internalType": "uint64"
            },
            {
              "name": "decimalDiff",
              "type": "uint64",
              "internalType": "uint64"
            }
          ]
        }
      ],
      "stateMutability": "view"
    },
    {
      "type": "function",
      "name": "getOFTAsset",
      "inputs": [],
      "outputs": [
        {
          "name": "",
          "type": "tuple",
          "internalType": "struct IHyperAsset",
          "components": [
            {
              "name": "assetBridgeAddress",
              "type": "address",
              "internalType": "address"
            },
            {
              "name": "coreIndexId",
              "type": "uint64",
              "internalType": "uint64"
            },
            {
              "name": "decimalDiff",
              "type": "uint64",
              "internalType": "uint64"
            }
          ]
        }
      ],
      "stateMutability": "view"
    },
    {
      "type": "function",
      "name": "hypeAsset",
      "inputs": [],
      "outputs": [
        {
          "name": "assetBridgeAddress",
          "type": "address",
          "internalType": "address"
        },
        {
          "name": "coreIndexId",
          "type": "uint64",
          "internalType": "uint64"
        },
        {
          "name": "decimalDiff",
          "type": "uint64",
          "internalType": "uint64"
        }
      ],
      "stateMutability": "view"
    },
    {
      "type": "function",
      "name": "oft",
      "inputs": [],
      "outputs": [
        {
          "name": "",
          "type": "address",
          "internalType": "contract IOFT"
        }
      ],
      "stateMutability": "view"
    },
    {
      "type": "function",
      "name": "oftAsset",
      "inputs": [],
      "outputs": [
        {
          "name": "assetBridgeAddress",
          "type": "address",
          "internalType": "address"
        },
        {
          "name": "coreIndexId",
          "type": "uint64",
          "internalType": "uint64"
        },
        {
          "name": "decimalDiff",
          "type": "uint64",
          "internalType": "uint64"
        }
      ],
      "stateMutability": "view"
    },
    {
      "type": "function",
      "name": "quoteHyperCoreAmount",
      "inputs": [
        {
          "name": "_amount",
          "type": "uint256",
          "internalType": "uint256"
        },
        {
          "name": "_isOFT",
          "type": "bool",
          "internalType": "bool"
        }
      ],
      "outputs": [
        {
          "name": "",
          "type": "tuple",
          "internalType": "struct IHyperAssetAmount",
          "components": [
            {
              "name": "evm",
              "type": "uint256",
              "internalType": "uint256"
            },
            {
              "name": "dust",
              "type": "uint256",
              "internalType": "uint256"
            },
            {
              "name": "core",
              "type": "uint64",
              "internalType": "uint64"
            }
          ]
        }
      ],
      "stateMutability": "nonpayable"
    },
    {
      "type": "function",
      "name": "refundNativeTokens",
      "inputs": [
        {
          "name": "refundAddress",
          "type": "address",
          "internalType": "address"
        }
      ],
      "outputs": [],
      "stateMutability": "payable"
    },
    {
      "type": "function",
      "name": "refundTokens",
      "inputs": [
        {
          "name": "err",
          "type": "bytes",
          "internalType": "bytes"
        }
      ],
      "outputs": [
        {
          "name": "",
          "type": "bytes",
          "internalType": "bytes"
        }
      ],
      "stateMutability": "payable"
    },
    {
      "type": "function",
      "name": "token",
      "inputs": [],
      "outputs": [
        {
          "name": "",
          "type": "address",
          "internalType": "contract IERC20"
        }
      ],
      "stateMutability": "view"
    },
    {
      "type": "function",
      "name": "validateAndDecodeMessage",
      "inputs": [
        {
          "name": "_composeMessage",
          "type": "bytes",
          "internalType": "bytes"
        }
      ],
      "outputs": [
        {
          "name": "_receiver",
          "type": "address",
          "internalType": "address"
        },
        {
          "name": "_amountLD",
          "type": "uint256",
          "internalType": "uint256"
        }
      ],
      "stateMutability": "pure"
    },
    {
      "type": "event",
      "name": "OverflowDetected",
      "inputs": [
        {
          "name": "amountCore",
          "type": "uint64",
          "indexed": false,
          "internalType": "uint64"
        },
        {
          "name": "maxTransferableAmount",
          "type": "uint64",
          "indexed": false,
          "internalType": "uint64"
        }
      ],
      "anonymous": false
    },
    {
      "type": "event",
      "name": "errorNativeRefund_Failed",
      "inputs": [
        {
          "name": "refundTo",
          "type": "address",
          "indexed": false,
          "internalType": "address"
        },
        {
          "name": "refundAmount",
          "type": "uint256",
          "indexed": false,
          "internalType": "uint256"
        }
      ],
      "anonymous": false
    },
    {
      "type": "event",
      "name": "errorRefund",
      "inputs": [
        {
          "name": "refundTo",
          "type": "address",
          "indexed": false,
          "internalType": "address"
        },
        {
          "name": "refundAmount",
          "type": "uint256",
          "indexed": false,
          "internalType": "uint256"
        }
      ],
      "anonymous": false
    },
    {
      "type": "error",
      "name": "ErrorMsg",
      "inputs": [
        {
          "name": "errorMessage",
          "type": "bytes",
          "internalType": "bytes"
        }
      ]
    },
    {
      "type": "error",
      "name": "HyperLiquidComposer_InvalidCall_NotComposer",
      "inputs": [
        {
          "name": "notComposerAddress",
          "type": "address",
          "internalType": "address"
        }
      ]
    }
  ],
  "bytecode": {
    "object": "0x60e060405234801561000f575f80fd5b5060805160a05160c0516117556100485f395f818161054e015281816107bd01526109bf01525f6103bb01525f61027201526117555ff3fe6080604052600436106100ef575f3560e01c80639278d99a11610087578063aae12e4611610057578063aae12e4614610412578063f6e6b2401461049b578063f9716faf146104f2578063fc0c546a1461053d575f80fd5b80639278d99a146103965780639b5215f6146103aa5780639c719024146103dd578063aa1a835d146103f2575f80fd5b8063765008a1116100c2578063765008a114610294578063807d6c3f1461032757806381e8dcb4146103495780638483bc0014610381575f80fd5b8063233449e7146100f35780632d0e315c1461014357806355cd1378146102155780635e280f1114610261575b5f80fd5b3480156100fe575f80fd5b5061011261010d36600461100b565b610570565b6040805173ffffffffffffffffffffffffffffffffffffffff90931683526020830191909152015b60405180910390f35b34801561014e575f80fd5b506101cb604080516060810182525f808252602082018190529181019190915250604080516060810182525f5473ffffffffffffffffffffffffffffffffffffffff8116825267ffffffffffffffff7401000000000000000000000000000000000000000090910481166020830152600154169181019190915290565b60408051825173ffffffffffffffffffffffffffffffffffffffff16815260208084015167ffffffffffffffff90811691830191909152928201519092169082015260600161013a565b348015610220575f80fd5b5061023c73333333333333333333333333333333333333333381565b60405173ffffffffffffffffffffffffffffffffffffffff909116815260200161013a565b34801561026c575f80fd5b5061023c7f000000000000000000000000000000000000000000000000000000000000000081565b34801561029f575f80fd5b505f546001546102ea9173ffffffffffffffffffffffffffffffffffffffff81169167ffffffffffffffff740100000000000000000000000000000000000000009092048216911683565b6040805173ffffffffffffffffffffffffffffffffffffffff909416845267ffffffffffffffff928316602085015291169082015260600161013a565b348015610332575f80fd5b5061033b601481565b60405190815260200161013a565b348015610354575f80fd5b506103686103633660046110ad565b61071d565b60405167ffffffffffffffff909116815260200161013a565b61039461038f3660046110e4565b610731565b005b3480156103a1575f80fd5b5061033b602081565b3480156103b5575f80fd5b5061023c7f000000000000000000000000000000000000000000000000000000000000000081565b3480156103e8575f80fd5b5061023c61080181565b61040561040036600461100b565b61082c565b60405161013a9190611171565b34801561041d575f80fd5b506101cb604080516060810182525f8082526020820181905291810191909152506040805160608101825260025473ffffffffffffffffffffffffffffffffffffffff8116825267ffffffffffffffff7401000000000000000000000000000000000000000090910481166020830152600354169181019190915290565b3480156104a6575f80fd5b506002546003546102ea9173ffffffffffffffffffffffffffffffffffffffff81169167ffffffffffffffff740100000000000000000000000000000000000000009092048216911683565b3480156104fd575f80fd5b5061051161050c366004611190565b610b87565b6040805182518152602080840151908201529181015167ffffffffffffffff169082015260600161013a565b348015610548575f80fd5b5061023c7f000000000000000000000000000000000000000000000000000000000000000081565b5f805f61057d8585610cc9565b90506105898585610d13565b9150601481511415801561059f57506020815114155b156106e25780516040515f917f09b3473100000000000000000000000000000000000000000000000000000000916105db9185916024016111b3565b604080517fffffffffffffffffffffffffffffffffffffffffffffffffffffffffffffffe08184030181529190526020810180517bffffffffffffffffffffffffffffffffffffffffffffffffffffffff167fffffffff000000000000000000000000000000000000000000000000000000009093169290921790915290505f6106658787610d2b565b60405160200161067791815260200190565b60405160208183030381529060405280602001905181019061069991906111d4565b90506106a6818584610d3a565b6040517f4f9520330000000000000000000000000000000000000000000000000000000081526004016106d99190611171565b60405180910390fd5b60148151036106fe576106f4816111ef565b60601c9250610715565b8080602001905181019061071291906111d4565b92505b509250929050565b5f6107288383610d95565b90505b92915050565b33301461076c576040517f5950c85e0000000000000000000000000000000000000000000000000000000081523360048201526024016106d9565b3415610829576040517fa9059cbb00000000000000000000000000000000000000000000000000000000815273ffffffffffffffffffffffffffffffffffffffff82811660048301523460248301527f0000000000000000000000000000000000000000000000000000000000000000169063a9059cbb906044016020604051808303815f875af1158015610803573d5f803e3d5ffd5b505050506040513d601f19601f82011682018060405250810190610827919061123e565b505b50565b6060333014610869576040517f5950c85e0000000000000000000000000000000000000000000000000000000081523360048201526024016106d9565b5f829003610914576040516020016108fe9060208082526049908201527f4572726f723a204e6f74206c6f676963206261736564202d206d616c666f726d60408201527f6564207265636569766572206164647265737320776974682061206e6f6e2d6560608201527f766d2073656e6465720000000000000000000000000000000000000000000000608082015260a00190565b604051602081830303815290604052905061072b565b5f6109228360448187611259565b8080601f0160208091040260200160405190810160405280939291908181526020018383808284375f92018290525084519495509361096e935085016020908101925085019050611325565b602081015190915015610aaa57805160208201516040517fa9059cbb00000000000000000000000000000000000000000000000000000000815273ffffffffffffffffffffffffffffffffffffffff7f0000000000000000000000000000000000000000000000000000000000000000169263a9059cbb92610a139260040173ffffffffffffffffffffffffffffffffffffffff929092168252602082015260400190565b6020604051808303815f875af1158015610a2f573d5f803e3d5ffd5b505050506040513d601f19601f82011682018060405250810190610a53919061123e565b5080516020808301516040805173ffffffffffffffffffffffffffffffffffffffff9094168452918301527faed2da31f162a342bd2c99e78fb299cbff19be89edb8d17ff85c1fcdaca36c0d910160405180910390a15b80516040517f8483bc0000000000000000000000000000000000000000000000000000000000815273ffffffffffffffffffffffffffffffffffffffff90911660048201523090638483bc009034906024015f604051808303818588803b158015610b13575f80fd5b505af193505050508015610b25575060015b610b7b5780516040805173ffffffffffffffffffffffffffffffffffffffff90921682523460208301527f72a191be6ba70d88d380ca4e8c0017e7bb8ebd309c702db61488c949c71ba53b910160405180910390a15b60400151949350505050565b610bb260405180606001604052805f81526020015f81526020015f67ffffffffffffffff1681525090565b604080516060810182525f80825260208201819052918101829052908315610c4657604080516060810182525f5473ffffffffffffffffffffffffffffffffffffffff811680835267ffffffffffffffff7401000000000000000000000000000000000000000090920482166020840181905260015490921693830193909352909350610c3f9190610d95565b9050610cb5565b6040805160608101825260025473ffffffffffffffffffffffffffffffffffffffff811680835267ffffffffffffffff7401000000000000000000000000000000000000000090920482166020840181905260035490921693830193909352909350610cb29190610d95565b90505b610cc0858284610ed7565b95945050505050565b6060610cd882604c8186611259565b8080601f0160208091040260200160405190810160405280939291908181526020018383808284375f92019190915250929695505050505050565b5f610d22602c600c8486611259565b6107289161141a565b5f610d22604c602c8486611259565b606060405180606001604052808573ffffffffffffffffffffffffffffffffffffffff16815260200184815260200183815250604051602001610d7d9190611456565b60405160208183030381529060405290509392505050565b6040805173ffffffffffffffffffffffffffffffffffffffff8416602082015267ffffffffffffffff8316818301528151808203830181526060918201928390525f9283929161080191610de991906114a2565b5f60405180830381855afa9150503d805f8114610e21576040519150601f19603f3d011682016040523d82523d5f602084013e610e26565b606091505b50909250905081610eb9576040517f08c379a000000000000000000000000000000000000000000000000000000000815260206004820152602260248201527f53706f7442616c616e636520707265636f6d70696c652063616c6c206661696c60448201527f656400000000000000000000000000000000000000000000000000000000000060648201526084016106d9565b80806020019051810190610ecd91906114bd565b5195945050505050565b610f0260405180606001604052805f81526020015f81526020015f67ffffffffffffffff1681525090565b5f8260400151600a610f149190611652565b90505f610f218287611694565b90505f610f2e82886116a7565b90505f610f3b84896116ba565b90508667ffffffffffffffff168167ffffffffffffffff161115610fdc576040805167ffffffffffffffff8084168252891660208201527ff17459c2e89c2b011fa739accb3b853858d0a689d31382b9aa4f56a1ca00f9d3910160405180910390a15f84610fa989846116cd565b67ffffffffffffffff16610fbd91906116f5565b8892509050610fcc81846116a7565b9250610fd8818561170c565b9350505b60408051606081018252928352602083019390935267ffffffffffffffff169181019190915295945050505050565b5f806020838503121561101c575f80fd5b823567ffffffffffffffff80821115611033575f80fd5b818501915085601f830112611046575f80fd5b813581811115611054575f80fd5b866020828501011115611065575f80fd5b60209290920196919550909350505050565b73ffffffffffffffffffffffffffffffffffffffff81168114610829575f80fd5b67ffffffffffffffff81168114610829575f80fd5b5f80604083850312156110be575f80fd5b82356110c981611077565b915060208301356110d981611098565b809150509250929050565b5f602082840312156110f4575f80fd5b81356110ff81611077565b9392505050565b5f5b83811015611120578181015183820152602001611108565b50505f910152565b5f815180845261113f816020860160208601611106565b601f017fffffffffffffffffffffffffffffffffffffffffffffffffffffffffffffffe0169290920160200192915050565b602081525f6107286020830184611128565b8015158114610829575f80fd5b5f80604083850312156111a1575f80fd5b8235915060208301356110d981611183565b604081525f6111c56040830185611128565b90508260208301529392505050565b5f602082840312156111e4575f80fd5b81516110ff81611077565b5f815160208301517fffffffffffffffffffffffffffffffffffffffff000000000000000000000000808216935060148310156112365780818460140360031b1b83161693505b505050919050565b5f6020828403121561124e575f80fd5b81516110ff81611183565b5f8085851115611267575f80fd5b83861115611273575f80fd5b5050820193919092039150565b7f4e487b71000000000000000000000000000000000000000000000000000000005f52604160045260245ffd5b6040516060810167ffffffffffffffff811182821017156112d0576112d0611280565b60405290565b604051601f82017fffffffffffffffffffffffffffffffffffffffffffffffffffffffffffffffe016810167ffffffffffffffff8111828210171561131d5761131d611280565b604052919050565b5f6020808385031215611336575f80fd5b825167ffffffffffffffff8082111561134d575f80fd5b9084019060608287031215611360575f80fd5b6113686112ad565b825161137381611077565b8152828401518482015260408301518281111561138e575f80fd5b80840193505086601f8401126113a2575f80fd5b8251828111156113b4576113b4611280565b6113e4857fffffffffffffffffffffffffffffffffffffffffffffffffffffffffffffffe0601f840116016112d6565b925080835287858286010111156113f9575f80fd5b61140881868501878701611106565b50604081019190915295945050505050565b8035602083101561072b577fffffffffffffffffffffffffffffffffffffffffffffffffffffffffffffffff602084900360031b1b1692915050565b6020815273ffffffffffffffffffffffffffffffffffffffff8251166020820152602082015160408201525f604083015160608084015261149a6080840182611128565b949350505050565b5f82516114b3818460208701611106565b9190910192915050565b5f606082840312156114cd575f80fd5b6114d56112ad565b82516114e081611098565b815260208301516114f081611098565b6020820152604083015161150381611098565b60408201529392505050565b7f4e487b71000000000000000000000000000000000000000000000000000000005f52601160045260245ffd5b600181815b8085111561071557817fffffffffffffffffffffffffffffffffffffffffffffffffffffffffffffffff0482111561157b5761157b61150f565b8085161561158857918102915b93841c9390800290611541565b5f826115a35750600161072b565b816115af57505f61072b565b81600181146115c557600281146115cf576115eb565b600191505061072b565b60ff8411156115e0576115e061150f565b50506001821b61072b565b5060208310610133831016604e8410600b841016171561160e575081810a61072b565b611618838361153c565b807fffffffffffffffffffffffffffffffffffffffffffffffffffffffffffffffff0482111561164a5761164a61150f565b029392505050565b5f61072867ffffffffffffffff841683611595565b7f4e487b71000000000000000000000000000000000000000000000000000000005f52601260045260245ffd5b5f826116a2576116a2611667565b500690565b8181038181111561072b5761072b61150f565b5f826116c8576116c8611667565b500490565b67ffffffffffffffff8281168282160390808211156116ee576116ee61150f565b5092915050565b808202811582820484141761072b5761072b61150f565b8082018082111561072b5761072b61150f56fea264697066735822122030afe2e543fd7cea557bc55bb85527b44b0c424e59ae76cf180ef1ab59fcf54064736f6c63430008160033",
    "linkReferences": {}
  },
  "methodIdentifiers": {
    "L1ReadPrecompileAddress_SpotBalance()": "9c719024",
    "L1WritePrecompileAddress()": "55cd1378",
    "VALID_COMPOSE_MESSAGE_LENGTH_ENCODE()": "9278d99a",
    "VALID_COMPOSE_MESSAGE_LENGTH_PACKED()": "807d6c3f",
    "balanceOfHyperCore(address,uint64)": "81e8dcb4",
    "endpoint()": "5e280f11",
    "getHypeAsset()": "aae12e46",
    "getOFTAsset()": "2d0e315c",
    "hypeAsset()": "f6e6b240",
    "oft()": "9b5215f6",
    "oftAsset()": "765008a1",
    "quoteHyperCoreAmount(uint256,bool)": "f9716faf",
    "refundNativeTokens(address)": "8483bc00",
    "refundTokens(bytes)": "aa1a835d",
    "token()": "fc0c546a",
    "validateAndDecodeMessage(bytes)": "233449e7"
  },
  "id": 1
}