{"abi":[{"type":"constructor","inputs":[{"name":"_localEidV2","type":"uint32","internalType":"uint32"},{"name":"_nativeDecimalsRate","type":"uint256","internalType":"uint256"}],"stateMutability":"nonpayable"},{"type":"receive","stateMutability":"payable"},{"type":"function","name":"dstBlockTimeConfigs","inputs":[{"name":"dstEid","type":"uint32","internalType":"uint32"}],"outputs":[{"name":"avgBlockTime","type":"uint32","internalType":"uint32"},{"name":"blockNum","type":"uint64","internalType":"uint64"},{"name":"timestamp","type":"uint64","internalType":"uint64"},{"name":"maxPastRetention","type":"uint32","internalType":"uint32"},{"name":"maxFutureRetention","type":"uint32","internalType":"uint32"}],"stateMutability":"view"},{"type":"function","name":"getCmdFees","inputs":[],"outputs":[{"name":"","type":"uint120","internalType":"uint120"},{"name":"","type":"uint120","internalType":"uint120"},{"name":"","type":"uint16","internalType":"uint16"}],"stateMutability":"view"},{"type":"function","name":"getFee","inputs":[{"name":"_params","type":"tuple","internalType":"struct IDVNFeeLib.FeeParams","components":[{"name":"priceFeed","type":"address","internalType":"address"},{"name":"dstEid","type":"uint32","internalType":"uint32"},{"name":"confirmations","type":"uint64","internalType":"uint64"},{"name":"sender","type":"address","internalType":"address"},{"name":"quorum","type":"uint64","internalType":"uint64"},{"name":"defaultMultiplierBps","type":"uint16","internalType":"uint16"}]},{"name":"_dstConfig","type":"tuple","internalType":"struct IDVN.DstConfig","components":[{"name":"gas","type":"uint64","internalType":"uint64"},{"name":"multiplierBps","type":"uint16","internalType":"uint16"},{"name":"floorMarginUSD","type":"uint128","internalType":"uint128"}]},{"name":"_options","type":"bytes","internalType":"bytes"}],"outputs":[{"name":"","type":"uint256","internalType":"uint256"}],"stateMutability":"view"},{"type":"function","name":"getFee","inputs":[{"name":"_params","type":"tuple","internalType":"struct IDVNFeeLib.FeeParamsForRead","components":[{"name":"priceFeed","type":"address","internalType":"address"},{"name":"sender","type":"address","internalType":"address"},{"name":"quorum","type":"uint64","internalType":"uint64"},{"name":"defaultMultiplierBps","type":"uint16","internalType":"uint16"}]},{"name":"_dstConfig","type":"tuple","internalType":"struct IDVN.DstConfig","components":[{"name":"gas","type":"uint64","internalType":"uint64"},{"name":"multiplierBps","type":"uint16","internalType":"uint16"},{"name":"floorMarginUSD","type":"uint128","internalType":"uint128"}]},{"name":"_cmd","type":"bytes","internalType":"bytes"},{"name":"_options","type":"bytes","internalType":"bytes"}],"outputs":[{"name":"","type":"uint256","internalType":"uint256"}],"stateMutability":"view"},{"type":"function","name":"getFeeOnSend","inputs":[{"name":"_params","type":"tuple","internalType":"struct IDVNFeeLib.FeeParamsForRead","components":[{"name":"priceFeed","type":"address","internalType":"address"},{"name":"sender","type":"address","internalType":"address"},{"name":"quorum","type":"uint64","internalType":"uint64"},{"name":"defaultMultiplierBps","type":"uint16","internalType":"uint16"}]},{"name":"_dstConfig","type":"tuple","internalType":"struct IDVN.DstConfig","components":[{"name":"gas","type":"uint64","internalType":"uint64"},{"name":"multiplierBps","type":"uint16","internalType":"uint16"},{"name":"floorMarginUSD","type":"uint128","internalType":"uint128"}]},{"name":"_cmd","type":"bytes","internalType":"bytes"},{"name":"_options","type":"bytes","internalType":"bytes"}],"outputs":[{"name":"fee","type":"uint256","internalType":"uint256"}],"stateMutability":"payable"},{"type":"function","name":"getFeeOnSend","inputs":[{"name":"_params","type":"tuple","internalType":"struct IDVNFeeLib.FeeParams","components":[{"name":"priceFeed","type":"address","internalType":"address"},{"name":"dstEid","type":"uint32","internalType":"uint32"},{"name":"confirmations","type":"uint64","internalType":"uint64"},{"name":"sender","type":"address","internalType":"address"},{"name":"quorum","type":"uint64","internalType":"uint64"},{"name":"defaultMultiplierBps","type":"uint16","internalType":"uint16"}]},{"name":"_dstConfig","type":"tuple","internalType":"struct IDVN.DstConfig","components":[{"name":"gas","type":"uint64","internalType":"uint64"},{"name":"multiplierBps","type":"uint16","internalType":"uint16"},{"name":"floorMarginUSD","type":"uint128","internalType":"uint128"}]},{"name":"_options","type":"bytes","internalType":"bytes"}],"outputs":[{"name":"","type":"uint256","internalType":"uint256"}],"stateMutability":"payable"},{"type":"function","name":"getSupportedCmdTypes","inputs":[{"name":"_targetEid","type":"uint32","internalType":"uint32"}],"outputs":[{"name":"","type":"uint256","internalType":"BitMap256"}],"stateMutability":"view"},{"type":"function","name":"owner","inputs":[],"outputs":[{"name":"","type":"address","internalType":"address"}],"stateMutability":"view"},{"type":"function","name":"renounceOwnership","inputs":[],"outputs":[],"stateMutability":"nonpayable"},{"type":"function","name":"setCmdFees","inputs":[{"name":"_evmCallRequestV1FeeUSD","type":"uint120","internalType":"uint120"},{"name":"_evmCallComputeV1ReduceFeeUSD","type":"uint120","internalType":"uint120"},{"name":"_evmCallComputeV1MapBps","type":"uint16","internalType":"uint16"}],"outputs":[],"stateMutability":"nonpayable"},{"type":"function","name":"setDstBlockTimeConfigs","inputs":[{"name":"dstEids","type":"uint32[]","internalType":"uint32[]"},{"name":"_blockConfigs","type":"tuple[]","internalType":"struct DVNFeeLibMock.BlockTimeConfig[]","components":[{"name":"avgBlockTime","type":"uint32","internalType":"uint32"},{"name":"blockNum","type":"uint64","internalType":"uint64"},{"name":"timestamp","type":"uint64","internalType":"uint64"},{"name":"maxPastRetention","type":"uint32","internalType":"uint32"},{"name":"maxFutureRetention","type":"uint32","internalType":"uint32"}]}],"outputs":[],"stateMutability":"nonpayable"},{"type":"function","name":"setSupportedCmdTypes","inputs":[{"name":"_params","type":"tuple[]","internalType":"struct DVNFeeLibMock.SetSupportedCmdTypesParam[]","components":[{"name":"targetEid","type":"uint32","internalType":"uint32"},{"name":"types","type":"uint256","internalType":"BitMap256"}]}],"outputs":[],"stateMutability":"nonpayable"},{"type":"function","name":"transferOwnership","inputs":[{"name":"newOwner","type":"address","internalType":"address"}],"outputs":[],"stateMutability":"nonpayable"},{"type":"function","name":"version","inputs":[],"outputs":[{"name":"major","type":"uint64","internalType":"uint64"},{"name":"minor","type":"uint8","internalType":"uint8"}],"stateMutability":"pure"},{"type":"function","name":"withdrawToken","inputs":[{"name":"_token","type":"address","internalType":"address"},{"name":"_to","type":"address","internalType":"address"},{"name":"_amount","type":"uint256","internalType":"uint256"}],"outputs":[],"stateMutability":"nonpayable"},{"type":"event","name":"OwnershipTransferred","inputs":[{"name":"previousOwner","type":"address","indexed":true,"internalType":"address"},{"name":"newOwner","type":"address","indexed":true,"internalType":"address"}],"anonymous":false},{"type":"error","name":"DVN_EidNotSupported","inputs":[{"name":"eid","type":"uint32","internalType":"uint32"}]},{"type":"error","name":"DVN_INVALID_INPUT_LENGTH","inputs":[]},{"type":"error","name":"DVN_InvalidDVNOptions","inputs":[{"name":"cursor","type":"uint256","internalType":"uint256"}]},{"type":"error","name":"DVN_TimestampOutOfRange","inputs":[{"name":"eid","type":"uint32","internalType":"uint32"},{"name":"timestamp","type":"uint64","internalType":"uint64"}]},{"type":"error","name":"DVN_UnsupportedOptionType","inputs":[{"name":"optionType","type":"uint8","internalType":"uint8"}]},{"type":"error","name":"InvalidCmd","inputs":[]},{"type":"error","name":"InvalidType","inputs":[]},{"type":"error","name":"InvalidVersion","inputs":[]},{"type":"error","name":"OwnableInvalidOwner","inputs":[{"name":"owner","type":"address","internalType":"address"}]},{"type":"error","name":"OwnableUnauthorizedAccount","inputs":[{"name":"account","type":"address","internalType":"address"}]},{"type":"error","name":"SafeERC20FailedOperation","inputs":[{"name":"token","type":"address","internalType":"address"}]},{"type":"error","name":"Transfer_NativeFailed","inputs":[{"name":"_to","type":"address","internalType":"address"},{"name":"_value","type":"uint256","internalType":"uint256"}]},{"type":"error","name":"Transfer_ToAddressIsZero","inputs":[]},{"type":"error","name":"UnsupportedTargetEid","inputs":[]}],"bytecode":{"object":"0x60c060405234801562000010575f80fd5b5060405162002470380380620024708339810160408190526200003391620000c8565b33806200005957604051631e4fbdf760e01b81525f600482015260240160405180910390fd5b620000648162000079565b5063ffffffff90911660a052608052620000fe565b5f80546001600160a01b038381166001600160a01b0319831681178455604051919092169283917f8be0079c531659141344cd1fd0a4f28419497f9722a3daafe3b4186f6b6457e09190a35050565b5f8060408385031215620000da575f80fd5b825163ffffffff81168114620000ee575f80fd5b6020939093015192949293505050565b60805160a0516123426200012e5f395f81816107ac015261082601525f81816109120152610cb901526123425ff3fe6080604052600436106100e7575f3560e01c80638da5cb5b11610087578063de0a93c311610057578063de0a93c314610322578063df2b057e14610396578063f2fde38b146103a9578063f5ff608f146103c8575f80fd5b80638da5cb5b1461029e5780639ac23d28146102d1578063bbc5a33b146102f0578063d358b30014610303575f80fd5b806339f26dfc116100c257806339f26dfc1461022c57806354fd4d501461024b578063715018a61461026b5780637bfa20a91461027f575f80fd5b806301e33667146100f257806310b65f76146101135780632565c24514610157575f80fd5b366100ee57005b5f80fd5b3480156100fd575f80fd5b5061011161010c366004611a78565b6103e7565b005b34801561011e575f80fd5b5061014461012d366004611ac2565b63ffffffff165f9081526001602052604090205490565b6040519081526020015b60405180910390f35b348015610162575f80fd5b506101ec610171366004611ac2565b60036020525f908152604090205463ffffffff8082169167ffffffffffffffff64010000000082048116926c0100000000000000000000000083049091169174010000000000000000000000000000000000000000810482169178010000000000000000000000000000000000000000000000009091041685565b6040805163ffffffff968716815267ffffffffffffffff95861660208201529390941693830193909352831660608201529116608082015260a00161014e565b348015610237575f80fd5b50610111610246366004611b13565b6103ff565b348015610256575f80fd5b5060408051600180825260208201520161014e565b348015610276575f80fd5b506101116104af565b34801561028a575f80fd5b50610144610299366004611bae565b6104c2565b3480156102a9575f80fd5b505f5460405173ffffffffffffffffffffffffffffffffffffffff909116815260200161014e565b3480156102dc575f80fd5b506101116102eb366004611c15565b61068a565b6101446102fe366004611cd2565b610747565b34801561030e575f80fd5b5061014461031d366004611cd2565b610761565b34801561032d575f80fd5b50600254604080516effffffffffffffffffffffffffffff80841682526f0100000000000000000000000000000084041660208201527e0100000000000000000000000000000000000000000000000000000000000090920461ffff169082015260600161014e565b6101446103a4366004611bae565b61099c565b3480156103b4575f80fd5b506101116103c3366004611d67565b6109b2565b3480156103d3575f80fd5b506101116103e2366004611d80565b610a15565b6103ef610a8e565b6103fa838383610ae0565b505050565b610407610a8e565b6002805461ffff9092167e01000000000000000000000000000000000000000000000000000000000000027dffffffffffffffffffffffffffffffffffffffffffffffffffffffffffff6effffffffffffffffffffffffffffff9485166f01000000000000000000000000000000027fffff00000000000000000000000000000000000000000000000000000000000090941694909516939093179190911792909216179055565b6104b7610a8e565b6104c05f610b10565b565b5f6104d06020850185611e04565b67ffffffffffffffff165f03610530576104f06040860160208701611ac2565b6040517fd009138a00000000000000000000000000000000000000000000000000000000815263ffffffff90911660048201526024015b60405180910390fd5b61053a8383610b84565b505f61055e61054f60a0880160808901611e04565b67ffffffffffffffff16610c25565b90505f8061056f6020890189611d67565b73ffffffffffffffffffffffffffffffffffffffff166388a4124c61059a60408b0160208c01611ac2565b856105a860208c018c611e04565b6040517fffffffff0000000000000000000000000000000000000000000000000000000060e086901b16815263ffffffff939093166004840152602483019190915267ffffffffffffffff166044820152606401608060405180830381865afa158015610617573d5f803e3d5ffd5b505050506040513d601f19601f8201168201806040525081019061063b9190611e3c565b93505050915061067e828860200160208101906106589190611e8e565b61066860c08c0160a08d01611e8e565b61067860608c0160408d01611ea7565b85610c32565b98975050505050505050565b610692610a8e565b8281146106cb576040517fb54ecc3800000000000000000000000000000000000000000000000000000000815260040160405180910390fd5b5f5b83811015610740578282828181106106e7576106e7611ec2565b905060a0020160035f87878581811061070257610702611ec2565b90506020020160208101906107179190611ac2565b63ffffffff16815260208101919091526040015f206107368282611efb565b50506001016106cd565b5050505050565b5f610756878787878787610761565b979650505050505050565b5f61076f6020870187611e04565b67ffffffffffffffff165f036107d9576040517fd009138a00000000000000000000000000000000000000000000000000000000815263ffffffff7f0000000000000000000000000000000000000000000000000000000000000000166004820152602401610527565b6107e38383610b84565b505f6107f861054f60608a0160408b01611e04565b90505f8061080960208b018b611d67565b73ffffffffffffffffffffffffffffffffffffffff166388a4124c7f00000000000000000000000000000000000000000000000000000000000000008561085360208e018e611e04565b6040517fffffffff0000000000000000000000000000000000000000000000000000000060e086901b16815263ffffffff939093166004840152602483019190915267ffffffffffffffff166044820152606401608060405180830381865afa1580156108c2573d5f803e3d5ffd5b505050506040513d601f19601f820116820180604052508101906108e69190611e3c565b9350505091505f6108f78989610d27565b90505f6fffffffffffffffffffffffffffffffff83166109377f0000000000000000000000000000000000000000000000000000000000000000846120c4565b6109419190612108565b905061098c610950828661211b565b61096060408e0160208f01611e8e565b8e60600160208101906109739190611e8e565b8e60400160208101906109869190611ea7565b87610c32565b9c9b505050505050505050505050565b5f6109a9858585856104c2565b95945050505050565b6109ba610a8e565b73ffffffffffffffffffffffffffffffffffffffff8116610a09576040517f1e4fbdf70000000000000000000000000000000000000000000000000000000081525f6004820152602401610527565b610a1281610b10565b50565b610a1d610a8e565b5f5b818110156103fa57828282818110610a3957610a39611ec2565b9050604002016020013560015f015f858585818110610a5a57610a5a611ec2565b610a709260206040909202019081019150611ac2565b63ffffffff16815260208101919091526040015f2055600101610a1f565b5f5473ffffffffffffffffffffffffffffffffffffffff1633146104c0576040517f118cdaa7000000000000000000000000000000000000000000000000000000008152336004820152602401610527565b73ffffffffffffffffffffffffffffffffffffffff8316610b05576103fa8282610e0f565b6103fa838383610f11565b5f805473ffffffffffffffffffffffffffffffffffffffff8381167fffffffffffffffffffffffff0000000000000000000000000000000000000000831681178455604051919092169283917f8be0079c531659141344cd1fd0a4f28419497f9722a3daafe3b4186f6b6457e09190a35050565b5f808215610bde575f80610b99868685610f7f565b6040517f7085244b00000000000000000000000000000000000000000000000000000000815260ff851660048201529096509294508593505060249091019050610527565b808314610c1a576040517f04eb6e0c00000000000000000000000000000000000000000000000000000000815260048101829052602401610527565b5f9150505b92915050565b5f610c1f82610120610fd8565b5f8061ffff861615610c445785610c46565b845b90505f612710610c5a61ffff84168a6120c4565b610c649190612108565b90506fffffffffffffffffffffffffffffffff84161580610c9557506fffffffffffffffffffffffffffffffff8516155b15610ca35791506109a99050565b5f846fffffffffffffffffffffffffffffffff167f0000000000000000000000000000000000000000000000000000000000000000876fffffffffffffffffffffffffffffffff16610cf591906120c4565b610cff9190612108565b610d09908a61211b565b9050818111610d185781610d1a565b805b9998505050505050505050565b5f80610d36848461103c61124b565b6002548151919250610d5f916effffffffffffffffffffffffffffff9091169061ffff1661212e565b6effffffffffffffffffffffffffffff169150806020015115610dca5760025461271090610db3907e01000000000000000000000000000000000000000000000000000000000000900461ffff16846120c4565b610dbd9190612108565b610dc7908361211b565b91505b806040015115610e0857600254610e05906f0100000000000000000000000000000090046effffffffffffffffffffffffffffff168361211b565b91505b5092915050565b73ffffffffffffffffffffffffffffffffffffffff8216610e5c576040517f6b7a931000000000000000000000000000000000000000000000000000000000815260040160405180910390fd5b5f8273ffffffffffffffffffffffffffffffffffffffff16826040515f6040518083038185875af1925050503d805f8114610eb2576040519150601f19603f3d011682016040523d82523d5f602084013e610eb7565b606091505b50509050806103fa576040517f465bc83400000000000000000000000000000000000000000000000000000000815273ffffffffffffffffffffffffffffffffffffffff8416600482015260248101839052604401610527565b73ffffffffffffffffffffffffffffffffffffffff8216610f5e576040517f6b7a931000000000000000000000000000000000000000000000000000000000815260040160405180910390fd5b6103fa73ffffffffffffffffffffffffffffffffffffffff8416838361185d565b5f36816001840181610f928888846118ea565b6002830192909150610faa9089908990600301611910565b94506002820161ffff82168301610fc381838b8d612161565b979b909a50969850505061ffff160193505050565b5f80610fe56041856120c4565b9050610ff2602082612188565b1561101a57611002602082612188565b61100c908261219b565b61101790602061211b565b90505b806110278461010461211b565b611031919061211b565b610e0590602061211b565b61104860018583611934565b6110556001856002611975565b156112455763ffffffff8085165f90815260036020908152604091829020825160a0810184529054808516825267ffffffffffffffff64010000000082048116938301939093526c01000000000000000000000000810490921692810192909252740100000000000000000000000000000000000000008104831660608301527801000000000000000000000000000000000000000000000000900490911660808201528284156111a957816020015167ffffffffffffffff168467ffffffffffffffff16111561116657815160208301516103e89163ffffffff169061113c90876121ae565b61114691906121cf565b61115091906121f3565b826040015161115f9190612219565b90506111a9565b6103e8825f015163ffffffff1685846020015161118391906121ae565b61118d91906121cf565b61119791906121f3565b82604001516111a691906121ae565b90505b42826060015163ffffffff16826111c09190612219565b67ffffffffffffffff1610806111f3575060808201516111e69063ffffffff164261211b565b8167ffffffffffffffff16115b15611242576040517f0c5a8d2300000000000000000000000000000000000000000000000000000000815263ffffffff8716600482015267ffffffffffffffff82166024820152604401610527565b50505b50505050565b604080516060810182525f80825260208201819052918101829052908085818661127682600261211b565b9261128393929190612161565b61128c9161223a565b60f01c905061129c60028361211b565b915061ffff81166001146112dc576040517fa9146eeb00000000000000000000000000000000000000000000000000000000815260040160405180910390fd5b6112e760028361211b565b91505f8683876112f882600261211b565b9261130593929190612161565b61130e9161223a565b60f01c905061131e60028461211b565b92508061ffff165f0361135d576040517f87a7f37900000000000000000000000000000000000000000000000000000000815260040160405180910390fd5b61ffff168352505f5b825f015161ffff168161ffff1610156115c6575f86868481811061138c5761138c611ec2565b919091013560f81c91506113a3905060018461211b565b925060ff81166001146113e2576040517fa9146eeb00000000000000000000000000000000000000000000000000000000815260040160405180910390fd5b6113ed60028461211b565b92505f8784886113fe82600261211b565b9261140b93929190612161565b6114149161223a565b60f01c905061142460028561211b565b93507fffffffffffffffffffffffffffffffffffffffffffffffffffffffffffffffff61ffff82160161158a575f88858961146082600261211b565b9261146d93929190612161565b6114769161223a565b60f01c905061148660028661211b565b9450845f8a828b61149882600461211b565b926114a593929190612161565b6114ae91612280565b60e01c90506114be60048361211b565b91505f8b8b848181106114d3576114d3611ec2565b600192013560f81c821492506114eb9190508461211b565b92505f8c848d6114fc82600861211b565b9261150993929190612161565b611512916122c6565b60c01c90506115278383835f8f63ffffffff16565b508a925061153c91505061ffff83168761211b565b1115611574576040517f87a7f37900000000000000000000000000000000000000000000000000000000815260040160405180910390fd5b61158261ffff82168661211b565b9450506115bc565b6040517fb968846100000000000000000000000000000000000000000000000000000000815260040160405180910390fd5b5050600101611366565b508381101561181c575f8585838181106115e2576115e2611ec2565b919091013560f81c91506115f9905060018361211b565b915060ff8116600114611638576040517fa9146eeb00000000000000000000000000000000000000000000000000000000815260040160405180910390fd5b5f86838761164782600261211b565b9261165493929190612161565b61165d9161223a565b60f01c905061166d60028461211b565b925061ffff81166001146116ad576040517fb968846100000000000000000000000000000000000000000000000000000000815260040160405180910390fd5b5f8787858181106116c0576116c0611ec2565b919091013560f81c91506116d7905060018561211b565b935060ff81166116ed576001602086015261175c565b7fffffffffffffffffffffffffffffffffffffffffffffffffffffffffffffffff60ff821601611723576001604086015261175c565b7ffffffffffffffffffffffffffffffffffffffffffffffffffffffffffffffffe60ff82160161158a5760016020860181905260408601525b5f88858961176b82600461211b565b9261177893929190612161565b61178191612280565b60e01c905061179160048661211b565b94505f8989878181106117a6576117a6611ec2565b600192013560f81c821492506117be9190508761211b565b95505f8a878b6117cf82600861211b565b926117dc93929190612161565b6117e5916122c6565b60c01c90506117f560088861211b565b965061180883838360018d63ffffffff16565b61181360168861211b565b96505050505050505b808414611855576040517f87a7f37900000000000000000000000000000000000000000000000000000000815260040160405180910390fd5b509392505050565b6040805173ffffffffffffffffffffffffffffffffffffffff8416602482015260448082018490528251808303909101815260649091019091526020810180517bffffffffffffffffffffffffffffffffffffffffffffffffffffffff167fa9059cbb000000000000000000000000000000000000000000000000000000001790526103fa9084906119a2565b5f600282016118fb81848688612161565b6119049161223a565b60f01c95945050505050565b5f83838381811061192357611923611ec2565b919091013560f81c95945050505050565b61193f838383611975565b6103fa576040517f50fae9eb00000000000000000000000000000000000000000000000000000000815260040160405180910390fd5b63ffffffff8083165f90815260208590526040812054909161199a91908490611a4116565b949350505050565b5f8060205f8451602086015f885af1806119c1576040513d5f823e3d81fd5b50505f513d915081156119d85780600114156119f2565b73ffffffffffffffffffffffffffffffffffffffff84163b155b15611245576040517f5274afe700000000000000000000000000000000000000000000000000000000815273ffffffffffffffffffffffffffffffffffffffff85166004820152602401610527565b600160ff919091161b16151590565b803573ffffffffffffffffffffffffffffffffffffffff81168114611a73575f80fd5b919050565b5f805f60608486031215611a8a575f80fd5b611a9384611a50565b9250611aa160208501611a50565b9150604084013590509250925092565b63ffffffff81168114610a12575f80fd5b5f60208284031215611ad2575f80fd5b8135611add81611ab1565b9392505050565b80356effffffffffffffffffffffffffffff81168114611a73575f80fd5b803561ffff81168114611a73575f80fd5b5f805f60608486031215611b25575f80fd5b611b2e84611ae4565b9250611b3c60208501611ae4565b9150611b4a60408501611b02565b90509250925092565b5f60608284031215611b63575f80fd5b50919050565b5f8083601f840112611b79575f80fd5b50813567ffffffffffffffff811115611b90575f80fd5b602083019150836020828501011115611ba7575f80fd5b9250929050565b5f805f80848603610140811215611bc3575f80fd5b60c0811215611bd0575f80fd5b50849350611be18660c08701611b53565b925061012085013567ffffffffffffffff811115611bfd575f80fd5b611c0987828801611b69565b95989497509550505050565b5f805f8060408587031215611c28575f80fd5b843567ffffffffffffffff80821115611c3f575f80fd5b818701915087601f830112611c52575f80fd5b813581811115611c60575f80fd5b8860208260051b8501011115611c74575f80fd5b602092830196509450908601359080821115611c8e575f80fd5b818701915087601f830112611ca1575f80fd5b813581811115611caf575f80fd5b88602060a083028501011115611cc3575f80fd5b95989497505060200194505050565b5f805f805f80868803610120811215611ce9575f80fd5b6080811215611cf6575f80fd5b50869550611d078860808901611b53565b945060e087013567ffffffffffffffff80821115611d23575f80fd5b611d2f8a838b01611b69565b9096509450610100890135915080821115611d48575f80fd5b50611d5589828a01611b69565b979a9699509497509295939492505050565b5f60208284031215611d77575f80fd5b611add82611a50565b5f8060208385031215611d91575f80fd5b823567ffffffffffffffff80821115611da8575f80fd5b818501915085601f830112611dbb575f80fd5b813581811115611dc9575f80fd5b8660208260061b8501011115611ddd575f80fd5b60209290920196919550909350505050565b67ffffffffffffffff81168114610a12575f80fd5b5f60208284031215611e14575f80fd5b8135611add81611def565b6fffffffffffffffffffffffffffffffff81168114610a12575f80fd5b5f805f8060808587031215611e4f575f80fd5b845193506020850151611e6181611e1f565b6040860151909350611e7281611e1f565b6060860151909250611e8381611e1f565b939692955090935050565b5f60208284031215611e9e575f80fd5b611add82611b02565b5f60208284031215611eb7575f80fd5b8135611add81611e1f565b7f4e487b71000000000000000000000000000000000000000000000000000000005f52603260045260245ffd5b5f8135610c1f81611ab1565b8135611f0681611ab1565b63ffffffff811690508154817fffffffffffffffffffffffffffffffffffffffffffffffffffffffff0000000082161783556020840135611f4681611def565b6bffffffffffffffff000000008160201b16905080837fffffffffffffffffffffffffffffffffffffffff0000000000000000000000008416171784556040850135611f9181611def565b73ffffffffffffffff0000000000000000000000008160601b169050837fffffffffffffffffffffffff000000000000000000000000000000000000000084161793508084831717855560608601359250611feb83611ab1565b77ffffffff00000000000000000000000000000000000000008360a01b167fffffffffffffffff00000000ffffffffffffffffffffffffffffffffffffffff8516831782171785555050505061209361204660808401611eef565b82547fffffffff00000000ffffffffffffffffffffffffffffffffffffffffffffffff1660c09190911b7bffffffff00000000000000000000000000000000000000000000000016178255565b5050565b7f4e487b71000000000000000000000000000000000000000000000000000000005f52601160045260245ffd5b8082028115828204841417610c1f57610c1f612097565b7f4e487b71000000000000000000000000000000000000000000000000000000005f52601260045260245ffd5b5f82612116576121166120db565b500490565b80820180821115610c1f57610c1f612097565b6effffffffffffffffffffffffffffff81811683821602808216919082811461215957612159612097565b505092915050565b5f808585111561216f575f80fd5b8386111561217b575f80fd5b5050820193919092039150565b5f82612196576121966120db565b500690565b81810381811115610c1f57610c1f612097565b67ffffffffffffffff828116828216039080821115610e0857610e08612097565b67ffffffffffffffff81811683821602808216919082811461215957612159612097565b5f67ffffffffffffffff8084168061220d5761220d6120db565b92169190910492915050565b67ffffffffffffffff818116838216019080821115610e0857610e08612097565b7fffff00000000000000000000000000000000000000000000000000000000000081358181169160028510156121595760029490940360031b84901b1690921692915050565b7fffffffff0000000000000000000000000000000000000000000000000000000081358181169160048510156121595760049490940360031b84901b1690921692915050565b7fffffffffffffffff00000000000000000000000000000000000000000000000081358181169160088510156121595760089490940360031b84901b169092169291505056fea264697066735822122008aaf96fb2128d1ae3e353ad1d5bf3cfe6f31e71a3d9590a318f37d1ddf97a2064736f6c63430008160033","linkReferences":{}},"methodIdentifiers":{"dstBlockTimeConfigs(uint32)":"2565c245","getCmdFees()":"de0a93c3","getFee((address,address,uint64,uint16),(uint64,uint16,uint128),bytes,bytes)":"d358b300","getFee((address,uint32,uint64,address,uint64,uint16),(uint64,uint16,uint128),bytes)":"7bfa20a9","getFeeOnSend((address,address,uint64,uint16),(uint64,uint16,uint128),bytes,bytes)":"bbc5a33b","getFeeOnSend((address,uint32,uint64,address,uint64,uint16),(uint64,uint16,uint128),bytes)":"df2b057e","getSupportedCmdTypes(uint32)":"10b65f76","owner()":"8da5cb5b","renounceOwnership()":"715018a6","setCmdFees(uint120,uint120,uint16)":"39f26dfc","setDstBlockTimeConfigs(uint32[],(uint32,uint64,uint64,uint32,uint32)[])":"9ac23d28","setSupportedCmdTypes((uint32,uint256)[])":"f5ff608f","transferOwnership(address)":"f2fde38b","version()":"54fd4d50","withdrawToken(address,address,uint256)":"01e33667"},"id":85}