{
  "abi": [
    {
      "type": "function",
      "name": "inspect",
      "inputs": [
        {
          "name": "_message",
          "type": "bytes",
          "internalType": "bytes"
        },
        {
          "name": "_options",
          "type": "bytes",
          "internalType": "bytes"
        }
      ],
      "outputs": [
        {
          "name": "",
          "type": "bool",
          "internalType": "bool"
        }
      ],
      "stateMutability": "pure"
    },
    {
      "type": "error",
      "name": "InspectionFailed",
      "inputs": [
        {
          "name": "message",
          "type": "bytes",
          "internalType": "bytes"
        },
        {
          "name": "options",
          "type": "bytes",
          "internalType": "bytes"
        }
      ]
    }
  ],
  "bytecode": {
    "object": "0x608060405234801561001057600080fd5b50610202806100206000396000f3fe608060405234801561001057600080fd5b506004361061002b5760003560e01c8063043a78eb14610030575b600080fd5b61004361003e3660046100e5565b610057565b604051901515815260200160405180910390f35b6000848484846040517f7b43b439000000000000000000000000000000000000000000000000000000008152600401610093949392919061019a565b60405180910390fd5b60008083601f8401126100ae57600080fd5b50813567ffffffffffffffff8111156100c657600080fd5b6020830191508360208285010111156100de57600080fd5b9250929050565b600080600080604085870312156100fb57600080fd5b843567ffffffffffffffff8082111561011357600080fd5b61011f8883890161009c565b9096509450602087013591508082111561013857600080fd5b506101458782880161009c565b95989497509550505050565b8183528181602085013750600060208284010152600060207fffffffffffffffffffffffffffffffffffffffffffffffffffffffffffffffe0601f840116840101905092915050565b6040815260006101ae604083018688610151565b82810360208401526101c1818587610151565b97965050505050505056fea264697066735822122013e0f689e67b03593653c2ffbab9f22529ce970d0b8c5f6ca2d6dcf1efeba0a564736f6c63430008140033",
    "linkReferences": {}
  },
  "methodIdentifiers": {
    "inspect(bytes,bytes)": "043a78eb"
  },
  "id": 138
}