{
  "abi": [
    {
      "type": "constructor",
      "inputs": [
        {
          "name": "_endpoint",
          "type": "address",
          "internalType": "address"
        },
        {
          "name": "_oft",
          "type": "address",
          "internalType": "address"
        },
        {
          "name": "_coreIndexId",
          "type": "uint256",
          "internalType": "uint256"
        }
      ],
      "stateMutability": "nonpayable"
    },
    {
      "type": "function",
      "name": "HL_NATIVE_TRANSFER",
      "inputs": [],
      "outputs": [
        {
          "name": "",
          "type": "address",
          "internalType": "address"
        }
      ],
      "stateMutability": "view"
    },
    {
      "type": "function",
      "name": "HL_NATIVE_TRANSFER_CORE_INDEX_ID",
      "inputs": [],
      "outputs": [
        {
          "name": "",
          "type": "uint256",
          "internalType": "uint256"
        }
      ],
      "stateMutability": "view"
    },
    {
      "type": "function",
      "name": "endpoint",
      "inputs": [],
      "outputs": [
        {
          "name": "",
          "type": "address",
          "internalType": "address"
        }
      ],
      "stateMutability": "view"
    },
    {
      "type": "function",
      "name": "hyperliquidHopTransferableToken",
      "inputs": [],
      "outputs": [
        {
          "name": "",
          "type": "address",
          "internalType": "contract IERC20HyperliquidHopTransferable"
        }
      ],
      "stateMutability": "view"
    },
    {
      "type": "function",
      "name": "lzCompose",
      "inputs": [
        {
          "name": "_oft",
          "type": "address",
          "internalType": "address"
        },
        {
          "name": "",
          "type": "bytes32",
          "internalType": "bytes32"
        },
        {
          "name": "_message",
          "type": "bytes",
          "internalType": "bytes"
        },
        {
          "name": "",
          "type": "address",
          "internalType": "address"
        },
        {
          "name": "",
          "type": "bytes",
          "internalType": "bytes"
        }
      ],
      "outputs": [],
      "stateMutability": "payable"
    },
    {
      "type": "function",
      "name": "oft",
      "inputs": [],
      "outputs": [
        {
          "name": "",
          "type": "address",
          "internalType": "address"
        }
      ],
      "stateMutability": "view"
    },
    {
      "type": "error",
      "name": "HyperLiquidComposer_Codec_InvalidMessage_UnexpectedLength",
      "inputs": [
        {
          "name": "message",
          "type": "bytes",
          "internalType": "bytes"
        },
        {
          "name": "length",
          "type": "uint256",
          "internalType": "uint256"
        }
      ]
    },
    {
      "type": "error",
      "name": "HyperLiquidComposer_InvalidCall_NotEndpoint",
      "inputs": [
        {
          "name": "_notEndpointAddress",
          "type": "address",
          "internalType": "address"
        }
      ]
    },
    {
      "type": "error",
      "name": "HyperLiquidComposer_InvalidCall_NotOFT",
      "inputs": [
        {
          "name": "_internalOFTAddress",
          "type": "address",
          "internalType": "address"
        },
        {
          "name": "_receivedOFTAddress",
          "type": "address",
          "internalType": "address"
        }
      ]
    },
    {
      "type": "error",
      "name": "HyperLiquidComposer_InvalidCall_TokenDoesNotSupportExtension",
      "inputs": [
        {
          "name": "_oft",
          "type": "address",
          "internalType": "address"
        },
        {
          "name": "_token",
          "type": "address",
          "internalType": "address"
        }
      ]
    }
  ],
  "bytecode": {
    "object": "0x610120604052348015610010575f80fd5b5060405161099b38038061099b83398101604081905261002f91610197565b816001600160a01b031663fc0c546a6040518163ffffffff1660e01b8152600401602060405180830381865afa15801561006b573d5f803e3d5ffd5b505050506040513d601f19601f8201168201806040525081019061008f91906101d0565b6001600160a01b0316610100819052604080516367ddeba960e01b815290516367ddeba9916004808201926020929091908290030181865afa1580156100d7573d5f803e3d5ffd5b505050506040513d601f19601f820116820180604052508101906100fb91906101f0565b610134576101005160405163db9a4c6b60e01b81526001600160a01b038085166004830152909116602482015260440160405180910390fd5b6001600160a01b0380841660c052821660e05261015081610167565b6001600160a01b031660805260a0525061022e9050565b5f610176826001609d1b61020f565b92915050565b80516001600160a01b0381168114610192575f80fd5b919050565b5f805f606084860312156101a9575f80fd5b6101b28461017c565b92506101c06020850161017c565b9150604084015190509250925092565b5f602082840312156101e0575f80fd5b6101e98261017c565b9392505050565b5f60208284031215610200575f80fd5b815180151581146101e9575f80fd5b8082018082111561017657634e487b7160e01b5f52601160045260245ffd5b60805160a05160c05160e0516101005161070f61028c5f395f8181610191015261037401525f81816101080152818161024201526102b901525f818160d501526101cb01525f61013b01525f81816078015261033f015261070f5ff3fe608060405260043610610063575f3560e01c8063a73736ba11610041578063a73736ba1461012a578063d0a102601461016b578063d215954714610180575f80fd5b806356d5e2e5146100675780635e280f11146100c45780639b5215f6146100f7575b5f80fd5b348015610072575f80fd5b5061009a7f000000000000000000000000000000000000000000000000000000000000000081565b60405173ffffffffffffffffffffffffffffffffffffffff90911681526020015b60405180910390f35b3480156100cf575f80fd5b5061009a7f000000000000000000000000000000000000000000000000000000000000000081565b348015610102575f80fd5b5061009a7f000000000000000000000000000000000000000000000000000000000000000081565b348015610135575f80fd5b5061015d7f000000000000000000000000000000000000000000000000000000000000000081565b6040519081526020016100bb565b61017e610179366004610520565b6101b3565b005b34801561018b575f80fd5b5061009a7f000000000000000000000000000000000000000000000000000000000000000081565b3373ffffffffffffffffffffffffffffffffffffffff7f00000000000000000000000000000000000000000000000000000000000000001614610229576040517feee35e6f0000000000000000000000000000000000000000000000000000000081523360048201526024015b60405180910390fd5b8673ffffffffffffffffffffffffffffffffffffffff167f000000000000000000000000000000000000000000000000000000000000000073ffffffffffffffffffffffffffffffffffffffff16146102ee576040517f86fee0c000000000000000000000000000000000000000000000000000000000815273ffffffffffffffffffffffffffffffffffffffff7f00000000000000000000000000000000000000000000000000000000000000008116600483015288166024820152604401610220565b5f806102fa87876103d8565b6040517fb034fd0700000000000000000000000000000000000000000000000000000000815273ffffffffffffffffffffffffffffffffffffffff80841660048301527f000000000000000000000000000000000000000000000000000000000000000081166024830152604482018390529294509092507f00000000000000000000000000000000000000000000000000000000000000009091169063b034fd07906064015f604051808303815f87803b1580156103b7575f80fd5b505af11580156103c9573d5f803e3d5ffd5b50505050505050505050505050565b5f805f6103e58585610448565b905060148151146104265780516040517f09b347310000000000000000000000000000000000000000000000000000000081526102209183916004016105b7565b61042f81610627565b60601c925061043e8585610494565b9150509250929050565b606061045782604c8186610676565b8080601f0160208091040260200160405190810160405280939291908181526020018383808284375f920191909152509293505050505b92915050565b5f6104a3602c600c8486610676565b6104ac9161069d565b9392505050565b803573ffffffffffffffffffffffffffffffffffffffff811681146104d6575f80fd5b919050565b5f8083601f8401126104eb575f80fd5b50813567ffffffffffffffff811115610502575f80fd5b602083019150836020828501011115610519575f80fd5b9250929050565b5f805f805f805f60a0888a031215610536575f80fd5b61053f886104b3565b965060208801359550604088013567ffffffffffffffff80821115610562575f80fd5b61056e8b838c016104db565b909750955085915061058260608b016104b3565b945060808a0135915080821115610597575f80fd5b506105a48a828b016104db565b989b979a50959850939692959293505050565b604081525f83518060408401525f5b818110156105e357602081870181015160608684010152016105c6565b505f6060828501015260607fffffffffffffffffffffffffffffffffffffffffffffffffffffffffffffffe0601f8301168401019150508260208301529392505050565b5f815160208301517fffffffffffffffffffffffffffffffffffffffff0000000000000000000000008082169350601483101561066e5780818460140360031b1b83161693505b505050919050565b5f8085851115610684575f80fd5b83861115610690575f80fd5b5050820193919092039150565b8035602083101561048e577fffffffffffffffffffffffffffffffffffffffffffffffffffffffffffffffff602084900360031b1b169291505056fea2646970667358221220c646b5c124014b23f09aeb131f3dee42a6f06343a9074ca4d5d501bf60ad9f0964736f6c63430008160033",
    "linkReferences": {}
  },
  "methodIdentifiers": {
    "HL_NATIVE_TRANSFER()": "56d5e2e5",
    "HL_NATIVE_TRANSFER_CORE_INDEX_ID()": "a73736ba",
    "endpoint()": "5e280f11",
    "hyperliquidHopTransferableToken()": "d2159547",
    "lzCompose(address,bytes32,bytes,address,bytes)": "d0a10260",
    "oft()": "9b5215f6"
  },
  "id": 1
}