{
  "abi": [
    {
      "type": "constructor",
      "inputs": [
        {
          "name": "_endpoint",
          "type": "address",
          "internalType": "address"
        },
        {
          "name": "_oft",
          "type": "address",
          "internalType": "address"
        },
        {
          "name": "_coreIndexId",
          "type": "uint64",
          "internalType": "uint64"
        },
        {
          "name": "_weiDiff",
          "type": "uint64",
          "internalType": "uint64"
        }
      ],
      "stateMutability": "nonpayable"
    },
    {
      "type": "receive",
      "stateMutability": "payable"
    },
    {
      "type": "function",
      "name": "L1WritePrecompileAddress",
      "inputs": [],
      "outputs": [
        {
          "name": "",
          "type": "address",
          "internalType": "address"
        }
      ],
      "stateMutability": "view"
    },
    {
      "type": "function",
      "name": "endpoint",
      "inputs": [],
      "outputs": [
        {
          "name": "",
          "type": "address",
          "internalType": "address"
        }
      ],
      "stateMutability": "view"
    },
    {
      "type": "function",
      "name": "getHypeAsset",
      "inputs": [],
      "outputs": [
        {
          "name": "",
          "type": "tuple",
          "internalType": "struct HyperAsset",
          "components": [
            {
              "name": "assetBridgeAddress",
              "type": "address",
              "internalType": "address"
            },
            {
              "name": "coreIndexId",
              "type": "uint64",
              "internalType": "uint64"
            },
            {
              "name": "decimalDiff",
              "type": "uint64",
              "internalType": "uint64"
            }
          ]
        }
      ],
      "stateMutability": "view"
    },
    {
      "type": "function",
      "name": "getOFTAsset",
      "inputs": [],
      "outputs": [
        {
          "name": "",
          "type": "tuple",
          "internalType": "struct HyperAsset",
          "components": [
            {
              "name": "assetBridgeAddress",
              "type": "address",
              "internalType": "address"
            },
            {
              "name": "coreIndexId",
              "type": "uint64",
              "internalType": "uint64"
            },
            {
              "name": "decimalDiff",
              "type": "uint64",
              "internalType": "uint64"
            }
          ]
        }
      ],
      "stateMutability": "view"
    },
    {
      "type": "function",
      "name": "hypeAsset",
      "inputs": [],
      "outputs": [
        {
          "name": "assetBridgeAddress",
          "type": "address",
          "internalType": "address"
        },
        {
          "name": "coreIndexId",
          "type": "uint64",
          "internalType": "uint64"
        },
        {
          "name": "decimalDiff",
          "type": "uint64",
          "internalType": "uint64"
        }
      ],
      "stateMutability": "view"
    },
    {
      "type": "function",
      "name": "lzCompose",
      "inputs": [
        {
          "name": "_oft",
          "type": "address",
          "internalType": "address"
        },
        {
          "name": "",
          "type": "bytes32",
          "internalType": "bytes32"
        },
        {
          "name": "_message",
          "type": "bytes",
          "internalType": "bytes"
        },
        {
          "name": "",
          "type": "address",
          "internalType": "address"
        },
        {
          "name": "",
          "type": "bytes",
          "internalType": "bytes"
        }
      ],
      "outputs": [],
      "stateMutability": "payable"
    },
    {
      "type": "function",
      "name": "oft",
      "inputs": [],
      "outputs": [
        {
          "name": "",
          "type": "address",
          "internalType": "contract IOFT"
        }
      ],
      "stateMutability": "view"
    },
    {
      "type": "function",
      "name": "oftAsset",
      "inputs": [],
      "outputs": [
        {
          "name": "assetBridgeAddress",
          "type": "address",
          "internalType": "address"
        },
        {
          "name": "coreIndexId",
          "type": "uint64",
          "internalType": "uint64"
        },
        {
          "name": "decimalDiff",
          "type": "uint64",
          "internalType": "uint64"
        }
      ],
      "stateMutability": "view"
    },
    {
      "type": "function",
      "name": "quoteHyperCoreAmount",
      "inputs": [
        {
          "name": "_amount",
          "type": "uint256",
          "internalType": "uint256"
        },
        {
          "name": "_isOFT",
          "type": "bool",
          "internalType": "bool"
        }
      ],
      "outputs": [
        {
          "name": "",
          "type": "tuple",
          "internalType": "struct HyperAssetAmount",
          "components": [
            {
              "name": "evm",
              "type": "uint256",
              "internalType": "uint256"
            },
            {
              "name": "dust",
              "type": "uint256",
              "internalType": "uint256"
            },
            {
              "name": "core",
              "type": "uint64",
              "internalType": "uint64"
            }
          ]
        }
      ],
      "stateMutability": "view"
    },
    {
      "type": "error",
      "name": "HyperLiquidComposer_Codec_InvalidMessage_UnexpectedLength",
      "inputs": [
        {
          "name": "message",
          "type": "bytes",
          "internalType": "bytes"
        },
        {
          "name": "length",
          "type": "uint256",
          "internalType": "uint256"
        }
      ]
    },
    {
      "type": "error",
      "name": "HyperLiquidComposer_Exceed_TransferLimit",
      "inputs": [
        {
          "name": "allowedAmount",
          "type": "uint256",
          "internalType": "uint256"
        },
        {
          "name": "amountSent",
          "type": "uint256",
          "internalType": "uint256"
        }
      ]
    },
    {
      "type": "error",
      "name": "HyperLiquidComposer_FailedToReturn_HYPE_Dust",
      "inputs": [
        {
          "name": "to",
          "type": "address",
          "internalType": "address"
        },
        {
          "name": "amount",
          "type": "uint256",
          "internalType": "uint256"
        }
      ]
    },
    {
      "type": "error",
      "name": "HyperLiquidComposer_FailedToSend_HYPE",
      "inputs": [
        {
          "name": "amount",
          "type": "uint256",
          "internalType": "uint256"
        }
      ]
    },
    {
      "type": "error",
      "name": "HyperLiquidComposer_InvalidCall_NotEndpoint",
      "inputs": [
        {
          "name": "notEndpointAddress",
          "type": "address",
          "internalType": "address"
        }
      ]
    },
    {
      "type": "error",
      "name": "HyperLiquidComposer_InvalidCall_NotOFT",
      "inputs": [
        {
          "name": "internalOFTAddress",
          "type": "address",
          "internalType": "address"
        },
        {
          "name": "receivedOFTAddress",
          "type": "address",
          "internalType": "address"
        }
      ]
    }
  ],
  "bytecode": {
    "object": "0x60c060405234801562000010575f80fd5b50604051620014f9380380620014f9833981016040819052620000339162000185565b604051806060016040528062000058846001600160401b03166200013b60201b60201c565b6001600160a01b0390811682526001600160401b0394851660208084019190915293851660409283015282515f8054858701518816600160a01b026001600160e01b0319918216938516939093179290921790559282015160018054919096166001600160401b0319918216179095558151606081018352732222222222222222222222222222222222222222815261045194810194909452600a939091018390526002805475045122222222222222222222222222222222222222229316929092179091556003805490931690911790915590811660a05216608052620001ff565b5f6200014c826001609d1b620001df565b92915050565b80516001600160a01b038116811462000169575f80fd5b919050565b80516001600160401b038116811462000169575f80fd5b5f805f806080858703121562000199575f80fd5b620001a48562000152565b9350620001b46020860162000152565b9250620001c4604086016200016e565b9150620001d4606086016200016e565b905092959194509250565b808201808211156200014c57634e487b7160e01b5f52601160045260245ffd5b60805160a0516112bc6200023d5f395f818161029b0152818161048c015281816105030152610a1f01525f81816101d5015261041501526112bc5ff3fe608060405260043610610096575f3560e01c80639b5215f611610066578063d0a102601161004c578063d0a1026014610346578063f6e6b2401461035b578063f9716faf146103b2575f80fd5b80639b5215f61461028a578063aae12e46146102bd575f80fd5b80632d0e315c146100a157806355cd1378146101785780635e280f11146101c4578063765008a1146101f7575f80fd5b3661009d57005b5f80fd5b3480156100ac575f80fd5b50610129604080516060810182525f808252602082018190529181019190915250604080516060810182525f5473ffffffffffffffffffffffffffffffffffffffff8116825267ffffffffffffffff7401000000000000000000000000000000000000000090910481166020830152600154169181019190915290565b60408051825173ffffffffffffffffffffffffffffffffffffffff16815260208084015167ffffffffffffffff9081169183019190915292820151909216908201526060015b60405180910390f35b348015610183575f80fd5b5061019f73333333333333333333333333333333333333333381565b60405173ffffffffffffffffffffffffffffffffffffffff909116815260200161016f565b3480156101cf575f80fd5b5061019f7f000000000000000000000000000000000000000000000000000000000000000081565b348015610202575f80fd5b505f5460015461024d9173ffffffffffffffffffffffffffffffffffffffff81169167ffffffffffffffff740100000000000000000000000000000000000000009092048216911683565b6040805173ffffffffffffffffffffffffffffffffffffffff909416845267ffffffffffffffff928316602085015291169082015260600161016f565b348015610295575f80fd5b5061019f7f000000000000000000000000000000000000000000000000000000000000000081565b3480156102c8575f80fd5b50610129604080516060810182525f8082526020820181905291810191909152506040805160608101825260025473ffffffffffffffffffffffffffffffffffffffff8116825267ffffffffffffffff7401000000000000000000000000000000000000000090910481166020830152600354169181019190915290565b610359610354366004610e84565b6103fd565b005b348015610366575f80fd5b5060025460035461024d9173ffffffffffffffffffffffffffffffffffffffff81169167ffffffffffffffff740100000000000000000000000000000000000000009092048216911683565b3480156103bd575f80fd5b506103d16103cc366004610f2b565b61056e565b6040805182518152602080840151908201529181015167ffffffffffffffff169082015260600161016f565b3373ffffffffffffffffffffffffffffffffffffffff7f00000000000000000000000000000000000000000000000000000000000000001614610473576040517feee35e6f0000000000000000000000000000000000000000000000000000000081523360048201526024015b60405180910390fd5b8673ffffffffffffffffffffffffffffffffffffffff167f000000000000000000000000000000000000000000000000000000000000000073ffffffffffffffffffffffffffffffffffffffff1614610538576040517f86fee0c000000000000000000000000000000000000000000000000000000000815273ffffffffffffffffffffffffffffffffffffffff7f0000000000000000000000000000000000000000000000000000000000000000811660048301528816602482015260440161046a565b5f806105448787610675565b9092509050341561055957610559823461071a565b61056382826109b5565b505050505050505050565b61059960405180606001604052805f81526020015f81526020015f67ffffffffffffffff1681525090565b811561060a57604080516060810182525f5473ffffffffffffffffffffffffffffffffffffffff8116825267ffffffffffffffff74010000000000000000000000000000000000000000909104811660208301526001541691810191909152610603908490610cb5565b905061066f565b6040805160608101825260025473ffffffffffffffffffffffffffffffffffffffff8116825267ffffffffffffffff74010000000000000000000000000000000000000000909104811660208301526003541691810191909152610603908490610cb5565b92915050565b5f805f6106828585610db2565b9050601481511415801561069857506020815114155b156106d35780516040517f09b3473100000000000000000000000000000000000000000000000000000000815261046a918391600401610f59565b6106dd8585610dfc565b915060148151036106fb576106f181610fc9565b60601c9250610712565b8080602001905181019061070f9190611018565b92505b509250929050565b6040805160608101825260025473ffffffffffffffffffffffffffffffffffffffff8116825267ffffffffffffffff740100000000000000000000000000000000000000009091048116602083015260035416918101919091525f90610781908390610cb5565b60025481516040519293505f9273ffffffffffffffffffffffffffffffffffffffff909216918381818185875af1925050503d805f81146107dd576040519150601f19603f3d011682016040523d82523d5f602084013e6107e2565b606091505b5050905080610820576040517fb7e54a070000000000000000000000000000000000000000000000000000000081526004810184905260240161046a565b60025460408381015190517f0b0ac0ab00000000000000000000000000000000000000000000000000000000815273ffffffffffffffffffffffffffffffffffffffff871660048201527401000000000000000000000000000000000000000090920467ffffffffffffffff908116602484015216604482015273333333333333333333333333333333333333333390630b0ac0ab906064015f604051808303815f87803b1580156108d0575f80fd5b505af11580156108e2573d5f803e3d5ffd5b505050506020820151156109af5760208201516040515f9173ffffffffffffffffffffffffffffffffffffffff8716918381818185875af1925050503d805f8114610948576040519150601f19603f3d011682016040523d82523d5f602084013e61094d565b606091505b50509050806109ad5760208301516040517f3ec206c300000000000000000000000000000000000000000000000000000000815273ffffffffffffffffffffffffffffffffffffffff87166004820152602481019190915260440161046a565b505b50505050565b604080516060810182525f805473ffffffffffffffffffffffffffffffffffffffff8116835267ffffffffffffffff74010000000000000000000000000000000000000000909104811660208401526001541692820192909252610a1a908390610cb5565b90505f7f000000000000000000000000000000000000000000000000000000000000000073ffffffffffffffffffffffffffffffffffffffff1663fc0c546a6040518163ffffffff1660e01b8152600401602060405180830381865afa158015610a86573d5f803e3d5ffd5b505050506040513d601f19601f82011682018060405250810190610aaa9190611018565b5f5483516040517fa9059cbb00000000000000000000000000000000000000000000000000000000815273ffffffffffffffffffffffffffffffffffffffff9283166004820152602481019190915291925082169063a9059cbb906044016020604051808303815f875af1158015610b24573d5f803e3d5ffd5b505050506040513d601f19601f82011682018060405250810190610b489190611033565b505f5460408381015190517f0b0ac0ab00000000000000000000000000000000000000000000000000000000815273ffffffffffffffffffffffffffffffffffffffff871660048201527401000000000000000000000000000000000000000090920467ffffffffffffffff908116602484015216604482015273333333333333333333333333333333333333333390630b0ac0ab906064015f604051808303815f87803b158015610bf8575f80fd5b505af1158015610c0a573d5f803e3d5ffd5b505050506020820151156109af5760208201516040517fa9059cbb00000000000000000000000000000000000000000000000000000000815273ffffffffffffffffffffffffffffffffffffffff868116600483015260248201929092529082169063a9059cbb906044016020604051808303815f875af1158015610c91573d5f803e3d5ffd5b505050506040513d601f19601f820116820180604052508101906109ad9190611033565b610ce060405180606001604052805f81526020015f81526020015f67ffffffffffffffff1681525090565b5f8260400151600a610cf29190611191565b9050610d0781680100000000000000006111a6565b841115610d5e57610d2181680100000000000000006111a6565b6040517ff56317f000000000000000000000000000000000000000000000000000000000815260048101919091526024810185905260440161046a565b5f610d6982866111ea565b90505f610d7682876111fd565b90505f610d838488611210565b60408051606081018252938452602084019490945267ffffffffffffffff169282019290925295945050505050565b6060610dc182604c8186611223565b8080601f0160208091040260200160405190810160405280939291908181526020018383808284375f92019190915250929695505050505050565b5f610e0b602c600c8486611223565b610e149161124a565b9392505050565b73ffffffffffffffffffffffffffffffffffffffff81168114610e3c575f80fd5b50565b5f8083601f840112610e4f575f80fd5b50813567ffffffffffffffff811115610e66575f80fd5b602083019150836020828501011115610e7d575f80fd5b9250929050565b5f805f805f805f60a0888a031215610e9a575f80fd5b8735610ea581610e1b565b965060208801359550604088013567ffffffffffffffff80821115610ec8575f80fd5b610ed48b838c01610e3f565b909750955060608a01359150610ee982610e1b565b90935060808901359080821115610efe575f80fd5b50610f0b8a828b01610e3f565b989b979a50959850939692959293505050565b8015158114610e3c575f80fd5b5f8060408385031215610f3c575f80fd5b823591506020830135610f4e81610f1e565b809150509250929050565b604081525f83518060408401525f5b81811015610f855760208187018101516060868401015201610f68565b505f6060828501015260607fffffffffffffffffffffffffffffffffffffffffffffffffffffffffffffffe0601f8301168401019150508260208301529392505050565b5f815160208301517fffffffffffffffffffffffffffffffffffffffff000000000000000000000000808216935060148310156110105780818460140360031b1b83161693505b505050919050565b5f60208284031215611028575f80fd5b8151610e1481610e1b565b5f60208284031215611043575f80fd5b8151610e1481610f1e565b7f4e487b71000000000000000000000000000000000000000000000000000000005f52601160045260245ffd5b600181815b8085111561071257817fffffffffffffffffffffffffffffffffffffffffffffffffffffffffffffffff048211156110ba576110ba61104e565b808516156110c757918102915b93841c9390800290611080565b5f826110e25750600161066f565b816110ee57505f61066f565b8160018114611104576002811461110e5761112a565b600191505061066f565b60ff84111561111f5761111f61104e565b50506001821b61066f565b5060208310610133831016604e8410600b841016171561114d575081810a61066f565b611157838361107b565b807fffffffffffffffffffffffffffffffffffffffffffffffffffffffffffffffff048211156111895761118961104e565b029392505050565b5f610e1467ffffffffffffffff8416836110d4565b808202811582820484141761066f5761066f61104e565b7f4e487b71000000000000000000000000000000000000000000000000000000005f52601260045260245ffd5b5f826111f8576111f86111bd565b500690565b8181038181111561066f5761066f61104e565b5f8261121e5761121e6111bd565b500490565b5f8085851115611231575f80fd5b8386111561123d575f80fd5b5050820193919092039150565b8035602083101561066f577fffffffffffffffffffffffffffffffffffffffffffffffffffffffffffffffff602084900360031b1b169291505056fea264697066735822122024a1f1177d0953328d795f4b948c123cdd566f3a272e552893e138c4e68d043564736f6c63430008160033",
    "linkReferences": {}
  },
  "methodIdentifiers": {
    "L1WritePrecompileAddress()": "55cd1378",
    "endpoint()": "5e280f11",
    "getHypeAsset()": "aae12e46",
    "getOFTAsset()": "2d0e315c",
    "hypeAsset()": "f6e6b240",
    "lzCompose(address,bytes32,bytes,address,bytes)": "d0a10260",
    "oft()": "9b5215f6",
    "oftAsset()": "765008a1",
    "quoteHyperCoreAmount(uint256,bool)": "f9716faf"
  },
  "id": 0
}