{
  "abi": [
    {
      "type": "constructor",
      "inputs": [
        {
          "name": "_endpoint",
          "type": "address",
          "internalType": "address"
        },
        {
          "name": "_oft",
          "type": "address",
          "internalType": "address"
        }
      ],
      "stateMutability": "nonpayable"
    },
    {
      "type": "function",
      "name": "endpoint",
      "inputs": [],
      "outputs": [
        {
          "name": "",
          "type": "address",
          "internalType": "address"
        }
      ],
      "stateMutability": "view"
    },
    {
      "type": "function",
      "name": "hyperliquidHopTransferableToken",
      "inputs": [],
      "outputs": [
        {
          "name": "",
          "type": "address",
          "internalType": "contract IERC20HyperliquidHopTransferable"
        }
      ],
      "stateMutability": "view"
    },
    {
      "type": "function",
      "name": "lzCompose",
      "inputs": [
        {
          "name": "_oft",
          "type": "address",
          "internalType": "address"
        },
        {
          "name": "",
          "type": "bytes32",
          "internalType": "bytes32"
        },
        {
          "name": "_message",
          "type": "bytes",
          "internalType": "bytes"
        },
        {
          "name": "",
          "type": "address",
          "internalType": "address"
        },
        {
          "name": "",
          "type": "bytes",
          "internalType": "bytes"
        }
      ],
      "outputs": [],
      "stateMutability": "payable"
    },
    {
      "type": "function",
      "name": "oft",
      "inputs": [],
      "outputs": [
        {
          "name": "",
          "type": "address",
          "internalType": "address"
        }
      ],
      "stateMutability": "view"
    },
    {
      "type": "error",
      "name": "HyperLiquidComposer_Codec_InvalidMessage_UnexpectedLength",
      "inputs": [
        {
          "name": "message",
          "type": "bytes",
          "internalType": "bytes"
        },
        {
          "name": "length",
          "type": "uint256",
          "internalType": "uint256"
        }
      ]
    },
    {
      "type": "error",
      "name": "HyperLiquidComposer_InvalidCall_NotEndpoint",
      "inputs": [
        {
          "name": "_notEndpointAddress",
          "type": "address",
          "internalType": "address"
        }
      ]
    },
    {
      "type": "error",
      "name": "HyperLiquidComposer_InvalidCall_NotOFT",
      "inputs": [
        {
          "name": "_internalOFTAddress",
          "type": "address",
          "internalType": "address"
        },
        {
          "name": "_receivedOFTAddress",
          "type": "address",
          "internalType": "address"
        }
      ]
    },
    {
      "type": "error",
      "name": "HyperLiquidComposer_InvalidCall_TokenDoesNotSupportExtension",
      "inputs": [
        {
          "name": "_oft",
          "type": "address",
          "internalType": "address"
        },
        {
          "name": "_token",
          "type": "address",
          "internalType": "address"
        }
      ]
    }
  ],
  "bytecode": {
    "object": "0x60e060405234801561000f575f80fd5b5060405161086338038061086383398101604081905261002e91610163565b806001600160a01b031663fc0c546a6040518163ffffffff1660e01b8152600401602060405180830381865afa15801561006a573d5f803e3d5ffd5b505050506040513d601f19601f8201168201806040525081019061008e9190610194565b6001600160a01b031660c0819052604080516367ddeba960e01b815290516367ddeba9916004808201926020929091908290030181865afa1580156100d5573d5f803e3d5ffd5b505050506040513d601f19601f820116820180604052508101906100f991906101b4565b6101315760c05160405163db9a4c6b60e01b81526001600160a01b038084166004830152909116602482015260440160405180910390fd5b6001600160a01b039182166080521660a0526101d3565b80516001600160a01b038116811461015e575f80fd5b919050565b5f8060408385031215610174575f80fd5b61017d83610148565b915061018b60208401610148565b90509250929050565b5f602082840312156101a4575f80fd5b6101ad82610148565b9392505050565b5f602082840312156101c4575f80fd5b815180151581146101ad575f80fd5b60805160a05160c05161064d6102165f395f818160f701526102b201525f818160af015281816101a8015261021f01525f818160530152610131015261064d5ff3fe60806040526004361061003e575f3560e01c80635e280f11146100425780639b5215f61461009e578063d0a10260146100d1578063d2159547146100e6575b5f80fd5b34801561004d575f80fd5b506100757f000000000000000000000000000000000000000000000000000000000000000081565b60405173ffffffffffffffffffffffffffffffffffffffff909116815260200160405180910390f35b3480156100a9575f80fd5b506100757f000000000000000000000000000000000000000000000000000000000000000081565b6100e46100df36600461045e565b610119565b005b3480156100f1575f80fd5b506100757f000000000000000000000000000000000000000000000000000000000000000081565b3373ffffffffffffffffffffffffffffffffffffffff7f0000000000000000000000000000000000000000000000000000000000000000161461018f576040517feee35e6f0000000000000000000000000000000000000000000000000000000081523360048201526024015b60405180910390fd5b8673ffffffffffffffffffffffffffffffffffffffff167f000000000000000000000000000000000000000000000000000000000000000073ffffffffffffffffffffffffffffffffffffffff1614610254576040517f86fee0c000000000000000000000000000000000000000000000000000000000815273ffffffffffffffffffffffffffffffffffffffff7f00000000000000000000000000000000000000000000000000000000000000008116600483015288166024820152604401610186565b5f806102608787610316565b6040517f1bb6e3bc00000000000000000000000000000000000000000000000000000000815273ffffffffffffffffffffffffffffffffffffffff8084166004830152602482018390529294509092507f000000000000000000000000000000000000000000000000000000000000000090911690631bb6e3bc906044015f604051808303815f87803b1580156102f5575f80fd5b505af1158015610307573d5f803e3d5ffd5b50505050505050505050505050565b5f805f6103238585610386565b905060148151146103645780516040517f09b347310000000000000000000000000000000000000000000000000000000081526101869183916004016104f5565b61036d81610565565b60601c925061037c85856103d2565b9150509250929050565b606061039582604c81866105b4565b8080601f0160208091040260200160405190810160405280939291908181526020018383808284375f920191909152509293505050505b92915050565b5f6103e1602c600c84866105b4565b6103ea916105db565b9392505050565b803573ffffffffffffffffffffffffffffffffffffffff81168114610414575f80fd5b919050565b5f8083601f840112610429575f80fd5b50813567ffffffffffffffff811115610440575f80fd5b602083019150836020828501011115610457575f80fd5b9250929050565b5f805f805f805f60a0888a031215610474575f80fd5b61047d886103f1565b965060208801359550604088013567ffffffffffffffff808211156104a0575f80fd5b6104ac8b838c01610419565b90975095508591506104c060608b016103f1565b945060808a01359150808211156104d5575f80fd5b506104e28a828b01610419565b989b979a50959850939692959293505050565b604081525f83518060408401525f5b818110156105215760208187018101516060868401015201610504565b505f6060828501015260607fffffffffffffffffffffffffffffffffffffffffffffffffffffffffffffffe0601f8301168401019150508260208301529392505050565b5f815160208301517fffffffffffffffffffffffffffffffffffffffff000000000000000000000000808216935060148310156105ac5780818460140360031b1b83161693505b505050919050565b5f80858511156105c2575f80fd5b838611156105ce575f80fd5b5050820193919092039150565b803560208310156103cc577fffffffffffffffffffffffffffffffffffffffffffffffffffffffffffffffff602084900360031b1b169291505056fea26469706673582212204a660963756f537dcff38d75ae6f25b91273c636b80449c5cbb697fda75bc8eb64736f6c63430008160033",
    "linkReferences": {}
  },
  "methodIdentifiers": {
    "endpoint()": "5e280f11",
    "hyperliquidHopTransferableToken()": "d2159547",
    "lzCompose(address,bytes32,bytes,address,bytes)": "d0a10260",
    "oft()": "9b5215f6"
  },
  "id": 1
}