{
  "abi": [
    {
      "type": "constructor",
      "inputs": [
        {
          "name": "_endpoint",
          "type": "address",
          "internalType": "address"
        },
        {
          "name": "_oft",
          "type": "address",
          "internalType": "address"
        },
        {
          "name": "_coreIndexId",
          "type": "uint64",
          "internalType": "uint64"
        },
        {
          "name": "_weiDiff",
          "type": "uint64",
          "internalType": "uint64"
        }
      ],
      "stateMutability": "nonpayable"
    },
    {
      "type": "receive",
      "stateMutability": "payable"
    },
    {
      "type": "function",
      "name": "L1WritePrecompileAddress",
      "inputs": [],
      "outputs": [
        {
          "name": "",
          "type": "address",
          "internalType": "address"
        }
      ],
      "stateMutability": "view"
    },
    {
      "type": "function",
      "name": "endpoint",
      "inputs": [],
      "outputs": [
        {
          "name": "",
          "type": "address",
          "internalType": "address"
        }
      ],
      "stateMutability": "view"
    },
    {
      "type": "function",
      "name": "getHypeAsset",
      "inputs": [],
      "outputs": [
        {
          "name": "",
          "type": "tuple",
          "internalType": "struct HyperAsset",
          "components": [
            {
              "name": "assetBridgeAddress",
              "type": "address",
              "internalType": "address"
            },
            {
              "name": "coreIndexId",
              "type": "uint64",
              "internalType": "uint64"
            },
            {
              "name": "decimalDiff",
              "type": "uint64",
              "internalType": "uint64"
            }
          ]
        }
      ],
      "stateMutability": "view"
    },
    {
      "type": "function",
      "name": "getOFTAsset",
      "inputs": [],
      "outputs": [
        {
          "name": "",
          "type": "tuple",
          "internalType": "struct HyperAsset",
          "components": [
            {
              "name": "assetBridgeAddress",
              "type": "address",
              "internalType": "address"
            },
            {
              "name": "coreIndexId",
              "type": "uint64",
              "internalType": "uint64"
            },
            {
              "name": "decimalDiff",
              "type": "uint64",
              "internalType": "uint64"
            }
          ]
        }
      ],
      "stateMutability": "view"
    },
    {
      "type": "function",
      "name": "hypeAsset",
      "inputs": [],
      "outputs": [
        {
          "name": "assetBridgeAddress",
          "type": "address",
          "internalType": "address"
        },
        {
          "name": "coreIndexId",
          "type": "uint64",
          "internalType": "uint64"
        },
        {
          "name": "decimalDiff",
          "type": "uint64",
          "internalType": "uint64"
        }
      ],
      "stateMutability": "view"
    },
    {
      "type": "function",
      "name": "lzCompose",
      "inputs": [
        {
          "name": "_oft",
          "type": "address",
          "internalType": "address"
        },
        {
          "name": "",
          "type": "bytes32",
          "internalType": "bytes32"
        },
        {
          "name": "_message",
          "type": "bytes",
          "internalType": "bytes"
        },
        {
          "name": "",
          "type": "address",
          "internalType": "address"
        },
        {
          "name": "",
          "type": "bytes",
          "internalType": "bytes"
        }
      ],
      "outputs": [],
      "stateMutability": "payable"
    },
    {
      "type": "function",
      "name": "oft",
      "inputs": [],
      "outputs": [
        {
          "name": "",
          "type": "address",
          "internalType": "contract IOFT"
        }
      ],
      "stateMutability": "view"
    },
    {
      "type": "function",
      "name": "oftAsset",
      "inputs": [],
      "outputs": [
        {
          "name": "assetBridgeAddress",
          "type": "address",
          "internalType": "address"
        },
        {
          "name": "coreIndexId",
          "type": "uint64",
          "internalType": "uint64"
        },
        {
          "name": "decimalDiff",
          "type": "uint64",
          "internalType": "uint64"
        }
      ],
      "stateMutability": "view"
    },
    {
      "type": "error",
      "name": "HyperLiquidComposer_Codec_InvalidMessage_UnexpectedLength",
      "inputs": [
        {
          "name": "message",
          "type": "bytes",
          "internalType": "bytes"
        },
        {
          "name": "length",
          "type": "uint256",
          "internalType": "uint256"
        }
      ]
    },
    {
      "type": "error",
      "name": "HyperLiquidComposer_Exceed_TransferLimit",
      "inputs": [
        {
          "name": "allowedAmount",
          "type": "uint256",
          "internalType": "uint256"
        },
        {
          "name": "amountSent",
          "type": "uint256",
          "internalType": "uint256"
        }
      ]
    },
    {
      "type": "error",
      "name": "HyperLiquidComposer_FailedToReturn_HYPE_Dust",
      "inputs": [
        {
          "name": "_amount",
          "type": "uint256",
          "internalType": "uint256"
        }
      ]
    },
    {
      "type": "error",
      "name": "HyperLiquidComposer_FailedToSend_HYPE",
      "inputs": [
        {
          "name": "_amount",
          "type": "uint256",
          "internalType": "uint256"
        }
      ]
    },
    {
      "type": "error",
      "name": "HyperLiquidComposer_InvalidCall_NotEndpoint",
      "inputs": [
        {
          "name": "_notEndpointAddress",
          "type": "address",
          "internalType": "address"
        }
      ]
    },
    {
      "type": "error",
      "name": "HyperLiquidComposer_InvalidCall_NotOFT",
      "inputs": [
        {
          "name": "_internalOFTAddress",
          "type": "address",
          "internalType": "address"
        },
        {
          "name": "_receivedOFTAddress",
          "type": "address",
          "internalType": "address"
        }
      ]
    }
  ],
  "bytecode": {
    "object": "0x60c060405234801562000010575f80fd5b506040516200130e3803806200130e833981016040819052620000339162000185565b604051806060016040528062000058846001600160401b03166200013b60201b60201c565b6001600160a01b0390811682526001600160401b0394851660208084019190915293851660409283015282515f8054858701518816600160a01b026001600160e01b0319918216938516939093179290921790559282015160018054919096166001600160401b0319918216179095558151606081018352732222222222222222222222222222222222222222815261045194810194909452600a939091018390526002805475045122222222222222222222222222222222222222229316929092179091556003805490931690911790915590811660a05216608052620001ff565b5f6200014c826001609d1b620001df565b92915050565b80516001600160a01b038116811462000169575f80fd5b919050565b80516001600160401b038116811462000169575f80fd5b5f805f806080858703121562000199575f80fd5b620001a48562000152565b9350620001b46020860162000152565b9250620001c4604086016200016e565b9150620001d4606086016200016e565b905092959194509250565b808201808211156200014c57634e487b7160e01b5f52601160045260245ffd5b60805160a0516110d16200023d5f395f8181610281015281816104270152818161049e015261086101525f81816101bb01526103b001526110d15ff3fe60806040526004361061007c575f3560e01c80639b5215f61161004c5780639b5215f614610270578063aae12e46146102a3578063d0a102601461032c578063f6e6b24014610341575f80fd5b80632d0e315c1461008757806355cd13781461015e5780635e280f11146101aa578063765008a1146101dd575f80fd5b3661008357005b5f80fd5b348015610092575f80fd5b5061010f604080516060810182525f808252602082018190529181019190915250604080516060810182525f5473ffffffffffffffffffffffffffffffffffffffff8116825267ffffffffffffffff7401000000000000000000000000000000000000000090910481166020830152600154169181019190915290565b60408051825173ffffffffffffffffffffffffffffffffffffffff16815260208084015167ffffffffffffffff9081169183019190915292820151909216908201526060015b60405180910390f35b348015610169575f80fd5b5061018573333333333333333333333333333333333333333381565b60405173ffffffffffffffffffffffffffffffffffffffff9091168152602001610155565b3480156101b5575f80fd5b506101857f000000000000000000000000000000000000000000000000000000000000000081565b3480156101e8575f80fd5b505f546001546102339173ffffffffffffffffffffffffffffffffffffffff81169167ffffffffffffffff740100000000000000000000000000000000000000009092048216911683565b6040805173ffffffffffffffffffffffffffffffffffffffff909416845267ffffffffffffffff9283166020850152911690820152606001610155565b34801561027b575f80fd5b506101857f000000000000000000000000000000000000000000000000000000000000000081565b3480156102ae575f80fd5b5061010f604080516060810182525f8082526020820181905291810191909152506040805160608101825260025473ffffffffffffffffffffffffffffffffffffffff8116825267ffffffffffffffff7401000000000000000000000000000000000000000090910481166020830152600354169181019190915290565b61033f61033a366004610cc8565b610398565b005b34801561034c575f80fd5b506002546003546102339173ffffffffffffffffffffffffffffffffffffffff81169167ffffffffffffffff740100000000000000000000000000000000000000009092048216911683565b3373ffffffffffffffffffffffffffffffffffffffff7f0000000000000000000000000000000000000000000000000000000000000000161461040e576040517feee35e6f0000000000000000000000000000000000000000000000000000000081523360048201526024015b60405180910390fd5b8673ffffffffffffffffffffffffffffffffffffffff167f000000000000000000000000000000000000000000000000000000000000000073ffffffffffffffffffffffffffffffffffffffff16146104d3576040517f86fee0c000000000000000000000000000000000000000000000000000000000815273ffffffffffffffffffffffffffffffffffffffff7f00000000000000000000000000000000000000000000000000000000000000008116600483015288166024820152604401610405565b5f806104df8787610509565b909250905034156104f4576104f48234610579565b6104fe82826107f7565b505050505050505050565b5f805f6105168585610af7565b905060148151146105575780516040517f09b34731000000000000000000000000000000000000000000000000000000008152610405918391600401610d62565b61056081610dd2565b60601c925061056f8585610b43565b9150509250929050565b6040805160608101825260025473ffffffffffffffffffffffffffffffffffffffff8116825267ffffffffffffffff740100000000000000000000000000000000000000009091048116602083015260035416918101919091525f906105e0908390610b62565b60025481516040519293505f9273ffffffffffffffffffffffffffffffffffffffff909216918381818185875af1925050503d805f811461063c576040519150601f19603f3d011682016040523d82523d5f602084013e610641565b606091505b505090508061067f576040517fb7e54a0700000000000000000000000000000000000000000000000000000000815260048101849052602401610405565b60025460408381015190517f0b0ac0ab00000000000000000000000000000000000000000000000000000000815273ffffffffffffffffffffffffffffffffffffffff871660048201527401000000000000000000000000000000000000000090920467ffffffffffffffff908116602484015216604482015273333333333333333333333333333333333333333390630b0ac0ab906064015f604051808303815f87803b15801561072f575f80fd5b505af1158015610741573d5f803e3d5ffd5b505050506020820151156107f15760208201516040515f9173ffffffffffffffffffffffffffffffffffffffff8716918381818185875af1925050503d805f81146107a7576040519150601f19603f3d011682016040523d82523d5f602084013e6107ac565b606091505b50509050806107ef5782602001516040517f9a9d2b7a00000000000000000000000000000000000000000000000000000000815260040161040591815260200190565b505b50505050565b604080516060810182525f805473ffffffffffffffffffffffffffffffffffffffff8116835267ffffffffffffffff7401000000000000000000000000000000000000000090910481166020840152600154169282019290925261085c908390610b62565b90505f7f000000000000000000000000000000000000000000000000000000000000000073ffffffffffffffffffffffffffffffffffffffff1663fc0c546a6040518163ffffffff1660e01b8152600401602060405180830381865afa1580156108c8573d5f803e3d5ffd5b505050506040513d601f19601f820116820180604052508101906108ec9190610e21565b5f5483516040517fa9059cbb00000000000000000000000000000000000000000000000000000000815273ffffffffffffffffffffffffffffffffffffffff9283166004820152602481019190915291925082169063a9059cbb906044016020604051808303815f875af1158015610966573d5f803e3d5ffd5b505050506040513d601f19601f8201168201806040525081019061098a9190610e3c565b505f5460408381015190517f0b0ac0ab00000000000000000000000000000000000000000000000000000000815273ffffffffffffffffffffffffffffffffffffffff871660048201527401000000000000000000000000000000000000000090920467ffffffffffffffff908116602484015216604482015273333333333333333333333333333333333333333390630b0ac0ab906064015f604051808303815f87803b158015610a3a575f80fd5b505af1158015610a4c573d5f803e3d5ffd5b505050506020820151156107f15760208201516040517fa9059cbb00000000000000000000000000000000000000000000000000000000815273ffffffffffffffffffffffffffffffffffffffff868116600483015260248201929092529082169063a9059cbb906044016020604051808303815f875af1158015610ad3573d5f803e3d5ffd5b505050506040513d601f19601f820116820180604052508101906107ef9190610e3c565b6060610b0682604c8186610e5b565b8080601f0160208091040260200160405190810160405280939291908181526020018383808284375f920191909152509293505050505b92915050565b5f610b52602c600c8486610e5b565b610b5b91610e82565b9392505050565b610b8d60405180606001604052805f81526020015f81526020015f67ffffffffffffffff1681525090565b5f8260400151600a610b9f9190611009565b9050610bb4816801000000000000000061101e565b841115610c0b57610bce816801000000000000000061101e565b6040517ff56317f0000000000000000000000000000000000000000000000000000000008152600481019190915260248101859052604401610405565b5f610c168286611062565b90505f610c238287611075565b90505f610c308488611088565b60408051606081018252938452602084019490945267ffffffffffffffff169282019290925295945050505050565b73ffffffffffffffffffffffffffffffffffffffff81168114610c80575f80fd5b50565b5f8083601f840112610c93575f80fd5b50813567ffffffffffffffff811115610caa575f80fd5b602083019150836020828501011115610cc1575f80fd5b9250929050565b5f805f805f805f60a0888a031215610cde575f80fd5b8735610ce981610c5f565b965060208801359550604088013567ffffffffffffffff80821115610d0c575f80fd5b610d188b838c01610c83565b909750955060608a01359150610d2d82610c5f565b90935060808901359080821115610d42575f80fd5b50610d4f8a828b01610c83565b989b979a50959850939692959293505050565b604081525f83518060408401525f5b81811015610d8e5760208187018101516060868401015201610d71565b505f6060828501015260607fffffffffffffffffffffffffffffffffffffffffffffffffffffffffffffffe0601f8301168401019150508260208301529392505050565b5f815160208301517fffffffffffffffffffffffffffffffffffffffff00000000000000000000000080821693506014831015610e195780818460140360031b1b83161693505b505050919050565b5f60208284031215610e31575f80fd5b8151610b5b81610c5f565b5f60208284031215610e4c575f80fd5b81518015158114610b5b575f80fd5b5f8085851115610e69575f80fd5b83861115610e75575f80fd5b5050820193919092039150565b80356020831015610b3d577fffffffffffffffffffffffffffffffffffffffffffffffffffffffffffffffff602084900360031b1b1692915050565b7f4e487b71000000000000000000000000000000000000000000000000000000005f52601160045260245ffd5b600181815b80851115610f4457817fffffffffffffffffffffffffffffffffffffffffffffffffffffffffffffffff04821115610f2a57610f2a610ebe565b80851615610f3757918102915b93841c9390800290610ef0565b509250929050565b5f82610f5a57506001610b3d565b81610f6657505f610b3d565b8160018114610f7c5760028114610f8657610fa2565b6001915050610b3d565b60ff841115610f9757610f97610ebe565b50506001821b610b3d565b5060208310610133831016604e8410600b8410161715610fc5575081810a610b3d565b610fcf8383610eeb565b807fffffffffffffffffffffffffffffffffffffffffffffffffffffffffffffffff0482111561100157611001610ebe565b029392505050565b5f610b5b67ffffffffffffffff841683610f4c565b8082028115828204841417610b3d57610b3d610ebe565b7f4e487b71000000000000000000000000000000000000000000000000000000005f52601260045260245ffd5b5f8261107057611070611035565b500690565b81810381811115610b3d57610b3d610ebe565b5f8261109657611096611035565b50049056fea26469706673582212203b7714a72f1fb3dd137e72890d92e29c9b314ed3ae72dd8c68c7e35d71fe1e9264736f6c63430008160033",
    "linkReferences": {}
  },
  "methodIdentifiers": {
    "L1WritePrecompileAddress()": "55cd1378",
    "endpoint()": "5e280f11",
    "getHypeAsset()": "aae12e46",
    "getOFTAsset()": "2d0e315c",
    "hypeAsset()": "f6e6b240",
    "lzCompose(address,bytes32,bytes,address,bytes)": "d0a10260",
    "oft()": "9b5215f6",
    "oftAsset()": "765008a1"
  },
  "id": 0
}