{
  "abi": [
    {
      "type": "constructor",
      "inputs": [
        {
          "name": "_endpoint",
          "type": "address",
          "internalType": "address"
        },
        {
          "name": "_oft",
          "type": "address",
          "internalType": "address"
        },
        {
          "name": "_coreIndexId",
          "type": "uint64",
          "internalType": "uint64"
        },
        {
          "name": "_weiDiff",
          "type": "uint64",
          "internalType": "uint64"
        }
      ],
      "stateMutability": "nonpayable"
    },
    {
      "type": "receive",
      "stateMutability": "payable"
    },
    {
      "type": "function",
      "name": "L1ReadPrecompileAddress_SpotBalance",
      "inputs": [],
      "outputs": [
        {
          "name": "",
          "type": "address",
          "internalType": "address"
        }
      ],
      "stateMutability": "view"
    },
    {
      "type": "function",
      "name": "L1WritePrecompileAddress",
      "inputs": [],
      "outputs": [
        {
          "name": "",
          "type": "address",
          "internalType": "address"
        }
      ],
      "stateMutability": "view"
    },
    {
      "type": "function",
      "name": "VALID_COMPOSE_MESSAGE_LENGTH_ENCODE",
      "inputs": [],
      "outputs": [
        {
          "name": "",
          "type": "uint256",
          "internalType": "uint256"
        }
      ],
      "stateMutability": "view"
    },
    {
      "type": "function",
      "name": "VALID_COMPOSE_MESSAGE_LENGTH_PACKED",
      "inputs": [],
      "outputs": [
        {
          "name": "",
          "type": "uint256",
          "internalType": "uint256"
        }
      ],
      "stateMutability": "view"
    },
    {
      "type": "function",
      "name": "balanceOfHyperCore",
      "inputs": [
        {
          "name": "_user",
          "type": "address",
          "internalType": "address"
        },
        {
          "name": "_tokenId",
          "type": "uint64",
          "internalType": "uint64"
        }
      ],
      "outputs": [
        {
          "name": "",
          "type": "uint64",
          "internalType": "uint64"
        }
      ],
      "stateMutability": "view"
    },
    {
      "type": "function",
      "name": "endpoint",
      "inputs": [],
      "outputs": [
        {
          "name": "",
          "type": "address",
          "internalType": "address"
        }
      ],
      "stateMutability": "view"
    },
    {
      "type": "function",
      "name": "getHypeAsset",
      "inputs": [],
      "outputs": [
        {
          "name": "",
          "type": "tuple",
          "internalType": "struct IHyperAsset",
          "components": [
            {
              "name": "assetBridgeAddress",
              "type": "address",
              "internalType": "address"
            },
            {
              "name": "coreIndexId",
              "type": "uint64",
              "internalType": "uint64"
            },
            {
              "name": "decimalDiff",
              "type": "uint64",
              "internalType": "uint64"
            }
          ]
        }
      ],
      "stateMutability": "view"
    },
    {
      "type": "function",
      "name": "getOFTAsset",
      "inputs": [],
      "outputs": [
        {
          "name": "",
          "type": "tuple",
          "internalType": "struct IHyperAsset",
          "components": [
            {
              "name": "assetBridgeAddress",
              "type": "address",
              "internalType": "address"
            },
            {
              "name": "coreIndexId",
              "type": "uint64",
              "internalType": "uint64"
            },
            {
              "name": "decimalDiff",
              "type": "uint64",
              "internalType": "uint64"
            }
          ]
        }
      ],
      "stateMutability": "view"
    },
    {
      "type": "function",
      "name": "hypeAsset",
      "inputs": [],
      "outputs": [
        {
          "name": "assetBridgeAddress",
          "type": "address",
          "internalType": "address"
        },
        {
          "name": "coreIndexId",
          "type": "uint64",
          "internalType": "uint64"
        },
        {
          "name": "decimalDiff",
          "type": "uint64",
          "internalType": "uint64"
        }
      ],
      "stateMutability": "view"
    },
    {
      "type": "function",
      "name": "lzCompose",
      "inputs": [
        {
          "name": "_oft",
          "type": "address",
          "internalType": "address"
        },
        {
          "name": "",
          "type": "bytes32",
          "internalType": "bytes32"
        },
        {
          "name": "_message",
          "type": "bytes",
          "internalType": "bytes"
        },
        {
          "name": "",
          "type": "address",
          "internalType": "address"
        },
        {
          "name": "",
          "type": "bytes",
          "internalType": "bytes"
        }
      ],
      "outputs": [],
      "stateMutability": "payable"
    },
    {
      "type": "function",
      "name": "oft",
      "inputs": [],
      "outputs": [
        {
          "name": "",
          "type": "address",
          "internalType": "contract IOFT"
        }
      ],
      "stateMutability": "view"
    },
    {
      "type": "function",
      "name": "oftAsset",
      "inputs": [],
      "outputs": [
        {
          "name": "assetBridgeAddress",
          "type": "address",
          "internalType": "address"
        },
        {
          "name": "coreIndexId",
          "type": "uint64",
          "internalType": "uint64"
        },
        {
          "name": "decimalDiff",
          "type": "uint64",
          "internalType": "uint64"
        }
      ],
      "stateMutability": "view"
    },
    {
      "type": "function",
      "name": "quoteHyperCoreAmount",
      "inputs": [
        {
          "name": "_amount",
          "type": "uint256",
          "internalType": "uint256"
        },
        {
          "name": "_isOFT",
          "type": "bool",
          "internalType": "bool"
        }
      ],
      "outputs": [
        {
          "name": "",
          "type": "tuple",
          "internalType": "struct IHyperAssetAmount",
          "components": [
            {
              "name": "evm",
              "type": "uint256",
              "internalType": "uint256"
            },
            {
              "name": "dust",
              "type": "uint256",
              "internalType": "uint256"
            },
            {
              "name": "core",
              "type": "uint64",
              "internalType": "uint64"
            }
          ]
        }
      ],
      "stateMutability": "nonpayable"
    },
    {
      "type": "function",
      "name": "refundNativeTokens",
      "inputs": [
        {
          "name": "refundAddress",
          "type": "address",
          "internalType": "address"
        }
      ],
      "outputs": [],
      "stateMutability": "payable"
    },
    {
      "type": "function",
      "name": "refundTokens",
      "inputs": [
        {
          "name": "err",
          "type": "bytes",
          "internalType": "bytes"
        }
      ],
      "outputs": [
        {
          "name": "",
          "type": "bytes",
          "internalType": "bytes"
        }
      ],
      "stateMutability": "payable"
    },
    {
      "type": "function",
      "name": "token",
      "inputs": [],
      "outputs": [
        {
          "name": "",
          "type": "address",
          "internalType": "contract IERC20"
        }
      ],
      "stateMutability": "view"
    },
    {
      "type": "function",
      "name": "validateAndDecodeMessage",
      "inputs": [
        {
          "name": "_composeMessage",
          "type": "bytes",
          "internalType": "bytes"
        }
      ],
      "outputs": [
        {
          "name": "_receiver",
          "type": "address",
          "internalType": "address"
        },
        {
          "name": "_amountLD",
          "type": "uint256",
          "internalType": "uint256"
        }
      ],
      "stateMutability": "pure"
    },
    {
      "type": "event",
      "name": "OverflowDetected",
      "inputs": [
        {
          "name": "amountCore",
          "type": "uint64",
          "indexed": false,
          "internalType": "uint64"
        },
        {
          "name": "maxTransferableAmount",
          "type": "uint64",
          "indexed": false,
          "internalType": "uint64"
        }
      ],
      "anonymous": false
    },
    {
      "type": "event",
      "name": "errorMessage",
      "inputs": [
        {
          "name": "reason",
          "type": "bytes",
          "indexed": false,
          "internalType": "bytes"
        }
      ],
      "anonymous": false
    },
    {
      "type": "event",
      "name": "errorNativeRefund_Failed",
      "inputs": [
        {
          "name": "refundTo",
          "type": "address",
          "indexed": false,
          "internalType": "address"
        },
        {
          "name": "refundAmount",
          "type": "uint256",
          "indexed": false,
          "internalType": "uint256"
        }
      ],
      "anonymous": false
    },
    {
      "type": "event",
      "name": "errorRefund",
      "inputs": [
        {
          "name": "refundTo",
          "type": "address",
          "indexed": false,
          "internalType": "address"
        },
        {
          "name": "refundAmount",
          "type": "uint256",
          "indexed": false,
          "internalType": "uint256"
        }
      ],
      "anonymous": false
    },
    {
      "type": "error",
      "name": "ErrorMsg",
      "inputs": [
        {
          "name": "errorMessage",
          "type": "bytes",
          "internalType": "bytes"
        }
      ]
    },
    {
      "type": "error",
      "name": "HyperLiquidComposer_FailedToSend_HYPE",
      "inputs": [
        {
          "name": "amount",
          "type": "uint256",
          "internalType": "uint256"
        }
      ]
    },
    {
      "type": "error",
      "name": "HyperLiquidComposer_InvalidCall_NotComposer",
      "inputs": [
        {
          "name": "notComposerAddress",
          "type": "address",
          "internalType": "address"
        }
      ]
    },
    {
      "type": "error",
      "name": "HyperLiquidComposer_InvalidCall_NotEndpoint",
      "inputs": [
        {
          "name": "notEndpointAddress",
          "type": "address",
          "internalType": "address"
        },
        {
          "name": "expectedEndpointAddress",
          "type": "address",
          "internalType": "address"
        }
      ]
    },
    {
      "type": "error",
      "name": "HyperLiquidComposer_InvalidCall_NotOFT",
      "inputs": [
        {
          "name": "internalOFTAddress",
          "type": "address",
          "internalType": "address"
        },
        {
          "name": "receivedOFTAddress",
          "type": "address",
          "internalType": "address"
        }
      ]
    }
  ],
  "bytecode": {
    "object": "0x60e060405234801562000010575f80fd5b50604051620023b7380380620023b78339810160408190526200003391620001f1565b604051806060016040528062000058846001600160401b0316620001a760201b60201c565b6001600160a01b0390811682526001600160401b0380861660208085019190915285821660409485015284515f8054878401518516600160a01b026001600160e01b0319918216938716939093179290921790559484015160018054919093166001600160401b0319918216179092558351606081018552732222222222222222222222222222222222222222815261045181830152600a908501819052600280547504512222222222222222222222222222222222222222971696909617909555600380549092169094179055851660a08190528151637e062a3560e11b81529151909263fc0c546a92600480820193918290030181865afa15801562000162573d5f803e3d5ffd5b505050506040513d601f19601f820116820180604052508101906200018891906200024b565b6001600160a01b0390811660c05293909316608052506200028e915050565b5f620001b8826001609d1b6200026e565b92915050565b80516001600160a01b0381168114620001d5575f80fd5b919050565b80516001600160401b0381168114620001d5575f80fd5b5f805f806080858703121562000205575f80fd5b6200021085620001be565b93506200022060208601620001be565b92506200023060408601620001da565b91506200024060608601620001da565b905092959194509250565b5f602082840312156200025c575f80fd5b6200026782620001be565b9392505050565b80820180821115620001b857634e487b7160e01b5f52601160045260245ffd5b60805160a05160c0516120c6620002f15f395f8181610585015281816107f4015281816109f60152818161150b015261169701525f81816103df01528181610c840152610cfb01525f818161029601528181610bc00152610c3801526120c65ff3fe60806040526004361061010c575f3560e01c80639278d99a116100a1578063aae12e4611610071578063f6e6b24011610057578063f6e6b240146104d2578063f9716faf14610529578063fc0c546a14610574575f80fd5b8063aae12e4614610436578063d0a10260146104bf575f80fd5b80639278d99a146103ba5780639b5215f6146103ce5780639c71902414610401578063aa1a835d14610416575f80fd5b8063765008a1116100dc578063765008a1146102b8578063807d6c3f1461034b57806381e8dcb41461036d5780638483bc00146103a5575f80fd5b8063233449e7146101175780632d0e315c1461016757806355cd1378146102395780635e280f1114610285575f80fd5b3661011357005b5f80fd5b348015610122575f80fd5b50610136610131366004611881565b6105a7565b6040805173ffffffffffffffffffffffffffffffffffffffff90931683526020830191909152015b60405180910390f35b348015610172575f80fd5b506101ef604080516060810182525f808252602082018190529181019190915250604080516060810182525f5473ffffffffffffffffffffffffffffffffffffffff8116825267ffffffffffffffff7401000000000000000000000000000000000000000090910481166020830152600154169181019190915290565b60408051825173ffffffffffffffffffffffffffffffffffffffff16815260208084015167ffffffffffffffff90811691830191909152928201519092169082015260600161015e565b348015610244575f80fd5b5061026073333333333333333333333333333333333333333381565b60405173ffffffffffffffffffffffffffffffffffffffff909116815260200161015e565b348015610290575f80fd5b506102607f000000000000000000000000000000000000000000000000000000000000000081565b3480156102c3575f80fd5b505f5460015461030e9173ffffffffffffffffffffffffffffffffffffffff81169167ffffffffffffffff740100000000000000000000000000000000000000009092048216911683565b6040805173ffffffffffffffffffffffffffffffffffffffff909416845267ffffffffffffffff928316602085015291169082015260600161015e565b348015610356575f80fd5b5061035f601481565b60405190815260200161015e565b348015610378575f80fd5b5061038c6103873660046118f6565b610754565b60405167ffffffffffffffff909116815260200161015e565b6103b86103b336600461192d565b610768565b005b3480156103c5575f80fd5b5061035f602081565b3480156103d9575f80fd5b506102607f000000000000000000000000000000000000000000000000000000000000000081565b34801561040c575f80fd5b5061026061080181565b610429610424366004611881565b610863565b60405161015e91906119ba565b348015610441575f80fd5b506101ef604080516060810182525f8082526020820181905291810191909152506040805160608101825260025473ffffffffffffffffffffffffffffffffffffffff8116825267ffffffffffffffff7401000000000000000000000000000000000000000090910481166020830152600354169181019190915290565b6103b86104cd3660046119cc565b610bbe565b3480156104dd575f80fd5b5060025460035461030e9173ffffffffffffffffffffffffffffffffffffffff81169167ffffffffffffffff740100000000000000000000000000000000000000009092048216911683565b348015610534575f80fd5b50610548610543366004611a73565b610f06565b6040805182518152602080840151908201529181015167ffffffffffffffff169082015260600161015e565b34801561057f575f80fd5b506102607f000000000000000000000000000000000000000000000000000000000000000081565b5f805f6105b48585611048565b90506105c08585611092565b915060148151141580156105d657506020815114155b156107195780516040515f917f09b347310000000000000000000000000000000000000000000000000000000091610612918591602401611a96565b604080517fffffffffffffffffffffffffffffffffffffffffffffffffffffffffffffffe08184030181529190526020810180517bffffffffffffffffffffffffffffffffffffffffffffffffffffffff167fffffffff000000000000000000000000000000000000000000000000000000009093169290921790915290505f61069c87876110aa565b6040516020016106ae91815260200190565b6040516020818303038152906040528060200190518101906106d09190611ab7565b90506106dd8185846110b9565b6040517f4f95203300000000000000000000000000000000000000000000000000000000815260040161071091906119ba565b60405180910390fd5b60148151036107355761072b81611ad2565b60601c925061074c565b808060200190518101906107499190611ab7565b92505b509250929050565b5f61075f8383611114565b90505b92915050565b3330146107a3576040517f5950c85e000000000000000000000000000000000000000000000000000000008152336004820152602401610710565b3415610860576040517fa9059cbb00000000000000000000000000000000000000000000000000000000815273ffffffffffffffffffffffffffffffffffffffff82811660048301523460248301527f0000000000000000000000000000000000000000000000000000000000000000169063a9059cbb906044016020604051808303815f875af115801561083a573d5f803e3d5ffd5b505050506040513d601f19601f8201168201806040525081019061085e9190611b21565b505b50565b60603330146108a0576040517f5950c85e000000000000000000000000000000000000000000000000000000008152336004820152602401610710565b5f82900361094b576040516020016109359060208082526049908201527f4572726f723a204e6f74206c6f676963206261736564202d206d616c666f726d60408201527f6564207265636569766572206164647265737320776974682061206e6f6e2d6560608201527f766d2073656e6465720000000000000000000000000000000000000000000000608082015260a00190565b6040516020818303038152906040529050610762565b5f6109598360448187611b3c565b8080601f0160208091040260200160405190810160405280939291908181526020018383808284375f9201829052508451949550936109a5935085016020908101925085019050611c5c565b602081015190915015610ae157805160208201516040517fa9059cbb00000000000000000000000000000000000000000000000000000000815273ffffffffffffffffffffffffffffffffffffffff7f0000000000000000000000000000000000000000000000000000000000000000169263a9059cbb92610a4a9260040173ffffffffffffffffffffffffffffffffffffffff929092168252602082015260400190565b6020604051808303815f875af1158015610a66573d5f803e3d5ffd5b505050506040513d601f19601f82011682018060405250810190610a8a9190611b21565b5080516020808301516040805173ffffffffffffffffffffffffffffffffffffffff9094168452918301527faed2da31f162a342bd2c99e78fb299cbff19be89edb8d17ff85c1fcdaca36c0d910160405180910390a15b80516040517f8483bc0000000000000000000000000000000000000000000000000000000000815273ffffffffffffffffffffffffffffffffffffffff90911660048201523090638483bc009034906024015f604051808303818588803b158015610b4a575f80fd5b505af193505050508015610b5c575060015b610bb25780516040805173ffffffffffffffffffffffffffffffffffffffff90921682523460208301527f72a191be6ba70d88d380ca4e8c0017e7bb8ebd309c702db61488c949c71ba53b910160405180910390a15b60400151949350505050565b7f000000000000000000000000000000000000000000000000000000000000000073ffffffffffffffffffffffffffffffffffffffff163314610c6b576040517fefa9309d00000000000000000000000000000000000000000000000000000000815273ffffffffffffffffffffffffffffffffffffffff7f0000000000000000000000000000000000000000000000000000000000000000166004820152336024820152604401610710565b8673ffffffffffffffffffffffffffffffffffffffff167f000000000000000000000000000000000000000000000000000000000000000073ffffffffffffffffffffffffffffffffffffffff1614610d30576040517f86fee0c000000000000000000000000000000000000000000000000000000000815273ffffffffffffffffffffffffffffffffffffffff7f00000000000000000000000000000000000000000000000000000000000000008116600483015288166024820152604401610710565b6040517f233449e70000000000000000000000000000000000000000000000000000000081525f908190309063233449e790610d72908a908a90600401611ce1565b6040805180830381865afa925050508015610dc8575060408051601f3d9081017fffffffffffffffffffffffffffffffffffffffffffffffffffffffffffffffe0168201909252610dc591810190611d2d565b60015b610edb573d808015610df5576040519150601f19603f3d011682016040523d82523d5f602084013e610dfa565b606091505b506040517faa1a835d0000000000000000000000000000000000000000000000000000000081525f90309063aa1a835d90610e399085906004016119ba565b5f604051808303815f875af1158015610e54573d5f803e3d5ffd5b505050506040513d5f823e601f3d9081017fffffffffffffffffffffffffffffffffffffffffffffffffffffffffffffffe0168201604052610e999190810190611d59565b90507fa5f6a3bffb159077e65134235dcdd11da0b85000643e13a5e664a416442c0ec381604051610eca91906119ba565b60405180910390a150505050610efd565b90925090503415610ef057610ef08234611256565b610efa82826114ab565b50505b50505050505050565b610f3160405180606001604052805f81526020015f81526020015f67ffffffffffffffff1681525090565b604080516060810182525f80825260208201819052918101829052908315610fc557604080516060810182525f5473ffffffffffffffffffffffffffffffffffffffff811680835267ffffffffffffffff7401000000000000000000000000000000000000000090920482166020840181905260015490921693830193909352909350610fbe9190611114565b9050611034565b6040805160608101825260025473ffffffffffffffffffffffffffffffffffffffff811680835267ffffffffffffffff74010000000000000000000000000000000000000000909204821660208401819052600354909216938301939093529093506110319190611114565b90505b61103f858284611708565b95945050505050565b606061105782604c8186611b3c565b8080601f0160208091040260200160405190810160405280939291908181526020018383808284375f92019190915250929695505050505050565b5f6110a1602c600c8486611b3c565b61075f91611d93565b5f6110a1604c602c8486611b3c565b606060405180606001604052808573ffffffffffffffffffffffffffffffffffffffff168152602001848152602001838152506040516020016110fc9190611dcf565b60405160208183030381529060405290509392505050565b6040805173ffffffffffffffffffffffffffffffffffffffff8416602082015267ffffffffffffffff8316818301528151808203830181526060918201928390525f92839291610801916111689190611e13565b5f60405180830381855afa9150503d805f81146111a0576040519150601f19603f3d011682016040523d82523d5f602084013e6111a5565b606091505b50909250905081611238576040517f08c379a000000000000000000000000000000000000000000000000000000000815260206004820152602260248201527f53706f7442616c616e636520707265636f6d70696c652063616c6c206661696c60448201527f65640000000000000000000000000000000000000000000000000000000000006064820152608401610710565b8080602001905181019061124c9190611e2e565b5195945050505050565b5f611261825f610f06565b60025481516040519293505f9273ffffffffffffffffffffffffffffffffffffffff909216918381818185875af1925050503d805f81146112bd576040519150601f19603f3d011682016040523d82523d5f602084013e6112c2565b606091505b5050905080611300576040517fb7e54a0700000000000000000000000000000000000000000000000000000000815260048101849052602401610710565b60025460408381015190517f0b0ac0ab00000000000000000000000000000000000000000000000000000000815273ffffffffffffffffffffffffffffffffffffffff871660048201527401000000000000000000000000000000000000000090920467ffffffffffffffff908116602484015216604482015273333333333333333333333333333333333333333390630b0ac0ab906064015f604051808303815f87803b1580156113b0575f80fd5b505af11580156113c2573d5f803e3d5ffd5b505050506020820151156114a55760208201516040517f8483bc0000000000000000000000000000000000000000000000000000000000815273ffffffffffffffffffffffffffffffffffffffff861660048201523091638483bc00916024015f604051808303818588803b158015611439575f80fd5b505af19350505050801561144b575060015b6114a5576020808301516040805173ffffffffffffffffffffffffffffffffffffffff88168152928301919091527f72a191be6ba70d88d380ca4e8c0017e7bb8ebd309c702db61488c949c71ba53b910160405180910390a15b50505050565b5f6114b7826001610f06565b5f5481516040517fa9059cbb00000000000000000000000000000000000000000000000000000000815273ffffffffffffffffffffffffffffffffffffffff928316600482015260248101919091529192507f0000000000000000000000000000000000000000000000000000000000000000169063a9059cbb906044016020604051808303815f875af1158015611551573d5f803e3d5ffd5b505050506040513d601f19601f820116820180604052508101906115759190611b21565b505f5460408281015190517f0b0ac0ab00000000000000000000000000000000000000000000000000000000815273ffffffffffffffffffffffffffffffffffffffff861660048201527401000000000000000000000000000000000000000090920467ffffffffffffffff908116602484015216604482015273333333333333333333333333333333333333333390630b0ac0ab906064015f604051808303815f87803b158015611625575f80fd5b505af1158015611637573d5f803e3d5ffd5b505050506020810151156117035760208101516040517fa9059cbb00000000000000000000000000000000000000000000000000000000815273ffffffffffffffffffffffffffffffffffffffff858116600483015260248201929092527f00000000000000000000000000000000000000000000000000000000000000009091169063a9059cbb906044016020604051808303815f875af11580156116df573d5f803e3d5ffd5b505050506040513d601f19601f820116820180604052508101906114a59190611b21565b505050565b61173360405180606001604052805f81526020015f81526020015f67ffffffffffffffff1681525090565b5f8260400151600a6117459190611fc3565b90505f6117528287612005565b90505f61175f8288612018565b90505f61176c848961202b565b90508667ffffffffffffffff168167ffffffffffffffff16111561180d576040805167ffffffffffffffff8084168252891660208201527ff17459c2e89c2b011fa739accb3b853858d0a689d31382b9aa4f56a1ca00f9d3910160405180910390a15f846117da898461203e565b67ffffffffffffffff166117ee9190612066565b88925090506117fd8184612018565b9250611809818561207d565b9350505b60408051606081018252928352602083019390935267ffffffffffffffff169181019190915295945050505050565b5f8083601f84011261184c575f80fd5b50813567ffffffffffffffff811115611863575f80fd5b60208301915083602082850101111561187a575f80fd5b9250929050565b5f8060208385031215611892575f80fd5b823567ffffffffffffffff8111156118a8575f80fd5b6118b48582860161183c565b90969095509350505050565b73ffffffffffffffffffffffffffffffffffffffff81168114610860575f80fd5b67ffffffffffffffff81168114610860575f80fd5b5f8060408385031215611907575f80fd5b8235611912816118c0565b91506020830135611922816118e1565b809150509250929050565b5f6020828403121561193d575f80fd5b8135611948816118c0565b9392505050565b5f5b83811015611969578181015183820152602001611951565b50505f910152565b5f815180845261198881602086016020860161194f565b601f017fffffffffffffffffffffffffffffffffffffffffffffffffffffffffffffffe0169290920160200192915050565b602081525f61075f6020830184611971565b5f805f805f805f60a0888a0312156119e2575f80fd5b87356119ed816118c0565b965060208801359550604088013567ffffffffffffffff80821115611a10575f80fd5b611a1c8b838c0161183c565b909750955060608a01359150611a31826118c0565b90935060808901359080821115611a46575f80fd5b50611a538a828b0161183c565b989b979a50959850939692959293505050565b8015158114610860575f80fd5b5f8060408385031215611a84575f80fd5b82359150602083013561192281611a66565b604081525f611aa86040830185611971565b90508260208301529392505050565b5f60208284031215611ac7575f80fd5b8151611948816118c0565b5f815160208301517fffffffffffffffffffffffffffffffffffffffff00000000000000000000000080821693506014831015611b195780818460140360031b1b83161693505b505050919050565b5f60208284031215611b31575f80fd5b815161194881611a66565b5f8085851115611b4a575f80fd5b83861115611b56575f80fd5b5050820193919092039150565b7f4e487b71000000000000000000000000000000000000000000000000000000005f52604160045260245ffd5b6040516060810167ffffffffffffffff81118282101715611bb357611bb3611b63565b60405290565b5f82601f830112611bc8575f80fd5b815167ffffffffffffffff80821115611be357611be3611b63565b604051601f83017fffffffffffffffffffffffffffffffffffffffffffffffffffffffffffffffe0908116603f01168101908282118183101715611c2957611c29611b63565b81604052838152866020858801011115611c41575f80fd5b611c5284602083016020890161194f565b9695505050505050565b5f60208284031215611c6c575f80fd5b815167ffffffffffffffff80821115611c83575f80fd5b9083019060608286031215611c96575f80fd5b611c9e611b90565b8251611ca9816118c0565b815260208381015190820152604083015182811115611cc6575f80fd5b611cd287828601611bb9565b60408301525095945050505050565b60208152816020820152818360408301375f818301604090810191909152601f9092017fffffffffffffffffffffffffffffffffffffffffffffffffffffffffffffffe0160101919050565b5f8060408385031215611d3e575f80fd5b8251611d49816118c0565b6020939093015192949293505050565b5f60208284031215611d69575f80fd5b815167ffffffffffffffff811115611d7f575f80fd5b611d8b84828501611bb9565b949350505050565b80356020831015610762577fffffffffffffffffffffffffffffffffffffffffffffffffffffffffffffffff602084900360031b1b1692915050565b6020815273ffffffffffffffffffffffffffffffffffffffff8251166020820152602082015160408201525f6040830151606080840152611d8b6080840182611971565b5f8251611e2481846020870161194f565b9190910192915050565b5f60608284031215611e3e575f80fd5b611e46611b90565b8251611e51816118e1565b81526020830151611e61816118e1565b60208201526040830151611e74816118e1565b60408201529392505050565b7f4e487b71000000000000000000000000000000000000000000000000000000005f52601160045260245ffd5b600181815b8085111561074c57817fffffffffffffffffffffffffffffffffffffffffffffffffffffffffffffffff04821115611eec57611eec611e80565b80851615611ef957918102915b93841c9390800290611eb2565b5f82611f1457506001610762565b81611f2057505f610762565b8160018114611f365760028114611f4057611f5c565b6001915050610762565b60ff841115611f5157611f51611e80565b50506001821b610762565b5060208310610133831016604e8410600b8410161715611f7f575081810a610762565b611f898383611ead565b807fffffffffffffffffffffffffffffffffffffffffffffffffffffffffffffffff04821115611fbb57611fbb611e80565b029392505050565b5f61075f67ffffffffffffffff841683611f06565b7f4e487b71000000000000000000000000000000000000000000000000000000005f52601260045260245ffd5b5f8261201357612013611fd8565b500690565b8181038181111561076257610762611e80565b5f8261203957612039611fd8565b500490565b67ffffffffffffffff82811682821603908082111561205f5761205f611e80565b5092915050565b808202811582820484141761076257610762611e80565b8082018082111561076257610762611e8056fea2646970667358221220e6ace3837c80424310d395ba81f39b6b4c5d51bff762bd0b230bde2b0d71bdc064736f6c63430008160033",
    "linkReferences": {}
  },
  "methodIdentifiers": {
    "L1ReadPrecompileAddress_SpotBalance()": "9c719024",
    "L1WritePrecompileAddress()": "55cd1378",
    "VALID_COMPOSE_MESSAGE_LENGTH_ENCODE()": "9278d99a",
    "VALID_COMPOSE_MESSAGE_LENGTH_PACKED()": "807d6c3f",
    "balanceOfHyperCore(address,uint64)": "81e8dcb4",
    "endpoint()": "5e280f11",
    "getHypeAsset()": "aae12e46",
    "getOFTAsset()": "2d0e315c",
    "hypeAsset()": "f6e6b240",
    "lzCompose(address,bytes32,bytes,address,bytes)": "d0a10260",
    "oft()": "9b5215f6",
    "oftAsset()": "765008a1",
    "quoteHyperCoreAmount(uint256,bool)": "f9716faf",
    "refundNativeTokens(address)": "8483bc00",
    "refundTokens(bytes)": "aa1a835d",
    "token()": "fc0c546a",
    "validateAndDecodeMessage(bytes)": "233449e7"
  },
  "id": 0
}