{
  "abi": [
    {
      "type": "constructor",
      "inputs": [
        {
          "name": "_endpoint",
          "type": "address",
          "internalType": "address"
        },
        {
          "name": "_oft",
          "type": "address",
          "internalType": "address"
        },
        {
          "name": "_coreIndexId",
          "type": "uint64",
          "internalType": "uint64"
        },
        {
          "name": "_weiDiff",
          "type": "uint64",
          "internalType": "uint64"
        }
      ],
      "stateMutability": "nonpayable"
    },
    {
      "type": "receive",
      "stateMutability": "payable"
    },
    {
      "type": "function",
      "name": "HLP_PRECOMPILE_READ_SPOT_BALANCE",
      "inputs": [],
      "outputs": [
        {
          "name": "",
          "type": "address",
          "internalType": "address"
        }
      ],
      "stateMutability": "view"
    },
    {
      "type": "function",
      "name": "HLP_PRECOMPILE_WRITE",
      "inputs": [],
      "outputs": [
        {
          "name": "",
          "type": "address",
          "internalType": "address"
        }
      ],
      "stateMutability": "view"
    },
    {
      "type": "function",
      "name": "VALID_COMPOSE_MESSAGE_LENGTH_ENCODE",
      "inputs": [],
      "outputs": [
        {
          "name": "",
          "type": "uint256",
          "internalType": "uint256"
        }
      ],
      "stateMutability": "view"
    },
    {
      "type": "function",
      "name": "VALID_COMPOSE_MESSAGE_LENGTH_PACKED",
      "inputs": [],
      "outputs": [
        {
          "name": "",
          "type": "uint256",
          "internalType": "uint256"
        }
      ],
      "stateMutability": "view"
    },
    {
      "type": "function",
      "name": "balanceOfHyperCore",
      "inputs": [
        {
          "name": "_user",
          "type": "address",
          "internalType": "address"
        },
        {
          "name": "_tokenId",
          "type": "uint64",
          "internalType": "uint64"
        }
      ],
      "outputs": [
        {
          "name": "",
          "type": "uint64",
          "internalType": "uint64"
        }
      ],
      "stateMutability": "view"
    },
    {
      "type": "function",
      "name": "endpoint",
      "inputs": [],
      "outputs": [
        {
          "name": "",
          "type": "address",
          "internalType": "address"
        }
      ],
      "stateMutability": "view"
    },
    {
      "type": "function",
      "name": "getHypeAsset",
      "inputs": [],
      "outputs": [
        {
          "name": "",
          "type": "tuple",
          "internalType": "struct IHyperAsset",
          "components": [
            {
              "name": "assetBridgeAddress",
              "type": "address",
              "internalType": "address"
            },
            {
              "name": "coreIndexId",
              "type": "uint64",
              "internalType": "uint64"
            },
            {
              "name": "decimalDiff",
              "type": "uint64",
              "internalType": "uint64"
            }
          ]
        }
      ],
      "stateMutability": "view"
    },
    {
      "type": "function",
      "name": "getOFTAsset",
      "inputs": [],
      "outputs": [
        {
          "name": "",
          "type": "tuple",
          "internalType": "struct IHyperAsset",
          "components": [
            {
              "name": "assetBridgeAddress",
              "type": "address",
              "internalType": "address"
            },
            {
              "name": "coreIndexId",
              "type": "uint64",
              "internalType": "uint64"
            },
            {
              "name": "decimalDiff",
              "type": "uint64",
              "internalType": "uint64"
            }
          ]
        }
      ],
      "stateMutability": "view"
    },
    {
      "type": "function",
      "name": "hypeAsset",
      "inputs": [],
      "outputs": [
        {
          "name": "assetBridgeAddress",
          "type": "address",
          "internalType": "address"
        },
        {
          "name": "coreIndexId",
          "type": "uint64",
          "internalType": "uint64"
        },
        {
          "name": "decimalDiff",
          "type": "uint64",
          "internalType": "uint64"
        }
      ],
      "stateMutability": "view"
    },
    {
      "type": "function",
      "name": "lzCompose",
      "inputs": [
        {
          "name": "_oft",
          "type": "address",
          "internalType": "address"
        },
        {
          "name": "",
          "type": "bytes32",
          "internalType": "bytes32"
        },
        {
          "name": "_message",
          "type": "bytes",
          "internalType": "bytes"
        },
        {
          "name": "",
          "type": "address",
          "internalType": "address"
        },
        {
          "name": "",
          "type": "bytes",
          "internalType": "bytes"
        }
      ],
      "outputs": [],
      "stateMutability": "payable"
    },
    {
      "type": "function",
      "name": "oft",
      "inputs": [],
      "outputs": [
        {
          "name": "",
          "type": "address",
          "internalType": "contract IOFT"
        }
      ],
      "stateMutability": "view"
    },
    {
      "type": "function",
      "name": "oftAsset",
      "inputs": [],
      "outputs": [
        {
          "name": "assetBridgeAddress",
          "type": "address",
          "internalType": "address"
        },
        {
          "name": "coreIndexId",
          "type": "uint64",
          "internalType": "uint64"
        },
        {
          "name": "decimalDiff",
          "type": "uint64",
          "internalType": "uint64"
        }
      ],
      "stateMutability": "view"
    },
    {
      "type": "function",
      "name": "quoteHyperCoreAmount",
      "inputs": [
        {
          "name": "_amount",
          "type": "uint256",
          "internalType": "uint256"
        },
        {
          "name": "_isOFT",
          "type": "bool",
          "internalType": "bool"
        }
      ],
      "outputs": [
        {
          "name": "",
          "type": "tuple",
          "internalType": "struct IHyperAssetAmount",
          "components": [
            {
              "name": "evm",
              "type": "uint256",
              "internalType": "uint256"
            },
            {
              "name": "dust",
              "type": "uint256",
              "internalType": "uint256"
            },
            {
              "name": "core",
              "type": "uint64",
              "internalType": "uint64"
            }
          ]
        }
      ],
      "stateMutability": "nonpayable"
    },
    {
      "type": "function",
      "name": "refundERC20",
      "inputs": [
        {
          "name": "_refundAddress",
          "type": "address",
          "internalType": "address"
        },
        {
          "name": "_amount",
          "type": "uint256",
          "internalType": "uint256"
        }
      ],
      "outputs": [],
      "stateMutability": "payable"
    },
    {
      "type": "function",
      "name": "refundNativeTokens",
      "inputs": [
        {
          "name": "_refundAddress",
          "type": "address",
          "internalType": "address"
        }
      ],
      "outputs": [],
      "stateMutability": "payable"
    },
    {
      "type": "function",
      "name": "token",
      "inputs": [],
      "outputs": [
        {
          "name": "",
          "type": "address",
          "internalType": "contract IERC20"
        }
      ],
      "stateMutability": "view"
    },
    {
      "type": "function",
      "name": "validate_addresses_or_refund",
      "inputs": [
        {
          "name": "_maybeReceiver",
          "type": "bytes",
          "internalType": "bytes"
        },
        {
          "name": "_senderBytes32",
          "type": "bytes32",
          "internalType": "bytes32"
        },
        {
          "name": "_amountLD",
          "type": "uint256",
          "internalType": "uint256"
        }
      ],
      "outputs": [
        {
          "name": "",
          "type": "address",
          "internalType": "address"
        }
      ],
      "stateMutability": "pure"
    },
    {
      "type": "function",
      "name": "validate_payload",
      "inputs": [
        {
          "name": "_composeMessage",
          "type": "bytes",
          "internalType": "bytes"
        }
      ],
      "outputs": [
        {
          "name": "",
          "type": "uint256",
          "internalType": "uint256"
        },
        {
          "name": "",
          "type": "bytes32",
          "internalType": "bytes32"
        },
        {
          "name": "",
          "type": "bytes",
          "internalType": "bytes"
        }
      ],
      "stateMutability": "pure"
    },
    {
      "type": "event",
      "name": "ErrorERC20_Refund",
      "inputs": [
        {
          "name": "refundTo",
          "type": "address",
          "indexed": false,
          "internalType": "address"
        },
        {
          "name": "refundAmount",
          "type": "uint256",
          "indexed": false,
          "internalType": "uint256"
        }
      ],
      "anonymous": false
    },
    {
      "type": "event",
      "name": "ErrorHYPE_Refund",
      "inputs": [
        {
          "name": "refundTo",
          "type": "address",
          "indexed": false,
          "internalType": "address"
        },
        {
          "name": "refundAmount",
          "type": "uint256",
          "indexed": false,
          "internalType": "uint256"
        }
      ],
      "anonymous": false
    },
    {
      "type": "event",
      "name": "ErrorMessage",
      "inputs": [
        {
          "name": "reason",
          "type": "bytes",
          "indexed": false,
          "internalType": "bytes"
        }
      ],
      "anonymous": false
    },
    {
      "type": "event",
      "name": "OverflowDetected",
      "inputs": [
        {
          "name": "amountCore",
          "type": "uint64",
          "indexed": false,
          "internalType": "uint64"
        },
        {
          "name": "maxTransferableAmount",
          "type": "uint64",
          "indexed": false,
          "internalType": "uint64"
        }
      ],
      "anonymous": false
    },
    {
      "type": "error",
      "name": "ErrorMsg",
      "inputs": [
        {
          "name": "errorMessage",
          "type": "bytes",
          "internalType": "bytes"
        }
      ]
    },
    {
      "type": "error",
      "name": "HyperLiquidComposerCore_SpotBalanceRead_Failed",
      "inputs": [
        {
          "name": "user",
          "type": "address",
          "internalType": "address"
        },
        {
          "name": "tokenId",
          "type": "uint64",
          "internalType": "uint64"
        }
      ]
    },
    {
      "type": "error",
      "name": "HyperLiquidComposer_FailedToRefund_HYPE",
      "inputs": [
        {
          "name": "to",
          "type": "address",
          "internalType": "address"
        },
        {
          "name": "amount",
          "type": "uint256",
          "internalType": "uint256"
        }
      ]
    },
    {
      "type": "error",
      "name": "ErrorMsg",
      "inputs": [
        {
          "name": "errorMessage",
          "type": "bytes",
          "internalType": "bytes"
        }
      ]
    },
    {
      "type": "error",
      "name": "HyperLiquidComposer_FailedToSend_HYPE",
      "inputs": [
        {
          "name": "amount",
          "type": "uint256",
          "internalType": "uint256"
        }
      ]
    },
    {
      "type": "error",
      "name": "HyperLiquidComposer_InvalidCall_NotComposer",
      "inputs": [
        {
          "name": "notComposerAddress",
          "type": "address",
          "internalType": "address"
        }
      ]
    },
    {
      "type": "error",
      "name": "HyperLiquidComposer_InvalidCall_NotEndpoint",
      "inputs": [
        {
          "name": "notEndpointAddress",
          "type": "address",
          "internalType": "address"
        },
        {
          "name": "expectedEndpointAddress",
          "type": "address",
          "internalType": "address"
        }
      ]
    },
    {
      "type": "error",
      "name": "HyperLiquidComposer_InvalidCall_NotOFT",
      "inputs": [
        {
          "name": "internalOFTAddress",
          "type": "address",
          "internalType": "address"
        },
        {
          "name": "receivedOFTAddress",
          "type": "address",
          "internalType": "address"
        }
      ]
    },
    {
      "type": "error",
      "name": "HyperLiquidComposer_InvalidComposeMessage",
      "inputs": [
        {
          "name": "errorMessage",
          "type": "bytes",
          "internalType": "bytes"
        }
      ]
    }
  ],
  "bytecode": {
    "object": "0x60e060405234801562000010575f80fd5b506040516200360538038062003605833981810160405281019062000036919062000438565b60405180606001604052806200005c8467ffffffffffffffff166200035160201b60201c565b73ffffffffffffffffffffffffffffffffffffffff1681526020018367ffffffffffffffff1681526020018267ffffffffffffffff168152505f80820151815f015f6101000a81548173ffffffffffffffffffffffffffffffffffffffff021916908373ffffffffffffffffffffffffffffffffffffffff1602179055506020820151815f0160146101000a81548167ffffffffffffffff021916908367ffffffffffffffff1602179055506040820151816001015f6101000a81548167ffffffffffffffff021916908367ffffffffffffffff160217905550905050604051806060016040528073222222222222222222222222222222222222222273ffffffffffffffffffffffffffffffffffffffff16815260200161045167ffffffffffffffff168152602001600a67ffffffffffffffff1681525060025f820151815f015f6101000a81548173ffffffffffffffffffffffffffffffffffffffff021916908373ffffffffffffffffffffffffffffffffffffffff1602179055506020820151815f0160146101000a81548167ffffffffffffffff021916908367ffffffffffffffff1602179055506040820151816001015f6101000a81548167ffffffffffffffff021916908367ffffffffffffffff1602179055509050508273ffffffffffffffffffffffffffffffffffffffff1660a08173ffffffffffffffffffffffffffffffffffffffff168152505060a05173ffffffffffffffffffffffffffffffffffffffff1663fc0c546a6040518163ffffffff1660e01b8152600401602060405180830381865afa158015620002ba573d5f803e3d5ffd5b505050506040513d601f19601f82011682018060405250810190620002e09190620004a7565b73ffffffffffffffffffffffffffffffffffffffff1660c08173ffffffffffffffffffffffffffffffffffffffff16815250508373ffffffffffffffffffffffffffffffffffffffff1660808173ffffffffffffffffffffffffffffffffffffffff16815250505050505062000547565b5f8173200000000000000000000000000000000000000073ffffffffffffffffffffffffffffffffffffffff166200038a91906200050d565b9050919050565b5f80fd5b5f73ffffffffffffffffffffffffffffffffffffffff82169050919050565b5f620003c08262000395565b9050919050565b620003d281620003b4565b8114620003dd575f80fd5b50565b5f81519050620003f081620003c7565b92915050565b5f67ffffffffffffffff82169050919050565b6200041481620003f6565b81146200041f575f80fd5b50565b5f81519050620004328162000409565b92915050565b5f805f806080858703121562000453576200045262000391565b5b5f6200046287828801620003e0565b94505060206200047587828801620003e0565b9350506040620004888782880162000422565b92505060606200049b8782880162000422565b91505092959194509250565b5f60208284031215620004bf57620004be62000391565b5b5f620004ce84828501620003e0565b91505092915050565b5f819050919050565b7f4e487b71000000000000000000000000000000000000000000000000000000005f52601160045260245ffd5b5f6200051982620004d7565b91506200052683620004d7565b9250828201905080821115620005415762000540620004e0565b5b92915050565b60805160a05160c051613062620005a35f395f8181610dae015281816110fc015281816119600152611ac601525f818161086701528181610a2a0152610a6601525f81816106630152818161097801526109b401526130625ff3fe60806040526004361061010c575f3560e01c80639b5215f611610094578063dd85007511610063578063dd85007514610357578063ebaeefd614610381578063f6e6b2401461039d578063f9716faf146103c9578063fc0c546a1461040557610113565b80639b5215f6146102bd578063aae12e46146102e7578063ba87267914610311578063d0a102601461033b57610113565b8063765008a1116100db578063765008a1146101e5578063807d6c3f1461021157806381e8dcb41461023b5780638483bc00146102775780639278d99a1461029357610113565b80631b224831146101175780632d0e315c146101555780635241b4961461017f5780635e280f11146101bb57610113565b3661011357005b5f80fd5b348015610122575f80fd5b5061013d60048036038101906101389190611d5d565b61042f565b60405161014c93929190611e62565b60405180910390f35b348015610160575f80fd5b5061016961046d565b6040516101769190611f3f565b60405180910390f35b34801561018a575f80fd5b506101a560048036038101906101a091906120d4565b61053c565b6040516101b2919061214f565b60405180910390f35b3480156101c6575f80fd5b506101cf610661565b6040516101dc919061214f565b60405180910390f35b3480156101f0575f80fd5b506101f9610685565b60405161020893929190612177565b60405180910390f35b34801561021c575f80fd5b506102256106e0565b60405161023291906121ac565b60405180910390f35b348015610246575f80fd5b50610261600480360381019061025c9190612219565b6106e5565b60405161026e9190612257565b60405180910390f35b610291600480360381019061028c9190612270565b6106f8565b005b34801561029e575f80fd5b506102a7610860565b6040516102b491906121ac565b60405180910390f35b3480156102c8575f80fd5b506102d1610865565b6040516102de91906122f6565b60405180910390f35b3480156102f2575f80fd5b506102fb610889565b6040516103089190611f3f565b60405180910390f35b34801561031c575f80fd5b50610325610959565b604051610332919061214f565b60405180910390f35b6103556004803603810190610350919061230f565b61095f565b005b348015610362575f80fd5b5061036b610ce4565b604051610378919061214f565b60405180910390f35b61039b600480360381019061039691906123c6565b610cfc565b005b3480156103a8575f80fd5b506103b1610e4d565b6040516103c093929190612177565b60405180910390f35b3480156103d4575f80fd5b506103ef60048036038101906103ea9190612439565b610ea9565b6040516103fc91906124c6565b60405180910390f35b348015610410575f80fd5b506104196110fa565b60405161042691906124ff565b60405180910390f35b5f8060605f61043e868661111e565b90505f61044b878761114e565b90505f610458888861117c565b90508282829550955095505050509250925092565b610475611c7b565b5f6040518060600160405290815f82015f9054906101000a900473ffffffffffffffffffffffffffffffffffffffff1673ffffffffffffffffffffffffffffffffffffffff1673ffffffffffffffffffffffffffffffffffffffff1681526020015f820160149054906101000a900467ffffffffffffffff1667ffffffffffffffff1667ffffffffffffffff168152602001600182015f9054906101000a900467ffffffffffffffff1667ffffffffffffffff1667ffffffffffffffff1681525050905090565b5f80610547846111de565b90505f61055386611215565b90505f73ffffffffffffffffffffffffffffffffffffffff168173ffffffffffffffffffffffffffffffffffffffff1603610655575f6309b3473160e01b8788516040516024016105a5929190612518565b604051602081830303815290604052907bffffffffffffffffffffffffffffffffffffffffffffffffffffffff19166020820180517bffffffffffffffffffffffffffffffffffffffffffffffffffffffff838183161783525050505090506106198386836112699092919063ffffffff16565b6040517f4f95203300000000000000000000000000000000000000000000000000000000815260040161064c9190612546565b60405180910390fd5b80925050509392505050565b7f000000000000000000000000000000000000000000000000000000000000000081565b5f805f015f9054906101000a900473ffffffffffffffffffffffffffffffffffffffff1690805f0160149054906101000a900467ffffffffffffffff1690806001015f9054906101000a900467ffffffffffffffff16905083565b601481565b5f6106f083836112c4565b905092915050565b3073ffffffffffffffffffffffffffffffffffffffff163373ffffffffffffffffffffffffffffffffffffffff161461076857336040517f5950c85e00000000000000000000000000000000000000000000000000000000815260040161075f919061214f565b60405180910390fd5b5f34111561085d575f8073ffffffffffffffffffffffffffffffffffffffff168273ffffffffffffffffffffffffffffffffffffffff16146107aa57816107ac565b325b90505f8173ffffffffffffffffffffffffffffffffffffffff16346040516107d390612593565b5f6040518083038185875af1925050503d805f811461080d576040519150601f19603f3d011682016040523d82523d5f602084013e610812565b606091505b505090508061085a5781346040517fc8ee485e0000000000000000000000000000000000000000000000000000000081526004016108519291906125a7565b60405180910390fd5b50505b50565b602081565b7f000000000000000000000000000000000000000000000000000000000000000081565b610891611c7b565b60026040518060600160405290815f82015f9054906101000a900473ffffffffffffffffffffffffffffffffffffffff1673ffffffffffffffffffffffffffffffffffffffff1673ffffffffffffffffffffffffffffffffffffffff1681526020015f820160149054906101000a900467ffffffffffffffff1667ffffffffffffffff1667ffffffffffffffff168152602001600182015f9054906101000a900467ffffffffffffffff1667ffffffffffffffff1667ffffffffffffffff1681525050905090565b61080181565b3373ffffffffffffffffffffffffffffffffffffffff167f000000000000000000000000000000000000000000000000000000000000000073ffffffffffffffffffffffffffffffffffffffff1614610a11577f0000000000000000000000000000000000000000000000000000000000000000336040517fefa9309d000000000000000000000000000000000000000000000000000000008152600401610a089291906125ce565b60405180910390fd5b8673ffffffffffffffffffffffffffffffffffffffff167f000000000000000000000000000000000000000000000000000000000000000073ffffffffffffffffffffffffffffffffffffffff1614610ac3577f0000000000000000000000000000000000000000000000000000000000000000876040517f86fee0c0000000000000000000000000000000000000000000000000000000008152600401610aba9291906125ce565b60405180910390fd5b5f805f60603073ffffffffffffffffffffffffffffffffffffffff16631b2248318a8a6040518363ffffffff1660e01b8152600401610b03929190612621565b5f60405180830381865afa925050508015610b4057506040513d5f823e3d601f19601f82011682018060405250810190610b3d91906126d9565b60015b610bb0573d805f8114610b6e576040519150601f19603f3d011682016040523d82523d5f602084013e610b73565b606091505b50806040517ed4895a000000000000000000000000000000000000000000000000000000008152600401610ba79190612546565b60405180910390fd5b8295508194508093505050503073ffffffffffffffffffffffffffffffffffffffff16635241b4968284866040518463ffffffff1660e01b8152600401610bf993929190612745565b602060405180830381865afa925050508015610c3357506040513d601f19601f82011682018060405250810190610c309190612795565b60015b610cb5573d805f8114610c61576040519150601f19603f3d011682016040523d82523d5f602084013e610c66565b606091505b505f610c71826113bb565b90507f612baef0082f9abcf6dc7b491d75346418381b75756830d7029939026d1b46b981604051610ca29190612546565b60405180910390a1505050505050610cdb565b809450505f341115610ccc57610ccb8434611668565b5b610cd68484611950565b505050505b50505050505050565b73333333333333333333333333333333333333333381565b3073ffffffffffffffffffffffffffffffffffffffff163373ffffffffffffffffffffffffffffffffffffffff1614610d6c57336040517f5950c85e000000000000000000000000000000000000000000000000000000008152600401610d63919061214f565b60405180910390fd5b5f81118015610da757505f73ffffffffffffffffffffffffffffffffffffffff168273ffffffffffffffffffffffffffffffffffffffff1614155b15610e49577f000000000000000000000000000000000000000000000000000000000000000073ffffffffffffffffffffffffffffffffffffffff1663a9059cbb83836040518363ffffffff1660e01b8152600401610e079291906125a7565b6020604051808303815f875af1158015610e23573d5f803e3d5ffd5b505050506040513d601f19601f82011682018060405250810190610e4791906127d4565b505b5050565b6002805f015f9054906101000a900473ffffffffffffffffffffffffffffffffffffffff1690805f0160149054906101000a900467ffffffffffffffff1690806001015f9054906101000a900467ffffffffffffffff16905083565b610eb1611cc3565b610eb9611c7b565b5f8315610fce575f6040518060600160405290815f82015f9054906101000a900473ffffffffffffffffffffffffffffffffffffffff1673ffffffffffffffffffffffffffffffffffffffff1673ffffffffffffffffffffffffffffffffffffffff1681526020015f820160149054906101000a900467ffffffffffffffff1667ffffffffffffffff1667ffffffffffffffff168152602001600182015f9054906101000a900467ffffffffffffffff1667ffffffffffffffff1667ffffffffffffffff16815250509150610fc75f80015f9054906101000a900473ffffffffffffffffffffffffffffffffffffffff165f800160149054906101000a900467ffffffffffffffff166112c4565b90506110db565b60026040518060600160405290815f82015f9054906101000a900473ffffffffffffffffffffffffffffffffffffffff1673ffffffffffffffffffffffffffffffffffffffff1673ffffffffffffffffffffffffffffffffffffffff1681526020015f820160149054906101000a900467ffffffffffffffff1667ffffffffffffffff1667ffffffffffffffff168152602001600182015f9054906101000a900467ffffffffffffffff1667ffffffffffffffff1667ffffffffffffffff168152505091506110d860025f015f9054906101000a900473ffffffffffffffffffffffffffffffffffffffff1660025f0160149054906101000a900467ffffffffffffffff166112c4565b90505b6110f0818387611b6a9092919063ffffffff16565b9250505092915050565b7f000000000000000000000000000000000000000000000000000000000000000081565b5f8282600c60ff1690602c60ff169261113993929190612807565b906111449190612857565b5f1c905092915050565b5f8282602c60ff1690604c60ff169261116993929190612807565b906111749190612857565b905092915050565b60608282604c60ff1690809261119493929190612807565b8080601f0160208091040260200160405190810160405280939291908181526020018383808284375f81840152601f19601f82011690508083019250505050505050905092915050565b5f80825f1c905073ffffffffffffffffffffffffffffffffffffffff8016811161120b5780915050611210565b5f9150505b919050565b5f808251905060148103611238578261122d90612903565b60601c915050611264565b6020810361125f575f8361124b9061297d565b9050611256816111de565b92505050611264565b5f9150505b919050565b606060405180606001604052808473ffffffffffffffffffffffffffffffffffffffff168152602001838152602001858152506040516020016112ac9190612a78565b60405160208183030381529060405290509392505050565b5f80606061080173ffffffffffffffffffffffffffffffffffffffff1685856040516020016112f4929190612a98565b6040516020818303038152906040526040516113109190612aef565b5f60405180830381855afa9150503d805f8114611348576040519150601f19603f3d011682016040523d82523d5f602084013e61134d565b606091505b5080925081935050508161139a5784846040517fa91ed721000000000000000000000000000000000000000000000000000000008152600401611391929190612a98565b60405180910390fd5b808060200190518101906113ae9190612b82565b5f01519250505092915050565b60605f8273__$583e42a4fcd29c5c863b44cd876f1d3349$__63a405952790916040518263ffffffff1660e01b81526004016113f79190612bf5565b5f60405180830381865af4158015611411573d5f803e3d5ffd5b505050506040513d5f823e3d601f19601f820116820180604052508101906114399190612c15565b90505f818060200190518101906114509190612cd9565b90503073ffffffffffffffffffffffffffffffffffffffff1663ebaeefd6825f015183602001516040518363ffffffff1660e01b81526004016114949291906125a7565b5f604051808303815f87803b1580156114ab575f80fd5b505af19250505080156114bc575060015b611505577feb907f6e0de6862ca2ced78e890a55c5e8352dc4051697356bc835abf7cedcac815f015182602001516040516114f89291906125a7565b60405180910390a1611506565b5b3073ffffffffffffffffffffffffffffffffffffffff16638483bc0034835f01516040518363ffffffff1660e01b8152600401611543919061214f565b5f604051808303818588803b15801561155a575f80fd5b505af19350505050801561156c575060015b611659575f3273ffffffffffffffffffffffffffffffffffffffff163460405161159590612593565b5f6040518083038185875af1925050503d805f81146115cf576040519150601f19603f3d011682016040523d82523d5f602084013e6115d4565b606091505b5050905080611617577f0b0fd82e76ce2ddfcaf289bd460de0980c71a02674dbe00c04e45dfc44e9d577323460405161160e9291906125a7565b60405180910390a15b7f0b0fd82e76ce2ddfcaf289bd460de0980c71a02674dbe00c04e45dfc44e9d577825f01513460405161164b9291906125a7565b60405180910390a15061165a565b5b806040015192505050919050565b5f611673825f610ea9565b90505f60025f015f9054906101000a900473ffffffffffffffffffffffffffffffffffffffff1673ffffffffffffffffffffffffffffffffffffffff16825f01516040516116c090612593565b5f6040518083038185875af1925050503d805f81146116fa576040519150601f19603f3d011682016040523d82523d5f602084013e6116ff565b606091505b505090508061174557826040517fb7e54a0700000000000000000000000000000000000000000000000000000000815260040161173c91906121ac565b60405180910390fd5b73333333333333333333333333333333333333333373ffffffffffffffffffffffffffffffffffffffff16630b0ac0ab8560025f0160149054906101000a900467ffffffffffffffff1685604001516040518463ffffffff1660e01b81526004016117b293929190612177565b5f604051808303815f87803b1580156117c9575f80fd5b505af11580156117db573d5f803e3d5ffd5b505050505f8260200151111561194a573073ffffffffffffffffffffffffffffffffffffffff16638483bc008360200151866040518363ffffffff1660e01b8152600401611829919061214f565b5f604051808303818588803b158015611840575f80fd5b505af193505050508015611852575060015b611948573273ffffffffffffffffffffffffffffffffffffffff16826020015160405161187e90612593565b5f6040518083038185875af1925050503d805f81146118b8576040519150601f19603f3d011682016040523d82523d5f602084013e6118bd565b606091505b50508091505080611906577f0b0fd82e76ce2ddfcaf289bd460de0980c71a02674dbe00c04e45dfc44e9d5773283602001516040516118fd9291906125a7565b60405180910390a15b7f0b0fd82e76ce2ddfcaf289bd460de0980c71a02674dbe00c04e45dfc44e9d57784836020015160405161193b9291906125a7565b60405180910390a1611949565b5b5b50505050565b5f61195c826001610ea9565b90507f000000000000000000000000000000000000000000000000000000000000000073ffffffffffffffffffffffffffffffffffffffff1663a9059cbb5f80015f9054906101000a900473ffffffffffffffffffffffffffffffffffffffff16835f01516040518363ffffffff1660e01b81526004016119de9291906125a7565b6020604051808303815f875af11580156119fa573d5f803e3d5ffd5b505050506040513d601f19601f82011682018060405250810190611a1e91906127d4565b5073333333333333333333333333333333333333333373ffffffffffffffffffffffffffffffffffffffff16630b0ac0ab845f800160149054906101000a900467ffffffffffffffff1684604001516040518463ffffffff1660e01b8152600401611a8b93929190612177565b5f604051808303815f87803b158015611aa2575f80fd5b505af1158015611ab4573d5f803e3d5ffd5b505050505f81602001511115611b65577f000000000000000000000000000000000000000000000000000000000000000073ffffffffffffffffffffffffffffffffffffffff1663a9059cbb8483602001516040518363ffffffff1660e01b8152600401611b239291906125a7565b6020604051808303815f875af1158015611b3f573d5f803e3d5ffd5b505050506040513d601f19601f82011682018060405250810190611b6391906127d4565b505b505050565b611b72611cc3565b5f8260400151600a611b849190612e7c565b90505f80828781611b9857611b97612ec6565b5b06915081870390505f8388611bad9190612ef3565b90508667ffffffffffffffff168167ffffffffffffffff161115611c49577ff17459c2e89c2b011fa739accb3b853858d0a689d31382b9aa4f56a1ca00f9d38188604051611bfc929190612f23565b60405180910390a15f848883611c129190612f4a565b67ffffffffffffffff16611c269190612f85565b90508791508083611c379190612fc6565b92508084611c459190612ff9565b9350505b60405180606001604052808381526020018481526020018267ffffffffffffffff168152509450505050509392505050565b60405180606001604052805f73ffffffffffffffffffffffffffffffffffffffff1681526020015f67ffffffffffffffff1681526020015f67ffffffffffffffff1681525090565b60405180606001604052805f81526020015f81526020015f67ffffffffffffffff1681525090565b5f604051905090565b5f80fd5b5f80fd5b5f80fd5b5f80fd5b5f80fd5b5f8083601f840112611d1d57611d1c611cfc565b5b8235905067ffffffffffffffff811115611d3a57611d39611d00565b5b602083019150836001820283011115611d5657611d55611d04565b5b9250929050565b5f8060208385031215611d7357611d72611cf4565b5b5f83013567ffffffffffffffff811115611d9057611d8f611cf8565b5b611d9c85828601611d08565b92509250509250929050565b5f819050919050565b611dba81611da8565b82525050565b5f819050919050565b611dd281611dc0565b82525050565b5f81519050919050565b5f82825260208201905092915050565b5f5b83811015611e0f578082015181840152602081019050611df4565b5f8484015250505050565b5f601f19601f8301169050919050565b5f611e3482611dd8565b611e3e8185611de2565b9350611e4e818560208601611df2565b611e5781611e1a565b840191505092915050565b5f606082019050611e755f830186611db1565b611e826020830185611dc9565b8181036040830152611e948184611e2a565b9050949350505050565b5f73ffffffffffffffffffffffffffffffffffffffff82169050919050565b5f611ec782611e9e565b9050919050565b611ed781611ebd565b82525050565b5f67ffffffffffffffff82169050919050565b611ef981611edd565b82525050565b606082015f820151611f135f850182611ece565b506020820151611f266020850182611ef0565b506040820151611f396040850182611ef0565b50505050565b5f606082019050611f525f830184611eff565b92915050565b5f80fd5b7f4e487b71000000000000000000000000000000000000000000000000000000005f52604160045260245ffd5b611f9282611e1a565b810181811067ffffffffffffffff82111715611fb157611fb0611f5c565b5b80604052505050565b5f611fc3611ceb565b9050611fcf8282611f89565b919050565b5f67ffffffffffffffff821115611fee57611fed611f5c565b5b611ff782611e1a565b9050602081019050919050565b828183375f83830152505050565b5f61202461201f84611fd4565b611fba565b9050828152602081018484840111156120405761203f611f58565b5b61204b848285612004565b509392505050565b5f82601f83011261206757612066611cfc565b5b8135612077848260208601612012565b91505092915050565b61208981611dc0565b8114612093575f80fd5b50565b5f813590506120a481612080565b92915050565b6120b381611da8565b81146120bd575f80fd5b50565b5f813590506120ce816120aa565b92915050565b5f805f606084860312156120eb576120ea611cf4565b5b5f84013567ffffffffffffffff81111561210857612107611cf8565b5b61211486828701612053565b935050602061212586828701612096565b9250506040612136868287016120c0565b9150509250925092565b61214981611ebd565b82525050565b5f6020820190506121625f830184612140565b92915050565b61217181611edd565b82525050565b5f60608201905061218a5f830186612140565b6121976020830185612168565b6121a46040830184612168565b949350505050565b5f6020820190506121bf5f830184611db1565b92915050565b6121ce81611ebd565b81146121d8575f80fd5b50565b5f813590506121e9816121c5565b92915050565b6121f881611edd565b8114612202575f80fd5b50565b5f81359050612213816121ef565b92915050565b5f806040838503121561222f5761222e611cf4565b5b5f61223c858286016121db565b925050602061224d85828601612205565b9150509250929050565b5f60208201905061226a5f830184612168565b92915050565b5f6020828403121561228557612284611cf4565b5b5f612292848285016121db565b91505092915050565b5f819050919050565b5f6122be6122b96122b484611e9e565b61229b565b611e9e565b9050919050565b5f6122cf826122a4565b9050919050565b5f6122e0826122c5565b9050919050565b6122f0816122d6565b82525050565b5f6020820190506123095f8301846122e7565b92915050565b5f805f805f805f60a0888a03121561232a57612329611cf4565b5b5f6123378a828b016121db565b97505060206123488a828b01612096565b965050604088013567ffffffffffffffff81111561236957612368611cf8565b5b6123758a828b01611d08565b955095505060606123888a828b016121db565b935050608088013567ffffffffffffffff8111156123a9576123a8611cf8565b5b6123b58a828b01611d08565b925092505092959891949750929550565b5f80604083850312156123dc576123db611cf4565b5b5f6123e9858286016121db565b92505060206123fa858286016120c0565b9150509250929050565b5f8115159050919050565b61241881612404565b8114612422575f80fd5b50565b5f813590506124338161240f565b92915050565b5f806040838503121561244f5761244e611cf4565b5b5f61245c858286016120c0565b925050602061246d85828601612425565b9150509250929050565b61248081611da8565b82525050565b606082015f82015161249a5f850182612477565b5060208201516124ad6020850182612477565b5060408201516124c06040850182611ef0565b50505050565b5f6060820190506124d95f830184612486565b92915050565b5f6124e9826122c5565b9050919050565b6124f9816124df565b82525050565b5f6020820190506125125f8301846124f0565b92915050565b5f6040820190508181035f8301526125308185611e2a565b905061253f6020830184611db1565b9392505050565b5f6020820190508181035f83015261255e8184611e2a565b905092915050565b5f81905092915050565b50565b5f61257e5f83612566565b915061258982612570565b5f82019050919050565b5f61259d82612573565b9150819050919050565b5f6040820190506125ba5f830185612140565b6125c76020830184611db1565b9392505050565b5f6040820190506125e15f830185612140565b6125ee6020830184612140565b9392505050565b5f6126008385611de2565b935061260d838584612004565b61261683611e1a565b840190509392505050565b5f6020820190508181035f83015261263a8184866125f5565b90509392505050565b5f81519050612651816120aa565b92915050565b5f8151905061266581612080565b92915050565b5f61267d61267884611fd4565b611fba565b90508281526020810184848401111561269957612698611f58565b5b6126a4848285611df2565b509392505050565b5f82601f8301126126c0576126bf611cfc565b5b81516126d084826020860161266b565b91505092915050565b5f805f606084860312156126f0576126ef611cf4565b5b5f6126fd86828701612643565b935050602061270e86828701612657565b925050604084015167ffffffffffffffff81111561272f5761272e611cf8565b5b61273b868287016126ac565b9150509250925092565b5f6060820190508181035f83015261275d8186611e2a565b905061276c6020830185611dc9565b6127796040830184611db1565b949350505050565b5f8151905061278f816121c5565b92915050565b5f602082840312156127aa576127a9611cf4565b5b5f6127b784828501612781565b91505092915050565b5f815190506127ce8161240f565b92915050565b5f602082840312156127e9576127e8611cf4565b5b5f6127f6848285016127c0565b91505092915050565b5f80fd5b5f80fd5b5f808585111561281a576128196127ff565b5b8386111561282b5761282a612803565b5b6001850283019150848603905094509492505050565b5f82905092915050565b5f82821b905092915050565b5f6128628383612841565b8261286d8135611dc0565b925060208210156128ad576128a87fffffffffffffffffffffffffffffffffffffffffffffffffffffffffffffffff8360200360080261284b565b831692505b505092915050565b5f819050602082019050919050565b5f7fffffffffffffffffffffffffffffffffffffffff00000000000000000000000082169050919050565b5f6128fa82516128c4565b80915050919050565b5f61290d82611dd8565b82612917846128b5565b9050612922816128ef565b925060148210156129625761295d7fffffffffffffffffffffffffffffffffffffffff0000000000000000000000008360140360080261284b565b831692505b5050919050565b5f6129748251611dc0565b80915050919050565b5f61298782611dd8565b82612991846128b5565b905061299c81612969565b925060208210156129dc576129d77fffffffffffffffffffffffffffffffffffffffffffffffffffffffffffffffff8360200360080261284b565b831692505b5050919050565b5f82825260208201905092915050565b5f6129fd82611dd8565b612a0781856129e3565b9350612a17818560208601611df2565b612a2081611e1a565b840191505092915050565b5f606083015f830151612a405f860182611ece565b506020830151612a536020860182612477565b5060408301518482036040860152612a6b82826129f3565b9150508091505092915050565b5f6020820190508181035f830152612a908184612a2b565b905092915050565b5f604082019050612aab5f830185612140565b612ab86020830184612168565b9392505050565b5f612ac982611dd8565b612ad38185612566565b9350612ae3818560208601611df2565b80840191505092915050565b5f612afa8284612abf565b915081905092915050565b5f80fd5b5f80fd5b5f81519050612b1b816121ef565b92915050565b5f60608284031215612b3657612b35612b05565b5b612b406060611fba565b90505f612b4f84828501612b0d565b5f830152506020612b6284828501612b0d565b6020830152506040612b7684828501612b0d565b60408301525092915050565b5f60608284031215612b9757612b96611cf4565b5b5f612ba484828501612b21565b91505092915050565b5f82825260208201905092915050565b5f612bc782611dd8565b612bd18185612bad565b9350612be1818560208601611df2565b612bea81611e1a565b840191505092915050565b5f6020820190508181035f830152612c0d8184612bbd565b905092915050565b5f60208284031215612c2a57612c29611cf4565b5b5f82015167ffffffffffffffff811115612c4757612c46611cf8565b5b612c53848285016126ac565b91505092915050565b5f60608284031215612c7157612c70612b05565b5b612c7b6060611fba565b90505f612c8a84828501612781565b5f830152506020612c9d84828501612643565b602083015250604082015167ffffffffffffffff811115612cc157612cc0612b09565b5b612ccd848285016126ac565b60408301525092915050565b5f60208284031215612cee57612ced611cf4565b5b5f82015167ffffffffffffffff811115612d0b57612d0a611cf8565b5b612d1784828501612c5c565b91505092915050565b7f4e487b71000000000000000000000000000000000000000000000000000000005f52601160045260245ffd5b5f8160011c9050919050565b5f808291508390505b6001851115612da257808604811115612d7e57612d7d612d20565b5b6001851615612d8d5780820291505b8081029050612d9b85612d4d565b9450612d62565b94509492505050565b5f82612dba5760019050612e75565b81612dc7575f9050612e75565b8160018114612ddd5760028114612de757612e16565b6001915050612e75565b60ff841115612df957612df8612d20565b5b8360020a915084821115612e1057612e0f612d20565b5b50612e75565b5060208310610133831016604e8410600b8410161715612e4b5782820a905083811115612e4657612e45612d20565b5b612e75565b612e588484846001612d59565b92509050818404811115612e6f57612e6e612d20565b5b81810290505b9392505050565b5f612e8682611da8565b9150612e9183611edd565b9250612ebe7fffffffffffffffffffffffffffffffffffffffffffffffffffffffffffffffff8484612dab565b905092915050565b7f4e487b71000000000000000000000000000000000000000000000000000000005f52601260045260245ffd5b5f612efd82611da8565b9150612f0883611da8565b925082612f1857612f17612ec6565b5b828204905092915050565b5f604082019050612f365f830185612168565b612f436020830184612168565b9392505050565b5f612f5482611edd565b9150612f5f83611edd565b9250828203905067ffffffffffffffff811115612f7f57612f7e612d20565b5b92915050565b5f612f8f82611da8565b9150612f9a83611da8565b9250828202612fa881611da8565b91508282048414831517612fbf57612fbe612d20565b5b5092915050565b5f612fd082611da8565b9150612fdb83611da8565b9250828203905081811115612ff357612ff2612d20565b5b92915050565b5f61300382611da8565b915061300e83611da8565b925082820190508082111561302657613025612d20565b5b9291505056fea264697066735822122071985d961321e1bdce2201740af446e08456eb6ced8aecf3761c5b0de55378c264736f6c63430008160033",
    "linkReferences": {
      "contracts/library/HyperLiquidComposerCodec.sol": {
        "HyperLiquidComposerCodec": [
          {
            "start": 6500,
            "length": 20
          }
        ]
      }
    }
  },
  "methodIdentifiers": {
    "HLP_PRECOMPILE_READ_SPOT_BALANCE()": "ba872679",
    "HLP_PRECOMPILE_WRITE()": "dd850075",
    "VALID_COMPOSE_MESSAGE_LENGTH_ENCODE()": "9278d99a",
    "VALID_COMPOSE_MESSAGE_LENGTH_PACKED()": "807d6c3f",
    "balanceOfHyperCore(address,uint64)": "81e8dcb4",
    "endpoint()": "5e280f11",
    "getHypeAsset()": "aae12e46",
    "getOFTAsset()": "2d0e315c",
    "hypeAsset()": "f6e6b240",
    "lzCompose(address,bytes32,bytes,address,bytes)": "d0a10260",
    "oft()": "9b5215f6",
    "oftAsset()": "765008a1",
    "quoteHyperCoreAmount(uint256,bool)": "f9716faf",
    "refundERC20(address,uint256)": "ebaeefd6",
    "refundNativeTokens(address)": "8483bc00",
    "token()": "fc0c546a",
    "validate_addresses_or_refund(bytes,bytes32,uint256)": "5241b496",
    "validate_payload(bytes)": "1b224831"
  },
  "id": 0
}