{
  "abi": [
    {
      "type": "constructor",
      "inputs": [
        {
          "name": "_endpoint",
          "type": "address",
          "internalType": "address"
        },
        {
          "name": "_oft",
          "type": "address",
          "internalType": "address"
        },
        {
          "name": "_coreIndexId",
          "type": "uint64",
          "internalType": "uint64"
        },
        {
          "name": "_weiDiff",
          "type": "uint64",
          "internalType": "uint64"
        }
      ],
      "stateMutability": "nonpayable"
    },
    {
      "type": "receive",
      "stateMutability": "payable"
    },
    {
      "type": "function",
      "name": "L1WritePrecompileAddress",
      "inputs": [],
      "outputs": [
        {
          "name": "",
          "type": "address",
          "internalType": "address"
        }
      ],
      "stateMutability": "view"
    },
    {
      "type": "function",
      "name": "endpoint",
      "inputs": [],
      "outputs": [
        {
          "name": "",
          "type": "address",
          "internalType": "address"
        }
      ],
      "stateMutability": "view"
    },
    {
      "type": "function",
      "name": "getHypeAsset",
      "inputs": [],
      "outputs": [
        {
          "name": "",
          "type": "tuple",
          "internalType": "struct HyperAsset",
          "components": [
            {
              "name": "assetBridgeAddress",
              "type": "address",
              "internalType": "address"
            },
            {
              "name": "coreIndexId",
              "type": "uint64",
              "internalType": "uint64"
            },
            {
              "name": "decimalDiff",
              "type": "uint64",
              "internalType": "uint64"
            }
          ]
        }
      ],
      "stateMutability": "view"
    },
    {
      "type": "function",
      "name": "getOFTAsset",
      "inputs": [],
      "outputs": [
        {
          "name": "",
          "type": "tuple",
          "internalType": "struct HyperAsset",
          "components": [
            {
              "name": "assetBridgeAddress",
              "type": "address",
              "internalType": "address"
            },
            {
              "name": "coreIndexId",
              "type": "uint64",
              "internalType": "uint64"
            },
            {
              "name": "decimalDiff",
              "type": "uint64",
              "internalType": "uint64"
            }
          ]
        }
      ],
      "stateMutability": "view"
    },
    {
      "type": "function",
      "name": "hypeAsset",
      "inputs": [],
      "outputs": [
        {
          "name": "assetBridgeAddress",
          "type": "address",
          "internalType": "address"
        },
        {
          "name": "coreIndexId",
          "type": "uint64",
          "internalType": "uint64"
        },
        {
          "name": "decimalDiff",
          "type": "uint64",
          "internalType": "uint64"
        }
      ],
      "stateMutability": "view"
    },
    {
      "type": "function",
      "name": "lzCompose",
      "inputs": [
        {
          "name": "_oft",
          "type": "address",
          "internalType": "address"
        },
        {
          "name": "",
          "type": "bytes32",
          "internalType": "bytes32"
        },
        {
          "name": "_message",
          "type": "bytes",
          "internalType": "bytes"
        },
        {
          "name": "",
          "type": "address",
          "internalType": "address"
        },
        {
          "name": "",
          "type": "bytes",
          "internalType": "bytes"
        }
      ],
      "outputs": [],
      "stateMutability": "payable"
    },
    {
      "type": "function",
      "name": "oft",
      "inputs": [],
      "outputs": [
        {
          "name": "",
          "type": "address",
          "internalType": "contract IOFT"
        }
      ],
      "stateMutability": "view"
    },
    {
      "type": "function",
      "name": "oftAsset",
      "inputs": [],
      "outputs": [
        {
          "name": "assetBridgeAddress",
          "type": "address",
          "internalType": "address"
        },
        {
          "name": "coreIndexId",
          "type": "uint64",
          "internalType": "uint64"
        },
        {
          "name": "decimalDiff",
          "type": "uint64",
          "internalType": "uint64"
        }
      ],
      "stateMutability": "view"
    },
    {
      "type": "function",
      "name": "quoteHyperCoreAmount",
      "inputs": [
        {
          "name": "_amount",
          "type": "uint256",
          "internalType": "uint256"
        },
        {
          "name": "_isOFT",
          "type": "bool",
          "internalType": "bool"
        }
      ],
      "outputs": [
        {
          "name": "",
          "type": "tuple",
          "internalType": "struct HyperAssetAmount",
          "components": [
            {
              "name": "evm",
              "type": "uint256",
              "internalType": "uint256"
            },
            {
              "name": "dust",
              "type": "uint256",
              "internalType": "uint256"
            },
            {
              "name": "core",
              "type": "uint64",
              "internalType": "uint64"
            }
          ]
        }
      ],
      "stateMutability": "view"
    },
    {
      "type": "error",
      "name": "HyperLiquidComposer_Codec_InvalidMessage_UnexpectedLength",
      "inputs": [
        {
          "name": "message",
          "type": "bytes",
          "internalType": "bytes"
        },
        {
          "name": "length",
          "type": "uint256",
          "internalType": "uint256"
        }
      ]
    },
    {
      "type": "error",
      "name": "HyperLiquidComposer_Exceed_TransferLimit",
      "inputs": [
        {
          "name": "allowedAmount",
          "type": "uint256",
          "internalType": "uint256"
        },
        {
          "name": "amountSent",
          "type": "uint256",
          "internalType": "uint256"
        }
      ]
    },
    {
      "type": "error",
      "name": "HyperLiquidComposer_FailedToReturn_HYPE_Dust",
      "inputs": [
        {
          "name": "_amount",
          "type": "uint256",
          "internalType": "uint256"
        }
      ]
    },
    {
      "type": "error",
      "name": "HyperLiquidComposer_FailedToSend_HYPE",
      "inputs": [
        {
          "name": "_amount",
          "type": "uint256",
          "internalType": "uint256"
        }
      ]
    },
    {
      "type": "error",
      "name": "HyperLiquidComposer_InvalidCall_NotEndpoint",
      "inputs": [
        {
          "name": "_notEndpointAddress",
          "type": "address",
          "internalType": "address"
        }
      ]
    },
    {
      "type": "error",
      "name": "HyperLiquidComposer_InvalidCall_NotOFT",
      "inputs": [
        {
          "name": "_internalOFTAddress",
          "type": "address",
          "internalType": "address"
        },
        {
          "name": "_receivedOFTAddress",
          "type": "address",
          "internalType": "address"
        }
      ]
    }
  ],
  "bytecode": {
    "object": "0x60c060405234801562000010575f80fd5b50604051620014af380380620014af833981016040819052620000339162000185565b604051806060016040528062000058846001600160401b03166200013b60201b60201c565b6001600160a01b0390811682526001600160401b0394851660208084019190915293851660409283015282515f8054858701518816600160a01b026001600160e01b0319918216938516939093179290921790559282015160018054919096166001600160401b0319918216179095558151606081018352732222222222222222222222222222222222222222815261045194810194909452600a939091018390526002805475045122222222222222222222222222222222222222229316929092179091556003805490931690911790915590811660a05216608052620001ff565b5f6200014c826001609d1b620001df565b92915050565b80516001600160a01b038116811462000169575f80fd5b919050565b80516001600160401b038116811462000169575f80fd5b5f805f806080858703121562000199575f80fd5b620001a48562000152565b9350620001b46020860162000152565b9250620001c4604086016200016e565b9150620001d4606086016200016e565b905092959194509250565b808201808211156200014c57634e487b7160e01b5f52601160045260245ffd5b60805160a0516112726200023d5f395f818161029b0152818161048c0152818161050301526109cd01525f81816101d5015261041501526112725ff3fe608060405260043610610096575f3560e01c80639b5215f611610066578063d0a102601161004c578063d0a1026014610346578063f6e6b2401461035b578063f9716faf146103b2575f80fd5b80639b5215f61461028a578063aae12e46146102bd575f80fd5b80632d0e315c146100a157806355cd1378146101785780635e280f11146101c4578063765008a1146101f7575f80fd5b3661009d57005b5f80fd5b3480156100ac575f80fd5b50610129604080516060810182525f808252602082018190529181019190915250604080516060810182525f5473ffffffffffffffffffffffffffffffffffffffff8116825267ffffffffffffffff7401000000000000000000000000000000000000000090910481166020830152600154169181019190915290565b60408051825173ffffffffffffffffffffffffffffffffffffffff16815260208084015167ffffffffffffffff9081169183019190915292820151909216908201526060015b60405180910390f35b348015610183575f80fd5b5061019f73333333333333333333333333333333333333333381565b60405173ffffffffffffffffffffffffffffffffffffffff909116815260200161016f565b3480156101cf575f80fd5b5061019f7f000000000000000000000000000000000000000000000000000000000000000081565b348015610202575f80fd5b505f5460015461024d9173ffffffffffffffffffffffffffffffffffffffff81169167ffffffffffffffff740100000000000000000000000000000000000000009092048216911683565b6040805173ffffffffffffffffffffffffffffffffffffffff909416845267ffffffffffffffff928316602085015291169082015260600161016f565b348015610295575f80fd5b5061019f7f000000000000000000000000000000000000000000000000000000000000000081565b3480156102c8575f80fd5b50610129604080516060810182525f8082526020820181905291810191909152506040805160608101825260025473ffffffffffffffffffffffffffffffffffffffff8116825267ffffffffffffffff7401000000000000000000000000000000000000000090910481166020830152600354169181019190915290565b610359610354366004610e32565b6103fd565b005b348015610366575f80fd5b5060025460035461024d9173ffffffffffffffffffffffffffffffffffffffff81169167ffffffffffffffff740100000000000000000000000000000000000000009092048216911683565b3480156103bd575f80fd5b506103d16103cc366004610ed9565b61056e565b6040805182518152602080840151908201529181015167ffffffffffffffff169082015260600161016f565b3373ffffffffffffffffffffffffffffffffffffffff7f00000000000000000000000000000000000000000000000000000000000000001614610473576040517feee35e6f0000000000000000000000000000000000000000000000000000000081523360048201526024015b60405180910390fd5b8673ffffffffffffffffffffffffffffffffffffffff167f000000000000000000000000000000000000000000000000000000000000000073ffffffffffffffffffffffffffffffffffffffff1614610538576040517f86fee0c000000000000000000000000000000000000000000000000000000000815273ffffffffffffffffffffffffffffffffffffffff7f0000000000000000000000000000000000000000000000000000000000000000811660048301528816602482015260440161046a565b5f806105448787610675565b909250905034156105595761055982346106e5565b6105638282610963565b505050505050505050565b61059960405180606001604052805f81526020015f81526020015f67ffffffffffffffff1681525090565b811561060a57604080516060810182525f5473ffffffffffffffffffffffffffffffffffffffff8116825267ffffffffffffffff74010000000000000000000000000000000000000000909104811660208301526001541691810191909152610603908490610c63565b905061066f565b6040805160608101825260025473ffffffffffffffffffffffffffffffffffffffff8116825267ffffffffffffffff74010000000000000000000000000000000000000000909104811660208301526003541691810191909152610603908490610c63565b92915050565b5f805f6106828585610d60565b905060148151146106c35780516040517f09b3473100000000000000000000000000000000000000000000000000000000815261046a918391600401610f07565b6106cc81610f77565b60601c92506106db8585610daa565b9150509250929050565b6040805160608101825260025473ffffffffffffffffffffffffffffffffffffffff8116825267ffffffffffffffff740100000000000000000000000000000000000000009091048116602083015260035416918101919091525f9061074c908390610c63565b60025481516040519293505f9273ffffffffffffffffffffffffffffffffffffffff909216918381818185875af1925050503d805f81146107a8576040519150601f19603f3d011682016040523d82523d5f602084013e6107ad565b606091505b50509050806107eb576040517fb7e54a070000000000000000000000000000000000000000000000000000000081526004810184905260240161046a565b60025460408381015190517f0b0ac0ab00000000000000000000000000000000000000000000000000000000815273ffffffffffffffffffffffffffffffffffffffff871660048201527401000000000000000000000000000000000000000090920467ffffffffffffffff908116602484015216604482015273333333333333333333333333333333333333333390630b0ac0ab906064015f604051808303815f87803b15801561089b575f80fd5b505af11580156108ad573d5f803e3d5ffd5b5050505060208201511561095d5760208201516040515f9173ffffffffffffffffffffffffffffffffffffffff8716918381818185875af1925050503d805f8114610913576040519150601f19603f3d011682016040523d82523d5f602084013e610918565b606091505b505090508061095b5782602001516040517f9a9d2b7a00000000000000000000000000000000000000000000000000000000815260040161046a91815260200190565b505b50505050565b604080516060810182525f805473ffffffffffffffffffffffffffffffffffffffff8116835267ffffffffffffffff740100000000000000000000000000000000000000009091048116602084015260015416928201929092526109c8908390610c63565b90505f7f000000000000000000000000000000000000000000000000000000000000000073ffffffffffffffffffffffffffffffffffffffff1663fc0c546a6040518163ffffffff1660e01b8152600401602060405180830381865afa158015610a34573d5f803e3d5ffd5b505050506040513d601f19601f82011682018060405250810190610a589190610fc6565b5f5483516040517fa9059cbb00000000000000000000000000000000000000000000000000000000815273ffffffffffffffffffffffffffffffffffffffff9283166004820152602481019190915291925082169063a9059cbb906044016020604051808303815f875af1158015610ad2573d5f803e3d5ffd5b505050506040513d601f19601f82011682018060405250810190610af69190610fe1565b505f5460408381015190517f0b0ac0ab00000000000000000000000000000000000000000000000000000000815273ffffffffffffffffffffffffffffffffffffffff871660048201527401000000000000000000000000000000000000000090920467ffffffffffffffff908116602484015216604482015273333333333333333333333333333333333333333390630b0ac0ab906064015f604051808303815f87803b158015610ba6575f80fd5b505af1158015610bb8573d5f803e3d5ffd5b5050505060208201511561095d5760208201516040517fa9059cbb00000000000000000000000000000000000000000000000000000000815273ffffffffffffffffffffffffffffffffffffffff868116600483015260248201929092529082169063a9059cbb906044016020604051808303815f875af1158015610c3f573d5f803e3d5ffd5b505050506040513d601f19601f8201168201806040525081019061095b9190610fe1565b610c8e60405180606001604052805f81526020015f81526020015f67ffffffffffffffff1681525090565b5f8260400151600a610ca09190611147565b9050610cb5816801000000000000000061115c565b841115610d0c57610ccf816801000000000000000061115c565b6040517ff56317f000000000000000000000000000000000000000000000000000000000815260048101919091526024810185905260440161046a565b5f610d1782866111a0565b90505f610d2482876111b3565b90505f610d3184886111c6565b60408051606081018252938452602084019490945267ffffffffffffffff169282019290925295945050505050565b6060610d6f82604c81866111d9565b8080601f0160208091040260200160405190810160405280939291908181526020018383808284375f92019190915250929695505050505050565b5f610db9602c600c84866111d9565b610dc291611200565b9392505050565b73ffffffffffffffffffffffffffffffffffffffff81168114610dea575f80fd5b50565b5f8083601f840112610dfd575f80fd5b50813567ffffffffffffffff811115610e14575f80fd5b602083019150836020828501011115610e2b575f80fd5b9250929050565b5f805f805f805f60a0888a031215610e48575f80fd5b8735610e5381610dc9565b965060208801359550604088013567ffffffffffffffff80821115610e76575f80fd5b610e828b838c01610ded565b909750955060608a01359150610e9782610dc9565b90935060808901359080821115610eac575f80fd5b50610eb98a828b01610ded565b989b979a50959850939692959293505050565b8015158114610dea575f80fd5b5f8060408385031215610eea575f80fd5b823591506020830135610efc81610ecc565b809150509250929050565b604081525f83518060408401525f5b81811015610f335760208187018101516060868401015201610f16565b505f6060828501015260607fffffffffffffffffffffffffffffffffffffffffffffffffffffffffffffffe0601f8301168401019150508260208301529392505050565b5f815160208301517fffffffffffffffffffffffffffffffffffffffff00000000000000000000000080821693506014831015610fbe5780818460140360031b1b83161693505b505050919050565b5f60208284031215610fd6575f80fd5b8151610dc281610dc9565b5f60208284031215610ff1575f80fd5b8151610dc281610ecc565b7f4e487b71000000000000000000000000000000000000000000000000000000005f52601160045260245ffd5b600181815b8085111561108257817fffffffffffffffffffffffffffffffffffffffffffffffffffffffffffffffff0482111561106857611068610ffc565b8085161561107557918102915b93841c939080029061102e565b509250929050565b5f826110985750600161066f565b816110a457505f61066f565b81600181146110ba57600281146110c4576110e0565b600191505061066f565b60ff8411156110d5576110d5610ffc565b50506001821b61066f565b5060208310610133831016604e8410600b8410161715611103575081810a61066f565b61110d8383611029565b807fffffffffffffffffffffffffffffffffffffffffffffffffffffffffffffffff0482111561113f5761113f610ffc565b029392505050565b5f610dc267ffffffffffffffff84168361108a565b808202811582820484141761066f5761066f610ffc565b7f4e487b71000000000000000000000000000000000000000000000000000000005f52601260045260245ffd5b5f826111ae576111ae611173565b500690565b8181038181111561066f5761066f610ffc565b5f826111d4576111d4611173565b500490565b5f80858511156111e7575f80fd5b838611156111f3575f80fd5b5050820193919092039150565b8035602083101561066f577fffffffffffffffffffffffffffffffffffffffffffffffffffffffffffffffff602084900360031b1b169291505056fea2646970667358221220f0bcc6383986821a42a21e485cf9d62c80988ad6538adcf263bd0db080bf029864736f6c63430008160033",
    "linkReferences": {}
  },
  "methodIdentifiers": {
    "L1WritePrecompileAddress()": "55cd1378",
    "endpoint()": "5e280f11",
    "getHypeAsset()": "aae12e46",
    "getOFTAsset()": "2d0e315c",
    "hypeAsset()": "f6e6b240",
    "lzCompose(address,bytes32,bytes,address,bytes)": "d0a10260",
    "oft()": "9b5215f6",
    "oftAsset()": "765008a1",
    "quoteHyperCoreAmount(uint256,bool)": "f9716faf"
  },
  "id": 0
}