{
  "abi": [
    {
      "type": "constructor",
      "inputs": [
        {
          "name": "_endpoint",
          "type": "address",
          "internalType": "address"
        },
        {
          "name": "_oApp",
          "type": "address",
          "internalType": "address"
        }
      ],
      "stateMutability": "nonpayable"
    },
    {
      "type": "function",
      "name": "HL_NATIVE_TRANSFER",
      "inputs": [],
      "outputs": [
        {
          "name": "",
          "type": "address",
          "internalType": "address"
        }
      ],
      "stateMutability": "view"
    },
    {
      "type": "function",
      "name": "endpoint",
      "inputs": [],
      "outputs": [
        {
          "name": "",
          "type": "address",
          "internalType": "address"
        }
      ],
      "stateMutability": "view"
    },
    {
      "type": "function",
      "name": "lzCompose",
      "inputs": [
        {
          "name": "_oApp",
          "type": "address",
          "internalType": "address"
        },
        {
          "name": "",
          "type": "bytes32",
          "internalType": "bytes32"
        },
        {
          "name": "_message",
          "type": "bytes",
          "internalType": "bytes"
        },
        {
          "name": "",
          "type": "address",
          "internalType": "address"
        },
        {
          "name": "",
          "type": "bytes",
          "internalType": "bytes"
        }
      ],
      "outputs": [],
      "stateMutability": "payable"
    },
    {
      "type": "function",
      "name": "oApp",
      "inputs": [],
      "outputs": [
        {
          "name": "",
          "type": "address",
          "internalType": "address"
        }
      ],
      "stateMutability": "view"
    },
    {
      "type": "error",
      "name": "HyperliquidComposer_NotCalledFromEndpoint",
      "inputs": []
    },
    {
      "type": "error",
      "name": "HyperliquidComposer_NotCalledFromOFT",
      "inputs": []
    }
  ],
  "bytecode": {
    "object": "0x60c060405234801561000f575f80fd5b5060405161075938038061075983398101604081905261002e91610060565b6001600160a01b039182166080521660a052610091565b80516001600160a01b038116811461005b575f80fd5b919050565b5f8060408385031215610071575f80fd5b61007a83610045565b915061008860208401610045565b90509250929050565b60805160a0516106946100c55f395f818160530152818161017e015261038d01525f818160d6015261012501526106945ff3fe60806040526004361061003e575f3560e01c806352ae28791461004257806356d5e2e51461009e5780635e280f11146100c5578063d0a10260146100f8575b5f80fd5b34801561004d575f80fd5b506100757f000000000000000000000000000000000000000000000000000000000000000081565b60405173ffffffffffffffffffffffffffffffffffffffff909116815260200160405180910390f35b3480156100a9575f80fd5b5061007573222222222222222222222222222222222222222281565b3480156100d0575f80fd5b506100757f000000000000000000000000000000000000000000000000000000000000000081565b61010b6101063660046104fb565b61010d565b005b3373ffffffffffffffffffffffffffffffffffffffff7f0000000000000000000000000000000000000000000000000000000000000000161461017c576040517f691f498c00000000000000000000000000000000000000000000000000000000815260040160405180910390fd5b7f000000000000000000000000000000000000000000000000000000000000000073ffffffffffffffffffffffffffffffffffffffff168773ffffffffffffffffffffffffffffffffffffffff160361020d575f6101da8686610248565b8060200190518101906101ed9190610595565b90505f6101fa8787610294565b905061020682826102b3565b505061023f565b6040517f677d016700000000000000000000000000000000000000000000000000000000815260040160405180910390fd5b50505050505050565b606061025782604c81866105b0565b8080601f0160208091040260200160405190810160405280939291908181526020018383808284375f920191909152509293505050505b92915050565b5f6102a3602c600c84866105b0565b6102ac916105d7565b9392505050565b60405173ffffffffffffffffffffffffffffffffffffffff831660248201527322222222222222222222222222222222222222226044820152606481018290525f90608401604080517fffffffffffffffffffffffffffffffffffffffffffffffffffffffffffffffe08184030181529181526020820180517bffffffffffffffffffffffffffffffffffffffffffffffffffffffff167f30e0789e00000000000000000000000000000000000000000000000000000000179052519091505f90819073ffffffffffffffffffffffffffffffffffffffff7f000000000000000000000000000000000000000000000000000000000000000016906103b9908590610613565b5f604051808303815f865af19150503d805f81146103f2576040519150601f19603f3d011682016040523d82523d5f602084013e6103f7565b606091505b5091509150818015610421575080511580610421575080806020019051810190610421919061063f565b61048b576040517f08c379a000000000000000000000000000000000000000000000000000000000815260206004820152600f60248201527f5472616e73666572206661696c65640000000000000000000000000000000000604482015260640160405180910390fd5b5050505050565b73ffffffffffffffffffffffffffffffffffffffff811681146104b3575f80fd5b50565b5f8083601f8401126104c6575f80fd5b50813567ffffffffffffffff8111156104dd575f80fd5b6020830191508360208285010111156104f4575f80fd5b9250929050565b5f805f805f805f60a0888a031215610511575f80fd5b873561051c81610492565b965060208801359550604088013567ffffffffffffffff8082111561053f575f80fd5b61054b8b838c016104b6565b909750955060608a0135915061056082610492565b90935060808901359080821115610575575f80fd5b506105828a828b016104b6565b989b979a50959850939692959293505050565b5f602082840312156105a5575f80fd5b81516102ac81610492565b5f80858511156105be575f80fd5b838611156105ca575f80fd5b5050820193919092039150565b8035602083101561028e577fffffffffffffffffffffffffffffffffffffffffffffffffffffffffffffffff602084900360031b1b1692915050565b5f82515f5b818110156106325760208186018101518583015201610618565b505f920191825250919050565b5f6020828403121561064f575f80fd5b815180151581146102ac575f80fdfea26469706673582212201513670c04d02f8eb86e7d1dc1a2882dbc5665b32512023260ffa14bb1d8c6c364736f6c63430008160033",
    "linkReferences": {}
  },
  "methodIdentifiers": {
    "HL_NATIVE_TRANSFER()": "56d5e2e5",
    "endpoint()": "5e280f11",
    "lzCompose(address,bytes32,bytes,address,bytes)": "d0a10260",
    "oApp()": "52ae2879"
  },
  "id": 0
}