{
  "abi": [
    {
      "type": "constructor",
      "inputs": [
        {
          "name": "_endpoint",
          "type": "address",
          "internalType": "address"
        },
        {
          "name": "_oft",
          "type": "address",
          "internalType": "address"
        },
        {
          "name": "_coreIndexId",
          "type": "uint64",
          "internalType": "uint64"
        },
        {
          "name": "_weiDiff",
          "type": "uint64",
          "internalType": "uint64"
        }
      ],
      "stateMutability": "nonpayable"
    },
    {
      "type": "receive",
      "stateMutability": "payable"
    },
    {
      "type": "function",
      "name": "L1ReadPrecompileAddress_SpotBalance",
      "inputs": [],
      "outputs": [
        {
          "name": "",
          "type": "address",
          "internalType": "address"
        }
      ],
      "stateMutability": "view"
    },
    {
      "type": "function",
      "name": "L1WritePrecompileAddress",
      "inputs": [],
      "outputs": [
        {
          "name": "",
          "type": "address",
          "internalType": "address"
        }
      ],
      "stateMutability": "view"
    },
    {
      "type": "function",
      "name": "balanceOfHyperCore",
      "inputs": [
        {
          "name": "_user",
          "type": "address",
          "internalType": "address"
        },
        {
          "name": "_tokenId",
          "type": "uint64",
          "internalType": "uint64"
        }
      ],
      "outputs": [
        {
          "name": "",
          "type": "uint64",
          "internalType": "uint64"
        }
      ],
      "stateMutability": "view"
    },
    {
      "type": "function",
      "name": "endpoint",
      "inputs": [],
      "outputs": [
        {
          "name": "",
          "type": "address",
          "internalType": "address"
        }
      ],
      "stateMutability": "view"
    },
    {
      "type": "function",
      "name": "getHypeAsset",
      "inputs": [],
      "outputs": [
        {
          "name": "",
          "type": "tuple",
          "internalType": "struct IHyperAsset",
          "components": [
            {
              "name": "assetBridgeAddress",
              "type": "address",
              "internalType": "address"
            },
            {
              "name": "coreIndexId",
              "type": "uint64",
              "internalType": "uint64"
            },
            {
              "name": "decimalDiff",
              "type": "uint64",
              "internalType": "uint64"
            }
          ]
        }
      ],
      "stateMutability": "view"
    },
    {
      "type": "function",
      "name": "getOFTAsset",
      "inputs": [],
      "outputs": [
        {
          "name": "",
          "type": "tuple",
          "internalType": "struct IHyperAsset",
          "components": [
            {
              "name": "assetBridgeAddress",
              "type": "address",
              "internalType": "address"
            },
            {
              "name": "coreIndexId",
              "type": "uint64",
              "internalType": "uint64"
            },
            {
              "name": "decimalDiff",
              "type": "uint64",
              "internalType": "uint64"
            }
          ]
        }
      ],
      "stateMutability": "view"
    },
    {
      "type": "function",
      "name": "hypeAsset",
      "inputs": [],
      "outputs": [
        {
          "name": "assetBridgeAddress",
          "type": "address",
          "internalType": "address"
        },
        {
          "name": "coreIndexId",
          "type": "uint64",
          "internalType": "uint64"
        },
        {
          "name": "decimalDiff",
          "type": "uint64",
          "internalType": "uint64"
        }
      ],
      "stateMutability": "view"
    },
    {
      "type": "function",
      "name": "lzCompose",
      "inputs": [
        {
          "name": "_oft",
          "type": "address",
          "internalType": "address"
        },
        {
          "name": "",
          "type": "bytes32",
          "internalType": "bytes32"
        },
        {
          "name": "_message",
          "type": "bytes",
          "internalType": "bytes"
        },
        {
          "name": "",
          "type": "address",
          "internalType": "address"
        },
        {
          "name": "",
          "type": "bytes",
          "internalType": "bytes"
        }
      ],
      "outputs": [],
      "stateMutability": "payable"
    },
    {
      "type": "function",
      "name": "oft",
      "inputs": [],
      "outputs": [
        {
          "name": "",
          "type": "address",
          "internalType": "contract IOFT"
        }
      ],
      "stateMutability": "view"
    },
    {
      "type": "function",
      "name": "oftAsset",
      "inputs": [],
      "outputs": [
        {
          "name": "assetBridgeAddress",
          "type": "address",
          "internalType": "address"
        },
        {
          "name": "coreIndexId",
          "type": "uint64",
          "internalType": "uint64"
        },
        {
          "name": "decimalDiff",
          "type": "uint64",
          "internalType": "uint64"
        }
      ],
      "stateMutability": "view"
    },
    {
      "type": "function",
      "name": "quoteHyperCoreAmount",
      "inputs": [
        {
          "name": "_amount",
          "type": "uint256",
          "internalType": "uint256"
        },
        {
          "name": "_isOFT",
          "type": "bool",
          "internalType": "bool"
        }
      ],
      "outputs": [
        {
          "name": "",
          "type": "tuple",
          "internalType": "struct IHyperAssetAmount",
          "components": [
            {
              "name": "evm",
              "type": "uint256",
              "internalType": "uint256"
            },
            {
              "name": "dust",
              "type": "uint256",
              "internalType": "uint256"
            },
            {
              "name": "core",
              "type": "uint64",
              "internalType": "uint64"
            }
          ]
        }
      ],
      "stateMutability": "nonpayable"
    },
    {
      "type": "function",
      "name": "refundNativeTokens",
      "inputs": [
        {
          "name": "refundAddress",
          "type": "address",
          "internalType": "address"
        }
      ],
      "outputs": [],
      "stateMutability": "payable"
    },
    {
      "type": "function",
      "name": "refundTokens",
      "inputs": [
        {
          "name": "err",
          "type": "bytes",
          "internalType": "bytes"
        }
      ],
      "outputs": [
        {
          "name": "",
          "type": "bytes",
          "internalType": "bytes"
        }
      ],
      "stateMutability": "payable"
    },
    {
      "type": "function",
      "name": "token",
      "inputs": [],
      "outputs": [
        {
          "name": "",
          "type": "address",
          "internalType": "contract IERC20"
        }
      ],
      "stateMutability": "view"
    },
    {
      "type": "event",
      "name": "OverflowDetected",
      "inputs": [
        {
          "name": "amountCore",
          "type": "uint64",
          "indexed": false,
          "internalType": "uint64"
        },
        {
          "name": "maxTransferableAmount",
          "type": "uint64",
          "indexed": false,
          "internalType": "uint64"
        }
      ],
      "anonymous": false
    },
    {
      "type": "event",
      "name": "errorMessage",
      "inputs": [
        {
          "name": "reason",
          "type": "bytes",
          "indexed": false,
          "internalType": "bytes"
        }
      ],
      "anonymous": false
    },
    {
      "type": "event",
      "name": "errorNativeRefund_Failed",
      "inputs": [
        {
          "name": "refundTo",
          "type": "address",
          "indexed": false,
          "internalType": "address"
        },
        {
          "name": "refundAmount",
          "type": "uint256",
          "indexed": false,
          "internalType": "uint256"
        }
      ],
      "anonymous": false
    },
    {
      "type": "event",
      "name": "errorRefund",
      "inputs": [
        {
          "name": "refundTo",
          "type": "address",
          "indexed": false,
          "internalType": "address"
        },
        {
          "name": "refundAmount",
          "type": "uint256",
          "indexed": false,
          "internalType": "uint256"
        }
      ],
      "anonymous": false
    },
    {
      "type": "error",
      "name": "HyperLiquidComposer_FailedToSend_HYPE",
      "inputs": [
        {
          "name": "amount",
          "type": "uint256",
          "internalType": "uint256"
        }
      ]
    },
    {
      "type": "error",
      "name": "HyperLiquidComposer_InvalidCall_NotComposer",
      "inputs": [
        {
          "name": "notComposerAddress",
          "type": "address",
          "internalType": "address"
        }
      ]
    },
    {
      "type": "error",
      "name": "HyperLiquidComposer_InvalidCall_NotEndpoint",
      "inputs": [
        {
          "name": "notEndpointAddress",
          "type": "address",
          "internalType": "address"
        },
        {
          "name": "expectedEndpointAddress",
          "type": "address",
          "internalType": "address"
        }
      ]
    },
    {
      "type": "error",
      "name": "HyperLiquidComposer_InvalidCall_NotOFT",
      "inputs": [
        {
          "name": "internalOFTAddress",
          "type": "address",
          "internalType": "address"
        },
        {
          "name": "receivedOFTAddress",
          "type": "address",
          "internalType": "address"
        }
      ]
    }
  ],
  "bytecode": {
    "object": "0x60e060405234801562000010575f80fd5b5060405162001f2338038062001f238339810160408190526200003391620001f1565b604051806060016040528062000058846001600160401b0316620001a760201b60201c565b6001600160a01b0390811682526001600160401b0380861660208085019190915285821660409485015284515f8054878401518516600160a01b026001600160e01b0319918216938716939093179290921790559484015160018054919093166001600160401b0319918216179092558351606081018552732222222222222222222222222222222222222222815261045181830152600a908501819052600280547504512222222222222222222222222222222222222222971696909617909555600380549092169094179055851660a08190528151637e062a3560e11b81529151909263fc0c546a92600480820193918290030181865afa15801562000162573d5f803e3d5ffd5b505050506040513d601f19601f820116820180604052508101906200018891906200024b565b6001600160a01b0390811660c05293909316608052506200028e915050565b5f620001b8826001609d1b6200026e565b92915050565b80516001600160a01b0381168114620001d5575f80fd5b919050565b80516001600160401b0381168114620001d5575f80fd5b5f805f806080858703121562000205575f80fd5b6200021085620001be565b93506200022060208601620001be565b92506200023060408601620001da565b91506200024060608601620001da565b905092959194509250565b5f602082840312156200025c575f80fd5b6200026782620001be565b9392505050565b80820180821115620001b857634e487b7160e01b5f52601160045260245ffd5b60805160a05160c051611c32620002f15f395f81816104d40152818161059b0152818161079d01528181611185015261131101525f818161032e01528181610a2b0152610aa201525f818161021b0152818161096701526109df0152611c325ff3fe6080604052600436106100dc575f3560e01c80639c7190241161007c578063d0a1026011610057578063d0a102601461040e578063f6e6b24014610421578063f9716faf14610478578063fc0c546a146104c3575f80fd5b80639c71902414610350578063aa1a835d14610365578063aae12e4614610385575f80fd5b8063765008a1116100b7578063765008a11461023d57806381e8dcb4146102d05780638483bc00146103085780639b5215f61461031d575f80fd5b80632d0e315c146100e757806355cd1378146101be5780635e280f111461020a575f80fd5b366100e357005b5f80fd5b3480156100f2575f80fd5b5061016f604080516060810182525f808252602082018190529181019190915250604080516060810182525f5473ffffffffffffffffffffffffffffffffffffffff8116825267ffffffffffffffff7401000000000000000000000000000000000000000090910481166020830152600154169181019190915290565b60408051825173ffffffffffffffffffffffffffffffffffffffff16815260208084015167ffffffffffffffff9081169183019190915292820151909216908201526060015b60405180910390f35b3480156101c9575f80fd5b506101e573333333333333333333333333333333333333333381565b60405173ffffffffffffffffffffffffffffffffffffffff90911681526020016101b5565b348015610215575f80fd5b506101e57f000000000000000000000000000000000000000000000000000000000000000081565b348015610248575f80fd5b505f546001546102939173ffffffffffffffffffffffffffffffffffffffff81169167ffffffffffffffff740100000000000000000000000000000000000000009092048216911683565b6040805173ffffffffffffffffffffffffffffffffffffffff909416845267ffffffffffffffff92831660208501529116908201526060016101b5565b3480156102db575f80fd5b506102ef6102ea3660046114ec565b6104f6565b60405167ffffffffffffffff90911681526020016101b5565b61031b610316366004611523565b61050a565b005b348015610328575f80fd5b506101e57f000000000000000000000000000000000000000000000000000000000000000081565b34801561035b575f80fd5b506101e561080181565b61037861037336600461158a565b61060a565b6040516101b591906115eb565b348015610390575f80fd5b5061016f604080516060810182525f8082526020820181905291810191909152506040805160608101825260025473ffffffffffffffffffffffffffffffffffffffff8116825267ffffffffffffffff7401000000000000000000000000000000000000000090910481166020830152600354169181019190915290565b61031b61041c36600461163b565b610965565b34801561042c575f80fd5b506002546003546102939173ffffffffffffffffffffffffffffffffffffffff81169167ffffffffffffffff740100000000000000000000000000000000000000009092048216911683565b348015610483575f80fd5b506104976104923660046116e2565b610ca6565b6040805182518152602080840151908201529181015167ffffffffffffffff16908201526060016101b5565b3480156104ce575f80fd5b506101e57f000000000000000000000000000000000000000000000000000000000000000081565b5f6105018383610de8565b90505b92915050565b33301461054a576040517f5950c85e0000000000000000000000000000000000000000000000000000000081523360048201526024015b60405180910390fd5b3415610607576040517fa9059cbb00000000000000000000000000000000000000000000000000000000815273ffffffffffffffffffffffffffffffffffffffff82811660048301523460248301527f0000000000000000000000000000000000000000000000000000000000000000169063a9059cbb906044016020604051808303815f875af11580156105e1573d5f803e3d5ffd5b505050506040513d601f19601f820116820180604052508101906106059190611705565b505b50565b6060333014610647576040517f5950c85e000000000000000000000000000000000000000000000000000000008152336004820152602401610541565b5f8290036106f2576040516020016106dc9060208082526049908201527f4572726f723a204e6f74206c6f676963206261736564202d206d616c666f726d60408201527f6564207265636569766572206164647265737320776974682061206e6f6e2d6560608201527f766d2073656e6465720000000000000000000000000000000000000000000000608082015260a00190565b6040516020818303038152906040529050610504565b5f6107008360448187611720565b8080601f0160208091040260200160405190810160405280939291908181526020018383808284375f92018290525084519495509361074c935085016020908101925085019050611840565b60208101519091501561088857805160208201516040517fa9059cbb00000000000000000000000000000000000000000000000000000000815273ffffffffffffffffffffffffffffffffffffffff7f0000000000000000000000000000000000000000000000000000000000000000169263a9059cbb926107f19260040173ffffffffffffffffffffffffffffffffffffffff929092168252602082015260400190565b6020604051808303815f875af115801561080d573d5f803e3d5ffd5b505050506040513d601f19601f820116820180604052508101906108319190611705565b5080516020808301516040805173ffffffffffffffffffffffffffffffffffffffff9094168452918301527faed2da31f162a342bd2c99e78fb299cbff19be89edb8d17ff85c1fcdaca36c0d910160405180910390a15b80516040517f8483bc0000000000000000000000000000000000000000000000000000000000815273ffffffffffffffffffffffffffffffffffffffff90911660048201523090638483bc009034906024015f604051808303818588803b1580156108f1575f80fd5b505af193505050508015610903575060015b6109595780516040805173ffffffffffffffffffffffffffffffffffffffff90921682523460208301527f72a191be6ba70d88d380ca4e8c0017e7bb8ebd309c702db61488c949c71ba53b910160405180910390a15b60400151949350505050565b7f000000000000000000000000000000000000000000000000000000000000000073ffffffffffffffffffffffffffffffffffffffff163314610a12576040517fefa9309d00000000000000000000000000000000000000000000000000000000815273ffffffffffffffffffffffffffffffffffffffff7f0000000000000000000000000000000000000000000000000000000000000000166004820152336024820152604401610541565b8673ffffffffffffffffffffffffffffffffffffffff167f000000000000000000000000000000000000000000000000000000000000000073ffffffffffffffffffffffffffffffffffffffff1614610ad7576040517f86fee0c000000000000000000000000000000000000000000000000000000000815273ffffffffffffffffffffffffffffffffffffffff7f00000000000000000000000000000000000000000000000000000000000000008116600483015288166024820152604401610541565b5f8073__$583e42a4fcd29c5c863b44cd876f1d3349$__63233449e788886040518363ffffffff1660e01b8152600401610b129291906118c5565b6040805180830381865af4925050508015610b68575060408051601f3d9081017fffffffffffffffffffffffffffffffffffffffffffffffffffffffffffffffe0168201909252610b6591810190611911565b60015b610c7b573d808015610b95576040519150601f19603f3d011682016040523d82523d5f602084013e610b9a565b606091505b506040517faa1a835d0000000000000000000000000000000000000000000000000000000081525f90309063aa1a835d90610bd99085906004016115eb565b5f604051808303815f875af1158015610bf4573d5f803e3d5ffd5b505050506040513d5f823e601f3d9081017fffffffffffffffffffffffffffffffffffffffffffffffffffffffffffffffe0168201604052610c39919081019061193d565b90507fa5f6a3bffb159077e65134235dcdd11da0b85000643e13a5e664a416442c0ec381604051610c6a91906115eb565b60405180910390a150505050610c9d565b90925090503415610c9057610c908234610f2a565b610c9a8282611125565b50505b50505050505050565b610cd160405180606001604052805f81526020015f81526020015f67ffffffffffffffff1681525090565b604080516060810182525f80825260208201819052918101829052908315610d6557604080516060810182525f5473ffffffffffffffffffffffffffffffffffffffff811680835267ffffffffffffffff7401000000000000000000000000000000000000000090920482166020840181905260015490921693830193909352909350610d5e9190610de8565b9050610dd4565b6040805160608101825260025473ffffffffffffffffffffffffffffffffffffffff811680835267ffffffffffffffff7401000000000000000000000000000000000000000090920482166020840181905260035490921693830193909352909350610dd19190610de8565b90505b610ddf858284611382565b95945050505050565b6040805173ffffffffffffffffffffffffffffffffffffffff8416602082015267ffffffffffffffff8316818301528151808203830181526060918201928390525f9283929161080191610e3c9190611977565b5f60405180830381855afa9150503d805f8114610e74576040519150601f19603f3d011682016040523d82523d5f602084013e610e79565b606091505b50909250905081610f0c576040517f08c379a000000000000000000000000000000000000000000000000000000000815260206004820152602260248201527f53706f7442616c616e636520707265636f6d70696c652063616c6c206661696c60448201527f65640000000000000000000000000000000000000000000000000000000000006064820152608401610541565b80806020019051810190610f209190611992565b5195945050505050565b5f610f35825f610ca6565b60025481516040519293505f9273ffffffffffffffffffffffffffffffffffffffff909216918381818185875af1925050503d805f8114610f91576040519150601f19603f3d011682016040523d82523d5f602084013e610f96565b606091505b5050905080610fd4576040517fb7e54a0700000000000000000000000000000000000000000000000000000000815260048101849052602401610541565b60025460408381015190517f0b0ac0ab00000000000000000000000000000000000000000000000000000000815273ffffffffffffffffffffffffffffffffffffffff871660048201527401000000000000000000000000000000000000000090920467ffffffffffffffff908116602484015216604482015273333333333333333333333333333333333333333390630b0ac0ab906064015f604051808303815f87803b158015611084575f80fd5b505af1158015611096573d5f803e3d5ffd5b5050505060208201511561111f5760208201516040517f8483bc0000000000000000000000000000000000000000000000000000000000815273ffffffffffffffffffffffffffffffffffffffff861660048201523091638483bc00916024015f604051808303818588803b15801561110d575f80fd5b505af1158015610c9a573d5f803e3d5ffd5b50505050565b5f611131826001610ca6565b5f5481516040517fa9059cbb00000000000000000000000000000000000000000000000000000000815273ffffffffffffffffffffffffffffffffffffffff928316600482015260248101919091529192507f0000000000000000000000000000000000000000000000000000000000000000169063a9059cbb906044016020604051808303815f875af11580156111cb573d5f803e3d5ffd5b505050506040513d601f19601f820116820180604052508101906111ef9190611705565b505f5460408281015190517f0b0ac0ab00000000000000000000000000000000000000000000000000000000815273ffffffffffffffffffffffffffffffffffffffff861660048201527401000000000000000000000000000000000000000090920467ffffffffffffffff908116602484015216604482015273333333333333333333333333333333333333333390630b0ac0ab906064015f604051808303815f87803b15801561129f575f80fd5b505af11580156112b1573d5f803e3d5ffd5b5050505060208101511561137d5760208101516040517fa9059cbb00000000000000000000000000000000000000000000000000000000815273ffffffffffffffffffffffffffffffffffffffff858116600483015260248201929092527f00000000000000000000000000000000000000000000000000000000000000009091169063a9059cbb906044016020604051808303815f875af1158015611359573d5f803e3d5ffd5b505050506040513d601f19601f8201168201806040525081019061111f9190611705565b505050565b6113ad60405180606001604052805f81526020015f81526020015f67ffffffffffffffff1681525090565b5f8260400151600a6113bf9190611b2f565b90505f6113cc8287611b71565b90505f6113d98288611b84565b90505f6113e68489611b97565b90508667ffffffffffffffff168167ffffffffffffffff161115611487576040805167ffffffffffffffff8084168252891660208201527ff17459c2e89c2b011fa739accb3b853858d0a689d31382b9aa4f56a1ca00f9d3910160405180910390a15f846114548984611baa565b67ffffffffffffffff166114689190611bd2565b88925090506114778184611b84565b92506114838185611be9565b9350505b60408051606081018252928352602083019390935267ffffffffffffffff169181019190915295945050505050565b73ffffffffffffffffffffffffffffffffffffffff81168114610607575f80fd5b67ffffffffffffffff81168114610607575f80fd5b5f80604083850312156114fd575f80fd5b8235611508816114b6565b91506020830135611518816114d7565b809150509250929050565b5f60208284031215611533575f80fd5b813561153e816114b6565b9392505050565b5f8083601f840112611555575f80fd5b50813567ffffffffffffffff81111561156c575f80fd5b602083019150836020828501011115611583575f80fd5b9250929050565b5f806020838503121561159b575f80fd5b823567ffffffffffffffff8111156115b1575f80fd5b6115bd85828601611545565b90969095509350505050565b5f5b838110156115e35781810151838201526020016115cb565b50505f910152565b602081525f82518060208401526116098160408501602087016115c9565b601f017fffffffffffffffffffffffffffffffffffffffffffffffffffffffffffffffe0169190910160400192915050565b5f805f805f805f60a0888a031215611651575f80fd5b873561165c816114b6565b965060208801359550604088013567ffffffffffffffff8082111561167f575f80fd5b61168b8b838c01611545565b909750955060608a013591506116a0826114b6565b909350608089013590808211156116b5575f80fd5b506116c28a828b01611545565b989b979a50959850939692959293505050565b8015158114610607575f80fd5b5f80604083850312156116f3575f80fd5b823591506020830135611518816116d5565b5f60208284031215611715575f80fd5b815161153e816116d5565b5f808585111561172e575f80fd5b8386111561173a575f80fd5b5050820193919092039150565b7f4e487b71000000000000000000000000000000000000000000000000000000005f52604160045260245ffd5b6040516060810167ffffffffffffffff8111828210171561179757611797611747565b60405290565b5f82601f8301126117ac575f80fd5b815167ffffffffffffffff808211156117c7576117c7611747565b604051601f83017fffffffffffffffffffffffffffffffffffffffffffffffffffffffffffffffe0908116603f0116810190828211818310171561180d5761180d611747565b81604052838152866020858801011115611825575f80fd5b6118368460208301602089016115c9565b9695505050505050565b5f60208284031215611850575f80fd5b815167ffffffffffffffff80821115611867575f80fd5b908301906060828603121561187a575f80fd5b611882611774565b825161188d816114b6565b8152602083810151908201526040830151828111156118aa575f80fd5b6118b68782860161179d565b60408301525095945050505050565b60208152816020820152818360408301375f818301604090810191909152601f9092017fffffffffffffffffffffffffffffffffffffffffffffffffffffffffffffffe0160101919050565b5f8060408385031215611922575f80fd5b825161192d816114b6565b6020939093015192949293505050565b5f6020828403121561194d575f80fd5b815167ffffffffffffffff811115611963575f80fd5b61196f8482850161179d565b949350505050565b5f82516119888184602087016115c9565b9190910192915050565b5f606082840312156119a2575f80fd5b6119aa611774565b82516119b5816114d7565b815260208301516119c5816114d7565b602082015260408301516119d8816114d7565b60408201529392505050565b7f4e487b71000000000000000000000000000000000000000000000000000000005f52601160045260245ffd5b600181815b80851115611a6a57817fffffffffffffffffffffffffffffffffffffffffffffffffffffffffffffffff04821115611a5057611a506119e4565b80851615611a5d57918102915b93841c9390800290611a16565b509250929050565b5f82611a8057506001610504565b81611a8c57505f610504565b8160018114611aa25760028114611aac57611ac8565b6001915050610504565b60ff841115611abd57611abd6119e4565b50506001821b610504565b5060208310610133831016604e8410600b8410161715611aeb575081810a610504565b611af58383611a11565b807fffffffffffffffffffffffffffffffffffffffffffffffffffffffffffffffff04821115611b2757611b276119e4565b029392505050565b5f61050167ffffffffffffffff841683611a72565b7f4e487b71000000000000000000000000000000000000000000000000000000005f52601260045260245ffd5b5f82611b7f57611b7f611b44565b500690565b81810381811115610504576105046119e4565b5f82611ba557611ba5611b44565b500490565b67ffffffffffffffff828116828216039080821115611bcb57611bcb6119e4565b5092915050565b8082028115828204841417610504576105046119e4565b80820180821115610504576105046119e456fea2646970667358221220b01b740a5fda5205e33bbee037e34dacf68212866462d8cdb34557a4f229e71664736f6c63430008160033",
    "linkReferences": {
      "contracts/library/HyperLiquidComposerCodec.sol": {
        "HyperLiquidComposerCodec": [
          {
            "start": 3532,
            "length": 20
          }
        ]
      }
    }
  },
  "methodIdentifiers": {
    "L1ReadPrecompileAddress_SpotBalance()": "9c719024",
    "L1WritePrecompileAddress()": "55cd1378",
    "balanceOfHyperCore(address,uint64)": "81e8dcb4",
    "endpoint()": "5e280f11",
    "getHypeAsset()": "aae12e46",
    "getOFTAsset()": "2d0e315c",
    "hypeAsset()": "f6e6b240",
    "lzCompose(address,bytes32,bytes,address,bytes)": "d0a10260",
    "oft()": "9b5215f6",
    "oftAsset()": "765008a1",
    "quoteHyperCoreAmount(uint256,bool)": "f9716faf",
    "refundNativeTokens(address)": "8483bc00",
    "refundTokens(bytes)": "aa1a835d",
    "token()": "fc0c546a"
  },
  "id": 0
}