{
  "abi": [
    {
      "type": "constructor",
      "inputs": [
        {
          "name": "_localEidV2",
          "type": "uint32",
          "internalType": "uint32"
        },
        {
          "name": "_nativeDecimalsRate",
          "type": "uint256",
          "internalType": "uint256"
        }
      ],
      "stateMutability": "nonpayable"
    },
    {
      "type": "receive",
      "stateMutability": "payable"
    },
    {
      "type": "function",
      "name": "dstBlockTimeConfigs",
      "inputs": [
        {
          "name": "dstEid",
          "type": "uint32",
          "internalType": "uint32"
        }
      ],
      "outputs": [
        {
          "name": "avgBlockTime",
          "type": "uint32",
          "internalType": "uint32"
        },
        {
          "name": "blockNum",
          "type": "uint64",
          "internalType": "uint64"
        },
        {
          "name": "timestamp",
          "type": "uint64",
          "internalType": "uint64"
        },
        {
          "name": "maxPastRetention",
          "type": "uint32",
          "internalType": "uint32"
        },
        {
          "name": "maxFutureRetention",
          "type": "uint32",
          "internalType": "uint32"
        }
      ],
      "stateMutability": "view"
    },
    {
      "type": "function",
      "name": "getCmdFees",
      "inputs": [],
      "outputs": [
        {
          "name": "",
          "type": "uint120",
          "internalType": "uint120"
        },
        {
          "name": "",
          "type": "uint120",
          "internalType": "uint120"
        },
        {
          "name": "",
          "type": "uint16",
          "internalType": "uint16"
        }
      ],
      "stateMutability": "view"
    },
    {
      "type": "function",
      "name": "getFee",
      "inputs": [
        {
          "name": "_params",
          "type": "tuple",
          "internalType": "struct IDVNFeeLib.FeeParams",
          "components": [
            {
              "name": "priceFeed",
              "type": "address",
              "internalType": "address"
            },
            {
              "name": "dstEid",
              "type": "uint32",
              "internalType": "uint32"
            },
            {
              "name": "confirmations",
              "type": "uint64",
              "internalType": "uint64"
            },
            {
              "name": "sender",
              "type": "address",
              "internalType": "address"
            },
            {
              "name": "quorum",
              "type": "uint64",
              "internalType": "uint64"
            },
            {
              "name": "defaultMultiplierBps",
              "type": "uint16",
              "internalType": "uint16"
            }
          ]
        },
        {
          "name": "_dstConfig",
          "type": "tuple",
          "internalType": "struct IDVN.DstConfig",
          "components": [
            {
              "name": "gas",
              "type": "uint64",
              "internalType": "uint64"
            },
            {
              "name": "multiplierBps",
              "type": "uint16",
              "internalType": "uint16"
            },
            {
              "name": "floorMarginUSD",
              "type": "uint128",
              "internalType": "uint128"
            }
          ]
        },
        {
          "name": "_options",
          "type": "bytes",
          "internalType": "bytes"
        }
      ],
      "outputs": [
        {
          "name": "",
          "type": "uint256",
          "internalType": "uint256"
        }
      ],
      "stateMutability": "view"
    },
    {
      "type": "function",
      "name": "getFee",
      "inputs": [
        {
          "name": "_params",
          "type": "tuple",
          "internalType": "struct IDVNFeeLib.FeeParamsForRead",
          "components": [
            {
              "name": "priceFeed",
              "type": "address",
              "internalType": "address"
            },
            {
              "name": "sender",
              "type": "address",
              "internalType": "address"
            },
            {
              "name": "quorum",
              "type": "uint64",
              "internalType": "uint64"
            },
            {
              "name": "defaultMultiplierBps",
              "type": "uint16",
              "internalType": "uint16"
            }
          ]
        },
        {
          "name": "_dstConfig",
          "type": "tuple",
          "internalType": "struct IDVN.DstConfig",
          "components": [
            {
              "name": "gas",
              "type": "uint64",
              "internalType": "uint64"
            },
            {
              "name": "multiplierBps",
              "type": "uint16",
              "internalType": "uint16"
            },
            {
              "name": "floorMarginUSD",
              "type": "uint128",
              "internalType": "uint128"
            }
          ]
        },
        {
          "name": "_cmd",
          "type": "bytes",
          "internalType": "bytes"
        },
        {
          "name": "_options",
          "type": "bytes",
          "internalType": "bytes"
        }
      ],
      "outputs": [
        {
          "name": "",
          "type": "uint256",
          "internalType": "uint256"
        }
      ],
      "stateMutability": "view"
    },
    {
      "type": "function",
      "name": "getFeeOnSend",
      "inputs": [
        {
          "name": "_params",
          "type": "tuple",
          "internalType": "struct IDVNFeeLib.FeeParamsForRead",
          "components": [
            {
              "name": "priceFeed",
              "type": "address",
              "internalType": "address"
            },
            {
              "name": "sender",
              "type": "address",
              "internalType": "address"
            },
            {
              "name": "quorum",
              "type": "uint64",
              "internalType": "uint64"
            },
            {
              "name": "defaultMultiplierBps",
              "type": "uint16",
              "internalType": "uint16"
            }
          ]
        },
        {
          "name": "_dstConfig",
          "type": "tuple",
          "internalType": "struct IDVN.DstConfig",
          "components": [
            {
              "name": "gas",
              "type": "uint64",
              "internalType": "uint64"
            },
            {
              "name": "multiplierBps",
              "type": "uint16",
              "internalType": "uint16"
            },
            {
              "name": "floorMarginUSD",
              "type": "uint128",
              "internalType": "uint128"
            }
          ]
        },
        {
          "name": "_cmd",
          "type": "bytes",
          "internalType": "bytes"
        },
        {
          "name": "_options",
          "type": "bytes",
          "internalType": "bytes"
        }
      ],
      "outputs": [
        {
          "name": "fee",
          "type": "uint256",
          "internalType": "uint256"
        }
      ],
      "stateMutability": "payable"
    },
    {
      "type": "function",
      "name": "getFeeOnSend",
      "inputs": [
        {
          "name": "_params",
          "type": "tuple",
          "internalType": "struct IDVNFeeLib.FeeParams",
          "components": [
            {
              "name": "priceFeed",
              "type": "address",
              "internalType": "address"
            },
            {
              "name": "dstEid",
              "type": "uint32",
              "internalType": "uint32"
            },
            {
              "name": "confirmations",
              "type": "uint64",
              "internalType": "uint64"
            },
            {
              "name": "sender",
              "type": "address",
              "internalType": "address"
            },
            {
              "name": "quorum",
              "type": "uint64",
              "internalType": "uint64"
            },
            {
              "name": "defaultMultiplierBps",
              "type": "uint16",
              "internalType": "uint16"
            }
          ]
        },
        {
          "name": "_dstConfig",
          "type": "tuple",
          "internalType": "struct IDVN.DstConfig",
          "components": [
            {
              "name": "gas",
              "type": "uint64",
              "internalType": "uint64"
            },
            {
              "name": "multiplierBps",
              "type": "uint16",
              "internalType": "uint16"
            },
            {
              "name": "floorMarginUSD",
              "type": "uint128",
              "internalType": "uint128"
            }
          ]
        },
        {
          "name": "_options",
          "type": "bytes",
          "internalType": "bytes"
        }
      ],
      "outputs": [
        {
          "name": "",
          "type": "uint256",
          "internalType": "uint256"
        }
      ],
      "stateMutability": "payable"
    },
    {
      "type": "function",
      "name": "getSupportedCmdTypes",
      "inputs": [
        {
          "name": "_targetEid",
          "type": "uint32",
          "internalType": "uint32"
        }
      ],
      "outputs": [
        {
          "name": "",
          "type": "uint256",
          "internalType": "BitMap256"
        }
      ],
      "stateMutability": "view"
    },
    {
      "type": "function",
      "name": "owner",
      "inputs": [],
      "outputs": [
        {
          "name": "",
          "type": "address",
          "internalType": "address"
        }
      ],
      "stateMutability": "view"
    },
    {
      "type": "function",
      "name": "renounceOwnership",
      "inputs": [],
      "outputs": [],
      "stateMutability": "nonpayable"
    },
    {
      "type": "function",
      "name": "setCmdFees",
      "inputs": [
        {
          "name": "_evmCallRequestV1FeeUSD",
          "type": "uint120",
          "internalType": "uint120"
        },
        {
          "name": "_evmCallComputeV1ReduceFeeUSD",
          "type": "uint120",
          "internalType": "uint120"
        },
        {
          "name": "_evmCallComputeV1MapBps",
          "type": "uint16",
          "internalType": "uint16"
        }
      ],
      "outputs": [],
      "stateMutability": "nonpayable"
    },
    {
      "type": "function",
      "name": "setDstBlockTimeConfigs",
      "inputs": [
        {
          "name": "dstEids",
          "type": "uint32[]",
          "internalType": "uint32[]"
        },
        {
          "name": "_blockConfigs",
          "type": "tuple[]",
          "internalType": "struct DVNFeeLibMock.BlockTimeConfig[]",
          "components": [
            {
              "name": "avgBlockTime",
              "type": "uint32",
              "internalType": "uint32"
            },
            {
              "name": "blockNum",
              "type": "uint64",
              "internalType": "uint64"
            },
            {
              "name": "timestamp",
              "type": "uint64",
              "internalType": "uint64"
            },
            {
              "name": "maxPastRetention",
              "type": "uint32",
              "internalType": "uint32"
            },
            {
              "name": "maxFutureRetention",
              "type": "uint32",
              "internalType": "uint32"
            }
          ]
        }
      ],
      "outputs": [],
      "stateMutability": "nonpayable"
    },
    {
      "type": "function",
      "name": "setSupportedCmdTypes",
      "inputs": [
        {
          "name": "_params",
          "type": "tuple[]",
          "internalType": "struct DVNFeeLibMock.SetSupportedCmdTypesParam[]",
          "components": [
            {
              "name": "targetEid",
              "type": "uint32",
              "internalType": "uint32"
            },
            {
              "name": "types",
              "type": "uint256",
              "internalType": "BitMap256"
            }
          ]
        }
      ],
      "outputs": [],
      "stateMutability": "nonpayable"
    },
    {
      "type": "function",
      "name": "transferOwnership",
      "inputs": [
        {
          "name": "newOwner",
          "type": "address",
          "internalType": "address"
        }
      ],
      "outputs": [],
      "stateMutability": "nonpayable"
    },
    {
      "type": "function",
      "name": "version",
      "inputs": [],
      "outputs": [
        {
          "name": "major",
          "type": "uint64",
          "internalType": "uint64"
        },
        {
          "name": "minor",
          "type": "uint8",
          "internalType": "uint8"
        }
      ],
      "stateMutability": "pure"
    },
    {
      "type": "function",
      "name": "withdrawToken",
      "inputs": [
        {
          "name": "_token",
          "type": "address",
          "internalType": "address"
        },
        {
          "name": "_to",
          "type": "address",
          "internalType": "address"
        },
        {
          "name": "_amount",
          "type": "uint256",
          "internalType": "uint256"
        }
      ],
      "outputs": [],
      "stateMutability": "nonpayable"
    },
    {
      "type": "event",
      "name": "OwnershipTransferred",
      "inputs": [
        {
          "name": "previousOwner",
          "type": "address",
          "indexed": true,
          "internalType": "address"
        },
        {
          "name": "newOwner",
          "type": "address",
          "indexed": true,
          "internalType": "address"
        }
      ],
      "anonymous": false
    },
    {
      "type": "error",
      "name": "DVN_EidNotSupported",
      "inputs": [
        {
          "name": "eid",
          "type": "uint32",
          "internalType": "uint32"
        }
      ]
    },
    {
      "type": "error",
      "name": "DVN_INVALID_INPUT_LENGTH",
      "inputs": []
    },
    {
      "type": "error",
      "name": "DVN_InvalidDVNOptions",
      "inputs": [
        {
          "name": "cursor",
          "type": "uint256",
          "internalType": "uint256"
        }
      ]
    },
    {
      "type": "error",
      "name": "DVN_TimestampOutOfRange",
      "inputs": [
        {
          "name": "eid",
          "type": "uint32",
          "internalType": "uint32"
        },
        {
          "name": "timestamp",
          "type": "uint64",
          "internalType": "uint64"
        }
      ]
    },
    {
      "type": "error",
      "name": "DVN_UnsupportedOptionType",
      "inputs": [
        {
          "name": "optionType",
          "type": "uint8",
          "internalType": "uint8"
        }
      ]
    },
    {
      "type": "error",
      "name": "InvalidCmd",
      "inputs": []
    },
    {
      "type": "error",
      "name": "InvalidType",
      "inputs": []
    },
    {
      "type": "error",
      "name": "InvalidVersion",
      "inputs": []
    },
    {
      "type": "error",
      "name": "OwnableInvalidOwner",
      "inputs": [
        {
          "name": "owner",
          "type": "address",
          "internalType": "address"
        }
      ]
    },
    {
      "type": "error",
      "name": "OwnableUnauthorizedAccount",
      "inputs": [
        {
          "name": "account",
          "type": "address",
          "internalType": "address"
        }
      ]
    },
    {
      "type": "error",
      "name": "SafeERC20FailedOperation",
      "inputs": [
        {
          "name": "token",
          "type": "address",
          "internalType": "address"
        }
      ]
    },
    {
      "type": "error",
      "name": "Transfer_NativeFailed",
      "inputs": [
        {
          "name": "_to",
          "type": "address",
          "internalType": "address"
        },
        {
          "name": "_value",
          "type": "uint256",
          "internalType": "uint256"
        }
      ]
    },
    {
      "type": "error",
      "name": "Transfer_ToAddressIsZero",
      "inputs": []
    },
    {
      "type": "error",
      "name": "UnsupportedTargetEid",
      "inputs": []
    }
  ],
  "bytecode": {
    "object": "0x60c06040523480156200001157600080fd5b5060405162001eb638038062001eb68339810160408190526200003491620000cb565b33806200005b57604051631e4fbdf760e01b81526000600482015260240160405180910390fd5b62000066816200007b565b5063ffffffff90911660a05260805262000104565b600080546001600160a01b038381166001600160a01b0319831681178455604051919092169283917f8be0079c531659141344cd1fd0a4f28419497f9722a3daafe3b4186f6b6457e09190a35050565b60008060408385031215620000df57600080fd5b825163ffffffff81168114620000f457600080fd5b6020939093015192949293505050565b60805160a051611d7e620001386000396000818161069001526106ff0152600081816107cd0152610ab80152611d7e6000f3fe6080604052600436106100ec5760003560e01c80638da5cb5b1161008a578063de0a93c311610059578063de0a93c3146102f7578063df2b057e1461033d578063f2fde38b14610350578063f5ff608f1461037057600080fd5b80638da5cb5b1461027c5780639ac23d28146102a4578063bbc5a33b146102c4578063d358b300146102d757600080fd5b806339f26dfc116100c657806339f26dfc1461020657806354fd4d5014610226578063715018a6146102475780637bfa20a91461025c57600080fd5b806301e33667146100f857806310b65f761461011a5780632565c2451461016057600080fd5b366100f357005b600080fd5b34801561010457600080fd5b506101186101133660046115c3565b610390565b005b34801561012657600080fd5b5061014d610135366004611611565b63ffffffff1660009081526001602052604090205490565b6040519081526020015b60405180910390f35b34801561016c57600080fd5b506101c761017b366004611611565b60036020526000908152604090205463ffffffff808216916001600160401b036401000000008204811692600160601b830490911691600160a01b8104821691600160c01b9091041685565b6040805163ffffffff96871681526001600160401b0395861660208201529390941693830193909352831660608201529116608082015260a001610157565b34801561021257600080fd5b5061011861022136600461165e565b6103a8565b34801561023257600080fd5b50604080516001808252602082015201610157565b34801561025357600080fd5b506101186103fa565b34801561026857600080fd5b5061014d610277366004611701565b61040e565b34801561028857600080fd5b506000546040516001600160a01b039091168152602001610157565b3480156102b057600080fd5b506101186102bf36600461176c565b61059b565b61014d6102d2366004611833565b610642565b3480156102e357600080fd5b5061014d6102f2366004611833565b61065d565b34801561030357600080fd5b50600254604080516001600160781b038084168252600160781b8404166020820152600160f01b90920461ffff1690820152606001610157565b61014d61034b366004611701565b610857565b34801561035c57600080fd5b5061011861036b3660046118ce565b61086e565b34801561037c57600080fd5b5061011861038b3660046118e9565b6108ac565b610398610929565b6103a3838383610956565b505050565b6103b0610929565b6002805461ffff909216600160f01b026001600160f01b036001600160781b03948516600160781b026001600160f01b031990941694909516939093179190911792909216179055565b610402610929565b61040c6000610979565b565b600061041d6020850185611972565b6001600160401b03166000036104645761043d6040860160208701611611565b60405163680489c560e11b815263ffffffff90911660048201526024015b60405180910390fd5b61046e83836109c9565b50600061049261048460a0880160808901611972565b6001600160401b0316610a3b565b90506000806104a460208901896118ce565b6001600160a01b03166388a4124c6104c260408b0160208c01611611565b856104d060208c018c611972565b6040516001600160e01b031960e086901b16815263ffffffff93909316600484015260248301919091526001600160401b03166044820152606401608060405180830381865afa158015610528573d6000803e3d6000fd5b505050506040513d601f19601f8201168201806040525081019061054c91906119a4565b93505050915061058f8288602001602081019061056991906119f9565b61057960c08c0160a08d016119f9565b61058960608c0160408d01611a14565b85610a49565b98975050505050505050565b6105a3610929565b8281146105c3576040516316a9d98760e31b815260040160405180910390fd5b60005b8381101561063b578282828181106105e0576105e0611a31565b905060a00201600360008787858181106105fc576105fc611a31565b90506020020160208101906106119190611611565b63ffffffff16815260208101919091526040016000206106318282611a54565b50506001016105c6565b5050505050565b600061065287878787878761065d565b979650505050505050565b600061066c6020870187611972565b6001600160401b03166000036106bd5760405163680489c560e11b815263ffffffff7f000000000000000000000000000000000000000000000000000000000000000016600482015260240161045b565b6106c783836109c9565b5060006106dd61048460608a0160408b01611972565b90506000806106ef60208b018b6118ce565b6001600160a01b03166388a4124c7f00000000000000000000000000000000000000000000000000000000000000008561072c60208e018e611972565b6040516001600160e01b031960e086901b16815263ffffffff93909316600484015260248301919091526001600160401b03166044820152606401608060405180830381865afa158015610784573d6000803e3d6000fd5b505050506040513d601f19601f820116820180604052508101906107a891906119a4565b93505050915060006107ba8989610b1d565b905060006001600160801b0383166107f27f000000000000000000000000000000000000000000000000000000000000000084611b65565b6107fc9190611b92565b905061084761080b8286611ba6565b61081b60408e0160208f016119f9565b8e606001602081019061082e91906119f9565b8e60400160208101906108419190611a14565b87610a49565b9c9b505050505050505050505050565b60006108658585858561040e565b95945050505050565b610876610929565b6001600160a01b0381166108a057604051631e4fbdf760e01b81526000600482015260240161045b565b6108a981610979565b50565b6108b4610929565b60005b818110156103a3578282828181106108d1576108d1611a31565b90506040020160200135600160000160008585858181106108f4576108f4611a31565b61090a9260206040909202019081019150611611565b63ffffffff1681526020810191909152604001600020556001016108b7565b6000546001600160a01b0316331461040c5760405163118cdaa760e01b815233600482015260240161045b565b6001600160a01b03831661096e576103a38282610bc7565b6103a3838383610c74565b600080546001600160a01b038381166001600160a01b0319831681178455604051919092169283917f8be0079c531659141344cd1fd0a4f28419497f9722a3daafe3b4186f6b6457e09190a35050565b6000808215610a0c576000806109e0868685610caf565b604051637085244b60e01b815260ff85166004820152909650929450859350506024909101905061045b565b808314610a2f5760405163013adb8360e21b81526004810182905260240161045b565b60009150505b92915050565b6000610a3582610120610d09565b60008061ffff861615610a5c5785610a5e565b845b90506000612710610a7361ffff84168a611b65565b610a7d9190611b92565b90506001600160801b0384161580610a9c57506001600160801b038516155b15610aaa5791506108659050565b6000846001600160801b03167f0000000000000000000000000000000000000000000000000000000000000000876001600160801b0316610aeb9190611b65565b610af59190611b92565b610aff908a611ba6565b9050818111610b0e5781610b10565b805b9998505050505050505050565b600080610b2d8484610d6e610f31565b6002548151919250610b4e916001600160781b039091169061ffff16611bb9565b6001600160781b03169150806020015115610b965760025461271090610b7f90600160f01b900461ffff1684611b65565b610b899190611b92565b610b939083611ba6565b91505b806040015115610bc057600254610bbd90600160781b90046001600160781b031683611ba6565b91505b5092915050565b6001600160a01b038216610bee576040516306b7a93160e41b815260040160405180910390fd5b6000826001600160a01b03168260405160006040518083038185875af1925050503d8060008114610c3b576040519150601f19603f3d011682016040523d82523d6000602084013e610c40565b606091505b50509050806103a357604051631196f20d60e21b81526001600160a01b03841660048201526024810183905260440161045b565b6001600160a01b038216610c9b576040516306b7a93160e41b815260040160405180910390fd5b6103a36001600160a01b0384168383611433565b600036816001840181610cc3888884611485565b6002830192909150610cdb90899089906003016114ac565b94506002820161ffff82168301610cf481838b8d611be4565b979b909a50969850505061ffff160193505050565b600080610d17604185611b65565b9050610d24602082611c0e565b15610d4c57610d34602082611c0e565b610d3e9082611c22565b610d49906020611ba6565b90505b80610d5984610104611ba6565b610d639190611ba6565b610bbd906020611ba6565b610d7a600185836114d1565b610d8760018560026114f9565b15610f2b5763ffffffff808516600090815260036020908152604091829020825160a081018452905480851682526001600160401b036401000000008204811693830193909352600160601b810490921692810192909252600160a01b810483166060830152600160c01b90049091166080820152828415610eab5781602001516001600160401b0316846001600160401b03161115610e6757815160208301516103e89163ffffffff1690610e3d9087611c35565b610e479190611c55565b610e519190611c78565b8260400151610e609190611c9e565b9050610eab565b6103e8826000015163ffffffff16858460200151610e859190611c35565b610e8f9190611c55565b610e999190611c78565b8260400151610ea89190611c35565b90505b42826060015163ffffffff1682610ec29190611c9e565b6001600160401b03161080610ef357506080820151610ee79063ffffffff1642611ba6565b816001600160401b0316115b15610f2857604051630c5a8d2360e01b815263ffffffff871660048201526001600160401b038216602482015260440161045b565b50505b50505050565b604080516060810182526000808252602082018190529181018290529080858186610f5d826002611ba6565b92610f6a93929190611be4565b610f7391611cbe565b60f01c9050610f83600283611ba6565b915061ffff8116600114610faa5760405163a9146eeb60e01b815260040160405180910390fd5b610fb5600283611ba6565b91506000868387610fc7826002611ba6565b92610fd493929190611be4565b610fdd91611cbe565b60f01c9050610fed600284611ba6565b92508061ffff16600003611014576040516387a7f37960e01b815260040160405180910390fd5b61ffff1683525060005b826000015161ffff168161ffff16101561121d57600086868481811061104657611046611a31565b919091013560f81c915061105d9050600184611ba6565b925060ff81166001146110835760405163a9146eeb60e01b815260040160405180910390fd5b61108e600284611ba6565b925060008784886110a0826002611ba6565b926110ad93929190611be4565b6110b691611cbe565b60f01c90506110c6600285611ba6565b935060001961ffff8216016111fa5760008885896110e5826002611ba6565b926110f293929190611be4565b6110fb91611cbe565b60f01c905061110b600286611ba6565b94508460008a828b61111e826004611ba6565b9261112b93929190611be4565b61113491611cec565b60e01c9050611144600483611ba6565b915060008b8b8481811061115a5761115a611a31565b600192013560f81c8214925061117291905084611ba6565b925060008c848d611184826008611ba6565b9261119193929190611be4565b61119a91611d1a565b60c01c90506111b083838360008f63ffffffff16565b508a92506111c591505061ffff831687611ba6565b11156111e4576040516387a7f37960e01b815260040160405180910390fd5b6111f261ffff821686611ba6565b945050611213565b60405163b968846160e01b815260040160405180910390fd5b505060010161101e565b508381101561140b57600085858381811061123a5761123a611a31565b919091013560f81c91506112519050600183611ba6565b915060ff81166001146112775760405163a9146eeb60e01b815260040160405180910390fd5b6000868387611287826002611ba6565b9261129493929190611be4565b61129d91611cbe565b60f01c90506112ad600284611ba6565b925061ffff81166001146112d45760405163b968846160e01b815260040160405180910390fd5b60008787858181106112e8576112e8611a31565b919091013560f81c91506112ff9050600185611ba6565b935060ff81166113155760016020860152611348565b60001960ff82160161132d5760016040860152611348565b60011960ff8216016111fa5760016020860181905260408601525b6000888589611358826004611ba6565b9261136593929190611be4565b61136e91611cec565b60e01c905061137e600486611ba6565b9450600089898781811061139457611394611a31565b600192013560f81c821492506113ac91905087611ba6565b955060008a878b6113be826008611ba6565b926113cb93929190611be4565b6113d491611d1a565b60c01c90506113e4600888611ba6565b96506113f783838360018d63ffffffff16565b611402601688611ba6565b96505050505050505b80841461142b576040516387a7f37960e01b815260040160405180910390fd5b509392505050565b604080516001600160a01b038416602482015260448082018490528251808303909101815260649091019091526020810180516001600160e01b031663a9059cbb60e01b1790526103a3908490611527565b60006002820161149781848688611be4565b6114a091611cbe565b60f01c95945050505050565b60008383838181106114c0576114c0611a31565b919091013560f81c95945050505050565b6114dc8383836114f9565b6103a3576040516350fae9eb60e01b815260040160405180910390fd5b63ffffffff808316600090815260208590526040812054909161151f9190849061159816565b949350505050565b600080602060008451602086016000885af18061154a576040513d6000823e3d81fd5b50506000513d9150811561156257806001141561156f565b6001600160a01b0384163b155b15610f2b57604051635274afe760e01b81526001600160a01b038516600482015260240161045b565b600160ff919091161b16151590565b80356001600160a01b03811681146115be57600080fd5b919050565b6000806000606084860312156115d857600080fd5b6115e1846115a7565b92506115ef602085016115a7565b9150604084013590509250925092565b63ffffffff811681146108a957600080fd5b60006020828403121561162357600080fd5b813561162e816115ff565b9392505050565b80356001600160781b03811681146115be57600080fd5b803561ffff811681146115be57600080fd5b60008060006060848603121561167357600080fd5b61167c84611635565b925061168a60208501611635565b91506116986040850161164c565b90509250925092565b6000606082840312156116b357600080fd5b50919050565b60008083601f8401126116cb57600080fd5b5081356001600160401b038111156116e257600080fd5b6020830191508360208285010111156116fa57600080fd5b9250929050565b60008060008084860361014081121561171957600080fd5b60c081121561172757600080fd5b508493506117388660c087016116a1565b92506101208501356001600160401b0381111561175457600080fd5b611760878288016116b9565b95989497509550505050565b6000806000806040858703121561178257600080fd5b84356001600160401b038082111561179957600080fd5b818701915087601f8301126117ad57600080fd5b8135818111156117bc57600080fd5b8860208260051b85010111156117d157600080fd5b6020928301965094509086013590808211156117ec57600080fd5b818701915087601f83011261180057600080fd5b81358181111561180f57600080fd5b88602060a08302850101111561182457600080fd5b95989497505060200194505050565b60008060008060008086880361012081121561184e57600080fd5b608081121561185c57600080fd5b5086955061186d88608089016116a1565b945060e08701356001600160401b038082111561188957600080fd5b6118958a838b016116b9565b90965094506101008901359150808211156118af57600080fd5b506118bc89828a016116b9565b979a9699509497509295939492505050565b6000602082840312156118e057600080fd5b61162e826115a7565b600080602083850312156118fc57600080fd5b82356001600160401b038082111561191357600080fd5b818501915085601f83011261192757600080fd5b81358181111561193657600080fd5b8660208260061b850101111561194b57600080fd5b60209290920196919550909350505050565b6001600160401b03811681146108a957600080fd5b60006020828403121561198457600080fd5b813561162e8161195d565b6001600160801b03811681146108a957600080fd5b600080600080608085870312156119ba57600080fd5b8451935060208501516119cc8161198f565b60408601519093506119dd8161198f565b60608601519092506119ee8161198f565b939692955090935050565b600060208284031215611a0b57600080fd5b61162e8261164c565b600060208284031215611a2657600080fd5b813561162e8161198f565b634e487b7160e01b600052603260045260246000fd5b60008135610a35816115ff565b8135611a5f816115ff565b63ffffffff8116905081548163ffffffff1982161783556020840135611a848161195d565b6bffffffffffffffff000000008160201b16905080836bffffffffffffffffffffffff198416171784556040850135611abc8161195d565b67ffffffffffffffff60601b606091821b166001600160a01b03199390931693909317808217831785559285013591611af4836115ff565b63ffffffff60a01b1993909316179190911760a09190911b63ffffffff60a01b16178155611b4b611b2760808401611a47565b82805463ffffffff60c01b191660c09290921b63ffffffff60c01b16919091179055565b5050565b634e487b7160e01b600052601160045260246000fd5b8082028115828204841417610a3557610a35611b4f565b634e487b7160e01b600052601260045260246000fd5b600082611ba157611ba1611b7c565b500490565b80820180821115610a3557610a35611b4f565b6001600160781b03818116838216028082169190828114611bdc57611bdc611b4f565b505092915050565b60008085851115611bf457600080fd5b83861115611c0157600080fd5b5050820193919092039150565b600082611c1d57611c1d611b7c565b500690565b81810381811115610a3557610a35611b4f565b6001600160401b03828116828216039080821115610bc057610bc0611b4f565b6001600160401b03818116838216028082169190828114611bdc57611bdc611b4f565b60006001600160401b0380841680611c9257611c92611b7c565b92169190910492915050565b6001600160401b03818116838216019080821115610bc057610bc0611b4f565b6001600160f01b03198135818116916002851015611bdc5760029490940360031b84901b1690921692915050565b6001600160e01b03198135818116916004851015611bdc5760049490940360031b84901b1690921692915050565b6001600160c01b03198135818116916008851015611bdc5760089490940360031b84901b169092169291505056fea2646970667358221220d34b7cf3109d1a09d2ef9d6586b9648c558d96c099d9868a56aea4afa7c4f88e64736f6c63430008160033",
    "linkReferences": {}
  },
  "methodIdentifiers": {
    "dstBlockTimeConfigs(uint32)": "2565c245",
    "getCmdFees()": "de0a93c3",
    "getFee((address,address,uint64,uint16),(uint64,uint16,uint128),bytes,bytes)": "d358b300",
    "getFee((address,uint32,uint64,address,uint64,uint16),(uint64,uint16,uint128),bytes)": "7bfa20a9",
    "getFeeOnSend((address,address,uint64,uint16),(uint64,uint16,uint128),bytes,bytes)": "bbc5a33b",
    "getFeeOnSend((address,uint32,uint64,address,uint64,uint16),(uint64,uint16,uint128),bytes)": "df2b057e",
    "getSupportedCmdTypes(uint32)": "10b65f76",
    "owner()": "8da5cb5b",
    "renounceOwnership()": "715018a6",
    "setCmdFees(uint120,uint120,uint16)": "39f26dfc",
    "setDstBlockTimeConfigs(uint32[],(uint32,uint64,uint64,uint32,uint32)[])": "9ac23d28",
    "setSupportedCmdTypes((uint32,uint256)[])": "f5ff608f",
    "transferOwnership(address)": "f2fde38b",
    "version()": "54fd4d50",
    "withdrawToken(address,address,uint256)": "01e33667"
  },
  "id": 72
}