{"abi":[{"type":"constructor","inputs":[{"name":"_name","type":"string","internalType":"string"},{"name":"_symbol","type":"string","internalType":"string"},{"name":"_lzEndpoint","type":"address","internalType":"address"},{"name":"_delegate","type":"address","internalType":"address"}],"stateMutability":"nonpayable"},{"type":"function","name":"SEND","inputs":[],"outputs":[{"name":"","type":"uint16","internalType":"uint16"}],"stateMutability":"view"},{"type":"function","name":"SEND_AND_COMPOSE","inputs":[],"outputs":[{"name":"","type":"uint16","internalType":"uint16"}],"stateMutability":"view"},{"type":"function","name":"allowInitializePath","inputs":[{"name":"origin","type":"tuple","internalType":"struct Origin","components":[{"name":"srcEid","type":"uint32","internalType":"uint32"},{"name":"sender","type":"bytes32","internalType":"bytes32"},{"name":"nonce","type":"uint64","internalType":"uint64"}]}],"outputs":[{"name":"","type":"bool","internalType":"bool"}],"stateMutability":"view"},{"type":"function","name":"approvalRequired","inputs":[],"outputs":[{"name":"","type":"bool","internalType":"bool"}],"stateMutability":"pure"},{"type":"function","name":"approve","inputs":[{"name":"to","type":"address","internalType":"address"},{"name":"tokenId","type":"uint256","internalType":"uint256"}],"outputs":[],"stateMutability":"nonpayable"},{"type":"function","name":"balanceOf","inputs":[{"name":"owner","type":"address","internalType":"address"}],"outputs":[{"name":"","type":"uint256","internalType":"uint256"}],"stateMutability":"view"},{"type":"function","name":"combineOptions","inputs":[{"name":"_eid","type":"uint32","internalType":"uint32"},{"name":"_msgType","type":"uint16","internalType":"uint16"},{"name":"_extraOptions","type":"bytes","internalType":"bytes"}],"outputs":[{"name":"","type":"bytes","internalType":"bytes"}],"stateMutability":"view"},{"type":"function","name":"endpoint","inputs":[],"outputs":[{"name":"","type":"address","internalType":"contract ILayerZeroEndpointV2"}],"stateMutability":"view"},{"type":"function","name":"enforcedOptions","inputs":[{"name":"eid","type":"uint32","internalType":"uint32"},{"name":"msgType","type":"uint16","internalType":"uint16"}],"outputs":[{"name":"enforcedOption","type":"bytes","internalType":"bytes"}],"stateMutability":"view"},{"type":"function","name":"getApproved","inputs":[{"name":"tokenId","type":"uint256","internalType":"uint256"}],"outputs":[{"name":"","type":"address","internalType":"address"}],"stateMutability":"view"},{"type":"function","name":"isApprovedForAll","inputs":[{"name":"owner","type":"address","internalType":"address"},{"name":"operator","type":"address","internalType":"address"}],"outputs":[{"name":"","type":"bool","internalType":"bool"}],"stateMutability":"view"},{"type":"function","name":"isComposeMsgSender","inputs":[{"name":"","type":"tuple","internalType":"struct Origin","components":[{"name":"srcEid","type":"uint32","internalType":"uint32"},{"name":"sender","type":"bytes32","internalType":"bytes32"},{"name":"nonce","type":"uint64","internalType":"uint64"}]},{"name":"","type":"bytes","internalType":"bytes"},{"name":"_sender","type":"address","internalType":"address"}],"outputs":[{"name":"","type":"bool","internalType":"bool"}],"stateMutability":"view"},{"type":"function","name":"isPeer","inputs":[{"name":"_eid","type":"uint32","internalType":"uint32"},{"name":"_peer","type":"bytes32","internalType":"bytes32"}],"outputs":[{"name":"","type":"bool","internalType":"bool"}],"stateMutability":"view"},{"type":"function","name":"lzReceive","inputs":[{"name":"_origin","type":"tuple","internalType":"struct Origin","components":[{"name":"srcEid","type":"uint32","internalType":"uint32"},{"name":"sender","type":"bytes32","internalType":"bytes32"},{"name":"nonce","type":"uint64","internalType":"uint64"}]},{"name":"_guid","type":"bytes32","internalType":"bytes32"},{"name":"_message","type":"bytes","internalType":"bytes"},{"name":"_executor","type":"address","internalType":"address"},{"name":"_extraData","type":"bytes","internalType":"bytes"}],"outputs":[],"stateMutability":"payable"},{"type":"function","name":"lzReceiveAndRevert","inputs":[{"name":"_packets","type":"tuple[]","internalType":"struct InboundPacket[]","components":[{"name":"origin","type":"tuple","internalType":"struct Origin","components":[{"name":"srcEid","type":"uint32","internalType":"uint32"},{"name":"sender","type":"bytes32","internalType":"bytes32"},{"name":"nonce","type":"uint64","internalType":"uint64"}]},{"name":"dstEid","type":"uint32","internalType":"uint32"},{"name":"receiver","type":"address","internalType":"address"},{"name":"guid","type":"bytes32","internalType":"bytes32"},{"name":"value","type":"uint256","internalType":"uint256"},{"name":"executor","type":"address","internalType":"address"},{"name":"message","type":"bytes","internalType":"bytes"},{"name":"extraData","type":"bytes","internalType":"bytes"}]}],"outputs":[],"stateMutability":"payable"},{"type":"function","name":"lzReceiveSimulate","inputs":[{"name":"_origin","type":"tuple","internalType":"struct Origin","components":[{"name":"srcEid","type":"uint32","internalType":"uint32"},{"name":"sender","type":"bytes32","internalType":"bytes32"},{"name":"nonce","type":"uint64","internalType":"uint64"}]},{"name":"_guid","type":"bytes32","internalType":"bytes32"},{"name":"_message","type":"bytes","internalType":"bytes"},{"name":"_executor","type":"address","internalType":"address"},{"name":"_extraData","type":"bytes","internalType":"bytes"}],"outputs":[],"stateMutability":"payable"},{"type":"function","name":"msgInspector","inputs":[],"outputs":[{"name":"","type":"address","internalType":"address"}],"stateMutability":"view"},{"type":"function","name":"name","inputs":[],"outputs":[{"name":"","type":"string","internalType":"string"}],"stateMutability":"view"},{"type":"function","name":"nextNonce","inputs":[{"name":"","type":"uint32","internalType":"uint32"},{"name":"","type":"bytes32","internalType":"bytes32"}],"outputs":[{"name":"nonce","type":"uint64","internalType":"uint64"}],"stateMutability":"view"},{"type":"function","name":"oApp","inputs":[],"outputs":[{"name":"","type":"address","internalType":"address"}],"stateMutability":"view"},{"type":"function","name":"oAppVersion","inputs":[],"outputs":[{"name":"senderVersion","type":"uint64","internalType":"uint64"},{"name":"receiverVersion","type":"uint64","internalType":"uint64"}],"stateMutability":"pure"},{"type":"function","name":"onftVersion","inputs":[],"outputs":[{"name":"interfaceId","type":"bytes4","internalType":"bytes4"},{"name":"version","type":"uint64","internalType":"uint64"}],"stateMutability":"pure"},{"type":"function","name":"owner","inputs":[],"outputs":[{"name":"","type":"address","internalType":"address"}],"stateMutability":"view"},{"type":"function","name":"ownerOf","inputs":[{"name":"tokenId","type":"uint256","internalType":"uint256"}],"outputs":[{"name":"","type":"address","internalType":"address"}],"stateMutability":"view"},{"type":"function","name":"peers","inputs":[{"name":"eid","type":"uint32","internalType":"uint32"}],"outputs":[{"name":"peer","type":"bytes32","internalType":"bytes32"}],"stateMutability":"view"},{"type":"function","name":"preCrime","inputs":[],"outputs":[{"name":"","type":"address","internalType":"address"}],"stateMutability":"view"},{"type":"function","name":"quoteSend","inputs":[{"name":"_sendParam","type":"tuple","internalType":"struct SendParam","components":[{"name":"dstEid","type":"uint32","internalType":"uint32"},{"name":"to","type":"bytes32","internalType":"bytes32"},{"name":"tokenId","type":"uint256","internalType":"uint256"},{"name":"extraOptions","type":"bytes","internalType":"bytes"},{"name":"composeMsg","type":"bytes","internalType":"bytes"},{"name":"onftCmd","type":"bytes","internalType":"bytes"}]},{"name":"_payInLzToken","type":"bool","internalType":"bool"}],"outputs":[{"name":"msgFee","type":"tuple","internalType":"struct MessagingFee","components":[{"name":"nativeFee","type":"uint256","internalType":"uint256"},{"name":"lzTokenFee","type":"uint256","internalType":"uint256"}]}],"stateMutability":"view"},{"type":"function","name":"renounceOwnership","inputs":[],"outputs":[],"stateMutability":"nonpayable"},{"type":"function","name":"safeTransferFrom","inputs":[{"name":"from","type":"address","internalType":"address"},{"name":"to","type":"address","internalType":"address"},{"name":"tokenId","type":"uint256","internalType":"uint256"}],"outputs":[],"stateMutability":"nonpayable"},{"type":"function","name":"safeTransferFrom","inputs":[{"name":"from","type":"address","internalType":"address"},{"name":"to","type":"address","internalType":"address"},{"name":"tokenId","type":"uint256","internalType":"uint256"},{"name":"data","type":"bytes","internalType":"bytes"}],"outputs":[],"stateMutability":"nonpayable"},{"type":"function","name":"send","inputs":[{"name":"_sendParam","type":"tuple","internalType":"struct SendParam","components":[{"name":"dstEid","type":"uint32","internalType":"uint32"},{"name":"to","type":"bytes32","internalType":"bytes32"},{"name":"tokenId","type":"uint256","internalType":"uint256"},{"name":"extraOptions","type":"bytes","internalType":"bytes"},{"name":"composeMsg","type":"bytes","internalType":"bytes"},{"name":"onftCmd","type":"bytes","internalType":"bytes"}]},{"name":"_fee","type":"tuple","internalType":"struct MessagingFee","components":[{"name":"nativeFee","type":"uint256","internalType":"uint256"},{"name":"lzTokenFee","type":"uint256","internalType":"uint256"}]},{"name":"_refundAddress","type":"address","internalType":"address"}],"outputs":[{"name":"msgReceipt","type":"tuple","internalType":"struct MessagingReceipt","components":[{"name":"guid","type":"bytes32","internalType":"bytes32"},{"name":"nonce","type":"uint64","internalType":"uint64"},{"name":"fee","type":"tuple","internalType":"struct MessagingFee","components":[{"name":"nativeFee","type":"uint256","internalType":"uint256"},{"name":"lzTokenFee","type":"uint256","internalType":"uint256"}]}]}],"stateMutability":"payable"},{"type":"function","name":"setApprovalForAll","inputs":[{"name":"operator","type":"address","internalType":"address"},{"name":"approved","type":"bool","internalType":"bool"}],"outputs":[],"stateMutability":"nonpayable"},{"type":"function","name":"setDelegate","inputs":[{"name":"_delegate","type":"address","internalType":"address"}],"outputs":[],"stateMutability":"nonpayable"},{"type":"function","name":"setEnforcedOptions","inputs":[{"name":"_enforcedOptions","type":"tuple[]","internalType":"struct EnforcedOptionParam[]","components":[{"name":"eid","type":"uint32","internalType":"uint32"},{"name":"msgType","type":"uint16","internalType":"uint16"},{"name":"options","type":"bytes","internalType":"bytes"}]}],"outputs":[],"stateMutability":"nonpayable"},{"type":"function","name":"setMsgInspector","inputs":[{"name":"_msgInspector","type":"address","internalType":"address"}],"outputs":[],"stateMutability":"nonpayable"},{"type":"function","name":"setPeer","inputs":[{"name":"_eid","type":"uint32","internalType":"uint32"},{"name":"_peer","type":"bytes32","internalType":"bytes32"}],"outputs":[],"stateMutability":"nonpayable"},{"type":"function","name":"setPreCrime","inputs":[{"name":"_preCrime","type":"address","internalType":"address"}],"outputs":[],"stateMutability":"nonpayable"},{"type":"function","name":"supportsInterface","inputs":[{"name":"interfaceId","type":"bytes4","internalType":"bytes4"}],"outputs":[{"name":"","type":"bool","internalType":"bool"}],"stateMutability":"view"},{"type":"function","name":"symbol","inputs":[],"outputs":[{"name":"","type":"string","internalType":"string"}],"stateMutability":"view"},{"type":"function","name":"token","inputs":[],"outputs":[{"name":"","type":"address","internalType":"address"}],"stateMutability":"view"},{"type":"function","name":"tokenURI","inputs":[{"name":"tokenId","type":"uint256","internalType":"uint256"}],"outputs":[{"name":"","type":"string","internalType":"string"}],"stateMutability":"view"},{"type":"function","name":"transferFrom","inputs":[{"name":"from","type":"address","internalType":"address"},{"name":"to","type":"address","internalType":"address"},{"name":"tokenId","type":"uint256","internalType":"uint256"}],"outputs":[],"stateMutability":"nonpayable"},{"type":"function","name":"transferOwnership","inputs":[{"name":"newOwner","type":"address","internalType":"address"}],"outputs":[],"stateMutability":"nonpayable"},{"type":"event","name":"Approval","inputs":[{"name":"owner","type":"address","indexed":true,"internalType":"address"},{"name":"approved","type":"address","indexed":true,"internalType":"address"},{"name":"tokenId","type":"uint256","indexed":true,"internalType":"uint256"}],"anonymous":false},{"type":"event","name":"ApprovalForAll","inputs":[{"name":"owner","type":"address","indexed":true,"internalType":"address"},{"name":"operator","type":"address","indexed":true,"internalType":"address"},{"name":"approved","type":"bool","indexed":false,"internalType":"bool"}],"anonymous":false},{"type":"event","name":"EnforcedOptionSet","inputs":[{"name":"_enforcedOptions","type":"tuple[]","indexed":false,"internalType":"struct EnforcedOptionParam[]","components":[{"name":"eid","type":"uint32","internalType":"uint32"},{"name":"msgType","type":"uint16","internalType":"uint16"},{"name":"options","type":"bytes","internalType":"bytes"}]}],"anonymous":false},{"type":"event","name":"MsgInspectorSet","inputs":[{"name":"inspector","type":"address","indexed":false,"internalType":"address"}],"anonymous":false},{"type":"event","name":"ONFTReceived","inputs":[{"name":"guid","type":"bytes32","indexed":true,"internalType":"bytes32"},{"name":"srcEid","type":"uint32","indexed":false,"internalType":"uint32"},{"name":"toAddress","type":"address","indexed":true,"internalType":"address"},{"name":"tokenId","type":"uint256","indexed":false,"internalType":"uint256"}],"anonymous":false},{"type":"event","name":"ONFTSent","inputs":[{"name":"guid","type":"bytes32","indexed":true,"internalType":"bytes32"},{"name":"dstEid","type":"uint32","indexed":false,"internalType":"uint32"},{"name":"fromAddress","type":"address","indexed":true,"internalType":"address"},{"name":"tokenId","type":"uint256","indexed":false,"internalType":"uint256"}],"anonymous":false},{"type":"event","name":"OwnershipTransferred","inputs":[{"name":"previousOwner","type":"address","indexed":true,"internalType":"address"},{"name":"newOwner","type":"address","indexed":true,"internalType":"address"}],"anonymous":false},{"type":"event","name":"PeerSet","inputs":[{"name":"eid","type":"uint32","indexed":false,"internalType":"uint32"},{"name":"peer","type":"bytes32","indexed":false,"internalType":"bytes32"}],"anonymous":false},{"type":"event","name":"PreCrimeSet","inputs":[{"name":"preCrimeAddress","type":"address","indexed":false,"internalType":"address"}],"anonymous":false},{"type":"event","name":"Transfer","inputs":[{"name":"from","type":"address","indexed":true,"internalType":"address"},{"name":"to","type":"address","indexed":true,"internalType":"address"},{"name":"tokenId","type":"uint256","indexed":true,"internalType":"uint256"}],"anonymous":false},{"type":"error","name":"AddressEmptyCode","inputs":[{"name":"target","type":"address","internalType":"address"}]},{"type":"error","name":"AddressInsufficientBalance","inputs":[{"name":"account","type":"address","internalType":"address"}]},{"type":"error","name":"ERC721IncorrectOwner","inputs":[{"name":"sender","type":"address","internalType":"address"},{"name":"tokenId","type":"uint256","internalType":"uint256"},{"name":"owner","type":"address","internalType":"address"}]},{"type":"error","name":"ERC721InsufficientApproval","inputs":[{"name":"operator","type":"address","internalType":"address"},{"name":"tokenId","type":"uint256","internalType":"uint256"}]},{"type":"error","name":"ERC721InvalidApprover","inputs":[{"name":"approver","type":"address","internalType":"address"}]},{"type":"error","name":"ERC721InvalidOperator","inputs":[{"name":"operator","type":"address","internalType":"address"}]},{"type":"error","name":"ERC721InvalidOwner","inputs":[{"name":"owner","type":"address","internalType":"address"}]},{"type":"error","name":"ERC721InvalidReceiver","inputs":[{"name":"receiver","type":"address","internalType":"address"}]},{"type":"error","name":"ERC721InvalidSender","inputs":[{"name":"sender","type":"address","internalType":"address"}]},{"type":"error","name":"ERC721NonexistentToken","inputs":[{"name":"tokenId","type":"uint256","internalType":"uint256"}]},{"type":"error","name":"FailedInnerCall","inputs":[]},{"type":"error","name":"InvalidDelegate","inputs":[]},{"type":"error","name":"InvalidEndpointCall","inputs":[]},{"type":"error","name":"InvalidOptions","inputs":[{"name":"options","type":"bytes","internalType":"bytes"}]},{"type":"error","name":"InvalidReceiver","inputs":[]},{"type":"error","name":"LzTokenUnavailable","inputs":[]},{"type":"error","name":"NoPeer","inputs":[{"name":"eid","type":"uint32","internalType":"uint32"}]},{"type":"error","name":"NotEnoughNative","inputs":[{"name":"msgValue","type":"uint256","internalType":"uint256"}]},{"type":"error","name":"OnlyEndpoint","inputs":[{"name":"addr","type":"address","internalType":"address"}]},{"type":"error","name":"OnlyNFTOwner","inputs":[{"name":"caller","type":"address","internalType":"address"},{"name":"owner","type":"address","internalType":"address"}]},{"type":"error","name":"OnlyPeer","inputs":[{"name":"eid","type":"uint32","internalType":"uint32"},{"name":"sender","type":"bytes32","internalType":"bytes32"}]},{"type":"error","name":"OnlySelf","inputs":[]},{"type":"error","name":"OwnableInvalidOwner","inputs":[{"name":"owner","type":"address","internalType":"address"}]},{"type":"error","name":"OwnableUnauthorizedAccount","inputs":[{"name":"account","type":"address","internalType":"address"}]},{"type":"error","name":"SafeERC20FailedOperation","inputs":[{"name":"token","type":"address","internalType":"address"}]},{"type":"error","name":"SimulationResult","inputs":[{"name":"result","type":"bytes","internalType":"bytes"}]}],"bytecode":{"object":"0x60a06040523480156200001157600080fd5b50604051620038ff380380620038ff833981016040819052620000349162000277565b838383838383838381818181806001600160a01b0381166200007057604051631e4fbdf760e01b81526000600482015260240160405180910390fd5b6200007b8162000142565b506001600160a01b038083166080528116620000aa57604051632d618d8160e21b815260040160405180910390fd5b60805160405163ca5eb5e160e01b81526001600160a01b0383811660048301529091169063ca5eb5e190602401600060405180830381600087803b158015620000f257600080fd5b505af115801562000107573d6000803e3d6000fd5b50505050505050505050816005908162000122919062000397565b50600662000131828262000397565b505050505050505050505062000463565b600080546001600160a01b038381166001600160a01b0319831681178455604051919092169283917f8be0079c531659141344cd1fd0a4f28419497f9722a3daafe3b4186f6b6457e09190a35050565b634e487b7160e01b600052604160045260246000fd5b600082601f830112620001ba57600080fd5b81516001600160401b0380821115620001d757620001d762000192565b604051601f8301601f19908116603f0116810190828211818310171562000202576200020262000192565b81604052838152602092508660208588010111156200022057600080fd5b600091505b8382101562000244578582018301518183018401529082019062000225565b6000602085830101528094505050505092915050565b80516001600160a01b03811681146200027257600080fd5b919050565b600080600080608085870312156200028e57600080fd5b84516001600160401b0380821115620002a657600080fd5b620002b488838901620001a8565b95506020870151915080821115620002cb57600080fd5b50620002da87828801620001a8565b935050620002eb604086016200025a565b9150620002fb606086016200025a565b905092959194509250565b600181811c908216806200031b57607f821691505b6020821081036200033c57634e487b7160e01b600052602260045260246000fd5b50919050565b601f82111562000392576000816000526020600020601f850160051c810160208610156200036d5750805b601f850160051c820191505b818110156200038e5782815560010162000379565b5050505b505050565b81516001600160401b03811115620003b357620003b362000192565b620003cb81620003c4845462000306565b8462000342565b602080601f831160018114620004035760008415620003ea5750858301515b600019600386901b1c1916600185901b1785556200038e565b600085815260208120601f198616915b82811015620004345788860151825594840194600190910190840162000413565b5085821015620004535787850151600019600388901b60f8161c191681555b5050505050600190811b01905550565b60805161344f620004b06000396000818161048b0152818161090d01528181611162015281816113f70152818161167a01528181611c270152818161200601526120bf015261344f6000f3fe60806040526004361061025c5760003560e01c806382413eac11610144578063bc70b354116100b6578063d045a0dc1161007a578063d045a0dc1461075c578063d42438851461076f578063e985e9c51461078f578063f2fde38b146107af578063fc0c546a1461040f578063ff7bd03d146107cf57600080fd5b8063bc70b354146106bc578063bd815db0146106dc578063c6414e7b146106ef578063c87b56dd1461071c578063ca5eb5e11461073c57600080fd5b8063a72f5dd811610108578063a72f5dd8146105f2578063b21a33e41461061a578063b731ea0a1461062f578063b88d4fde1461064f578063b98bd0701461066f578063bb0b6a531461068f57600080fd5b806382413eac1461056b5780638da5cb5b1461058b57806395d89b41146105a95780639f68b964146105be578063a22cb465146105d257600080fd5b80633400288b116101dd5780635e280f11116101a15780635e280f11146104795780636352211e146104ad5780636fc1b31e146104cd57806370a08231146104ed578063715018a61461051b5780637d25a05e1461053057600080fd5b80633400288b146103cf57806342842e0e146103ef57806352ae28791461040f5780635535d461146104225780635a0dfe4d1461044257600080fd5b806313137d651161022457806313137d651461033257806317442b70146103455780631f5e13341461036757806321eb730b1461038f57806323b872dd146103af57600080fd5b806301ffc9a71461026157806306fdde0314610296578063081812fc146102b8578063095ea7b3146102f0578063111ecdad14610312575b600080fd5b34801561026d57600080fd5b5061028161027c366004612509565b6107ef565b60405190151581526020015b60405180910390f35b3480156102a257600080fd5b506102ab610841565b60405161028d9190612576565b3480156102c457600080fd5b506102d86102d3366004612589565b6108d3565b6040516001600160a01b03909116815260200161028d565b3480156102fc57600080fd5b5061031061030b3660046125b7565b6108fc565b005b34801561031e57600080fd5b506004546102d8906001600160a01b031681565b610310610340366004612643565b61090b565b34801561035157600080fd5b506040805160018152600260208201520161028d565b34801561037357600080fd5b5061037c600181565b60405161ffff909116815260200161028d565b6103a261039d3660046126f4565b6109cb565b60405161028d9190612761565b3480156103bb57600080fd5b506103106103ca3660046127a3565b610aa6565b3480156103db57600080fd5b506103106103ea3660046127fd565b610b31565b3480156103fb57600080fd5b5061031061040a3660046127a3565b610b43565b34801561041b57600080fd5b50306102d8565b34801561042e57600080fd5b506102ab61043d36600461282b565b610b63565b34801561044e57600080fd5b5061028161045d3660046127fd565b63ffffffff919091166000908152600160205260409020541490565b34801561048557600080fd5b506102d87f000000000000000000000000000000000000000000000000000000000000000081565b3480156104b957600080fd5b506102d86104c8366004612589565b610c08565b3480156104d957600080fd5b506103106104e836600461285e565b610c13565b3480156104f957600080fd5b5061050d61050836600461285e565b610c70565b60405190815260200161028d565b34801561052757600080fd5b50610310610cb8565b34801561053c57600080fd5b5061055361054b3660046127fd565b600092915050565b6040516001600160401b03909116815260200161028d565b34801561057757600080fd5b5061028161058636600461287b565b610ccc565b34801561059757600080fd5b506000546001600160a01b03166102d8565b3480156105b557600080fd5b506102ab610ce1565b3480156105ca57600080fd5b506000610281565b3480156105de57600080fd5b506103106105ed3660046128ef565b610cf0565b3480156105fe57600080fd5b50604080516311f0c6d360e11b8152600160208201520161028d565b34801561062657600080fd5b5061037c600281565b34801561063b57600080fd5b506002546102d8906001600160a01b031681565b34801561065b57600080fd5b5061031061066a366004612a35565b610cfb565b34801561067b57600080fd5b5061031061068a366004612ae4565b610d12565b34801561069b57600080fd5b5061050d6106aa366004612b25565b60016020526000908152604090205481565b3480156106c857600080fd5b506102ab6106d7366004612b40565b610d2c565b6103106106ea366004612ae4565b610ed4565b3480156106fb57600080fd5b5061070f61070a366004612ba0565b61105e565b60405161028d9190612be6565b34801561072857600080fd5b506102ab610737366004612589565b6110c6565b34801561074857600080fd5b5061031061075736600461285e565b61113b565b61031061076a366004612643565b6111c1565b34801561077b57600080fd5b5061031061078a36600461285e565b6111f0565b34801561079b57600080fd5b506102816107aa366004612bfd565b611246565b3480156107bb57600080fd5b506103106107ca36600461285e565b611274565b3480156107db57600080fd5b506102816107ea366004612c2b565b6112b2565b60006001600160e01b031982166380ac58cd60e01b148061082057506001600160e01b03198216635b5e139f60e01b145b8061083b57506301ffc9a760e01b6001600160e01b03198316145b92915050565b60606005805461085090612c47565b80601f016020809104026020016040519081016040528092919081815260200182805461087c90612c47565b80156108c95780601f1061089e576101008083540402835291602001916108c9565b820191906000526020600020905b8154815290600101906020018083116108ac57829003601f168201915b5050505050905090565b60006108de826112e8565b506000828152600960205260409020546001600160a01b031661083b565b610907828233611321565b5050565b7f00000000000000000000000000000000000000000000000000000000000000006001600160a01b0316331461095b576040516391ac5e4f60e01b81523360048201526024015b60405180910390fd5b6020870180359061097590610970908a612b25565b61132e565b146109b3576109876020880188612b25565b60405163309afaf360e21b815263ffffffff909116600482015260208801356024820152604401610952565b6109c28787878787878761136a565b50505050505050565b6109d36124ac565b60208401356109f557604051631e4ec46b60e01b815260040160405180910390fd5b610a10336040860135610a0b6020880188612b25565b6114c9565b600080610a1c86611529565b9092509050610a48610a316020880188612b25565b8383610a42368a90038a018a612c7b565b88611647565b805190935033907f986156872b2ee0022b9585231dbbfde457f87f8a16b6c45e1a81c54c4ad8351f610a7d60208a018a612b25565b6040805163ffffffff9092168252808b013560208301520160405180910390a350509392505050565b6001600160a01b038216610ad057604051633250574960e11b815260006004820152602401610952565b6000610add838333611752565b9050836001600160a01b0316816001600160a01b031614610b2b576040516364283d7b60e01b81526001600160a01b0380861660048301526024820184905282166044820152606401610952565b50505050565b610b3961184b565b6109078282611878565b610b5e83838360405180602001604052806000815250610cfb565b505050565b600360209081526000928352604080842090915290825290208054610b8790612c47565b80601f0160208091040260200160405190810160405280929190818152602001828054610bb390612c47565b8015610c005780601f10610bd557610100808354040283529160200191610c00565b820191906000526020600020905b815481529060010190602001808311610be357829003601f168201915b505050505081565b600061083b826112e8565b610c1b61184b565b600480546001600160a01b0319166001600160a01b0383169081179091556040519081527ff0be4f1e87349231d80c36b33f9e8639658eeaf474014dee15a3e6a4d4414197906020015b60405180910390a150565b60006001600160a01b038216610c9c576040516322718ad960e21b815260006004820152602401610952565b506001600160a01b031660009081526008602052604090205490565b610cc061184b565b610cca60006118cd565b565b6001600160a01b03811630145b949350505050565b60606006805461085090612c47565b61090733838361191d565b610d06848484610aa6565b610b2b848484846119bc565b610d1a61184b565b610907610d278284612cad565b611ade565b63ffffffff8416600090815260036020908152604080832061ffff87168452909152812080546060929190610d6090612c47565b80601f0160208091040260200160405190810160405280929190818152602001828054610d8c90612c47565b8015610dd95780601f10610dae57610100808354040283529160200191610dd9565b820191906000526020600020905b815481529060010190602001808311610dbc57829003601f168201915b505050505090508051600003610e295783838080601f016020809104026020016040519081016040528093929190818152602001838380828437600092019190915250929450610cd99350505050565b6000839003610e39579050610cd9565b60028310610eb757610e8084848080601f016020809104026020016040519081016040528093929190818152602001838380828437600092019190915250611be592505050565b80610e8e8460028188612d82565b604051602001610ea093929190612dac565b604051602081830303815290604052915050610cd9565b8383604051639a6d49cd60e01b8152600401610952929190612dfd565b60005b81811015610fdd5736838383818110610ef257610ef2612e11565b9050602002810190610f049190612e27565b9050610f37610f166020830183612b25565b602083013563ffffffff919091166000908152600160205260409020541490565b610f415750610fd5565b3063d045a0dc60c08301358360a0810135610f60610100830183612e48565b610f71610100890160e08a0161285e565b610f7f6101208a018a612e48565b6040518963ffffffff1660e01b8152600401610fa19796959493929190612ea3565b6000604051808303818588803b158015610fba57600080fd5b505af1158015610fce573d6000803e3d6000fd5b5050505050505b600101610ed7565b50336001600160a01b0316638e9e70996040518163ffffffff1660e01b8152600401600060405180830381865afa15801561101c573d6000803e3d6000fd5b505050506040513d6000823e601f3d908101601f191682016040526110449190810190612f29565b604051638351eea760e01b81526004016109529190612576565b6040805180820190915260008082526020820152602083013561109457604051631e4ec46b60e01b815260040160405180910390fd5b6000806110a085611529565b90925090506110bd6110b56020870187612b25565b838387611c11565b95945050505050565b60606110d1826112e8565b5060006110e960408051602081019091526000815290565b905060008151116111095760405180602001604052806000815250611134565b8061111384611ce9565b604051602001611124929190612f96565b6040516020818303038152906040525b9392505050565b61114361184b565b60405163ca5eb5e160e01b81526001600160a01b0382811660048301527f0000000000000000000000000000000000000000000000000000000000000000169063ca5eb5e190602401600060405180830381600087803b1580156111a657600080fd5b505af11580156111ba573d6000803e3d6000fd5b5050505050565b3330146111e15760405163029a949d60e31b815260040160405180910390fd5b6109c2878787878787876109b3565b6111f861184b565b600280546001600160a01b0319166001600160a01b0383169081179091556040519081527fd48d879cef83a1c0bdda516f27b13ddb1b3f8bbac1c9e1511bb2a659c242776090602001610c65565b6001600160a01b039182166000908152600a6020908152604080832093909416825291909152205460ff1690565b61127c61184b565b6001600160a01b0381166112a657604051631e4fbdf760e01b815260006004820152602401610952565b6112af816118cd565b50565b60006020820180359060019083906112ca9086612b25565b63ffffffff1681526020810191909152604001600020541492915050565b6000818152600760205260408120546001600160a01b03168061083b57604051637e27328960e01b815260048101849052602401610952565b610b5e8383836001611d7b565b63ffffffff81166000908152600160205260408120548061083b5760405163f6ff4fb760e01b815263ffffffff84166004820152602401610952565b600061137c6113798787611e81565b90565b9050600061138a8787611e99565b90506113a3828261139e60208d018d612b25565b611eb6565b60408611156114675760006113dd6113c160608c0160408d01612fc5565b6113ce60208d018d612b25565b6113d88b8b611ec0565b611f0b565b604051633e5ac80960e11b81529091506001600160a01b037f00000000000000000000000000000000000000000000000000000000000000001690637cb59012906114339086908d906000908790600401612fe2565b600060405180830381600087803b15801561144d57600080fd5b505af1158015611461573d6000803e3d6000fd5b50505050505b6001600160a01b038216887f7883fa30ea56937810e36990b0bbb8d629d0cf59f68baf8431ff657cebe7eef56114a060208d018d612b25565b6040805163ffffffff9092168252602082018690520160405180910390a3505050505050505050565b6114d282610c08565b6001600160a01b0316836001600160a01b03161461152057826114f483610c08565b604051634342715b60e11b81526001600160a01b03928316600482015291166024820152604401610952565b610b5e82611f3a565b6060806000611582602085013560408601356115486080880188612e48565b8080601f016020809104026020016040519081016040528093929190818152602001838380828437600092019190915250611f7592505050565b9093509050600081611595576001611598565b60025b90506115b86115aa6020870187612b25565b826106d76060890189612e48565b6004549093506001600160a01b031615611640576004805460405163043a78eb60e01b81526001600160a01b039091169163043a78eb916115fd918891889101613013565b602060405180830381865afa15801561161a573d6000803e3d6000fd5b505050506040513d601f19601f8201168201806040525081019061163e9190613038565b505b5050915091565b61164f6124ac565b600061165e8460000151611fda565b602085015190915015611678576116788460200151612002565b7f00000000000000000000000000000000000000000000000000000000000000006001600160a01b0316632637a450826040518060a001604052808b63ffffffff1681526020016116c88c61132e565b81526020018a815260200189815260200160008960200151111515815250866040518463ffffffff1660e01b8152600401611704929190613055565b60806040518083038185885af1158015611722573d6000803e3d6000fd5b50505050506040513d601f19601f8201168201806040525081019061174791906130fe565b979650505050505050565b6000828152600760205260408120546001600160a01b039081169083161561177f5761177f8184866120e4565b6001600160a01b038116156117bd5761179c600085600080611d7b565b6001600160a01b038116600090815260086020526040902080546000190190555b6001600160a01b038516156117ec576001600160a01b0385166000908152600860205260409020805460010190555b60008481526007602052604080822080546001600160a01b0319166001600160a01b0389811691821790925591518793918516917fddf252ad1be2c89b69c2b068fc378daa952ba7f163c4a11628f55a4df523b3ef91a4949350505050565b6000546001600160a01b03163314610cca5760405163118cdaa760e01b8152336004820152602401610952565b63ffffffff8216600081815260016020908152604091829020849055815192835282018390527f238399d427b947898edb290f5ff0f9109849b1c3ba196a42e35f00c50a54b98b910160405180910390a15050565b600080546001600160a01b038381166001600160a01b0319831681178455604051919092169283917f8be0079c531659141344cd1fd0a4f28419497f9722a3daafe3b4186f6b6457e09190a35050565b6001600160a01b03821661194f57604051630b61174360e31b81526001600160a01b0383166004820152602401610952565b6001600160a01b038381166000818152600a6020908152604080832094871680845294825291829020805460ff191686151590811790915591519182527f17307eab39ab6107e8899845ad3d59bd9653f200f220920489ca2b5937696c31910160405180910390a3505050565b6001600160a01b0383163b15610b2b57604051630a85bd0160e11b81526001600160a01b0384169063150b7a02906119fe903390889087908790600401613148565b6020604051808303816000875af1925050508015611a39575060408051601f3d908101601f19168201909252611a369181019061317b565b60015b611aa2573d808015611a67576040519150601f19603f3d011682016040523d82523d6000602084013e611a6c565b606091505b508051600003611a9a57604051633250574960e11b81526001600160a01b0385166004820152602401610952565b805181602001fd5b6001600160e01b03198116630a85bd0160e11b146111ba57604051633250574960e11b81526001600160a01b0385166004820152602401610952565b60005b8151811015611bb557611b10828281518110611aff57611aff612e11565b602002602001015160400151611be5565b818181518110611b2257611b22612e11565b60200260200101516040015160036000848481518110611b4457611b44612e11565b60200260200101516000015163ffffffff1663ffffffff1681526020019081526020016000206000848481518110611b7e57611b7e612e11565b60200260200101516020015161ffff1661ffff1681526020019081526020016000209081611bac91906131e8565b50600101611ae1565b507fbe4864a8e820971c0247f5992e2da559595f7bf076a21cb5928d443d2a13b67481604051610c6591906132a7565b600281015161ffff81166003146109075781604051639a6d49cd60e01b81526004016109529190612576565b60408051808201909152600080825260208201527f00000000000000000000000000000000000000000000000000000000000000006001600160a01b031663ddc28c586040518060a001604052808863ffffffff168152602001611c748961132e565b8152602001878152602001868152602001851515815250306040518363ffffffff1660e01b8152600401611ca9929190613055565b6040805180830381865afa158015611cc5573d6000803e3d6000fd5b505050506040513d601f19601f820116820180604052508101906110bd9190613332565b60606000611cf683612148565b60010190506000816001600160401b03811115611d1557611d15612928565b6040519080825280601f01601f191660200182016040528015611d3f576020820181803683370190505b5090508181016020015b600019016f181899199a1a9b1b9c1cb0b131b232b360811b600a86061a8153600a8504945084611d4957509392505050565b8080611d8f57506001600160a01b03821615155b15611e51576000611d9f846112e8565b90506001600160a01b03831615801590611dcb5750826001600160a01b0316816001600160a01b031614155b8015611dde5750611ddc8184611246565b155b15611e075760405163a9fbf51f60e01b81526001600160a01b0384166004820152602401610952565b8115611e4f5783856001600160a01b0316826001600160a01b03167f8c5be1e5ebec7d5bd14f71427d1e84f3dd0314c0f7b2291e5b200ac8c7c3b92560405160405180910390a45b505b5050600090815260096020526040902080546001600160a01b0319166001600160a01b0392909216919091179055565b6000611e906020828486612d82565b6111349161334e565b6000611ea9604060208486612d82565b8101906111349190612589565b610b5e8383612220565b6060611ecf8260408186612d82565b8080601f016020809104026020016040519081016040528093929190818152602001838380828437600092019190915250929695505050505050565b6060838383604051602001611f229392919061336c565b60405160208183030381529060405290509392505050565b6000611f496000836000611752565b90506001600160a01b03811661090757604051637e27328960e01b815260048101839052602401610952565b8051606090151580611fa9576040805160208101879052908101859052606001604051602081830303815290604052611fd0565b84843385604051602001611fc094939291906133b6565b6040516020818303038152906040525b9150935093915050565b6000813414611ffe576040516304fb820960e51b8152346004820152602401610952565b5090565b60007f00000000000000000000000000000000000000000000000000000000000000006001600160a01b031663e4fe1d946040518163ffffffff1660e01b8152600401602060405180830381865afa158015612062573d6000803e3d6000fd5b505050506040513d601f19601f8201168201806040525081019061208691906133ea565b90506001600160a01b0381166120af576040516329b99a9560e11b815260040160405180910390fd5b6109076001600160a01b038216337f000000000000000000000000000000000000000000000000000000000000000085612285565b6120ef8383836122df565b610b5e576001600160a01b03831661211d57604051637e27328960e01b815260048101829052602401610952565b60405163177e802f60e01b81526001600160a01b038316600482015260248101829052604401610952565b60008072184f03e93ff9f4daa797ed6e38ed64bf6a1f0160401b83106121875772184f03e93ff9f4daa797ed6e38ed64bf6a1f0160401b830492506040015b6d04ee2d6d415b85acef810000000083106121b3576d04ee2d6d415b85acef8100000000830492506020015b662386f26fc1000083106121d157662386f26fc10000830492506010015b6305f5e10083106121e9576305f5e100830492506008015b61271083106121fd57612710830492506004015b6064831061220f576064830492506002015b600a831061083b5760010192915050565b6001600160a01b03821661224a57604051633250574960e11b815260006004820152602401610952565b600061225883836000611752565b90506001600160a01b03811615610b5e576040516339e3563760e11b815260006004820152602401610952565b604080516001600160a01b0385811660248301528416604482015260648082018490528251808303909101815260849091019091526020810180516001600160e01b03166323b872dd60e01b179052610b2b908590612342565b60006001600160a01b03831615801590610cd95750826001600160a01b0316846001600160a01b0316148061231957506123198484611246565b80610cd95750506000908152600960205260409020546001600160a01b03908116911614919050565b60006123576001600160a01b038416836123a5565b9050805160001415801561237c57508080602001905181019061237a9190613038565b155b15610b5e57604051635274afe760e01b81526001600160a01b0384166004820152602401610952565b60606111348383600084600080856001600160a01b031684866040516123cb9190613407565b60006040518083038185875af1925050503d8060008114612408576040519150601f19603f3d011682016040523d82523d6000602084013e61240d565b606091505b509150915061241d868383612427565b9695505050505050565b60608261243c5761243782612483565b611134565b815115801561245357506001600160a01b0384163b155b1561247c57604051639996b31560e01b81526001600160a01b0385166004820152602401610952565b5080611134565b8051156124935780518082602001fd5b604051630a12f52160e11b815260040160405180910390fd5b60405180606001604052806000801916815260200160006001600160401b031681526020016124ee604051806040016040528060008152602001600081525090565b905290565b6001600160e01b0319811681146112af57600080fd5b60006020828403121561251b57600080fd5b8135611134816124f3565b60005b83811015612541578181015183820152602001612529565b50506000910152565b60008151808452612562816020860160208601612526565b601f01601f19169290920160200192915050565b602081526000611134602083018461254a565b60006020828403121561259b57600080fd5b5035919050565b6001600160a01b03811681146112af57600080fd5b600080604083850312156125ca57600080fd5b82356125d5816125a2565b946020939093013593505050565b6000606082840312156125f557600080fd5b50919050565b60008083601f84011261260d57600080fd5b5081356001600160401b0381111561262457600080fd5b60208301915083602082850101111561263c57600080fd5b9250929050565b600080600080600080600060e0888a03121561265e57600080fd5b61266889896125e3565b96506060880135955060808801356001600160401b038082111561268b57600080fd5b6126978b838c016125fb565b909750955060a08a013591506126ac826125a2565b90935060c089013590808211156126c257600080fd5b506126cf8a828b016125fb565b989b979a50959850939692959293505050565b600060c082840312156125f557600080fd5b6000806000838503608081121561270a57600080fd5b84356001600160401b0381111561272057600080fd5b61272c878288016126e2565b9450506040601f198201121561274157600080fd5b506020840191506060840135612756816125a2565b809150509250925092565b6000608082019050825182526001600160401b036020840151166020830152604083015161279c604084018280518252602090810151910152565b5092915050565b6000806000606084860312156127b857600080fd5b83356127c3816125a2565b925060208401356127d3816125a2565b929592945050506040919091013590565b803563ffffffff811681146127f857600080fd5b919050565b6000806040838503121561281057600080fd5b6125d5836127e4565b803561ffff811681146127f857600080fd5b6000806040838503121561283e57600080fd5b612847836127e4565b915061285560208401612819565b90509250929050565b60006020828403121561287057600080fd5b8135611134816125a2565b60008060008060a0858703121561289157600080fd5b61289b86866125e3565b935060608501356001600160401b038111156128b657600080fd5b6128c2878288016125fb565b90945092505060808501356128d6816125a2565b939692955090935050565b80151581146112af57600080fd5b6000806040838503121561290257600080fd5b823561290d816125a2565b9150602083013561291d816128e1565b809150509250929050565b634e487b7160e01b600052604160045260246000fd5b604080519081016001600160401b038111828210171561296057612960612928565b60405290565b604051606081016001600160401b038111828210171561296057612960612928565b604051601f8201601f191681016001600160401b03811182821017156129b0576129b0612928565b604052919050565b60006001600160401b038211156129d1576129d1612928565b50601f01601f191660200190565b600082601f8301126129f057600080fd5b8135612a036129fe826129b8565b612988565b818152846020838601011115612a1857600080fd5b816020850160208301376000918101602001919091529392505050565b60008060008060808587031215612a4b57600080fd5b8435612a56816125a2565b93506020850135612a66816125a2565b92506040850135915060608501356001600160401b03811115612a8857600080fd5b612a94878288016129df565b91505092959194509250565b60008083601f840112612ab257600080fd5b5081356001600160401b03811115612ac957600080fd5b6020830191508360208260051b850101111561263c57600080fd5b60008060208385031215612af757600080fd5b82356001600160401b03811115612b0d57600080fd5b612b1985828601612aa0565b90969095509350505050565b600060208284031215612b3757600080fd5b611134826127e4565b60008060008060608587031215612b5657600080fd5b612b5f856127e4565b9350612b6d60208601612819565b925060408501356001600160401b03811115612b8857600080fd5b612b94878288016125fb565b95989497509550505050565b60008060408385031215612bb357600080fd5b82356001600160401b03811115612bc957600080fd5b612bd5858286016126e2565b925050602083013561291d816128e1565b81518152602080830151908201526040810161083b565b60008060408385031215612c1057600080fd5b8235612c1b816125a2565b9150602083013561291d816125a2565b600060608284031215612c3d57600080fd5b61113483836125e3565b600181811c90821680612c5b57607f821691505b6020821081036125f557634e487b7160e01b600052602260045260246000fd5b600060408284031215612c8d57600080fd5b612c9561293e565b82358152602083013560208201528091505092915050565b60006001600160401b0380841115612cc757612cc7612928565b8360051b6020612cd8818301612988565b868152918501918181019036841115612cf057600080fd5b865b84811015612d7657803586811115612d0a5760008081fd5b88016060368290031215612d1e5760008081fd5b612d26612966565b612d2f826127e4565b8152612d3c868301612819565b8682015260408083013589811115612d545760008081fd5b612d60368286016129df565b9183019190915250845250918301918301612cf2565b50979650505050505050565b60008085851115612d9257600080fd5b83861115612d9f57600080fd5b5050820193919092039150565b60008451612dbe818460208901612526565b8201838582376000930192835250909392505050565b81835281816020850137506000828201602090810191909152601f909101601f19169091010190565b602081526000610cd9602083018486612dd4565b634e487b7160e01b600052603260045260246000fd5b6000823561013e19833603018112612e3e57600080fd5b9190910192915050565b6000808335601e19843603018112612e5f57600080fd5b8301803591506001600160401b03821115612e7957600080fd5b60200191503681900382131561263c57600080fd5b6001600160401b03811681146112af57600080fd5b63ffffffff612eb1896127e4565b1681526020880135602082015260006040890135612ece81612e8e565b6001600160401b03811660408401525087606083015260e06080830152612ef960e083018789612dd4565b6001600160a01b03861660a084015282810360c0840152612f1b818587612dd4565b9a9950505050505050505050565b600060208284031215612f3b57600080fd5b81516001600160401b03811115612f5157600080fd5b8201601f81018413612f6257600080fd5b8051612f706129fe826129b8565b818152856020838501011115612f8557600080fd5b6110bd826020830160208601612526565b60008351612fa8818460208801612526565b835190830190612fbc818360208801612526565b01949350505050565b600060208284031215612fd757600080fd5b813561113481612e8e565b60018060a01b038516815283602082015261ffff8316604082015260806060820152600061241d608083018461254a565b604081526000613026604083018561254a565b82810360208401526110bd818561254a565b60006020828403121561304a57600080fd5b8151611134816128e1565b6040815263ffffffff8351166040820152602083015160608201526000604084015160a0608084015261308b60e084018261254a565b90506060850151603f198483030160a08501526130a8828261254a565b60809690960151151560c08501525050506001600160a01b039190911660209091015290565b6000604082840312156130e057600080fd5b6130e861293e565b9050815181526020820151602082015292915050565b60006080828403121561311057600080fd5b613118612966565b82518152602083015161312a81612e8e565b602082015261313c84604085016130ce565b60408201529392505050565b6001600160a01b038581168252841660208201526040810183905260806060820181905260009061241d9083018461254a565b60006020828403121561318d57600080fd5b8151611134816124f3565b601f821115610b5e576000816000526020600020601f850160051c810160208610156131c15750805b601f850160051c820191505b818110156131e0578281556001016131cd565b505050505050565b81516001600160401b0381111561320157613201612928565b6132158161320f8454612c47565b84613198565b602080601f83116001811461324a57600084156132325750858301515b600019600386901b1c1916600185901b1785556131e0565b600085815260208120601f198616915b828110156132795788860151825594840194600190910190840161325a565b50858210156132975787850151600019600388901b60f8161c191681555b5050505050600190811b01905550565b600060208083018184528085518083526040925060408601915060408160051b87010184880160005b8381101561332457888303603f190185528151805163ffffffff1684528781015161ffff168885015286015160608785018190526133108186018361254a565b9689019694505050908601906001016132d0565b509098975050505050505050565b60006040828403121561334457600080fd5b61113483836130ce565b8035602083101561083b57600019602084900360031b1b1692915050565b60c084901b6001600160c01b031916815260e083901b6001600160e01b031916600882015281516000906133a781600c850160208701612526565b91909101600c01949350505050565b848152836020820152826040820152600082516133da816060850160208701612526565b9190910160600195945050505050565b6000602082840312156133fc57600080fd5b8151611134816125a2565b60008251612e3e81846020870161252656fea2646970667358221220aeba70189cdddb64fe998fe477d63a2a7e6ea68c6a8a4a2989f18c0e50723cd764736f6c63430008160033","linkReferences":{}},"methodIdentifiers":{"SEND()":"1f5e1334","SEND_AND_COMPOSE()":"b21a33e4","allowInitializePath((uint32,bytes32,uint64))":"ff7bd03d","approvalRequired()":"9f68b964","approve(address,uint256)":"095ea7b3","balanceOf(address)":"70a08231","combineOptions(uint32,uint16,bytes)":"bc70b354","endpoint()":"5e280f11","enforcedOptions(uint32,uint16)":"5535d461","getApproved(uint256)":"081812fc","isApprovedForAll(address,address)":"e985e9c5","isComposeMsgSender((uint32,bytes32,uint64),bytes,address)":"82413eac","isPeer(uint32,bytes32)":"5a0dfe4d","lzReceive((uint32,bytes32,uint64),bytes32,bytes,address,bytes)":"13137d65","lzReceiveAndRevert(((uint32,bytes32,uint64),uint32,address,bytes32,uint256,address,bytes,bytes)[])":"bd815db0","lzReceiveSimulate((uint32,bytes32,uint64),bytes32,bytes,address,bytes)":"d045a0dc","msgInspector()":"111ecdad","name()":"06fdde03","nextNonce(uint32,bytes32)":"7d25a05e","oApp()":"52ae2879","oAppVersion()":"17442b70","onftVersion()":"a72f5dd8","owner()":"8da5cb5b","ownerOf(uint256)":"6352211e","peers(uint32)":"bb0b6a53","preCrime()":"b731ea0a","quoteSend((uint32,bytes32,uint256,bytes,bytes,bytes),bool)":"c6414e7b","renounceOwnership()":"715018a6","safeTransferFrom(address,address,uint256)":"42842e0e","safeTransferFrom(address,address,uint256,bytes)":"b88d4fde","send((uint32,bytes32,uint256,bytes,bytes,bytes),(uint256,uint256),address)":"21eb730b","setApprovalForAll(address,bool)":"a22cb465","setDelegate(address)":"ca5eb5e1","setEnforcedOptions((uint32,uint16,bytes)[])":"b98bd070","setMsgInspector(address)":"6fc1b31e","setPeer(uint32,bytes32)":"3400288b","setPreCrime(address)":"d4243885","supportsInterface(bytes4)":"01ffc9a7","symbol()":"95d89b41","token()":"fc0c546a","tokenURI(uint256)":"c87b56dd","transferFrom(address,address,uint256)":"23b872dd","transferOwnership(address)":"f2fde38b"},"id":0}