{"abi":[{"type":"fallback","stateMutability":"nonpayable"},{"type":"function","name":"isSupportedEid","inputs":[{"name":"","type":"uint32","internalType":"uint32"}],"outputs":[{"name":"","type":"bool","internalType":"bool"}],"stateMutability":"pure"},{"type":"function","name":"messageLibType","inputs":[],"outputs":[{"name":"","type":"uint8","internalType":"enum MessageLibType"}],"stateMutability":"pure"},{"type":"function","name":"supportsInterface","inputs":[{"name":"interfaceId","type":"bytes4","internalType":"bytes4"}],"outputs":[{"name":"","type":"bool","internalType":"bool"}],"stateMutability":"view"},{"type":"function","name":"version","inputs":[],"outputs":[{"name":"major","type":"uint64","internalType":"uint64"},{"name":"minor","type":"uint8","internalType":"uint8"},{"name":"endpointVersion","type":"uint8","internalType":"uint8"}],"stateMutability":"pure"},{"type":"error","name":"LZ_NotImplemented","inputs":[]}],"bytecode":{"object":"0x608060405234801561000f575f80fd5b506102648061001d5f395ff3fe608060405234801561000f575f80fd5b506004361061004a575f3560e01c806301ffc9a71461007c5780631881d94d146100a457806354fd4d50146100b35780636750cd4c146100da575b6040517f2657b6c300000000000000000000000000000000000000000000000000000000815260040160405180910390fd5b61008f61008a366004610186565b6100ee565b60405190151581526020015b60405180910390f35b600260405161009b91906101cc565b6040805167ffffffffffffffff815260ff602082015260029181019190915260600161009b565b61008f6100e836600461020b565b50600190565b5f7fffffffff0000000000000000000000000000000000000000000000000000000082167f97f0258400000000000000000000000000000000000000000000000000000000148061018057507f01ffc9a7000000000000000000000000000000000000000000000000000000007fffffffff000000000000000000000000000000000000000000000000000000008316145b92915050565b5f60208284031215610196575f80fd5b81357fffffffff00000000000000000000000000000000000000000000000000000000811681146101c5575f80fd5b9392505050565b6020810160038310610205577f4e487b71000000000000000000000000000000000000000000000000000000005f52602160045260245ffd5b91905290565b5f6020828403121561021b575f80fd5b813563ffffffff811681146101c5575f80fdfea2646970667358221220d9a9adf2f781e065dbef7f0e24d2766ff52ab57735a4534a4306ee34eadacace64736f6c63430008160033","linkReferences":{}},"methodIdentifiers":{"isSupportedEid(uint32)":"6750cd4c","messageLibType()":"1881d94d","supportsInterface(bytes4)":"01ffc9a7","version()":"54fd4d50"},"id":48}