{"abi":[{"type":"constructor","inputs":[{"name":"_endpoint","type":"address","internalType":"address"},{"name":"_oft","type":"address","internalType":"address"},{"name":"_coreIndexId","type":"uint64","internalType":"uint64"},{"name":"_weiDiff","type":"uint256","internalType":"uint256"}],"stateMutability":"nonpayable"},{"type":"receive","stateMutability":"payable"},{"type":"function","name":"HYPER_CORE_INDEX_ID","inputs":[],"outputs":[{"name":"","type":"uint64","internalType":"uint64"}],"stateMutability":"view"},{"type":"function","name":"HYPER_CORE_INDEX_ID_DECIMAL_DIFF","inputs":[],"outputs":[{"name":"","type":"uint256","internalType":"uint256"}],"stateMutability":"view"},{"type":"function","name":"HYPE_ASSET_BRIDGE_ADDRESS","inputs":[],"outputs":[{"name":"","type":"address","internalType":"address payable"}],"stateMutability":"view"},{"type":"function","name":"L1WritePrecompileAddress","inputs":[],"outputs":[{"name":"","type":"address","internalType":"address"}],"stateMutability":"view"},{"type":"function","name":"OFT_TOKEN_ASSET_BRIDGE_ADDRESS","inputs":[],"outputs":[{"name":"","type":"address","internalType":"address"}],"stateMutability":"view"},{"type":"function","name":"OFT_TOKEN_CORE_INDEX_ID","inputs":[],"outputs":[{"name":"","type":"uint64","internalType":"uint64"}],"stateMutability":"view"},{"type":"function","name":"endpoint","inputs":[],"outputs":[{"name":"","type":"address","internalType":"address"}],"stateMutability":"view"},{"type":"function","name":"lzCompose","inputs":[{"name":"_oft","type":"address","internalType":"address"},{"name":"","type":"bytes32","internalType":"bytes32"},{"name":"_message","type":"bytes","internalType":"bytes"},{"name":"","type":"address","internalType":"address"},{"name":"","type":"bytes","internalType":"bytes"}],"outputs":[],"stateMutability":"payable"},{"type":"function","name":"oft","inputs":[],"outputs":[{"name":"","type":"address","internalType":"contract IOFT"}],"stateMutability":"view"},{"type":"function","name":"token","inputs":[],"outputs":[{"name":"","type":"address","internalType":"contract IERC20"}],"stateMutability":"view"},{"type":"function","name":"weiDiff","inputs":[],"outputs":[{"name":"","type":"uint256","internalType":"uint256"}],"stateMutability":"view"},{"type":"error","name":"HyperLiquidComposer_Codec_InvalidMessage_UnexpectedLength","inputs":[{"name":"message","type":"bytes","internalType":"bytes"},{"name":"length","type":"uint256","internalType":"uint256"}]},{"type":"error","name":"HyperLiquidComposer_InvalidCall_NotEndpoint","inputs":[{"name":"_notEndpointAddress","type":"address","internalType":"address"}]},{"type":"error","name":"HyperLiquidComposer_InvalidCall_NotOFT","inputs":[{"name":"_internalOFTAddress","type":"address","internalType":"address"},{"name":"_receivedOFTAddress","type":"address","internalType":"address"}]},{"type":"error","name":"HyperLiquidComposer_InvalidCall_TokenDoesNotSupportExtension","inputs":[{"name":"_oft","type":"address","internalType":"address"},{"name":"_token","type":"address","internalType":"address"}]}],"bytecode":{"object":"0x61014060405234801562000011575f80fd5b5060405162000ece38038062000ece833981016040819052620000349162000125565b6001600160a01b03831660e081905260408051637e062a3560e11b8152905163fc0c546a916004808201926020929091908290030181865afa1580156200007d573d5f803e3d5ffd5b505050506040513d601f19601f82011682018060405250810190620000a3919062000181565b6001600160a01b0390811661010052841660c052620000cb6001600160401b038316620000f2565b6001600160a01b03166080526001600160401b0390911660a0526101205250620001c49050565b5f62000103826001609d1b620001a4565b92915050565b80516001600160a01b038116811462000120575f80fd5b919050565b5f805f806080858703121562000139575f80fd5b620001448562000109565b9350620001546020860162000109565b60408601519093506001600160401b038116811462000171575f80fd5b6060959095015193969295505050565b5f6020828403121562000192575f80fd5b6200019d8262000109565b9392505050565b808201808211156200010357634e487b7160e01b5f52601160045260245ffd5b60805160a05160c05160e0516101005161012051610c916200023d5f395f818161010a015261075901525f81816102b301526106ad01525f81816102570152818161036401526103db01525f818161019701526102ed01525f8181610224015261073501525f81816101f1015261067e0152610c915ff3fe6080604052600436106100bb575f3560e01c80638412330511610071578063d0a102601161004c578063d0a1026014610279578063dd4c07c81461028e578063fc0c546a146102a2575f80fd5b806384123305146101e05780639a923b9a146102135780639b5215f614610246575f80fd5b806355cd1378116100a157806355cd13781461013a5780635e280f11146101865780636e3bf0ad146101b9575f80fd5b80630813f32f146100c6578063303f1e81146100f9575f80fd5b366100c257005b5f80fd5b3480156100d1575f80fd5b506100db61045181565b60405167ffffffffffffffff90911681526020015b60405180910390f35b348015610104575f80fd5b5061012c7f000000000000000000000000000000000000000000000000000000000000000081565b6040519081526020016100f0565b348015610145575f80fd5b5061016173333333333333333333333333333333333333333381565b60405173ffffffffffffffffffffffffffffffffffffffff90911681526020016100f0565b348015610191575f80fd5b506101617f000000000000000000000000000000000000000000000000000000000000000081565b3480156101c4575f80fd5b5061016173222222222222222222222222222222222222222281565b3480156101eb575f80fd5b506101617f000000000000000000000000000000000000000000000000000000000000000081565b34801561021e575f80fd5b506100db7f000000000000000000000000000000000000000000000000000000000000000081565b348015610251575f80fd5b506101617f000000000000000000000000000000000000000000000000000000000000000081565b61028c6102873660046108f5565b6102d5565b005b348015610299575f80fd5b5061012c600a81565b3480156102ad575f80fd5b506101617f000000000000000000000000000000000000000000000000000000000000000081565b3373ffffffffffffffffffffffffffffffffffffffff7f0000000000000000000000000000000000000000000000000000000000000000161461034b576040517feee35e6f0000000000000000000000000000000000000000000000000000000081523360048201526024015b60405180910390fd5b8673ffffffffffffffffffffffffffffffffffffffff167f000000000000000000000000000000000000000000000000000000000000000073ffffffffffffffffffffffffffffffffffffffff1614610410576040517f86fee0c000000000000000000000000000000000000000000000000000000000815273ffffffffffffffffffffffffffffffffffffffff7f00000000000000000000000000000000000000000000000000000000000000008116600483015288166024820152604401610342565b5f8061041c8787610446565b909250905034156104315761043182346104b6565b61043b8282610641565b505050505050505050565b5f805f610453858561081d565b905060148151146104945780516040517f09b3473100000000000000000000000000000000000000000000000000000000815261034291839160040161098c565b61049d816109fc565b60601c92506104ac8585610869565b9150509250929050565b6040515f907322222222222222222222222222222222222222229083908381818185875af1925050503d805f8114610509576040519150601f19603f3d011682016040523d82523d5f602084013e61050e565b606091505b5050905080610579576040517f08c379a000000000000000000000000000000000000000000000000000000000815260206004820181905260248201527f4661696c656420746f2073656e64204859504520746f204879706572436f72656044820152606401610342565b733333333333333333333333333333333333333333630b0ac0ab846104516105a2600a80610b96565b6105ac9087610ba1565b6040517fffffffff0000000000000000000000000000000000000000000000000000000060e086901b16815273ffffffffffffffffffffffffffffffffffffffff909316600484015267ffffffffffffffff91821660248401521660448201526064015f604051808303815f87803b158015610626575f80fd5b505af1158015610638573d5f803e3d5ffd5b50505050505050565b6040517fa9059cbb00000000000000000000000000000000000000000000000000000000815273ffffffffffffffffffffffffffffffffffffffff7f000000000000000000000000000000000000000000000000000000000000000081166004830152602482018390527f0000000000000000000000000000000000000000000000000000000000000000169063a9059cbb906044016020604051808303815f875af11580156106f3573d5f803e3d5ffd5b505050506040513d601f19601f820116820180604052508101906107179190610bd9565b50733333333333333333333333333333333333333333630b0ac0ab837f000000000000000000000000000000000000000000000000000000000000000061077f7f0000000000000000000000000000000000000000000000000000000000000000600a610b96565b6107899086610ba1565b6040517fffffffff0000000000000000000000000000000000000000000000000000000060e086901b16815273ffffffffffffffffffffffffffffffffffffffff909316600484015267ffffffffffffffff91821660248401521660448201526064015f604051808303815f87803b158015610803575f80fd5b505af1158015610815573d5f803e3d5ffd5b505050505050565b606061082c82604c8186610bf8565b8080601f0160208091040260200160405190810160405280939291908181526020018383808284375f920191909152509293505050505b92915050565b5f610878602c600c8486610bf8565b61088191610c1f565b9392505050565b803573ffffffffffffffffffffffffffffffffffffffff811681146108ab575f80fd5b919050565b5f8083601f8401126108c0575f80fd5b50813567ffffffffffffffff8111156108d7575f80fd5b6020830191508360208285010111156108ee575f80fd5b9250929050565b5f805f805f805f60a0888a03121561090b575f80fd5b61091488610888565b965060208801359550604088013567ffffffffffffffff80821115610937575f80fd5b6109438b838c016108b0565b909750955085915061095760608b01610888565b945060808a013591508082111561096c575f80fd5b506109798a828b016108b0565b989b979a50959850939692959293505050565b604081525f83518060408401525f5b818110156109b8576020818701810151606086840101520161099b565b505f6060828501015260607fffffffffffffffffffffffffffffffffffffffffffffffffffffffffffffffe0601f8301168401019150508260208301529392505050565b5f815160208301517fffffffffffffffffffffffffffffffffffffffff00000000000000000000000080821693506014831015610a435780818460140360031b1b83161693505b505050919050565b7f4e487b71000000000000000000000000000000000000000000000000000000005f52601160045260245ffd5b600181815b80851115610ad157817fffffffffffffffffffffffffffffffffffffffffffffffffffffffffffffffff04821115610ab757610ab7610a4b565b80851615610ac457918102915b93841c9390800290610a7d565b509250929050565b5f82610ae757506001610863565b81610af357505f610863565b8160018114610b095760028114610b1357610b2f565b6001915050610863565b60ff841115610b2457610b24610a4b565b50506001821b610863565b5060208310610133831016604e8410600b8410161715610b52575081810a610863565b610b5c8383610a78565b807fffffffffffffffffffffffffffffffffffffffffffffffffffffffffffffffff04821115610b8e57610b8e610a4b565b029392505050565b5f6108818383610ad9565b5f82610bd4577f4e487b71000000000000000000000000000000000000000000000000000000005f52601260045260245ffd5b500490565b5f60208284031215610be9575f80fd5b81518015158114610881575f80fd5b5f8085851115610c06575f80fd5b83861115610c12575f80fd5b5050820193919092039150565b80356020831015610863577fffffffffffffffffffffffffffffffffffffffffffffffffffffffffffffffff602084900360031b1b169291505056fea26469706673582212201c9b3854a6e44a2e2089e2b3038bf55401b499b34b1fc6766b239dd908ef078764736f6c63430008160033","linkReferences":{}},"methodIdentifiers":{"HYPER_CORE_INDEX_ID()":"0813f32f","HYPER_CORE_INDEX_ID_DECIMAL_DIFF()":"dd4c07c8","HYPE_ASSET_BRIDGE_ADDRESS()":"6e3bf0ad","L1WritePrecompileAddress()":"55cd1378","OFT_TOKEN_ASSET_BRIDGE_ADDRESS()":"84123305","OFT_TOKEN_CORE_INDEX_ID()":"9a923b9a","endpoint()":"5e280f11","lzCompose(address,bytes32,bytes,address,bytes)":"d0a10260","oft()":"9b5215f6","token()":"fc0c546a","weiDiff()":"303f1e81"},"id":76}