{"abi":[{"type":"constructor","inputs":[{"name":"_name","type":"string","internalType":"string"},{"name":"_symbol","type":"string","internalType":"string"},{"name":"_lzEndpoint","type":"address","internalType":"address"},{"name":"_delegate","type":"address","internalType":"address"}],"stateMutability":"nonpayable"},{"type":"function","name":"SEND","inputs":[],"outputs":[{"name":"","type":"uint16","internalType":"uint16"}],"stateMutability":"view"},{"type":"function","name":"SEND_AND_COMPOSE","inputs":[],"outputs":[{"name":"","type":"uint16","internalType":"uint16"}],"stateMutability":"view"},{"type":"function","name":"allowInitializePath","inputs":[{"name":"origin","type":"tuple","internalType":"struct Origin","components":[{"name":"srcEid","type":"uint32","internalType":"uint32"},{"name":"sender","type":"bytes32","internalType":"bytes32"},{"name":"nonce","type":"uint64","internalType":"uint64"}]}],"outputs":[{"name":"","type":"bool","internalType":"bool"}],"stateMutability":"view"},{"type":"function","name":"approvalRequired","inputs":[],"outputs":[{"name":"","type":"bool","internalType":"bool"}],"stateMutability":"pure"},{"type":"function","name":"approve","inputs":[{"name":"to","type":"address","internalType":"address"},{"name":"tokenId","type":"uint256","internalType":"uint256"}],"outputs":[],"stateMutability":"nonpayable"},{"type":"function","name":"balanceOf","inputs":[{"name":"owner","type":"address","internalType":"address"}],"outputs":[{"name":"","type":"uint256","internalType":"uint256"}],"stateMutability":"view"},{"type":"function","name":"buildMsgAndOptions","inputs":[{"name":"_sendParam","type":"tuple","internalType":"struct SendParam","components":[{"name":"dstEid","type":"uint32","internalType":"uint32"},{"name":"to","type":"bytes32","internalType":"bytes32"},{"name":"tokenId","type":"uint256","internalType":"uint256"},{"name":"extraOptions","type":"bytes","internalType":"bytes"},{"name":"composeMsg","type":"bytes","internalType":"bytes"},{"name":"onftCmd","type":"bytes","internalType":"bytes"}]}],"outputs":[{"name":"","type":"bytes","internalType":"bytes"},{"name":"","type":"bytes","internalType":"bytes"}],"stateMutability":"view"},{"type":"function","name":"combineOptions","inputs":[{"name":"_eid","type":"uint32","internalType":"uint32"},{"name":"_msgType","type":"uint16","internalType":"uint16"},{"name":"_extraOptions","type":"bytes","internalType":"bytes"}],"outputs":[{"name":"","type":"bytes","internalType":"bytes"}],"stateMutability":"view"},{"type":"function","name":"credit","inputs":[{"name":"_toAddress","type":"address","internalType":"address"},{"name":"_tokenId","type":"uint256","internalType":"uint256"},{"name":"_srcEid","type":"uint32","internalType":"uint32"}],"outputs":[],"stateMutability":"nonpayable"},{"type":"function","name":"debit","inputs":[{"name":"_tokenId","type":"uint256","internalType":"uint256"},{"name":"_dstEid","type":"uint32","internalType":"uint32"}],"outputs":[],"stateMutability":"nonpayable"},{"type":"function","name":"endpoint","inputs":[],"outputs":[{"name":"","type":"address","internalType":"contract ILayerZeroEndpointV2"}],"stateMutability":"view"},{"type":"function","name":"enforcedOptions","inputs":[{"name":"eid","type":"uint32","internalType":"uint32"},{"name":"msgType","type":"uint16","internalType":"uint16"}],"outputs":[{"name":"enforcedOption","type":"bytes","internalType":"bytes"}],"stateMutability":"view"},{"type":"function","name":"exists","inputs":[{"name":"_tokenId","type":"uint256","internalType":"uint256"}],"outputs":[{"name":"","type":"bool","internalType":"bool"}],"stateMutability":"view"},{"type":"function","name":"getApproved","inputs":[{"name":"tokenId","type":"uint256","internalType":"uint256"}],"outputs":[{"name":"","type":"address","internalType":"address"}],"stateMutability":"view"},{"type":"function","name":"isApprovedForAll","inputs":[{"name":"owner","type":"address","internalType":"address"},{"name":"operator","type":"address","internalType":"address"}],"outputs":[{"name":"","type":"bool","internalType":"bool"}],"stateMutability":"view"},{"type":"function","name":"isComposeMsgSender","inputs":[{"name":"","type":"tuple","internalType":"struct Origin","components":[{"name":"srcEid","type":"uint32","internalType":"uint32"},{"name":"sender","type":"bytes32","internalType":"bytes32"},{"name":"nonce","type":"uint64","internalType":"uint64"}]},{"name":"","type":"bytes","internalType":"bytes"},{"name":"_sender","type":"address","internalType":"address"}],"outputs":[{"name":"","type":"bool","internalType":"bool"}],"stateMutability":"view"},{"type":"function","name":"isPeer","inputs":[{"name":"_eid","type":"uint32","internalType":"uint32"},{"name":"_peer","type":"bytes32","internalType":"bytes32"}],"outputs":[{"name":"","type":"bool","internalType":"bool"}],"stateMutability":"view"},{"type":"function","name":"lzReceive","inputs":[{"name":"_origin","type":"tuple","internalType":"struct Origin","components":[{"name":"srcEid","type":"uint32","internalType":"uint32"},{"name":"sender","type":"bytes32","internalType":"bytes32"},{"name":"nonce","type":"uint64","internalType":"uint64"}]},{"name":"_guid","type":"bytes32","internalType":"bytes32"},{"name":"_message","type":"bytes","internalType":"bytes"},{"name":"_executor","type":"address","internalType":"address"},{"name":"_extraData","type":"bytes","internalType":"bytes"}],"outputs":[],"stateMutability":"payable"},{"type":"function","name":"lzReceiveAndRevert","inputs":[{"name":"_packets","type":"tuple[]","internalType":"struct InboundPacket[]","components":[{"name":"origin","type":"tuple","internalType":"struct Origin","components":[{"name":"srcEid","type":"uint32","internalType":"uint32"},{"name":"sender","type":"bytes32","internalType":"bytes32"},{"name":"nonce","type":"uint64","internalType":"uint64"}]},{"name":"dstEid","type":"uint32","internalType":"uint32"},{"name":"receiver","type":"address","internalType":"address"},{"name":"guid","type":"bytes32","internalType":"bytes32"},{"name":"value","type":"uint256","internalType":"uint256"},{"name":"executor","type":"address","internalType":"address"},{"name":"message","type":"bytes","internalType":"bytes"},{"name":"extraData","type":"bytes","internalType":"bytes"}]}],"outputs":[],"stateMutability":"payable"},{"type":"function","name":"lzReceiveSimulate","inputs":[{"name":"_origin","type":"tuple","internalType":"struct Origin","components":[{"name":"srcEid","type":"uint32","internalType":"uint32"},{"name":"sender","type":"bytes32","internalType":"bytes32"},{"name":"nonce","type":"uint64","internalType":"uint64"}]},{"name":"_guid","type":"bytes32","internalType":"bytes32"},{"name":"_message","type":"bytes","internalType":"bytes"},{"name":"_executor","type":"address","internalType":"address"},{"name":"_extraData","type":"bytes","internalType":"bytes"}],"outputs":[],"stateMutability":"payable"},{"type":"function","name":"mint","inputs":[{"name":"_to","type":"address","internalType":"address"},{"name":"_tokenId","type":"uint256","internalType":"uint256"}],"outputs":[],"stateMutability":"nonpayable"},{"type":"function","name":"msgInspector","inputs":[],"outputs":[{"name":"","type":"address","internalType":"address"}],"stateMutability":"view"},{"type":"function","name":"name","inputs":[],"outputs":[{"name":"","type":"string","internalType":"string"}],"stateMutability":"view"},{"type":"function","name":"nextNonce","inputs":[{"name":"","type":"uint32","internalType":"uint32"},{"name":"","type":"bytes32","internalType":"bytes32"}],"outputs":[{"name":"nonce","type":"uint64","internalType":"uint64"}],"stateMutability":"view"},{"type":"function","name":"oApp","inputs":[],"outputs":[{"name":"","type":"address","internalType":"address"}],"stateMutability":"view"},{"type":"function","name":"oAppVersion","inputs":[],"outputs":[{"name":"senderVersion","type":"uint64","internalType":"uint64"},{"name":"receiverVersion","type":"uint64","internalType":"uint64"}],"stateMutability":"pure"},{"type":"function","name":"onftVersion","inputs":[],"outputs":[{"name":"interfaceId","type":"bytes4","internalType":"bytes4"},{"name":"version","type":"uint64","internalType":"uint64"}],"stateMutability":"pure"},{"type":"function","name":"owner","inputs":[],"outputs":[{"name":"","type":"address","internalType":"address"}],"stateMutability":"view"},{"type":"function","name":"ownerOf","inputs":[{"name":"tokenId","type":"uint256","internalType":"uint256"}],"outputs":[{"name":"","type":"address","internalType":"address"}],"stateMutability":"view"},{"type":"function","name":"peers","inputs":[{"name":"eid","type":"uint32","internalType":"uint32"}],"outputs":[{"name":"peer","type":"bytes32","internalType":"bytes32"}],"stateMutability":"view"},{"type":"function","name":"preCrime","inputs":[],"outputs":[{"name":"","type":"address","internalType":"address"}],"stateMutability":"view"},{"type":"function","name":"quoteSend","inputs":[{"name":"_sendParam","type":"tuple","internalType":"struct SendParam","components":[{"name":"dstEid","type":"uint32","internalType":"uint32"},{"name":"to","type":"bytes32","internalType":"bytes32"},{"name":"tokenId","type":"uint256","internalType":"uint256"},{"name":"extraOptions","type":"bytes","internalType":"bytes"},{"name":"composeMsg","type":"bytes","internalType":"bytes"},{"name":"onftCmd","type":"bytes","internalType":"bytes"}]},{"name":"_payInLzToken","type":"bool","internalType":"bool"}],"outputs":[{"name":"msgFee","type":"tuple","internalType":"struct MessagingFee","components":[{"name":"nativeFee","type":"uint256","internalType":"uint256"},{"name":"lzTokenFee","type":"uint256","internalType":"uint256"}]}],"stateMutability":"view"},{"type":"function","name":"renounceOwnership","inputs":[],"outputs":[],"stateMutability":"nonpayable"},{"type":"function","name":"safeTransferFrom","inputs":[{"name":"from","type":"address","internalType":"address"},{"name":"to","type":"address","internalType":"address"},{"name":"tokenId","type":"uint256","internalType":"uint256"}],"outputs":[],"stateMutability":"nonpayable"},{"type":"function","name":"safeTransferFrom","inputs":[{"name":"from","type":"address","internalType":"address"},{"name":"to","type":"address","internalType":"address"},{"name":"tokenId","type":"uint256","internalType":"uint256"},{"name":"data","type":"bytes","internalType":"bytes"}],"outputs":[],"stateMutability":"nonpayable"},{"type":"function","name":"send","inputs":[{"name":"_sendParam","type":"tuple","internalType":"struct SendParam","components":[{"name":"dstEid","type":"uint32","internalType":"uint32"},{"name":"to","type":"bytes32","internalType":"bytes32"},{"name":"tokenId","type":"uint256","internalType":"uint256"},{"name":"extraOptions","type":"bytes","internalType":"bytes"},{"name":"composeMsg","type":"bytes","internalType":"bytes"},{"name":"onftCmd","type":"bytes","internalType":"bytes"}]},{"name":"_fee","type":"tuple","internalType":"struct MessagingFee","components":[{"name":"nativeFee","type":"uint256","internalType":"uint256"},{"name":"lzTokenFee","type":"uint256","internalType":"uint256"}]},{"name":"_refundAddress","type":"address","internalType":"address"}],"outputs":[{"name":"msgReceipt","type":"tuple","internalType":"struct MessagingReceipt","components":[{"name":"guid","type":"bytes32","internalType":"bytes32"},{"name":"nonce","type":"uint64","internalType":"uint64"},{"name":"fee","type":"tuple","internalType":"struct MessagingFee","components":[{"name":"nativeFee","type":"uint256","internalType":"uint256"},{"name":"lzTokenFee","type":"uint256","internalType":"uint256"}]}]}],"stateMutability":"payable"},{"type":"function","name":"setApprovalForAll","inputs":[{"name":"operator","type":"address","internalType":"address"},{"name":"approved","type":"bool","internalType":"bool"}],"outputs":[],"stateMutability":"nonpayable"},{"type":"function","name":"setDelegate","inputs":[{"name":"_delegate","type":"address","internalType":"address"}],"outputs":[],"stateMutability":"nonpayable"},{"type":"function","name":"setEnforcedOptions","inputs":[{"name":"_enforcedOptions","type":"tuple[]","internalType":"struct EnforcedOptionParam[]","components":[{"name":"eid","type":"uint32","internalType":"uint32"},{"name":"msgType","type":"uint16","internalType":"uint16"},{"name":"options","type":"bytes","internalType":"bytes"}]}],"outputs":[],"stateMutability":"nonpayable"},{"type":"function","name":"setMsgInspector","inputs":[{"name":"_msgInspector","type":"address","internalType":"address"}],"outputs":[],"stateMutability":"nonpayable"},{"type":"function","name":"setPeer","inputs":[{"name":"_eid","type":"uint32","internalType":"uint32"},{"name":"_peer","type":"bytes32","internalType":"bytes32"}],"outputs":[],"stateMutability":"nonpayable"},{"type":"function","name":"setPreCrime","inputs":[{"name":"_preCrime","type":"address","internalType":"address"}],"outputs":[],"stateMutability":"nonpayable"},{"type":"function","name":"supportsInterface","inputs":[{"name":"interfaceId","type":"bytes4","internalType":"bytes4"}],"outputs":[{"name":"","type":"bool","internalType":"bool"}],"stateMutability":"view"},{"type":"function","name":"symbol","inputs":[],"outputs":[{"name":"","type":"string","internalType":"string"}],"stateMutability":"view"},{"type":"function","name":"token","inputs":[],"outputs":[{"name":"","type":"address","internalType":"address"}],"stateMutability":"view"},{"type":"function","name":"tokenURI","inputs":[{"name":"tokenId","type":"uint256","internalType":"uint256"}],"outputs":[{"name":"","type":"string","internalType":"string"}],"stateMutability":"view"},{"type":"function","name":"transferFrom","inputs":[{"name":"from","type":"address","internalType":"address"},{"name":"to","type":"address","internalType":"address"},{"name":"tokenId","type":"uint256","internalType":"uint256"}],"outputs":[],"stateMutability":"nonpayable"},{"type":"function","name":"transferOwnership","inputs":[{"name":"newOwner","type":"address","internalType":"address"}],"outputs":[],"stateMutability":"nonpayable"},{"type":"event","name":"Approval","inputs":[{"name":"owner","type":"address","indexed":true,"internalType":"address"},{"name":"approved","type":"address","indexed":true,"internalType":"address"},{"name":"tokenId","type":"uint256","indexed":true,"internalType":"uint256"}],"anonymous":false},{"type":"event","name":"ApprovalForAll","inputs":[{"name":"owner","type":"address","indexed":true,"internalType":"address"},{"name":"operator","type":"address","indexed":true,"internalType":"address"},{"name":"approved","type":"bool","indexed":false,"internalType":"bool"}],"anonymous":false},{"type":"event","name":"EnforcedOptionSet","inputs":[{"name":"_enforcedOptions","type":"tuple[]","indexed":false,"internalType":"struct EnforcedOptionParam[]","components":[{"name":"eid","type":"uint32","internalType":"uint32"},{"name":"msgType","type":"uint16","internalType":"uint16"},{"name":"options","type":"bytes","internalType":"bytes"}]}],"anonymous":false},{"type":"event","name":"MsgInspectorSet","inputs":[{"name":"inspector","type":"address","indexed":false,"internalType":"address"}],"anonymous":false},{"type":"event","name":"ONFTReceived","inputs":[{"name":"guid","type":"bytes32","indexed":true,"internalType":"bytes32"},{"name":"srcEid","type":"uint32","indexed":false,"internalType":"uint32"},{"name":"toAddress","type":"address","indexed":true,"internalType":"address"},{"name":"tokenId","type":"uint256","indexed":false,"internalType":"uint256"}],"anonymous":false},{"type":"event","name":"ONFTSent","inputs":[{"name":"guid","type":"bytes32","indexed":true,"internalType":"bytes32"},{"name":"dstEid","type":"uint32","indexed":false,"internalType":"uint32"},{"name":"fromAddress","type":"address","indexed":true,"internalType":"address"},{"name":"tokenId","type":"uint256","indexed":false,"internalType":"uint256"}],"anonymous":false},{"type":"event","name":"OwnershipTransferred","inputs":[{"name":"previousOwner","type":"address","indexed":true,"internalType":"address"},{"name":"newOwner","type":"address","indexed":true,"internalType":"address"}],"anonymous":false},{"type":"event","name":"PeerSet","inputs":[{"name":"eid","type":"uint32","indexed":false,"internalType":"uint32"},{"name":"peer","type":"bytes32","indexed":false,"internalType":"bytes32"}],"anonymous":false},{"type":"event","name":"PreCrimeSet","inputs":[{"name":"preCrimeAddress","type":"address","indexed":false,"internalType":"address"}],"anonymous":false},{"type":"event","name":"Transfer","inputs":[{"name":"from","type":"address","indexed":true,"internalType":"address"},{"name":"to","type":"address","indexed":true,"internalType":"address"},{"name":"tokenId","type":"uint256","indexed":true,"internalType":"uint256"}],"anonymous":false},{"type":"error","name":"AddressEmptyCode","inputs":[{"name":"target","type":"address","internalType":"address"}]},{"type":"error","name":"AddressInsufficientBalance","inputs":[{"name":"account","type":"address","internalType":"address"}]},{"type":"error","name":"ERC721IncorrectOwner","inputs":[{"name":"sender","type":"address","internalType":"address"},{"name":"tokenId","type":"uint256","internalType":"uint256"},{"name":"owner","type":"address","internalType":"address"}]},{"type":"error","name":"ERC721InsufficientApproval","inputs":[{"name":"operator","type":"address","internalType":"address"},{"name":"tokenId","type":"uint256","internalType":"uint256"}]},{"type":"error","name":"ERC721InvalidApprover","inputs":[{"name":"approver","type":"address","internalType":"address"}]},{"type":"error","name":"ERC721InvalidOperator","inputs":[{"name":"operator","type":"address","internalType":"address"}]},{"type":"error","name":"ERC721InvalidOwner","inputs":[{"name":"owner","type":"address","internalType":"address"}]},{"type":"error","name":"ERC721InvalidReceiver","inputs":[{"name":"receiver","type":"address","internalType":"address"}]},{"type":"error","name":"ERC721InvalidSender","inputs":[{"name":"sender","type":"address","internalType":"address"}]},{"type":"error","name":"ERC721NonexistentToken","inputs":[{"name":"tokenId","type":"uint256","internalType":"uint256"}]},{"type":"error","name":"FailedInnerCall","inputs":[]},{"type":"error","name":"InvalidDelegate","inputs":[]},{"type":"error","name":"InvalidEndpointCall","inputs":[]},{"type":"error","name":"InvalidOptions","inputs":[{"name":"options","type":"bytes","internalType":"bytes"}]},{"type":"error","name":"InvalidReceiver","inputs":[]},{"type":"error","name":"LzTokenUnavailable","inputs":[]},{"type":"error","name":"NoPeer","inputs":[{"name":"eid","type":"uint32","internalType":"uint32"}]},{"type":"error","name":"NotEnoughNative","inputs":[{"name":"msgValue","type":"uint256","internalType":"uint256"}]},{"type":"error","name":"OnlyEndpoint","inputs":[{"name":"addr","type":"address","internalType":"address"}]},{"type":"error","name":"OnlyNFTOwner","inputs":[{"name":"caller","type":"address","internalType":"address"},{"name":"owner","type":"address","internalType":"address"}]},{"type":"error","name":"OnlyPeer","inputs":[{"name":"eid","type":"uint32","internalType":"uint32"},{"name":"sender","type":"bytes32","internalType":"bytes32"}]},{"type":"error","name":"OnlySelf","inputs":[]},{"type":"error","name":"OwnableInvalidOwner","inputs":[{"name":"owner","type":"address","internalType":"address"}]},{"type":"error","name":"OwnableUnauthorizedAccount","inputs":[{"name":"account","type":"address","internalType":"address"}]},{"type":"error","name":"SafeERC20FailedOperation","inputs":[{"name":"token","type":"address","internalType":"address"}]},{"type":"error","name":"SimulationResult","inputs":[{"name":"result","type":"bytes","internalType":"bytes"}]}],"bytecode":{"object":"0x60a06040523480156200001157600080fd5b5060405162003ac638038062003ac6833981016040819052620000349162000277565b838383838383838381818181806001600160a01b0381166200007057604051631e4fbdf760e01b81526000600482015260240160405180910390fd5b6200007b8162000142565b506001600160a01b038083166080528116620000aa57604051632d618d8160e21b815260040160405180910390fd5b60805160405163ca5eb5e160e01b81526001600160a01b0383811660048301529091169063ca5eb5e190602401600060405180830381600087803b158015620000f257600080fd5b505af115801562000107573d6000803e3d6000fd5b50505050505050505050816005908162000122919062000397565b50600662000131828262000397565b505050505050505050505062000463565b600080546001600160a01b038381166001600160a01b0319831681178455604051919092169283917f8be0079c531659141344cd1fd0a4f28419497f9722a3daafe3b4186f6b6457e09190a35050565b634e487b7160e01b600052604160045260246000fd5b600082601f830112620001ba57600080fd5b81516001600160401b0380821115620001d757620001d762000192565b604051601f8301601f19908116603f0116810190828211818310171562000202576200020262000192565b81604052838152602092508660208588010111156200022057600080fd5b600091505b8382101562000244578582018301518183018401529082019062000225565b6000602085830101528094505050505092915050565b80516001600160a01b03811681146200027257600080fd5b919050565b600080600080608085870312156200028e57600080fd5b84516001600160401b0380821115620002a657600080fd5b620002b488838901620001a8565b95506020870151915080821115620002cb57600080fd5b50620002da87828801620001a8565b935050620002eb604086016200025a565b9150620002fb606086016200025a565b905092959194509250565b600181811c908216806200031b57607f821691505b6020821081036200033c57634e487b7160e01b600052602260045260246000fd5b50919050565b601f82111562000392576000816000526020600020601f850160051c810160208610156200036d5750805b601f850160051c820191505b818110156200038e5782815560010162000379565b5050505b505050565b81516001600160401b03811115620003b357620003b362000192565b620003cb81620003c4845462000306565b8462000342565b602080601f831160018114620004035760008415620003ea5750858301515b600019600386901b1c1916600185901b1785556200038e565b600085815260208120601f198616915b82811015620004345788860151825594840194600190910190840162000413565b5085821015620004535787850151600019600388901b60f8161c191681555b5050505050600190811b01905550565b608051613616620004b06000396000818161053a01528181610a0a0152818161128901528181611529015281816117ac01528181611dc80152818161219d015261225601526136166000f3fe6080604052600436106102935760003560e01c80637d25a05e1161015a578063bc70b354116100c1578063d42438851161007a578063d42438851461084c578063dcdfd9111461086c578063e985e9c51461088c578063f2fde38b146108ac578063fc0c546a146104be578063ff7bd03d146108cc57600080fd5b8063bc70b35414610799578063bd815db0146107b9578063c6414e7b146107cc578063c87b56dd146107f9578063ca5eb5e114610819578063d045a0dc1461083957600080fd5b8063a72f5dd811610113578063a72f5dd8146106cf578063b21a33e4146106f7578063b731ea0a1461070c578063b88d4fde1461072c578063b98bd0701461074c578063bb0b6a531461076c57600080fd5b80637d25a05e1461060d57806382413eac146106485780638da5cb5b1461066857806395d89b41146106865780639f68b9641461069b578063a22cb465146106af57600080fd5b806342842e0e116101fe5780635e280f11116101b75780635e280f11146105285780636352211e1461055c5780636fc1b31e1461057c5780637048de9a1461059c57806370a08231146105ca578063715018a6146105f857600080fd5b806342842e0e146104465780634dba701b146104665780634f558e791461048657806352ae2879146104be5780635535d461146104d15780635a0dfe4d146104f157600080fd5b806317442b701161025057806317442b701461037c5780631f5e13341461039e57806321eb730b146103c657806323b872dd146103e65780633400288b1461040657806340c10f191461042657600080fd5b806301ffc9a71461029857806306fdde03146102cd578063081812fc146102ef578063095ea7b314610327578063111ecdad1461034957806313137d6514610369575b600080fd5b3480156102a457600080fd5b506102b86102b336600461263b565b6108ec565b60405190151581526020015b60405180910390f35b3480156102d957600080fd5b506102e261093e565b6040516102c491906126a8565b3480156102fb57600080fd5b5061030f61030a3660046126bb565b6109d0565b6040516001600160a01b0390911681526020016102c4565b34801561033357600080fd5b506103476103423660046126e9565b6109f9565b005b34801561035557600080fd5b5060045461030f906001600160a01b031681565b610347610377366004612775565b610a08565b34801561038857600080fd5b50604080516001815260026020820152016102c4565b3480156103aa57600080fd5b506103b3600181565b60405161ffff90911681526020016102c4565b6103d96103d4366004612826565b610ac8565b6040516102c49190612893565b3480156103f257600080fd5b506103476104013660046128d5565b610ba3565b34801561041257600080fd5b5061034761042136600461292f565b610c2e565b34801561043257600080fd5b506103476104413660046126e9565b610c40565b34801561045257600080fd5b506103476104613660046128d5565b610c4a565b34801561047257600080fd5b5061034761048136600461294b565b610c6a565b34801561049257600080fd5b506102b86104a13660046126bb565b6000908152600760205260409020546001600160a01b0316151590565b3480156104ca57600080fd5b503061030f565b3480156104dd57600080fd5b506102e26104ec36600461299b565b610c75565b3480156104fd57600080fd5b506102b861050c36600461292f565b63ffffffff919091166000908152600160205260409020541490565b34801561053457600080fd5b5061030f7f000000000000000000000000000000000000000000000000000000000000000081565b34801561056857600080fd5b5061030f6105773660046126bb565b610d1a565b34801561058857600080fd5b506103476105973660046129ce565b610d25565b3480156105a857600080fd5b506105bc6105b73660046129eb565b610d82565b6040516102c4929190612a1f565b3480156105d657600080fd5b506105ea6105e53660046129ce565b610d97565b6040519081526020016102c4565b34801561060457600080fd5b50610347610ddf565b34801561061957600080fd5b5061063061062836600461292f565b600092915050565b6040516001600160401b0390911681526020016102c4565b34801561065457600080fd5b506102b8610663366004612a44565b610df3565b34801561067457600080fd5b506000546001600160a01b031661030f565b34801561069257600080fd5b506102e2610e08565b3480156106a757600080fd5b5060006102b8565b3480156106bb57600080fd5b506103476106ca366004612ab8565b610e17565b3480156106db57600080fd5b50604080516311f0c6d360e11b815260016020820152016102c4565b34801561070357600080fd5b506103b3600281565b34801561071857600080fd5b5060025461030f906001600160a01b031681565b34801561073857600080fd5b50610347610747366004612bfe565b610e22565b34801561075857600080fd5b50610347610767366004612cad565b610e39565b34801561077857600080fd5b506105ea610787366004612cee565b60016020526000908152604090205481565b3480156107a557600080fd5b506102e26107b4366004612d09565b610e53565b6103476107c7366004612cad565b610ffb565b3480156107d857600080fd5b506107ec6107e7366004612d69565b611185565b6040516102c49190612daf565b34801561080557600080fd5b506102e26108143660046126bb565b6111ed565b34801561082557600080fd5b506103476108343660046129ce565b611262565b610347610847366004612775565b6112e8565b34801561085857600080fd5b506103476108673660046129ce565b611317565b34801561087857600080fd5b50610347610887366004612dc6565b61136d565b34801561089857600080fd5b506102b86108a7366004612de9565b611378565b3480156108b857600080fd5b506103476108c73660046129ce565b6113a6565b3480156108d857600080fd5b506102b86108e7366004612e17565b6113e4565b60006001600160e01b031982166380ac58cd60e01b148061091d57506001600160e01b03198216635b5e139f60e01b145b8061093857506301ffc9a760e01b6001600160e01b03198316145b92915050565b60606005805461094d90612e33565b80601f016020809104026020016040519081016040528092919081815260200182805461097990612e33565b80156109c65780601f1061099b576101008083540402835291602001916109c6565b820191906000526020600020905b8154815290600101906020018083116109a957829003601f168201915b5050505050905090565b60006109db8261141a565b506000828152600960205260409020546001600160a01b0316610938565b610a04828233611453565b5050565b7f00000000000000000000000000000000000000000000000000000000000000006001600160a01b03163314610a58576040516391ac5e4f60e01b81523360048201526024015b60405180910390fd5b60208701803590610a7290610a6d908a612cee565b611460565b14610ab057610a846020880188612cee565b60405163309afaf360e21b815263ffffffff909116600482015260208801356024820152604401610a4f565b610abf8787878787878761149c565b50505050505050565b610ad06125de565b6020840135610af257604051631e4ec46b60e01b815260040160405180910390fd5b610b0d336040860135610b086020880188612cee565b6115fb565b600080610b198661165b565b9092509050610b45610b2e6020880188612cee565b8383610b3f368a90038a018a612e67565b88611779565b805190935033907f986156872b2ee0022b9585231dbbfde457f87f8a16b6c45e1a81c54c4ad8351f610b7a60208a018a612cee565b6040805163ffffffff9092168252808b013560208301520160405180910390a350509392505050565b6001600160a01b038216610bcd57604051633250574960e11b815260006004820152602401610a4f565b6000610bda838333611884565b9050836001600160a01b0316816001600160a01b031614610c28576040516364283d7b60e01b81526001600160a01b0380861660048301526024820184905282166044820152606401610a4f565b50505050565b610c3661197d565b610a0482826119aa565b610a0482826119ff565b610c6583838360405180602001604052806000815250610e22565b505050565b610c65838383611a64565b600360209081526000928352604080842090915290825290208054610c9990612e33565b80601f0160208091040260200160405190810160405280929190818152602001828054610cc590612e33565b8015610d125780601f10610ce757610100808354040283529160200191610d12565b820191906000526020600020905b815481529060010190602001808311610cf557829003601f168201915b505050505081565b60006109388261141a565b610d2d61197d565b600480546001600160a01b0319166001600160a01b0383169081179091556040519081527ff0be4f1e87349231d80c36b33f9e8639658eeaf474014dee15a3e6a4d4414197906020015b60405180910390a150565b606080610d8e8361165b565b91509150915091565b60006001600160a01b038216610dc3576040516322718ad960e21b815260006004820152602401610a4f565b506001600160a01b031660009081526008602052604090205490565b610de761197d565b610df16000611a6e565b565b6001600160a01b03811630145b949350505050565b60606006805461094d90612e33565b610a04338383611abe565b610e2d848484610ba3565b610c2884848484611b5d565b610e4161197d565b610a04610e4e8284612e99565b611c7f565b63ffffffff8416600090815260036020908152604080832061ffff87168452909152812080546060929190610e8790612e33565b80601f0160208091040260200160405190810160405280929190818152602001828054610eb390612e33565b8015610f005780601f10610ed557610100808354040283529160200191610f00565b820191906000526020600020905b815481529060010190602001808311610ee357829003601f168201915b505050505090508051600003610f505783838080601f016020809104026020016040519081016040528093929190818152602001838380828437600092019190915250929450610e009350505050565b6000839003610f60579050610e00565b60028310610fde57610fa784848080601f016020809104026020016040519081016040528093929190818152602001838380828437600092019190915250611d8692505050565b80610fb58460028188612f6e565b604051602001610fc793929190612f98565b604051602081830303815290604052915050610e00565b8383604051639a6d49cd60e01b8152600401610a4f929190612fe9565b60005b81811015611104573683838381811061101957611019612ffd565b905060200281019061102b9190613013565b905061105e61103d6020830183612cee565b602083013563ffffffff919091166000908152600160205260409020541490565b61106857506110fc565b3063d045a0dc60c08301358360a0810135611087610100830183613034565b611098610100890160e08a016129ce565b6110a66101208a018a613034565b6040518963ffffffff1660e01b81526004016110c8979695949392919061308f565b6000604051808303818588803b1580156110e157600080fd5b505af11580156110f5573d6000803e3d6000fd5b5050505050505b600101610ffe565b50336001600160a01b0316638e9e70996040518163ffffffff1660e01b8152600401600060405180830381865afa158015611143573d6000803e3d6000fd5b505050506040513d6000823e601f3d908101601f1916820160405261116b9190810190613115565b604051638351eea760e01b8152600401610a4f91906126a8565b604080518082019091526000808252602082015260208301356111bb57604051631e4ec46b60e01b815260040160405180910390fd5b6000806111c78561165b565b90925090506111e46111dc6020870187612cee565b838387611db2565b95945050505050565b60606111f88261141a565b50600061121060408051602081019091526000815290565b90506000815111611230576040518060200160405280600081525061125b565b8061123a84611e8a565b60405160200161124b929190613182565b6040516020818303038152906040525b9392505050565b61126a61197d565b60405163ca5eb5e160e01b81526001600160a01b0382811660048301527f0000000000000000000000000000000000000000000000000000000000000000169063ca5eb5e190602401600060405180830381600087803b1580156112cd57600080fd5b505af11580156112e1573d6000803e3d6000fd5b5050505050565b3330146113085760405163029a949d60e31b815260040160405180910390fd5b610abf87878787878787610ab0565b61131f61197d565b600280546001600160a01b0319166001600160a01b0383169081179091556040519081527fd48d879cef83a1c0bdda516f27b13ddb1b3f8bbac1c9e1511bb2a659c242776090602001610d77565b610a043383836115fb565b6001600160a01b039182166000908152600a6020908152604080832093909416825291909152205460ff1690565b6113ae61197d565b6001600160a01b0381166113d857604051631e4fbdf760e01b815260006004820152602401610a4f565b6113e181611a6e565b50565b60006020820180359060019083906113fc9086612cee565b63ffffffff1681526020810191909152604001600020541492915050565b6000818152600760205260408120546001600160a01b03168061093857604051637e27328960e01b815260048101849052602401610a4f565b610c658383836001611f1c565b63ffffffff8116600090815260016020526040812054806109385760405163f6ff4fb760e01b815263ffffffff84166004820152602401610a4f565b60006114ae6114ab8787612022565b90565b905060006114bc878761203a565b90506114d582826114d060208d018d612cee565b611a64565b604086111561159957600061150f6114f360608c0160408d016131b1565b61150060208d018d612cee565b61150a8b8b612057565b6120a2565b604051633e5ac80960e11b81529091506001600160a01b037f00000000000000000000000000000000000000000000000000000000000000001690637cb59012906115659086908d9060009087906004016131ce565b600060405180830381600087803b15801561157f57600080fd5b505af1158015611593573d6000803e3d6000fd5b50505050505b6001600160a01b038216887f7883fa30ea56937810e36990b0bbb8d629d0cf59f68baf8431ff657cebe7eef56115d260208d018d612cee565b6040805163ffffffff9092168252602082018690520160405180910390a3505050505050505050565b61160482610d1a565b6001600160a01b0316836001600160a01b031614611652578261162683610d1a565b604051634342715b60e11b81526001600160a01b03928316600482015291166024820152604401610a4f565b610c65826120d1565b60608060006116b46020850135604086013561167a6080880188613034565b8080601f01602080910402602001604051908101604052809392919081815260200183838082843760009201919091525061210c92505050565b90935090506000816116c75760016116ca565b60025b90506116ea6116dc6020870187612cee565b826107b46060890189613034565b6004549093506001600160a01b031615611772576004805460405163043a78eb60e01b81526001600160a01b039091169163043a78eb9161172f918891889101612a1f565b602060405180830381865afa15801561174c573d6000803e3d6000fd5b505050506040513d601f19601f8201168201806040525081019061177091906131ff565b505b5050915091565b6117816125de565b60006117908460000151612171565b6020850151909150156117aa576117aa8460200151612199565b7f00000000000000000000000000000000000000000000000000000000000000006001600160a01b0316632637a450826040518060a001604052808b63ffffffff1681526020016117fa8c611460565b81526020018a815260200189815260200160008960200151111515815250866040518463ffffffff1660e01b815260040161183692919061321c565b60806040518083038185885af1158015611854573d6000803e3d6000fd5b50505050506040513d601f19601f8201168201806040525081019061187991906132c5565b979650505050505050565b6000828152600760205260408120546001600160a01b03908116908316156118b1576118b181848661227b565b6001600160a01b038116156118ef576118ce600085600080611f1c565b6001600160a01b038116600090815260086020526040902080546000190190555b6001600160a01b0385161561191e576001600160a01b0385166000908152600860205260409020805460010190555b60008481526007602052604080822080546001600160a01b0319166001600160a01b0389811691821790925591518793918516917fddf252ad1be2c89b69c2b068fc378daa952ba7f163c4a11628f55a4df523b3ef91a4949350505050565b6000546001600160a01b03163314610df15760405163118cdaa760e01b8152336004820152602401610a4f565b63ffffffff8216600081815260016020908152604091829020849055815192835282018390527f238399d427b947898edb290f5ff0f9109849b1c3ba196a42e35f00c50a54b98b910160405180910390a15050565b6001600160a01b038216611a2957604051633250574960e11b815260006004820152602401610a4f565b6000611a3783836000611884565b90506001600160a01b03811615610c65576040516339e3563760e11b815260006004820152602401610a4f565b610c6583836119ff565b600080546001600160a01b038381166001600160a01b0319831681178455604051919092169283917f8be0079c531659141344cd1fd0a4f28419497f9722a3daafe3b4186f6b6457e09190a35050565b6001600160a01b038216611af057604051630b61174360e31b81526001600160a01b0383166004820152602401610a4f565b6001600160a01b038381166000818152600a6020908152604080832094871680845294825291829020805460ff191686151590811790915591519182527f17307eab39ab6107e8899845ad3d59bd9653f200f220920489ca2b5937696c31910160405180910390a3505050565b6001600160a01b0383163b15610c2857604051630a85bd0160e11b81526001600160a01b0384169063150b7a0290611b9f90339088908790879060040161330f565b6020604051808303816000875af1925050508015611bda575060408051601f3d908101601f19168201909252611bd791810190613342565b60015b611c43573d808015611c08576040519150601f19603f3d011682016040523d82523d6000602084013e611c0d565b606091505b508051600003611c3b57604051633250574960e11b81526001600160a01b0385166004820152602401610a4f565b805181602001fd5b6001600160e01b03198116630a85bd0160e11b146112e157604051633250574960e11b81526001600160a01b0385166004820152602401610a4f565b60005b8151811015611d5657611cb1828281518110611ca057611ca0612ffd565b602002602001015160400151611d86565b818181518110611cc357611cc3612ffd565b60200260200101516040015160036000848481518110611ce557611ce5612ffd565b60200260200101516000015163ffffffff1663ffffffff1681526020019081526020016000206000848481518110611d1f57611d1f612ffd565b60200260200101516020015161ffff1661ffff1681526020019081526020016000209081611d4d91906133af565b50600101611c82565b507fbe4864a8e820971c0247f5992e2da559595f7bf076a21cb5928d443d2a13b67481604051610d77919061346e565b600281015161ffff8116600314610a045781604051639a6d49cd60e01b8152600401610a4f91906126a8565b60408051808201909152600080825260208201527f00000000000000000000000000000000000000000000000000000000000000006001600160a01b031663ddc28c586040518060a001604052808863ffffffff168152602001611e1589611460565b8152602001878152602001868152602001851515815250306040518363ffffffff1660e01b8152600401611e4a92919061321c565b6040805180830381865afa158015611e66573d6000803e3d6000fd5b505050506040513d601f19601f820116820180604052508101906111e491906134f9565b60606000611e97836122df565b60010190506000816001600160401b03811115611eb657611eb6612af1565b6040519080825280601f01601f191660200182016040528015611ee0576020820181803683370190505b5090508181016020015b600019016f181899199a1a9b1b9c1cb0b131b232b360811b600a86061a8153600a8504945084611eea57509392505050565b8080611f3057506001600160a01b03821615155b15611ff2576000611f408461141a565b90506001600160a01b03831615801590611f6c5750826001600160a01b0316816001600160a01b031614155b8015611f7f5750611f7d8184611378565b155b15611fa85760405163a9fbf51f60e01b81526001600160a01b0384166004820152602401610a4f565b8115611ff05783856001600160a01b0316826001600160a01b03167f8c5be1e5ebec7d5bd14f71427d1e84f3dd0314c0f7b2291e5b200ac8c7c3b92560405160405180910390a45b505b5050600090815260096020526040902080546001600160a01b0319166001600160a01b0392909216919091179055565b60006120316020828486612f6e565b61125b91613515565b600061204a604060208486612f6e565b81019061125b91906126bb565b60606120668260408186612f6e565b8080601f016020809104026020016040519081016040528093929190818152602001838380828437600092019190915250929695505050505050565b60608383836040516020016120b993929190613533565b60405160208183030381529060405290509392505050565b60006120e06000836000611884565b90506001600160a01b038116610a0457604051637e27328960e01b815260048101839052602401610a4f565b8051606090151580612140576040805160208101879052908101859052606001604051602081830303815290604052612167565b84843385604051602001612157949392919061357d565b6040516020818303038152906040525b9150935093915050565b6000813414612195576040516304fb820960e51b8152346004820152602401610a4f565b5090565b60007f00000000000000000000000000000000000000000000000000000000000000006001600160a01b031663e4fe1d946040518163ffffffff1660e01b8152600401602060405180830381865afa1580156121f9573d6000803e3d6000fd5b505050506040513d601f19601f8201168201806040525081019061221d91906135b1565b90506001600160a01b038116612246576040516329b99a9560e11b815260040160405180910390fd5b610a046001600160a01b038216337f0000000000000000000000000000000000000000000000000000000000000000856123b7565b612286838383612411565b610c65576001600160a01b0383166122b457604051637e27328960e01b815260048101829052602401610a4f565b60405163177e802f60e01b81526001600160a01b038316600482015260248101829052604401610a4f565b60008072184f03e93ff9f4daa797ed6e38ed64bf6a1f0160401b831061231e5772184f03e93ff9f4daa797ed6e38ed64bf6a1f0160401b830492506040015b6d04ee2d6d415b85acef8100000000831061234a576d04ee2d6d415b85acef8100000000830492506020015b662386f26fc10000831061236857662386f26fc10000830492506010015b6305f5e1008310612380576305f5e100830492506008015b612710831061239457612710830492506004015b606483106123a6576064830492506002015b600a83106109385760010192915050565b604080516001600160a01b0385811660248301528416604482015260648082018490528251808303909101815260849091019091526020810180516001600160e01b03166323b872dd60e01b179052610c28908590612474565b60006001600160a01b03831615801590610e005750826001600160a01b0316846001600160a01b0316148061244b575061244b8484611378565b80610e005750506000908152600960205260409020546001600160a01b03908116911614919050565b60006124896001600160a01b038416836124d7565b905080516000141580156124ae5750808060200190518101906124ac91906131ff565b155b15610c6557604051635274afe760e01b81526001600160a01b0384166004820152602401610a4f565b606061125b8383600084600080856001600160a01b031684866040516124fd91906135ce565b60006040518083038185875af1925050503d806000811461253a576040519150601f19603f3d011682016040523d82523d6000602084013e61253f565b606091505b509150915061254f868383612559565b9695505050505050565b60608261256e57612569826125b5565b61125b565b815115801561258557506001600160a01b0384163b155b156125ae57604051639996b31560e01b81526001600160a01b0385166004820152602401610a4f565b508061125b565b8051156125c55780518082602001fd5b604051630a12f52160e11b815260040160405180910390fd5b60405180606001604052806000801916815260200160006001600160401b03168152602001612620604051806040016040528060008152602001600081525090565b905290565b6001600160e01b0319811681146113e157600080fd5b60006020828403121561264d57600080fd5b813561125b81612625565b60005b8381101561267357818101518382015260200161265b565b50506000910152565b60008151808452612694816020860160208601612658565b601f01601f19169290920160200192915050565b60208152600061125b602083018461267c565b6000602082840312156126cd57600080fd5b5035919050565b6001600160a01b03811681146113e157600080fd5b600080604083850312156126fc57600080fd5b8235612707816126d4565b946020939093013593505050565b60006060828403121561272757600080fd5b50919050565b60008083601f84011261273f57600080fd5b5081356001600160401b0381111561275657600080fd5b60208301915083602082850101111561276e57600080fd5b9250929050565b600080600080600080600060e0888a03121561279057600080fd5b61279a8989612715565b96506060880135955060808801356001600160401b03808211156127bd57600080fd5b6127c98b838c0161272d565b909750955060a08a013591506127de826126d4565b90935060c089013590808211156127f457600080fd5b506128018a828b0161272d565b989b979a50959850939692959293505050565b600060c0828403121561272757600080fd5b6000806000838503608081121561283c57600080fd5b84356001600160401b0381111561285257600080fd5b61285e87828801612814565b9450506040601f198201121561287357600080fd5b506020840191506060840135612888816126d4565b809150509250925092565b6000608082019050825182526001600160401b03602084015116602083015260408301516128ce604084018280518252602090810151910152565b5092915050565b6000806000606084860312156128ea57600080fd5b83356128f5816126d4565b92506020840135612905816126d4565b929592945050506040919091013590565b803563ffffffff8116811461292a57600080fd5b919050565b6000806040838503121561294257600080fd5b61270783612916565b60008060006060848603121561296057600080fd5b833561296b816126d4565b92506020840135915061298060408501612916565b90509250925092565b803561ffff8116811461292a57600080fd5b600080604083850312156129ae57600080fd5b6129b783612916565b91506129c560208401612989565b90509250929050565b6000602082840312156129e057600080fd5b813561125b816126d4565b6000602082840312156129fd57600080fd5b81356001600160401b03811115612a1357600080fd5b610e0084828501612814565b604081526000612a32604083018561267c565b82810360208401526111e4818561267c565b60008060008060a08587031215612a5a57600080fd5b612a648686612715565b935060608501356001600160401b03811115612a7f57600080fd5b612a8b8782880161272d565b9094509250506080850135612a9f816126d4565b939692955090935050565b80151581146113e157600080fd5b60008060408385031215612acb57600080fd5b8235612ad6816126d4565b91506020830135612ae681612aaa565b809150509250929050565b634e487b7160e01b600052604160045260246000fd5b604080519081016001600160401b0381118282101715612b2957612b29612af1565b60405290565b604051606081016001600160401b0381118282101715612b2957612b29612af1565b604051601f8201601f191681016001600160401b0381118282101715612b7957612b79612af1565b604052919050565b60006001600160401b03821115612b9a57612b9a612af1565b50601f01601f191660200190565b600082601f830112612bb957600080fd5b8135612bcc612bc782612b81565b612b51565b818152846020838601011115612be157600080fd5b816020850160208301376000918101602001919091529392505050565b60008060008060808587031215612c1457600080fd5b8435612c1f816126d4565b93506020850135612c2f816126d4565b92506040850135915060608501356001600160401b03811115612c5157600080fd5b612c5d87828801612ba8565b91505092959194509250565b60008083601f840112612c7b57600080fd5b5081356001600160401b03811115612c9257600080fd5b6020830191508360208260051b850101111561276e57600080fd5b60008060208385031215612cc057600080fd5b82356001600160401b03811115612cd657600080fd5b612ce285828601612c69565b90969095509350505050565b600060208284031215612d0057600080fd5b61125b82612916565b60008060008060608587031215612d1f57600080fd5b612d2885612916565b9350612d3660208601612989565b925060408501356001600160401b03811115612d5157600080fd5b612d5d8782880161272d565b95989497509550505050565b60008060408385031215612d7c57600080fd5b82356001600160401b03811115612d9257600080fd5b612d9e85828601612814565b9250506020830135612ae681612aaa565b815181526020808301519082015260408101610938565b60008060408385031215612dd957600080fd5b823591506129c560208401612916565b60008060408385031215612dfc57600080fd5b8235612e07816126d4565b91506020830135612ae6816126d4565b600060608284031215612e2957600080fd5b61125b8383612715565b600181811c90821680612e4757607f821691505b60208210810361272757634e487b7160e01b600052602260045260246000fd5b600060408284031215612e7957600080fd5b612e81612b07565b82358152602083013560208201528091505092915050565b60006001600160401b0380841115612eb357612eb3612af1565b8360051b6020612ec4818301612b51565b868152918501918181019036841115612edc57600080fd5b865b84811015612f6257803586811115612ef65760008081fd5b88016060368290031215612f0a5760008081fd5b612f12612b2f565b612f1b82612916565b8152612f28868301612989565b8682015260408083013589811115612f405760008081fd5b612f4c36828601612ba8565b9183019190915250845250918301918301612ede565b50979650505050505050565b60008085851115612f7e57600080fd5b83861115612f8b57600080fd5b5050820193919092039150565b60008451612faa818460208901612658565b8201838582376000930192835250909392505050565b81835281816020850137506000828201602090810191909152601f909101601f19169091010190565b602081526000610e00602083018486612fc0565b634e487b7160e01b600052603260045260246000fd5b6000823561013e1983360301811261302a57600080fd5b9190910192915050565b6000808335601e1984360301811261304b57600080fd5b8301803591506001600160401b0382111561306557600080fd5b60200191503681900382131561276e57600080fd5b6001600160401b03811681146113e157600080fd5b63ffffffff61309d89612916565b16815260208801356020820152600060408901356130ba8161307a565b6001600160401b03811660408401525087606083015260e060808301526130e560e083018789612fc0565b6001600160a01b03861660a084015282810360c0840152613107818587612fc0565b9a9950505050505050505050565b60006020828403121561312757600080fd5b81516001600160401b0381111561313d57600080fd5b8201601f8101841361314e57600080fd5b805161315c612bc782612b81565b81815285602083850101111561317157600080fd5b6111e4826020830160208601612658565b60008351613194818460208801612658565b8351908301906131a8818360208801612658565b01949350505050565b6000602082840312156131c357600080fd5b813561125b8161307a565b60018060a01b038516815283602082015261ffff8316604082015260806060820152600061254f608083018461267c565b60006020828403121561321157600080fd5b815161125b81612aaa565b6040815263ffffffff8351166040820152602083015160608201526000604084015160a0608084015261325260e084018261267c565b90506060850151603f198483030160a085015261326f828261267c565b60809690960151151560c08501525050506001600160a01b039190911660209091015290565b6000604082840312156132a757600080fd5b6132af612b07565b9050815181526020820151602082015292915050565b6000608082840312156132d757600080fd5b6132df612b2f565b8251815260208301516132f18161307a565b60208201526133038460408501613295565b60408201529392505050565b6001600160a01b038581168252841660208201526040810183905260806060820181905260009061254f9083018461267c565b60006020828403121561335457600080fd5b815161125b81612625565b601f821115610c65576000816000526020600020601f850160051c810160208610156133885750805b601f850160051c820191505b818110156133a757828155600101613394565b505050505050565b81516001600160401b038111156133c8576133c8612af1565b6133dc816133d68454612e33565b8461335f565b602080601f83116001811461341157600084156133f95750858301515b600019600386901b1c1916600185901b1785556133a7565b600085815260208120601f198616915b8281101561344057888601518255948401946001909101908401613421565b508582101561345e5787850151600019600388901b60f8161c191681555b5050505050600190811b01905550565b600060208083018184528085518083526040925060408601915060408160051b87010184880160005b838110156134eb57888303603f190185528151805163ffffffff1684528781015161ffff168885015286015160608785018190526134d78186018361267c565b968901969450505090860190600101613497565b509098975050505050505050565b60006040828403121561350b57600080fd5b61125b8383613295565b8035602083101561093857600019602084900360031b1b1692915050565b60c084901b6001600160c01b031916815260e083901b6001600160e01b0319166008820152815160009061356e81600c850160208701612658565b91909101600c01949350505050565b848152836020820152826040820152600082516135a1816060850160208701612658565b9190910160600195945050505050565b6000602082840312156135c357600080fd5b815161125b816126d4565b6000825161302a81846020870161265856fea264697066735822122071957703e50ccb286e5ebe46d2f949f82f18febb51e7410edae37ef294c4ceff64736f6c63430008160033","linkReferences":{}},"methodIdentifiers":{"SEND()":"1f5e1334","SEND_AND_COMPOSE()":"b21a33e4","allowInitializePath((uint32,bytes32,uint64))":"ff7bd03d","approvalRequired()":"9f68b964","approve(address,uint256)":"095ea7b3","balanceOf(address)":"70a08231","buildMsgAndOptions((uint32,bytes32,uint256,bytes,bytes,bytes))":"7048de9a","combineOptions(uint32,uint16,bytes)":"bc70b354","credit(address,uint256,uint32)":"4dba701b","debit(uint256,uint32)":"dcdfd911","endpoint()":"5e280f11","enforcedOptions(uint32,uint16)":"5535d461","exists(uint256)":"4f558e79","getApproved(uint256)":"081812fc","isApprovedForAll(address,address)":"e985e9c5","isComposeMsgSender((uint32,bytes32,uint64),bytes,address)":"82413eac","isPeer(uint32,bytes32)":"5a0dfe4d","lzReceive((uint32,bytes32,uint64),bytes32,bytes,address,bytes)":"13137d65","lzReceiveAndRevert(((uint32,bytes32,uint64),uint32,address,bytes32,uint256,address,bytes,bytes)[])":"bd815db0","lzReceiveSimulate((uint32,bytes32,uint64),bytes32,bytes,address,bytes)":"d045a0dc","mint(address,uint256)":"40c10f19","msgInspector()":"111ecdad","name()":"06fdde03","nextNonce(uint32,bytes32)":"7d25a05e","oApp()":"52ae2879","oAppVersion()":"17442b70","onftVersion()":"a72f5dd8","owner()":"8da5cb5b","ownerOf(uint256)":"6352211e","peers(uint32)":"bb0b6a53","preCrime()":"b731ea0a","quoteSend((uint32,bytes32,uint256,bytes,bytes,bytes),bool)":"c6414e7b","renounceOwnership()":"715018a6","safeTransferFrom(address,address,uint256)":"42842e0e","safeTransferFrom(address,address,uint256,bytes)":"b88d4fde","send((uint32,bytes32,uint256,bytes,bytes,bytes),(uint256,uint256),address)":"21eb730b","setApprovalForAll(address,bool)":"a22cb465","setDelegate(address)":"ca5eb5e1","setEnforcedOptions((uint32,uint16,bytes)[])":"b98bd070","setMsgInspector(address)":"6fc1b31e","setPeer(uint32,bytes32)":"3400288b","setPreCrime(address)":"d4243885","supportsInterface(bytes4)":"01ffc9a7","symbol()":"95d89b41","token()":"fc0c546a","tokenURI(uint256)":"c87b56dd","transferFrom(address,address,uint256)":"23b872dd","transferOwnership(address)":"f2fde38b"},"id":144}