{
  "abi": [
    {
      "type": "constructor",
      "inputs": [
        {
          "name": "_name",
          "type": "string",
          "internalType": "string"
        },
        {
          "name": "_symbol",
          "type": "string",
          "internalType": "string"
        },
        {
          "name": "_lzEndpoint",
          "type": "address",
          "internalType": "address"
        },
        {
          "name": "_delegate",
          "type": "address",
          "internalType": "address"
        }
      ],
      "stateMutability": "nonpayable"
    },
    {
      "type": "function",
      "name": "SEND",
      "inputs": [],
      "outputs": [
        {
          "name": "",
          "type": "uint16",
          "internalType": "uint16"
        }
      ],
      "stateMutability": "view"
    },
    {
      "type": "function",
      "name": "SEND_AND_CALL",
      "inputs": [],
      "outputs": [
        {
          "name": "",
          "type": "uint16",
          "internalType": "uint16"
        }
      ],
      "stateMutability": "view"
    },
    {
      "type": "function",
      "name": "allowInitializePath",
      "inputs": [
        {
          "name": "origin",
          "type": "tuple",
          "internalType": "struct Origin",
          "components": [
            {
              "name": "srcEid",
              "type": "uint32",
              "internalType": "uint32"
            },
            {
              "name": "sender",
              "type": "bytes32",
              "internalType": "bytes32"
            },
            {
              "name": "nonce",
              "type": "uint64",
              "internalType": "uint64"
            }
          ]
        }
      ],
      "outputs": [
        {
          "name": "",
          "type": "bool",
          "internalType": "bool"
        }
      ],
      "stateMutability": "view"
    },
    {
      "type": "function",
      "name": "approvalRequired",
      "inputs": [],
      "outputs": [
        {
          "name": "requiresApproval",
          "type": "bool",
          "internalType": "bool"
        }
      ],
      "stateMutability": "pure"
    },
    {
      "type": "function",
      "name": "approve",
      "inputs": [
        {
          "name": "to",
          "type": "address",
          "internalType": "address"
        },
        {
          "name": "tokenId",
          "type": "uint256",
          "internalType": "uint256"
        }
      ],
      "outputs": [],
      "stateMutability": "nonpayable"
    },
    {
      "type": "function",
      "name": "balanceOf",
      "inputs": [
        {
          "name": "owner",
          "type": "address",
          "internalType": "address"
        }
      ],
      "outputs": [
        {
          "name": "",
          "type": "uint256",
          "internalType": "uint256"
        }
      ],
      "stateMutability": "view"
    },
    {
      "type": "function",
      "name": "buildMsgAndOptions",
      "inputs": [
        {
          "name": "_sendParam",
          "type": "tuple",
          "internalType": "struct SendParam",
          "components": [
            {
              "name": "dstEid",
              "type": "uint32",
              "internalType": "uint32"
            },
            {
              "name": "to",
              "type": "bytes32",
              "internalType": "bytes32"
            },
            {
              "name": "tokenIds",
              "type": "uint256[]",
              "internalType": "uint256[]"
            },
            {
              "name": "extraOptions",
              "type": "bytes",
              "internalType": "bytes"
            },
            {
              "name": "composeMsg",
              "type": "bytes",
              "internalType": "bytes"
            }
          ]
        }
      ],
      "outputs": [
        {
          "name": "",
          "type": "bytes",
          "internalType": "bytes"
        },
        {
          "name": "",
          "type": "bytes",
          "internalType": "bytes"
        }
      ],
      "stateMutability": "view"
    },
    {
      "type": "function",
      "name": "buildMsgAndOptions",
      "inputs": [
        {
          "name": "_sendParam",
          "type": "tuple",
          "internalType": "struct SendParamDouble",
          "components": [
            {
              "name": "dstEid",
              "type": "uint32",
              "internalType": "uint32"
            },
            {
              "name": "to",
              "type": "bytes32",
              "internalType": "bytes32"
            },
            {
              "name": "tokenId",
              "type": "uint256",
              "internalType": "uint256"
            },
            {
              "name": "tokenId2",
              "type": "uint256",
              "internalType": "uint256"
            },
            {
              "name": "extraOptions",
              "type": "bytes",
              "internalType": "bytes"
            },
            {
              "name": "composeMsg",
              "type": "bytes",
              "internalType": "bytes"
            },
            {
              "name": "onftCmd",
              "type": "bytes",
              "internalType": "bytes"
            }
          ]
        }
      ],
      "outputs": [
        {
          "name": "message",
          "type": "bytes",
          "internalType": "bytes"
        },
        {
          "name": "options",
          "type": "bytes",
          "internalType": "bytes"
        }
      ],
      "stateMutability": "view"
    },
    {
      "type": "function",
      "name": "buildMsgAndOptions",
      "inputs": [
        {
          "name": "_sendParam",
          "type": "tuple",
          "internalType": "struct SendParamSingle",
          "components": [
            {
              "name": "dstEid",
              "type": "uint32",
              "internalType": "uint32"
            },
            {
              "name": "to",
              "type": "bytes32",
              "internalType": "bytes32"
            },
            {
              "name": "tokenId",
              "type": "uint256",
              "internalType": "uint256"
            },
            {
              "name": "extraOptions",
              "type": "bytes",
              "internalType": "bytes"
            },
            {
              "name": "composeMsg",
              "type": "bytes",
              "internalType": "bytes"
            },
            {
              "name": "onftCmd",
              "type": "bytes",
              "internalType": "bytes"
            }
          ]
        }
      ],
      "outputs": [
        {
          "name": "message",
          "type": "bytes",
          "internalType": "bytes"
        },
        {
          "name": "options",
          "type": "bytes",
          "internalType": "bytes"
        }
      ],
      "stateMutability": "view"
    },
    {
      "type": "function",
      "name": "buildMsgAndOptions",
      "inputs": [
        {
          "name": "_sendParam",
          "type": "tuple",
          "internalType": "struct SendParamTriple",
          "components": [
            {
              "name": "dstEid",
              "type": "uint32",
              "internalType": "uint32"
            },
            {
              "name": "to",
              "type": "bytes32",
              "internalType": "bytes32"
            },
            {
              "name": "tokenId",
              "type": "uint256",
              "internalType": "uint256"
            },
            {
              "name": "tokenId2",
              "type": "uint256",
              "internalType": "uint256"
            },
            {
              "name": "tokenId3",
              "type": "uint256",
              "internalType": "uint256"
            },
            {
              "name": "extraOptions",
              "type": "bytes",
              "internalType": "bytes"
            },
            {
              "name": "composeMsg",
              "type": "bytes",
              "internalType": "bytes"
            },
            {
              "name": "onftCmd",
              "type": "bytes",
              "internalType": "bytes"
            }
          ]
        }
      ],
      "outputs": [
        {
          "name": "message",
          "type": "bytes",
          "internalType": "bytes"
        },
        {
          "name": "options",
          "type": "bytes",
          "internalType": "bytes"
        }
      ],
      "stateMutability": "view"
    },
    {
      "type": "function",
      "name": "combineOptions",
      "inputs": [
        {
          "name": "_eid",
          "type": "uint32",
          "internalType": "uint32"
        },
        {
          "name": "_msgType",
          "type": "uint16",
          "internalType": "uint16"
        },
        {
          "name": "_extraOptions",
          "type": "bytes",
          "internalType": "bytes"
        }
      ],
      "outputs": [
        {
          "name": "",
          "type": "bytes",
          "internalType": "bytes"
        }
      ],
      "stateMutability": "view"
    },
    {
      "type": "function",
      "name": "credit",
      "inputs": [
        {
          "name": "_toAddress",
          "type": "address",
          "internalType": "address"
        },
        {
          "name": "_tokenId",
          "type": "uint256",
          "internalType": "uint256"
        },
        {
          "name": "_srcEid",
          "type": "uint32",
          "internalType": "uint32"
        }
      ],
      "outputs": [],
      "stateMutability": "nonpayable"
    },
    {
      "type": "function",
      "name": "debit",
      "inputs": [
        {
          "name": "_tokenId",
          "type": "uint256",
          "internalType": "uint256"
        },
        {
          "name": "_dstEid",
          "type": "uint32",
          "internalType": "uint32"
        }
      ],
      "outputs": [],
      "stateMutability": "nonpayable"
    },
    {
      "type": "function",
      "name": "endpoint",
      "inputs": [],
      "outputs": [
        {
          "name": "",
          "type": "address",
          "internalType": "contract ILayerZeroEndpointV2"
        }
      ],
      "stateMutability": "view"
    },
    {
      "type": "function",
      "name": "enforcedOptions",
      "inputs": [
        {
          "name": "eid",
          "type": "uint32",
          "internalType": "uint32"
        },
        {
          "name": "msgType",
          "type": "uint16",
          "internalType": "uint16"
        }
      ],
      "outputs": [
        {
          "name": "enforcedOption",
          "type": "bytes",
          "internalType": "bytes"
        }
      ],
      "stateMutability": "view"
    },
    {
      "type": "function",
      "name": "exists",
      "inputs": [
        {
          "name": "_tokenId",
          "type": "uint256",
          "internalType": "uint256"
        }
      ],
      "outputs": [
        {
          "name": "",
          "type": "bool",
          "internalType": "bool"
        }
      ],
      "stateMutability": "view"
    },
    {
      "type": "function",
      "name": "getApproved",
      "inputs": [
        {
          "name": "tokenId",
          "type": "uint256",
          "internalType": "uint256"
        }
      ],
      "outputs": [
        {
          "name": "",
          "type": "address",
          "internalType": "address"
        }
      ],
      "stateMutability": "view"
    },
    {
      "type": "function",
      "name": "isApprovedForAll",
      "inputs": [
        {
          "name": "owner",
          "type": "address",
          "internalType": "address"
        },
        {
          "name": "operator",
          "type": "address",
          "internalType": "address"
        }
      ],
      "outputs": [
        {
          "name": "",
          "type": "bool",
          "internalType": "bool"
        }
      ],
      "stateMutability": "view"
    },
    {
      "type": "function",
      "name": "isComposeMsgSender",
      "inputs": [
        {
          "name": "",
          "type": "tuple",
          "internalType": "struct Origin",
          "components": [
            {
              "name": "srcEid",
              "type": "uint32",
              "internalType": "uint32"
            },
            {
              "name": "sender",
              "type": "bytes32",
              "internalType": "bytes32"
            },
            {
              "name": "nonce",
              "type": "uint64",
              "internalType": "uint64"
            }
          ]
        },
        {
          "name": "",
          "type": "bytes",
          "internalType": "bytes"
        },
        {
          "name": "_sender",
          "type": "address",
          "internalType": "address"
        }
      ],
      "outputs": [
        {
          "name": "",
          "type": "bool",
          "internalType": "bool"
        }
      ],
      "stateMutability": "view"
    },
    {
      "type": "function",
      "name": "isPeer",
      "inputs": [
        {
          "name": "_eid",
          "type": "uint32",
          "internalType": "uint32"
        },
        {
          "name": "_peer",
          "type": "bytes32",
          "internalType": "bytes32"
        }
      ],
      "outputs": [
        {
          "name": "",
          "type": "bool",
          "internalType": "bool"
        }
      ],
      "stateMutability": "view"
    },
    {
      "type": "function",
      "name": "lzReceive",
      "inputs": [
        {
          "name": "_origin",
          "type": "tuple",
          "internalType": "struct Origin",
          "components": [
            {
              "name": "srcEid",
              "type": "uint32",
              "internalType": "uint32"
            },
            {
              "name": "sender",
              "type": "bytes32",
              "internalType": "bytes32"
            },
            {
              "name": "nonce",
              "type": "uint64",
              "internalType": "uint64"
            }
          ]
        },
        {
          "name": "_guid",
          "type": "bytes32",
          "internalType": "bytes32"
        },
        {
          "name": "_message",
          "type": "bytes",
          "internalType": "bytes"
        },
        {
          "name": "_executor",
          "type": "address",
          "internalType": "address"
        },
        {
          "name": "_extraData",
          "type": "bytes",
          "internalType": "bytes"
        }
      ],
      "outputs": [],
      "stateMutability": "payable"
    },
    {
      "type": "function",
      "name": "lzReceiveAndRevert",
      "inputs": [
        {
          "name": "_packets",
          "type": "tuple[]",
          "internalType": "struct InboundPacket[]",
          "components": [
            {
              "name": "origin",
              "type": "tuple",
              "internalType": "struct Origin",
              "components": [
                {
                  "name": "srcEid",
                  "type": "uint32",
                  "internalType": "uint32"
                },
                {
                  "name": "sender",
                  "type": "bytes32",
                  "internalType": "bytes32"
                },
                {
                  "name": "nonce",
                  "type": "uint64",
                  "internalType": "uint64"
                }
              ]
            },
            {
              "name": "dstEid",
              "type": "uint32",
              "internalType": "uint32"
            },
            {
              "name": "receiver",
              "type": "address",
              "internalType": "address"
            },
            {
              "name": "guid",
              "type": "bytes32",
              "internalType": "bytes32"
            },
            {
              "name": "value",
              "type": "uint256",
              "internalType": "uint256"
            },
            {
              "name": "executor",
              "type": "address",
              "internalType": "address"
            },
            {
              "name": "message",
              "type": "bytes",
              "internalType": "bytes"
            },
            {
              "name": "extraData",
              "type": "bytes",
              "internalType": "bytes"
            }
          ]
        }
      ],
      "outputs": [],
      "stateMutability": "payable"
    },
    {
      "type": "function",
      "name": "lzReceiveSimulate",
      "inputs": [
        {
          "name": "_origin",
          "type": "tuple",
          "internalType": "struct Origin",
          "components": [
            {
              "name": "srcEid",
              "type": "uint32",
              "internalType": "uint32"
            },
            {
              "name": "sender",
              "type": "bytes32",
              "internalType": "bytes32"
            },
            {
              "name": "nonce",
              "type": "uint64",
              "internalType": "uint64"
            }
          ]
        },
        {
          "name": "_guid",
          "type": "bytes32",
          "internalType": "bytes32"
        },
        {
          "name": "_message",
          "type": "bytes",
          "internalType": "bytes"
        },
        {
          "name": "_executor",
          "type": "address",
          "internalType": "address"
        },
        {
          "name": "_extraData",
          "type": "bytes",
          "internalType": "bytes"
        }
      ],
      "outputs": [],
      "stateMutability": "payable"
    },
    {
      "type": "function",
      "name": "mint",
      "inputs": [
        {
          "name": "_to",
          "type": "address",
          "internalType": "address"
        },
        {
          "name": "_tokenId",
          "type": "uint256",
          "internalType": "uint256"
        }
      ],
      "outputs": [],
      "stateMutability": "nonpayable"
    },
    {
      "type": "function",
      "name": "msgInspector",
      "inputs": [],
      "outputs": [
        {
          "name": "",
          "type": "address",
          "internalType": "address"
        }
      ],
      "stateMutability": "view"
    },
    {
      "type": "function",
      "name": "name",
      "inputs": [],
      "outputs": [
        {
          "name": "",
          "type": "string",
          "internalType": "string"
        }
      ],
      "stateMutability": "view"
    },
    {
      "type": "function",
      "name": "nextNonce",
      "inputs": [
        {
          "name": "",
          "type": "uint32",
          "internalType": "uint32"
        },
        {
          "name": "",
          "type": "bytes32",
          "internalType": "bytes32"
        }
      ],
      "outputs": [
        {
          "name": "nonce",
          "type": "uint64",
          "internalType": "uint64"
        }
      ],
      "stateMutability": "view"
    },
    {
      "type": "function",
      "name": "oApp",
      "inputs": [],
      "outputs": [
        {
          "name": "",
          "type": "address",
          "internalType": "address"
        }
      ],
      "stateMutability": "view"
    },
    {
      "type": "function",
      "name": "oAppVersion",
      "inputs": [],
      "outputs": [
        {
          "name": "senderVersion",
          "type": "uint64",
          "internalType": "uint64"
        },
        {
          "name": "receiverVersion",
          "type": "uint64",
          "internalType": "uint64"
        }
      ],
      "stateMutability": "pure"
    },
    {
      "type": "function",
      "name": "onftVersion",
      "inputs": [],
      "outputs": [
        {
          "name": "interfaceId",
          "type": "bytes4",
          "internalType": "bytes4"
        },
        {
          "name": "version",
          "type": "uint64",
          "internalType": "uint64"
        }
      ],
      "stateMutability": "pure"
    },
    {
      "type": "function",
      "name": "owner",
      "inputs": [],
      "outputs": [
        {
          "name": "",
          "type": "address",
          "internalType": "address"
        }
      ],
      "stateMutability": "view"
    },
    {
      "type": "function",
      "name": "ownerOf",
      "inputs": [
        {
          "name": "tokenId",
          "type": "uint256",
          "internalType": "uint256"
        }
      ],
      "outputs": [
        {
          "name": "",
          "type": "address",
          "internalType": "address"
        }
      ],
      "stateMutability": "view"
    },
    {
      "type": "function",
      "name": "peers",
      "inputs": [
        {
          "name": "eid",
          "type": "uint32",
          "internalType": "uint32"
        }
      ],
      "outputs": [
        {
          "name": "peer",
          "type": "bytes32",
          "internalType": "bytes32"
        }
      ],
      "stateMutability": "view"
    },
    {
      "type": "function",
      "name": "preCrime",
      "inputs": [],
      "outputs": [
        {
          "name": "",
          "type": "address",
          "internalType": "address"
        }
      ],
      "stateMutability": "view"
    },
    {
      "type": "function",
      "name": "quoteSend",
      "inputs": [
        {
          "name": "_sendParam",
          "type": "tuple",
          "internalType": "struct SendParam",
          "components": [
            {
              "name": "dstEid",
              "type": "uint32",
              "internalType": "uint32"
            },
            {
              "name": "to",
              "type": "bytes32",
              "internalType": "bytes32"
            },
            {
              "name": "tokenIds",
              "type": "uint256[]",
              "internalType": "uint256[]"
            },
            {
              "name": "extraOptions",
              "type": "bytes",
              "internalType": "bytes"
            },
            {
              "name": "composeMsg",
              "type": "bytes",
              "internalType": "bytes"
            }
          ]
        },
        {
          "name": "_payInLzToken",
          "type": "bool",
          "internalType": "bool"
        }
      ],
      "outputs": [
        {
          "name": "msgFee",
          "type": "tuple",
          "internalType": "struct MessagingFee",
          "components": [
            {
              "name": "nativeFee",
              "type": "uint256",
              "internalType": "uint256"
            },
            {
              "name": "lzTokenFee",
              "type": "uint256",
              "internalType": "uint256"
            }
          ]
        }
      ],
      "stateMutability": "view"
    },
    {
      "type": "function",
      "name": "quoteSendDouble",
      "inputs": [
        {
          "name": "_sendParam",
          "type": "tuple",
          "internalType": "struct SendParamDouble",
          "components": [
            {
              "name": "dstEid",
              "type": "uint32",
              "internalType": "uint32"
            },
            {
              "name": "to",
              "type": "bytes32",
              "internalType": "bytes32"
            },
            {
              "name": "tokenId",
              "type": "uint256",
              "internalType": "uint256"
            },
            {
              "name": "tokenId2",
              "type": "uint256",
              "internalType": "uint256"
            },
            {
              "name": "extraOptions",
              "type": "bytes",
              "internalType": "bytes"
            },
            {
              "name": "composeMsg",
              "type": "bytes",
              "internalType": "bytes"
            },
            {
              "name": "onftCmd",
              "type": "bytes",
              "internalType": "bytes"
            }
          ]
        },
        {
          "name": "_payInLzToken",
          "type": "bool",
          "internalType": "bool"
        }
      ],
      "outputs": [
        {
          "name": "msgFee",
          "type": "tuple",
          "internalType": "struct MessagingFee",
          "components": [
            {
              "name": "nativeFee",
              "type": "uint256",
              "internalType": "uint256"
            },
            {
              "name": "lzTokenFee",
              "type": "uint256",
              "internalType": "uint256"
            }
          ]
        }
      ],
      "stateMutability": "view"
    },
    {
      "type": "function",
      "name": "quoteSendSingle",
      "inputs": [
        {
          "name": "_sendParam",
          "type": "tuple",
          "internalType": "struct SendParamSingle",
          "components": [
            {
              "name": "dstEid",
              "type": "uint32",
              "internalType": "uint32"
            },
            {
              "name": "to",
              "type": "bytes32",
              "internalType": "bytes32"
            },
            {
              "name": "tokenId",
              "type": "uint256",
              "internalType": "uint256"
            },
            {
              "name": "extraOptions",
              "type": "bytes",
              "internalType": "bytes"
            },
            {
              "name": "composeMsg",
              "type": "bytes",
              "internalType": "bytes"
            },
            {
              "name": "onftCmd",
              "type": "bytes",
              "internalType": "bytes"
            }
          ]
        },
        {
          "name": "_payInLzToken",
          "type": "bool",
          "internalType": "bool"
        }
      ],
      "outputs": [
        {
          "name": "msgFee",
          "type": "tuple",
          "internalType": "struct MessagingFee",
          "components": [
            {
              "name": "nativeFee",
              "type": "uint256",
              "internalType": "uint256"
            },
            {
              "name": "lzTokenFee",
              "type": "uint256",
              "internalType": "uint256"
            }
          ]
        }
      ],
      "stateMutability": "view"
    },
    {
      "type": "function",
      "name": "quoteSendTriple",
      "inputs": [
        {
          "name": "_sendParam",
          "type": "tuple",
          "internalType": "struct SendParamTriple",
          "components": [
            {
              "name": "dstEid",
              "type": "uint32",
              "internalType": "uint32"
            },
            {
              "name": "to",
              "type": "bytes32",
              "internalType": "bytes32"
            },
            {
              "name": "tokenId",
              "type": "uint256",
              "internalType": "uint256"
            },
            {
              "name": "tokenId2",
              "type": "uint256",
              "internalType": "uint256"
            },
            {
              "name": "tokenId3",
              "type": "uint256",
              "internalType": "uint256"
            },
            {
              "name": "extraOptions",
              "type": "bytes",
              "internalType": "bytes"
            },
            {
              "name": "composeMsg",
              "type": "bytes",
              "internalType": "bytes"
            },
            {
              "name": "onftCmd",
              "type": "bytes",
              "internalType": "bytes"
            }
          ]
        },
        {
          "name": "_payInLzToken",
          "type": "bool",
          "internalType": "bool"
        }
      ],
      "outputs": [
        {
          "name": "msgFee",
          "type": "tuple",
          "internalType": "struct MessagingFee",
          "components": [
            {
              "name": "nativeFee",
              "type": "uint256",
              "internalType": "uint256"
            },
            {
              "name": "lzTokenFee",
              "type": "uint256",
              "internalType": "uint256"
            }
          ]
        }
      ],
      "stateMutability": "view"
    },
    {
      "type": "function",
      "name": "renounceOwnership",
      "inputs": [],
      "outputs": [],
      "stateMutability": "nonpayable"
    },
    {
      "type": "function",
      "name": "safeTransferFrom",
      "inputs": [
        {
          "name": "from",
          "type": "address",
          "internalType": "address"
        },
        {
          "name": "to",
          "type": "address",
          "internalType": "address"
        },
        {
          "name": "tokenId",
          "type": "uint256",
          "internalType": "uint256"
        }
      ],
      "outputs": [],
      "stateMutability": "nonpayable"
    },
    {
      "type": "function",
      "name": "safeTransferFrom",
      "inputs": [
        {
          "name": "from",
          "type": "address",
          "internalType": "address"
        },
        {
          "name": "to",
          "type": "address",
          "internalType": "address"
        },
        {
          "name": "tokenId",
          "type": "uint256",
          "internalType": "uint256"
        },
        {
          "name": "data",
          "type": "bytes",
          "internalType": "bytes"
        }
      ],
      "outputs": [],
      "stateMutability": "nonpayable"
    },
    {
      "type": "function",
      "name": "send",
      "inputs": [
        {
          "name": "_sendParam",
          "type": "tuple",
          "internalType": "struct SendParam",
          "components": [
            {
              "name": "dstEid",
              "type": "uint32",
              "internalType": "uint32"
            },
            {
              "name": "to",
              "type": "bytes32",
              "internalType": "bytes32"
            },
            {
              "name": "tokenIds",
              "type": "uint256[]",
              "internalType": "uint256[]"
            },
            {
              "name": "extraOptions",
              "type": "bytes",
              "internalType": "bytes"
            },
            {
              "name": "composeMsg",
              "type": "bytes",
              "internalType": "bytes"
            }
          ]
        },
        {
          "name": "_fee",
          "type": "tuple",
          "internalType": "struct MessagingFee",
          "components": [
            {
              "name": "nativeFee",
              "type": "uint256",
              "internalType": "uint256"
            },
            {
              "name": "lzTokenFee",
              "type": "uint256",
              "internalType": "uint256"
            }
          ]
        },
        {
          "name": "_refundAddress",
          "type": "address",
          "internalType": "address"
        }
      ],
      "outputs": [
        {
          "name": "msgReceipt",
          "type": "tuple",
          "internalType": "struct MessagingReceipt",
          "components": [
            {
              "name": "guid",
              "type": "bytes32",
              "internalType": "bytes32"
            },
            {
              "name": "nonce",
              "type": "uint64",
              "internalType": "uint64"
            },
            {
              "name": "fee",
              "type": "tuple",
              "internalType": "struct MessagingFee",
              "components": [
                {
                  "name": "nativeFee",
                  "type": "uint256",
                  "internalType": "uint256"
                },
                {
                  "name": "lzTokenFee",
                  "type": "uint256",
                  "internalType": "uint256"
                }
              ]
            }
          ]
        }
      ],
      "stateMutability": "payable"
    },
    {
      "type": "function",
      "name": "sendDouble",
      "inputs": [
        {
          "name": "_sendParam",
          "type": "tuple",
          "internalType": "struct SendParamDouble",
          "components": [
            {
              "name": "dstEid",
              "type": "uint32",
              "internalType": "uint32"
            },
            {
              "name": "to",
              "type": "bytes32",
              "internalType": "bytes32"
            },
            {
              "name": "tokenId",
              "type": "uint256",
              "internalType": "uint256"
            },
            {
              "name": "tokenId2",
              "type": "uint256",
              "internalType": "uint256"
            },
            {
              "name": "extraOptions",
              "type": "bytes",
              "internalType": "bytes"
            },
            {
              "name": "composeMsg",
              "type": "bytes",
              "internalType": "bytes"
            },
            {
              "name": "onftCmd",
              "type": "bytes",
              "internalType": "bytes"
            }
          ]
        },
        {
          "name": "_fee",
          "type": "tuple",
          "internalType": "struct MessagingFee",
          "components": [
            {
              "name": "nativeFee",
              "type": "uint256",
              "internalType": "uint256"
            },
            {
              "name": "lzTokenFee",
              "type": "uint256",
              "internalType": "uint256"
            }
          ]
        },
        {
          "name": "_refundAddress",
          "type": "address",
          "internalType": "address"
        }
      ],
      "outputs": [
        {
          "name": "msgReceipt",
          "type": "tuple",
          "internalType": "struct MessagingReceipt",
          "components": [
            {
              "name": "guid",
              "type": "bytes32",
              "internalType": "bytes32"
            },
            {
              "name": "nonce",
              "type": "uint64",
              "internalType": "uint64"
            },
            {
              "name": "fee",
              "type": "tuple",
              "internalType": "struct MessagingFee",
              "components": [
                {
                  "name": "nativeFee",
                  "type": "uint256",
                  "internalType": "uint256"
                },
                {
                  "name": "lzTokenFee",
                  "type": "uint256",
                  "internalType": "uint256"
                }
              ]
            }
          ]
        }
      ],
      "stateMutability": "payable"
    },
    {
      "type": "function",
      "name": "sendSingle",
      "inputs": [
        {
          "name": "_sendParam",
          "type": "tuple",
          "internalType": "struct SendParamSingle",
          "components": [
            {
              "name": "dstEid",
              "type": "uint32",
              "internalType": "uint32"
            },
            {
              "name": "to",
              "type": "bytes32",
              "internalType": "bytes32"
            },
            {
              "name": "tokenId",
              "type": "uint256",
              "internalType": "uint256"
            },
            {
              "name": "extraOptions",
              "type": "bytes",
              "internalType": "bytes"
            },
            {
              "name": "composeMsg",
              "type": "bytes",
              "internalType": "bytes"
            },
            {
              "name": "onftCmd",
              "type": "bytes",
              "internalType": "bytes"
            }
          ]
        },
        {
          "name": "_fee",
          "type": "tuple",
          "internalType": "struct MessagingFee",
          "components": [
            {
              "name": "nativeFee",
              "type": "uint256",
              "internalType": "uint256"
            },
            {
              "name": "lzTokenFee",
              "type": "uint256",
              "internalType": "uint256"
            }
          ]
        },
        {
          "name": "_refundAddress",
          "type": "address",
          "internalType": "address"
        }
      ],
      "outputs": [
        {
          "name": "msgReceipt",
          "type": "tuple",
          "internalType": "struct MessagingReceipt",
          "components": [
            {
              "name": "guid",
              "type": "bytes32",
              "internalType": "bytes32"
            },
            {
              "name": "nonce",
              "type": "uint64",
              "internalType": "uint64"
            },
            {
              "name": "fee",
              "type": "tuple",
              "internalType": "struct MessagingFee",
              "components": [
                {
                  "name": "nativeFee",
                  "type": "uint256",
                  "internalType": "uint256"
                },
                {
                  "name": "lzTokenFee",
                  "type": "uint256",
                  "internalType": "uint256"
                }
              ]
            }
          ]
        }
      ],
      "stateMutability": "payable"
    },
    {
      "type": "function",
      "name": "sendTriple",
      "inputs": [
        {
          "name": "_sendParam",
          "type": "tuple",
          "internalType": "struct SendParamTriple",
          "components": [
            {
              "name": "dstEid",
              "type": "uint32",
              "internalType": "uint32"
            },
            {
              "name": "to",
              "type": "bytes32",
              "internalType": "bytes32"
            },
            {
              "name": "tokenId",
              "type": "uint256",
              "internalType": "uint256"
            },
            {
              "name": "tokenId2",
              "type": "uint256",
              "internalType": "uint256"
            },
            {
              "name": "tokenId3",
              "type": "uint256",
              "internalType": "uint256"
            },
            {
              "name": "extraOptions",
              "type": "bytes",
              "internalType": "bytes"
            },
            {
              "name": "composeMsg",
              "type": "bytes",
              "internalType": "bytes"
            },
            {
              "name": "onftCmd",
              "type": "bytes",
              "internalType": "bytes"
            }
          ]
        },
        {
          "name": "_fee",
          "type": "tuple",
          "internalType": "struct MessagingFee",
          "components": [
            {
              "name": "nativeFee",
              "type": "uint256",
              "internalType": "uint256"
            },
            {
              "name": "lzTokenFee",
              "type": "uint256",
              "internalType": "uint256"
            }
          ]
        },
        {
          "name": "_refundAddress",
          "type": "address",
          "internalType": "address"
        }
      ],
      "outputs": [
        {
          "name": "msgReceipt",
          "type": "tuple",
          "internalType": "struct MessagingReceipt",
          "components": [
            {
              "name": "guid",
              "type": "bytes32",
              "internalType": "bytes32"
            },
            {
              "name": "nonce",
              "type": "uint64",
              "internalType": "uint64"
            },
            {
              "name": "fee",
              "type": "tuple",
              "internalType": "struct MessagingFee",
              "components": [
                {
                  "name": "nativeFee",
                  "type": "uint256",
                  "internalType": "uint256"
                },
                {
                  "name": "lzTokenFee",
                  "type": "uint256",
                  "internalType": "uint256"
                }
              ]
            }
          ]
        }
      ],
      "stateMutability": "payable"
    },
    {
      "type": "function",
      "name": "setApprovalForAll",
      "inputs": [
        {
          "name": "operator",
          "type": "address",
          "internalType": "address"
        },
        {
          "name": "approved",
          "type": "bool",
          "internalType": "bool"
        }
      ],
      "outputs": [],
      "stateMutability": "nonpayable"
    },
    {
      "type": "function",
      "name": "setDelegate",
      "inputs": [
        {
          "name": "_delegate",
          "type": "address",
          "internalType": "address"
        }
      ],
      "outputs": [],
      "stateMutability": "nonpayable"
    },
    {
      "type": "function",
      "name": "setEnforcedOptions",
      "inputs": [
        {
          "name": "_enforcedOptions",
          "type": "tuple[]",
          "internalType": "struct EnforcedOptionParam[]",
          "components": [
            {
              "name": "eid",
              "type": "uint32",
              "internalType": "uint32"
            },
            {
              "name": "msgType",
              "type": "uint16",
              "internalType": "uint16"
            },
            {
              "name": "options",
              "type": "bytes",
              "internalType": "bytes"
            }
          ]
        }
      ],
      "outputs": [],
      "stateMutability": "nonpayable"
    },
    {
      "type": "function",
      "name": "setMsgInspector",
      "inputs": [
        {
          "name": "_msgInspector",
          "type": "address",
          "internalType": "address"
        }
      ],
      "outputs": [],
      "stateMutability": "nonpayable"
    },
    {
      "type": "function",
      "name": "setPeer",
      "inputs": [
        {
          "name": "_eid",
          "type": "uint32",
          "internalType": "uint32"
        },
        {
          "name": "_peer",
          "type": "bytes32",
          "internalType": "bytes32"
        }
      ],
      "outputs": [],
      "stateMutability": "nonpayable"
    },
    {
      "type": "function",
      "name": "setPreCrime",
      "inputs": [
        {
          "name": "_preCrime",
          "type": "address",
          "internalType": "address"
        }
      ],
      "outputs": [],
      "stateMutability": "nonpayable"
    },
    {
      "type": "function",
      "name": "supportsInterface",
      "inputs": [
        {
          "name": "interfaceId",
          "type": "bytes4",
          "internalType": "bytes4"
        }
      ],
      "outputs": [
        {
          "name": "",
          "type": "bool",
          "internalType": "bool"
        }
      ],
      "stateMutability": "view"
    },
    {
      "type": "function",
      "name": "symbol",
      "inputs": [],
      "outputs": [
        {
          "name": "",
          "type": "string",
          "internalType": "string"
        }
      ],
      "stateMutability": "view"
    },
    {
      "type": "function",
      "name": "token",
      "inputs": [],
      "outputs": [
        {
          "name": "tokenAddress",
          "type": "address",
          "internalType": "address"
        }
      ],
      "stateMutability": "view"
    },
    {
      "type": "function",
      "name": "tokenURI",
      "inputs": [
        {
          "name": "tokenId",
          "type": "uint256",
          "internalType": "uint256"
        }
      ],
      "outputs": [
        {
          "name": "",
          "type": "string",
          "internalType": "string"
        }
      ],
      "stateMutability": "view"
    },
    {
      "type": "function",
      "name": "transferFrom",
      "inputs": [
        {
          "name": "from",
          "type": "address",
          "internalType": "address"
        },
        {
          "name": "to",
          "type": "address",
          "internalType": "address"
        },
        {
          "name": "tokenId",
          "type": "uint256",
          "internalType": "uint256"
        }
      ],
      "outputs": [],
      "stateMutability": "nonpayable"
    },
    {
      "type": "function",
      "name": "transferOwnership",
      "inputs": [
        {
          "name": "newOwner",
          "type": "address",
          "internalType": "address"
        }
      ],
      "outputs": [],
      "stateMutability": "nonpayable"
    },
    {
      "type": "event",
      "name": "Approval",
      "inputs": [
        {
          "name": "owner",
          "type": "address",
          "indexed": true,
          "internalType": "address"
        },
        {
          "name": "approved",
          "type": "address",
          "indexed": true,
          "internalType": "address"
        },
        {
          "name": "tokenId",
          "type": "uint256",
          "indexed": true,
          "internalType": "uint256"
        }
      ],
      "anonymous": false
    },
    {
      "type": "event",
      "name": "ApprovalForAll",
      "inputs": [
        {
          "name": "owner",
          "type": "address",
          "indexed": true,
          "internalType": "address"
        },
        {
          "name": "operator",
          "type": "address",
          "indexed": true,
          "internalType": "address"
        },
        {
          "name": "approved",
          "type": "bool",
          "indexed": false,
          "internalType": "bool"
        }
      ],
      "anonymous": false
    },
    {
      "type": "event",
      "name": "EnforcedOptionSet",
      "inputs": [
        {
          "name": "_enforcedOptions",
          "type": "tuple[]",
          "indexed": false,
          "internalType": "struct EnforcedOptionParam[]",
          "components": [
            {
              "name": "eid",
              "type": "uint32",
              "internalType": "uint32"
            },
            {
              "name": "msgType",
              "type": "uint16",
              "internalType": "uint16"
            },
            {
              "name": "options",
              "type": "bytes",
              "internalType": "bytes"
            }
          ]
        }
      ],
      "anonymous": false
    },
    {
      "type": "event",
      "name": "MsgInspectorSet",
      "inputs": [
        {
          "name": "inspector",
          "type": "address",
          "indexed": false,
          "internalType": "address"
        }
      ],
      "anonymous": false
    },
    {
      "type": "event",
      "name": "ONFTReceived",
      "inputs": [
        {
          "name": "guid",
          "type": "bytes32",
          "indexed": true,
          "internalType": "bytes32"
        },
        {
          "name": "srcEid",
          "type": "uint32",
          "indexed": false,
          "internalType": "uint32"
        },
        {
          "name": "toAddress",
          "type": "address",
          "indexed": true,
          "internalType": "address"
        },
        {
          "name": "tokenId",
          "type": "uint256",
          "indexed": false,
          "internalType": "uint256"
        }
      ],
      "anonymous": false
    },
    {
      "type": "event",
      "name": "ONFTSent",
      "inputs": [
        {
          "name": "guid",
          "type": "bytes32",
          "indexed": true,
          "internalType": "bytes32"
        },
        {
          "name": "dstEid",
          "type": "uint32",
          "indexed": false,
          "internalType": "uint32"
        },
        {
          "name": "fromAddress",
          "type": "address",
          "indexed": true,
          "internalType": "address"
        },
        {
          "name": "tokenIds",
          "type": "uint256[]",
          "indexed": false,
          "internalType": "uint256[]"
        }
      ],
      "anonymous": false
    },
    {
      "type": "event",
      "name": "ONFTSent",
      "inputs": [
        {
          "name": "guid",
          "type": "bytes32",
          "indexed": true,
          "internalType": "bytes32"
        },
        {
          "name": "dstEid",
          "type": "uint32",
          "indexed": false,
          "internalType": "uint32"
        },
        {
          "name": "fromAddress",
          "type": "address",
          "indexed": true,
          "internalType": "address"
        },
        {
          "name": "tokenId",
          "type": "uint256",
          "indexed": false,
          "internalType": "uint256"
        }
      ],
      "anonymous": false
    },
    {
      "type": "event",
      "name": "ONFTSent",
      "inputs": [
        {
          "name": "guid",
          "type": "bytes32",
          "indexed": true,
          "internalType": "bytes32"
        },
        {
          "name": "dstEid",
          "type": "uint32",
          "indexed": false,
          "internalType": "uint32"
        },
        {
          "name": "fromAddress",
          "type": "address",
          "indexed": true,
          "internalType": "address"
        },
        {
          "name": "tokenId1",
          "type": "uint256",
          "indexed": false,
          "internalType": "uint256"
        },
        {
          "name": "tokenId2",
          "type": "uint256",
          "indexed": false,
          "internalType": "uint256"
        }
      ],
      "anonymous": false
    },
    {
      "type": "event",
      "name": "ONFTSent",
      "inputs": [
        {
          "name": "guid",
          "type": "bytes32",
          "indexed": true,
          "internalType": "bytes32"
        },
        {
          "name": "dstEid",
          "type": "uint32",
          "indexed": false,
          "internalType": "uint32"
        },
        {
          "name": "fromAddress",
          "type": "address",
          "indexed": true,
          "internalType": "address"
        },
        {
          "name": "tokenId1",
          "type": "uint256",
          "indexed": false,
          "internalType": "uint256"
        },
        {
          "name": "tokenId2",
          "type": "uint256",
          "indexed": false,
          "internalType": "uint256"
        },
        {
          "name": "tokenId3",
          "type": "uint256",
          "indexed": false,
          "internalType": "uint256"
        }
      ],
      "anonymous": false
    },
    {
      "type": "event",
      "name": "OwnershipTransferred",
      "inputs": [
        {
          "name": "previousOwner",
          "type": "address",
          "indexed": true,
          "internalType": "address"
        },
        {
          "name": "newOwner",
          "type": "address",
          "indexed": true,
          "internalType": "address"
        }
      ],
      "anonymous": false
    },
    {
      "type": "event",
      "name": "PeerSet",
      "inputs": [
        {
          "name": "eid",
          "type": "uint32",
          "indexed": false,
          "internalType": "uint32"
        },
        {
          "name": "peer",
          "type": "bytes32",
          "indexed": false,
          "internalType": "bytes32"
        }
      ],
      "anonymous": false
    },
    {
      "type": "event",
      "name": "PreCrimeSet",
      "inputs": [
        {
          "name": "preCrimeAddress",
          "type": "address",
          "indexed": false,
          "internalType": "address"
        }
      ],
      "anonymous": false
    },
    {
      "type": "event",
      "name": "Transfer",
      "inputs": [
        {
          "name": "from",
          "type": "address",
          "indexed": true,
          "internalType": "address"
        },
        {
          "name": "to",
          "type": "address",
          "indexed": true,
          "internalType": "address"
        },
        {
          "name": "tokenId",
          "type": "uint256",
          "indexed": true,
          "internalType": "uint256"
        }
      ],
      "anonymous": false
    },
    {
      "type": "error",
      "name": "AddressEmptyCode",
      "inputs": [
        {
          "name": "target",
          "type": "address",
          "internalType": "address"
        }
      ]
    },
    {
      "type": "error",
      "name": "AddressInsufficientBalance",
      "inputs": [
        {
          "name": "account",
          "type": "address",
          "internalType": "address"
        }
      ]
    },
    {
      "type": "error",
      "name": "ERC721IncorrectOwner",
      "inputs": [
        {
          "name": "sender",
          "type": "address",
          "internalType": "address"
        },
        {
          "name": "tokenId",
          "type": "uint256",
          "internalType": "uint256"
        },
        {
          "name": "owner",
          "type": "address",
          "internalType": "address"
        }
      ]
    },
    {
      "type": "error",
      "name": "ERC721InsufficientApproval",
      "inputs": [
        {
          "name": "operator",
          "type": "address",
          "internalType": "address"
        },
        {
          "name": "tokenId",
          "type": "uint256",
          "internalType": "uint256"
        }
      ]
    },
    {
      "type": "error",
      "name": "ERC721InvalidApprover",
      "inputs": [
        {
          "name": "approver",
          "type": "address",
          "internalType": "address"
        }
      ]
    },
    {
      "type": "error",
      "name": "ERC721InvalidOperator",
      "inputs": [
        {
          "name": "operator",
          "type": "address",
          "internalType": "address"
        }
      ]
    },
    {
      "type": "error",
      "name": "ERC721InvalidOwner",
      "inputs": [
        {
          "name": "owner",
          "type": "address",
          "internalType": "address"
        }
      ]
    },
    {
      "type": "error",
      "name": "ERC721InvalidReceiver",
      "inputs": [
        {
          "name": "receiver",
          "type": "address",
          "internalType": "address"
        }
      ]
    },
    {
      "type": "error",
      "name": "ERC721InvalidSender",
      "inputs": [
        {
          "name": "sender",
          "type": "address",
          "internalType": "address"
        }
      ]
    },
    {
      "type": "error",
      "name": "ERC721NonexistentToken",
      "inputs": [
        {
          "name": "tokenId",
          "type": "uint256",
          "internalType": "uint256"
        }
      ]
    },
    {
      "type": "error",
      "name": "FailedInnerCall",
      "inputs": []
    },
    {
      "type": "error",
      "name": "InvalidDelegate",
      "inputs": []
    },
    {
      "type": "error",
      "name": "InvalidEndpointCall",
      "inputs": []
    },
    {
      "type": "error",
      "name": "InvalidOptions",
      "inputs": [
        {
          "name": "options",
          "type": "bytes",
          "internalType": "bytes"
        }
      ]
    },
    {
      "type": "error",
      "name": "LzTokenUnavailable",
      "inputs": []
    },
    {
      "type": "error",
      "name": "NoPeer",
      "inputs": [
        {
          "name": "eid",
          "type": "uint32",
          "internalType": "uint32"
        }
      ]
    },
    {
      "type": "error",
      "name": "NotEnoughNative",
      "inputs": [
        {
          "name": "msgValue",
          "type": "uint256",
          "internalType": "uint256"
        }
      ]
    },
    {
      "type": "error",
      "name": "OnlyEndpoint",
      "inputs": [
        {
          "name": "addr",
          "type": "address",
          "internalType": "address"
        }
      ]
    },
    {
      "type": "error",
      "name": "OnlyPeer",
      "inputs": [
        {
          "name": "eid",
          "type": "uint32",
          "internalType": "uint32"
        },
        {
          "name": "sender",
          "type": "bytes32",
          "internalType": "bytes32"
        }
      ]
    },
    {
      "type": "error",
      "name": "OnlySelf",
      "inputs": []
    },
    {
      "type": "error",
      "name": "OwnableInvalidOwner",
      "inputs": [
        {
          "name": "owner",
          "type": "address",
          "internalType": "address"
        }
      ]
    },
    {
      "type": "error",
      "name": "OwnableUnauthorizedAccount",
      "inputs": [
        {
          "name": "account",
          "type": "address",
          "internalType": "address"
        }
      ]
    },
    {
      "type": "error",
      "name": "SafeERC20FailedOperation",
      "inputs": [
        {
          "name": "token",
          "type": "address",
          "internalType": "address"
        }
      ]
    },
    {
      "type": "error",
      "name": "SimulationResult",
      "inputs": [
        {
          "name": "result",
          "type": "bytes",
          "internalType": "bytes"
        }
      ]
    },
    {
      "type": "error",
      "name": "UnapprovedSender",
      "inputs": [
        {
          "name": "caller",
          "type": "address",
          "internalType": "address"
        }
      ]
    }
  ],
  "bytecode": {
    "object": "0x60a06040523480156200001157600080fd5b506040516200454c3803806200454c83398101604081905262000034916200027f565b83838383838383838383838381818181806001600160a01b0381166200007457604051631e4fbdf760e01b81526000600482015260240160405180910390fd5b6200007f816200014a565b506001600160a01b038083166080528116620000ae57604051632d618d8160e21b815260040160405180910390fd5b60805160405163ca5eb5e160e01b81526001600160a01b0383811660048301529091169063ca5eb5e190602401600060405180830381600087803b158015620000f657600080fd5b505af11580156200010b573d6000803e3d6000fd5b5050505050505050505081600590816200012691906200039f565b5060066200013582826200039f565b5050505050505050505050505050506200046b565b600080546001600160a01b038381166001600160a01b0319831681178455604051919092169283917f8be0079c531659141344cd1fd0a4f28419497f9722a3daafe3b4186f6b6457e09190a35050565b634e487b7160e01b600052604160045260246000fd5b600082601f830112620001c257600080fd5b81516001600160401b0380821115620001df57620001df6200019a565b604051601f8301601f19908116603f011681019082821181831017156200020a576200020a6200019a565b81604052838152602092508660208588010111156200022857600080fd5b600091505b838210156200024c57858201830151818301840152908201906200022d565b6000602085830101528094505050505092915050565b80516001600160a01b03811681146200027a57600080fd5b919050565b600080600080608085870312156200029657600080fd5b84516001600160401b0380821115620002ae57600080fd5b620002bc88838901620001b0565b95506020870151915080821115620002d357600080fd5b50620002e287828801620001b0565b935050620002f36040860162000262565b9150620003036060860162000262565b905092959194509250565b600181811c908216806200032357607f821691505b6020821081036200034457634e487b7160e01b600052602260045260246000fd5b50919050565b601f8211156200039a576000816000526020600020601f850160051c81016020861015620003755750805b601f850160051c820191505b81811015620003965782815560010162000381565b5050505b505050565b81516001600160401b03811115620003bb57620003bb6200019a565b620003d381620003cc84546200030e565b846200034a565b602080601f8311600181146200040b5760008415620003f25750858301515b600019600386901b1c1916600185901b17855562000396565b600085815260208120601f198616915b828110156200043c578886015182559484019460019091019084016200041b565b50858210156200045b5787850151600019600388901b60f8161c191681555b5050505050600190811b01905550565b608051614094620004b86000396000818161066001528181610bfb0152818161160201528181611a5701528181611d0901528181611ef9015281816127c4015261287d01526140946000f3fe6080604052600436106103765760003560e01c8063715018a6116101d1578063bc70b35411610102578063d90726dd116100a0578063f2fde38b1161006f578063f2fde38b14610a68578063f8239c6714610a88578063fc0c546a146105e4578063ff7bd03d14610aa857600080fd5b8063d90726dd146109f5578063dcdfd91114610a15578063e985e9c514610a35578063f154a64a14610a5557600080fd5b8063ca5eb5e1116100dc578063ca5eb5e114610982578063d045a0dc146109a2578063d4243885146109b5578063d6699ee0146109d557600080fd5b8063bc70b3541461092f578063bd815db01461094f578063c87b56dd1461096257600080fd5b8063a22cb4651161016f578063b731ea0a11610149578063b731ea0a146108a2578063b88d4fde146108c2578063b98bd070146108e2578063bb0b6a531461090257600080fd5b8063a22cb4651461083a578063a72f5dd81461085a578063b1d99b3a1461088257600080fd5b806382413eac116101ab57806382413eac146107d35780638da5cb5b146107f357806395d89b41146108115780639f68b9641461082657600080fd5b8063715018a6146107705780637aa87cb6146107855780637d25a05e1461079857600080fd5b806342842e0e116102ab578063630814d2116102495780636ef77277116102235780636ef77277146106ef5780636fc1b31e146107025780637048de9a1461072257806370a082311461074257600080fd5b8063630814d2146106825780636352211e146106a257806367d121c7146106c257600080fd5b806352ae28791161028557806352ae2879146105e45780635535d461146105f75780635a0dfe4d146106175780635e280f111461064e57600080fd5b806342842e0e1461056c5780634dba701b1461058c5780634f558e79146105ac57600080fd5b8063134d4f251161031857806323b872dd116102f257806323b872dd146104ec5780633400288b1461050c57806337feb3391461052c57806340c10f191461054c57600080fd5b8063134d4f251461048d57806317442b70146104b55780631f5e1334146104d757600080fd5b8063081812fc11610354578063081812fc14610400578063095ea7b314610438578063111ecdad1461045a57806313137d651461047a57600080fd5b806301ffc9a71461037b57806306fdde03146103b057806307fa3a97146103d2575b600080fd5b34801561038757600080fd5b5061039b610396366004612d43565b610ac8565b60405190151581526020015b60405180910390f35b3480156103bc57600080fd5b506103c5610b1a565b6040516103a79190612db0565b3480156103de57600080fd5b506103f26103ed366004612ddb565b610bac565b6040516103a7929190612e0f565b34801561040c57600080fd5b5061042061041b366004612e34565b610bc1565b6040516001600160a01b0390911681526020016103a7565b34801561044457600080fd5b50610458610453366004612e62565b610bea565b005b34801561046657600080fd5b50600454610420906001600160a01b031681565b610458610488366004612ee8565b610bf9565b34801561049957600080fd5b506104a2600281565b60405161ffff90911681526020016103a7565b3480156104c157600080fd5b50604080516001815260026020820152016103a7565b3480156104e357600080fd5b506104a2600181565b3480156104f857600080fd5b50610458610507366004612f87565b610cb9565b34801561051857600080fd5b50610458610527366004612fe1565b610d44565b61053f61053a36600461300f565b610d56565b6040516103a79190613071565b34801561055857600080fd5b50610458610567366004612e62565b610e7c565b34801561057857600080fd5b50610458610587366004612f87565b610e86565b34801561059857600080fd5b506104586105a73660046130b3565b610ea6565b3480156105b857600080fd5b5061039b6105c7366004612e34565b6000908152600760205260409020546001600160a01b0316151590565b3480156105f057600080fd5b5030610420565b34801561060357600080fd5b506103c5610612366004613103565b610eb1565b34801561062357600080fd5b5061039b610632366004612fe1565b63ffffffff919091166000908152600160205260409020541490565b34801561065a57600080fd5b506104207f000000000000000000000000000000000000000000000000000000000000000081565b34801561068e57600080fd5b506103f261069d366004613148565b610f56565b3480156106ae57600080fd5b506104206106bd366004612e34565b610f62565b3480156106ce57600080fd5b506106e26106dd36600461318a565b610f6d565b6040516103a791906131db565b61053f6106fd3660046131f2565b610ff7565b34801561070e57600080fd5b5061045861071d366004613229565b61109c565b34801561072e57600080fd5b506103f261073d366004613258565b6110f9565b34801561074e57600080fd5b5061076261075d366004613229565b611105565b6040519081526020016103a7565b34801561077c57600080fd5b5061045861114d565b61053f61079336600461329f565b611161565b3480156107a457600080fd5b506107bb6107b3366004612fe1565b600092915050565b6040516001600160401b0390911681526020016103a7565b3480156107df57600080fd5b5061039b6107ee3660046132d6565b6111b4565b3480156107ff57600080fd5b506000546001600160a01b0316610420565b34801561081d57600080fd5b506103c56111c9565b34801561083257600080fd5b50600061039b565b34801561084657600080fd5b5061045861085536600461333c565b6111d8565b34801561086657600080fd5b506040805163128c844560e31b815260016020820152016103a7565b34801561088e57600080fd5b506106e261089d36600461336a565b6111e3565b3480156108ae57600080fd5b50600254610420906001600160a01b031681565b3480156108ce57600080fd5b506104586108dd3660046134ac565b611203565b3480156108ee57600080fd5b506104586108fd36600461355b565b61121a565b34801561090e57600080fd5b5061076261091d36600461359c565b60016020526000908152604090205481565b34801561093b57600080fd5b506103c561094a3660046135b7565b611234565b61045861095d36600461355b565b6113dc565b34801561096e57600080fd5b506103c561097d366004612e34565b611566565b34801561098e57600080fd5b5061045861099d366004613229565b6115db565b6104586109b0366004612ee8565b611661565b3480156109c157600080fd5b506104586109d0366004613229565b611690565b3480156109e157600080fd5b506106e26109f0366004613617565b6116e6565b348015610a0157600080fd5b506103f2610a1036600461364c565b611706565b348015610a2157600080fd5b50610458610a30366004613680565b611712565b348015610a4157600080fd5b5061039b610a503660046136a3565b61171c565b61053f610a633660046136d1565b61174a565b348015610a7457600080fd5b50610458610a83366004613229565b611773565b348015610a9457600080fd5b506106e2610aa3366004613708565b6117b1565b348015610ab457600080fd5b5061039b610ac336600461373d565b6117d1565b60006001600160e01b031982166380ac58cd60e01b1480610af957506001600160e01b03198216635b5e139f60e01b145b80610b1457506301ffc9a760e01b6001600160e01b03198316145b92915050565b606060058054610b2990613759565b80601f0160208091040260200160405190810160405280929190818152602001828054610b5590613759565b8015610ba25780601f10610b7757610100808354040283529160200191610ba2565b820191906000526020600020905b815481529060010190602001808311610b8557829003601f168201915b5050505050905090565b606080610bb883611807565b91509150915091565b6000610bcc82611948565b506000828152600960205260409020546001600160a01b0316610b14565b610bf5828233611981565b5050565b7f00000000000000000000000000000000000000000000000000000000000000006001600160a01b03163314610c49576040516391ac5e4f60e01b81523360048201526024015b60405180910390fd5b60208701803590610c6390610c5e908a61359c565b61198e565b14610ca157610c75602088018861359c565b60405163309afaf360e21b815263ffffffff909116600482015260208801356024820152604401610c40565b610cb0878787878787876119ca565b50505050505050565b6001600160a01b038216610ce357604051633250574960e11b815260006004820152602401610c40565b6000610cf0838333611b29565b9050836001600160a01b0316816001600160a01b031614610d3e576040516364283d7b60e01b81526001600160a01b0380861660048301526024820184905282166044820152606401610c40565b50505050565b610d4c611c22565b610bf58282611c4f565b610d5e612ce6565b6001610d6d604086018661378d565b90501115610da25760405162461bcd60e51b8152602060048201526002602482015261333360f11b6044820152606401610c40565b610de2610db2604086018661378d565b6000818110610dc357610dc36137d6565b90506020020135856000016020810190610ddd919061359c565b611ca4565b600080610dee86611807565b9092509050610e1a610e03602088018861359c565b8383610e14368a90038a018a6137ec565b88611cd6565b805190935033907f0401f30341613e4bbcac4afa8218a2bd3f1c5d9a870a1e104d77081f4e72b3d6610e4f60208a018a61359c565b610e5c60408b018b61378d565b604051610e6b9392919061381e565b60405180910390a350509392505050565b610bf58282611de1565b610ea183838360405180602001604052806000815250611203565b505050565b610ea1838383611e46565b600360209081526000928352604080842090915290825290208054610ed590613759565b80601f0160208091040260200160405190810160405280929190818152602001828054610f0190613759565b8015610f4e5780601f10610f2357610100808354040283529160200191610f4e565b820191906000526020600020905b815481529060010190602001808311610f3157829003601f168201915b505050505081565b606080610bb883611e50565b6000610b1482611948565b60408051808201909152600080825260208201526001610f90604085018561378d565b90501115610fc55760405162461bcd60e51b8152602060048201526002602482015261333360f11b6044820152606401610c40565b600080610fd185611807565b9092509050610fee610fe6602087018761359c565b838387611ee3565b95945050505050565b610fff612ce6565b6110146040850135610ddd602087018761359c565b6110296060850135610ddd602087018761359c565b60008061103586611e50565b909250905061104a610e03602088018861359c565b805190935033907f986156872b2ee0022b9585231dbbfde457f87f8a16b6c45e1a81c54c4ad8351f61107f60208a018a61359c565b6040805163ffffffff9092168252808b0135602083015201610e6b565b6110a4611c22565b600480546001600160a01b0319166001600160a01b0383169081179091556040519081527ff0be4f1e87349231d80c36b33f9e8639658eeaf474014dee15a3e6a4d4414197906020015b60405180910390a150565b606080610bb883611fbb565b60006001600160a01b038216611131576040516322718ad960e21b815260006004820152602401610c40565b506001600160a01b031660009081526008602052604090205490565b611155611c22565b61115f6000612014565b565b611169612ce6565b61117e6040850135610ddd602087018761359c565b6111936060850135610ddd602087018761359c565b6111a86080850135610ddd602087018761359c565b60008061103586612064565b6001600160a01b03811630145b949350505050565b606060068054610b2990613759565b610bf53383836120fc565b6040805180820190915260008082526020820152600080610fd185611fbb565b61120e848484610cb9565b610d3e8484848461219b565b611222611c22565b610bf561122f8284613865565b6122bd565b63ffffffff8416600090815260036020908152604080832061ffff8716845290915281208054606092919061126890613759565b80601f016020809104026020016040519081016040528092919081815260200182805461129490613759565b80156112e15780601f106112b6576101008083540402835291602001916112e1565b820191906000526020600020905b8154815290600101906020018083116112c457829003601f168201915b5050505050905080516000036113315783838080601f0160208091040260200160405190810160405280939291908181526020018383808284376000920191909152509294506111c19350505050565b60008390036113415790506111c1565b600283106113bf5761138884848080601f0160208091040260200160405190810160405280939291908181526020018383808284376000920191909152506123c492505050565b80611396846002818861393a565b6040516020016113a893929190613964565b6040516020818303038152906040529150506111c1565b8383604051639a6d49cd60e01b8152600401610c409291906139b5565b60005b818110156114e557368383838181106113fa576113fa6137d6565b905060200281019061140c91906139c9565b905061143f61141e602083018361359c565b602083013563ffffffff919091166000908152600160205260409020541490565b61144957506114dd565b3063d045a0dc60c08301358360a08101356114686101008301836139ea565b611479610100890160e08a01613229565b6114876101208a018a6139ea565b6040518963ffffffff1660e01b81526004016114a99796959493929190613a45565b6000604051808303818588803b1580156114c257600080fd5b505af11580156114d6573d6000803e3d6000fd5b5050505050505b6001016113df565b50336001600160a01b0316638e9e70996040518163ffffffff1660e01b8152600401600060405180830381865afa158015611524573d6000803e3d6000fd5b505050506040513d6000823e601f3d908101601f1916820160405261154c9190810190613acb565b604051638351eea760e01b8152600401610c409190612db0565b606061157182611948565b50600061158960408051602081019091526000815290565b905060008151116115a957604051806020016040528060008152506115d4565b806115b3846123f0565b6040516020016115c4929190613b38565b6040516020818303038152906040525b9392505050565b6115e3611c22565b60405163ca5eb5e160e01b81526001600160a01b0382811660048301527f0000000000000000000000000000000000000000000000000000000000000000169063ca5eb5e190602401600060405180830381600087803b15801561164657600080fd5b505af115801561165a573d6000803e3d6000fd5b5050505050565b3330146116815760405163029a949d60e31b815260040160405180910390fd5b610cb087878787878787610ca1565b611698611c22565b600280546001600160a01b0319166001600160a01b0383169081179091556040519081527fd48d879cef83a1c0bdda516f27b13ddb1b3f8bbac1c9e1511bb2a659c2427760906020016110ee565b6040805180820190915260008082526020820152600080610fd185612064565b606080610bb883612064565b610bf58282611ca4565b6001600160a01b039182166000908152600a6020908152604080832093909416825291909152205460ff1690565b611752612ce6565b6117676040850135610ddd602087018761359c565b60008061103586611fbb565b61177b611c22565b6001600160a01b0381166117a557604051631e4fbdf760e01b815260006004820152602401610c40565b6117ae81612014565b50565b6040805180820190915260008082526020820152600080610fd185611e50565b60006020820180359060019083906117e9908661359c565b63ffffffff1681526020810191909152604001600020541492915050565b60608060006118836020850135611821604087018761378d565b6000818110611832576118326137d6565b9050602002013586806080019061184991906139ea565b8080601f01602080910402602001604051908101604052809392919081815260200183838082843760009201919091525061248292505050565b9093509050600081611896576001611899565b60025b90506118b96118ab602087018761359c565b8261094a60608901896139ea565b6004549093506001600160a01b031615611941576004805460405163043a78eb60e01b81526001600160a01b039091169163043a78eb916118fe918891889101612e0f565b602060405180830381865afa15801561191b573d6000803e3d6000fd5b505050506040513d601f19601f8201168201806040525081019061193f9190613b67565b505b5050915091565b6000818152600760205260408120546001600160a01b031680610b1457604051637e27328960e01b815260048101849052602401610c40565b610ea183838360016124e6565b63ffffffff811660009081526001602052604081205480610b145760405163f6ff4fb760e01b815263ffffffff84166004820152602401610c40565b60006119dc6119d987876125ec565b90565b905060006119ea8787612604565b9050611a0382826119fe60208d018d61359c565b611e46565b6040861115611ac7576000611a3d611a2160608c0160408d01613b84565b611a2e60208d018d61359c565b611a388b8b612621565b61266c565b604051633e5ac80960e11b81529091506001600160a01b037f00000000000000000000000000000000000000000000000000000000000000001690637cb5901290611a939086908d906000908790600401613ba1565b600060405180830381600087803b158015611aad57600080fd5b505af1158015611ac1573d6000803e3d6000fd5b50505050505b6001600160a01b038216887f7883fa30ea56937810e36990b0bbb8d629d0cf59f68baf8431ff657cebe7eef5611b0060208d018d61359c565b6040805163ffffffff9092168252602082018690520160405180910390a3505050505050505050565b6000828152600760205260408120546001600160a01b0390811690831615611b5657611b5681848661269b565b6001600160a01b03811615611b9457611b736000856000806124e6565b6001600160a01b038116600090815260086020526040902080546000190190555b6001600160a01b03851615611bc3576001600160a01b0385166000908152600860205260409020805460010190555b60008481526007602052604080822080546001600160a01b0319166001600160a01b0389811691821790925591518793918516917fddf252ad1be2c89b69c2b068fc378daa952ba7f163c4a11628f55a4df523b3ef91a4949350505050565b6000546001600160a01b0316331461115f5760405163118cdaa760e01b8152336004820152602401610c40565b63ffffffff8216600081815260016020908152604091829020849055815192835282018390527f238399d427b947898edb290f5ff0f9109849b1c3ba196a42e35f00c50a54b98b910160405180910390a15050565b611cae33836126ff565b611ccd57604051634ddd35b760e01b8152336004820152602401610c40565b610bf58261275d565b611cde612ce6565b6000611ced8460000151612798565b602085015190915015611d0757611d0784602001516127c0565b7f00000000000000000000000000000000000000000000000000000000000000006001600160a01b0316632637a450826040518060a001604052808b63ffffffff168152602001611d578c61198e565b81526020018a815260200189815260200160008960200151111515815250866040518463ffffffff1660e01b8152600401611d93929190613bd2565b60806040518083038185885af1158015611db1573d6000803e3d6000fd5b50505050506040513d601f19601f82011682018060405250810190611dd69190613c7b565b979650505050505050565b6001600160a01b038216611e0b57604051633250574960e11b815260006004820152602401610c40565b6000611e1983836000611b29565b90506001600160a01b03811615610ea1576040516339e3563760e11b815260006004820152602401610c40565b610ea18383611de1565b6060806000611ead6020850135604086013586850135611e7360a08901896139ea565b8080601f0160208091040260200160405190810160405280939291908181526020018383808284376000920191909152506128a292505050565b9093509050600081611ec0576001611ec3565b60025b90506118b9611ed5602087018761359c565b8261094a60808901896139ea565b60408051808201909152600080825260208201527f00000000000000000000000000000000000000000000000000000000000000006001600160a01b031663ddc28c586040518060a001604052808863ffffffff168152602001611f468961198e565b8152602001878152602001868152602001851515815250306040518363ffffffff1660e01b8152600401611f7b929190613bd2565b6040805180830381865afa158015611f97573d6000803e3d6000fd5b505050506040513d601f19601f82011682018060405250810190610fee9190613cc5565b606080600061188360208501356040860135611fda60808801886139ea565b8080601f01602080910402602001604051908101604052809392919081815260200183838082843760009201919091525061291f92505050565b600080546001600160a01b038381166001600160a01b0319831681178455604051919092169283917f8be0079c531659141344cd1fd0a4f28419497f9722a3daafe3b4186f6b6457e09190a35050565b60608060006120c66020850135604086013586850135608088013561208c60c08a018a6139ea565b8080601f01602080910402602001604051908101604052809392919081815260200183838082843760009201919091525061296992505050565b90935090506000816120d95760016120dc565b60025b90506118b96120ee602087018761359c565b8261094a60a08901896139ea565b6001600160a01b03821661212e57604051630b61174360e31b81526001600160a01b0383166004820152602401610c40565b6001600160a01b038381166000818152600a6020908152604080832094871680845294825291829020805460ff191686151590811790915591519182527f17307eab39ab6107e8899845ad3d59bd9653f200f220920489ca2b5937696c31910160405180910390a3505050565b6001600160a01b0383163b15610d3e57604051630a85bd0160e11b81526001600160a01b0384169063150b7a02906121dd903390889087908790600401613ce1565b6020604051808303816000875af1925050508015612218575060408051601f3d908101601f1916820190925261221591810190613d14565b60015b612281573d808015612246576040519150601f19603f3d011682016040523d82523d6000602084013e61224b565b606091505b50805160000361227957604051633250574960e11b81526001600160a01b0385166004820152602401610c40565b805181602001fd5b6001600160e01b03198116630a85bd0160e11b1461165a57604051633250574960e11b81526001600160a01b0385166004820152602401610c40565b60005b8151811015612394576122ef8282815181106122de576122de6137d6565b6020026020010151604001516123c4565b818181518110612301576123016137d6565b60200260200101516040015160036000848481518110612323576123236137d6565b60200260200101516000015163ffffffff1663ffffffff168152602001908152602001600020600084848151811061235d5761235d6137d6565b60200260200101516020015161ffff1661ffff168152602001908152602001600020908161238b9190613d81565b506001016122c0565b507fbe4864a8e820971c0247f5992e2da559595f7bf076a21cb5928d443d2a13b674816040516110ee9190613e40565b600281015161ffff8116600314610bf55781604051639a6d49cd60e01b8152600401610c409190612db0565b606060006123fd836129f0565b60010190506000816001600160401b0381111561241c5761241c61339f565b6040519080825280601f01601f191660200182016040528015612446576020820181803683370190505b5090508181016020015b600019016f181899199a1a9b1b9c1cb0b131b232b360811b600a86061a8153600a850494508461245057509392505050565b80516060901515806124b75760408051602081018790529081018590526060015b6040516020818303038152906040526124dc565b8484846040516020016124cc93929190613ecb565b6040516020818303038152906040525b9150935093915050565b80806124fa57506001600160a01b03821615155b156125bc57600061250a84611948565b90506001600160a01b038316158015906125365750826001600160a01b0316816001600160a01b031614155b80156125495750612547818461171c565b155b156125725760405163a9fbf51f60e01b81526001600160a01b0384166004820152602401610c40565b81156125ba5783856001600160a01b0316826001600160a01b03167f8c5be1e5ebec7d5bd14f71427d1e84f3dd0314c0f7b2291e5b200ac8c7c3b92560405160405180910390a45b505b5050600090815260096020526040902080546001600160a01b0319166001600160a01b0392909216919091179055565b60006125fb602082848661393a565b6115d491613ef8565b600061261460406020848661393a565b8101906115d49190612e34565b6060612630826040818661393a565b8080601f016020809104026020016040519081016040528093929190818152602001838380828437600092019190915250929695505050505050565b606083838360405160200161268393929190613f16565b60405160208183030381529060405290509392505050565b6126a6838383612ac8565b610ea1576001600160a01b0383166126d457604051637e27328960e01b815260048101829052602401610c40565b60405163177e802f60e01b81526001600160a01b038316600482015260248101829052604401610c40565b60008061270b83610f62565b9050806001600160a01b0316846001600160a01b031614806127325750612732818561171c565b806111c15750836001600160a01b031661274b84610bc1565b6001600160a01b031614949350505050565b600061276c6000836000611b29565b90506001600160a01b038116610bf557604051637e27328960e01b815260048101839052602401610c40565b60008134146127bc576040516304fb820960e51b8152346004820152602401610c40565b5090565b60007f00000000000000000000000000000000000000000000000000000000000000006001600160a01b031663e4fe1d946040518163ffffffff1660e01b8152600401602060405180830381865afa158015612820573d6000803e3d6000fd5b505050506040513d601f19601f820116820180604052508101906128449190613f60565b90506001600160a01b03811661286d576040516329b99a9560e11b815260040160405180910390fd5b610bf56001600160a01b038216337f000000000000000000000000000000000000000000000000000000000000000085612b2b565b80516060901515806128ea576040805160208101889052600160f11b918101919091526042810186905260628101859052608201604051602081830303815290604052612914565b856002868686604051602001612904959493929190613f7d565b6040516020818303038152906040525b915094509492505050565b8051606090151580612951576040805160208101879052600160f01b91810191909152604281018590526062016124a3565b84600185856040516020016124cc9493929190613fc2565b80516060901515806129b8576040805160208101899052600360f01b9181019190915260428101879052606281018690526082810185905260a2016040516020818303038152906040526129e4565b866003878787876040516020016129d496959493929190614000565b6040516020818303038152906040525b91509550959350505050565b60008072184f03e93ff9f4daa797ed6e38ed64bf6a1f0160401b8310612a2f5772184f03e93ff9f4daa797ed6e38ed64bf6a1f0160401b830492506040015b6d04ee2d6d415b85acef81000000008310612a5b576d04ee2d6d415b85acef8100000000830492506020015b662386f26fc100008310612a7957662386f26fc10000830492506010015b6305f5e1008310612a91576305f5e100830492506008015b6127108310612aa557612710830492506004015b60648310612ab7576064830492506002015b600a8310610b145760010192915050565b60006001600160a01b038316158015906111c15750826001600160a01b0316846001600160a01b03161480612b025750612b02848461171c565b806111c15750506000908152600960205260409020546001600160a01b03908116911614919050565b604080516001600160a01b038581166024830152848116604483015260648083018590528351808403909101815260849092019092526020810180516001600160e01b03166323b872dd60e01b179052610d3e91869190600090612b9190841683612bdf565b90508051600014158015612bb6575080806020019051810190612bb49190613b67565b155b15610ea157604051635274afe760e01b81526001600160a01b0384166004820152602401610c40565b60606115d48383600084600080856001600160a01b03168486604051612c05919061404c565b60006040518083038185875af1925050503d8060008114612c42576040519150601f19603f3d011682016040523d82523d6000602084013e612c47565b606091505b5091509150612c57868383612c61565b9695505050505050565b606082612c7657612c7182612cbd565b6115d4565b8151158015612c8d57506001600160a01b0384163b155b15612cb657604051639996b31560e01b81526001600160a01b0385166004820152602401610c40565b50806115d4565b805115612ccd5780518082602001fd5b604051630a12f52160e11b815260040160405180910390fd5b60405180606001604052806000801916815260200160006001600160401b03168152602001612d28604051806040016040528060008152602001600081525090565b905290565b6001600160e01b0319811681146117ae57600080fd5b600060208284031215612d5557600080fd5b81356115d481612d2d565b60005b83811015612d7b578181015183820152602001612d63565b50506000910152565b60008151808452612d9c816020860160208601612d60565b601f01601f19169290920160200192915050565b6020815260006115d46020830184612d84565b600060a08284031215612dd557600080fd5b50919050565b600060208284031215612ded57600080fd5b81356001600160401b03811115612e0357600080fd5b6111c184828501612dc3565b604081526000612e226040830185612d84565b8281036020840152610fee8185612d84565b600060208284031215612e4657600080fd5b5035919050565b6001600160a01b03811681146117ae57600080fd5b60008060408385031215612e7557600080fd5b8235612e8081612e4d565b946020939093013593505050565b600060608284031215612dd557600080fd5b60008083601f840112612eb257600080fd5b5081356001600160401b03811115612ec957600080fd5b602083019150836020828501011115612ee157600080fd5b9250929050565b600080600080600080600060e0888a031215612f0357600080fd5b612f0d8989612e8e565b96506060880135955060808801356001600160401b0380821115612f3057600080fd5b612f3c8b838c01612ea0565b909750955060a08a01359150612f5182612e4d565b90935060c08901359080821115612f6757600080fd5b50612f748a828b01612ea0565b989b979a50959850939692959293505050565b600080600060608486031215612f9c57600080fd5b8335612fa781612e4d565b92506020840135612fb781612e4d565b929592945050506040919091013590565b803563ffffffff81168114612fdc57600080fd5b919050565b60008060408385031215612ff457600080fd5b612e8083612fc8565b600060408284031215612dd557600080fd5b60008060006080848603121561302457600080fd5b83356001600160401b0381111561303a57600080fd5b61304686828701612dc3565b9350506130568560208601612ffd565b9150606084013561306681612e4d565b809150509250925092565b6000608082019050825182526001600160401b03602084015116602083015260408301516130ac604084018280518252602090810151910152565b5092915050565b6000806000606084860312156130c857600080fd5b83356130d381612e4d565b9250602084013591506130e860408501612fc8565b90509250925092565b803561ffff81168114612fdc57600080fd5b6000806040838503121561311657600080fd5b61311f83612fc8565b915061312d602084016130f1565b90509250929050565b600060e08284031215612dd557600080fd5b60006020828403121561315a57600080fd5b81356001600160401b0381111561317057600080fd5b6111c184828501613136565b80151581146117ae57600080fd5b6000806040838503121561319d57600080fd5b82356001600160401b038111156131b357600080fd5b6131bf85828601612dc3565b92505060208301356131d08161317c565b809150509250929050565b815181526020808301519082015260408101610b14565b60008060006080848603121561320757600080fd5b83356001600160401b0381111561321d57600080fd5b61304686828701613136565b60006020828403121561323b57600080fd5b81356115d481612e4d565b600060c08284031215612dd557600080fd5b60006020828403121561326a57600080fd5b81356001600160401b0381111561328057600080fd5b6111c184828501613246565b60006101008284031215612dd557600080fd5b6000806000608084860312156132b457600080fd5b83356001600160401b038111156132ca57600080fd5b6130468682870161328c565b60008060008060a085870312156132ec57600080fd5b6132f68686612e8e565b935060608501356001600160401b0381111561331157600080fd5b61331d87828801612ea0565b909450925050608085013561333181612e4d565b939692955090935050565b6000806040838503121561334f57600080fd5b823561335a81612e4d565b915060208301356131d08161317c565b6000806040838503121561337d57600080fd5b82356001600160401b0381111561339357600080fd5b6131bf85828601613246565b634e487b7160e01b600052604160045260246000fd5b604080519081016001600160401b03811182821017156133d7576133d761339f565b60405290565b604051606081016001600160401b03811182821017156133d7576133d761339f565b604051601f8201601f191681016001600160401b03811182821017156134275761342761339f565b604052919050565b60006001600160401b038211156134485761344861339f565b50601f01601f191660200190565b600082601f83011261346757600080fd5b813561347a6134758261342f565b6133ff565b81815284602083860101111561348f57600080fd5b816020850160208301376000918101602001919091529392505050565b600080600080608085870312156134c257600080fd5b84356134cd81612e4d565b935060208501356134dd81612e4d565b92506040850135915060608501356001600160401b038111156134ff57600080fd5b61350b87828801613456565b91505092959194509250565b60008083601f84011261352957600080fd5b5081356001600160401b0381111561354057600080fd5b6020830191508360208260051b8501011115612ee157600080fd5b6000806020838503121561356e57600080fd5b82356001600160401b0381111561358457600080fd5b61359085828601613517565b90969095509350505050565b6000602082840312156135ae57600080fd5b6115d482612fc8565b600080600080606085870312156135cd57600080fd5b6135d685612fc8565b93506135e4602086016130f1565b925060408501356001600160401b038111156135ff57600080fd5b61360b87828801612ea0565b95989497509550505050565b6000806040838503121561362a57600080fd5b82356001600160401b0381111561364057600080fd5b6131bf8582860161328c565b60006020828403121561365e57600080fd5b81356001600160401b0381111561367457600080fd5b6111c18482850161328c565b6000806040838503121561369357600080fd5b8235915061312d60208401612fc8565b600080604083850312156136b657600080fd5b82356136c181612e4d565b915060208301356131d081612e4d565b6000806000608084860312156136e657600080fd5b83356001600160401b038111156136fc57600080fd5b61304686828701613246565b6000806040838503121561371b57600080fd5b82356001600160401b0381111561373157600080fd5b6131bf85828601613136565b60006060828403121561374f57600080fd5b6115d48383612e8e565b600181811c9082168061376d57607f821691505b602082108103612dd557634e487b7160e01b600052602260045260246000fd5b6000808335601e198436030181126137a457600080fd5b8301803591506001600160401b038211156137be57600080fd5b6020019150600581901b3603821315612ee157600080fd5b634e487b7160e01b600052603260045260246000fd5b6000604082840312156137fe57600080fd5b6138066133b5565b82358152602083013560208201528091505092915050565b63ffffffff84168152604060208201819052810182905260006001600160fb1b0383111561384b57600080fd5b8260051b8085606085013791909101606001949350505050565b60006001600160401b038084111561387f5761387f61339f565b8360051b60206138908183016133ff565b8681529185019181810190368411156138a857600080fd5b865b8481101561392e578035868111156138c25760008081fd5b880160603682900312156138d65760008081fd5b6138de6133dd565b6138e782612fc8565b81526138f48683016130f1565b868201526040808301358981111561390c5760008081fd5b61391836828601613456565b91830191909152508452509183019183016138aa565b50979650505050505050565b6000808585111561394a57600080fd5b8386111561395757600080fd5b5050820193919092039150565b60008451613976818460208901612d60565b8201838582376000930192835250909392505050565b81835281816020850137506000828201602090810191909152601f909101601f19169091010190565b6020815260006111c160208301848661398c565b6000823561013e198336030181126139e057600080fd5b9190910192915050565b6000808335601e19843603018112613a0157600080fd5b8301803591506001600160401b03821115613a1b57600080fd5b602001915036819003821315612ee157600080fd5b6001600160401b03811681146117ae57600080fd5b63ffffffff613a5389612fc8565b1681526020880135602082015260006040890135613a7081613a30565b6001600160401b03811660408401525087606083015260e06080830152613a9b60e08301878961398c565b6001600160a01b03861660a084015282810360c0840152613abd81858761398c565b9a9950505050505050505050565b600060208284031215613add57600080fd5b81516001600160401b03811115613af357600080fd5b8201601f81018413613b0457600080fd5b8051613b126134758261342f565b818152856020838501011115613b2757600080fd5b610fee826020830160208601612d60565b60008351613b4a818460208801612d60565b835190830190613b5e818360208801612d60565b01949350505050565b600060208284031215613b7957600080fd5b81516115d48161317c565b600060208284031215613b9657600080fd5b81356115d481613a30565b60018060a01b038516815283602082015261ffff83166040820152608060608201526000612c576080830184612d84565b6040815263ffffffff8351166040820152602083015160608201526000604084015160a06080840152613c0860e0840182612d84565b90506060850151603f198483030160a0850152613c258282612d84565b60809690960151151560c08501525050506001600160a01b039190911660209091015290565b600060408284031215613c5d57600080fd5b613c656133b5565b9050815181526020820151602082015292915050565b600060808284031215613c8d57600080fd5b613c956133dd565b825181526020830151613ca781613a30565b6020820152613cb98460408501613c4b565b60408201529392505050565b600060408284031215613cd757600080fd5b6115d48383613c4b565b6001600160a01b0385811682528416602082015260408101839052608060608201819052600090612c5790830184612d84565b600060208284031215613d2657600080fd5b81516115d481612d2d565b601f821115610ea1576000816000526020600020601f850160051c81016020861015613d5a5750805b601f850160051c820191505b81811015613d7957828155600101613d66565b505050505050565b81516001600160401b03811115613d9a57613d9a61339f565b613dae81613da88454613759565b84613d31565b602080601f831160018114613de35760008415613dcb5750858301515b600019600386901b1c1916600185901b178555613d79565b600085815260208120601f198616915b82811015613e1257888601518255948401946001909101908401613df3565b5085821015613e305787850151600019600388901b60f8161c191681555b5050505050600190811b01905550565b600060208083018184528085518083526040925060408601915060408160051b87010184880160005b83811015613ebd57888303603f190185528151805163ffffffff1684528781015161ffff16888501528601516060878501819052613ea981860183612d84565b968901969450505090860190600101613e69565b509098975050505050505050565b83815282602082015260008251613ee9816040850160208701612d60565b91909101604001949350505050565b80356020831015610b1457600019602084900360031b1b1692915050565b60c084901b6001600160c01b031916815260e083901b6001600160e01b03191660088201528151600090613f5181600c850160208701612d60565b91909101600c01949350505050565b600060208284031215613f7257600080fd5b81516115d481612e4d565b85815261ffff60f01b8560f01b16602082015283602282015282604282015260008251613fb1816062850160208701612d60565b919091016062019695505050505050565b84815261ffff60f01b8460f01b16602082015282602282015260008251613ff0816042850160208701612d60565b9190910160420195945050505050565b86815261ffff60f01b8660f01b1660208201528460228201528360428201528260628201526000825161403a816082850160208701612d60565b91909101608201979650505050505050565b600082516139e0818460208701612d6056fea26469706673582212200d98a717bd620b80c629aae76b68375039f9186994454a121170e240e1f7097964736f6c63430008160033",
    "linkReferences": {}
  },
  "methodIdentifiers": {
    "SEND()": "1f5e1334",
    "SEND_AND_CALL()": "134d4f25",
    "allowInitializePath((uint32,bytes32,uint64))": "ff7bd03d",
    "approvalRequired()": "9f68b964",
    "approve(address,uint256)": "095ea7b3",
    "balanceOf(address)": "70a08231",
    "buildMsgAndOptions((uint32,bytes32,uint256,bytes,bytes,bytes))": "7048de9a",
    "buildMsgAndOptions((uint32,bytes32,uint256,uint256,bytes,bytes,bytes))": "630814d2",
    "buildMsgAndOptions((uint32,bytes32,uint256,uint256,uint256,bytes,bytes,bytes))": "d90726dd",
    "buildMsgAndOptions((uint32,bytes32,uint256[],bytes,bytes))": "07fa3a97",
    "combineOptions(uint32,uint16,bytes)": "bc70b354",
    "credit(address,uint256,uint32)": "4dba701b",
    "debit(uint256,uint32)": "dcdfd911",
    "endpoint()": "5e280f11",
    "enforcedOptions(uint32,uint16)": "5535d461",
    "exists(uint256)": "4f558e79",
    "getApproved(uint256)": "081812fc",
    "isApprovedForAll(address,address)": "e985e9c5",
    "isComposeMsgSender((uint32,bytes32,uint64),bytes,address)": "82413eac",
    "isPeer(uint32,bytes32)": "5a0dfe4d",
    "lzReceive((uint32,bytes32,uint64),bytes32,bytes,address,bytes)": "13137d65",
    "lzReceiveAndRevert(((uint32,bytes32,uint64),uint32,address,bytes32,uint256,address,bytes,bytes)[])": "bd815db0",
    "lzReceiveSimulate((uint32,bytes32,uint64),bytes32,bytes,address,bytes)": "d045a0dc",
    "mint(address,uint256)": "40c10f19",
    "msgInspector()": "111ecdad",
    "name()": "06fdde03",
    "nextNonce(uint32,bytes32)": "7d25a05e",
    "oApp()": "52ae2879",
    "oAppVersion()": "17442b70",
    "onftVersion()": "a72f5dd8",
    "owner()": "8da5cb5b",
    "ownerOf(uint256)": "6352211e",
    "peers(uint32)": "bb0b6a53",
    "preCrime()": "b731ea0a",
    "quoteSend((uint32,bytes32,uint256[],bytes,bytes),bool)": "67d121c7",
    "quoteSendDouble((uint32,bytes32,uint256,uint256,bytes,bytes,bytes),bool)": "f8239c67",
    "quoteSendSingle((uint32,bytes32,uint256,bytes,bytes,bytes),bool)": "b1d99b3a",
    "quoteSendTriple((uint32,bytes32,uint256,uint256,uint256,bytes,bytes,bytes),bool)": "d6699ee0",
    "renounceOwnership()": "715018a6",
    "safeTransferFrom(address,address,uint256)": "42842e0e",
    "safeTransferFrom(address,address,uint256,bytes)": "b88d4fde",
    "send((uint32,bytes32,uint256[],bytes,bytes),(uint256,uint256),address)": "37feb339",
    "sendDouble((uint32,bytes32,uint256,uint256,bytes,bytes,bytes),(uint256,uint256),address)": "6ef77277",
    "sendSingle((uint32,bytes32,uint256,bytes,bytes,bytes),(uint256,uint256),address)": "f154a64a",
    "sendTriple((uint32,bytes32,uint256,uint256,uint256,bytes,bytes,bytes),(uint256,uint256),address)": "7aa87cb6",
    "setApprovalForAll(address,bool)": "a22cb465",
    "setDelegate(address)": "ca5eb5e1",
    "setEnforcedOptions((uint32,uint16,bytes)[])": "b98bd070",
    "setMsgInspector(address)": "6fc1b31e",
    "setPeer(uint32,bytes32)": "3400288b",
    "setPreCrime(address)": "d4243885",
    "supportsInterface(bytes4)": "01ffc9a7",
    "symbol()": "95d89b41",
    "token()": "fc0c546a",
    "tokenURI(uint256)": "c87b56dd",
    "transferFrom(address,address,uint256)": "23b872dd",
    "transferOwnership(address)": "f2fde38b"
  },
  "id": 133
}