{
  "abi": [
    {
      "type": "constructor",
      "inputs": [
        {
          "name": "_token",
          "type": "address",
          "internalType": "address"
        },
        {
          "name": "_lzEndpoint",
          "type": "address",
          "internalType": "address"
        },
        {
          "name": "_delegate",
          "type": "address",
          "internalType": "address"
        }
      ],
      "stateMutability": "nonpayable"
    },
    {
      "type": "function",
      "name": "SEND",
      "inputs": [],
      "outputs": [
        {
          "name": "",
          "type": "uint16",
          "internalType": "uint16"
        }
      ],
      "stateMutability": "view"
    },
    {
      "type": "function",
      "name": "SEND_AND_CALL",
      "inputs": [],
      "outputs": [
        {
          "name": "",
          "type": "uint16",
          "internalType": "uint16"
        }
      ],
      "stateMutability": "view"
    },
    {
      "type": "function",
      "name": "allowInitializePath",
      "inputs": [
        {
          "name": "origin",
          "type": "tuple",
          "internalType": "struct Origin",
          "components": [
            {
              "name": "srcEid",
              "type": "uint32",
              "internalType": "uint32"
            },
            {
              "name": "sender",
              "type": "bytes32",
              "internalType": "bytes32"
            },
            {
              "name": "nonce",
              "type": "uint64",
              "internalType": "uint64"
            }
          ]
        }
      ],
      "outputs": [
        {
          "name": "",
          "type": "bool",
          "internalType": "bool"
        }
      ],
      "stateMutability": "view"
    },
    {
      "type": "function",
      "name": "approvalRequired",
      "inputs": [],
      "outputs": [
        {
          "name": "",
          "type": "bool",
          "internalType": "bool"
        }
      ],
      "stateMutability": "pure"
    },
    {
      "type": "function",
      "name": "combineOptions",
      "inputs": [
        {
          "name": "_eid",
          "type": "uint32",
          "internalType": "uint32"
        },
        {
          "name": "_msgType",
          "type": "uint16",
          "internalType": "uint16"
        },
        {
          "name": "_extraOptions",
          "type": "bytes",
          "internalType": "bytes"
        }
      ],
      "outputs": [
        {
          "name": "",
          "type": "bytes",
          "internalType": "bytes"
        }
      ],
      "stateMutability": "view"
    },
    {
      "type": "function",
      "name": "credit",
      "inputs": [
        {
          "name": "_to",
          "type": "address",
          "internalType": "address"
        },
        {
          "name": "_tokenId",
          "type": "uint256",
          "internalType": "uint256"
        },
        {
          "name": "_srcEid",
          "type": "uint32",
          "internalType": "uint32"
        }
      ],
      "outputs": [],
      "stateMutability": "nonpayable"
    },
    {
      "type": "function",
      "name": "debit",
      "inputs": [
        {
          "name": "_tokenId",
          "type": "uint256",
          "internalType": "uint256"
        },
        {
          "name": "_dstEid",
          "type": "uint32",
          "internalType": "uint32"
        }
      ],
      "outputs": [],
      "stateMutability": "nonpayable"
    },
    {
      "type": "function",
      "name": "endpoint",
      "inputs": [],
      "outputs": [
        {
          "name": "",
          "type": "address",
          "internalType": "contract ILayerZeroEndpointV2"
        }
      ],
      "stateMutability": "view"
    },
    {
      "type": "function",
      "name": "enforcedOptions",
      "inputs": [
        {
          "name": "eid",
          "type": "uint32",
          "internalType": "uint32"
        },
        {
          "name": "msgType",
          "type": "uint16",
          "internalType": "uint16"
        }
      ],
      "outputs": [
        {
          "name": "enforcedOption",
          "type": "bytes",
          "internalType": "bytes"
        }
      ],
      "stateMutability": "view"
    },
    {
      "type": "function",
      "name": "isComposeMsgSender",
      "inputs": [
        {
          "name": "",
          "type": "tuple",
          "internalType": "struct Origin",
          "components": [
            {
              "name": "srcEid",
              "type": "uint32",
              "internalType": "uint32"
            },
            {
              "name": "sender",
              "type": "bytes32",
              "internalType": "bytes32"
            },
            {
              "name": "nonce",
              "type": "uint64",
              "internalType": "uint64"
            }
          ]
        },
        {
          "name": "",
          "type": "bytes",
          "internalType": "bytes"
        },
        {
          "name": "_sender",
          "type": "address",
          "internalType": "address"
        }
      ],
      "outputs": [
        {
          "name": "",
          "type": "bool",
          "internalType": "bool"
        }
      ],
      "stateMutability": "view"
    },
    {
      "type": "function",
      "name": "isPeer",
      "inputs": [
        {
          "name": "_eid",
          "type": "uint32",
          "internalType": "uint32"
        },
        {
          "name": "_peer",
          "type": "bytes32",
          "internalType": "bytes32"
        }
      ],
      "outputs": [
        {
          "name": "",
          "type": "bool",
          "internalType": "bool"
        }
      ],
      "stateMutability": "view"
    },
    {
      "type": "function",
      "name": "lzReceive",
      "inputs": [
        {
          "name": "_origin",
          "type": "tuple",
          "internalType": "struct Origin",
          "components": [
            {
              "name": "srcEid",
              "type": "uint32",
              "internalType": "uint32"
            },
            {
              "name": "sender",
              "type": "bytes32",
              "internalType": "bytes32"
            },
            {
              "name": "nonce",
              "type": "uint64",
              "internalType": "uint64"
            }
          ]
        },
        {
          "name": "_guid",
          "type": "bytes32",
          "internalType": "bytes32"
        },
        {
          "name": "_message",
          "type": "bytes",
          "internalType": "bytes"
        },
        {
          "name": "_executor",
          "type": "address",
          "internalType": "address"
        },
        {
          "name": "_extraData",
          "type": "bytes",
          "internalType": "bytes"
        }
      ],
      "outputs": [],
      "stateMutability": "payable"
    },
    {
      "type": "function",
      "name": "lzReceiveAndRevert",
      "inputs": [
        {
          "name": "_packets",
          "type": "tuple[]",
          "internalType": "struct InboundPacket[]",
          "components": [
            {
              "name": "origin",
              "type": "tuple",
              "internalType": "struct Origin",
              "components": [
                {
                  "name": "srcEid",
                  "type": "uint32",
                  "internalType": "uint32"
                },
                {
                  "name": "sender",
                  "type": "bytes32",
                  "internalType": "bytes32"
                },
                {
                  "name": "nonce",
                  "type": "uint64",
                  "internalType": "uint64"
                }
              ]
            },
            {
              "name": "dstEid",
              "type": "uint32",
              "internalType": "uint32"
            },
            {
              "name": "receiver",
              "type": "address",
              "internalType": "address"
            },
            {
              "name": "guid",
              "type": "bytes32",
              "internalType": "bytes32"
            },
            {
              "name": "value",
              "type": "uint256",
              "internalType": "uint256"
            },
            {
              "name": "executor",
              "type": "address",
              "internalType": "address"
            },
            {
              "name": "message",
              "type": "bytes",
              "internalType": "bytes"
            },
            {
              "name": "extraData",
              "type": "bytes",
              "internalType": "bytes"
            }
          ]
        }
      ],
      "outputs": [],
      "stateMutability": "payable"
    },
    {
      "type": "function",
      "name": "lzReceiveSimulate",
      "inputs": [
        {
          "name": "_origin",
          "type": "tuple",
          "internalType": "struct Origin",
          "components": [
            {
              "name": "srcEid",
              "type": "uint32",
              "internalType": "uint32"
            },
            {
              "name": "sender",
              "type": "bytes32",
              "internalType": "bytes32"
            },
            {
              "name": "nonce",
              "type": "uint64",
              "internalType": "uint64"
            }
          ]
        },
        {
          "name": "_guid",
          "type": "bytes32",
          "internalType": "bytes32"
        },
        {
          "name": "_message",
          "type": "bytes",
          "internalType": "bytes"
        },
        {
          "name": "_executor",
          "type": "address",
          "internalType": "address"
        },
        {
          "name": "_extraData",
          "type": "bytes",
          "internalType": "bytes"
        }
      ],
      "outputs": [],
      "stateMutability": "payable"
    },
    {
      "type": "function",
      "name": "msgInspector",
      "inputs": [],
      "outputs": [
        {
          "name": "",
          "type": "address",
          "internalType": "address"
        }
      ],
      "stateMutability": "view"
    },
    {
      "type": "function",
      "name": "nextNonce",
      "inputs": [
        {
          "name": "",
          "type": "uint32",
          "internalType": "uint32"
        },
        {
          "name": "",
          "type": "bytes32",
          "internalType": "bytes32"
        }
      ],
      "outputs": [
        {
          "name": "nonce",
          "type": "uint64",
          "internalType": "uint64"
        }
      ],
      "stateMutability": "view"
    },
    {
      "type": "function",
      "name": "oApp",
      "inputs": [],
      "outputs": [
        {
          "name": "",
          "type": "address",
          "internalType": "address"
        }
      ],
      "stateMutability": "view"
    },
    {
      "type": "function",
      "name": "oAppVersion",
      "inputs": [],
      "outputs": [
        {
          "name": "senderVersion",
          "type": "uint64",
          "internalType": "uint64"
        },
        {
          "name": "receiverVersion",
          "type": "uint64",
          "internalType": "uint64"
        }
      ],
      "stateMutability": "pure"
    },
    {
      "type": "function",
      "name": "onERC721Received",
      "inputs": [
        {
          "name": "_operator",
          "type": "address",
          "internalType": "address"
        },
        {
          "name": "",
          "type": "address",
          "internalType": "address"
        },
        {
          "name": "",
          "type": "uint256",
          "internalType": "uint256"
        },
        {
          "name": "",
          "type": "bytes",
          "internalType": "bytes"
        }
      ],
      "outputs": [
        {
          "name": "",
          "type": "bytes4",
          "internalType": "bytes4"
        }
      ],
      "stateMutability": "nonpayable"
    },
    {
      "type": "function",
      "name": "onftVersion",
      "inputs": [],
      "outputs": [
        {
          "name": "interfaceId",
          "type": "bytes4",
          "internalType": "bytes4"
        },
        {
          "name": "version",
          "type": "uint64",
          "internalType": "uint64"
        }
      ],
      "stateMutability": "pure"
    },
    {
      "type": "function",
      "name": "owner",
      "inputs": [],
      "outputs": [
        {
          "name": "",
          "type": "address",
          "internalType": "address"
        }
      ],
      "stateMutability": "view"
    },
    {
      "type": "function",
      "name": "peers",
      "inputs": [
        {
          "name": "eid",
          "type": "uint32",
          "internalType": "uint32"
        }
      ],
      "outputs": [
        {
          "name": "peer",
          "type": "bytes32",
          "internalType": "bytes32"
        }
      ],
      "stateMutability": "view"
    },
    {
      "type": "function",
      "name": "preCrime",
      "inputs": [],
      "outputs": [
        {
          "name": "",
          "type": "address",
          "internalType": "address"
        }
      ],
      "stateMutability": "view"
    },
    {
      "type": "function",
      "name": "quoteSend",
      "inputs": [
        {
          "name": "_sendParam",
          "type": "tuple",
          "internalType": "struct SendParam",
          "components": [
            {
              "name": "dstEid",
              "type": "uint32",
              "internalType": "uint32"
            },
            {
              "name": "to",
              "type": "bytes32",
              "internalType": "bytes32"
            },
            {
              "name": "tokenIds",
              "type": "uint256[]",
              "internalType": "uint256[]"
            },
            {
              "name": "extraOptions",
              "type": "bytes",
              "internalType": "bytes"
            },
            {
              "name": "composeMsg",
              "type": "bytes",
              "internalType": "bytes"
            }
          ]
        },
        {
          "name": "_payInLzToken",
          "type": "bool",
          "internalType": "bool"
        }
      ],
      "outputs": [
        {
          "name": "msgFee",
          "type": "tuple",
          "internalType": "struct MessagingFee",
          "components": [
            {
              "name": "nativeFee",
              "type": "uint256",
              "internalType": "uint256"
            },
            {
              "name": "lzTokenFee",
              "type": "uint256",
              "internalType": "uint256"
            }
          ]
        }
      ],
      "stateMutability": "view"
    },
    {
      "type": "function",
      "name": "renounceOwnership",
      "inputs": [],
      "outputs": [],
      "stateMutability": "nonpayable"
    },
    {
      "type": "function",
      "name": "send",
      "inputs": [
        {
          "name": "_sendParam",
          "type": "tuple",
          "internalType": "struct SendParam",
          "components": [
            {
              "name": "dstEid",
              "type": "uint32",
              "internalType": "uint32"
            },
            {
              "name": "to",
              "type": "bytes32",
              "internalType": "bytes32"
            },
            {
              "name": "tokenIds",
              "type": "uint256[]",
              "internalType": "uint256[]"
            },
            {
              "name": "extraOptions",
              "type": "bytes",
              "internalType": "bytes"
            },
            {
              "name": "composeMsg",
              "type": "bytes",
              "internalType": "bytes"
            }
          ]
        },
        {
          "name": "_fee",
          "type": "tuple",
          "internalType": "struct MessagingFee",
          "components": [
            {
              "name": "nativeFee",
              "type": "uint256",
              "internalType": "uint256"
            },
            {
              "name": "lzTokenFee",
              "type": "uint256",
              "internalType": "uint256"
            }
          ]
        },
        {
          "name": "_refundAddress",
          "type": "address",
          "internalType": "address"
        }
      ],
      "outputs": [
        {
          "name": "msgReceipt",
          "type": "tuple",
          "internalType": "struct MessagingReceipt",
          "components": [
            {
              "name": "guid",
              "type": "bytes32",
              "internalType": "bytes32"
            },
            {
              "name": "nonce",
              "type": "uint64",
              "internalType": "uint64"
            },
            {
              "name": "fee",
              "type": "tuple",
              "internalType": "struct MessagingFee",
              "components": [
                {
                  "name": "nativeFee",
                  "type": "uint256",
                  "internalType": "uint256"
                },
                {
                  "name": "lzTokenFee",
                  "type": "uint256",
                  "internalType": "uint256"
                }
              ]
            }
          ]
        }
      ],
      "stateMutability": "payable"
    },
    {
      "type": "function",
      "name": "setDelegate",
      "inputs": [
        {
          "name": "_delegate",
          "type": "address",
          "internalType": "address"
        }
      ],
      "outputs": [],
      "stateMutability": "nonpayable"
    },
    {
      "type": "function",
      "name": "setEnforcedOptions",
      "inputs": [
        {
          "name": "_enforcedOptions",
          "type": "tuple[]",
          "internalType": "struct EnforcedOptionParam[]",
          "components": [
            {
              "name": "eid",
              "type": "uint32",
              "internalType": "uint32"
            },
            {
              "name": "msgType",
              "type": "uint16",
              "internalType": "uint16"
            },
            {
              "name": "options",
              "type": "bytes",
              "internalType": "bytes"
            }
          ]
        }
      ],
      "outputs": [],
      "stateMutability": "nonpayable"
    },
    {
      "type": "function",
      "name": "setMsgInspector",
      "inputs": [
        {
          "name": "_msgInspector",
          "type": "address",
          "internalType": "address"
        }
      ],
      "outputs": [],
      "stateMutability": "nonpayable"
    },
    {
      "type": "function",
      "name": "setPeer",
      "inputs": [
        {
          "name": "_eid",
          "type": "uint32",
          "internalType": "uint32"
        },
        {
          "name": "_peer",
          "type": "bytes32",
          "internalType": "bytes32"
        }
      ],
      "outputs": [],
      "stateMutability": "nonpayable"
    },
    {
      "type": "function",
      "name": "setPreCrime",
      "inputs": [
        {
          "name": "_preCrime",
          "type": "address",
          "internalType": "address"
        }
      ],
      "outputs": [],
      "stateMutability": "nonpayable"
    },
    {
      "type": "function",
      "name": "toSingletonArray",
      "inputs": [
        {
          "name": "element",
          "type": "uint256",
          "internalType": "uint256"
        }
      ],
      "outputs": [
        {
          "name": "array",
          "type": "uint256[]",
          "internalType": "uint256[]"
        }
      ],
      "stateMutability": "pure"
    },
    {
      "type": "function",
      "name": "token",
      "inputs": [],
      "outputs": [
        {
          "name": "",
          "type": "address",
          "internalType": "address"
        }
      ],
      "stateMutability": "view"
    },
    {
      "type": "function",
      "name": "transferOwnership",
      "inputs": [
        {
          "name": "newOwner",
          "type": "address",
          "internalType": "address"
        }
      ],
      "outputs": [],
      "stateMutability": "nonpayable"
    },
    {
      "type": "event",
      "name": "EnforcedOptionSet",
      "inputs": [
        {
          "name": "_enforcedOptions",
          "type": "tuple[]",
          "indexed": false,
          "internalType": "struct EnforcedOptionParam[]",
          "components": [
            {
              "name": "eid",
              "type": "uint32",
              "internalType": "uint32"
            },
            {
              "name": "msgType",
              "type": "uint16",
              "internalType": "uint16"
            },
            {
              "name": "options",
              "type": "bytes",
              "internalType": "bytes"
            }
          ]
        }
      ],
      "anonymous": false
    },
    {
      "type": "event",
      "name": "MsgInspectorSet",
      "inputs": [
        {
          "name": "inspector",
          "type": "address",
          "indexed": false,
          "internalType": "address"
        }
      ],
      "anonymous": false
    },
    {
      "type": "event",
      "name": "ONFTReceived",
      "inputs": [
        {
          "name": "guid",
          "type": "bytes32",
          "indexed": true,
          "internalType": "bytes32"
        },
        {
          "name": "srcEid",
          "type": "uint32",
          "indexed": false,
          "internalType": "uint32"
        },
        {
          "name": "toAddress",
          "type": "address",
          "indexed": true,
          "internalType": "address"
        },
        {
          "name": "tokenId",
          "type": "uint256[]",
          "indexed": false,
          "internalType": "uint256[]"
        }
      ],
      "anonymous": false
    },
    {
      "type": "event",
      "name": "ONFTSent",
      "inputs": [
        {
          "name": "guid",
          "type": "bytes32",
          "indexed": true,
          "internalType": "bytes32"
        },
        {
          "name": "dstEid",
          "type": "uint32",
          "indexed": false,
          "internalType": "uint32"
        },
        {
          "name": "fromAddress",
          "type": "address",
          "indexed": true,
          "internalType": "address"
        },
        {
          "name": "tokenIds",
          "type": "uint256[]",
          "indexed": false,
          "internalType": "uint256[]"
        }
      ],
      "anonymous": false
    },
    {
      "type": "event",
      "name": "OwnershipTransferred",
      "inputs": [
        {
          "name": "previousOwner",
          "type": "address",
          "indexed": true,
          "internalType": "address"
        },
        {
          "name": "newOwner",
          "type": "address",
          "indexed": true,
          "internalType": "address"
        }
      ],
      "anonymous": false
    },
    {
      "type": "event",
      "name": "PeerSet",
      "inputs": [
        {
          "name": "eid",
          "type": "uint32",
          "indexed": false,
          "internalType": "uint32"
        },
        {
          "name": "peer",
          "type": "bytes32",
          "indexed": false,
          "internalType": "bytes32"
        }
      ],
      "anonymous": false
    },
    {
      "type": "event",
      "name": "PreCrimeSet",
      "inputs": [
        {
          "name": "preCrimeAddress",
          "type": "address",
          "indexed": false,
          "internalType": "address"
        }
      ],
      "anonymous": false
    },
    {
      "type": "error",
      "name": "AddressEmptyCode",
      "inputs": [
        {
          "name": "target",
          "type": "address",
          "internalType": "address"
        }
      ]
    },
    {
      "type": "error",
      "name": "AddressInsufficientBalance",
      "inputs": [
        {
          "name": "account",
          "type": "address",
          "internalType": "address"
        }
      ]
    },
    {
      "type": "error",
      "name": "FailedInnerCall",
      "inputs": []
    },
    {
      "type": "error",
      "name": "InvalidDelegate",
      "inputs": []
    },
    {
      "type": "error",
      "name": "InvalidEndpointCall",
      "inputs": []
    },
    {
      "type": "error",
      "name": "InvalidOptions",
      "inputs": [
        {
          "name": "options",
          "type": "bytes",
          "internalType": "bytes"
        }
      ]
    },
    {
      "type": "error",
      "name": "LzTokenUnavailable",
      "inputs": []
    },
    {
      "type": "error",
      "name": "NoPeer",
      "inputs": [
        {
          "name": "eid",
          "type": "uint32",
          "internalType": "uint32"
        }
      ]
    },
    {
      "type": "error",
      "name": "NotEnoughNative",
      "inputs": [
        {
          "name": "msgValue",
          "type": "uint256",
          "internalType": "uint256"
        }
      ]
    },
    {
      "type": "error",
      "name": "OnlyEndpoint",
      "inputs": [
        {
          "name": "addr",
          "type": "address",
          "internalType": "address"
        }
      ]
    },
    {
      "type": "error",
      "name": "OnlyPeer",
      "inputs": [
        {
          "name": "eid",
          "type": "uint32",
          "internalType": "uint32"
        },
        {
          "name": "sender",
          "type": "bytes32",
          "internalType": "bytes32"
        }
      ]
    },
    {
      "type": "error",
      "name": "OnlySelf",
      "inputs": []
    },
    {
      "type": "error",
      "name": "OwnableInvalidOwner",
      "inputs": [
        {
          "name": "owner",
          "type": "address",
          "internalType": "address"
        }
      ]
    },
    {
      "type": "error",
      "name": "OwnableUnauthorizedAccount",
      "inputs": [
        {
          "name": "account",
          "type": "address",
          "internalType": "address"
        }
      ]
    },
    {
      "type": "error",
      "name": "SafeERC20FailedOperation",
      "inputs": [
        {
          "name": "token",
          "type": "address",
          "internalType": "address"
        }
      ]
    },
    {
      "type": "error",
      "name": "SimulationResult",
      "inputs": [
        {
          "name": "result",
          "type": "bytes",
          "internalType": "bytes"
        }
      ]
    },
    {
      "type": "error",
      "name": "UnapprovedSender",
      "inputs": [
        {
          "name": "caller",
          "type": "address",
          "internalType": "address"
        }
      ]
    }
  ],
  "bytecode": {
    "object": "0x60c06040523480156200001157600080fd5b5060405162002d5638038062002d56833981016040819052620000349162000195565b828282818181818181806001600160a01b0381166200006d57604051631e4fbdf760e01b81526000600482015260240160405180910390fd5b620000788162000128565b506001600160a01b038083166080528116620000a757604051632d618d8160e21b815260040160405180910390fd5b60805160405163ca5eb5e160e01b81526001600160a01b0383811660048301529091169063ca5eb5e190602401600060405180830381600087803b158015620000ef57600080fd5b505af115801562000104573d6000803e3d6000fd5b5050506001600160a01b0390991660a05250620001df9a5050505050505050505050565b600080546001600160a01b038381166001600160a01b0319831681178455604051919092169283917f8be0079c531659141344cd1fd0a4f28419497f9722a3daafe3b4186f6b6457e09190a35050565b80516001600160a01b03811681146200019057600080fd5b919050565b600080600060608486031215620001ab57600080fd5b620001b68462000178565b9250620001c66020850162000178565b9150620001d66040850162000178565b90509250925092565b60805160a051612b12620002446000396000818161068f0152818161120d01526114ed0152600081816103ca015281816106d501528181610e2401528181611096015281816113e90152818161155b015281816118e7015261199e0152612b126000f3fe6080604052600436106101f95760003560e01c806382413eac1161010d578063bd815db0116100a0578063d9f260391161006f578063d9f2603914610613578063dcdfd91114610640578063f2fde38b14610660578063fc0c546a14610680578063ff7bd03d146106b357600080fd5b8063bd815db0146105ad578063ca5eb5e1146105c0578063d045a0dc146105e0578063d4243885146105f357600080fd5b8063b731ea0a116100dc578063b731ea0a14610512578063b98bd07014610532578063bb0b6a5314610552578063bc70b3541461058d57600080fd5b806382413eac146104895780638da5cb5b146104b85780639f68b964146104d6578063a72f5dd8146104ea57600080fd5b80634dba701b116101905780635e280f111161015f5780635e280f11146103b857806367d121c7146103ec5780636fc1b31e14610419578063715018a6146104395780637d25a05e1461044e57600080fd5b80634dba701b1461032857806352ae2879146103485780635535d4611461035b5780635a0dfe4d1461038857600080fd5b806317442b70116101cc57806317442b70146102b15780631f5e1334146102d35780633400288b146102e857806337feb3391461030857600080fd5b8063111ecdad146101fe57806313137d651461023b578063134d4f2514610250578063150b7a0214610278575b600080fd5b34801561020a57600080fd5b5060045461021e906001600160a01b031681565b6040516001600160a01b0390911681526020015b60405180910390f35b61024e610249366004611c41565b6106d3565b005b34801561025c57600080fd5b50610265600281565b60405161ffff9091168152602001610232565b34801561028457600080fd5b50610298610293366004611ded565b610793565b6040516001600160e01b03199091168152602001610232565b3480156102bd57600080fd5b5060408051600181526002602082015201610232565b3480156102df57600080fd5b50610265600181565b3480156102f457600080fd5b5061024e610303366004611e71565b6107bf565b61031b610316366004611ead565b6107d5565b6040516102329190611f1a565b34801561033457600080fd5b5061024e610343366004611f5c565b6108fa565b34801561035457600080fd5b503061021e565b34801561036757600080fd5b5061037b610376366004611fac565b61090a565b604051610232919061202f565b34801561039457600080fd5b506103a86103a3366004611e71565b6109af565b6040519015158152602001610232565b3480156103c457600080fd5b5061021e7f000000000000000000000000000000000000000000000000000000000000000081565b3480156103f857600080fd5b5061040c610407366004612050565b6109ce565b60405161023291906120a1565b34801561042557600080fd5b5061024e6104343660046120b8565b610a57565b34801561044557600080fd5b5061024e610ab4565b34801561045a57600080fd5b50610471610469366004611e71565b600092915050565b6040516001600160401b039091168152602001610232565b34801561049557600080fd5b506103a86104a43660046120d5565b6001600160a01b0381163014949350505050565b3480156104c457600080fd5b506000546001600160a01b031661021e565b3480156104e257600080fd5b5060016103a8565b3480156104f657600080fd5b506040805163128c844560e31b81526001602082015201610232565b34801561051e57600080fd5b5060025461021e906001600160a01b031681565b34801561053e57600080fd5b5061024e61054d36600461217f565b610ac8565b34801561055e57600080fd5b5061057f61056d3660046121c0565b60016020526000908152604090205481565b604051908152602001610232565b34801561059957600080fd5b5061037b6105a83660046121db565b610ae2565b61024e6105bb36600461217f565b610c8a565b3480156105cc57600080fd5b5061024e6105db3660046120b8565b610dfd565b61024e6105ee366004611c41565b610e83565b3480156105ff57600080fd5b5061024e61060e3660046120b8565b610eb2565b34801561061f57600080fd5b5061063361062e36600461223b565b610f08565b6040516102329190612290565b34801561064c57600080fd5b5061024e61065b3660046122a3565b610f4f565b34801561066c57600080fd5b5061024e61067b3660046120b8565b610f59565b34801561068c57600080fd5b507f000000000000000000000000000000000000000000000000000000000000000061021e565b3480156106bf57600080fd5b506103a86106ce3660046122c6565b610f97565b7f00000000000000000000000000000000000000000000000000000000000000006001600160a01b03163314610723576040516391ac5e4f60e01b81523360048201526024015b60405180910390fd5b6020870180359061073d90610738908a6121c0565b610fcd565b1461077b5761074f60208801886121c0565b60405163309afaf360e21b815263ffffffff90911660048201526020880135602482015260440161071a565b61078a87878787878787611009565b50505050505050565b60006001600160a01b03851630146107ad575060006107b7565b50630a85bd0160e11b5b949350505050565b6107c7611169565b6107d18282611196565b5050565b6107dd611b85565b6107ea60408501856122e2565b90506001146108205760405162461bcd60e51b8152602060048201526002602482015261333360f11b604482015260640161071a565b61086061083060408601866122e2565b60008181106108415761084161232b565b9050602002013585600001602081019061085b91906121c0565b6111eb565b60008061086c86611275565b909250905061089861088160208801886121c0565b8383610892368a90038a018a612341565b886113b6565b805190935033907f0401f30341613e4bbcac4afa8218a2bd3f1c5d9a870a1e104d77081f4e72b3d66108cd60208a018a6121c0565b6108da60408b018b6122e2565b6040516108e993929190612373565b60405180910390a350509392505050565b6109058383836114c1565b505050565b60036020908152600092835260408084209091529082529020805461092e906123ba565b80601f016020809104026020016040519081016040528092919081815260200182805461095a906123ba565b80156109a75780601f1061097c576101008083540402835291602001916109a7565b820191906000526020600020905b81548152906001019060200180831161098a57829003601f168201915b505050505081565b63ffffffff821660009081526001602052604090205481145b92915050565b60408051808201909152600080825260208201526109ef60408401846122e2565b9050600114610a255760405162461bcd60e51b8152602060048201526002602482015261333360f11b604482015260640161071a565b600080610a3185611275565b9092509050610a4e610a4660208701876121c0565b838387611545565b95945050505050565b610a5f611169565b600480546001600160a01b0319166001600160a01b0383169081179091556040519081527ff0be4f1e87349231d80c36b33f9e8639658eeaf474014dee15a3e6a4d4414197906020015b60405180910390a150565b610abc611169565b610ac6600061161d565b565b610ad0611169565b6107d1610add82846123ee565b61166d565b63ffffffff8416600090815260036020908152604080832061ffff87168452909152812080546060929190610b16906123ba565b80601f0160208091040260200160405190810160405280929190818152602001828054610b42906123ba565b8015610b8f5780601f10610b6457610100808354040283529160200191610b8f565b820191906000526020600020905b815481529060010190602001808311610b7257829003601f168201915b505050505090508051600003610bdf5783838080601f0160208091040260200160405190810160405280939291908181526020018383808284376000920191909152509294506107b79350505050565b6000839003610bef5790506107b7565b60028310610c6d57610c3684848080601f01602080910402602001604051908101604052809392919081815260200183838082843760009201919091525061177492505050565b80610c4484600281886124c3565b604051602001610c56939291906124ed565b6040516020818303038152906040529150506107b7565b8383604051639a6d49cd60e01b815260040161071a92919061253e565b60005b81811015610d7c5736838383818110610ca857610ca861232b565b9050602002810190610cba9190612552565b9050610cd6610ccc60208301836121c0565b60208301356109af565b610ce05750610d74565b3063d045a0dc60c08301358360a0810135610cff610100830183612573565b610d10610100890160e08a016120b8565b610d1e6101208a018a612573565b6040518963ffffffff1660e01b8152600401610d4097969594939291906125ce565b6000604051808303818588803b158015610d5957600080fd5b505af1158015610d6d573d6000803e3d6000fd5b5050505050505b600101610c8d565b50336001600160a01b0316638e9e70996040518163ffffffff1660e01b8152600401600060405180830381865afa158015610dbb573d6000803e3d6000fd5b505050506040513d6000823e601f3d908101601f19168201604052610de39190810190612654565b604051638351eea760e01b815260040161071a919061202f565b610e05611169565b60405163ca5eb5e160e01b81526001600160a01b0382811660048301527f0000000000000000000000000000000000000000000000000000000000000000169063ca5eb5e190602401600060405180830381600087803b158015610e6857600080fd5b505af1158015610e7c573d6000803e3d6000fd5b5050505050565b333014610ea35760405163029a949d60e31b815260040160405180910390fd5b61078a8787878787878761077b565b610eba611169565b600280546001600160a01b0319166001600160a01b0383169081179091556040519081527fd48d879cef83a1c0bdda516f27b13ddb1b3f8bbac1c9e1511bb2a659c242776090602001610aa9565b604080516001808252818301909252606091602080830190803683370190505090508181600081518110610f3e57610f3e61232b565b602002602001018181525050919050565b6107d182826111eb565b610f61611169565b6001600160a01b038116610f8b57604051631e4fbdf760e01b81526000600482015260240161071a565b610f948161161d565b50565b6000602082018035906001908390610faf90866121c0565b63ffffffff1681526020810191909152604001600020541492915050565b63ffffffff8116600090815260016020526040812054806109c85760405163f6ff4fb760e01b815263ffffffff8416600482015260240161071a565b600061101b61101887876117a0565b90565b9050600061102987876117bf565b9050611042828261103d60208d018d6121c0565b6114c1565b604086111561110657600061107c61106060608c0160408d016126c1565b61106d60208d018d6121c0565b6110778b8b6117dc565b611827565b604051633e5ac80960e11b81529091506001600160a01b037f00000000000000000000000000000000000000000000000000000000000000001690637cb59012906110d29086908d9060009087906004016126de565b600060405180830381600087803b1580156110ec57600080fd5b505af1158015611100573d6000803e3d6000fd5b50505050505b6001600160a01b038216887fec8eda5e5445175573c1a93ea9795ecbf8a5a885d113294b585f3f51092bc4ab61113f60208d018d6121c0565b61114885610f08565b60405161115692919061270f565b60405180910390a3505050505050505050565b6000546001600160a01b03163314610ac65760405163118cdaa760e01b815233600482015260240161071a565b63ffffffff8216600081815260016020908152604091829020849055815192835282018390527f238399d427b947898edb290f5ff0f9109849b1c3ba196a42e35f00c50a54b98b910160405180910390a15050565b604051632142170760e11b8152336004820152306024820152604481018390527f00000000000000000000000000000000000000000000000000000000000000006001600160a01b0316906342842e0e90606401600060405180830381600087803b15801561125957600080fd5b505af115801561126d573d6000803e3d6000fd5b505050505050565b60608060006112f1602085013561128f60408701876122e2565b60008181106112a0576112a061232b565b905060200201358680608001906112b79190612573565b8080601f01602080910402602001604051908101604052809392919081815260200183838082843760009201919091525061185692505050565b9093509050600081611304576001611307565b60025b905061132761131960208701876121c0565b826105a86060890189612573565b6004549093506001600160a01b0316156113af576004805460405163043a78eb60e01b81526001600160a01b039091169163043a78eb9161136c91889188910161272e565b602060405180830381865afa158015611389573d6000803e3d6000fd5b505050506040513d601f19601f820116820180604052508101906113ad9190612753565b505b5050915091565b6113be611b85565b60006113cd84600001516118bb565b6020850151909150156113e7576113e784602001516118e3565b7f00000000000000000000000000000000000000000000000000000000000000006001600160a01b0316632637a450826040518060a001604052808b63ffffffff1681526020016114378c610fcd565b81526020018a815260200189815260200160008960200151111515815250866040518463ffffffff1660e01b8152600401611473929190612770565b60806040518083038185885af1158015611491573d6000803e3d6000fd5b50505050506040513d601f19601f820116820180604052508101906114b69190612819565b979650505050505050565b604051632142170760e11b81523060048201526001600160a01b038481166024830152604482018490527f000000000000000000000000000000000000000000000000000000000000000016906342842e0e90606401600060405180830381600087803b15801561153157600080fd5b505af115801561078a573d6000803e3d6000fd5b60408051808201909152600080825260208201527f00000000000000000000000000000000000000000000000000000000000000006001600160a01b031663ddc28c586040518060a001604052808863ffffffff1681526020016115a889610fcd565b8152602001878152602001868152602001851515815250306040518363ffffffff1660e01b81526004016115dd929190612770565b6040805180830381865afa1580156115f9573d6000803e3d6000fd5b505050506040513d601f19601f82011682018060405250810190610a4e9190612863565b600080546001600160a01b038381166001600160a01b0319831681178455604051919092169283917f8be0079c531659141344cd1fd0a4f28419497f9722a3daafe3b4186f6b6457e09190a35050565b60005b81518110156117445761169f82828151811061168e5761168e61232b565b602002602001015160400151611774565b8181815181106116b1576116b161232b565b602002602001015160400151600360008484815181106116d3576116d361232b565b60200260200101516000015163ffffffff1663ffffffff168152602001908152602001600020600084848151811061170d5761170d61232b565b60200260200101516020015161ffff1661ffff168152602001908152602001600020908161173b91906128c7565b50600101611670565b507fbe4864a8e820971c0247f5992e2da559595f7bf076a21cb5928d443d2a13b67481604051610aa99190612986565b600281015161ffff81166003146107d15781604051639a6d49cd60e01b815260040161071a919061202f565b60006117af60208284866124c3565b6117b891612a11565b9392505050565b60006117cf6040602084866124c3565b8101906117b8919061223b565b60606117eb82604081866124c3565b8080601f016020809104026020016040519081016040528093929190818152602001838380828437600092019190915250929695505050505050565b606083838360405160200161183e93929190612a2f565b60405160208183030381529060405290509392505050565b805160609015158061188a5760408051602081018790529081018590526060016040516020818303038152906040526118b1565b848433856040516020016118a19493929190612a79565b6040516020818303038152906040525b9150935093915050565b60008134146118df576040516304fb820960e51b815234600482015260240161071a565b5090565b60007f00000000000000000000000000000000000000000000000000000000000000006001600160a01b031663e4fe1d946040518163ffffffff1660e01b8152600401602060405180830381865afa158015611943573d6000803e3d6000fd5b505050506040513d601f19601f820116820180604052508101906119679190612aad565b90506001600160a01b038116611990576040516329b99a9560e11b815260040160405180910390fd5b6040805133602482018190527f00000000000000000000000000000000000000000000000000000000000000006001600160a01b03818116604485015260648085018890528551808603909101815260849094019094526020830180516001600160e01b03166323b872dd60e01b1790526107d1938516928690611a15908590611a1b565b50505050565b6000611a306001600160a01b03841683611a7e565b90508051600014158015611a55575080806020019051810190611a539190612753565b155b1561090557604051635274afe760e01b81526001600160a01b038416600482015260240161071a565b60606117b88383600084600080856001600160a01b03168486604051611aa49190612aca565b60006040518083038185875af1925050503d8060008114611ae1576040519150601f19603f3d011682016040523d82523d6000602084013e611ae6565b606091505b5091509150611af6868383611b00565b9695505050505050565b606082611b1557611b1082611b5c565b6117b8565b8151158015611b2c57506001600160a01b0384163b155b15611b5557604051639996b31560e01b81526001600160a01b038516600482015260240161071a565b50806117b8565b805115611b6c5780518082602001fd5b604051630a12f52160e11b815260040160405180910390fd5b60405180606001604052806000801916815260200160006001600160401b03168152602001611bc7604051806040016040528060008152602001600081525090565b905290565b600060608284031215611bde57600080fd5b50919050565b60008083601f840112611bf657600080fd5b5081356001600160401b03811115611c0d57600080fd5b602083019150836020828501011115611c2557600080fd5b9250929050565b6001600160a01b0381168114610f9457600080fd5b600080600080600080600060e0888a031215611c5c57600080fd5b611c668989611bcc565b96506060880135955060808801356001600160401b0380821115611c8957600080fd5b611c958b838c01611be4565b909750955060a08a01359150611caa82611c2c565b90935060c08901359080821115611cc057600080fd5b50611ccd8a828b01611be4565b989b979a50959850939692959293505050565b634e487b7160e01b600052604160045260246000fd5b604080519081016001600160401b0381118282101715611d1857611d18611ce0565b60405290565b604051606081016001600160401b0381118282101715611d1857611d18611ce0565b604051601f8201601f191681016001600160401b0381118282101715611d6857611d68611ce0565b604052919050565b60006001600160401b03821115611d8957611d89611ce0565b50601f01601f191660200190565b600082601f830112611da857600080fd5b8135611dbb611db682611d70565b611d40565b818152846020838601011115611dd057600080fd5b816020850160208301376000918101602001919091529392505050565b60008060008060808587031215611e0357600080fd5b8435611e0e81611c2c565b93506020850135611e1e81611c2c565b92506040850135915060608501356001600160401b03811115611e4057600080fd5b611e4c87828801611d97565b91505092959194509250565b803563ffffffff81168114611e6c57600080fd5b919050565b60008060408385031215611e8457600080fd5b611e8d83611e58565b946020939093013593505050565b600060a08284031215611bde57600080fd5b60008060008385036080811215611ec357600080fd5b84356001600160401b03811115611ed957600080fd5b611ee587828801611e9b565b9450506040601f1982011215611efa57600080fd5b506020840191506060840135611f0f81611c2c565b809150509250925092565b6000608082019050825182526001600160401b0360208401511660208301526040830151611f55604084018280518252602090810151910152565b5092915050565b600080600060608486031215611f7157600080fd5b8335611f7c81611c2c565b925060208401359150611f9160408501611e58565b90509250925092565b803561ffff81168114611e6c57600080fd5b60008060408385031215611fbf57600080fd5b611fc883611e58565b9150611fd660208401611f9a565b90509250929050565b60005b83811015611ffa578181015183820152602001611fe2565b50506000910152565b6000815180845261201b816020860160208601611fdf565b601f01601f19169290920160200192915050565b6020815260006117b86020830184612003565b8015158114610f9457600080fd5b6000806040838503121561206357600080fd5b82356001600160401b0381111561207957600080fd5b61208585828601611e9b565b925050602083013561209681612042565b809150509250929050565b8151815260208083015190820152604081016109c8565b6000602082840312156120ca57600080fd5b81356117b881611c2c565b60008060008060a085870312156120eb57600080fd5b6120f58686611bcc565b935060608501356001600160401b0381111561211057600080fd5b61211c87828801611be4565b909450925050608085013561213081611c2c565b939692955090935050565b60008083601f84011261214d57600080fd5b5081356001600160401b0381111561216457600080fd5b6020830191508360208260051b8501011115611c2557600080fd5b6000806020838503121561219257600080fd5b82356001600160401b038111156121a857600080fd5b6121b48582860161213b565b90969095509350505050565b6000602082840312156121d257600080fd5b6117b882611e58565b600080600080606085870312156121f157600080fd5b6121fa85611e58565b935061220860208601611f9a565b925060408501356001600160401b0381111561222357600080fd5b61222f87828801611be4565b95989497509550505050565b60006020828403121561224d57600080fd5b5035919050565b60008151808452602080850194506020840160005b8381101561228557815187529582019590820190600101612269565b509495945050505050565b6020815260006117b86020830184612254565b600080604083850312156122b657600080fd5b82359150611fd660208401611e58565b6000606082840312156122d857600080fd5b6117b88383611bcc565b6000808335601e198436030181126122f957600080fd5b8301803591506001600160401b0382111561231357600080fd5b6020019150600581901b3603821315611c2557600080fd5b634e487b7160e01b600052603260045260246000fd5b60006040828403121561235357600080fd5b61235b611cf6565b82358152602083013560208201528091505092915050565b63ffffffff84168152604060208201819052810182905260006001600160fb1b038311156123a057600080fd5b8260051b8085606085013791909101606001949350505050565b600181811c908216806123ce57607f821691505b602082108103611bde57634e487b7160e01b600052602260045260246000fd5b60006001600160401b038084111561240857612408611ce0565b8360051b6020612419818301611d40565b86815291850191818101903684111561243157600080fd5b865b848110156124b75780358681111561244b5760008081fd5b8801606036829003121561245f5760008081fd5b612467611d1e565b61247082611e58565b815261247d868301611f9a565b86820152604080830135898111156124955760008081fd5b6124a136828601611d97565b9183019190915250845250918301918301612433565b50979650505050505050565b600080858511156124d357600080fd5b838611156124e057600080fd5b5050820193919092039150565b600084516124ff818460208901611fdf565b8201838582376000930192835250909392505050565b81835281816020850137506000828201602090810191909152601f909101601f19169091010190565b6020815260006107b7602083018486612515565b6000823561013e1983360301811261256957600080fd5b9190910192915050565b6000808335601e1984360301811261258a57600080fd5b8301803591506001600160401b038211156125a457600080fd5b602001915036819003821315611c2557600080fd5b6001600160401b0381168114610f9457600080fd5b63ffffffff6125dc89611e58565b16815260208801356020820152600060408901356125f9816125b9565b6001600160401b03811660408401525087606083015260e0608083015261262460e083018789612515565b6001600160a01b03861660a084015282810360c0840152612646818587612515565b9a9950505050505050505050565b60006020828403121561266657600080fd5b81516001600160401b0381111561267c57600080fd5b8201601f8101841361268d57600080fd5b805161269b611db682611d70565b8181528560208385010111156126b057600080fd5b610a4e826020830160208601611fdf565b6000602082840312156126d357600080fd5b81356117b8816125b9565b60018060a01b038516815283602082015261ffff83166040820152608060608201526000611af66080830184612003565b63ffffffff831681526040602082015260006107b76040830184612254565b6040815260006127416040830185612003565b8281036020840152610a4e8185612003565b60006020828403121561276557600080fd5b81516117b881612042565b6040815263ffffffff8351166040820152602083015160608201526000604084015160a060808401526127a660e0840182612003565b90506060850151603f198483030160a08501526127c38282612003565b60809690960151151560c08501525050506001600160a01b039190911660209091015290565b6000604082840312156127fb57600080fd5b612803611cf6565b9050815181526020820151602082015292915050565b60006080828403121561282b57600080fd5b612833611d1e565b825181526020830151612845816125b9565b602082015261285784604085016127e9565b60408201529392505050565b60006040828403121561287557600080fd5b6117b883836127e9565b601f821115610905576000816000526020600020601f850160051c810160208610156128a85750805b601f850160051c820191505b8181101561126d578281556001016128b4565b81516001600160401b038111156128e0576128e0611ce0565b6128f4816128ee84546123ba565b8461287f565b602080601f83116001811461292957600084156129115750858301515b600019600386901b1c1916600185901b17855561126d565b600085815260208120601f198616915b8281101561295857888601518255948401946001909101908401612939565b50858210156129765787850151600019600388901b60f8161c191681555b5050505050600190811b01905550565b600060208083018184528085518083526040925060408601915060408160051b87010184880160005b83811015612a0357888303603f190185528151805163ffffffff1684528781015161ffff168885015286015160608785018190526129ef81860183612003565b9689019694505050908601906001016129af565b509098975050505050505050565b803560208310156109c857600019602084900360031b1b1692915050565b60c084901b6001600160c01b031916815260e083901b6001600160e01b03191660088201528151600090612a6a81600c850160208701611fdf565b91909101600c01949350505050565b84815283602082015282604082015260008251612a9d816060850160208701611fdf565b9190910160600195945050505050565b600060208284031215612abf57600080fd5b81516117b881611c2c565b60008251612569818460208701611fdf56fea2646970667358221220f92c7e2400c35d62fceaa9bed87d4d8e7c492314ab153a44f0f3d0331fdd0fdc64736f6c63430008160033",
    "linkReferences": {}
  },
  "methodIdentifiers": {
    "SEND()": "1f5e1334",
    "SEND_AND_CALL()": "134d4f25",
    "allowInitializePath((uint32,bytes32,uint64))": "ff7bd03d",
    "approvalRequired()": "9f68b964",
    "combineOptions(uint32,uint16,bytes)": "bc70b354",
    "credit(address,uint256,uint32)": "4dba701b",
    "debit(uint256,uint32)": "dcdfd911",
    "endpoint()": "5e280f11",
    "enforcedOptions(uint32,uint16)": "5535d461",
    "isComposeMsgSender((uint32,bytes32,uint64),bytes,address)": "82413eac",
    "isPeer(uint32,bytes32)": "5a0dfe4d",
    "lzReceive((uint32,bytes32,uint64),bytes32,bytes,address,bytes)": "13137d65",
    "lzReceiveAndRevert(((uint32,bytes32,uint64),uint32,address,bytes32,uint256,address,bytes,bytes)[])": "bd815db0",
    "lzReceiveSimulate((uint32,bytes32,uint64),bytes32,bytes,address,bytes)": "d045a0dc",
    "msgInspector()": "111ecdad",
    "nextNonce(uint32,bytes32)": "7d25a05e",
    "oApp()": "52ae2879",
    "oAppVersion()": "17442b70",
    "onERC721Received(address,address,uint256,bytes)": "150b7a02",
    "onftVersion()": "a72f5dd8",
    "owner()": "8da5cb5b",
    "peers(uint32)": "bb0b6a53",
    "preCrime()": "b731ea0a",
    "quoteSend((uint32,bytes32,uint256[],bytes,bytes),bool)": "67d121c7",
    "renounceOwnership()": "715018a6",
    "send((uint32,bytes32,uint256[],bytes,bytes),(uint256,uint256),address)": "37feb339",
    "setDelegate(address)": "ca5eb5e1",
    "setEnforcedOptions((uint32,uint16,bytes)[])": "b98bd070",
    "setMsgInspector(address)": "6fc1b31e",
    "setPeer(uint32,bytes32)": "3400288b",
    "setPreCrime(address)": "d4243885",
    "toSingletonArray(uint256)": "d9f26039",
    "token()": "fc0c546a",
    "transferOwnership(address)": "f2fde38b"
  },
  "id": 132
}