{
  "abi": [
    {
      "type": "function",
      "name": "executor",
      "inputs": [],
      "outputs": [
        {
          "name": "",
          "type": "address",
          "internalType": "address"
        }
      ],
      "stateMutability": "view"
    },
    {
      "type": "function",
      "name": "extraData",
      "inputs": [],
      "outputs": [
        {
          "name": "",
          "type": "bytes",
          "internalType": "bytes"
        }
      ],
      "stateMutability": "view"
    },
    {
      "type": "function",
      "name": "from",
      "inputs": [],
      "outputs": [
        {
          "name": "",
          "type": "address",
          "internalType": "address"
        }
      ],
      "stateMutability": "view"
    },
    {
      "type": "function",
      "name": "guid",
      "inputs": [],
      "outputs": [
        {
          "name": "",
          "type": "bytes32",
          "internalType": "bytes32"
        }
      ],
      "stateMutability": "view"
    },
    {
      "type": "function",
      "name": "lzCompose",
      "inputs": [
        {
          "name": "_from",
          "type": "address",
          "internalType": "address"
        },
        {
          "name": "_guid",
          "type": "bytes32",
          "internalType": "bytes32"
        },
        {
          "name": "_message",
          "type": "bytes",
          "internalType": "bytes"
        },
        {
          "name": "_executor",
          "type": "address",
          "internalType": "address"
        },
        {
          "name": "",
          "type": "bytes",
          "internalType": "bytes"
        }
      ],
      "outputs": [],
      "stateMutability": "payable"
    },
    {
      "type": "function",
      "name": "message",
      "inputs": [],
      "outputs": [
        {
          "name": "",
          "type": "bytes",
          "internalType": "bytes"
        }
      ],
      "stateMutability": "view"
    }
  ],
  "bytecode": {
    "object": "0x608060405234801561001057600080fd5b50610641806100206000396000f3fe6080604052600436106100655760003560e01c8063d0a1026011610043578063d0a1026014610107578063d5ce33891461011c578063e21f37ce1461014957600080fd5b80630ae6d46b1461006a578063609d333414610093578063c34c08e5146100b5575b600080fd5b34801561007657600080fd5b5061008060015481565b6040519081526020015b60405180910390f35b34801561009f57600080fd5b506100a861015e565b60405161008a91906102a3565b3480156100c157600080fd5b506003546100e29073ffffffffffffffffffffffffffffffffffffffff1681565b60405173ffffffffffffffffffffffffffffffffffffffff909116815260200161008a565b61011a610115366004610381565b6101ec565b005b34801561012857600080fd5b506000546100e29073ffffffffffffffffffffffffffffffffffffffff1681565b34801561015557600080fd5b506100a8610296565b6004805461016b9061041f565b80601f01602080910402602001604051908101604052809291908181526020018280546101979061041f565b80156101e45780601f106101b9576101008083540402835291602001916101e4565b820191906000526020600020905b8154815290600101906020018083116101c757829003601f168201915b505050505081565b600080547fffffffffffffffffffffffff00000000000000000000000000000000000000001673ffffffffffffffffffffffffffffffffffffffff89161790556001869055600261023e8587836104f0565b50600380547fffffffffffffffffffffffff00000000000000000000000000000000000000001673ffffffffffffffffffffffffffffffffffffffff8516179055600461028c8587836104f0565b5050505050505050565b6002805461016b9061041f565b600060208083528351808285015260005b818110156102d0578581018301518582016040015282016102b4565b5060006040828601015260407fffffffffffffffffffffffffffffffffffffffffffffffffffffffffffffffe0601f8301168501019250505092915050565b803573ffffffffffffffffffffffffffffffffffffffff8116811461033357600080fd5b919050565b60008083601f84011261034a57600080fd5b50813567ffffffffffffffff81111561036257600080fd5b60208301915083602082850101111561037a57600080fd5b9250929050565b600080600080600080600060a0888a03121561039c57600080fd5b6103a58861030f565b965060208801359550604088013567ffffffffffffffff808211156103c957600080fd5b6103d58b838c01610338565b90975095508591506103e960608b0161030f565b945060808a01359150808211156103ff57600080fd5b5061040c8a828b01610338565b989b979a50959850939692959293505050565b600181811c9082168061043357607f821691505b60208210810361046c577f4e487b7100000000000000000000000000000000000000000000000000000000600052602260045260246000fd5b50919050565b7f4e487b7100000000000000000000000000000000000000000000000000000000600052604160045260246000fd5b601f8211156104eb57600081815260208120601f850160051c810160208610156104c85750805b601f850160051c820191505b818110156104e7578281556001016104d4565b5050505b505050565b67ffffffffffffffff83111561050857610508610472565b61051c83610516835461041f565b836104a1565b6000601f84116001811461056e57600085156105385750838201355b7fffffffffffffffffffffffffffffffffffffffffffffffffffffffffffffffff600387901b1c1916600186901b178355610604565b6000838152602090207fffffffffffffffffffffffffffffffffffffffffffffffffffffffffffffffe0861690835b828110156105bd578685013582556020948501946001909201910161059d565b50868210156105f8577fffffffffffffffffffffffffffffffffffffffffffffffffffffffffffffffff60f88860031b161c19848701351681555b505060018560011b0183555b505050505056fea26469706673582212205677098441a4fba4db8b4492080ff4bbda820b8acc3b9e2c68129da71365a11a64736f6c63430008140033",
    "linkReferences": {}
  },
  "methodIdentifiers": {
    "executor()": "c34c08e5",
    "extraData()": "609d3334",
    "from()": "d5ce3389",
    "guid()": "0ae6d46b",
    "lzCompose(address,bytes32,bytes,address,bytes)": "d0a10260",
    "message()": "e21f37ce"
  },
  "id": 137
}