{"abi":[{"type":"constructor","inputs":[{"name":"_eid","type":"uint32","internalType":"uint32"},{"name":"_owner","type":"address","internalType":"address"},{"name":"_altToken","type":"address","internalType":"address"}],"stateMutability":"nonpayable"},{"type":"function","name":"EMPTY_PAYLOAD_HASH","inputs":[],"outputs":[{"name":"","type":"bytes32","internalType":"bytes32"}],"stateMutability":"view"},{"type":"function","name":"NIL_PAYLOAD_HASH","inputs":[],"outputs":[{"name":"","type":"bytes32","internalType":"bytes32"}],"stateMutability":"view"},{"type":"function","name":"blockedLibrary","inputs":[],"outputs":[{"name":"","type":"address","internalType":"address"}],"stateMutability":"view"},{"type":"function","name":"burn","inputs":[{"name":"_oapp","type":"address","internalType":"address"},{"name":"_srcEid","type":"uint32","internalType":"uint32"},{"name":"_sender","type":"bytes32","internalType":"bytes32"},{"name":"_nonce","type":"uint64","internalType":"uint64"},{"name":"_payloadHash","type":"bytes32","internalType":"bytes32"}],"outputs":[],"stateMutability":"nonpayable"},{"type":"function","name":"clear","inputs":[{"name":"_oapp","type":"address","internalType":"address"},{"name":"_origin","type":"tuple","internalType":"struct Origin","components":[{"name":"srcEid","type":"uint32","internalType":"uint32"},{"name":"sender","type":"bytes32","internalType":"bytes32"},{"name":"nonce","type":"uint64","internalType":"uint64"}]},{"name":"_guid","type":"bytes32","internalType":"bytes32"},{"name":"_message","type":"bytes","internalType":"bytes"}],"outputs":[],"stateMutability":"nonpayable"},{"type":"function","name":"composeQueue","inputs":[{"name":"from","type":"address","internalType":"address"},{"name":"to","type":"address","internalType":"address"},{"name":"guid","type":"bytes32","internalType":"bytes32"},{"name":"index","type":"uint16","internalType":"uint16"}],"outputs":[{"name":"messageHash","type":"bytes32","internalType":"bytes32"}],"stateMutability":"view"},{"type":"function","name":"defaultReceiveLibrary","inputs":[{"name":"srcEid","type":"uint32","internalType":"uint32"}],"outputs":[{"name":"lib","type":"address","internalType":"address"}],"stateMutability":"view"},{"type":"function","name":"defaultReceiveLibraryTimeout","inputs":[{"name":"srcEid","type":"uint32","internalType":"uint32"}],"outputs":[{"name":"lib","type":"address","internalType":"address"},{"name":"expiry","type":"uint256","internalType":"uint256"}],"stateMutability":"view"},{"type":"function","name":"defaultSendLibrary","inputs":[{"name":"dstEid","type":"uint32","internalType":"uint32"}],"outputs":[{"name":"lib","type":"address","internalType":"address"}],"stateMutability":"view"},{"type":"function","name":"delegates","inputs":[{"name":"oapp","type":"address","internalType":"address"}],"outputs":[{"name":"delegate","type":"address","internalType":"address"}],"stateMutability":"view"},{"type":"function","name":"eid","inputs":[],"outputs":[{"name":"","type":"uint32","internalType":"uint32"}],"stateMutability":"view"},{"type":"function","name":"getConfig","inputs":[{"name":"_oapp","type":"address","internalType":"address"},{"name":"_lib","type":"address","internalType":"address"},{"name":"_eid","type":"uint32","internalType":"uint32"},{"name":"_configType","type":"uint32","internalType":"uint32"}],"outputs":[{"name":"config","type":"bytes","internalType":"bytes"}],"stateMutability":"view"},{"type":"function","name":"getReceiveLibrary","inputs":[{"name":"_receiver","type":"address","internalType":"address"},{"name":"_srcEid","type":"uint32","internalType":"uint32"}],"outputs":[{"name":"lib","type":"address","internalType":"address"},{"name":"isDefault","type":"bool","internalType":"bool"}],"stateMutability":"view"},{"type":"function","name":"getRegisteredLibraries","inputs":[],"outputs":[{"name":"","type":"address[]","internalType":"address[]"}],"stateMutability":"view"},{"type":"function","name":"getSendContext","inputs":[],"outputs":[{"name":"","type":"uint32","internalType":"uint32"},{"name":"","type":"address","internalType":"address"}],"stateMutability":"view"},{"type":"function","name":"getSendLibrary","inputs":[{"name":"_sender","type":"address","internalType":"address"},{"name":"_dstEid","type":"uint32","internalType":"uint32"}],"outputs":[{"name":"lib","type":"address","internalType":"address"}],"stateMutability":"view"},{"type":"function","name":"inboundNonce","inputs":[{"name":"_receiver","type":"address","internalType":"address"},{"name":"_srcEid","type":"uint32","internalType":"uint32"},{"name":"_sender","type":"bytes32","internalType":"bytes32"}],"outputs":[{"name":"","type":"uint64","internalType":"uint64"}],"stateMutability":"view"},{"type":"function","name":"inboundPayloadHash","inputs":[{"name":"receiver","type":"address","internalType":"address"},{"name":"srcEid","type":"uint32","internalType":"uint32"},{"name":"sender","type":"bytes32","internalType":"bytes32"},{"name":"inboundNonce","type":"uint64","internalType":"uint64"}],"outputs":[{"name":"payloadHash","type":"bytes32","internalType":"bytes32"}],"stateMutability":"view"},{"type":"function","name":"initializable","inputs":[{"name":"_origin","type":"tuple","internalType":"struct Origin","components":[{"name":"srcEid","type":"uint32","internalType":"uint32"},{"name":"sender","type":"bytes32","internalType":"bytes32"},{"name":"nonce","type":"uint64","internalType":"uint64"}]},{"name":"_receiver","type":"address","internalType":"address"}],"outputs":[{"name":"","type":"bool","internalType":"bool"}],"stateMutability":"view"},{"type":"function","name":"isDefaultSendLibrary","inputs":[{"name":"_sender","type":"address","internalType":"address"},{"name":"_dstEid","type":"uint32","internalType":"uint32"}],"outputs":[{"name":"","type":"bool","internalType":"bool"}],"stateMutability":"view"},{"type":"function","name":"isRegisteredLibrary","inputs":[{"name":"lib","type":"address","internalType":"address"}],"outputs":[{"name":"","type":"bool","internalType":"bool"}],"stateMutability":"view"},{"type":"function","name":"isSendingMessage","inputs":[],"outputs":[{"name":"","type":"bool","internalType":"bool"}],"stateMutability":"view"},{"type":"function","name":"isSupportedEid","inputs":[{"name":"_eid","type":"uint32","internalType":"uint32"}],"outputs":[{"name":"","type":"bool","internalType":"bool"}],"stateMutability":"view"},{"type":"function","name":"isValidReceiveLibrary","inputs":[{"name":"_receiver","type":"address","internalType":"address"},{"name":"_srcEid","type":"uint32","internalType":"uint32"},{"name":"_actualReceiveLib","type":"address","internalType":"address"}],"outputs":[{"name":"","type":"bool","internalType":"bool"}],"stateMutability":"view"},{"type":"function","name":"lazyInboundNonce","inputs":[{"name":"receiver","type":"address","internalType":"address"},{"name":"srcEid","type":"uint32","internalType":"uint32"},{"name":"sender","type":"bytes32","internalType":"bytes32"}],"outputs":[{"name":"nonce","type":"uint64","internalType":"uint64"}],"stateMutability":"view"},{"type":"function","name":"lzCompose","inputs":[{"name":"_from","type":"address","internalType":"address"},{"name":"_to","type":"address","internalType":"address"},{"name":"_guid","type":"bytes32","internalType":"bytes32"},{"name":"_index","type":"uint16","internalType":"uint16"},{"name":"_message","type":"bytes","internalType":"bytes"},{"name":"_extraData","type":"bytes","internalType":"bytes"}],"outputs":[],"stateMutability":"payable"},{"type":"function","name":"lzComposeAlert","inputs":[{"name":"_from","type":"address","internalType":"address"},{"name":"_to","type":"address","internalType":"address"},{"name":"_guid","type":"bytes32","internalType":"bytes32"},{"name":"_index","type":"uint16","internalType":"uint16"},{"name":"_gas","type":"uint256","internalType":"uint256"},{"name":"_value","type":"uint256","internalType":"uint256"},{"name":"_message","type":"bytes","internalType":"bytes"},{"name":"_extraData","type":"bytes","internalType":"bytes"},{"name":"_reason","type":"bytes","internalType":"bytes"}],"outputs":[],"stateMutability":"nonpayable"},{"type":"function","name":"lzReceive","inputs":[{"name":"_origin","type":"tuple","internalType":"struct Origin","components":[{"name":"srcEid","type":"uint32","internalType":"uint32"},{"name":"sender","type":"bytes32","internalType":"bytes32"},{"name":"nonce","type":"uint64","internalType":"uint64"}]},{"name":"_receiver","type":"address","internalType":"address"},{"name":"_guid","type":"bytes32","internalType":"bytes32"},{"name":"_message","type":"bytes","internalType":"bytes"},{"name":"_extraData","type":"bytes","internalType":"bytes"}],"outputs":[],"stateMutability":"payable"},{"type":"function","name":"lzReceiveAlert","inputs":[{"name":"_origin","type":"tuple","internalType":"struct Origin","components":[{"name":"srcEid","type":"uint32","internalType":"uint32"},{"name":"sender","type":"bytes32","internalType":"bytes32"},{"name":"nonce","type":"uint64","internalType":"uint64"}]},{"name":"_receiver","type":"address","internalType":"address"},{"name":"_guid","type":"bytes32","internalType":"bytes32"},{"name":"_gas","type":"uint256","internalType":"uint256"},{"name":"_value","type":"uint256","internalType":"uint256"},{"name":"_message","type":"bytes","internalType":"bytes"},{"name":"_extraData","type":"bytes","internalType":"bytes"},{"name":"_reason","type":"bytes","internalType":"bytes"}],"outputs":[],"stateMutability":"nonpayable"},{"type":"function","name":"lzToken","inputs":[],"outputs":[{"name":"","type":"address","internalType":"address"}],"stateMutability":"view"},{"type":"function","name":"nativeToken","inputs":[],"outputs":[{"name":"","type":"address","internalType":"address"}],"stateMutability":"view"},{"type":"function","name":"nextGuid","inputs":[{"name":"_sender","type":"address","internalType":"address"},{"name":"_dstEid","type":"uint32","internalType":"uint32"},{"name":"_receiver","type":"bytes32","internalType":"bytes32"}],"outputs":[{"name":"","type":"bytes32","internalType":"bytes32"}],"stateMutability":"view"},{"type":"function","name":"nilify","inputs":[{"name":"_oapp","type":"address","internalType":"address"},{"name":"_srcEid","type":"uint32","internalType":"uint32"},{"name":"_sender","type":"bytes32","internalType":"bytes32"},{"name":"_nonce","type":"uint64","internalType":"uint64"},{"name":"_payloadHash","type":"bytes32","internalType":"bytes32"}],"outputs":[],"stateMutability":"nonpayable"},{"type":"function","name":"outboundNonce","inputs":[{"name":"sender","type":"address","internalType":"address"},{"name":"dstEid","type":"uint32","internalType":"uint32"},{"name":"receiver","type":"bytes32","internalType":"bytes32"}],"outputs":[{"name":"nonce","type":"uint64","internalType":"uint64"}],"stateMutability":"view"},{"type":"function","name":"owner","inputs":[],"outputs":[{"name":"","type":"address","internalType":"address"}],"stateMutability":"view"},{"type":"function","name":"quote","inputs":[{"name":"_params","type":"tuple","internalType":"struct MessagingParams","components":[{"name":"dstEid","type":"uint32","internalType":"uint32"},{"name":"receiver","type":"bytes32","internalType":"bytes32"},{"name":"message","type":"bytes","internalType":"bytes"},{"name":"options","type":"bytes","internalType":"bytes"},{"name":"payInLzToken","type":"bool","internalType":"bool"}]},{"name":"_sender","type":"address","internalType":"address"}],"outputs":[{"name":"","type":"tuple","internalType":"struct MessagingFee","components":[{"name":"nativeFee","type":"uint256","internalType":"uint256"},{"name":"lzTokenFee","type":"uint256","internalType":"uint256"}]}],"stateMutability":"view"},{"type":"function","name":"receiveLibraryTimeout","inputs":[{"name":"receiver","type":"address","internalType":"address"},{"name":"srcEid","type":"uint32","internalType":"uint32"}],"outputs":[{"name":"lib","type":"address","internalType":"address"},{"name":"expiry","type":"uint256","internalType":"uint256"}],"stateMutability":"view"},{"type":"function","name":"recoverToken","inputs":[{"name":"_token","type":"address","internalType":"address"},{"name":"_to","type":"address","internalType":"address"},{"name":"_amount","type":"uint256","internalType":"uint256"}],"outputs":[],"stateMutability":"nonpayable"},{"type":"function","name":"registerLibrary","inputs":[{"name":"_lib","type":"address","internalType":"address"}],"outputs":[],"stateMutability":"nonpayable"},{"type":"function","name":"renounceOwnership","inputs":[],"outputs":[],"stateMutability":"nonpayable"},{"type":"function","name":"send","inputs":[{"name":"_params","type":"tuple","internalType":"struct MessagingParams","components":[{"name":"dstEid","type":"uint32","internalType":"uint32"},{"name":"receiver","type":"bytes32","internalType":"bytes32"},{"name":"message","type":"bytes","internalType":"bytes"},{"name":"options","type":"bytes","internalType":"bytes"},{"name":"payInLzToken","type":"bool","internalType":"bool"}]},{"name":"_refundAddress","type":"address","internalType":"address"}],"outputs":[{"name":"","type":"tuple","internalType":"struct MessagingReceipt","components":[{"name":"guid","type":"bytes32","internalType":"bytes32"},{"name":"nonce","type":"uint64","internalType":"uint64"},{"name":"fee","type":"tuple","internalType":"struct MessagingFee","components":[{"name":"nativeFee","type":"uint256","internalType":"uint256"},{"name":"lzTokenFee","type":"uint256","internalType":"uint256"}]}]}],"stateMutability":"payable"},{"type":"function","name":"sendCompose","inputs":[{"name":"_to","type":"address","internalType":"address"},{"name":"_guid","type":"bytes32","internalType":"bytes32"},{"name":"_index","type":"uint16","internalType":"uint16"},{"name":"_message","type":"bytes","internalType":"bytes"}],"outputs":[],"stateMutability":"nonpayable"},{"type":"function","name":"setConfig","inputs":[{"name":"_oapp","type":"address","internalType":"address"},{"name":"_lib","type":"address","internalType":"address"},{"name":"_params","type":"tuple[]","internalType":"struct SetConfigParam[]","components":[{"name":"eid","type":"uint32","internalType":"uint32"},{"name":"configType","type":"uint32","internalType":"uint32"},{"name":"config","type":"bytes","internalType":"bytes"}]}],"outputs":[],"stateMutability":"nonpayable"},{"type":"function","name":"setDefaultReceiveLibrary","inputs":[{"name":"_eid","type":"uint32","internalType":"uint32"},{"name":"_newLib","type":"address","internalType":"address"},{"name":"_gracePeriod","type":"uint256","internalType":"uint256"}],"outputs":[],"stateMutability":"nonpayable"},{"type":"function","name":"setDefaultReceiveLibraryTimeout","inputs":[{"name":"_eid","type":"uint32","internalType":"uint32"},{"name":"_lib","type":"address","internalType":"address"},{"name":"_expiry","type":"uint256","internalType":"uint256"}],"outputs":[],"stateMutability":"nonpayable"},{"type":"function","name":"setDefaultSendLibrary","inputs":[{"name":"_eid","type":"uint32","internalType":"uint32"},{"name":"_newLib","type":"address","internalType":"address"}],"outputs":[],"stateMutability":"nonpayable"},{"type":"function","name":"setDelegate","inputs":[{"name":"_delegate","type":"address","internalType":"address"}],"outputs":[],"stateMutability":"nonpayable"},{"type":"function","name":"setLzToken","inputs":[{"name":"_lzToken","type":"address","internalType":"address"}],"outputs":[],"stateMutability":"nonpayable"},{"type":"function","name":"setReceiveLibrary","inputs":[{"name":"_oapp","type":"address","internalType":"address"},{"name":"_eid","type":"uint32","internalType":"uint32"},{"name":"_newLib","type":"address","internalType":"address"},{"name":"_gracePeriod","type":"uint256","internalType":"uint256"}],"outputs":[],"stateMutability":"nonpayable"},{"type":"function","name":"setReceiveLibraryTimeout","inputs":[{"name":"_oapp","type":"address","internalType":"address"},{"name":"_eid","type":"uint32","internalType":"uint32"},{"name":"_lib","type":"address","internalType":"address"},{"name":"_expiry","type":"uint256","internalType":"uint256"}],"outputs":[],"stateMutability":"nonpayable"},{"type":"function","name":"setSendLibrary","inputs":[{"name":"_oapp","type":"address","internalType":"address"},{"name":"_eid","type":"uint32","internalType":"uint32"},{"name":"_newLib","type":"address","internalType":"address"}],"outputs":[],"stateMutability":"nonpayable"},{"type":"function","name":"skip","inputs":[{"name":"_oapp","type":"address","internalType":"address"},{"name":"_srcEid","type":"uint32","internalType":"uint32"},{"name":"_sender","type":"bytes32","internalType":"bytes32"},{"name":"_nonce","type":"uint64","internalType":"uint64"}],"outputs":[],"stateMutability":"nonpayable"},{"type":"function","name":"transferOwnership","inputs":[{"name":"newOwner","type":"address","internalType":"address"}],"outputs":[],"stateMutability":"nonpayable"},{"type":"function","name":"verifiable","inputs":[{"name":"_origin","type":"tuple","internalType":"struct Origin","components":[{"name":"srcEid","type":"uint32","internalType":"uint32"},{"name":"sender","type":"bytes32","internalType":"bytes32"},{"name":"nonce","type":"uint64","internalType":"uint64"}]},{"name":"_receiver","type":"address","internalType":"address"}],"outputs":[{"name":"","type":"bool","internalType":"bool"}],"stateMutability":"view"},{"type":"function","name":"verify","inputs":[{"name":"_origin","type":"tuple","internalType":"struct Origin","components":[{"name":"srcEid","type":"uint32","internalType":"uint32"},{"name":"sender","type":"bytes32","internalType":"bytes32"},{"name":"nonce","type":"uint64","internalType":"uint64"}]},{"name":"_receiver","type":"address","internalType":"address"},{"name":"_payloadHash","type":"bytes32","internalType":"bytes32"}],"outputs":[],"stateMutability":"nonpayable"},{"type":"event","name":"ComposeDelivered","inputs":[{"name":"from","type":"address","indexed":false,"internalType":"address"},{"name":"to","type":"address","indexed":false,"internalType":"address"},{"name":"guid","type":"bytes32","indexed":false,"internalType":"bytes32"},{"name":"index","type":"uint16","indexed":false,"internalType":"uint16"}],"anonymous":false},{"type":"event","name":"ComposeSent","inputs":[{"name":"from","type":"address","indexed":false,"internalType":"address"},{"name":"to","type":"address","indexed":false,"internalType":"address"},{"name":"guid","type":"bytes32","indexed":false,"internalType":"bytes32"},{"name":"index","type":"uint16","indexed":false,"internalType":"uint16"},{"name":"message","type":"bytes","indexed":false,"internalType":"bytes"}],"anonymous":false},{"type":"event","name":"DefaultReceiveLibrarySet","inputs":[{"name":"eid","type":"uint32","indexed":false,"internalType":"uint32"},{"name":"newLib","type":"address","indexed":false,"internalType":"address"}],"anonymous":false},{"type":"event","name":"DefaultReceiveLibraryTimeoutSet","inputs":[{"name":"eid","type":"uint32","indexed":false,"internalType":"uint32"},{"name":"oldLib","type":"address","indexed":false,"internalType":"address"},{"name":"expiry","type":"uint256","indexed":false,"internalType":"uint256"}],"anonymous":false},{"type":"event","name":"DefaultSendLibrarySet","inputs":[{"name":"eid","type":"uint32","indexed":false,"internalType":"uint32"},{"name":"newLib","type":"address","indexed":false,"internalType":"address"}],"anonymous":false},{"type":"event","name":"DelegateSet","inputs":[{"name":"sender","type":"address","indexed":false,"internalType":"address"},{"name":"delegate","type":"address","indexed":false,"internalType":"address"}],"anonymous":false},{"type":"event","name":"InboundNonceSkipped","inputs":[{"name":"srcEid","type":"uint32","indexed":false,"internalType":"uint32"},{"name":"sender","type":"bytes32","indexed":false,"internalType":"bytes32"},{"name":"receiver","type":"address","indexed":false,"internalType":"address"},{"name":"nonce","type":"uint64","indexed":false,"internalType":"uint64"}],"anonymous":false},{"type":"event","name":"LibraryRegistered","inputs":[{"name":"newLib","type":"address","indexed":false,"internalType":"address"}],"anonymous":false},{"type":"event","name":"LzComposeAlert","inputs":[{"name":"from","type":"address","indexed":true,"internalType":"address"},{"name":"to","type":"address","indexed":true,"internalType":"address"},{"name":"executor","type":"address","indexed":true,"internalType":"address"},{"name":"guid","type":"bytes32","indexed":false,"internalType":"bytes32"},{"name":"index","type":"uint16","indexed":false,"internalType":"uint16"},{"name":"gas","type":"uint256","indexed":false,"internalType":"uint256"},{"name":"value","type":"uint256","indexed":false,"internalType":"uint256"},{"name":"message","type":"bytes","indexed":false,"internalType":"bytes"},{"name":"extraData","type":"bytes","indexed":false,"internalType":"bytes"},{"name":"reason","type":"bytes","indexed":false,"internalType":"bytes"}],"anonymous":false},{"type":"event","name":"LzReceiveAlert","inputs":[{"name":"receiver","type":"address","indexed":true,"internalType":"address"},{"name":"executor","type":"address","indexed":true,"internalType":"address"},{"name":"origin","type":"tuple","indexed":false,"internalType":"struct Origin","components":[{"name":"srcEid","type":"uint32","internalType":"uint32"},{"name":"sender","type":"bytes32","internalType":"bytes32"},{"name":"nonce","type":"uint64","internalType":"uint64"}]},{"name":"guid","type":"bytes32","indexed":false,"internalType":"bytes32"},{"name":"gas","type":"uint256","indexed":false,"internalType":"uint256"},{"name":"value","type":"uint256","indexed":false,"internalType":"uint256"},{"name":"message","type":"bytes","indexed":false,"internalType":"bytes"},{"name":"extraData","type":"bytes","indexed":false,"internalType":"bytes"},{"name":"reason","type":"bytes","indexed":false,"internalType":"bytes"}],"anonymous":false},{"type":"event","name":"LzTokenSet","inputs":[{"name":"token","type":"address","indexed":false,"internalType":"address"}],"anonymous":false},{"type":"event","name":"OwnershipTransferred","inputs":[{"name":"previousOwner","type":"address","indexed":true,"internalType":"address"},{"name":"newOwner","type":"address","indexed":true,"internalType":"address"}],"anonymous":false},{"type":"event","name":"PacketBurnt","inputs":[{"name":"srcEid","type":"uint32","indexed":false,"internalType":"uint32"},{"name":"sender","type":"bytes32","indexed":false,"internalType":"bytes32"},{"name":"receiver","type":"address","indexed":false,"internalType":"address"},{"name":"nonce","type":"uint64","indexed":false,"internalType":"uint64"},{"name":"payloadHash","type":"bytes32","indexed":false,"internalType":"bytes32"}],"anonymous":false},{"type":"event","name":"PacketDelivered","inputs":[{"name":"origin","type":"tuple","indexed":false,"internalType":"struct Origin","components":[{"name":"srcEid","type":"uint32","internalType":"uint32"},{"name":"sender","type":"bytes32","internalType":"bytes32"},{"name":"nonce","type":"uint64","internalType":"uint64"}]},{"name":"receiver","type":"address","indexed":false,"internalType":"address"}],"anonymous":false},{"type":"event","name":"PacketNilified","inputs":[{"name":"srcEid","type":"uint32","indexed":false,"internalType":"uint32"},{"name":"sender","type":"bytes32","indexed":false,"internalType":"bytes32"},{"name":"receiver","type":"address","indexed":false,"internalType":"address"},{"name":"nonce","type":"uint64","indexed":false,"internalType":"uint64"},{"name":"payloadHash","type":"bytes32","indexed":false,"internalType":"bytes32"}],"anonymous":false},{"type":"event","name":"PacketSent","inputs":[{"name":"encodedPayload","type":"bytes","indexed":false,"internalType":"bytes"},{"name":"options","type":"bytes","indexed":false,"internalType":"bytes"},{"name":"sendLibrary","type":"address","indexed":false,"internalType":"address"}],"anonymous":false},{"type":"event","name":"PacketVerified","inputs":[{"name":"origin","type":"tuple","indexed":false,"internalType":"struct Origin","components":[{"name":"srcEid","type":"uint32","internalType":"uint32"},{"name":"sender","type":"bytes32","internalType":"bytes32"},{"name":"nonce","type":"uint64","internalType":"uint64"}]},{"name":"receiver","type":"address","indexed":false,"internalType":"address"},{"name":"payloadHash","type":"bytes32","indexed":false,"internalType":"bytes32"}],"anonymous":false},{"type":"event","name":"ReceiveLibrarySet","inputs":[{"name":"receiver","type":"address","indexed":false,"internalType":"address"},{"name":"eid","type":"uint32","indexed":false,"internalType":"uint32"},{"name":"newLib","type":"address","indexed":false,"internalType":"address"}],"anonymous":false},{"type":"event","name":"ReceiveLibraryTimeoutSet","inputs":[{"name":"receiver","type":"address","indexed":false,"internalType":"address"},{"name":"eid","type":"uint32","indexed":false,"internalType":"uint32"},{"name":"oldLib","type":"address","indexed":false,"internalType":"address"},{"name":"timeout","type":"uint256","indexed":false,"internalType":"uint256"}],"anonymous":false},{"type":"event","name":"SendLibrarySet","inputs":[{"name":"sender","type":"address","indexed":false,"internalType":"address"},{"name":"eid","type":"uint32","indexed":false,"internalType":"uint32"},{"name":"newLib","type":"address","indexed":false,"internalType":"address"}],"anonymous":false},{"type":"error","name":"LZ_AlreadyRegistered","inputs":[]},{"type":"error","name":"LZ_ComposeExists","inputs":[]},{"type":"error","name":"LZ_ComposeNotFound","inputs":[{"name":"expected","type":"bytes32","internalType":"bytes32"},{"name":"actual","type":"bytes32","internalType":"bytes32"}]},{"type":"error","name":"LZ_DefaultReceiveLibUnavailable","inputs":[]},{"type":"error","name":"LZ_DefaultSendLibUnavailable","inputs":[]},{"type":"error","name":"LZ_InsufficientFee","inputs":[{"name":"requiredNative","type":"uint256","internalType":"uint256"},{"name":"suppliedNative","type":"uint256","internalType":"uint256"},{"name":"requiredLzToken","type":"uint256","internalType":"uint256"},{"name":"suppliedLzToken","type":"uint256","internalType":"uint256"}]},{"type":"error","name":"LZ_InvalidArgument","inputs":[]},{"type":"error","name":"LZ_InvalidExpiry","inputs":[]},{"type":"error","name":"LZ_InvalidNonce","inputs":[{"name":"nonce","type":"uint64","internalType":"uint64"}]},{"type":"error","name":"LZ_InvalidPayloadHash","inputs":[]},{"type":"error","name":"LZ_InvalidReceiveLibrary","inputs":[]},{"type":"error","name":"LZ_LzTokenUnavailable","inputs":[]},{"type":"error","name":"LZ_OnlyAltToken","inputs":[]},{"type":"error","name":"LZ_OnlyNonDefaultLib","inputs":[]},{"type":"error","name":"LZ_OnlyReceiveLib","inputs":[]},{"type":"error","name":"LZ_OnlyRegisteredLib","inputs":[]},{"type":"error","name":"LZ_OnlyRegisteredOrDefaultLib","inputs":[]},{"type":"error","name":"LZ_OnlySendLib","inputs":[]},{"type":"error","name":"LZ_PathNotInitializable","inputs":[]},{"type":"error","name":"LZ_PathNotVerifiable","inputs":[]},{"type":"error","name":"LZ_PayloadHashNotFound","inputs":[{"name":"expected","type":"bytes32","internalType":"bytes32"},{"name":"actual","type":"bytes32","internalType":"bytes32"}]},{"type":"error","name":"LZ_SameValue","inputs":[]},{"type":"error","name":"LZ_SendReentrancy","inputs":[]},{"type":"error","name":"LZ_Unauthorized","inputs":[]},{"type":"error","name":"LZ_UnsupportedEid","inputs":[]},{"type":"error","name":"LZ_UnsupportedInterface","inputs":[]},{"type":"error","name":"LZ_ZeroLzTokenFee","inputs":[]},{"type":"error","name":"OwnableInvalidOwner","inputs":[{"name":"owner","type":"address","internalType":"address"}]},{"type":"error","name":"OwnableUnauthorizedAccount","inputs":[{"name":"account","type":"address","internalType":"address"}]},{"type":"error","name":"SafeERC20FailedOperation","inputs":[{"name":"token","type":"address","internalType":"address"}]},{"type":"error","name":"Transfer_NativeFailed","inputs":[{"name":"_to","type":"address","internalType":"address"},{"name":"_value","type":"uint256","internalType":"uint256"}]},{"type":"error","name":"Transfer_ToAddressIsZero","inputs":[]}],"bytecode":{"object":"0x60e06040526001600d5534801562000015575f80fd5b5060405162006193380380620061938339810160408190526200003891620002ef565b828281816001600160a01b0381166200006b57604051631e4fbdf760e01b81525f60048201526024015b60405180910390fd5b6200007681620000d9565b5063ffffffff166080526040516200008e90620002c5565b604051809103905ff080158015620000a8573d5f803e3d5ffd5b506001600160a01b031660a0819052620000c29062000128565b50506001600160a01b031660c05250620003679050565b5f80546001600160a01b038381166001600160a01b0319831681178455604051919092169283917f8be0079c531659141344cd1fd0a4f28419497f9722a3daafe3b4186f6b6457e09190a35050565b6200013262000295565b6040516301ffc9a760e01b81526325fc096160e21b60048201526001600160a01b038216906301ffc9a790602401602060405180830381865afa1580156200017c573d5f803e3d5ffd5b505050506040513d601f19601f82011682018060405250810190620001a291906200033f565b620001c05760405163eb64f35d60e01b815260040160405180910390fd5b6001600160a01b0381165f9081526005602052604090205460ff1615620001fa5760405163457517f360e11b815260040160405180910390fd5b6001600160a01b0381165f818152600560209081526040808320805460ff191660019081179091556004805491820181559093527f8a35acfbc15ff81a39ae7d344fd709f28e8600b4aa8c65c6b64bfe7fe36bd19b90920180546001600160a01b0319168417905590519182527f6b374d56679ca9463f27c85c6311e2bb7fde69bf201d3da39d53f10bd9d78af5910160405180910390a150565b5f546001600160a01b03163314620002c35760405163118cdaa760e01b815233600482015260240162000062565b565b6102818062005f1283390190565b80516001600160a01b0381168114620002ea575f80fd5b919050565b5f805f6060848603121562000302575f80fd5b835163ffffffff8116811462000316575f80fd5b92506200032660208501620002d3565b91506200033660408501620002d3565b90509250925092565b5f6020828403121562000350575f80fd5b8151801515811462000360575f80fd5b9392505050565b60805160a05160c051615b48620003ca5f395f8181610b500152818161314e015281816141df01526143f001525f61078601525f818161054301528181612d98015281816137b40152818161381a01528181613f860152613fec0152615b485ff3fe608060405260043610610350575f3560e01c80639132e5c3116101bd578063c9fc7bcd116100f2578063ddc28c5811610092578063e8964e811161006d578063e8964e8114610b93578063ef667aa114610bb2578063f2fde38b14610bfb578063f64be4c714610c1a575f80fd5b8063ddc28c5814610b16578063e1758bd814610b42578063e4fe1d9414610b74575f80fd5b8063d4b4ec8f116100cd578063d4b4ec8f14610a60578063d70b890214610a7f578063dc706a6214610a9e578063dc93c8a214610acc575f80fd5b8063c9fc7bcd146109e9578063ca5eb5e114610a2e578063cb5026b914610a4d575f80fd5b8063a7229fd91161015d578063aafea31211610138578063aafea3121461096d578063b96a277f1461098c578063c28e0eed146109ab578063c9a54a99146109ca575f80fd5b8063a7229fd914610910578063a825d7471461092f578063aafe5e071461094e575f80fd5b80639c6d7340116101985780639c6d73401461086d5780639d7f9775146108b3578063a0dd43fc146108d2578063a718531b146108f1575f80fd5b80639132e5c31461081a57806391d20fa11461083b5780639535ff301461084e575f80fd5b80635b17bb70116102935780636f50a8031161023357806379624ca91161020e57806379624ca9146107a85780637cb59012146107c0578063861e1ca5146107df5780638da5cb5b146107fe575f80fd5b80636f50a8031461072d578063715018a6146107615780637331809114610775575f80fd5b80636a14d7151161026e5780636a14d715146106735780636bf73fa3146106925780636dbd9f90146106b15780636e83f5bb146106d0575f80fd5b80635b17bb70146105c65780636750cd4c14610625578063697fe6b614610654575f80fd5b80632baf0be7116102fe578063402f8468116102d9578063402f8468146104d557806340f8068314610513578063416ecebf14610532578063587cde1e1461057a575f80fd5b80632baf0be7146104305780632e80fbf31461047157806335d330b014610490575f80fd5b80632637a4501161032e5780632637a450146103c55780632a56c1b0146103e55780632b3197b914610404575f80fd5b80630c0c389e1461035457806314f651a914610369578063183c834f146103a6575b5f80fd5b610367610362366004614a0a565b610c4e565b005b348015610374575f80fd5b5061037d610d61565b6040805163ffffffff90931683526001600160a01b039091166020830152015b60405180910390f35b3480156103b1575f80fd5b506103676103c0366004614ab2565b610d91565b6103d86103d3366004614afa565b611112565b60405161039d9190614b49565b3480156103f0575f80fd5b506103676103ff366004614b8b565b611279565b34801561040f575f80fd5b5061042361041e366004614bf6565b611336565b60405161039d9190614cb2565b34801561043b575f80fd5b506104637fffffffffffffffffffffffffffffffffffffffffffffffffffffffffffffffff81565b60405190815260200161039d565b34801561047c575f80fd5b5061036761048b366004614cdb565b61144c565b34801561049b575f80fd5b506104636104aa366004614d3d565b600c60209081525f948552604080862082529385528385208152918452828420909152825290205481565b3480156104e0575f80fd5b506104f46104ef366004614d7c565b611620565b604080516001600160a01b03909316835290151560208301520161039d565b34801561051e575f80fd5b5061036761052d366004614cdb565b6116b5565b34801561053d575f80fd5b506105657f000000000000000000000000000000000000000000000000000000000000000081565b60405163ffffffff909116815260200161039d565b348015610585575f80fd5b506105ae610594366004614da4565b600f6020525f90815260409020546001600160a01b031681565b6040516001600160a01b03909116815260200161039d565b3480156105d1575f80fd5b5061060c6105e0366004614dbd565b600160209081525f938452604080852082529284528284209052825290205467ffffffffffffffff1681565b60405167ffffffffffffffff909116815260200161039d565b348015610630575f80fd5b5061064461063f366004614df6565b611862565b604051901515815260200161039d565b34801561065f575f80fd5b5061036761066e366004614e0f565b6118b0565b34801561067e575f80fd5b5061036761068d366004614ab2565b611925565b34801561069d575f80fd5b506103676106ac366004614f03565b611e1a565b3480156106bc575f80fd5b506103676106cb366004614fdd565b611e84565b3480156106db575f80fd5b5061070e6106ea366004614df6565b600b6020525f9081526040902080546001909101546001600160a01b039091169082565b604080516001600160a01b03909316835260208301919091520161039d565b348015610738575f80fd5b506105ae610747366004614df6565b600a6020525f90815260409020546001600160a01b031681565b34801561076c575f80fd5b50610367611f52565b348015610780575f80fd5b506105ae7f000000000000000000000000000000000000000000000000000000000000000081565b3480156107b3575f80fd5b50600d5460011415610644565b3480156107cb575f80fd5b506103676107da366004615067565b611f65565b3480156107ea575f80fd5b506106446107f93660046150b4565b612068565b348015610809575f80fd5b505f546001600160a01b03166105ae565b348015610825575f80fd5b5061082e6120d3565b60405161039d91906150dd565b610367610849366004615129565b612133565b348015610859575f80fd5b506103676108683660046151cd565b6122ef565b348015610878575f80fd5b5061060c610887366004614dbd565b600360209081525f938452604080852082529284528284209052825290205467ffffffffffffffff1681565b3480156108be575f80fd5b506106446108cd3660046151cd565b6125e1565b3480156108dd575f80fd5b5061060c6108ec366004614dbd565b6126b5565b3480156108fc575f80fd5b5061036761090b36600461520d565b61274c565b34801561091b575f80fd5b5061036761092a366004615236565b612b4b565b34801561093a575f80fd5b50610367610949366004615251565b612b63565b348015610959575f80fd5b50610463610968366004614dbd565b612cf9565b348015610978575f80fd5b5061036761098736600461528b565b612e07565b348015610997575f80fd5b506105ae6109a6366004614d7c565b6130be565b3480156109b6575f80fd5b506103676109c5366004614da4565b613144565b3480156109d5575f80fd5b506106446109e43660046150b4565b6131c3565b3480156109f4575f80fd5b50610463610a033660046152a5565b600260209081525f948552604080862082529385528385208152918452828420909152825290205481565b348015610a39575f80fd5b50610367610a48366004614da4565b613227565b348015610a58575f80fd5b506104635f81565b348015610a6b575f80fd5b50610367610a7a36600461520d565b6132a5565b348015610a8a575f80fd5b50610367610a993660046152a5565b6135a0565b348015610aa9575f80fd5b50610644610ab8366004614da4565b60056020525f908152604090205460ff1681565b348015610ad7575f80fd5b50610644610ae6366004614d7c565b6001600160a01b039182165f90815260066020908152604080832063ffffffff9490941683529290522054161590565b348015610b21575f80fd5b50610b35610b30366004614afa565b6136c2565b60405161039d91906152e4565b348015610b4d575f80fd5b507f00000000000000000000000000000000000000000000000000000000000000006105ae565b348015610b7f575f80fd5b50600e546105ae906001600160a01b031681565b348015610b9e575f80fd5b50610367610bad366004614da4565b6139e3565b348015610bbd575f80fd5b5061070e610bcc366004614d7c565b600860209081525f9283526040808420909152908252902080546001909101546001600160a01b039091169082565b348015610c06575f80fd5b50610367610c15366004614da4565b613bdd565b348015610c25575f80fd5b506105ae610c34366004614df6565b60096020525f90815260409020546001600160a01b031681565b610c9d86610c5f60208a018a614df6565b60208a0135610c7460608c0160408d016152fb565b898989604051602001610c8993929190615314565b604051602081830303815290604052613c30565b506040517f13137d650000000000000000000000000000000000000000000000000000000081526001600160a01b038716906313137d65903490610cf1908b908a908a908a9033908b908b906004016153ae565b5f604051808303818588803b158015610d08575f80fd5b505af1158015610d1a573d5f803e3d5ffd5b50505050507f3cd5e48f9730b129dc7550f0fcea9c767b7be37837cd10e55eb35f734f4bca048787604051610d50929190615404565b60405180910390a150505050505050565b5f80610d70600d546001141590565b610d7b575f80610d89565b610d89600d5460a081901c91565b915091509091565b6001600160a01b0382165f90815260056020526040902054829060ff16610de4576040517f378b1de600000000000000000000000000000000000000000000000000000000815260040160405180910390fd5b826001600160a01b03811615610e9d575f816001600160a01b0316631881d94d6040518163ffffffff1660e01b8152600401602060405180830381865afa158015610e31573d5f803e3d5ffd5b505050506040513d601f19601f82011682018060405250810190610e559190615455565b6002811115610e6657610e66615428565b03610e9d576040517f84ead63600000000000000000000000000000000000000000000000000000000815260040160405180910390fd5b83856001600160a01b03821615610f69576040517f6750cd4c00000000000000000000000000000000000000000000000000000000815263ffffffff821660048201526001600160a01b03831690636750cd4c90602401602060405180830381865afa158015610f0f573d5f803e3d5ffd5b505050506040513d601f19601f82011682018060405250810190610f339190615480565b610f69576040517f391daaa400000000000000000000000000000000000000000000000000000000815260040160405180910390fd5b610f7288613e6e565b5f610f7d8989611620565b9150508015610fb8576040517f3c075f7500000000000000000000000000000000000000000000000000000000815260040160405180910390fd5b855f03611016576001600160a01b0389165f90815260086020908152604080832063ffffffff8c168452909152812080547fffffffffffffffffffffffff0000000000000000000000000000000000000000168155600101556110ac565b43861161104f576040517f05df9f2200000000000000000000000000000000000000000000000000000000815260040160405180910390fd5b6001600160a01b038981165f90815260086020908152604080832063ffffffff8d168452909152902080547fffffffffffffffffffffffff0000000000000000000000000000000000000000169189169190911781556001018690555b604080516001600160a01b03808c16825263ffffffff8b166020830152891691810191909152606081018790527f4e0a5bbfa0c11a64effb1ada324b5437a17272e1aed9320398715ef71bb20928906080015b60405180910390a1505050505050505050565b61111a61495c565b6111276020840184614df6565b336001600d5414611164576040517fee120b0900000000000000000000000000000000000000000000000000000000815260040160405180910390fd5b77ffffffff000000000000000000000000000000000000000060a083811b919091166001600160a01b03831617600d556111a39086016080870161549b565b80156111b85750600e546001600160a01b0316155b156111ef576040517f5af6d2aa00000000000000000000000000000000000000000000000000000000815260040160405180910390fd5b5f806111fb3388613ed7565b915091505f6112086141af565b90505f61122361121e60a08b0160808c0161549b565b614255565b90506112348460400151838361431f565b600e54604085015160200151611256916001600160a01b03169083868c614386565b6040840151516112689083858b6143b3565b50506001600d555095945050505050565b61128285613e6e565b5f83838360405160200161129893929190615314565b604080517fffffffffffffffffffffffffffffffffffffffffffffffffffffffffffffffe081840301815291905290506112f4866112d96020880188614df6565b60208801356112ee60608a0160408b016152fb565b85613c30565b507f3cd5e48f9730b129dc7550f0fcea9c767b7be37837cd10e55eb35f734f4bca048587604051611326929190615404565b60405180910390a1505050505050565b6001600160a01b0383165f90815260056020526040902054606090849060ff1661138c576040517f378b1de600000000000000000000000000000000000000000000000000000000815260040160405180910390fd5b6040517f9c33abf700000000000000000000000000000000000000000000000000000000815263ffffffff80861660048301526001600160a01b0388811660248401529085166044830152861690639c33abf7906064015f60405180830381865afa1580156113fd573d5f803e3d5ffd5b505050506040513d5f823e601f3d9081017fffffffffffffffffffffffffffffffffffffffffffffffffffffffffffffffe0168201604052611442919081019061557c565b9695505050505050565b61145585613e6e565b6001600160a01b0385165f90815260026020908152604080832063ffffffff881684528252808320868452825280832067ffffffffffffffff861684529091529020548181146114e0576040517f7182306f00000000000000000000000000000000000000000000000000000000815260048101829052602481018390526044015b60405180910390fd5b6001600160a01b0386165f90815260016020908152604080832063ffffffff89168452825280832087845290915290205467ffffffffffffffff9081169084161180159061152c575080155b1561156f576040517fc09b635000000000000000000000000000000000000000000000000000000000815267ffffffffffffffff841660048201526024016114d7565b6001600160a01b0386165f81815260026020908152604080832063ffffffff8a16808552908352818420898552835281842067ffffffffffffffff8916808652908452938290207fffffffffffffffffffffffffffffffffffffffffffffffffffffffffffffffff905581519081529182018890528101929092526060820152608081018390527faf0450c392c4f702515a457a362328c8aa21916048ca6d0419e248b30cb552929060a001611326565b6001600160a01b038083165f90815260076020908152604080832063ffffffff8616845290915281205490911690816116ae5763ffffffff83165f908152600a60205260409020546001600160a01b03169150816116aa576040517f78e84d0600000000000000000000000000000000000000000000000000000000815260040160405180910390fd5b5060015b9250929050565b6116be85613e6e565b6001600160a01b0385165f90815260026020908152604080832063ffffffff881684528252808320868452825280832067ffffffffffffffff86168452909152902054818114611744576040517f7182306f00000000000000000000000000000000000000000000000000000000815260048101829052602481018390526044016114d7565b80158061178e57506001600160a01b0386165f90815260016020908152604080832063ffffffff89168452825280832087845290915290205467ffffffffffffffff908116908416115b156117d1576040517fc09b635000000000000000000000000000000000000000000000000000000000815267ffffffffffffffff841660048201526024016114d7565b6001600160a01b0386165f81815260026020908152604080832063ffffffff8a16808552908352818420898552835281842067ffffffffffffffff89168086529084528285209490945581519081529182018890528101929092526060820152608081018390527f7f68a37a6e69a0de35024a234558f9efe4b33b58657753d21eaaa82d51c3510e9060a001611326565b63ffffffff81165f908152600960205260408120546001600160a01b0316158015906118aa575063ffffffff82165f908152600a60205260409020546001600160a01b031615155b92915050565b336001600160a01b03168b6001600160a01b03168d6001600160a01b03167f8a0b1dce321c5c5fb42349bce46d18087c04140de520917661fb923e44a904b98d8d8d8d8d8d8d8d8d8d60405161190f9a999897969594939291906155ae565b60405180910390a4505050505050505050505050565b6001600160a01b0382165f90815260056020526040902054829060ff1615801561195757506001600160a01b03811615155b1561198e576040517fa4ff2ec300000000000000000000000000000000000000000000000000000000815260040160405180910390fd5b826001600160a01b03811615611a47575f816001600160a01b0316631881d94d6040518163ffffffff1660e01b8152600401602060405180830381865afa1580156119db573d5f803e3d5ffd5b505050506040513d601f19601f820116820180604052508101906119ff9190615455565b6002811115611a1057611a10615428565b03611a47576040517f84ead63600000000000000000000000000000000000000000000000000000000815260040160405180910390fd5b83856001600160a01b03821615611b13576040517f6750cd4c00000000000000000000000000000000000000000000000000000000815263ffffffff821660048201526001600160a01b03831690636750cd4c90602401602060405180830381865afa158015611ab9573d5f803e3d5ffd5b505050506040513d601f19601f82011682018060405250810190611add9190615480565b611b13576040517f391daaa400000000000000000000000000000000000000000000000000000000815260040160405180910390fd5b611b1c88613e6e565b6001600160a01b038089165f90815260076020908152604080832063ffffffff8c16845290915290205481169087168103611b83576040517fd0ecb66b00000000000000000000000000000000000000000000000000000000815260040160405180910390fd5b6001600160a01b038981165f81815260076020908152604080832063ffffffff8e168085529083529281902080547fffffffffffffffffffffffff000000000000000000000000000000000000000016958d1695861790558051938452908301919091528101919091527fcd6f92f5ac6185a5acfa02c92090746cec64d777269cbcd0ed031e396657a1c29060600160405180910390a18515611d70576001600160a01b0381161580611c3d57506001600160a01b038716155b15611c74576040517f3c075f7500000000000000000000000000000000000000000000000000000000815260040160405180910390fd5b5f6040518060400160405280836001600160a01b031681526020018843611c9b9190615643565b90526001600160a01b03808c165f90815260086020908152604080832063ffffffff8f1684528252918290208451815494167fffffffffffffffffffffffff00000000000000000000000000000000000000009094169390931783558301516001909201829055519192507f4e0a5bbfa0c11a64effb1ada324b5437a17272e1aed9320398715ef71bb2092891611d62918d918d9187916001600160a01b03948516815263ffffffff93909316602084015292166040820152606081019190915260800190565b60405180910390a150611e0f565b6001600160a01b038981165f81815260086020908152604080832063ffffffff8e1680855290835281842080547fffffffffffffffffffffffff00000000000000000000000000000000000000001681556001018490558151948552918401919091529284169282019290925260608101919091527f4e0a5bbfa0c11a64effb1ada324b5437a17272e1aed9320398715ef71bb20928906080016110ff565b505050505050505050565b336001600160a01b03168a6001600160a01b03167f7edfa10fe10193301ad8a8bea7e968c7bcabcc64981f368e3aeada40ce26ae2c8d8c8c8c8c8c8c8c8c8c604051611e6f9a99989796959493929190615656565b60405180910390a35050505050505050505050565b6001600160a01b0383165f90815260056020526040902054839060ff16611ed7576040517f378b1de600000000000000000000000000000000000000000000000000000000815260040160405180910390fd5b611ee085613e6e565b6040517f20efd7220000000000000000000000000000000000000000000000000000000081526001600160a01b038516906320efd72290611f29908890879087906004016156b4565b5f604051808303815f87803b158015611f40575f80fd5b505af1158015611e0f573d5f803e3d5ffd5b611f5a61441e565b611f635f614463565b565b335f908152600c602090815260408083206001600160a01b03891684528252808320878452825280832061ffff8716845290915290205415611fd3576040517f1508219400000000000000000000000000000000000000000000000000000000815260040160405180910390fd5b8181604051611fe39291906157ff565b60408051918290038220335f818152600c60209081528482206001600160a01b038c16835281528482208a8352815284822061ffff8a168352905292909220557f3d52ff888d033fd3dd1d8057da59e850c91d91a72c41dfa445b247dfedeb6dc19161205991908890889088908890889061580e565b60405180910390a15050505050565b6001600160a01b0381165f90815260016020908152604082206120cc9185918591859061209790850185614df6565b63ffffffff16815260208082019290925260409081015f90812089840135825290925290205467ffffffffffffffff166144ca565b9392505050565b6060600480548060200260200160405190810160405280929190818152602001828054801561212957602002820191905f5260205f20905b81546001600160a01b0316815260019091019060200180831161210b575b5050505050905090565b6001600160a01b038089165f908152600c60209081526040808320938b168352928152828220898352815282822061ffff89168352905281812054915161217d90879087906157ff565b604051809103902090508082146121ca576040517f35ca595f00000000000000000000000000000000000000000000000000000000815260048101839052602481018290526044016114d7565b6001600160a01b03808b165f908152600c60209081526040808320938d168084529382528083208c8452825280832061ffff8c1684529091529081902060019055517fd0a1026000000000000000000000000000000000000000000000000000000000815263d0a10260903490612251908e908d908c908c9033908d908d90600401615856565b5f604051808303818588803b158015612268575f80fd5b505af115801561227a573d5f803e3d5ffd5b50505050507e36c98efcf9e6641dfbc9051f66f405253e8e0c2ab4a24dccda15595b7378c88a8a8a8a6040516122db94939291906001600160a01b039485168152929093166020830152604082015261ffff91909116606082015260800190565b60405180910390a150505050505050505050565b6001600160a01b0381165f90815260056020526040902054819060ff1615801561232157506001600160a01b03811615155b15612358576040517fa4ff2ec300000000000000000000000000000000000000000000000000000000815260040160405180910390fd5b816001600160a01b03811615612412576001816001600160a01b0316631881d94d6040518163ffffffff1660e01b8152600401602060405180830381865afa1580156123a6573d5f803e3d5ffd5b505050506040513d601f19601f820116820180604052508101906123ca9190615455565b60028111156123db576123db615428565b03612412576040517f7a01ede200000000000000000000000000000000000000000000000000000000815260040160405180910390fd5b82846001600160a01b038216156124de576040517f6750cd4c00000000000000000000000000000000000000000000000000000000815263ffffffff821660048201526001600160a01b03831690636750cd4c90602401602060405180830381865afa158015612484573d5f803e3d5ffd5b505050506040513d601f19601f820116820180604052508101906124a89190615480565b6124de576040517f391daaa400000000000000000000000000000000000000000000000000000000815260040160405180910390fd5b6124e787613e6e565b6001600160a01b038781165f90815260066020908152604080832063ffffffff8b16845290915290205481871691160361254d576040517fd0ecb66b00000000000000000000000000000000000000000000000000000000815260040160405180910390fd5b6001600160a01b038781165f81815260066020908152604080832063ffffffff8c168085529083529281902080547fffffffffffffffffffffffff000000000000000000000000000000000000000016958b1695861790558051938452908301919091528101919091527f4cff966ebee29a156dcb34cf72c1d06231fb1777f6bdf6e8089819232f002b1c90606001610d50565b5f805f6125ee8686611620565b91509150816001600160a01b0316846001600160a01b031603612616576001925050506120cc565b5f81612649576001600160a01b0387165f90815260086020908152604080832063ffffffff8a168452909152902061265e565b63ffffffff86165f908152600b602052604090205b6040805180820190915281546001600160a01b03908116808352600190930154602083015290925086161480156126985750438160200151115b156126a957600193505050506120cc565b505f9695505050505050565b6001600160a01b0383165f90815260016020908152604080832063ffffffff86168452825280832084845290915281205467ffffffffffffffff165b6001600160a01b0385165f90815260026020908152604080832063ffffffff881684528252808320868452825280832067ffffffffffffffff6001860116845290915290205415612744576001016126f1565b949350505050565b61275461441e565b6001600160a01b0382165f90815260056020526040902054829060ff166127a7576040517f378b1de600000000000000000000000000000000000000000000000000000000815260040160405180910390fd5b826001600160a01b03811615612860575f816001600160a01b0316631881d94d6040518163ffffffff1660e01b8152600401602060405180830381865afa1580156127f4573d5f803e3d5ffd5b505050506040513d601f19601f820116820180604052508101906128189190615455565b600281111561282957612829615428565b03612860576040517f84ead63600000000000000000000000000000000000000000000000000000000815260040160405180910390fd5b83856001600160a01b0382161561292c576040517f6750cd4c00000000000000000000000000000000000000000000000000000000815263ffffffff821660048201526001600160a01b03831690636750cd4c90602401602060405180830381865afa1580156128d2573d5f803e3d5ffd5b505050506040513d601f19601f820116820180604052508101906128f69190615480565b61292c576040517f391daaa400000000000000000000000000000000000000000000000000000000815260040160405180910390fd5b63ffffffff87165f908152600a60205260409020546001600160a01b039081169087168103612987576040517fd0ecb66b00000000000000000000000000000000000000000000000000000000815260040160405180910390fd5b63ffffffff88165f818152600a602090815260409182902080547fffffffffffffffffffffffff0000000000000000000000000000000000000000166001600160a01b038c169081179091558251938452908301527fc16891855cffb4a5ac51ac11864a3f3c96ba816cc45fe686c987ae36277de5ec910160405180910390a18515612ab75763ffffffff88165f908152600b6020526040902080547fffffffffffffffffffffffff0000000000000000000000000000000000000000166001600160a01b038316178155612a5c8743615643565b600182018190556040805163ffffffff8c1681526001600160a01b038516602082015280820192909252517f55b28633cdb29709386f555dfc54418592ad475ce7a65a78ac5928af60ffb8f89181900360600190a150612b41565b63ffffffff88165f818152600b6020908152604080832080547fffffffffffffffffffffffff000000000000000000000000000000000000000016815560010183905580519384526001600160a01b038516918401919091528201527f55b28633cdb29709386f555dfc54418592ad475ce7a65a78ac5928af60ffb8f89060600160405180910390a15b5050505050505050565b612b5361441e565b612b5e838383614562565b505050565b612b7a82612b746020860186614df6565b336125e1565b612bb0576040517f4fa6ecac00000000000000000000000000000000000000000000000000000000815260040160405180910390fd5b6001600160a01b0382165f9081526001602090815260408220908290612bd890870187614df6565b63ffffffff16815260208082019290925260409081015f90812087840135825290925290205467ffffffffffffffff169050612c158484836144ca565b612c4b576040517f751cb20f00000000000000000000000000000000000000000000000000000000815260040160405180910390fd5b612c56848483614585565b612c8c576040517f0177e1ca00000000000000000000000000000000000000000000000000000000815260040160405180910390fd5b612cb883612c9d6020870187614df6565b6020870135612cb26060890160408a016152fb565b8661463e565b7f0d87345f3d1c929caba93e1c3821b54ff3512e12b66aa3cfe54b6bcbc17e59b4848484604051612ceb939291906158a9565b60405180910390a150505050565b6001600160a01b0383165f90815260036020908152604080832063ffffffff8616845282528083208484529091528120548190612d419067ffffffffffffffff1660016158d1565b604080517fffffffffffffffff00000000000000000000000000000000000000000000000060c084901b166020808301919091527fffffffff000000000000000000000000000000000000000000000000000000007f000000000000000000000000000000000000000000000000000000000000000060e090811b821660288501526001600160a01b038b16602c85015289901b16604c830152605080830188905283518084039091018152607090920190925280519101209091505b95945050505050565b612e0f61441e565b6001600160a01b0381165f90815260056020526040902054819060ff16612e62576040517f378b1de600000000000000000000000000000000000000000000000000000000815260040160405180910390fd5b816001600160a01b03811615612f1c576001816001600160a01b0316631881d94d6040518163ffffffff1660e01b8152600401602060405180830381865afa158015612eb0573d5f803e3d5ffd5b505050506040513d601f19601f82011682018060405250810190612ed49190615455565b6002811115612ee557612ee5615428565b03612f1c576040517f7a01ede200000000000000000000000000000000000000000000000000000000815260040160405180910390fd5b82846001600160a01b03821615612fe8576040517f6750cd4c00000000000000000000000000000000000000000000000000000000815263ffffffff821660048201526001600160a01b03831690636750cd4c90602401602060405180830381865afa158015612f8e573d5f803e3d5ffd5b505050506040513d601f19601f82011682018060405250810190612fb29190615480565b612fe8576040517f391daaa400000000000000000000000000000000000000000000000000000000815260040160405180910390fd5b63ffffffff86165f908152600960205260409020546001600160a01b03808716911603613041576040517fd0ecb66b00000000000000000000000000000000000000000000000000000000815260040160405180910390fd5b63ffffffff86165f8181526009602090815260409182902080547fffffffffffffffffffffffff0000000000000000000000000000000000000000166001600160a01b038a169081179091558251938452908301527f16aa0f528038ab41019e95bae5b418a50ba8532c5800e3b7ea2f517d3fa625f59101611326565b6001600160a01b038083165f90815260066020908152604080832063ffffffff8616845290915290205416806118aa575063ffffffff81165f908152600960205260409020546001600160a01b0316806118aa576040517f6c1ccdb500000000000000000000000000000000000000000000000000000000815260040160405180910390fd5b61314c61441e565b7f00000000000000000000000000000000000000000000000000000000000000006001600160a01b0316816001600160a01b0316036131b7576040517f10647d0b00000000000000000000000000000000000000000000000000000000815260040160405180910390fd5b6131c0816146bd565b50565b6001600160a01b0381165f90815260016020908152604082206120cc918591859185906131f290850185614df6565b63ffffffff16815260208082019290925260409081015f90812089840135825290925290205467ffffffffffffffff16614585565b335f818152600f602090815260409182902080547fffffffffffffffffffffffff0000000000000000000000000000000000000000166001600160a01b0386169081179091558251938452908301527f6ee10e9ed4d6ce9742703a498707862f4b00f1396a87195eb93267b3d798398191015b60405180910390a150565b6001600160a01b0382165f90815260056020526040902054829060ff166132f8576040517f378b1de600000000000000000000000000000000000000000000000000000000815260040160405180910390fd5b826001600160a01b038116156133b1575f816001600160a01b0316631881d94d6040518163ffffffff1660e01b8152600401602060405180830381865afa158015613345573d5f803e3d5ffd5b505050506040513d601f19601f820116820180604052508101906133699190615455565b600281111561337a5761337a615428565b036133b1576040517f84ead63600000000000000000000000000000000000000000000000000000000815260040160405180910390fd5b83856001600160a01b0382161561347d576040517f6750cd4c00000000000000000000000000000000000000000000000000000000815263ffffffff821660048201526001600160a01b03831690636750cd4c90602401602060405180830381865afa158015613423573d5f803e3d5ffd5b505050506040513d601f19601f820116820180604052508101906134479190615480565b61347d576040517f391daaa400000000000000000000000000000000000000000000000000000000815260040160405180910390fd5b61348561441e565b845f036134cf5763ffffffff87165f908152600b6020526040812080547fffffffffffffffffffffffff000000000000000000000000000000000000000016815560010155613554565b438511613508576040517f05df9f2200000000000000000000000000000000000000000000000000000000815260040160405180910390fd5b63ffffffff87165f908152600b6020526040902080547fffffffffffffffffffffffff0000000000000000000000000000000000000000166001600160a01b0388161781556001018590555b6040805163ffffffff891681526001600160a01b03881660208201529081018690527f55b28633cdb29709386f555dfc54418592ad475ce7a65a78ac5928af60ffb8f890606001610d50565b6135a984613e6e565b6135b48484846126b5565b6135bf9060016158d1565b67ffffffffffffffff168167ffffffffffffffff1614613617576040517fc09b635000000000000000000000000000000000000000000000000000000000815267ffffffffffffffff821660048201526024016114d7565b6001600160a01b0384165f81815260016020908152604080832063ffffffff881680855290835281842087855283529281902080547fffffffffffffffffffffffffffffffffffffffffffffffff00000000000000001667ffffffffffffffff8716908117909155815193845291830186905282019290925260608101919091527f28f40053783033ef755556a0c3315379141f51a33aed8334174ffbadd90bde4890608001612ceb565b604080518082019091525f80825260208201526136e560a084016080850161549b565b80156136fa5750600e546001600160a01b0316155b15613731576040517f5af6d2aa00000000000000000000000000000000000000000000000000000000815260040160405180910390fd5b6001600160a01b0382165f908152600360209081526040822090829061375990870187614df6565b63ffffffff16815260208082019290925260409081015f9081208784013582529092529020546137949067ffffffffffffffff1660016158d1565b90505f6040518060e001604052808367ffffffffffffffff1681526020017f000000000000000000000000000000000000000000000000000000000000000063ffffffff168152602001856001600160a01b03168152602001865f0160208101906137ff9190614df6565b63ffffffff168152602001866020013581526020016138f9847f0000000000000000000000000000000000000000000000000000000000000000888a5f01602081019061384c9190614df6565b8b602001355f85856001600160a01b03861660405160c09390931b7fffffffffffffffff00000000000000000000000000000000000000000000000016602084015260e091821b7fffffffff000000000000000000000000000000000000000000000000000000009081166028850152602c8401919091529085901b16604c8201526050810183905260700160405160208183030381529060405280519060200120905095945050505050565b815260200161390b60408801886158f2565b8080601f0160208091040260200160405190810160405280939291908181526020018383808284375f920182905250939094525092935091506139579050856109a66020890189614df6565b90506001600160a01b03811663d80e9bd98361397660608a018a6158f2565b61398660a08c0160808d0161549b565b6040518563ffffffff1660e01b81526004016139a59493929190615953565b6040805180830381865afa1580156139bf573d5f803e3d5ffd5b505050506040513d601f19601f820116820180604052508101906114429190615a47565b6139eb61441e565b6040517f01ffc9a70000000000000000000000000000000000000000000000000000000081527f97f025840000000000000000000000000000000000000000000000000000000060048201526001600160a01b038216906301ffc9a790602401602060405180830381865afa158015613a66573d5f803e3d5ffd5b505050506040513d601f19601f82011682018060405250810190613a8a9190615480565b613ac0576040517feb64f35d00000000000000000000000000000000000000000000000000000000815260040160405180910390fd5b6001600160a01b0381165f9081526005602052604090205460ff1615613b12576040517f8aea2fe600000000000000000000000000000000000000000000000000000000815260040160405180910390fd5b6001600160a01b0381165f81815260056020908152604080832080547fffffffffffffffffffffffffffffffffffffffffffffffffffffffffffffff001660019081179091556004805491820181559093527f8a35acfbc15ff81a39ae7d344fd709f28e8600b4aa8c65c6b64bfe7fe36bd19b90920180547fffffffffffffffffffffffff0000000000000000000000000000000000000000168417905590519182527f6b374d56679ca9463f27c85c6311e2bb7fde69bf201d3da39d53f10bd9d78af5910161329a565b613be561441e565b6001600160a01b038116613c27576040517f1e4fbdf70000000000000000000000000000000000000000000000000000000081525f60048201526024016114d7565b6131c081614463565b6001600160a01b0385165f90815260016020908152604080832063ffffffff88168452825280832086845290915281205467ffffffffffffffff908116908416811015613d8857600181015b8467ffffffffffffffff168167ffffffffffffffff1611613d24576001600160a01b0388165f90815260026020908152604080832063ffffffff8b1684528252808320898452825280832067ffffffffffffffff85168452909152902054613d1c576040517fc09b635000000000000000000000000000000000000000000000000000000000815267ffffffffffffffff821660048201526024016114d7565b600101613c7c565b506001600160a01b0387165f90815260016020908152604080832063ffffffff8a1684528252808320888452909152902080547fffffffffffffffffffffffffffffffffffffffffffffffff00000000000000001667ffffffffffffffff86161790555b82516020808501919091206001600160a01b0389165f90815260028352604080822063ffffffff8b1683528452808220898352845280822067ffffffffffffffff891683529093529190912054909250808314613e1b576040517f7182306f00000000000000000000000000000000000000000000000000000000815260048101829052602481018490526044016114d7565b50506001600160a01b039095165f90815260026020908152604080832063ffffffff909716835295815285822094825293845284812067ffffffffffffffff909316815291909252918220919091555090565b336001600160a01b03821614801590613ea057506001600160a01b038181165f908152600f6020526040902054163314155b156131c0576040517fc4c5259300000000000000000000000000000000000000000000000000000000815260040160405180910390fd5b613edf61495c565b5f80613f6685613ef26020870187614df6565b6001600160a01b03919091165f90815260036020908152604080832063ffffffff94909416835292815282822081890135835290522080547fffffffffffffffffffffffffffffffffffffffffffffffff00000000000000008116600167ffffffffffffffff928316019182161790915590565b90505f6040518060e001604052808367ffffffffffffffff1681526020017f000000000000000000000000000000000000000000000000000000000000000063ffffffff168152602001876001600160a01b03168152602001865f016020810190613fd19190614df6565b63ffffffff1681526020018660200135815260200161401e847f00000000000000000000000000000000000000000000000000000000000000008a8a5f01602081019061384c9190614df6565b815260200161403060408801886158f2565b8080601f0160208091040260200160405190810160405280939291908181526020018383808284375f9201829052509390945250929350915061407c9050876109a66020890189614df6565b90505f806001600160a01b038316634389e58f8561409d60608c018c6158f2565b6140ad60a08e0160808f0161549b565b6040518563ffffffff1660e01b81526004016140cc9493929190615953565b5f604051808303815f875af11580156140e7573d5f803e3d5ffd5b505050506040513d5f823e601f3d9081017fffffffffffffffffffffffffffffffffffffffffffffffffffffffffffffffe016820160405261412c9190810190615a61565b90925090507f1ab700d4ced0c005b164c0f789fd09fcbb0156d4c2041b8a3bfbcd961cd1567f8161416060608b018b6158f2565b866040516141719493929190615aad565b60405180910390a1506040805160608101825260a090940151845267ffffffffffffffff909416602084015292820192909252925090509250929050565b6040517f70a082310000000000000000000000000000000000000000000000000000000081523060048201525f907f00000000000000000000000000000000000000000000000000000000000000006001600160a01b0316906370a0823190602401602060405180830381865afa15801561422c573d5f803e3d5ffd5b505050506040513d601f19601f820116820180604052508101906142509190615aed565b905090565b5f811561431a57600e546040517f70a082310000000000000000000000000000000000000000000000000000000081523060048201526001600160a01b03909116906370a0823190602401602060405180830381865afa1580156142bb573d5f803e3d5ffd5b505050506040513d601f19601f820116820180604052508101906142df9190615aed565b9050805f0361431a576040517f1775123700000000000000000000000000000000000000000000000000000000815260040160405180910390fd5b919050565b82518210806143315750808360200151115b15612b5e57825160208401516040517f4f3ec0d30000000000000000000000000000000000000000000000000000000081526004810192909252602482018490526044820152606481018290526084016114d7565b83156143975761439785838661472b565b828410156143ac576143ac858286860361472b565b5050505050565b34156143eb576040517f9a317a5200000000000000000000000000000000000000000000000000000000815260040160405180910390fd5b6144187f000000000000000000000000000000000000000000000000000000000000000085858585614386565b50505050565b5f546001600160a01b03163314611f63576040517f118cdaa70000000000000000000000000000000000000000000000000000000081523360048201526024016114d7565b5f80546001600160a01b038381167fffffffffffffffffffffffff0000000000000000000000000000000000000000831681178455604051919092169283917f8be0079c531659141344cd1fd0a4f28419497f9722a3daafe3b4186f6b6457e09190a35050565b5f808267ffffffffffffffff16118061274457506040517fff7bd03d0000000000000000000000000000000000000000000000000000000081526001600160a01b0384169063ff7bd03d90614523908790600401615b04565b602060405180830381865afa15801561453e573d5f803e3d5ffd5b505050506040513d601f19601f820116820180604052508101906127449190615480565b6001600160a01b03831661457a57612b5e828261477f565b612b5e83838361472b565b5f67ffffffffffffffff82166145a160608601604087016152fb565b67ffffffffffffffff16118061274457506001600160a01b0383165f90815260026020908152604082209082906145da90880188614df6565b63ffffffff1663ffffffff1681526020019081526020015f205f866020013581526020019081526020015f205f86604001602081019061461a91906152fb565b67ffffffffffffffff16815260208101919091526040015f20541415949350505050565b80614675576040517f09beffb600000000000000000000000000000000000000000000000000000000815260040160405180910390fd5b6001600160a01b039094165f90815260026020908152604080832063ffffffff909616835294815284822093825292835283812067ffffffffffffffff909216815291522055565b6146c561441e565b600e80547fffffffffffffffffffffffff0000000000000000000000000000000000000000166001600160a01b0383169081179091556040519081527fd476ec5ec1ac11cec3714d41e7ea49419471aceb9bd0dff1becfc3e363a623969060200161329a565b6001600160a01b03821661476b576040517f6b7a931000000000000000000000000000000000000000000000000000000000815260040160405180910390fd5b612b5e6001600160a01b038416838361485a565b6001600160a01b0382166147bf576040517f6b7a931000000000000000000000000000000000000000000000000000000000815260040160405180910390fd5b5f826001600160a01b0316826040515f6040518083038185875af1925050503d805f8114614808576040519150601f19603f3d011682016040523d82523d5f602084013e61480d565b606091505b5050905080612b5e576040517f465bc8340000000000000000000000000000000000000000000000000000000081526001600160a01b0384166004820152602481018390526044016114d7565b604080516001600160a01b03841660248201526044808201849052825180830390910181526064909101909152602080820180517bffffffffffffffffffffffffffffffffffffffffffffffffffffffff167fa9059cbb000000000000000000000000000000000000000000000000000000001781528251612b5e93879390925f9283929183919082885af1806148f6576040513d5f823e3d81fd5b50505f513d9150811561490d57806001141561491a565b6001600160a01b0384163b155b15614418576040517f5274afe70000000000000000000000000000000000000000000000000000000081526001600160a01b03851660048201526024016114d7565b60405180606001604052805f80191681526020015f67ffffffffffffffff16815260200161499b60405180604001604052805f81526020015f81525090565b905290565b5f606082840312156149b0575f80fd5b50919050565b80356001600160a01b038116811461431a575f80fd5b5f8083601f8401126149dc575f80fd5b50813567ffffffffffffffff8111156149f3575f80fd5b6020830191508360208285010111156116ae575f80fd5b5f805f805f805f60e0888a031215614a20575f80fd5b614a2a89896149a0565b9650614a38606089016149b6565b95506080880135945060a088013567ffffffffffffffff80821115614a5b575f80fd5b614a678b838c016149cc565b909650945060c08a0135915080821115614a7f575f80fd5b50614a8c8a828b016149cc565b989b979a50959850939692959293505050565b803563ffffffff8116811461431a575f80fd5b5f805f8060808587031215614ac5575f80fd5b614ace856149b6565b9350614adc60208601614a9f565b9250614aea604086016149b6565b9396929550929360600135925050565b5f8060408385031215614b0b575f80fd5b823567ffffffffffffffff811115614b21575f80fd5b830160a08186031215614b32575f80fd5b9150614b40602084016149b6565b90509250929050565b5f6080820190508251825267ffffffffffffffff60208401511660208301526040830151614b84604084018280518252602090810151910152565b5092915050565b5f805f805f60c08688031215614b9f575f80fd5b614ba8866149b6565b9450614bb787602088016149a0565b93506080860135925060a086013567ffffffffffffffff811115614bd9575f80fd5b614be5888289016149cc565b969995985093965092949392505050565b5f805f8060808587031215614c09575f80fd5b614c12856149b6565b9350614c20602086016149b6565b9250614c2e60408601614a9f565b9150614c3c60608601614a9f565b905092959194509250565b5f5b83811015614c61578181015183820152602001614c49565b50505f910152565b5f8151808452614c80816020860160208601614c47565b601f017fffffffffffffffffffffffffffffffffffffffffffffffffffffffffffffffe0169290920160200192915050565b602081525f6120cc6020830184614c69565b803567ffffffffffffffff8116811461431a575f80fd5b5f805f805f60a08688031215614cef575f80fd5b614cf8866149b6565b9450614d0660208701614a9f565b935060408601359250614d1b60608701614cc4565b949793965091946080013592915050565b803561ffff8116811461431a575f80fd5b5f805f8060808587031215614d50575f80fd5b614d59856149b6565b9350614d67602086016149b6565b925060408501359150614c3c60608601614d2c565b5f8060408385031215614d8d575f80fd5b614d96836149b6565b9150614b4060208401614a9f565b5f60208284031215614db4575f80fd5b6120cc826149b6565b5f805f60608486031215614dcf575f80fd5b614dd8846149b6565b9250614de660208501614a9f565b9150604084013590509250925092565b5f60208284031215614e06575f80fd5b6120cc82614a9f565b5f805f805f805f805f805f806101208d8f031215614e2b575f80fd5b614e348d6149b6565b9b50614e4260208e016149b6565b9a5060408d01359950614e5760608e01614d2c565b985060808d0135975060a08d0135965067ffffffffffffffff60c08e01351115614e7f575f80fd5b614e8f8e60c08f01358f016149cc565b909650945067ffffffffffffffff60e08e01351115614eac575f80fd5b614ebc8e60e08f01358f016149cc565b909450925067ffffffffffffffff6101008e01351115614eda575f80fd5b614eeb8e6101008f01358f016149cc565b81935080925050509295989b509295989b509295989b565b5f805f805f805f805f805f6101408c8e031215614f1e575f80fd5b614f288d8d6149a0565b9a50614f3660608d016149b6565b995060808c0135985060a08c0135975060c08c0135965067ffffffffffffffff8060e08e01351115614f66575f80fd5b614f768e60e08f01358f016149cc565b90975095506101008d0135811015614f8c575f80fd5b614f9d8e6101008f01358f016149cc565b90955093506101208d0135811015614fb3575f80fd5b50614fc58d6101208e01358e016149cc565b81935080925050509295989b509295989b9093969950565b5f805f8060608587031215614ff0575f80fd5b614ff9856149b6565b9350615007602086016149b6565b9250604085013567ffffffffffffffff80821115615023575f80fd5b818701915087601f830112615036575f80fd5b813581811115615044575f80fd5b8860208260051b8501011115615058575f80fd5b95989497505060200194505050565b5f805f805f6080868803121561507b575f80fd5b615084866149b6565b94506020860135935061509960408701614d2c565b9250606086013567ffffffffffffffff811115614bd9575f80fd5b5f80608083850312156150c5575f80fd5b6150cf84846149a0565b9150614b40606084016149b6565b602080825282518282018190525f9190848201906040850190845b8181101561511d5783516001600160a01b0316835292840192918401916001016150f8565b50909695505050505050565b5f805f805f805f8060c0898b031215615140575f80fd5b615149896149b6565b975061515760208a016149b6565b96506040890135955061516c60608a01614d2c565b9450608089013567ffffffffffffffff80821115615188575f80fd5b6151948c838d016149cc565b909650945060a08b01359150808211156151ac575f80fd5b506151b98b828c016149cc565b999c989b5096995094979396929594505050565b5f805f606084860312156151df575f80fd5b6151e8846149b6565b92506151f660208501614a9f565b9150615204604085016149b6565b90509250925092565b5f805f6060848603121561521f575f80fd5b61522884614a9f565b9250614de6602085016149b6565b5f805f60608486031215615248575f80fd5b615228846149b6565b5f805f60a08486031215615263575f80fd5b61526d85856149a0565b925061527b606085016149b6565b9150608084013590509250925092565b5f806040838503121561529c575f80fd5b614b3283614a9f565b5f805f80608085870312156152b8575f80fd5b6152c1856149b6565b93506152cf60208601614a9f565b925060408501359150614c3c60608601614cc4565b8151815260208083015190820152604081016118aa565b5f6020828403121561530b575f80fd5b6120cc82614cc4565b838152818360208301375f910160200190815292915050565b63ffffffff61533b82614a9f565b1682526020810135602083015267ffffffffffffffff61535d60408301614cc4565b1660408301525050565b81835281816020850137505f602082840101525f60207fffffffffffffffffffffffffffffffffffffffffffffffffffffffffffffffe0601f840116840101905092915050565b6153b8818961532d565b86606082015260e060808201525f6153d460e083018789615367565b6001600160a01b03861660a084015282810360c08401526153f6818587615367565b9a9950505050505050505050565b60808101615412828561532d565b6001600160a01b03831660608301529392505050565b7f4e487b71000000000000000000000000000000000000000000000000000000005f52602160045260245ffd5b5f60208284031215615465575f80fd5b8151600381106120cc575f80fd5b80151581146131c0575f80fd5b5f60208284031215615490575f80fd5b81516120cc81615473565b5f602082840312156154ab575f80fd5b81356120cc81615473565b7f4e487b71000000000000000000000000000000000000000000000000000000005f52604160045260245ffd5b5f82601f8301126154f2575f80fd5b815167ffffffffffffffff8082111561550d5761550d6154b6565b604051601f83017fffffffffffffffffffffffffffffffffffffffffffffffffffffffffffffffe0908116603f01168101908282118183101715615553576155536154b6565b8160405283815286602085880101111561556b575f80fd5b611442846020830160208901614c47565b5f6020828403121561558c575f80fd5b815167ffffffffffffffff8111156155a2575f80fd5b612744848285016154e3565b8a815261ffff8a16602082015288604082015287606082015260e060808201525f6155dd60e08301888a615367565b82810360a08401526155f0818789615367565b905082810360c0840152615605818587615367565b9d9c50505050505050505050505050565b7f4e487b71000000000000000000000000000000000000000000000000000000005f52601160045260245ffd5b808201808211156118aa576118aa615616565b5f610120615664838e61532d565b8b60608401528a60808401528960a08401528060c0840152615689818401898b615367565b905082810360e084015261569e818789615367565b9050828103610100840152615605818587615367565b5f60408083016001600160a01b03871684526020604081860152818683526060925060608601905060608760051b870101885f5b898110156157ef577fffffffffffffffffffffffffffffffffffffffffffffffffffffffffffffffa089840301845281357fffffffffffffffffffffffffffffffffffffffffffffffffffffffffffffffa18c3603018112615748575f80fd5b8b0163ffffffff8061575983614a9f565b16855280615768888401614a9f565b168786015250878101357fffffffffffffffffffffffffffffffffffffffffffffffffffffffffffffffe18236030181126157a1575f80fd5b01858101903567ffffffffffffffff8111156157bb575f80fd5b8036038213156157c9575f80fd5b87898601526157db8886018284615367565b9587019594505050908401906001016156e8565b50909a9950505050505050505050565b818382375f9101908152919050565b5f6001600160a01b03808916835280881660208401525085604083015261ffff8516606083015260a0608083015261584a60a083018486615367565b98975050505050505050565b5f6001600160a01b03808a16835288602084015260a0604084015261587f60a08401888a615367565b8187166060850152838103608085015261589a818688615367565b9b9a5050505050505050505050565b60a081016158b7828661532d565b6001600160a01b0393909316606082015260800152919050565b67ffffffffffffffff818116838216019080821115614b8457614b84615616565b5f8083357fffffffffffffffffffffffffffffffffffffffffffffffffffffffffffffffe1843603018112615925575f80fd5b83018035915067ffffffffffffffff82111561593f575f80fd5b6020019150368190038213156116ae575f80fd5b6060815267ffffffffffffffff855116606082015263ffffffff60208601511660808201526001600160a01b0360408601511660a08201525f60608601516159a360c084018263ffffffff169052565b50608086015160e083015260a086015161010083015260c086015160e06101208401526159d4610140840182614c69565b905082810360208401526159e9818688615367565b915050612dfe604083018415159052565b5f60408284031215615a0a575f80fd5b6040516040810181811067ffffffffffffffff82111715615a2d57615a2d6154b6565b604052825181526020928301519281019290925250919050565b5f60408284031215615a57575f80fd5b6120cc83836159fa565b5f8060608385031215615a72575f80fd5b615a7c84846159fa565b9150604083015167ffffffffffffffff811115615a97575f80fd5b615aa3858286016154e3565b9150509250929050565b606081525f615abf6060830187614c69565b8281036020840152615ad2818688615367565b9150506001600160a01b038316604083015295945050505050565b5f60208284031215615afd575f80fd5b5051919050565b606081016118aa828461532d56fea2646970667358221220c11c94e8f9b4cc756f66f2f367db0cf185965b289d04450cf67954c434076a3164736f6c63430008160033608060405234801561000f575f80fd5b506102648061001d5f395ff3fe608060405234801561000f575f80fd5b506004361061004a575f3560e01c806301ffc9a71461007c5780631881d94d146100a457806354fd4d50146100b35780636750cd4c146100da575b6040517f2657b6c300000000000000000000000000000000000000000000000000000000815260040160405180910390fd5b61008f61008a366004610186565b6100ee565b60405190151581526020015b60405180910390f35b600260405161009b91906101cc565b6040805167ffffffffffffffff815260ff602082015260029181019190915260600161009b565b61008f6100e836600461020b565b50600190565b5f7fffffffff0000000000000000000000000000000000000000000000000000000082167f97f0258400000000000000000000000000000000000000000000000000000000148061018057507f01ffc9a7000000000000000000000000000000000000000000000000000000007fffffffff000000000000000000000000000000000000000000000000000000008316145b92915050565b5f60208284031215610196575f80fd5b81357fffffffff00000000000000000000000000000000000000000000000000000000811681146101c5575f80fd5b9392505050565b6020810160038310610205577f4e487b71000000000000000000000000000000000000000000000000000000005f52602160045260245ffd5b91905290565b5f6020828403121561021b575f80fd5b813563ffffffff811681146101c5575f80fdfea2646970667358221220d9a9adf2f781e065dbef7f0e24d2766ff52ab57735a4534a4306ee34eadacace64736f6c63430008160033","linkReferences":{}},"methodIdentifiers":{"EMPTY_PAYLOAD_HASH()":"cb5026b9","NIL_PAYLOAD_HASH()":"2baf0be7","blockedLibrary()":"73318091","burn(address,uint32,bytes32,uint64,bytes32)":"40f80683","clear(address,(uint32,bytes32,uint64),bytes32,bytes)":"2a56c1b0","composeQueue(address,address,bytes32,uint16)":"35d330b0","defaultReceiveLibrary(uint32)":"6f50a803","defaultReceiveLibraryTimeout(uint32)":"6e83f5bb","defaultSendLibrary(uint32)":"f64be4c7","delegates(address)":"587cde1e","eid()":"416ecebf","getConfig(address,address,uint32,uint32)":"2b3197b9","getReceiveLibrary(address,uint32)":"402f8468","getRegisteredLibraries()":"9132e5c3","getSendContext()":"14f651a9","getSendLibrary(address,uint32)":"b96a277f","inboundNonce(address,uint32,bytes32)":"a0dd43fc","inboundPayloadHash(address,uint32,bytes32,uint64)":"c9fc7bcd","initializable((uint32,bytes32,uint64),address)":"861e1ca5","isDefaultSendLibrary(address,uint32)":"dc93c8a2","isRegisteredLibrary(address)":"dc706a62","isSendingMessage()":"79624ca9","isSupportedEid(uint32)":"6750cd4c","isValidReceiveLibrary(address,uint32,address)":"9d7f9775","lazyInboundNonce(address,uint32,bytes32)":"5b17bb70","lzCompose(address,address,bytes32,uint16,bytes,bytes)":"91d20fa1","lzComposeAlert(address,address,bytes32,uint16,uint256,uint256,bytes,bytes,bytes)":"697fe6b6","lzReceive((uint32,bytes32,uint64),address,bytes32,bytes,bytes)":"0c0c389e","lzReceiveAlert((uint32,bytes32,uint64),address,bytes32,uint256,uint256,bytes,bytes,bytes)":"6bf73fa3","lzToken()":"e4fe1d94","nativeToken()":"e1758bd8","nextGuid(address,uint32,bytes32)":"aafe5e07","nilify(address,uint32,bytes32,uint64,bytes32)":"2e80fbf3","outboundNonce(address,uint32,bytes32)":"9c6d7340","owner()":"8da5cb5b","quote((uint32,bytes32,bytes,bytes,bool),address)":"ddc28c58","receiveLibraryTimeout(address,uint32)":"ef667aa1","recoverToken(address,address,uint256)":"a7229fd9","registerLibrary(address)":"e8964e81","renounceOwnership()":"715018a6","send((uint32,bytes32,bytes,bytes,bool),address)":"2637a450","sendCompose(address,bytes32,uint16,bytes)":"7cb59012","setConfig(address,address,(uint32,uint32,bytes)[])":"6dbd9f90","setDefaultReceiveLibrary(uint32,address,uint256)":"a718531b","setDefaultReceiveLibraryTimeout(uint32,address,uint256)":"d4b4ec8f","setDefaultSendLibrary(uint32,address)":"aafea312","setDelegate(address)":"ca5eb5e1","setLzToken(address)":"c28e0eed","setReceiveLibrary(address,uint32,address,uint256)":"6a14d715","setReceiveLibraryTimeout(address,uint32,address,uint256)":"183c834f","setSendLibrary(address,uint32,address)":"9535ff30","skip(address,uint32,bytes32,uint64)":"d70b8902","transferOwnership(address)":"f2fde38b","verifiable((uint32,bytes32,uint64),address)":"c9a54a99","verify((uint32,bytes32,uint64),address,bytes32)":"a825d747"},"id":82}