{
  "_format": "hh-sol-artifact-1",
  "contractName": "HyperCoreAdapter",
  "sourceName": "@layerzerolabs/oft-hyperliquid-evm/contracts/HyperCoreAdapter.sol",
  "abi": [
    {
      "inputs": [
        {
          "internalType": "address",
          "name": "_endpoint",
          "type": "address"
        },
        {
          "internalType": "address",
          "name": "_oft",
          "type": "address"
        },
        {
          "internalType": "uint64",
          "name": "_coreIndexId",
          "type": "uint64"
        },
        {
          "internalType": "uint256",
          "name": "_weiDiff",
          "type": "uint256"
        }
      ],
      "stateMutability": "nonpayable",
      "type": "constructor"
    },
    {
      "inputs": [
        {
          "internalType": "bytes",
          "name": "message",
          "type": "bytes"
        },
        {
          "internalType": "uint256",
          "name": "length",
          "type": "uint256"
        }
      ],
      "name": "HyperLiquidComposer_Codec_InvalidMessage_UnexpectedLength",
      "type": "error"
    },
    {
      "inputs": [
        {
          "internalType": "address",
          "name": "_notEndpointAddress",
          "type": "address"
        }
      ],
      "name": "HyperLiquidComposer_InvalidCall_NotEndpoint",
      "type": "error"
    },
    {
      "inputs": [
        {
          "internalType": "address",
          "name": "_internalOFTAddress",
          "type": "address"
        },
        {
          "internalType": "address",
          "name": "_receivedOFTAddress",
          "type": "address"
        }
      ],
      "name": "HyperLiquidComposer_InvalidCall_NotOFT",
      "type": "error"
    },
    {
      "inputs": [
        {
          "internalType": "address",
          "name": "_oft",
          "type": "address"
        },
        {
          "internalType": "address",
          "name": "_token",
          "type": "address"
        }
      ],
      "name": "HyperLiquidComposer_InvalidCall_TokenDoesNotSupportExtension",
      "type": "error"
    },
    {
      "inputs": [],
      "name": "HYPER_CORE_INDEX_ID",
      "outputs": [
        {
          "internalType": "uint64",
          "name": "",
          "type": "uint64"
        }
      ],
      "stateMutability": "view",
      "type": "function"
    },
    {
      "inputs": [],
      "name": "HYPER_CORE_INDEX_ID_DECIMAL_DIFF",
      "outputs": [
        {
          "internalType": "uint256",
          "name": "",
          "type": "uint256"
        }
      ],
      "stateMutability": "view",
      "type": "function"
    },
    {
      "inputs": [],
      "name": "HYPE_ASSET_BRIDGE_ADDRESS",
      "outputs": [
        {
          "internalType": "address payable",
          "name": "",
          "type": "address"
        }
      ],
      "stateMutability": "view",
      "type": "function"
    },
    {
      "inputs": [],
      "name": "L1WritePrecompileAddress",
      "outputs": [
        {
          "internalType": "address",
          "name": "",
          "type": "address"
        }
      ],
      "stateMutability": "view",
      "type": "function"
    },
    {
      "inputs": [],
      "name": "OFT_TOKEN_ASSET_BRIDGE_ADDRESS",
      "outputs": [
        {
          "internalType": "address",
          "name": "",
          "type": "address"
        }
      ],
      "stateMutability": "view",
      "type": "function"
    },
    {
      "inputs": [],
      "name": "OFT_TOKEN_CORE_INDEX_ID",
      "outputs": [
        {
          "internalType": "uint64",
          "name": "",
          "type": "uint64"
        }
      ],
      "stateMutability": "view",
      "type": "function"
    },
    {
      "inputs": [],
      "name": "endpoint",
      "outputs": [
        {
          "internalType": "address",
          "name": "",
          "type": "address"
        }
      ],
      "stateMutability": "view",
      "type": "function"
    },
    {
      "inputs": [
        {
          "internalType": "address",
          "name": "_oft",
          "type": "address"
        },
        {
          "internalType": "bytes32",
          "name": "",
          "type": "bytes32"
        },
        {
          "internalType": "bytes",
          "name": "_message",
          "type": "bytes"
        },
        {
          "internalType": "address",
          "name": "",
          "type": "address"
        },
        {
          "internalType": "bytes",
          "name": "",
          "type": "bytes"
        }
      ],
      "name": "lzCompose",
      "outputs": [],
      "stateMutability": "payable",
      "type": "function"
    },
    {
      "inputs": [],
      "name": "oft",
      "outputs": [
        {
          "internalType": "contract IOFT",
          "name": "",
          "type": "address"
        }
      ],
      "stateMutability": "view",
      "type": "function"
    },
    {
      "inputs": [],
      "name": "token",
      "outputs": [
        {
          "internalType": "contract IERC20",
          "name": "",
          "type": "address"
        }
      ],
      "stateMutability": "view",
      "type": "function"
    },
    {
      "inputs": [],
      "name": "weiDiff",
      "outputs": [
        {
          "internalType": "uint256",
          "name": "",
          "type": "uint256"
        }
      ],
      "stateMutability": "view",
      "type": "function"
    },
    {
      "stateMutability": "payable",
      "type": "receive"
    }
  ],
  "bytecode": "0x61014060405234801561001157600080fd5b50604051610d0b380380610d0b8339810160408190526100309161011c565b6001600160a01b03831660e081905260408051637e062a3560e11b8152905163fc0c546a916004808201926020929091908290030181865afa15801561007a573d6000803e3d6000fd5b505050506040513d601f19601f8201168201806040525081019061009e9190610176565b6001600160a01b0390811661010052841660c0526100c46001600160401b0383166100ea565b6001600160a01b03166080526001600160401b0390911660a05261012052506101b99050565b60006100fa826001609d1b610198565b92915050565b80516001600160a01b038116811461011757600080fd5b919050565b6000806000806080858703121561013257600080fd5b61013b85610100565b935061014960208601610100565b60408601519093506001600160401b038116811461016657600080fd5b6060959095015193969295505050565b60006020828403121561018857600080fd5b61019182610100565b9392505050565b808201808211156100fa57634e487b7160e01b600052601160045260246000fd5b60805160a05160c05160e0516101005161012051610ad36102386000396000818160f2015261066601526000818161029601526105b701526000818161023801528181610314015261035801526000818161017401526102c301526000818161020401526106420152600081816101d001526105880152610ad36000f3fe6080604052600436106100a05760003560e01c8063841233051161006457806384123305146101be5780639a923b9a146101f25780639b5215f614610226578063d0a102601461025a578063dd4c07c81461026f578063fc0c546a1461028457600080fd5b80630813f32f146100ac578063303f1e81146100e057806355cd1378146101225780635e280f11146101625780636e3bf0ad1461019657600080fd5b366100a757005b600080fd5b3480156100b857600080fd5b506100c261045181565b60405167ffffffffffffffff90911681526020015b60405180910390f35b3480156100ec57600080fd5b506101147f000000000000000000000000000000000000000000000000000000000000000081565b6040519081526020016100d7565b34801561012e57600080fd5b5061014a73333333333333333333333333333333333333333381565b6040516001600160a01b0390911681526020016100d7565b34801561016e57600080fd5b5061014a7f000000000000000000000000000000000000000000000000000000000000000081565b3480156101a257600080fd5b5061014a73222222222222222222222222222222222222222281565b3480156101ca57600080fd5b5061014a7f000000000000000000000000000000000000000000000000000000000000000081565b3480156101fe57600080fd5b506100c27f000000000000000000000000000000000000000000000000000000000000000081565b34801561023257600080fd5b5061014a7f000000000000000000000000000000000000000000000000000000000000000081565b61026d6102683660046107dc565b6102b8565b005b34801561027b57600080fd5b50610114600a81565b34801561029057600080fd5b5061014a7f000000000000000000000000000000000000000000000000000000000000000081565b336001600160a01b037f000000000000000000000000000000000000000000000000000000000000000016146103085760405163eee35e6f60e01b81523360048201526024015b60405180910390fd5b866001600160a01b03167f00000000000000000000000000000000000000000000000000000000000000006001600160a01b03161461038d5760405163021bfb8360e61b81526001600160a01b037f000000000000000000000000000000000000000000000000000000000000000081166004830152881660248201526044016102ff565b60008061039a87876103c4565b909250905034156103af576103af823461041d565b6103b98282610571565b505050505050505050565b60008060006103d3858561070a565b905060148151146103fb5780516040516309b3473160e01b81526102ff91839160040161087a565b610404816108cf565b60601c92506104138585610757565b9150509250929050565b6040516000907322222222222222222222222222222222222222229083908381818185875af1925050503d8060008114610473576040519150601f19603f3d011682016040523d82523d6000602084013e610478565b606091505b50509050806104c95760405162461bcd60e51b815260206004820181905260248201527f4661696c656420746f2073656e64204859504520746f204879706572436f726560448201526064016102ff565b733333333333333333333333333333333333333333630b0ac0ab846104516104f2600a80610a05565b6104fc9087610a11565b6040516001600160e01b031960e086901b1681526001600160a01b03909316600484015267ffffffffffffffff9182166024840152166044820152606401600060405180830381600087803b15801561055457600080fd5b505af1158015610568573d6000803e3d6000fd5b50505050505050565b60405163a9059cbb60e01b81526001600160a01b037f000000000000000000000000000000000000000000000000000000000000000081166004830152602482018390527f0000000000000000000000000000000000000000000000000000000000000000169063a9059cbb906044016020604051808303816000875af1158015610600573d6000803e3d6000fd5b505050506040513d601f19601f820116820180604052508101906106249190610a33565b50733333333333333333333333333333333333333333630b0ac0ab837f000000000000000000000000000000000000000000000000000000000000000061068c7f0000000000000000000000000000000000000000000000000000000000000000600a610a05565b6106969086610a11565b6040516001600160e01b031960e086901b1681526001600160a01b03909316600484015267ffffffffffffffff9182166024840152166044820152606401600060405180830381600087803b1580156106ee57600080fd5b505af1158015610702573d6000803e3d6000fd5b505050505050565b606061071982604c8186610a55565b8080601f0160208091040260200160405190810160405280939291908181526020018383808284376000920191909152509293505050505b92915050565b6000610767602c600c8486610a55565b61077091610a7f565b9392505050565b80356001600160a01b038116811461078e57600080fd5b919050565b60008083601f8401126107a557600080fd5b50813567ffffffffffffffff8111156107bd57600080fd5b6020830191508360208285010111156107d557600080fd5b9250929050565b600080600080600080600060a0888a0312156107f757600080fd5b61080088610777565b965060208801359550604088013567ffffffffffffffff8082111561082457600080fd5b6108308b838c01610793565b909750955085915061084460608b01610777565b945060808a013591508082111561085a57600080fd5b506108678a828b01610793565b989b979a50959850939692959293505050565b604081526000835180604084015260005b818110156108a8576020818701810151606086840101520161088b565b506000606082850101526060601f19601f8301168401019150508260208301529392505050565b805160208201516bffffffffffffffffffffffff1980821692919060148310156109035780818460140360031b1b83161693505b505050919050565b634e487b7160e01b600052601160045260246000fd5b600181815b8085111561095c5781600019048211156109425761094261090b565b8085161561094f57918102915b93841c9390800290610926565b509250929050565b60008261097357506001610751565b8161098057506000610751565b816001811461099657600281146109a0576109bc565b6001915050610751565b60ff8411156109b1576109b161090b565b50506001821b610751565b5060208310610133831016604e8410600b84101617156109df575081810a610751565b6109e98383610921565b80600019048211156109fd576109fd61090b565b029392505050565b60006107708383610964565b600082610a2e57634e487b7160e01b600052601260045260246000fd5b500490565b600060208284031215610a4557600080fd5b8151801515811461077057600080fd5b60008085851115610a6557600080fd5b83861115610a7257600080fd5b5050820193919092039150565b8035602083101561075157600019602084900360031b1b169291505056fea264697066735822122033333d1e64ae7d2fd6e6d47babe84e4ec0d0e5c28cb9884e436e8455907fd3d764736f6c63430008160033",
  "linkReferences": {},
  "deployedLinkReferences": {}
}