{
  "abi": [
    {
      "type": "constructor",
      "inputs": [
        {
          "name": "_endpoint",
          "type": "address",
          "internalType": "address"
        },
        {
          "name": "_counter",
          "type": "address",
          "internalType": "address"
        }
      ],
      "stateMutability": "nonpayable"
    },
    {
      "type": "function",
      "name": "buildSimulationResult",
      "inputs": [],
      "outputs": [
        {
          "name": "",
          "type": "bytes",
          "internalType": "bytes"
        }
      ],
      "stateMutability": "view"
    },
    {
      "type": "function",
      "name": "getConfig",
      "inputs": [
        {
          "name": "_packets",
          "type": "bytes[]",
          "internalType": "bytes[]"
        },
        {
          "name": "_packetMsgValues",
          "type": "uint256[]",
          "internalType": "uint256[]"
        }
      ],
      "outputs": [
        {
          "name": "",
          "type": "bytes",
          "internalType": "bytes"
        }
      ],
      "stateMutability": "nonpayable"
    },
    {
      "type": "function",
      "name": "getPreCrimePeers",
      "inputs": [],
      "outputs": [
        {
          "name": "",
          "type": "tuple[]",
          "internalType": "struct PreCrimePeer[]",
          "components": [
            {
              "name": "eid",
              "type": "uint32",
              "internalType": "uint32"
            },
            {
              "name": "preCrime",
              "type": "bytes32",
              "internalType": "bytes32"
            },
            {
              "name": "oApp",
              "type": "bytes32",
              "internalType": "bytes32"
            }
          ]
        }
      ],
      "stateMutability": "view"
    },
    {
      "type": "function",
      "name": "intialize",
      "inputs": [
        {
          "name": "_delegate",
          "type": "address",
          "internalType": "address"
        }
      ],
      "outputs": [],
      "stateMutability": "nonpayable"
    },
    {
      "type": "function",
      "name": "maxBatchSize",
      "inputs": [],
      "outputs": [
        {
          "name": "",
          "type": "uint64",
          "internalType": "uint64"
        }
      ],
      "stateMutability": "view"
    },
    {
      "type": "function",
      "name": "oApp",
      "inputs": [],
      "outputs": [
        {
          "name": "",
          "type": "address",
          "internalType": "address"
        }
      ],
      "stateMutability": "view"
    },
    {
      "type": "function",
      "name": "owner",
      "inputs": [],
      "outputs": [
        {
          "name": "",
          "type": "address",
          "internalType": "address"
        }
      ],
      "stateMutability": "view"
    },
    {
      "type": "function",
      "name": "preCrime",
      "inputs": [
        {
          "name": "_packets",
          "type": "bytes[]",
          "internalType": "bytes[]"
        },
        {
          "name": "_packetMsgValues",
          "type": "uint256[]",
          "internalType": "uint256[]"
        },
        {
          "name": "_simulations",
          "type": "bytes[]",
          "internalType": "bytes[]"
        }
      ],
      "outputs": [],
      "stateMutability": "nonpayable"
    },
    {
      "type": "function",
      "name": "renounceOwnership",
      "inputs": [],
      "outputs": [],
      "stateMutability": "nonpayable"
    },
    {
      "type": "function",
      "name": "setMaxBatchSize",
      "inputs": [
        {
          "name": "_maxBatchSize",
          "type": "uint64",
          "internalType": "uint64"
        }
      ],
      "outputs": [],
      "stateMutability": "nonpayable"
    },
    {
      "type": "function",
      "name": "setPreCrimePeers",
      "inputs": [
        {
          "name": "_preCrimePeers",
          "type": "tuple[]",
          "internalType": "struct PreCrimePeer[]",
          "components": [
            {
              "name": "eid",
              "type": "uint32",
              "internalType": "uint32"
            },
            {
              "name": "preCrime",
              "type": "bytes32",
              "internalType": "bytes32"
            },
            {
              "name": "oApp",
              "type": "bytes32",
              "internalType": "bytes32"
            }
          ]
        }
      ],
      "outputs": [],
      "stateMutability": "nonpayable"
    },
    {
      "type": "function",
      "name": "simulate",
      "inputs": [
        {
          "name": "_packets",
          "type": "bytes[]",
          "internalType": "bytes[]"
        },
        {
          "name": "_packetMsgValues",
          "type": "uint256[]",
          "internalType": "uint256[]"
        }
      ],
      "outputs": [
        {
          "name": "",
          "type": "bytes",
          "internalType": "bytes"
        }
      ],
      "stateMutability": "payable"
    },
    {
      "type": "function",
      "name": "simulator",
      "inputs": [],
      "outputs": [
        {
          "name": "",
          "type": "address",
          "internalType": "address"
        }
      ],
      "stateMutability": "view"
    },
    {
      "type": "function",
      "name": "transferOwnership",
      "inputs": [
        {
          "name": "newOwner",
          "type": "address",
          "internalType": "address"
        }
      ],
      "outputs": [],
      "stateMutability": "nonpayable"
    },
    {
      "type": "function",
      "name": "version",
      "inputs": [],
      "outputs": [
        {
          "name": "major",
          "type": "uint64",
          "internalType": "uint64"
        },
        {
          "name": "minor",
          "type": "uint8",
          "internalType": "uint8"
        }
      ],
      "stateMutability": "pure"
    },
    {
      "type": "event",
      "name": "Initialized",
      "inputs": [
        {
          "name": "version",
          "type": "uint64",
          "indexed": false,
          "internalType": "uint64"
        }
      ],
      "anonymous": false
    },
    {
      "type": "event",
      "name": "OwnershipTransferred",
      "inputs": [
        {
          "name": "previousOwner",
          "type": "address",
          "indexed": true,
          "internalType": "address"
        },
        {
          "name": "newOwner",
          "type": "address",
          "indexed": true,
          "internalType": "address"
        }
      ],
      "anonymous": false
    },
    {
      "type": "error",
      "name": "CrimeFound",
      "inputs": [
        {
          "name": "crime",
          "type": "bytes",
          "internalType": "bytes"
        }
      ]
    },
    {
      "type": "error",
      "name": "InvalidInitialization",
      "inputs": []
    },
    {
      "type": "error",
      "name": "InvalidSimulationResult",
      "inputs": [
        {
          "name": "eid",
          "type": "uint32",
          "internalType": "uint32"
        },
        {
          "name": "reason",
          "type": "bytes",
          "internalType": "bytes"
        }
      ]
    },
    {
      "type": "error",
      "name": "NotInitializing",
      "inputs": []
    },
    {
      "type": "error",
      "name": "OnlyOffChain",
      "inputs": []
    },
    {
      "type": "error",
      "name": "OwnableInvalidOwner",
      "inputs": [
        {
          "name": "owner",
          "type": "address",
          "internalType": "address"
        }
      ]
    },
    {
      "type": "error",
      "name": "OwnableUnauthorizedAccount",
      "inputs": [
        {
          "name": "account",
          "type": "address",
          "internalType": "address"
        }
      ]
    },
    {
      "type": "error",
      "name": "PacketOversize",
      "inputs": [
        {
          "name": "max",
          "type": "uint256",
          "internalType": "uint256"
        },
        {
          "name": "actual",
          "type": "uint256",
          "internalType": "uint256"
        }
      ]
    },
    {
      "type": "error",
      "name": "PacketUnsorted",
      "inputs": []
    },
    {
      "type": "error",
      "name": "SimulationFailed",
      "inputs": [
        {
          "name": "reason",
          "type": "bytes",
          "internalType": "bytes"
        }
      ]
    },
    {
      "type": "error",
      "name": "SimulationResultNotFound",
      "inputs": [
        {
          "name": "eid",
          "type": "uint32",
          "internalType": "uint32"
        }
      ]
    }
  ],
  "bytecode": {
    "object": "0x60e06040523480156200001157600080fd5b50604051620027f2380380620027f28339810160408190526200003491620000e5565b6001600160a01b03808316608052811660a0819052604080516352ae287960e01b815290518492849290916352ae2879916004808201926020929091908290030181865afa1580156200008b573d6000803e3d6000fd5b505050506040513d601f19601f82011682018060405250810190620000b191906200011d565b6001600160a01b031660c052506200014292505050565b80516001600160a01b0381168114620000e057600080fd5b919050565b60008060408385031215620000f957600080fd5b6200010483620000c8565b91506200011460208401620000c8565b90509250929050565b6000602082840312156200013057600080fd5b6200013b82620000c8565b9392505050565b60805160a05160c05161265d620001956000396000818161017b01526118680152600081816102b2015281816105cb0152818161108d01526111a401526000818161172f01526118a6015261265d6000f3fe6080604052600436106100e85760003560e01c80638e9e70991161008a578063bf7b5d7a11610059578063bf7b5d7a146102a0578063f0cd3836146102d4578063f2fde38b146102f4578063f8bcddf61461031457600080fd5b80638e9e709914610229578063982f0d361461023e578063afea44ef1461025e578063b9a1f5e71461027e57600080fd5b806352ae2879116100c657806352ae28791461016957806354fd4d50146101b5578063715018a6146101d75780638da5cb5b146101ec57600080fd5b806310f9cf3a146100ed5780632913daa01461010f57806350dfa93714610149575b600080fd5b3480156100f957600080fd5b5061010d610108366004611d23565b610334565b005b34801561011b57600080fd5b50600080516020612608833981519152546040516001600160401b0390911681526020015b60405180910390f35b61015c610157366004611dbc565b610531565b6040516101409190611e77565b34801561017557600080fd5b5061019d7f000000000000000000000000000000000000000000000000000000000000000081565b6040516001600160a01b039091168152602001610140565b3480156101c157600080fd5b5060408051600281526000602082015201610140565b3480156101e357600080fd5b5061010d6105b3565b3480156101f857600080fd5b507f9016d09d72d40fdae2fd8ceac6b6234c7706214fd39c1cd1e609a0528c199300546001600160a01b031661019d565b34801561023557600080fd5b5061015c6105c7565b34801561024a57600080fd5b5061010d610259366004611e8a565b61080e565b34801561026a57600080fd5b5061010d610279366004611ec8565b61091c565b34801561028a57600080fd5b50610293610954565b6040516101409190611ee5565b3480156102ac57600080fd5b5061019d7f000000000000000000000000000000000000000000000000000000000000000081565b3480156102e057600080fd5b5061015c6102ef366004611dbc565b6109e5565b34801561030057600080fd5b5061010d61030f366004611e8a565b610bf1565b34801561032057600080fd5b5061010d61032f366004611f44565b610c34565b3361dead1461035657604051634e5ff03360e11b815260040160405180910390fd5b60006103968787878780806020026020016040519081016040528093929190818152602001838360200280828437600092019190915250610cc392505050565b90506000826001600160401b038111156103b2576103b2611fb8565b6040519080825280602002602001820160405280156103db578160200160208202803683370190505b5090506000836001600160401b038111156103f8576103f8611fb8565b60405190808252806020026020018201604052801561042b57816020015b60608152602001906001900390816104165790505b50905060005b848110156105105736600087878481811061044e5761044e611fce565b90506020028101906104609190611fe4565b909250905061047360046000838561202a565b61047c91612054565b60e01c85848151811061049157610491611fce565b63ffffffff909216602092830291909101909101526104b3816004818561202a565b8080601f01602080910402602001604051908101604052809392919081815260200183838082843760009201919091525050865187925086915081106104fb576104fb611fce565b60209081029190910101525050600101610431565b5061051b8383610dc3565b610526838383610e7e565b505050505050505050565b60603361dead1461055557604051634e5ff03360e11b815260040160405180910390fd5b60006105958686868680806020026020016040519081016040528093929190818152602001838360200280828437600092019190915250610cc392505050565b90506105a081610fdb565b6105a98161119d565b9695505050505050565b6105bb6112ac565b6105c56000611307565b565b60607f00000000000000000000000000000000000000000000000000000000000000008060006000805160206125e8833981519152546001600160401b0381111561061457610614611fb8565b60405190808252806020026020018201604052801561066f57816020015b61065c6040518060600160405280600063ffffffff16815260200160008152602001600081525090565b8152602001906001900390816106325790505b50905060005b6000805160206125e8833981519152548110156107e55760006000805160206125e883398151915282815481106106ae576106ae611fce565b600091825260209182902060039190910201546040805160608101825263ffffffff90921680835290516356a4728960e01b81526004810182905290935090918201906001600160a01b038716906356a4728990602401602060405180830381865afa158015610722573d6000803e3d6000fd5b505050506040513d601f19601f820116820180604052508101906107469190612084565b81526040516331178bfb60e11b815263ffffffff841660048201526020909101906001600160a01b0387169063622f17f690602401602060405180830381865afa158015610798573d6000803e3d6000fd5b505050506040513d601f19601f820116820180604052508101906107bc9190612084565b8152508383815181106107d1576107d1611fce565b602090810291909101015250600101610675565b50806040516020016107f79190611ee5565b604051602081830303815290604052935050505090565b7ff0c57e16840df040f15088dc2f81fe391c3923bec73e23a9662efc9c229c6a008054600160401b810460ff1615906001600160401b03166000811580156108535750825b90506000826001600160401b0316600114801561086f5750303b155b90508115801561087d575080155b1561089b5760405163f92ee8a960e01b815260040160405180910390fd5b845467ffffffffffffffff1916600117855583156108c557845460ff60401b1916600160401b1785555b6108ce86611378565b831561091457845460ff60401b19168555604051600181527fc7f505b2f371ae2175ee4913f4499e1f2633a7b5936321eed1cdaeb6115181d29060200160405180910390a15b505050505050565b6109246112ac565b600080516020612608833981519152805467ffffffffffffffff19166001600160401b0392909216919091179055565b606060006000805160206126088339815191526001810180546040805160208084028201810190925282815293945060009084015b828210156109db5760008481526020908190206040805160608101825260038602909201805463ffffffff16835260018082015484860152600290910154918301919091529083529092019101610989565b5050505091505090565b60603361dead14610a0957604051634e5ff03360e11b815260040160405180910390fd5b600080516020612608833981519152805460408051600160f11b602082015260c09290921b6001600160c01b03191660228301528051808303600a018152602a909201905260008615610aa157610a9c610a978989898980806020026020016040519081016040528093929190818152602001838360200280828437600092019190915250610cc392505050565b611389565b610b1c565b82600101805480602002602001604051908101604052809291908181526020016000905b82821015610b175760008481526020908190206040805160608101825260038602909201805463ffffffff16835260018082015484860152600290910154918301919091529083529092019101610ac5565b505050505b805190915015610be6578051604051610b3b908490839060200161209d565b604051602081830303815290604052925060005b8161ffff16811015610be35783838281518110610b6e57610b6e611fce565b602002602001015160000151848381518110610b8c57610b8c611fce565b602002602001015160200151858481518110610baa57610baa611fce565b602002602001015160400151604051602001610bc994939291906120cf565b60408051601f198184030181529190529350600101610b4f565b50505b509695505050505050565b610bf96112ac565b6001600160a01b038116610c2857604051631e4fbdf760e01b8152600060048201526024015b60405180910390fd5b610c3181611307565b50565b610c3c6112ac565b600080516020612608833981519152610c646000805160206125e88339815191526000611c33565b60005b82811015610cbd5781600101848483818110610c8557610c85611fce565b835460018101855560009485526020909420606090910292909201926003029091019050610cb38282612120565b5050600101610c67565b50505050565b6060826001600160401b03811115610cdd57610cdd611fb8565b604051908082528060200260200182016040528015610d1657816020015b610d03611c54565b815260200190600190039081610cfb5790505b50905060005b83811015610dbb57366000868684818110610d3957610d39611fce565b9050602002810190610d4b9190611fe4565b91509150610d598282611601565b848481518110610d6b57610d6b611fce565b6020026020010181905250848381518110610d8857610d88611fce565b6020026020010151848481518110610da257610da2611fce565b6020908102919091010151608001525050600101610d1c565b509392505050565b815115610e3f576000610dd583611389565b905060005b8151811015610e3c576000828281518110610df757610df7611fce565b6020026020010151600001519050610e0f84826116d4565b610e335760405162cc979560e11b815263ffffffff82166004820152602401610c1f565b50600101610dda565b50505b6000610e4961172b565b9050610e5582826116d4565b610e795760405162cc979560e11b815263ffffffff82166004820152602401610c1f565b505050565b6000610e8861172b565b9050606060005b8451811015610f00578263ffffffff16858281518110610eb157610eb1611fce565b602002602001015163ffffffff1603610ef857838181518110610ed657610ed6611fce565b6020026020010151806020019051810190610ef191906121af565b9150610f00565b600101610e8f565b5060005b8451811015610914576000858281518110610f2157610f21611fce565b602002602001015190506000858381518110610f3f57610f3f611fce565b6020026020010151806020019051810190610f5a91906121af565b90506000610f6885846117b4565b5090506000610f7783886117b4565b91505080821115610fcb57604051631915975760e01b815260206004820152601c60248201527f696e626f756e64436f756e74203e206f7574626f756e64436f756e74000000006044820152606401610c1f565b505060019092019150610f049050565b600080516020612608833981519152805482516001600160401b03909116101561102d5780548251604051639db0860560e01b81526001600160401b0390921660048301526024820152604401610c1f565b8151156111995760008080805b855181101561091457600086828151811061105757611057611fce565b60209081029190910181015180518051920151604051635a0dfe4d60e01b815263ffffffff9093166004840152602483015291507f00000000000000000000000000000000000000000000000000000000000000006001600160a01b031690635a0dfe4d90604401602060405180830381865afa1580156110dc573d6000803e3d6000fd5b505050506040513d601f19601f82011682018060405250810190611100919061228b565b61110a5750611191565b80515163ffffffff868116911614158061112957508051602001518414155b1561114a578051805160209091015190955093506111478585611851565b92505b611153836122c3565b9250826001600160401b03168160000151604001516001600160401b03161461118f576040516350823c8560e01b815260040160405180910390fd5b505b60010161103a565b5050565b60606000807f00000000000000000000000000000000000000000000000000000000000000006001600160a01b03163463bd815db060e01b866040516024016111e691906122e9565b60408051601f198184030181529181526020820180516001600160e01b03166001600160e01b03199094169390931790925290516112249190612411565b60006040518083038185875af1925050503d8060008114611261576040519150601f19603f3d011682016040523d82523d6000602084013e611266565b606091505b50915091506000611277838361191a565b905061128161172b565b8160405160200161129392919061242d565b6040516020818303038152906040529350505050919050565b336112de7f9016d09d72d40fdae2fd8ceac6b6234c7706214fd39c1cd1e609a0528c199300546001600160a01b031690565b6001600160a01b0316146105c55760405163118cdaa760e01b8152336004820152602401610c1f565b7f9016d09d72d40fdae2fd8ceac6b6234c7706214fd39c1cd1e609a0528c19930080546001600160a01b031981166001600160a01b03848116918217845560405192169182907f8be0079c531659141344cd1fd0a4f28419497f9722a3daafe3b4186f6b6457e090600090a3505050565b6113806119c2565b610c3181611a0b565b606060006000805160206125e8833981519152805480602002602001604051908101604052809291908181526020016000905b8282101561140e5760008481526020908190206040805160608101825260038602909201805463ffffffff168352600180820154848601526002909101549183019190915290835290920191016113bc565b505050509050600083516001600160401b0381111561142f5761142f611fb8565b60405190808252806020026020018201604052801561147a57816020015b604080516060810182526000808252602080830182905292820152825260001990920191018161144d5790505b50905060001960005b855181101561152e5760008682815181106114a0576114a0611fce565b60200260200101516000015160000151905060006114be8683611a13565b9050600081121580156114da575060006114d88684611a13565b125b1561152457836114e98161245f565b9450508581815181106114fe576114fe611fce565b602002602001015185858151811061151857611518611fce565b60200260200101819052505b5050600101611483565b50600081126115f957600061154482600161247e565b9050806001600160401b0381111561155e5761155e611fb8565b6040519080825280602002602001820160405280156115a957816020015b604080516060810182526000808252602080830182905292820152825260001990920191018161157c5790505b50945060005b818110156115f6578381815181106115c9576115c9611fce565b60200260200101518682815181106115e3576115e3611fce565b60209081029190910101526001016115af565b50505b505050919050565b611609611c54565b604051806060016040528061161e8585611a6a565b63ffffffff1681526020016116338585611a8d565b81526020016116428585611aa6565b6001600160401b0316905281526116598383611ac9565b63ffffffff16602082015261166e8383611ad9565b6001600160a01b031660408201526116868383611aeb565b60608201526116958383611afb565b8080601f01602080910402602001604051908101604052809392919081815260200183838082843760009201919091525050505060c082015292915050565b6000805b835181101561171f578263ffffffff168482815181106116fa576116fa611fce565b602002602001015163ffffffff1603611717576001915050611725565b6001016116d8565b50600090505b92915050565b60007f00000000000000000000000000000000000000000000000000000000000000006001600160a01b031663416ecebf6040518163ffffffff1660e01b8152600401602060405180830381865afa15801561178b573d6000803e3d6000fd5b505050506040513d601f19601f820116820180604052508101906117af9190612491565b905090565b60008060005b8451811015611841578363ffffffff168582815181106117dc576117dc611fce565b60200260200101516000015163ffffffff16036118395784818151811061180557611805611fce565b60200260200101516020015185828151811061182357611823611fce565b602002602001015160400151925092505061184a565b6001016117ba565b50600080915091505b9250929050565b60405163283750ff60e21b81526001600160a01b037f00000000000000000000000000000000000000000000000000000000000000008116600483015263ffffffff84166024830152604482018390526000917f00000000000000000000000000000000000000000000000000000000000000009091169063a0dd43fc90606401602060405180830381865afa1580156118ef573d6000803e3d6000fd5b505050506040513d601f19601f8201168201806040525081019061191391906124ae565b9392505050565b60608215611957576040516330a65ec560e11b81526020600482015260096024820152681b9bc81c995d995c9d60ba1b6044820152606401610c1f565b638351eea760e01b611968836124cb565b6001600160e01b0319161461199257816040516330a65ec560e11b8152600401610c1f9190611e77565b6119ac60048084516119a491906124fe565b849190611b16565b9050808060200190518101906119139190612511565b7ff0c57e16840df040f15088dc2f81fe391c3923bec73e23a9662efc9c229c6a0054600160401b900460ff166105c557604051631afcd79f60e31b815260040160405180910390fd5b610bf96119c2565b6000805b8351811015611a5f578263ffffffff16848281518110611a3957611a39611fce565b60200260200101516000015163ffffffff1603611a57579050611725565b600101611a17565b506000199392505050565b6000611a7a600d6009848661202a565b611a8391612054565b60e01c9392505050565b6000611a9d602d600d848661202a565b6119139161259b565b6000611ab660096001848661202a565b611abf916125b9565b60c01c9392505050565b6000611a7a6031602d848661202a565b6000611913611ae88484611c23565b90565b6000611a9d60716051848661202a565b366000611b0b836071818761202a565b915091509250929050565b606081611b2481601f61247e565b1015611b635760405162461bcd60e51b815260206004820152600e60248201526d736c6963655f6f766572666c6f7760901b6044820152606401610c1f565b611b6d828461247e565b84511015611bb15760405162461bcd60e51b8152602060048201526011602482015270736c6963655f6f75744f66426f756e647360781b6044820152606401610c1f565b606082158015611bd05760405191506000825260208201604052611c1a565b6040519150601f8416801560200281840101858101878315602002848b0101015b81831015611c09578051835260209283019201611bf1565b5050858452601f01601f1916604052505b50949350505050565b6000611a9d60516031848661202a565b5080546000825560030290600052602060002090810190610c319190611cb1565b6040805161016081018252600061010082018181526101208301829052610140830182905282526020820181905291810182905260608082018390526080820183905260a082019290925260c0810182905260e081019190915290565b5b80821115611cdb57805463ffffffff191681556000600182018190556002820155600301611cb2565b5090565b60008083601f840112611cf157600080fd5b5081356001600160401b03811115611d0857600080fd5b6020830191508360208260051b850101111561184a57600080fd5b60008060008060008060608789031215611d3c57600080fd5b86356001600160401b0380821115611d5357600080fd5b611d5f8a838b01611cdf565b90985096506020890135915080821115611d7857600080fd5b611d848a838b01611cdf565b90965094506040890135915080821115611d9d57600080fd5b50611daa89828a01611cdf565b979a9699509497509295939492505050565b60008060008060408587031215611dd257600080fd5b84356001600160401b0380821115611de957600080fd5b611df588838901611cdf565b90965094506020870135915080821115611e0e57600080fd5b50611e1b87828801611cdf565b95989497509550505050565b60005b83811015611e42578181015183820152602001611e2a565b50506000910152565b60008151808452611e63816020860160208601611e27565b601f01601f19169290920160200192915050565b6020815260006119136020830184611e4b565b600060208284031215611e9c57600080fd5b81356001600160a01b038116811461191357600080fd5b6001600160401b0381168114610c3157600080fd5b600060208284031215611eda57600080fd5b813561191381611eb3565b602080825282518282018190526000919060409081850190868401855b82811015611f37578151805163ffffffff16855286810151878601528501518585015260609093019290850190600101611f02565b5091979650505050505050565b60008060208385031215611f5757600080fd5b82356001600160401b0380821115611f6e57600080fd5b818501915085601f830112611f8257600080fd5b813581811115611f9157600080fd5b866020606083028501011115611fa657600080fd5b60209290920196919550909350505050565b634e487b7160e01b600052604160045260246000fd5b634e487b7160e01b600052603260045260246000fd5b6000808335601e19843603018112611ffb57600080fd5b8301803591506001600160401b0382111561201557600080fd5b60200191503681900382131561184a57600080fd5b6000808585111561203a57600080fd5b8386111561204757600080fd5b5050820193919092039150565b6001600160e01b0319813581811691600485101561207c5780818660040360031b1b83161692505b505092915050565b60006020828403121561209657600080fd5b5051919050565b600083516120af818460208801611e27565b60f09390931b6001600160f01b0319169190920190815260020192915050565b600085516120e1818460208a01611e27565b60e09590951b6001600160e01b031916919094019081526004810192909252602482015260440192915050565b63ffffffff81168114610c3157600080fd5b813561212b8161210e565b63ffffffff811663ffffffff198354161782555060208201356001820155604082013560028201555050565b604051606081016001600160401b038111828210171561217957612179611fb8565b60405290565b604051601f8201601f191681016001600160401b03811182821017156121a7576121a7611fb8565b604052919050565b600060208083850312156121c257600080fd5b82516001600160401b03808211156121d957600080fd5b818501915085601f8301126121ed57600080fd5b8151818111156121ff576121ff611fb8565b61220d848260051b0161217f565b8181528481019250606091820284018501918883111561222c57600080fd5b938501935b8285101561227f5780858a0312156122495760008081fd5b612251612157565b855161225c8161210e565b815285870151878201526040808701519082015284529384019392850192612231565b50979650505050505050565b60006020828403121561229d57600080fd5b8151801515811461191357600080fd5b634e487b7160e01b600052601160045260246000fd5b60006001600160401b038083168181036122df576122df6122ad565b6001019392505050565b600060208083018184528085518083526040925060408601915060408160051b87010184880160005b8381101561240357888303603f1901855281518051805163ffffffff168552602080820151908601526040908101516001600160401b0316908501526101408882015160606123688188018363ffffffff169052565b8984015191506080612384818901846001600160a01b03169052565b9084015160a0888101919091529084015160c08089019190915290840151915060e0906123bb828901846001600160a01b03169052565b840151610100880184905291506123d487840183611e4b565b9301518684036101208801529291506123ef90508183611e4b565b968901969450505090860190600101612312565b509098975050505050505050565b60008251612423818460208701611e27565b9190910192915050565b63ffffffff60e01b8360e01b16815260008251612451816004850160208701611e27565b919091016004019392505050565b60006001600160ff1b018201612477576124776122ad565b5060010190565b80820180821115611725576117256122ad565b6000602082840312156124a357600080fd5b81516119138161210e565b6000602082840312156124c057600080fd5b815161191381611eb3565b805160208201516001600160e01b031980821692919060048310156115f95760049290920360031b82901b161692915050565b81810381811115611725576117256122ad565b60006020828403121561252357600080fd5b81516001600160401b038082111561253a57600080fd5b818401915084601f83011261254e57600080fd5b81518181111561256057612560611fb8565b612573601f8201601f191660200161217f565b915080825285602082850101111561258a57600080fd5b611c1a816020840160208601611e27565b8035602083101561172557600019602084900360031b1b1692915050565b6001600160c01b0319813581811691600885101561207c5760089490940360031b84901b169092169291505056fe56af11d8938063b7ae95a808f88d40c589be3bbf4cb6facdbc642a7b38e01f0156af11d8938063b7ae95a808f88d40c589be3bbf4cb6facdbc642a7b38e01f00a264697066735822122066a0092dcfc581ba7e9775b4ef3fa56f24076bf5caddd8c46764379fbd724dae64736f6c63430008160033",
    "linkReferences": {}
  },
  "methodIdentifiers": {
    "buildSimulationResult()": "8e9e7099",
    "getConfig(bytes[],uint256[])": "f0cd3836",
    "getPreCrimePeers()": "b9a1f5e7",
    "intialize(address)": "982f0d36",
    "maxBatchSize()": "2913daa0",
    "oApp()": "52ae2879",
    "owner()": "8da5cb5b",
    "preCrime(bytes[],uint256[],bytes[])": "10f9cf3a",
    "renounceOwnership()": "715018a6",
    "setMaxBatchSize(uint64)": "afea44ef",
    "setPreCrimePeers((uint32,bytes32,bytes32)[])": "f8bcddf6",
    "simulate(bytes[],uint256[])": "50dfa937",
    "simulator()": "bf7b5d7a",
    "transferOwnership(address)": "f2fde38b",
    "version()": "54fd4d50"
  },
  "id": 4
}