{
  "_format": "hh-sol-artifact-1",
  "contractName": "MyHyperLiquidComposer",
  "sourceName": "contracts/MyHyperLiquidComposer.sol",
  "abi": [
    {
      "inputs": [
        {
          "internalType": "address",
          "name": "_lzEndpoint",
          "type": "address"
        },
        {
          "internalType": "address",
          "name": "_oft",
          "type": "address"
        },
        {
          "internalType": "uint256",
          "name": "_hlIndexId",
          "type": "uint256"
        }
      ],
      "stateMutability": "nonpayable",
      "type": "constructor"
    },
    {
      "inputs": [
        {
          "internalType": "bytes",
          "name": "message",
          "type": "bytes"
        },
        {
          "internalType": "uint256",
          "name": "length",
          "type": "uint256"
        }
      ],
      "name": "HyperLiquidComposer_Codec_InvalidMessage_UnexpectedLength",
      "type": "error"
    },
    {
      "inputs": [
        {
          "internalType": "address",
          "name": "_notEndpointAddress",
          "type": "address"
        }
      ],
      "name": "HyperLiquidComposer_InvalidCall_NotEndpoint",
      "type": "error"
    },
    {
      "inputs": [
        {
          "internalType": "address",
          "name": "_internalOFTAddress",
          "type": "address"
        },
        {
          "internalType": "address",
          "name": "_receivedOFTAddress",
          "type": "address"
        }
      ],
      "name": "HyperLiquidComposer_InvalidCall_NotOFT",
      "type": "error"
    },
    {
      "inputs": [
        {
          "internalType": "address",
          "name": "_oft",
          "type": "address"
        },
        {
          "internalType": "address",
          "name": "_token",
          "type": "address"
        }
      ],
      "name": "HyperLiquidComposer_InvalidCall_TokenDoesNotSupportExtension",
      "type": "error"
    },
    {
      "inputs": [],
      "name": "HL_NATIVE_TRANSFER",
      "outputs": [
        {
          "internalType": "address",
          "name": "",
          "type": "address"
        }
      ],
      "stateMutability": "view",
      "type": "function"
    },
    {
      "inputs": [],
      "name": "HL_NATIVE_TRANSFER_CORE_INDEX_ID",
      "outputs": [
        {
          "internalType": "uint256",
          "name": "",
          "type": "uint256"
        }
      ],
      "stateMutability": "view",
      "type": "function"
    },
    {
      "inputs": [],
      "name": "HL_NATIVE_TRANSFER_PREFIX",
      "outputs": [
        {
          "internalType": "address",
          "name": "",
          "type": "address"
        }
      ],
      "stateMutability": "view",
      "type": "function"
    },
    {
      "inputs": [],
      "name": "endpoint",
      "outputs": [
        {
          "internalType": "address",
          "name": "",
          "type": "address"
        }
      ],
      "stateMutability": "view",
      "type": "function"
    },
    {
      "inputs": [],
      "name": "hyperliquidHopTransferableToken",
      "outputs": [
        {
          "internalType": "contract IERC20HyperliquidHopTransferable",
          "name": "",
          "type": "address"
        }
      ],
      "stateMutability": "view",
      "type": "function"
    },
    {
      "inputs": [
        {
          "internalType": "address",
          "name": "_oft",
          "type": "address"
        },
        {
          "internalType": "bytes32",
          "name": "",
          "type": "bytes32"
        },
        {
          "internalType": "bytes",
          "name": "_message",
          "type": "bytes"
        },
        {
          "internalType": "address",
          "name": "",
          "type": "address"
        },
        {
          "internalType": "bytes",
          "name": "",
          "type": "bytes"
        }
      ],
      "name": "lzCompose",
      "outputs": [],
      "stateMutability": "payable",
      "type": "function"
    },
    {
      "inputs": [],
      "name": "oft",
      "outputs": [
        {
          "internalType": "address",
          "name": "",
          "type": "address"
        }
      ],
      "stateMutability": "view",
      "type": "function"
    }
  ],
  "bytecode": "0x61012060405234801561001157600080fd5b506040516108ec3803806108ec83398101604081905261003091610198565b828282816001600160a01b031663fc0c546a6040518163ffffffff1660e01b8152600401602060405180830381865afa158015610071573d6000803e3d6000fd5b505050506040513d601f19601f8201168201806040525081019061009591906101d4565b6001600160a01b0316610100819052604080516367ddeba960e01b815290516367ddeba9916004808201926020929091908290030181865afa1580156100df573d6000803e3d6000fd5b505050506040513d601f19601f8201168201806040525081019061010391906101f6565b61013c576101005160405163db9a4c6b60e01b81526001600160a01b038085166004830152909116602482015260440160405180910390fd5b6001600160a01b0380841660c052821660e0526001609d1b60006101608383610218565b6001600160a01b0316608052505060a0525061023f9350505050565b80516001600160a01b038116811461019357600080fd5b919050565b6000806000606084860312156101ad57600080fd5b6101b68461017c565b92506101c46020850161017c565b9150604084015190509250925092565b6000602082840312156101e657600080fd5b6101ef8261017c565b9392505050565b60006020828403121561020857600080fd5b815180151581146101ef57600080fd5b8082018082111561023957634e487b7160e01b600052601160045260246000fd5b92915050565b60805160a05160c05160e051610100516106486102a4600039600081816101af01526103070152600081816101240152818161022d015261027101526000818160f001526101dc0152600061015801526000818160bc01526102d201526106486000f3fe6080604052600436106100705760003560e01c80639b5215f61161004e5780639b5215f614610112578063a73736ba14610146578063d0a1026014610188578063d21595471461019d57600080fd5b80632e75f21a1461007557806356d5e2e5146100aa5780635e280f11146100de575b600080fd5b34801561008157600080fd5b5061008d6001609d1b81565b6040516001600160a01b0390911681526020015b60405180910390f35b3480156100b657600080fd5b5061008d7f000000000000000000000000000000000000000000000000000000000000000081565b3480156100ea57600080fd5b5061008d7f000000000000000000000000000000000000000000000000000000000000000081565b34801561011e57600080fd5b5061008d7f000000000000000000000000000000000000000000000000000000000000000081565b34801561015257600080fd5b5061017a7f000000000000000000000000000000000000000000000000000000000000000081565b6040519081526020016100a1565b61019b61019636600461049b565b6101d1565b005b3480156101a957600080fd5b5061008d7f000000000000000000000000000000000000000000000000000000000000000081565b336001600160a01b037f000000000000000000000000000000000000000000000000000000000000000016146102215760405163eee35e6f60e01b81523360048201526024015b60405180910390fd5b866001600160a01b03167f00000000000000000000000000000000000000000000000000000000000000006001600160a01b0316146102a65760405163021bfb8360e61b81526001600160a01b037f00000000000000000000000000000000000000000000000000000000000000008116600483015288166024820152604401610218565b6000806102b38787610370565b60405163b034fd0760e01b81526001600160a01b0380841660048301527f000000000000000000000000000000000000000000000000000000000000000081166024830152604482018390529294509092507f00000000000000000000000000000000000000000000000000000000000000009091169063b034fd0790606401600060405180830381600087803b15801561034d57600080fd5b505af1158015610361573d6000803e3d6000fd5b50505050505050505050505050565b600080600061037f85856103c9565b905060148151146103a75780516040516309b3473160e01b8152610218918391600401610539565b6103b08161058e565b60601c92506103bf8585610416565b9150509250929050565b60606103d882604c81866105ca565b8080601f0160208091040260200160405190810160405280939291908181526020018383808284376000920191909152509293505050505b92915050565b6000610426602c600c84866105ca565b61042f916105f4565b9392505050565b80356001600160a01b038116811461044d57600080fd5b919050565b60008083601f84011261046457600080fd5b50813567ffffffffffffffff81111561047c57600080fd5b60208301915083602082850101111561049457600080fd5b9250929050565b600080600080600080600060a0888a0312156104b657600080fd5b6104bf88610436565b965060208801359550604088013567ffffffffffffffff808211156104e357600080fd5b6104ef8b838c01610452565b909750955085915061050360608b01610436565b945060808a013591508082111561051957600080fd5b506105268a828b01610452565b989b979a50959850939692959293505050565b604081526000835180604084015260005b81811015610567576020818701810151606086840101520161054a565b506000606082850101526060601f19601f8301168401019150508260208301529392505050565b805160208201516bffffffffffffffffffffffff1980821692919060148310156105c25780818460140360031b1b83161693505b505050919050565b600080858511156105da57600080fd5b838611156105e757600080fd5b5050820193919092039150565b8035602083101561041057600019602084900360031b1b169291505056fea26469706673582212203d7f42a1c68d063f4be97c5fb18360463b1fb8c202bdb5d196b195b5c6667f6564736f6c63430008160033",
  "linkReferences": {},
  "deployedLinkReferences": {}
}