{
  "abi": [
    {
      "type": "function",
      "name": "ARBITRUM_COMPRESSION_PERCENT",
      "inputs": [],
      "outputs": [
        {
          "name": "",
          "type": "uint128",
          "internalType": "uint128"
        }
      ],
      "stateMutability": "view"
    },
    {
      "type": "function",
      "name": "arbitrumPriceExt",
      "inputs": [],
      "outputs": [
        {
          "name": "",
          "type": "tuple",
          "internalType": "struct ILayerZeroPriceFeed.ArbitrumPriceExt",
          "components": [
            {
              "name": "gasPerL2Tx",
              "type": "uint64",
              "internalType": "uint64"
            },
            {
              "name": "gasPerL1CallDataByte",
              "type": "uint32",
              "internalType": "uint32"
            }
          ]
        }
      ],
      "stateMutability": "view"
    },
    {
      "type": "function",
      "name": "eidToModelType",
      "inputs": [
        {
          "name": "",
          "type": "uint32",
          "internalType": "uint32"
        }
      ],
      "outputs": [
        {
          "name": "",
          "type": "uint8",
          "internalType": "enum ModelType"
        }
      ],
      "stateMutability": "view"
    },
    {
      "type": "function",
      "name": "endpoint",
      "inputs": [],
      "outputs": [
        {
          "name": "",
          "type": "address",
          "internalType": "contract ILayerZeroEndpointV2"
        }
      ],
      "stateMutability": "view"
    },
    {
      "type": "function",
      "name": "estimateFeeByChain",
      "inputs": [
        {
          "name": "_dstEid",
          "type": "uint16",
          "internalType": "uint16"
        },
        {
          "name": "_callDataSize",
          "type": "uint256",
          "internalType": "uint256"
        },
        {
          "name": "_gas",
          "type": "uint256",
          "internalType": "uint256"
        }
      ],
      "outputs": [
        {
          "name": "fee",
          "type": "uint256",
          "internalType": "uint256"
        },
        {
          "name": "priceRatio",
          "type": "uint128",
          "internalType": "uint128"
        }
      ],
      "stateMutability": "view"
    },
    {
      "type": "function",
      "name": "estimateFeeByEid",
      "inputs": [
        {
          "name": "_dstEid",
          "type": "uint32",
          "internalType": "uint32"
        },
        {
          "name": "_callDataSize",
          "type": "uint256",
          "internalType": "uint256"
        },
        {
          "name": "_gas",
          "type": "uint256",
          "internalType": "uint256"
        }
      ],
      "outputs": [
        {
          "name": "",
          "type": "uint256",
          "internalType": "uint256"
        },
        {
          "name": "",
          "type": "uint128",
          "internalType": "uint128"
        },
        {
          "name": "",
          "type": "uint128",
          "internalType": "uint128"
        },
        {
          "name": "",
          "type": "uint128",
          "internalType": "uint128"
        }
      ],
      "stateMutability": "view"
    },
    {
      "type": "function",
      "name": "estimateFeeOnSend",
      "inputs": [
        {
          "name": "_dstEid",
          "type": "uint32",
          "internalType": "uint32"
        },
        {
          "name": "_callDataSize",
          "type": "uint256",
          "internalType": "uint256"
        },
        {
          "name": "_gas",
          "type": "uint256",
          "internalType": "uint256"
        }
      ],
      "outputs": [
        {
          "name": "",
          "type": "uint256",
          "internalType": "uint256"
        },
        {
          "name": "",
          "type": "uint128",
          "internalType": "uint128"
        },
        {
          "name": "",
          "type": "uint128",
          "internalType": "uint128"
        },
        {
          "name": "",
          "type": "uint128",
          "internalType": "uint128"
        }
      ],
      "stateMutability": "payable"
    },
    {
      "type": "function",
      "name": "getFee",
      "inputs": [
        {
          "name": "",
          "type": "uint32",
          "internalType": "uint32"
        },
        {
          "name": "",
          "type": "uint256",
          "internalType": "uint256"
        },
        {
          "name": "",
          "type": "uint256",
          "internalType": "uint256"
        }
      ],
      "outputs": [
        {
          "name": "",
          "type": "uint256",
          "internalType": "uint256"
        }
      ],
      "stateMutability": "pure"
    },
    {
      "type": "function",
      "name": "getPrice",
      "inputs": [
        {
          "name": "_dstEid",
          "type": "uint32",
          "internalType": "uint32"
        }
      ],
      "outputs": [
        {
          "name": "price",
          "type": "tuple",
          "internalType": "struct ILayerZeroPriceFeed.Price",
          "components": [
            {
              "name": "priceRatio",
              "type": "uint128",
              "internalType": "uint128"
            },
            {
              "name": "gasPriceInUnit",
              "type": "uint64",
              "internalType": "uint64"
            },
            {
              "name": "gasPerByte",
              "type": "uint32",
              "internalType": "uint32"
            }
          ]
        }
      ],
      "stateMutability": "view"
    },
    {
      "type": "function",
      "name": "getPrice",
      "inputs": [
        {
          "name": "_dstEid",
          "type": "uint16",
          "internalType": "uint16"
        }
      ],
      "outputs": [
        {
          "name": "price",
          "type": "tuple",
          "internalType": "struct ILayerZeroPriceFeed.Price",
          "components": [
            {
              "name": "priceRatio",
              "type": "uint128",
              "internalType": "uint128"
            },
            {
              "name": "gasPriceInUnit",
              "type": "uint64",
              "internalType": "uint64"
            },
            {
              "name": "gasPerByte",
              "type": "uint32",
              "internalType": "uint32"
            }
          ]
        }
      ],
      "stateMutability": "view"
    },
    {
      "type": "function",
      "name": "getPriceRatioDenominator",
      "inputs": [],
      "outputs": [
        {
          "name": "",
          "type": "uint128",
          "internalType": "uint128"
        }
      ],
      "stateMutability": "view"
    },
    {
      "type": "function",
      "name": "initialize",
      "inputs": [
        {
          "name": "_priceUpdater",
          "type": "address",
          "internalType": "address"
        }
      ],
      "outputs": [],
      "stateMutability": "nonpayable"
    },
    {
      "type": "function",
      "name": "nativeTokenPriceUSD",
      "inputs": [],
      "outputs": [
        {
          "name": "",
          "type": "uint128",
          "internalType": "uint128"
        }
      ],
      "stateMutability": "view"
    },
    {
      "type": "function",
      "name": "owner",
      "inputs": [],
      "outputs": [
        {
          "name": "",
          "type": "address",
          "internalType": "address"
        }
      ],
      "stateMutability": "view"
    },
    {
      "type": "function",
      "name": "priceUpdater",
      "inputs": [
        {
          "name": "updater",
          "type": "address",
          "internalType": "address"
        }
      ],
      "outputs": [
        {
          "name": "active",
          "type": "bool",
          "internalType": "bool"
        }
      ],
      "stateMutability": "view"
    },
    {
      "type": "function",
      "name": "renounceOwnership",
      "inputs": [],
      "outputs": [],
      "stateMutability": "nonpayable"
    },
    {
      "type": "function",
      "name": "setArbitrumCompressionPercent",
      "inputs": [
        {
          "name": "_compressionPercent",
          "type": "uint128",
          "internalType": "uint128"
        }
      ],
      "outputs": [],
      "stateMutability": "nonpayable"
    },
    {
      "type": "function",
      "name": "setEidToModelType",
      "inputs": [
        {
          "name": "_params",
          "type": "tuple[]",
          "internalType": "struct SetEidToModelTypeParam[]",
          "components": [
            {
              "name": "dstEid",
              "type": "uint32",
              "internalType": "uint32"
            },
            {
              "name": "modelType",
              "type": "uint8",
              "internalType": "enum ModelType"
            }
          ]
        }
      ],
      "outputs": [],
      "stateMutability": "nonpayable"
    },
    {
      "type": "function",
      "name": "setEndpoint",
      "inputs": [
        {
          "name": "_endpoint",
          "type": "address",
          "internalType": "address"
        }
      ],
      "outputs": [],
      "stateMutability": "nonpayable"
    },
    {
      "type": "function",
      "name": "setNativeTokenPriceUSD",
      "inputs": [
        {
          "name": "_nativeTokenPriceUSD",
          "type": "uint128",
          "internalType": "uint128"
        }
      ],
      "outputs": [],
      "stateMutability": "nonpayable"
    },
    {
      "type": "function",
      "name": "setPrice",
      "inputs": [
        {
          "name": "_price",
          "type": "tuple[]",
          "internalType": "struct ILayerZeroPriceFeed.UpdatePrice[]",
          "components": [
            {
              "name": "eid",
              "type": "uint32",
              "internalType": "uint32"
            },
            {
              "name": "price",
              "type": "tuple",
              "internalType": "struct ILayerZeroPriceFeed.Price",
              "components": [
                {
                  "name": "priceRatio",
                  "type": "uint128",
                  "internalType": "uint128"
                },
                {
                  "name": "gasPriceInUnit",
                  "type": "uint64",
                  "internalType": "uint64"
                },
                {
                  "name": "gasPerByte",
                  "type": "uint32",
                  "internalType": "uint32"
                }
              ]
            }
          ]
        }
      ],
      "outputs": [],
      "stateMutability": "nonpayable"
    },
    {
      "type": "function",
      "name": "setPriceForArbitrum",
      "inputs": [
        {
          "name": "_update",
          "type": "tuple",
          "internalType": "struct ILayerZeroPriceFeed.UpdatePriceExt",
          "components": [
            {
              "name": "eid",
              "type": "uint32",
              "internalType": "uint32"
            },
            {
              "name": "price",
              "type": "tuple",
              "internalType": "struct ILayerZeroPriceFeed.Price",
              "components": [
                {
                  "name": "priceRatio",
                  "type": "uint128",
                  "internalType": "uint128"
                },
                {
                  "name": "gasPriceInUnit",
                  "type": "uint64",
                  "internalType": "uint64"
                },
                {
                  "name": "gasPerByte",
                  "type": "uint32",
                  "internalType": "uint32"
                }
              ]
            },
            {
              "name": "extend",
              "type": "tuple",
              "internalType": "struct ILayerZeroPriceFeed.ArbitrumPriceExt",
              "components": [
                {
                  "name": "gasPerL2Tx",
                  "type": "uint64",
                  "internalType": "uint64"
                },
                {
                  "name": "gasPerL1CallDataByte",
                  "type": "uint32",
                  "internalType": "uint32"
                }
              ]
            }
          ]
        }
      ],
      "outputs": [],
      "stateMutability": "nonpayable"
    },
    {
      "type": "function",
      "name": "setPriceRatioDenominator",
      "inputs": [
        {
          "name": "_denominator",
          "type": "uint128",
          "internalType": "uint128"
        }
      ],
      "outputs": [],
      "stateMutability": "nonpayable"
    },
    {
      "type": "function",
      "name": "setPriceUpdater",
      "inputs": [
        {
          "name": "_addr",
          "type": "address",
          "internalType": "address"
        },
        {
          "name": "_active",
          "type": "bool",
          "internalType": "bool"
        }
      ],
      "outputs": [],
      "stateMutability": "nonpayable"
    },
    {
      "type": "function",
      "name": "transferOwnership",
      "inputs": [
        {
          "name": "newOwner",
          "type": "address",
          "internalType": "address"
        }
      ],
      "outputs": [],
      "stateMutability": "nonpayable"
    },
    {
      "type": "function",
      "name": "withdrawFee",
      "inputs": [
        {
          "name": "_to",
          "type": "address",
          "internalType": "address"
        },
        {
          "name": "_amount",
          "type": "uint256",
          "internalType": "uint256"
        }
      ],
      "outputs": [],
      "stateMutability": "nonpayable"
    },
    {
      "type": "event",
      "name": "Initialized",
      "inputs": [
        {
          "name": "version",
          "type": "uint8",
          "indexed": false,
          "internalType": "uint8"
        }
      ],
      "anonymous": false
    },
    {
      "type": "event",
      "name": "OwnershipTransferred",
      "inputs": [
        {
          "name": "previousOwner",
          "type": "address",
          "indexed": true,
          "internalType": "address"
        },
        {
          "name": "newOwner",
          "type": "address",
          "indexed": true,
          "internalType": "address"
        }
      ],
      "anonymous": false
    },
    {
      "type": "error",
      "name": "LZ_PriceFeed_InsufficientFee",
      "inputs": [
        {
          "name": "provided",
          "type": "uint256",
          "internalType": "uint256"
        },
        {
          "name": "required",
          "type": "uint256",
          "internalType": "uint256"
        }
      ]
    },
    {
      "type": "error",
      "name": "LZ_PriceFeed_NotAnOPStack",
      "inputs": [
        {
          "name": "l2Eid",
          "type": "uint32",
          "internalType": "uint32"
        }
      ]
    },
    {
      "type": "error",
      "name": "LZ_PriceFeed_OnlyPriceUpdater",
      "inputs": []
    },
    {
      "type": "error",
      "name": "Transfer_NativeFailed",
      "inputs": [
        {
          "name": "_to",
          "type": "address",
          "internalType": "address"
        },
        {
          "name": "_value",
          "type": "uint256",
          "internalType": "uint256"
        }
      ]
    },
    {
      "type": "error",
      "name": "Transfer_ToAddressIsZero",
      "inputs": []
    }
  ],
  "bytecode": {
    "object": "0x608060405234801561001057600080fd5b50612141806100206000396000f3fe6080604052600436106101a15760003560e01c80638ca2fb08116100e1578063cd68b79b1161008a578063dbbb415511610064578063dbbb4155146106a6578063e0ad121a146106c6578063f2fde38b1461077b578063fd9be5221461079b57600080fd5b8063cd68b79b14610552578063d350ad251461058f578063da26663a146105af57600080fd5b8063c1723a1d116100bb578063c1723a1d146104f8578063c18403271461050b578063c4d66de81461053257600080fd5b80638ca2fb08146104495780638da5cb5b1461048957806392807f58146104b457600080fd5b80635d6d7ccb1161014e5780637760e22d116101285780637760e22d1461036b5780637bc3c9ab1461038b5780637dc438a4146103d157806388a4124c146103f157600080fd5b80635d6d7ccb146102e45780635e280f1114610304578063715018a61461035657600080fd5b80633161b7f61161017f5780633161b7f61461023c57806336a5beba1461025c57806352a72510146102c457600080fd5b806311f2c343146101a6578063223cf5b2146101dd5780632f7cb0b41461021a575b600080fd5b3480156101b257600080fd5b506101ca6101c1366004611c18565b60009392505050565b6040519081526020015b60405180910390f35b3480156101e957600080fd5b5061020d6101f8366004611c4b565b606b6020526000908152604090205460ff1681565b6040516101d49190611c9c565b34801561022657600080fd5b5061023a610235366004611cfd565b6107bb565b005b34801561024857600080fd5b5061023a610257366004611d18565b6107f8565b34801561026857600080fd5b5060408051808201825260008082526020918201528151808301835260685467ffffffffffffffff811680835263ffffffff680100000000000000009092048216928401928352845190815291511691810191909152016101d4565b3480156102d057600080fd5b5061023a6102df366004611db1565b6109d2565b3480156102f057600080fd5b5061023a6102ff366004611cfd565b610a30565b34801561031057600080fd5b50606a546103319073ffffffffffffffffffffffffffffffffffffffff1681565b60405173ffffffffffffffffffffffffffffffffffffffff90911681526020016101d4565b34801561036257600080fd5b5061023a610af7565b34801561037757600080fd5b5061023a610386366004611ded565b610b0b565b34801561039757600080fd5b506103ab6103a6366004611e62565b610bd9565b604080519283526fffffffffffffffffffffffffffffffff9091166020830152016101d4565b3480156103dd57600080fd5b5061023a6103ec366004611e80565b610ce5565b3480156103fd57600080fd5b5061041161040c366004611c18565b610df2565b604080519485526fffffffffffffffffffffffffffffffff9384166020860152918316918401919091521660608201526080016101d4565b34801561045557600080fd5b50610479610464366004611e98565b60666020526000908152604090205460ff1681565b60405190151581526020016101d4565b34801561049557600080fd5b5060335473ffffffffffffffffffffffffffffffffffffffff16610331565b3480156104c057600080fd5b506069546fffffffffffffffffffffffffffffffff165b6040516fffffffffffffffffffffffffffffffff90911681526020016101d4565b610411610506366004611c18565b610e14565b34801561051757600080fd5b506065546fffffffffffffffffffffffffffffffff166104d7565b34801561053e57600080fd5b5061023a61054d366004611e98565b610e45565b34801561055e57600080fd5b506069546104d79070010000000000000000000000000000000090046fffffffffffffffffffffffffffffffff1681565b34801561059b57600080fd5b5061023a6105aa366004611cfd565b61112c565b3480156105bb57600080fd5b506106626105ca366004611c4b565b60408051606080820183526000808352602080840182905292840181905263ffffffff94851681526067835283902083519182018452546fffffffffffffffffffffffffffffffff81168252700100000000000000000000000000000000810467ffffffffffffffff169282019290925278010000000000000000000000000000000000000000000000009091049092169082015290565b6040805182516fffffffffffffffffffffffffffffffff16815260208084015167ffffffffffffffff16908201529181015163ffffffff16908201526060016101d4565b3480156106b257600080fd5b5061023a6106c1366004611e98565b611177565b3480156106d257600080fd5b506106626106e1366004611eb3565b60408051606080820183526000808352602080840182905292840181905261ffff949094168452606782529282902082519384018352546fffffffffffffffffffffffffffffffff8116845267ffffffffffffffff700100000000000000000000000000000000820416918401919091527801000000000000000000000000000000000000000000000000900463ffffffff169082015290565b34801561078757600080fd5b5061023a610796366004611e98565b6111c6565b3480156107a757600080fd5b5061023a6107b6366004611ece565b61127d565b6107c3611293565b606980546fffffffffffffffffffffffffffffffff928316700100000000000000000000000000000000029216919091179055565b3361081860335473ffffffffffffffffffffffffffffffffffffffff1690565b73ffffffffffffffffffffffffffffffffffffffff161461087c573360009081526066602052604090205460ff1661087c576040517f320ae52900000000000000000000000000000000000000000000000000000000815260040160405180910390fd5b60005b818110156109cd573683838381811061089a5761089a611ef8565b6080029190910191506109ba90506108b56020830183611c4b565b6108c736849003840160208501611f3f565b805160208083015160409384015184516060810186526fffffffffffffffffffffffffffffffff948516815267ffffffffffffffff92831681850190815263ffffffff9283168288019081529783166000908152606790955295909320925183549551965194167fffffffffffffffff000000000000000000000000000000000000000000000000909516949094177001000000000000000000000000000000009590911694909402939093177fffffffff00000000ffffffffffffffffffffffffffffffffffffffffffffffff1678010000000000000000000000000000000000000000000000009190921602179055565b50806109c581612001565b91505061087f565b505050565b6109da611293565b73ffffffffffffffffffffffffffffffffffffffff91909116600090815260666020526040902080547fffffffffffffffffffffffffffffffffffffffffffffffffffffffffffffff0016911515919091179055565b33610a5060335473ffffffffffffffffffffffffffffffffffffffff1690565b73ffffffffffffffffffffffffffffffffffffffff1614610ab4573360009081526066602052604090205460ff16610ab4576040517f320ae52900000000000000000000000000000000000000000000000000000000815260040160405180910390fd5b606980547fffffffffffffffffffffffffffffffff00000000000000000000000000000000166fffffffffffffffffffffffffffffffff92909216919091179055565b610aff611293565b610b096000611314565b565b610b13611293565b60005b818110156109cd57828282818110610b3057610b30611ef8565b9050604002016020016020810190610b489190612039565b606b6000858585818110610b5e57610b5e611ef8565b610b749260206040909202019081019150611c4b565b63ffffffff168152602081019190915260400160002080547fffffffffffffffffffffffffffffffffffffffffffffffffffffffffffffff00166001836002811115610bc257610bc2611c6d565b021790555080610bd181612001565b915050610b16565b6000808461ffff16606e1480610bf457508461ffff1661279f145b80610c0457508461ffff16614eaf145b15610c2157610c188561ffff16858561138b565b91509150610cdd565b8461ffff16606f1480610c3957508461ffff16612794145b80610c4957508461ffff16614ea4145b15610c5d57610c188561ffff1685856114e8565b61ffff85166000908152606b602052604090205460ff166002816002811115610c8857610c88611c6d565b03610ca657610c9c8661ffff1686866114e8565b9250925050610cdd565b6001816002811115610cba57610cba611c6d565b03610cce57610c9c8661ffff16868661138b565b610c9c8661ffff168686611699565b935093915050565b33610d0560335473ffffffffffffffffffffffffffffffffffffffff1690565b73ffffffffffffffffffffffffffffffffffffffff1614610d69573360009081526066602052604090205460ff16610d69576040517f320ae52900000000000000000000000000000000000000000000000000000000815260040160405180910390fd5b610d796108b56020830183611c4b565b6000610d8b60a083016080840161205a565b90506000610d9f60c0840160a08501611c4b565b6068805463ffffffff90921668010000000000000000027fffffffffffffffffffffffffffffffffffffffff00000000000000000000000090921667ffffffffffffffff90941693909317179091555050565b600080600080610e0387878761176e565b935093509350935093509350935093565b600080808080610e28565b60405180910390fd5b610e3388888861176e565b94509450945094505093509350935093565b6000610e6f7fb53127684a568b3173ae13b9f8a6016e243e63b6e8ee1178d6a717850b5d61035490565b905073ffffffffffffffffffffffffffffffffffffffff8116610ec85773ffffffffffffffffffffffffffffffffffffffff7fb53127684a568b3173ae13b9f8a6016e243e63b6e8ee1178d6a717850b5d610355610eea565b3373ffffffffffffffffffffffffffffffffffffffff821614610eea57600080fd5b600054610100900460ff1615808015610f0a5750600054600160ff909116105b80610f245750303b158015610f24575060005460ff166001145b610fb0576040517f08c379a000000000000000000000000000000000000000000000000000000000815260206004820152602e60248201527f496e697469616c697a61626c653a20636f6e747261637420697320616c72656160448201527f647920696e697469616c697a65640000000000000000000000000000000000006064820152608401610e1f565b600080547fffffffffffffffffffffffffffffffffffffffffffffffffffffffffffffff00166001179055801561100e57600080547fffffffffffffffffffffffffffffffffffffffffffffffffffffffffffff00ff166101001790555b6110166118b8565b73ffffffffffffffffffffffffffffffffffffffff8316600090815260666020526040902080547fffffffffffffffffffffffffffffffffffffffffffffffffffffffffffffff00166001179055606580547fffffffffffffffffffffffffffffffff000000000000000000000000000000001668056bc75e2d6310000017905560698054702f000000000000000000000000000000006fffffffffffffffffffffffffffffffff9190911617905580156109cd57600080547fffffffffffffffffffffffffffffffffffffffffffffffffffffffffffff00ff169055604051600181527f7f26b83ff96e1f2b6a682f133852f6798a09c465da95921460cefb38474024989060200160405180910390a1505050565b611134611293565b606580547fffffffffffffffffffffffffffffffff00000000000000000000000000000000166fffffffffffffffffffffffffffffffff92909216919091179055565b61117f611293565b606a80547fffffffffffffffffffffffff00000000000000000000000000000000000000001673ffffffffffffffffffffffffffffffffffffffff92909216919091179055565b6111ce611293565b73ffffffffffffffffffffffffffffffffffffffff8116611271576040517f08c379a000000000000000000000000000000000000000000000000000000000815260206004820152602660248201527f4f776e61626c653a206e6577206f776e657220697320746865207a65726f206160448201527f64647265737300000000000000000000000000000000000000000000000000006064820152608401610e1f565b61127a81611314565b50565b611285611293565b61128f8282611957565b5050565b60335473ffffffffffffffffffffffffffffffffffffffff163314610b09576040517f08c379a000000000000000000000000000000000000000000000000000000000815260206004820181905260248201527f4f776e61626c653a2063616c6c6572206973206e6f7420746865206f776e65726044820152606401610e1f565b6033805473ffffffffffffffffffffffffffffffffffffffff8381167fffffffffffffffffffffffff0000000000000000000000000000000000000000831681179093556040519116919082907f8be0079c531659141344cd1fd0a4f28419497f9722a3daafe3b4186f6b6457e090600090a35050565b63ffffffff8381166000908152606760205260408120606854606954929384938492680100000000000000009004909116906064906113f09070010000000000000000000000000000000090046fffffffffffffffffffffffffffffffff1689612075565b6113fa91906120c1565b6114049190612075565b8254909150600090611438907801000000000000000000000000000000000000000000000000900463ffffffff1688612075565b835460685491925060009167ffffffffffffffff7001000000000000000000000000000000009092048216918491869161147391168b6120d5565b61147d91906120d5565b61148791906120d5565b6114919190612075565b60655485549192506fffffffffffffffffffffffffffffffff908116916114b9911683612075565b6114c391906120c1565b935493996fffffffffffffffffffffffffffffffff9094169850929650505050505050565b60008060006114f686611a5d565b63ffffffff8082166000908152606760205260408120805493945092909161153b91780100000000000000000000000000000000000000000000000090041688612075565b61154790610c746120d5565b825490915060009061157790700100000000000000000000000000000000900467ffffffffffffffff1683612075565b63ffffffff808b16600090815260676020526040812080549394509290916115bc9178010000000000000000000000000000000000000000000000009004168b612075565b8254909150600090700100000000000000000000000000000000900467ffffffffffffffff166115ec8b846120d5565b6115f69190612075565b60655487549192506000916fffffffffffffffffffffffffffffffff91821691611621911687612075565b61162b91906120c1565b60655485549192506000916fffffffffffffffffffffffffffffffff91821691611656911685612075565b61166091906120c1565b9050600061166e82846120d5565b9554959f6fffffffffffffffffffffffffffffffff9096169e50949c50505050505050505050505050565b63ffffffff808416600090815260676020526040812080549192839283916116de91780100000000000000000000000000000000000000000000000090041687612075565b8254909150600090700100000000000000000000000000000000900467ffffffffffffffff1661170e87846120d5565b6117189190612075565b60655484549192506fffffffffffffffffffffffffffffffff90811691611740911683612075565b61174a91906120c1565b925492986fffffffffffffffffffffffffffffffff90931697509195505050505050565b600080808080611780617530896120e8565b90508063ffffffff16606e148061179e57508063ffffffff1661279f145b806117b057508063ffffffff16614eaf145b156117ca576117c081888861138b565b909550935061180e565b8063ffffffff16606f14806117e657508063ffffffff16612794145b806117f857508063ffffffff16614ea4145b1561180e576118088188886114e8565b90955093505b63ffffffff81166000908152606b602052604090205460ff16600281600281111561183b5761183b611c6d565b036118555761184b8289896114e8565b909650945061188a565b600181600281111561186957611869611c6d565b036118795761184b82898961138b565b611884828989611699565b90965094505b505060655460695494989397506fffffffffffffffffffffffffffffffff9081169650909316935090915050565b600054610100900460ff1661194f576040517f08c379a000000000000000000000000000000000000000000000000000000000815260206004820152602b60248201527f496e697469616c697a61626c653a20636f6e7472616374206973206e6f74206960448201527f6e697469616c697a696e670000000000000000000000000000000000000000006064820152608401610e1f565b610b09611b5f565b73ffffffffffffffffffffffffffffffffffffffff82166119a4576040517f6b7a931000000000000000000000000000000000000000000000000000000000815260040160405180910390fd5b60008273ffffffffffffffffffffffffffffffffffffffff168260405160006040518083038185875af1925050503d80600081146119fe576040519150601f19603f3d011682016040523d82523d6000602084013e611a03565b606091505b50509050806109cd576040517f465bc83400000000000000000000000000000000000000000000000000000000815273ffffffffffffffffffffffffffffffffffffffff8416600482015260248101839052604401610e1f565b600080611a6c617530846120e8565b90508063ffffffff16606f03611a855750606592915050565b8063ffffffff1661279403611a9e575061278992915050565b8063ffffffff16614ea403611ab75750614e9992915050565b600263ffffffff82166000908152606b602052604090205460ff166002811115611ae357611ae3611c6d565b14611b22576040517ff42c33dc00000000000000000000000000000000000000000000000000000000815263ffffffff84166004820152602401610e1f565b6127108163ffffffff161015611b3b5750606592915050565b614e208163ffffffff161015611b5557506127b192915050565b50614e9992915050565b600054610100900460ff16611bf6576040517f08c379a000000000000000000000000000000000000000000000000000000000815260206004820152602b60248201527f496e697469616c697a61626c653a20636f6e7472616374206973206e6f74206960448201527f6e697469616c697a696e670000000000000000000000000000000000000000006064820152608401610e1f565b610b0933611314565b803563ffffffff81168114611c1357600080fd5b919050565b600080600060608486031215611c2d57600080fd5b611c3684611bff565b95602085013595506040909401359392505050565b600060208284031215611c5d57600080fd5b611c6682611bff565b9392505050565b7f4e487b7100000000000000000000000000000000000000000000000000000000600052602160045260246000fd5b6020810160038310611cd7577f4e487b7100000000000000000000000000000000000000000000000000000000600052602160045260246000fd5b91905290565b80356fffffffffffffffffffffffffffffffff81168114611c1357600080fd5b600060208284031215611d0f57600080fd5b611c6682611cdd565b60008060208385031215611d2b57600080fd5b823567ffffffffffffffff80821115611d4357600080fd5b818501915085601f830112611d5757600080fd5b813581811115611d6657600080fd5b8660208260071b8501011115611d7b57600080fd5b60209290920196919550909350505050565b803573ffffffffffffffffffffffffffffffffffffffff81168114611c1357600080fd5b60008060408385031215611dc457600080fd5b611dcd83611d8d565b915060208301358015158114611de257600080fd5b809150509250929050565b60008060208385031215611e0057600080fd5b823567ffffffffffffffff80821115611e1857600080fd5b818501915085601f830112611e2c57600080fd5b813581811115611e3b57600080fd5b8660208260061b8501011115611d7b57600080fd5b803561ffff81168114611c1357600080fd5b600080600060608486031215611e7757600080fd5b611c3684611e50565b600060c08284031215611e9257600080fd5b50919050565b600060208284031215611eaa57600080fd5b611c6682611d8d565b600060208284031215611ec557600080fd5b611c6682611e50565b60008060408385031215611ee157600080fd5b611eea83611d8d565b946020939093013593505050565b7f4e487b7100000000000000000000000000000000000000000000000000000000600052603260045260246000fd5b803567ffffffffffffffff81168114611c1357600080fd5b600060608284031215611f5157600080fd5b6040516060810181811067ffffffffffffffff82111715611f9b577f4e487b7100000000000000000000000000000000000000000000000000000000600052604160045260246000fd5b604052611fa783611cdd565b8152611fb560208401611f27565b6020820152611fc660408401611bff565b60408201529392505050565b7f4e487b7100000000000000000000000000000000000000000000000000000000600052601160045260246000fd5b60007fffffffffffffffffffffffffffffffffffffffffffffffffffffffffffffffff820361203257612032611fd2565b5060010190565b60006020828403121561204b57600080fd5b813560038110611c6657600080fd5b60006020828403121561206c57600080fd5b611c6682611f27565b808202811582820484141761208c5761208c611fd2565b92915050565b7f4e487b7100000000000000000000000000000000000000000000000000000000600052601260045260246000fd5b6000826120d0576120d0612092565b500490565b8082018082111561208c5761208c611fd2565b600063ffffffff808416806120ff576120ff612092565b9216919091069291505056fea2646970667358221220026d7845ef6bc23c17a59fb1e18a83666e3beeaa973609e0902e345babf44d3264736f6c63430008140033",
    "linkReferences": {}
  },
  "methodIdentifiers": {
    "ARBITRUM_COMPRESSION_PERCENT()": "cd68b79b",
    "arbitrumPriceExt()": "36a5beba",
    "eidToModelType(uint32)": "223cf5b2",
    "endpoint()": "5e280f11",
    "estimateFeeByChain(uint16,uint256,uint256)": "7bc3c9ab",
    "estimateFeeByEid(uint32,uint256,uint256)": "88a4124c",
    "estimateFeeOnSend(uint32,uint256,uint256)": "c1723a1d",
    "getFee(uint32,uint256,uint256)": "11f2c343",
    "getPrice(uint16)": "e0ad121a",
    "getPrice(uint32)": "da26663a",
    "getPriceRatioDenominator()": "c1840327",
    "initialize(address)": "c4d66de8",
    "nativeTokenPriceUSD()": "92807f58",
    "owner()": "8da5cb5b",
    "priceUpdater(address)": "8ca2fb08",
    "renounceOwnership()": "715018a6",
    "setArbitrumCompressionPercent(uint128)": "2f7cb0b4",
    "setEidToModelType((uint32,uint8)[])": "7760e22d",
    "setEndpoint(address)": "dbbb4155",
    "setNativeTokenPriceUSD(uint128)": "5d6d7ccb",
    "setPrice((uint32,(uint128,uint64,uint32))[])": "3161b7f6",
    "setPriceForArbitrum((uint32,(uint128,uint64,uint32),(uint64,uint32)))": "7dc438a4",
    "setPriceRatioDenominator(uint128)": "d350ad25",
    "setPriceUpdater(address,bool)": "52a72510",
    "transferOwnership(address)": "f2fde38b",
    "withdrawFee(address,uint256)": "fd9be522"
  },
  "id": 9
}