{
  "_format": "hh-sol-artifact-1",
  "contractName": "Thrower",
  "sourceName": "contracts/Thrower.sol",
  "abi": [
    {
      "inputs": [
        {
          "internalType": "string",
          "name": "message",
          "type": "string"
        }
      ],
      "name": "CustomErrorWithAnArgument",
      "type": "error"
    },
    {
      "inputs": [],
      "name": "CustomErrorWithNoArguments",
      "type": "error"
    },
    {
      "inputs": [],
      "name": "throwWithAssert",
      "outputs": [],
      "stateMutability": "pure",
      "type": "function"
    },
    {
      "inputs": [
        {
          "internalType": "string",
          "name": "message",
          "type": "string"
        }
      ],
      "name": "throwWithCustomErrorAndArgument",
      "outputs": [],
      "stateMutability": "pure",
      "type": "function"
    },
    {
      "inputs": [],
      "name": "throwWithCustomErrorAndNoArguments",
      "outputs": [],
      "stateMutability": "pure",
      "type": "function"
    },
    {
      "inputs": [
        {
          "internalType": "string",
          "name": "message",
          "type": "string"
        }
      ],
      "name": "throwWithRequireAndArgument",
      "outputs": [],
      "stateMutability": "pure",
      "type": "function"
    },
    {
      "inputs": [],
      "name": "throwWithRequireAndNoArguments",
      "outputs": [],
      "stateMutability": "pure",
      "type": "function"
    },
    {
      "inputs": [
        {
          "internalType": "string",
          "name": "message",
          "type": "string"
        }
      ],
      "name": "throwWithRevertAndArgument",
      "outputs": [],
      "stateMutability": "pure",
      "type": "function"
    },
    {
      "inputs": [],
      "name": "throwWithRevertAndNoArguments",
      "outputs": [],
      "stateMutability": "pure",
      "type": "function"
    }
  ],
  "bytecode": "0x608060405234801561001057600080fd5b506103ca806100206000396000f3fe608060405234801561001057600080fd5b506004361061007d5760003560e01c80633b6a55a21161005b5780633b6a55a2146100b257806364442a2b146100bc578063b8580e43146100d8578063ca24bbc8146100f45761007d565b806304ff6ec614610082578063143a9b111461008c57806324007228146100a8575b600080fd5b61008a6100fe565b005b6100a660048036038101906100a19190610296565b610130565b005b6100b061016f565b005b6100ba61017f565b005b6100d660048036038101906100d19190610296565b610193565b005b6100f260048036038101906100ed9190610296565b6101d2565b005b6100fc610222565b005b6040517fd4abb89900000000000000000000000000000000000000000000000000000000815260040160405180910390fd5b81816040517ff1c37159000000000000000000000000000000000000000000000000000000008152600401610166929190610341565b60405180910390fd5b600160001461017d57600080fd5b565b600160001461019157610190610365565b5b565b81816040517f08c379a00000000000000000000000000000000000000000000000000000000081526004016101c9929190610341565b60405180910390fd5b60016000148282909161021c576040517f08c379a0000000000000000000000000000000000000000000000000000000008152600401610213929190610341565b60405180910390fd5b50505050565b600080fd5b600080fd5b600080fd5b600080fd5b600080fd5b600080fd5b60008083601f84011261025657610255610231565b5b8235905067ffffffffffffffff81111561027357610272610236565b5b60208301915083600182028301111561028f5761028e61023b565b5b9250929050565b600080602083850312156102ad576102ac610227565b5b600083013567ffffffffffffffff8111156102cb576102ca61022c565b5b6102d785828601610240565b92509250509250929050565b600082825260208201905092915050565b82818337600083830152505050565b6000601f19601f8301169050919050565b600061032083856102e3565b935061032d8385846102f4565b61033683610303565b840190509392505050565b6000602082019050818103600083015261035c818486610314565b90509392505050565b7f4e487b7100000000000000000000000000000000000000000000000000000000600052600160045260246000fdfea26469706673582212206087510aa9bda6b9cfb8e7c7c53be27495117504f88d143119b0d3a2700bea0f64736f6c63430008160033",
  "linkReferences": {},
  "deployedLinkReferences": {}
}