{"abi":[{"type":"constructor","inputs":[{"name":"_uri","type":"string","internalType":"string"},{"name":"_lzEndpoint","type":"address","internalType":"address"},{"name":"_delegate","type":"address","internalType":"address"}],"stateMutability":"nonpayable"},{"type":"function","name":"SEND","inputs":[],"outputs":[{"name":"","type":"uint16","internalType":"uint16"}],"stateMutability":"view"},{"type":"function","name":"SEND_AND_COMPOSE","inputs":[],"outputs":[{"name":"","type":"uint16","internalType":"uint16"}],"stateMutability":"view"},{"type":"function","name":"allowInitializePath","inputs":[{"name":"origin","type":"tuple","internalType":"struct Origin","components":[{"name":"srcEid","type":"uint32","internalType":"uint32"},{"name":"sender","type":"bytes32","internalType":"bytes32"},{"name":"nonce","type":"uint64","internalType":"uint64"}]}],"outputs":[{"name":"","type":"bool","internalType":"bool"}],"stateMutability":"view"},{"type":"function","name":"balanceOf","inputs":[{"name":"account","type":"address","internalType":"address"},{"name":"id","type":"uint256","internalType":"uint256"}],"outputs":[{"name":"","type":"uint256","internalType":"uint256"}],"stateMutability":"view"},{"type":"function","name":"balanceOfBatch","inputs":[{"name":"accounts","type":"address[]","internalType":"address[]"},{"name":"ids","type":"uint256[]","internalType":"uint256[]"}],"outputs":[{"name":"","type":"uint256[]","internalType":"uint256[]"}],"stateMutability":"view"},{"type":"function","name":"combineOptions","inputs":[{"name":"_eid","type":"uint32","internalType":"uint32"},{"name":"_msgType","type":"uint16","internalType":"uint16"},{"name":"_extraOptions","type":"bytes","internalType":"bytes"}],"outputs":[{"name":"","type":"bytes","internalType":"bytes"}],"stateMutability":"view"},{"type":"function","name":"endpoint","inputs":[],"outputs":[{"name":"","type":"address","internalType":"contract ILayerZeroEndpointV2"}],"stateMutability":"view"},{"type":"function","name":"enforcedOptions","inputs":[{"name":"eid","type":"uint32","internalType":"uint32"},{"name":"msgType","type":"uint16","internalType":"uint16"}],"outputs":[{"name":"enforcedOption","type":"bytes","internalType":"bytes"}],"stateMutability":"view"},{"type":"function","name":"isApprovedForAll","inputs":[{"name":"account","type":"address","internalType":"address"},{"name":"operator","type":"address","internalType":"address"}],"outputs":[{"name":"","type":"bool","internalType":"bool"}],"stateMutability":"view"},{"type":"function","name":"isComposeMsgSender","inputs":[{"name":"","type":"tuple","internalType":"struct Origin","components":[{"name":"srcEid","type":"uint32","internalType":"uint32"},{"name":"sender","type":"bytes32","internalType":"bytes32"},{"name":"nonce","type":"uint64","internalType":"uint64"}]},{"name":"","type":"bytes","internalType":"bytes"},{"name":"_sender","type":"address","internalType":"address"}],"outputs":[{"name":"","type":"bool","internalType":"bool"}],"stateMutability":"view"},{"type":"function","name":"isPeer","inputs":[{"name":"_eid","type":"uint32","internalType":"uint32"},{"name":"_peer","type":"bytes32","internalType":"bytes32"}],"outputs":[{"name":"","type":"bool","internalType":"bool"}],"stateMutability":"view"},{"type":"function","name":"lzReceive","inputs":[{"name":"_origin","type":"tuple","internalType":"struct Origin","components":[{"name":"srcEid","type":"uint32","internalType":"uint32"},{"name":"sender","type":"bytes32","internalType":"bytes32"},{"name":"nonce","type":"uint64","internalType":"uint64"}]},{"name":"_guid","type":"bytes32","internalType":"bytes32"},{"name":"_message","type":"bytes","internalType":"bytes"},{"name":"_executor","type":"address","internalType":"address"},{"name":"_extraData","type":"bytes","internalType":"bytes"}],"outputs":[],"stateMutability":"payable"},{"type":"function","name":"lzReceiveAndRevert","inputs":[{"name":"_packets","type":"tuple[]","internalType":"struct InboundPacket[]","components":[{"name":"origin","type":"tuple","internalType":"struct Origin","components":[{"name":"srcEid","type":"uint32","internalType":"uint32"},{"name":"sender","type":"bytes32","internalType":"bytes32"},{"name":"nonce","type":"uint64","internalType":"uint64"}]},{"name":"dstEid","type":"uint32","internalType":"uint32"},{"name":"receiver","type":"address","internalType":"address"},{"name":"guid","type":"bytes32","internalType":"bytes32"},{"name":"value","type":"uint256","internalType":"uint256"},{"name":"executor","type":"address","internalType":"address"},{"name":"message","type":"bytes","internalType":"bytes"},{"name":"extraData","type":"bytes","internalType":"bytes"}]}],"outputs":[],"stateMutability":"payable"},{"type":"function","name":"lzReceiveSimulate","inputs":[{"name":"_origin","type":"tuple","internalType":"struct Origin","components":[{"name":"srcEid","type":"uint32","internalType":"uint32"},{"name":"sender","type":"bytes32","internalType":"bytes32"},{"name":"nonce","type":"uint64","internalType":"uint64"}]},{"name":"_guid","type":"bytes32","internalType":"bytes32"},{"name":"_message","type":"bytes","internalType":"bytes"},{"name":"_executor","type":"address","internalType":"address"},{"name":"_extraData","type":"bytes","internalType":"bytes"}],"outputs":[],"stateMutability":"payable"},{"type":"function","name":"mint","inputs":[{"name":"_to","type":"address","internalType":"address"},{"name":"_tokenId","type":"uint256","internalType":"uint256"},{"name":"_amount","type":"uint256","internalType":"uint256"},{"name":"_data","type":"bytes","internalType":"bytes"}],"outputs":[],"stateMutability":"nonpayable"},{"type":"function","name":"mintBatch","inputs":[{"name":"_to","type":"address","internalType":"address"},{"name":"_tokenIds","type":"uint256[]","internalType":"uint256[]"},{"name":"_amounts","type":"uint256[]","internalType":"uint256[]"},{"name":"_data","type":"bytes","internalType":"bytes"}],"outputs":[],"stateMutability":"nonpayable"},{"type":"function","name":"msgInspector","inputs":[],"outputs":[{"name":"","type":"address","internalType":"address"}],"stateMutability":"view"},{"type":"function","name":"nextNonce","inputs":[{"name":"","type":"uint32","internalType":"uint32"},{"name":"","type":"bytes32","internalType":"bytes32"}],"outputs":[{"name":"nonce","type":"uint64","internalType":"uint64"}],"stateMutability":"view"},{"type":"function","name":"oApp","inputs":[],"outputs":[{"name":"","type":"address","internalType":"address"}],"stateMutability":"view"},{"type":"function","name":"oAppVersion","inputs":[],"outputs":[{"name":"senderVersion","type":"uint64","internalType":"uint64"},{"name":"receiverVersion","type":"uint64","internalType":"uint64"}],"stateMutability":"pure"},{"type":"function","name":"onftVersion","inputs":[],"outputs":[{"name":"interfaceId","type":"bytes4","internalType":"bytes4"},{"name":"version","type":"uint64","internalType":"uint64"}],"stateMutability":"pure"},{"type":"function","name":"owner","inputs":[],"outputs":[{"name":"","type":"address","internalType":"address"}],"stateMutability":"view"},{"type":"function","name":"peers","inputs":[{"name":"eid","type":"uint32","internalType":"uint32"}],"outputs":[{"name":"peer","type":"bytes32","internalType":"bytes32"}],"stateMutability":"view"},{"type":"function","name":"preCrime","inputs":[],"outputs":[{"name":"","type":"address","internalType":"address"}],"stateMutability":"view"},{"type":"function","name":"quoteSend","inputs":[{"name":"_sendParam","type":"tuple","internalType":"struct SendParam","components":[{"name":"dstEid","type":"uint32","internalType":"uint32"},{"name":"to","type":"bytes32","internalType":"bytes32"},{"name":"tokenIds","type":"uint256[]","internalType":"uint256[]"},{"name":"amounts","type":"uint256[]","internalType":"uint256[]"},{"name":"extraOptions","type":"bytes","internalType":"bytes"},{"name":"composeMessage","type":"bytes","internalType":"bytes"},{"name":"onftCmd","type":"bytes","internalType":"bytes"}]},{"name":"_payInLzToken","type":"bool","internalType":"bool"}],"outputs":[{"name":"msgFee","type":"tuple","internalType":"struct MessagingFee","components":[{"name":"nativeFee","type":"uint256","internalType":"uint256"},{"name":"lzTokenFee","type":"uint256","internalType":"uint256"}]}],"stateMutability":"view"},{"type":"function","name":"renounceOwnership","inputs":[],"outputs":[],"stateMutability":"nonpayable"},{"type":"function","name":"safeBatchTransferFrom","inputs":[{"name":"from","type":"address","internalType":"address"},{"name":"to","type":"address","internalType":"address"},{"name":"ids","type":"uint256[]","internalType":"uint256[]"},{"name":"values","type":"uint256[]","internalType":"uint256[]"},{"name":"data","type":"bytes","internalType":"bytes"}],"outputs":[],"stateMutability":"nonpayable"},{"type":"function","name":"safeTransferFrom","inputs":[{"name":"from","type":"address","internalType":"address"},{"name":"to","type":"address","internalType":"address"},{"name":"id","type":"uint256","internalType":"uint256"},{"name":"value","type":"uint256","internalType":"uint256"},{"name":"data","type":"bytes","internalType":"bytes"}],"outputs":[],"stateMutability":"nonpayable"},{"type":"function","name":"send","inputs":[{"name":"_sendParam","type":"tuple","internalType":"struct SendParam","components":[{"name":"dstEid","type":"uint32","internalType":"uint32"},{"name":"to","type":"bytes32","internalType":"bytes32"},{"name":"tokenIds","type":"uint256[]","internalType":"uint256[]"},{"name":"amounts","type":"uint256[]","internalType":"uint256[]"},{"name":"extraOptions","type":"bytes","internalType":"bytes"},{"name":"composeMessage","type":"bytes","internalType":"bytes"},{"name":"onftCmd","type":"bytes","internalType":"bytes"}]},{"name":"_fee","type":"tuple","internalType":"struct MessagingFee","components":[{"name":"nativeFee","type":"uint256","internalType":"uint256"},{"name":"lzTokenFee","type":"uint256","internalType":"uint256"}]},{"name":"_refundAddress","type":"address","internalType":"address"}],"outputs":[{"name":"msgReceipt","type":"tuple","internalType":"struct MessagingReceipt","components":[{"name":"guid","type":"bytes32","internalType":"bytes32"},{"name":"nonce","type":"uint64","internalType":"uint64"},{"name":"fee","type":"tuple","internalType":"struct MessagingFee","components":[{"name":"nativeFee","type":"uint256","internalType":"uint256"},{"name":"lzTokenFee","type":"uint256","internalType":"uint256"}]}]}],"stateMutability":"payable"},{"type":"function","name":"setApprovalForAll","inputs":[{"name":"operator","type":"address","internalType":"address"},{"name":"approved","type":"bool","internalType":"bool"}],"outputs":[],"stateMutability":"nonpayable"},{"type":"function","name":"setDelegate","inputs":[{"name":"_delegate","type":"address","internalType":"address"}],"outputs":[],"stateMutability":"nonpayable"},{"type":"function","name":"setEnforcedOptions","inputs":[{"name":"_enforcedOptions","type":"tuple[]","internalType":"struct EnforcedOptionParam[]","components":[{"name":"eid","type":"uint32","internalType":"uint32"},{"name":"msgType","type":"uint16","internalType":"uint16"},{"name":"options","type":"bytes","internalType":"bytes"}]}],"outputs":[],"stateMutability":"nonpayable"},{"type":"function","name":"setMsgInspector","inputs":[{"name":"_msgInspector","type":"address","internalType":"address"}],"outputs":[],"stateMutability":"nonpayable"},{"type":"function","name":"setPeer","inputs":[{"name":"_eid","type":"uint32","internalType":"uint32"},{"name":"_peer","type":"bytes32","internalType":"bytes32"}],"outputs":[],"stateMutability":"nonpayable"},{"type":"function","name":"setPreCrime","inputs":[{"name":"_preCrime","type":"address","internalType":"address"}],"outputs":[],"stateMutability":"nonpayable"},{"type":"function","name":"supportsInterface","inputs":[{"name":"interfaceId","type":"bytes4","internalType":"bytes4"}],"outputs":[{"name":"","type":"bool","internalType":"bool"}],"stateMutability":"view"},{"type":"function","name":"token","inputs":[],"outputs":[{"name":"tokenAddress","type":"address","internalType":"address"}],"stateMutability":"view"},{"type":"function","name":"transferOwnership","inputs":[{"name":"newOwner","type":"address","internalType":"address"}],"outputs":[],"stateMutability":"nonpayable"},{"type":"function","name":"uri","inputs":[{"name":"","type":"uint256","internalType":"uint256"}],"outputs":[{"name":"","type":"string","internalType":"string"}],"stateMutability":"view"},{"type":"event","name":"ApprovalForAll","inputs":[{"name":"account","type":"address","indexed":true,"internalType":"address"},{"name":"operator","type":"address","indexed":true,"internalType":"address"},{"name":"approved","type":"bool","indexed":false,"internalType":"bool"}],"anonymous":false},{"type":"event","name":"EnforcedOptionSet","inputs":[{"name":"_enforcedOptions","type":"tuple[]","indexed":false,"internalType":"struct EnforcedOptionParam[]","components":[{"name":"eid","type":"uint32","internalType":"uint32"},{"name":"msgType","type":"uint16","internalType":"uint16"},{"name":"options","type":"bytes","internalType":"bytes"}]}],"anonymous":false},{"type":"event","name":"MsgInspectorSet","inputs":[{"name":"inspector","type":"address","indexed":false,"internalType":"address"}],"anonymous":false},{"type":"event","name":"OwnershipTransferred","inputs":[{"name":"previousOwner","type":"address","indexed":true,"internalType":"address"},{"name":"newOwner","type":"address","indexed":true,"internalType":"address"}],"anonymous":false},{"type":"event","name":"PeerSet","inputs":[{"name":"eid","type":"uint32","indexed":false,"internalType":"uint32"},{"name":"peer","type":"bytes32","indexed":false,"internalType":"bytes32"}],"anonymous":false},{"type":"event","name":"PreCrimeSet","inputs":[{"name":"preCrimeAddress","type":"address","indexed":false,"internalType":"address"}],"anonymous":false},{"type":"event","name":"TransferBatch","inputs":[{"name":"operator","type":"address","indexed":true,"internalType":"address"},{"name":"from","type":"address","indexed":true,"internalType":"address"},{"name":"to","type":"address","indexed":true,"internalType":"address"},{"name":"ids","type":"uint256[]","indexed":false,"internalType":"uint256[]"},{"name":"values","type":"uint256[]","indexed":false,"internalType":"uint256[]"}],"anonymous":false},{"type":"event","name":"TransferSingle","inputs":[{"name":"operator","type":"address","indexed":true,"internalType":"address"},{"name":"from","type":"address","indexed":true,"internalType":"address"},{"name":"to","type":"address","indexed":true,"internalType":"address"},{"name":"id","type":"uint256","indexed":false,"internalType":"uint256"},{"name":"value","type":"uint256","indexed":false,"internalType":"uint256"}],"anonymous":false},{"type":"event","name":"URI","inputs":[{"name":"value","type":"string","indexed":false,"internalType":"string"},{"name":"id","type":"uint256","indexed":true,"internalType":"uint256"}],"anonymous":false},{"type":"error","name":"AddressEmptyCode","inputs":[{"name":"target","type":"address","internalType":"address"}]},{"type":"error","name":"AddressInsufficientBalance","inputs":[{"name":"account","type":"address","internalType":"address"}]},{"type":"error","name":"ERC1155InsufficientBalance","inputs":[{"name":"sender","type":"address","internalType":"address"},{"name":"balance","type":"uint256","internalType":"uint256"},{"name":"needed","type":"uint256","internalType":"uint256"},{"name":"tokenId","type":"uint256","internalType":"uint256"}]},{"type":"error","name":"ERC1155InvalidApprover","inputs":[{"name":"approver","type":"address","internalType":"address"}]},{"type":"error","name":"ERC1155InvalidArrayLength","inputs":[{"name":"idsLength","type":"uint256","internalType":"uint256"},{"name":"valuesLength","type":"uint256","internalType":"uint256"}]},{"type":"error","name":"ERC1155InvalidOperator","inputs":[{"name":"operator","type":"address","internalType":"address"}]},{"type":"error","name":"ERC1155InvalidReceiver","inputs":[{"name":"receiver","type":"address","internalType":"address"}]},{"type":"error","name":"ERC1155InvalidSender","inputs":[{"name":"sender","type":"address","internalType":"address"}]},{"type":"error","name":"ERC1155MissingApprovalForAll","inputs":[{"name":"operator","type":"address","internalType":"address"},{"name":"owner","type":"address","internalType":"address"}]},{"type":"error","name":"FailedInnerCall","inputs":[]},{"type":"error","name":"InvalidDelegate","inputs":[]},{"type":"error","name":"InvalidEndpointCall","inputs":[]},{"type":"error","name":"InvalidOptions","inputs":[{"name":"options","type":"bytes","internalType":"bytes"}]},{"type":"error","name":"LzTokenUnavailable","inputs":[]},{"type":"error","name":"NoPeer","inputs":[{"name":"eid","type":"uint32","internalType":"uint32"}]},{"type":"error","name":"NotEnoughNative","inputs":[{"name":"msgValue","type":"uint256","internalType":"uint256"}]},{"type":"error","name":"OnlyEndpoint","inputs":[{"name":"addr","type":"address","internalType":"address"}]},{"type":"error","name":"OnlyPeer","inputs":[{"name":"eid","type":"uint32","internalType":"uint32"},{"name":"sender","type":"bytes32","internalType":"bytes32"}]},{"type":"error","name":"OnlySelf","inputs":[]},{"type":"error","name":"OwnableInvalidOwner","inputs":[{"name":"owner","type":"address","internalType":"address"}]},{"type":"error","name":"OwnableUnauthorizedAccount","inputs":[{"name":"account","type":"address","internalType":"address"}]},{"type":"error","name":"SafeERC20FailedOperation","inputs":[{"name":"token","type":"address","internalType":"address"}]},{"type":"error","name":"SimulationResult","inputs":[{"name":"result","type":"bytes","internalType":"bytes"}]},{"type":"error","name":"UnapprovedSender","inputs":[{"name":"sender","type":"address","internalType":"address"}]}],"bytecode":{"object":"0x60a06040523480156200001157600080fd5b5060405162003e4738038062003e478339810160408190526200003491620001be565b82828281818181818180896200004a8162000127565b506001600160a01b0381166200007a57604051631e4fbdf760e01b81526000600482015260240160405180910390fd5b620000858162000139565b506001600160a01b038083166080528116620000b457604051632d618d8160e21b815260040160405180910390fd5b60805160405163ca5eb5e160e01b81526001600160a01b0383811660048301529091169063ca5eb5e190602401600060405180830381600087803b158015620000fc57600080fd5b505af115801562000111573d6000803e3d6000fd5b5050505050505050505050505050505062000415565b600262000135828262000349565b5050565b600380546001600160a01b038381166001600160a01b0319831681179093556040519116919082907f8be0079c531659141344cd1fd0a4f28419497f9722a3daafe3b4186f6b6457e090600090a35050565b634e487b7160e01b600052604160045260246000fd5b80516001600160a01b0381168114620001b957600080fd5b919050565b600080600060608486031215620001d457600080fd5b83516001600160401b0380821115620001ec57600080fd5b818601915086601f8301126200020157600080fd5b8151818111156200021657620002166200018b565b604051601f8201601f19908116603f011681019083821181831017156200024157620002416200018b565b816040528281526020935089848487010111156200025e57600080fd5b600091505b8282101562000282578482018401518183018501529083019062000263565b60008484830101528097505050506200029d818701620001a1565b93505050620002af60408501620001a1565b90509250925092565b600181811c90821680620002cd57607f821691505b602082108103620002ee57634e487b7160e01b600052602260045260246000fd5b50919050565b601f82111562000344576000816000526020600020601f850160051c810160208610156200031f5750805b601f850160051c820191505b8181101562000340578281556001016200032b565b5050505b505050565b81516001600160401b038111156200036557620003656200018b565b6200037d81620003768454620002b8565b84620002f4565b602080601f831160018114620003b557600084156200039c5750858301515b600019600386901b1c1916600185901b17855562000340565b600085815260208120601f198616915b82811015620003e657888601518255948401946001909101908401620003c5565b5085821015620004055787850151600019600388901b60f8161c191681555b5050505050600190811b01905550565b6080516139e562000462600039600081816104840152818161087f0152818161102a01528181611329015281816115e101528181611a2901528181611f7b015261203401526139e56000f3fe60806040526004361061022f5760003560e01c80637d25a05e1161012e578063bd815db0116100ab578063e985e9c51161006f578063e985e9c5146106f1578063f242432a14610711578063f2fde38b14610731578063fc0c546a14610408578063ff7bd03d1461075157600080fd5b8063bd815db01461065e578063ca5eb5e114610671578063d045a0dc14610691578063d4243885146106a4578063d58c3aa8146106c457600080fd5b8063b21a33e4116100f2578063b21a33e4146105bc578063b731ea0a146105d1578063b98bd070146105f1578063bb0b6a5314610611578063bc70b3541461063e57600080fd5b80637d25a05e146104fb57806382413eac146105365780638da5cb5b14610556578063a22cb46514610574578063a72f5dd81461059457600080fd5b80632eb2c2d6116101bc5780635a0dfe4d116101805780635a0dfe4d1461043b5780635e280f11146104725780636fc1b31e146104a6578063715018a6146104c6578063731133e9146104db57600080fd5b80632eb2c2d61461039b5780633400288b146103bb5780634e1273f4146103db57806352ae2879146104085780635535d4611461041b57600080fd5b806313137d651161020357806313137d65146102fc57806317442b70146103115780631f5e1334146103335780631f7fdffa1461035b5780632250032b1461037b57600080fd5b8062fdd58e1461023457806301ffc9a7146102675780630e89341c14610297578063111ecdad146102c4575b600080fd5b34801561024057600080fd5b5061025461024f366004612689565b610771565b6040519081526020015b60405180910390f35b34801561027357600080fd5b506102876102823660046126cb565b610799565b604051901515815260200161025e565b3480156102a357600080fd5b506102b76102b23660046126e8565b6107e9565b60405161025e9190612751565b3480156102d057600080fd5b506007546102e4906001600160a01b031681565b6040516001600160a01b03909116815260200161025e565b61030f61030a3660046127c4565b61087d565b005b34801561031d57600080fd5b506040805160018152600260208201520161025e565b34801561033f57600080fd5b50610348600181565b60405161ffff909116815260200161025e565b34801561036757600080fd5b5061030f6103763660046129fd565b61093d565b61038e610389366004612aa9565b61094f565b60405161025e9190612b16565b3480156103a757600080fd5b5061030f6103b6366004612b58565b610a2c565b3480156103c757600080fd5b5061030f6103d6366004612c1e565b610a93565b3480156103e757600080fd5b506103fb6103f6366004612c3a565b610aa9565b60405161025e9190612d37565b34801561041457600080fd5b50306102e4565b34801561042757600080fd5b506102b7610436366004612d5c565b610b75565b34801561044757600080fd5b50610287610456366004612c1e565b63ffffffff919091166000908152600460205260409020541490565b34801561047e57600080fd5b506102e47f000000000000000000000000000000000000000000000000000000000000000081565b3480156104b257600080fd5b5061030f6104c1366004612d8f565b610c1a565b3480156104d257600080fd5b5061030f610c77565b3480156104e757600080fd5b5061030f6104f6366004612dac565b610c8b565b34801561050757600080fd5b5061051e610516366004612c1e565b600092915050565b6040516001600160401b03909116815260200161025e565b34801561054257600080fd5b50610287610551366004612e02565b610c97565b34801561056257600080fd5b506003546001600160a01b03166102e4565b34801561058057600080fd5b5061030f61058f366004612e76565b610cac565b3480156105a057600080fd5b506040805163acff303160e01b8152600160208201520161025e565b3480156105c857600080fd5b50610348600281565b3480156105dd57600080fd5b506005546102e4906001600160a01b031681565b3480156105fd57600080fd5b5061030f61060c366004612ef3565b610cb7565b34801561061d57600080fd5b5061025461062c366004612f34565b60046020526000908152604090205481565b34801561064a57600080fd5b506102b7610659366004612f4f565b610cd1565b61030f61066c366004612ef3565b610e79565b34801561067d57600080fd5b5061030f61068c366004612d8f565b611003565b61030f61069f3660046127c4565b611089565b3480156106b057600080fd5b5061030f6106bf366004612d8f565b6110b8565b3480156106d057600080fd5b506106e46106df366004612faf565b61110e565b60405161025e9190612ff5565b3480156106fd57600080fd5b5061028761070c36600461300c565b611154565b34801561071d57600080fd5b5061030f61072c36600461303a565b611182565b34801561073d57600080fd5b5061030f61074c366004612d8f565b6111e1565b34801561075d57600080fd5b5061028761076c3660046130a2565b61121f565b6000818152602081815260408083206001600160a01b03861684529091529020545b92915050565b60006001600160e01b03198216636cdb3d1360e11b14806107ca57506001600160e01b031982166303a24d0760e21b145b8061079357506301ffc9a760e01b6001600160e01b0319831614610793565b6060600280546107f8906130be565b80601f0160208091040260200160405190810160405280929190818152602001828054610824906130be565b80156108715780601f1061084657610100808354040283529160200191610871565b820191906000526020600020905b81548152906001019060200180831161085457829003601f168201915b50505050509050919050565b7f00000000000000000000000000000000000000000000000000000000000000006001600160a01b031633146108cd576040516391ac5e4f60e01b81523360048201526024015b60405180910390fd5b602087018035906108e7906108e2908a612f34565b611255565b14610925576108f96020880188612f34565b60405163309afaf360e21b815263ffffffff9091166004820152602088013560248201526044016108c4565b61093487878787878787611291565b50505050505050565b610949848484846113a5565b50505050565b61095761262d565b6109ea61096760408601866130f2565b808060200260200160405190810160405280939291908181526020018383602002808284376000920191909152506109a69250505060608701876130f2565b808060200260200160405190810160405280939291908181526020018383602002808284376000920191909152506109e5925050506020880188612f34565b6113dd565b6000806109f686611416565b9092509050610a22610a0b6020880188612f34565b8383610a1c368a90038a018a61313b565b886115ae565b9695505050505050565b336001600160a01b0386168114801590610a4d5750610a4b8682611154565b155b15610a7e5760405163711bec9160e11b81526001600160a01b038083166004830152871660248201526044016108c4565b610a8b86868686866116b9565b505050505050565b610a9b611719565b610aa58282611746565b5050565b60608151835114610ada5781518351604051635b05999160e01b8152600481019290925260248201526044016108c4565b600083516001600160401b03811115610af557610af5612863565b604051908082528060200260200182016040528015610b1e578160200160208202803683370190505b50905060005b8451811015610b6d57602080820286010151610b4890602080840287010151610771565b828281518110610b5a57610b5a61316d565b6020908102919091010152600101610b24565b509392505050565b600660209081526000928352604080842090915290825290208054610b99906130be565b80601f0160208091040260200160405190810160405280929190818152602001828054610bc5906130be565b8015610c125780601f10610be757610100808354040283529160200191610c12565b820191906000526020600020905b815481529060010190602001808311610bf557829003601f168201915b505050505081565b610c22611719565b600780546001600160a01b0319166001600160a01b0383169081179091556040519081527ff0be4f1e87349231d80c36b33f9e8639658eeaf474014dee15a3e6a4d4414197906020015b60405180910390a150565b610c7f611719565b610c89600061179b565b565b610949848484846117ed565b6001600160a01b03811630145b949350505050565b610aa533838361184a565b610cbf611719565b610aa5610ccc8284613183565b6118e0565b63ffffffff8416600090815260066020908152604080832061ffff87168452909152812080546060929190610d05906130be565b80601f0160208091040260200160405190810160405280929190818152602001828054610d31906130be565b8015610d7e5780601f10610d5357610100808354040283529160200191610d7e565b820191906000526020600020905b815481529060010190602001808311610d6157829003601f168201915b505050505090508051600003610dce5783838080601f016020809104026020016040519081016040528093929190818152602001838380828437600092019190915250929450610ca49350505050565b6000839003610dde579050610ca4565b60028310610e5c57610e2584848080601f0160208091040260200160405190810160405280939291908181526020018383808284376000920191909152506119e792505050565b80610e33846002818861324c565b604051602001610e4593929190613276565b604051602081830303815290604052915050610ca4565b8383604051639a6d49cd60e01b81526004016108c49291906132c7565b60005b81811015610f825736838383818110610e9757610e9761316d565b9050602002810190610ea991906132db565b9050610edc610ebb6020830183612f34565b602083013563ffffffff919091166000908152600460205260409020541490565b610ee65750610f7a565b3063d045a0dc60c08301358360a0810135610f056101008301836132fc565b610f16610100890160e08a01612d8f565b610f246101208a018a6132fc565b6040518963ffffffff1660e01b8152600401610f469796959493929190613357565b6000604051808303818588803b158015610f5f57600080fd5b505af1158015610f73573d6000803e3d6000fd5b5050505050505b600101610e7c565b50336001600160a01b0316638e9e70996040518163ffffffff1660e01b8152600401600060405180830381865afa158015610fc1573d6000803e3d6000fd5b505050506040513d6000823e601f3d908101601f19168201604052610fe991908101906133dd565b604051638351eea760e01b81526004016108c49190612751565b61100b611719565b60405163ca5eb5e160e01b81526001600160a01b0382811660048301527f0000000000000000000000000000000000000000000000000000000000000000169063ca5eb5e190602401600060405180830381600087803b15801561106e57600080fd5b505af1158015611082573d6000803e3d6000fd5b5050505050565b3330146110a95760405163029a949d60e31b815260040160405180910390fd5b61093487878787878787610925565b6110c0611719565b600580546001600160a01b0319166001600160a01b0383169081179091556040519081527fd48d879cef83a1c0bdda516f27b13ddb1b3f8bbac1c9e1511bb2a659c242776090602001610c6c565b604080518082019091526000808252602082015260008061112e85611416565b909250905061114b6111436020870187612f34565b838387611a13565b95945050505050565b6001600160a01b03918216600090815260016020908152604080832093909416825291909152205460ff1690565b336001600160a01b03861681148015906111a357506111a18682611154565b155b156111d45760405163711bec9160e11b81526001600160a01b038083166004830152871660248201526044016108c4565b610a8b8686868686611aeb565b6111e9611719565b6001600160a01b03811661121357604051631e4fbdf760e01b8152600060048201526024016108c4565b61121c8161179b565b50565b60006020820180359060049083906112379086612f34565b63ffffffff1681526020810191909152604001600020541492915050565b63ffffffff8116600090815260046020526040812054806107935760405163f6ff4fb760e01b815263ffffffff841660048201526024016108c4565b60006112a36112a08787611b70565b90565b90506000806112b28888611b8f565b90925090506112cf8383836112ca60208f018f612f34565b611d01565b6112d98888611d1c565b1561139957600061130f6112f360608d0160408e0161344a565b61130060208e018e612f34565b61130a8c8c611d77565b611e1c565b604051633e5ac80960e11b81529091506001600160a01b037f00000000000000000000000000000000000000000000000000000000000000001690637cb59012906113659087908e906000908790600401613467565b600060405180830381600087803b15801561137f57600080fd5b505af1158015611393573d6000803e3d6000fd5b50505050505b50505050505050505050565b6001600160a01b0384166113cf57604051632bfa23e760e11b8152600060048201526024016108c4565b610949600085858585611e4b565b6113e73330611154565b61140657604051634ddd35b760e01b81523360048201526024016108c4565b611411338484611e9e565b505050565b60608060006114e8602085013561143060408701876130f2565b8080602002602001604051908101604052809392919081815260200183836020028082843760009201919091525061146f9250505060608801886130f2565b808060200260200160405190810160405280939291908181526020018383602002808284376000920191909152506114ae9250505060a08901896132fc565b8080601f016020809104026020016040519081016040528093929190818152602001838380828437600092019190915250611ee492505050565b90935090506000816114fb5760016114fe565b60025b905061151e6115106020870187612f34565b8261065960808901896132fc565b6007549093506001600160a01b0316156115a75760075460405163043a78eb60e01b81526001600160a01b039091169063043a78eb906115649087908790600401613498565b602060405180830381865afa158015611581573d6000803e3d6000fd5b505050506040513d601f19601f820116820180604052508101906115a591906134bd565b505b5050915091565b6115b661262d565b60006115c58460000151611f4f565b6020850151909150156115df576115df8460200151611f77565b7f00000000000000000000000000000000000000000000000000000000000000006001600160a01b0316632637a450826040518060a001604052808b63ffffffff16815260200161162f8c611255565b81526020018a815260200189815260200160008960200151111515815250866040518463ffffffff1660e01b815260040161166b9291906134da565b60806040518083038185885af1158015611689573d6000803e3d6000fd5b50505050506040513d601f19601f820116820180604052508101906116ae9190613583565b979650505050505050565b6001600160a01b0384166116e357604051632bfa23e760e11b8152600060048201526024016108c4565b6001600160a01b03851661170c57604051626a0d4560e21b8152600060048201526024016108c4565b6110828585858585611e4b565b6003546001600160a01b03163314610c895760405163118cdaa760e01b81523360048201526024016108c4565b63ffffffff8216600081815260046020908152604091829020849055815192835282018390527f238399d427b947898edb290f5ff0f9109849b1c3ba196a42e35f00c50a54b98b910160405180910390a15050565b600380546001600160a01b038381166001600160a01b0319831681179093556040519116919082907f8be0079c531659141344cd1fd0a4f28419497f9722a3daafe3b4186f6b6457e090600090a35050565b6001600160a01b03841661181757604051632bfa23e760e11b8152600060048201526024016108c4565b60408051600180825260208201869052818301908152606082018590526080820190925290610a8b600087848487611e4b565b6001600160a01b0382166118735760405162ced3e160e81b8152600060048201526024016108c4565b6001600160a01b03838116600081815260016020908152604080832094871680845294825291829020805460ff191686151590811790915591519182527f17307eab39ab6107e8899845ad3d59bd9653f200f220920489ca2b5937696c31910160405180910390a3505050565b60005b81518110156119b7576119128282815181106119015761190161316d565b6020026020010151604001516119e7565b8181815181106119245761192461316d565b602002602001015160400151600660008484815181106119465761194661316d565b60200260200101516000015163ffffffff1663ffffffff16815260200190815260200160002060008484815181106119805761198061316d565b60200260200101516020015161ffff1661ffff16815260200190815260200160002090816119ae9190613615565b506001016118e3565b507fbe4864a8e820971c0247f5992e2da559595f7bf076a21cb5928d443d2a13b67481604051610c6c91906136d4565b600281015161ffff8116600314610aa55781604051639a6d49cd60e01b81526004016108c49190612751565b60408051808201909152600080825260208201527f00000000000000000000000000000000000000000000000000000000000000006001600160a01b031663ddc28c586040518060a001604052808863ffffffff168152602001611a7689611255565b8152602001878152602001868152602001851515815250306040518363ffffffff1660e01b8152600401611aab9291906134da565b6040805180830381865afa158015611ac7573d6000803e3d6000fd5b505050506040513d601f19601f8201168201806040525081019061114b919061375f565b6001600160a01b038416611b1557604051632bfa23e760e11b8152600060048201526024016108c4565b6001600160a01b038516611b3e57604051626a0d4560e21b8152600060048201526024016108c4565b604080516001808252602082018690528183019081526060820185905260808201909252906109348787848487611e4b565b6000611b7f602082848661324c565b611b889161377b565b9392505050565b6060806000611bd385858080601f01602080910402602001604051908101604052809392919081815260200183838082843760009201919091525061205992505050565b9050806001600160401b03811115611bed57611bed612863565b604051908082528060200260200182016040528015611c16578160200160208202803683370190505b509250806001600160401b03811115611c3157611c31612863565b604051908082528060200260200182016040528015611c5a578160200160208202803683370190505b50915060005b81811015611cf857611c7e602082026060810190604001878961324c565b810190611c8b91906126e8565b848281518110611c9d57611c9d61316d565b602090810291909101810191909152611cc690828102908402016060810190604001878961324c565b810190611cd391906126e8565b838281518110611ce557611ce561316d565b6020908102919091010152600101611c60565b50509250929050565b610949848484604051806020016040528060008152506113a5565b604080516020601f8401819004810282018101835283825260009291611d5a9086868083860183828082843760009201919091525061205992505050565b611d6491906137af565b611d6e91906137c6565b90911192915050565b60606000611dba84848080601f01602080910402602001604051908101604052809392919081815260200183838082843760009201919091525061205992505050565b90508383611dc98360206137af565b611dd49060406137c6565b611ddf92829061324c565b8080601f01602080910402602001604051908101604052809392919081815260200183838082843760009201919091525092979650505050505050565b6060838383604051602001611e33939291906137d9565b60405160208183030381529060405290509392505050565b611e5785858585612060565b6001600160a01b038416156110825782513390600103611e905760208481015190840151611e89838989858589612274565b5050610a8b565b610a8b818787878787612398565b6001600160a01b038316611ec757604051626a0d4560e21b8152600060048201526024016108c4565b611411836000848460405180602001604052806000815250611e4b565b8051606090151580611f1b578451604051611f0791889188908890602001613848565b604051602081830303815290604052611f44565b8451604051611f34918891889088908890602001613869565b6040516020818303038152906040525b915094509492505050565b6000813414611f73576040516304fb820960e51b81523460048201526024016108c4565b5090565b60007f00000000000000000000000000000000000000000000000000000000000000006001600160a01b031663e4fe1d946040518163ffffffff1660e01b8152600401602060405180830381865afa158015611fd7573d6000803e3d6000fd5b505050506040513d601f19601f82011682018060405250810190611ffb91906138a6565b90506001600160a01b038116612024576040516329b99a9560e11b815260040160405180910390fd5b610aa56001600160a01b038216337f000000000000000000000000000000000000000000000000000000000000000085612481565b6040015190565b805182511461208f5781518151604051635b05999160e01b8152600481019290925260248201526044016108c4565b3360005b8351811015612195576020818102858101820151908501909101516001600160a01b03881615612146576000828152602081815260408083206001600160a01b038c1684529091529020548181101561211f576040516303dee4c560e01b81526001600160a01b038a1660048201526024810182905260448101839052606481018490526084016108c4565b6000838152602081815260408083206001600160a01b038d16845290915290209082900390555b6001600160a01b0387161561218b576000828152602081815260408083206001600160a01b038b168452909152812080548392906121859084906137c6565b90915550505b5050600101612093565b5082516001036122165760208301516000906020840151909150856001600160a01b0316876001600160a01b0316846001600160a01b03167fc3d58168c5ae7397731d063d5bbf3d657854427343f4c083240f7aacaa2d0f628585604051612207929190918252602082015260400190565b60405180910390a45050611082565b836001600160a01b0316856001600160a01b0316826001600160a01b03167f4a39dc06d4c0dbc64b70af90fd698a233a518aa5d07e595d983b8c0526c8f7fb86866040516122659291906138c3565b60405180910390a45050505050565b6001600160a01b0384163b15610a8b5760405163f23a6e6160e01b81526001600160a01b0385169063f23a6e61906122b890899089908890889088906004016138e8565b6020604051808303816000875af19250505080156122f3575060408051601f3d908101601f191682019092526122f091810190613922565b60015b61235c573d808015612321576040519150601f19603f3d011682016040523d82523d6000602084013e612326565b606091505b50805160000361235457604051632bfa23e760e11b81526001600160a01b03861660048201526024016108c4565b805181602001fd5b6001600160e01b0319811663f23a6e6160e01b1461093457604051632bfa23e760e11b81526001600160a01b03861660048201526024016108c4565b6001600160a01b0384163b15610a8b5760405163bc197c8160e01b81526001600160a01b0385169063bc197c81906123dc908990899088908890889060040161393f565b6020604051808303816000875af1925050508015612417575060408051601f3d908101601f1916820190925261241491810190613922565b60015b612445573d808015612321576040519150601f19603f3d011682016040523d82523d6000602084013e612326565b6001600160e01b0319811663bc197c8160e01b1461093457604051632bfa23e760e11b81526001600160a01b03861660048201526024016108c4565b604080516001600160a01b038581166024830152848116604483015260648083018590528351808403909101815260849092019092526020810180516001600160e01b03166323b872dd60e01b179052610949918691906000906124e790841683612535565b9050805160001415801561250c57508080602001905181019061250a91906134bd565b155b1561141157604051635274afe760e01b81526001600160a01b03841660048201526024016108c4565b6060611b888383600084600080856001600160a01b0316848660405161255b919061399d565b60006040518083038185875af1925050503d8060008114612598576040519150601f19603f3d011682016040523d82523d6000602084013e61259d565b606091505b5091509150610a228683836060826125bd576125b882612604565b611b88565b81511580156125d457506001600160a01b0384163b155b156125fd57604051639996b31560e01b81526001600160a01b03851660048201526024016108c4565b5080611b88565b8051156126145780518082602001fd5b604051630a12f52160e11b815260040160405180910390fd5b60405180606001604052806000801916815260200160006001600160401b0316815260200161266f604051806040016040528060008152602001600081525090565b905290565b6001600160a01b038116811461121c57600080fd5b6000806040838503121561269c57600080fd5b82356126a781612674565b946020939093013593505050565b6001600160e01b03198116811461121c57600080fd5b6000602082840312156126dd57600080fd5b8135611b88816126b5565b6000602082840312156126fa57600080fd5b5035919050565b60005b8381101561271c578181015183820152602001612704565b50506000910152565b6000815180845261273d816020860160208601612701565b601f01601f19169290920160200192915050565b602081526000611b886020830184612725565b60006060828403121561277657600080fd5b50919050565b60008083601f84011261278e57600080fd5b5081356001600160401b038111156127a557600080fd5b6020830191508360208285010111156127bd57600080fd5b9250929050565b600080600080600080600060e0888a0312156127df57600080fd5b6127e98989612764565b96506060880135955060808801356001600160401b038082111561280c57600080fd5b6128188b838c0161277c565b909750955060a08a0135915061282d82612674565b90935060c0890135908082111561284357600080fd5b506128508a828b0161277c565b989b979a50959850939692959293505050565b634e487b7160e01b600052604160045260246000fd5b604080519081016001600160401b038111828210171561289b5761289b612863565b60405290565b604051606081016001600160401b038111828210171561289b5761289b612863565b604051601f8201601f191681016001600160401b03811182821017156128eb576128eb612863565b604052919050565b60006001600160401b0382111561290c5761290c612863565b5060051b60200190565b600082601f83011261292757600080fd5b8135602061293c612937836128f3565b6128c3565b8083825260208201915060208460051b87010193508684111561295e57600080fd5b602086015b8481101561297a5780358352918301918301612963565b509695505050505050565b60006001600160401b0382111561299e5761299e612863565b50601f01601f191660200190565b600082601f8301126129bd57600080fd5b81356129cb61293782612985565b8181528460208386010111156129e057600080fd5b816020850160208301376000918101602001919091529392505050565b60008060008060808587031215612a1357600080fd5b8435612a1e81612674565b935060208501356001600160401b0380821115612a3a57600080fd5b612a4688838901612916565b94506040870135915080821115612a5c57600080fd5b612a6888838901612916565b93506060870135915080821115612a7e57600080fd5b50612a8b878288016129ac565b91505092959194509250565b600060e0828403121561277657600080fd5b60008060008385036080811215612abf57600080fd5b84356001600160401b03811115612ad557600080fd5b612ae187828801612a97565b9450506040601f1982011215612af657600080fd5b506020840191506060840135612b0b81612674565b809150509250925092565b6000608082019050825182526001600160401b0360208401511660208301526040830151612b51604084018280518252602090810151910152565b5092915050565b600080600080600060a08688031215612b7057600080fd5b8535612b7b81612674565b94506020860135612b8b81612674565b935060408601356001600160401b0380821115612ba757600080fd5b612bb389838a01612916565b94506060880135915080821115612bc957600080fd5b612bd589838a01612916565b93506080880135915080821115612beb57600080fd5b50612bf8888289016129ac565b9150509295509295909350565b803563ffffffff81168114612c1957600080fd5b919050565b60008060408385031215612c3157600080fd5b6126a783612c05565b60008060408385031215612c4d57600080fd5b82356001600160401b0380821115612c6457600080fd5b818501915085601f830112612c7857600080fd5b81356020612c88612937836128f3565b82815260059290921b84018101918181019089841115612ca757600080fd5b948201945b83861015612cce578535612cbf81612674565b82529482019490820190612cac565b96505086013592505080821115612ce457600080fd5b50612cf185828601612916565b9150509250929050565b60008151808452602080850194506020840160005b83811015612d2c57815187529582019590820190600101612d10565b509495945050505050565b602081526000611b886020830184612cfb565b803561ffff81168114612c1957600080fd5b60008060408385031215612d6f57600080fd5b612d7883612c05565b9150612d8660208401612d4a565b90509250929050565b600060208284031215612da157600080fd5b8135611b8881612674565b60008060008060808587031215612dc257600080fd5b8435612dcd81612674565b9350602085013592506040850135915060608501356001600160401b03811115612df657600080fd5b612a8b878288016129ac565b60008060008060a08587031215612e1857600080fd5b612e228686612764565b935060608501356001600160401b03811115612e3d57600080fd5b612e498782880161277c565b9094509250506080850135612e5d81612674565b939692955090935050565b801515811461121c57600080fd5b60008060408385031215612e8957600080fd5b8235612e9481612674565b91506020830135612ea481612e68565b809150509250929050565b60008083601f840112612ec157600080fd5b5081356001600160401b03811115612ed857600080fd5b6020830191508360208260051b85010111156127bd57600080fd5b60008060208385031215612f0657600080fd5b82356001600160401b03811115612f1c57600080fd5b612f2885828601612eaf565b90969095509350505050565b600060208284031215612f4657600080fd5b611b8882612c05565b60008060008060608587031215612f6557600080fd5b612f6e85612c05565b9350612f7c60208601612d4a565b925060408501356001600160401b03811115612f9757600080fd5b612fa38782880161277c565b95989497509550505050565b60008060408385031215612fc257600080fd5b82356001600160401b03811115612fd857600080fd5b612fe485828601612a97565b9250506020830135612ea481612e68565b815181526020808301519082015260408101610793565b6000806040838503121561301f57600080fd5b823561302a81612674565b91506020830135612ea481612674565b600080600080600060a0868803121561305257600080fd5b853561305d81612674565b9450602086013561306d81612674565b9350604086013592506060860135915060808601356001600160401b0381111561309657600080fd5b612bf8888289016129ac565b6000606082840312156130b457600080fd5b611b888383612764565b600181811c908216806130d257607f821691505b60208210810361277657634e487b7160e01b600052602260045260246000fd5b6000808335601e1984360301811261310957600080fd5b8301803591506001600160401b0382111561312357600080fd5b6020019150600581901b36038213156127bd57600080fd5b60006040828403121561314d57600080fd5b613155612879565b82358152602083013560208201528091505092915050565b634e487b7160e01b600052603260045260246000fd5b6000613191612937846128f3565b80848252602080830192508560051b8501368111156131af57600080fd5b855b818110156132405780356001600160401b03808211156131d15760008081fd5b8189019150606082360312156131e75760008081fd5b6131ef6128a1565b6131f883612c05565b8152613205868401612d4a565b868201526040808401358381111561321d5760008081fd5b613229368287016129ac565b9183019190915250875250509382019382016131b1565b50919695505050505050565b6000808585111561325c57600080fd5b8386111561326957600080fd5b5050820193919092039150565b60008451613288818460208901612701565b8201838582376000930192835250909392505050565b81835281816020850137506000828201602090810191909152601f909101601f19169091010190565b602081526000610ca460208301848661329e565b6000823561013e198336030181126132f257600080fd5b9190910192915050565b6000808335601e1984360301811261331357600080fd5b8301803591506001600160401b0382111561332d57600080fd5b6020019150368190038213156127bd57600080fd5b6001600160401b038116811461121c57600080fd5b63ffffffff61336589612c05565b168152602088013560208201526000604089013561338281613342565b6001600160401b03811660408401525087606083015260e060808301526133ad60e08301878961329e565b6001600160a01b03861660a084015282810360c08401526133cf81858761329e565b9a9950505050505050505050565b6000602082840312156133ef57600080fd5b81516001600160401b0381111561340557600080fd5b8201601f8101841361341657600080fd5b805161342461293782612985565b81815285602083850101111561343957600080fd5b61114b826020830160208601612701565b60006020828403121561345c57600080fd5b8135611b8881613342565b60018060a01b038516815283602082015261ffff83166040820152608060608201526000610a226080830184612725565b6040815260006134ab6040830185612725565b828103602084015261114b8185612725565b6000602082840312156134cf57600080fd5b8151611b8881612e68565b6040815263ffffffff8351166040820152602083015160608201526000604084015160a0608084015261351060e0840182612725565b90506060850151603f198483030160a085015261352d8282612725565b60809690960151151560c08501525050506001600160a01b039190911660209091015290565b60006040828403121561356557600080fd5b61356d612879565b9050815181526020820151602082015292915050565b60006080828403121561359557600080fd5b61359d6128a1565b8251815260208301516135af81613342565b60208201526135c18460408501613553565b60408201529392505050565b601f821115611411576000816000526020600020601f850160051c810160208610156135f65750805b601f850160051c820191505b81811015610a8b57828155600101613602565b81516001600160401b0381111561362e5761362e612863565b6136428161363c84546130be565b846135cd565b602080601f831160018114613677576000841561365f5750858301515b600019600386901b1c1916600185901b178555610a8b565b600085815260208120601f198616915b828110156136a657888601518255948401946001909101908401613687565b50858210156136c45787850151600019600388901b60f8161c191681555b5050505050600190811b01905550565b600060208083018184528085518083526040925060408601915060408160051b87010184880160005b8381101561375157888303603f190185528151805163ffffffff1684528781015161ffff1688850152860151606087850181905261373d81860183612725565b9689019694505050908601906001016136fd565b509098975050505050505050565b60006040828403121561377157600080fd5b611b888383613553565b8035602083101561079357600019602084900360031b1b1692915050565b634e487b7160e01b600052601160045260246000fd5b808202811582820484141761079357610793613799565b8082018082111561079357610793613799565b60c084901b6001600160c01b031916815260e083901b6001600160e01b0319166008820152815160009061381481600c850160208701612701565b91909101600c01949350505050565b80516000906020808401838315612d2c57815187529582019590820190600101612d10565b8481528360208201526000610a226138636040840186613823565b84613823565b858152846020820152600061388a6138846040840187613823565b85613823565b835161389a818360208801612701565b01979650505050505050565b6000602082840312156138b857600080fd5b8151611b8881612674565b6040815260006138d66040830185612cfb565b828103602084015261114b8185612cfb565b6001600160a01b03868116825285166020820152604081018490526060810183905260a0608082018190526000906116ae90830184612725565b60006020828403121561393457600080fd5b8151611b88816126b5565b6001600160a01b0386811682528516602082015260a06040820181905260009061396b90830186612cfb565b828103606084015261397d8186612cfb565b905082810360808401526139918185612725565b98975050505050505050565b600082516132f281846020870161270156fea2646970667358221220821dbd374ba81349ad36112c4f0566b1ec767a4134f68c2e85102e028aad346764736f6c63430008160033","linkReferences":{}},"methodIdentifiers":{"SEND()":"1f5e1334","SEND_AND_COMPOSE()":"b21a33e4","allowInitializePath((uint32,bytes32,uint64))":"ff7bd03d","balanceOf(address,uint256)":"00fdd58e","balanceOfBatch(address[],uint256[])":"4e1273f4","combineOptions(uint32,uint16,bytes)":"bc70b354","endpoint()":"5e280f11","enforcedOptions(uint32,uint16)":"5535d461","isApprovedForAll(address,address)":"e985e9c5","isComposeMsgSender((uint32,bytes32,uint64),bytes,address)":"82413eac","isPeer(uint32,bytes32)":"5a0dfe4d","lzReceive((uint32,bytes32,uint64),bytes32,bytes,address,bytes)":"13137d65","lzReceiveAndRevert(((uint32,bytes32,uint64),uint32,address,bytes32,uint256,address,bytes,bytes)[])":"bd815db0","lzReceiveSimulate((uint32,bytes32,uint64),bytes32,bytes,address,bytes)":"d045a0dc","mint(address,uint256,uint256,bytes)":"731133e9","mintBatch(address,uint256[],uint256[],bytes)":"1f7fdffa","msgInspector()":"111ecdad","nextNonce(uint32,bytes32)":"7d25a05e","oApp()":"52ae2879","oAppVersion()":"17442b70","onftVersion()":"a72f5dd8","owner()":"8da5cb5b","peers(uint32)":"bb0b6a53","preCrime()":"b731ea0a","quoteSend((uint32,bytes32,uint256[],uint256[],bytes,bytes,bytes),bool)":"d58c3aa8","renounceOwnership()":"715018a6","safeBatchTransferFrom(address,address,uint256[],uint256[],bytes)":"2eb2c2d6","safeTransferFrom(address,address,uint256,uint256,bytes)":"f242432a","send((uint32,bytes32,uint256[],uint256[],bytes,bytes,bytes),(uint256,uint256),address)":"2250032b","setApprovalForAll(address,bool)":"a22cb465","setDelegate(address)":"ca5eb5e1","setEnforcedOptions((uint32,uint16,bytes)[])":"b98bd070","setMsgInspector(address)":"6fc1b31e","setPeer(uint32,bytes32)":"3400288b","setPreCrime(address)":"d4243885","supportsInterface(bytes4)":"01ffc9a7","token()":"fc0c546a","transferOwnership(address)":"f2fde38b","uri(uint256)":"0e89341c"},"id":139}