{
  "abi": [
    {
      "type": "function",
      "name": "BASE_ASSET_BRIDGE_ADDRESS",
      "inputs": [],
      "outputs": [
        {
          "name": "",
          "type": "address",
          "internalType": "address"
        }
      ],
      "stateMutability": "view"
    },
    {
      "type": "function",
      "name": "BASE_ASSET_BRIDGE_ADDRESS_UINT256",
      "inputs": [],
      "outputs": [
        {
          "name": "",
          "type": "uint256",
          "internalType": "uint256"
        }
      ],
      "stateMutability": "view"
    },
    {
      "type": "function",
      "name": "EVM_MAX_TRANSFERABLE_INTO_CORE_PER_TX",
      "inputs": [],
      "outputs": [
        {
          "name": "",
          "type": "uint64",
          "internalType": "uint64"
        }
      ],
      "stateMutability": "view"
    },
    {
      "type": "function",
      "name": "VALID_COMPOSE_MESSAGE_LENGTH_ENCODE",
      "inputs": [],
      "outputs": [
        {
          "name": "",
          "type": "uint256",
          "internalType": "uint256"
        }
      ],
      "stateMutability": "view"
    },
    {
      "type": "function",
      "name": "VALID_COMPOSE_MESSAGE_LENGTH_PACKED",
      "inputs": [],
      "outputs": [
        {
          "name": "",
          "type": "uint256",
          "internalType": "uint256"
        }
      ],
      "stateMutability": "view"
    }
  ],
  "bytecode": {
    "object": "0x61014f610035600b8282823980515f1a60731461002957634e487b7160e01b5f525f60045260245ffd5b305f52607381538281f3fe730000000000000000000000000000000000000000301460806040526004361061006f575f3560e01c8063807d6c3f11610058578063807d6c3f146100c95780639278d99a146100d1578063d58daedf146100d9575f80fd5b806303e41b77146100735780633fcc9682146100a1575b5f80fd5b61008e73200000000000000000000000000000000000000081565b6040519081526020015b60405180910390f35b6100b067ffffffffffffffff81565b60405167ffffffffffffffff9091168152602001610098565b61008e601481565b61008e602081565b6100f473200000000000000000000000000000000000000081565b60405173ffffffffffffffffffffffffffffffffffffffff909116815260200161009856fea26469706673582212209e2834faf9f5aceb58fe14a5c44185fdf583e64000572f550e2bce2d8454b1fd64736f6c63430008160033",
    "linkReferences": {}
  },
  "methodIdentifiers": {
    "BASE_ASSET_BRIDGE_ADDRESS()": "d58daedf",
    "BASE_ASSET_BRIDGE_ADDRESS_UINT256()": "03e41b77",
    "EVM_MAX_TRANSFERABLE_INTO_CORE_PER_TX()": "3fcc9682",
    "VALID_COMPOSE_MESSAGE_LENGTH_ENCODE()": "9278d99a",
    "VALID_COMPOSE_MESSAGE_LENGTH_PACKED()": "807d6c3f"
  },
  "id": 7
}