{
  "abi": [
    {
      "type": "function",
      "name": "BASE_ASSET_BRIDGE_ADDRESS",
      "inputs": [],
      "outputs": [
        {
          "name": "",
          "type": "address",
          "internalType": "address"
        }
      ],
      "stateMutability": "view"
    },
    {
      "type": "function",
      "name": "BASE_ASSET_BRIDGE_ADDRESS_UINT256",
      "inputs": [],
      "outputs": [
        {
          "name": "",
          "type": "uint256",
          "internalType": "uint256"
        }
      ],
      "stateMutability": "view"
    },
    {
      "type": "function",
      "name": "COMPOSE_MSG_LENGTH",
      "inputs": [],
      "outputs": [
        {
          "name": "",
          "type": "uint256",
          "internalType": "uint256"
        }
      ],
      "stateMutability": "view"
    },
    {
      "type": "function",
      "name": "EVM_MAX_TRANSFERABLE_INTO_CORE_PER_TX",
      "inputs": [],
      "outputs": [
        {
          "name": "",
          "type": "uint64",
          "internalType": "uint64"
        }
      ],
      "stateMutability": "view"
    }
  ],
  "bytecode": {
    "object": "0x610122610035600b8282823980515f1a60731461002957634e487b7160e01b5f525f60045260245ffd5b305f52607381538281f3fe73000000000000000000000000000000000000000030146080604052600436106050575f3560e01c806303e41b771460545780633fcc9682146081578063cdfe92cd1460a7578063d58daedf1460ae575b5f80fd5b606e73200000000000000000000000000000000000000081565b6040519081526020015b60405180910390f35b608f67ffffffffffffffff81565b60405167ffffffffffffffff90911681526020016078565b606e604081565b60c873200000000000000000000000000000000000000081565b60405173ffffffffffffffffffffffffffffffffffffffff9091168152602001607856fea264697066735822122021697a73ff2d2de54f78272eee6d158ec5ddbf4414809b724473fdada89457ef64736f6c63430008160033",
    "linkReferences": {}
  },
  "methodIdentifiers": {
    "BASE_ASSET_BRIDGE_ADDRESS()": "d58daedf",
    "BASE_ASSET_BRIDGE_ADDRESS_UINT256()": "03e41b77",
    "COMPOSE_MSG_LENGTH()": "cdfe92cd",
    "EVM_MAX_TRANSFERABLE_INTO_CORE_PER_TX()": "3fcc9682"
  },
  "id": 8
}