{
  "abi": [
    {
      "type": "function",
      "name": "BASE_ASSET_BRIDGE_ADDRESS",
      "inputs": [],
      "outputs": [
        {
          "name": "",
          "type": "address",
          "internalType": "address"
        }
      ],
      "stateMutability": "view"
    },
    {
      "type": "function",
      "name": "BASE_ASSET_BRIDGE_ADDRESS_UINT256",
      "inputs": [],
      "outputs": [
        {
          "name": "",
          "type": "uint256",
          "internalType": "uint256"
        }
      ],
      "stateMutability": "view"
    },
    {
      "type": "error",
      "name": "TransferAmtExceedsAssetBridgeBalance",
      "inputs": [
        {
          "name": "amt",
          "type": "uint256",
          "internalType": "uint256"
        },
        {
          "name": "maxAmt",
          "type": "uint256",
          "internalType": "uint256"
        }
      ]
    }
  ],
  "bytecode": {
    "object": "0x60e1610034600b8282823980515f1a60731461002857634e487b7160e01b5f525f60045260245ffd5b305f52607381538281f3fe7300000000000000000000000000000000000000003014608060405260043610603c575f3560e01c806303e41b77146040578063d58daedf14606d575b5f80fd5b605a73200000000000000000000000000000000000000081565b6040519081526020015b60405180910390f35b608773200000000000000000000000000000000000000081565b60405173ffffffffffffffffffffffffffffffffffffffff9091168152602001606456fea26469706673582212208bb93c370abdfaf43aa52a885399cdc28ac63606009aa76fda162fbc30b3fee564736f6c63430008160033",
    "linkReferences": {}
  },
  "methodIdentifiers": {
    "BASE_ASSET_BRIDGE_ADDRESS()": "d58daedf",
    "BASE_ASSET_BRIDGE_ADDRESS_UINT256()": "03e41b77"
  },
  "id": 10
}