{
  "abi": [
    {
      "type": "function",
      "name": "BASE_ASSET_BRIDGE_ADDRESS",
      "inputs": [],
      "outputs": [
        {
          "name": "",
          "type": "address",
          "internalType": "address"
        }
      ],
      "stateMutability": "view"
    },
    {
      "type": "function",
      "name": "BASE_ASSET_BRIDGE_ADDRESS_UINT256",
      "inputs": [],
      "outputs": [
        {
          "name": "",
          "type": "uint256",
          "internalType": "uint256"
        }
      ],
      "stateMutability": "view"
    },
    {
      "type": "function",
      "name": "EVM_MAX_TRANSFERABLE_INTO_CORE_PER_TX",
      "inputs": [],
      "outputs": [
        {
          "name": "",
          "type": "uint64",
          "internalType": "uint64"
        }
      ],
      "stateMutability": "view"
    }
  ],
  "bytecode": {
    "object": "0x610111610035600b8282823980515f1a60731461002957634e487b7160e01b5f525f60045260245ffd5b305f52607381538281f3fe73000000000000000000000000000000000000000030146080604052600436106046575f3560e01c806303e41b7714604a5780633fcc9682146077578063d58daedf14609d575b5f80fd5b606473200000000000000000000000000000000000000081565b6040519081526020015b60405180910390f35b608567ffffffffffffffff81565b60405167ffffffffffffffff9091168152602001606e565b60b773200000000000000000000000000000000000000081565b60405173ffffffffffffffffffffffffffffffffffffffff9091168152602001606e56fea2646970667358221220fa932d06ba9f4dcc355d4acf6730a91df13888f0b1b2f979738e75b93d4a65a264736f6c63430008160033",
    "linkReferences": {}
  },
  "methodIdentifiers": {
    "BASE_ASSET_BRIDGE_ADDRESS()": "d58daedf",
    "BASE_ASSET_BRIDGE_ADDRESS_UINT256()": "03e41b77",
    "EVM_MAX_TRANSFERABLE_INTO_CORE_PER_TX()": "3fcc9682"
  },
  "id": 9
}