{
  "abi": [
    {
      "type": "constructor",
      "inputs": [
        {
          "name": "_vid",
          "type": "uint32",
          "internalType": "uint32"
        },
        {
          "name": "_messageLibs",
          "type": "address[]",
          "internalType": "address[]"
        },
        {
          "name": "_priceFeed",
          "type": "address",
          "internalType": "address"
        },
        {
          "name": "_signers",
          "type": "address[]",
          "internalType": "address[]"
        },
        {
          "name": "_quorum",
          "type": "uint64",
          "internalType": "uint64"
        },
        {
          "name": "_admins",
          "type": "address[]",
          "internalType": "address[]"
        }
      ],
      "stateMutability": "nonpayable"
    },
    {
      "type": "function",
      "name": "DEFAULT_ADMIN_ROLE",
      "inputs": [],
      "outputs": [
        {
          "name": "",
          "type": "bytes32",
          "internalType": "bytes32"
        }
      ],
      "stateMutability": "view"
    },
    {
      "type": "function",
      "name": "allowlistSize",
      "inputs": [],
      "outputs": [
        {
          "name": "",
          "type": "uint64",
          "internalType": "uint64"
        }
      ],
      "stateMutability": "view"
    },
    {
      "type": "function",
      "name": "assignJob",
      "inputs": [
        {
          "name": "_param",
          "type": "tuple",
          "internalType": "struct ILayerZeroDVN.AssignJobParam",
          "components": [
            {
              "name": "dstEid",
              "type": "uint32",
              "internalType": "uint32"
            },
            {
              "name": "packetHeader",
              "type": "bytes",
              "internalType": "bytes"
            },
            {
              "name": "payloadHash",
              "type": "bytes32",
              "internalType": "bytes32"
            },
            {
              "name": "confirmations",
              "type": "uint64",
              "internalType": "uint64"
            },
            {
              "name": "sender",
              "type": "address",
              "internalType": "address"
            }
          ]
        },
        {
          "name": "_options",
          "type": "bytes",
          "internalType": "bytes"
        }
      ],
      "outputs": [
        {
          "name": "totalFee",
          "type": "uint256",
          "internalType": "uint256"
        }
      ],
      "stateMutability": "payable"
    },
    {
      "type": "function",
      "name": "assignJob",
      "inputs": [
        {
          "name": "_dstEid",
          "type": "uint16",
          "internalType": "uint16"
        },
        {
          "name": "",
          "type": "uint16",
          "internalType": "uint16"
        },
        {
          "name": "_confirmations",
          "type": "uint64",
          "internalType": "uint64"
        },
        {
          "name": "_sender",
          "type": "address",
          "internalType": "address"
        }
      ],
      "outputs": [
        {
          "name": "totalFee",
          "type": "uint256",
          "internalType": "uint256"
        }
      ],
      "stateMutability": "nonpayable"
    },
    {
      "type": "function",
      "name": "defaultMultiplierBps",
      "inputs": [],
      "outputs": [
        {
          "name": "",
          "type": "uint16",
          "internalType": "uint16"
        }
      ],
      "stateMutability": "view"
    },
    {
      "type": "function",
      "name": "dstConfig",
      "inputs": [
        {
          "name": "dstEid",
          "type": "uint32",
          "internalType": "uint32"
        }
      ],
      "outputs": [
        {
          "name": "gas",
          "type": "uint64",
          "internalType": "uint64"
        },
        {
          "name": "multiplierBps",
          "type": "uint16",
          "internalType": "uint16"
        },
        {
          "name": "floorMarginUSD",
          "type": "uint128",
          "internalType": "uint128"
        }
      ],
      "stateMutability": "view"
    },
    {
      "type": "function",
      "name": "execute",
      "inputs": [
        {
          "name": "_params",
          "type": "tuple[]",
          "internalType": "struct ExecuteParam[]",
          "components": [
            {
              "name": "vid",
              "type": "uint32",
              "internalType": "uint32"
            },
            {
              "name": "target",
              "type": "address",
              "internalType": "address"
            },
            {
              "name": "callData",
              "type": "bytes",
              "internalType": "bytes"
            },
            {
              "name": "expiration",
              "type": "uint256",
              "internalType": "uint256"
            },
            {
              "name": "signatures",
              "type": "bytes",
              "internalType": "bytes"
            }
          ]
        }
      ],
      "outputs": [],
      "stateMutability": "nonpayable"
    },
    {
      "type": "function",
      "name": "getFee",
      "inputs": [
        {
          "name": "_dstEid",
          "type": "uint32",
          "internalType": "uint32"
        },
        {
          "name": "_confirmations",
          "type": "uint64",
          "internalType": "uint64"
        },
        {
          "name": "_sender",
          "type": "address",
          "internalType": "address"
        },
        {
          "name": "_options",
          "type": "bytes",
          "internalType": "bytes"
        }
      ],
      "outputs": [
        {
          "name": "fee",
          "type": "uint256",
          "internalType": "uint256"
        }
      ],
      "stateMutability": "view"
    },
    {
      "type": "function",
      "name": "getFee",
      "inputs": [
        {
          "name": "_dstEid",
          "type": "uint16",
          "internalType": "uint16"
        },
        {
          "name": "",
          "type": "uint16",
          "internalType": "uint16"
        },
        {
          "name": "_confirmations",
          "type": "uint64",
          "internalType": "uint64"
        },
        {
          "name": "_sender",
          "type": "address",
          "internalType": "address"
        }
      ],
      "outputs": [
        {
          "name": "fee",
          "type": "uint256",
          "internalType": "uint256"
        }
      ],
      "stateMutability": "view"
    },
    {
      "type": "function",
      "name": "getRoleAdmin",
      "inputs": [
        {
          "name": "role",
          "type": "bytes32",
          "internalType": "bytes32"
        }
      ],
      "outputs": [
        {
          "name": "",
          "type": "bytes32",
          "internalType": "bytes32"
        }
      ],
      "stateMutability": "view"
    },
    {
      "type": "function",
      "name": "getSupportedOptionTypes",
      "inputs": [
        {
          "name": "_eid",
          "type": "uint32",
          "internalType": "uint32"
        }
      ],
      "outputs": [
        {
          "name": "",
          "type": "uint8[]",
          "internalType": "uint8[]"
        }
      ],
      "stateMutability": "view"
    },
    {
      "type": "function",
      "name": "grantRole",
      "inputs": [
        {
          "name": "_role",
          "type": "bytes32",
          "internalType": "bytes32"
        },
        {
          "name": "_account",
          "type": "address",
          "internalType": "address"
        }
      ],
      "outputs": [],
      "stateMutability": "nonpayable"
    },
    {
      "type": "function",
      "name": "hasAcl",
      "inputs": [
        {
          "name": "_sender",
          "type": "address",
          "internalType": "address"
        }
      ],
      "outputs": [
        {
          "name": "",
          "type": "bool",
          "internalType": "bool"
        }
      ],
      "stateMutability": "view"
    },
    {
      "type": "function",
      "name": "hasRole",
      "inputs": [
        {
          "name": "role",
          "type": "bytes32",
          "internalType": "bytes32"
        },
        {
          "name": "account",
          "type": "address",
          "internalType": "address"
        }
      ],
      "outputs": [
        {
          "name": "",
          "type": "bool",
          "internalType": "bool"
        }
      ],
      "stateMutability": "view"
    },
    {
      "type": "function",
      "name": "hashCallData",
      "inputs": [
        {
          "name": "_vid",
          "type": "uint32",
          "internalType": "uint32"
        },
        {
          "name": "_target",
          "type": "address",
          "internalType": "address"
        },
        {
          "name": "_callData",
          "type": "bytes",
          "internalType": "bytes"
        },
        {
          "name": "_expiration",
          "type": "uint256",
          "internalType": "uint256"
        }
      ],
      "outputs": [
        {
          "name": "",
          "type": "bytes32",
          "internalType": "bytes32"
        }
      ],
      "stateMutability": "pure"
    },
    {
      "type": "function",
      "name": "paused",
      "inputs": [],
      "outputs": [
        {
          "name": "",
          "type": "bool",
          "internalType": "bool"
        }
      ],
      "stateMutability": "view"
    },
    {
      "type": "function",
      "name": "priceFeed",
      "inputs": [],
      "outputs": [
        {
          "name": "",
          "type": "address",
          "internalType": "address"
        }
      ],
      "stateMutability": "view"
    },
    {
      "type": "function",
      "name": "quorum",
      "inputs": [],
      "outputs": [
        {
          "name": "",
          "type": "uint64",
          "internalType": "uint64"
        }
      ],
      "stateMutability": "view"
    },
    {
      "type": "function",
      "name": "quorumChangeAdmin",
      "inputs": [
        {
          "name": "_param",
          "type": "tuple",
          "internalType": "struct ExecuteParam",
          "components": [
            {
              "name": "vid",
              "type": "uint32",
              "internalType": "uint32"
            },
            {
              "name": "target",
              "type": "address",
              "internalType": "address"
            },
            {
              "name": "callData",
              "type": "bytes",
              "internalType": "bytes"
            },
            {
              "name": "expiration",
              "type": "uint256",
              "internalType": "uint256"
            },
            {
              "name": "signatures",
              "type": "bytes",
              "internalType": "bytes"
            }
          ]
        }
      ],
      "outputs": [],
      "stateMutability": "nonpayable"
    },
    {
      "type": "function",
      "name": "renounceRole",
      "inputs": [
        {
          "name": "",
          "type": "bytes32",
          "internalType": "bytes32"
        },
        {
          "name": "",
          "type": "address",
          "internalType": "address"
        }
      ],
      "outputs": [],
      "stateMutability": "pure"
    },
    {
      "type": "function",
      "name": "revokeRole",
      "inputs": [
        {
          "name": "_role",
          "type": "bytes32",
          "internalType": "bytes32"
        },
        {
          "name": "_account",
          "type": "address",
          "internalType": "address"
        }
      ],
      "outputs": [],
      "stateMutability": "nonpayable"
    },
    {
      "type": "function",
      "name": "setDefaultMultiplierBps",
      "inputs": [
        {
          "name": "_multiplierBps",
          "type": "uint16",
          "internalType": "uint16"
        }
      ],
      "outputs": [],
      "stateMutability": "nonpayable"
    },
    {
      "type": "function",
      "name": "setDstConfig",
      "inputs": [
        {
          "name": "_params",
          "type": "tuple[]",
          "internalType": "struct IDVN.DstConfigParam[]",
          "components": [
            {
              "name": "dstEid",
              "type": "uint32",
              "internalType": "uint32"
            },
            {
              "name": "gas",
              "type": "uint64",
              "internalType": "uint64"
            },
            {
              "name": "multiplierBps",
              "type": "uint16",
              "internalType": "uint16"
            },
            {
              "name": "floorMarginUSD",
              "type": "uint128",
              "internalType": "uint128"
            }
          ]
        }
      ],
      "outputs": [],
      "stateMutability": "nonpayable"
    },
    {
      "type": "function",
      "name": "setPaused",
      "inputs": [
        {
          "name": "_paused",
          "type": "bool",
          "internalType": "bool"
        }
      ],
      "outputs": [],
      "stateMutability": "nonpayable"
    },
    {
      "type": "function",
      "name": "setPriceFeed",
      "inputs": [
        {
          "name": "_priceFeed",
          "type": "address",
          "internalType": "address"
        }
      ],
      "outputs": [],
      "stateMutability": "nonpayable"
    },
    {
      "type": "function",
      "name": "setQuorum",
      "inputs": [
        {
          "name": "_quorum",
          "type": "uint64",
          "internalType": "uint64"
        }
      ],
      "outputs": [],
      "stateMutability": "nonpayable"
    },
    {
      "type": "function",
      "name": "setSigner",
      "inputs": [
        {
          "name": "_signer",
          "type": "address",
          "internalType": "address"
        },
        {
          "name": "_active",
          "type": "bool",
          "internalType": "bool"
        }
      ],
      "outputs": [],
      "stateMutability": "nonpayable"
    },
    {
      "type": "function",
      "name": "setSupportedOptionTypes",
      "inputs": [
        {
          "name": "_eid",
          "type": "uint32",
          "internalType": "uint32"
        },
        {
          "name": "_optionTypes",
          "type": "uint8[]",
          "internalType": "uint8[]"
        }
      ],
      "outputs": [],
      "stateMutability": "nonpayable"
    },
    {
      "type": "function",
      "name": "setWorkerFeeLib",
      "inputs": [
        {
          "name": "_workerFeeLib",
          "type": "address",
          "internalType": "address"
        }
      ],
      "outputs": [],
      "stateMutability": "nonpayable"
    },
    {
      "type": "function",
      "name": "signerSize",
      "inputs": [],
      "outputs": [
        {
          "name": "",
          "type": "uint64",
          "internalType": "uint64"
        }
      ],
      "stateMutability": "view"
    },
    {
      "type": "function",
      "name": "signers",
      "inputs": [
        {
          "name": "signer",
          "type": "address",
          "internalType": "address"
        }
      ],
      "outputs": [
        {
          "name": "active",
          "type": "bool",
          "internalType": "bool"
        }
      ],
      "stateMutability": "view"
    },
    {
      "type": "function",
      "name": "supportsInterface",
      "inputs": [
        {
          "name": "interfaceId",
          "type": "bytes4",
          "internalType": "bytes4"
        }
      ],
      "outputs": [
        {
          "name": "",
          "type": "bool",
          "internalType": "bool"
        }
      ],
      "stateMutability": "view"
    },
    {
      "type": "function",
      "name": "usedHashes",
      "inputs": [
        {
          "name": "executableHash",
          "type": "bytes32",
          "internalType": "bytes32"
        }
      ],
      "outputs": [
        {
          "name": "used",
          "type": "bool",
          "internalType": "bool"
        }
      ],
      "stateMutability": "view"
    },
    {
      "type": "function",
      "name": "verifySignatures",
      "inputs": [
        {
          "name": "_hash",
          "type": "bytes32",
          "internalType": "bytes32"
        },
        {
          "name": "_signatures",
          "type": "bytes",
          "internalType": "bytes"
        }
      ],
      "outputs": [
        {
          "name": "",
          "type": "bool",
          "internalType": "bool"
        },
        {
          "name": "",
          "type": "uint8",
          "internalType": "enum MultiSig.Errors"
        }
      ],
      "stateMutability": "view"
    },
    {
      "type": "function",
      "name": "vid",
      "inputs": [],
      "outputs": [
        {
          "name": "",
          "type": "uint32",
          "internalType": "uint32"
        }
      ],
      "stateMutability": "view"
    },
    {
      "type": "function",
      "name": "withdrawFee",
      "inputs": [
        {
          "name": "_lib",
          "type": "address",
          "internalType": "address"
        },
        {
          "name": "_to",
          "type": "address",
          "internalType": "address"
        },
        {
          "name": "_amount",
          "type": "uint256",
          "internalType": "uint256"
        }
      ],
      "outputs": [],
      "stateMutability": "nonpayable"
    },
    {
      "type": "function",
      "name": "withdrawFeeFromUlnV2",
      "inputs": [
        {
          "name": "_lib",
          "type": "address",
          "internalType": "address"
        },
        {
          "name": "_to",
          "type": "address",
          "internalType": "address payable"
        },
        {
          "name": "_amount",
          "type": "uint256",
          "internalType": "uint256"
        }
      ],
      "outputs": [],
      "stateMutability": "nonpayable"
    },
    {
      "type": "function",
      "name": "withdrawToken",
      "inputs": [
        {
          "name": "_token",
          "type": "address",
          "internalType": "address"
        },
        {
          "name": "_to",
          "type": "address",
          "internalType": "address"
        },
        {
          "name": "_amount",
          "type": "uint256",
          "internalType": "uint256"
        }
      ],
      "outputs": [],
      "stateMutability": "nonpayable"
    },
    {
      "type": "function",
      "name": "workerFeeLib",
      "inputs": [],
      "outputs": [
        {
          "name": "",
          "type": "address",
          "internalType": "address"
        }
      ],
      "stateMutability": "view"
    },
    {
      "type": "event",
      "name": "ExecuteFailed",
      "inputs": [
        {
          "name": "_index",
          "type": "uint256",
          "indexed": false,
          "internalType": "uint256"
        },
        {
          "name": "_data",
          "type": "bytes",
          "indexed": false,
          "internalType": "bytes"
        }
      ],
      "anonymous": false
    },
    {
      "type": "event",
      "name": "HashAlreadyUsed",
      "inputs": [
        {
          "name": "param",
          "type": "tuple",
          "indexed": false,
          "internalType": "struct ExecuteParam",
          "components": [
            {
              "name": "vid",
              "type": "uint32",
              "internalType": "uint32"
            },
            {
              "name": "target",
              "type": "address",
              "internalType": "address"
            },
            {
              "name": "callData",
              "type": "bytes",
              "internalType": "bytes"
            },
            {
              "name": "expiration",
              "type": "uint256",
              "internalType": "uint256"
            },
            {
              "name": "signatures",
              "type": "bytes",
              "internalType": "bytes"
            }
          ]
        },
        {
          "name": "_hash",
          "type": "bytes32",
          "indexed": false,
          "internalType": "bytes32"
        }
      ],
      "anonymous": false
    },
    {
      "type": "event",
      "name": "Paused",
      "inputs": [
        {
          "name": "account",
          "type": "address",
          "indexed": false,
          "internalType": "address"
        }
      ],
      "anonymous": false
    },
    {
      "type": "event",
      "name": "RoleAdminChanged",
      "inputs": [
        {
          "name": "role",
          "type": "bytes32",
          "indexed": true,
          "internalType": "bytes32"
        },
        {
          "name": "previousAdminRole",
          "type": "bytes32",
          "indexed": true,
          "internalType": "bytes32"
        },
        {
          "name": "newAdminRole",
          "type": "bytes32",
          "indexed": true,
          "internalType": "bytes32"
        }
      ],
      "anonymous": false
    },
    {
      "type": "event",
      "name": "RoleGranted",
      "inputs": [
        {
          "name": "role",
          "type": "bytes32",
          "indexed": true,
          "internalType": "bytes32"
        },
        {
          "name": "account",
          "type": "address",
          "indexed": true,
          "internalType": "address"
        },
        {
          "name": "sender",
          "type": "address",
          "indexed": true,
          "internalType": "address"
        }
      ],
      "anonymous": false
    },
    {
      "type": "event",
      "name": "RoleRevoked",
      "inputs": [
        {
          "name": "role",
          "type": "bytes32",
          "indexed": true,
          "internalType": "bytes32"
        },
        {
          "name": "account",
          "type": "address",
          "indexed": true,
          "internalType": "address"
        },
        {
          "name": "sender",
          "type": "address",
          "indexed": true,
          "internalType": "address"
        }
      ],
      "anonymous": false
    },
    {
      "type": "event",
      "name": "SetDefaultMultiplierBps",
      "inputs": [
        {
          "name": "multiplierBps",
          "type": "uint16",
          "indexed": false,
          "internalType": "uint16"
        }
      ],
      "anonymous": false
    },
    {
      "type": "event",
      "name": "SetDstConfig",
      "inputs": [
        {
          "name": "params",
          "type": "tuple[]",
          "indexed": false,
          "internalType": "struct IDVN.DstConfigParam[]",
          "components": [
            {
              "name": "dstEid",
              "type": "uint32",
              "internalType": "uint32"
            },
            {
              "name": "gas",
              "type": "uint64",
              "internalType": "uint64"
            },
            {
              "name": "multiplierBps",
              "type": "uint16",
              "internalType": "uint16"
            },
            {
              "name": "floorMarginUSD",
              "type": "uint128",
              "internalType": "uint128"
            }
          ]
        }
      ],
      "anonymous": false
    },
    {
      "type": "event",
      "name": "SetPriceFeed",
      "inputs": [
        {
          "name": "priceFeed",
          "type": "address",
          "indexed": false,
          "internalType": "address"
        }
      ],
      "anonymous": false
    },
    {
      "type": "event",
      "name": "SetSupportedOptionTypes",
      "inputs": [
        {
          "name": "dstEid",
          "type": "uint32",
          "indexed": false,
          "internalType": "uint32"
        },
        {
          "name": "optionTypes",
          "type": "uint8[]",
          "indexed": false,
          "internalType": "uint8[]"
        }
      ],
      "anonymous": false
    },
    {
      "type": "event",
      "name": "SetWorkerLib",
      "inputs": [
        {
          "name": "workerLib",
          "type": "address",
          "indexed": false,
          "internalType": "address"
        }
      ],
      "anonymous": false
    },
    {
      "type": "event",
      "name": "Unpaused",
      "inputs": [
        {
          "name": "account",
          "type": "address",
          "indexed": false,
          "internalType": "address"
        }
      ],
      "anonymous": false
    },
    {
      "type": "event",
      "name": "UpdateQuorum",
      "inputs": [
        {
          "name": "_quorum",
          "type": "uint64",
          "indexed": false,
          "internalType": "uint64"
        }
      ],
      "anonymous": false
    },
    {
      "type": "event",
      "name": "UpdateSigner",
      "inputs": [
        {
          "name": "_signer",
          "type": "address",
          "indexed": false,
          "internalType": "address"
        },
        {
          "name": "_active",
          "type": "bool",
          "indexed": false,
          "internalType": "bool"
        }
      ],
      "anonymous": false
    },
    {
      "type": "event",
      "name": "VerifierFeePaid",
      "inputs": [
        {
          "name": "fee",
          "type": "uint256",
          "indexed": false,
          "internalType": "uint256"
        }
      ],
      "anonymous": false
    },
    {
      "type": "event",
      "name": "VerifySignaturesFailed",
      "inputs": [
        {
          "name": "idx",
          "type": "uint256",
          "indexed": false,
          "internalType": "uint256"
        }
      ],
      "anonymous": false
    },
    {
      "type": "event",
      "name": "Withdraw",
      "inputs": [
        {
          "name": "lib",
          "type": "address",
          "indexed": false,
          "internalType": "address"
        },
        {
          "name": "to",
          "type": "address",
          "indexed": false,
          "internalType": "address"
        },
        {
          "name": "amount",
          "type": "uint256",
          "indexed": false,
          "internalType": "uint256"
        }
      ],
      "anonymous": false
    },
    {
      "type": "error",
      "name": "DVN_DuplicatedHash",
      "inputs": [
        {
          "name": "executableHash",
          "type": "bytes32",
          "internalType": "bytes32"
        }
      ]
    },
    {
      "type": "error",
      "name": "DVN_InstructionExpired",
      "inputs": []
    },
    {
      "type": "error",
      "name": "DVN_InvalidRole",
      "inputs": [
        {
          "name": "role",
          "type": "bytes32",
          "internalType": "bytes32"
        }
      ]
    },
    {
      "type": "error",
      "name": "DVN_InvalidSignatures",
      "inputs": []
    },
    {
      "type": "error",
      "name": "DVN_InvalidTarget",
      "inputs": [
        {
          "name": "target",
          "type": "address",
          "internalType": "address"
        }
      ]
    },
    {
      "type": "error",
      "name": "DVN_InvalidVid",
      "inputs": [
        {
          "name": "vid",
          "type": "uint32",
          "internalType": "uint32"
        }
      ]
    },
    {
      "type": "error",
      "name": "DVN_OnlySelf",
      "inputs": []
    },
    {
      "type": "error",
      "name": "MultiSig_OnlySigner",
      "inputs": []
    },
    {
      "type": "error",
      "name": "MultiSig_QuorumIsZero",
      "inputs": []
    },
    {
      "type": "error",
      "name": "MultiSig_SignersSizeIsLessThanQuorum",
      "inputs": [
        {
          "name": "signersSize",
          "type": "uint64",
          "internalType": "uint64"
        },
        {
          "name": "quorum",
          "type": "uint64",
          "internalType": "uint64"
        }
      ]
    },
    {
      "type": "error",
      "name": "MultiSig_StateAlreadySet",
      "inputs": [
        {
          "name": "signer",
          "type": "address",
          "internalType": "address"
        },
        {
          "name": "active",
          "type": "bool",
          "internalType": "bool"
        }
      ]
    },
    {
      "type": "error",
      "name": "MultiSig_UnorderedSigners",
      "inputs": []
    },
    {
      "type": "error",
      "name": "Transfer_NativeFailed",
      "inputs": [
        {
          "name": "_to",
          "type": "address",
          "internalType": "address"
        },
        {
          "name": "_value",
          "type": "uint256",
          "internalType": "uint256"
        }
      ]
    },
    {
      "type": "error",
      "name": "Transfer_ToAddressIsZero",
      "inputs": []
    },
    {
      "type": "error",
      "name": "Worker_NotAllowed",
      "inputs": []
    },
    {
      "type": "error",
      "name": "Worker_OnlyMessageLib",
      "inputs": []
    },
    {
      "type": "error",
      "name": "Worker_RoleRenouncingDisabled",
      "inputs": []
    }
  ],
  "bytecode": {
    "object": "0x60a06040523480156200001157600080fd5b5060405162004cde38038062004cde8339810160408190526200003491620004df565b6001805460ff61ffff60e81b01191661017760ed1b179055600280546001600160a01b0319166001600160a01b03861617905582828686612ee060008660005b8551811015620000df57620000cc7f724aface199fe5bed93ae8508474576a9adf3dc443b2c451842a2242919f19de878381518110620000b857620000b8620005b2565b60200260200101516200029960201b60201c565b620000d781620005de565b905062000074565b5060005b81518110156200013a57620001277fa49807205ce4d355092ef5a8a18f56e8913cf4a201fbe287825b095693c21775838381518110620000b857620000b8620005b2565b6200013281620005de565b9050620000e3565b505050505050806001600160401b03166000036200016b57604051635f86e17760e01b815260040160405180910390fd5b806001600160401b031682511015620001b15781516040516378e2c15760e11b81526001600160401b039182166004820152908216602482015260440160405180910390fd5b6000805b83518110156200024d576000848281518110620001d657620001d6620005b2565b60200260200101519050826001600160a01b0316816001600160a01b03161162000213576040516305fa937f60e11b815260040160405180910390fd5b6001600160a01b0381166000908152600460205260409020805460ff191660011790559150806200024481620005de565b915050620001b5565b50509051600580546001600160401b0393841668010000000000000000026001600160801b0319909116939092169290921717905550505063ffffffff909216608052506200062b9050565b7f74845de37cfabd357633214b47fa91ccd19b05b7c5a08ac22c187f811fb62bca82148015620002ea57506000828152602081815260408083206001600160a01b038516845290915290205460ff16155b156200033757600180546015906200031290600160a81b90046001600160401b0316620005fa565b91906101000a8154816001600160401b0302191690836001600160401b031602179055505b62000343828262000347565b5050565b6000828152602081815260408083206001600160a01b038516845290915290205460ff1662000343576000828152602081815260408083206001600160a01b03851684529091529020805460ff19166001179055620003a33390565b6001600160a01b0316816001600160a01b0316837f2f8788117e7eff1d82e926ec794901d17c78024a50270940304540a733656f0d60405160405180910390a45050565b634e487b7160e01b600052604160045260246000fd5b80516001600160a01b03811681146200041557600080fd5b919050565b600082601f8301126200042c57600080fd5b815160206001600160401b03808311156200044b576200044b620003e7565b8260051b604051601f19603f83011681018181108482111715620004735762000473620003e7565b6040529384528581018301938381019250878511156200049257600080fd5b83870191505b84821015620004bc57620004ac82620003fd565b8352918301919083019062000498565b979650505050505050565b80516001600160401b03811681146200041557600080fd5b60008060008060008060c08789031215620004f957600080fd5b865163ffffffff811681146200050e57600080fd5b60208801519096506001600160401b03808211156200052c57600080fd5b6200053a8a838b016200041a565b96506200054a60408a01620003fd565b955060608901519150808211156200056157600080fd5b6200056f8a838b016200041a565b94506200057f60808a01620004c7565b935060a08901519150808211156200059657600080fd5b50620005a589828a016200041a565b9150509295509295509295565b634e487b7160e01b600052603260045260246000fd5b634e487b7160e01b600052601160045260246000fd5b600060018201620005f357620005f3620005c8565b5060010190565b60006001600160401b038281166002600160401b03198101620006215762000621620005c8565b6001019392505050565b60805161468962000655600039600081816108550152818161171001526122b401526146896000f3fe60806040526004361061029f5760003560e01c80638585c9451161016e578063c7a823e0116100cb578063d547741f1161007f578063f010cb2311610064578063f010cb2314610906578063f3b4ebd014610926578063fd62e7501461094657600080fd5b8063d547741f146108c6578063dafe0ccc146108e657600080fd5b8063cd88b903116100b0578063cd88b90314610823578063cf34c76814610843578063d2ae21041461088c57600080fd5b8063c7a823e0146107d5578063c7b2370b1461080357600080fd5b8063aef18bf711610122578063c358de0a11610107578063c358de0a14610763578063c416aa5114610783578063c5e193cd146107b557600080fd5b8063aef18bf714610713578063b143044b1461074357600080fd5b806395d376d71161015357806395d376d7146106465780639e94496514610659578063a217fddf146106fe57600080fd5b80638585c945146105d557806391d14854146105f557600080fd5b80632f2ff15d1161021c5780635553fb8e116101d0578063724e78da116101b5578063724e78da14610533578063736c0d5b14610553578063741bef1a1461058357600080fd5b80635553fb8e146104fb5780635c975abb1461051b57600080fd5b806331cb61051161020157806331cb61051461049b57806336568abe146104bb57806352d3b871146104db57600080fd5b80632f2ff15d1461045b57806330bb3aac1461047b57600080fd5b806316c38b3c11610273578063248a9ca311610258578063248a9ca3146103d057806326e67a371461040e5780632de113761461043b57600080fd5b806316c38b3c1461036a5780631703a0181461038a57600080fd5b8062bf2e80146102a457806301e33667146102f857806301ffc9a71461031a5780631095b6d71461034a575b600080fd5b3480156102b057600080fd5b506001546102e0907d010000000000000000000000000000000000000000000000000000000000900461ffff1681565b60405161ffff90911681526020015b60405180910390f35b34801561030457600080fd5b5061031861031336600461374e565b610967565b005b34801561032657600080fd5b5061033a61033536600461378f565b6109a2565b60405190151581526020016102ef565b34801561035657600080fd5b5061031861036536600461374e565b610a3b565b34801561037657600080fd5b506103186103853660046137df565b610bcb565b34801561039657600080fd5b506005546103b79068010000000000000000900467ffffffffffffffff1681565b60405167ffffffffffffffff90911681526020016102ef565b3480156103dc57600080fd5b506104006103eb3660046137fc565b60009081526020819052604090206001015490565b6040519081526020016102ef565b34801561041a57600080fd5b5061042e610429366004613829565b610bf0565b6040516102ef9190613844565b34801561044757600080fd5b5061033a61045636600461388b565b610c77565b34801561046757600080fd5b506103186104763660046138a8565b610d5c565b34801561048757600080fd5b50610400610496366004613932565b610eb0565b3480156104a757600080fd5b506103186104b63660046139aa565b611027565b3480156104c757600080fd5b506103186104d63660046138a8565b61106a565b3480156104e757600080fd5b506103186104f63660046139d8565b61109c565b34801561050757600080fd5b50610400610516366004613a5f565b611270565b34801561052757600080fd5b5060015460ff1661033a565b34801561053f57600080fd5b5061031861054e36600461388b565b6113e7565b34801561055f57600080fd5b5061033a61056e36600461388b565b60046020526000908152604090205460ff1681565b34801561058f57600080fd5b506002546105b09073ffffffffffffffffffffffffffffffffffffffff1681565b60405173ffffffffffffffffffffffffffffffffffffffff90911681526020016102ef565b3480156105e157600080fd5b506103186105f0366004613ab5565b61148c565b34801561060157600080fd5b5061033a6106103660046138a8565b60009182526020828152604080842073ffffffffffffffffffffffffffffffffffffffff93909316845291905290205460ff1690565b610400610654366004613ae8565b6114d1565b34801561066557600080fd5b506106c3610674366004613829565b60066020526000908152604090205467ffffffffffffffff81169068010000000000000000810461ffff16906a010000000000000000000090046fffffffffffffffffffffffffffffffff1683565b6040805167ffffffffffffffff909416845261ffff90921660208401526fffffffffffffffffffffffffffffffff16908201526060016102ef565b34801561070a57600080fd5b50610400600081565b34801561071f57600080fd5b5061033a61072e3660046137fc565b60076020526000908152604090205460ff1681565b34801561074f57600080fd5b5061031861075e366004613b96565b6116ad565b34801561076f57600080fd5b5061031861077e366004613bd8565b6119c5565b34801561078f57600080fd5b506001546105b090610100900473ffffffffffffffffffffffffffffffffffffffff1681565b3480156107c157600080fd5b506104006107d0366004613a5f565b611a73565b3480156107e157600080fd5b506107f56107f0366004613bf3565b611c51565b6040516102ef929190613c61565b34801561080f57600080fd5b5061031861081e36600461388b565b611e6d565b34801561082f57600080fd5b5061031861083e366004613cae565b611f11565b34801561084f57600080fd5b506108777f000000000000000000000000000000000000000000000000000000000000000081565b60405163ffffffff90911681526020016102ef565b34801561089857600080fd5b506001546103b7907501000000000000000000000000000000000000000000900467ffffffffffffffff1681565b3480156108d257600080fd5b506103186108e13660046138a8565b611f62565b3480156108f257600080fd5b5061031861090136600461374e565b612077565b34801561091257600080fd5b50610400610921366004613cf4565b6121ad565b34801561093257600080fd5b50610318610941366004613d5f565b6121e9565b34801561095257600080fd5b506005546103b79067ffffffffffffffff1681565b7fa49807205ce4d355092ef5a8a18f56e8913cf4a201fbe287825b095693c217756109918161245e565b61099c848484612468565b50505050565b60007fffffffff0000000000000000000000000000000000000000000000000000000082167f7965db0b000000000000000000000000000000000000000000000000000000001480610a3557507f01ffc9a7000000000000000000000000000000000000000000000000000000007fffffffff000000000000000000000000000000000000000000000000000000008316145b92915050565b7fa49807205ce4d355092ef5a8a18f56e8913cf4a201fbe287825b095693c21775610a658161245e565b73ffffffffffffffffffffffffffffffffffffffff841660009081527f9b50f4667d2d24216ccbf0dce3a90c0f620fa4d895e7b069d80ff6247fd25620602052604090205460ff16610ae3576040517f5ee08b9700000000000000000000000000000000000000000000000000000000815260040160405180910390fd5b6040517ffd9be52200000000000000000000000000000000000000000000000000000000815273ffffffffffffffffffffffffffffffffffffffff84811660048301526024820184905285169063fd9be52290604401600060405180830381600087803b158015610b5357600080fd5b505af1158015610b67573d6000803e3d6000fd5b50506040805173ffffffffffffffffffffffffffffffffffffffff8089168252871660208201529081018590527f9b1bfa7fa9ee420a16e124f794c35ac9f90472acc99140eb2f6447c714cad8eb925060600190505b60405180910390a150505050565b6000610bd68161245e565b8115610be857610be4612498565b5050565b610be4612517565b63ffffffff8116600090815260036020908152604091829020805483518184028101840190945280845260609392830182828015610c6b57602002820191906000526020600020906000905b825461010083900a900460ff16815260206001928301818104948501949093039092029101808411610c3c5790505b50505050509050919050565b73ffffffffffffffffffffffffffffffffffffffff811660009081527f93c430521711328044ae92d0f1f1286cf040bc4a382f1642bd89984e86630553602052604081205460ff1615610ccc57506000919050565b6001547501000000000000000000000000000000000000000000900467ffffffffffffffff161580610d42575073ffffffffffffffffffffffffffffffffffffffff821660009081527f4ac82e3087b7dedf7f532cbc6915c722df8c1e31f1388c318a617b52760eaf8b602052604090205460ff165b15610d4f57506001919050565b506000919050565b919050565b817f74845de37cfabd357633214b47fa91ccd19b05b7c5a08ac22c187f811fb62bca811480610daa57507f4270fae16c6d150d00e80b689daca99e8073b1838ff2b6063a37be9d851283e481145b80610dd457507f724aface199fe5bed93ae8508474576a9adf3dc443b2c451842a2242919f19de81145b15610e1757303314610e12576040517ffaba723a00000000000000000000000000000000000000000000000000000000815260040160405180910390fd5b610ea1565b7fa49807205ce4d355092ef5a8a18f56e8913cf4a201fbe287825b095693c217758103610e6757610e127fa49807205ce4d355092ef5a8a18f56e8913cf4a201fbe287825b095693c2177561245e565b6040517f94fdc372000000000000000000000000000000000000000000000000000000008152600481018290526024015b60405180910390fd5b610eab838361256e565b505050565b600083610ebc81610c77565b610ef2576040517f4ab5ebcd00000000000000000000000000000000000000000000000000000000815260040160405180910390fd5b6040805160c08101825260025473ffffffffffffffffffffffffffffffffffffffff908116825263ffffffff8a16602080840182905267ffffffffffffffff808c16858701528a8416606086015260055468010000000000000000900416608085015260015461ffff7d01000000000000000000000000000000000000000000000000000000000082041660a0860152600092835260069091529084902093517f7bfa20a9000000000000000000000000000000000000000000000000000000008152929361010090910490911691637bfa20a991610fda918591908a908a90600401613ddd565b602060405180830381865afa158015610ff7573d6000803e3d6000fd5b505050506040513d601f19601f8201168201806040525081019061101b9190613eaa565b98975050505050505050565b303314611060576040517ffaba723a00000000000000000000000000000000000000000000000000000000815260040160405180910390fd5b610be48282612634565b6040517fdec9f03100000000000000000000000000000000000000000000000000000000815260040160405180910390fd5b7fa49807205ce4d355092ef5a8a18f56e8913cf4a201fbe287825b095693c217756110c68161245e565b60005b8281101561123157368484838181106110e4576110e4613ec3565b9050608002019050604051806060016040528082602001602081019061110a9190613ab5565b67ffffffffffffffff1681526020016111296060840160408501613bd8565b61ffff1681526020016111426080840160608501613f12565b6fffffffffffffffffffffffffffffffff169052600660006111676020850185613829565b63ffffffff1681526020808201929092526040908101600020835181549385015194909201516fffffffffffffffffffffffffffffffff166a0100000000000000000000027fffffffffffff00000000000000000000000000000000ffffffffffffffffffff61ffff90951668010000000000000000027fffffffffffffffffffffffffffffffffffffffffffff0000000000000000000090941667ffffffffffffffff9093169290921792909217929092169190911790555061122a81613f5c565b90506110c9565b507f7dd21e42791b013d1929e86f0c59085e4fca24251f0f1aa81917b3b1611766e08383604051611263929190613f94565b60405180910390a1505050565b60008161127c81610c77565b6112b2576040517f4ab5ebcd00000000000000000000000000000000000000000000000000000000815260040160405180910390fd5b6040805160c08101825260025473ffffffffffffffffffffffffffffffffffffffff908116825261ffff808a16602080850182905267ffffffffffffffff808b168688015289851660608701526005546801000000000000000090041660808601526001547d010000000000000000000000000000000000000000000000000000000000810490931660a08601526000918252600681528582208651918201875291815294517f7bfa20a9000000000000000000000000000000000000000000000000000000008152939461010090920490921692637bfa20a99261139b9286926004016140a0565b602060405180830381865afa1580156113b8573d6000803e3d6000fd5b505050506040513d601f19601f820116820180604052508101906113dc9190613eaa565b979650505050505050565b7fa49807205ce4d355092ef5a8a18f56e8913cf4a201fbe287825b095693c217756114118161245e565b600280547fffffffffffffffffffffffff00000000000000000000000000000000000000001673ffffffffffffffffffffffffffffffffffffffff84169081179091556040519081527ff724a45d041687842411f2b977ef22ab8f43c8f1104f4592b42a00f9b34a643d906020015b60405180910390a15050565b3033146114c5576040517ffaba723a00000000000000000000000000000000000000000000000000000000815260040160405180910390fd5b6114ce81612834565b50565b60007f724aface199fe5bed93ae8508474576a9adf3dc443b2c451842a2242919f19de6114fd8161245e565b61150d60a086016080870161388b565b61151681610c77565b61154c576040517f4ab5ebcd00000000000000000000000000000000000000000000000000000000815260040160405180910390fd5b6040805160c0810190915260025473ffffffffffffffffffffffffffffffffffffffff168152600090602080820190611587908a018a613829565b63ffffffff1681526020016115a260808a0160608b01613ab5565b67ffffffffffffffff1681526020016115c160a08a0160808b0161388b565b73ffffffffffffffffffffffffffffffffffffffff908116825260055468010000000000000000900467ffffffffffffffff166020808401919091526001547d010000000000000000000000000000000000000000000000000000000000810461ffff16604090940193909352929350610100909104169063df2b057e908390600690600090611653908d018d613829565b63ffffffff1663ffffffff16815260200190815260200160002089896040518563ffffffff1660e01b815260040161168e9493929190613ddd565b6020604051808303816000875af11580156113b8573d6000803e3d6000fd5b7fa49807205ce4d355092ef5a8a18f56e8913cf4a201fbe287825b095693c217756116d78161245e565b60005b8281101561099c57368484838181106116f5576116f5613ec3565b90506020028101906117079190614176565b905063ffffffff7f00000000000000000000000000000000000000000000000000000000000000001661173d6020830183613829565b63ffffffff161461174e57506119b5565b4281606001351161175f57506119b5565b60006117986117716020840184613829565b611781604085016020860161388b565b61178e60408601866141b4565b86606001356121ad565b905060006117ad826107f060808601866141b4565b509050806117f0576040518481527fd6d90193101048cc1b6edcdc2348f5acf7a4a4a97d3e7b668b74cb7602ab3ebc9060200160405180910390a15050506119b5565b600061181061180260408601866141b4565b61180b91614219565b61294c565b905080156118a95760008381526007602052604090205460ff1615611871577f9bb9bddbdf537a2104255307230b323d7982f4512ee8e5bd15df62ddca50ab9784846040516118609291906142c5565b60405180910390a1505050506119b5565b600083815260076020526040902080547fffffffffffffffffffffffffffffffffffffffffffffffffffffffffffffff001660011790555b6000806118bc604087016020880161388b565b73ffffffffffffffffffffffffffffffffffffffff166118df60408801886141b4565b6040516118ed92919061438b565b6000604051808303816000865af19150503d806000811461192a576040519150601f19603f3d011682016040523d82523d6000602084013e61192f565b606091505b5091509150816119ae57821561197457600085815260076020526040902080547fffffffffffffffffffffffffffffffffffffffffffffffffffffffffffffff001690555b7fdc8cdd96296241bbefda4a8e18ad2e0985a8da6495b34d409cfc4c886ee3b0cf87826040516119a592919061439b565b60405180910390a15b5050505050505b6119be81613f5c565b90506116da565b7fa49807205ce4d355092ef5a8a18f56e8913cf4a201fbe287825b095693c217756119ef8161245e565b600180547fff0000ffffffffffffffffffffffffffffffffffffffffffffffffffffffffff167d01000000000000000000000000000000000000000000000000000000000061ffff8516908102919091179091556040519081527f7af0ac740036ffb1c97b03697859d729e80a44ae5030543d64971c313565ab4d90602001611480565b60007f724aface199fe5bed93ae8508474576a9adf3dc443b2c451842a2242919f19de611a9f8161245e565b82611aa981610c77565b611adf576040517f4ab5ebcd00000000000000000000000000000000000000000000000000000000815260040160405180910390fd5b6040805160c08101825260025473ffffffffffffffffffffffffffffffffffffffff908116825261ffff808b16602080850182905267ffffffffffffffff808c16868801528a851660608701526005546801000000000000000090041660808601526001547d010000000000000000000000000000000000000000000000000000000000810490931660a08601526000918252600681528582208651918201875291815294517fdf2b057e00000000000000000000000000000000000000000000000000000000815293946101009092049092169263df2b057e92611bc89286926004016140a0565b6020604051808303816000875af1158015611be7573d6000803e3d6000fd5b505050506040513d601f19601f82011682018060405250810190611c0b9190613eaa565b93507f87e46b0a6199bc734632187269a103c05714ee0adae5b28f30723955724f37ef84604051611c3e91815260200190565b60405180910390a1505050949350505050565b6005546000908190611c7a9068010000000000000000900467ffffffffffffffff1660416143b4565b8314611c8c5750600090506001611e65565b6000611ce5866040517f19457468657265756d205369676e6564204d6573736167653a0a3332000000006020820152603c8101829052600090605c01604051602081830303815290604052805190602001209050919050565b90506000805b60055468010000000000000000900467ffffffffffffffff16811015611e59573660008888611d1b8560416143b4565b90611d278660016143cb565b611d329060416143b4565b92611d3f939291906143de565b91509150600080611d868785858080601f0160208091040260200160405190810160405280939291908181526020018383808284376000920191909152506129e792505050565b90925090506000816004811115611d9f57611d9f613c32565b14611db857600060019850985050505050505050611e65565b8573ffffffffffffffffffffffffffffffffffffffff168273ffffffffffffffffffffffffffffffffffffffff1611611dff57600060029850985050505050505050611e65565b73ffffffffffffffffffffffffffffffffffffffff821660009081526004602052604090205460ff16611e4057600060039850985050505050505050611e65565b509350829150611e51905081613f5c565b915050611ceb565b50600160009350935050505b935093915050565b7fa49807205ce4d355092ef5a8a18f56e8913cf4a201fbe287825b095693c21775611e978161245e565b600180547fffffffffffffffffffffff0000000000000000000000000000000000000000ff1661010073ffffffffffffffffffffffffffffffffffffffff8516908102919091179091556040519081527f1399be28223800f8669b3ba5f8721d9fc16fc4e8d0bbf98378791c8c5a3015e090602001611480565b7fa49807205ce4d355092ef5a8a18f56e8913cf4a201fbe287825b095693c21775611f3b8161245e565b63ffffffff84166000908152600360205260409020611f5b90848461366e565b5050505050565b817f74845de37cfabd357633214b47fa91ccd19b05b7c5a08ac22c187f811fb62bca811480611fb057507f4270fae16c6d150d00e80b689daca99e8073b1838ff2b6063a37be9d851283e481145b80611fda57507f724aface199fe5bed93ae8508474576a9adf3dc443b2c451842a2242919f19de81145b1561201d57303314612018576040517ffaba723a00000000000000000000000000000000000000000000000000000000815260040160405180910390fd5b61206d565b7fa49807205ce4d355092ef5a8a18f56e8913cf4a201fbe287825b095693c217758103610e67576120187fa49807205ce4d355092ef5a8a18f56e8913cf4a201fbe287825b095693c2177561245e565b610eab8383612a2c565b7fa49807205ce4d355092ef5a8a18f56e8913cf4a201fbe287825b095693c217756120a18161245e565b73ffffffffffffffffffffffffffffffffffffffff841660009081527f9b50f4667d2d24216ccbf0dce3a90c0f620fa4d895e7b069d80ff6247fd25620602052604090205460ff1661211f576040517f5ee08b9700000000000000000000000000000000000000000000000000000000815260040160405180910390fd5b6040517f07b18bde00000000000000000000000000000000000000000000000000000000815273ffffffffffffffffffffffffffffffffffffffff8481166004830152602482018490528516906307b18bde90604401600060405180830381600087803b15801561218f57600080fd5b505af11580156121a3573d6000803e3d6000fd5b5050505050505050565b600085858386866040516020016121c8959493929190614408565b60405160208183030381529060405280519060200120905095945050505050565b42816060013511612226576040517f0bbaf26300000000000000000000000000000000000000000000000000000000815260040160405180910390fd5b30612237604083016020840161388b565b73ffffffffffffffffffffffffffffffffffffffff16146122ad57612262604082016020830161388b565b6040517f1ce0bfcd00000000000000000000000000000000000000000000000000000000815273ffffffffffffffffffffffffffffffffffffffff9091166004820152602401610e98565b63ffffffff7f0000000000000000000000000000000000000000000000000000000000000000166122e16020830183613829565b63ffffffff1614612334576122f96020820182613829565b6040517f2697e1c200000000000000000000000000000000000000000000000000000000815263ffffffff9091166004820152602401610e98565b60006123466117716020840184613829565b9050600061235b826107f060808601866141b4565b50905080612395576040517f15ecadee00000000000000000000000000000000000000000000000000000000815260040160405180910390fd5b60008281526007602052604090205460ff16156123e1576040517f9d6a45a600000000000000000000000000000000000000000000000000000000815260048101839052602401610e98565b6000828152600760205260409081902080547fffffffffffffffffffffffffffffffffffffffffffffffffffffffffffffff00166001179055610eab907fa49807205ce4d355092ef5a8a18f56e8913cf4a201fbe287825b095693c217759061244c908601866141b4565b810190612459919061388b565b61256e565b6114ce8133612af1565b73ffffffffffffffffffffffffffffffffffffffff831661248d57610eab8282612ba9565b610eab838383612caf565b6124a0612d1d565b600180547fffffffffffffffffffffffffffffffffffffffffffffffffffffffffffffff0016811790557f62e78cea01bee320cd4e420270b5ea74000d11b0c9f74754ebdbfc544b05a258335b60405173ffffffffffffffffffffffffffffffffffffffff909116815260200160405180910390a1565b61251f612d8c565b600180547fffffffffffffffffffffffffffffffffffffffffffffffffffffffffffffff001690557f5db9ee0a495bf2e6ff9c91a7834c1ba4fdd244a5e8aa4e537bd38aeae4b073aa336124ed565b7f74845de37cfabd357633214b47fa91ccd19b05b7c5a08ac22c187f811fb62bca821480156125cb575060008281526020818152604080832073ffffffffffffffffffffffffffffffffffffffff8516845290915290205460ff16155b1561262a5760018054601590612603907501000000000000000000000000000000000000000000900467ffffffffffffffff1661447a565b91906101000a81548167ffffffffffffffff021916908367ffffffffffffffff1602179055505b610be48282612df8565b73ffffffffffffffffffffffffffffffffffffffff821660009081526004602052604090205481151560ff9091161515036126bb576040517f58c8d2a000000000000000000000000000000000000000000000000000000000815273ffffffffffffffffffffffffffffffffffffffff831660048201528115156024820152604401610e98565b73ffffffffffffffffffffffffffffffffffffffff8216600090815260046020526040812080547fffffffffffffffffffffffffffffffffffffffffffffffffffffffffffffff00168315151790558161272d576005546127289060019067ffffffffffffffff166144a1565b612745565b6005546127459067ffffffffffffffff1660016144c9565b60055490915067ffffffffffffffff6801000000000000000090910481169082168111156127b3576040517ff1c582ae00000000000000000000000000000000000000000000000000000000815267ffffffffffffffff808416600483015282166024820152604401610e98565b600580547fffffffffffffffffffffffffffffffffffffffffffffffff00000000000000001667ffffffffffffffff84161790556040805173ffffffffffffffffffffffffffffffffffffffff8616815284151560208201527f863d338cad74814b108a06288ad5e0e80d56495e0332238b1d2cdcfa0ca8e5ce9101610bbd565b8067ffffffffffffffff16600003612878576040517f5f86e17700000000000000000000000000000000000000000000000000000000815260040160405180910390fd5b60055467ffffffffffffffff9081169082168110156128d7576040517ff1c582ae00000000000000000000000000000000000000000000000000000000815267ffffffffffffffff808316600483015283166024820152604401610e98565b600580547fffffffffffffffffffffffffffffffff0000000000000000ffffffffffffffff166801000000000000000067ffffffffffffffff8516908102919091179091556040519081527fb600f3cf7f38a4b49bb0c75f722ef69f7e3e39ef3bb4aa8207fd86e724a2324990602001611480565b60007fffffffff0000000000000000000000000000000000000000000000000000000082167f0223536e0000000000000000000000000000000000000000000000000000000014801590610a3557507fffffffff0000000000000000000000000000000000000000000000000000000082167f704316e500000000000000000000000000000000000000000000000000000000141592915050565b6000808251604103612a1d5760208301516040840151606085015160001a612a1187828585612ee8565b94509450505050612a25565b506000905060025b9250929050565b7f74845de37cfabd357633214b47fa91ccd19b05b7c5a08ac22c187f811fb62bca82148015612a88575060008281526020818152604080832073ffffffffffffffffffffffffffffffffffffffff8516845290915290205460ff165b15612ae75760018054601590612ac0907501000000000000000000000000000000000000000000900467ffffffffffffffff166144ea565b91906101000a81548167ffffffffffffffff021916908367ffffffffffffffff1602179055505b610be48282612fd7565b60008281526020818152604080832073ffffffffffffffffffffffffffffffffffffffff8516845290915290205460ff16610be457612b2f8161308e565b612b3a8360206130ad565b604051602001612b4b92919061452c565b604080517fffffffffffffffffffffffffffffffffffffffffffffffffffffffffffffffe0818403018152908290527f08c379a0000000000000000000000000000000000000000000000000000000008252610e98916004016145ad565b73ffffffffffffffffffffffffffffffffffffffff8216612bf6576040517f6b7a931000000000000000000000000000000000000000000000000000000000815260040160405180910390fd5b60008273ffffffffffffffffffffffffffffffffffffffff168260405160006040518083038185875af1925050503d8060008114612c50576040519150601f19603f3d011682016040523d82523d6000602084013e612c55565b606091505b5050905080610eab576040517f465bc83400000000000000000000000000000000000000000000000000000000815273ffffffffffffffffffffffffffffffffffffffff8416600482015260248101839052604401610e98565b73ffffffffffffffffffffffffffffffffffffffff8216612cfc576040517f6b7a931000000000000000000000000000000000000000000000000000000000815260040160405180910390fd5b610eab73ffffffffffffffffffffffffffffffffffffffff841683836132f7565b60015460ff1615612d8a576040517f08c379a000000000000000000000000000000000000000000000000000000000815260206004820152601060248201527f5061757361626c653a20706175736564000000000000000000000000000000006044820152606401610e98565b565b60015460ff16612d8a576040517f08c379a000000000000000000000000000000000000000000000000000000000815260206004820152601460248201527f5061757361626c653a206e6f74207061757365640000000000000000000000006044820152606401610e98565b60008281526020818152604080832073ffffffffffffffffffffffffffffffffffffffff8516845290915290205460ff16610be45760008281526020818152604080832073ffffffffffffffffffffffffffffffffffffffff85168452909152902080547fffffffffffffffffffffffffffffffffffffffffffffffffffffffffffffff00166001179055612e8a3390565b73ffffffffffffffffffffffffffffffffffffffff168173ffffffffffffffffffffffffffffffffffffffff16837f2f8788117e7eff1d82e926ec794901d17c78024a50270940304540a733656f0d60405160405180910390a45050565b6000807f7fffffffffffffffffffffffffffffff5d576e7357a4501ddfe92f46681b20a0831115612f1f5750600090506003612fce565b6040805160008082526020820180845289905260ff881692820192909252606081018690526080810185905260019060a0016020604051602081039080840390855afa158015612f73573d6000803e3d6000fd5b50506040517fffffffffffffffffffffffffffffffffffffffffffffffffffffffffffffffe0015191505073ffffffffffffffffffffffffffffffffffffffff8116612fc757600060019250925050612fce565b9150600090505b94509492505050565b60008281526020818152604080832073ffffffffffffffffffffffffffffffffffffffff8516845290915290205460ff1615610be45760008281526020818152604080832073ffffffffffffffffffffffffffffffffffffffff8516808552925280832080547fffffffffffffffffffffffffffffffffffffffffffffffffffffffffffffff0016905551339285917ff6391f5c32d9c69d2a47ea670b442974b53935d1edc7fd64eb21e047a839171b9190a45050565b6060610a3573ffffffffffffffffffffffffffffffffffffffff831660145b606060006130bc8360026143b4565b6130c79060026143cb565b67ffffffffffffffff8111156130df576130df6145c0565b6040519080825280601f01601f191660200182016040528015613109576020820181803683370190505b5090507f30000000000000000000000000000000000000000000000000000000000000008160008151811061314057613140613ec3565b60200101907effffffffffffffffffffffffffffffffffffffffffffffffffffffffffffff1916908160001a9053507f7800000000000000000000000000000000000000000000000000000000000000816001815181106131a3576131a3613ec3565b60200101907effffffffffffffffffffffffffffffffffffffffffffffffffffffffffffff1916908160001a90535060006131df8460026143b4565b6131ea9060016143cb565b90505b6001811115613287577f303132333435363738396162636465660000000000000000000000000000000085600f166010811061322b5761322b613ec3565b1a60f81b82828151811061324157613241613ec3565b60200101907effffffffffffffffffffffffffffffffffffffffffffffffffffffffffffff1916908160001a90535060049490941c93613280816145ef565b90506131ed565b5083156132f0576040517f08c379a000000000000000000000000000000000000000000000000000000000815260206004820181905260248201527f537472696e67733a20686578206c656e67746820696e73756666696369656e746044820152606401610e98565b9392505050565b6040805173ffffffffffffffffffffffffffffffffffffffff848116602483015260448083018590528351808403909101815260649092018352602080830180517bffffffffffffffffffffffffffffffffffffffffffffffffffffffff167fa9059cbb0000000000000000000000000000000000000000000000000000000017905283518085019094528084527f5361666545524332303a206c6f772d6c6576656c2063616c6c206661696c656490840152610eab928692916000916133c291851690849061346f565b90508051600014806133e35750808060200190518101906133e39190614624565b610eab576040517f08c379a000000000000000000000000000000000000000000000000000000000815260206004820152602a60248201527f5361666545524332303a204552433230206f7065726174696f6e20646964206e60448201527f6f742073756363656564000000000000000000000000000000000000000000006064820152608401610e98565b606061347e8484600085613486565b949350505050565b606082471015613518576040517f08c379a000000000000000000000000000000000000000000000000000000000815260206004820152602660248201527f416464726573733a20696e73756666696369656e742062616c616e636520666f60448201527f722063616c6c00000000000000000000000000000000000000000000000000006064820152608401610e98565b6000808673ffffffffffffffffffffffffffffffffffffffff1685876040516135419190614641565b60006040518083038185875af1925050503d806000811461357e576040519150601f19603f3d011682016040523d82523d6000602084013e613583565b606091505b50915091506113dc878383876060831561362557825160000361361e5773ffffffffffffffffffffffffffffffffffffffff85163b61361e576040517f08c379a000000000000000000000000000000000000000000000000000000000815260206004820152601d60248201527f416464726573733a2063616c6c20746f206e6f6e2d636f6e74726163740000006044820152606401610e98565b508161347e565b61347e838381511561363a5781518083602001fd5b806040517f08c379a0000000000000000000000000000000000000000000000000000000008152600401610e9891906145ad565b82805482825590600052602060002090601f016020900481019282156137075791602002820160005b838211156136d857833560ff1683826101000a81548160ff021916908360ff1602179055509260200192600101602081600001049283019260010302613697565b80156137055782816101000a81549060ff02191690556001016020816000010492830192600103026136d8565b505b50613713929150613717565b5090565b5b808211156137135760008155600101613718565b73ffffffffffffffffffffffffffffffffffffffff811681146114ce57600080fd5b60008060006060848603121561376357600080fd5b833561376e8161372c565b9250602084013561377e8161372c565b929592945050506040919091013590565b6000602082840312156137a157600080fd5b81357fffffffff00000000000000000000000000000000000000000000000000000000811681146132f057600080fd5b80151581146114ce57600080fd5b6000602082840312156137f157600080fd5b81356132f0816137d1565b60006020828403121561380e57600080fd5b5035919050565b803563ffffffff81168114610d5757600080fd5b60006020828403121561383b57600080fd5b6132f082613815565b6020808252825182820181905260009190848201906040850190845b8181101561387f57835160ff1683529284019291840191600101613860565b50909695505050505050565b60006020828403121561389d57600080fd5b81356132f08161372c565b600080604083850312156138bb57600080fd5b8235915060208301356138cd8161372c565b809150509250929050565b803567ffffffffffffffff81168114610d5757600080fd5b60008083601f84011261390257600080fd5b50813567ffffffffffffffff81111561391a57600080fd5b602083019150836020828501011115612a2557600080fd5b60008060008060006080868803121561394a57600080fd5b61395386613815565b9450613961602087016138d8565b935060408601356139718161372c565b9250606086013567ffffffffffffffff81111561398d57600080fd5b613999888289016138f0565b969995985093965092949392505050565b600080604083850312156139bd57600080fd5b82356139c88161372c565b915060208301356138cd816137d1565b600080602083850312156139eb57600080fd5b823567ffffffffffffffff80821115613a0357600080fd5b818501915085601f830112613a1757600080fd5b813581811115613a2657600080fd5b8660208260071b8501011115613a3b57600080fd5b60209290920196919550909350505050565b803561ffff81168114610d5757600080fd5b60008060008060808587031215613a7557600080fd5b613a7e85613a4d565b9350613a8c60208601613a4d565b9250613a9a604086016138d8565b91506060850135613aaa8161372c565b939692955090935050565b600060208284031215613ac757600080fd5b6132f0826138d8565b600060a08284031215613ae257600080fd5b50919050565b600080600060408486031215613afd57600080fd5b833567ffffffffffffffff80821115613b1557600080fd5b613b2187838801613ad0565b94506020860135915080821115613b3757600080fd5b50613b44868287016138f0565b9497909650939450505050565b60008083601f840112613b6357600080fd5b50813567ffffffffffffffff811115613b7b57600080fd5b6020830191508360208260051b8501011115612a2557600080fd5b60008060208385031215613ba957600080fd5b823567ffffffffffffffff811115613bc057600080fd5b613bcc85828601613b51565b90969095509350505050565b600060208284031215613bea57600080fd5b6132f082613a4d565b600080600060408486031215613c0857600080fd5b83359250602084013567ffffffffffffffff811115613c2657600080fd5b613b44868287016138f0565b7f4e487b7100000000000000000000000000000000000000000000000000000000600052602160045260246000fd5b82151581526040810160048310613ca1577f4e487b7100000000000000000000000000000000000000000000000000000000600052602160045260246000fd5b8260208301529392505050565b600080600060408486031215613cc357600080fd5b613ccc84613815565b9250602084013567ffffffffffffffff811115613ce857600080fd5b613b4486828701613b51565b600080600080600060808688031215613d0c57600080fd5b613d1586613815565b94506020860135613d258161372c565b9350604086013567ffffffffffffffff811115613d4157600080fd5b613d4d888289016138f0565b96999598509660600135949350505050565b600060208284031215613d7157600080fd5b813567ffffffffffffffff811115613d8857600080fd5b61347e84828501613ad0565b8183528181602085013750600060208284010152600060207fffffffffffffffffffffffffffffffffffffffffffffffffffffffffffffffe0601f840116840101905092915050565b6000610140613e55838873ffffffffffffffffffffffffffffffffffffffff80825116835263ffffffff6020830151166020840152604082015167ffffffffffffffff808216604086015282606085015116606086015280608085015116608086015250505061ffff60a08201511660a08301525050565b613e9660c08401875467ffffffffffffffff81168252604081811c61ffff16602084015260509190911c6fffffffffffffffffffffffffffffffff16910152565b806101208401526113dc8184018587613d94565b600060208284031215613ebc57600080fd5b5051919050565b7f4e487b7100000000000000000000000000000000000000000000000000000000600052603260045260246000fd5b80356fffffffffffffffffffffffffffffffff81168114610d5757600080fd5b600060208284031215613f2457600080fd5b6132f082613ef2565b7f4e487b7100000000000000000000000000000000000000000000000000000000600052601160045260246000fd5b60007fffffffffffffffffffffffffffffffffffffffffffffffffffffffffffffffff8203613f8d57613f8d613f2d565b5060010190565b6020808252818101839052600090604080840186845b878110156140255763ffffffff613fc083613815565b16835267ffffffffffffffff613fd78684016138d8565b168584015261ffff613fea858401613a4d565b168484015260606fffffffffffffffffffffffffffffffff61400d828501613ef2565b16908401526080928301929190910190600101613faa565b5090979650505050505050565b60005b8381101561404d578181015183820152602001614035565b50506000910152565b6000815180845261406e816020860160208601614032565b601f017fffffffffffffffffffffffffffffffffffffffffffffffffffffffffffffffe0169290920160200192915050565b6000610140614118838773ffffffffffffffffffffffffffffffffffffffff80825116835263ffffffff6020830151166020840152604082015167ffffffffffffffff808216604086015282606085015116606086015280608085015116608086015250505061ffff60a08201511660a08301525050565b61415960c08401865467ffffffffffffffff81168252604081811c61ffff16602084015260509190911c6fffffffffffffffffffffffffffffffff16910152565b8061012084015261416c81840185614056565b9695505050505050565b600082357fffffffffffffffffffffffffffffffffffffffffffffffffffffffffffffff618336030181126141aa57600080fd5b9190910192915050565b60008083357fffffffffffffffffffffffffffffffffffffffffffffffffffffffffffffffe18436030181126141e957600080fd5b83018035915067ffffffffffffffff82111561420457600080fd5b602001915036819003821315612a2557600080fd5b7fffffffff0000000000000000000000000000000000000000000000000000000081358181169160048510156142595780818660040360031b1b83161692505b505092915050565b60008083357fffffffffffffffffffffffffffffffffffffffffffffffffffffffffffffffe184360301811261429657600080fd5b830160208101925035905067ffffffffffffffff8111156142b657600080fd5b803603821315612a2557600080fd5b6040815263ffffffff6142d784613815565b166040820152600060208401356142ed8161372c565b73ffffffffffffffffffffffffffffffffffffffff1660608301526143156040850185614261565b60a0608085015261432a60e085018284613d94565b915050606085013560a08401526143446080860186614261565b7fffffffffffffffffffffffffffffffffffffffffffffffffffffffffffffffc08584030160c0860152614379838284613d94565b93505050508260208301529392505050565b8183823760009101908152919050565b82815260406020820152600061347e6040830184614056565b8082028115828204841417610a3557610a35613f2d565b80820180821115610a3557610a35613f2d565b600080858511156143ee57600080fd5b838611156143fb57600080fd5b5050820193919092039150565b7fffffffff000000000000000000000000000000000000000000000000000000008660e01b1681527fffffffffffffffffffffffffffffffffffffffff0000000000000000000000008560601b1660048201528360188201528183603883013760009101603801908152949350505050565b600067ffffffffffffffff80831681810361449757614497613f2d565b6001019392505050565b67ffffffffffffffff8281168282160390808211156144c2576144c2613f2d565b5092915050565b67ffffffffffffffff8181168382160190808211156144c2576144c2613f2d565b600067ffffffffffffffff82168061450457614504613f2d565b7fffffffffffffffffffffffffffffffffffffffffffffffffffffffffffffffff0192915050565b7f416363657373436f6e74726f6c3a206163636f756e7420000000000000000000815260008351614564816017850160208801614032565b7f206973206d697373696e6720726f6c652000000000000000000000000000000060179184019182015283516145a1816028840160208801614032565b01602801949350505050565b6020815260006132f06020830184614056565b7f4e487b7100000000000000000000000000000000000000000000000000000000600052604160045260246000fd5b6000816145fe576145fe613f2d565b507fffffffffffffffffffffffffffffffffffffffffffffffffffffffffffffffff0190565b60006020828403121561463657600080fd5b81516132f0816137d1565b600082516141aa81846020870161403256fea2646970667358221220f41663eff49c81de7488cbb04fc5941f750f60c247755953f9acaf633d809f0e64736f6c63430008140033",
    "linkReferences": {}
  },
  "methodIdentifiers": {
    "DEFAULT_ADMIN_ROLE()": "a217fddf",
    "allowlistSize()": "d2ae2104",
    "assignJob((uint32,bytes,bytes32,uint64,address),bytes)": "95d376d7",
    "assignJob(uint16,uint16,uint64,address)": "c5e193cd",
    "defaultMultiplierBps()": "00bf2e80",
    "dstConfig(uint32)": "9e944965",
    "execute((uint32,address,bytes,uint256,bytes)[])": "b143044b",
    "getFee(uint16,uint16,uint64,address)": "5553fb8e",
    "getFee(uint32,uint64,address,bytes)": "30bb3aac",
    "getRoleAdmin(bytes32)": "248a9ca3",
    "getSupportedOptionTypes(uint32)": "26e67a37",
    "grantRole(bytes32,address)": "2f2ff15d",
    "hasAcl(address)": "2de11376",
    "hasRole(bytes32,address)": "91d14854",
    "hashCallData(uint32,address,bytes,uint256)": "f010cb23",
    "paused()": "5c975abb",
    "priceFeed()": "741bef1a",
    "quorum()": "1703a018",
    "quorumChangeAdmin((uint32,address,bytes,uint256,bytes))": "f3b4ebd0",
    "renounceRole(bytes32,address)": "36568abe",
    "revokeRole(bytes32,address)": "d547741f",
    "setDefaultMultiplierBps(uint16)": "c358de0a",
    "setDstConfig((uint32,uint64,uint16,uint128)[])": "52d3b871",
    "setPaused(bool)": "16c38b3c",
    "setPriceFeed(address)": "724e78da",
    "setQuorum(uint64)": "8585c945",
    "setSigner(address,bool)": "31cb6105",
    "setSupportedOptionTypes(uint32,uint8[])": "cd88b903",
    "setWorkerFeeLib(address)": "c7b2370b",
    "signerSize()": "fd62e750",
    "signers(address)": "736c0d5b",
    "supportsInterface(bytes4)": "01ffc9a7",
    "usedHashes(bytes32)": "aef18bf7",
    "verifySignatures(bytes32,bytes)": "c7a823e0",
    "vid()": "cf34c768",
    "withdrawFee(address,address,uint256)": "1095b6d7",
    "withdrawFeeFromUlnV2(address,address,uint256)": "dafe0ccc",
    "withdrawToken(address,address,uint256)": "01e33667",
    "workerFeeLib()": "c416aa51"
  },
  "id": 24
}