{"abi":[{"type":"constructor","inputs":[{"name":"_verifyHelper","type":"address","internalType":"address payable"},{"name":"_endpoint","type":"address","internalType":"address"}],"stateMutability":"nonpayable"},{"type":"fallback","stateMutability":"payable"},{"type":"receive","stateMutability":"payable"},{"type":"function","name":"PACKET_VERSION","inputs":[],"outputs":[{"name":"","type":"uint8","internalType":"uint8"}],"stateMutability":"view"},{"type":"function","name":"defaultOption","inputs":[],"outputs":[{"name":"","type":"bytes","internalType":"bytes"}],"stateMutability":"view"},{"type":"function","name":"endpoint","inputs":[],"outputs":[{"name":"","type":"address","internalType":"address"}],"stateMutability":"view"},{"type":"function","name":"isSupportedEid","inputs":[{"name":"","type":"uint32","internalType":"uint32"}],"outputs":[{"name":"","type":"bool","internalType":"bool"}],"stateMutability":"pure"},{"type":"function","name":"localEid","inputs":[],"outputs":[{"name":"","type":"uint32","internalType":"uint32"}],"stateMutability":"view"},{"type":"function","name":"lzTokenFee","inputs":[],"outputs":[{"name":"","type":"uint256","internalType":"uint256"}],"stateMutability":"view"},{"type":"function","name":"messageLibType","inputs":[],"outputs":[{"name":"","type":"uint8","internalType":"enum MessageLibType"}],"stateMutability":"pure"},{"type":"function","name":"nativeFee","inputs":[],"outputs":[{"name":"","type":"uint256","internalType":"uint256"}],"stateMutability":"view"},{"type":"function","name":"owner","inputs":[],"outputs":[{"name":"","type":"address","internalType":"address"}],"stateMutability":"view"},{"type":"function","name":"quote","inputs":[{"name":"","type":"tuple","internalType":"struct Packet","components":[{"name":"nonce","type":"uint64","internalType":"uint64"},{"name":"srcEid","type":"uint32","internalType":"uint32"},{"name":"sender","type":"address","internalType":"address"},{"name":"dstEid","type":"uint32","internalType":"uint32"},{"name":"receiver","type":"bytes32","internalType":"bytes32"},{"name":"guid","type":"bytes32","internalType":"bytes32"},{"name":"message","type":"bytes","internalType":"bytes"}]},{"name":"","type":"bytes","internalType":"bytes"},{"name":"_payInLzToken","type":"bool","internalType":"bool"}],"outputs":[{"name":"","type":"tuple","internalType":"struct MessagingFee","components":[{"name":"nativeFee","type":"uint256","internalType":"uint256"},{"name":"lzTokenFee","type":"uint256","internalType":"uint256"}]}],"stateMutability":"view"},{"type":"function","name":"renounceOwnership","inputs":[],"outputs":[],"stateMutability":"nonpayable"},{"type":"function","name":"send","inputs":[{"name":"_packet","type":"tuple","internalType":"struct Packet","components":[{"name":"nonce","type":"uint64","internalType":"uint64"},{"name":"srcEid","type":"uint32","internalType":"uint32"},{"name":"sender","type":"address","internalType":"address"},{"name":"dstEid","type":"uint32","internalType":"uint32"},{"name":"receiver","type":"bytes32","internalType":"bytes32"},{"name":"guid","type":"bytes32","internalType":"bytes32"},{"name":"message","type":"bytes","internalType":"bytes"}]},{"name":"_options","type":"bytes","internalType":"bytes"},{"name":"_payInLzToken","type":"bool","internalType":"bool"}],"outputs":[{"name":"fee","type":"tuple","internalType":"struct MessagingFee","components":[{"name":"nativeFee","type":"uint256","internalType":"uint256"},{"name":"lzTokenFee","type":"uint256","internalType":"uint256"}]},{"name":"encodedPacket","type":"bytes","internalType":"bytes"},{"name":"options","type":"bytes","internalType":"bytes"}],"stateMutability":"nonpayable"},{"type":"function","name":"setDefaultOption","inputs":[{"name":"_defaultOption","type":"bytes","internalType":"bytes"}],"outputs":[],"stateMutability":"nonpayable"},{"type":"function","name":"setMessagingFee","inputs":[{"name":"_nativeFee","type":"uint256","internalType":"uint256"},{"name":"_lzTokenFee","type":"uint256","internalType":"uint256"}],"outputs":[],"stateMutability":"nonpayable"},{"type":"function","name":"setWhitelistCaller","inputs":[{"name":"_whitelistCaller","type":"address","internalType":"address"}],"outputs":[],"stateMutability":"nonpayable"},{"type":"function","name":"supportsInterface","inputs":[{"name":"interfaceId","type":"bytes4","internalType":"bytes4"}],"outputs":[{"name":"","type":"bool","internalType":"bool"}],"stateMutability":"view"},{"type":"function","name":"testHelper","inputs":[],"outputs":[{"name":"","type":"address","internalType":"contract TestHelperOz5"}],"stateMutability":"view"},{"type":"function","name":"transferOwnership","inputs":[{"name":"newOwner","type":"address","internalType":"address"}],"outputs":[],"stateMutability":"nonpayable"},{"type":"function","name":"treasury","inputs":[],"outputs":[{"name":"","type":"address","internalType":"address"}],"stateMutability":"view"},{"type":"function","name":"validatePacket","inputs":[{"name":"packetBytes","type":"bytes","internalType":"bytes"}],"outputs":[],"stateMutability":"nonpayable"},{"type":"function","name":"version","inputs":[],"outputs":[{"name":"major","type":"uint64","internalType":"uint64"},{"name":"minor","type":"uint8","internalType":"uint8"},{"name":"endpointVersion","type":"uint8","internalType":"uint8"}],"stateMutability":"pure"},{"type":"function","name":"whitelistCaller","inputs":[],"outputs":[{"name":"","type":"address","internalType":"address"}],"stateMutability":"view"},{"type":"function","name":"withdrawFee","inputs":[{"name":"_to","type":"address","internalType":"address"},{"name":"_amount","type":"uint256","internalType":"uint256"}],"outputs":[],"stateMutability":"nonpayable"},{"type":"function","name":"withdrawLzTokenFee","inputs":[{"name":"_to","type":"address","internalType":"address"},{"name":"_amount","type":"uint256","internalType":"uint256"}],"outputs":[],"stateMutability":"nonpayable"},{"type":"event","name":"OwnershipTransferred","inputs":[{"name":"previousOwner","type":"address","indexed":true,"internalType":"address"},{"name":"newOwner","type":"address","indexed":true,"internalType":"address"}],"anonymous":false},{"type":"error","name":"InvalidEndpoint","inputs":[{"name":"expected","type":"address","internalType":"address"},{"name":"actual","type":"address","internalType":"address"}]},{"type":"error","name":"LZ_NotImplemented","inputs":[]},{"type":"error","name":"LzTokenIsAddressZero","inputs":[]},{"type":"error","name":"OnlyEndpoint","inputs":[]},{"type":"error","name":"OnlyWhitelistCaller","inputs":[]},{"type":"error","name":"OwnableInvalidOwner","inputs":[{"name":"owner","type":"address","internalType":"address"}]},{"type":"error","name":"OwnableUnauthorizedAccount","inputs":[{"name":"account","type":"address","internalType":"address"}]},{"type":"error","name":"SafeERC20FailedOperation","inputs":[{"name":"token","type":"address","internalType":"address"}]},{"type":"error","name":"ToIsAddressZero","inputs":[]},{"type":"error","name":"TransferFailed","inputs":[]},{"type":"error","name":"Transfer_NativeFailed","inputs":[{"name":"_to","type":"address","internalType":"address"},{"name":"_value","type":"uint256","internalType":"uint256"}]},{"type":"error","name":"Transfer_ToAddressIsZero","inputs":[]}],"bytecode":{"object":"0x60e060405234801562000010575f80fd5b5060405162001e1538038062001e15833981016040819052620000339162000172565b33806200005957604051631e4fbdf760e01b81525f600482015260240160405180910390fd5b62000064816200010b565b50600180546001600160a01b0319166001600160a01b0384811691909117909155811660808190525f60a0526040805163416ecebf60e01b8152905163416ecebf916004808201926020929091908290030181865afa158015620000ca573d5f803e3d5ffd5b505050506040513d601f19601f82011682018060405250810190620000f09190620001af565b63ffffffff1660c052505060636003556064600455620001db565b5f80546001600160a01b038381166001600160a01b0319831681178455604051919092169283917f8be0079c531659141344cd1fd0a4f28419497f9722a3daafe3b4186f6b6457e09190a35050565b6001600160a01b03811681146200016f575f80fd5b50565b5f806040838503121562000184575f80fd5b825162000191816200015a565b6020840151909250620001a4816200015a565b809150509250929050565b5f60208284031215620001c0575f80fd5b815163ffffffff81168114620001d4575f80fd5b9392505050565b60805160a05160c051611bf3620002225f395f6103fc01525f61036f01525f818161033c015281816106e90152818161081201528181610a5c0152610cc30152611bf35ff3fe60806040526004361061018e575f3560e01c8063715018a6116100d5578063996f79c01161007e578063dabca06311610058578063dabca0631461051f578063f2fde38b1461053e578063fd9be5221461055d57610195565b8063996f79c0146104bf578063aec336e6146104d4578063d80e9bd9146104f357610195565b80638da5cb5b116100af5780638da5cb5b146104545780638f58aa7a1461047d578063909532381461049c57610195565b8063715018a6146103d757806372607537146103eb57806372d713221461043357610195565b80634389e58f1161013757806361d027b31161011157806361d027b31461035e5780636251b637146103915780636750cd4c146103b757610195565b80634389e58f146102d357806354fd4d50146103015780635e280f111461032b57610195565b80631881d94d116101685780631881d94d1461026d5780631c7c294e14610288578063334993ff146102b457610195565b806301ffc9a7146101c75780630e97289b146101fb57806312cc947f1461024c57610195565b3661019557005b6040517f2657b6c300000000000000000000000000000000000000000000000000000000815260040160405180910390fd5b3480156101d2575f80fd5b506101e66101e136600461127f565b61057c565b60405190151581526020015b60405180910390f35b348015610206575f80fd5b506001546102279073ffffffffffffffffffffffffffffffffffffffff1681565b60405173ffffffffffffffffffffffffffffffffffffffff90911681526020016101f2565b348015610257575f80fd5b5061026b6102663660046112fc565b610614565b005b348015610278575f80fd5b5060026040516101f2919061133b565b348015610293575f80fd5b506002546102279073ffffffffffffffffffffffffffffffffffffffff1681565b3480156102bf575f80fd5b5061026b6102ce36600461137a565b6107e7565b3480156102de575f80fd5b506102f26102ed3660046114c1565b6107fa565b6040516101f29392919061159b565b34801561030c575f80fd5b50604080515f80825260208201526002918101919091526060016101f2565b348015610336575f80fd5b506102277f000000000000000000000000000000000000000000000000000000000000000081565b348015610369575f80fd5b506102277f000000000000000000000000000000000000000000000000000000000000000081565b34801561039c575f80fd5b506103a5600181565b60405160ff90911681526020016101f2565b3480156103c2575f80fd5b506101e66103d13660046115ed565b50600190565b3480156103e2575f80fd5b5061026b610965565b3480156103f6575f80fd5b5061041e7f000000000000000000000000000000000000000000000000000000000000000081565b60405163ffffffff90911681526020016101f2565b34801561043e575f80fd5b50610447610978565b6040516101f29190611606565b34801561045f575f80fd5b505f5473ffffffffffffffffffffffffffffffffffffffff16610227565b348015610488575f80fd5b5061026b610497366004611644565b610a04565b3480156104a7575f80fd5b506104b160035481565b6040519081526020016101f2565b3480156104ca575f80fd5b506104b160045481565b3480156104df575f80fd5b5061026b6104ee36600461166e565b610b5c565b3480156104fe575f80fd5b5061051261050d366004611689565b610bab565b6040516101f291906116ff565b34801561052a575f80fd5b5061026b610539366004611716565b610beb565b348015610549575f80fd5b5061026b61055836600461166e565b610c03565b348015610568575f80fd5b5061026b610577366004611644565b610c6b565b5f7fffffffff0000000000000000000000000000000000000000000000000000000082167f97f0258400000000000000000000000000000000000000000000000000000000148061060e57507f01ffc9a7000000000000000000000000000000000000000000000000000000007fffffffff000000000000000000000000000000000000000000000000000000008316145b92915050565b60025473ffffffffffffffffffffffffffffffffffffffff1615801590610653575060025473ffffffffffffffffffffffffffffffffffffffff163314155b1561068a576040517f70b216ec00000000000000000000000000000000000000000000000000000000815260040160405180910390fd5b5f60405180606001604052806106a08585610d5b565b63ffffffff1681526020016106b58585610d7d565b81526020016106c48585610d9c565b67ffffffffffffffff169052905073ffffffffffffffffffffffffffffffffffffffff7f00000000000000000000000000000000000000000000000000000000000000001663a825d747826107198686610dbe565b6107238787610dcf565b604051610731929190611750565b6040805191829003822060e086901b7fffffffff00000000000000000000000000000000000000000000000000000000168352845163ffffffff1660048401526020850151602484015293015167ffffffffffffffff16604482015273ffffffffffffffffffffffffffffffffffffffff9091166064820152608481019190915260a4015f604051808303815f87803b1580156107cc575f80fd5b505af11580156107de573d5f803e3d5ffd5b50505050505050565b6107ef610dea565b600491909155600355565b604080518082019091525f80825260208201526060807f000000000000000000000000000000000000000000000000000000000000000073ffffffffffffffffffffffffffffffffffffffff16331461087f576040517f7eb966c800000000000000000000000000000000000000000000000000000000815260040160405180910390fd5b61089061088b87611776565b610e3c565b915084515f146108a0578461092a565b600580546108ad90611811565b80601f01602080910402602001604051908101604052809291908181526020018280546108d990611811565b80156109245780601f106108fb57610100808354040283529160200191610924565b820191905f5260205f20905b81548152906001019060200180831161090757829003601f168201915b50505050505b90506109368282610ea1565b6040518060400160405280600454815260200185610954575f610958565b6003545b9052969195509350915050565b61096d610dea565b6109765f610f2a565b565b6005805461098590611811565b80601f01602080910402602001604051908101604052809291908181526020018280546109b190611811565b80156109fc5780601f106109d3576101008083540402835291602001916109fc565b820191905f5260205f20905b8154815290600101906020018083116109df57829003601f168201915b505050505081565b610a0c610dea565b73ffffffffffffffffffffffffffffffffffffffff8216610a59576040517f3d3496e100000000000000000000000000000000000000000000000000000000815260040160405180910390fd5b5f7f000000000000000000000000000000000000000000000000000000000000000073ffffffffffffffffffffffffffffffffffffffff1663e4fe1d946040518163ffffffff1660e01b8152600401602060405180830381865afa158015610ac3573d5f803e3d5ffd5b505050506040513d601f19601f82011682018060405250810190610ae7919061185c565b905073ffffffffffffffffffffffffffffffffffffffff8116610b36576040517f54c1781b00000000000000000000000000000000000000000000000000000000815260040160405180910390fd5b610b5773ffffffffffffffffffffffffffffffffffffffff82168484610f9e565b505050565b610b64610dea565b600280547fffffffffffffffffffffffff00000000000000000000000000000000000000001673ffffffffffffffffffffffffffffffffffffffff92909216919091179055565b604080518082019091525f80825260208201526040518060400160405280600454815260200183610bdc575f610be0565b6003545b905295945050505050565b610bf3610dea565b6005610bff82826118c2565b5050565b610c0b610dea565b73ffffffffffffffffffffffffffffffffffffffff8116610c5f576040517f1e4fbdf70000000000000000000000000000000000000000000000000000000081525f60048201526024015b60405180910390fd5b610c6881610f2a565b50565b610c73610dea565b73ffffffffffffffffffffffffffffffffffffffff8216610cc0576040517f3d3496e100000000000000000000000000000000000000000000000000000000815260040160405180910390fd5b5f7f000000000000000000000000000000000000000000000000000000000000000073ffffffffffffffffffffffffffffffffffffffff1663e1758bd86040518163ffffffff1660e01b8152600401602060405180830381865afa158015610d2a573d5f803e3d5ffd5b505050506040513d601f19601f82011682018060405250810190610d4e919061185c565b9050610b5781848461102b565b5f610d6a600d600984866119da565b610d7391611a01565b60e01c9392505050565b5f610d8c602d600d84866119da565b610d9591611a49565b9392505050565b5f610dab6009600184866119da565b610db491611a85565b60c01c9392505050565b5f610d95610dcc848461105b565b90565b365f610dde83605181876119da565b915091505b9250929050565b5f5473ffffffffffffffffffffffffffffffffffffffff163314610976576040517f118cdaa7000000000000000000000000000000000000000000000000000000008152336004820152602401610c56565b8051602080830151604080850151606080870151608088015160a089015160c08a015195519398610e8b986001989197919673ffffffffffffffffffffffffffffffffffffffff169501611acb565b6040516020818303038152906040529050919050565b6001546040517ffaed6c5800000000000000000000000000000000000000000000000000000000815273ffffffffffffffffffffffffffffffffffffffff9091169063faed6c5890610ef99085908590600401611b90565b5f604051808303815f87803b158015610f10575f80fd5b505af1158015610f22573d5f803e3d5ffd5b505050505050565b5f805473ffffffffffffffffffffffffffffffffffffffff8381167fffffffffffffffffffffffff0000000000000000000000000000000000000000831681178455604051919092169283917f8be0079c531659141344cd1fd0a4f28419497f9722a3daafe3b4186f6b6457e09190a35050565b6040805173ffffffffffffffffffffffffffffffffffffffff8416602482015260448082018490528251808303909101815260649091019091526020810180517bffffffffffffffffffffffffffffffffffffffffffffffffffffffff167fa9059cbb00000000000000000000000000000000000000000000000000000000179052610b5790849061106a565b73ffffffffffffffffffffffffffffffffffffffff831661105057610b57828261110f565b610b57838383611211565b5f610d8c6051603184866119da565b5f8060205f8451602086015f885af180611089576040513d5f823e3d81fd5b50505f513d915081156110a05780600114156110ba565b73ffffffffffffffffffffffffffffffffffffffff84163b155b15611109576040517f5274afe700000000000000000000000000000000000000000000000000000000815273ffffffffffffffffffffffffffffffffffffffff85166004820152602401610c56565b50505050565b73ffffffffffffffffffffffffffffffffffffffff821661115c576040517f6b7a931000000000000000000000000000000000000000000000000000000000815260040160405180910390fd5b5f8273ffffffffffffffffffffffffffffffffffffffff16826040515f6040518083038185875af1925050503d805f81146111b2576040519150601f19603f3d011682016040523d82523d5f602084013e6111b7565b606091505b5050905080610b57576040517f465bc83400000000000000000000000000000000000000000000000000000000815273ffffffffffffffffffffffffffffffffffffffff8416600482015260248101839052604401610c56565b73ffffffffffffffffffffffffffffffffffffffff821661125e576040517f6b7a931000000000000000000000000000000000000000000000000000000000815260040160405180910390fd5b610b5773ffffffffffffffffffffffffffffffffffffffff84168383610f9e565b5f6020828403121561128f575f80fd5b81357fffffffff0000000000000000000000000000000000000000000000000000000081168114610d95575f80fd5b5f8083601f8401126112ce575f80fd5b50813567ffffffffffffffff8111156112e5575f80fd5b602083019150836020828501011115610de3575f80fd5b5f806020838503121561130d575f80fd5b823567ffffffffffffffff811115611323575f80fd5b61132f858286016112be565b90969095509350505050565b6020810160038310611374577f4e487b71000000000000000000000000000000000000000000000000000000005f52602160045260245ffd5b91905290565b5f806040838503121561138b575f80fd5b50508035926020909101359150565b5f60e082840312156113aa575f80fd5b50919050565b7f4e487b71000000000000000000000000000000000000000000000000000000005f52604160045260245ffd5b60405160e0810167ffffffffffffffff81118282101715611400576114006113b0565b60405290565b5f82601f830112611415575f80fd5b813567ffffffffffffffff80821115611430576114306113b0565b604051601f83017fffffffffffffffffffffffffffffffffffffffffffffffffffffffffffffffe0908116603f01168101908282118183101715611476576114766113b0565b8160405283815286602085880101111561148e575f80fd5b836020870160208301375f602085830101528094505050505092915050565b803580151581146114bc575f80fd5b919050565b5f805f606084860312156114d3575f80fd5b833567ffffffffffffffff808211156114ea575f80fd5b6114f68783880161139a565b9450602086013591508082111561150b575f80fd5b5061151886828701611406565b925050611527604085016114ad565b90509250925092565b5f5b8381101561154a578181015183820152602001611532565b50505f910152565b5f8151808452611569816020860160208601611530565b601f017fffffffffffffffffffffffffffffffffffffffffffffffffffffffffffffffe0169290920160200192915050565b8351815260208085015190820152608060408201525f6115be6080830185611552565b82810360608401526115d08185611552565b9695505050505050565b803563ffffffff811681146114bc575f80fd5b5f602082840312156115fd575f80fd5b610d95826115da565b602081525f610d956020830184611552565b73ffffffffffffffffffffffffffffffffffffffff81168114610c68575f80fd5b80356114bc81611618565b5f8060408385031215611655575f80fd5b823561166081611618565b946020939093013593505050565b5f6020828403121561167e575f80fd5b8135610d9581611618565b5f805f806060858703121561169c575f80fd5b843567ffffffffffffffff808211156116b3575f80fd5b6116bf8883890161139a565b955060208701359150808211156116d4575f80fd5b506116e1878288016112be565b90945092506116f49050604086016114ad565b905092959194509250565b81518152602080830151908201526040810161060e565b5f60208284031215611726575f80fd5b813567ffffffffffffffff81111561173c575f80fd5b61174884828501611406565b949350505050565b818382375f9101908152919050565b803567ffffffffffffffff811681146114bc575f80fd5b5f60e08236031215611786575f80fd5b61178e6113dd565b6117978361175f565b81526117a5602084016115da565b60208201526117b660408401611639565b60408201526117c7606084016115da565b60608201526080830135608082015260a083013560a082015260c083013567ffffffffffffffff8111156117f9575f80fd5b61180536828601611406565b60c08301525092915050565b600181811c9082168061182557607f821691505b6020821081036113aa577f4e487b71000000000000000000000000000000000000000000000000000000005f52602260045260245ffd5b5f6020828403121561186c575f80fd5b8151610d9581611618565b601f821115610b5757805f5260205f20601f840160051c8101602085101561189c5750805b601f840160051c820191505b818110156118bb575f81556001016118a8565b5050505050565b815167ffffffffffffffff8111156118dc576118dc6113b0565b6118f0816118ea8454611811565b84611877565b602080601f831160018114611942575f841561190c5750858301515b7fffffffffffffffffffffffffffffffffffffffffffffffffffffffffffffffff600386901b1c1916600185901b178555610f22565b5f858152602081207fffffffffffffffffffffffffffffffffffffffffffffffffffffffffffffffe08616915b8281101561198e5788860151825594840194600190910190840161196f565b50858210156119ca57878501517fffffffffffffffffffffffffffffffffffffffffffffffffffffffffffffffff600388901b60f8161c191681555b5050505050600190811b01905550565b5f80858511156119e8575f80fd5b838611156119f4575f80fd5b5050820193919092039150565b7fffffffff000000000000000000000000000000000000000000000000000000008135818116916004851015611a415780818660040360031b1b83161692505b505092915050565b8035602083101561060e577fffffffffffffffffffffffffffffffffffffffffffffffffffffffffffffffff602084900360031b1b1692915050565b7fffffffffffffffff0000000000000000000000000000000000000000000000008135818116916008851015611a415760089490940360031b84901b1690921692915050565b7fff000000000000000000000000000000000000000000000000000000000000008960f81b1681527fffffffffffffffff0000000000000000000000000000000000000000000000008860c01b1660018201525f7fffffffff00000000000000000000000000000000000000000000000000000000808960e01b16600984015287600d840152808760e01b16602d840152508460318301528360518301528251611b7c816071850160208701611530565b919091016071019998505050505050505050565b604081525f611ba26040830185611552565b8281036020840152611bb48185611552565b9594505050505056fea26469706673582212201b8844f04e666faa1b52d740824de49acc3b4806d607cf53fcf4c400be60417c64736f6c63430008160033","linkReferences":{}},"methodIdentifiers":{"PACKET_VERSION()":"6251b637","defaultOption()":"72d71322","endpoint()":"5e280f11","isSupportedEid(uint32)":"6750cd4c","localEid()":"72607537","lzTokenFee()":"90953238","messageLibType()":"1881d94d","nativeFee()":"996f79c0","owner()":"8da5cb5b","quote((uint64,uint32,address,uint32,bytes32,bytes32,bytes),bytes,bool)":"d80e9bd9","renounceOwnership()":"715018a6","send((uint64,uint32,address,uint32,bytes32,bytes32,bytes),bytes,bool)":"4389e58f","setDefaultOption(bytes)":"dabca063","setMessagingFee(uint256,uint256)":"334993ff","setWhitelistCaller(address)":"aec336e6","supportsInterface(bytes4)":"01ffc9a7","testHelper()":"0e97289b","transferOwnership(address)":"f2fde38b","treasury()":"61d027b3","validatePacket(bytes)":"12cc947f","version()":"54fd4d50","whitelistCaller()":"1c7c294e","withdrawFee(address,uint256)":"fd9be522","withdrawLzTokenFee(address,uint256)":"8f58aa7a"},"id":91}