{
  "_format": "hh-sol-artifact-1",
  "contractName": "MyONFT721Mock",
  "sourceName": "contracts/mocks/MyONFT721Mock.sol",
  "abi": [
    {
      "inputs": [
        {
          "internalType": "string",
          "name": "_name",
          "type": "string"
        },
        {
          "internalType": "string",
          "name": "_symbol",
          "type": "string"
        },
        {
          "internalType": "address",
          "name": "_lzEndpoint",
          "type": "address"
        },
        {
          "internalType": "address",
          "name": "_delegate",
          "type": "address"
        }
      ],
      "stateMutability": "nonpayable",
      "type": "constructor"
    },
    {
      "inputs": [
        {
          "internalType": "address",
          "name": "target",
          "type": "address"
        }
      ],
      "name": "AddressEmptyCode",
      "type": "error"
    },
    {
      "inputs": [
        {
          "internalType": "address",
          "name": "account",
          "type": "address"
        }
      ],
      "name": "AddressInsufficientBalance",
      "type": "error"
    },
    {
      "inputs": [
        {
          "internalType": "address",
          "name": "sender",
          "type": "address"
        },
        {
          "internalType": "uint256",
          "name": "tokenId",
          "type": "uint256"
        },
        {
          "internalType": "address",
          "name": "owner",
          "type": "address"
        }
      ],
      "name": "ERC721IncorrectOwner",
      "type": "error"
    },
    {
      "inputs": [
        {
          "internalType": "address",
          "name": "operator",
          "type": "address"
        },
        {
          "internalType": "uint256",
          "name": "tokenId",
          "type": "uint256"
        }
      ],
      "name": "ERC721InsufficientApproval",
      "type": "error"
    },
    {
      "inputs": [
        {
          "internalType": "address",
          "name": "approver",
          "type": "address"
        }
      ],
      "name": "ERC721InvalidApprover",
      "type": "error"
    },
    {
      "inputs": [
        {
          "internalType": "address",
          "name": "operator",
          "type": "address"
        }
      ],
      "name": "ERC721InvalidOperator",
      "type": "error"
    },
    {
      "inputs": [
        {
          "internalType": "address",
          "name": "owner",
          "type": "address"
        }
      ],
      "name": "ERC721InvalidOwner",
      "type": "error"
    },
    {
      "inputs": [
        {
          "internalType": "address",
          "name": "receiver",
          "type": "address"
        }
      ],
      "name": "ERC721InvalidReceiver",
      "type": "error"
    },
    {
      "inputs": [
        {
          "internalType": "address",
          "name": "sender",
          "type": "address"
        }
      ],
      "name": "ERC721InvalidSender",
      "type": "error"
    },
    {
      "inputs": [
        {
          "internalType": "uint256",
          "name": "tokenId",
          "type": "uint256"
        }
      ],
      "name": "ERC721NonexistentToken",
      "type": "error"
    },
    {
      "inputs": [],
      "name": "FailedInnerCall",
      "type": "error"
    },
    {
      "inputs": [],
      "name": "InvalidDelegate",
      "type": "error"
    },
    {
      "inputs": [],
      "name": "InvalidEndpointCall",
      "type": "error"
    },
    {
      "inputs": [
        {
          "internalType": "bytes",
          "name": "options",
          "type": "bytes"
        }
      ],
      "name": "InvalidOptions",
      "type": "error"
    },
    {
      "inputs": [],
      "name": "InvalidReceiver",
      "type": "error"
    },
    {
      "inputs": [],
      "name": "LzTokenUnavailable",
      "type": "error"
    },
    {
      "inputs": [
        {
          "internalType": "uint32",
          "name": "eid",
          "type": "uint32"
        }
      ],
      "name": "NoPeer",
      "type": "error"
    },
    {
      "inputs": [
        {
          "internalType": "uint256",
          "name": "msgValue",
          "type": "uint256"
        }
      ],
      "name": "NotEnoughNative",
      "type": "error"
    },
    {
      "inputs": [
        {
          "internalType": "address",
          "name": "addr",
          "type": "address"
        }
      ],
      "name": "OnlyEndpoint",
      "type": "error"
    },
    {
      "inputs": [
        {
          "internalType": "address",
          "name": "caller",
          "type": "address"
        },
        {
          "internalType": "address",
          "name": "owner",
          "type": "address"
        }
      ],
      "name": "OnlyNFTOwner",
      "type": "error"
    },
    {
      "inputs": [
        {
          "internalType": "uint32",
          "name": "eid",
          "type": "uint32"
        },
        {
          "internalType": "bytes32",
          "name": "sender",
          "type": "bytes32"
        }
      ],
      "name": "OnlyPeer",
      "type": "error"
    },
    {
      "inputs": [],
      "name": "OnlySelf",
      "type": "error"
    },
    {
      "inputs": [
        {
          "internalType": "address",
          "name": "owner",
          "type": "address"
        }
      ],
      "name": "OwnableInvalidOwner",
      "type": "error"
    },
    {
      "inputs": [
        {
          "internalType": "address",
          "name": "account",
          "type": "address"
        }
      ],
      "name": "OwnableUnauthorizedAccount",
      "type": "error"
    },
    {
      "inputs": [
        {
          "internalType": "address",
          "name": "token",
          "type": "address"
        }
      ],
      "name": "SafeERC20FailedOperation",
      "type": "error"
    },
    {
      "inputs": [
        {
          "internalType": "bytes",
          "name": "result",
          "type": "bytes"
        }
      ],
      "name": "SimulationResult",
      "type": "error"
    },
    {
      "anonymous": false,
      "inputs": [
        {
          "indexed": true,
          "internalType": "address",
          "name": "owner",
          "type": "address"
        },
        {
          "indexed": true,
          "internalType": "address",
          "name": "approved",
          "type": "address"
        },
        {
          "indexed": true,
          "internalType": "uint256",
          "name": "tokenId",
          "type": "uint256"
        }
      ],
      "name": "Approval",
      "type": "event"
    },
    {
      "anonymous": false,
      "inputs": [
        {
          "indexed": true,
          "internalType": "address",
          "name": "owner",
          "type": "address"
        },
        {
          "indexed": true,
          "internalType": "address",
          "name": "operator",
          "type": "address"
        },
        {
          "indexed": false,
          "internalType": "bool",
          "name": "approved",
          "type": "bool"
        }
      ],
      "name": "ApprovalForAll",
      "type": "event"
    },
    {
      "anonymous": false,
      "inputs": [
        {
          "components": [
            {
              "internalType": "uint32",
              "name": "eid",
              "type": "uint32"
            },
            {
              "internalType": "uint16",
              "name": "msgType",
              "type": "uint16"
            },
            {
              "internalType": "bytes",
              "name": "options",
              "type": "bytes"
            }
          ],
          "indexed": false,
          "internalType": "struct EnforcedOptionParam[]",
          "name": "_enforcedOptions",
          "type": "tuple[]"
        }
      ],
      "name": "EnforcedOptionSet",
      "type": "event"
    },
    {
      "anonymous": false,
      "inputs": [
        {
          "indexed": false,
          "internalType": "address",
          "name": "inspector",
          "type": "address"
        }
      ],
      "name": "MsgInspectorSet",
      "type": "event"
    },
    {
      "anonymous": false,
      "inputs": [
        {
          "indexed": true,
          "internalType": "bytes32",
          "name": "guid",
          "type": "bytes32"
        },
        {
          "indexed": false,
          "internalType": "uint32",
          "name": "srcEid",
          "type": "uint32"
        },
        {
          "indexed": true,
          "internalType": "address",
          "name": "toAddress",
          "type": "address"
        },
        {
          "indexed": false,
          "internalType": "uint256",
          "name": "tokenId",
          "type": "uint256"
        }
      ],
      "name": "ONFTReceived",
      "type": "event"
    },
    {
      "anonymous": false,
      "inputs": [
        {
          "indexed": true,
          "internalType": "bytes32",
          "name": "guid",
          "type": "bytes32"
        },
        {
          "indexed": false,
          "internalType": "uint32",
          "name": "dstEid",
          "type": "uint32"
        },
        {
          "indexed": true,
          "internalType": "address",
          "name": "fromAddress",
          "type": "address"
        },
        {
          "indexed": false,
          "internalType": "uint256",
          "name": "tokenId",
          "type": "uint256"
        }
      ],
      "name": "ONFTSent",
      "type": "event"
    },
    {
      "anonymous": false,
      "inputs": [
        {
          "indexed": true,
          "internalType": "address",
          "name": "previousOwner",
          "type": "address"
        },
        {
          "indexed": true,
          "internalType": "address",
          "name": "newOwner",
          "type": "address"
        }
      ],
      "name": "OwnershipTransferred",
      "type": "event"
    },
    {
      "anonymous": false,
      "inputs": [
        {
          "indexed": false,
          "internalType": "uint32",
          "name": "eid",
          "type": "uint32"
        },
        {
          "indexed": false,
          "internalType": "bytes32",
          "name": "peer",
          "type": "bytes32"
        }
      ],
      "name": "PeerSet",
      "type": "event"
    },
    {
      "anonymous": false,
      "inputs": [
        {
          "indexed": false,
          "internalType": "address",
          "name": "preCrimeAddress",
          "type": "address"
        }
      ],
      "name": "PreCrimeSet",
      "type": "event"
    },
    {
      "anonymous": false,
      "inputs": [
        {
          "indexed": true,
          "internalType": "address",
          "name": "from",
          "type": "address"
        },
        {
          "indexed": true,
          "internalType": "address",
          "name": "to",
          "type": "address"
        },
        {
          "indexed": true,
          "internalType": "uint256",
          "name": "tokenId",
          "type": "uint256"
        }
      ],
      "name": "Transfer",
      "type": "event"
    },
    {
      "inputs": [],
      "name": "SEND",
      "outputs": [
        {
          "internalType": "uint16",
          "name": "",
          "type": "uint16"
        }
      ],
      "stateMutability": "view",
      "type": "function"
    },
    {
      "inputs": [],
      "name": "SEND_AND_COMPOSE",
      "outputs": [
        {
          "internalType": "uint16",
          "name": "",
          "type": "uint16"
        }
      ],
      "stateMutability": "view",
      "type": "function"
    },
    {
      "inputs": [
        {
          "components": [
            {
              "internalType": "uint32",
              "name": "srcEid",
              "type": "uint32"
            },
            {
              "internalType": "bytes32",
              "name": "sender",
              "type": "bytes32"
            },
            {
              "internalType": "uint64",
              "name": "nonce",
              "type": "uint64"
            }
          ],
          "internalType": "struct Origin",
          "name": "origin",
          "type": "tuple"
        }
      ],
      "name": "allowInitializePath",
      "outputs": [
        {
          "internalType": "bool",
          "name": "",
          "type": "bool"
        }
      ],
      "stateMutability": "view",
      "type": "function"
    },
    {
      "inputs": [],
      "name": "approvalRequired",
      "outputs": [
        {
          "internalType": "bool",
          "name": "",
          "type": "bool"
        }
      ],
      "stateMutability": "pure",
      "type": "function"
    },
    {
      "inputs": [
        {
          "internalType": "address",
          "name": "to",
          "type": "address"
        },
        {
          "internalType": "uint256",
          "name": "tokenId",
          "type": "uint256"
        }
      ],
      "name": "approve",
      "outputs": [],
      "stateMutability": "nonpayable",
      "type": "function"
    },
    {
      "inputs": [
        {
          "internalType": "address",
          "name": "owner",
          "type": "address"
        }
      ],
      "name": "balanceOf",
      "outputs": [
        {
          "internalType": "uint256",
          "name": "",
          "type": "uint256"
        }
      ],
      "stateMutability": "view",
      "type": "function"
    },
    {
      "inputs": [
        {
          "internalType": "uint32",
          "name": "_eid",
          "type": "uint32"
        },
        {
          "internalType": "uint16",
          "name": "_msgType",
          "type": "uint16"
        },
        {
          "internalType": "bytes",
          "name": "_extraOptions",
          "type": "bytes"
        }
      ],
      "name": "combineOptions",
      "outputs": [
        {
          "internalType": "bytes",
          "name": "",
          "type": "bytes"
        }
      ],
      "stateMutability": "view",
      "type": "function"
    },
    {
      "inputs": [],
      "name": "endpoint",
      "outputs": [
        {
          "internalType": "contract ILayerZeroEndpointV2",
          "name": "",
          "type": "address"
        }
      ],
      "stateMutability": "view",
      "type": "function"
    },
    {
      "inputs": [
        {
          "internalType": "uint32",
          "name": "eid",
          "type": "uint32"
        },
        {
          "internalType": "uint16",
          "name": "msgType",
          "type": "uint16"
        }
      ],
      "name": "enforcedOptions",
      "outputs": [
        {
          "internalType": "bytes",
          "name": "enforcedOption",
          "type": "bytes"
        }
      ],
      "stateMutability": "view",
      "type": "function"
    },
    {
      "inputs": [
        {
          "internalType": "uint256",
          "name": "tokenId",
          "type": "uint256"
        }
      ],
      "name": "getApproved",
      "outputs": [
        {
          "internalType": "address",
          "name": "",
          "type": "address"
        }
      ],
      "stateMutability": "view",
      "type": "function"
    },
    {
      "inputs": [
        {
          "internalType": "address",
          "name": "owner",
          "type": "address"
        },
        {
          "internalType": "address",
          "name": "operator",
          "type": "address"
        }
      ],
      "name": "isApprovedForAll",
      "outputs": [
        {
          "internalType": "bool",
          "name": "",
          "type": "bool"
        }
      ],
      "stateMutability": "view",
      "type": "function"
    },
    {
      "inputs": [
        {
          "components": [
            {
              "internalType": "uint32",
              "name": "srcEid",
              "type": "uint32"
            },
            {
              "internalType": "bytes32",
              "name": "sender",
              "type": "bytes32"
            },
            {
              "internalType": "uint64",
              "name": "nonce",
              "type": "uint64"
            }
          ],
          "internalType": "struct Origin",
          "name": "",
          "type": "tuple"
        },
        {
          "internalType": "bytes",
          "name": "",
          "type": "bytes"
        },
        {
          "internalType": "address",
          "name": "_sender",
          "type": "address"
        }
      ],
      "name": "isComposeMsgSender",
      "outputs": [
        {
          "internalType": "bool",
          "name": "",
          "type": "bool"
        }
      ],
      "stateMutability": "view",
      "type": "function"
    },
    {
      "inputs": [
        {
          "internalType": "uint32",
          "name": "_eid",
          "type": "uint32"
        },
        {
          "internalType": "bytes32",
          "name": "_peer",
          "type": "bytes32"
        }
      ],
      "name": "isPeer",
      "outputs": [
        {
          "internalType": "bool",
          "name": "",
          "type": "bool"
        }
      ],
      "stateMutability": "view",
      "type": "function"
    },
    {
      "inputs": [
        {
          "components": [
            {
              "internalType": "uint32",
              "name": "srcEid",
              "type": "uint32"
            },
            {
              "internalType": "bytes32",
              "name": "sender",
              "type": "bytes32"
            },
            {
              "internalType": "uint64",
              "name": "nonce",
              "type": "uint64"
            }
          ],
          "internalType": "struct Origin",
          "name": "_origin",
          "type": "tuple"
        },
        {
          "internalType": "bytes32",
          "name": "_guid",
          "type": "bytes32"
        },
        {
          "internalType": "bytes",
          "name": "_message",
          "type": "bytes"
        },
        {
          "internalType": "address",
          "name": "_executor",
          "type": "address"
        },
        {
          "internalType": "bytes",
          "name": "_extraData",
          "type": "bytes"
        }
      ],
      "name": "lzReceive",
      "outputs": [],
      "stateMutability": "payable",
      "type": "function"
    },
    {
      "inputs": [
        {
          "components": [
            {
              "components": [
                {
                  "internalType": "uint32",
                  "name": "srcEid",
                  "type": "uint32"
                },
                {
                  "internalType": "bytes32",
                  "name": "sender",
                  "type": "bytes32"
                },
                {
                  "internalType": "uint64",
                  "name": "nonce",
                  "type": "uint64"
                }
              ],
              "internalType": "struct Origin",
              "name": "origin",
              "type": "tuple"
            },
            {
              "internalType": "uint32",
              "name": "dstEid",
              "type": "uint32"
            },
            {
              "internalType": "address",
              "name": "receiver",
              "type": "address"
            },
            {
              "internalType": "bytes32",
              "name": "guid",
              "type": "bytes32"
            },
            {
              "internalType": "uint256",
              "name": "value",
              "type": "uint256"
            },
            {
              "internalType": "address",
              "name": "executor",
              "type": "address"
            },
            {
              "internalType": "bytes",
              "name": "message",
              "type": "bytes"
            },
            {
              "internalType": "bytes",
              "name": "extraData",
              "type": "bytes"
            }
          ],
          "internalType": "struct InboundPacket[]",
          "name": "_packets",
          "type": "tuple[]"
        }
      ],
      "name": "lzReceiveAndRevert",
      "outputs": [],
      "stateMutability": "payable",
      "type": "function"
    },
    {
      "inputs": [
        {
          "components": [
            {
              "internalType": "uint32",
              "name": "srcEid",
              "type": "uint32"
            },
            {
              "internalType": "bytes32",
              "name": "sender",
              "type": "bytes32"
            },
            {
              "internalType": "uint64",
              "name": "nonce",
              "type": "uint64"
            }
          ],
          "internalType": "struct Origin",
          "name": "_origin",
          "type": "tuple"
        },
        {
          "internalType": "bytes32",
          "name": "_guid",
          "type": "bytes32"
        },
        {
          "internalType": "bytes",
          "name": "_message",
          "type": "bytes"
        },
        {
          "internalType": "address",
          "name": "_executor",
          "type": "address"
        },
        {
          "internalType": "bytes",
          "name": "_extraData",
          "type": "bytes"
        }
      ],
      "name": "lzReceiveSimulate",
      "outputs": [],
      "stateMutability": "payable",
      "type": "function"
    },
    {
      "inputs": [
        {
          "internalType": "address",
          "name": "_to",
          "type": "address"
        },
        {
          "internalType": "uint256",
          "name": "_amount",
          "type": "uint256"
        }
      ],
      "name": "mint",
      "outputs": [],
      "stateMutability": "nonpayable",
      "type": "function"
    },
    {
      "inputs": [],
      "name": "msgInspector",
      "outputs": [
        {
          "internalType": "address",
          "name": "",
          "type": "address"
        }
      ],
      "stateMutability": "view",
      "type": "function"
    },
    {
      "inputs": [],
      "name": "name",
      "outputs": [
        {
          "internalType": "string",
          "name": "",
          "type": "string"
        }
      ],
      "stateMutability": "view",
      "type": "function"
    },
    {
      "inputs": [
        {
          "internalType": "uint32",
          "name": "",
          "type": "uint32"
        },
        {
          "internalType": "bytes32",
          "name": "",
          "type": "bytes32"
        }
      ],
      "name": "nextNonce",
      "outputs": [
        {
          "internalType": "uint64",
          "name": "nonce",
          "type": "uint64"
        }
      ],
      "stateMutability": "view",
      "type": "function"
    },
    {
      "inputs": [],
      "name": "oApp",
      "outputs": [
        {
          "internalType": "address",
          "name": "",
          "type": "address"
        }
      ],
      "stateMutability": "view",
      "type": "function"
    },
    {
      "inputs": [],
      "name": "oAppVersion",
      "outputs": [
        {
          "internalType": "uint64",
          "name": "senderVersion",
          "type": "uint64"
        },
        {
          "internalType": "uint64",
          "name": "receiverVersion",
          "type": "uint64"
        }
      ],
      "stateMutability": "pure",
      "type": "function"
    },
    {
      "inputs": [],
      "name": "onftVersion",
      "outputs": [
        {
          "internalType": "bytes4",
          "name": "interfaceId",
          "type": "bytes4"
        },
        {
          "internalType": "uint64",
          "name": "version",
          "type": "uint64"
        }
      ],
      "stateMutability": "pure",
      "type": "function"
    },
    {
      "inputs": [],
      "name": "owner",
      "outputs": [
        {
          "internalType": "address",
          "name": "",
          "type": "address"
        }
      ],
      "stateMutability": "view",
      "type": "function"
    },
    {
      "inputs": [
        {
          "internalType": "uint256",
          "name": "tokenId",
          "type": "uint256"
        }
      ],
      "name": "ownerOf",
      "outputs": [
        {
          "internalType": "address",
          "name": "",
          "type": "address"
        }
      ],
      "stateMutability": "view",
      "type": "function"
    },
    {
      "inputs": [
        {
          "internalType": "uint32",
          "name": "eid",
          "type": "uint32"
        }
      ],
      "name": "peers",
      "outputs": [
        {
          "internalType": "bytes32",
          "name": "peer",
          "type": "bytes32"
        }
      ],
      "stateMutability": "view",
      "type": "function"
    },
    {
      "inputs": [],
      "name": "preCrime",
      "outputs": [
        {
          "internalType": "address",
          "name": "",
          "type": "address"
        }
      ],
      "stateMutability": "view",
      "type": "function"
    },
    {
      "inputs": [
        {
          "components": [
            {
              "internalType": "uint32",
              "name": "dstEid",
              "type": "uint32"
            },
            {
              "internalType": "bytes32",
              "name": "to",
              "type": "bytes32"
            },
            {
              "internalType": "uint256",
              "name": "tokenId",
              "type": "uint256"
            },
            {
              "internalType": "bytes",
              "name": "extraOptions",
              "type": "bytes"
            },
            {
              "internalType": "bytes",
              "name": "composeMsg",
              "type": "bytes"
            },
            {
              "internalType": "bytes",
              "name": "onftCmd",
              "type": "bytes"
            }
          ],
          "internalType": "struct SendParam",
          "name": "_sendParam",
          "type": "tuple"
        },
        {
          "internalType": "bool",
          "name": "_payInLzToken",
          "type": "bool"
        }
      ],
      "name": "quoteSend",
      "outputs": [
        {
          "components": [
            {
              "internalType": "uint256",
              "name": "nativeFee",
              "type": "uint256"
            },
            {
              "internalType": "uint256",
              "name": "lzTokenFee",
              "type": "uint256"
            }
          ],
          "internalType": "struct MessagingFee",
          "name": "msgFee",
          "type": "tuple"
        }
      ],
      "stateMutability": "view",
      "type": "function"
    },
    {
      "inputs": [],
      "name": "renounceOwnership",
      "outputs": [],
      "stateMutability": "nonpayable",
      "type": "function"
    },
    {
      "inputs": [
        {
          "internalType": "address",
          "name": "from",
          "type": "address"
        },
        {
          "internalType": "address",
          "name": "to",
          "type": "address"
        },
        {
          "internalType": "uint256",
          "name": "tokenId",
          "type": "uint256"
        }
      ],
      "name": "safeTransferFrom",
      "outputs": [],
      "stateMutability": "nonpayable",
      "type": "function"
    },
    {
      "inputs": [
        {
          "internalType": "address",
          "name": "from",
          "type": "address"
        },
        {
          "internalType": "address",
          "name": "to",
          "type": "address"
        },
        {
          "internalType": "uint256",
          "name": "tokenId",
          "type": "uint256"
        },
        {
          "internalType": "bytes",
          "name": "data",
          "type": "bytes"
        }
      ],
      "name": "safeTransferFrom",
      "outputs": [],
      "stateMutability": "nonpayable",
      "type": "function"
    },
    {
      "inputs": [
        {
          "components": [
            {
              "internalType": "uint32",
              "name": "dstEid",
              "type": "uint32"
            },
            {
              "internalType": "bytes32",
              "name": "to",
              "type": "bytes32"
            },
            {
              "internalType": "uint256",
              "name": "tokenId",
              "type": "uint256"
            },
            {
              "internalType": "bytes",
              "name": "extraOptions",
              "type": "bytes"
            },
            {
              "internalType": "bytes",
              "name": "composeMsg",
              "type": "bytes"
            },
            {
              "internalType": "bytes",
              "name": "onftCmd",
              "type": "bytes"
            }
          ],
          "internalType": "struct SendParam",
          "name": "_sendParam",
          "type": "tuple"
        },
        {
          "components": [
            {
              "internalType": "uint256",
              "name": "nativeFee",
              "type": "uint256"
            },
            {
              "internalType": "uint256",
              "name": "lzTokenFee",
              "type": "uint256"
            }
          ],
          "internalType": "struct MessagingFee",
          "name": "_fee",
          "type": "tuple"
        },
        {
          "internalType": "address",
          "name": "_refundAddress",
          "type": "address"
        }
      ],
      "name": "send",
      "outputs": [
        {
          "components": [
            {
              "internalType": "bytes32",
              "name": "guid",
              "type": "bytes32"
            },
            {
              "internalType": "uint64",
              "name": "nonce",
              "type": "uint64"
            },
            {
              "components": [
                {
                  "internalType": "uint256",
                  "name": "nativeFee",
                  "type": "uint256"
                },
                {
                  "internalType": "uint256",
                  "name": "lzTokenFee",
                  "type": "uint256"
                }
              ],
              "internalType": "struct MessagingFee",
              "name": "fee",
              "type": "tuple"
            }
          ],
          "internalType": "struct MessagingReceipt",
          "name": "msgReceipt",
          "type": "tuple"
        }
      ],
      "stateMutability": "payable",
      "type": "function"
    },
    {
      "inputs": [
        {
          "internalType": "address",
          "name": "operator",
          "type": "address"
        },
        {
          "internalType": "bool",
          "name": "approved",
          "type": "bool"
        }
      ],
      "name": "setApprovalForAll",
      "outputs": [],
      "stateMutability": "nonpayable",
      "type": "function"
    },
    {
      "inputs": [
        {
          "internalType": "address",
          "name": "_delegate",
          "type": "address"
        }
      ],
      "name": "setDelegate",
      "outputs": [],
      "stateMutability": "nonpayable",
      "type": "function"
    },
    {
      "inputs": [
        {
          "components": [
            {
              "internalType": "uint32",
              "name": "eid",
              "type": "uint32"
            },
            {
              "internalType": "uint16",
              "name": "msgType",
              "type": "uint16"
            },
            {
              "internalType": "bytes",
              "name": "options",
              "type": "bytes"
            }
          ],
          "internalType": "struct EnforcedOptionParam[]",
          "name": "_enforcedOptions",
          "type": "tuple[]"
        }
      ],
      "name": "setEnforcedOptions",
      "outputs": [],
      "stateMutability": "nonpayable",
      "type": "function"
    },
    {
      "inputs": [
        {
          "internalType": "address",
          "name": "_msgInspector",
          "type": "address"
        }
      ],
      "name": "setMsgInspector",
      "outputs": [],
      "stateMutability": "nonpayable",
      "type": "function"
    },
    {
      "inputs": [
        {
          "internalType": "uint32",
          "name": "_eid",
          "type": "uint32"
        },
        {
          "internalType": "bytes32",
          "name": "_peer",
          "type": "bytes32"
        }
      ],
      "name": "setPeer",
      "outputs": [],
      "stateMutability": "nonpayable",
      "type": "function"
    },
    {
      "inputs": [
        {
          "internalType": "address",
          "name": "_preCrime",
          "type": "address"
        }
      ],
      "name": "setPreCrime",
      "outputs": [],
      "stateMutability": "nonpayable",
      "type": "function"
    },
    {
      "inputs": [
        {
          "internalType": "bytes4",
          "name": "interfaceId",
          "type": "bytes4"
        }
      ],
      "name": "supportsInterface",
      "outputs": [
        {
          "internalType": "bool",
          "name": "",
          "type": "bool"
        }
      ],
      "stateMutability": "view",
      "type": "function"
    },
    {
      "inputs": [],
      "name": "symbol",
      "outputs": [
        {
          "internalType": "string",
          "name": "",
          "type": "string"
        }
      ],
      "stateMutability": "view",
      "type": "function"
    },
    {
      "inputs": [],
      "name": "token",
      "outputs": [
        {
          "internalType": "address",
          "name": "",
          "type": "address"
        }
      ],
      "stateMutability": "view",
      "type": "function"
    },
    {
      "inputs": [
        {
          "internalType": "uint256",
          "name": "tokenId",
          "type": "uint256"
        }
      ],
      "name": "tokenURI",
      "outputs": [
        {
          "internalType": "string",
          "name": "",
          "type": "string"
        }
      ],
      "stateMutability": "view",
      "type": "function"
    },
    {
      "inputs": [
        {
          "internalType": "address",
          "name": "from",
          "type": "address"
        },
        {
          "internalType": "address",
          "name": "to",
          "type": "address"
        },
        {
          "internalType": "uint256",
          "name": "tokenId",
          "type": "uint256"
        }
      ],
      "name": "transferFrom",
      "outputs": [],
      "stateMutability": "nonpayable",
      "type": "function"
    },
    {
      "inputs": [
        {
          "internalType": "address",
          "name": "newOwner",
          "type": "address"
        }
      ],
      "name": "transferOwnership",
      "outputs": [],
      "stateMutability": "nonpayable",
      "type": "function"
    }
  ],
  "bytecode": "0x60a06040523480156200001157600080fd5b506040516200393c3803806200393c83398101604081905262000034916200027f565b83838383838383838383838381818181806001600160a01b0381166200007457604051631e4fbdf760e01b81526000600482015260240160405180910390fd5b6200007f816200014a565b506001600160a01b038083166080528116620000ae57604051632d618d8160e21b815260040160405180910390fd5b60805160405163ca5eb5e160e01b81526001600160a01b0383811660048301529091169063ca5eb5e190602401600060405180830381600087803b158015620000f657600080fd5b505af11580156200010b573d6000803e3d6000fd5b5050505050505050505081600590816200012691906200039f565b5060066200013582826200039f565b5050505050505050505050505050506200046b565b600080546001600160a01b038381166001600160a01b0319831681178455604051919092169283917f8be0079c531659141344cd1fd0a4f28419497f9722a3daafe3b4186f6b6457e09190a35050565b634e487b7160e01b600052604160045260246000fd5b600082601f830112620001c257600080fd5b81516001600160401b0380821115620001df57620001df6200019a565b604051601f8301601f19908116603f011681019082821181831017156200020a576200020a6200019a565b81604052838152602092508660208588010111156200022857600080fd5b600091505b838210156200024c57858201830151818301840152908201906200022d565b6000602085830101528094505050505092915050565b80516001600160a01b03811681146200027a57600080fd5b919050565b600080600080608085870312156200029657600080fd5b84516001600160401b0380821115620002ae57600080fd5b620002bc88838901620001b0565b95506020870151915080821115620002d357600080fd5b50620002e287828801620001b0565b935050620002f36040860162000262565b9150620003036060860162000262565b905092959194509250565b600181811c908216806200032357607f821691505b6020821081036200034457634e487b7160e01b600052602260045260246000fd5b50919050565b601f8211156200039a576000816000526020600020601f850160051c81016020861015620003755750805b601f850160051c820191505b81811015620003965782815560010162000381565b5050505b505050565b81516001600160401b03811115620003bb57620003bb6200019a565b620003d381620003cc84546200030e565b846200034a565b602080601f8311600181146200040b5760008415620003f25750858301515b600019600386901b1c1916600185901b17855562000396565b600085815260208120601f198616915b828110156200043c578886015182559484019460019091019084016200041b565b50858210156200045b5787850151600019600388901b60f8161c191681555b5050505050600190811b01905550565b608051613484620004b8600039600081816104b601528181610938015281816111970152818161142c015281816116af01528181611cc1015281816120a0015261215901526134846000f3fe6080604052600436106102675760003560e01c806382413eac11610144578063bc70b354116100b6578063d045a0dc1161007a578063d045a0dc14610787578063d42438851461079a578063e985e9c5146107ba578063f2fde38b146107da578063fc0c546a1461043a578063ff7bd03d146107fa57600080fd5b8063bc70b354146106e7578063bd815db014610707578063c6414e7b1461071a578063c87b56dd14610747578063ca5eb5e11461076757600080fd5b8063a72f5dd811610108578063a72f5dd81461061d578063b21a33e414610645578063b731ea0a1461065a578063b88d4fde1461067a578063b98bd0701461069a578063bb0b6a53146106ba57600080fd5b806382413eac146105965780638da5cb5b146105b657806395d89b41146105d45780639f68b964146105e9578063a22cb465146105fd57600080fd5b806340c10f19116101dd5780635e280f11116101a15780635e280f11146104a45780636352211e146104d85780636fc1b31e146104f857806370a0823114610518578063715018a6146105465780637d25a05e1461055b57600080fd5b806340c10f19146103fa57806342842e0e1461041a57806352ae28791461043a5780635535d4611461044d5780635a0dfe4d1461046d57600080fd5b806313137d651161022f57806313137d651461033d57806317442b70146103505780631f5e13341461037257806321eb730b1461039a57806323b872dd146103ba5780633400288b146103da57600080fd5b806301ffc9a71461026c57806306fdde03146102a1578063081812fc146102c3578063095ea7b3146102fb578063111ecdad1461031d575b600080fd5b34801561027857600080fd5b5061028c61028736600461253e565b61081a565b60405190151581526020015b60405180910390f35b3480156102ad57600080fd5b506102b661086c565b60405161029891906125ab565b3480156102cf57600080fd5b506102e36102de3660046125be565b6108fe565b6040516001600160a01b039091168152602001610298565b34801561030757600080fd5b5061031b6103163660046125ec565b610927565b005b34801561032957600080fd5b506004546102e3906001600160a01b031681565b61031b61034b366004612678565b610936565b34801561035c57600080fd5b5060408051600181526002602082015201610298565b34801561037e57600080fd5b50610387600181565b60405161ffff9091168152602001610298565b6103ad6103a8366004612729565b6109f6565b6040516102989190612796565b3480156103c657600080fd5b5061031b6103d53660046127d8565b610ad1565b3480156103e657600080fd5b5061031b6103f5366004612832565b610b5c565b34801561040657600080fd5b5061031b6104153660046125ec565b610b6e565b34801561042657600080fd5b5061031b6104353660046127d8565b610b78565b34801561044657600080fd5b50306102e3565b34801561045957600080fd5b506102b6610468366004612860565b610b98565b34801561047957600080fd5b5061028c610488366004612832565b63ffffffff919091166000908152600160205260409020541490565b3480156104b057600080fd5b506102e37f000000000000000000000000000000000000000000000000000000000000000081565b3480156104e457600080fd5b506102e36104f33660046125be565b610c3d565b34801561050457600080fd5b5061031b610513366004612893565b610c48565b34801561052457600080fd5b50610538610533366004612893565b610ca5565b604051908152602001610298565b34801561055257600080fd5b5061031b610ced565b34801561056757600080fd5b5061057e610576366004612832565b600092915050565b6040516001600160401b039091168152602001610298565b3480156105a257600080fd5b5061028c6105b13660046128b0565b610d01565b3480156105c257600080fd5b506000546001600160a01b03166102e3565b3480156105e057600080fd5b506102b6610d16565b3480156105f557600080fd5b50600061028c565b34801561060957600080fd5b5061031b610618366004612924565b610d25565b34801561062957600080fd5b50604080516311f0c6d360e11b81526001602082015201610298565b34801561065157600080fd5b50610387600281565b34801561066657600080fd5b506002546102e3906001600160a01b031681565b34801561068657600080fd5b5061031b610695366004612a6a565b610d30565b3480156106a657600080fd5b5061031b6106b5366004612b19565b610d47565b3480156106c657600080fd5b506105386106d5366004612b5a565b60016020526000908152604090205481565b3480156106f357600080fd5b506102b6610702366004612b75565b610d61565b61031b610715366004612b19565b610f09565b34801561072657600080fd5b5061073a610735366004612bd5565b611093565b6040516102989190612c1b565b34801561075357600080fd5b506102b66107623660046125be565b6110fb565b34801561077357600080fd5b5061031b610782366004612893565b611170565b61031b610795366004612678565b6111f6565b3480156107a657600080fd5b5061031b6107b5366004612893565b611225565b3480156107c657600080fd5b5061028c6107d5366004612c32565b61127b565b3480156107e657600080fd5b5061031b6107f5366004612893565b6112a9565b34801561080657600080fd5b5061028c610815366004612c60565b6112e7565b60006001600160e01b031982166380ac58cd60e01b148061084b57506001600160e01b03198216635b5e139f60e01b145b8061086657506301ffc9a760e01b6001600160e01b03198316145b92915050565b60606005805461087b90612c7c565b80601f01602080910402602001604051908101604052809291908181526020018280546108a790612c7c565b80156108f45780601f106108c9576101008083540402835291602001916108f4565b820191906000526020600020905b8154815290600101906020018083116108d757829003601f168201915b5050505050905090565b60006109098261131d565b506000828152600960205260409020546001600160a01b0316610866565b610932828233611356565b5050565b7f00000000000000000000000000000000000000000000000000000000000000006001600160a01b03163314610986576040516391ac5e4f60e01b81523360048201526024015b60405180910390fd5b602087018035906109a09061099b908a612b5a565b611363565b146109de576109b26020880188612b5a565b60405163309afaf360e21b815263ffffffff90911660048201526020880135602482015260440161097d565b6109ed8787878787878761139f565b50505050505050565b6109fe6124e1565b6020840135610a2057604051631e4ec46b60e01b815260040160405180910390fd5b610a3b336040860135610a366020880188612b5a565b6114fe565b600080610a478661155e565b9092509050610a73610a5c6020880188612b5a565b8383610a6d368a90038a018a612cb0565b8861167c565b805190935033907f986156872b2ee0022b9585231dbbfde457f87f8a16b6c45e1a81c54c4ad8351f610aa860208a018a612b5a565b6040805163ffffffff9092168252808b013560208301520160405180910390a350509392505050565b6001600160a01b038216610afb57604051633250574960e11b81526000600482015260240161097d565b6000610b08838333611787565b9050836001600160a01b0316816001600160a01b031614610b56576040516364283d7b60e01b81526001600160a01b038086166004830152602482018490528216604482015260640161097d565b50505050565b610b64611880565b61093282826118ad565b6109328282611902565b610b9383838360405180602001604052806000815250610d30565b505050565b600360209081526000928352604080842090915290825290208054610bbc90612c7c565b80601f0160208091040260200160405190810160405280929190818152602001828054610be890612c7c565b8015610c355780601f10610c0a57610100808354040283529160200191610c35565b820191906000526020600020905b815481529060010190602001808311610c1857829003601f168201915b505050505081565b60006108668261131d565b610c50611880565b600480546001600160a01b0319166001600160a01b0383169081179091556040519081527ff0be4f1e87349231d80c36b33f9e8639658eeaf474014dee15a3e6a4d4414197906020015b60405180910390a150565b60006001600160a01b038216610cd1576040516322718ad960e21b81526000600482015260240161097d565b506001600160a01b031660009081526008602052604090205490565b610cf5611880565b610cff6000611967565b565b6001600160a01b03811630145b949350505050565b60606006805461087b90612c7c565b6109323383836119b7565b610d3b848484610ad1565b610b5684848484611a56565b610d4f611880565b610932610d5c8284612ce2565b611b78565b63ffffffff8416600090815260036020908152604080832061ffff87168452909152812080546060929190610d9590612c7c565b80601f0160208091040260200160405190810160405280929190818152602001828054610dc190612c7c565b8015610e0e5780601f10610de357610100808354040283529160200191610e0e565b820191906000526020600020905b815481529060010190602001808311610df157829003601f168201915b505050505090508051600003610e5e5783838080601f016020809104026020016040519081016040528093929190818152602001838380828437600092019190915250929450610d0e9350505050565b6000839003610e6e579050610d0e565b60028310610eec57610eb584848080601f016020809104026020016040519081016040528093929190818152602001838380828437600092019190915250611c7f92505050565b80610ec38460028188612db7565b604051602001610ed593929190612de1565b604051602081830303815290604052915050610d0e565b8383604051639a6d49cd60e01b815260040161097d929190612e32565b60005b818110156110125736838383818110610f2757610f27612e46565b9050602002810190610f399190612e5c565b9050610f6c610f4b6020830183612b5a565b602083013563ffffffff919091166000908152600160205260409020541490565b610f76575061100a565b3063d045a0dc60c08301358360a0810135610f95610100830183612e7d565b610fa6610100890160e08a01612893565b610fb46101208a018a612e7d565b6040518963ffffffff1660e01b8152600401610fd69796959493929190612ed8565b6000604051808303818588803b158015610fef57600080fd5b505af1158015611003573d6000803e3d6000fd5b5050505050505b600101610f0c565b50336001600160a01b0316638e9e70996040518163ffffffff1660e01b8152600401600060405180830381865afa158015611051573d6000803e3d6000fd5b505050506040513d6000823e601f3d908101601f191682016040526110799190810190612f5e565b604051638351eea760e01b815260040161097d91906125ab565b604080518082019091526000808252602082015260208301356110c957604051631e4ec46b60e01b815260040160405180910390fd5b6000806110d58561155e565b90925090506110f26110ea6020870187612b5a565b838387611cab565b95945050505050565b60606111068261131d565b50600061111e60408051602081019091526000815290565b9050600081511161113e5760405180602001604052806000815250611169565b8061114884611d83565b604051602001611159929190612fcb565b6040516020818303038152906040525b9392505050565b611178611880565b60405163ca5eb5e160e01b81526001600160a01b0382811660048301527f0000000000000000000000000000000000000000000000000000000000000000169063ca5eb5e190602401600060405180830381600087803b1580156111db57600080fd5b505af11580156111ef573d6000803e3d6000fd5b5050505050565b3330146112165760405163029a949d60e31b815260040160405180910390fd5b6109ed878787878787876109de565b61122d611880565b600280546001600160a01b0319166001600160a01b0383169081179091556040519081527fd48d879cef83a1c0bdda516f27b13ddb1b3f8bbac1c9e1511bb2a659c242776090602001610c9a565b6001600160a01b039182166000908152600a6020908152604080832093909416825291909152205460ff1690565b6112b1611880565b6001600160a01b0381166112db57604051631e4fbdf760e01b81526000600482015260240161097d565b6112e481611967565b50565b60006020820180359060019083906112ff9086612b5a565b63ffffffff1681526020810191909152604001600020541492915050565b6000818152600760205260408120546001600160a01b03168061086657604051637e27328960e01b81526004810184905260240161097d565b610b938383836001611e15565b63ffffffff8116600090815260016020526040812054806108665760405163f6ff4fb760e01b815263ffffffff8416600482015260240161097d565b60006113b16113ae8787611f1b565b90565b905060006113bf8787611f33565b90506113d882826113d360208d018d612b5a565b611f50565b604086111561149c5760006114126113f660608c0160408d01612ffa565b61140360208d018d612b5a565b61140d8b8b611f5a565b611fa5565b604051633e5ac80960e11b81529091506001600160a01b037f00000000000000000000000000000000000000000000000000000000000000001690637cb59012906114689086908d906000908790600401613017565b600060405180830381600087803b15801561148257600080fd5b505af1158015611496573d6000803e3d6000fd5b50505050505b6001600160a01b038216887f7883fa30ea56937810e36990b0bbb8d629d0cf59f68baf8431ff657cebe7eef56114d560208d018d612b5a565b6040805163ffffffff9092168252602082018690520160405180910390a3505050505050505050565b61150782610c3d565b6001600160a01b0316836001600160a01b031614611555578261152983610c3d565b604051634342715b60e11b81526001600160a01b0392831660048201529116602482015260440161097d565b610b9382611fd4565b60608060006115b76020850135604086013561157d6080880188612e7d565b8080601f01602080910402602001604051908101604052809392919081815260200183838082843760009201919091525061200f92505050565b90935090506000816115ca5760016115cd565b60025b90506115ed6115df6020870187612b5a565b826107026060890189612e7d565b6004549093506001600160a01b031615611675576004805460405163043a78eb60e01b81526001600160a01b039091169163043a78eb91611632918891889101613048565b602060405180830381865afa15801561164f573d6000803e3d6000fd5b505050506040513d601f19601f82011682018060405250810190611673919061306d565b505b5050915091565b6116846124e1565b60006116938460000151612074565b6020850151909150156116ad576116ad846020015161209c565b7f00000000000000000000000000000000000000000000000000000000000000006001600160a01b0316632637a450826040518060a001604052808b63ffffffff1681526020016116fd8c611363565b81526020018a815260200189815260200160008960200151111515815250866040518463ffffffff1660e01b815260040161173992919061308a565b60806040518083038185885af1158015611757573d6000803e3d6000fd5b50505050506040513d601f19601f8201168201806040525081019061177c9190613133565b979650505050505050565b6000828152600760205260408120546001600160a01b03908116908316156117b4576117b481848661217e565b6001600160a01b038116156117f2576117d1600085600080611e15565b6001600160a01b038116600090815260086020526040902080546000190190555b6001600160a01b03851615611821576001600160a01b0385166000908152600860205260409020805460010190555b60008481526007602052604080822080546001600160a01b0319166001600160a01b0389811691821790925591518793918516917fddf252ad1be2c89b69c2b068fc378daa952ba7f163c4a11628f55a4df523b3ef91a4949350505050565b6000546001600160a01b03163314610cff5760405163118cdaa760e01b815233600482015260240161097d565b63ffffffff8216600081815260016020908152604091829020849055815192835282018390527f238399d427b947898edb290f5ff0f9109849b1c3ba196a42e35f00c50a54b98b910160405180910390a15050565b6001600160a01b03821661192c57604051633250574960e11b81526000600482015260240161097d565b600061193a83836000611787565b90506001600160a01b03811615610b93576040516339e3563760e11b81526000600482015260240161097d565b600080546001600160a01b038381166001600160a01b0319831681178455604051919092169283917f8be0079c531659141344cd1fd0a4f28419497f9722a3daafe3b4186f6b6457e09190a35050565b6001600160a01b0382166119e957604051630b61174360e31b81526001600160a01b038316600482015260240161097d565b6001600160a01b038381166000818152600a6020908152604080832094871680845294825291829020805460ff191686151590811790915591519182527f17307eab39ab6107e8899845ad3d59bd9653f200f220920489ca2b5937696c31910160405180910390a3505050565b6001600160a01b0383163b15610b5657604051630a85bd0160e11b81526001600160a01b0384169063150b7a0290611a9890339088908790879060040161317d565b6020604051808303816000875af1925050508015611ad3575060408051601f3d908101601f19168201909252611ad0918101906131b0565b60015b611b3c573d808015611b01576040519150601f19603f3d011682016040523d82523d6000602084013e611b06565b606091505b508051600003611b3457604051633250574960e11b81526001600160a01b038516600482015260240161097d565b805181602001fd5b6001600160e01b03198116630a85bd0160e11b146111ef57604051633250574960e11b81526001600160a01b038516600482015260240161097d565b60005b8151811015611c4f57611baa828281518110611b9957611b99612e46565b602002602001015160400151611c7f565b818181518110611bbc57611bbc612e46565b60200260200101516040015160036000848481518110611bde57611bde612e46565b60200260200101516000015163ffffffff1663ffffffff1681526020019081526020016000206000848481518110611c1857611c18612e46565b60200260200101516020015161ffff1661ffff1681526020019081526020016000209081611c46919061321d565b50600101611b7b565b507fbe4864a8e820971c0247f5992e2da559595f7bf076a21cb5928d443d2a13b67481604051610c9a91906132dc565b600281015161ffff81166003146109325781604051639a6d49cd60e01b815260040161097d91906125ab565b60408051808201909152600080825260208201527f00000000000000000000000000000000000000000000000000000000000000006001600160a01b031663ddc28c586040518060a001604052808863ffffffff168152602001611d0e89611363565b8152602001878152602001868152602001851515815250306040518363ffffffff1660e01b8152600401611d4392919061308a565b6040805180830381865afa158015611d5f573d6000803e3d6000fd5b505050506040513d601f19601f820116820180604052508101906110f29190613367565b60606000611d90836121e2565b60010190506000816001600160401b03811115611daf57611daf61295d565b6040519080825280601f01601f191660200182016040528015611dd9576020820181803683370190505b5090508181016020015b600019016f181899199a1a9b1b9c1cb0b131b232b360811b600a86061a8153600a8504945084611de357509392505050565b8080611e2957506001600160a01b03821615155b15611eeb576000611e398461131d565b90506001600160a01b03831615801590611e655750826001600160a01b0316816001600160a01b031614155b8015611e785750611e76818461127b565b155b15611ea15760405163a9fbf51f60e01b81526001600160a01b038416600482015260240161097d565b8115611ee95783856001600160a01b0316826001600160a01b03167f8c5be1e5ebec7d5bd14f71427d1e84f3dd0314c0f7b2291e5b200ac8c7c3b92560405160405180910390a45b505b5050600090815260096020526040902080546001600160a01b0319166001600160a01b0392909216919091179055565b6000611f2a6020828486612db7565b61116991613383565b6000611f43604060208486612db7565b81019061116991906125be565b610b938383611902565b6060611f698260408186612db7565b8080601f016020809104026020016040519081016040528093929190818152602001838380828437600092019190915250929695505050505050565b6060838383604051602001611fbc939291906133a1565b60405160208183030381529060405290509392505050565b6000611fe36000836000611787565b90506001600160a01b03811661093257604051637e27328960e01b81526004810183905260240161097d565b805160609015158061204357604080516020810187905290810185905260600160405160208183030381529060405261206a565b8484338560405160200161205a94939291906133eb565b6040516020818303038152906040525b9150935093915050565b6000813414612098576040516304fb820960e51b815234600482015260240161097d565b5090565b60007f00000000000000000000000000000000000000000000000000000000000000006001600160a01b031663e4fe1d946040518163ffffffff1660e01b8152600401602060405180830381865afa1580156120fc573d6000803e3d6000fd5b505050506040513d601f19601f82011682018060405250810190612120919061341f565b90506001600160a01b038116612149576040516329b99a9560e11b815260040160405180910390fd5b6109326001600160a01b038216337f0000000000000000000000000000000000000000000000000000000000000000856122ba565b612189838383612314565b610b93576001600160a01b0383166121b757604051637e27328960e01b81526004810182905260240161097d565b60405163177e802f60e01b81526001600160a01b03831660048201526024810182905260440161097d565b60008072184f03e93ff9f4daa797ed6e38ed64bf6a1f0160401b83106122215772184f03e93ff9f4daa797ed6e38ed64bf6a1f0160401b830492506040015b6d04ee2d6d415b85acef8100000000831061224d576d04ee2d6d415b85acef8100000000830492506020015b662386f26fc10000831061226b57662386f26fc10000830492506010015b6305f5e1008310612283576305f5e100830492506008015b612710831061229757612710830492506004015b606483106122a9576064830492506002015b600a83106108665760010192915050565b604080516001600160a01b0385811660248301528416604482015260648082018490528251808303909101815260849091019091526020810180516001600160e01b03166323b872dd60e01b179052610b56908590612377565b60006001600160a01b03831615801590610d0e5750826001600160a01b0316846001600160a01b0316148061234e575061234e848461127b565b80610d0e5750506000908152600960205260409020546001600160a01b03908116911614919050565b600061238c6001600160a01b038416836123da565b905080516000141580156123b15750808060200190518101906123af919061306d565b155b15610b9357604051635274afe760e01b81526001600160a01b038416600482015260240161097d565b60606111698383600084600080856001600160a01b03168486604051612400919061343c565b60006040518083038185875af1925050503d806000811461243d576040519150601f19603f3d011682016040523d82523d6000602084013e612442565b606091505b509150915061245286838361245c565b9695505050505050565b6060826124715761246c826124b8565b611169565b815115801561248857506001600160a01b0384163b155b156124b157604051639996b31560e01b81526001600160a01b038516600482015260240161097d565b5080611169565b8051156124c85780518082602001fd5b604051630a12f52160e11b815260040160405180910390fd5b60405180606001604052806000801916815260200160006001600160401b03168152602001612523604051806040016040528060008152602001600081525090565b905290565b6001600160e01b0319811681146112e457600080fd5b60006020828403121561255057600080fd5b813561116981612528565b60005b8381101561257657818101518382015260200161255e565b50506000910152565b6000815180845261259781602086016020860161255b565b601f01601f19169290920160200192915050565b602081526000611169602083018461257f565b6000602082840312156125d057600080fd5b5035919050565b6001600160a01b03811681146112e457600080fd5b600080604083850312156125ff57600080fd5b823561260a816125d7565b946020939093013593505050565b60006060828403121561262a57600080fd5b50919050565b60008083601f84011261264257600080fd5b5081356001600160401b0381111561265957600080fd5b60208301915083602082850101111561267157600080fd5b9250929050565b600080600080600080600060e0888a03121561269357600080fd5b61269d8989612618565b96506060880135955060808801356001600160401b03808211156126c057600080fd5b6126cc8b838c01612630565b909750955060a08a013591506126e1826125d7565b90935060c089013590808211156126f757600080fd5b506127048a828b01612630565b989b979a50959850939692959293505050565b600060c0828403121561262a57600080fd5b6000806000838503608081121561273f57600080fd5b84356001600160401b0381111561275557600080fd5b61276187828801612717565b9450506040601f198201121561277657600080fd5b50602084019150606084013561278b816125d7565b809150509250925092565b6000608082019050825182526001600160401b03602084015116602083015260408301516127d1604084018280518252602090810151910152565b5092915050565b6000806000606084860312156127ed57600080fd5b83356127f8816125d7565b92506020840135612808816125d7565b929592945050506040919091013590565b803563ffffffff8116811461282d57600080fd5b919050565b6000806040838503121561284557600080fd5b61260a83612819565b803561ffff8116811461282d57600080fd5b6000806040838503121561287357600080fd5b61287c83612819565b915061288a6020840161284e565b90509250929050565b6000602082840312156128a557600080fd5b8135611169816125d7565b60008060008060a085870312156128c657600080fd5b6128d08686612618565b935060608501356001600160401b038111156128eb57600080fd5b6128f787828801612630565b909450925050608085013561290b816125d7565b939692955090935050565b80151581146112e457600080fd5b6000806040838503121561293757600080fd5b8235612942816125d7565b9150602083013561295281612916565b809150509250929050565b634e487b7160e01b600052604160045260246000fd5b604080519081016001600160401b03811182821017156129955761299561295d565b60405290565b604051606081016001600160401b03811182821017156129955761299561295d565b604051601f8201601f191681016001600160401b03811182821017156129e5576129e561295d565b604052919050565b60006001600160401b03821115612a0657612a0661295d565b50601f01601f191660200190565b600082601f830112612a2557600080fd5b8135612a38612a33826129ed565b6129bd565b818152846020838601011115612a4d57600080fd5b816020850160208301376000918101602001919091529392505050565b60008060008060808587031215612a8057600080fd5b8435612a8b816125d7565b93506020850135612a9b816125d7565b92506040850135915060608501356001600160401b03811115612abd57600080fd5b612ac987828801612a14565b91505092959194509250565b60008083601f840112612ae757600080fd5b5081356001600160401b03811115612afe57600080fd5b6020830191508360208260051b850101111561267157600080fd5b60008060208385031215612b2c57600080fd5b82356001600160401b03811115612b4257600080fd5b612b4e85828601612ad5565b90969095509350505050565b600060208284031215612b6c57600080fd5b61116982612819565b60008060008060608587031215612b8b57600080fd5b612b9485612819565b9350612ba26020860161284e565b925060408501356001600160401b03811115612bbd57600080fd5b612bc987828801612630565b95989497509550505050565b60008060408385031215612be857600080fd5b82356001600160401b03811115612bfe57600080fd5b612c0a85828601612717565b925050602083013561295281612916565b815181526020808301519082015260408101610866565b60008060408385031215612c4557600080fd5b8235612c50816125d7565b91506020830135612952816125d7565b600060608284031215612c7257600080fd5b6111698383612618565b600181811c90821680612c9057607f821691505b60208210810361262a57634e487b7160e01b600052602260045260246000fd5b600060408284031215612cc257600080fd5b612cca612973565b82358152602083013560208201528091505092915050565b60006001600160401b0380841115612cfc57612cfc61295d565b8360051b6020612d0d8183016129bd565b868152918501918181019036841115612d2557600080fd5b865b84811015612dab57803586811115612d3f5760008081fd5b88016060368290031215612d535760008081fd5b612d5b61299b565b612d6482612819565b8152612d7186830161284e565b8682015260408083013589811115612d895760008081fd5b612d9536828601612a14565b9183019190915250845250918301918301612d27565b50979650505050505050565b60008085851115612dc757600080fd5b83861115612dd457600080fd5b5050820193919092039150565b60008451612df381846020890161255b565b8201838582376000930192835250909392505050565b81835281816020850137506000828201602090810191909152601f909101601f19169091010190565b602081526000610d0e602083018486612e09565b634e487b7160e01b600052603260045260246000fd5b6000823561013e19833603018112612e7357600080fd5b9190910192915050565b6000808335601e19843603018112612e9457600080fd5b8301803591506001600160401b03821115612eae57600080fd5b60200191503681900382131561267157600080fd5b6001600160401b03811681146112e457600080fd5b63ffffffff612ee689612819565b1681526020880135602082015260006040890135612f0381612ec3565b6001600160401b03811660408401525087606083015260e06080830152612f2e60e083018789612e09565b6001600160a01b03861660a084015282810360c0840152612f50818587612e09565b9a9950505050505050505050565b600060208284031215612f7057600080fd5b81516001600160401b03811115612f8657600080fd5b8201601f81018413612f9757600080fd5b8051612fa5612a33826129ed565b818152856020838501011115612fba57600080fd5b6110f282602083016020860161255b565b60008351612fdd81846020880161255b565b835190830190612ff181836020880161255b565b01949350505050565b60006020828403121561300c57600080fd5b813561116981612ec3565b60018060a01b038516815283602082015261ffff83166040820152608060608201526000612452608083018461257f565b60408152600061305b604083018561257f565b82810360208401526110f2818561257f565b60006020828403121561307f57600080fd5b815161116981612916565b6040815263ffffffff8351166040820152602083015160608201526000604084015160a060808401526130c060e084018261257f565b90506060850151603f198483030160a08501526130dd828261257f565b60809690960151151560c08501525050506001600160a01b039190911660209091015290565b60006040828403121561311557600080fd5b61311d612973565b9050815181526020820151602082015292915050565b60006080828403121561314557600080fd5b61314d61299b565b82518152602083015161315f81612ec3565b60208201526131718460408501613103565b60408201529392505050565b6001600160a01b03858116825284166020820152604081018390526080606082018190526000906124529083018461257f565b6000602082840312156131c257600080fd5b815161116981612528565b601f821115610b93576000816000526020600020601f850160051c810160208610156131f65750805b601f850160051c820191505b8181101561321557828155600101613202565b505050505050565b81516001600160401b038111156132365761323661295d565b61324a816132448454612c7c565b846131cd565b602080601f83116001811461327f57600084156132675750858301515b600019600386901b1c1916600185901b178555613215565b600085815260208120601f198616915b828110156132ae5788860151825594840194600190910190840161328f565b50858210156132cc5787850151600019600388901b60f8161c191681555b5050505050600190811b01905550565b600060208083018184528085518083526040925060408601915060408160051b87010184880160005b8381101561335957888303603f190185528151805163ffffffff1684528781015161ffff168885015286015160608785018190526133458186018361257f565b968901969450505090860190600101613305565b509098975050505050505050565b60006040828403121561337957600080fd5b6111698383613103565b8035602083101561086657600019602084900360031b1b1692915050565b60c084901b6001600160c01b031916815260e083901b6001600160e01b031916600882015281516000906133dc81600c85016020870161255b565b91909101600c01949350505050565b8481528360208201528260408201526000825161340f81606085016020870161255b565b9190910160600195945050505050565b60006020828403121561343157600080fd5b8151611169816125d7565b60008251612e7381846020870161255b56fea26469706673582212202ed9e0490b65660a264f1838a28a7c9b2643e0a7034d006e204af0872d53709164736f6c63430008160033",
  "linkReferences": {},
  "deployedLinkReferences": {}
}