{"abi":[{"type":"function","name":"inspect","inputs":[{"name":"_message","type":"bytes","internalType":"bytes"},{"name":"_options","type":"bytes","internalType":"bytes"}],"outputs":[{"name":"","type":"bool","internalType":"bool"}],"stateMutability":"pure"},{"type":"error","name":"InspectionFailed","inputs":[{"name":"message","type":"bytes","internalType":"bytes"},{"name":"options","type":"bytes","internalType":"bytes"}]}],"bytecode":{"object":"0x608060405234801561001057600080fd5b506101c9806100206000396000f3fe608060405234801561001057600080fd5b506004361061002b5760003560e01c8063043a78eb14610030575b600080fd5b61004361003e3660046100cc565b610057565b604051901515815260200160405180910390f35b600084848484604051637b43b43960e01b815260040161007a9493929190610161565b60405180910390fd5b60008083601f84011261009557600080fd5b50813567ffffffffffffffff8111156100ad57600080fd5b6020830191508360208285010111156100c557600080fd5b9250929050565b600080600080604085870312156100e257600080fd5b843567ffffffffffffffff808211156100fa57600080fd5b61010688838901610083565b9096509450602087013591508082111561011f57600080fd5b5061012c87828801610083565b95989497509550505050565b81835281816020850137506000828201602090810191909152601f909101601f19169091010190565b604081526000610175604083018688610138565b8281036020840152610188818587610138565b97965050505050505056fea2646970667358221220ea9bbad397a0be403cdd619a7d40c7c06497bc53685000434d5009331c3f240064736f6c63430008160033","linkReferences":{}},"methodIdentifiers":{"inspect(bytes,bytes)":"043a78eb"},"id":136}