{
  "abi": [
    {
      "type": "constructor",
      "inputs": [
        {
          "name": "_endpoint",
          "type": "address",
          "internalType": "address"
        },
        {
          "name": "_oft",
          "type": "address",
          "internalType": "address"
        }
      ],
      "stateMutability": "nonpayable"
    },
    {
      "type": "function",
      "name": "HLP_PRECOMPILE_READ_SPOT_BALANCE",
      "inputs": [],
      "outputs": [
        {
          "name": "",
          "type": "address",
          "internalType": "address"
        }
      ],
      "stateMutability": "view"
    },
    {
      "type": "function",
      "name": "HLP_PRECOMPILE_WRITE",
      "inputs": [],
      "outputs": [
        {
          "name": "",
          "type": "address",
          "internalType": "address"
        }
      ],
      "stateMutability": "view"
    },
    {
      "type": "function",
      "name": "balanceOfHyperCore",
      "inputs": [
        {
          "name": "_user",
          "type": "address",
          "internalType": "address"
        },
        {
          "name": "_tokenId",
          "type": "uint64",
          "internalType": "uint64"
        }
      ],
      "outputs": [
        {
          "name": "",
          "type": "uint64",
          "internalType": "uint64"
        }
      ],
      "stateMutability": "view"
    },
    {
      "type": "function",
      "name": "endpoint",
      "inputs": [],
      "outputs": [
        {
          "name": "",
          "type": "address",
          "internalType": "address"
        }
      ],
      "stateMutability": "view"
    },
    {
      "type": "function",
      "name": "getErrorPayload",
      "inputs": [
        {
          "name": "_err",
          "type": "bytes",
          "internalType": "bytes"
        }
      ],
      "outputs": [
        {
          "name": "",
          "type": "bytes",
          "internalType": "bytes"
        }
      ],
      "stateMutability": "pure"
    },
    {
      "type": "function",
      "name": "getHypeAsset",
      "inputs": [],
      "outputs": [
        {
          "name": "",
          "type": "tuple",
          "internalType": "struct IHyperAsset",
          "components": [
            {
              "name": "assetBridgeAddress",
              "type": "address",
              "internalType": "address"
            },
            {
              "name": "coreIndexId",
              "type": "uint64",
              "internalType": "uint64"
            },
            {
              "name": "decimalDiff",
              "type": "int64",
              "internalType": "int64"
            }
          ]
        }
      ],
      "stateMutability": "view"
    },
    {
      "type": "function",
      "name": "getOFTAsset",
      "inputs": [],
      "outputs": [
        {
          "name": "",
          "type": "tuple",
          "internalType": "struct IHyperAsset",
          "components": [
            {
              "name": "assetBridgeAddress",
              "type": "address",
              "internalType": "address"
            },
            {
              "name": "coreIndexId",
              "type": "uint64",
              "internalType": "uint64"
            },
            {
              "name": "decimalDiff",
              "type": "int64",
              "internalType": "int64"
            }
          ]
        }
      ],
      "stateMutability": "view"
    },
    {
      "type": "function",
      "name": "hypeAsset",
      "inputs": [],
      "outputs": [
        {
          "name": "assetBridgeAddress",
          "type": "address",
          "internalType": "address"
        },
        {
          "name": "coreIndexId",
          "type": "uint64",
          "internalType": "uint64"
        },
        {
          "name": "decimalDiff",
          "type": "int64",
          "internalType": "int64"
        }
      ],
      "stateMutability": "view"
    },
    {
      "type": "function",
      "name": "oft",
      "inputs": [],
      "outputs": [
        {
          "name": "",
          "type": "address",
          "internalType": "contract IOFT"
        }
      ],
      "stateMutability": "view"
    },
    {
      "type": "function",
      "name": "oftAsset",
      "inputs": [],
      "outputs": [
        {
          "name": "assetBridgeAddress",
          "type": "address",
          "internalType": "address"
        },
        {
          "name": "coreIndexId",
          "type": "uint64",
          "internalType": "uint64"
        },
        {
          "name": "decimalDiff",
          "type": "int64",
          "internalType": "int64"
        }
      ],
      "stateMutability": "view"
    },
    {
      "type": "function",
      "name": "quoteHyperCoreAmount",
      "inputs": [
        {
          "name": "_amount",
          "type": "uint256",
          "internalType": "uint256"
        },
        {
          "name": "_isOFT",
          "type": "bool",
          "internalType": "bool"
        }
      ],
      "outputs": [
        {
          "name": "",
          "type": "tuple",
          "internalType": "struct IHyperAssetAmount",
          "components": [
            {
              "name": "evm",
              "type": "uint256",
              "internalType": "uint256"
            },
            {
              "name": "dust",
              "type": "uint256",
              "internalType": "uint256"
            },
            {
              "name": "core",
              "type": "uint64",
              "internalType": "uint64"
            }
          ]
        }
      ],
      "stateMutability": "view"
    },
    {
      "type": "function",
      "name": "refundERC20",
      "inputs": [
        {
          "name": "_refundAddress",
          "type": "address",
          "internalType": "address"
        },
        {
          "name": "_amount",
          "type": "uint256",
          "internalType": "uint256"
        }
      ],
      "outputs": [],
      "stateMutability": "nonpayable"
    },
    {
      "type": "function",
      "name": "refundNativeTokens",
      "inputs": [
        {
          "name": "_refundAddress",
          "type": "address",
          "internalType": "address"
        }
      ],
      "outputs": [],
      "stateMutability": "payable"
    },
    {
      "type": "function",
      "name": "token",
      "inputs": [],
      "outputs": [
        {
          "name": "",
          "type": "address",
          "internalType": "contract IERC20"
        }
      ],
      "stateMutability": "view"
    },
    {
      "type": "function",
      "name": "validate_addresses_or_refund",
      "inputs": [
        {
          "name": "_maybeReceiver",
          "type": "bytes",
          "internalType": "bytes"
        },
        {
          "name": "_senderBytes32",
          "type": "bytes32",
          "internalType": "bytes32"
        },
        {
          "name": "_amountLD",
          "type": "uint256",
          "internalType": "uint256"
        }
      ],
      "outputs": [
        {
          "name": "",
          "type": "address",
          "internalType": "address"
        }
      ],
      "stateMutability": "pure"
    },
    {
      "type": "function",
      "name": "validate_payload",
      "inputs": [
        {
          "name": "_composeMessage",
          "type": "bytes",
          "internalType": "bytes"
        }
      ],
      "outputs": [
        {
          "name": "",
          "type": "uint256",
          "internalType": "uint256"
        },
        {
          "name": "",
          "type": "bytes32",
          "internalType": "bytes32"
        },
        {
          "name": "",
          "type": "bytes",
          "internalType": "bytes"
        }
      ],
      "stateMutability": "pure"
    },
    {
      "type": "event",
      "name": "ErrorERC20_Refund",
      "inputs": [
        {
          "name": "refundTo",
          "type": "address",
          "indexed": false,
          "internalType": "address"
        },
        {
          "name": "refundAmount",
          "type": "uint256",
          "indexed": false,
          "internalType": "uint256"
        }
      ],
      "anonymous": false
    },
    {
      "type": "event",
      "name": "ErrorHYPE_Refund",
      "inputs": [
        {
          "name": "refundTo",
          "type": "address",
          "indexed": false,
          "internalType": "address"
        },
        {
          "name": "refundAmount",
          "type": "uint256",
          "indexed": false,
          "internalType": "uint256"
        }
      ],
      "anonymous": false
    },
    {
      "type": "event",
      "name": "ErrorMessage",
      "inputs": [
        {
          "name": "reason",
          "type": "bytes",
          "indexed": false,
          "internalType": "bytes"
        }
      ],
      "anonymous": false
    },
    {
      "type": "event",
      "name": "ExcessHYPE_Refund",
      "inputs": [
        {
          "name": "refundTo",
          "type": "address",
          "indexed": false,
          "internalType": "address"
        },
        {
          "name": "refundAmount",
          "type": "uint256",
          "indexed": false,
          "internalType": "uint256"
        }
      ],
      "anonymous": false
    },
    {
      "type": "error",
      "name": "ErrorMsg",
      "inputs": [
        {
          "name": "errorMessage",
          "type": "bytes",
          "internalType": "bytes"
        }
      ]
    },
    {
      "type": "error",
      "name": "HyperLiquidComposerCore_SpotBalanceRead_Failed",
      "inputs": [
        {
          "name": "user",
          "type": "address",
          "internalType": "address"
        },
        {
          "name": "tokenId",
          "type": "uint64",
          "internalType": "uint64"
        }
      ]
    },
    {
      "type": "error",
      "name": "HyperLiquidComposer_FailedToRefund_HYPE",
      "inputs": [
        {
          "name": "to",
          "type": "address",
          "internalType": "address"
        },
        {
          "name": "amount",
          "type": "uint256",
          "internalType": "uint256"
        }
      ]
    },
    {
      "type": "error",
      "name": "HyperLiquidComposer_InvalidArgument_EndpointShouldNotBeZeroAddress",
      "inputs": [
        {
          "name": "receivedEndpointAddress",
          "type": "address",
          "internalType": "address"
        }
      ]
    },
    {
      "type": "error",
      "name": "HyperLiquidComposer_InvalidCall_NotComposer",
      "inputs": [
        {
          "name": "notComposerAddress",
          "type": "address",
          "internalType": "address"
        }
      ]
    },
    {
      "type": "error",
      "name": "SafeERC20FailedOperation",
      "inputs": [
        {
          "name": "token",
          "type": "address",
          "internalType": "address"
        }
      ]
    }
  ],
  "bytecode": {
    "object": "0x60e060405234801562000010575f80fd5b506040516200185f3803806200185f833981016040819052620000339162000110565b6001600160a01b0382166200006a5760405163fb82c1f160e01b81526001600160a01b038316600482015260240160405180910390fd5b6001600160a01b03808316608052811660a081905260408051637e062a3560e11b8152905163fc0c546a916004808201926020929091908290030181865afa158015620000b9573d5f803e3d5ffd5b505050506040513d601f19601f82011682018060405250810190620000df919062000146565b6001600160a01b031660c05250620001699050565b80516001600160a01b03811681146200010b575f80fd5b919050565b5f806040838503121562000122575f80fd5b6200012d83620000f4565b91506200013d60208401620000f4565b90509250929050565b5f6020828403121562000157575f80fd5b6200016282620000f4565b9392505050565b60805160a05160c0516116c46200019b5f395f8181610547015261089601525f61038d01525f61027801526116c45ff3fe6080604052600436106100ef575f3560e01c80639b5215f611610087578063ebaeefd611610057578063ebaeefd614610474578063f6e6b24014610493578063f9716faf146104eb578063fc0c546a14610536575f80fd5b80639b5215f61461037c578063aae12e46146103af578063ba87267914610438578063dd8500751461044d575f80fd5b80635e280f11116100c25780635e280f1114610267578063765008a11461029a57806381e8dcb41461032f5780638483bc0014610367575f80fd5b806303be2050146100f35780631b224831146101285780632d0e315c146101565780635241b49614610223575b5f80fd5b3480156100fe575f80fd5b5061011261010d366004610f7a565b610569565b60405161011f9190611051565b60405180910390f35b348015610133575f80fd5b50610147610142366004610f7a565b61057e565b60405161011f93929190611063565b348015610161575f80fd5b506101de604080516060810182525f808252602082018190529181019190915250604080516060810182525f5473ffffffffffffffffffffffffffffffffffffffff8116825274010000000000000000000000000000000000000000900467ffffffffffffffff16602082015260015460070b9181019190915290565b60408051825173ffffffffffffffffffffffffffffffffffffffff16815260208084015167ffffffffffffffff16908201529181015160070b9082015260600161011f565b34801561022e575f80fd5b5061024261023d3660046110fd565b6105b6565b60405173ffffffffffffffffffffffffffffffffffffffff909116815260200161011f565b348015610272575f80fd5b506102427f000000000000000000000000000000000000000000000000000000000000000081565b3480156102a5575f80fd5b505f546001546102f19173ffffffffffffffffffffffffffffffffffffffff8116917401000000000000000000000000000000000000000090910467ffffffffffffffff169060070b83565b6040805173ffffffffffffffffffffffffffffffffffffffff909416845267ffffffffffffffff909216602084015260070b9082015260600161011f565b34801561033a575f80fd5b5061034e6103493660046111f7565b6106f0565b60405167ffffffffffffffff909116815260200161011f565b61037a61037536600461122c565b6106fb565b005b348015610387575f80fd5b506102427f000000000000000000000000000000000000000000000000000000000000000081565b3480156103ba575f80fd5b506101de604080516060810182525f8082526020820181905291810191909152506040805160608101825260025473ffffffffffffffffffffffffffffffffffffffff8116825274010000000000000000000000000000000000000000900467ffffffffffffffff16602082015260035460070b9181019190915290565b348015610443575f80fd5b5061024261080181565b348015610458575f80fd5b5061024273333333333333333333333333333333333333333381565b34801561047f575f80fd5b5061037a61048e366004611245565b610818565b34801561049e575f80fd5b506002546003546102f19173ffffffffffffffffffffffffffffffffffffffff8116917401000000000000000000000000000000000000000090910467ffffffffffffffff169060070b83565b3480156104f6575f80fd5b5061050a61050536600461126d565b6108bd565b6040805182518152602080840151908201529181015167ffffffffffffffff169082015260600161011f565b348015610541575f80fd5b506102427f000000000000000000000000000000000000000000000000000000000000000081565b606061057583836109f2565b90505b92915050565b5f8060605f61058d8686610a3c565b90505f61059a8787610a54565b90505f6105a78888610a63565b92989197509195509350505050565b5f806105c184610a72565b90505f6105cd86610a9d565b905073ffffffffffffffffffffffffffffffffffffffff81166106e75785516040515f917f09b347310000000000000000000000000000000000000000000000000000000091610621918a91602401611294565b604080517fffffffffffffffffffffffffffffffffffffffffffffffffffffffffffffffe08184030181529190526020810180517bffffffffffffffffffffffffffffffffffffffffffffffffffffffff167fffffffff000000000000000000000000000000000000000000000000000000009093169290921790915290506106ab818487610b00565b6040517f4f9520330000000000000000000000000000000000000000000000000000000081526004016106de9190611051565b60405180910390fd5b95945050505050565b5f6105758383610b5b565b333014610736576040517f5950c85e0000000000000000000000000000000000000000000000000000000081523360048201526024016106de565b5f3411801561075a575073ffffffffffffffffffffffffffffffffffffffff811615155b15610815575f8173ffffffffffffffffffffffffffffffffffffffff16346040515f6040518083038185875af1925050503d805f81146107b5576040519150601f19603f3d011682016040523d82523d5f602084013e6107ba565b606091505b5050905080610813576040517fc8ee485e00000000000000000000000000000000000000000000000000000000815273ffffffffffffffffffffffffffffffffffffffff831660048201523460248201526044016106de565b505b50565b333014610853576040517f5950c85e0000000000000000000000000000000000000000000000000000000081523360048201526024016106de565b5f81118015610877575073ffffffffffffffffffffffffffffffffffffffff821615155b156108135761081373ffffffffffffffffffffffffffffffffffffffff7f0000000000000000000000000000000000000000000000000000000000000000168383610c6f565b6108e860405180606001604052805f81526020015f81526020015f67ffffffffffffffff1681525090565b604080516060810182525f8082526020820181905291810182905290831561097a57604080516060810182525f5473ffffffffffffffffffffffffffffffffffffffff81168083527401000000000000000000000000000000000000000090910467ffffffffffffffff166020830181905260015460070b9383019390935290935061097391610b5b565b90506109e7565b6040805160608101825260025473ffffffffffffffffffffffffffffffffffffffff81168083527401000000000000000000000000000000000000000090910467ffffffffffffffff166020830181905260035460070b938301939093529093506109e491610b5b565b90505b6106e7858284610d01565b6060610a0182604481866112b5565b8080601f0160208091040260200160405190810160405280939291908181526020018383808284375f92019190915250929695505050505050565b5f610a4b602c600c84866112b5565b610575916112dc565b5f610a4b604c602c84866112b5565b6060610a0182604c81866112b5565b5f8173ffffffffffffffffffffffffffffffffffffffff8111610a955792915050565b505f92915050565b80515f907fffffffffffffffffffffffffffffffffffffffffffffffffffffffffffffffec8101610adb57610ad183611318565b60601c9392505050565b60208103610a95575f610aed84611367565b9050610af881610a72565b949350505050565b606060405180606001604052808473ffffffffffffffffffffffffffffffffffffffff16815260200183815260200185815250604051602001610b4391906113a9565b60405160208183030381529060405290509392505050565b6040805173ffffffffffffffffffffffffffffffffffffffff8416602082015267ffffffffffffffff8316818301528151808203830181526060918201928390525f9283929161080191610baf91906113ed565b5f60405180830381855afa9150503d805f8114610be7576040519150601f19603f3d011682016040523d82523d5f602084013e610bec565b606091505b50909250905081610c51576040517fa91ed72100000000000000000000000000000000000000000000000000000000815273ffffffffffffffffffffffffffffffffffffffff8616600482015267ffffffffffffffff851660248201526044016106de565b80806020019051810190610c659190611408565b5195945050505050565b6040805173ffffffffffffffffffffffffffffffffffffffff8416602482015260448082018490528251808303909101815260649091019091526020810180517bffffffffffffffffffffffffffffffffffffffffffffffffffffffff167fa9059cbb00000000000000000000000000000000000000000000000000000000179052610cfc908490610ddc565b505050565b610d2c60405180606001604052805f81526020015f81526020015f67ffffffffffffffff1681525090565b5f805f80610d428767ffffffffffffffff610e81565b90505f866040015160070b1315610d6e57610d6288828860400151610ea9565b91955093509150610db0565b610da8888288604001517fffffffffffffffffffffffffffffffffffffffffffffffffffffffffffffffff610da391906114a5565b610f22565b919550935091505b5060408051606081018252938452602084019290925267ffffffffffffffff1690820152949350505050565b5f8060205f8451602086015f885af180610dfb576040513d5f823e3d81fd5b50505f513d91508115610e12578060011415610e2c565b73ffffffffffffffffffffffffffffffffffffffff84163b155b15610e7b576040517f5274afe700000000000000000000000000000000000000000000000000000000815273ffffffffffffffffffffffffffffffffffffffff851660048201526024016106de565b50505050565b5f8167ffffffffffffffff168367ffffffffffffffff1611610ea35782610575565b50919050565b5f808080610eb885600a6115e9565b90505f610ecf8267ffffffffffffffff89166115fe565b9050610edb8289611642565b9350610ee78489611655565b9750610ef38882610f6c565b9450610eff8589611655565b610f099085611668565b9350610f15828661167b565b9250505093509350939050565b5f808080610f3185600a6115e9565b90505f610f488267ffffffffffffffff891661167b565b9050610f548882610f6c565b9450610f608589611655565b9350610f1582866115fe565b5f818311610ea35782610575565b5f8060208385031215610f8b575f80fd5b823567ffffffffffffffff80821115610fa2575f80fd5b818501915085601f830112610fb5575f80fd5b813581811115610fc3575f80fd5b866020828501011115610fd4575f80fd5b60209290920196919550909350505050565b5f5b83811015611000578181015183820152602001610fe8565b50505f910152565b5f815180845261101f816020860160208601610fe6565b601f017fffffffffffffffffffffffffffffffffffffffffffffffffffffffffffffffe0169290920160200192915050565b602081525f6105756020830184611008565b838152826020820152606060408201525f6106e76060830184611008565b7f4e487b71000000000000000000000000000000000000000000000000000000005f52604160045260245ffd5b604051601f82017fffffffffffffffffffffffffffffffffffffffffffffffffffffffffffffffe016810167ffffffffffffffff811182821017156110f5576110f5611081565b604052919050565b5f805f6060848603121561110f575f80fd5b833567ffffffffffffffff80821115611126575f80fd5b818601915086601f830112611139575f80fd5b813560208282111561114d5761114d611081565b61117d817fffffffffffffffffffffffffffffffffffffffffffffffffffffffffffffffe0601f850116016110ae565b92508183528881838601011115611192575f80fd5b81818501828501375f9183018101919091529097908601359650604090950135949350505050565b803573ffffffffffffffffffffffffffffffffffffffff811681146111dd575f80fd5b919050565b67ffffffffffffffff81168114610815575f80fd5b5f8060408385031215611208575f80fd5b611211836111ba565b91506020830135611221816111e2565b809150509250929050565b5f6020828403121561123c575f80fd5b610575826111ba565b5f8060408385031215611256575f80fd5b61125f836111ba565b946020939093013593505050565b5f806040838503121561127e575f80fd5b8235915060208301358015158114611221575f80fd5b604081525f6112a66040830185611008565b90508260208301529392505050565b5f80858511156112c3575f80fd5b838611156112cf575f80fd5b5050820193919092039150565b80356020831015610578577fffffffffffffffffffffffffffffffffffffffffffffffffffffffffffffffff602084900360031b1b1692915050565b5f815160208301517fffffffffffffffffffffffffffffffffffffffff0000000000000000000000008082169350601483101561135f5780818460140360031b1b83161693505b505050919050565b80516020808301519190811015610ea3577fffffffffffffffffffffffffffffffffffffffffffffffffffffffffffffffff60209190910360031b1b16919050565b6020815273ffffffffffffffffffffffffffffffffffffffff8251166020820152602082015160408201525f6040830151606080840152610af86080840182611008565b5f82516113fe818460208701610fe6565b9190910192915050565b5f60608284031215611418575f80fd5b6040516060810181811067ffffffffffffffff8211171561143b5761143b611081565b6040528251611449816111e2565b81526020830151611459816111e2565b6020820152604083015161146c816111e2565b60408201529392505050565b7f4e487b71000000000000000000000000000000000000000000000000000000005f52601160045260245ffd5b5f8260070b8260070b028060070b91508082146114c4576114c4611478565b5092915050565b600181815b8085111561152457817fffffffffffffffffffffffffffffffffffffffffffffffffffffffffffffffff0482111561150a5761150a611478565b8085161561151757918102915b93841c93908002906114d0565b509250929050565b5f8261153a57506001610578565b8161154657505f610578565b816001811461155c576002811461156657611582565b6001915050610578565b60ff84111561157757611577611478565b50506001821b610578565b5060208310610133831016604e8410600b84101617156115a5575081810a610578565b6115af83836114cb565b807fffffffffffffffffffffffffffffffffffffffffffffffffffffffffffffffff048211156115e1576115e1611478565b029392505050565b5f61057567ffffffffffffffff84168361152c565b808202811582820484141761057857610578611478565b7f4e487b71000000000000000000000000000000000000000000000000000000005f52601260045260245ffd5b5f8261165057611650611615565b500690565b8181038181111561057857610578611478565b8082018082111561057857610578611478565b5f8261168957611689611615565b50049056fea264697066735822122010fd21a2d210c933597c568dce371f68a55fc92dea1c7fe46502d5e8b8b6047164736f6c63430008160033",
    "linkReferences": {}
  },
  "methodIdentifiers": {
    "HLP_PRECOMPILE_READ_SPOT_BALANCE()": "ba872679",
    "HLP_PRECOMPILE_WRITE()": "dd850075",
    "balanceOfHyperCore(address,uint64)": "81e8dcb4",
    "endpoint()": "5e280f11",
    "getErrorPayload(bytes)": "03be2050",
    "getHypeAsset()": "aae12e46",
    "getOFTAsset()": "2d0e315c",
    "hypeAsset()": "f6e6b240",
    "oft()": "9b5215f6",
    "oftAsset()": "765008a1",
    "quoteHyperCoreAmount(uint256,bool)": "f9716faf",
    "refundERC20(address,uint256)": "ebaeefd6",
    "refundNativeTokens(address)": "8483bc00",
    "token()": "fc0c546a",
    "validate_addresses_or_refund(bytes,bytes32,uint256)": "5241b496",
    "validate_payload(bytes)": "1b224831"
  },
  "id": 1
}