{
  "abi": [
    {
      "type": "constructor",
      "inputs": [
        {
          "name": "_endpoint",
          "type": "address",
          "internalType": "address"
        },
        {
          "name": "_oft",
          "type": "address",
          "internalType": "address"
        }
      ],
      "stateMutability": "nonpayable"
    },
    {
      "type": "function",
      "name": "CORE_WRITER_VERSION",
      "inputs": [],
      "outputs": [
        {
          "name": "",
          "type": "bytes",
          "internalType": "bytes"
        }
      ],
      "stateMutability": "view"
    },
    {
      "type": "function",
      "name": "HLP_CORE_WRITER",
      "inputs": [],
      "outputs": [
        {
          "name": "",
          "type": "address",
          "internalType": "address"
        }
      ],
      "stateMutability": "view"
    },
    {
      "type": "function",
      "name": "HLP_PRECOMPILE_READ_SPOT_BALANCE",
      "inputs": [],
      "outputs": [
        {
          "name": "",
          "type": "address",
          "internalType": "address"
        }
      ],
      "stateMutability": "view"
    },
    {
      "type": "function",
      "name": "HYPE_CHAIN_ID_MAINNET",
      "inputs": [],
      "outputs": [
        {
          "name": "",
          "type": "uint256",
          "internalType": "uint256"
        }
      ],
      "stateMutability": "view"
    },
    {
      "type": "function",
      "name": "HYPE_CHAIN_ID_TESTNET",
      "inputs": [],
      "outputs": [
        {
          "name": "",
          "type": "uint256",
          "internalType": "uint256"
        }
      ],
      "stateMutability": "view"
    },
    {
      "type": "function",
      "name": "HYPE_INDEX_MAINNET",
      "inputs": [],
      "outputs": [
        {
          "name": "",
          "type": "uint64",
          "internalType": "uint64"
        }
      ],
      "stateMutability": "view"
    },
    {
      "type": "function",
      "name": "HYPE_INDEX_TESTNET",
      "inputs": [],
      "outputs": [
        {
          "name": "",
          "type": "uint64",
          "internalType": "uint64"
        }
      ],
      "stateMutability": "view"
    },
    {
      "type": "function",
      "name": "SPOT_SEND_ACTION_ID",
      "inputs": [],
      "outputs": [
        {
          "name": "",
          "type": "bytes",
          "internalType": "bytes"
        }
      ],
      "stateMutability": "view"
    },
    {
      "type": "function",
      "name": "SPOT_SEND_HEADER",
      "inputs": [],
      "outputs": [
        {
          "name": "",
          "type": "bytes",
          "internalType": "bytes"
        }
      ],
      "stateMutability": "view"
    },
    {
      "type": "function",
      "name": "balanceOfHyperCore",
      "inputs": [
        {
          "name": "_user",
          "type": "address",
          "internalType": "address"
        },
        {
          "name": "_tokenId",
          "type": "uint64",
          "internalType": "uint64"
        }
      ],
      "outputs": [
        {
          "name": "",
          "type": "uint64",
          "internalType": "uint64"
        }
      ],
      "stateMutability": "view"
    },
    {
      "type": "function",
      "name": "endpoint",
      "inputs": [],
      "outputs": [
        {
          "name": "",
          "type": "address",
          "internalType": "address"
        }
      ],
      "stateMutability": "view"
    },
    {
      "type": "function",
      "name": "getErrorPayload",
      "inputs": [
        {
          "name": "_err",
          "type": "bytes",
          "internalType": "bytes"
        }
      ],
      "outputs": [
        {
          "name": "",
          "type": "bytes",
          "internalType": "bytes"
        }
      ],
      "stateMutability": "pure"
    },
    {
      "type": "function",
      "name": "getHypeAsset",
      "inputs": [],
      "outputs": [
        {
          "name": "",
          "type": "tuple",
          "internalType": "struct IHyperAsset",
          "components": [
            {
              "name": "assetBridgeAddress",
              "type": "address",
              "internalType": "address"
            },
            {
              "name": "coreIndexId",
              "type": "uint64",
              "internalType": "uint64"
            },
            {
              "name": "decimalDiff",
              "type": "int64",
              "internalType": "int64"
            }
          ]
        }
      ],
      "stateMutability": "view"
    },
    {
      "type": "function",
      "name": "getOFTAsset",
      "inputs": [],
      "outputs": [
        {
          "name": "",
          "type": "tuple",
          "internalType": "struct IHyperAsset",
          "components": [
            {
              "name": "assetBridgeAddress",
              "type": "address",
              "internalType": "address"
            },
            {
              "name": "coreIndexId",
              "type": "uint64",
              "internalType": "uint64"
            },
            {
              "name": "decimalDiff",
              "type": "int64",
              "internalType": "int64"
            }
          ]
        }
      ],
      "stateMutability": "view"
    },
    {
      "type": "function",
      "name": "hypeAsset",
      "inputs": [],
      "outputs": [
        {
          "name": "assetBridgeAddress",
          "type": "address",
          "internalType": "address"
        },
        {
          "name": "coreIndexId",
          "type": "uint64",
          "internalType": "uint64"
        },
        {
          "name": "decimalDiff",
          "type": "int64",
          "internalType": "int64"
        }
      ],
      "stateMutability": "view"
    },
    {
      "type": "function",
      "name": "hypeIndexByChainId",
      "inputs": [
        {
          "name": "",
          "type": "uint256",
          "internalType": "uint256"
        }
      ],
      "outputs": [
        {
          "name": "",
          "type": "uint64",
          "internalType": "uint64"
        }
      ],
      "stateMutability": "view"
    },
    {
      "type": "function",
      "name": "oft",
      "inputs": [],
      "outputs": [
        {
          "name": "",
          "type": "address",
          "internalType": "contract IOFT"
        }
      ],
      "stateMutability": "view"
    },
    {
      "type": "function",
      "name": "oftAsset",
      "inputs": [],
      "outputs": [
        {
          "name": "assetBridgeAddress",
          "type": "address",
          "internalType": "address"
        },
        {
          "name": "coreIndexId",
          "type": "uint64",
          "internalType": "uint64"
        },
        {
          "name": "decimalDiff",
          "type": "int64",
          "internalType": "int64"
        }
      ],
      "stateMutability": "view"
    },
    {
      "type": "function",
      "name": "quoteHyperCoreAmount",
      "inputs": [
        {
          "name": "_amount",
          "type": "uint256",
          "internalType": "uint256"
        },
        {
          "name": "_isOFT",
          "type": "bool",
          "internalType": "bool"
        }
      ],
      "outputs": [
        {
          "name": "",
          "type": "tuple",
          "internalType": "struct IHyperAssetAmount",
          "components": [
            {
              "name": "evm",
              "type": "uint256",
              "internalType": "uint256"
            },
            {
              "name": "dust",
              "type": "uint256",
              "internalType": "uint256"
            },
            {
              "name": "core",
              "type": "uint64",
              "internalType": "uint64"
            }
          ]
        }
      ],
      "stateMutability": "view"
    },
    {
      "type": "function",
      "name": "refundERC20",
      "inputs": [
        {
          "name": "_refundAddress",
          "type": "address",
          "internalType": "address"
        },
        {
          "name": "_amount",
          "type": "uint256",
          "internalType": "uint256"
        }
      ],
      "outputs": [],
      "stateMutability": "nonpayable"
    },
    {
      "type": "function",
      "name": "refundNativeTokens",
      "inputs": [
        {
          "name": "_refundAddress",
          "type": "address",
          "internalType": "address"
        }
      ],
      "outputs": [],
      "stateMutability": "payable"
    },
    {
      "type": "function",
      "name": "token",
      "inputs": [],
      "outputs": [
        {
          "name": "",
          "type": "address",
          "internalType": "contract IERC20"
        }
      ],
      "stateMutability": "view"
    },
    {
      "type": "function",
      "name": "validate_addresses_or_refund",
      "inputs": [
        {
          "name": "_maybeReceiver",
          "type": "bytes",
          "internalType": "bytes"
        },
        {
          "name": "_senderBytes32",
          "type": "bytes32",
          "internalType": "bytes32"
        },
        {
          "name": "_amountLD",
          "type": "uint256",
          "internalType": "uint256"
        }
      ],
      "outputs": [
        {
          "name": "",
          "type": "address",
          "internalType": "address"
        }
      ],
      "stateMutability": "pure"
    },
    {
      "type": "function",
      "name": "validate_message",
      "inputs": [
        {
          "name": "_composeMessage",
          "type": "bytes",
          "internalType": "bytes"
        }
      ],
      "outputs": [
        {
          "name": "",
          "type": "uint256",
          "internalType": "uint256"
        },
        {
          "name": "",
          "type": "bytes32",
          "internalType": "bytes32"
        },
        {
          "name": "",
          "type": "bytes",
          "internalType": "bytes"
        }
      ],
      "stateMutability": "pure"
    },
    {
      "type": "event",
      "name": "ErrorERC20_Refund",
      "inputs": [
        {
          "name": "refundTo",
          "type": "address",
          "indexed": false,
          "internalType": "address"
        },
        {
          "name": "refundAmount",
          "type": "uint256",
          "indexed": false,
          "internalType": "uint256"
        }
      ],
      "anonymous": false
    },
    {
      "type": "event",
      "name": "ErrorHYPE_Refund",
      "inputs": [
        {
          "name": "refundTo",
          "type": "address",
          "indexed": false,
          "internalType": "address"
        },
        {
          "name": "refundAmount",
          "type": "uint256",
          "indexed": false,
          "internalType": "uint256"
        }
      ],
      "anonymous": false
    },
    {
      "type": "event",
      "name": "ErrorMessage",
      "inputs": [
        {
          "name": "reason",
          "type": "bytes",
          "indexed": false,
          "internalType": "bytes"
        }
      ],
      "anonymous": false
    },
    {
      "type": "event",
      "name": "ErrorSpot_FailedToSend",
      "inputs": [
        {
          "name": "to",
          "type": "address",
          "indexed": false,
          "internalType": "address"
        },
        {
          "name": "tokenId",
          "type": "uint64",
          "indexed": false,
          "internalType": "uint64"
        },
        {
          "name": "amount",
          "type": "uint256",
          "indexed": false,
          "internalType": "uint256"
        },
        {
          "name": "errorMessage",
          "type": "bytes",
          "indexed": false,
          "internalType": "bytes"
        }
      ],
      "anonymous": false
    },
    {
      "type": "event",
      "name": "ExcessHYPE_Refund",
      "inputs": [
        {
          "name": "refundTo",
          "type": "address",
          "indexed": false,
          "internalType": "address"
        },
        {
          "name": "refundAmount",
          "type": "uint256",
          "indexed": false,
          "internalType": "uint256"
        }
      ],
      "anonymous": false
    },
    {
      "type": "error",
      "name": "ErrorMsg",
      "inputs": [
        {
          "name": "errorMessage",
          "type": "bytes",
          "internalType": "bytes"
        }
      ]
    },
    {
      "type": "error",
      "name": "HyperLiquidComposerCore_SpotBalanceRead_Failed",
      "inputs": [
        {
          "name": "user",
          "type": "address",
          "internalType": "address"
        },
        {
          "name": "tokenId",
          "type": "uint64",
          "internalType": "uint64"
        }
      ]
    },
    {
      "type": "error",
      "name": "HyperLiquidComposer_FailedToRefund_HYPE",
      "inputs": [
        {
          "name": "to",
          "type": "address",
          "internalType": "address"
        },
        {
          "name": "amount",
          "type": "uint256",
          "internalType": "uint256"
        }
      ]
    },
    {
      "type": "error",
      "name": "HyperLiquidComposer_InvalidArgument_EndpointShouldNotBeZeroAddress",
      "inputs": [
        {
          "name": "receivedEndpointAddress",
          "type": "address",
          "internalType": "address"
        }
      ]
    },
    {
      "type": "error",
      "name": "HyperLiquidComposer_InvalidCall_NotComposer",
      "inputs": [
        {
          "name": "notComposerAddress",
          "type": "address",
          "internalType": "address"
        }
      ]
    },
    {
      "type": "error",
      "name": "SafeERC20FailedOperation",
      "inputs": [
        {
          "name": "token",
          "type": "address",
          "internalType": "address"
        }
      ]
    }
  ],
  "bytecode": {
    "object": "0x60e060405234801562000010575f80fd5b5060405162001b6338038062001b6383398101604081905262000033916200017c565b6001600160a01b0382166200006a5760405163fb82c1f160e01b81526001600160a01b038316600482015260240160405180910390fd5b6001600160a01b03808316608052811660a081905260408051637e062a3560e11b8152905163fc0c546a916004808201926020929091908290030181865afa158015620000b9573d5f803e3d5ffd5b505050506040513d601f19601f82011682018060405250810190620000df9190620001b2565b6001600160a01b031660c05250505f60208190527f2802b8ca0a4d9948ac89ce9ba15f4015f0f68c52469c4df23bbaf374f1d4604080546001600160401b0319908116610451179091556103e79091527f332eac5de6beffe8ee7761a0342c75594c3acb5fdde0a2555227e56aa65d414180549091166096179055620001d5565b80516001600160a01b038116811462000177575f80fd5b919050565b5f80604083850312156200018e575f80fd5b620001998362000160565b9150620001a96020840162000160565b90509250929050565b5f60208284031215620001c3575f80fd5b620001ce8262000160565b9392505050565b60805160a05160c05161195c620002075f395f81816107150152610ae801525f61055901525f610407015261195c5ff3fe608060405260043610610183575f3560e01c806381e8dcb4116100d1578063bc963bc71161007c578063f6e6b24011610057578063f6e6b24014610661578063f9716faf146106b9578063fc0c546a14610704575f80fd5b8063bc963bc714610619578063d00b1ad51461062e578063ebaeefd614610642575f80fd5b80639b5215f6116100ac5780639b5215f614610548578063aae12e461461057b578063ba87267914610604575f80fd5b806381e8dcb4146104e65780638483bc00146105055780639180b7441461051a575f80fd5b80634bd162df116101315780635e280f111161010c5780635e280f11146103f6578063765008a1146104295780637ecd9ac3146104bf575f80fd5b80634bd162df1461034f5780635241b4961461039d5780635b9a2373146103e1575f80fd5b806320d9af9a1161016157806320d9af9a1461021657806322dbe29c146102395780632d0e315c14610281575f80fd5b806303be2050146101875780630d1995e0146101bc5780631f8164d914610202575b5f80fd5b348015610192575f80fd5b506101a66101a13660046111cd565b610737565b6040516101b391906112a4565b60405180910390f35b3480156101c7575f80fd5b506101a66040518060400160405280600381526020017d06000000000000000000000000000000000000000000000000000000000081525081565b34801561020d575f80fd5b506101a661074c565b348015610221575f80fd5b5061022b6103e681565b6040519081526020016101b3565b348015610244575f80fd5b506101a66040518060400160405280600181526020017f010000000000000000000000000000000000000000000000000000000000000081525081565b34801561028c575f80fd5b5061030a604080516060810182525f8082526020820181905291810191909152506040805160608101825260015473ffffffffffffffffffffffffffffffffffffffff8116825274010000000000000000000000000000000000000000900467ffffffffffffffff16602082015260025460070b9181019190915290565b60408051825173ffffffffffffffffffffffffffffffffffffffff16815260208084015167ffffffffffffffff16908201529181015160070b908201526060016101b3565b34801561035a575f80fd5b506103846103693660046112b6565b5f6020819052908152604090205467ffffffffffffffff1681565b60405167ffffffffffffffff90911681526020016101b3565b3480156103a8575f80fd5b506103bc6103b7366004611349565b6107d0565b60405173ffffffffffffffffffffffffffffffffffffffff90911681526020016101b3565b3480156103ec575f80fd5b5061022b6103e781565b348015610401575f80fd5b506103bc7f000000000000000000000000000000000000000000000000000000000000000081565b348015610434575f80fd5b506001546002546104819173ffffffffffffffffffffffffffffffffffffffff8116917401000000000000000000000000000000000000000090910467ffffffffffffffff169060070b83565b6040805173ffffffffffffffffffffffffffffffffffffffff909416845267ffffffffffffffff909216602084015260070b908201526060016101b3565b3480156104ca575f80fd5b506103bc73333333333333333333333333333333333333333381565b3480156104f1575f80fd5b50610384610500366004611443565b61090a565b610518610513366004611478565b610915565b005b348015610525575f80fd5b506105396105343660046111cd565b610a32565b6040516101b393929190611491565b348015610553575f80fd5b506103bc7f000000000000000000000000000000000000000000000000000000000000000081565b348015610586575f80fd5b5061030a604080516060810182525f8082526020820181905291810191909152506040805160608101825260035473ffffffffffffffffffffffffffffffffffffffff8116825274010000000000000000000000000000000000000000900467ffffffffffffffff16602082015260045460070b9181019190915290565b34801561060f575f80fd5b506103bc61080181565b348015610624575f80fd5b5061038461045181565b348015610639575f80fd5b50610384609681565b34801561064d575f80fd5b5061051861065c3660046114af565b610a6a565b34801561066c575f80fd5b506003546004546104819173ffffffffffffffffffffffffffffffffffffffff8116917401000000000000000000000000000000000000000090910467ffffffffffffffff169060070b83565b3480156106c4575f80fd5b506106d86106d33660046114d7565b610b0f565b6040805182518152602080840151908201529181015167ffffffffffffffff16908201526060016101b3565b34801561070f575f80fd5b506103bc7f000000000000000000000000000000000000000000000000000000000000000081565b60606107438383610c45565b90505b92915050565b604080518082018252600181527f010000000000000000000000000000000000000000000000000000000000000060208083019190915282518084018452600381527d0600000000000000000000000000000000000000000000000000000000008183015292516107be9391016114fe565b60405160208183030381529060405281565b5f806107db84610c8f565b90505f6107e786610cba565b905073ffffffffffffffffffffffffffffffffffffffff81166109015785516040515f917f09b34731000000000000000000000000000000000000000000000000000000009161083b918a9160240161152c565b604080517fffffffffffffffffffffffffffffffffffffffffffffffffffffffffffffffe08184030181529190526020810180517bffffffffffffffffffffffffffffffffffffffffffffffffffffffff167fffffffff000000000000000000000000000000000000000000000000000000009093169290921790915290506108c5818487610d1d565b6040517f4f9520330000000000000000000000000000000000000000000000000000000081526004016108f891906112a4565b60405180910390fd5b95945050505050565b5f6107438383610d78565b333014610950576040517f5950c85e0000000000000000000000000000000000000000000000000000000081523360048201526024016108f8565b5f34118015610974575073ffffffffffffffffffffffffffffffffffffffff811615155b15610a2f575f8173ffffffffffffffffffffffffffffffffffffffff16346040515f6040518083038185875af1925050503d805f81146109cf576040519150601f19603f3d011682016040523d82523d5f602084013e6109d4565b606091505b5050905080610a2d576040517fc8ee485e00000000000000000000000000000000000000000000000000000000815273ffffffffffffffffffffffffffffffffffffffff831660048201523460248201526044016108f8565b505b50565b5f8060605f610a418686610e8c565b90505f610a4e8787610ea4565b90505f610a5b8888610eb3565b92989197509195509350505050565b333014610aa5576040517f5950c85e0000000000000000000000000000000000000000000000000000000081523360048201526024016108f8565b5f81118015610ac9575073ffffffffffffffffffffffffffffffffffffffff821615155b15610a2d57610a2d73ffffffffffffffffffffffffffffffffffffffff7f0000000000000000000000000000000000000000000000000000000000000000168383610ec2565b610b3a60405180606001604052805f81526020015f81526020015f67ffffffffffffffff1681525090565b604080516060810182525f80825260208201819052918101829052908315610bcd576040805160608101825260015473ffffffffffffffffffffffffffffffffffffffff81168083527401000000000000000000000000000000000000000090910467ffffffffffffffff166020830181905260025460070b93830193909352909350610bc691610d78565b9050610c3a565b6040805160608101825260035473ffffffffffffffffffffffffffffffffffffffff81168083527401000000000000000000000000000000000000000090910467ffffffffffffffff166020830181905260045460070b93830193909352909350610c3791610d78565b90505b610901858284610f54565b6060610c54826044818661154d565b8080601f0160208091040260200160405190810160405280939291908181526020018383808284375f92019190915250929695505050505050565b5f8173ffffffffffffffffffffffffffffffffffffffff8111610cb25792915050565b505f92915050565b80515f907fffffffffffffffffffffffffffffffffffffffffffffffffffffffffffffffec8101610cf857610cee83611574565b60601c9392505050565b60208103610cb2575f610d0a846115c3565b9050610d1581610c8f565b949350505050565b606060405180606001604052808473ffffffffffffffffffffffffffffffffffffffff16815260200183815260200185815250604051602001610d609190611605565b60405160208183030381529060405290509392505050565b6040805173ffffffffffffffffffffffffffffffffffffffff8416602082015267ffffffffffffffff8316818301528151808203830181526060918201928390525f9283929161080191610dcc9190611649565b5f60405180830381855afa9150503d805f8114610e04576040519150601f19603f3d011682016040523d82523d5f602084013e610e09565b606091505b50909250905081610e6e576040517fa91ed72100000000000000000000000000000000000000000000000000000000815273ffffffffffffffffffffffffffffffffffffffff8616600482015267ffffffffffffffff851660248201526044016108f8565b80806020019051810190610e829190611664565b5195945050505050565b5f610e9b602c600c848661154d565b610743916116d4565b5f610e9b604c602c848661154d565b6060610c5482604c818661154d565b6040805173ffffffffffffffffffffffffffffffffffffffff8416602482015260448082018490528251808303909101815260649091019091526020810180517bffffffffffffffffffffffffffffffffffffffffffffffffffffffff167fa9059cbb00000000000000000000000000000000000000000000000000000000179052610f4f90849061102f565b505050565b610f7f60405180606001604052805f81526020015f81526020015f67ffffffffffffffff1681525090565b5f805f80610f958767ffffffffffffffff6110d4565b90505f866040015160070b1315610fc157610fb5888288604001516110fc565b91955093509150611003565b610ffb888288604001517fffffffffffffffffffffffffffffffffffffffffffffffffffffffffffffffff610ff6919061173d565b611175565b919550935091505b5060408051606081018252938452602084019290925267ffffffffffffffff1690820152949350505050565b5f8060205f8451602086015f885af18061104e576040513d5f823e3d81fd5b50505f513d9150811561106557806001141561107f565b73ffffffffffffffffffffffffffffffffffffffff84163b155b156110ce576040517f5274afe700000000000000000000000000000000000000000000000000000000815273ffffffffffffffffffffffffffffffffffffffff851660048201526024016108f8565b50505050565b5f8167ffffffffffffffff168367ffffffffffffffff16116110f65782610743565b50919050565b5f80808061110b85600a611881565b90505f6111228267ffffffffffffffff8916611896565b905061112e82896118da565b935061113a84896118ed565b975061114688826111bf565b945061115285896118ed565b61115c9085611900565b93506111688286611913565b9250505093509350939050565b5f80808061118485600a611881565b90505f61119b8267ffffffffffffffff8916611913565b90506111a788826111bf565b94506111b385896118ed565b93506111688286611896565b5f8183116110f65782610743565b5f80602083850312156111de575f80fd5b823567ffffffffffffffff808211156111f5575f80fd5b818501915085601f830112611208575f80fd5b813581811115611216575f80fd5b866020828501011115611227575f80fd5b60209290920196919550909350505050565b5f5b8381101561125357818101518382015260200161123b565b50505f910152565b5f8151808452611272816020860160208601611239565b601f017fffffffffffffffffffffffffffffffffffffffffffffffffffffffffffffffe0169290920160200192915050565b602081525f610743602083018461125b565b5f602082840312156112c6575f80fd5b5035919050565b7f4e487b71000000000000000000000000000000000000000000000000000000005f52604160045260245ffd5b604051601f82017fffffffffffffffffffffffffffffffffffffffffffffffffffffffffffffffe016810167ffffffffffffffff81118282101715611341576113416112cd565b604052919050565b5f805f6060848603121561135b575f80fd5b833567ffffffffffffffff80821115611372575f80fd5b818601915086601f830112611385575f80fd5b8135602082821115611399576113996112cd565b6113c9817fffffffffffffffffffffffffffffffffffffffffffffffffffffffffffffffe0601f850116016112fa565b925081835288818386010111156113de575f80fd5b81818501828501375f9183018101919091529097908601359650604090950135949350505050565b803573ffffffffffffffffffffffffffffffffffffffff81168114611429575f80fd5b919050565b67ffffffffffffffff81168114610a2f575f80fd5b5f8060408385031215611454575f80fd5b61145d83611406565b9150602083013561146d8161142e565b809150509250929050565b5f60208284031215611488575f80fd5b61074382611406565b838152826020820152606060408201525f610901606083018461125b565b5f80604083850312156114c0575f80fd5b6114c983611406565b946020939093013593505050565b5f80604083850312156114e8575f80fd5b823591506020830135801515811461146d575f80fd5b5f835161150f818460208801611239565b835190830190611523818360208801611239565b01949350505050565b604081525f61153e604083018561125b565b90508260208301529392505050565b5f808585111561155b575f80fd5b83861115611567575f80fd5b5050820193919092039150565b5f815160208301517fffffffffffffffffffffffffffffffffffffffff000000000000000000000000808216935060148310156115bb5780818460140360031b1b83161693505b505050919050565b805160208083015191908110156110f6577fffffffffffffffffffffffffffffffffffffffffffffffffffffffffffffffff60209190910360031b1b16919050565b6020815273ffffffffffffffffffffffffffffffffffffffff8251166020820152602082015160408201525f6040830151606080840152610d15608084018261125b565b5f825161165a818460208701611239565b9190910192915050565b5f60608284031215611674575f80fd5b6040516060810181811067ffffffffffffffff82111715611697576116976112cd565b60405282516116a58161142e565b815260208301516116b58161142e565b602082015260408301516116c88161142e565b60408201529392505050565b80356020831015610746577fffffffffffffffffffffffffffffffffffffffffffffffffffffffffffffffff602084900360031b1b1692915050565b7f4e487b71000000000000000000000000000000000000000000000000000000005f52601160045260245ffd5b5f8260070b8260070b028060070b915080821461175c5761175c611710565b5092915050565b600181815b808511156117bc57817fffffffffffffffffffffffffffffffffffffffffffffffffffffffffffffffff048211156117a2576117a2611710565b808516156117af57918102915b93841c9390800290611768565b509250929050565b5f826117d257506001610746565b816117de57505f610746565b81600181146117f457600281146117fe5761181a565b6001915050610746565b60ff84111561180f5761180f611710565b50506001821b610746565b5060208310610133831016604e8410600b841016171561183d575081810a610746565b6118478383611763565b807fffffffffffffffffffffffffffffffffffffffffffffffffffffffffffffffff0482111561187957611879611710565b029392505050565b5f61074367ffffffffffffffff8416836117c4565b808202811582820484141761074657610746611710565b7f4e487b71000000000000000000000000000000000000000000000000000000005f52601260045260245ffd5b5f826118e8576118e86118ad565b500690565b8181038181111561074657610746611710565b8082018082111561074657610746611710565b5f82611921576119216118ad565b50049056fea2646970667358221220e242f388039aaf936317a7762f3a92beb458f4960c8b06da6a97bfc4cfd97ac664736f6c63430008160033",
    "linkReferences": {}
  },
  "methodIdentifiers": {
    "CORE_WRITER_VERSION()": "22dbe29c",
    "HLP_CORE_WRITER()": "7ecd9ac3",
    "HLP_PRECOMPILE_READ_SPOT_BALANCE()": "ba872679",
    "HYPE_CHAIN_ID_MAINNET()": "5b9a2373",
    "HYPE_CHAIN_ID_TESTNET()": "20d9af9a",
    "HYPE_INDEX_MAINNET()": "d00b1ad5",
    "HYPE_INDEX_TESTNET()": "bc963bc7",
    "SPOT_SEND_ACTION_ID()": "0d1995e0",
    "SPOT_SEND_HEADER()": "1f8164d9",
    "balanceOfHyperCore(address,uint64)": "81e8dcb4",
    "endpoint()": "5e280f11",
    "getErrorPayload(bytes)": "03be2050",
    "getHypeAsset()": "aae12e46",
    "getOFTAsset()": "2d0e315c",
    "hypeAsset()": "f6e6b240",
    "hypeIndexByChainId(uint256)": "4bd162df",
    "oft()": "9b5215f6",
    "oftAsset()": "765008a1",
    "quoteHyperCoreAmount(uint256,bool)": "f9716faf",
    "refundERC20(address,uint256)": "ebaeefd6",
    "refundNativeTokens(address)": "8483bc00",
    "token()": "fc0c546a",
    "validate_addresses_or_refund(bytes,bytes32,uint256)": "5241b496",
    "validate_message(bytes)": "9180b744"
  },
  "id": 1
}