{
  "abi": [
    {
      "type": "constructor",
      "inputs": [
        {
          "name": "_endpoint",
          "type": "address",
          "internalType": "address"
        },
        {
          "name": "_oft",
          "type": "address",
          "internalType": "address"
        }
      ],
      "stateMutability": "nonpayable"
    },
    {
      "type": "function",
      "name": "CORE_WRITER_VERSION",
      "inputs": [],
      "outputs": [
        {
          "name": "",
          "type": "bytes",
          "internalType": "bytes"
        }
      ],
      "stateMutability": "view"
    },
    {
      "type": "function",
      "name": "HLP_CORE_WRITER",
      "inputs": [],
      "outputs": [
        {
          "name": "",
          "type": "address",
          "internalType": "address"
        }
      ],
      "stateMutability": "view"
    },
    {
      "type": "function",
      "name": "HLP_PRECOMPILE_READ_SPOT_BALANCE",
      "inputs": [],
      "outputs": [
        {
          "name": "",
          "type": "address",
          "internalType": "address"
        }
      ],
      "stateMutability": "view"
    },
    {
      "type": "function",
      "name": "HYPE_CHAIN_ID_MAINNET",
      "inputs": [],
      "outputs": [
        {
          "name": "",
          "type": "uint256",
          "internalType": "uint256"
        }
      ],
      "stateMutability": "view"
    },
    {
      "type": "function",
      "name": "HYPE_CHAIN_ID_TESTNET",
      "inputs": [],
      "outputs": [
        {
          "name": "",
          "type": "uint256",
          "internalType": "uint256"
        }
      ],
      "stateMutability": "view"
    },
    {
      "type": "function",
      "name": "HYPE_INDEX_MAINNET",
      "inputs": [],
      "outputs": [
        {
          "name": "",
          "type": "uint64",
          "internalType": "uint64"
        }
      ],
      "stateMutability": "view"
    },
    {
      "type": "function",
      "name": "HYPE_INDEX_TESTNET",
      "inputs": [],
      "outputs": [
        {
          "name": "",
          "type": "uint64",
          "internalType": "uint64"
        }
      ],
      "stateMutability": "view"
    },
    {
      "type": "function",
      "name": "SPOT_SEND_ACTION_ID",
      "inputs": [],
      "outputs": [
        {
          "name": "",
          "type": "bytes",
          "internalType": "bytes"
        }
      ],
      "stateMutability": "view"
    },
    {
      "type": "function",
      "name": "SPOT_SEND_HEADER",
      "inputs": [],
      "outputs": [
        {
          "name": "",
          "type": "bytes",
          "internalType": "bytes"
        }
      ],
      "stateMutability": "view"
    },
    {
      "type": "function",
      "name": "balanceOfHyperCore",
      "inputs": [
        {
          "name": "_user",
          "type": "address",
          "internalType": "address"
        },
        {
          "name": "_tokenId",
          "type": "uint64",
          "internalType": "uint64"
        }
      ],
      "outputs": [
        {
          "name": "",
          "type": "uint64",
          "internalType": "uint64"
        }
      ],
      "stateMutability": "view"
    },
    {
      "type": "function",
      "name": "endpoint",
      "inputs": [],
      "outputs": [
        {
          "name": "",
          "type": "address",
          "internalType": "address"
        }
      ],
      "stateMutability": "view"
    },
    {
      "type": "function",
      "name": "getErrorPayload",
      "inputs": [
        {
          "name": "_err",
          "type": "bytes",
          "internalType": "bytes"
        }
      ],
      "outputs": [
        {
          "name": "",
          "type": "bytes",
          "internalType": "bytes"
        }
      ],
      "stateMutability": "pure"
    },
    {
      "type": "function",
      "name": "getHypeAsset",
      "inputs": [],
      "outputs": [
        {
          "name": "",
          "type": "tuple",
          "internalType": "struct IHyperAsset",
          "components": [
            {
              "name": "assetBridgeAddress",
              "type": "address",
              "internalType": "address"
            },
            {
              "name": "coreIndexId",
              "type": "uint64",
              "internalType": "uint64"
            },
            {
              "name": "decimalDiff",
              "type": "int64",
              "internalType": "int64"
            }
          ]
        }
      ],
      "stateMutability": "view"
    },
    {
      "type": "function",
      "name": "getOFTAsset",
      "inputs": [],
      "outputs": [
        {
          "name": "",
          "type": "tuple",
          "internalType": "struct IHyperAsset",
          "components": [
            {
              "name": "assetBridgeAddress",
              "type": "address",
              "internalType": "address"
            },
            {
              "name": "coreIndexId",
              "type": "uint64",
              "internalType": "uint64"
            },
            {
              "name": "decimalDiff",
              "type": "int64",
              "internalType": "int64"
            }
          ]
        }
      ],
      "stateMutability": "view"
    },
    {
      "type": "function",
      "name": "hypeAsset",
      "inputs": [],
      "outputs": [
        {
          "name": "assetBridgeAddress",
          "type": "address",
          "internalType": "address"
        },
        {
          "name": "coreIndexId",
          "type": "uint64",
          "internalType": "uint64"
        },
        {
          "name": "decimalDiff",
          "type": "int64",
          "internalType": "int64"
        }
      ],
      "stateMutability": "view"
    },
    {
      "type": "function",
      "name": "hypeIndexByChainId",
      "inputs": [
        {
          "name": "",
          "type": "uint256",
          "internalType": "uint256"
        }
      ],
      "outputs": [
        {
          "name": "",
          "type": "uint64",
          "internalType": "uint64"
        }
      ],
      "stateMutability": "view"
    },
    {
      "type": "function",
      "name": "oft",
      "inputs": [],
      "outputs": [
        {
          "name": "",
          "type": "address",
          "internalType": "contract IOFT"
        }
      ],
      "stateMutability": "view"
    },
    {
      "type": "function",
      "name": "oftAsset",
      "inputs": [],
      "outputs": [
        {
          "name": "assetBridgeAddress",
          "type": "address",
          "internalType": "address"
        },
        {
          "name": "coreIndexId",
          "type": "uint64",
          "internalType": "uint64"
        },
        {
          "name": "decimalDiff",
          "type": "int64",
          "internalType": "int64"
        }
      ],
      "stateMutability": "view"
    },
    {
      "type": "function",
      "name": "quoteHyperCoreAmount",
      "inputs": [
        {
          "name": "_amount",
          "type": "uint256",
          "internalType": "uint256"
        },
        {
          "name": "_isOFT",
          "type": "bool",
          "internalType": "bool"
        }
      ],
      "outputs": [
        {
          "name": "",
          "type": "tuple",
          "internalType": "struct IHyperAssetAmount",
          "components": [
            {
              "name": "evm",
              "type": "uint256",
              "internalType": "uint256"
            },
            {
              "name": "dust",
              "type": "uint256",
              "internalType": "uint256"
            },
            {
              "name": "core",
              "type": "uint64",
              "internalType": "uint64"
            }
          ]
        }
      ],
      "stateMutability": "view"
    },
    {
      "type": "function",
      "name": "refundERC20",
      "inputs": [
        {
          "name": "_refundAddress",
          "type": "address",
          "internalType": "address"
        },
        {
          "name": "_amount",
          "type": "uint256",
          "internalType": "uint256"
        }
      ],
      "outputs": [],
      "stateMutability": "nonpayable"
    },
    {
      "type": "function",
      "name": "refundNativeTokens",
      "inputs": [
        {
          "name": "_refundAddress",
          "type": "address",
          "internalType": "address"
        }
      ],
      "outputs": [],
      "stateMutability": "payable"
    },
    {
      "type": "function",
      "name": "token",
      "inputs": [],
      "outputs": [
        {
          "name": "",
          "type": "address",
          "internalType": "contract IERC20"
        }
      ],
      "stateMutability": "view"
    },
    {
      "type": "function",
      "name": "validate_message",
      "inputs": [
        {
          "name": "_composeMessage",
          "type": "bytes",
          "internalType": "bytes"
        }
      ],
      "outputs": [
        {
          "name": "",
          "type": "uint256",
          "internalType": "uint256"
        },
        {
          "name": "",
          "type": "bytes32",
          "internalType": "bytes32"
        },
        {
          "name": "",
          "type": "bytes",
          "internalType": "bytes"
        }
      ],
      "stateMutability": "pure"
    },
    {
      "type": "function",
      "name": "validate_msg_or_refund",
      "inputs": [
        {
          "name": "_composeMsg",
          "type": "bytes",
          "internalType": "bytes"
        },
        {
          "name": "_senderBytes32",
          "type": "bytes32",
          "internalType": "bytes32"
        },
        {
          "name": "_amountLD",
          "type": "uint256",
          "internalType": "uint256"
        }
      ],
      "outputs": [
        {
          "name": "",
          "type": "uint256",
          "internalType": "uint256"
        },
        {
          "name": "",
          "type": "address",
          "internalType": "address"
        }
      ],
      "stateMutability": "pure"
    },
    {
      "type": "event",
      "name": "ErrorERC20_Refund",
      "inputs": [
        {
          "name": "refundTo",
          "type": "address",
          "indexed": false,
          "internalType": "address"
        },
        {
          "name": "refundAmount",
          "type": "uint256",
          "indexed": false,
          "internalType": "uint256"
        }
      ],
      "anonymous": false
    },
    {
      "type": "event",
      "name": "ErrorHYPE_Refund",
      "inputs": [
        {
          "name": "refundTo",
          "type": "address",
          "indexed": false,
          "internalType": "address"
        },
        {
          "name": "refundAmount",
          "type": "uint256",
          "indexed": false,
          "internalType": "uint256"
        }
      ],
      "anonymous": false
    },
    {
      "type": "event",
      "name": "ErrorMessage",
      "inputs": [
        {
          "name": "reason",
          "type": "bytes",
          "indexed": false,
          "internalType": "bytes"
        }
      ],
      "anonymous": false
    },
    {
      "type": "event",
      "name": "ErrorSpot_FailedToSend",
      "inputs": [
        {
          "name": "to",
          "type": "address",
          "indexed": false,
          "internalType": "address"
        },
        {
          "name": "tokenId",
          "type": "uint64",
          "indexed": false,
          "internalType": "uint64"
        },
        {
          "name": "amount",
          "type": "uint256",
          "indexed": false,
          "internalType": "uint256"
        },
        {
          "name": "errorMessage",
          "type": "bytes",
          "indexed": false,
          "internalType": "bytes"
        }
      ],
      "anonymous": false
    },
    {
      "type": "event",
      "name": "ExcessHYPE_Refund",
      "inputs": [
        {
          "name": "refundTo",
          "type": "address",
          "indexed": false,
          "internalType": "address"
        },
        {
          "name": "refundAmount",
          "type": "uint256",
          "indexed": false,
          "internalType": "uint256"
        }
      ],
      "anonymous": false
    },
    {
      "type": "error",
      "name": "ErrorMsg",
      "inputs": [
        {
          "name": "errorMessage",
          "type": "bytes",
          "internalType": "bytes"
        }
      ]
    },
    {
      "type": "error",
      "name": "HyperLiquidComposerCore_SpotBalanceRead_Failed",
      "inputs": [
        {
          "name": "user",
          "type": "address",
          "internalType": "address"
        },
        {
          "name": "tokenId",
          "type": "uint64",
          "internalType": "uint64"
        }
      ]
    },
    {
      "type": "error",
      "name": "HyperLiquidComposer_FailedToRefund_HYPE",
      "inputs": [
        {
          "name": "to",
          "type": "address",
          "internalType": "address"
        },
        {
          "name": "amount",
          "type": "uint256",
          "internalType": "uint256"
        }
      ]
    },
    {
      "type": "error",
      "name": "HyperLiquidComposer_InvalidArgument_EndpointShouldNotBeZeroAddress",
      "inputs": [
        {
          "name": "receivedEndpointAddress",
          "type": "address",
          "internalType": "address"
        }
      ]
    },
    {
      "type": "error",
      "name": "HyperLiquidComposer_InvalidCall_NotComposer",
      "inputs": [
        {
          "name": "notComposerAddress",
          "type": "address",
          "internalType": "address"
        }
      ]
    },
    {
      "type": "error",
      "name": "SafeERC20FailedOperation",
      "inputs": [
        {
          "name": "token",
          "type": "address",
          "internalType": "address"
        }
      ]
    }
  ],
  "bytecode": {
    "object": "0x60e060405234801562000010575f80fd5b5060405162001c4538038062001c4583398101604081905262000033916200017c565b6001600160a01b0382166200006a5760405163fb82c1f160e01b81526001600160a01b038316600482015260240160405180910390fd5b6001600160a01b03808316608052811660a081905260408051637e062a3560e11b8152905163fc0c546a916004808201926020929091908290030181865afa158015620000b9573d5f803e3d5ffd5b505050506040513d601f19601f82011682018060405250810190620000df9190620001b2565b6001600160a01b031660c05250505f60208190527f2802b8ca0a4d9948ac89ce9ba15f4015f0f68c52469c4df23bbaf374f1d4604080546001600160401b0319908116610451179091556103e79091527f332eac5de6beffe8ee7761a0342c75594c3acb5fdde0a2555227e56aa65d414180549091166096179055620001d5565b80516001600160a01b038116811462000177575f80fd5b919050565b5f80604083850312156200018e575f80fd5b620001998362000160565b9150620001a96020840162000160565b90509250929050565b5f60208284031215620001c3575f80fd5b620001ce8262000160565b9392505050565b60805160a05160c051611a3e620002075f395f818161073f0152610b2f01525f61058301525f6103c30152611a3e5ff3fe608060405260043610610183575f3560e01c80638483bc00116100d1578063bc963bc71161007c578063f6e6b24011610057578063f6e6b2401461068b578063f9716faf146106e3578063fc0c546a1461072e575f80fd5b8063bc963bc714610643578063d00b1ad514610658578063ebaeefd61461066c575f80fd5b80639b5215f6116100ac5780639b5215f614610572578063aae12e46146105a5578063ba8726791461062e575f80fd5b80638483bc00146104e65780639180b744146104fb578063970e7f9d14610529575f80fd5b80634bd162df11610131578063765008a11161010c578063765008a11461040a5780637ecd9ac3146104a057806381e8dcb4146104c7575f80fd5b80634bd162df1461034f5780635b9a23731461039d5780635e280f11146103b2575f80fd5b806320d9af9a1161016157806320d9af9a1461021657806322dbe29c146102395780632d0e315c14610281575f80fd5b806303be2050146101875780630d1995e0146101bc5780631f8164d914610202575b5f80fd5b348015610192575f80fd5b506101a66101a136600461121d565b610761565b6040516101b391906112f4565b60405180910390f35b3480156101c7575f80fd5b506101a66040518060400160405280600381526020017d06000000000000000000000000000000000000000000000000000000000081525081565b34801561020d575f80fd5b506101a6610776565b348015610221575f80fd5b5061022b6103e681565b6040519081526020016101b3565b348015610244575f80fd5b506101a66040518060400160405280600181526020017f010000000000000000000000000000000000000000000000000000000000000081525081565b34801561028c575f80fd5b5061030a604080516060810182525f8082526020820181905291810191909152506040805160608101825260015473ffffffffffffffffffffffffffffffffffffffff8116825274010000000000000000000000000000000000000000900467ffffffffffffffff16602082015260025460070b9181019190915290565b60408051825173ffffffffffffffffffffffffffffffffffffffff16815260208084015167ffffffffffffffff16908201529181015160070b908201526060016101b3565b34801561035a575f80fd5b50610384610369366004611306565b5f6020819052908152604090205467ffffffffffffffff1681565b60405167ffffffffffffffff90911681526020016101b3565b3480156103a8575f80fd5b5061022b6103e781565b3480156103bd575f80fd5b506103e57f000000000000000000000000000000000000000000000000000000000000000081565b60405173ffffffffffffffffffffffffffffffffffffffff90911681526020016101b3565b348015610415575f80fd5b506001546002546104629173ffffffffffffffffffffffffffffffffffffffff8116917401000000000000000000000000000000000000000090910467ffffffffffffffff169060070b83565b6040805173ffffffffffffffffffffffffffffffffffffffff909416845267ffffffffffffffff909216602084015260070b908201526060016101b3565b3480156104ab575f80fd5b506103e573333333333333333333333333333333333333333381565b3480156104d2575f80fd5b506103846104e136600461135a565b6107fa565b6104f96104f436600461138f565b610805565b005b348015610506575f80fd5b5061051a61051536600461121d565b610927565b6040516101b3939291906113a8565b348015610534575f80fd5b50610548610543366004611487565b61095f565b6040805192835273ffffffffffffffffffffffffffffffffffffffff9091166020830152016101b3565b34801561057d575f80fd5b506103e57f000000000000000000000000000000000000000000000000000000000000000081565b3480156105b0575f80fd5b5061030a604080516060810182525f8082526020820181905291810191909152506040805160608101825260035473ffffffffffffffffffffffffffffffffffffffff8116825274010000000000000000000000000000000000000000900467ffffffffffffffff16602082015260045460070b9181019190915290565b348015610639575f80fd5b506103e561080181565b34801561064e575f80fd5b5061038461045181565b348015610663575f80fd5b50610384609681565b348015610677575f80fd5b506104f9610686366004611513565b610ab1565b348015610696575f80fd5b506003546004546104629173ffffffffffffffffffffffffffffffffffffffff8116917401000000000000000000000000000000000000000090910467ffffffffffffffff169060070b83565b3480156106ee575f80fd5b506107026106fd36600461153b565b610b56565b6040805182518152602080840151908201529181015167ffffffffffffffff16908201526060016101b3565b348015610739575f80fd5b506103e57f000000000000000000000000000000000000000000000000000000000000000081565b606061076d8383610c95565b90505b92915050565b604080518082018252600181527f010000000000000000000000000000000000000000000000000000000000000060208083019190915282518084018452600381527d0600000000000000000000000000000000000000000000000000000000008183015292516107e8939101611562565b60405160208183030381529060405281565b5f61076d8383610cdf565b333014610845576040517f5950c85e0000000000000000000000000000000000000000000000000000000081523360048201526024015b60405180910390fd5b5f34118015610869575073ffffffffffffffffffffffffffffffffffffffff811615155b15610924575f8173ffffffffffffffffffffffffffffffffffffffff16346040515f6040518083038185875af1925050503d805f81146108c4576040519150601f19603f3d011682016040523d82523d5f602084013e6108c9565b606091505b5050905080610922576040517fc8ee485e00000000000000000000000000000000000000000000000000000000815273ffffffffffffffffffffffffffffffffffffffff8316600482015234602482015260440161083c565b505b50565b5f8060605f6109368686610df3565b90505f6109438787610e0b565b90505f6109508888610e1a565b92989197509195509350505050565b5f805f80868060200190518101906109779190611590565b915091505f61098587610e29565b90505f61099183610e54565b905073ffffffffffffffffffffffffffffffffffffffff8116610aa25782516040515f917f09b3473100000000000000000000000000000000000000000000000000000000916109e591879160240161160e565b604080517fffffffffffffffffffffffffffffffffffffffffffffffffffffffffffffffe08184030181529190526020810180517bffffffffffffffffffffffffffffffffffffffffffffffffffffffff167fffffffff00000000000000000000000000000000000000000000000000000000909316929092179091529050610a6f81848a610eb7565b6040517f4f95203300000000000000000000000000000000000000000000000000000000815260040161083c91906112f4565b92989297509195505050505050565b333014610aec576040517f5950c85e00000000000000000000000000000000000000000000000000000000815233600482015260240161083c565b5f81118015610b10575073ffffffffffffffffffffffffffffffffffffffff821615155b156109225761092273ffffffffffffffffffffffffffffffffffffffff7f0000000000000000000000000000000000000000000000000000000000000000168383610f12565b610b8160405180606001604052805f81526020015f81526020015f67ffffffffffffffff1681525090565b604080516060810182525f80825260208201819052918101829052908315610c14576040805160608101825260015473ffffffffffffffffffffffffffffffffffffffff81168083527401000000000000000000000000000000000000000090910467ffffffffffffffff166020830181905260025460070b93830193909352909350610c0d91610cdf565b9050610c81565b6040805160608101825260035473ffffffffffffffffffffffffffffffffffffffff81168083527401000000000000000000000000000000000000000090910467ffffffffffffffff166020830181905260045460070b93830193909352909350610c7e91610cdf565b90505b610c8c858284610fa4565b95945050505050565b6060610ca4826044818661162f565b8080601f0160208091040260200160405190810160405280939291908181526020018383808284375f92019190915250929695505050505050565b6040805173ffffffffffffffffffffffffffffffffffffffff8416602082015267ffffffffffffffff8316818301528151808203830181526060918201928390525f9283929161080191610d339190611656565b5f60405180830381855afa9150503d805f8114610d6b576040519150601f19603f3d011682016040523d82523d5f602084013e610d70565b606091505b50909250905081610dd5576040517fa91ed72100000000000000000000000000000000000000000000000000000000815273ffffffffffffffffffffffffffffffffffffffff8616600482015267ffffffffffffffff8516602482015260440161083c565b80806020019051810190610de99190611671565b5195945050505050565b5f610e02602c600c848661162f565b61076d916116e1565b5f610e02604c602c848661162f565b6060610ca482604c818661162f565b5f8173ffffffffffffffffffffffffffffffffffffffff8111610e4c5792915050565b505f92915050565b80515f907fffffffffffffffffffffffffffffffffffffffffffffffffffffffffffffffec8101610e9257610e888361171d565b60601c9392505050565b60208103610e4c575f610ea48461176c565b9050610eaf81610e29565b949350505050565b606060405180606001604052808473ffffffffffffffffffffffffffffffffffffffff16815260200183815260200185815250604051602001610efa91906117ae565b60405160208183030381529060405290509392505050565b6040805173ffffffffffffffffffffffffffffffffffffffff8416602482015260448082018490528251808303909101815260649091019091526020810180517bffffffffffffffffffffffffffffffffffffffffffffffffffffffff167fa9059cbb00000000000000000000000000000000000000000000000000000000179052610f9f90849061107f565b505050565b610fcf60405180606001604052805f81526020015f81526020015f67ffffffffffffffff1681525090565b5f805f80610fe58767ffffffffffffffff611124565b90505f866040015160070b1315611011576110058882886040015161114c565b91955093509150611053565b61104b888288604001517fffffffffffffffffffffffffffffffffffffffffffffffffffffffffffffffff611046919061181f565b6111c5565b919550935091505b5060408051606081018252938452602084019290925267ffffffffffffffff1690820152949350505050565b5f8060205f8451602086015f885af18061109e576040513d5f823e3d81fd5b50505f513d915081156110b55780600114156110cf565b73ffffffffffffffffffffffffffffffffffffffff84163b155b1561111e576040517f5274afe700000000000000000000000000000000000000000000000000000000815273ffffffffffffffffffffffffffffffffffffffff8516600482015260240161083c565b50505050565b5f8167ffffffffffffffff168367ffffffffffffffff1611611146578261076d565b50919050565b5f80808061115b85600a611963565b90505f6111728267ffffffffffffffff8916611978565b905061117e82896119bc565b935061118a84896119cf565b9750611196888261120f565b94506111a285896119cf565b6111ac90856119e2565b93506111b882866119f5565b9250505093509350939050565b5f8080806111d485600a611963565b90505f6111eb8267ffffffffffffffff89166119f5565b90506111f7888261120f565b945061120385896119cf565b93506111b88286611978565b5f818311611146578261076d565b5f806020838503121561122e575f80fd5b823567ffffffffffffffff80821115611245575f80fd5b818501915085601f830112611258575f80fd5b813581811115611266575f80fd5b866020828501011115611277575f80fd5b60209290920196919550909350505050565b5f5b838110156112a357818101518382015260200161128b565b50505f910152565b5f81518084526112c2816020860160208601611289565b601f017fffffffffffffffffffffffffffffffffffffffffffffffffffffffffffffffe0169290920160200192915050565b602081525f61076d60208301846112ab565b5f60208284031215611316575f80fd5b5035919050565b803573ffffffffffffffffffffffffffffffffffffffff81168114611340575f80fd5b919050565b67ffffffffffffffff81168114610924575f80fd5b5f806040838503121561136b575f80fd5b6113748361131d565b9150602083013561138481611345565b809150509250929050565b5f6020828403121561139f575f80fd5b61076d8261131d565b838152826020820152606060408201525f610c8c60608301846112ab565b7f4e487b71000000000000000000000000000000000000000000000000000000005f52604160045260245ffd5b604051601f82017fffffffffffffffffffffffffffffffffffffffffffffffffffffffffffffffe016810167ffffffffffffffff8111828210171561143a5761143a6113c6565b604052919050565b5f67ffffffffffffffff82111561145b5761145b6113c6565b50601f017fffffffffffffffffffffffffffffffffffffffffffffffffffffffffffffffe01660200190565b5f805f60608486031215611499575f80fd5b833567ffffffffffffffff8111156114af575f80fd5b8401601f810186136114bf575f80fd5b80356114d26114cd82611442565b6113f3565b8181528760208385010111156114e6575f80fd5b816020840160208301375f6020838301015280955050505060208401359150604084013590509250925092565b5f8060408385031215611524575f80fd5b61152d8361131d565b946020939093013593505050565b5f806040838503121561154c575f80fd5b8235915060208301358015158114611384575f80fd5b5f8351611573818460208801611289565b835190830190611587818360208801611289565b01949350505050565b5f80604083850312156115a1575f80fd5b82519150602083015167ffffffffffffffff8111156115be575f80fd5b8301601f810185136115ce575f80fd5b80516115dc6114cd82611442565b8181528660208385010111156115f0575f80fd5b611601826020830160208601611289565b8093505050509250929050565b604081525f61162060408301856112ab565b90508260208301529392505050565b5f808585111561163d575f80fd5b83861115611649575f80fd5b5050820193919092039150565b5f8251611667818460208701611289565b9190910192915050565b5f60608284031215611681575f80fd5b6040516060810181811067ffffffffffffffff821117156116a4576116a46113c6565b60405282516116b281611345565b815260208301516116c281611345565b602082015260408301516116d581611345565b60408201529392505050565b80356020831015610770577fffffffffffffffffffffffffffffffffffffffffffffffffffffffffffffffff602084900360031b1b1692915050565b5f815160208301517fffffffffffffffffffffffffffffffffffffffff000000000000000000000000808216935060148310156117645780818460140360031b1b83161693505b505050919050565b80516020808301519190811015611146577fffffffffffffffffffffffffffffffffffffffffffffffffffffffffffffffff60209190910360031b1b16919050565b6020815273ffffffffffffffffffffffffffffffffffffffff8251166020820152602082015160408201525f6040830151606080840152610eaf60808401826112ab565b7f4e487b71000000000000000000000000000000000000000000000000000000005f52601160045260245ffd5b5f8260070b8260070b028060070b915080821461183e5761183e6117f2565b5092915050565b600181815b8085111561189e57817fffffffffffffffffffffffffffffffffffffffffffffffffffffffffffffffff04821115611884576118846117f2565b8085161561189157918102915b93841c939080029061184a565b509250929050565b5f826118b457506001610770565b816118c057505f610770565b81600181146118d657600281146118e0576118fc565b6001915050610770565b60ff8411156118f1576118f16117f2565b50506001821b610770565b5060208310610133831016604e8410600b841016171561191f575081810a610770565b6119298383611845565b807fffffffffffffffffffffffffffffffffffffffffffffffffffffffffffffffff0482111561195b5761195b6117f2565b029392505050565b5f61076d67ffffffffffffffff8416836118a6565b8082028115828204841417610770576107706117f2565b7f4e487b71000000000000000000000000000000000000000000000000000000005f52601260045260245ffd5b5f826119ca576119ca61198f565b500690565b81810381811115610770576107706117f2565b80820180821115610770576107706117f2565b5f82611a0357611a0361198f565b50049056fea2646970667358221220a2059ed36afd1e706ae31cfd3797e86811658a8ac5cd99cd50fe3a57b426f97b64736f6c63430008160033",
    "linkReferences": {}
  },
  "methodIdentifiers": {
    "CORE_WRITER_VERSION()": "22dbe29c",
    "HLP_CORE_WRITER()": "7ecd9ac3",
    "HLP_PRECOMPILE_READ_SPOT_BALANCE()": "ba872679",
    "HYPE_CHAIN_ID_MAINNET()": "5b9a2373",
    "HYPE_CHAIN_ID_TESTNET()": "20d9af9a",
    "HYPE_INDEX_MAINNET()": "d00b1ad5",
    "HYPE_INDEX_TESTNET()": "bc963bc7",
    "SPOT_SEND_ACTION_ID()": "0d1995e0",
    "SPOT_SEND_HEADER()": "1f8164d9",
    "balanceOfHyperCore(address,uint64)": "81e8dcb4",
    "endpoint()": "5e280f11",
    "getErrorPayload(bytes)": "03be2050",
    "getHypeAsset()": "aae12e46",
    "getOFTAsset()": "2d0e315c",
    "hypeAsset()": "f6e6b240",
    "hypeIndexByChainId(uint256)": "4bd162df",
    "oft()": "9b5215f6",
    "oftAsset()": "765008a1",
    "quoteHyperCoreAmount(uint256,bool)": "f9716faf",
    "refundERC20(address,uint256)": "ebaeefd6",
    "refundNativeTokens(address)": "8483bc00",
    "token()": "fc0c546a",
    "validate_message(bytes)": "9180b744",
    "validate_msg_or_refund(bytes,bytes32,uint256)": "970e7f9d"
  },
  "id": 1
}