{
  "abi": [
    {
      "type": "constructor",
      "inputs": [
        {
          "name": "_endpoint",
          "type": "address",
          "internalType": "address"
        },
        {
          "name": "_oft",
          "type": "address",
          "internalType": "address"
        }
      ],
      "stateMutability": "nonpayable"
    },
    {
      "type": "function",
      "name": "HLP_PRECOMPILE_READ_SPOT_BALANCE",
      "inputs": [],
      "outputs": [
        {
          "name": "",
          "type": "address",
          "internalType": "address"
        }
      ],
      "stateMutability": "view"
    },
    {
      "type": "function",
      "name": "HLP_PRECOMPILE_WRITE",
      "inputs": [],
      "outputs": [
        {
          "name": "",
          "type": "address",
          "internalType": "address"
        }
      ],
      "stateMutability": "view"
    },
    {
      "type": "function",
      "name": "VALID_COMPOSE_MESSAGE_LENGTH_ENCODE",
      "inputs": [],
      "outputs": [
        {
          "name": "",
          "type": "uint256",
          "internalType": "uint256"
        }
      ],
      "stateMutability": "view"
    },
    {
      "type": "function",
      "name": "VALID_COMPOSE_MESSAGE_LENGTH_PACKED",
      "inputs": [],
      "outputs": [
        {
          "name": "",
          "type": "uint256",
          "internalType": "uint256"
        }
      ],
      "stateMutability": "view"
    },
    {
      "type": "function",
      "name": "balanceOfHyperCore",
      "inputs": [
        {
          "name": "_user",
          "type": "address",
          "internalType": "address"
        },
        {
          "name": "_tokenId",
          "type": "uint64",
          "internalType": "uint64"
        }
      ],
      "outputs": [
        {
          "name": "",
          "type": "uint64",
          "internalType": "uint64"
        }
      ],
      "stateMutability": "view"
    },
    {
      "type": "function",
      "name": "endpoint",
      "inputs": [],
      "outputs": [
        {
          "name": "",
          "type": "address",
          "internalType": "address"
        }
      ],
      "stateMutability": "view"
    },
    {
      "type": "function",
      "name": "getErrorPayload",
      "inputs": [
        {
          "name": "_err",
          "type": "bytes",
          "internalType": "bytes"
        }
      ],
      "outputs": [
        {
          "name": "",
          "type": "bytes",
          "internalType": "bytes"
        }
      ],
      "stateMutability": "pure"
    },
    {
      "type": "function",
      "name": "getHypeAsset",
      "inputs": [],
      "outputs": [
        {
          "name": "",
          "type": "tuple",
          "internalType": "struct IHyperAsset",
          "components": [
            {
              "name": "assetBridgeAddress",
              "type": "address",
              "internalType": "address"
            },
            {
              "name": "coreIndexId",
              "type": "uint64",
              "internalType": "uint64"
            },
            {
              "name": "decimalDiff",
              "type": "uint64",
              "internalType": "uint64"
            }
          ]
        }
      ],
      "stateMutability": "view"
    },
    {
      "type": "function",
      "name": "getOFTAsset",
      "inputs": [],
      "outputs": [
        {
          "name": "",
          "type": "tuple",
          "internalType": "struct IHyperAsset",
          "components": [
            {
              "name": "assetBridgeAddress",
              "type": "address",
              "internalType": "address"
            },
            {
              "name": "coreIndexId",
              "type": "uint64",
              "internalType": "uint64"
            },
            {
              "name": "decimalDiff",
              "type": "uint64",
              "internalType": "uint64"
            }
          ]
        }
      ],
      "stateMutability": "view"
    },
    {
      "type": "function",
      "name": "hypeAsset",
      "inputs": [],
      "outputs": [
        {
          "name": "assetBridgeAddress",
          "type": "address",
          "internalType": "address"
        },
        {
          "name": "coreIndexId",
          "type": "uint64",
          "internalType": "uint64"
        },
        {
          "name": "decimalDiff",
          "type": "uint64",
          "internalType": "uint64"
        }
      ],
      "stateMutability": "view"
    },
    {
      "type": "function",
      "name": "oft",
      "inputs": [],
      "outputs": [
        {
          "name": "",
          "type": "address",
          "internalType": "contract IOFT"
        }
      ],
      "stateMutability": "view"
    },
    {
      "type": "function",
      "name": "oftAsset",
      "inputs": [],
      "outputs": [
        {
          "name": "assetBridgeAddress",
          "type": "address",
          "internalType": "address"
        },
        {
          "name": "coreIndexId",
          "type": "uint64",
          "internalType": "uint64"
        },
        {
          "name": "decimalDiff",
          "type": "uint64",
          "internalType": "uint64"
        }
      ],
      "stateMutability": "view"
    },
    {
      "type": "function",
      "name": "quoteHyperCoreAmount",
      "inputs": [
        {
          "name": "_amount",
          "type": "uint256",
          "internalType": "uint256"
        },
        {
          "name": "_isOFT",
          "type": "bool",
          "internalType": "bool"
        }
      ],
      "outputs": [
        {
          "name": "",
          "type": "tuple",
          "internalType": "struct IHyperAssetAmount",
          "components": [
            {
              "name": "evm",
              "type": "uint256",
              "internalType": "uint256"
            },
            {
              "name": "dust",
              "type": "uint256",
              "internalType": "uint256"
            },
            {
              "name": "core",
              "type": "uint64",
              "internalType": "uint64"
            }
          ]
        }
      ],
      "stateMutability": "nonpayable"
    },
    {
      "type": "function",
      "name": "refundERC20",
      "inputs": [
        {
          "name": "_refundAddress",
          "type": "address",
          "internalType": "address"
        },
        {
          "name": "_amount",
          "type": "uint256",
          "internalType": "uint256"
        }
      ],
      "outputs": [],
      "stateMutability": "payable"
    },
    {
      "type": "function",
      "name": "refundNativeTokens",
      "inputs": [
        {
          "name": "_refundAddress",
          "type": "address",
          "internalType": "address"
        }
      ],
      "outputs": [],
      "stateMutability": "payable"
    },
    {
      "type": "function",
      "name": "token",
      "inputs": [],
      "outputs": [
        {
          "name": "",
          "type": "address",
          "internalType": "contract IERC20"
        }
      ],
      "stateMutability": "view"
    },
    {
      "type": "function",
      "name": "validate_addresses_or_refund",
      "inputs": [
        {
          "name": "_maybeReceiver",
          "type": "bytes",
          "internalType": "bytes"
        },
        {
          "name": "_senderBytes32",
          "type": "bytes32",
          "internalType": "bytes32"
        },
        {
          "name": "_amountLD",
          "type": "uint256",
          "internalType": "uint256"
        }
      ],
      "outputs": [
        {
          "name": "",
          "type": "address",
          "internalType": "address"
        }
      ],
      "stateMutability": "pure"
    },
    {
      "type": "function",
      "name": "validate_payload",
      "inputs": [
        {
          "name": "_composeMessage",
          "type": "bytes",
          "internalType": "bytes"
        }
      ],
      "outputs": [
        {
          "name": "",
          "type": "uint256",
          "internalType": "uint256"
        },
        {
          "name": "",
          "type": "bytes32",
          "internalType": "bytes32"
        },
        {
          "name": "",
          "type": "bytes",
          "internalType": "bytes"
        }
      ],
      "stateMutability": "pure"
    },
    {
      "type": "event",
      "name": "ErrorERC20_Refund",
      "inputs": [
        {
          "name": "refundTo",
          "type": "address",
          "indexed": false,
          "internalType": "address"
        },
        {
          "name": "refundAmount",
          "type": "uint256",
          "indexed": false,
          "internalType": "uint256"
        }
      ],
      "anonymous": false
    },
    {
      "type": "event",
      "name": "ErrorHYPE_Refund",
      "inputs": [
        {
          "name": "refundTo",
          "type": "address",
          "indexed": false,
          "internalType": "address"
        },
        {
          "name": "refundAmount",
          "type": "uint256",
          "indexed": false,
          "internalType": "uint256"
        }
      ],
      "anonymous": false
    },
    {
      "type": "event",
      "name": "ErrorMessage",
      "inputs": [
        {
          "name": "reason",
          "type": "bytes",
          "indexed": false,
          "internalType": "bytes"
        }
      ],
      "anonymous": false
    },
    {
      "type": "event",
      "name": "OverflowDetected",
      "inputs": [
        {
          "name": "amountCore",
          "type": "uint64",
          "indexed": false,
          "internalType": "uint64"
        },
        {
          "name": "maxTransferableAmount",
          "type": "uint64",
          "indexed": false,
          "internalType": "uint64"
        }
      ],
      "anonymous": false
    },
    {
      "type": "error",
      "name": "ErrorMsg",
      "inputs": [
        {
          "name": "errorMessage",
          "type": "bytes",
          "internalType": "bytes"
        }
      ]
    },
    {
      "type": "error",
      "name": "HyperLiquidComposerCore_SpotBalanceRead_Failed",
      "inputs": [
        {
          "name": "user",
          "type": "address",
          "internalType": "address"
        },
        {
          "name": "tokenId",
          "type": "uint64",
          "internalType": "uint64"
        }
      ]
    },
    {
      "type": "error",
      "name": "HyperLiquidComposer_FailedToRefund_HYPE",
      "inputs": [
        {
          "name": "to",
          "type": "address",
          "internalType": "address"
        },
        {
          "name": "amount",
          "type": "uint256",
          "internalType": "uint256"
        }
      ]
    },
    {
      "type": "error",
      "name": "HyperLiquidComposer_InvalidCall_NotComposer",
      "inputs": [
        {
          "name": "notComposerAddress",
          "type": "address",
          "internalType": "address"
        }
      ]
    }
  ],
  "bytecode": {
    "object": "0x60e060405234801562000010575f80fd5b5060405162001773380380620017738339810160408190526200003391620000d9565b6001600160a01b03808316608052811660a081905260408051637e062a3560e11b8152905163fc0c546a916004808201926020929091908290030181865afa15801562000082573d5f803e3d5ffd5b505050506040513d601f19601f82011682018060405250810190620000a891906200010f565b6001600160a01b031660c05250620001329050565b80516001600160a01b0381168114620000d4575f80fd5b919050565b5f8060408385031215620000eb575f80fd5b620000f683620000bd565b91506200010660208401620000bd565b90509250929050565b5f6020828403121562000120575f80fd5b6200012b82620000bd565b9392505050565b60805160a05160c05161160f620001645f395f81816105a7015261092d01525f6103fa01525f6102b1015261160f5ff3fe608060405260043610610123575f3560e01c80639278d99a116100a1578063dd85007511610071578063f6e6b24011610057578063f6e6b240146104f4578063f9716faf1461054b578063fc0c546a14610596575f80fd5b8063dd850075146104ba578063ebaeefd6146104e1575f80fd5b80639278d99a146103d55780639b5215f6146103e9578063aae12e461461041c578063ba872679146104a5575f80fd5b80635e280f11116100f6578063807d6c3f116100dc578063807d6c3f1461036657806381e8dcb4146103885780638483bc00146103c0575f80fd5b80635e280f11146102a0578063765008a1146102d3575f80fd5b806303be2050146101275780631b2248311461015c5780632d0e315c1461018a5780635241b4961461025c575b5f80fd5b348015610132575f80fd5b50610146610141366004610e83565b6105c9565b6040516101539190610f5a565b60405180910390f35b348015610167575f80fd5b5061017b610176366004610e83565b6105de565b60405161015393929190610f6c565b348015610195575f80fd5b50610212604080516060810182525f808252602082018190529181019190915250604080516060810182525f5473ffffffffffffffffffffffffffffffffffffffff8116825267ffffffffffffffff7401000000000000000000000000000000000000000090910481166020830152600154169181019190915290565b60408051825173ffffffffffffffffffffffffffffffffffffffff16815260208084015167ffffffffffffffff908116918301919091529282015190921690820152606001610153565b348015610267575f80fd5b5061027b610276366004611006565b610616565b60405173ffffffffffffffffffffffffffffffffffffffff9091168152602001610153565b3480156102ab575f80fd5b5061027b7f000000000000000000000000000000000000000000000000000000000000000081565b3480156102de575f80fd5b505f546001546103299173ffffffffffffffffffffffffffffffffffffffff81169167ffffffffffffffff740100000000000000000000000000000000000000009092048216911683565b6040805173ffffffffffffffffffffffffffffffffffffffff909416845267ffffffffffffffff9283166020850152911690820152606001610153565b348015610371575f80fd5b5061037a601481565b604051908152602001610153565b348015610393575f80fd5b506103a76103a2366004611100565b610750565b60405167ffffffffffffffff9091168152602001610153565b6103d36103ce366004611135565b61075b565b005b3480156103e0575f80fd5b5061037a602081565b3480156103f4575f80fd5b5061027b7f000000000000000000000000000000000000000000000000000000000000000081565b348015610427575f80fd5b50610212604080516060810182525f8082526020820181905291810191909152506040805160608101825260025473ffffffffffffffffffffffffffffffffffffffff8116825267ffffffffffffffff7401000000000000000000000000000000000000000090910481166020830152600354169181019190915290565b3480156104b0575f80fd5b5061027b61080181565b3480156104c5575f80fd5b5061027b73333333333333333333333333333333333333333381565b6103d36104ef36600461114e565b61087d565b3480156104ff575f80fd5b506002546003546103299173ffffffffffffffffffffffffffffffffffffffff81169167ffffffffffffffff740100000000000000000000000000000000000000009092048216911683565b348015610556575f80fd5b5061056a610565366004611183565b61099b565b6040805182518152602080840151908201529181015167ffffffffffffffff1690820152606001610153565b3480156105a1575f80fd5b5061027b7f000000000000000000000000000000000000000000000000000000000000000081565b60606105d58383610ad4565b90505b92915050565b5f8060605f6105ed8686610b1e565b90505f6105fa8787610b36565b90505f6106078888610b45565b92989197509195509350505050565b5f8061062184610b54565b90505f61062d86610b7f565b905073ffffffffffffffffffffffffffffffffffffffff81166107475785516040515f917f09b347310000000000000000000000000000000000000000000000000000000091610681918a916024016111a6565b604080517fffffffffffffffffffffffffffffffffffffffffffffffffffffffffffffffe08184030181529190526020810180517bffffffffffffffffffffffffffffffffffffffffffffffffffffffff167fffffffff0000000000000000000000000000000000000000000000000000000090931692909217909152905061070b818487610be2565b6040517f4f95203300000000000000000000000000000000000000000000000000000000815260040161073e9190610f5a565b60405180910390fd5b95945050505050565b5f6105d58383610c3d565b333014610796576040517f5950c85e00000000000000000000000000000000000000000000000000000000815233600482015260240161073e565b341561087a575f73ffffffffffffffffffffffffffffffffffffffff8216156107bf57816107c1565b325b90505f8173ffffffffffffffffffffffffffffffffffffffff16346040515f6040518083038185875af1925050503d805f8114610819576040519150601f19603f3d011682016040523d82523d5f602084013e61081e565b606091505b5050905080610877576040517fc8ee485e00000000000000000000000000000000000000000000000000000000815273ffffffffffffffffffffffffffffffffffffffff8316600482015234602482015260440161073e565b50505b50565b3330146108b8576040517f5950c85e00000000000000000000000000000000000000000000000000000000815233600482015260240161073e565b5f811180156108dc575073ffffffffffffffffffffffffffffffffffffffff821615155b15610997576040517fa9059cbb00000000000000000000000000000000000000000000000000000000815273ffffffffffffffffffffffffffffffffffffffff8381166004830152602482018390527f0000000000000000000000000000000000000000000000000000000000000000169063a9059cbb906044016020604051808303815f875af1158015610973573d5f803e3d5ffd5b505050506040513d601f19601f8201168201806040525081019061087791906111c7565b5050565b6109c660405180606001604052805f81526020015f81526020015f67ffffffffffffffff1681525090565b604080516060810182525f80825260208201819052918101829052908315610a5a57604080516060810182525f5473ffffffffffffffffffffffffffffffffffffffff811680835267ffffffffffffffff7401000000000000000000000000000000000000000090920482166020840181905260015490921693830193909352909350610a539190610c3d565b9050610ac9565b6040805160608101825260025473ffffffffffffffffffffffffffffffffffffffff811680835267ffffffffffffffff7401000000000000000000000000000000000000000090920482166020840181905260035490921693830193909352909350610ac69190610c3d565b90505b610747858284610d51565b6060610ae382604481866111e9565b8080601f0160208091040260200160405190810160405280939291908181526020018383808284375f92019190915250929695505050505050565b5f610b2d602c600c84866111e9565b6105d591611210565b5f610b2d604c602c84866111e9565b6060610ae382604c81866111e9565b5f8173ffffffffffffffffffffffffffffffffffffffff8111610b775792915050565b505f92915050565b80515f907fffffffffffffffffffffffffffffffffffffffffffffffffffffffffffffffec8101610bbd57610bb38361124c565b60601c9392505050565b60208103610b77575f610bcf8461129b565b9050610bda81610b54565b949350505050565b606060405180606001604052808473ffffffffffffffffffffffffffffffffffffffff16815260200183815260200185815250604051602001610c2591906112e0565b60405160208183030381529060405290509392505050565b6040805173ffffffffffffffffffffffffffffffffffffffff8416602082015267ffffffffffffffff8316818301528151808203830181526060918201928390525f9283929161080191610c919190611324565b5f60405180830381855afa9150503d805f8114610cc9576040519150601f19603f3d011682016040523d82523d5f602084013e610cce565b606091505b50909250905081610d33576040517fa91ed72100000000000000000000000000000000000000000000000000000000815273ffffffffffffffffffffffffffffffffffffffff8616600482015267ffffffffffffffff8516602482015260440161073e565b80806020019051810190610d47919061133f565b5195945050505050565b610d7c60405180606001604052805f81526020015f81526020015f67ffffffffffffffff1681525090565b5f8260400151600a610d8e91906114fa565b90505f80828781610da157610da161150f565b069150508086035f610db3848961153c565b90508667ffffffffffffffff168167ffffffffffffffff161115610e54576040805167ffffffffffffffff8084168252891660208201527ff17459c2e89c2b011fa739accb3b853858d0a689d31382b9aa4f56a1ca00f9d3910160405180910390a15f84610e218984611574565b67ffffffffffffffff16610e35919061159c565b8892509050610e4481846115b3565b9250610e5081856115c6565b9350505b60408051606081018252928352602083019390935267ffffffffffffffff169181019190915295945050505050565b5f8060208385031215610e94575f80fd5b823567ffffffffffffffff80821115610eab575f80fd5b818501915085601f830112610ebe575f80fd5b813581811115610ecc575f80fd5b866020828501011115610edd575f80fd5b60209290920196919550909350505050565b5f5b83811015610f09578181015183820152602001610ef1565b50505f910152565b5f8151808452610f28816020860160208601610eef565b601f017fffffffffffffffffffffffffffffffffffffffffffffffffffffffffffffffe0169290920160200192915050565b602081525f6105d56020830184610f11565b838152826020820152606060408201525f6107476060830184610f11565b7f4e487b71000000000000000000000000000000000000000000000000000000005f52604160045260245ffd5b604051601f82017fffffffffffffffffffffffffffffffffffffffffffffffffffffffffffffffe016810167ffffffffffffffff81118282101715610ffe57610ffe610f8a565b604052919050565b5f805f60608486031215611018575f80fd5b833567ffffffffffffffff8082111561102f575f80fd5b818601915086601f830112611042575f80fd5b813560208282111561105657611056610f8a565b611086817fffffffffffffffffffffffffffffffffffffffffffffffffffffffffffffffe0601f85011601610fb7565b9250818352888183860101111561109b575f80fd5b81818501828501375f9183018101919091529097908601359650604090950135949350505050565b803573ffffffffffffffffffffffffffffffffffffffff811681146110e6575f80fd5b919050565b67ffffffffffffffff8116811461087a575f80fd5b5f8060408385031215611111575f80fd5b61111a836110c3565b9150602083013561112a816110eb565b809150509250929050565b5f60208284031215611145575f80fd5b6105d5826110c3565b5f806040838503121561115f575f80fd5b611168836110c3565b946020939093013593505050565b801515811461087a575f80fd5b5f8060408385031215611194575f80fd5b82359150602083013561112a81611176565b604081525f6111b86040830185610f11565b90508260208301529392505050565b5f602082840312156111d7575f80fd5b81516111e281611176565b9392505050565b5f80858511156111f7575f80fd5b83861115611203575f80fd5b5050820193919092039150565b803560208310156105d8577fffffffffffffffffffffffffffffffffffffffffffffffffffffffffffffffff602084900360031b1b1692915050565b5f815160208301517fffffffffffffffffffffffffffffffffffffffff000000000000000000000000808216935060148310156112935780818460140360031b1b83161693505b505050919050565b805160208083015191908110156112da577fffffffffffffffffffffffffffffffffffffffffffffffffffffffffffffffff8160200360031b1b821691505b50919050565b6020815273ffffffffffffffffffffffffffffffffffffffff8251166020820152602082015160408201525f6040830151606080840152610bda6080840182610f11565b5f8251611335818460208701610eef565b9190910192915050565b5f6060828403121561134f575f80fd5b6040516060810181811067ffffffffffffffff8211171561137257611372610f8a565b6040528251611380816110eb565b81526020830151611390816110eb565b602082015260408301516113a3816110eb565b60408201529392505050565b7f4e487b71000000000000000000000000000000000000000000000000000000005f52601160045260245ffd5b600181815b8085111561143557817fffffffffffffffffffffffffffffffffffffffffffffffffffffffffffffffff0482111561141b5761141b6113af565b8085161561142857918102915b93841c93908002906113e1565b509250929050565b5f8261144b575060016105d8565b8161145757505f6105d8565b816001811461146d576002811461147757611493565b60019150506105d8565b60ff841115611488576114886113af565b50506001821b6105d8565b5060208310610133831016604e8410600b84101617156114b6575081810a6105d8565b6114c083836113dc565b807fffffffffffffffffffffffffffffffffffffffffffffffffffffffffffffffff048211156114f2576114f26113af565b029392505050565b5f6105d567ffffffffffffffff84168361143d565b7f4e487b71000000000000000000000000000000000000000000000000000000005f52601260045260245ffd5b5f8261156f577f4e487b71000000000000000000000000000000000000000000000000000000005f52601260045260245ffd5b500490565b67ffffffffffffffff828116828216039080821115611595576115956113af565b5092915050565b80820281158282048414176105d8576105d86113af565b818103818111156105d8576105d86113af565b808201808211156105d8576105d86113af56fea2646970667358221220c4e25a31dbd97ae77cb71013554d63efdb78c17233384f9e6ea5edd2cdccb44964736f6c63430008160033",
    "linkReferences": {}
  },
  "methodIdentifiers": {
    "HLP_PRECOMPILE_READ_SPOT_BALANCE()": "ba872679",
    "HLP_PRECOMPILE_WRITE()": "dd850075",
    "VALID_COMPOSE_MESSAGE_LENGTH_ENCODE()": "9278d99a",
    "VALID_COMPOSE_MESSAGE_LENGTH_PACKED()": "807d6c3f",
    "balanceOfHyperCore(address,uint64)": "81e8dcb4",
    "endpoint()": "5e280f11",
    "getErrorPayload(bytes)": "03be2050",
    "getHypeAsset()": "aae12e46",
    "getOFTAsset()": "2d0e315c",
    "hypeAsset()": "f6e6b240",
    "oft()": "9b5215f6",
    "oftAsset()": "765008a1",
    "quoteHyperCoreAmount(uint256,bool)": "f9716faf",
    "refundERC20(address,uint256)": "ebaeefd6",
    "refundNativeTokens(address)": "8483bc00",
    "token()": "fc0c546a",
    "validate_addresses_or_refund(bytes,bytes32,uint256)": "5241b496",
    "validate_payload(bytes)": "1b224831"
  },
  "id": 1
}