{
  "abi": [
    {
      "type": "constructor",
      "inputs": [
        {
          "name": "_endpoint",
          "type": "address",
          "internalType": "address"
        },
        {
          "name": "_oft",
          "type": "address",
          "internalType": "address"
        }
      ],
      "stateMutability": "nonpayable"
    },
    {
      "type": "function",
      "name": "HLP_PRECOMPILE_READ_SPOT_BALANCE",
      "inputs": [],
      "outputs": [
        {
          "name": "",
          "type": "address",
          "internalType": "address"
        }
      ],
      "stateMutability": "view"
    },
    {
      "type": "function",
      "name": "HLP_PRECOMPILE_WRITE",
      "inputs": [],
      "outputs": [
        {
          "name": "",
          "type": "address",
          "internalType": "address"
        }
      ],
      "stateMutability": "view"
    },
    {
      "type": "function",
      "name": "HYPE_CHAIN_ID_MAINNET",
      "inputs": [],
      "outputs": [
        {
          "name": "",
          "type": "uint256",
          "internalType": "uint256"
        }
      ],
      "stateMutability": "view"
    },
    {
      "type": "function",
      "name": "HYPE_CHAIN_ID_TESTNET",
      "inputs": [],
      "outputs": [
        {
          "name": "",
          "type": "uint256",
          "internalType": "uint256"
        }
      ],
      "stateMutability": "view"
    },
    {
      "type": "function",
      "name": "HYPE_INDEX_MAINNET",
      "inputs": [],
      "outputs": [
        {
          "name": "",
          "type": "uint64",
          "internalType": "uint64"
        }
      ],
      "stateMutability": "view"
    },
    {
      "type": "function",
      "name": "HYPE_INDEX_TESTNET",
      "inputs": [],
      "outputs": [
        {
          "name": "",
          "type": "uint64",
          "internalType": "uint64"
        }
      ],
      "stateMutability": "view"
    },
    {
      "type": "function",
      "name": "SPOT_SEND_HEADER",
      "inputs": [],
      "outputs": [
        {
          "name": "",
          "type": "bytes",
          "internalType": "bytes"
        }
      ],
      "stateMutability": "view"
    },
    {
      "type": "function",
      "name": "balanceOfHyperCore",
      "inputs": [
        {
          "name": "_user",
          "type": "address",
          "internalType": "address"
        },
        {
          "name": "_tokenId",
          "type": "uint64",
          "internalType": "uint64"
        }
      ],
      "outputs": [
        {
          "name": "",
          "type": "uint64",
          "internalType": "uint64"
        }
      ],
      "stateMutability": "view"
    },
    {
      "type": "function",
      "name": "endpoint",
      "inputs": [],
      "outputs": [
        {
          "name": "",
          "type": "address",
          "internalType": "address"
        }
      ],
      "stateMutability": "view"
    },
    {
      "type": "function",
      "name": "getErrorPayload",
      "inputs": [
        {
          "name": "_err",
          "type": "bytes",
          "internalType": "bytes"
        }
      ],
      "outputs": [
        {
          "name": "",
          "type": "bytes",
          "internalType": "bytes"
        }
      ],
      "stateMutability": "pure"
    },
    {
      "type": "function",
      "name": "getHypeAsset",
      "inputs": [],
      "outputs": [
        {
          "name": "",
          "type": "tuple",
          "internalType": "struct IHyperAsset",
          "components": [
            {
              "name": "assetBridgeAddress",
              "type": "address",
              "internalType": "address"
            },
            {
              "name": "coreIndexId",
              "type": "uint64",
              "internalType": "uint64"
            },
            {
              "name": "decimalDiff",
              "type": "int64",
              "internalType": "int64"
            }
          ]
        }
      ],
      "stateMutability": "view"
    },
    {
      "type": "function",
      "name": "getOFTAsset",
      "inputs": [],
      "outputs": [
        {
          "name": "",
          "type": "tuple",
          "internalType": "struct IHyperAsset",
          "components": [
            {
              "name": "assetBridgeAddress",
              "type": "address",
              "internalType": "address"
            },
            {
              "name": "coreIndexId",
              "type": "uint64",
              "internalType": "uint64"
            },
            {
              "name": "decimalDiff",
              "type": "int64",
              "internalType": "int64"
            }
          ]
        }
      ],
      "stateMutability": "view"
    },
    {
      "type": "function",
      "name": "hypeAsset",
      "inputs": [],
      "outputs": [
        {
          "name": "assetBridgeAddress",
          "type": "address",
          "internalType": "address"
        },
        {
          "name": "coreIndexId",
          "type": "uint64",
          "internalType": "uint64"
        },
        {
          "name": "decimalDiff",
          "type": "int64",
          "internalType": "int64"
        }
      ],
      "stateMutability": "view"
    },
    {
      "type": "function",
      "name": "hypeIndexByChainId",
      "inputs": [
        {
          "name": "",
          "type": "uint256",
          "internalType": "uint256"
        }
      ],
      "outputs": [
        {
          "name": "",
          "type": "uint64",
          "internalType": "uint64"
        }
      ],
      "stateMutability": "view"
    },
    {
      "type": "function",
      "name": "oft",
      "inputs": [],
      "outputs": [
        {
          "name": "",
          "type": "address",
          "internalType": "contract IOFT"
        }
      ],
      "stateMutability": "view"
    },
    {
      "type": "function",
      "name": "oftAsset",
      "inputs": [],
      "outputs": [
        {
          "name": "assetBridgeAddress",
          "type": "address",
          "internalType": "address"
        },
        {
          "name": "coreIndexId",
          "type": "uint64",
          "internalType": "uint64"
        },
        {
          "name": "decimalDiff",
          "type": "int64",
          "internalType": "int64"
        }
      ],
      "stateMutability": "view"
    },
    {
      "type": "function",
      "name": "quoteHyperCoreAmount",
      "inputs": [
        {
          "name": "_amount",
          "type": "uint256",
          "internalType": "uint256"
        },
        {
          "name": "_isOFT",
          "type": "bool",
          "internalType": "bool"
        }
      ],
      "outputs": [
        {
          "name": "",
          "type": "tuple",
          "internalType": "struct IHyperAssetAmount",
          "components": [
            {
              "name": "evm",
              "type": "uint256",
              "internalType": "uint256"
            },
            {
              "name": "dust",
              "type": "uint256",
              "internalType": "uint256"
            },
            {
              "name": "core",
              "type": "uint64",
              "internalType": "uint64"
            }
          ]
        }
      ],
      "stateMutability": "view"
    },
    {
      "type": "function",
      "name": "refundERC20",
      "inputs": [
        {
          "name": "_refundAddress",
          "type": "address",
          "internalType": "address"
        },
        {
          "name": "_amount",
          "type": "uint256",
          "internalType": "uint256"
        }
      ],
      "outputs": [],
      "stateMutability": "nonpayable"
    },
    {
      "type": "function",
      "name": "refundNativeTokens",
      "inputs": [
        {
          "name": "_refundAddress",
          "type": "address",
          "internalType": "address"
        }
      ],
      "outputs": [],
      "stateMutability": "payable"
    },
    {
      "type": "function",
      "name": "token",
      "inputs": [],
      "outputs": [
        {
          "name": "",
          "type": "address",
          "internalType": "contract IERC20"
        }
      ],
      "stateMutability": "view"
    },
    {
      "type": "function",
      "name": "validate_addresses_or_refund",
      "inputs": [
        {
          "name": "_maybeReceiver",
          "type": "bytes",
          "internalType": "bytes"
        },
        {
          "name": "_senderBytes32",
          "type": "bytes32",
          "internalType": "bytes32"
        },
        {
          "name": "_amountLD",
          "type": "uint256",
          "internalType": "uint256"
        }
      ],
      "outputs": [
        {
          "name": "",
          "type": "address",
          "internalType": "address"
        }
      ],
      "stateMutability": "pure"
    },
    {
      "type": "function",
      "name": "validate_message",
      "inputs": [
        {
          "name": "_composeMessage",
          "type": "bytes",
          "internalType": "bytes"
        }
      ],
      "outputs": [
        {
          "name": "",
          "type": "uint256",
          "internalType": "uint256"
        },
        {
          "name": "",
          "type": "bytes32",
          "internalType": "bytes32"
        },
        {
          "name": "",
          "type": "bytes",
          "internalType": "bytes"
        }
      ],
      "stateMutability": "pure"
    },
    {
      "type": "event",
      "name": "ErrorERC20_Refund",
      "inputs": [
        {
          "name": "refundTo",
          "type": "address",
          "indexed": false,
          "internalType": "address"
        },
        {
          "name": "refundAmount",
          "type": "uint256",
          "indexed": false,
          "internalType": "uint256"
        }
      ],
      "anonymous": false
    },
    {
      "type": "event",
      "name": "ErrorHYPE_Refund",
      "inputs": [
        {
          "name": "refundTo",
          "type": "address",
          "indexed": false,
          "internalType": "address"
        },
        {
          "name": "refundAmount",
          "type": "uint256",
          "indexed": false,
          "internalType": "uint256"
        }
      ],
      "anonymous": false
    },
    {
      "type": "event",
      "name": "ErrorMessage",
      "inputs": [
        {
          "name": "reason",
          "type": "bytes",
          "indexed": false,
          "internalType": "bytes"
        }
      ],
      "anonymous": false
    },
    {
      "type": "event",
      "name": "ErrorSpot_FailedToSend",
      "inputs": [
        {
          "name": "to",
          "type": "address",
          "indexed": false,
          "internalType": "address"
        },
        {
          "name": "tokenId",
          "type": "uint64",
          "indexed": false,
          "internalType": "uint64"
        },
        {
          "name": "amount",
          "type": "uint256",
          "indexed": false,
          "internalType": "uint256"
        },
        {
          "name": "errorMessage",
          "type": "bytes",
          "indexed": false,
          "internalType": "bytes"
        }
      ],
      "anonymous": false
    },
    {
      "type": "event",
      "name": "ExcessHYPE_Refund",
      "inputs": [
        {
          "name": "refundTo",
          "type": "address",
          "indexed": false,
          "internalType": "address"
        },
        {
          "name": "refundAmount",
          "type": "uint256",
          "indexed": false,
          "internalType": "uint256"
        }
      ],
      "anonymous": false
    },
    {
      "type": "error",
      "name": "ErrorMsg",
      "inputs": [
        {
          "name": "errorMessage",
          "type": "bytes",
          "internalType": "bytes"
        }
      ]
    },
    {
      "type": "error",
      "name": "HyperLiquidComposerCore_SpotBalanceRead_Failed",
      "inputs": [
        {
          "name": "user",
          "type": "address",
          "internalType": "address"
        },
        {
          "name": "tokenId",
          "type": "uint64",
          "internalType": "uint64"
        }
      ]
    },
    {
      "type": "error",
      "name": "HyperLiquidComposer_FailedToRefund_HYPE",
      "inputs": [
        {
          "name": "to",
          "type": "address",
          "internalType": "address"
        },
        {
          "name": "amount",
          "type": "uint256",
          "internalType": "uint256"
        }
      ]
    },
    {
      "type": "error",
      "name": "HyperLiquidComposer_InvalidArgument_EndpointShouldNotBeZeroAddress",
      "inputs": [
        {
          "name": "receivedEndpointAddress",
          "type": "address",
          "internalType": "address"
        }
      ]
    },
    {
      "type": "error",
      "name": "HyperLiquidComposer_InvalidCall_NotComposer",
      "inputs": [
        {
          "name": "notComposerAddress",
          "type": "address",
          "internalType": "address"
        }
      ]
    },
    {
      "type": "error",
      "name": "SafeERC20FailedOperation",
      "inputs": [
        {
          "name": "token",
          "type": "address",
          "internalType": "address"
        }
      ]
    }
  ],
  "bytecode": {
    "object": "0x60e060405234801562000010575f80fd5b5060405162001a4138038062001a4183398101604081905262000033916200017c565b6001600160a01b0382166200006a5760405163fb82c1f160e01b81526001600160a01b038316600482015260240160405180910390fd5b6001600160a01b03808316608052811660a081905260408051637e062a3560e11b8152905163fc0c546a916004808201926020929091908290030181865afa158015620000b9573d5f803e3d5ffd5b505050506040513d601f19601f82011682018060405250810190620000df9190620001b2565b6001600160a01b031660c05250505f60208190527f2802b8ca0a4d9948ac89ce9ba15f4015f0f68c52469c4df23bbaf374f1d4604080546001600160401b0319908116610451179091556103e79091527f332eac5de6beffe8ee7761a0342c75594c3acb5fdde0a2555227e56aa65d414180549091166096179055620001d5565b80516001600160a01b038116811462000177575f80fd5b919050565b5f80604083850312156200018e575f80fd5b620001998362000160565b9150620001a96020840162000160565b90509250929050565b5f60208284031215620001c3575f80fd5b620001ce8262000160565b9392505050565b60805160a05160c05161183a620002075f395f81816106a501526109f401525f6104c201525f610397015261183a5ff3fe60806040526004361061016d575f3560e01c80639180b744116100c6578063d00b1ad51161007c578063f6e6b24011610057578063f6e6b240146105f1578063f9716faf14610649578063fc0c546a14610694575f80fd5b8063d00b1ad514610597578063dd850075146105ab578063ebaeefd6146105d2575f80fd5b8063aae12e46116100ac578063aae12e46146104e4578063ba8726791461056d578063bc963bc714610582575f80fd5b80639180b744146104835780639b5215f6146104b1575f80fd5b80635241b49611610126578063765008a111610101578063765008a1146103b957806381e8dcb41461044f5780638483bc001461046e575f80fd5b80635241b4961461032d5780635b9a2373146103715780635e280f1114610386575f80fd5b806320d9af9a1161015657806320d9af9a146101ee5780632d0e315c146102115780634bd162df146102df575f80fd5b806303be2050146101715780631f8164d9146101a6575b5f80fd5b34801561017c575f80fd5b5061019061018b3660046110d9565b6106c7565b60405161019d91906111b0565b60405180910390f35b3480156101b1575f80fd5b506101906040518060400160405280600281526020017f160000000000000000000000000000000000000000000000000000000000000081525081565b3480156101f9575f80fd5b506102036103e681565b60405190815260200161019d565b34801561021c575f80fd5b5061029a604080516060810182525f8082526020820181905291810191909152506040805160608101825260015473ffffffffffffffffffffffffffffffffffffffff8116825274010000000000000000000000000000000000000000900467ffffffffffffffff16602082015260025460070b9181019190915290565b60408051825173ffffffffffffffffffffffffffffffffffffffff16815260208084015167ffffffffffffffff16908201529181015160070b9082015260600161019d565b3480156102ea575f80fd5b506103146102f93660046111c2565b5f6020819052908152604090205467ffffffffffffffff1681565b60405167ffffffffffffffff909116815260200161019d565b348015610338575f80fd5b5061034c610347366004611255565b6106dc565b60405173ffffffffffffffffffffffffffffffffffffffff909116815260200161019d565b34801561037c575f80fd5b506102036103e781565b348015610391575f80fd5b5061034c7f000000000000000000000000000000000000000000000000000000000000000081565b3480156103c4575f80fd5b506001546002546104119173ffffffffffffffffffffffffffffffffffffffff8116917401000000000000000000000000000000000000000090910467ffffffffffffffff169060070b83565b6040805173ffffffffffffffffffffffffffffffffffffffff909416845267ffffffffffffffff909216602084015260070b9082015260600161019d565b34801561045a575f80fd5b5061031461046936600461134f565b610816565b61048161047c366004611384565b610821565b005b34801561048e575f80fd5b506104a261049d3660046110d9565b61093e565b60405161019d9392919061139d565b3480156104bc575f80fd5b5061034c7f000000000000000000000000000000000000000000000000000000000000000081565b3480156104ef575f80fd5b5061029a604080516060810182525f8082526020820181905291810191909152506040805160608101825260035473ffffffffffffffffffffffffffffffffffffffff8116825274010000000000000000000000000000000000000000900467ffffffffffffffff16602082015260045460070b9181019190915290565b348015610578575f80fd5b5061034c61080181565b34801561058d575f80fd5b5061031461045181565b3480156105a2575f80fd5b50610314609681565b3480156105b6575f80fd5b5061034c73333333333333333333333333333333333333333381565b3480156105dd575f80fd5b506104816105ec3660046113bb565b610976565b3480156105fc575f80fd5b506003546004546104119173ffffffffffffffffffffffffffffffffffffffff8116917401000000000000000000000000000000000000000090910467ffffffffffffffff169060070b83565b348015610654575f80fd5b506106686106633660046113e3565b610a1b565b6040805182518152602080840151908201529181015167ffffffffffffffff169082015260600161019d565b34801561069f575f80fd5b5061034c7f000000000000000000000000000000000000000000000000000000000000000081565b60606106d38383610b51565b90505b92915050565b5f806106e784610b9b565b90505f6106f386610bc6565b905073ffffffffffffffffffffffffffffffffffffffff811661080d5785516040515f917f09b347310000000000000000000000000000000000000000000000000000000091610747918a9160240161140a565b604080517fffffffffffffffffffffffffffffffffffffffffffffffffffffffffffffffe08184030181529190526020810180517bffffffffffffffffffffffffffffffffffffffffffffffffffffffff167fffffffff000000000000000000000000000000000000000000000000000000009093169290921790915290506107d1818487610c29565b6040517f4f95203300000000000000000000000000000000000000000000000000000000815260040161080491906111b0565b60405180910390fd5b95945050505050565b5f6106d38383610c84565b33301461085c576040517f5950c85e000000000000000000000000000000000000000000000000000000008152336004820152602401610804565b5f34118015610880575073ffffffffffffffffffffffffffffffffffffffff811615155b1561093b575f8173ffffffffffffffffffffffffffffffffffffffff16346040515f6040518083038185875af1925050503d805f81146108db576040519150601f19603f3d011682016040523d82523d5f602084013e6108e0565b606091505b5050905080610939576040517fc8ee485e00000000000000000000000000000000000000000000000000000000815273ffffffffffffffffffffffffffffffffffffffff83166004820152346024820152604401610804565b505b50565b5f8060605f61094d8686610d98565b90505f61095a8787610db0565b90505f6109678888610dbf565b92989197509195509350505050565b3330146109b1576040517f5950c85e000000000000000000000000000000000000000000000000000000008152336004820152602401610804565b5f811180156109d5575073ffffffffffffffffffffffffffffffffffffffff821615155b156109395761093973ffffffffffffffffffffffffffffffffffffffff7f0000000000000000000000000000000000000000000000000000000000000000168383610dce565b610a4660405180606001604052805f81526020015f81526020015f67ffffffffffffffff1681525090565b604080516060810182525f80825260208201819052918101829052908315610ad9576040805160608101825260015473ffffffffffffffffffffffffffffffffffffffff81168083527401000000000000000000000000000000000000000090910467ffffffffffffffff166020830181905260025460070b93830193909352909350610ad291610c84565b9050610b46565b6040805160608101825260035473ffffffffffffffffffffffffffffffffffffffff81168083527401000000000000000000000000000000000000000090910467ffffffffffffffff166020830181905260045460070b93830193909352909350610b4391610c84565b90505b61080d858284610e60565b6060610b60826044818661142b565b8080601f0160208091040260200160405190810160405280939291908181526020018383808284375f92019190915250929695505050505050565b5f8173ffffffffffffffffffffffffffffffffffffffff8111610bbe5792915050565b505f92915050565b80515f907fffffffffffffffffffffffffffffffffffffffffffffffffffffffffffffffec8101610c0457610bfa83611452565b60601c9392505050565b60208103610bbe575f610c16846114a1565b9050610c2181610b9b565b949350505050565b606060405180606001604052808473ffffffffffffffffffffffffffffffffffffffff16815260200183815260200185815250604051602001610c6c91906114e3565b60405160208183030381529060405290509392505050565b6040805173ffffffffffffffffffffffffffffffffffffffff8416602082015267ffffffffffffffff8316818301528151808203830181526060918201928390525f9283929161080191610cd89190611527565b5f60405180830381855afa9150503d805f8114610d10576040519150601f19603f3d011682016040523d82523d5f602084013e610d15565b606091505b50909250905081610d7a576040517fa91ed72100000000000000000000000000000000000000000000000000000000815273ffffffffffffffffffffffffffffffffffffffff8616600482015267ffffffffffffffff85166024820152604401610804565b80806020019051810190610d8e9190611542565b5195945050505050565b5f610da7602c600c848661142b565b6106d3916115b2565b5f610da7604c602c848661142b565b6060610b6082604c818661142b565b6040805173ffffffffffffffffffffffffffffffffffffffff8416602482015260448082018490528251808303909101815260649091019091526020810180517bffffffffffffffffffffffffffffffffffffffffffffffffffffffff167fa9059cbb00000000000000000000000000000000000000000000000000000000179052610e5b908490610f3b565b505050565b610e8b60405180606001604052805f81526020015f81526020015f67ffffffffffffffff1681525090565b5f805f80610ea18767ffffffffffffffff610fe0565b90505f866040015160070b1315610ecd57610ec188828860400151611008565b91955093509150610f0f565b610f07888288604001517fffffffffffffffffffffffffffffffffffffffffffffffffffffffffffffffff610f02919061161b565b611081565b919550935091505b5060408051606081018252938452602084019290925267ffffffffffffffff1690820152949350505050565b5f8060205f8451602086015f885af180610f5a576040513d5f823e3d81fd5b50505f513d91508115610f71578060011415610f8b565b73ffffffffffffffffffffffffffffffffffffffff84163b155b15610fda576040517f5274afe700000000000000000000000000000000000000000000000000000000815273ffffffffffffffffffffffffffffffffffffffff85166004820152602401610804565b50505050565b5f8167ffffffffffffffff168367ffffffffffffffff161161100257826106d3565b50919050565b5f80808061101785600a61175f565b90505f61102e8267ffffffffffffffff8916611774565b905061103a82896117b8565b935061104684896117cb565b975061105288826110cb565b945061105e85896117cb565b61106890856117de565b935061107482866117f1565b9250505093509350939050565b5f80808061109085600a61175f565b90505f6110a78267ffffffffffffffff89166117f1565b90506110b388826110cb565b94506110bf85896117cb565b93506110748286611774565b5f81831161100257826106d3565b5f80602083850312156110ea575f80fd5b823567ffffffffffffffff80821115611101575f80fd5b818501915085601f830112611114575f80fd5b813581811115611122575f80fd5b866020828501011115611133575f80fd5b60209290920196919550909350505050565b5f5b8381101561115f578181015183820152602001611147565b50505f910152565b5f815180845261117e816020860160208601611145565b601f017fffffffffffffffffffffffffffffffffffffffffffffffffffffffffffffffe0169290920160200192915050565b602081525f6106d36020830184611167565b5f602082840312156111d2575f80fd5b5035919050565b7f4e487b71000000000000000000000000000000000000000000000000000000005f52604160045260245ffd5b604051601f82017fffffffffffffffffffffffffffffffffffffffffffffffffffffffffffffffe016810167ffffffffffffffff8111828210171561124d5761124d6111d9565b604052919050565b5f805f60608486031215611267575f80fd5b833567ffffffffffffffff8082111561127e575f80fd5b818601915086601f830112611291575f80fd5b81356020828211156112a5576112a56111d9565b6112d5817fffffffffffffffffffffffffffffffffffffffffffffffffffffffffffffffe0601f85011601611206565b925081835288818386010111156112ea575f80fd5b81818501828501375f9183018101919091529097908601359650604090950135949350505050565b803573ffffffffffffffffffffffffffffffffffffffff81168114611335575f80fd5b919050565b67ffffffffffffffff8116811461093b575f80fd5b5f8060408385031215611360575f80fd5b61136983611312565b915060208301356113798161133a565b809150509250929050565b5f60208284031215611394575f80fd5b6106d382611312565b838152826020820152606060408201525f61080d6060830184611167565b5f80604083850312156113cc575f80fd5b6113d583611312565b946020939093013593505050565b5f80604083850312156113f4575f80fd5b8235915060208301358015158114611379575f80fd5b604081525f61141c6040830185611167565b90508260208301529392505050565b5f8085851115611439575f80fd5b83861115611445575f80fd5b5050820193919092039150565b5f815160208301517fffffffffffffffffffffffffffffffffffffffff000000000000000000000000808216935060148310156114995780818460140360031b1b83161693505b505050919050565b80516020808301519190811015611002577fffffffffffffffffffffffffffffffffffffffffffffffffffffffffffffffff60209190910360031b1b16919050565b6020815273ffffffffffffffffffffffffffffffffffffffff8251166020820152602082015160408201525f6040830151606080840152610c216080840182611167565b5f8251611538818460208701611145565b9190910192915050565b5f60608284031215611552575f80fd5b6040516060810181811067ffffffffffffffff82111715611575576115756111d9565b60405282516115838161133a565b815260208301516115938161133a565b602082015260408301516115a68161133a565b60408201529392505050565b803560208310156106d6577fffffffffffffffffffffffffffffffffffffffffffffffffffffffffffffffff602084900360031b1b1692915050565b7f4e487b71000000000000000000000000000000000000000000000000000000005f52601160045260245ffd5b5f8260070b8260070b028060070b915080821461163a5761163a6115ee565b5092915050565b600181815b8085111561169a57817fffffffffffffffffffffffffffffffffffffffffffffffffffffffffffffffff04821115611680576116806115ee565b8085161561168d57918102915b93841c9390800290611646565b509250929050565b5f826116b0575060016106d6565b816116bc57505f6106d6565b81600181146116d257600281146116dc576116f8565b60019150506106d6565b60ff8411156116ed576116ed6115ee565b50506001821b6106d6565b5060208310610133831016604e8410600b841016171561171b575081810a6106d6565b6117258383611641565b807fffffffffffffffffffffffffffffffffffffffffffffffffffffffffffffffff04821115611757576117576115ee565b029392505050565b5f6106d367ffffffffffffffff8416836116a2565b80820281158282048414176106d6576106d66115ee565b7f4e487b71000000000000000000000000000000000000000000000000000000005f52601260045260245ffd5b5f826117c6576117c661178b565b500690565b818103818111156106d6576106d66115ee565b808201808211156106d6576106d66115ee565b5f826117ff576117ff61178b565b50049056fea264697066735822122069d76c097e0bdb533cdc45f2a866bff4a170ea16baf2f1f7bc4ae8962c94edea64736f6c63430008160033",
    "linkReferences": {}
  },
  "methodIdentifiers": {
    "HLP_PRECOMPILE_READ_SPOT_BALANCE()": "ba872679",
    "HLP_PRECOMPILE_WRITE()": "dd850075",
    "HYPE_CHAIN_ID_MAINNET()": "5b9a2373",
    "HYPE_CHAIN_ID_TESTNET()": "20d9af9a",
    "HYPE_INDEX_MAINNET()": "d00b1ad5",
    "HYPE_INDEX_TESTNET()": "bc963bc7",
    "SPOT_SEND_HEADER()": "1f8164d9",
    "balanceOfHyperCore(address,uint64)": "81e8dcb4",
    "endpoint()": "5e280f11",
    "getErrorPayload(bytes)": "03be2050",
    "getHypeAsset()": "aae12e46",
    "getOFTAsset()": "2d0e315c",
    "hypeAsset()": "f6e6b240",
    "hypeIndexByChainId(uint256)": "4bd162df",
    "oft()": "9b5215f6",
    "oftAsset()": "765008a1",
    "quoteHyperCoreAmount(uint256,bool)": "f9716faf",
    "refundERC20(address,uint256)": "ebaeefd6",
    "refundNativeTokens(address)": "8483bc00",
    "token()": "fc0c546a",
    "validate_addresses_or_refund(bytes,bytes32,uint256)": "5241b496",
    "validate_message(bytes)": "9180b744"
  },
  "id": 1
}