{
  "abi": [
    {
      "type": "constructor",
      "inputs": [
        {
          "name": "_oft",
          "type": "address",
          "internalType": "address"
        }
      ],
      "stateMutability": "nonpayable"
    },
    {
      "type": "function",
      "name": "CORE_WRITER_VERSION",
      "inputs": [],
      "outputs": [
        {
          "name": "",
          "type": "bytes1",
          "internalType": "bytes1"
        }
      ],
      "stateMutability": "view"
    },
    {
      "type": "function",
      "name": "ENDPOINT",
      "inputs": [],
      "outputs": [
        {
          "name": "",
          "type": "address",
          "internalType": "address"
        }
      ],
      "stateMutability": "view"
    },
    {
      "type": "function",
      "name": "MIN_GAS",
      "inputs": [],
      "outputs": [
        {
          "name": "",
          "type": "uint256",
          "internalType": "uint256"
        }
      ],
      "stateMutability": "view"
    },
    {
      "type": "function",
      "name": "NATIVE_TRANSFER_GAS",
      "inputs": [],
      "outputs": [
        {
          "name": "",
          "type": "uint256",
          "internalType": "uint256"
        }
      ],
      "stateMutability": "view"
    },
    {
      "type": "function",
      "name": "OFT",
      "inputs": [],
      "outputs": [
        {
          "name": "",
          "type": "address",
          "internalType": "address"
        }
      ],
      "stateMutability": "view"
    },
    {
      "type": "function",
      "name": "REFUND_ADDRESS",
      "inputs": [],
      "outputs": [
        {
          "name": "",
          "type": "address",
          "internalType": "address"
        }
      ],
      "stateMutability": "view"
    },
    {
      "type": "function",
      "name": "SPOT_SEND_ACTION_ID",
      "inputs": [],
      "outputs": [
        {
          "name": "",
          "type": "bytes3",
          "internalType": "bytes3"
        }
      ],
      "stateMutability": "view"
    },
    {
      "type": "function",
      "name": "SPOT_SEND_HEADER",
      "inputs": [],
      "outputs": [
        {
          "name": "",
          "type": "bytes4",
          "internalType": "bytes4"
        }
      ],
      "stateMutability": "view"
    },
    {
      "type": "function",
      "name": "TOKEN",
      "inputs": [],
      "outputs": [
        {
          "name": "",
          "type": "address",
          "internalType": "address"
        }
      ],
      "stateMutability": "view"
    },
    {
      "type": "function",
      "name": "VALID_COMPOSE_MSG_LEN",
      "inputs": [],
      "outputs": [
        {
          "name": "",
          "type": "uint256",
          "internalType": "uint256"
        }
      ],
      "stateMutability": "view"
    },
    {
      "type": "function",
      "name": "balanceOfHyperCore",
      "inputs": [
        {
          "name": "_user",
          "type": "address",
          "internalType": "address"
        },
        {
          "name": "_tokenId",
          "type": "uint64",
          "internalType": "uint64"
        }
      ],
      "outputs": [
        {
          "name": "",
          "type": "uint64",
          "internalType": "uint64"
        }
      ],
      "stateMutability": "view"
    },
    {
      "type": "function",
      "name": "failedMessages",
      "inputs": [
        {
          "name": "",
          "type": "bytes32",
          "internalType": "bytes32"
        }
      ],
      "outputs": [
        {
          "name": "refundSendParam",
          "type": "tuple",
          "internalType": "struct SendParam",
          "components": [
            {
              "name": "dstEid",
              "type": "uint32",
              "internalType": "uint32"
            },
            {
              "name": "to",
              "type": "bytes32",
              "internalType": "bytes32"
            },
            {
              "name": "amountLD",
              "type": "uint256",
              "internalType": "uint256"
            },
            {
              "name": "minAmountLD",
              "type": "uint256",
              "internalType": "uint256"
            },
            {
              "name": "extraOptions",
              "type": "bytes",
              "internalType": "bytes"
            },
            {
              "name": "composeMsg",
              "type": "bytes",
              "internalType": "bytes"
            },
            {
              "name": "oftCmd",
              "type": "bytes",
              "internalType": "bytes"
            }
          ]
        },
        {
          "name": "msgValue",
          "type": "uint256",
          "internalType": "uint256"
        }
      ],
      "stateMutability": "view"
    },
    {
      "type": "function",
      "name": "hypeAsset",
      "inputs": [],
      "outputs": [
        {
          "name": "coreIndexId",
          "type": "uint64",
          "internalType": "uint64"
        },
        {
          "name": "decimalDiff",
          "type": "int64",
          "internalType": "int64"
        },
        {
          "name": "assetBridgeAddress",
          "type": "address",
          "internalType": "address"
        }
      ],
      "stateMutability": "view"
    },
    {
      "type": "function",
      "name": "hypeIndexByChainId",
      "inputs": [
        {
          "name": "",
          "type": "uint256",
          "internalType": "uint256"
        }
      ],
      "outputs": [
        {
          "name": "",
          "type": "uint64",
          "internalType": "uint64"
        }
      ],
      "stateMutability": "view"
    },
    {
      "type": "function",
      "name": "oftAsset",
      "inputs": [],
      "outputs": [
        {
          "name": "coreIndexId",
          "type": "uint64",
          "internalType": "uint64"
        },
        {
          "name": "decimalDiff",
          "type": "int64",
          "internalType": "int64"
        },
        {
          "name": "assetBridgeAddress",
          "type": "address",
          "internalType": "address"
        }
      ],
      "stateMutability": "view"
    },
    {
      "type": "function",
      "name": "quoteHyperCoreAmount",
      "inputs": [
        {
          "name": "_amount",
          "type": "uint256",
          "internalType": "uint256"
        },
        {
          "name": "_isOFT",
          "type": "bool",
          "internalType": "bool"
        }
      ],
      "outputs": [
        {
          "name": "",
          "type": "tuple",
          "internalType": "struct IHyperAssetAmount",
          "components": [
            {
              "name": "evm",
              "type": "uint256",
              "internalType": "uint256"
            },
            {
              "name": "dust",
              "type": "uint256",
              "internalType": "uint256"
            },
            {
              "name": "core",
              "type": "uint64",
              "internalType": "uint64"
            }
          ]
        }
      ],
      "stateMutability": "view"
    },
    {
      "type": "function",
      "name": "refundToSrc",
      "inputs": [
        {
          "name": "_guid",
          "type": "bytes32",
          "internalType": "bytes32"
        }
      ],
      "outputs": [],
      "stateMutability": "payable"
    },
    {
      "type": "event",
      "name": "CompleteRefund",
      "inputs": [],
      "anonymous": false
    },
    {
      "type": "event",
      "name": "FailedMessageDecode",
      "inputs": [
        {
          "name": "guid",
          "type": "bytes32",
          "indexed": true,
          "internalType": "bytes32"
        },
        {
          "name": "sender",
          "type": "bytes32",
          "indexed": false,
          "internalType": "bytes32"
        },
        {
          "name": "msgValue",
          "type": "uint256",
          "indexed": false,
          "internalType": "uint256"
        },
        {
          "name": "composeMessage",
          "type": "bytes",
          "indexed": false,
          "internalType": "bytes"
        }
      ],
      "anonymous": false
    },
    {
      "type": "event",
      "name": "RefundHyperEVM",
      "inputs": [
        {
          "name": "receiver",
          "type": "address",
          "indexed": true,
          "internalType": "address"
        },
        {
          "name": "amountERC20",
          "type": "uint256",
          "indexed": true,
          "internalType": "uint256"
        },
        {
          "name": "amountHYPE",
          "type": "uint256",
          "indexed": true,
          "internalType": "uint256"
        }
      ],
      "anonymous": false
    },
    {
      "type": "event",
      "name": "RefundSuccessful",
      "inputs": [
        {
          "name": "guid",
          "type": "bytes32",
          "indexed": true,
          "internalType": "bytes32"
        }
      ],
      "anonymous": false
    },
    {
      "type": "error",
      "name": "ComposeMsgLengthNot64Bytes",
      "inputs": [
        {
          "name": "length",
          "type": "uint256",
          "internalType": "uint256"
        }
      ]
    },
    {
      "type": "error",
      "name": "FailedMessageNotFound",
      "inputs": [
        {
          "name": "guid",
          "type": "bytes32",
          "internalType": "bytes32"
        }
      ]
    },
    {
      "type": "error",
      "name": "InsufficientGas",
      "inputs": [
        {
          "name": "gasLeft",
          "type": "uint256",
          "internalType": "uint256"
        },
        {
          "name": "minGas",
          "type": "uint256",
          "internalType": "uint256"
        }
      ]
    },
    {
      "type": "error",
      "name": "InsufficientMsgValue",
      "inputs": [
        {
          "name": "msgValue",
          "type": "uint256",
          "internalType": "uint256"
        },
        {
          "name": "requiredValue",
          "type": "uint256",
          "internalType": "uint256"
        }
      ]
    },
    {
      "type": "error",
      "name": "InvalidComposeCaller",
      "inputs": [
        {
          "name": "internalOFTAddress",
          "type": "address",
          "internalType": "address"
        },
        {
          "name": "receivedOFTAddress",
          "type": "address",
          "internalType": "address"
        }
      ]
    },
    {
      "type": "error",
      "name": "InvalidOFTAddress",
      "inputs": []
    },
    {
      "type": "error",
      "name": "NativeTransferFailed",
      "inputs": [
        {
          "name": "receiver",
          "type": "address",
          "internalType": "address"
        },
        {
          "name": "amount",
          "type": "uint256",
          "internalType": "uint256"
        }
      ]
    },
    {
      "type": "error",
      "name": "OnlyEndpoint",
      "inputs": []
    },
    {
      "type": "error",
      "name": "OnlySelf",
      "inputs": [
        {
          "name": "caller",
          "type": "address",
          "internalType": "address"
        }
      ]
    },
    {
      "type": "error",
      "name": "SpotBalanceReadFailed",
      "inputs": [
        {
          "name": "user",
          "type": "address",
          "internalType": "address"
        },
        {
          "name": "tokenId",
          "type": "uint64",
          "internalType": "uint64"
        }
      ]
    },
    {
      "type": "error",
      "name": "UnsupportedChainId",
      "inputs": [
        {
          "name": "chainId",
          "type": "uint256",
          "internalType": "uint256"
        }
      ]
    }
  ],
  "bytecode": {
    "object": "0x61010060405234801562000011575f80fd5b506040516200182738038062001827833981016040819052620000349162000279565b5f60208190527f2802b8ca0a4d9948ac89ce9ba15f4015f0f68c52469c4df23bbaf374f1d4604080546001600160401b0319908116610451179091556103e79091527f332eac5de6beffe8ee7761a0342c75594c3acb5fdde0a2555227e56aa65d4141805490911660961790556001600160a01b038116620000c95760405163c23419a560e01b815260040160405180910390fd5b806001600160a01b0316635e280f116040518163ffffffff1660e01b8152600401602060405180830381865afa15801562000106573d5f803e3d5ffd5b505050506040513d601f19601f820116820180604052508101906200012c919062000279565b6001600160a01b03908116608052811660a081905260408051637e062a3560e11b8152905163fc0c546a916004808201926020929091908290030181865afa1580156200017b573d5f803e3d5ffd5b505050506040513d601f19601f82011682018060405250810190620001a1919062000279565b6001600160a01b031660c052465f908152602081905260408120546001600160401b031690819003620001ed576040516352ed5aff60e11b815246600482015260240160405180910390fd5b604080516060810182526001600160401b0392909216808352600a602084015273222222222222222222222222222222222222222292909101829052600480546001600160801b031916909117680a0000000000000000179055600580546001600160a01b0319169091179055506200029e565b6001600160a01b038116811462000276575f80fd5b50565b5f602082840312156200028a575f80fd5b8151620002978162000261565b9392505050565b60805160a05160c05160e051611547620002e05f395f818161049201526108b901525f61041e01525f81816101bd015261088a01525f61034101526115475ff3fe608060405260043610610109575f3560e01c80636fad06f5116100a1578063a4e7f8bd11610071578063f1ae0e9b11610057578063f1ae0e9b14610481578063f6e6b240146104b4578063f9716faf14610500575f80fd5b8063a4e7f8bd14610440578063cebb51201461046d575f80fd5b80636fad06f514610330578063765008a11461036357806381e8dcb4146103ee57806382bfefc81461040d575f80fd5b80631f8164d9116100dc5780631f8164d91461020457806320d2c9511461026857806322dbe29c1461027e5780634bd162df146102e2575f80fd5b80630d1995e01461010d578063104544dd1461017457806319180904146101975780631ed0993d146101ac575b5f80fd5b348015610118575f80fd5b5061013e7d06000000000000000000000000000000000000000000000000000000000081565b6040517fffffff000000000000000000000000000000000000000000000000000000000090911681526020015b60405180910390f35b34801561017f575f80fd5b506101896108fc81565b60405190815260200161016b565b6101aa6101a5366004610f29565b61054b565b005b3480156101b7575f80fd5b506101df7f000000000000000000000000000000000000000000000000000000000000000081565b60405173ffffffffffffffffffffffffffffffffffffffff909116815260200161016b565b34801561020f575f80fd5b506102377f010000060000000000000000000000000000000000000000000000000000000081565b6040517fffffffff00000000000000000000000000000000000000000000000000000000909116815260200161016b565b348015610273575f80fd5b50610189620249f081565b348015610289575f80fd5b506102b17f010000000000000000000000000000000000000000000000000000000000000081565b6040517fff00000000000000000000000000000000000000000000000000000000000000909116815260200161016b565b3480156102ed575f80fd5b506103176102fc366004610f29565b5f6020819052908152604090205467ffffffffffffffff1681565b60405167ffffffffffffffff909116815260200161016b565b34801561033b575f80fd5b506101df7f000000000000000000000000000000000000000000000000000000000000000081565b34801561036e575f80fd5b506002546003546103af9167ffffffffffffffff8116916801000000000000000090910460070b9073ffffffffffffffffffffffffffffffffffffffff1683565b6040805167ffffffffffffffff909416845260079290920b602084015273ffffffffffffffffffffffffffffffffffffffff169082015260600161016b565b3480156103f9575f80fd5b50610317610408366004610f55565b610953565b348015610418575f80fd5b506101df7f000000000000000000000000000000000000000000000000000000000000000081565b34801561044b575f80fd5b5061045f61045a366004610f29565b610967565b60405161016b929190611084565b348015610478575f80fd5b50610189604081565b34801561048c575f80fd5b506101df7f000000000000000000000000000000000000000000000000000000000000000081565b3480156104bf575f80fd5b506004546005546103af9167ffffffffffffffff8116916801000000000000000090910460070b9073ffffffffffffffffffffffffffffffffffffffff1683565b34801561050b575f80fd5b5061051f61051a3660046110a5565b610b6b565b6040805182518152602080840151908201529181015167ffffffffffffffff169082015260600161016b565b5f818152600160208190526040808320815161012081018352815463ffffffff1692810192835292810154606084015260028101546080840152600381015460a0840152600481018054919284929091849160c0850191906105ac906110cc565b80601f01602080910402602001604051908101604052809291908181526020018280546105d8906110cc565b80156106235780601f106105fa57610100808354040283529160200191610623565b820191905f5260205f20905b81548152906001019060200180831161060657829003601f168201915b5050505050815260200160058201805461063c906110cc565b80601f0160208091040260200160405190810160405280929190818152602001828054610668906110cc565b80156106b35780601f1061068a576101008083540402835291602001916106b3565b820191905f5260205f20905b81548152906001019060200180831161069657829003601f168201915b505050505081526020016006820180546106cc906110cc565b80601f01602080910402602001604051908101604052809291908181526020018280546106f8906110cc565b80156107435780601f1061071a57610100808354040283529160200191610743565b820191905f5260205f20905b81548152906001019060200180831161072657829003601f168201915b5050509190925250505081526007919091015460209091015280515190915063ffffffff165f036107a8576040517f0b948634000000000000000000000000000000000000000000000000000000008152600481018390526024015b60405180910390fd5b5f828152600160208190526040822080547fffffffffffffffffffffffffffffffffffffffffffffffffffffffff0000000016815590810182905560028101829055600381018290559081816108016004830182610ed7565b61080e600583015f610ed7565b61081b600683015f610ed7565b5050600782015f905550505f348260200151610837919061114a565b82516040805180820182528381525f602082015290517fc7c7f5b300000000000000000000000000000000000000000000000000000000815292935073ffffffffffffffffffffffffffffffffffffffff7f0000000000000000000000000000000000000000000000000000000000000000169263c7c7f5b39285926108e1927f00000000000000000000000000000000000000000000000000000000000000009060040161115d565b60c06040518083038185885af11580156108fd573d5f803e3d5ffd5b50505050506040513d601f19601f820116820180604052508101906109229190611266565b505060405183907fd41d02272333251e6367f747c63d5cc227dcac6b0c799067569e80a30f9da369905f90a2505050565b5f61095e8383610c1b565b90505b92915050565b600160208181525f928352604092839020835160e081018552815463ffffffff168152928101549183019190915260028101549282019290925260038201546060820152600482018054839160808401916109c1906110cc565b80601f01602080910402602001604051908101604052809291908181526020018280546109ed906110cc565b8015610a385780601f10610a0f57610100808354040283529160200191610a38565b820191905f5260205f20905b815481529060010190602001808311610a1b57829003601f168201915b50505050508152602001600582018054610a51906110cc565b80601f0160208091040260200160405190810160405280929190818152602001828054610a7d906110cc565b8015610ac85780601f10610a9f57610100808354040283529160200191610ac8565b820191905f5260205f20905b815481529060010190602001808311610aab57829003601f168201915b50505050508152602001600682018054610ae1906110cc565b80601f0160208091040260200160405190810160405280929190818152602001828054610b0d906110cc565b8015610b585780601f10610b2f57610100808354040283529160200191610b58565b820191905f5260205f20905b815481529060010190602001808311610b3b57829003601f168201915b5050509190925250505060079091015482565b610b9660405180606001604052805f81526020015f81526020015f67ffffffffffffffff1681525090565b5f82610ba3576004610ba6565b60025b60408051606081018252825467ffffffffffffffff81168083526801000000000000000090910460070b602083015260019093015473ffffffffffffffffffffffffffffffffffffffff1691810182905292505f91610c059190610c1b565b9050610c12858284610d2f565b95945050505050565b6040805173ffffffffffffffffffffffffffffffffffffffff8416602082015267ffffffffffffffff8316818301528151808203830181526060918201928390525f9283929161080191610c6f91906112cf565b5f60405180830381855afa9150503d805f8114610ca7576040519150601f19603f3d011682016040523d82523d5f602084013e610cac565b606091505b50909250905081610d11576040517f89f18a3200000000000000000000000000000000000000000000000000000000815273ffffffffffffffffffffffffffffffffffffffff8616600482015267ffffffffffffffff8516602482015260440161079f565b80806020019051810190610d2591906112ea565b5195945050505050565b610d5a60405180606001604052805f81526020015f81526020015f67ffffffffffffffff1681525090565b5f80808067ffffffffffffffff87117fffffffffffffffffffffffffffffffffffffffffffffffff0000000000000001880102870390505f866020015160070b1315610dbb57610daf88828860200151610e29565b91955093509150610dfd565b610df5888288602001517fffffffffffffffffffffffffffffffffffffffffffffffffffffffffffffffff610df0919061133c565b610e8e565b919550935091505b5060408051606081018252938452602084019290925267ffffffffffffffff1690820152949350505050565b5f808080610e3885600a611480565b90505f610e4f8267ffffffffffffffff8916611495565b9050610e5b82896114d9565b9788900397818903828a110289039550858903019350818581610e8057610e806114ac565b049250505093509350939050565b5f808080610e9d85600a611480565b90505f818767ffffffffffffffff1681610eb957610eb96114ac565b04808903908911028803989789900397918902965090945050505050565b508054610ee3906110cc565b5f825580601f10610ef2575050565b601f0160209004905f5260205f2090810190610f0e9190610f11565b50565b5b80821115610f25575f8155600101610f12565b5090565b5f60208284031215610f39575f80fd5b5035919050565b67ffffffffffffffff81168114610f0e575f80fd5b5f8060408385031215610f66575f80fd5b823573ffffffffffffffffffffffffffffffffffffffff81168114610f89575f80fd5b91506020830135610f9981610f40565b809150509250929050565b5f5b83811015610fbe578181015183820152602001610fa6565b50505f910152565b5f8151808452610fdd816020860160208601610fa4565b601f017fffffffffffffffffffffffffffffffffffffffffffffffffffffffffffffffe0169290920160200192915050565b63ffffffff81511682526020810151602083015260408101516040830152606081015160608301525f608082015160e0608085015261105160e0850182610fc6565b905060a083015184820360a086015261106a8282610fc6565b91505060c083015184820360c0860152610c128282610fc6565b604081525f611096604083018561100f565b90508260208301529392505050565b5f80604083850312156110b6575f80fd5b8235915060208301358015158114610f99575f80fd5b600181811c908216806110e057607f821691505b602082108103611117577f4e487b71000000000000000000000000000000000000000000000000000000005f52602260045260245ffd5b50919050565b7f4e487b71000000000000000000000000000000000000000000000000000000005f52601160045260245ffd5b808201808211156109615761096161111d565b608081525f61116f608083018661100f565b9050835160208301526020840151604083015273ffffffffffffffffffffffffffffffffffffffff83166060830152949350505050565b6040516060810167ffffffffffffffff811182821017156111ee577f4e487b71000000000000000000000000000000000000000000000000000000005f52604160045260245ffd5b60405290565b5f60408284031215611204575f80fd5b6040516040810181811067ffffffffffffffff8211171561124c577f4e487b71000000000000000000000000000000000000000000000000000000005f52604160045260245ffd5b604052825181526020928301519281019290925250919050565b5f8082840360c0811215611278575f80fd5b6080811215611285575f80fd5b5061128e6111a6565b8351815260208401516112a081610f40565b60208201526112b285604086016111f4565b604082015291506112c684608085016111f4565b90509250929050565b5f82516112e0818460208701610fa4565b9190910192915050565b5f606082840312156112fa575f80fd5b6113026111a6565b825161130d81610f40565b8152602083015161131d81610f40565b6020820152604083015161133081610f40565b60408201529392505050565b5f8260070b8260070b028060070b915080821461135b5761135b61111d565b5092915050565b600181815b808511156113bb57817fffffffffffffffffffffffffffffffffffffffffffffffffffffffffffffffff048211156113a1576113a161111d565b808516156113ae57918102915b93841c9390800290611367565b509250929050565b5f826113d157506001610961565b816113dd57505f610961565b81600181146113f357600281146113fd57611419565b6001915050610961565b60ff84111561140e5761140e61111d565b50506001821b610961565b5060208310610133831016604e8410600b841016171561143c575081810a610961565b6114468383611362565b807fffffffffffffffffffffffffffffffffffffffffffffffffffffffffffffffff048211156114785761147861111d565b029392505050565b5f61095e67ffffffffffffffff8416836113c3565b80820281158282048414176109615761096161111d565b7f4e487b71000000000000000000000000000000000000000000000000000000005f52601260045260245ffd5b5f8261150c577f4e487b71000000000000000000000000000000000000000000000000000000005f52601260045260245ffd5b50069056fea26469706673582212200c2ffed242b40ff739ae798cd5909045f2c4325a87d29a88c91da2743ae0f6ba64736f6c63430008160033",
    "linkReferences": {}
  },
  "methodIdentifiers": {
    "CORE_WRITER_VERSION()": "22dbe29c",
    "ENDPOINT()": "6fad06f5",
    "MIN_GAS()": "20d2c951",
    "NATIVE_TRANSFER_GAS()": "104544dd",
    "OFT()": "1ed0993d",
    "REFUND_ADDRESS()": "f1ae0e9b",
    "SPOT_SEND_ACTION_ID()": "0d1995e0",
    "SPOT_SEND_HEADER()": "1f8164d9",
    "TOKEN()": "82bfefc8",
    "VALID_COMPOSE_MSG_LEN()": "cebb5120",
    "balanceOfHyperCore(address,uint64)": "81e8dcb4",
    "failedMessages(bytes32)": "a4e7f8bd",
    "hypeAsset()": "f6e6b240",
    "hypeIndexByChainId(uint256)": "4bd162df",
    "oftAsset()": "765008a1",
    "quoteHyperCoreAmount(uint256,bool)": "f9716faf",
    "refundToSrc(bytes32)": "19180904"
  },
  "id": 1
}