{
  "abi": [
    {
      "type": "constructor",
      "inputs": [
        {
          "name": "_endpoint",
          "type": "address",
          "internalType": "address"
        },
        {
          "name": "_oft",
          "type": "address",
          "internalType": "address"
        }
      ],
      "stateMutability": "nonpayable"
    },
    {
      "type": "function",
      "name": "CORE_WRITER_VERSION",
      "inputs": [],
      "outputs": [
        {
          "name": "",
          "type": "bytes",
          "internalType": "bytes"
        }
      ],
      "stateMutability": "view"
    },
    {
      "type": "function",
      "name": "HLP_CORE_WRITER",
      "inputs": [],
      "outputs": [
        {
          "name": "",
          "type": "address",
          "internalType": "address"
        }
      ],
      "stateMutability": "view"
    },
    {
      "type": "function",
      "name": "HLP_PRECOMPILE_READ_SPOT_BALANCE",
      "inputs": [],
      "outputs": [
        {
          "name": "",
          "type": "address",
          "internalType": "address"
        }
      ],
      "stateMutability": "view"
    },
    {
      "type": "function",
      "name": "HYPE_CHAIN_ID_MAINNET",
      "inputs": [],
      "outputs": [
        {
          "name": "",
          "type": "uint256",
          "internalType": "uint256"
        }
      ],
      "stateMutability": "view"
    },
    {
      "type": "function",
      "name": "HYPE_CHAIN_ID_TESTNET",
      "inputs": [],
      "outputs": [
        {
          "name": "",
          "type": "uint256",
          "internalType": "uint256"
        }
      ],
      "stateMutability": "view"
    },
    {
      "type": "function",
      "name": "HYPE_INDEX_MAINNET",
      "inputs": [],
      "outputs": [
        {
          "name": "",
          "type": "uint64",
          "internalType": "uint64"
        }
      ],
      "stateMutability": "view"
    },
    {
      "type": "function",
      "name": "HYPE_INDEX_TESTNET",
      "inputs": [],
      "outputs": [
        {
          "name": "",
          "type": "uint64",
          "internalType": "uint64"
        }
      ],
      "stateMutability": "view"
    },
    {
      "type": "function",
      "name": "MIN_GAS",
      "inputs": [],
      "outputs": [
        {
          "name": "",
          "type": "uint256",
          "internalType": "uint256"
        }
      ],
      "stateMutability": "view"
    },
    {
      "type": "function",
      "name": "REFUND_ADDRESS",
      "inputs": [],
      "outputs": [
        {
          "name": "",
          "type": "address",
          "internalType": "address"
        }
      ],
      "stateMutability": "view"
    },
    {
      "type": "function",
      "name": "SPOT_SEND_ACTION_ID",
      "inputs": [],
      "outputs": [
        {
          "name": "",
          "type": "bytes",
          "internalType": "bytes"
        }
      ],
      "stateMutability": "view"
    },
    {
      "type": "function",
      "name": "SPOT_SEND_HEADER",
      "inputs": [],
      "outputs": [
        {
          "name": "",
          "type": "bytes",
          "internalType": "bytes"
        }
      ],
      "stateMutability": "view"
    },
    {
      "type": "function",
      "name": "balanceOfHyperCore",
      "inputs": [
        {
          "name": "_user",
          "type": "address",
          "internalType": "address"
        },
        {
          "name": "_tokenId",
          "type": "uint64",
          "internalType": "uint64"
        }
      ],
      "outputs": [
        {
          "name": "",
          "type": "uint64",
          "internalType": "uint64"
        }
      ],
      "stateMutability": "view"
    },
    {
      "type": "function",
      "name": "decode_message",
      "inputs": [
        {
          "name": "_composeMessage",
          "type": "bytes",
          "internalType": "bytes"
        }
      ],
      "outputs": [
        {
          "name": "minMsgValue",
          "type": "uint256",
          "internalType": "uint256"
        },
        {
          "name": "receiver",
          "type": "address",
          "internalType": "address"
        }
      ],
      "stateMutability": "pure"
    },
    {
      "type": "function",
      "name": "endpoint",
      "inputs": [],
      "outputs": [
        {
          "name": "",
          "type": "address",
          "internalType": "address"
        }
      ],
      "stateMutability": "view"
    },
    {
      "type": "function",
      "name": "failedMessages",
      "inputs": [
        {
          "name": "",
          "type": "bytes32",
          "internalType": "bytes32"
        }
      ],
      "outputs": [
        {
          "name": "refundSendParam",
          "type": "tuple",
          "internalType": "struct SendParam",
          "components": [
            {
              "name": "dstEid",
              "type": "uint32",
              "internalType": "uint32"
            },
            {
              "name": "to",
              "type": "bytes32",
              "internalType": "bytes32"
            },
            {
              "name": "amountLD",
              "type": "uint256",
              "internalType": "uint256"
            },
            {
              "name": "minAmountLD",
              "type": "uint256",
              "internalType": "uint256"
            },
            {
              "name": "extraOptions",
              "type": "bytes",
              "internalType": "bytes"
            },
            {
              "name": "composeMsg",
              "type": "bytes",
              "internalType": "bytes"
            },
            {
              "name": "oftCmd",
              "type": "bytes",
              "internalType": "bytes"
            }
          ]
        },
        {
          "name": "msgValue",
          "type": "uint256",
          "internalType": "uint256"
        }
      ],
      "stateMutability": "view"
    },
    {
      "type": "function",
      "name": "getErrorPayload",
      "inputs": [
        {
          "name": "_err",
          "type": "bytes",
          "internalType": "bytes"
        }
      ],
      "outputs": [
        {
          "name": "",
          "type": "bytes",
          "internalType": "bytes"
        }
      ],
      "stateMutability": "pure"
    },
    {
      "type": "function",
      "name": "getHypeAsset",
      "inputs": [],
      "outputs": [
        {
          "name": "",
          "type": "tuple",
          "internalType": "struct IHyperAsset",
          "components": [
            {
              "name": "assetBridgeAddress",
              "type": "address",
              "internalType": "address"
            },
            {
              "name": "coreIndexId",
              "type": "uint64",
              "internalType": "uint64"
            },
            {
              "name": "decimalDiff",
              "type": "int64",
              "internalType": "int64"
            }
          ]
        }
      ],
      "stateMutability": "view"
    },
    {
      "type": "function",
      "name": "getOFTAsset",
      "inputs": [],
      "outputs": [
        {
          "name": "",
          "type": "tuple",
          "internalType": "struct IHyperAsset",
          "components": [
            {
              "name": "assetBridgeAddress",
              "type": "address",
              "internalType": "address"
            },
            {
              "name": "coreIndexId",
              "type": "uint64",
              "internalType": "uint64"
            },
            {
              "name": "decimalDiff",
              "type": "int64",
              "internalType": "int64"
            }
          ]
        }
      ],
      "stateMutability": "view"
    },
    {
      "type": "function",
      "name": "hypeAsset",
      "inputs": [],
      "outputs": [
        {
          "name": "assetBridgeAddress",
          "type": "address",
          "internalType": "address"
        },
        {
          "name": "coreIndexId",
          "type": "uint64",
          "internalType": "uint64"
        },
        {
          "name": "decimalDiff",
          "type": "int64",
          "internalType": "int64"
        }
      ],
      "stateMutability": "view"
    },
    {
      "type": "function",
      "name": "hypeIndexByChainId",
      "inputs": [
        {
          "name": "",
          "type": "uint256",
          "internalType": "uint256"
        }
      ],
      "outputs": [
        {
          "name": "",
          "type": "uint64",
          "internalType": "uint64"
        }
      ],
      "stateMutability": "view"
    },
    {
      "type": "function",
      "name": "oft",
      "inputs": [],
      "outputs": [
        {
          "name": "",
          "type": "address",
          "internalType": "contract IOFT"
        }
      ],
      "stateMutability": "view"
    },
    {
      "type": "function",
      "name": "oftAsset",
      "inputs": [],
      "outputs": [
        {
          "name": "assetBridgeAddress",
          "type": "address",
          "internalType": "address"
        },
        {
          "name": "coreIndexId",
          "type": "uint64",
          "internalType": "uint64"
        },
        {
          "name": "decimalDiff",
          "type": "int64",
          "internalType": "int64"
        }
      ],
      "stateMutability": "view"
    },
    {
      "type": "function",
      "name": "quoteHyperCoreAmount",
      "inputs": [
        {
          "name": "_amount",
          "type": "uint256",
          "internalType": "uint256"
        },
        {
          "name": "_isOFT",
          "type": "bool",
          "internalType": "bool"
        }
      ],
      "outputs": [
        {
          "name": "",
          "type": "tuple",
          "internalType": "struct IHyperAssetAmount",
          "components": [
            {
              "name": "evm",
              "type": "uint256",
              "internalType": "uint256"
            },
            {
              "name": "dust",
              "type": "uint256",
              "internalType": "uint256"
            },
            {
              "name": "core",
              "type": "uint64",
              "internalType": "uint64"
            }
          ]
        }
      ],
      "stateMutability": "view"
    },
    {
      "type": "function",
      "name": "refund",
      "inputs": [
        {
          "name": "_guid",
          "type": "bytes32",
          "internalType": "bytes32"
        }
      ],
      "outputs": [],
      "stateMutability": "payable"
    },
    {
      "type": "function",
      "name": "refundERC20",
      "inputs": [
        {
          "name": "_refundAddress",
          "type": "address",
          "internalType": "address"
        },
        {
          "name": "_amount",
          "type": "uint256",
          "internalType": "uint256"
        }
      ],
      "outputs": [],
      "stateMutability": "nonpayable"
    },
    {
      "type": "function",
      "name": "refundNativeTokens",
      "inputs": [
        {
          "name": "_refundAddress",
          "type": "address",
          "internalType": "address"
        }
      ],
      "outputs": [],
      "stateMutability": "payable"
    },
    {
      "type": "function",
      "name": "token",
      "inputs": [],
      "outputs": [
        {
          "name": "",
          "type": "address",
          "internalType": "contract IERC20"
        }
      ],
      "stateMutability": "view"
    },
    {
      "type": "event",
      "name": "ErrorERC20_Refund",
      "inputs": [
        {
          "name": "refundTo",
          "type": "address",
          "indexed": false,
          "internalType": "address"
        },
        {
          "name": "refundAmount",
          "type": "uint256",
          "indexed": false,
          "internalType": "uint256"
        }
      ],
      "anonymous": false
    },
    {
      "type": "event",
      "name": "ErrorHYPE_Refund",
      "inputs": [
        {
          "name": "refundTo",
          "type": "address",
          "indexed": false,
          "internalType": "address"
        },
        {
          "name": "refundAmount",
          "type": "uint256",
          "indexed": false,
          "internalType": "uint256"
        }
      ],
      "anonymous": false
    },
    {
      "type": "event",
      "name": "ErrorMessage",
      "inputs": [
        {
          "name": "reason",
          "type": "bytes",
          "indexed": false,
          "internalType": "bytes"
        }
      ],
      "anonymous": false
    },
    {
      "type": "event",
      "name": "ErrorSpot_FailedToSend",
      "inputs": [
        {
          "name": "to",
          "type": "address",
          "indexed": false,
          "internalType": "address"
        },
        {
          "name": "tokenId",
          "type": "uint64",
          "indexed": false,
          "internalType": "uint64"
        },
        {
          "name": "amount",
          "type": "uint256",
          "indexed": false,
          "internalType": "uint256"
        },
        {
          "name": "errorMessage",
          "type": "bytes",
          "indexed": false,
          "internalType": "bytes"
        }
      ],
      "anonymous": false
    },
    {
      "type": "event",
      "name": "ExcessHYPE_Refund",
      "inputs": [
        {
          "name": "refundTo",
          "type": "address",
          "indexed": false,
          "internalType": "address"
        },
        {
          "name": "refundAmount",
          "type": "uint256",
          "indexed": false,
          "internalType": "uint256"
        }
      ],
      "anonymous": false
    },
    {
      "type": "event",
      "name": "FailedMessageDecode",
      "inputs": [
        {
          "name": "guid",
          "type": "bytes32",
          "indexed": true,
          "internalType": "bytes32"
        },
        {
          "name": "sender",
          "type": "bytes32",
          "indexed": false,
          "internalType": "bytes32"
        },
        {
          "name": "msgValue",
          "type": "uint256",
          "indexed": false,
          "internalType": "uint256"
        },
        {
          "name": "composeMessage",
          "type": "bytes",
          "indexed": false,
          "internalType": "bytes"
        }
      ],
      "anonymous": false
    },
    {
      "type": "event",
      "name": "RefundSuccessful",
      "inputs": [
        {
          "name": "guid",
          "type": "bytes32",
          "indexed": true,
          "internalType": "bytes32"
        }
      ],
      "anonymous": false
    },
    {
      "type": "error",
      "name": "FailedMessageNotFound",
      "inputs": [
        {
          "name": "guid",
          "type": "bytes32",
          "internalType": "bytes32"
        }
      ]
    },
    {
      "type": "error",
      "name": "HyperLiquidComposerCore_SpotBalanceRead_Failed",
      "inputs": [
        {
          "name": "user",
          "type": "address",
          "internalType": "address"
        },
        {
          "name": "tokenId",
          "type": "uint64",
          "internalType": "uint64"
        }
      ]
    },
    {
      "type": "error",
      "name": "HyperLiquidComposer_ComposeMsgNot64Byte",
      "inputs": [
        {
          "name": "composeMessage",
          "type": "bytes",
          "internalType": "bytes"
        },
        {
          "name": "length",
          "type": "uint256",
          "internalType": "uint256"
        }
      ]
    },
    {
      "type": "error",
      "name": "HyperLiquidComposer_FailedToRefund_HYPE",
      "inputs": [
        {
          "name": "to",
          "type": "address",
          "internalType": "address"
        },
        {
          "name": "amount",
          "type": "uint256",
          "internalType": "uint256"
        }
      ]
    },
    {
      "type": "error",
      "name": "HyperLiquidComposer_InvalidArgument_EndpointShouldNotBeZeroAddress",
      "inputs": [
        {
          "name": "receivedEndpointAddress",
          "type": "address",
          "internalType": "address"
        }
      ]
    },
    {
      "type": "error",
      "name": "HyperLiquidComposer_InvalidCall_NotComposer",
      "inputs": [
        {
          "name": "notComposerAddress",
          "type": "address",
          "internalType": "address"
        }
      ]
    },
    {
      "type": "error",
      "name": "HyperLiquidComposer_ReceiverCannotBeZeroAddress",
      "inputs": [
        {
          "name": "receiver",
          "type": "address",
          "internalType": "address"
        }
      ]
    },
    {
      "type": "error",
      "name": "SafeERC20FailedOperation",
      "inputs": [
        {
          "name": "token",
          "type": "address",
          "internalType": "address"
        }
      ]
    }
  ],
  "bytecode": {
    "object": "0x61010060405234801562000011575f80fd5b50604051620020d1380380620020d183398101604081905262000034916200017d565b6001600160a01b0382166200006b5760405163fb82c1f160e01b81526001600160a01b038316600482015260240160405180910390fd5b6001600160a01b03808316608052811660a081905260408051637e062a3560e11b8152905163fc0c546a916004808201926020929091908290030181865afa158015620000ba573d5f803e3d5ffd5b505050506040513d601f19601f82011682018060405250810190620000e09190620001b3565b6001600160a01b031660c05250505f60208190527f2802b8ca0a4d9948ac89ce9ba15f4015f0f68c52469c4df23bbaf374f1d4604080546001600160401b0319908116610451179091556103e79091527f332eac5de6beffe8ee7761a0342c75594c3acb5fdde0a2555227e56aa65d414180549091166096179055620001d6565b80516001600160a01b038116811462000178575f80fd5b919050565b5f80604083850312156200018f575f80fd5b6200019a8362000161565b9150620001aa6020840162000161565b90509250929050565b5f60208284031215620001c4575f80fd5b620001cf8262000161565b9392505050565b60805160a05160c05160e051611eb26200021f5f395f818161069c0152610bdd01525f8181610772015261102101525f81816105560152610bae01525f6103fa0152611eb25ff3fe6080604052600436106101a4575f3560e01c806381e8dcb4116100e7578063d00b1ad511610087578063f6e6b24011610062578063f6e6b240146106be578063f9716faf14610716578063fc0c546a14610761578063fdea048214610794575f80fd5b8063d00b1ad514610658578063ebaeefd61461066c578063f1ae0e9b1461068b575f80fd5b8063a4e7f8bd116100c2578063a4e7f8bd14610578578063aae12e46146105a5578063ba8726791461062e578063bc963bc714610643575f80fd5b806381e8dcb4146105135780638483bc00146105325780639b5215f614610545575f80fd5b80632d0e315c116101525780635e280f111161012d5780635e280f11146103e95780637249fbb614610441578063765008a1146104565780637ecd9ac3146104ec575f80fd5b80632d0e315c146102b85780634bd162df146103865780635b9a2373146103d4575f80fd5b806320d2c9511161018257806320d2c9511461023757806320d9af9a1461025b57806322dbe29c14610270575f80fd5b806303be2050146101a85780630d1995e0146101dd5780631f8164d914610223575b5f80fd5b3480156101b3575f80fd5b506101c76101c23660046116f9565b6107dd565b6040516101d491906117d0565b60405180910390f35b3480156101e8575f80fd5b506101c76040518060400160405280600381526020017d06000000000000000000000000000000000000000000000000000000000081525081565b34801561022e575f80fd5b506101c76107f2565b348015610242575f80fd5b5061024d620249f081565b6040519081526020016101d4565b348015610266575f80fd5b5061024d6103e681565b34801561027b575f80fd5b506101c76040518060400160405280600181526020017f010000000000000000000000000000000000000000000000000000000000000081525081565b3480156102c3575f80fd5b50610341604080516060810182525f8082526020820181905291810191909152506040805160608101825260025473ffffffffffffffffffffffffffffffffffffffff8116825274010000000000000000000000000000000000000000900467ffffffffffffffff16602082015260035460070b9181019190915290565b60408051825173ffffffffffffffffffffffffffffffffffffffff16815260208084015167ffffffffffffffff16908201529181015160070b908201526060016101d4565b348015610391575f80fd5b506103bb6103a03660046117e2565b5f6020819052908152604090205467ffffffffffffffff1681565b60405167ffffffffffffffff90911681526020016101d4565b3480156103df575f80fd5b5061024d6103e781565b3480156103f4575f80fd5b5061041c7f000000000000000000000000000000000000000000000000000000000000000081565b60405173ffffffffffffffffffffffffffffffffffffffff90911681526020016101d4565b61045461044f3660046117e2565b610876565b005b348015610461575f80fd5b506002546003546104ae9173ffffffffffffffffffffffffffffffffffffffff8116917401000000000000000000000000000000000000000090910467ffffffffffffffff169060070b83565b6040805173ffffffffffffffffffffffffffffffffffffffff909416845267ffffffffffffffff909216602084015260070b908201526060016101d4565b3480156104f7575f80fd5b5061041c73333333333333333333333333333333333333333381565b34801561051e575f80fd5b506103bb61052d36600461182f565b610c77565b610454610540366004611866565b610c82565b348015610550575f80fd5b5061041c7f000000000000000000000000000000000000000000000000000000000000000081565b348015610583575f80fd5b506105976105923660046117e2565b610d9f565b6040516101d49291906118fd565b3480156105b0575f80fd5b50610341604080516060810182525f8082526020820181905291810191909152506040805160608101825260045473ffffffffffffffffffffffffffffffffffffffff8116825274010000000000000000000000000000000000000000900467ffffffffffffffff16602082015260055460070b9181019190915290565b348015610639575f80fd5b5061041c61080181565b34801561064e575f80fd5b506103bb61045181565b348015610663575f80fd5b506103bb609681565b348015610677575f80fd5b5061045461068636600461191e565b610fa3565b348015610696575f80fd5b5061041c7f000000000000000000000000000000000000000000000000000000000000000081565b3480156106c9575f80fd5b506004546005546104ae9173ffffffffffffffffffffffffffffffffffffffff8116917401000000000000000000000000000000000000000090910467ffffffffffffffff169060070b83565b348015610721575f80fd5b50610735610730366004611948565b611048565b6040805182518152602080840151908201529181015167ffffffffffffffff16908201526060016101d4565b34801561076c575f80fd5b5061041c7f000000000000000000000000000000000000000000000000000000000000000081565b34801561079f575f80fd5b506107b36107ae3660046116f9565b611187565b6040805192835273ffffffffffffffffffffffffffffffffffffffff9091166020830152016101d4565b60606107e98383611246565b90505b92915050565b604080518082018252600181527f010000000000000000000000000000000000000000000000000000000000000060208083019190915282518084018452600381527d06000000000000000000000000000000000000000000000000000000000081830152925161086493910161196f565b60405160208183030381529060405281565b5f818152600160208190526040808320815161012081018352815463ffffffff1692810192835292810154606084015260028101546080840152600381015460a0840152600481018054919284929091849160c0850191906108d79061199d565b80601f01602080910402602001604051908101604052809291908181526020018280546109039061199d565b801561094e5780601f106109255761010080835404028352916020019161094e565b820191905f5260205f20905b81548152906001019060200180831161093157829003601f168201915b505050505081526020016005820180546109679061199d565b80601f01602080910402602001604051908101604052809291908181526020018280546109939061199d565b80156109de5780601f106109b5576101008083540402835291602001916109de565b820191905f5260205f20905b8154815290600101906020018083116109c157829003601f168201915b505050505081526020016006820180546109f79061199d565b80601f0160208091040260200160405190810160405280929190818152602001828054610a239061199d565b8015610a6e5780601f10610a4557610100808354040283529160200191610a6e565b820191905f5260205f20905b815481529060010190602001808311610a5157829003601f168201915b5050509190925250505081526007919091015460209182015281510151909150610acc576040517f0b948634000000000000000000000000000000000000000000000000000000008152600481018390526024015b60405180910390fd5b5f828152600160208190526040822080547fffffffffffffffffffffffffffffffffffffffffffffffffffffffff000000001681559081018290556002810182905560038101829055908181610b2560048301826116af565b610b32600583015f6116af565b610b3f600683015f6116af565b5050600782015f905550505f348260200151610b5b9190611a15565b82516040805180820182528381525f602082015290517fc7c7f5b300000000000000000000000000000000000000000000000000000000815292935073ffffffffffffffffffffffffffffffffffffffff7f0000000000000000000000000000000000000000000000000000000000000000169263c7c7f5b3928592610c05927f000000000000000000000000000000000000000000000000000000000000000090600401611a28565b60c06040518083038185885af1158015610c21573d5f803e3d5ffd5b50505050506040513d601f19601f82011682018060405250810190610c469190611b31565b505060405183907fd41d02272333251e6367f747c63d5cc227dcac6b0c799067569e80a30f9da369905f90a2505050565b5f6107e98383611290565b333014610cbd576040517f5950c85e000000000000000000000000000000000000000000000000000000008152336004820152602401610ac3565b5f34118015610ce1575073ffffffffffffffffffffffffffffffffffffffff811615155b15610d9c575f8173ffffffffffffffffffffffffffffffffffffffff16346040515f6040518083038185875af1925050503d805f8114610d3c576040519150601f19603f3d011682016040523d82523d5f602084013e610d41565b606091505b5050905080610d9a576040517fc8ee485e00000000000000000000000000000000000000000000000000000000815273ffffffffffffffffffffffffffffffffffffffff83166004820152346024820152604401610ac3565b505b50565b600160208181525f928352604092839020835160e081018552815463ffffffff16815292810154918301919091526002810154928201929092526003820154606082015260048201805483916080840191610df99061199d565b80601f0160208091040260200160405190810160405280929190818152602001828054610e259061199d565b8015610e705780601f10610e4757610100808354040283529160200191610e70565b820191905f5260205f20905b815481529060010190602001808311610e5357829003601f168201915b50505050508152602001600582018054610e899061199d565b80601f0160208091040260200160405190810160405280929190818152602001828054610eb59061199d565b8015610f005780601f10610ed757610100808354040283529160200191610f00565b820191905f5260205f20905b815481529060010190602001808311610ee357829003601f168201915b50505050508152602001600682018054610f199061199d565b80601f0160208091040260200160405190810160405280929190818152602001828054610f459061199d565b8015610f905780601f10610f6757610100808354040283529160200191610f90565b820191905f5260205f20905b815481529060010190602001808311610f7357829003601f168201915b5050509190925250505060079091015482565b333014610fde576040517f5950c85e000000000000000000000000000000000000000000000000000000008152336004820152602401610ac3565b5f81118015611002575073ffffffffffffffffffffffffffffffffffffffff821615155b15610d9a57610d9a73ffffffffffffffffffffffffffffffffffffffff7f00000000000000000000000000000000000000000000000000000000000000001683836113a4565b61107360405180606001604052805f81526020015f81526020015f67ffffffffffffffff1681525090565b604080516060810182525f80825260208201819052918101829052908315611106576040805160608101825260025473ffffffffffffffffffffffffffffffffffffffff81168083527401000000000000000000000000000000000000000090910467ffffffffffffffff166020830181905260035460070b938301939093529093506110ff91611290565b9050611173565b6040805160608101825260045473ffffffffffffffffffffffffffffffffffffffff81168083527401000000000000000000000000000000000000000090910467ffffffffffffffff166020830181905260055460070b9383019390935290935061117091611290565b90505b61117e858284611436565b95945050505050565b5f80604083146111c9576040517f741c7e80000000000000000000000000000000000000000000000000000000008152610ac390859085908190600401611b9a565b6111d583850185611bef565b909250905073ffffffffffffffffffffffffffffffffffffffff811661123f576040517f903b5a8300000000000000000000000000000000000000000000000000000000815273ffffffffffffffffffffffffffffffffffffffff82166004820152602401610ac3565b9250929050565b60606112558260448186611c12565b8080601f0160208091040260200160405190810160405280939291908181526020018383808284375f92019190915250929695505050505050565b6040805173ffffffffffffffffffffffffffffffffffffffff8416602082015267ffffffffffffffff8316818301528151808203830181526060918201928390525f92839291610801916112e49190611c39565b5f60405180830381855afa9150503d805f811461131c576040519150601f19603f3d011682016040523d82523d5f602084013e611321565b606091505b50909250905081611386576040517fa91ed72100000000000000000000000000000000000000000000000000000000815273ffffffffffffffffffffffffffffffffffffffff8616600482015267ffffffffffffffff85166024820152604401610ac3565b8080602001905181019061139a9190611c54565b5195945050505050565b6040805173ffffffffffffffffffffffffffffffffffffffff8416602482015260448082018490528251808303909101815260649091019091526020810180517bffffffffffffffffffffffffffffffffffffffffffffffffffffffff167fa9059cbb00000000000000000000000000000000000000000000000000000000179052611431908490611511565b505050565b61146160405180606001604052805f81526020015f81526020015f67ffffffffffffffff1681525090565b5f805f806114778767ffffffffffffffff6115b6565b90505f866040015160070b13156114a357611497888288604001516115de565b919550935091506114e5565b6114dd888288604001517fffffffffffffffffffffffffffffffffffffffffffffffffffffffffffffffff6114d89190611ca6565b611657565b919550935091505b5060408051606081018252938452602084019290925267ffffffffffffffff1690820152949350505050565b5f8060205f8451602086015f885af180611530576040513d5f823e3d81fd5b50505f513d91508115611547578060011415611561565b73ffffffffffffffffffffffffffffffffffffffff84163b155b156115b0576040517f5274afe700000000000000000000000000000000000000000000000000000000815273ffffffffffffffffffffffffffffffffffffffff85166004820152602401610ac3565b50505050565b5f8167ffffffffffffffff168367ffffffffffffffff16116115d857826107e9565b50919050565b5f8080806115ed85600a611dea565b90505f6116048267ffffffffffffffff8916611dff565b90506116108289611e43565b935061161c8489611e56565b975061162888826116a1565b94506116348589611e56565b61163e9085611a15565b935061164a8286611e69565b9250505093509350939050565b5f80808061166685600a611dea565b90505f61167d8267ffffffffffffffff8916611e69565b905061168988826116a1565b94506116958589611e56565b935061164a8286611dff565b5f8183116115d857826107e9565b5080546116bb9061199d565b5f825580601f106116ca575050565b601f0160209004905f5260205f2090810190610d9c91905b808211156116f5575f81556001016116e2565b5090565b5f806020838503121561170a575f80fd5b823567ffffffffffffffff80821115611721575f80fd5b818501915085601f830112611734575f80fd5b813581811115611742575f80fd5b866020828501011115611753575f80fd5b60209290920196919550909350505050565b5f5b8381101561177f578181015183820152602001611767565b50505f910152565b5f815180845261179e816020860160208601611765565b601f017fffffffffffffffffffffffffffffffffffffffffffffffffffffffffffffffe0169290920160200192915050565b602081525f6107e96020830184611787565b5f602082840312156117f2575f80fd5b5035919050565b73ffffffffffffffffffffffffffffffffffffffff81168114610d9c575f80fd5b67ffffffffffffffff81168114610d9c575f80fd5b5f8060408385031215611840575f80fd5b823561184b816117f9565b9150602083013561185b8161181a565b809150509250929050565b5f60208284031215611876575f80fd5b8135611881816117f9565b9392505050565b63ffffffff81511682526020810151602083015260408101516040830152606081015160608301525f608082015160e060808501526118ca60e0850182611787565b905060a083015184820360a08601526118e38282611787565b91505060c083015184820360c086015261117e8282611787565b604081525f61190f6040830185611888565b90508260208301529392505050565b5f806040838503121561192f575f80fd5b823561193a816117f9565b946020939093013593505050565b5f8060408385031215611959575f80fd5b823591506020830135801515811461185b575f80fd5b5f8351611980818460208801611765565b835190830190611994818360208801611765565b01949350505050565b600181811c908216806119b157607f821691505b6020821081036115d8577f4e487b71000000000000000000000000000000000000000000000000000000005f52602260045260245ffd5b7f4e487b71000000000000000000000000000000000000000000000000000000005f52601160045260245ffd5b808201808211156107ec576107ec6119e8565b608081525f611a3a6080830186611888565b9050835160208301526020840151604083015273ffffffffffffffffffffffffffffffffffffffff83166060830152949350505050565b6040516060810167ffffffffffffffff81118282101715611ab9577f4e487b71000000000000000000000000000000000000000000000000000000005f52604160045260245ffd5b60405290565b5f60408284031215611acf575f80fd5b6040516040810181811067ffffffffffffffff82111715611b17577f4e487b71000000000000000000000000000000000000000000000000000000005f52604160045260245ffd5b604052825181526020928301519281019290925250919050565b5f8082840360c0811215611b43575f80fd5b6080811215611b50575f80fd5b50611b59611a71565b835181526020840151611b6b8161181a565b6020820152611b7d8560408601611abf565b60408201529150611b918460808501611abf565b90509250929050565b60408152826040820152828460608301375f606084830101525f60607fffffffffffffffffffffffffffffffffffffffffffffffffffffffffffffffe0601f8601168301019050826020830152949350505050565b5f8060408385031215611c00575f80fd5b82359150602083013561185b816117f9565b5f8085851115611c20575f80fd5b83861115611c2c575f80fd5b5050820193919092039150565b5f8251611c4a818460208701611765565b9190910192915050565b5f60608284031215611c64575f80fd5b611c6c611a71565b8251611c778161181a565b81526020830151611c878161181a565b60208201526040830151611c9a8161181a565b60408201529392505050565b5f8260070b8260070b028060070b9150808214611cc557611cc56119e8565b5092915050565b600181815b80851115611d2557817fffffffffffffffffffffffffffffffffffffffffffffffffffffffffffffffff04821115611d0b57611d0b6119e8565b80851615611d1857918102915b93841c9390800290611cd1565b509250929050565b5f82611d3b575060016107ec565b81611d4757505f6107ec565b8160018114611d5d5760028114611d6757611d83565b60019150506107ec565b60ff841115611d7857611d786119e8565b50506001821b6107ec565b5060208310610133831016604e8410600b8410161715611da6575081810a6107ec565b611db08383611ccc565b807fffffffffffffffffffffffffffffffffffffffffffffffffffffffffffffffff04821115611de257611de26119e8565b029392505050565b5f6107e967ffffffffffffffff841683611d2d565b80820281158282048414176107ec576107ec6119e8565b7f4e487b71000000000000000000000000000000000000000000000000000000005f52601260045260245ffd5b5f82611e5157611e51611e16565b500690565b818103818111156107ec576107ec6119e8565b5f82611e7757611e77611e16565b50049056fea2646970667358221220f0888e51784431602fd52223cf7e26ebaa151a698402105e5569226ea507a52c64736f6c63430008160033",
    "linkReferences": {}
  },
  "methodIdentifiers": {
    "CORE_WRITER_VERSION()": "22dbe29c",
    "HLP_CORE_WRITER()": "7ecd9ac3",
    "HLP_PRECOMPILE_READ_SPOT_BALANCE()": "ba872679",
    "HYPE_CHAIN_ID_MAINNET()": "5b9a2373",
    "HYPE_CHAIN_ID_TESTNET()": "20d9af9a",
    "HYPE_INDEX_MAINNET()": "d00b1ad5",
    "HYPE_INDEX_TESTNET()": "bc963bc7",
    "MIN_GAS()": "20d2c951",
    "REFUND_ADDRESS()": "f1ae0e9b",
    "SPOT_SEND_ACTION_ID()": "0d1995e0",
    "SPOT_SEND_HEADER()": "1f8164d9",
    "balanceOfHyperCore(address,uint64)": "81e8dcb4",
    "decode_message(bytes)": "fdea0482",
    "endpoint()": "5e280f11",
    "failedMessages(bytes32)": "a4e7f8bd",
    "getErrorPayload(bytes)": "03be2050",
    "getHypeAsset()": "aae12e46",
    "getOFTAsset()": "2d0e315c",
    "hypeAsset()": "f6e6b240",
    "hypeIndexByChainId(uint256)": "4bd162df",
    "oft()": "9b5215f6",
    "oftAsset()": "765008a1",
    "quoteHyperCoreAmount(uint256,bool)": "f9716faf",
    "refund(bytes32)": "7249fbb6",
    "refundERC20(address,uint256)": "ebaeefd6",
    "refundNativeTokens(address)": "8483bc00",
    "token()": "fc0c546a"
  },
  "id": 1
}