{
  "abi": [
    {
      "type": "constructor",
      "inputs": [
        {
          "name": "_oft",
          "type": "address",
          "internalType": "address"
        }
      ],
      "stateMutability": "nonpayable"
    },
    {
      "type": "function",
      "name": "CORE_WRITER_VERSION",
      "inputs": [],
      "outputs": [
        {
          "name": "",
          "type": "bytes1",
          "internalType": "bytes1"
        }
      ],
      "stateMutability": "view"
    },
    {
      "type": "function",
      "name": "ENDPOINT",
      "inputs": [],
      "outputs": [
        {
          "name": "",
          "type": "address",
          "internalType": "address"
        }
      ],
      "stateMutability": "view"
    },
    {
      "type": "function",
      "name": "MIN_GAS",
      "inputs": [],
      "outputs": [
        {
          "name": "",
          "type": "uint256",
          "internalType": "uint256"
        }
      ],
      "stateMutability": "view"
    },
    {
      "type": "function",
      "name": "NATIVE_TRANSFER_GAS",
      "inputs": [],
      "outputs": [
        {
          "name": "",
          "type": "uint256",
          "internalType": "uint256"
        }
      ],
      "stateMutability": "view"
    },
    {
      "type": "function",
      "name": "OFT",
      "inputs": [],
      "outputs": [
        {
          "name": "",
          "type": "address",
          "internalType": "address"
        }
      ],
      "stateMutability": "view"
    },
    {
      "type": "function",
      "name": "REFUND_ADDRESS",
      "inputs": [],
      "outputs": [
        {
          "name": "",
          "type": "address",
          "internalType": "address"
        }
      ],
      "stateMutability": "view"
    },
    {
      "type": "function",
      "name": "SPOT_SEND_ACTION_ID",
      "inputs": [],
      "outputs": [
        {
          "name": "",
          "type": "bytes3",
          "internalType": "bytes3"
        }
      ],
      "stateMutability": "view"
    },
    {
      "type": "function",
      "name": "SPOT_SEND_HEADER",
      "inputs": [],
      "outputs": [
        {
          "name": "",
          "type": "bytes4",
          "internalType": "bytes4"
        }
      ],
      "stateMutability": "view"
    },
    {
      "type": "function",
      "name": "TOKEN",
      "inputs": [],
      "outputs": [
        {
          "name": "",
          "type": "address",
          "internalType": "address"
        }
      ],
      "stateMutability": "view"
    },
    {
      "type": "function",
      "name": "VALID_COMPOSE_MSG_LEN",
      "inputs": [],
      "outputs": [
        {
          "name": "",
          "type": "uint256",
          "internalType": "uint256"
        }
      ],
      "stateMutability": "view"
    },
    {
      "type": "function",
      "name": "failedMessages",
      "inputs": [
        {
          "name": "",
          "type": "bytes32",
          "internalType": "bytes32"
        }
      ],
      "outputs": [
        {
          "name": "refundSendParam",
          "type": "tuple",
          "internalType": "struct SendParam",
          "components": [
            {
              "name": "dstEid",
              "type": "uint32",
              "internalType": "uint32"
            },
            {
              "name": "to",
              "type": "bytes32",
              "internalType": "bytes32"
            },
            {
              "name": "amountLD",
              "type": "uint256",
              "internalType": "uint256"
            },
            {
              "name": "minAmountLD",
              "type": "uint256",
              "internalType": "uint256"
            },
            {
              "name": "extraOptions",
              "type": "bytes",
              "internalType": "bytes"
            },
            {
              "name": "composeMsg",
              "type": "bytes",
              "internalType": "bytes"
            },
            {
              "name": "oftCmd",
              "type": "bytes",
              "internalType": "bytes"
            }
          ]
        },
        {
          "name": "msgValue",
          "type": "uint256",
          "internalType": "uint256"
        }
      ],
      "stateMutability": "view"
    },
    {
      "type": "function",
      "name": "hypeAsset",
      "inputs": [],
      "outputs": [
        {
          "name": "coreIndexId",
          "type": "uint64",
          "internalType": "uint64"
        },
        {
          "name": "decimalDiff",
          "type": "int64",
          "internalType": "int64"
        },
        {
          "name": "assetBridgeAddress",
          "type": "address",
          "internalType": "address"
        }
      ],
      "stateMutability": "view"
    },
    {
      "type": "function",
      "name": "hypeIndexByChainId",
      "inputs": [
        {
          "name": "",
          "type": "uint256",
          "internalType": "uint256"
        }
      ],
      "outputs": [
        {
          "name": "",
          "type": "uint64",
          "internalType": "uint64"
        }
      ],
      "stateMutability": "view"
    },
    {
      "type": "function",
      "name": "oftAsset",
      "inputs": [],
      "outputs": [
        {
          "name": "coreIndexId",
          "type": "uint64",
          "internalType": "uint64"
        },
        {
          "name": "decimalDiff",
          "type": "int64",
          "internalType": "int64"
        },
        {
          "name": "assetBridgeAddress",
          "type": "address",
          "internalType": "address"
        }
      ],
      "stateMutability": "view"
    },
    {
      "type": "function",
      "name": "quoteHyperCoreAmount",
      "inputs": [
        {
          "name": "_amount",
          "type": "uint256",
          "internalType": "uint256"
        },
        {
          "name": "_isOFT",
          "type": "bool",
          "internalType": "bool"
        }
      ],
      "outputs": [
        {
          "name": "",
          "type": "tuple",
          "internalType": "struct IHyperAssetAmount",
          "components": [
            {
              "name": "evm",
              "type": "uint256",
              "internalType": "uint256"
            },
            {
              "name": "dust",
              "type": "uint256",
              "internalType": "uint256"
            },
            {
              "name": "core",
              "type": "uint64",
              "internalType": "uint64"
            }
          ]
        }
      ],
      "stateMutability": "view"
    },
    {
      "type": "function",
      "name": "refundToSrc",
      "inputs": [
        {
          "name": "_guid",
          "type": "bytes32",
          "internalType": "bytes32"
        }
      ],
      "outputs": [],
      "stateMutability": "payable"
    },
    {
      "type": "function",
      "name": "spotBalance",
      "inputs": [
        {
          "name": "user",
          "type": "address",
          "internalType": "address"
        },
        {
          "name": "token",
          "type": "uint64",
          "internalType": "uint64"
        }
      ],
      "outputs": [
        {
          "name": "",
          "type": "tuple",
          "internalType": "struct SpotBalance",
          "components": [
            {
              "name": "total",
              "type": "uint64",
              "internalType": "uint64"
            },
            {
              "name": "hold",
              "type": "uint64",
              "internalType": "uint64"
            },
            {
              "name": "entryNtl",
              "type": "uint64",
              "internalType": "uint64"
            }
          ]
        }
      ],
      "stateMutability": "view"
    },
    {
      "type": "event",
      "name": "CompleteRefund",
      "inputs": [],
      "anonymous": false
    },
    {
      "type": "event",
      "name": "FailedMessageDecode",
      "inputs": [
        {
          "name": "guid",
          "type": "bytes32",
          "indexed": true,
          "internalType": "bytes32"
        },
        {
          "name": "sender",
          "type": "bytes32",
          "indexed": false,
          "internalType": "bytes32"
        },
        {
          "name": "msgValue",
          "type": "uint256",
          "indexed": false,
          "internalType": "uint256"
        },
        {
          "name": "composeMessage",
          "type": "bytes",
          "indexed": false,
          "internalType": "bytes"
        }
      ],
      "anonymous": false
    },
    {
      "type": "event",
      "name": "RefundHyperEVM",
      "inputs": [
        {
          "name": "receiver",
          "type": "address",
          "indexed": true,
          "internalType": "address"
        },
        {
          "name": "amountERC20",
          "type": "uint256",
          "indexed": true,
          "internalType": "uint256"
        },
        {
          "name": "amountHYPE",
          "type": "uint256",
          "indexed": true,
          "internalType": "uint256"
        }
      ],
      "anonymous": false
    },
    {
      "type": "event",
      "name": "RefundSuccessful",
      "inputs": [
        {
          "name": "guid",
          "type": "bytes32",
          "indexed": true,
          "internalType": "bytes32"
        }
      ],
      "anonymous": false
    },
    {
      "type": "error",
      "name": "ComposeMsgLengthNot64Bytes",
      "inputs": [
        {
          "name": "length",
          "type": "uint256",
          "internalType": "uint256"
        }
      ]
    },
    {
      "type": "error",
      "name": "FailedMessageNotFound",
      "inputs": [
        {
          "name": "guid",
          "type": "bytes32",
          "internalType": "bytes32"
        }
      ]
    },
    {
      "type": "error",
      "name": "InsufficientGas",
      "inputs": [
        {
          "name": "gasLeft",
          "type": "uint256",
          "internalType": "uint256"
        },
        {
          "name": "minGas",
          "type": "uint256",
          "internalType": "uint256"
        }
      ]
    },
    {
      "type": "error",
      "name": "InsufficientMsgValue",
      "inputs": [
        {
          "name": "msgValue",
          "type": "uint256",
          "internalType": "uint256"
        },
        {
          "name": "requiredValue",
          "type": "uint256",
          "internalType": "uint256"
        }
      ]
    },
    {
      "type": "error",
      "name": "InvalidComposeCaller",
      "inputs": [
        {
          "name": "internalOFTAddress",
          "type": "address",
          "internalType": "address"
        },
        {
          "name": "receivedOFTAddress",
          "type": "address",
          "internalType": "address"
        }
      ]
    },
    {
      "type": "error",
      "name": "InvalidOFTAddress",
      "inputs": []
    },
    {
      "type": "error",
      "name": "NativeTransferFailed",
      "inputs": [
        {
          "name": "receiver",
          "type": "address",
          "internalType": "address"
        },
        {
          "name": "amount",
          "type": "uint256",
          "internalType": "uint256"
        }
      ]
    },
    {
      "type": "error",
      "name": "OnlyEndpoint",
      "inputs": []
    },
    {
      "type": "error",
      "name": "OnlySelf",
      "inputs": [
        {
          "name": "caller",
          "type": "address",
          "internalType": "address"
        }
      ]
    },
    {
      "type": "error",
      "name": "SpotBalanceReadFailed",
      "inputs": [
        {
          "name": "user",
          "type": "address",
          "internalType": "address"
        },
        {
          "name": "tokenId",
          "type": "uint64",
          "internalType": "uint64"
        }
      ]
    },
    {
      "type": "error",
      "name": "UnsupportedChainId",
      "inputs": [
        {
          "name": "chainId",
          "type": "uint256",
          "internalType": "uint256"
        }
      ]
    }
  ],
  "bytecode": {
    "object": "0x61010060405234801562000011575f80fd5b50604051620018ac380380620018ac833981016040819052620000349162000279565b5f60208190527f2802b8ca0a4d9948ac89ce9ba15f4015f0f68c52469c4df23bbaf374f1d4604080546001600160401b0319908116610451179091556103e79091527f332eac5de6beffe8ee7761a0342c75594c3acb5fdde0a2555227e56aa65d4141805490911660961790556001600160a01b038116620000c95760405163c23419a560e01b815260040160405180910390fd5b806001600160a01b0316635e280f116040518163ffffffff1660e01b8152600401602060405180830381865afa15801562000106573d5f803e3d5ffd5b505050506040513d601f19601f820116820180604052508101906200012c919062000279565b6001600160a01b03908116608052811660a081905260408051637e062a3560e11b8152905163fc0c546a916004808201926020929091908290030181865afa1580156200017b573d5f803e3d5ffd5b505050506040513d601f19601f82011682018060405250810190620001a1919062000279565b6001600160a01b031660c052465f908152602081905260408120546001600160401b031690819003620001ed576040516352ed5aff60e11b815246600482015260240160405180910390fd5b604080516060810182526001600160401b0392909216808352600a602084015273222222222222222222222222222222222222222292909101829052600480546001600160801b031916909117680a0000000000000000179055600580546001600160a01b0319169091179055506200029e565b6001600160a01b038116811462000276575f80fd5b50565b5f602082840312156200028a575f80fd5b8151620002978162000261565b9392505050565b60805160a05160c05160e0516115cc620002e05f395f81816104c501526108ec01525f6103ff01525f81816101bd01526108bd01525f61034101526115cc5ff3fe608060405260043610610109575f3560e01c80636fad06f5116100a1578063a69610d111610071578063f1ae0e9b11610057578063f1ae0e9b146104b4578063f6e6b240146104e7578063f9716faf14610533575f80fd5b8063a69610d11461044e578063cebb5120146104a0575f80fd5b80636fad06f514610330578063765008a11461036357806382bfefc8146103ee578063a4e7f8bd14610421575f80fd5b80631f8164d9116100dc5780631f8164d91461020457806320d2c9511461026857806322dbe29c1461027e5780634bd162df146102e2575f80fd5b80630d1995e01461010d578063104544dd1461017457806319180904146101975780631ed0993d146101ac575b5f80fd5b348015610118575f80fd5b5061013e7d06000000000000000000000000000000000000000000000000000000000081565b6040517fffffff000000000000000000000000000000000000000000000000000000000090911681526020015b60405180910390f35b34801561017f575f80fd5b506101896108fc81565b60405190815260200161016b565b6101aa6101a5366004610fa7565b61057e565b005b3480156101b7575f80fd5b506101df7f000000000000000000000000000000000000000000000000000000000000000081565b60405173ffffffffffffffffffffffffffffffffffffffff909116815260200161016b565b34801561020f575f80fd5b506102377f010000060000000000000000000000000000000000000000000000000000000081565b6040517fffffffff00000000000000000000000000000000000000000000000000000000909116815260200161016b565b348015610273575f80fd5b50610189620249f081565b348015610289575f80fd5b506102b17f010000000000000000000000000000000000000000000000000000000000000081565b6040517fff00000000000000000000000000000000000000000000000000000000000000909116815260200161016b565b3480156102ed575f80fd5b506103176102fc366004610fa7565b5f6020819052908152604090205467ffffffffffffffff1681565b60405167ffffffffffffffff909116815260200161016b565b34801561033b575f80fd5b506101df7f000000000000000000000000000000000000000000000000000000000000000081565b34801561036e575f80fd5b506002546003546103af9167ffffffffffffffff8116916801000000000000000090910460070b9073ffffffffffffffffffffffffffffffffffffffff1683565b6040805167ffffffffffffffff909416845260079290920b602084015273ffffffffffffffffffffffffffffffffffffffff169082015260600161016b565b3480156103f9575f80fd5b506101df7f000000000000000000000000000000000000000000000000000000000000000081565b34801561042c575f80fd5b5061044061043b366004610fa7565b610986565b60405161016b92919061109e565b348015610459575f80fd5b5061046d6104683660046110d4565b610b8a565b60408051825167ffffffffffffffff9081168252602080850151821690830152928201519092169082015260600161016b565b3480156104ab575f80fd5b50610189604081565b3480156104bf575f80fd5b506101df7f000000000000000000000000000000000000000000000000000000000000000081565b3480156104f2575f80fd5b506004546005546103af9167ffffffffffffffff8116916801000000000000000090910460070b9073ffffffffffffffffffffffffffffffffffffffff1683565b34801561053e575f80fd5b5061055261054d366004611123565b610d0a565b6040805182518152602080840151908201529181015167ffffffffffffffff169082015260600161016b565b5f818152600160208190526040808320815161012081018352815463ffffffff1692810192835292810154606084015260028101546080840152600381015460a0840152600481018054919284929091849160c0850191906105df9061114a565b80601f016020809104026020016040519081016040528092919081815260200182805461060b9061114a565b80156106565780601f1061062d57610100808354040283529160200191610656565b820191905f5260205f20905b81548152906001019060200180831161063957829003601f168201915b5050505050815260200160058201805461066f9061114a565b80601f016020809104026020016040519081016040528092919081815260200182805461069b9061114a565b80156106e65780601f106106bd576101008083540402835291602001916106e6565b820191905f5260205f20905b8154815290600101906020018083116106c957829003601f168201915b505050505081526020016006820180546106ff9061114a565b80601f016020809104026020016040519081016040528092919081815260200182805461072b9061114a565b80156107765780601f1061074d57610100808354040283529160200191610776565b820191905f5260205f20905b81548152906001019060200180831161075957829003601f168201915b5050509190925250505081526007919091015460209091015280515190915063ffffffff165f036107db576040517f0b948634000000000000000000000000000000000000000000000000000000008152600481018390526024015b60405180910390fd5b5f828152600160208190526040822080547fffffffffffffffffffffffffffffffffffffffffffffffffffffffff0000000016815590810182905560028101829055600381018290559081816108346004830182610f55565b610841600583015f610f55565b61084e600683015f610f55565b5050600782015f905550505f34826020015161086a91906111c8565b82516040805180820182528381525f602082015290517fc7c7f5b300000000000000000000000000000000000000000000000000000000815292935073ffffffffffffffffffffffffffffffffffffffff7f0000000000000000000000000000000000000000000000000000000000000000169263c7c7f5b3928592610914927f0000000000000000000000000000000000000000000000000000000000000000906004016111db565b60c06040518083038185885af1158015610930573d5f803e3d5ffd5b50505050506040513d601f19601f8201168201806040525081019061095591906112e4565b505060405183907fd41d02272333251e6367f747c63d5cc227dcac6b0c799067569e80a30f9da369905f90a2505050565b600160208181525f928352604092839020835160e081018552815463ffffffff168152928101549183019190915260028101549282019290925260038201546060820152600482018054839160808401916109e09061114a565b80601f0160208091040260200160405190810160405280929190818152602001828054610a0c9061114a565b8015610a575780601f10610a2e57610100808354040283529160200191610a57565b820191905f5260205f20905b815481529060010190602001808311610a3a57829003601f168201915b50505050508152602001600582018054610a709061114a565b80601f0160208091040260200160405190810160405280929190818152602001828054610a9c9061114a565b8015610ae75780601f10610abe57610100808354040283529160200191610ae7565b820191905f5260205f20905b815481529060010190602001808311610aca57829003601f168201915b50505050508152602001600682018054610b009061114a565b80601f0160208091040260200160405190810160405280929190818152602001828054610b2c9061114a565b8015610b775780601f10610b4e57610100808354040283529160200191610b77565b820191905f5260205f20905b815481529060010190602001808311610b5a57829003601f168201915b5050509190925250505060079091015482565b604080516060810182525f80825260208201819052918101919091526040805173ffffffffffffffffffffffffffffffffffffffff8516602082015267ffffffffffffffff8416918101919091525f90606090610801908201604080517fffffffffffffffffffffffffffffffffffffffffffffffffffffffffffffffe081840301815290829052610c1b9161134d565b5f60405180830381855afa9150503d805f8114610c53576040519150601f19603f3d011682016040523d82523d5f602084013e610c58565b606091505b50909250905081610ceb576040517f08c379a000000000000000000000000000000000000000000000000000000000815260206004820152602260248201527f53706f7442616c616e636520707265636f6d70696c652063616c6c206661696c60448201527f656400000000000000000000000000000000000000000000000000000000000060648201526084016107d2565b80806020019051810190610cff9190611368565b925050505b92915050565b610d3560405180606001604052805f81526020015f81526020015f67ffffffffffffffff1681525090565b5f82610d42576004610d45565b60025b60408051606081018252825467ffffffffffffffff81168083526801000000000000000090910460070b602083015260019093015473ffffffffffffffffffffffffffffffffffffffff1691810182905292505f91610da49190610b8a565b519050610cff858284610dd860405180606001604052805f81526020015f81526020015f67ffffffffffffffff1681525090565b5f80808067ffffffffffffffff87117fffffffffffffffffffffffffffffffffffffffffffffffff0000000000000001880102870390505f866020015160070b1315610e3957610e2d88828860200151610ea7565b91955093509150610e7b565b610e73888288602001517fffffffffffffffffffffffffffffffffffffffffffffffffffffffffffffffff610e6e91906113ba565b610f0c565b919550935091505b5060408051606081018252938452602084019290925267ffffffffffffffff1690820152949350505050565b5f808080610eb685600a6114fe565b90505f610ecd8267ffffffffffffffff891661151a565b9050610ed9828961155e565b9788900397818903828a110289039550858903019350818581610efe57610efe611531565b049250505093509350939050565b5f808080610f1b85600a6114fe565b90505f818767ffffffffffffffff1681610f3757610f37611531565b04808903908911028803989789900397918902965090945050505050565b508054610f619061114a565b5f825580601f10610f70575050565b601f0160209004905f5260205f2090810190610f8c9190610f8f565b50565b5b80821115610fa3575f8155600101610f90565b5090565b5f60208284031215610fb7575f80fd5b5035919050565b5f5b83811015610fd8578181015183820152602001610fc0565b50505f910152565b5f8151808452610ff7816020860160208601610fbe565b601f017fffffffffffffffffffffffffffffffffffffffffffffffffffffffffffffffe0169290920160200192915050565b63ffffffff81511682526020810151602083015260408101516040830152606081015160608301525f608082015160e0608085015261106b60e0850182610fe0565b905060a083015184820360a08601526110848282610fe0565b91505060c083015184820360c0860152610cff8282610fe0565b604081525f6110b06040830185611029565b90508260208301529392505050565b67ffffffffffffffff81168114610f8c575f80fd5b5f80604083850312156110e5575f80fd5b823573ffffffffffffffffffffffffffffffffffffffff81168114611108575f80fd5b91506020830135611118816110bf565b809150509250929050565b5f8060408385031215611134575f80fd5b8235915060208301358015158114611118575f80fd5b600181811c9082168061115e57607f821691505b602082108103611195577f4e487b71000000000000000000000000000000000000000000000000000000005f52602260045260245ffd5b50919050565b7f4e487b71000000000000000000000000000000000000000000000000000000005f52601160045260245ffd5b80820180821115610d0457610d0461119b565b608081525f6111ed6080830186611029565b9050835160208301526020840151604083015273ffffffffffffffffffffffffffffffffffffffff83166060830152949350505050565b6040516060810167ffffffffffffffff8111828210171561126c577f4e487b71000000000000000000000000000000000000000000000000000000005f52604160045260245ffd5b60405290565b5f60408284031215611282575f80fd5b6040516040810181811067ffffffffffffffff821117156112ca577f4e487b71000000000000000000000000000000000000000000000000000000005f52604160045260245ffd5b604052825181526020928301519281019290925250919050565b5f8082840360c08112156112f6575f80fd5b6080811215611303575f80fd5b5061130c611224565b83518152602084015161131e816110bf565b60208201526113308560408601611272565b604082015291506113448460808501611272565b90509250929050565b5f825161135e818460208701610fbe565b9190910192915050565b5f60608284031215611378575f80fd5b611380611224565b825161138b816110bf565b8152602083015161139b816110bf565b602082015260408301516113ae816110bf565b60408201529392505050565b5f8260070b8260070b028060070b91508082146113d9576113d961119b565b5092915050565b600181815b8085111561143957817fffffffffffffffffffffffffffffffffffffffffffffffffffffffffffffffff0482111561141f5761141f61119b565b8085161561142c57918102915b93841c93908002906113e5565b509250929050565b5f8261144f57506001610d04565b8161145b57505f610d04565b8160018114611471576002811461147b57611497565b6001915050610d04565b60ff84111561148c5761148c61119b565b50506001821b610d04565b5060208310610133831016604e8410600b84101617156114ba575081810a610d04565b6114c483836113e0565b807fffffffffffffffffffffffffffffffffffffffffffffffffffffffffffffffff048211156114f6576114f661119b565b029392505050565b5f61151367ffffffffffffffff841683611441565b9392505050565b8082028115828204841417610d0457610d0461119b565b7f4e487b71000000000000000000000000000000000000000000000000000000005f52601260045260245ffd5b5f82611591577f4e487b71000000000000000000000000000000000000000000000000000000005f52601260045260245ffd5b50069056fea2646970667358221220384c47a3fc57a2dcf08d5f398d4ba50a0f33c15d4e33818a0512385285dad45664736f6c63430008160033",
    "linkReferences": {}
  },
  "methodIdentifiers": {
    "CORE_WRITER_VERSION()": "22dbe29c",
    "ENDPOINT()": "6fad06f5",
    "MIN_GAS()": "20d2c951",
    "NATIVE_TRANSFER_GAS()": "104544dd",
    "OFT()": "1ed0993d",
    "REFUND_ADDRESS()": "f1ae0e9b",
    "SPOT_SEND_ACTION_ID()": "0d1995e0",
    "SPOT_SEND_HEADER()": "1f8164d9",
    "TOKEN()": "82bfefc8",
    "VALID_COMPOSE_MSG_LEN()": "cebb5120",
    "failedMessages(bytes32)": "a4e7f8bd",
    "hypeAsset()": "f6e6b240",
    "hypeIndexByChainId(uint256)": "4bd162df",
    "oftAsset()": "765008a1",
    "quoteHyperCoreAmount(uint256,bool)": "f9716faf",
    "refundToSrc(bytes32)": "19180904",
    "spotBalance(address,uint64)": "a69610d1"
  },
  "id": 1
}