{
  "abi": [
    {
      "type": "function",
      "name": "HLP_PRECOMPILE_READ_SPOT_BALANCE",
      "inputs": [],
      "outputs": [
        {
          "name": "",
          "type": "address",
          "internalType": "address"
        }
      ],
      "stateMutability": "view"
    },
    {
      "type": "function",
      "name": "HLP_PRECOMPILE_WRITE",
      "inputs": [],
      "outputs": [
        {
          "name": "",
          "type": "address",
          "internalType": "address"
        }
      ],
      "stateMutability": "view"
    },
    {
      "type": "function",
      "name": "VALID_COMPOSE_MESSAGE_LENGTH_ENCODE",
      "inputs": [],
      "outputs": [
        {
          "name": "",
          "type": "uint256",
          "internalType": "uint256"
        }
      ],
      "stateMutability": "view"
    },
    {
      "type": "function",
      "name": "VALID_COMPOSE_MESSAGE_LENGTH_PACKED",
      "inputs": [],
      "outputs": [
        {
          "name": "",
          "type": "uint256",
          "internalType": "uint256"
        }
      ],
      "stateMutability": "view"
    },
    {
      "type": "function",
      "name": "balanceOfHyperCore",
      "inputs": [
        {
          "name": "_user",
          "type": "address",
          "internalType": "address"
        },
        {
          "name": "_tokenId",
          "type": "uint64",
          "internalType": "uint64"
        }
      ],
      "outputs": [
        {
          "name": "",
          "type": "uint64",
          "internalType": "uint64"
        }
      ],
      "stateMutability": "view"
    },
    {
      "type": "function",
      "name": "endpoint",
      "inputs": [],
      "outputs": [
        {
          "name": "",
          "type": "address",
          "internalType": "address"
        }
      ],
      "stateMutability": "view"
    },
    {
      "type": "function",
      "name": "getHypeAsset",
      "inputs": [],
      "outputs": [
        {
          "name": "",
          "type": "tuple",
          "internalType": "struct IHyperAsset",
          "components": [
            {
              "name": "assetBridgeAddress",
              "type": "address",
              "internalType": "address"
            },
            {
              "name": "coreIndexId",
              "type": "uint64",
              "internalType": "uint64"
            },
            {
              "name": "decimalDiff",
              "type": "uint64",
              "internalType": "uint64"
            }
          ]
        }
      ],
      "stateMutability": "view"
    },
    {
      "type": "function",
      "name": "getOFTAsset",
      "inputs": [],
      "outputs": [
        {
          "name": "",
          "type": "tuple",
          "internalType": "struct IHyperAsset",
          "components": [
            {
              "name": "assetBridgeAddress",
              "type": "address",
              "internalType": "address"
            },
            {
              "name": "coreIndexId",
              "type": "uint64",
              "internalType": "uint64"
            },
            {
              "name": "decimalDiff",
              "type": "uint64",
              "internalType": "uint64"
            }
          ]
        }
      ],
      "stateMutability": "view"
    },
    {
      "type": "function",
      "name": "hypeAsset",
      "inputs": [],
      "outputs": [
        {
          "name": "assetBridgeAddress",
          "type": "address",
          "internalType": "address"
        },
        {
          "name": "coreIndexId",
          "type": "uint64",
          "internalType": "uint64"
        },
        {
          "name": "decimalDiff",
          "type": "uint64",
          "internalType": "uint64"
        }
      ],
      "stateMutability": "view"
    },
    {
      "type": "function",
      "name": "oft",
      "inputs": [],
      "outputs": [
        {
          "name": "",
          "type": "address",
          "internalType": "contract IOFT"
        }
      ],
      "stateMutability": "view"
    },
    {
      "type": "function",
      "name": "oftAsset",
      "inputs": [],
      "outputs": [
        {
          "name": "assetBridgeAddress",
          "type": "address",
          "internalType": "address"
        },
        {
          "name": "coreIndexId",
          "type": "uint64",
          "internalType": "uint64"
        },
        {
          "name": "decimalDiff",
          "type": "uint64",
          "internalType": "uint64"
        }
      ],
      "stateMutability": "view"
    },
    {
      "type": "function",
      "name": "quoteHyperCoreAmount",
      "inputs": [
        {
          "name": "_amount",
          "type": "uint256",
          "internalType": "uint256"
        },
        {
          "name": "_isOFT",
          "type": "bool",
          "internalType": "bool"
        }
      ],
      "outputs": [
        {
          "name": "",
          "type": "tuple",
          "internalType": "struct IHyperAssetAmount",
          "components": [
            {
              "name": "evm",
              "type": "uint256",
              "internalType": "uint256"
            },
            {
              "name": "dust",
              "type": "uint256",
              "internalType": "uint256"
            },
            {
              "name": "core",
              "type": "uint64",
              "internalType": "uint64"
            }
          ]
        }
      ],
      "stateMutability": "nonpayable"
    },
    {
      "type": "function",
      "name": "refundERC20",
      "inputs": [
        {
          "name": "_refundAddress",
          "type": "address",
          "internalType": "address"
        },
        {
          "name": "_amount",
          "type": "uint256",
          "internalType": "uint256"
        }
      ],
      "outputs": [],
      "stateMutability": "payable"
    },
    {
      "type": "function",
      "name": "refundNativeTokens",
      "inputs": [
        {
          "name": "_refundAddress",
          "type": "address",
          "internalType": "address"
        }
      ],
      "outputs": [],
      "stateMutability": "payable"
    },
    {
      "type": "function",
      "name": "token",
      "inputs": [],
      "outputs": [
        {
          "name": "",
          "type": "address",
          "internalType": "contract IERC20"
        }
      ],
      "stateMutability": "view"
    },
    {
      "type": "function",
      "name": "validate_addresses_or_refund",
      "inputs": [
        {
          "name": "_maybeReceiver",
          "type": "bytes",
          "internalType": "bytes"
        },
        {
          "name": "_senderBytes32",
          "type": "bytes32",
          "internalType": "bytes32"
        },
        {
          "name": "_amountLD",
          "type": "uint256",
          "internalType": "uint256"
        }
      ],
      "outputs": [
        {
          "name": "",
          "type": "address",
          "internalType": "address"
        }
      ],
      "stateMutability": "pure"
    },
    {
      "type": "function",
      "name": "validate_payload",
      "inputs": [
        {
          "name": "_composeMessage",
          "type": "bytes",
          "internalType": "bytes"
        }
      ],
      "outputs": [
        {
          "name": "",
          "type": "uint256",
          "internalType": "uint256"
        },
        {
          "name": "",
          "type": "bytes32",
          "internalType": "bytes32"
        },
        {
          "name": "",
          "type": "bytes",
          "internalType": "bytes"
        }
      ],
      "stateMutability": "pure"
    },
    {
      "type": "event",
      "name": "ErrorERC20_Refund",
      "inputs": [
        {
          "name": "refundTo",
          "type": "address",
          "indexed": false,
          "internalType": "address"
        },
        {
          "name": "refundAmount",
          "type": "uint256",
          "indexed": false,
          "internalType": "uint256"
        }
      ],
      "anonymous": false
    },
    {
      "type": "event",
      "name": "ErrorHYPE_Refund",
      "inputs": [
        {
          "name": "refundTo",
          "type": "address",
          "indexed": false,
          "internalType": "address"
        },
        {
          "name": "refundAmount",
          "type": "uint256",
          "indexed": false,
          "internalType": "uint256"
        }
      ],
      "anonymous": false
    },
    {
      "type": "event",
      "name": "ErrorMessage",
      "inputs": [
        {
          "name": "reason",
          "type": "bytes",
          "indexed": false,
          "internalType": "bytes"
        }
      ],
      "anonymous": false
    },
    {
      "type": "event",
      "name": "OverflowDetected",
      "inputs": [
        {
          "name": "amountCore",
          "type": "uint64",
          "indexed": false,
          "internalType": "uint64"
        },
        {
          "name": "maxTransferableAmount",
          "type": "uint64",
          "indexed": false,
          "internalType": "uint64"
        }
      ],
      "anonymous": false
    },
    {
      "type": "error",
      "name": "ErrorMsg",
      "inputs": [
        {
          "name": "errorMessage",
          "type": "bytes",
          "internalType": "bytes"
        }
      ]
    },
    {
      "type": "error",
      "name": "HyperLiquidComposerCore_SpotBalanceRead_Failed",
      "inputs": [
        {
          "name": "user",
          "type": "address",
          "internalType": "address"
        },
        {
          "name": "tokenId",
          "type": "uint64",
          "internalType": "uint64"
        }
      ]
    },
    {
      "type": "error",
      "name": "HyperLiquidComposer_FailedToRefund_HYPE",
      "inputs": [
        {
          "name": "to",
          "type": "address",
          "internalType": "address"
        },
        {
          "name": "amount",
          "type": "uint256",
          "internalType": "uint256"
        }
      ]
    },
    {
      "type": "error",
      "name": "HyperLiquidComposer_InvalidCall_NotComposer",
      "inputs": [
        {
          "name": "notComposerAddress",
          "type": "address",
          "internalType": "address"
        }
      ]
    }
  ],
  "bytecode": {
    "object": "0x60e060405234801561000f575f80fd5b5060805160a05160c0516115ae6100415f395f818161056101526108db01525f6103b401525f61026b01526115ae5ff3fe608060405260043610610109575f3560e01c80639278d99a116100a1578063dd85007511610071578063f6e6b24011610057578063f6e6b240146104ae578063f9716faf14610505578063fc0c546a14610550575f80fd5b8063dd85007514610474578063ebaeefd61461049b575f80fd5b80639278d99a1461038f5780639b5215f6146103a3578063aae12e46146103d6578063ba8726791461045f575f80fd5b8063765008a1116100dc578063765008a11461028d578063807d6c3f1461032057806381e8dcb4146103425780638483bc001461037a575f80fd5b80631b2248311461010d5780632d0e315c146101445780635241b496146102165780635e280f111461025a575b5f80fd5b348015610118575f80fd5b5061012c610127366004610e22565b610583565b60405161013b93929190610ef9565b60405180910390f35b34801561014f575f80fd5b506101cc604080516060810182525f808252602082018190529181019190915250604080516060810182525f5473ffffffffffffffffffffffffffffffffffffffff8116825267ffffffffffffffff7401000000000000000000000000000000000000000090910481166020830152600154169181019190915290565b60408051825173ffffffffffffffffffffffffffffffffffffffff16815260208084015167ffffffffffffffff90811691830191909152928201519092169082015260600161013b565b348015610221575f80fd5b50610235610230366004610f93565b6105bb565b60405173ffffffffffffffffffffffffffffffffffffffff909116815260200161013b565b348015610265575f80fd5b506102357f000000000000000000000000000000000000000000000000000000000000000081565b348015610298575f80fd5b505f546001546102e39173ffffffffffffffffffffffffffffffffffffffff81169167ffffffffffffffff740100000000000000000000000000000000000000009092048216911683565b6040805173ffffffffffffffffffffffffffffffffffffffff909416845267ffffffffffffffff928316602085015291169082015260600161013b565b34801561032b575f80fd5b50610334601481565b60405190815260200161013b565b34801561034d575f80fd5b5061036161035c36600461108d565b6106f5565b60405167ffffffffffffffff909116815260200161013b565b61038d6103883660046110c2565b610709565b005b34801561039a575f80fd5b50610334602081565b3480156103ae575f80fd5b506102357f000000000000000000000000000000000000000000000000000000000000000081565b3480156103e1575f80fd5b506101cc604080516060810182525f8082526020820181905291810191909152506040805160608101825260025473ffffffffffffffffffffffffffffffffffffffff8116825267ffffffffffffffff7401000000000000000000000000000000000000000090910481166020830152600354169181019190915290565b34801561046a575f80fd5b5061023561080181565b34801561047f575f80fd5b5061023573333333333333333333333333333333333333333381565b61038d6104a93660046110db565b61082b565b3480156104b9575f80fd5b506002546003546102e39173ffffffffffffffffffffffffffffffffffffffff81169167ffffffffffffffff740100000000000000000000000000000000000000009092048216911683565b348015610510575f80fd5b5061052461051f366004611110565b610949565b6040805182518152602080840151908201529181015167ffffffffffffffff169082015260600161013b565b34801561055b575f80fd5b506102357f000000000000000000000000000000000000000000000000000000000000000081565b5f8060605f6105928686610a82565b90505f61059f8787610a9a565b90505f6105ac8888610aa9565b92989197509195509350505050565b5f806105c684610af3565b90505f6105d286610b1e565b905073ffffffffffffffffffffffffffffffffffffffff81166106ec5785516040515f917f09b347310000000000000000000000000000000000000000000000000000000091610626918a91602401611133565b604080517fffffffffffffffffffffffffffffffffffffffffffffffffffffffffffffffe08184030181529190526020810180517bffffffffffffffffffffffffffffffffffffffffffffffffffffffff167fffffffff000000000000000000000000000000000000000000000000000000009093169290921790915290506106b0818487610b81565b6040517f4f9520330000000000000000000000000000000000000000000000000000000081526004016106e39190611154565b60405180910390fd5b95945050505050565b5f6107008383610bdc565b90505b92915050565b333014610744576040517f5950c85e0000000000000000000000000000000000000000000000000000000081523360048201526024016106e3565b3415610828575f73ffffffffffffffffffffffffffffffffffffffff82161561076d578161076f565b325b90505f8173ffffffffffffffffffffffffffffffffffffffff16346040515f6040518083038185875af1925050503d805f81146107c7576040519150601f19603f3d011682016040523d82523d5f602084013e6107cc565b606091505b5050905080610825576040517fc8ee485e00000000000000000000000000000000000000000000000000000000815273ffffffffffffffffffffffffffffffffffffffff831660048201523460248201526044016106e3565b50505b50565b333014610866576040517f5950c85e0000000000000000000000000000000000000000000000000000000081523360048201526024016106e3565b5f8111801561088a575073ffffffffffffffffffffffffffffffffffffffff821615155b15610945576040517fa9059cbb00000000000000000000000000000000000000000000000000000000815273ffffffffffffffffffffffffffffffffffffffff8381166004830152602482018390527f0000000000000000000000000000000000000000000000000000000000000000169063a9059cbb906044016020604051808303815f875af1158015610921573d5f803e3d5ffd5b505050506040513d601f19601f820116820180604052508101906108259190611166565b5050565b61097460405180606001604052805f81526020015f81526020015f67ffffffffffffffff1681525090565b604080516060810182525f80825260208201819052918101829052908315610a0857604080516060810182525f5473ffffffffffffffffffffffffffffffffffffffff811680835267ffffffffffffffff7401000000000000000000000000000000000000000090920482166020840181905260015490921693830193909352909350610a019190610bdc565b9050610a77565b6040805160608101825260025473ffffffffffffffffffffffffffffffffffffffff811680835267ffffffffffffffff7401000000000000000000000000000000000000000090920482166020840181905260035490921693830193909352909350610a749190610bdc565b90505b6106ec858284610cf0565b5f610a91602c600c8486611188565b610700916111af565b5f610a91604c602c8486611188565b6060610ab882604c8186611188565b8080601f0160208091040260200160405190810160405280939291908181526020018383808284375f92019190915250929695505050505050565b5f8173ffffffffffffffffffffffffffffffffffffffff8111610b165792915050565b505f92915050565b80515f907fffffffffffffffffffffffffffffffffffffffffffffffffffffffffffffffec8101610b5c57610b52836111eb565b60601c9392505050565b60208103610b16575f610b6e8461123a565b9050610b7981610af3565b949350505050565b606060405180606001604052808473ffffffffffffffffffffffffffffffffffffffff16815260200183815260200185815250604051602001610bc4919061127f565b60405160208183030381529060405290509392505050565b6040805173ffffffffffffffffffffffffffffffffffffffff8416602082015267ffffffffffffffff8316818301528151808203830181526060918201928390525f9283929161080191610c3091906112c3565b5f60405180830381855afa9150503d805f8114610c68576040519150601f19603f3d011682016040523d82523d5f602084013e610c6d565b606091505b50909250905081610cd2576040517fa91ed72100000000000000000000000000000000000000000000000000000000815273ffffffffffffffffffffffffffffffffffffffff8616600482015267ffffffffffffffff851660248201526044016106e3565b80806020019051810190610ce691906112de565b5195945050505050565b610d1b60405180606001604052805f81526020015f81526020015f67ffffffffffffffff1681525090565b5f8260400151600a610d2d9190611499565b90505f80828781610d4057610d406114ae565b069150508086035f610d5284896114db565b90508667ffffffffffffffff168167ffffffffffffffff161115610df3576040805167ffffffffffffffff8084168252891660208201527ff17459c2e89c2b011fa739accb3b853858d0a689d31382b9aa4f56a1ca00f9d3910160405180910390a15f84610dc08984611513565b67ffffffffffffffff16610dd4919061153b565b8892509050610de38184611552565b9250610def8185611565565b9350505b60408051606081018252928352602083019390935267ffffffffffffffff169181019190915295945050505050565b5f8060208385031215610e33575f80fd5b823567ffffffffffffffff80821115610e4a575f80fd5b818501915085601f830112610e5d575f80fd5b813581811115610e6b575f80fd5b866020828501011115610e7c575f80fd5b60209290920196919550909350505050565b5f5b83811015610ea8578181015183820152602001610e90565b50505f910152565b5f8151808452610ec7816020860160208601610e8e565b601f017fffffffffffffffffffffffffffffffffffffffffffffffffffffffffffffffe0169290920160200192915050565b838152826020820152606060408201525f6106ec6060830184610eb0565b7f4e487b71000000000000000000000000000000000000000000000000000000005f52604160045260245ffd5b604051601f82017fffffffffffffffffffffffffffffffffffffffffffffffffffffffffffffffe016810167ffffffffffffffff81118282101715610f8b57610f8b610f17565b604052919050565b5f805f60608486031215610fa5575f80fd5b833567ffffffffffffffff80821115610fbc575f80fd5b818601915086601f830112610fcf575f80fd5b8135602082821115610fe357610fe3610f17565b611013817fffffffffffffffffffffffffffffffffffffffffffffffffffffffffffffffe0601f85011601610f44565b92508183528881838601011115611028575f80fd5b81818501828501375f9183018101919091529097908601359650604090950135949350505050565b803573ffffffffffffffffffffffffffffffffffffffff81168114611073575f80fd5b919050565b67ffffffffffffffff81168114610828575f80fd5b5f806040838503121561109e575f80fd5b6110a783611050565b915060208301356110b781611078565b809150509250929050565b5f602082840312156110d2575f80fd5b61070082611050565b5f80604083850312156110ec575f80fd5b6110f583611050565b946020939093013593505050565b8015158114610828575f80fd5b5f8060408385031215611121575f80fd5b8235915060208301356110b781611103565b604081525f6111456040830185610eb0565b90508260208301529392505050565b602081525f6107006020830184610eb0565b5f60208284031215611176575f80fd5b815161118181611103565b9392505050565b5f8085851115611196575f80fd5b838611156111a2575f80fd5b5050820193919092039150565b80356020831015610703577fffffffffffffffffffffffffffffffffffffffffffffffffffffffffffffffff602084900360031b1b1692915050565b5f815160208301517fffffffffffffffffffffffffffffffffffffffff000000000000000000000000808216935060148310156112325780818460140360031b1b83161693505b505050919050565b80516020808301519190811015611279577fffffffffffffffffffffffffffffffffffffffffffffffffffffffffffffffff8160200360031b1b821691505b50919050565b6020815273ffffffffffffffffffffffffffffffffffffffff8251166020820152602082015160408201525f6040830151606080840152610b796080840182610eb0565b5f82516112d4818460208701610e8e565b9190910192915050565b5f606082840312156112ee575f80fd5b6040516060810181811067ffffffffffffffff8211171561131157611311610f17565b604052825161131f81611078565b8152602083015161132f81611078565b6020820152604083015161134281611078565b60408201529392505050565b7f4e487b71000000000000000000000000000000000000000000000000000000005f52601160045260245ffd5b600181815b808511156113d457817fffffffffffffffffffffffffffffffffffffffffffffffffffffffffffffffff048211156113ba576113ba61134e565b808516156113c757918102915b93841c9390800290611380565b509250929050565b5f826113ea57506001610703565b816113f657505f610703565b816001811461140c576002811461141657611432565b6001915050610703565b60ff8411156114275761142761134e565b50506001821b610703565b5060208310610133831016604e8410600b8410161715611455575081810a610703565b61145f838361137b565b807fffffffffffffffffffffffffffffffffffffffffffffffffffffffffffffffff048211156114915761149161134e565b029392505050565b5f61070067ffffffffffffffff8416836113dc565b7f4e487b71000000000000000000000000000000000000000000000000000000005f52601260045260245ffd5b5f8261150e577f4e487b71000000000000000000000000000000000000000000000000000000005f52601260045260245ffd5b500490565b67ffffffffffffffff8281168282160390808211156115345761153461134e565b5092915050565b80820281158282048414176107035761070361134e565b818103818111156107035761070361134e565b808201808211156107035761070361134e56fea2646970667358221220c139876e7d4fe84121ac638b6d590a2704effddc76bbe249ef5a24f2f011bf4764736f6c63430008160033",
    "linkReferences": {}
  },
  "methodIdentifiers": {
    "HLP_PRECOMPILE_READ_SPOT_BALANCE()": "ba872679",
    "HLP_PRECOMPILE_WRITE()": "dd850075",
    "VALID_COMPOSE_MESSAGE_LENGTH_ENCODE()": "9278d99a",
    "VALID_COMPOSE_MESSAGE_LENGTH_PACKED()": "807d6c3f",
    "balanceOfHyperCore(address,uint64)": "81e8dcb4",
    "endpoint()": "5e280f11",
    "getHypeAsset()": "aae12e46",
    "getOFTAsset()": "2d0e315c",
    "hypeAsset()": "f6e6b240",
    "oft()": "9b5215f6",
    "oftAsset()": "765008a1",
    "quoteHyperCoreAmount(uint256,bool)": "f9716faf",
    "refundERC20(address,uint256)": "ebaeefd6",
    "refundNativeTokens(address)": "8483bc00",
    "token()": "fc0c546a",
    "validate_addresses_or_refund(bytes,bytes32,uint256)": "5241b496",
    "validate_payload(bytes)": "1b224831"
  },
  "id": 1
}