{
  "abi": [
    {
      "type": "constructor",
      "inputs": [
        {
          "name": "_endpoint",
          "type": "address",
          "internalType": "address"
        },
        {
          "name": "_oft",
          "type": "address",
          "internalType": "address"
        }
      ],
      "stateMutability": "nonpayable"
    },
    {
      "type": "function",
      "name": "CORE_WRITER_VERSION",
      "inputs": [],
      "outputs": [
        {
          "name": "",
          "type": "bytes",
          "internalType": "bytes"
        }
      ],
      "stateMutability": "view"
    },
    {
      "type": "function",
      "name": "HLP_CORE_WRITER",
      "inputs": [],
      "outputs": [
        {
          "name": "",
          "type": "address",
          "internalType": "address"
        }
      ],
      "stateMutability": "view"
    },
    {
      "type": "function",
      "name": "HLP_PRECOMPILE_READ_SPOT_BALANCE",
      "inputs": [],
      "outputs": [
        {
          "name": "",
          "type": "address",
          "internalType": "address"
        }
      ],
      "stateMutability": "view"
    },
    {
      "type": "function",
      "name": "HYPE_CHAIN_ID_MAINNET",
      "inputs": [],
      "outputs": [
        {
          "name": "",
          "type": "uint256",
          "internalType": "uint256"
        }
      ],
      "stateMutability": "view"
    },
    {
      "type": "function",
      "name": "HYPE_CHAIN_ID_TESTNET",
      "inputs": [],
      "outputs": [
        {
          "name": "",
          "type": "uint256",
          "internalType": "uint256"
        }
      ],
      "stateMutability": "view"
    },
    {
      "type": "function",
      "name": "HYPE_INDEX_MAINNET",
      "inputs": [],
      "outputs": [
        {
          "name": "",
          "type": "uint64",
          "internalType": "uint64"
        }
      ],
      "stateMutability": "view"
    },
    {
      "type": "function",
      "name": "HYPE_INDEX_TESTNET",
      "inputs": [],
      "outputs": [
        {
          "name": "",
          "type": "uint64",
          "internalType": "uint64"
        }
      ],
      "stateMutability": "view"
    },
    {
      "type": "function",
      "name": "REFUND_ADDRESS",
      "inputs": [],
      "outputs": [
        {
          "name": "",
          "type": "address",
          "internalType": "address"
        }
      ],
      "stateMutability": "view"
    },
    {
      "type": "function",
      "name": "SPOT_SEND_ACTION_ID",
      "inputs": [],
      "outputs": [
        {
          "name": "",
          "type": "bytes",
          "internalType": "bytes"
        }
      ],
      "stateMutability": "view"
    },
    {
      "type": "function",
      "name": "SPOT_SEND_HEADER",
      "inputs": [],
      "outputs": [
        {
          "name": "",
          "type": "bytes",
          "internalType": "bytes"
        }
      ],
      "stateMutability": "view"
    },
    {
      "type": "function",
      "name": "balanceOfHyperCore",
      "inputs": [
        {
          "name": "_user",
          "type": "address",
          "internalType": "address"
        },
        {
          "name": "_tokenId",
          "type": "uint64",
          "internalType": "uint64"
        }
      ],
      "outputs": [
        {
          "name": "",
          "type": "uint64",
          "internalType": "uint64"
        }
      ],
      "stateMutability": "view"
    },
    {
      "type": "function",
      "name": "decode_message",
      "inputs": [
        {
          "name": "_composeMessage",
          "type": "bytes",
          "internalType": "bytes"
        }
      ],
      "outputs": [
        {
          "name": "minMsgValue",
          "type": "uint256",
          "internalType": "uint256"
        },
        {
          "name": "receiver",
          "type": "address",
          "internalType": "address"
        }
      ],
      "stateMutability": "pure"
    },
    {
      "type": "function",
      "name": "endpoint",
      "inputs": [],
      "outputs": [
        {
          "name": "",
          "type": "address",
          "internalType": "address"
        }
      ],
      "stateMutability": "view"
    },
    {
      "type": "function",
      "name": "failedMessages",
      "inputs": [
        {
          "name": "",
          "type": "bytes32",
          "internalType": "bytes32"
        }
      ],
      "outputs": [
        {
          "name": "refundSendParam",
          "type": "tuple",
          "internalType": "struct SendParam",
          "components": [
            {
              "name": "dstEid",
              "type": "uint32",
              "internalType": "uint32"
            },
            {
              "name": "to",
              "type": "bytes32",
              "internalType": "bytes32"
            },
            {
              "name": "amountLD",
              "type": "uint256",
              "internalType": "uint256"
            },
            {
              "name": "minAmountLD",
              "type": "uint256",
              "internalType": "uint256"
            },
            {
              "name": "extraOptions",
              "type": "bytes",
              "internalType": "bytes"
            },
            {
              "name": "composeMsg",
              "type": "bytes",
              "internalType": "bytes"
            },
            {
              "name": "oftCmd",
              "type": "bytes",
              "internalType": "bytes"
            }
          ]
        },
        {
          "name": "msgValue",
          "type": "uint256",
          "internalType": "uint256"
        }
      ],
      "stateMutability": "view"
    },
    {
      "type": "function",
      "name": "getErrorPayload",
      "inputs": [
        {
          "name": "_err",
          "type": "bytes",
          "internalType": "bytes"
        }
      ],
      "outputs": [
        {
          "name": "",
          "type": "bytes",
          "internalType": "bytes"
        }
      ],
      "stateMutability": "pure"
    },
    {
      "type": "function",
      "name": "getHypeAsset",
      "inputs": [],
      "outputs": [
        {
          "name": "",
          "type": "tuple",
          "internalType": "struct IHyperAsset",
          "components": [
            {
              "name": "assetBridgeAddress",
              "type": "address",
              "internalType": "address"
            },
            {
              "name": "coreIndexId",
              "type": "uint64",
              "internalType": "uint64"
            },
            {
              "name": "decimalDiff",
              "type": "int64",
              "internalType": "int64"
            }
          ]
        }
      ],
      "stateMutability": "view"
    },
    {
      "type": "function",
      "name": "getOFTAsset",
      "inputs": [],
      "outputs": [
        {
          "name": "",
          "type": "tuple",
          "internalType": "struct IHyperAsset",
          "components": [
            {
              "name": "assetBridgeAddress",
              "type": "address",
              "internalType": "address"
            },
            {
              "name": "coreIndexId",
              "type": "uint64",
              "internalType": "uint64"
            },
            {
              "name": "decimalDiff",
              "type": "int64",
              "internalType": "int64"
            }
          ]
        }
      ],
      "stateMutability": "view"
    },
    {
      "type": "function",
      "name": "hypeAsset",
      "inputs": [],
      "outputs": [
        {
          "name": "assetBridgeAddress",
          "type": "address",
          "internalType": "address"
        },
        {
          "name": "coreIndexId",
          "type": "uint64",
          "internalType": "uint64"
        },
        {
          "name": "decimalDiff",
          "type": "int64",
          "internalType": "int64"
        }
      ],
      "stateMutability": "view"
    },
    {
      "type": "function",
      "name": "hypeIndexByChainId",
      "inputs": [
        {
          "name": "",
          "type": "uint256",
          "internalType": "uint256"
        }
      ],
      "outputs": [
        {
          "name": "",
          "type": "uint64",
          "internalType": "uint64"
        }
      ],
      "stateMutability": "view"
    },
    {
      "type": "function",
      "name": "oft",
      "inputs": [],
      "outputs": [
        {
          "name": "",
          "type": "address",
          "internalType": "contract IOFT"
        }
      ],
      "stateMutability": "view"
    },
    {
      "type": "function",
      "name": "oftAsset",
      "inputs": [],
      "outputs": [
        {
          "name": "assetBridgeAddress",
          "type": "address",
          "internalType": "address"
        },
        {
          "name": "coreIndexId",
          "type": "uint64",
          "internalType": "uint64"
        },
        {
          "name": "decimalDiff",
          "type": "int64",
          "internalType": "int64"
        }
      ],
      "stateMutability": "view"
    },
    {
      "type": "function",
      "name": "quoteHyperCoreAmount",
      "inputs": [
        {
          "name": "_amount",
          "type": "uint256",
          "internalType": "uint256"
        },
        {
          "name": "_isOFT",
          "type": "bool",
          "internalType": "bool"
        }
      ],
      "outputs": [
        {
          "name": "",
          "type": "tuple",
          "internalType": "struct IHyperAssetAmount",
          "components": [
            {
              "name": "evm",
              "type": "uint256",
              "internalType": "uint256"
            },
            {
              "name": "dust",
              "type": "uint256",
              "internalType": "uint256"
            },
            {
              "name": "core",
              "type": "uint64",
              "internalType": "uint64"
            }
          ]
        }
      ],
      "stateMutability": "view"
    },
    {
      "type": "function",
      "name": "refund",
      "inputs": [
        {
          "name": "_guid",
          "type": "bytes32",
          "internalType": "bytes32"
        }
      ],
      "outputs": [],
      "stateMutability": "payable"
    },
    {
      "type": "function",
      "name": "refundERC20",
      "inputs": [
        {
          "name": "_refundAddress",
          "type": "address",
          "internalType": "address"
        },
        {
          "name": "_amount",
          "type": "uint256",
          "internalType": "uint256"
        }
      ],
      "outputs": [],
      "stateMutability": "nonpayable"
    },
    {
      "type": "function",
      "name": "refundNativeTokens",
      "inputs": [
        {
          "name": "_refundAddress",
          "type": "address",
          "internalType": "address"
        }
      ],
      "outputs": [],
      "stateMutability": "payable"
    },
    {
      "type": "function",
      "name": "token",
      "inputs": [],
      "outputs": [
        {
          "name": "",
          "type": "address",
          "internalType": "contract IERC20"
        }
      ],
      "stateMutability": "view"
    },
    {
      "type": "event",
      "name": "ErrorERC20_Refund",
      "inputs": [
        {
          "name": "refundTo",
          "type": "address",
          "indexed": false,
          "internalType": "address"
        },
        {
          "name": "refundAmount",
          "type": "uint256",
          "indexed": false,
          "internalType": "uint256"
        }
      ],
      "anonymous": false
    },
    {
      "type": "event",
      "name": "ErrorHYPE_Refund",
      "inputs": [
        {
          "name": "refundTo",
          "type": "address",
          "indexed": false,
          "internalType": "address"
        },
        {
          "name": "refundAmount",
          "type": "uint256",
          "indexed": false,
          "internalType": "uint256"
        }
      ],
      "anonymous": false
    },
    {
      "type": "event",
      "name": "ErrorMessage",
      "inputs": [
        {
          "name": "reason",
          "type": "bytes",
          "indexed": false,
          "internalType": "bytes"
        }
      ],
      "anonymous": false
    },
    {
      "type": "event",
      "name": "ErrorSpot_FailedToSend",
      "inputs": [
        {
          "name": "to",
          "type": "address",
          "indexed": false,
          "internalType": "address"
        },
        {
          "name": "tokenId",
          "type": "uint64",
          "indexed": false,
          "internalType": "uint64"
        },
        {
          "name": "amount",
          "type": "uint256",
          "indexed": false,
          "internalType": "uint256"
        },
        {
          "name": "errorMessage",
          "type": "bytes",
          "indexed": false,
          "internalType": "bytes"
        }
      ],
      "anonymous": false
    },
    {
      "type": "event",
      "name": "ExcessHYPE_Refund",
      "inputs": [
        {
          "name": "refundTo",
          "type": "address",
          "indexed": false,
          "internalType": "address"
        },
        {
          "name": "refundAmount",
          "type": "uint256",
          "indexed": false,
          "internalType": "uint256"
        }
      ],
      "anonymous": false
    },
    {
      "type": "event",
      "name": "FailedMessageDecode",
      "inputs": [
        {
          "name": "guid",
          "type": "bytes32",
          "indexed": true,
          "internalType": "bytes32"
        },
        {
          "name": "sender",
          "type": "bytes32",
          "indexed": false,
          "internalType": "bytes32"
        },
        {
          "name": "msgValue",
          "type": "uint256",
          "indexed": false,
          "internalType": "uint256"
        },
        {
          "name": "composeMessage",
          "type": "bytes",
          "indexed": false,
          "internalType": "bytes"
        }
      ],
      "anonymous": false
    },
    {
      "type": "event",
      "name": "RefundSuccessful",
      "inputs": [
        {
          "name": "guid",
          "type": "bytes32",
          "indexed": true,
          "internalType": "bytes32"
        }
      ],
      "anonymous": false
    },
    {
      "type": "error",
      "name": "FailedMessageNotFound",
      "inputs": [
        {
          "name": "guid",
          "type": "bytes32",
          "internalType": "bytes32"
        }
      ]
    },
    {
      "type": "error",
      "name": "HyperLiquidComposerCore_SpotBalanceRead_Failed",
      "inputs": [
        {
          "name": "user",
          "type": "address",
          "internalType": "address"
        },
        {
          "name": "tokenId",
          "type": "uint64",
          "internalType": "uint64"
        }
      ]
    },
    {
      "type": "error",
      "name": "HyperLiquidComposer_ComposeMsgNot64Byte",
      "inputs": [
        {
          "name": "composeMessage",
          "type": "bytes",
          "internalType": "bytes"
        },
        {
          "name": "length",
          "type": "uint256",
          "internalType": "uint256"
        }
      ]
    },
    {
      "type": "error",
      "name": "HyperLiquidComposer_FailedToRefund_HYPE",
      "inputs": [
        {
          "name": "to",
          "type": "address",
          "internalType": "address"
        },
        {
          "name": "amount",
          "type": "uint256",
          "internalType": "uint256"
        }
      ]
    },
    {
      "type": "error",
      "name": "HyperLiquidComposer_InvalidArgument_EndpointShouldNotBeZeroAddress",
      "inputs": [
        {
          "name": "receivedEndpointAddress",
          "type": "address",
          "internalType": "address"
        }
      ]
    },
    {
      "type": "error",
      "name": "HyperLiquidComposer_InvalidCall_NotComposer",
      "inputs": [
        {
          "name": "notComposerAddress",
          "type": "address",
          "internalType": "address"
        }
      ]
    },
    {
      "type": "error",
      "name": "SafeERC20FailedOperation",
      "inputs": [
        {
          "name": "token",
          "type": "address",
          "internalType": "address"
        }
      ]
    }
  ],
  "bytecode": {
    "object": "0x61010060405234801562000011575f80fd5b506040516200204a3803806200204a83398101604081905262000034916200017d565b6001600160a01b0382166200006b5760405163fb82c1f160e01b81526001600160a01b038316600482015260240160405180910390fd5b6001600160a01b03808316608052811660a081905260408051637e062a3560e11b8152905163fc0c546a916004808201926020929091908290030181865afa158015620000ba573d5f803e3d5ffd5b505050506040513d601f19601f82011682018060405250810190620000e09190620001b3565b6001600160a01b031660c05250505f60208190527f2802b8ca0a4d9948ac89ce9ba15f4015f0f68c52469c4df23bbaf374f1d4604080546001600160401b0319908116610451179091556103e79091527f332eac5de6beffe8ee7761a0342c75594c3acb5fdde0a2555227e56aa65d414180549091166096179055620001d6565b80516001600160a01b038116811462000178575f80fd5b919050565b5f80604083850312156200018f575f80fd5b6200019a8362000161565b9150620001aa6020840162000161565b90509250929050565b5f60208284031215620001c4575f80fd5b620001cf8262000161565b9392505050565b60805160a05160c05160e051611e2b6200021f5f395f818161067b0152610bbc01525f8181610751015261100001525f81816105350152610b8d01525f6103d90152611e2b5ff3fe608060405260043610610199575f3560e01c80638483bc00116100dc578063d00b1ad511610087578063f6e6b24011610062578063f6e6b2401461069d578063f9716faf146106f5578063fc0c546a14610740578063fdea048214610773575f80fd5b8063d00b1ad514610637578063ebaeefd61461064b578063f1ae0e9b1461066a575f80fd5b8063aae12e46116100b7578063aae12e4614610584578063ba8726791461060d578063bc963bc714610622575f80fd5b80638483bc00146105115780639b5215f614610524578063a4e7f8bd14610557575f80fd5b80634bd162df116101475780637249fbb6116101225780637249fbb614610420578063765008a1146104355780637ecd9ac3146104cb57806381e8dcb4146104f2575f80fd5b80634bd162df146103655780635b9a2373146103b35780635e280f11146103c8575f80fd5b806320d9af9a1161017757806320d9af9a1461022c57806322dbe29c1461024f5780632d0e315c14610297575f80fd5b806303be20501461019d5780630d1995e0146101d25780631f8164d914610218575b5f80fd5b3480156101a8575f80fd5b506101bc6101b7366004611672565b6107bc565b6040516101c99190611749565b60405180910390f35b3480156101dd575f80fd5b506101bc6040518060400160405280600381526020017d06000000000000000000000000000000000000000000000000000000000081525081565b348015610223575f80fd5b506101bc6107d1565b348015610237575f80fd5b506102416103e681565b6040519081526020016101c9565b34801561025a575f80fd5b506101bc6040518060400160405280600181526020017f010000000000000000000000000000000000000000000000000000000000000081525081565b3480156102a2575f80fd5b50610320604080516060810182525f8082526020820181905291810191909152506040805160608101825260025473ffffffffffffffffffffffffffffffffffffffff8116825274010000000000000000000000000000000000000000900467ffffffffffffffff16602082015260035460070b9181019190915290565b60408051825173ffffffffffffffffffffffffffffffffffffffff16815260208084015167ffffffffffffffff16908201529181015160070b908201526060016101c9565b348015610370575f80fd5b5061039a61037f36600461175b565b5f6020819052908152604090205467ffffffffffffffff1681565b60405167ffffffffffffffff90911681526020016101c9565b3480156103be575f80fd5b506102416103e781565b3480156103d3575f80fd5b506103fb7f000000000000000000000000000000000000000000000000000000000000000081565b60405173ffffffffffffffffffffffffffffffffffffffff90911681526020016101c9565b61043361042e36600461175b565b610855565b005b348015610440575f80fd5b5060025460035461048d9173ffffffffffffffffffffffffffffffffffffffff8116917401000000000000000000000000000000000000000090910467ffffffffffffffff169060070b83565b6040805173ffffffffffffffffffffffffffffffffffffffff909416845267ffffffffffffffff909216602084015260070b908201526060016101c9565b3480156104d6575f80fd5b506103fb73333333333333333333333333333333333333333381565b3480156104fd575f80fd5b5061039a61050c3660046117a8565b610c56565b61043361051f3660046117df565b610c61565b34801561052f575f80fd5b506103fb7f000000000000000000000000000000000000000000000000000000000000000081565b348015610562575f80fd5b5061057661057136600461175b565b610d7e565b6040516101c9929190611876565b34801561058f575f80fd5b50610320604080516060810182525f8082526020820181905291810191909152506040805160608101825260045473ffffffffffffffffffffffffffffffffffffffff8116825274010000000000000000000000000000000000000000900467ffffffffffffffff16602082015260055460070b9181019190915290565b348015610618575f80fd5b506103fb61080181565b34801561062d575f80fd5b5061039a61045181565b348015610642575f80fd5b5061039a609681565b348015610656575f80fd5b50610433610665366004611897565b610f82565b348015610675575f80fd5b506103fb7f000000000000000000000000000000000000000000000000000000000000000081565b3480156106a8575f80fd5b5060045460055461048d9173ffffffffffffffffffffffffffffffffffffffff8116917401000000000000000000000000000000000000000090910467ffffffffffffffff169060070b83565b348015610700575f80fd5b5061071461070f3660046118c1565b611027565b6040805182518152602080840151908201529181015167ffffffffffffffff16908201526060016101c9565b34801561074b575f80fd5b506103fb7f000000000000000000000000000000000000000000000000000000000000000081565b34801561077e575f80fd5b5061079261078d366004611672565b611166565b6040805192835273ffffffffffffffffffffffffffffffffffffffff9091166020830152016101c9565b60606107c883836111bf565b90505b92915050565b604080518082018252600181527f010000000000000000000000000000000000000000000000000000000000000060208083019190915282518084018452600381527d0600000000000000000000000000000000000000000000000000000000008183015292516108439391016118e8565b60405160208183030381529060405281565b5f818152600160208190526040808320815161012081018352815463ffffffff1692810192835292810154606084015260028101546080840152600381015460a0840152600481018054919284929091849160c0850191906108b690611916565b80601f01602080910402602001604051908101604052809291908181526020018280546108e290611916565b801561092d5780601f106109045761010080835404028352916020019161092d565b820191905f5260205f20905b81548152906001019060200180831161091057829003601f168201915b5050505050815260200160058201805461094690611916565b80601f016020809104026020016040519081016040528092919081815260200182805461097290611916565b80156109bd5780601f10610994576101008083540402835291602001916109bd565b820191905f5260205f20905b8154815290600101906020018083116109a057829003601f168201915b505050505081526020016006820180546109d690611916565b80601f0160208091040260200160405190810160405280929190818152602001828054610a0290611916565b8015610a4d5780601f10610a2457610100808354040283529160200191610a4d565b820191905f5260205f20905b815481529060010190602001808311610a3057829003601f168201915b5050509190925250505081526007919091015460209182015281510151909150610aab576040517f0b948634000000000000000000000000000000000000000000000000000000008152600481018390526024015b60405180910390fd5b5f828152600160208190526040822080547fffffffffffffffffffffffffffffffffffffffffffffffffffffffff000000001681559081018290556002810182905560038101829055908181610b046004830182611628565b610b11600583015f611628565b610b1e600683015f611628565b5050600782015f905550505f348260200151610b3a919061198e565b82516040805180820182528381525f602082015290517fc7c7f5b300000000000000000000000000000000000000000000000000000000815292935073ffffffffffffffffffffffffffffffffffffffff7f0000000000000000000000000000000000000000000000000000000000000000169263c7c7f5b3928592610be4927f0000000000000000000000000000000000000000000000000000000000000000906004016119a1565b60c06040518083038185885af1158015610c00573d5f803e3d5ffd5b50505050506040513d601f19601f82011682018060405250810190610c259190611aaa565b505060405183907fd41d02272333251e6367f747c63d5cc227dcac6b0c799067569e80a30f9da369905f90a2505050565b5f6107c88383611209565b333014610c9c576040517f5950c85e000000000000000000000000000000000000000000000000000000008152336004820152602401610aa2565b5f34118015610cc0575073ffffffffffffffffffffffffffffffffffffffff811615155b15610d7b575f8173ffffffffffffffffffffffffffffffffffffffff16346040515f6040518083038185875af1925050503d805f8114610d1b576040519150601f19603f3d011682016040523d82523d5f602084013e610d20565b606091505b5050905080610d79576040517fc8ee485e00000000000000000000000000000000000000000000000000000000815273ffffffffffffffffffffffffffffffffffffffff83166004820152346024820152604401610aa2565b505b50565b600160208181525f928352604092839020835160e081018552815463ffffffff16815292810154918301919091526002810154928201929092526003820154606082015260048201805483916080840191610dd890611916565b80601f0160208091040260200160405190810160405280929190818152602001828054610e0490611916565b8015610e4f5780601f10610e2657610100808354040283529160200191610e4f565b820191905f5260205f20905b815481529060010190602001808311610e3257829003601f168201915b50505050508152602001600582018054610e6890611916565b80601f0160208091040260200160405190810160405280929190818152602001828054610e9490611916565b8015610edf5780601f10610eb657610100808354040283529160200191610edf565b820191905f5260205f20905b815481529060010190602001808311610ec257829003601f168201915b50505050508152602001600682018054610ef890611916565b80601f0160208091040260200160405190810160405280929190818152602001828054610f2490611916565b8015610f6f5780601f10610f4657610100808354040283529160200191610f6f565b820191905f5260205f20905b815481529060010190602001808311610f5257829003601f168201915b5050509190925250505060079091015482565b333014610fbd576040517f5950c85e000000000000000000000000000000000000000000000000000000008152336004820152602401610aa2565b5f81118015610fe1575073ffffffffffffffffffffffffffffffffffffffff821615155b15610d7957610d7973ffffffffffffffffffffffffffffffffffffffff7f000000000000000000000000000000000000000000000000000000000000000016838361131d565b61105260405180606001604052805f81526020015f81526020015f67ffffffffffffffff1681525090565b604080516060810182525f808252602082018190529181018290529083156110e5576040805160608101825260025473ffffffffffffffffffffffffffffffffffffffff81168083527401000000000000000000000000000000000000000090910467ffffffffffffffff166020830181905260035460070b938301939093529093506110de91611209565b9050611152565b6040805160608101825260045473ffffffffffffffffffffffffffffffffffffffff81168083527401000000000000000000000000000000000000000090910467ffffffffffffffff166020830181905260055460070b9383019390935290935061114f91611209565b90505b61115d8582846113af565b95945050505050565b5f80604083146111a8576040517f741c7e80000000000000000000000000000000000000000000000000000000008152610aa290859085908190600401611b13565b6111b483850185611b68565b909590945092505050565b60606111ce8260448186611b8b565b8080601f0160208091040260200160405190810160405280939291908181526020018383808284375f92019190915250929695505050505050565b6040805173ffffffffffffffffffffffffffffffffffffffff8416602082015267ffffffffffffffff8316818301528151808203830181526060918201928390525f928392916108019161125d9190611bb2565b5f60405180830381855afa9150503d805f8114611295576040519150601f19603f3d011682016040523d82523d5f602084013e61129a565b606091505b509092509050816112ff576040517fa91ed72100000000000000000000000000000000000000000000000000000000815273ffffffffffffffffffffffffffffffffffffffff8616600482015267ffffffffffffffff85166024820152604401610aa2565b808060200190518101906113139190611bcd565b5195945050505050565b6040805173ffffffffffffffffffffffffffffffffffffffff8416602482015260448082018490528251808303909101815260649091019091526020810180517bffffffffffffffffffffffffffffffffffffffffffffffffffffffff167fa9059cbb000000000000000000000000000000000000000000000000000000001790526113aa90849061148a565b505050565b6113da60405180606001604052805f81526020015f81526020015f67ffffffffffffffff1681525090565b5f805f806113f08767ffffffffffffffff61152f565b90505f866040015160070b131561141c5761141088828860400151611557565b9195509350915061145e565b611456888288604001517fffffffffffffffffffffffffffffffffffffffffffffffffffffffffffffffff6114519190611c1f565b6115d0565b919550935091505b5060408051606081018252938452602084019290925267ffffffffffffffff1690820152949350505050565b5f8060205f8451602086015f885af1806114a9576040513d5f823e3d81fd5b50505f513d915081156114c05780600114156114da565b73ffffffffffffffffffffffffffffffffffffffff84163b155b15611529576040517f5274afe700000000000000000000000000000000000000000000000000000000815273ffffffffffffffffffffffffffffffffffffffff85166004820152602401610aa2565b50505050565b5f8167ffffffffffffffff168367ffffffffffffffff161161155157826107c8565b50919050565b5f80808061156685600a611d63565b90505f61157d8267ffffffffffffffff8916611d78565b90506115898289611dbc565b93506115958489611dcf565b97506115a1888261161a565b94506115ad8589611dcf565b6115b7908561198e565b93506115c38286611de2565b9250505093509350939050565b5f8080806115df85600a611d63565b90505f6115f68267ffffffffffffffff8916611de2565b9050611602888261161a565b945061160e8589611dcf565b93506115c38286611d78565b5f81831161155157826107c8565b50805461163490611916565b5f825580601f10611643575050565b601f0160209004905f5260205f2090810190610d7b91905b8082111561166e575f815560010161165b565b5090565b5f8060208385031215611683575f80fd5b823567ffffffffffffffff8082111561169a575f80fd5b818501915085601f8301126116ad575f80fd5b8135818111156116bb575f80fd5b8660208285010111156116cc575f80fd5b60209290920196919550909350505050565b5f5b838110156116f85781810151838201526020016116e0565b50505f910152565b5f81518084526117178160208601602086016116de565b601f017fffffffffffffffffffffffffffffffffffffffffffffffffffffffffffffffe0169290920160200192915050565b602081525f6107c86020830184611700565b5f6020828403121561176b575f80fd5b5035919050565b73ffffffffffffffffffffffffffffffffffffffff81168114610d7b575f80fd5b67ffffffffffffffff81168114610d7b575f80fd5b5f80604083850312156117b9575f80fd5b82356117c481611772565b915060208301356117d481611793565b809150509250929050565b5f602082840312156117ef575f80fd5b81356117fa81611772565b9392505050565b63ffffffff81511682526020810151602083015260408101516040830152606081015160608301525f608082015160e0608085015261184360e0850182611700565b905060a083015184820360a086015261185c8282611700565b91505060c083015184820360c086015261115d8282611700565b604081525f6118886040830185611801565b90508260208301529392505050565b5f80604083850312156118a8575f80fd5b82356118b381611772565b946020939093013593505050565b5f80604083850312156118d2575f80fd5b82359150602083013580151581146117d4575f80fd5b5f83516118f98184602088016116de565b83519083019061190d8183602088016116de565b01949350505050565b600181811c9082168061192a57607f821691505b602082108103611551577f4e487b71000000000000000000000000000000000000000000000000000000005f52602260045260245ffd5b7f4e487b71000000000000000000000000000000000000000000000000000000005f52601160045260245ffd5b808201808211156107cb576107cb611961565b608081525f6119b36080830186611801565b9050835160208301526020840151604083015273ffffffffffffffffffffffffffffffffffffffff83166060830152949350505050565b6040516060810167ffffffffffffffff81118282101715611a32577f4e487b71000000000000000000000000000000000000000000000000000000005f52604160045260245ffd5b60405290565b5f60408284031215611a48575f80fd5b6040516040810181811067ffffffffffffffff82111715611a90577f4e487b71000000000000000000000000000000000000000000000000000000005f52604160045260245ffd5b604052825181526020928301519281019290925250919050565b5f8082840360c0811215611abc575f80fd5b6080811215611ac9575f80fd5b50611ad26119ea565b835181526020840151611ae481611793565b6020820152611af68560408601611a38565b60408201529150611b0a8460808501611a38565b90509250929050565b60408152826040820152828460608301375f606084830101525f60607fffffffffffffffffffffffffffffffffffffffffffffffffffffffffffffffe0601f8601168301019050826020830152949350505050565b5f8060408385031215611b79575f80fd5b8235915060208301356117d481611772565b5f8085851115611b99575f80fd5b83861115611ba5575f80fd5b5050820193919092039150565b5f8251611bc38184602087016116de565b9190910192915050565b5f60608284031215611bdd575f80fd5b611be56119ea565b8251611bf081611793565b81526020830151611c0081611793565b60208201526040830151611c1381611793565b60408201529392505050565b5f8260070b8260070b028060070b9150808214611c3e57611c3e611961565b5092915050565b600181815b80851115611c9e57817fffffffffffffffffffffffffffffffffffffffffffffffffffffffffffffffff04821115611c8457611c84611961565b80851615611c9157918102915b93841c9390800290611c4a565b509250929050565b5f82611cb4575060016107cb565b81611cc057505f6107cb565b8160018114611cd65760028114611ce057611cfc565b60019150506107cb565b60ff841115611cf157611cf1611961565b50506001821b6107cb565b5060208310610133831016604e8410600b8410161715611d1f575081810a6107cb565b611d298383611c45565b807fffffffffffffffffffffffffffffffffffffffffffffffffffffffffffffffff04821115611d5b57611d5b611961565b029392505050565b5f6107c867ffffffffffffffff841683611ca6565b80820281158282048414176107cb576107cb611961565b7f4e487b71000000000000000000000000000000000000000000000000000000005f52601260045260245ffd5b5f82611dca57611dca611d8f565b500690565b818103818111156107cb576107cb611961565b5f82611df057611df0611d8f565b50049056fea264697066735822122002f0ae12c062ae0552b043b9cd30cd06a7782f7018b090a9822803be5a7348a464736f6c63430008160033",
    "linkReferences": {}
  },
  "methodIdentifiers": {
    "CORE_WRITER_VERSION()": "22dbe29c",
    "HLP_CORE_WRITER()": "7ecd9ac3",
    "HLP_PRECOMPILE_READ_SPOT_BALANCE()": "ba872679",
    "HYPE_CHAIN_ID_MAINNET()": "5b9a2373",
    "HYPE_CHAIN_ID_TESTNET()": "20d9af9a",
    "HYPE_INDEX_MAINNET()": "d00b1ad5",
    "HYPE_INDEX_TESTNET()": "bc963bc7",
    "REFUND_ADDRESS()": "f1ae0e9b",
    "SPOT_SEND_ACTION_ID()": "0d1995e0",
    "SPOT_SEND_HEADER()": "1f8164d9",
    "balanceOfHyperCore(address,uint64)": "81e8dcb4",
    "decode_message(bytes)": "fdea0482",
    "endpoint()": "5e280f11",
    "failedMessages(bytes32)": "a4e7f8bd",
    "getErrorPayload(bytes)": "03be2050",
    "getHypeAsset()": "aae12e46",
    "getOFTAsset()": "2d0e315c",
    "hypeAsset()": "f6e6b240",
    "hypeIndexByChainId(uint256)": "4bd162df",
    "oft()": "9b5215f6",
    "oftAsset()": "765008a1",
    "quoteHyperCoreAmount(uint256,bool)": "f9716faf",
    "refund(bytes32)": "7249fbb6",
    "refundERC20(address,uint256)": "ebaeefd6",
    "refundNativeTokens(address)": "8483bc00",
    "token()": "fc0c546a"
  },
  "id": 1
}