{
  "abi": [
    {
      "type": "constructor",
      "inputs": [
        {
          "name": "_oft",
          "type": "address",
          "internalType": "address"
        }
      ],
      "stateMutability": "nonpayable"
    },
    {
      "type": "function",
      "name": "CORE_WRITER_VERSION",
      "inputs": [],
      "outputs": [
        {
          "name": "",
          "type": "bytes1",
          "internalType": "bytes1"
        }
      ],
      "stateMutability": "view"
    },
    {
      "type": "function",
      "name": "ENDPOINT",
      "inputs": [],
      "outputs": [
        {
          "name": "",
          "type": "address",
          "internalType": "address"
        }
      ],
      "stateMutability": "view"
    },
    {
      "type": "function",
      "name": "MIN_GAS",
      "inputs": [],
      "outputs": [
        {
          "name": "",
          "type": "uint256",
          "internalType": "uint256"
        }
      ],
      "stateMutability": "view"
    },
    {
      "type": "function",
      "name": "NATIVE_TRANSFER_GAS",
      "inputs": [],
      "outputs": [
        {
          "name": "",
          "type": "uint256",
          "internalType": "uint256"
        }
      ],
      "stateMutability": "view"
    },
    {
      "type": "function",
      "name": "OFT",
      "inputs": [],
      "outputs": [
        {
          "name": "",
          "type": "address",
          "internalType": "address"
        }
      ],
      "stateMutability": "view"
    },
    {
      "type": "function",
      "name": "REFUND_ADDRESS",
      "inputs": [],
      "outputs": [
        {
          "name": "",
          "type": "address",
          "internalType": "address"
        }
      ],
      "stateMutability": "view"
    },
    {
      "type": "function",
      "name": "SPOT_SEND_ACTION_ID",
      "inputs": [],
      "outputs": [
        {
          "name": "",
          "type": "bytes3",
          "internalType": "bytes3"
        }
      ],
      "stateMutability": "view"
    },
    {
      "type": "function",
      "name": "SPOT_SEND_HEADER",
      "inputs": [],
      "outputs": [
        {
          "name": "",
          "type": "bytes4",
          "internalType": "bytes4"
        }
      ],
      "stateMutability": "view"
    },
    {
      "type": "function",
      "name": "TOKEN",
      "inputs": [],
      "outputs": [
        {
          "name": "",
          "type": "address",
          "internalType": "address"
        }
      ],
      "stateMutability": "view"
    },
    {
      "type": "function",
      "name": "VALID_COMPOSE_MSG_LEN",
      "inputs": [],
      "outputs": [
        {
          "name": "",
          "type": "uint256",
          "internalType": "uint256"
        }
      ],
      "stateMutability": "view"
    },
    {
      "type": "function",
      "name": "coreUserExists",
      "inputs": [
        {
          "name": "user",
          "type": "address",
          "internalType": "address"
        }
      ],
      "outputs": [
        {
          "name": "",
          "type": "tuple",
          "internalType": "struct CoreUserExists",
          "components": [
            {
              "name": "exists",
              "type": "bool",
              "internalType": "bool"
            }
          ]
        }
      ],
      "stateMutability": "view"
    },
    {
      "type": "function",
      "name": "failedMessages",
      "inputs": [
        {
          "name": "",
          "type": "bytes32",
          "internalType": "bytes32"
        }
      ],
      "outputs": [
        {
          "name": "refundSendParam",
          "type": "tuple",
          "internalType": "struct SendParam",
          "components": [
            {
              "name": "dstEid",
              "type": "uint32",
              "internalType": "uint32"
            },
            {
              "name": "to",
              "type": "bytes32",
              "internalType": "bytes32"
            },
            {
              "name": "amountLD",
              "type": "uint256",
              "internalType": "uint256"
            },
            {
              "name": "minAmountLD",
              "type": "uint256",
              "internalType": "uint256"
            },
            {
              "name": "extraOptions",
              "type": "bytes",
              "internalType": "bytes"
            },
            {
              "name": "composeMsg",
              "type": "bytes",
              "internalType": "bytes"
            },
            {
              "name": "oftCmd",
              "type": "bytes",
              "internalType": "bytes"
            }
          ]
        },
        {
          "name": "msgValue",
          "type": "uint256",
          "internalType": "uint256"
        }
      ],
      "stateMutability": "view"
    },
    {
      "type": "function",
      "name": "hypeAsset",
      "inputs": [],
      "outputs": [
        {
          "name": "coreIndexId",
          "type": "uint64",
          "internalType": "uint64"
        },
        {
          "name": "decimalDiff",
          "type": "int64",
          "internalType": "int64"
        },
        {
          "name": "assetBridgeAddress",
          "type": "address",
          "internalType": "address"
        }
      ],
      "stateMutability": "view"
    },
    {
      "type": "function",
      "name": "hypeIndexByChainId",
      "inputs": [
        {
          "name": "",
          "type": "uint256",
          "internalType": "uint256"
        }
      ],
      "outputs": [
        {
          "name": "",
          "type": "uint64",
          "internalType": "uint64"
        }
      ],
      "stateMutability": "view"
    },
    {
      "type": "function",
      "name": "oftAsset",
      "inputs": [],
      "outputs": [
        {
          "name": "coreIndexId",
          "type": "uint64",
          "internalType": "uint64"
        },
        {
          "name": "decimalDiff",
          "type": "int64",
          "internalType": "int64"
        },
        {
          "name": "assetBridgeAddress",
          "type": "address",
          "internalType": "address"
        }
      ],
      "stateMutability": "view"
    },
    {
      "type": "function",
      "name": "quoteHyperCoreAmount",
      "inputs": [
        {
          "name": "_amount",
          "type": "uint256",
          "internalType": "uint256"
        },
        {
          "name": "_isOFT",
          "type": "bool",
          "internalType": "bool"
        }
      ],
      "outputs": [
        {
          "name": "",
          "type": "tuple",
          "internalType": "struct IHyperAssetAmount",
          "components": [
            {
              "name": "evm",
              "type": "uint256",
              "internalType": "uint256"
            },
            {
              "name": "dust",
              "type": "uint256",
              "internalType": "uint256"
            },
            {
              "name": "core",
              "type": "uint64",
              "internalType": "uint64"
            }
          ]
        }
      ],
      "stateMutability": "view"
    },
    {
      "type": "function",
      "name": "refundToSrc",
      "inputs": [
        {
          "name": "_guid",
          "type": "bytes32",
          "internalType": "bytes32"
        }
      ],
      "outputs": [],
      "stateMutability": "payable"
    },
    {
      "type": "function",
      "name": "spotBalance",
      "inputs": [
        {
          "name": "user",
          "type": "address",
          "internalType": "address"
        },
        {
          "name": "token",
          "type": "uint64",
          "internalType": "uint64"
        }
      ],
      "outputs": [
        {
          "name": "",
          "type": "tuple",
          "internalType": "struct SpotBalance",
          "components": [
            {
              "name": "total",
              "type": "uint64",
              "internalType": "uint64"
            },
            {
              "name": "hold",
              "type": "uint64",
              "internalType": "uint64"
            },
            {
              "name": "entryNtl",
              "type": "uint64",
              "internalType": "uint64"
            }
          ]
        }
      ],
      "stateMutability": "view"
    },
    {
      "type": "event",
      "name": "CompleteRefund",
      "inputs": [],
      "anonymous": false
    },
    {
      "type": "event",
      "name": "FailedMessageDecode",
      "inputs": [
        {
          "name": "guid",
          "type": "bytes32",
          "indexed": true,
          "internalType": "bytes32"
        },
        {
          "name": "sender",
          "type": "bytes32",
          "indexed": false,
          "internalType": "bytes32"
        },
        {
          "name": "msgValue",
          "type": "uint256",
          "indexed": false,
          "internalType": "uint256"
        },
        {
          "name": "composeMessage",
          "type": "bytes",
          "indexed": false,
          "internalType": "bytes"
        }
      ],
      "anonymous": false
    },
    {
      "type": "event",
      "name": "RefundHyperEVM",
      "inputs": [
        {
          "name": "receiver",
          "type": "address",
          "indexed": true,
          "internalType": "address"
        },
        {
          "name": "amountERC20",
          "type": "uint256",
          "indexed": true,
          "internalType": "uint256"
        },
        {
          "name": "amountHYPE",
          "type": "uint256",
          "indexed": true,
          "internalType": "uint256"
        }
      ],
      "anonymous": false
    },
    {
      "type": "event",
      "name": "RefundSuccessful",
      "inputs": [
        {
          "name": "guid",
          "type": "bytes32",
          "indexed": true,
          "internalType": "bytes32"
        }
      ],
      "anonymous": false
    },
    {
      "type": "error",
      "name": "ComposeMsgLengthNot64Bytes",
      "inputs": [
        {
          "name": "length",
          "type": "uint256",
          "internalType": "uint256"
        }
      ]
    },
    {
      "type": "error",
      "name": "CoreUserNotActivated",
      "inputs": []
    },
    {
      "type": "error",
      "name": "FailedMessageNotFound",
      "inputs": [
        {
          "name": "guid",
          "type": "bytes32",
          "internalType": "bytes32"
        }
      ]
    },
    {
      "type": "error",
      "name": "InsufficientGas",
      "inputs": [
        {
          "name": "gasLeft",
          "type": "uint256",
          "internalType": "uint256"
        },
        {
          "name": "minGas",
          "type": "uint256",
          "internalType": "uint256"
        }
      ]
    },
    {
      "type": "error",
      "name": "InsufficientMsgValue",
      "inputs": [
        {
          "name": "msgValue",
          "type": "uint256",
          "internalType": "uint256"
        },
        {
          "name": "requiredValue",
          "type": "uint256",
          "internalType": "uint256"
        }
      ]
    },
    {
      "type": "error",
      "name": "InvalidComposeCaller",
      "inputs": [
        {
          "name": "internalOFTAddress",
          "type": "address",
          "internalType": "address"
        },
        {
          "name": "receivedOFTAddress",
          "type": "address",
          "internalType": "address"
        }
      ]
    },
    {
      "type": "error",
      "name": "InvalidOFTAddress",
      "inputs": []
    },
    {
      "type": "error",
      "name": "NativeTransferFailed",
      "inputs": [
        {
          "name": "receiver",
          "type": "address",
          "internalType": "address"
        },
        {
          "name": "amount",
          "type": "uint256",
          "internalType": "uint256"
        }
      ]
    },
    {
      "type": "error",
      "name": "OnlyEndpoint",
      "inputs": []
    },
    {
      "type": "error",
      "name": "OnlySelf",
      "inputs": [
        {
          "name": "caller",
          "type": "address",
          "internalType": "address"
        }
      ]
    },
    {
      "type": "error",
      "name": "SpotBalanceReadFailed",
      "inputs": [
        {
          "name": "user",
          "type": "address",
          "internalType": "address"
        },
        {
          "name": "tokenId",
          "type": "uint64",
          "internalType": "uint64"
        }
      ]
    },
    {
      "type": "error",
      "name": "UnsupportedChainId",
      "inputs": [
        {
          "name": "chainId",
          "type": "uint256",
          "internalType": "uint256"
        }
      ]
    }
  ],
  "bytecode": {
    "object": "0x61010060405234801562000011575f80fd5b5060405162001af138038062001af1833981016040819052620000349162000279565b5f60208190527f2802b8ca0a4d9948ac89ce9ba15f4015f0f68c52469c4df23bbaf374f1d4604080546001600160401b0319908116610451179091556103e79091527f332eac5de6beffe8ee7761a0342c75594c3acb5fdde0a2555227e56aa65d4141805490911660961790556001600160a01b038116620000c95760405163c23419a560e01b815260040160405180910390fd5b806001600160a01b0316635e280f116040518163ffffffff1660e01b8152600401602060405180830381865afa15801562000106573d5f803e3d5ffd5b505050506040513d601f19601f820116820180604052508101906200012c919062000279565b6001600160a01b03908116608052811660a081905260408051637e062a3560e11b8152905163fc0c546a916004808201926020929091908290030181865afa1580156200017b573d5f803e3d5ffd5b505050506040513d601f19601f82011682018060405250810190620001a1919062000279565b6001600160a01b031660c052465f908152602081905260408120546001600160401b031690819003620001ed576040516352ed5aff60e11b815246600482015260240160405180910390fd5b604080516060810182526001600160401b0392909216808352600a602084015273222222222222222222222222222222222222222292909101829052600480546001600160801b031916909117680a0000000000000000179055600580546001600160a01b0319169091179055506200029e565b6001600160a01b038116811462000276575f80fd5b50565b5f602082840312156200028a575f80fd5b8151620002978162000261565b9392505050565b60805160a05160c05160e051611811620002e05f395f818161050f015261093601525f61041901525f81816101d7015261090701525f61035b01526118115ff3fe608060405260043610610123575f3560e01c8063765008a1116100a1578063a69610d111610071578063f1ae0e9b11610057578063f1ae0e9b146104fe578063f6e6b24014610531578063f9716faf1461057d575f80fd5b8063a69610d114610498578063cebb5120146104ea575f80fd5b8063765008a11461037d57806382bfefc8146104085780639dbfb13f1461043b578063a4e7f8bd1461046b575f80fd5b80631f8164d9116100f657806322dbe29c116100dc57806322dbe29c146102985780634bd162df146102fc5780636fad06f51461034a575f80fd5b80631f8164d91461021e57806320d2c95114610282575f80fd5b80630d1995e014610127578063104544dd1461018e57806319180904146101b15780631ed0993d146101c6575b5f80fd5b348015610132575f80fd5b506101587d06000000000000000000000000000000000000000000000000000000000081565b6040517fffffff000000000000000000000000000000000000000000000000000000000090911681526020015b60405180910390f35b348015610199575f80fd5b506101a36108fc81565b604051908152602001610185565b6101c46101bf36600461114d565b6105c8565b005b3480156101d1575f80fd5b506101f97f000000000000000000000000000000000000000000000000000000000000000081565b60405173ffffffffffffffffffffffffffffffffffffffff9091168152602001610185565b348015610229575f80fd5b506102517f010000060000000000000000000000000000000000000000000000000000000081565b6040517fffffffff000000000000000000000000000000000000000000000000000000009091168152602001610185565b34801561028d575f80fd5b506101a3620249f081565b3480156102a3575f80fd5b506102cb7f010000000000000000000000000000000000000000000000000000000000000081565b6040517fff000000000000000000000000000000000000000000000000000000000000009091168152602001610185565b348015610307575f80fd5b5061033161031636600461114d565b5f6020819052908152604090205467ffffffffffffffff1681565b60405167ffffffffffffffff9091168152602001610185565b348015610355575f80fd5b506101f97f000000000000000000000000000000000000000000000000000000000000000081565b348015610388575f80fd5b506002546003546103c99167ffffffffffffffff8116916801000000000000000090910460070b9073ffffffffffffffffffffffffffffffffffffffff1683565b6040805167ffffffffffffffff909416845260079290920b602084015273ffffffffffffffffffffffffffffffffffffffff1690820152606001610185565b348015610413575f80fd5b506101f97f000000000000000000000000000000000000000000000000000000000000000081565b348015610446575f80fd5b5061045a61045536600461118c565b6109d0565b604051905115158152602001610185565b348015610476575f80fd5b5061048a61048536600461114d565b610b2c565b60405161018592919061128c565b3480156104a3575f80fd5b506104b76104b23660046112c2565b610d30565b60408051825167ffffffffffffffff90811682526020808501518216908301529282015190921690820152606001610185565b3480156104f5575f80fd5b506101a3604081565b348015610509575f80fd5b506101f97f000000000000000000000000000000000000000000000000000000000000000081565b34801561053c575f80fd5b506004546005546103c99167ffffffffffffffff8116916801000000000000000090910460070b9073ffffffffffffffffffffffffffffffffffffffff1683565b348015610588575f80fd5b5061059c610597366004611304565b610eb0565b6040805182518152602080840151908201529181015167ffffffffffffffff1690820152606001610185565b5f818152600160208190526040808320815161012081018352815463ffffffff1692810192835292810154606084015260028101546080840152600381015460a0840152600481018054919284929091849160c08501919061062990611327565b80601f016020809104026020016040519081016040528092919081815260200182805461065590611327565b80156106a05780601f10610677576101008083540402835291602001916106a0565b820191905f5260205f20905b81548152906001019060200180831161068357829003601f168201915b505050505081526020016005820180546106b990611327565b80601f01602080910402602001604051908101604052809291908181526020018280546106e590611327565b80156107305780601f1061070757610100808354040283529160200191610730565b820191905f5260205f20905b81548152906001019060200180831161071357829003601f168201915b5050505050815260200160068201805461074990611327565b80601f016020809104026020016040519081016040528092919081815260200182805461077590611327565b80156107c05780601f10610797576101008083540402835291602001916107c0565b820191905f5260205f20905b8154815290600101906020018083116107a357829003601f168201915b5050509190925250505081526007919091015460209091015280515190915063ffffffff165f03610825576040517f0b948634000000000000000000000000000000000000000000000000000000008152600481018390526024015b60405180910390fd5b5f828152600160208190526040822080547fffffffffffffffffffffffffffffffffffffffffffffffffffffffff00000000168155908101829055600281018290556003810182905590818161087e60048301826110fb565b61088b600583015f6110fb565b610898600683015f6110fb565b5050600782015f905550505f3482602001516108b491906113a5565b82516040805180820182528381525f602082015290517fc7c7f5b300000000000000000000000000000000000000000000000000000000815292935073ffffffffffffffffffffffffffffffffffffffff7f0000000000000000000000000000000000000000000000000000000000000000169263c7c7f5b392859261095e927f0000000000000000000000000000000000000000000000000000000000000000906004016113b8565b60c06040518083038185885af115801561097a573d5f803e3d5ffd5b50505050506040513d601f19601f8201168201806040525081019061099f91906114c1565b505060405183907fd41d02272333251e6367f747c63d5cc227dcac6b0c799067569e80a30f9da369905f90a2505050565b60408051602081019091525f81526040805173ffffffffffffffffffffffffffffffffffffffff841660208201525f916060916108109101604080517fffffffffffffffffffffffffffffffffffffffffffffffffffffffffffffffe081840301815290829052610a409161152a565b5f60405180830381855afa9150503d805f8114610a78576040519150601f19603f3d011682016040523d82523d5f602084013e610a7d565b606091505b50909250905081610b10576040517f08c379a000000000000000000000000000000000000000000000000000000000815260206004820152602760248201527f436f726520757365722065786973747320707265636f6d70696c652063616c6c60448201527f206661696c656400000000000000000000000000000000000000000000000000606482015260840161081c565b80806020019051810190610b249190611545565b949350505050565b600160208181525f928352604092839020835160e081018552815463ffffffff16815292810154918301919091526002810154928201929092526003820154606082015260048201805483916080840191610b8690611327565b80601f0160208091040260200160405190810160405280929190818152602001828054610bb290611327565b8015610bfd5780601f10610bd457610100808354040283529160200191610bfd565b820191905f5260205f20905b815481529060010190602001808311610be057829003601f168201915b50505050508152602001600582018054610c1690611327565b80601f0160208091040260200160405190810160405280929190818152602001828054610c4290611327565b8015610c8d5780601f10610c6457610100808354040283529160200191610c8d565b820191905f5260205f20905b815481529060010190602001808311610c7057829003601f168201915b50505050508152602001600682018054610ca690611327565b80601f0160208091040260200160405190810160405280929190818152602001828054610cd290611327565b8015610d1d5780601f10610cf457610100808354040283529160200191610d1d565b820191905f5260205f20905b815481529060010190602001808311610d0057829003601f168201915b5050509190925250505060079091015482565b604080516060810182525f80825260208201819052918101919091526040805173ffffffffffffffffffffffffffffffffffffffff8516602082015267ffffffffffffffff8416918101919091525f90606090610801908201604080517fffffffffffffffffffffffffffffffffffffffffffffffffffffffffffffffe081840301815290829052610dc19161152a565b5f60405180830381855afa9150503d805f8114610df9576040519150601f19603f3d011682016040523d82523d5f602084013e610dfe565b606091505b50909250905081610e91576040517f08c379a000000000000000000000000000000000000000000000000000000000815260206004820152602260248201527f53706f7442616c616e636520707265636f6d70696c652063616c6c206661696c60448201527f6564000000000000000000000000000000000000000000000000000000000000606482015260840161081c565b80806020019051810190610ea591906115b4565b925050505b92915050565b610edb60405180606001604052805f81526020015f81526020015f67ffffffffffffffff1681525090565b5f82610ee8576004610eeb565b60025b60408051606081018252825467ffffffffffffffff81168083526801000000000000000090910460070b602083015260019093015473ffffffffffffffffffffffffffffffffffffffff1691810182905292505f91610f4a9190610d30565b519050610ea5858284610f7e60405180606001604052805f81526020015f81526020015f67ffffffffffffffff1681525090565b5f80808067ffffffffffffffff87117fffffffffffffffffffffffffffffffffffffffffffffffff0000000000000001880102870390505f866020015160070b1315610fdf57610fd38882886020015161104d565b91955093509150611021565b611019888288602001517fffffffffffffffffffffffffffffffffffffffffffffffffffffffffffffffff6110149190611606565b6110b2565b919550935091505b5060408051606081018252938452602084019290925267ffffffffffffffff1690820152949350505050565b5f80808061105c85600a61174a565b90505f6110738267ffffffffffffffff891661175f565b905061107f82896117a3565b9788900397818903828a1102890395508589030193508185816110a4576110a4611776565b049250505093509350939050565b5f8080806110c185600a61174a565b90505f818767ffffffffffffffff16816110dd576110dd611776565b04808903908911028803989789900397918902965090945050505050565b50805461110790611327565b5f825580601f10611116575050565b601f0160209004905f5260205f20908101906111329190611135565b50565b5b80821115611149575f8155600101611136565b5090565b5f6020828403121561115d575f80fd5b5035919050565b803573ffffffffffffffffffffffffffffffffffffffff81168114611187575f80fd5b919050565b5f6020828403121561119c575f80fd5b6111a582611164565b9392505050565b5f5b838110156111c65781810151838201526020016111ae565b50505f910152565b5f81518084526111e58160208601602086016111ac565b601f017fffffffffffffffffffffffffffffffffffffffffffffffffffffffffffffffe0169290920160200192915050565b63ffffffff81511682526020810151602083015260408101516040830152606081015160608301525f608082015160e0608085015261125960e08501826111ce565b905060a083015184820360a086015261127282826111ce565b91505060c083015184820360c0860152610ea582826111ce565b604081525f61129e6040830185611217565b90508260208301529392505050565b67ffffffffffffffff81168114611132575f80fd5b5f80604083850312156112d3575f80fd5b6112dc83611164565b915060208301356112ec816112ad565b809150509250929050565b8015158114611132575f80fd5b5f8060408385031215611315575f80fd5b8235915060208301356112ec816112f7565b600181811c9082168061133b57607f821691505b602082108103611372577f4e487b71000000000000000000000000000000000000000000000000000000005f52602260045260245ffd5b50919050565b7f4e487b71000000000000000000000000000000000000000000000000000000005f52601160045260245ffd5b80820180821115610eaa57610eaa611378565b608081525f6113ca6080830186611217565b9050835160208301526020840151604083015273ffffffffffffffffffffffffffffffffffffffff83166060830152949350505050565b6040516060810167ffffffffffffffff81118282101715611449577f4e487b71000000000000000000000000000000000000000000000000000000005f52604160045260245ffd5b60405290565b5f6040828403121561145f575f80fd5b6040516040810181811067ffffffffffffffff821117156114a7577f4e487b71000000000000000000000000000000000000000000000000000000005f52604160045260245ffd5b604052825181526020928301519281019290925250919050565b5f8082840360c08112156114d3575f80fd5b60808112156114e0575f80fd5b506114e9611401565b8351815260208401516114fb816112ad565b602082015261150d856040860161144f565b60408201529150611521846080850161144f565b90509250929050565b5f825161153b8184602087016111ac565b9190910192915050565b5f60208284031215611555575f80fd5b6040516020810181811067ffffffffffffffff8211171561159d577f4e487b71000000000000000000000000000000000000000000000000000000005f52604160045260245ffd5b60405282516115ab816112f7565b81529392505050565b5f606082840312156115c4575f80fd5b6115cc611401565b82516115d7816112ad565b815260208301516115e7816112ad565b602082015260408301516115fa816112ad565b60408201529392505050565b5f8260070b8260070b028060070b915080821461162557611625611378565b5092915050565b600181815b8085111561168557817fffffffffffffffffffffffffffffffffffffffffffffffffffffffffffffffff0482111561166b5761166b611378565b8085161561167857918102915b93841c9390800290611631565b509250929050565b5f8261169b57506001610eaa565b816116a757505f610eaa565b81600181146116bd57600281146116c7576116e3565b6001915050610eaa565b60ff8411156116d8576116d8611378565b50506001821b610eaa565b5060208310610133831016604e8410600b8410161715611706575081810a610eaa565b611710838361162c565b807fffffffffffffffffffffffffffffffffffffffffffffffffffffffffffffffff0482111561174257611742611378565b029392505050565b5f6111a567ffffffffffffffff84168361168d565b8082028115828204841417610eaa57610eaa611378565b7f4e487b71000000000000000000000000000000000000000000000000000000005f52601260045260245ffd5b5f826117d6577f4e487b71000000000000000000000000000000000000000000000000000000005f52601260045260245ffd5b50069056fea26469706673582212208bb60956b76827bfe29ebce6c928f6f191b02fed654ff3f1ae7cbdc05855ccf464736f6c63430008160033",
    "linkReferences": {}
  },
  "methodIdentifiers": {
    "CORE_WRITER_VERSION()": "22dbe29c",
    "ENDPOINT()": "6fad06f5",
    "MIN_GAS()": "20d2c951",
    "NATIVE_TRANSFER_GAS()": "104544dd",
    "OFT()": "1ed0993d",
    "REFUND_ADDRESS()": "f1ae0e9b",
    "SPOT_SEND_ACTION_ID()": "0d1995e0",
    "SPOT_SEND_HEADER()": "1f8164d9",
    "TOKEN()": "82bfefc8",
    "VALID_COMPOSE_MSG_LEN()": "cebb5120",
    "coreUserExists(address)": "9dbfb13f",
    "failedMessages(bytes32)": "a4e7f8bd",
    "hypeAsset()": "f6e6b240",
    "hypeIndexByChainId(uint256)": "4bd162df",
    "oftAsset()": "765008a1",
    "quoteHyperCoreAmount(uint256,bool)": "f9716faf",
    "refundToSrc(bytes32)": "19180904",
    "spotBalance(address,uint64)": "a69610d1"
  },
  "id": 1
}