{
  "abi": [
    {
      "type": "constructor",
      "inputs": [
        {
          "name": "_name",
          "type": "string",
          "internalType": "string"
        },
        {
          "name": "_symbol",
          "type": "string",
          "internalType": "string"
        },
        {
          "name": "_lzEndpoint",
          "type": "address",
          "internalType": "address"
        },
        {
          "name": "_delegate",
          "type": "address",
          "internalType": "address"
        }
      ],
      "stateMutability": "nonpayable"
    },
    {
      "type": "function",
      "name": "SEND",
      "inputs": [],
      "outputs": [
        {
          "name": "",
          "type": "uint16",
          "internalType": "uint16"
        }
      ],
      "stateMutability": "view"
    },
    {
      "type": "function",
      "name": "SEND_AND_CALL",
      "inputs": [],
      "outputs": [
        {
          "name": "",
          "type": "uint16",
          "internalType": "uint16"
        }
      ],
      "stateMutability": "view"
    },
    {
      "type": "function",
      "name": "allowInitializePath",
      "inputs": [
        {
          "name": "origin",
          "type": "tuple",
          "internalType": "struct Origin",
          "components": [
            {
              "name": "srcEid",
              "type": "uint32",
              "internalType": "uint32"
            },
            {
              "name": "sender",
              "type": "bytes32",
              "internalType": "bytes32"
            },
            {
              "name": "nonce",
              "type": "uint64",
              "internalType": "uint64"
            }
          ]
        }
      ],
      "outputs": [
        {
          "name": "",
          "type": "bool",
          "internalType": "bool"
        }
      ],
      "stateMutability": "view"
    },
    {
      "type": "function",
      "name": "allowance",
      "inputs": [
        {
          "name": "owner",
          "type": "address",
          "internalType": "address"
        },
        {
          "name": "spender",
          "type": "address",
          "internalType": "address"
        }
      ],
      "outputs": [
        {
          "name": "",
          "type": "uint256",
          "internalType": "uint256"
        }
      ],
      "stateMutability": "view"
    },
    {
      "type": "function",
      "name": "approvalRequired",
      "inputs": [],
      "outputs": [
        {
          "name": "",
          "type": "bool",
          "internalType": "bool"
        }
      ],
      "stateMutability": "pure"
    },
    {
      "type": "function",
      "name": "approve",
      "inputs": [
        {
          "name": "spender",
          "type": "address",
          "internalType": "address"
        },
        {
          "name": "amount",
          "type": "uint256",
          "internalType": "uint256"
        }
      ],
      "outputs": [
        {
          "name": "",
          "type": "bool",
          "internalType": "bool"
        }
      ],
      "stateMutability": "nonpayable"
    },
    {
      "type": "function",
      "name": "balanceOf",
      "inputs": [
        {
          "name": "account",
          "type": "address",
          "internalType": "address"
        }
      ],
      "outputs": [
        {
          "name": "",
          "type": "uint256",
          "internalType": "uint256"
        }
      ],
      "stateMutability": "view"
    },
    {
      "type": "function",
      "name": "buildMsgAndOptions",
      "inputs": [
        {
          "name": "_sendParam",
          "type": "tuple",
          "internalType": "struct SendParam",
          "components": [
            {
              "name": "dstEid",
              "type": "uint32",
              "internalType": "uint32"
            },
            {
              "name": "to",
              "type": "bytes32",
              "internalType": "bytes32"
            },
            {
              "name": "amountLD",
              "type": "uint256",
              "internalType": "uint256"
            },
            {
              "name": "minAmountLD",
              "type": "uint256",
              "internalType": "uint256"
            },
            {
              "name": "extraOptions",
              "type": "bytes",
              "internalType": "bytes"
            },
            {
              "name": "composeMsg",
              "type": "bytes",
              "internalType": "bytes"
            },
            {
              "name": "oftCmd",
              "type": "bytes",
              "internalType": "bytes"
            }
          ]
        },
        {
          "name": "_amountToCreditLD",
          "type": "uint256",
          "internalType": "uint256"
        }
      ],
      "outputs": [
        {
          "name": "message",
          "type": "bytes",
          "internalType": "bytes"
        },
        {
          "name": "options",
          "type": "bytes",
          "internalType": "bytes"
        }
      ],
      "stateMutability": "view"
    },
    {
      "type": "function",
      "name": "combineOptions",
      "inputs": [
        {
          "name": "_eid",
          "type": "uint32",
          "internalType": "uint32"
        },
        {
          "name": "_msgType",
          "type": "uint16",
          "internalType": "uint16"
        },
        {
          "name": "_extraOptions",
          "type": "bytes",
          "internalType": "bytes"
        }
      ],
      "outputs": [
        {
          "name": "",
          "type": "bytes",
          "internalType": "bytes"
        }
      ],
      "stateMutability": "view"
    },
    {
      "type": "function",
      "name": "credit",
      "inputs": [
        {
          "name": "_to",
          "type": "address",
          "internalType": "address"
        },
        {
          "name": "_amountToCreditLD",
          "type": "uint256",
          "internalType": "uint256"
        },
        {
          "name": "_srcEid",
          "type": "uint32",
          "internalType": "uint32"
        }
      ],
      "outputs": [
        {
          "name": "amountReceivedLD",
          "type": "uint256",
          "internalType": "uint256"
        }
      ],
      "stateMutability": "nonpayable"
    },
    {
      "type": "function",
      "name": "debit",
      "inputs": [
        {
          "name": "_amountToSendLD",
          "type": "uint256",
          "internalType": "uint256"
        },
        {
          "name": "_minAmountToCreditLD",
          "type": "uint256",
          "internalType": "uint256"
        },
        {
          "name": "_dstEid",
          "type": "uint32",
          "internalType": "uint32"
        }
      ],
      "outputs": [
        {
          "name": "amountDebitedLD",
          "type": "uint256",
          "internalType": "uint256"
        },
        {
          "name": "amountToCreditLD",
          "type": "uint256",
          "internalType": "uint256"
        }
      ],
      "stateMutability": "nonpayable"
    },
    {
      "type": "function",
      "name": "debitView",
      "inputs": [
        {
          "name": "_amountToSendLD",
          "type": "uint256",
          "internalType": "uint256"
        },
        {
          "name": "_minAmountToCreditLD",
          "type": "uint256",
          "internalType": "uint256"
        },
        {
          "name": "_dstEid",
          "type": "uint32",
          "internalType": "uint32"
        }
      ],
      "outputs": [
        {
          "name": "amountDebitedLD",
          "type": "uint256",
          "internalType": "uint256"
        },
        {
          "name": "amountToCreditLD",
          "type": "uint256",
          "internalType": "uint256"
        }
      ],
      "stateMutability": "view"
    },
    {
      "type": "function",
      "name": "decimalConversionRate",
      "inputs": [],
      "outputs": [
        {
          "name": "",
          "type": "uint256",
          "internalType": "uint256"
        }
      ],
      "stateMutability": "view"
    },
    {
      "type": "function",
      "name": "decimals",
      "inputs": [],
      "outputs": [
        {
          "name": "",
          "type": "uint8",
          "internalType": "uint8"
        }
      ],
      "stateMutability": "view"
    },
    {
      "type": "function",
      "name": "decreaseAllowance",
      "inputs": [
        {
          "name": "spender",
          "type": "address",
          "internalType": "address"
        },
        {
          "name": "subtractedValue",
          "type": "uint256",
          "internalType": "uint256"
        }
      ],
      "outputs": [
        {
          "name": "",
          "type": "bool",
          "internalType": "bool"
        }
      ],
      "stateMutability": "nonpayable"
    },
    {
      "type": "function",
      "name": "endpoint",
      "inputs": [],
      "outputs": [
        {
          "name": "",
          "type": "address",
          "internalType": "contract ILayerZeroEndpointV2"
        }
      ],
      "stateMutability": "view"
    },
    {
      "type": "function",
      "name": "enforcedOptions",
      "inputs": [
        {
          "name": "eid",
          "type": "uint32",
          "internalType": "uint32"
        },
        {
          "name": "msgType",
          "type": "uint16",
          "internalType": "uint16"
        }
      ],
      "outputs": [
        {
          "name": "enforcedOption",
          "type": "bytes",
          "internalType": "bytes"
        }
      ],
      "stateMutability": "view"
    },
    {
      "type": "function",
      "name": "increaseAllowance",
      "inputs": [
        {
          "name": "spender",
          "type": "address",
          "internalType": "address"
        },
        {
          "name": "addedValue",
          "type": "uint256",
          "internalType": "uint256"
        }
      ],
      "outputs": [
        {
          "name": "",
          "type": "bool",
          "internalType": "bool"
        }
      ],
      "stateMutability": "nonpayable"
    },
    {
      "type": "function",
      "name": "isComposeMsgSender",
      "inputs": [
        {
          "name": "",
          "type": "tuple",
          "internalType": "struct Origin",
          "components": [
            {
              "name": "srcEid",
              "type": "uint32",
              "internalType": "uint32"
            },
            {
              "name": "sender",
              "type": "bytes32",
              "internalType": "bytes32"
            },
            {
              "name": "nonce",
              "type": "uint64",
              "internalType": "uint64"
            }
          ]
        },
        {
          "name": "",
          "type": "bytes",
          "internalType": "bytes"
        },
        {
          "name": "_sender",
          "type": "address",
          "internalType": "address"
        }
      ],
      "outputs": [
        {
          "name": "",
          "type": "bool",
          "internalType": "bool"
        }
      ],
      "stateMutability": "view"
    },
    {
      "type": "function",
      "name": "isPeer",
      "inputs": [
        {
          "name": "_eid",
          "type": "uint32",
          "internalType": "uint32"
        },
        {
          "name": "_peer",
          "type": "bytes32",
          "internalType": "bytes32"
        }
      ],
      "outputs": [
        {
          "name": "",
          "type": "bool",
          "internalType": "bool"
        }
      ],
      "stateMutability": "view"
    },
    {
      "type": "function",
      "name": "lzReceive",
      "inputs": [
        {
          "name": "_origin",
          "type": "tuple",
          "internalType": "struct Origin",
          "components": [
            {
              "name": "srcEid",
              "type": "uint32",
              "internalType": "uint32"
            },
            {
              "name": "sender",
              "type": "bytes32",
              "internalType": "bytes32"
            },
            {
              "name": "nonce",
              "type": "uint64",
              "internalType": "uint64"
            }
          ]
        },
        {
          "name": "_guid",
          "type": "bytes32",
          "internalType": "bytes32"
        },
        {
          "name": "_message",
          "type": "bytes",
          "internalType": "bytes"
        },
        {
          "name": "_executor",
          "type": "address",
          "internalType": "address"
        },
        {
          "name": "_extraData",
          "type": "bytes",
          "internalType": "bytes"
        }
      ],
      "outputs": [],
      "stateMutability": "payable"
    },
    {
      "type": "function",
      "name": "lzReceiveAndRevert",
      "inputs": [
        {
          "name": "_packets",
          "type": "tuple[]",
          "internalType": "struct InboundPacket[]",
          "components": [
            {
              "name": "origin",
              "type": "tuple",
              "internalType": "struct Origin",
              "components": [
                {
                  "name": "srcEid",
                  "type": "uint32",
                  "internalType": "uint32"
                },
                {
                  "name": "sender",
                  "type": "bytes32",
                  "internalType": "bytes32"
                },
                {
                  "name": "nonce",
                  "type": "uint64",
                  "internalType": "uint64"
                }
              ]
            },
            {
              "name": "dstEid",
              "type": "uint32",
              "internalType": "uint32"
            },
            {
              "name": "receiver",
              "type": "address",
              "internalType": "address"
            },
            {
              "name": "guid",
              "type": "bytes32",
              "internalType": "bytes32"
            },
            {
              "name": "value",
              "type": "uint256",
              "internalType": "uint256"
            },
            {
              "name": "executor",
              "type": "address",
              "internalType": "address"
            },
            {
              "name": "message",
              "type": "bytes",
              "internalType": "bytes"
            },
            {
              "name": "extraData",
              "type": "bytes",
              "internalType": "bytes"
            }
          ]
        }
      ],
      "outputs": [],
      "stateMutability": "payable"
    },
    {
      "type": "function",
      "name": "lzReceiveSimulate",
      "inputs": [
        {
          "name": "_origin",
          "type": "tuple",
          "internalType": "struct Origin",
          "components": [
            {
              "name": "srcEid",
              "type": "uint32",
              "internalType": "uint32"
            },
            {
              "name": "sender",
              "type": "bytes32",
              "internalType": "bytes32"
            },
            {
              "name": "nonce",
              "type": "uint64",
              "internalType": "uint64"
            }
          ]
        },
        {
          "name": "_guid",
          "type": "bytes32",
          "internalType": "bytes32"
        },
        {
          "name": "_message",
          "type": "bytes",
          "internalType": "bytes"
        },
        {
          "name": "_executor",
          "type": "address",
          "internalType": "address"
        },
        {
          "name": "_extraData",
          "type": "bytes",
          "internalType": "bytes"
        }
      ],
      "outputs": [],
      "stateMutability": "payable"
    },
    {
      "type": "function",
      "name": "mint",
      "inputs": [
        {
          "name": "_to",
          "type": "address",
          "internalType": "address"
        },
        {
          "name": "_amount",
          "type": "uint256",
          "internalType": "uint256"
        }
      ],
      "outputs": [],
      "stateMutability": "nonpayable"
    },
    {
      "type": "function",
      "name": "msgInspector",
      "inputs": [],
      "outputs": [
        {
          "name": "",
          "type": "address",
          "internalType": "address"
        }
      ],
      "stateMutability": "view"
    },
    {
      "type": "function",
      "name": "name",
      "inputs": [],
      "outputs": [
        {
          "name": "",
          "type": "string",
          "internalType": "string"
        }
      ],
      "stateMutability": "view"
    },
    {
      "type": "function",
      "name": "nextNonce",
      "inputs": [
        {
          "name": "",
          "type": "uint32",
          "internalType": "uint32"
        },
        {
          "name": "",
          "type": "bytes32",
          "internalType": "bytes32"
        }
      ],
      "outputs": [
        {
          "name": "nonce",
          "type": "uint64",
          "internalType": "uint64"
        }
      ],
      "stateMutability": "view"
    },
    {
      "type": "function",
      "name": "oApp",
      "inputs": [],
      "outputs": [
        {
          "name": "",
          "type": "address",
          "internalType": "address"
        }
      ],
      "stateMutability": "view"
    },
    {
      "type": "function",
      "name": "oAppVersion",
      "inputs": [],
      "outputs": [
        {
          "name": "senderVersion",
          "type": "uint64",
          "internalType": "uint64"
        },
        {
          "name": "receiverVersion",
          "type": "uint64",
          "internalType": "uint64"
        }
      ],
      "stateMutability": "pure"
    },
    {
      "type": "function",
      "name": "oftVersion",
      "inputs": [],
      "outputs": [
        {
          "name": "interfaceId",
          "type": "bytes4",
          "internalType": "bytes4"
        },
        {
          "name": "version",
          "type": "uint64",
          "internalType": "uint64"
        }
      ],
      "stateMutability": "pure"
    },
    {
      "type": "function",
      "name": "owner",
      "inputs": [],
      "outputs": [
        {
          "name": "",
          "type": "address",
          "internalType": "address"
        }
      ],
      "stateMutability": "view"
    },
    {
      "type": "function",
      "name": "peers",
      "inputs": [
        {
          "name": "eid",
          "type": "uint32",
          "internalType": "uint32"
        }
      ],
      "outputs": [
        {
          "name": "peer",
          "type": "bytes32",
          "internalType": "bytes32"
        }
      ],
      "stateMutability": "view"
    },
    {
      "type": "function",
      "name": "preCrime",
      "inputs": [],
      "outputs": [
        {
          "name": "",
          "type": "address",
          "internalType": "address"
        }
      ],
      "stateMutability": "view"
    },
    {
      "type": "function",
      "name": "quoteOFT",
      "inputs": [
        {
          "name": "_sendParam",
          "type": "tuple",
          "internalType": "struct SendParam",
          "components": [
            {
              "name": "dstEid",
              "type": "uint32",
              "internalType": "uint32"
            },
            {
              "name": "to",
              "type": "bytes32",
              "internalType": "bytes32"
            },
            {
              "name": "amountLD",
              "type": "uint256",
              "internalType": "uint256"
            },
            {
              "name": "minAmountLD",
              "type": "uint256",
              "internalType": "uint256"
            },
            {
              "name": "extraOptions",
              "type": "bytes",
              "internalType": "bytes"
            },
            {
              "name": "composeMsg",
              "type": "bytes",
              "internalType": "bytes"
            },
            {
              "name": "oftCmd",
              "type": "bytes",
              "internalType": "bytes"
            }
          ]
        }
      ],
      "outputs": [
        {
          "name": "oftLimit",
          "type": "tuple",
          "internalType": "struct OFTLimit",
          "components": [
            {
              "name": "minAmountLD",
              "type": "uint256",
              "internalType": "uint256"
            },
            {
              "name": "maxAmountLD",
              "type": "uint256",
              "internalType": "uint256"
            }
          ]
        },
        {
          "name": "oftFeeDetails",
          "type": "tuple[]",
          "internalType": "struct OFTFeeDetail[]",
          "components": [
            {
              "name": "feeAmountLD",
              "type": "int256",
              "internalType": "int256"
            },
            {
              "name": "description",
              "type": "string",
              "internalType": "string"
            }
          ]
        },
        {
          "name": "oftReceipt",
          "type": "tuple",
          "internalType": "struct OFTReceipt",
          "components": [
            {
              "name": "amountSentLD",
              "type": "uint256",
              "internalType": "uint256"
            },
            {
              "name": "amountReceivedLD",
              "type": "uint256",
              "internalType": "uint256"
            }
          ]
        }
      ],
      "stateMutability": "view"
    },
    {
      "type": "function",
      "name": "quoteSend",
      "inputs": [
        {
          "name": "_sendParam",
          "type": "tuple",
          "internalType": "struct SendParam",
          "components": [
            {
              "name": "dstEid",
              "type": "uint32",
              "internalType": "uint32"
            },
            {
              "name": "to",
              "type": "bytes32",
              "internalType": "bytes32"
            },
            {
              "name": "amountLD",
              "type": "uint256",
              "internalType": "uint256"
            },
            {
              "name": "minAmountLD",
              "type": "uint256",
              "internalType": "uint256"
            },
            {
              "name": "extraOptions",
              "type": "bytes",
              "internalType": "bytes"
            },
            {
              "name": "composeMsg",
              "type": "bytes",
              "internalType": "bytes"
            },
            {
              "name": "oftCmd",
              "type": "bytes",
              "internalType": "bytes"
            }
          ]
        },
        {
          "name": "_payInLzToken",
          "type": "bool",
          "internalType": "bool"
        }
      ],
      "outputs": [
        {
          "name": "msgFee",
          "type": "tuple",
          "internalType": "struct MessagingFee",
          "components": [
            {
              "name": "nativeFee",
              "type": "uint256",
              "internalType": "uint256"
            },
            {
              "name": "lzTokenFee",
              "type": "uint256",
              "internalType": "uint256"
            }
          ]
        }
      ],
      "stateMutability": "view"
    },
    {
      "type": "function",
      "name": "removeDust",
      "inputs": [
        {
          "name": "_amountLD",
          "type": "uint256",
          "internalType": "uint256"
        }
      ],
      "outputs": [
        {
          "name": "amountLD",
          "type": "uint256",
          "internalType": "uint256"
        }
      ],
      "stateMutability": "view"
    },
    {
      "type": "function",
      "name": "renounceOwnership",
      "inputs": [],
      "outputs": [],
      "stateMutability": "nonpayable"
    },
    {
      "type": "function",
      "name": "send",
      "inputs": [
        {
          "name": "_sendParam",
          "type": "tuple",
          "internalType": "struct SendParam",
          "components": [
            {
              "name": "dstEid",
              "type": "uint32",
              "internalType": "uint32"
            },
            {
              "name": "to",
              "type": "bytes32",
              "internalType": "bytes32"
            },
            {
              "name": "amountLD",
              "type": "uint256",
              "internalType": "uint256"
            },
            {
              "name": "minAmountLD",
              "type": "uint256",
              "internalType": "uint256"
            },
            {
              "name": "extraOptions",
              "type": "bytes",
              "internalType": "bytes"
            },
            {
              "name": "composeMsg",
              "type": "bytes",
              "internalType": "bytes"
            },
            {
              "name": "oftCmd",
              "type": "bytes",
              "internalType": "bytes"
            }
          ]
        },
        {
          "name": "_fee",
          "type": "tuple",
          "internalType": "struct MessagingFee",
          "components": [
            {
              "name": "nativeFee",
              "type": "uint256",
              "internalType": "uint256"
            },
            {
              "name": "lzTokenFee",
              "type": "uint256",
              "internalType": "uint256"
            }
          ]
        },
        {
          "name": "_refundAddress",
          "type": "address",
          "internalType": "address"
        }
      ],
      "outputs": [
        {
          "name": "msgReceipt",
          "type": "tuple",
          "internalType": "struct MessagingReceipt",
          "components": [
            {
              "name": "guid",
              "type": "bytes32",
              "internalType": "bytes32"
            },
            {
              "name": "nonce",
              "type": "uint64",
              "internalType": "uint64"
            },
            {
              "name": "fee",
              "type": "tuple",
              "internalType": "struct MessagingFee",
              "components": [
                {
                  "name": "nativeFee",
                  "type": "uint256",
                  "internalType": "uint256"
                },
                {
                  "name": "lzTokenFee",
                  "type": "uint256",
                  "internalType": "uint256"
                }
              ]
            }
          ]
        },
        {
          "name": "oftReceipt",
          "type": "tuple",
          "internalType": "struct OFTReceipt",
          "components": [
            {
              "name": "amountSentLD",
              "type": "uint256",
              "internalType": "uint256"
            },
            {
              "name": "amountReceivedLD",
              "type": "uint256",
              "internalType": "uint256"
            }
          ]
        }
      ],
      "stateMutability": "payable"
    },
    {
      "type": "function",
      "name": "setDelegate",
      "inputs": [
        {
          "name": "_delegate",
          "type": "address",
          "internalType": "address"
        }
      ],
      "outputs": [],
      "stateMutability": "nonpayable"
    },
    {
      "type": "function",
      "name": "setEnforcedOptions",
      "inputs": [
        {
          "name": "_enforcedOptions",
          "type": "tuple[]",
          "internalType": "struct EnforcedOptionParam[]",
          "components": [
            {
              "name": "eid",
              "type": "uint32",
              "internalType": "uint32"
            },
            {
              "name": "msgType",
              "type": "uint16",
              "internalType": "uint16"
            },
            {
              "name": "options",
              "type": "bytes",
              "internalType": "bytes"
            }
          ]
        }
      ],
      "outputs": [],
      "stateMutability": "nonpayable"
    },
    {
      "type": "function",
      "name": "setMsgInspector",
      "inputs": [
        {
          "name": "_msgInspector",
          "type": "address",
          "internalType": "address"
        }
      ],
      "outputs": [],
      "stateMutability": "nonpayable"
    },
    {
      "type": "function",
      "name": "setPeer",
      "inputs": [
        {
          "name": "_eid",
          "type": "uint32",
          "internalType": "uint32"
        },
        {
          "name": "_peer",
          "type": "bytes32",
          "internalType": "bytes32"
        }
      ],
      "outputs": [],
      "stateMutability": "nonpayable"
    },
    {
      "type": "function",
      "name": "setPreCrime",
      "inputs": [
        {
          "name": "_preCrime",
          "type": "address",
          "internalType": "address"
        }
      ],
      "outputs": [],
      "stateMutability": "nonpayable"
    },
    {
      "type": "function",
      "name": "sharedDecimals",
      "inputs": [],
      "outputs": [
        {
          "name": "",
          "type": "uint8",
          "internalType": "uint8"
        }
      ],
      "stateMutability": "view"
    },
    {
      "type": "function",
      "name": "symbol",
      "inputs": [],
      "outputs": [
        {
          "name": "",
          "type": "string",
          "internalType": "string"
        }
      ],
      "stateMutability": "view"
    },
    {
      "type": "function",
      "name": "toLD",
      "inputs": [
        {
          "name": "_amountSD",
          "type": "uint64",
          "internalType": "uint64"
        }
      ],
      "outputs": [
        {
          "name": "amountLD",
          "type": "uint256",
          "internalType": "uint256"
        }
      ],
      "stateMutability": "view"
    },
    {
      "type": "function",
      "name": "toSD",
      "inputs": [
        {
          "name": "_amountLD",
          "type": "uint256",
          "internalType": "uint256"
        }
      ],
      "outputs": [
        {
          "name": "amountSD",
          "type": "uint64",
          "internalType": "uint64"
        }
      ],
      "stateMutability": "view"
    },
    {
      "type": "function",
      "name": "token",
      "inputs": [],
      "outputs": [
        {
          "name": "",
          "type": "address",
          "internalType": "address"
        }
      ],
      "stateMutability": "view"
    },
    {
      "type": "function",
      "name": "totalSupply",
      "inputs": [],
      "outputs": [
        {
          "name": "",
          "type": "uint256",
          "internalType": "uint256"
        }
      ],
      "stateMutability": "view"
    },
    {
      "type": "function",
      "name": "transfer",
      "inputs": [
        {
          "name": "to",
          "type": "address",
          "internalType": "address"
        },
        {
          "name": "amount",
          "type": "uint256",
          "internalType": "uint256"
        }
      ],
      "outputs": [
        {
          "name": "",
          "type": "bool",
          "internalType": "bool"
        }
      ],
      "stateMutability": "nonpayable"
    },
    {
      "type": "function",
      "name": "transferFrom",
      "inputs": [
        {
          "name": "from",
          "type": "address",
          "internalType": "address"
        },
        {
          "name": "to",
          "type": "address",
          "internalType": "address"
        },
        {
          "name": "amount",
          "type": "uint256",
          "internalType": "uint256"
        }
      ],
      "outputs": [
        {
          "name": "",
          "type": "bool",
          "internalType": "bool"
        }
      ],
      "stateMutability": "nonpayable"
    },
    {
      "type": "function",
      "name": "transferOwnership",
      "inputs": [
        {
          "name": "newOwner",
          "type": "address",
          "internalType": "address"
        }
      ],
      "outputs": [],
      "stateMutability": "nonpayable"
    },
    {
      "type": "event",
      "name": "Approval",
      "inputs": [
        {
          "name": "owner",
          "type": "address",
          "indexed": true,
          "internalType": "address"
        },
        {
          "name": "spender",
          "type": "address",
          "indexed": true,
          "internalType": "address"
        },
        {
          "name": "value",
          "type": "uint256",
          "indexed": false,
          "internalType": "uint256"
        }
      ],
      "anonymous": false
    },
    {
      "type": "event",
      "name": "EnforcedOptionSet",
      "inputs": [
        {
          "name": "_enforcedOptions",
          "type": "tuple[]",
          "indexed": false,
          "internalType": "struct EnforcedOptionParam[]",
          "components": [
            {
              "name": "eid",
              "type": "uint32",
              "internalType": "uint32"
            },
            {
              "name": "msgType",
              "type": "uint16",
              "internalType": "uint16"
            },
            {
              "name": "options",
              "type": "bytes",
              "internalType": "bytes"
            }
          ]
        }
      ],
      "anonymous": false
    },
    {
      "type": "event",
      "name": "MsgInspectorSet",
      "inputs": [
        {
          "name": "inspector",
          "type": "address",
          "indexed": false,
          "internalType": "address"
        }
      ],
      "anonymous": false
    },
    {
      "type": "event",
      "name": "OFTReceived",
      "inputs": [
        {
          "name": "guid",
          "type": "bytes32",
          "indexed": true,
          "internalType": "bytes32"
        },
        {
          "name": "srcEid",
          "type": "uint32",
          "indexed": false,
          "internalType": "uint32"
        },
        {
          "name": "toAddress",
          "type": "address",
          "indexed": true,
          "internalType": "address"
        },
        {
          "name": "amountReceivedLD",
          "type": "uint256",
          "indexed": false,
          "internalType": "uint256"
        }
      ],
      "anonymous": false
    },
    {
      "type": "event",
      "name": "OFTSent",
      "inputs": [
        {
          "name": "guid",
          "type": "bytes32",
          "indexed": true,
          "internalType": "bytes32"
        },
        {
          "name": "dstEid",
          "type": "uint32",
          "indexed": false,
          "internalType": "uint32"
        },
        {
          "name": "fromAddress",
          "type": "address",
          "indexed": true,
          "internalType": "address"
        },
        {
          "name": "amountSentLD",
          "type": "uint256",
          "indexed": false,
          "internalType": "uint256"
        },
        {
          "name": "amountReceivedLD",
          "type": "uint256",
          "indexed": false,
          "internalType": "uint256"
        }
      ],
      "anonymous": false
    },
    {
      "type": "event",
      "name": "OwnershipTransferred",
      "inputs": [
        {
          "name": "previousOwner",
          "type": "address",
          "indexed": true,
          "internalType": "address"
        },
        {
          "name": "newOwner",
          "type": "address",
          "indexed": true,
          "internalType": "address"
        }
      ],
      "anonymous": false
    },
    {
      "type": "event",
      "name": "PeerSet",
      "inputs": [
        {
          "name": "eid",
          "type": "uint32",
          "indexed": false,
          "internalType": "uint32"
        },
        {
          "name": "peer",
          "type": "bytes32",
          "indexed": false,
          "internalType": "bytes32"
        }
      ],
      "anonymous": false
    },
    {
      "type": "event",
      "name": "PreCrimeSet",
      "inputs": [
        {
          "name": "preCrimeAddress",
          "type": "address",
          "indexed": false,
          "internalType": "address"
        }
      ],
      "anonymous": false
    },
    {
      "type": "event",
      "name": "Transfer",
      "inputs": [
        {
          "name": "from",
          "type": "address",
          "indexed": true,
          "internalType": "address"
        },
        {
          "name": "to",
          "type": "address",
          "indexed": true,
          "internalType": "address"
        },
        {
          "name": "value",
          "type": "uint256",
          "indexed": false,
          "internalType": "uint256"
        }
      ],
      "anonymous": false
    },
    {
      "type": "error",
      "name": "InvalidDelegate",
      "inputs": []
    },
    {
      "type": "error",
      "name": "InvalidEndpointCall",
      "inputs": []
    },
    {
      "type": "error",
      "name": "InvalidLocalDecimals",
      "inputs": []
    },
    {
      "type": "error",
      "name": "InvalidOptions",
      "inputs": [
        {
          "name": "options",
          "type": "bytes",
          "internalType": "bytes"
        }
      ]
    },
    {
      "type": "error",
      "name": "LzTokenUnavailable",
      "inputs": []
    },
    {
      "type": "error",
      "name": "NoPeer",
      "inputs": [
        {
          "name": "eid",
          "type": "uint32",
          "internalType": "uint32"
        }
      ]
    },
    {
      "type": "error",
      "name": "NotEnoughNative",
      "inputs": [
        {
          "name": "msgValue",
          "type": "uint256",
          "internalType": "uint256"
        }
      ]
    },
    {
      "type": "error",
      "name": "OnlyEndpoint",
      "inputs": [
        {
          "name": "addr",
          "type": "address",
          "internalType": "address"
        }
      ]
    },
    {
      "type": "error",
      "name": "OnlyPeer",
      "inputs": [
        {
          "name": "eid",
          "type": "uint32",
          "internalType": "uint32"
        },
        {
          "name": "sender",
          "type": "bytes32",
          "internalType": "bytes32"
        }
      ]
    },
    {
      "type": "error",
      "name": "OnlySelf",
      "inputs": []
    },
    {
      "type": "error",
      "name": "SimulationResult",
      "inputs": [
        {
          "name": "result",
          "type": "bytes",
          "internalType": "bytes"
        }
      ]
    },
    {
      "type": "error",
      "name": "SlippageExceeded",
      "inputs": [
        {
          "name": "amountLD",
          "type": "uint256",
          "internalType": "uint256"
        },
        {
          "name": "minAmountLD",
          "type": "uint256",
          "internalType": "uint256"
        }
      ]
    }
  ],
  "bytecode": {
    "object": "0x60c06040523480156200001157600080fd5b50604051620048263803806200482683398101604081905262000034916200029e565b83838383838360128484818181816200004d3362000167565b6001600160a01b0380831660805281166200007b57604051632d618d8160e21b815260040160405180910390fd5b60805160405163ca5eb5e160e01b81526001600160a01b0383811660048301529091169063ca5eb5e190602401600060405180830381600087803b158015620000c357600080fd5b505af1158015620000d8573d6000803e3d6000fd5b5050505050505050620000f0620001b760201b60201c565b60ff168360ff16101562000117576040516301e9714b60e41b815260040160405180910390fd5b6200012460068462000343565b6200013190600a62000462565b60a0525060089150620001479050838262000509565b50600962000156828262000509565b5050505050505050505050620005d5565b600080546001600160a01b038381166001600160a01b0319831681178455604051919092169283917f8be0079c531659141344cd1fd0a4f28419497f9722a3daafe3b4186f6b6457e09190a35050565b600690565b634e487b7160e01b600052604160045260246000fd5b600082601f830112620001e457600080fd5b81516001600160401b0380821115620002015762000201620001bc565b604051601f8301601f19908116603f011681019082821181831017156200022c576200022c620001bc565b816040528381526020925086838588010111156200024957600080fd5b600091505b838210156200026d57858201830151818301840152908201906200024e565b600093810190920192909252949350505050565b80516001600160a01b03811681146200029957600080fd5b919050565b60008060008060808587031215620002b557600080fd5b84516001600160401b0380821115620002cd57600080fd5b620002db88838901620001d2565b95506020870151915080821115620002f257600080fd5b506200030187828801620001d2565b935050620003126040860162000281565b9150620003226060860162000281565b905092959194509250565b634e487b7160e01b600052601160045260246000fd5b60ff82811682821603908111156200035f576200035f6200032d565b92915050565b600181815b80851115620003a65781600019048211156200038a576200038a6200032d565b808516156200039857918102915b93841c93908002906200036a565b509250929050565b600082620003bf575060016200035f565b81620003ce575060006200035f565b8160018114620003e75760028114620003f25762000412565b60019150506200035f565b60ff8411156200040657620004066200032d565b50506001821b6200035f565b5060208310610133831016604e8410600b841016171562000437575081810a6200035f565b62000443838362000365565b80600019048211156200045a576200045a6200032d565b029392505050565b60006200047360ff841683620003ae565b9392505050565b600181811c908216806200048f57607f821691505b602082108103620004b057634e487b7160e01b600052602260045260246000fd5b50919050565b601f8211156200050457600081815260208120601f850160051c81016020861015620004df5750805b601f850160051c820191505b818110156200050057828155600101620004eb565b5050505b505050565b81516001600160401b03811115620005255762000525620001bc565b6200053d816200053684546200047a565b84620004b6565b602080601f8311600181146200057557600084156200055c5750858301515b600019600386901b1c1916600185901b17855562000500565b600085815260208120601f198616915b82811015620005a65788860151825594840194600190910190840162000585565b5085821015620005c55787850151600019600388901b60f8161c191681555b5050505050600190811b01905550565b60805160a0516141e5620006416000396000818161085a01528181611b770152818161246801526125f10152600081816106fb01528181610c88015281816115f401528181611cac015281816121c40152818161265701528181612a960152612b8001526141e56000f3fe60806040526004361061033f5760003560e01c8063715018a6116101b0578063bb0b6a53116100ec578063d045a0dc11610095578063f01630231161006f578063f016302314610a84578063f2fde38b14610aa4578063fc0c546a1461064a578063ff7bd03d14610ac457600080fd5b8063d045a0dc146109fe578063d424388514610a11578063dd62ed3e14610a3157600080fd5b8063c0779988116100c6578063c07799881461099d578063c7c7f5b3146109bd578063ca5eb5e1146109de57600080fd5b8063bb0b6a531461093d578063bc70b3541461096a578063bd815db01461098a57600080fd5b8063963efcaa11610159578063a9059cbb11610133578063a9059cbb146108b0578063b3a5abeb146108d0578063b731ea0a146108f0578063b98bd0701461091d57600080fd5b8063963efcaa146108485780639f68b9641461087c578063a457c2d71461089057600080fd5b8063857749b01161018a578063857749b0146107f45780638da5cb5b1461080857806395d89b411461083357600080fd5b8063715018a6146107805780637d25a05e1461079557806382413eac146107b857600080fd5b8063313ce5671161027f57806352ae2879116102285780635a0dfe4d116102025780635a0dfe4d146106b25780635e280f11146106e95780636fc1b31e1461071d57806370a082311461073d57600080fd5b806352ae28791461064a57806354f524141461065d5780635535d4611461069257600080fd5b80633b6f743b116102595780633b6f743b146105dd57806340c10f191461060a5780634dba701b1461062a57600080fd5b8063313ce5671461057b5780633400288b1461059d57806339509351146105bd57600080fd5b806313137d65116102ec57806317442b70116102c657806317442b701461050557806318160ddd146105275780631f5e13341461054657806323b872dd1461055b57600080fd5b806313137d6514610487578063134d4f251461049c578063156a0d0f146104c457600080fd5b80630d35b4151161031d5780630d35b415146103cd5780630e78842c146103fc578063111ecdad1461043557600080fd5b8063056d62de1461034457806306fdde031461037b578063095ea7b31461039d575b600080fd5b34801561035057600080fd5b5061036461035f366004612edc565b610ae4565b604051610372929190612f8f565b60405180910390f35b34801561038757600080fd5b50610390610afd565b6040516103729190612fb4565b3480156103a957600080fd5b506103bd6103b8366004612fe9565b610b8f565b6040519015158152602001610372565b3480156103d957600080fd5b506103ed6103e8366004613015565b610ba9565b6040516103729392919061304a565b34801561040857600080fd5b5061041c610417366004613100565b610c7b565b60405167ffffffffffffffff9091168152602001610372565b34801561044157600080fd5b506004546104629073ffffffffffffffffffffffffffffffffffffffff1681565b60405173ffffffffffffffffffffffffffffffffffffffff9091168152602001610372565b61049a61049536600461316d565b610c86565b005b3480156104a857600080fd5b506104b1600281565b60405161ffff9091168152602001610372565b3480156104d057600080fd5b50604080517f02e49c2c0000000000000000000000000000000000000000000000000000000081526001602082015201610372565b34801561051157600080fd5b5060408051600181526002602082015201610372565b34801561053357600080fd5b506007545b604051908152602001610372565b34801561055257600080fd5b506104b1600181565b34801561056757600080fd5b506103bd61057636600461320d565b610d85565b34801561058757600080fd5b5060125b60405160ff9091168152602001610372565b3480156105a957600080fd5b5061049a6105b8366004613267565b610dab565b3480156105c957600080fd5b506103bd6105d8366004612fe9565b610dc1565b3480156105e957600080fd5b506105fd6105f8366004613291565b610e0d565b60405161037291906132e3565b34801561061657600080fd5b5061049a610625366004612fe9565b610e74565b34801561063657600080fd5b506105386106453660046132fa565b610e7e565b34801561065657600080fd5b5030610462565b34801561066957600080fd5b5061067d610678366004613338565b610e93565b60408051928352602083019190915201610372565b34801561069e57600080fd5b506103906106ad366004613376565b610eaf565b3480156106be57600080fd5b506103bd6106cd366004613267565b63ffffffff919091166000908152600160205260409020541490565b3480156106f557600080fd5b506104627f000000000000000000000000000000000000000000000000000000000000000081565b34801561072957600080fd5b5061049a6107383660046133a9565b610f54565b34801561074957600080fd5b506105386107583660046133a9565b73ffffffffffffffffffffffffffffffffffffffff1660009081526005602052604090205490565b34801561078c57600080fd5b5061049a610fd6565b3480156107a157600080fd5b5061041c6107b0366004613267565b600092915050565b3480156107c457600080fd5b506103bd6107d33660046133c6565b73ffffffffffffffffffffffffffffffffffffffff81163014949350505050565b34801561080057600080fd5b50600661058b565b34801561081457600080fd5b5060005473ffffffffffffffffffffffffffffffffffffffff16610462565b34801561083f57600080fd5b50610390610fea565b34801561085457600080fd5b506105387f000000000000000000000000000000000000000000000000000000000000000081565b34801561088857600080fd5b5060006103bd565b34801561089c57600080fd5b506103bd6108ab366004612fe9565b610ff9565b3480156108bc57600080fd5b506103bd6108cb366004612fe9565b6110d5565b3480156108dc57600080fd5b506105386108eb366004613443565b6110e3565b3480156108fc57600080fd5b506002546104629073ffffffffffffffffffffffffffffffffffffffff1681565b34801561092957600080fd5b5061049a6109383660046134a5565b6110ee565b34801561094957600080fd5b506105386109583660046134e7565b60016020526000908152604090205481565b34801561097657600080fd5b50610390610985366004613502565b611108565b61049a6109983660046134a5565b6112c9565b3480156109a957600080fd5b506105386109b8366004613100565b6114a1565b6109d06109cb366004613563565b6114ac565b6040516103729291906135ef565b3480156109ea57600080fd5b5061049a6109f93660046133a9565b6115a7565b61049a610a0c36600461316d565b611653565b348015610a1d57600080fd5b5061049a610a2c3660046133a9565b61169b565b348015610a3d57600080fd5b50610538610a4c366004613642565b73ffffffffffffffffffffffffffffffffffffffff918216600090815260066020908152604080832093909416825291909152205490565b348015610a9057600080fd5b5061067d610a9f366004613338565b611716565b348015610ab057600080fd5b5061049a610abf3660046133a9565b611724565b348015610ad057600080fd5b506103bd610adf366004613670565b6117db565b606080610af18484611811565b915091505b9250929050565b606060088054610b0c9061368c565b80601f0160208091040260200160405190810160405280929190818152602001828054610b389061368c565b8015610b855780601f10610b5a57610100808354040283529160200191610b85565b820191906000526020600020905b815481529060010190602001808311610b6857829003601f168201915b5050505050905090565b600033610b9d818585611968565b60019150505b92915050565b60408051808201909152600080825260208201526060610bdc604051806040016040528060008152602001600081525090565b604080518082018252600080825267ffffffffffffffff602080840182905284518381529081019094529195509182610c38565b604080518082019091526000815260606020820152815260200190600190039081610c105790505b509350600080610c5d604089013560608a0135610c5860208c018c6134e7565b611b1b565b60408051808201909152918252602082015296989597505050505050565b6000610ba382611b70565b7f000000000000000000000000000000000000000000000000000000000000000073ffffffffffffffffffffffffffffffffffffffff163314610cfc576040517f91ac5e4f0000000000000000000000000000000000000000000000000000000081523360048201526024015b60405180910390fd5b60208701803590610d1690610d11908a6134e7565b611b9c565b14610d6d57610d2860208801886134e7565b6040517fc26bebcc00000000000000000000000000000000000000000000000000000000815263ffffffff909116600482015260208801356024820152604401610cf3565b610d7c87878787878787611bf1565b50505050505050565b600033610d93858285611d8b565b610d9e858585611e62565b60019150505b9392505050565b610db36120d8565b610dbd8282612159565b5050565b33600081815260066020908152604080832073ffffffffffffffffffffffffffffffffffffffff87168452909152812054909190610b9d9082908690610e08908790613737565b611968565b60408051808201909152600080825260208201526000610e3d60408501356060860135610c5860208801886134e7565b915050600080610e4d8684611811565b9092509050610e6a610e6260208801886134e7565b8383886121ae565b9695505050505050565b610dbd828261229c565b6000610e8b848484612391565b949350505050565b600080610ea2338686866123c6565b915091505b935093915050565b600360209081526000928352604080842090915290825290208054610ed39061368c565b80601f0160208091040260200160405190810160405280929190818152602001828054610eff9061368c565b8015610f4c5780601f10610f2157610100808354040283529160200191610f4c565b820191906000526020600020905b815481529060010190602001808311610f2f57829003601f168201915b505050505081565b610f5c6120d8565b600480547fffffffffffffffffffffffff00000000000000000000000000000000000000001673ffffffffffffffffffffffffffffffffffffffff83169081179091556040519081527ff0be4f1e87349231d80c36b33f9e8639658eeaf474014dee15a3e6a4d4414197906020015b60405180910390a150565b610fde6120d8565b610fe860006123ec565b565b606060098054610b0c9061368c565b33600081815260066020908152604080832073ffffffffffffffffffffffffffffffffffffffff87168452909152812054909190838110156110bd576040517f08c379a000000000000000000000000000000000000000000000000000000000815260206004820152602560248201527f45524332303a2064656372656173656420616c6c6f77616e63652062656c6f7760448201527f207a65726f0000000000000000000000000000000000000000000000000000006064820152608401610cf3565b6110ca8286868403611968565b506001949350505050565b600033610b9d818585611e62565b6000610ba382612461565b6110f66120d8565b610dbd611103828461382b565b612497565b63ffffffff8416600090815260036020908152604080832061ffff8716845290915281208054606092919061113c9061368c565b80601f01602080910402602001604051908101604052809291908181526020018280546111689061368c565b80156111b55780601f1061118a576101008083540402835291602001916111b5565b820191906000526020600020905b81548152906001019060200180831161119857829003601f168201915b5050505050905080516000036112055783838080601f016020809104026020016040519081016040528093929190818152602001838380828437600092019190915250929450610e8b9350505050565b6000839003611215579050610e8b565b600283106112935761125c84848080601f0160208091040260200160405190810160405280939291908181526020018383808284376000920191909152506125a892505050565b8061126a8460028188613941565b60405160200161127c9392919061396b565b604051602081830303815290604052915050610e8b565b83836040517f9a6d49cd000000000000000000000000000000000000000000000000000000008152600401610cf39291906139dc565b60005b818110156113dc57368383838181106112e7576112e76139f0565b90506020028101906112f99190613a1f565b905061132c61130b60208301836134e7565b602083013563ffffffff919091166000908152600160205260409020541490565b61133657506113ca565b3063d045a0dc60c08301358360a0810135611355610100830183613a5d565b611366610100890160e08a016133a9565b6113746101208a018a613a5d565b6040518963ffffffff1660e01b81526004016113969796959493929190613ac2565b6000604051808303818588803b1580156113af57600080fd5b505af11580156113c3573d6000803e3d6000fd5b5050505050505b806113d481613b56565b9150506112cc565b503373ffffffffffffffffffffffffffffffffffffffff16638e9e70996040518163ffffffff1660e01b8152600401600060405180830381865afa158015611428573d6000803e3d6000fd5b505050506040513d6000823e601f3d9081017fffffffffffffffffffffffffffffffffffffffffffffffffffffffffffffffe016820160405261146e9190810190613b8e565b6040517f8351eea7000000000000000000000000000000000000000000000000000000008152600401610cf39190612fb4565b6000610ba3826125ed565b6114b4612e7c565b60408051808201909152600080825260208201526000806114eb33604089013560608a01356114e660208c018c6134e7565b6123c6565b915091506000806114fc8984611811565b909250905061152861151160208b018b6134e7565b8383611522368d90038d018d613bfc565b8b612624565b60408051808201909152858152602080820186905282519298509096503391907f85496b760a4b7f8d66384b9df21b381f5d1b1e79f229a47aaf4c232edc2fe59a90611576908d018d6134e7565b6040805163ffffffff909216825260208201899052810187905260600160405180910390a350505050935093915050565b6115af6120d8565b6040517fca5eb5e100000000000000000000000000000000000000000000000000000000815273ffffffffffffffffffffffffffffffffffffffff82811660048301527f0000000000000000000000000000000000000000000000000000000000000000169063ca5eb5e190602401600060405180830381600087803b15801561163857600080fd5b505af115801561164c573d6000803e3d6000fd5b5050505050565b33301461168c576040517f14d4a4e800000000000000000000000000000000000000000000000000000000815260040160405180910390fd5b610d7c87878787878787610d6d565b6116a36120d8565b600280547fffffffffffffffffffffffff00000000000000000000000000000000000000001673ffffffffffffffffffffffffffffffffffffffff83169081179091556040519081527fd48d879cef83a1c0bdda516f27b13ddb1b3f8bbac1c9e1511bb2a659c242776090602001610fcb565b600080610ea2858585611b1b565b61172c6120d8565b73ffffffffffffffffffffffffffffffffffffffff81166117cf576040517f08c379a000000000000000000000000000000000000000000000000000000000815260206004820152602660248201527f4f776e61626c653a206e6577206f776e657220697320746865207a65726f206160448201527f64647265737300000000000000000000000000000000000000000000000000006064820152608401610cf3565b6117d8816123ec565b50565b60006020820180359060019083906117f390866134e7565b63ffffffff1681526020810191909152604001600020541492915050565b606080600061186e856020013561182786611b70565b61183460a0890189613a5d565b8080601f01602080910402602001604051908101604052809392919081815260200183838082843760009201919091525061273c92505050565b9093509050600081611881576001611884565b60025b90506118a461189660208801886134e7565b8261098560808a018a613a5d565b60045490935073ffffffffffffffffffffffffffffffffffffffff161561195f57600480546040517f043a78eb00000000000000000000000000000000000000000000000000000000815273ffffffffffffffffffffffffffffffffffffffff9091169163043a78eb9161191c918891889101612f8f565b602060405180830381865afa158015611939573d6000803e3d6000fd5b505050506040513d601f19601f8201168201806040525081019061195d9190613c2e565b505b50509250929050565b73ffffffffffffffffffffffffffffffffffffffff8316611a0a576040517f08c379a0000000000000000000000000000000000000000000000000000000008152602060048201526024808201527f45524332303a20617070726f76652066726f6d20746865207a65726f2061646460448201527f72657373000000000000000000000000000000000000000000000000000000006064820152608401610cf3565b73ffffffffffffffffffffffffffffffffffffffff8216611aad576040517f08c379a000000000000000000000000000000000000000000000000000000000815260206004820152602260248201527f45524332303a20617070726f766520746f20746865207a65726f20616464726560448201527f73730000000000000000000000000000000000000000000000000000000000006064820152608401610cf3565b73ffffffffffffffffffffffffffffffffffffffff83811660008181526006602090815260408083209487168084529482529182902085905590518481527f8c5be1e5ebec7d5bd14f71427d1e84f3dd0314c0f7b2291e5b200ac8c7c3b925910160405180910390a3505050565b600080611b27856125ed565b915081905083811015610ea7576040517f71c4efed0000000000000000000000000000000000000000000000000000000081526004810182905260248101859052604401610cf3565b6000610ba37f000000000000000000000000000000000000000000000000000000000000000083613c4b565b63ffffffff811660009081526001602052604081205480610ba3576040517ff6ff4fb700000000000000000000000000000000000000000000000000000000815263ffffffff84166004820152602401610cf3565b6000611c03611c0087876127ce565b90565b90506000611c2f82611c1d611c188a8a6127e6565b612461565b611c2a60208d018d6134e7565b612391565b90506028861115611d1c576000611c6c611c4f60608c0160408d01613443565b611c5c60208d018d6134e7565b84611c678c8c612809565b612854565b6040517f7cb5901200000000000000000000000000000000000000000000000000000000815290915073ffffffffffffffffffffffffffffffffffffffff7f00000000000000000000000000000000000000000000000000000000000000001690637cb5901290611ce89086908d906000908790600401613c86565b600060405180830381600087803b158015611d0257600080fd5b505af1158015611d16573d6000803e3d6000fd5b50505050505b73ffffffffffffffffffffffffffffffffffffffff8216887fefed6d3500546b29533b128a29e3a94d70788727f0507505ac12eaf2e578fd9c611d6260208d018d6134e7565b6040805163ffffffff9092168252602082018690520160405180910390a3505050505050505050565b73ffffffffffffffffffffffffffffffffffffffff8381166000908152600660209081526040808320938616835292905220547fffffffffffffffffffffffffffffffffffffffffffffffffffffffffffffffff8114611e5c5781811015611e4f576040517f08c379a000000000000000000000000000000000000000000000000000000000815260206004820152601d60248201527f45524332303a20696e73756666696369656e7420616c6c6f77616e63650000006044820152606401610cf3565b611e5c8484848403611968565b50505050565b73ffffffffffffffffffffffffffffffffffffffff8316611f05576040517f08c379a000000000000000000000000000000000000000000000000000000000815260206004820152602560248201527f45524332303a207472616e736665722066726f6d20746865207a65726f20616460448201527f64726573730000000000000000000000000000000000000000000000000000006064820152608401610cf3565b73ffffffffffffffffffffffffffffffffffffffff8216611fa8576040517f08c379a000000000000000000000000000000000000000000000000000000000815260206004820152602360248201527f45524332303a207472616e7366657220746f20746865207a65726f206164647260448201527f65737300000000000000000000000000000000000000000000000000000000006064820152608401610cf3565b73ffffffffffffffffffffffffffffffffffffffff83166000908152600560205260409020548181101561205e576040517f08c379a000000000000000000000000000000000000000000000000000000000815260206004820152602660248201527f45524332303a207472616e7366657220616d6f756e742065786365656473206260448201527f616c616e636500000000000000000000000000000000000000000000000000006064820152608401610cf3565b73ffffffffffffffffffffffffffffffffffffffff80851660008181526005602052604080822086860390559286168082529083902080548601905591517fddf252ad1be2c89b69c2b068fc378daa952ba7f163c4a11628f55a4df523b3ef906120cb9086815260200190565b60405180910390a3611e5c565b60005473ffffffffffffffffffffffffffffffffffffffff163314610fe8576040517f08c379a000000000000000000000000000000000000000000000000000000000815260206004820181905260248201527f4f776e61626c653a2063616c6c6572206973206e6f7420746865206f776e65726044820152606401610cf3565b63ffffffff8216600081815260016020908152604091829020849055815192835282018390527f238399d427b947898edb290f5ff0f9109849b1c3ba196a42e35f00c50a54b98b910160405180910390a15050565b60408051808201909152600080825260208201527f000000000000000000000000000000000000000000000000000000000000000073ffffffffffffffffffffffffffffffffffffffff1663ddc28c586040518060a001604052808863ffffffff16815260200161221e89611b9c565b8152602001878152602001868152602001851515815250306040518363ffffffff1660e01b8152600401612253929190613cc5565b6040805180830381865afa15801561226f573d6000803e3d6000fd5b505050506040513d601f19601f820116820180604052508101906122939190613d99565b95945050505050565b73ffffffffffffffffffffffffffffffffffffffff8216612319576040517f08c379a000000000000000000000000000000000000000000000000000000000815260206004820152601f60248201527f45524332303a206d696e7420746f20746865207a65726f2061646472657373006044820152606401610cf3565b806007600082825461232b9190613737565b909155505073ffffffffffffffffffffffffffffffffffffffff82166000818152600560209081526040808320805486019055518481527fddf252ad1be2c89b69c2b068fc378daa952ba7f163c4a11628f55a4df523b3ef910160405180910390a35050565b600073ffffffffffffffffffffffffffffffffffffffff84166123b45761dead93505b6123be848461229c565b509092915050565b6000806123d4858585611b1b565b90925090506123e3868361288b565b94509492505050565b6000805473ffffffffffffffffffffffffffffffffffffffff8381167fffffffffffffffffffffffff0000000000000000000000000000000000000000831681178455604051919092169283917f8be0079c531659141344cd1fd0a4f28419497f9722a3daafe3b4186f6b6457e09190a35050565b6000610ba37f000000000000000000000000000000000000000000000000000000000000000067ffffffffffffffff8416613db5565b60005b8151811015612578576124c98282815181106124b8576124b86139f0565b6020026020010151604001516125a8565b8181815181106124db576124db6139f0565b602002602001015160400151600360008484815181106124fd576124fd6139f0565b60200260200101516000015163ffffffff1663ffffffff1681526020019081526020016000206000848481518110612537576125376139f0565b60200260200101516020015161ffff1661ffff16815260200190815260200160002090816125659190613e1a565b508061257081613b56565b91505061249a565b507fbe4864a8e820971c0247f5992e2da559595f7bf076a21cb5928d443d2a13b67481604051610fcb9190613f34565b600281015161ffff8116600314610dbd57816040517f9a6d49cd000000000000000000000000000000000000000000000000000000008152600401610cf39190612fb4565b60007f000000000000000000000000000000000000000000000000000000000000000061261a8184613c4b565b610ba39190613db5565b61262c612e7c565b600061263b8460000151612a51565b602085015190915015612655576126558460200151612a92565b7f000000000000000000000000000000000000000000000000000000000000000073ffffffffffffffffffffffffffffffffffffffff16632637a450826040518060a001604052808b63ffffffff1681526020016126b28c611b9c565b81526020018a815260200189815260200160008960200151111515815250866040518463ffffffff1660e01b81526004016126ee929190613cc5565b60806040518083038185885af115801561270c573d6000803e3d6000fd5b50505050506040513d601f19601f820116820180604052508101906127319190613fdb565b979650505050505050565b805160609015158061279d57848460405160200161278992919091825260c01b7fffffffffffffffff00000000000000000000000000000000000000000000000016602082015260280190565b6040516020818303038152906040526127c4565b848433856040516020016127b49493929190614025565b6040516020818303038152906040525b9150935093915050565b60006127dd6020828486613941565b610da49161407e565b60006127f6602860208486613941565b6127ff916140ba565b60c01c9392505050565b60606128188260288186613941565b8080601f016020809104026020016040519081016040528093929190818152602001838380828437600092019190915250929695505050505050565b60608484848460405160200161286d9493929190614102565b6040516020818303038152906040529050949350505050565b505050565b73ffffffffffffffffffffffffffffffffffffffff821661292e576040517f08c379a000000000000000000000000000000000000000000000000000000000815260206004820152602160248201527f45524332303a206275726e2066726f6d20746865207a65726f2061646472657360448201527f73000000000000000000000000000000000000000000000000000000000000006064820152608401610cf3565b73ffffffffffffffffffffffffffffffffffffffff8216600090815260056020526040902054818110156129e4576040517f08c379a000000000000000000000000000000000000000000000000000000000815260206004820152602260248201527f45524332303a206275726e20616d6f756e7420657863656564732062616c616e60448201527f63650000000000000000000000000000000000000000000000000000000000006064820152608401610cf3565b73ffffffffffffffffffffffffffffffffffffffff831660008181526005602090815260408083208686039055600780548790039055518581529192917fddf252ad1be2c89b69c2b068fc378daa952ba7f163c4a11628f55a4df523b3ef910160405180910390a3505050565b6000813414612a8e576040517f9f704120000000000000000000000000000000000000000000000000000000008152346004820152602401610cf3565b5090565b60007f000000000000000000000000000000000000000000000000000000000000000073ffffffffffffffffffffffffffffffffffffffff1663e4fe1d946040518163ffffffff1660e01b8152600401602060405180830381865afa158015612aff573d6000803e3d6000fd5b505050506040513d601f19601f82011682018060405250810190612b239190614180565b905073ffffffffffffffffffffffffffffffffffffffff8116612b72576040517f5373352a00000000000000000000000000000000000000000000000000000000815260040160405180910390fd5b6040805133602482018190527f000000000000000000000000000000000000000000000000000000000000000073ffffffffffffffffffffffffffffffffffffffff818116604485015260648085018890528551808603909101815260849094018552602080850180517bffffffffffffffffffffffffffffffffffffffffffffffffffffffff167f23b872dd0000000000000000000000000000000000000000000000000000000017905285518087019096528086527f5361666545524332303a206c6f772d6c6576656c2063616c6c206661696c656490860152610dbd94908616938791611e5c918691600090612c6e9084908490612d1b565b9050805160001480612c8f575080806020019051810190612c8f9190613c2e565b612886576040517f08c379a000000000000000000000000000000000000000000000000000000000815260206004820152602a60248201527f5361666545524332303a204552433230206f7065726174696f6e20646964206e60448201527f6f742073756363656564000000000000000000000000000000000000000000006064820152608401610cf3565b6060610e8b8484600085856000808673ffffffffffffffffffffffffffffffffffffffff168587604051612d4f919061419d565b60006040518083038185875af1925050503d8060008114612d8c576040519150601f19603f3d011682016040523d82523d6000602084013e612d91565b606091505b50915091506127318783838760608315612e33578251600003612e2c5773ffffffffffffffffffffffffffffffffffffffff85163b612e2c576040517f08c379a000000000000000000000000000000000000000000000000000000000815260206004820152601d60248201527f416464726573733a2063616c6c20746f206e6f6e2d636f6e74726163740000006044820152606401610cf3565b5081610e8b565b610e8b8383815115612e485781518083602001fd5b806040517f08c379a0000000000000000000000000000000000000000000000000000000008152600401610cf39190612fb4565b604051806060016040528060008019168152602001600067ffffffffffffffff168152602001612ebf604051806040016040528060008152602001600081525090565b905290565b600060e08284031215612ed657600080fd5b50919050565b60008060408385031215612eef57600080fd5b823567ffffffffffffffff811115612f0657600080fd5b612f1285828601612ec4565b95602094909401359450505050565b60005b83811015612f3c578181015183820152602001612f24565b50506000910152565b60008151808452612f5d816020860160208601612f21565b601f017fffffffffffffffffffffffffffffffffffffffffffffffffffffffffffffffe0169290920160200192915050565b604081526000612fa26040830185612f45565b82810360208401526122938185612f45565b602081526000610da46020830184612f45565b73ffffffffffffffffffffffffffffffffffffffff811681146117d857600080fd5b60008060408385031215612ffc57600080fd5b823561300781612fc7565b946020939093013593505050565b60006020828403121561302757600080fd5b813567ffffffffffffffff81111561303e57600080fd5b610e8b84828501612ec4565b8351815260208085015190820152600060a08201604060a08185015281865180845260c08601915060c08160051b8701019350602080890160005b838110156130e2578887037fffffffffffffffffffffffffffffffffffffffffffffffffffffffffffffff400185528151805188528301518388018790526130cf87890182612f45565b9750509382019390820190600101613085565b50508751606088015250505060208501516080850152509050610e8b565b60006020828403121561311257600080fd5b5035919050565b600060608284031215612ed657600080fd5b60008083601f84011261313d57600080fd5b50813567ffffffffffffffff81111561315557600080fd5b602083019150836020828501011115610af657600080fd5b600080600080600080600060e0888a03121561318857600080fd5b6131928989613119565b965060608801359550608088013567ffffffffffffffff808211156131b657600080fd5b6131c28b838c0161312b565b909750955060a08a013591506131d782612fc7565b90935060c089013590808211156131ed57600080fd5b506131fa8a828b0161312b565b989b979a50959850939692959293505050565b60008060006060848603121561322257600080fd5b833561322d81612fc7565b9250602084013561323d81612fc7565b929592945050506040919091013590565b803563ffffffff8116811461326257600080fd5b919050565b6000806040838503121561327a57600080fd5b6130078361324e565b80151581146117d857600080fd5b600080604083850312156132a457600080fd5b823567ffffffffffffffff8111156132bb57600080fd5b6132c785828601612ec4565b92505060208301356132d881613283565b809150509250929050565b815181526020808301519082015260408101610ba3565b60008060006060848603121561330f57600080fd5b833561331a81612fc7565b92506020840135915061332f6040850161324e565b90509250925092565b60008060006060848603121561334d57600080fd5b833592506020840135915061332f6040850161324e565b803561ffff8116811461326257600080fd5b6000806040838503121561338957600080fd5b6133928361324e565b91506133a060208401613364565b90509250929050565b6000602082840312156133bb57600080fd5b8135610da481612fc7565b60008060008060a085870312156133dc57600080fd5b6133e68686613119565b9350606085013567ffffffffffffffff81111561340257600080fd5b61340e8782880161312b565b909450925050608085013561342281612fc7565b939692955090935050565b67ffffffffffffffff811681146117d857600080fd5b60006020828403121561345557600080fd5b8135610da48161342d565b60008083601f84011261347257600080fd5b50813567ffffffffffffffff81111561348a57600080fd5b6020830191508360208260051b8501011115610af657600080fd5b600080602083850312156134b857600080fd5b823567ffffffffffffffff8111156134cf57600080fd5b6134db85828601613460565b90969095509350505050565b6000602082840312156134f957600080fd5b610da48261324e565b6000806000806060858703121561351857600080fd5b6135218561324e565b935061352f60208601613364565b9250604085013567ffffffffffffffff81111561354b57600080fd5b6135578782880161312b565b95989497509550505050565b6000806000838503608081121561357957600080fd5b843567ffffffffffffffff81111561359057600080fd5b61359c87828801612ec4565b94505060407fffffffffffffffffffffffffffffffffffffffffffffffffffffffffffffffe0820112156135cf57600080fd5b5060208401915060608401356135e481612fc7565b809150509250925092565b600060c0820190508351825267ffffffffffffffff6020850151166020830152604084015161362b604084018280518252602090810151910152565b5082516080830152602083015160a0830152610da4565b6000806040838503121561365557600080fd5b823561366081612fc7565b915060208301356132d881612fc7565b60006060828403121561368257600080fd5b610da48383613119565b600181811c908216806136a057607f821691505b602082108103612ed6577f4e487b7100000000000000000000000000000000000000000000000000000000600052602260045260246000fd5b7f4e487b7100000000000000000000000000000000000000000000000000000000600052604160045260246000fd5b7f4e487b7100000000000000000000000000000000000000000000000000000000600052601160045260246000fd5b80820180821115610ba357610ba3613708565b6040516060810167ffffffffffffffff8111828210171561376d5761376d6136d9565b60405290565b6040805190810167ffffffffffffffff8111828210171561376d5761376d6136d9565b604051601f82017fffffffffffffffffffffffffffffffffffffffffffffffffffffffffffffffe016810167ffffffffffffffff811182821017156137dd576137dd6136d9565b604052919050565b600067ffffffffffffffff8211156137ff576137ff6136d9565b50601f017fffffffffffffffffffffffffffffffffffffffffffffffffffffffffffffffe01660200190565b600067ffffffffffffffff80841115613846576138466136d9565b8360051b6020613857818301613796565b86815291850191818101903684111561386f57600080fd5b865b84811015613935578035868111156138895760008081fd5b8801606036829003121561389d5760008081fd5b6138a561374a565b6138ae8261324e565b81526138bb868301613364565b86820152604080830135898111156138d35760008081fd5b929092019136601f8401126138e85760008081fd5b82356138fb6138f6826137e5565b613796565b81815236898387010111156139105760008081fd5b818986018a830137600091810189019190915290820152845250918301918301613871565b50979650505050505050565b6000808585111561395157600080fd5b8386111561395e57600080fd5b5050820193919092039150565b6000845161397d818460208901612f21565b8201838582376000930192835250909392505050565b8183528181602085013750600060208284010152600060207fffffffffffffffffffffffffffffffffffffffffffffffffffffffffffffffe0601f840116840101905092915050565b602081526000610e8b602083018486613993565b7f4e487b7100000000000000000000000000000000000000000000000000000000600052603260045260246000fd5b600082357ffffffffffffffffffffffffffffffffffffffffffffffffffffffffffffffec1833603018112613a5357600080fd5b9190910192915050565b60008083357fffffffffffffffffffffffffffffffffffffffffffffffffffffffffffffffe1843603018112613a9257600080fd5b83018035915067ffffffffffffffff821115613aad57600080fd5b602001915036819003821315610af657600080fd5b63ffffffff613ad08961324e565b1681526020880135602082015260006040890135613aed8161342d565b67ffffffffffffffff811660408401525087606083015260e06080830152613b1960e083018789613993565b73ffffffffffffffffffffffffffffffffffffffff861660a084015282810360c0840152613b48818587613993565b9a9950505050505050505050565b60007fffffffffffffffffffffffffffffffffffffffffffffffffffffffffffffffff8203613b8757613b87613708565b5060010190565b600060208284031215613ba057600080fd5b815167ffffffffffffffff811115613bb757600080fd5b8201601f81018413613bc857600080fd5b8051613bd66138f6826137e5565b818152856020838501011115613beb57600080fd5b612293826020830160208601612f21565b600060408284031215613c0e57600080fd5b613c16613773565b82358152602083013560208201528091505092915050565b600060208284031215613c4057600080fd5b8151610da481613283565b600082613c81577f4e487b7100000000000000000000000000000000000000000000000000000000600052601260045260246000fd5b500490565b73ffffffffffffffffffffffffffffffffffffffff8516815283602082015261ffff83166040820152608060608201526000610e6a6080830184612f45565b6040815263ffffffff8351166040820152602083015160608201526000604084015160a06080840152613cfb60e0840182612f45565b905060608501517fffffffffffffffffffffffffffffffffffffffffffffffffffffffffffffffc08483030160a0850152613d368282612f45565b60809690960151151560c085015250505073ffffffffffffffffffffffffffffffffffffffff9190911660209091015290565b600060408284031215613d7b57600080fd5b613d83613773565b9050815181526020820151602082015292915050565b600060408284031215613dab57600080fd5b610da48383613d69565b8082028115828204841417610ba357610ba3613708565b601f82111561288657600081815260208120601f850160051c81016020861015613df35750805b601f850160051c820191505b81811015613e1257828155600101613dff565b505050505050565b815167ffffffffffffffff811115613e3457613e346136d9565b613e4881613e42845461368c565b84613dcc565b602080601f831160018114613e9b5760008415613e655750858301515b7fffffffffffffffffffffffffffffffffffffffffffffffffffffffffffffffff600386901b1c1916600185901b178555613e12565b6000858152602081207fffffffffffffffffffffffffffffffffffffffffffffffffffffffffffffffe08616915b82811015613ee857888601518255948401946001909101908401613ec9565b5085821015613f2457878501517fffffffffffffffffffffffffffffffffffffffffffffffffffffffffffffffff600388901b60f8161c191681555b5050505050600190811b01905550565b60006020808301818452808551808352604092508286019150828160051b87010184880160005b83811015613fcd578883037fffffffffffffffffffffffffffffffffffffffffffffffffffffffffffffffc00185528151805163ffffffff1684528781015161ffff16888501528601516060878501819052613fb981860183612f45565b968901969450505090860190600101613f5b565b509098975050505050505050565b600060808284031215613fed57600080fd5b613ff561374a565b8251815260208301516140078161342d565b60208201526140198460408501613d69565b60408201529392505050565b8481527fffffffffffffffff0000000000000000000000000000000000000000000000008460c01b1660208201528260288201526000825161406e816048850160208701612f21565b9190910160480195945050505050565b80356020831015610ba3577fffffffffffffffffffffffffffffffffffffffffffffffffffffffffffffffff602084900360031b1b1692915050565b7fffffffffffffffff00000000000000000000000000000000000000000000000081358181169160088510156140fa5780818660080360031b1b83161692505b505092915050565b7fffffffffffffffff0000000000000000000000000000000000000000000000008560c01b1681527fffffffff000000000000000000000000000000000000000000000000000000008460e01b16600882015282600c8201526000825161417081602c850160208701612f21565b91909101602c0195945050505050565b60006020828403121561419257600080fd5b8151610da481612fc7565b60008251613a53818460208701612f2156fea26469706673582212205b295373ca67070915b824c2309d22dc56f022f58cd3638d5ba3986f0904bf6464736f6c63430008140033",
    "linkReferences": {}
  },
  "methodIdentifiers": {
    "SEND()": "1f5e1334",
    "SEND_AND_CALL()": "134d4f25",
    "allowInitializePath((uint32,bytes32,uint64))": "ff7bd03d",
    "allowance(address,address)": "dd62ed3e",
    "approvalRequired()": "9f68b964",
    "approve(address,uint256)": "095ea7b3",
    "balanceOf(address)": "70a08231",
    "buildMsgAndOptions((uint32,bytes32,uint256,uint256,bytes,bytes,bytes),uint256)": "056d62de",
    "combineOptions(uint32,uint16,bytes)": "bc70b354",
    "credit(address,uint256,uint32)": "4dba701b",
    "debit(uint256,uint256,uint32)": "54f52414",
    "debitView(uint256,uint256,uint32)": "f0163023",
    "decimalConversionRate()": "963efcaa",
    "decimals()": "313ce567",
    "decreaseAllowance(address,uint256)": "a457c2d7",
    "endpoint()": "5e280f11",
    "enforcedOptions(uint32,uint16)": "5535d461",
    "increaseAllowance(address,uint256)": "39509351",
    "isComposeMsgSender((uint32,bytes32,uint64),bytes,address)": "82413eac",
    "isPeer(uint32,bytes32)": "5a0dfe4d",
    "lzReceive((uint32,bytes32,uint64),bytes32,bytes,address,bytes)": "13137d65",
    "lzReceiveAndRevert(((uint32,bytes32,uint64),uint32,address,bytes32,uint256,address,bytes,bytes)[])": "bd815db0",
    "lzReceiveSimulate((uint32,bytes32,uint64),bytes32,bytes,address,bytes)": "d045a0dc",
    "mint(address,uint256)": "40c10f19",
    "msgInspector()": "111ecdad",
    "name()": "06fdde03",
    "nextNonce(uint32,bytes32)": "7d25a05e",
    "oApp()": "52ae2879",
    "oAppVersion()": "17442b70",
    "oftVersion()": "156a0d0f",
    "owner()": "8da5cb5b",
    "peers(uint32)": "bb0b6a53",
    "preCrime()": "b731ea0a",
    "quoteOFT((uint32,bytes32,uint256,uint256,bytes,bytes,bytes))": "0d35b415",
    "quoteSend((uint32,bytes32,uint256,uint256,bytes,bytes,bytes),bool)": "3b6f743b",
    "removeDust(uint256)": "c0779988",
    "renounceOwnership()": "715018a6",
    "send((uint32,bytes32,uint256,uint256,bytes,bytes,bytes),(uint256,uint256),address)": "c7c7f5b3",
    "setDelegate(address)": "ca5eb5e1",
    "setEnforcedOptions((uint32,uint16,bytes)[])": "b98bd070",
    "setMsgInspector(address)": "6fc1b31e",
    "setPeer(uint32,bytes32)": "3400288b",
    "setPreCrime(address)": "d4243885",
    "sharedDecimals()": "857749b0",
    "symbol()": "95d89b41",
    "toLD(uint64)": "b3a5abeb",
    "toSD(uint256)": "0e78842c",
    "token()": "fc0c546a",
    "totalSupply()": "18160ddd",
    "transfer(address,uint256)": "a9059cbb",
    "transferFrom(address,address,uint256)": "23b872dd",
    "transferOwnership(address)": "f2fde38b"
  },
  "id": 139
}