{
  "contracts/Thrower.sol": {
    "Thrower": {
      "abi": [
        {
          "inputs": [
            {
              "internalType": "string",
              "name": "message",
              "type": "string"
            }
          ],
          "name": "CustomErrorWithAnArgument",
          "type": "error"
        },
        {
          "inputs": [],
          "name": "CustomErrorWithNoArguments",
          "type": "error"
        },
        {
          "inputs": [],
          "name": "throwWithAssert",
          "outputs": [],
          "stateMutability": "pure",
          "type": "function"
        },
        {
          "inputs": [
            {
              "internalType": "string",
              "name": "message",
              "type": "string"
            }
          ],
          "name": "throwWithCustomErrorAndArgument",
          "outputs": [],
          "stateMutability": "pure",
          "type": "function"
        },
        {
          "inputs": [],
          "name": "throwWithCustomErrorAndNoArguments",
          "outputs": [],
          "stateMutability": "pure",
          "type": "function"
        },
        {
          "inputs": [
            {
              "internalType": "string",
              "name": "message",
              "type": "string"
            }
          ],
          "name": "throwWithRequireAndArgument",
          "outputs": [],
          "stateMutability": "pure",
          "type": "function"
        },
        {
          "inputs": [],
          "name": "throwWithRequireAndNoArguments",
          "outputs": [],
          "stateMutability": "pure",
          "type": "function"
        },
        {
          "inputs": [
            {
              "internalType": "string",
              "name": "message",
              "type": "string"
            }
          ],
          "name": "throwWithRevertAndArgument",
          "outputs": [],
          "stateMutability": "pure",
          "type": "function"
        },
        {
          "inputs": [],
          "name": "throwWithRevertAndNoArguments",
          "outputs": [],
          "stateMutability": "pure",
          "type": "function"
        }
      ],
      "evm": {
        "bytecode": {
          "linkReferences": {},
          "object": "608060405234801561001057600080fd5b506103ca806100206000396000f3fe608060405234801561001057600080fd5b506004361061007d5760003560e01c80633b6a55a21161005b5780633b6a55a2146100b257806364442a2b146100bc578063b8580e43146100d8578063ca24bbc8146100f45761007d565b806304ff6ec614610082578063143a9b111461008c57806324007228146100a8575b600080fd5b61008a6100fe565b005b6100a660048036038101906100a19190610296565b610130565b005b6100b061016f565b005b6100ba61017f565b005b6100d660048036038101906100d19190610296565b610193565b005b6100f260048036038101906100ed9190610296565b6101d2565b005b6100fc610222565b005b6040517fd4abb89900000000000000000000000000000000000000000000000000000000815260040160405180910390fd5b81816040517ff1c37159000000000000000000000000000000000000000000000000000000008152600401610166929190610341565b60405180910390fd5b600160001461017d57600080fd5b565b600160001461019157610190610365565b5b565b81816040517f08c379a00000000000000000000000000000000000000000000000000000000081526004016101c9929190610341565b60405180910390fd5b60016000148282909161021c576040517f08c379a0000000000000000000000000000000000000000000000000000000008152600401610213929190610341565b60405180910390fd5b50505050565b600080fd5b600080fd5b600080fd5b600080fd5b600080fd5b600080fd5b60008083601f84011261025657610255610231565b5b8235905067ffffffffffffffff81111561027357610272610236565b5b60208301915083600182028301111561028f5761028e61023b565b5b9250929050565b600080602083850312156102ad576102ac610227565b5b600083013567ffffffffffffffff8111156102cb576102ca61022c565b5b6102d785828601610240565b92509250509250929050565b600082825260208201905092915050565b82818337600083830152505050565b6000601f19601f8301169050919050565b600061032083856102e3565b935061032d8385846102f4565b61033683610303565b840190509392505050565b6000602082019050818103600083015261035c818486610314565b90509392505050565b7f4e487b7100000000000000000000000000000000000000000000000000000000600052600160045260246000fdfea26469706673582212206087510aa9bda6b9cfb8e7c7c53be27495117504f88d143119b0d3a2700bea0f64736f6c63430008160033",
          "opcodes": "PUSH1 0x80 PUSH1 0x40 MSTORE CALLVALUE DUP1 ISZERO PUSH2 0x10 JUMPI PUSH1 0x0 DUP1 REVERT JUMPDEST POP PUSH2 0x3CA DUP1 PUSH2 0x20 PUSH1 0x0 CODECOPY PUSH1 0x0 RETURN INVALID PUSH1 0x80 PUSH1 0x40 MSTORE CALLVALUE DUP1 ISZERO PUSH2 0x10 JUMPI PUSH1 0x0 DUP1 REVERT JUMPDEST POP PUSH1 0x4 CALLDATASIZE LT PUSH2 0x7D JUMPI PUSH1 0x0 CALLDATALOAD PUSH1 0xE0 SHR DUP1 PUSH4 0x3B6A55A2 GT PUSH2 0x5B JUMPI DUP1 PUSH4 0x3B6A55A2 EQ PUSH2 0xB2 JUMPI DUP1 PUSH4 0x64442A2B EQ PUSH2 0xBC JUMPI DUP1 PUSH4 0xB8580E43 EQ PUSH2 0xD8 JUMPI DUP1 PUSH4 0xCA24BBC8 EQ PUSH2 0xF4 JUMPI PUSH2 0x7D JUMP JUMPDEST DUP1 PUSH4 0x4FF6EC6 EQ PUSH2 0x82 JUMPI DUP1 PUSH4 0x143A9B11 EQ PUSH2 0x8C JUMPI DUP1 PUSH4 0x24007228 EQ PUSH2 0xA8 JUMPI JUMPDEST PUSH1 0x0 DUP1 REVERT JUMPDEST PUSH2 0x8A PUSH2 0xFE JUMP JUMPDEST STOP JUMPDEST PUSH2 0xA6 PUSH1 0x4 DUP1 CALLDATASIZE SUB DUP2 ADD SWAP1 PUSH2 0xA1 SWAP2 SWAP1 PUSH2 0x296 JUMP JUMPDEST PUSH2 0x130 JUMP JUMPDEST STOP JUMPDEST PUSH2 0xB0 PUSH2 0x16F JUMP JUMPDEST STOP JUMPDEST PUSH2 0xBA PUSH2 0x17F JUMP JUMPDEST STOP JUMPDEST PUSH2 0xD6 PUSH1 0x4 DUP1 CALLDATASIZE SUB DUP2 ADD SWAP1 PUSH2 0xD1 SWAP2 SWAP1 PUSH2 0x296 JUMP JUMPDEST PUSH2 0x193 JUMP JUMPDEST STOP JUMPDEST PUSH2 0xF2 PUSH1 0x4 DUP1 CALLDATASIZE SUB DUP2 ADD SWAP1 PUSH2 0xED SWAP2 SWAP1 PUSH2 0x296 JUMP JUMPDEST PUSH2 0x1D2 JUMP JUMPDEST STOP JUMPDEST PUSH2 0xFC PUSH2 0x222 JUMP JUMPDEST STOP JUMPDEST PUSH1 0x40 MLOAD PUSH32 0xD4ABB89900000000000000000000000000000000000000000000000000000000 DUP2 MSTORE PUSH1 0x4 ADD PUSH1 0x40 MLOAD DUP1 SWAP2 SUB SWAP1 REVERT JUMPDEST DUP2 DUP2 PUSH1 0x40 MLOAD PUSH32 0xF1C3715900000000000000000000000000000000000000000000000000000000 DUP2 MSTORE PUSH1 0x4 ADD PUSH2 0x166 SWAP3 SWAP2 SWAP1 PUSH2 0x341 JUMP JUMPDEST PUSH1 0x40 MLOAD DUP1 SWAP2 SUB SWAP1 REVERT JUMPDEST PUSH1 0x1 PUSH1 0x0 EQ PUSH2 0x17D JUMPI PUSH1 0x0 DUP1 REVERT JUMPDEST JUMP JUMPDEST PUSH1 0x1 PUSH1 0x0 EQ PUSH2 0x191 JUMPI PUSH2 0x190 PUSH2 0x365 JUMP JUMPDEST JUMPDEST JUMP JUMPDEST DUP2 DUP2 PUSH1 0x40 MLOAD PUSH32 0x8C379A000000000000000000000000000000000000000000000000000000000 DUP2 MSTORE PUSH1 0x4 ADD PUSH2 0x1C9 SWAP3 SWAP2 SWAP1 PUSH2 0x341 JUMP JUMPDEST PUSH1 0x40 MLOAD DUP1 SWAP2 SUB SWAP1 REVERT JUMPDEST PUSH1 0x1 PUSH1 0x0 EQ DUP3 DUP3 SWAP1 SWAP2 PUSH2 0x21C JUMPI PUSH1 0x40 MLOAD PUSH32 0x8C379A000000000000000000000000000000000000000000000000000000000 DUP2 MSTORE PUSH1 0x4 ADD PUSH2 0x213 SWAP3 SWAP2 SWAP1 PUSH2 0x341 JUMP JUMPDEST PUSH1 0x40 MLOAD DUP1 SWAP2 SUB SWAP1 REVERT JUMPDEST POP POP POP POP JUMP JUMPDEST PUSH1 0x0 DUP1 REVERT JUMPDEST PUSH1 0x0 DUP1 REVERT JUMPDEST PUSH1 0x0 DUP1 REVERT JUMPDEST PUSH1 0x0 DUP1 REVERT JUMPDEST PUSH1 0x0 DUP1 REVERT JUMPDEST PUSH1 0x0 DUP1 REVERT JUMPDEST PUSH1 0x0 DUP1 DUP4 PUSH1 0x1F DUP5 ADD SLT PUSH2 0x256 JUMPI PUSH2 0x255 PUSH2 0x231 JUMP JUMPDEST JUMPDEST DUP3 CALLDATALOAD SWAP1 POP PUSH8 0xFFFFFFFFFFFFFFFF DUP2 GT ISZERO PUSH2 0x273 JUMPI PUSH2 0x272 PUSH2 0x236 JUMP JUMPDEST JUMPDEST PUSH1 0x20 DUP4 ADD SWAP2 POP DUP4 PUSH1 0x1 DUP3 MUL DUP4 ADD GT ISZERO PUSH2 0x28F JUMPI PUSH2 0x28E PUSH2 0x23B JUMP JUMPDEST JUMPDEST SWAP3 POP SWAP3 SWAP1 POP JUMP JUMPDEST PUSH1 0x0 DUP1 PUSH1 0x20 DUP4 DUP6 SUB SLT ISZERO PUSH2 0x2AD JUMPI PUSH2 0x2AC PUSH2 0x227 JUMP JUMPDEST JUMPDEST PUSH1 0x0 DUP4 ADD CALLDATALOAD PUSH8 0xFFFFFFFFFFFFFFFF DUP2 GT ISZERO PUSH2 0x2CB JUMPI PUSH2 0x2CA PUSH2 0x22C JUMP JUMPDEST JUMPDEST PUSH2 0x2D7 DUP6 DUP3 DUP7 ADD PUSH2 0x240 JUMP JUMPDEST SWAP3 POP SWAP3 POP POP SWAP3 POP SWAP3 SWAP1 POP JUMP JUMPDEST PUSH1 0x0 DUP3 DUP3 MSTORE PUSH1 0x20 DUP3 ADD SWAP1 POP SWAP3 SWAP2 POP POP JUMP JUMPDEST DUP3 DUP2 DUP4 CALLDATACOPY PUSH1 0x0 DUP4 DUP4 ADD MSTORE POP POP POP JUMP JUMPDEST PUSH1 0x0 PUSH1 0x1F NOT PUSH1 0x1F DUP4 ADD AND SWAP1 POP SWAP2 SWAP1 POP JUMP JUMPDEST PUSH1 0x0 PUSH2 0x320 DUP4 DUP6 PUSH2 0x2E3 JUMP JUMPDEST SWAP4 POP PUSH2 0x32D DUP4 DUP6 DUP5 PUSH2 0x2F4 JUMP JUMPDEST PUSH2 0x336 DUP4 PUSH2 0x303 JUMP JUMPDEST DUP5 ADD SWAP1 POP SWAP4 SWAP3 POP POP POP JUMP JUMPDEST PUSH1 0x0 PUSH1 0x20 DUP3 ADD SWAP1 POP DUP2 DUP2 SUB PUSH1 0x0 DUP4 ADD MSTORE PUSH2 0x35C DUP2 DUP5 DUP7 PUSH2 0x314 JUMP JUMPDEST SWAP1 POP SWAP4 SWAP3 POP POP POP JUMP JUMPDEST PUSH32 0x4E487B7100000000000000000000000000000000000000000000000000000000 PUSH1 0x0 MSTORE PUSH1 0x1 PUSH1 0x4 MSTORE PUSH1 0x24 PUSH1 0x0 REVERT INVALID LOG2 PUSH5 0x6970667358 0x22 SLT KECCAK256 PUSH1 0x87 MLOAD EXP 0xA9 0xBD 0xA6 0xB9 0xCF 0xB8 0xE7 0xC7 0xC5 EXTCODESIZE 0xE2 PUSH21 0x95117504F88D143119B0D3A2700BEA0F64736F6C63 NUMBER STOP ADDMOD AND STOP CALLER "
        },
        "methodIdentifiers": {
          "throwWithAssert()": "3b6a55a2",
          "throwWithCustomErrorAndArgument(string)": "143a9b11",
          "throwWithCustomErrorAndNoArguments()": "04ff6ec6",
          "throwWithRequireAndArgument(string)": "b8580e43",
          "throwWithRequireAndNoArguments()": "24007228",
          "throwWithRevertAndArgument(string)": "64442a2b",
          "throwWithRevertAndNoArguments()": "ca24bbc8"
        }
      }
    }
  }
}