{
  "contracts/ParallelEmitter.sol": {
    "ParallelEmitter": {
      "abi": [
        {
          "anonymous": false,
          "inputs": [],
          "name": "NoArgEvent",
          "type": "event"
        },
        {
          "inputs": [],
          "name": "emitNoArgEvent",
          "outputs": [],
          "stateMutability": "nonpayable",
          "type": "function"
        }
      ],
      "evm": {
        "bytecode": {
          "linkReferences": {},
          "object": "6080604052348015600f57600080fd5b5060998061001e6000396000f3fe6080604052348015600f57600080fd5b506004361060285760003560e01c8063a078704514602d575b600080fd5b60336035565b005b7f3197be1a75187c2e6f7008c280fa99aaa7ba7043acbb46e7a180ed19d0069ec960405160405180910390a156fea2646970667358221220ac8b0cd597a802d5f9b331493cd35aa1c02643c4f84277b32e4c57457581a9c364736f6c63430008160033",
          "opcodes": "PUSH1 0x80 PUSH1 0x40 MSTORE CALLVALUE DUP1 ISZERO PUSH1 0xF JUMPI PUSH1 0x0 DUP1 REVERT JUMPDEST POP PUSH1 0x99 DUP1 PUSH2 0x1E PUSH1 0x0 CODECOPY PUSH1 0x0 RETURN INVALID PUSH1 0x80 PUSH1 0x40 MSTORE CALLVALUE DUP1 ISZERO PUSH1 0xF JUMPI PUSH1 0x0 DUP1 REVERT JUMPDEST POP PUSH1 0x4 CALLDATASIZE LT PUSH1 0x28 JUMPI PUSH1 0x0 CALLDATALOAD PUSH1 0xE0 SHR DUP1 PUSH4 0xA0787045 EQ PUSH1 0x2D JUMPI JUMPDEST PUSH1 0x0 DUP1 REVERT JUMPDEST PUSH1 0x33 PUSH1 0x35 JUMP JUMPDEST STOP JUMPDEST PUSH32 0x3197BE1A75187C2E6F7008C280FA99AAA7BA7043ACBB46E7A180ED19D0069EC9 PUSH1 0x40 MLOAD PUSH1 0x40 MLOAD DUP1 SWAP2 SUB SWAP1 LOG1 JUMP INVALID LOG2 PUSH5 0x6970667358 0x22 SLT KECCAK256 0xAC DUP12 0xC 0xD5 SWAP8 0xA8 MUL 0xD5 0xF9 0xB3 BALANCE 0x49 EXTCODECOPY 0xD3 GAS LOG1 0xC0 0x26 NUMBER 0xC4 0xF8 TIMESTAMP PUSH24 0xB32E4C57457581A9C364736F6C6343000816003300000000 "
        },
        "methodIdentifiers": {
          "emitNoArgEvent()": "a0787045"
        }
      }
    }
  }
}