{
  "contracts/ChildEmitter.sol": {
    "ChildEmitter": {
      "abi": [
        {
          "anonymous": false,
          "inputs": [],
          "name": "ChildSpecificEvent",
          "type": "event"
        },
        {
          "anonymous": false,
          "inputs": [
            {
              "indexed": true,
              "internalType": "uint256",
              "name": "arg1",
              "type": "uint256"
            },
            {
              "indexed": false,
              "internalType": "uint128",
              "name": "arg2",
              "type": "uint128"
            },
            {
              "indexed": false,
              "internalType": "uint64",
              "name": "arg3",
              "type": "uint64"
            },
            {
              "indexed": true,
              "internalType": "address",
              "name": "arg4",
              "type": "address"
            }
          ],
          "name": "FourArgEvent",
          "type": "event"
        },
        {
          "anonymous": false,
          "inputs": [],
          "name": "NoArgEvent",
          "type": "event"
        },
        {
          "anonymous": false,
          "inputs": [
            {
              "indexed": false,
              "internalType": "uint256",
              "name": "arg1",
              "type": "uint256"
            }
          ],
          "name": "OneArgEvent",
          "type": "event"
        },
        {
          "inputs": [],
          "name": "emitChildSpecificEvent",
          "outputs": [],
          "stateMutability": "nonpayable",
          "type": "function"
        },
        {
          "inputs": [
            {
              "internalType": "uint256",
              "name": "iterations",
              "type": "uint256"
            }
          ],
          "name": "emitMany",
          "outputs": [],
          "stateMutability": "nonpayable",
          "type": "function"
        },
        {
          "inputs": [
            {
              "internalType": "uint256",
              "name": "arg1",
              "type": "uint256"
            },
            {
              "internalType": "uint128",
              "name": "arg2",
              "type": "uint128"
            },
            {
              "internalType": "uint64",
              "name": "arg3",
              "type": "uint64"
            },
            {
              "internalType": "address",
              "name": "arg4",
              "type": "address"
            }
          ],
          "name": "emitMultiArgEvent",
          "outputs": [],
          "stateMutability": "nonpayable",
          "type": "function"
        },
        {
          "inputs": [],
          "name": "emitNoArgEvent",
          "outputs": [],
          "stateMutability": "nonpayable",
          "type": "function"
        },
        {
          "inputs": [
            {
              "internalType": "uint256",
              "name": "arg1",
              "type": "uint256"
            }
          ],
          "name": "emitOneArgEvent",
          "outputs": [],
          "stateMutability": "nonpayable",
          "type": "function"
        }
      ],
      "evm": {
        "bytecode": {
          "linkReferences": {},
          "object": "608060405234801561001057600080fd5b5061067a806100206000396000f3fe608060405234801561001057600080fd5b50600436106100575760003560e01c80634d4387921461005c5780639b64250914610078578063a078704514610094578063a52713ea1461009e578063ad87c3ca146100a8575b600080fd5b61007660048036038101906100719190610388565b6100c4565b005b610092600480360381019061008d9190610388565b6100fe565b005b61009c61029a565b005b6100a66102c8565b005b6100c260048036038101906100bd919061049b565b6102f6565b005b7f7b626feb7bbe8e8974489b4a03492f4e155b545e30972c73f4c398f931c536cc816040516100f39190610511565b60405180910390a150565b600a811115610142576040517f08c379a000000000000000000000000000000000000000000000000000000000815260040161013990610589565b60405180910390fd5b60005b81811015610296573073ffffffffffffffffffffffffffffffffffffffff1663a07870456040518163ffffffff1660e01b8152600401600060405180830381600087803b15801561019557600080fd5b505af11580156101a9573d6000803e3d6000fd5b505050503073ffffffffffffffffffffffffffffffffffffffff16634d438792826040518263ffffffff1660e01b81526004016101e69190610511565b600060405180830381600087803b15801561020057600080fd5b505af1158015610214573d6000803e3d6000fd5b505050503073ffffffffffffffffffffffffffffffffffffffff1663ad87c3ca828384306040518563ffffffff1660e01b815260040161025794939291906105d6565b600060405180830381600087803b15801561027157600080fd5b505af1158015610285573d6000803e3d6000fd5b505050508080600101915050610145565b5050565b7f3197be1a75187c2e6f7008c280fa99aaa7ba7043acbb46e7a180ed19d0069ec960405160405180910390a1565b7f822dab19c5f685c2efb27d0d9d7e19c4a5961d737c5778553efb577b6f419b5860405160405180910390a1565b8073ffffffffffffffffffffffffffffffffffffffff16847f2930135cdab0ac995a5d7e331db4c9e6c1829911a1966f74db621f03a02cfa22858560405161033f92919061061b565b60405180910390a350505050565b600080fd5b6000819050919050565b61036581610352565b811461037057600080fd5b50565b6000813590506103828161035c565b92915050565b60006020828403121561039e5761039d61034d565b5b60006103ac84828501610373565b91505092915050565b60006fffffffffffffffffffffffffffffffff82169050919050565b6103da816103b5565b81146103e557600080fd5b50565b6000813590506103f7816103d1565b92915050565b600067ffffffffffffffff82169050919050565b61041a816103fd565b811461042557600080fd5b50565b60008135905061043781610411565b92915050565b600073ffffffffffffffffffffffffffffffffffffffff82169050919050565b60006104688261043d565b9050919050565b6104788161045d565b811461048357600080fd5b50565b6000813590506104958161046f565b92915050565b600080600080608085870312156104b5576104b461034d565b5b60006104c387828801610373565b94505060206104d4878288016103e8565b93505060406104e587828801610428565b92505060606104f687828801610486565b91505092959194509250565b61050b81610352565b82525050565b60006020820190506105266000830184610502565b92915050565b600082825260208201905092915050565b7f546f6f206d616e7920697465726174696f6e7300000000000000000000000000600082015250565b600061057360138361052c565b915061057e8261053d565b602082019050919050565b600060208201905081810360008301526105a281610566565b9050919050565b6105b2816103b5565b82525050565b6105c1816103fd565b82525050565b6105d08161045d565b82525050565b60006080820190506105eb6000830187610502565b6105f860208301866105a9565b61060560408301856105b8565b61061260608301846105c7565b95945050505050565b600060408201905061063060008301856105a9565b61063d60208301846105b8565b939250505056fea26469706673582212205f44c392f11f474d38c7318a09aa4b4c582c4ff614e12914ad9c027b5e682f4464736f6c63430008160033",
          "opcodes": "PUSH1 0x80 PUSH1 0x40 MSTORE CALLVALUE DUP1 ISZERO PUSH2 0x10 JUMPI PUSH1 0x0 DUP1 REVERT JUMPDEST POP PUSH2 0x67A DUP1 PUSH2 0x20 PUSH1 0x0 CODECOPY PUSH1 0x0 RETURN INVALID PUSH1 0x80 PUSH1 0x40 MSTORE CALLVALUE DUP1 ISZERO PUSH2 0x10 JUMPI PUSH1 0x0 DUP1 REVERT JUMPDEST POP PUSH1 0x4 CALLDATASIZE LT PUSH2 0x57 JUMPI PUSH1 0x0 CALLDATALOAD PUSH1 0xE0 SHR DUP1 PUSH4 0x4D438792 EQ PUSH2 0x5C JUMPI DUP1 PUSH4 0x9B642509 EQ PUSH2 0x78 JUMPI DUP1 PUSH4 0xA0787045 EQ PUSH2 0x94 JUMPI DUP1 PUSH4 0xA52713EA EQ PUSH2 0x9E JUMPI DUP1 PUSH4 0xAD87C3CA EQ PUSH2 0xA8 JUMPI JUMPDEST PUSH1 0x0 DUP1 REVERT JUMPDEST PUSH2 0x76 PUSH1 0x4 DUP1 CALLDATASIZE SUB DUP2 ADD SWAP1 PUSH2 0x71 SWAP2 SWAP1 PUSH2 0x388 JUMP JUMPDEST PUSH2 0xC4 JUMP JUMPDEST STOP JUMPDEST PUSH2 0x92 PUSH1 0x4 DUP1 CALLDATASIZE SUB DUP2 ADD SWAP1 PUSH2 0x8D SWAP2 SWAP1 PUSH2 0x388 JUMP JUMPDEST PUSH2 0xFE JUMP JUMPDEST STOP JUMPDEST PUSH2 0x9C PUSH2 0x29A JUMP JUMPDEST STOP JUMPDEST PUSH2 0xA6 PUSH2 0x2C8 JUMP JUMPDEST STOP JUMPDEST PUSH2 0xC2 PUSH1 0x4 DUP1 CALLDATASIZE SUB DUP2 ADD SWAP1 PUSH2 0xBD SWAP2 SWAP1 PUSH2 0x49B JUMP JUMPDEST PUSH2 0x2F6 JUMP JUMPDEST STOP JUMPDEST PUSH32 0x7B626FEB7BBE8E8974489B4A03492F4E155B545E30972C73F4C398F931C536CC DUP2 PUSH1 0x40 MLOAD PUSH2 0xF3 SWAP2 SWAP1 PUSH2 0x511 JUMP JUMPDEST PUSH1 0x40 MLOAD DUP1 SWAP2 SUB SWAP1 LOG1 POP JUMP JUMPDEST PUSH1 0xA DUP2 GT ISZERO PUSH2 0x142 JUMPI PUSH1 0x40 MLOAD PUSH32 0x8C379A000000000000000000000000000000000000000000000000000000000 DUP2 MSTORE PUSH1 0x4 ADD PUSH2 0x139 SWAP1 PUSH2 0x589 JUMP JUMPDEST PUSH1 0x40 MLOAD DUP1 SWAP2 SUB SWAP1 REVERT JUMPDEST PUSH1 0x0 JUMPDEST DUP2 DUP2 LT ISZERO PUSH2 0x296 JUMPI ADDRESS PUSH20 0xFFFFFFFFFFFFFFFFFFFFFFFFFFFFFFFFFFFFFFFF AND PUSH4 0xA0787045 PUSH1 0x40 MLOAD DUP2 PUSH4 0xFFFFFFFF AND PUSH1 0xE0 SHL DUP2 MSTORE PUSH1 0x4 ADD PUSH1 0x0 PUSH1 0x40 MLOAD DUP1 DUP4 SUB DUP2 PUSH1 0x0 DUP8 DUP1 EXTCODESIZE ISZERO DUP1 ISZERO PUSH2 0x195 JUMPI PUSH1 0x0 DUP1 REVERT JUMPDEST POP GAS CALL ISZERO DUP1 ISZERO PUSH2 0x1A9 JUMPI RETURNDATASIZE PUSH1 0x0 DUP1 RETURNDATACOPY RETURNDATASIZE PUSH1 0x0 REVERT JUMPDEST POP POP POP POP ADDRESS PUSH20 0xFFFFFFFFFFFFFFFFFFFFFFFFFFFFFFFFFFFFFFFF AND PUSH4 0x4D438792 DUP3 PUSH1 0x40 MLOAD DUP3 PUSH4 0xFFFFFFFF AND PUSH1 0xE0 SHL DUP2 MSTORE PUSH1 0x4 ADD PUSH2 0x1E6 SWAP2 SWAP1 PUSH2 0x511 JUMP JUMPDEST PUSH1 0x0 PUSH1 0x40 MLOAD DUP1 DUP4 SUB DUP2 PUSH1 0x0 DUP8 DUP1 EXTCODESIZE ISZERO DUP1 ISZERO PUSH2 0x200 JUMPI PUSH1 0x0 DUP1 REVERT JUMPDEST POP GAS CALL ISZERO DUP1 ISZERO PUSH2 0x214 JUMPI RETURNDATASIZE PUSH1 0x0 DUP1 RETURNDATACOPY RETURNDATASIZE PUSH1 0x0 REVERT JUMPDEST POP POP POP POP ADDRESS PUSH20 0xFFFFFFFFFFFFFFFFFFFFFFFFFFFFFFFFFFFFFFFF AND PUSH4 0xAD87C3CA DUP3 DUP4 DUP5 ADDRESS PUSH1 0x40 MLOAD DUP6 PUSH4 0xFFFFFFFF AND PUSH1 0xE0 SHL DUP2 MSTORE PUSH1 0x4 ADD PUSH2 0x257 SWAP5 SWAP4 SWAP3 SWAP2 SWAP1 PUSH2 0x5D6 JUMP JUMPDEST PUSH1 0x0 PUSH1 0x40 MLOAD DUP1 DUP4 SUB DUP2 PUSH1 0x0 DUP8 DUP1 EXTCODESIZE ISZERO DUP1 ISZERO PUSH2 0x271 JUMPI PUSH1 0x0 DUP1 REVERT JUMPDEST POP GAS CALL ISZERO DUP1 ISZERO PUSH2 0x285 JUMPI RETURNDATASIZE PUSH1 0x0 DUP1 RETURNDATACOPY RETURNDATASIZE PUSH1 0x0 REVERT JUMPDEST POP POP POP POP DUP1 DUP1 PUSH1 0x1 ADD SWAP2 POP POP PUSH2 0x145 JUMP JUMPDEST POP POP JUMP JUMPDEST PUSH32 0x3197BE1A75187C2E6F7008C280FA99AAA7BA7043ACBB46E7A180ED19D0069EC9 PUSH1 0x40 MLOAD PUSH1 0x40 MLOAD DUP1 SWAP2 SUB SWAP1 LOG1 JUMP JUMPDEST PUSH32 0x822DAB19C5F685C2EFB27D0D9D7E19C4A5961D737C5778553EFB577B6F419B58 PUSH1 0x40 MLOAD PUSH1 0x40 MLOAD DUP1 SWAP2 SUB SWAP1 LOG1 JUMP JUMPDEST DUP1 PUSH20 0xFFFFFFFFFFFFFFFFFFFFFFFFFFFFFFFFFFFFFFFF AND DUP5 PUSH32 0x2930135CDAB0AC995A5D7E331DB4C9E6C1829911A1966F74DB621F03A02CFA22 DUP6 DUP6 PUSH1 0x40 MLOAD PUSH2 0x33F SWAP3 SWAP2 SWAP1 PUSH2 0x61B JUMP JUMPDEST PUSH1 0x40 MLOAD DUP1 SWAP2 SUB SWAP1 LOG3 POP POP POP POP JUMP JUMPDEST PUSH1 0x0 DUP1 REVERT JUMPDEST PUSH1 0x0 DUP2 SWAP1 POP SWAP2 SWAP1 POP JUMP JUMPDEST PUSH2 0x365 DUP2 PUSH2 0x352 JUMP JUMPDEST DUP2 EQ PUSH2 0x370 JUMPI PUSH1 0x0 DUP1 REVERT JUMPDEST POP JUMP JUMPDEST PUSH1 0x0 DUP2 CALLDATALOAD SWAP1 POP PUSH2 0x382 DUP2 PUSH2 0x35C JUMP JUMPDEST SWAP3 SWAP2 POP POP JUMP JUMPDEST PUSH1 0x0 PUSH1 0x20 DUP3 DUP5 SUB SLT ISZERO PUSH2 0x39E JUMPI PUSH2 0x39D PUSH2 0x34D JUMP JUMPDEST JUMPDEST PUSH1 0x0 PUSH2 0x3AC DUP5 DUP3 DUP6 ADD PUSH2 0x373 JUMP JUMPDEST SWAP2 POP POP SWAP3 SWAP2 POP POP JUMP JUMPDEST PUSH1 0x0 PUSH16 0xFFFFFFFFFFFFFFFFFFFFFFFFFFFFFFFF DUP3 AND SWAP1 POP SWAP2 SWAP1 POP JUMP JUMPDEST PUSH2 0x3DA DUP2 PUSH2 0x3B5 JUMP JUMPDEST DUP2 EQ PUSH2 0x3E5 JUMPI PUSH1 0x0 DUP1 REVERT JUMPDEST POP JUMP JUMPDEST PUSH1 0x0 DUP2 CALLDATALOAD SWAP1 POP PUSH2 0x3F7 DUP2 PUSH2 0x3D1 JUMP JUMPDEST SWAP3 SWAP2 POP POP JUMP JUMPDEST PUSH1 0x0 PUSH8 0xFFFFFFFFFFFFFFFF DUP3 AND SWAP1 POP SWAP2 SWAP1 POP JUMP JUMPDEST PUSH2 0x41A DUP2 PUSH2 0x3FD JUMP JUMPDEST DUP2 EQ PUSH2 0x425 JUMPI PUSH1 0x0 DUP1 REVERT JUMPDEST POP JUMP JUMPDEST PUSH1 0x0 DUP2 CALLDATALOAD SWAP1 POP PUSH2 0x437 DUP2 PUSH2 0x411 JUMP JUMPDEST SWAP3 SWAP2 POP POP JUMP JUMPDEST PUSH1 0x0 PUSH20 0xFFFFFFFFFFFFFFFFFFFFFFFFFFFFFFFFFFFFFFFF DUP3 AND SWAP1 POP SWAP2 SWAP1 POP JUMP JUMPDEST PUSH1 0x0 PUSH2 0x468 DUP3 PUSH2 0x43D JUMP JUMPDEST SWAP1 POP SWAP2 SWAP1 POP JUMP JUMPDEST PUSH2 0x478 DUP2 PUSH2 0x45D JUMP JUMPDEST DUP2 EQ PUSH2 0x483 JUMPI PUSH1 0x0 DUP1 REVERT JUMPDEST POP JUMP JUMPDEST PUSH1 0x0 DUP2 CALLDATALOAD SWAP1 POP PUSH2 0x495 DUP2 PUSH2 0x46F JUMP JUMPDEST SWAP3 SWAP2 POP POP JUMP JUMPDEST PUSH1 0x0 DUP1 PUSH1 0x0 DUP1 PUSH1 0x80 DUP6 DUP8 SUB SLT ISZERO PUSH2 0x4B5 JUMPI PUSH2 0x4B4 PUSH2 0x34D JUMP JUMPDEST JUMPDEST PUSH1 0x0 PUSH2 0x4C3 DUP8 DUP3 DUP9 ADD PUSH2 0x373 JUMP JUMPDEST SWAP5 POP POP PUSH1 0x20 PUSH2 0x4D4 DUP8 DUP3 DUP9 ADD PUSH2 0x3E8 JUMP JUMPDEST SWAP4 POP POP PUSH1 0x40 PUSH2 0x4E5 DUP8 DUP3 DUP9 ADD PUSH2 0x428 JUMP JUMPDEST SWAP3 POP POP PUSH1 0x60 PUSH2 0x4F6 DUP8 DUP3 DUP9 ADD PUSH2 0x486 JUMP JUMPDEST SWAP2 POP POP SWAP3 SWAP6 SWAP2 SWAP5 POP SWAP3 POP JUMP JUMPDEST PUSH2 0x50B DUP2 PUSH2 0x352 JUMP JUMPDEST DUP3 MSTORE POP POP JUMP JUMPDEST PUSH1 0x0 PUSH1 0x20 DUP3 ADD SWAP1 POP PUSH2 0x526 PUSH1 0x0 DUP4 ADD DUP5 PUSH2 0x502 JUMP JUMPDEST SWAP3 SWAP2 POP POP JUMP JUMPDEST PUSH1 0x0 DUP3 DUP3 MSTORE PUSH1 0x20 DUP3 ADD SWAP1 POP SWAP3 SWAP2 POP POP JUMP JUMPDEST PUSH32 0x546F6F206D616E7920697465726174696F6E7300000000000000000000000000 PUSH1 0x0 DUP3 ADD MSTORE POP JUMP JUMPDEST PUSH1 0x0 PUSH2 0x573 PUSH1 0x13 DUP4 PUSH2 0x52C JUMP JUMPDEST SWAP2 POP PUSH2 0x57E DUP3 PUSH2 0x53D JUMP JUMPDEST PUSH1 0x20 DUP3 ADD SWAP1 POP SWAP2 SWAP1 POP JUMP JUMPDEST PUSH1 0x0 PUSH1 0x20 DUP3 ADD SWAP1 POP DUP2 DUP2 SUB PUSH1 0x0 DUP4 ADD MSTORE PUSH2 0x5A2 DUP2 PUSH2 0x566 JUMP JUMPDEST SWAP1 POP SWAP2 SWAP1 POP JUMP JUMPDEST PUSH2 0x5B2 DUP2 PUSH2 0x3B5 JUMP JUMPDEST DUP3 MSTORE POP POP JUMP JUMPDEST PUSH2 0x5C1 DUP2 PUSH2 0x3FD JUMP JUMPDEST DUP3 MSTORE POP POP JUMP JUMPDEST PUSH2 0x5D0 DUP2 PUSH2 0x45D JUMP JUMPDEST DUP3 MSTORE POP POP JUMP JUMPDEST PUSH1 0x0 PUSH1 0x80 DUP3 ADD SWAP1 POP PUSH2 0x5EB PUSH1 0x0 DUP4 ADD DUP8 PUSH2 0x502 JUMP JUMPDEST PUSH2 0x5F8 PUSH1 0x20 DUP4 ADD DUP7 PUSH2 0x5A9 JUMP JUMPDEST PUSH2 0x605 PUSH1 0x40 DUP4 ADD DUP6 PUSH2 0x5B8 JUMP JUMPDEST PUSH2 0x612 PUSH1 0x60 DUP4 ADD DUP5 PUSH2 0x5C7 JUMP JUMPDEST SWAP6 SWAP5 POP POP POP POP POP JUMP JUMPDEST PUSH1 0x0 PUSH1 0x40 DUP3 ADD SWAP1 POP PUSH2 0x630 PUSH1 0x0 DUP4 ADD DUP6 PUSH2 0x5A9 JUMP JUMPDEST PUSH2 0x63D PUSH1 0x20 DUP4 ADD DUP5 PUSH2 0x5B8 JUMP JUMPDEST SWAP4 SWAP3 POP POP POP JUMP INVALID LOG2 PUSH5 0x6970667358 0x22 SLT KECCAK256 PUSH0 PREVRANDAO 0xC3 SWAP3 CALL 0x1F SELFBALANCE 0x4D CODESIZE 0xC7 BALANCE DUP11 MULMOD 0xAA 0x4B 0x4C PC 0x2C 0x4F 0xF6 EQ 0xE1 0x29 EQ 0xAD SWAP13 MUL PUSH28 0x5E682F4464736F6C6343000816003300000000000000000000000000 "
        },
        "methodIdentifiers": {
          "emitChildSpecificEvent()": "a52713ea",
          "emitMany(uint256)": "9b642509",
          "emitMultiArgEvent(uint256,uint128,uint64,address)": "ad87c3ca",
          "emitNoArgEvent()": "a0787045",
          "emitOneArgEvent(uint256)": "4d438792"
        }
      }
    }
  }
}