{
  "abi": [
    {
      "type": "constructor",
      "inputs": [
        {
          "name": "_endpoint",
          "type": "address",
          "internalType": "address"
        },
        {
          "name": "_treasury",
          "type": "address",
          "internalType": "address"
        }
      ],
      "stateMutability": "nonpayable"
    },
    {
      "type": "fallback",
      "stateMutability": "payable"
    },
    {
      "type": "receive",
      "stateMutability": "payable"
    },
    {
      "type": "function",
      "name": "PACKET_VERSION",
      "inputs": [],
      "outputs": [
        {
          "name": "",
          "type": "uint8",
          "internalType": "uint8"
        }
      ],
      "stateMutability": "view"
    },
    {
      "type": "function",
      "name": "defaultOption",
      "inputs": [],
      "outputs": [
        {
          "name": "",
          "type": "bytes",
          "internalType": "bytes"
        }
      ],
      "stateMutability": "view"
    },
    {
      "type": "function",
      "name": "endpoint",
      "inputs": [],
      "outputs": [
        {
          "name": "",
          "type": "address",
          "internalType": "address"
        }
      ],
      "stateMutability": "view"
    },
    {
      "type": "function",
      "name": "isSupportedEid",
      "inputs": [
        {
          "name": "",
          "type": "uint32",
          "internalType": "uint32"
        }
      ],
      "outputs": [
        {
          "name": "",
          "type": "bool",
          "internalType": "bool"
        }
      ],
      "stateMutability": "pure"
    },
    {
      "type": "function",
      "name": "localEid",
      "inputs": [],
      "outputs": [
        {
          "name": "",
          "type": "uint32",
          "internalType": "uint32"
        }
      ],
      "stateMutability": "view"
    },
    {
      "type": "function",
      "name": "lzTokenFee",
      "inputs": [],
      "outputs": [
        {
          "name": "",
          "type": "uint256",
          "internalType": "uint256"
        }
      ],
      "stateMutability": "view"
    },
    {
      "type": "function",
      "name": "messageLibType",
      "inputs": [],
      "outputs": [
        {
          "name": "",
          "type": "uint8",
          "internalType": "enum MessageLibType"
        }
      ],
      "stateMutability": "pure"
    },
    {
      "type": "function",
      "name": "nativeFee",
      "inputs": [],
      "outputs": [
        {
          "name": "",
          "type": "uint256",
          "internalType": "uint256"
        }
      ],
      "stateMutability": "view"
    },
    {
      "type": "function",
      "name": "owner",
      "inputs": [],
      "outputs": [
        {
          "name": "",
          "type": "address",
          "internalType": "address"
        }
      ],
      "stateMutability": "view"
    },
    {
      "type": "function",
      "name": "quote",
      "inputs": [
        {
          "name": "",
          "type": "tuple",
          "internalType": "struct Packet",
          "components": [
            {
              "name": "nonce",
              "type": "uint64",
              "internalType": "uint64"
            },
            {
              "name": "srcEid",
              "type": "uint32",
              "internalType": "uint32"
            },
            {
              "name": "sender",
              "type": "address",
              "internalType": "address"
            },
            {
              "name": "dstEid",
              "type": "uint32",
              "internalType": "uint32"
            },
            {
              "name": "receiver",
              "type": "bytes32",
              "internalType": "bytes32"
            },
            {
              "name": "guid",
              "type": "bytes32",
              "internalType": "bytes32"
            },
            {
              "name": "message",
              "type": "bytes",
              "internalType": "bytes"
            }
          ]
        },
        {
          "name": "",
          "type": "bytes",
          "internalType": "bytes"
        },
        {
          "name": "_payInLzToken",
          "type": "bool",
          "internalType": "bool"
        }
      ],
      "outputs": [
        {
          "name": "",
          "type": "tuple",
          "internalType": "struct MessagingFee",
          "components": [
            {
              "name": "nativeFee",
              "type": "uint256",
              "internalType": "uint256"
            },
            {
              "name": "lzTokenFee",
              "type": "uint256",
              "internalType": "uint256"
            }
          ]
        }
      ],
      "stateMutability": "view"
    },
    {
      "type": "function",
      "name": "renounceOwnership",
      "inputs": [],
      "outputs": [],
      "stateMutability": "nonpayable"
    },
    {
      "type": "function",
      "name": "send",
      "inputs": [
        {
          "name": "_packet",
          "type": "tuple",
          "internalType": "struct Packet",
          "components": [
            {
              "name": "nonce",
              "type": "uint64",
              "internalType": "uint64"
            },
            {
              "name": "srcEid",
              "type": "uint32",
              "internalType": "uint32"
            },
            {
              "name": "sender",
              "type": "address",
              "internalType": "address"
            },
            {
              "name": "dstEid",
              "type": "uint32",
              "internalType": "uint32"
            },
            {
              "name": "receiver",
              "type": "bytes32",
              "internalType": "bytes32"
            },
            {
              "name": "guid",
              "type": "bytes32",
              "internalType": "bytes32"
            },
            {
              "name": "message",
              "type": "bytes",
              "internalType": "bytes"
            }
          ]
        },
        {
          "name": "_options",
          "type": "bytes",
          "internalType": "bytes"
        },
        {
          "name": "_payInLzToken",
          "type": "bool",
          "internalType": "bool"
        }
      ],
      "outputs": [
        {
          "name": "fee",
          "type": "tuple",
          "internalType": "struct MessagingFee",
          "components": [
            {
              "name": "nativeFee",
              "type": "uint256",
              "internalType": "uint256"
            },
            {
              "name": "lzTokenFee",
              "type": "uint256",
              "internalType": "uint256"
            }
          ]
        },
        {
          "name": "encodedPacket",
          "type": "bytes",
          "internalType": "bytes"
        },
        {
          "name": "options",
          "type": "bytes",
          "internalType": "bytes"
        }
      ],
      "stateMutability": "nonpayable"
    },
    {
      "type": "function",
      "name": "setDefaultOption",
      "inputs": [
        {
          "name": "_defaultOption",
          "type": "bytes",
          "internalType": "bytes"
        }
      ],
      "outputs": [],
      "stateMutability": "nonpayable"
    },
    {
      "type": "function",
      "name": "setMessagingFee",
      "inputs": [
        {
          "name": "_nativeFee",
          "type": "uint256",
          "internalType": "uint256"
        },
        {
          "name": "_lzTokenFee",
          "type": "uint256",
          "internalType": "uint256"
        }
      ],
      "outputs": [],
      "stateMutability": "nonpayable"
    },
    {
      "type": "function",
      "name": "setWhitelistCaller",
      "inputs": [
        {
          "name": "_whitelistCaller",
          "type": "address",
          "internalType": "address"
        }
      ],
      "outputs": [],
      "stateMutability": "nonpayable"
    },
    {
      "type": "function",
      "name": "supportsInterface",
      "inputs": [
        {
          "name": "interfaceId",
          "type": "bytes4",
          "internalType": "bytes4"
        }
      ],
      "outputs": [
        {
          "name": "",
          "type": "bool",
          "internalType": "bool"
        }
      ],
      "stateMutability": "view"
    },
    {
      "type": "function",
      "name": "transferOwnership",
      "inputs": [
        {
          "name": "newOwner",
          "type": "address",
          "internalType": "address"
        }
      ],
      "outputs": [],
      "stateMutability": "nonpayable"
    },
    {
      "type": "function",
      "name": "treasury",
      "inputs": [],
      "outputs": [
        {
          "name": "",
          "type": "address",
          "internalType": "address"
        }
      ],
      "stateMutability": "view"
    },
    {
      "type": "function",
      "name": "validatePacket",
      "inputs": [
        {
          "name": "packetBytes",
          "type": "bytes",
          "internalType": "bytes"
        }
      ],
      "outputs": [],
      "stateMutability": "nonpayable"
    },
    {
      "type": "function",
      "name": "version",
      "inputs": [],
      "outputs": [
        {
          "name": "major",
          "type": "uint64",
          "internalType": "uint64"
        },
        {
          "name": "minor",
          "type": "uint8",
          "internalType": "uint8"
        },
        {
          "name": "endpointVersion",
          "type": "uint8",
          "internalType": "uint8"
        }
      ],
      "stateMutability": "pure"
    },
    {
      "type": "function",
      "name": "whitelistCaller",
      "inputs": [],
      "outputs": [
        {
          "name": "",
          "type": "address",
          "internalType": "address"
        }
      ],
      "stateMutability": "view"
    },
    {
      "type": "function",
      "name": "withdrawFee",
      "inputs": [
        {
          "name": "_to",
          "type": "address",
          "internalType": "address"
        },
        {
          "name": "_amount",
          "type": "uint256",
          "internalType": "uint256"
        }
      ],
      "outputs": [],
      "stateMutability": "nonpayable"
    },
    {
      "type": "function",
      "name": "withdrawLzTokenFee",
      "inputs": [
        {
          "name": "_to",
          "type": "address",
          "internalType": "address"
        },
        {
          "name": "_amount",
          "type": "uint256",
          "internalType": "uint256"
        }
      ],
      "outputs": [],
      "stateMutability": "nonpayable"
    },
    {
      "type": "event",
      "name": "OwnershipTransferred",
      "inputs": [
        {
          "name": "previousOwner",
          "type": "address",
          "indexed": true,
          "internalType": "address"
        },
        {
          "name": "newOwner",
          "type": "address",
          "indexed": true,
          "internalType": "address"
        }
      ],
      "anonymous": false
    },
    {
      "type": "error",
      "name": "InvalidEndpoint",
      "inputs": [
        {
          "name": "expected",
          "type": "address",
          "internalType": "address"
        },
        {
          "name": "actual",
          "type": "address",
          "internalType": "address"
        }
      ]
    },
    {
      "type": "error",
      "name": "LZ_NotImplemented",
      "inputs": []
    },
    {
      "type": "error",
      "name": "LzTokenIsAddressZero",
      "inputs": []
    },
    {
      "type": "error",
      "name": "OnlyEndpoint",
      "inputs": []
    },
    {
      "type": "error",
      "name": "OnlyWhitelistCaller",
      "inputs": []
    },
    {
      "type": "error",
      "name": "ToIsAddressZero",
      "inputs": []
    },
    {
      "type": "error",
      "name": "TransferFailed",
      "inputs": []
    },
    {
      "type": "error",
      "name": "Transfer_NativeFailed",
      "inputs": [
        {
          "name": "_to",
          "type": "address",
          "internalType": "address"
        },
        {
          "name": "_value",
          "type": "uint256",
          "internalType": "uint256"
        }
      ]
    },
    {
      "type": "error",
      "name": "Transfer_ToAddressIsZero",
      "inputs": []
    }
  ],
  "bytecode": {
    "object": "0x60e06040523480156200001157600080fd5b50604051620020013803806200200183398101604081905262000034916200013f565b6200003f33620000d2565b6001600160a01b03808316608081905290821660a0526040805163416ecebf60e01b8152905163416ecebf916004808201926020929091908290030181865afa15801562000091573d6000803e3d6000fd5b505050506040513d601f19601f82011682018060405250810190620000b7919062000177565b63ffffffff1660c052505060636002556064600355620001a6565b600080546001600160a01b038381166001600160a01b0319831681178455604051919092169283917f8be0079c531659141344cd1fd0a4f28419497f9722a3daafe3b4186f6b6457e09190a35050565b80516001600160a01b03811681146200013a57600080fd5b919050565b600080604083850312156200015357600080fd5b6200015e8362000122565b91506200016e6020840162000122565b90509250929050565b6000602082840312156200018a57600080fd5b815163ffffffff811681146200019f57600080fd5b9392505050565b60805160a05160c051611e0f620001f260003960006103d40152600061034301526000818161030f015281816106ce015281816107fd01528181610a450152610d070152611e0f6000f3fe6080604052600436106101845760003560e01c8063715018a6116100d6578063996f79c01161007f578063dabca06311610059578063dabca063146104ff578063f2fde38b1461051f578063fd9be5221461053f5761018b565b8063996f79c01461049c578063aec336e6146104b2578063d80e9bd9146104d25761018b565b80638da5cb5b116100b05780638da5cb5b1461042d5780638f58aa7a1461045857806390953238146104785761018b565b8063715018a6146103ad57806372607537146103c257806372d713221461040b5761018b565b80634389e58f1161013857806361d027b31161011257806361d027b3146103315780636251b637146103655780636750cd4c1461038c5761018b565b80634389e58f146102a257806354fd4d50146102d15780635e280f11146102fd5761018b565b80631881d94d116101695780631881d94d146102145780631c7c294e14610230578063334993ff146102825761018b565b806301ffc9a7146101bd57806312cc947f146101f25761018b565b3661018b57005b6040517f2657b6c300000000000000000000000000000000000000000000000000000000815260040160405180910390fd5b3480156101c957600080fd5b506101dd6101d8366004611451565b61055f565b60405190151581526020015b60405180910390f35b3480156101fe57600080fd5b5061021261020d3660046114d5565b6105f8565b005b34801561022057600080fd5b5060026040516101e99190611517565b34801561023c57600080fd5b5060015461025d9073ffffffffffffffffffffffffffffffffffffffff1681565b60405173ffffffffffffffffffffffffffffffffffffffff90911681526020016101e9565b34801561028e57600080fd5b5061021261029d366004611558565b6107d1565b3480156102ae57600080fd5b506102c26102bd3660046116a3565b6107e4565b6040516101e993929190611789565b3480156102dd57600080fd5b5060408051600080825260208201526002918101919091526060016101e9565b34801561030957600080fd5b5061025d7f000000000000000000000000000000000000000000000000000000000000000081565b34801561033d57600080fd5b5061025d7f000000000000000000000000000000000000000000000000000000000000000081565b34801561037157600080fd5b5061037a600181565b60405160ff90911681526020016101e9565b34801561039857600080fd5b506101dd6103a73660046117e2565b50600190565b3480156103b957600080fd5b5061021261094a565b3480156103ce57600080fd5b506103f67f000000000000000000000000000000000000000000000000000000000000000081565b60405163ffffffff90911681526020016101e9565b34801561041757600080fd5b5061042061095e565b6040516101e991906117fd565b34801561043957600080fd5b5060005473ffffffffffffffffffffffffffffffffffffffff1661025d565b34801561046457600080fd5b5061021261047336600461183d565b6109ec565b34801561048457600080fd5b5061048e60025481565b6040519081526020016101e9565b3480156104a857600080fd5b5061048e60035481565b3480156104be57600080fd5b506102126104cd366004611869565b610b47565b3480156104de57600080fd5b506104f26104ed366004611886565b610b96565b6040516101e99190611902565b34801561050b57600080fd5b5061021261051a366004611919565b610bda565b34801561052b57600080fd5b5061021261053a366004611869565b610bf2565b34801561054b57600080fd5b5061021261055a36600461183d565b610cae565b60007fffffffff0000000000000000000000000000000000000000000000000000000082167f97f025840000000000000000000000000000000000000000000000000000000014806105f257507f01ffc9a7000000000000000000000000000000000000000000000000000000007fffffffff000000000000000000000000000000000000000000000000000000008316145b92915050565b60015473ffffffffffffffffffffffffffffffffffffffff1615801590610637575060015473ffffffffffffffffffffffffffffffffffffffff163314155b1561066e576040517f70b216ec00000000000000000000000000000000000000000000000000000000815260040160405180910390fd5b600060405180606001604052806106858585610da1565b63ffffffff16815260200161069a8585610dc4565b81526020016106a98585610de4565b67ffffffffffffffff169052905073ffffffffffffffffffffffffffffffffffffffff7f00000000000000000000000000000000000000000000000000000000000000001663a825d747826106fe8686610e07565b6107088787610e19565b60405161071692919061194e565b6040805191829003822060e086901b7fffffffff00000000000000000000000000000000000000000000000000000000168352845163ffffffff1660048401526020850151602484015293015167ffffffffffffffff16604482015273ffffffffffffffffffffffffffffffffffffffff9091166064820152608481019190915260a401600060405180830381600087803b1580156107b457600080fd5b505af11580156107c8573d6000803e3d6000fd5b50505050505050565b6107d9610e35565b600391909155600255565b60408051808201909152600080825260208201526060807f000000000000000000000000000000000000000000000000000000000000000073ffffffffffffffffffffffffffffffffffffffff16331461086a576040517f7eb966c800000000000000000000000000000000000000000000000000000000815260040160405180910390fd5b61087b61087687611976565b610eb6565b9150845160001461088c5784610918565b6004805461089990611a14565b80601f01602080910402602001604051908101604052809291908181526020018280546108c590611a14565b80156109125780601f106108e757610100808354040283529160200191610912565b820191906000526020600020905b8154815290600101906020018083116108f557829003601f168201915b50505050505b9050604051806040016040528060035481526020018561093957600061093d565b6002545b9052969195509350915050565b610952610e35565b61095c6000610f1b565b565b6004805461096b90611a14565b80601f016020809104026020016040519081016040528092919081815260200182805461099790611a14565b80156109e45780601f106109b9576101008083540402835291602001916109e4565b820191906000526020600020905b8154815290600101906020018083116109c757829003601f168201915b505050505081565b6109f4610e35565b73ffffffffffffffffffffffffffffffffffffffff8216610a41576040517f3d3496e100000000000000000000000000000000000000000000000000000000815260040160405180910390fd5b60007f000000000000000000000000000000000000000000000000000000000000000073ffffffffffffffffffffffffffffffffffffffff1663e4fe1d946040518163ffffffff1660e01b8152600401602060405180830381865afa158015610aae573d6000803e3d6000fd5b505050506040513d601f19601f82011682018060405250810190610ad29190611a61565b905073ffffffffffffffffffffffffffffffffffffffff8116610b21576040517f54c1781b00000000000000000000000000000000000000000000000000000000815260040160405180910390fd5b610b4273ffffffffffffffffffffffffffffffffffffffff82168484610f90565b505050565b610b4f610e35565b600180547fffffffffffffffffffffffff00000000000000000000000000000000000000001673ffffffffffffffffffffffffffffffffffffffff92909216919091179055565b60408051808201909152600080825260208201526040518060400160405280600354815260200183610bc9576000610bcd565b6002545b905290505b949350505050565b610be2610e35565b6004610bee8282611acc565b5050565b610bfa610e35565b73ffffffffffffffffffffffffffffffffffffffff8116610ca2576040517f08c379a000000000000000000000000000000000000000000000000000000000815260206004820152602660248201527f4f776e61626c653a206e6577206f776e657220697320746865207a65726f206160448201527f646472657373000000000000000000000000000000000000000000000000000060648201526084015b60405180910390fd5b610cab81610f1b565b50565b610cb6610e35565b73ffffffffffffffffffffffffffffffffffffffff8216610d03576040517f3d3496e100000000000000000000000000000000000000000000000000000000815260040160405180910390fd5b60007f000000000000000000000000000000000000000000000000000000000000000073ffffffffffffffffffffffffffffffffffffffff1663e1758bd86040518163ffffffff1660e01b8152600401602060405180830381865afa158015610d70573d6000803e3d6000fd5b505050506040513d601f19601f82011682018060405250810190610d949190611a61565b9050610b4281848461101d565b6000610db1600d60098486611be6565b610dba91611c10565b60e01c9392505050565b6000610dd4602d600d8486611be6565b610ddd91611c58565b9392505050565b6000610df4600960018486611be6565b610dfd91611c94565b60c01c9392505050565b6000610ddd610e16848461104d565b90565b366000610e298360518187611be6565b915091505b9250929050565b60005473ffffffffffffffffffffffffffffffffffffffff16331461095c576040517f08c379a000000000000000000000000000000000000000000000000000000000815260206004820181905260248201527f4f776e61626c653a2063616c6c6572206973206e6f7420746865206f776e65726044820152606401610c99565b8051602080830151604080850151606080870151608088015160a089015160c08a015195519398610f05986001989197919673ffffffffffffffffffffffffffffffffffffffff169501611cda565b6040516020818303038152906040529050919050565b6000805473ffffffffffffffffffffffffffffffffffffffff8381167fffffffffffffffffffffffff0000000000000000000000000000000000000000831681178455604051919092169283917f8be0079c531659141344cd1fd0a4f28419497f9722a3daafe3b4186f6b6457e09190a35050565b6040805173ffffffffffffffffffffffffffffffffffffffff8416602482015260448082018490528251808303909101815260649091019091526020810180517bffffffffffffffffffffffffffffffffffffffffffffffffffffffff167fa9059cbb00000000000000000000000000000000000000000000000000000000179052610b4290849061105d565b73ffffffffffffffffffffffffffffffffffffffff831661104257610b42828261116c565b610b42838383611272565b6000610dd4605160318486611be6565b60006110bf826040518060400160405280602081526020017f5361666545524332303a206c6f772d6c6576656c2063616c6c206661696c65648152508573ffffffffffffffffffffffffffffffffffffffff166112e09092919063ffffffff16565b90508051600014806110e05750808060200190518101906110e09190611da0565b610b42576040517f08c379a000000000000000000000000000000000000000000000000000000000815260206004820152602a60248201527f5361666545524332303a204552433230206f7065726174696f6e20646964206e60448201527f6f742073756363656564000000000000000000000000000000000000000000006064820152608401610c99565b73ffffffffffffffffffffffffffffffffffffffff82166111b9576040517f6b7a931000000000000000000000000000000000000000000000000000000000815260040160405180910390fd5b60008273ffffffffffffffffffffffffffffffffffffffff168260405160006040518083038185875af1925050503d8060008114611213576040519150601f19603f3d011682016040523d82523d6000602084013e611218565b606091505b5050905080610b42576040517f465bc83400000000000000000000000000000000000000000000000000000000815273ffffffffffffffffffffffffffffffffffffffff8416600482015260248101839052604401610c99565b73ffffffffffffffffffffffffffffffffffffffff82166112bf576040517f6b7a931000000000000000000000000000000000000000000000000000000000815260040160405180910390fd5b610b4273ffffffffffffffffffffffffffffffffffffffff84168383610f90565b6060610bd28484600085856000808673ffffffffffffffffffffffffffffffffffffffff1685876040516113149190611dbd565b60006040518083038185875af1925050503d8060008114611351576040519150601f19603f3d011682016040523d82523d6000602084013e611356565b606091505b509150915061136787838387611372565b979650505050505050565b606083156114085782516000036114015773ffffffffffffffffffffffffffffffffffffffff85163b611401576040517f08c379a000000000000000000000000000000000000000000000000000000000815260206004820152601d60248201527f416464726573733a2063616c6c20746f206e6f6e2d636f6e74726163740000006044820152606401610c99565b5081610bd2565b610bd2838381511561141d5781518083602001fd5b806040517f08c379a0000000000000000000000000000000000000000000000000000000008152600401610c9991906117fd565b60006020828403121561146357600080fd5b81357fffffffff0000000000000000000000000000000000000000000000000000000081168114610ddd57600080fd5b60008083601f8401126114a557600080fd5b50813567ffffffffffffffff8111156114bd57600080fd5b602083019150836020828501011115610e2e57600080fd5b600080602083850312156114e857600080fd5b823567ffffffffffffffff8111156114ff57600080fd5b61150b85828601611493565b90969095509350505050565b6020810160038310611552577f4e487b7100000000000000000000000000000000000000000000000000000000600052602160045260246000fd5b91905290565b6000806040838503121561156b57600080fd5b50508035926020909101359150565b600060e0828403121561158c57600080fd5b50919050565b7f4e487b7100000000000000000000000000000000000000000000000000000000600052604160045260246000fd5b60405160e0810167ffffffffffffffff811182821017156115e4576115e4611592565b60405290565b600082601f8301126115fb57600080fd5b813567ffffffffffffffff8082111561161657611616611592565b604051601f83017fffffffffffffffffffffffffffffffffffffffffffffffffffffffffffffffe0908116603f0116810190828211818310171561165c5761165c611592565b8160405283815286602085880101111561167557600080fd5b836020870160208301376000602085830101528094505050505092915050565b8015158114610cab57600080fd5b6000806000606084860312156116b857600080fd5b833567ffffffffffffffff808211156116d057600080fd5b6116dc8783880161157a565b945060208601359150808211156116f257600080fd5b506116ff868287016115ea565b925050604084013561171081611695565b809150509250925092565b60005b8381101561173657818101518382015260200161171e565b50506000910152565b6000815180845261175781602086016020860161171b565b601f017fffffffffffffffffffffffffffffffffffffffffffffffffffffffffffffffe0169290920160200192915050565b83518152602080850151908201526080604082015260006117ad608083018561173f565b82810360608401526117bf818561173f565b9695505050505050565b803563ffffffff811681146117dd57600080fd5b919050565b6000602082840312156117f457600080fd5b610ddd826117c9565b602081526000610ddd602083018461173f565b73ffffffffffffffffffffffffffffffffffffffff81168114610cab57600080fd5b80356117dd81611810565b6000806040838503121561185057600080fd5b823561185b81611810565b946020939093013593505050565b60006020828403121561187b57600080fd5b8135610ddd81611810565b6000806000806060858703121561189c57600080fd5b843567ffffffffffffffff808211156118b457600080fd5b6118c08883890161157a565b955060208701359150808211156118d657600080fd5b506118e387828801611493565b90945092505060408501356118f781611695565b939692955090935050565b8151815260208083015190820152604081016105f2565b60006020828403121561192b57600080fd5b813567ffffffffffffffff81111561194257600080fd5b610bd2848285016115ea565b8183823760009101908152919050565b803567ffffffffffffffff811681146117dd57600080fd5b600060e0823603121561198857600080fd5b6119906115c1565b6119998361195e565b81526119a7602084016117c9565b60208201526119b860408401611832565b60408201526119c9606084016117c9565b60608201526080830135608082015260a083013560a082015260c083013567ffffffffffffffff8111156119fc57600080fd5b611a08368286016115ea565b60c08301525092915050565b600181811c90821680611a2857607f821691505b60208210810361158c577f4e487b7100000000000000000000000000000000000000000000000000000000600052602260045260246000fd5b600060208284031215611a7357600080fd5b8151610ddd81611810565b601f821115610b4257600081815260208120601f850160051c81016020861015611aa55750805b601f850160051c820191505b81811015611ac457828155600101611ab1565b505050505050565b815167ffffffffffffffff811115611ae657611ae6611592565b611afa81611af48454611a14565b84611a7e565b602080601f831160018114611b4d5760008415611b175750858301515b7fffffffffffffffffffffffffffffffffffffffffffffffffffffffffffffffff600386901b1c1916600185901b178555611ac4565b6000858152602081207fffffffffffffffffffffffffffffffffffffffffffffffffffffffffffffffe08616915b82811015611b9a57888601518255948401946001909101908401611b7b565b5085821015611bd657878501517fffffffffffffffffffffffffffffffffffffffffffffffffffffffffffffffff600388901b60f8161c191681555b5050505050600190811b01905550565b60008085851115611bf657600080fd5b83861115611c0357600080fd5b5050820193919092039150565b7fffffffff000000000000000000000000000000000000000000000000000000008135818116916004851015611c505780818660040360031b1b83161692505b505092915050565b803560208310156105f2577fffffffffffffffffffffffffffffffffffffffffffffffffffffffffffffffff602084900360031b1b1692915050565b7fffffffffffffffff0000000000000000000000000000000000000000000000008135818116916008851015611c505760089490940360031b84901b1690921692915050565b7fff000000000000000000000000000000000000000000000000000000000000008960f81b1681527fffffffffffffffff0000000000000000000000000000000000000000000000008860c01b16600182015260007fffffffff00000000000000000000000000000000000000000000000000000000808960e01b16600984015287600d840152808760e01b16602d840152508460318301528360518301528251611d8c81607185016020870161171b565b919091016071019998505050505050505050565b600060208284031215611db257600080fd5b8151610ddd81611695565b60008251611dcf81846020870161171b565b919091019291505056fea26469706673582212207f54842accefe8a91f373ef0a12ce44f0adf892493cabdf6db943779abc30ac964736f6c63430008140033",
    "linkReferences": {}
  },
  "methodIdentifiers": {
    "PACKET_VERSION()": "6251b637",
    "defaultOption()": "72d71322",
    "endpoint()": "5e280f11",
    "isSupportedEid(uint32)": "6750cd4c",
    "localEid()": "72607537",
    "lzTokenFee()": "90953238",
    "messageLibType()": "1881d94d",
    "nativeFee()": "996f79c0",
    "owner()": "8da5cb5b",
    "quote((uint64,uint32,address,uint32,bytes32,bytes32,bytes),bytes,bool)": "d80e9bd9",
    "renounceOwnership()": "715018a6",
    "send((uint64,uint32,address,uint32,bytes32,bytes32,bytes),bytes,bool)": "4389e58f",
    "setDefaultOption(bytes)": "dabca063",
    "setMessagingFee(uint256,uint256)": "334993ff",
    "setWhitelistCaller(address)": "aec336e6",
    "supportsInterface(bytes4)": "01ffc9a7",
    "transferOwnership(address)": "f2fde38b",
    "treasury()": "61d027b3",
    "validatePacket(bytes)": "12cc947f",
    "version()": "54fd4d50",
    "whitelistCaller()": "1c7c294e",
    "withdrawFee(address,uint256)": "fd9be522",
    "withdrawLzTokenFee(address,uint256)": "8f58aa7a"
  },
  "id": 72
}