{
  "address": "0x07b6913d3607cc52b28Dc52a02F422EF4256a3e5",
  "abi": [
    {
      "inputs": [
        {
          "internalType": "address",
          "name": "endpoint_",
          "type": "address"
        },
        {
          "internalType": "address",
          "name": "delegate",
          "type": "address"
        }
      ],
      "stateMutability": "nonpayable",
      "type": "constructor"
    },
    {
      "inputs": [],
      "name": "InvalidDelegate",
      "type": "error"
    },
    {
      "inputs": [],
      "name": "InvalidEndpointCall",
      "type": "error"
    },
    {
      "inputs": [
        {
          "internalType": "uint16",
          "name": "optionType",
          "type": "uint16"
        }
      ],
      "name": "InvalidOptionType",
      "type": "error"
    },
    {
      "inputs": [
        {
          "internalType": "uint8",
          "name": "messageType",
          "type": "uint8"
        },
        {
          "internalType": "uint256",
          "name": "length",
          "type": "uint256"
        }
      ],
      "name": "LZ_OmniCallMsgCodecLib__InvalidDataLength",
      "type": "error"
    },
    {
      "inputs": [],
      "name": "LZ_OmniCallMsgCodecLib__InvalidMessageType",
      "type": "error"
    },
    {
      "inputs": [],
      "name": "LZ_OmniCall__InvalidMessageType",
      "type": "error"
    },
    {
      "inputs": [],
      "name": "LZ_OmniCall__InvalidTarget",
      "type": "error"
    },
    {
      "inputs": [],
      "name": "LZ_OmniCall__ZeroGasLimit",
      "type": "error"
    },
    {
      "inputs": [],
      "name": "LzTokenUnavailable",
      "type": "error"
    },
    {
      "inputs": [
        {
          "internalType": "uint32",
          "name": "eid",
          "type": "uint32"
        }
      ],
      "name": "NoPeer",
      "type": "error"
    },
    {
      "inputs": [
        {
          "internalType": "uint256",
          "name": "msgValue",
          "type": "uint256"
        }
      ],
      "name": "NotEnoughNative",
      "type": "error"
    },
    {
      "inputs": [
        {
          "internalType": "address",
          "name": "addr",
          "type": "address"
        }
      ],
      "name": "OnlyEndpoint",
      "type": "error"
    },
    {
      "inputs": [
        {
          "internalType": "uint32",
          "name": "eid",
          "type": "uint32"
        },
        {
          "internalType": "bytes32",
          "name": "sender",
          "type": "bytes32"
        }
      ],
      "name": "OnlyPeer",
      "type": "error"
    },
    {
      "inputs": [
        {
          "internalType": "address",
          "name": "owner",
          "type": "address"
        }
      ],
      "name": "OwnableInvalidOwner",
      "type": "error"
    },
    {
      "inputs": [
        {
          "internalType": "address",
          "name": "account",
          "type": "address"
        }
      ],
      "name": "OwnableUnauthorizedAccount",
      "type": "error"
    },
    {
      "inputs": [
        {
          "internalType": "uint8",
          "name": "bits",
          "type": "uint8"
        },
        {
          "internalType": "uint256",
          "name": "value",
          "type": "uint256"
        }
      ],
      "name": "SafeCastOverflowedUintDowncast",
      "type": "error"
    },
    {
      "inputs": [
        {
          "internalType": "address",
          "name": "token",
          "type": "address"
        }
      ],
      "name": "SafeERC20FailedOperation",
      "type": "error"
    },
    {
      "anonymous": false,
      "inputs": [
        {
          "indexed": true,
          "internalType": "address",
          "name": "previousOwner",
          "type": "address"
        },
        {
          "indexed": true,
          "internalType": "address",
          "name": "newOwner",
          "type": "address"
        }
      ],
      "name": "OwnershipTransferred",
      "type": "event"
    },
    {
      "anonymous": false,
      "inputs": [
        {
          "indexed": false,
          "internalType": "uint32",
          "name": "eid",
          "type": "uint32"
        },
        {
          "indexed": false,
          "internalType": "bytes32",
          "name": "peer",
          "type": "bytes32"
        }
      ],
      "name": "PeerSet",
      "type": "event"
    },
    {
      "inputs": [
        {
          "components": [
            {
              "internalType": "uint32",
              "name": "srcEid",
              "type": "uint32"
            },
            {
              "internalType": "bytes32",
              "name": "sender",
              "type": "bytes32"
            },
            {
              "internalType": "uint64",
              "name": "nonce",
              "type": "uint64"
            }
          ],
          "internalType": "struct Origin",
          "name": "origin",
          "type": "tuple"
        }
      ],
      "name": "allowInitializePath",
      "outputs": [
        {
          "internalType": "bool",
          "name": "",
          "type": "bool"
        }
      ],
      "stateMutability": "view",
      "type": "function"
    },
    {
      "inputs": [],
      "name": "endpoint",
      "outputs": [
        {
          "internalType": "contract ILayerZeroEndpointV2",
          "name": "",
          "type": "address"
        }
      ],
      "stateMutability": "view",
      "type": "function"
    },
    {
      "inputs": [
        {
          "components": [
            {
              "internalType": "uint32",
              "name": "srcEid",
              "type": "uint32"
            },
            {
              "internalType": "bytes32",
              "name": "sender",
              "type": "bytes32"
            },
            {
              "internalType": "uint64",
              "name": "nonce",
              "type": "uint64"
            }
          ],
          "internalType": "struct Origin",
          "name": "",
          "type": "tuple"
        },
        {
          "internalType": "bytes",
          "name": "",
          "type": "bytes"
        },
        {
          "internalType": "address",
          "name": "_sender",
          "type": "address"
        }
      ],
      "name": "isComposeMsgSender",
      "outputs": [
        {
          "internalType": "bool",
          "name": "",
          "type": "bool"
        }
      ],
      "stateMutability": "view",
      "type": "function"
    },
    {
      "inputs": [
        {
          "components": [
            {
              "internalType": "uint32",
              "name": "srcEid",
              "type": "uint32"
            },
            {
              "internalType": "bytes32",
              "name": "sender",
              "type": "bytes32"
            },
            {
              "internalType": "uint64",
              "name": "nonce",
              "type": "uint64"
            }
          ],
          "internalType": "struct Origin",
          "name": "_origin",
          "type": "tuple"
        },
        {
          "internalType": "bytes32",
          "name": "_guid",
          "type": "bytes32"
        },
        {
          "internalType": "bytes",
          "name": "_message",
          "type": "bytes"
        },
        {
          "internalType": "address",
          "name": "_executor",
          "type": "address"
        },
        {
          "internalType": "bytes",
          "name": "_extraData",
          "type": "bytes"
        }
      ],
      "name": "lzReceive",
      "outputs": [],
      "stateMutability": "payable",
      "type": "function"
    },
    {
      "inputs": [
        {
          "internalType": "uint32",
          "name": "",
          "type": "uint32"
        },
        {
          "internalType": "bytes32",
          "name": "",
          "type": "bytes32"
        }
      ],
      "name": "nextNonce",
      "outputs": [
        {
          "internalType": "uint64",
          "name": "nonce",
          "type": "uint64"
        }
      ],
      "stateMutability": "view",
      "type": "function"
    },
    {
      "inputs": [],
      "name": "oAppVersion",
      "outputs": [
        {
          "internalType": "uint64",
          "name": "senderVersion",
          "type": "uint64"
        },
        {
          "internalType": "uint64",
          "name": "receiverVersion",
          "type": "uint64"
        }
      ],
      "stateMutability": "pure",
      "type": "function"
    },
    {
      "inputs": [],
      "name": "owner",
      "outputs": [
        {
          "internalType": "address",
          "name": "",
          "type": "address"
        }
      ],
      "stateMutability": "view",
      "type": "function"
    },
    {
      "inputs": [
        {
          "internalType": "uint32",
          "name": "eid",
          "type": "uint32"
        }
      ],
      "name": "peers",
      "outputs": [
        {
          "internalType": "bytes32",
          "name": "peer",
          "type": "bytes32"
        }
      ],
      "stateMutability": "view",
      "type": "function"
    },
    {
      "inputs": [
        {
          "internalType": "uint8",
          "name": "messageType",
          "type": "uint8"
        },
        {
          "internalType": "uint32",
          "name": "dstEid",
          "type": "uint32"
        },
        {
          "components": [
            {
              "internalType": "address",
              "name": "target",
              "type": "address"
            },
            {
              "internalType": "uint128",
              "name": "value",
              "type": "uint128"
            },
            {
              "internalType": "bytes",
              "name": "callData",
              "type": "bytes"
            }
          ],
          "internalType": "struct Call",
          "name": "dstCall",
          "type": "tuple"
        },
        {
          "components": [
            {
              "internalType": "address",
              "name": "to",
              "type": "address"
            },
            {
              "internalType": "uint128",
              "name": "value",
              "type": "uint128"
            }
          ],
          "internalType": "struct Transfer",
          "name": "dstTransfer",
          "type": "tuple"
        },
        {
          "internalType": "uint128",
          "name": "dstGasLimit",
          "type": "uint128"
        }
      ],
      "name": "quote",
      "outputs": [
        {
          "components": [
            {
              "internalType": "uint256",
              "name": "nativeFee",
              "type": "uint256"
            },
            {
              "internalType": "uint256",
              "name": "lzTokenFee",
              "type": "uint256"
            }
          ],
          "internalType": "struct MessagingFee",
          "name": "fee",
          "type": "tuple"
        }
      ],
      "stateMutability": "view",
      "type": "function"
    },
    {
      "inputs": [],
      "name": "renounceOwnership",
      "outputs": [],
      "stateMutability": "nonpayable",
      "type": "function"
    },
    {
      "inputs": [
        {
          "internalType": "uint8",
          "name": "messageType",
          "type": "uint8"
        },
        {
          "internalType": "uint32",
          "name": "dstEid",
          "type": "uint32"
        },
        {
          "components": [
            {
              "internalType": "address",
              "name": "target",
              "type": "address"
            },
            {
              "internalType": "uint128",
              "name": "value",
              "type": "uint128"
            },
            {
              "internalType": "bytes",
              "name": "callData",
              "type": "bytes"
            }
          ],
          "internalType": "struct Call",
          "name": "dstCall",
          "type": "tuple"
        },
        {
          "components": [
            {
              "internalType": "address",
              "name": "to",
              "type": "address"
            },
            {
              "internalType": "uint128",
              "name": "value",
              "type": "uint128"
            }
          ],
          "internalType": "struct Transfer",
          "name": "dstTransfer",
          "type": "tuple"
        },
        {
          "internalType": "uint128",
          "name": "dstGasLimit",
          "type": "uint128"
        }
      ],
      "name": "send",
      "outputs": [
        {
          "components": [
            {
              "internalType": "bytes32",
              "name": "guid",
              "type": "bytes32"
            },
            {
              "internalType": "uint64",
              "name": "nonce",
              "type": "uint64"
            },
            {
              "components": [
                {
                  "internalType": "uint256",
                  "name": "nativeFee",
                  "type": "uint256"
                },
                {
                  "internalType": "uint256",
                  "name": "lzTokenFee",
                  "type": "uint256"
                }
              ],
              "internalType": "struct MessagingFee",
              "name": "fee",
              "type": "tuple"
            }
          ],
          "internalType": "struct MessagingReceipt",
          "name": "receipt",
          "type": "tuple"
        }
      ],
      "stateMutability": "payable",
      "type": "function"
    },
    {
      "inputs": [
        {
          "internalType": "address",
          "name": "_delegate",
          "type": "address"
        }
      ],
      "name": "setDelegate",
      "outputs": [],
      "stateMutability": "nonpayable",
      "type": "function"
    },
    {
      "inputs": [
        {
          "internalType": "uint32",
          "name": "_eid",
          "type": "uint32"
        },
        {
          "internalType": "bytes32",
          "name": "_peer",
          "type": "bytes32"
        }
      ],
      "name": "setPeer",
      "outputs": [],
      "stateMutability": "nonpayable",
      "type": "function"
    },
    {
      "inputs": [
        {
          "internalType": "address",
          "name": "newOwner",
          "type": "address"
        }
      ],
      "name": "transferOwnership",
      "outputs": [],
      "stateMutability": "nonpayable",
      "type": "function"
    }
  ],
  "transactionHash": "0xa9314559909114b69b0394dc60fa0b0da70579a089e55426b39dfd47c83f3e9b",
  "args": [
    "0x6EDCE65403992e310A62460808c4b910D972f10f",
    "0x7bCF73Db017B56fC06B2B3De0e01f9d017daafdf"
  ],
  "numDeployments": 1,
  "solcInputHash": "0a7a2f82289242222a2b66f34c261bad",
  "bytecode": "0x60a06040523480156200001157600080fd5b5060405162001cfe38038062001cfe83398101604081905262000034916200017c565b81818181806001600160a01b0381166200006857604051631e4fbdf760e01b81526000600482015260240160405180910390fd5b62000073816200010f565b506001600160a01b038083166080528116620000a257604051632d618d8160e21b815260040160405180910390fd5b60805160405163ca5eb5e160e01b81526001600160a01b0383811660048301529091169063ca5eb5e190602401600060405180830381600087803b158015620000ea57600080fd5b505af1158015620000ff573d6000803e3d6000fd5b50505050505050505050620001b4565b600080546001600160a01b038381166001600160a01b0319831681178455604051919092169283917f8be0079c531659141344cd1fd0a4f28419497f9722a3daafe3b4186f6b6457e09190a35050565b80516001600160a01b03811681146200017757600080fd5b919050565b600080604083850312156200019057600080fd5b6200019b836200015f565b9150620001ab602084016200015f565b90509250929050565b608051611af6620002086000396000818161017d0152818161031f015281816104f4015281816106270152818161066201528181610aa601528181610e7601528181610f6d01526110260152611af66000f3fe6080604052600436106100dd5760003560e01c806382413eac1161007f578063bb0b6a5311610059578063bb0b6a5314610282578063ca5eb5e1146102bd578063f2fde38b146102dd578063ff7bd03d146102fd57600080fd5b806382413eac146102055780638da5cb5b14610244578063a0d24ae81461026257600080fd5b80633400288b116100bb5780633400288b1461014b5780635e280f111461016b578063715018a6146101b75780637d25a05e146101cc57600080fd5b806313137d65146100e257806317442b70146100f7578063260836d81461011e575b600080fd5b6100f56100f0366004611373565b61031d565b005b34801561010357600080fd5b50604080516001815260026020820152015b60405180910390f35b34801561012a57600080fd5b5061013e610139366004611443565b6103dd565b60405161011591906114d7565b34801561015757600080fd5b506100f56101663660046114ee565b61042f565b34801561017757600080fd5b5061019f7f000000000000000000000000000000000000000000000000000000000000000081565b6040516001600160a01b039091168152602001610115565b3480156101c357600080fd5b506100f5610445565b3480156101d857600080fd5b506101ec6101e73660046114ee565b610459565b60405167ffffffffffffffff9091168152602001610115565b34801561021157600080fd5b50610234610220366004611518565b6001600160a01b0381163014949350505050565b6040519015158152602001610115565b34801561025057600080fd5b506000546001600160a01b031661019f565b610275610270366004611443565b610462565b604051610115919061157f565b34801561028e57600080fd5b506102af61029d3660046115c2565b60016020526000908152604090205481565b604051908152602001610115565b3480156102c957600080fd5b506100f56102d83660046115dd565b6104cd565b3480156102e957600080fd5b506100f56102f83660046115dd565b610553565b34801561030957600080fd5b506102346103183660046115fa565b610591565b7f00000000000000000000000000000000000000000000000000000000000000006001600160a01b0316331461036d576040516391ac5e4f60e01b81523360048201526024015b60405180910390fd5b6020870180359061038790610382908a6115c2565b6105c7565b146103c55761039960208801886115c2565b60405163309afaf360e21b815263ffffffff909116600482015260208801356024820152604401610364565b6103d487878787878787610603565b50505050505050565b604080518082019091526000808252602082015285600260ff8216106104165760405163120c177960e11b815260040160405180910390fd5b6104238787878787610715565b50979650505050505050565b610437610851565b610441828261087e565b5050565b61044d610851565b61045760006108d3565b565b60005b92915050565b61046a6112b5565b85600260ff82161061048f5760405163120c177960e11b815260040160405180910390fd5b60008061049f8989898989610715565b9150915060006104b08a8989610923565b90506104bf8982848633610a73565b9a9950505050505050505050565b6104d5610851565b60405163ca5eb5e160e01b81526001600160a01b0382811660048301527f0000000000000000000000000000000000000000000000000000000000000000169063ca5eb5e190602401600060405180830381600087803b15801561053857600080fd5b505af115801561054c573d6000803e3d6000fd5b5050505050565b61055b610851565b6001600160a01b03811661058557604051631e4fbdf760e01b815260006004820152602401610364565b61058e816108d3565b50565b60006020820180359060019083906105a990866115c2565b63ffffffff1681526020810191909152604001600020541492915050565b63ffffffff81166000908152600160205260408120548061045c5760405163f6ff4fb760e01b815263ffffffff84166004820152602401610364565b83156103d457600080600080600061061b8a8a610b7e565b945094509450945094507f00000000000000000000000000000000000000000000000000000000000000006001600160a01b0316836001600160a01b0316148061069657507f00000000000000000000000000000000000000000000000000000000000000006001600160a01b0316856001600160a01b0316145b156106b45760405163293895fb60e01b815260040160405180910390fd5b6001600160801b038416156106e9576106e685856001600160801b031660405180602001604052806000815250610d3a565b50505b8051156107075761070483836001600160801b031683610d3a565b50505b505050505050505050505050565b60408051808201909152600080825260208201526060826001600160801b031660000361075557604051630e67497960e21b815260040160405180910390fd5b60001960ff8816016107bd576107b6836107756040880160208901611616565b6107856040880160208901611616565b61078f9190611647565b60408051600360f01b60208201528151808203600201815260229091019091529190610dba565b9050610828565b6107d18361078f6040880160208901611616565b905060006107e56040860160208701611616565b6001600160801b03161115610828576108256108076040860160208701611616565b61081460208701876115dd565b8391906001600160a01b0316610e22565b90505b6000610835888787610923565b90506108448782846000610e60565b9250509550959350505050565b6000546001600160a01b031633146104575760405163118cdaa760e01b8152336004820152602401610364565b63ffffffff8216600081815260016020908152604091829020849055815192835282018390527f238399d427b947898edb290f5ff0f9109849b1c3ba196a42e35f00c50a54b98b910160405180910390a15050565b600080546001600160a01b038381166001600160a01b0319831681178455604051919092169283917f8be0079c531659141344cd1fd0a4f28419497f9722a3daafe3b4186f6b6457e09190a35050565b6060600060ff8516158015610946575060006109426040860186611667565b9050115b80610977575060ff851660011480156109775750600061096c6040850160208601611616565b6001600160801b0316115b610981578461098c565b61098c8560016116ae565b905060001960ff8216016109f057806109a860208601866115dd565b6109b86040870160208801611616565b6109c56040880188611667565b6040516020016109d99594939291906116c7565b604051602081830303815290604052915050610a6c565b60011960ff821601610a5a5780610a0a60208501856115dd565b610a1a6040860160208701611616565b610a2760208801886115dd565b610a376040890160208a01611616565b610a4460408a018a611667565b6040516020016109d9979695949392919061171e565b50506040805160208101909152600081525b9392505050565b610a7b6112b5565b6000610a8a8460000151610f41565b602085015190915015610aa457610aa48460200151610f69565b7f00000000000000000000000000000000000000000000000000000000000000006001600160a01b0316632637a450826040518060a001604052808b63ffffffff168152602001610af48c6105c7565b81526020018a815260200189815260200160008960200151111515815250866040518463ffffffff1660e01b8152600401610b309291906117dd565b60806040518083038185885af1158015610b4e573d6000803e3d6000fd5b50505050506040513d601f19601f82011682018060405250810190610b7391906118b3565b979650505050505050565b6000806000806060600087876000818110610b9b57610b9b611933565b919091013560f81c9150506000198101610c5f576024871015610bdd576040516301141a7160e01b815260ff8216600482015260248101889052604401610364565b610beb60156001898b611949565b610bf491611973565b60601c9350610c0760256015898b611949565b610c10916119a8565b60801c9250610c22876025818b611949565b8080601f016020809104026020016040519081016040528093929190818152602001838380828437600092019190915250929450610d2f92505050565b60011960ff821601610d16576048871015610c99576040516301141a7160e01b815260ff8216600482015260248101889052604401610364565b610ca760156001898b611949565b610cb091611973565b60601c9550610cc360256015898b611949565b610ccc916119a8565b60801c9450610cdf60396025898b611949565b610ce891611973565b60601c9350610cfb60496039898b611949565b610d04916119a8565b60801c9250610c22876049818b611949565b60405163af9e6e2360e01b815260040160405180910390fd5b509295509295909350565b60006060600080866001600160a01b03168686604051610d5a91906119d6565b60006040518083038185875af1925050503d8060008114610d97576040519150601f19603f3d011682016040523d82523d6000602084013e610d9c565b606091505b509150915081610dae57805160208201fd5b90969095509350505050565b6060836003610dca82600061104b565b61ffff1614610dfe57610dde81600061104b565b604051633a51740d60e01b815261ffff9091166004820152602401610364565b6000610e0a85856110a8565b9050610e1886600183611121565b9695505050505050565b6060836003610e3282600061104b565b61ffff1614610e4657610dde81600061104b565b6000610e52858561118c565b9050610e1886600283611121565b60408051808201909152600080825260208201527f00000000000000000000000000000000000000000000000000000000000000006001600160a01b031663ddc28c586040518060a001604052808863ffffffff168152602001610ec3896105c7565b8152602001878152602001868152602001851515815250306040518363ffffffff1660e01b8152600401610ef89291906117dd565b6040805180830381865afa158015610f14573d6000803e3d6000fd5b505050506040513d601f19601f82011682018060405250810190610f3891906119f2565b95945050505050565b6000813414610f65576040516304fb820960e51b8152346004820152602401610364565b5090565b60007f00000000000000000000000000000000000000000000000000000000000000006001600160a01b031663e4fe1d946040518163ffffffff1660e01b8152600401602060405180830381865afa158015610fc9573d6000803e3d6000fd5b505050506040513d601f19601f82011682018060405250810190610fed9190611a0e565b90506001600160a01b038116611016576040516329b99a9560e11b815260040160405180910390fd5b6104416001600160a01b038216337f0000000000000000000000000000000000000000000000000000000000000000856111b5565b6000611058826002611a2b565b8351101561109f5760405162461bcd60e51b8152602060048201526014602482015273746f55696e7431365f6f75744f66426f756e647360601b6044820152606401610364565b50016002015190565b60606001600160801b038216156110f057604080516001600160801b0319608086811b8216602084015285901b16603082015201604051602081830303815290604052610a6c565b6040516001600160801b0319608085901b1660208201526030015b6040516020818303038152906040529392505050565b606083600361113182600061104b565b61ffff161461114557610dde81600061104b565b8460016111528551611215565b61115d906001611a3e565b8686604051602001611173959493929190611a59565b6040516020818303038152906040529150509392505050565b6040516001600160801b0319608084901b1660208201526030810182905260609060500161110b565b604080516001600160a01b0385811660248301528416604482015260648082018490528251808303909101815260849091019091526020810180516001600160e01b03166323b872dd60e01b17905261120f908590611244565b50505050565b600061ffff821115610f65576040516306dfcc6560e41b81526010600482015260248101839052604401610364565b600080602060008451602086016000885af180611267576040513d6000823e3d81fd5b50506000513d9150811561127f57806001141561128c565b6001600160a01b0384163b155b1561120f57604051635274afe760e01b81526001600160a01b0385166004820152602401610364565b604051806060016040528060008019168152602001600067ffffffffffffffff1681526020016112f8604051806040016040528060008152602001600081525090565b905290565b60006060828403121561130f57600080fd5b50919050565b60008083601f84011261132757600080fd5b50813567ffffffffffffffff81111561133f57600080fd5b60208301915083602082850101111561135757600080fd5b9250929050565b6001600160a01b038116811461058e57600080fd5b600080600080600080600060e0888a03121561138e57600080fd5b61139889896112fd565b965060608801359550608088013567ffffffffffffffff808211156113bc57600080fd5b6113c88b838c01611315565b909750955060a08a013591506113dd8261135e565b90935060c089013590808211156113f357600080fd5b506114008a828b01611315565b989b979a50959850939692959293505050565b803563ffffffff8116811461142757600080fd5b919050565b80356001600160801b038116811461142757600080fd5b600080600080600085870360c081121561145c57600080fd5b863560ff8116811461146d57600080fd5b955061147b60208801611413565b9450604087013567ffffffffffffffff81111561149757600080fd5b6114a389828a016112fd565b9450506040605f19820112156114b857600080fd5b506060860191506114cb60a0870161142c565b90509295509295909350565b81518152602080830151908201526040810161045c565b6000806040838503121561150157600080fd5b61150a83611413565b946020939093013593505050565b60008060008060a0858703121561152e57600080fd5b61153886866112fd565b9350606085013567ffffffffffffffff81111561155457600080fd5b61156087828801611315565b90945092505060808501356115748161135e565b939692955090935050565b60006080820190508251825267ffffffffffffffff602084015116602083015260408301516115bb604084018280518252602090810151910152565b5092915050565b6000602082840312156115d457600080fd5b610a6c82611413565b6000602082840312156115ef57600080fd5b8135610a6c8161135e565b60006060828403121561160c57600080fd5b610a6c83836112fd565b60006020828403121561162857600080fd5b610a6c8261142c565b634e487b7160e01b600052601160045260246000fd5b6001600160801b038181168382160190808211156115bb576115bb611631565b6000808335601e1984360301811261167e57600080fd5b83018035915067ffffffffffffffff82111561169957600080fd5b60200191503681900382131561135757600080fd5b60ff818116838216019081111561045c5761045c611631565b60f886901b6001600160f81b0319168152606085901b6bffffffffffffffffffffffff19166001820152608084901b6001600160801b03191660158201528183602583013760009101602501908152949350505050565b60ff60f81b8860f81b16815260006bffffffffffffffffffffffff19808960601b1660018401526001600160801b0319808960801b166015850152818860601b166025850152808760801b16603985015250508284604984013750600091016049019081529695505050505050565b60005b838110156117a8578181015183820152602001611790565b50506000910152565b600081518084526117c981602086016020860161178d565b601f01601f19169290920160200192915050565b6040815263ffffffff8351166040820152602083015160608201526000604084015160a0608084015261181360e08401826117b1565b90506060850151603f198483030160a085015261183082826117b1565b60809690960151151560c08501525050506001600160a01b039190911660209091015290565b60006040828403121561186857600080fd5b6040516040810181811067ffffffffffffffff8211171561189957634e487b7160e01b600052604160045260246000fd5b604052825181526020928301519281019290925250919050565b6000608082840312156118c557600080fd5b6040516060810167ffffffffffffffff82821081831117156118f757634e487b7160e01b600052604160045260246000fd5b816040528451835260208501519150808216821461191457600080fd5b5060208201526119278460408501611856565b60408201529392505050565b634e487b7160e01b600052603260045260246000fd5b6000808585111561195957600080fd5b8386111561196657600080fd5b5050820193919092039150565b6bffffffffffffffffffffffff1981358181169160148510156119a05780818660140360031b1b83161692505b505092915050565b6001600160801b031981358181169160108510156119a05760109490940360031b84901b1690921692915050565b600082516119e881846020870161178d565b9190910192915050565b600060408284031215611a0457600080fd5b610a6c8383611856565b600060208284031215611a2057600080fd5b8151610a6c8161135e565b8082018082111561045c5761045c611631565b61ffff8181168382160190808211156115bb576115bb611631565b60008651611a6b818460208b0161178d565b6001600160f81b031960f888811b82169285019283526001600160f01b031960f089901b16600184015286901b1660038201528351611ab181600484016020880161178d565b0160040197965050505050505056fea26469706673582212209a07f6273e67ce5f04314abdabad011c24ae9bc73dfb851c8af487fe035381b064736f6c63430008160033",
  "devdoc": {
    "author": "LayerZeroLabs (@EWCunha).",
    "errors": {
      "LZ_OmniCallMsgCodecLib__InvalidDataLength(uint8,uint256)": [
        {
          "details": "Error for when an invalid data length is passed as a parameter.",
          "params": {
            "length": ": The length of the data.",
            "messageType": ": The type of message."
          }
        }
      ],
      "LZ_OmniCallMsgCodecLib__InvalidMessageType()": [
        {
          "details": "Error for when an invalid message type is passed as a parameter."
        }
      ],
      "LZ_OmniCall__InvalidMessageType()": [
        {
          "details": "Error for when a message type is invalid."
        }
      ],
      "LZ_OmniCall__InvalidTarget()": [
        {
          "details": "Error for when a call target is the endpoint."
        }
      ],
      "LZ_OmniCall__ZeroGasLimit()": [
        {
          "details": "Error for when a zero gas limit is passed as a parameter."
        }
      ],
      "OwnableInvalidOwner(address)": [
        {
          "details": "The owner is not a valid owner account. (eg. `address(0)`)"
        }
      ],
      "OwnableUnauthorizedAccount(address)": [
        {
          "details": "The caller account is not authorized to perform an operation."
        }
      ],
      "SafeCastOverflowedUintDowncast(uint8,uint256)": [
        {
          "details": "Value doesn't fit in an uint of `bits` size."
        }
      ],
      "SafeERC20FailedOperation(address)": [
        {
          "details": "An operation with an ERC-20 token failed."
        }
      ]
    },
    "kind": "dev",
    "methods": {
      "allowInitializePath((uint32,bytes32,uint64))": {
        "details": "This indicates to the endpoint that the OApp has enabled msgs for this particular path to be received.This defaults to assuming if a peer has been set, its initialized. Can be overridden by the OApp if there is other logic to determine this.",
        "params": {
          "origin": "The origin information containing the source endpoint and sender address."
        },
        "returns": {
          "_0": "Whether the path has been initialized."
        }
      },
      "constructor": {
        "params": {
          "delegate": ": address to which permissions are delegated.",
          "endpoint_": ": LZ endpoint address;"
        }
      },
      "isComposeMsgSender((uint32,bytes32,uint64),bytes,address)": {
        "details": "_origin The origin information containing the source endpoint and sender address.  - srcEid: The source chain endpoint ID.  - sender: The sender address on the src chain.  - nonce: The nonce of the message._message The lzReceive payload.Applications can optionally choose to implement separate composeMsg senders that are NOT the bridging layer.The default sender IS the OAppReceiver implementer.",
        "params": {
          "_sender": "The sender address."
        },
        "returns": {
          "_0": "isSender Is a valid sender."
        }
      },
      "lzReceive((uint32,bytes32,uint64),bytes32,bytes,address,bytes)": {
        "details": "Entry point for receiving messages or packets from the endpoint.Entry point for receiving msg/packet from the LayerZero endpoint.",
        "params": {
          "_executor": "The address of the executor for the received message.",
          "_extraData": "Additional arbitrary data provided by the corresponding executor.",
          "_guid": "The unique identifier for the received LayerZero message.",
          "_message": "The payload of the received message.",
          "_origin": "The origin information containing the source endpoint and sender address.  - srcEid: The source chain endpoint ID.  - sender: The sender address on the src chain.  - nonce: The nonce of the message."
        }
      },
      "nextNonce(uint32,bytes32)": {
        "details": "_srcEid The source endpoint ID._sender The sender address.The path nonce starts from 1. If 0 is returned it means that there is NO nonce ordered enforcement.Is required by the off-chain executor to determine the OApp expects msg execution is ordered.This is also enforced by the OApp.By default this is NOT enabled. ie. nextNonce is hardcoded to return 0.",
        "returns": {
          "nonce": "The next nonce."
        }
      },
      "oAppVersion()": {
        "returns": {
          "receiverVersion": "The version of the OAppReceiver.sol implementation.",
          "senderVersion": "The version of the OAppSender.sol implementation."
        }
      },
      "owner()": {
        "details": "Returns the address of the current owner."
      },
      "quote(uint8,uint32,(address,uint128,bytes),(address,uint128),uint128)": {
        "params": {
          "dstCall": ": destination call;",
          "dstEid": ": endpoint ID of the destination chain;",
          "dstGasLimit": ": gas limit for destination call/transfer.",
          "dstTransfer": ": destination transfer;",
          "messageType": ": type of message to be sent;"
        },
        "returns": {
          "fee": "- MessagingFee - struct with fee in native and lz token."
        }
      },
      "renounceOwnership()": {
        "details": "Leaves the contract without owner. It will not be possible to call `onlyOwner` functions. Can only be called by the current owner. NOTE: Renouncing ownership will leave the contract without an owner, thereby disabling any functionality that is only available to the owner."
      },
      "send(uint8,uint32,(address,uint128,bytes),(address,uint128),uint128)": {
        "params": {
          "dstCall": ": destination call;",
          "dstEid": ": endpoint ID of the destination chain;",
          "dstGasLimit": ": gas limit for destination call/transfer.",
          "dstTransfer": ": destination transfer;",
          "messageType": ": type of message to be sent;"
        }
      },
      "setDelegate(address)": {
        "details": "Only the owner/admin of the OApp can call this function.Provides the ability for a delegate to set configs, on behalf of the OApp, directly on the Endpoint contract.",
        "params": {
          "_delegate": "The address of the delegate to be set."
        }
      },
      "setPeer(uint32,bytes32)": {
        "details": "Only the owner/admin of the OApp can call this function.Indicates that the peer is trusted to send LayerZero messages to this OApp.Set this to bytes32(0) to remove the peer address.Peer is a bytes32 to accommodate non-evm chains.",
        "params": {
          "_eid": "The endpoint ID.",
          "_peer": "The address of the peer to be associated with the corresponding endpoint."
        }
      },
      "transferOwnership(address)": {
        "details": "Transfers ownership of the contract to a new account (`newOwner`). Can only be called by the current owner."
      }
    },
    "title": "Generic omnichain call.",
    "version": 1
  },
  "userdoc": {
    "kind": "user",
    "methods": {
      "allowInitializePath((uint32,bytes32,uint64))": {
        "notice": "Checks if the path initialization is allowed based on the provided origin."
      },
      "constructor": {
        "notice": "Constructor logic"
      },
      "endpoint()": {
        "notice": "Retrieves the LayerZero endpoint associated with the OApp."
      },
      "isComposeMsgSender((uint32,bytes32,uint64),bytes,address)": {
        "notice": "Indicates whether an address is an approved composeMsg sender to the Endpoint."
      },
      "nextNonce(uint32,bytes32)": {
        "notice": "Retrieves the next nonce for a given source endpoint and sender address."
      },
      "oAppVersion()": {
        "notice": "Retrieves the OApp version information."
      },
      "peers(uint32)": {
        "notice": "Retrieves the peer (OApp) associated with a corresponding endpoint."
      },
      "quote(uint8,uint32,(address,uint128,bytes),(address,uint128),uint128)": {
        "notice": "Quotes the fee of the desired cross-chain message."
      },
      "send(uint8,uint32,(address,uint128,bytes),(address,uint128),uint128)": {
        "notice": "Sends a message and/or transfers gas tokens.UNSAFE: there is the possibility the transaction will revert on the destination chain. To avoid that, be sure to provide correct `dstGasLimit`."
      },
      "setDelegate(address)": {
        "notice": "Sets the delegate address for the OApp."
      },
      "setPeer(uint32,bytes32)": {
        "notice": "Sets the peer address (OApp instance) for a corresponding endpoint."
      }
    },
    "notice": "Generic contract that handles cross-chain communication without the need to set-up security stack and messaging options.",
    "version": 1
  },
  "storageLayout": {
    "storage": [
      {
        "astId": 2859,
        "contract": "contracts/OmniCall.sol:OmniCall",
        "label": "_owner",
        "offset": 0,
        "slot": "0",
        "type": "t_address"
      },
      {
        "astId": 1909,
        "contract": "contracts/OmniCall.sol:OmniCall",
        "label": "peers",
        "offset": 0,
        "slot": "1",
        "type": "t_mapping(t_uint32,t_bytes32)"
      }
    ],
    "types": {
      "t_address": {
        "encoding": "inplace",
        "label": "address",
        "numberOfBytes": "20"
      },
      "t_bytes32": {
        "encoding": "inplace",
        "label": "bytes32",
        "numberOfBytes": "32"
      },
      "t_mapping(t_uint32,t_bytes32)": {
        "encoding": "mapping",
        "key": "t_uint32",
        "label": "mapping(uint32 => bytes32)",
        "numberOfBytes": "32",
        "value": "t_bytes32"
      },
      "t_uint32": {
        "encoding": "inplace",
        "label": "uint32",
        "numberOfBytes": "4"
      }
    }
  }
}