{
  "_format": "hh-sol-artifact-1",
  "contractName": "Emitter",
  "sourceName": "contracts/Emitter.sol",
  "abi": [
    {
      "anonymous": false,
      "inputs": [
        {
          "indexed": true,
          "internalType": "uint256",
          "name": "arg1",
          "type": "uint256"
        },
        {
          "indexed": false,
          "internalType": "uint128",
          "name": "arg2",
          "type": "uint128"
        },
        {
          "indexed": false,
          "internalType": "uint64",
          "name": "arg3",
          "type": "uint64"
        },
        {
          "indexed": true,
          "internalType": "address",
          "name": "arg4",
          "type": "address"
        }
      ],
      "name": "FourArgEvent",
      "type": "event"
    },
    {
      "anonymous": false,
      "inputs": [],
      "name": "NoArgEvent",
      "type": "event"
    },
    {
      "anonymous": false,
      "inputs": [
        {
          "indexed": false,
          "internalType": "uint256",
          "name": "arg1",
          "type": "uint256"
        }
      ],
      "name": "OneArgEvent",
      "type": "event"
    },
    {
      "inputs": [
        {
          "internalType": "uint256",
          "name": "iterations",
          "type": "uint256"
        }
      ],
      "name": "emitMany",
      "outputs": [],
      "stateMutability": "nonpayable",
      "type": "function"
    },
    {
      "inputs": [
        {
          "internalType": "uint256",
          "name": "arg1",
          "type": "uint256"
        },
        {
          "internalType": "uint128",
          "name": "arg2",
          "type": "uint128"
        },
        {
          "internalType": "uint64",
          "name": "arg3",
          "type": "uint64"
        },
        {
          "internalType": "address",
          "name": "arg4",
          "type": "address"
        }
      ],
      "name": "emitMultiArgEvent",
      "outputs": [],
      "stateMutability": "nonpayable",
      "type": "function"
    },
    {
      "inputs": [],
      "name": "emitNoArgEvent",
      "outputs": [],
      "stateMutability": "nonpayable",
      "type": "function"
    },
    {
      "inputs": [
        {
          "internalType": "uint256",
          "name": "arg1",
          "type": "uint256"
        }
      ],
      "name": "emitOneArgEvent",
      "outputs": [],
      "stateMutability": "nonpayable",
      "type": "function"
    }
  ],
  "bytecode": "0x608060405234801561001057600080fd5b50610637806100206000396000f3fe608060405234801561001057600080fd5b506004361061004c5760003560e01c80634d438792146100515780639b6425091461006d578063a078704514610089578063ad87c3ca14610093575b600080fd5b61006b60048036038101906100669190610345565b6100af565b005b61008760048036038101906100829190610345565b6100e9565b005b610091610285565b005b6100ad60048036038101906100a89190610458565b6102b3565b005b7f7b626feb7bbe8e8974489b4a03492f4e155b545e30972c73f4c398f931c536cc816040516100de91906104ce565b60405180910390a150565b600a81111561012d576040517f08c379a000000000000000000000000000000000000000000000000000000000815260040161012490610546565b60405180910390fd5b60005b81811015610281573073ffffffffffffffffffffffffffffffffffffffff1663a07870456040518163ffffffff1660e01b8152600401600060405180830381600087803b15801561018057600080fd5b505af1158015610194573d6000803e3d6000fd5b505050503073ffffffffffffffffffffffffffffffffffffffff16634d438792826040518263ffffffff1660e01b81526004016101d191906104ce565b600060405180830381600087803b1580156101eb57600080fd5b505af11580156101ff573d6000803e3d6000fd5b505050503073ffffffffffffffffffffffffffffffffffffffff1663ad87c3ca828384306040518563ffffffff1660e01b81526004016102429493929190610593565b600060405180830381600087803b15801561025c57600080fd5b505af1158015610270573d6000803e3d6000fd5b505050508080600101915050610130565b5050565b7f3197be1a75187c2e6f7008c280fa99aaa7ba7043acbb46e7a180ed19d0069ec960405160405180910390a1565b8073ffffffffffffffffffffffffffffffffffffffff16847f2930135cdab0ac995a5d7e331db4c9e6c1829911a1966f74db621f03a02cfa2285856040516102fc9291906105d8565b60405180910390a350505050565b600080fd5b6000819050919050565b6103228161030f565b811461032d57600080fd5b50565b60008135905061033f81610319565b92915050565b60006020828403121561035b5761035a61030a565b5b600061036984828501610330565b91505092915050565b60006fffffffffffffffffffffffffffffffff82169050919050565b61039781610372565b81146103a257600080fd5b50565b6000813590506103b48161038e565b92915050565b600067ffffffffffffffff82169050919050565b6103d7816103ba565b81146103e257600080fd5b50565b6000813590506103f4816103ce565b92915050565b600073ffffffffffffffffffffffffffffffffffffffff82169050919050565b6000610425826103fa565b9050919050565b6104358161041a565b811461044057600080fd5b50565b6000813590506104528161042c565b92915050565b600080600080608085870312156104725761047161030a565b5b600061048087828801610330565b9450506020610491878288016103a5565b93505060406104a2878288016103e5565b92505060606104b387828801610443565b91505092959194509250565b6104c88161030f565b82525050565b60006020820190506104e360008301846104bf565b92915050565b600082825260208201905092915050565b7f546f6f206d616e7920697465726174696f6e7300000000000000000000000000600082015250565b60006105306013836104e9565b915061053b826104fa565b602082019050919050565b6000602082019050818103600083015261055f81610523565b9050919050565b61056f81610372565b82525050565b61057e816103ba565b82525050565b61058d8161041a565b82525050565b60006080820190506105a860008301876104bf565b6105b56020830186610566565b6105c26040830185610575565b6105cf6060830184610584565b95945050505050565b60006040820190506105ed6000830185610566565b6105fa6020830184610575565b939250505056fea2646970667358221220a83c64688b9b27acdf756a9249c1bef5d89dcc237d040872d662b56741afda0864736f6c63430008160033",
  "linkReferences": {},
  "deployedLinkReferences": {}
}