{
  "abi": [
    {
      "type": "constructor",
      "inputs": [
        {
          "name": "_endpoint",
          "type": "address",
          "internalType": "address"
        },
        {
          "name": "_counter",
          "type": "address",
          "internalType": "address"
        }
      ],
      "stateMutability": "nonpayable"
    },
    {
      "type": "function",
      "name": "buildSimulationResult",
      "inputs": [],
      "outputs": [
        {
          "name": "",
          "type": "bytes",
          "internalType": "bytes"
        }
      ],
      "stateMutability": "view"
    },
    {
      "type": "function",
      "name": "getConfig",
      "inputs": [
        {
          "name": "_packets",
          "type": "bytes[]",
          "internalType": "bytes[]"
        },
        {
          "name": "_packetMsgValues",
          "type": "uint256[]",
          "internalType": "uint256[]"
        }
      ],
      "outputs": [
        {
          "name": "",
          "type": "bytes",
          "internalType": "bytes"
        }
      ],
      "stateMutability": "nonpayable"
    },
    {
      "type": "function",
      "name": "getPreCrimePeers",
      "inputs": [],
      "outputs": [
        {
          "name": "",
          "type": "tuple[]",
          "internalType": "struct PreCrimePeer[]",
          "components": [
            {
              "name": "eid",
              "type": "uint32",
              "internalType": "uint32"
            },
            {
              "name": "preCrime",
              "type": "bytes32",
              "internalType": "bytes32"
            },
            {
              "name": "oApp",
              "type": "bytes32",
              "internalType": "bytes32"
            }
          ]
        }
      ],
      "stateMutability": "view"
    },
    {
      "type": "function",
      "name": "maxBatchSize",
      "inputs": [],
      "outputs": [
        {
          "name": "",
          "type": "uint64",
          "internalType": "uint64"
        }
      ],
      "stateMutability": "view"
    },
    {
      "type": "function",
      "name": "oApp",
      "inputs": [],
      "outputs": [
        {
          "name": "",
          "type": "address",
          "internalType": "address"
        }
      ],
      "stateMutability": "view"
    },
    {
      "type": "function",
      "name": "owner",
      "inputs": [],
      "outputs": [
        {
          "name": "",
          "type": "address",
          "internalType": "address"
        }
      ],
      "stateMutability": "view"
    },
    {
      "type": "function",
      "name": "preCrime",
      "inputs": [
        {
          "name": "_packets",
          "type": "bytes[]",
          "internalType": "bytes[]"
        },
        {
          "name": "_packetMsgValues",
          "type": "uint256[]",
          "internalType": "uint256[]"
        },
        {
          "name": "_simulations",
          "type": "bytes[]",
          "internalType": "bytes[]"
        }
      ],
      "outputs": [],
      "stateMutability": "nonpayable"
    },
    {
      "type": "function",
      "name": "renounceOwnership",
      "inputs": [],
      "outputs": [],
      "stateMutability": "nonpayable"
    },
    {
      "type": "function",
      "name": "setMaxBatchSize",
      "inputs": [
        {
          "name": "_maxBatchSize",
          "type": "uint64",
          "internalType": "uint64"
        }
      ],
      "outputs": [],
      "stateMutability": "nonpayable"
    },
    {
      "type": "function",
      "name": "setPreCrimePeers",
      "inputs": [
        {
          "name": "_preCrimePeers",
          "type": "tuple[]",
          "internalType": "struct PreCrimePeer[]",
          "components": [
            {
              "name": "eid",
              "type": "uint32",
              "internalType": "uint32"
            },
            {
              "name": "preCrime",
              "type": "bytes32",
              "internalType": "bytes32"
            },
            {
              "name": "oApp",
              "type": "bytes32",
              "internalType": "bytes32"
            }
          ]
        }
      ],
      "outputs": [],
      "stateMutability": "nonpayable"
    },
    {
      "type": "function",
      "name": "simulate",
      "inputs": [
        {
          "name": "_packets",
          "type": "bytes[]",
          "internalType": "bytes[]"
        },
        {
          "name": "_packetMsgValues",
          "type": "uint256[]",
          "internalType": "uint256[]"
        }
      ],
      "outputs": [
        {
          "name": "",
          "type": "bytes",
          "internalType": "bytes"
        }
      ],
      "stateMutability": "payable"
    },
    {
      "type": "function",
      "name": "simulator",
      "inputs": [],
      "outputs": [
        {
          "name": "",
          "type": "address",
          "internalType": "address"
        }
      ],
      "stateMutability": "view"
    },
    {
      "type": "function",
      "name": "transferOwnership",
      "inputs": [
        {
          "name": "newOwner",
          "type": "address",
          "internalType": "address"
        }
      ],
      "outputs": [],
      "stateMutability": "nonpayable"
    },
    {
      "type": "function",
      "name": "version",
      "inputs": [],
      "outputs": [
        {
          "name": "major",
          "type": "uint64",
          "internalType": "uint64"
        },
        {
          "name": "minor",
          "type": "uint8",
          "internalType": "uint8"
        }
      ],
      "stateMutability": "pure"
    },
    {
      "type": "event",
      "name": "OwnershipTransferred",
      "inputs": [
        {
          "name": "previousOwner",
          "type": "address",
          "indexed": true,
          "internalType": "address"
        },
        {
          "name": "newOwner",
          "type": "address",
          "indexed": true,
          "internalType": "address"
        }
      ],
      "anonymous": false
    },
    {
      "type": "error",
      "name": "CrimeFound",
      "inputs": [
        {
          "name": "crime",
          "type": "bytes",
          "internalType": "bytes"
        }
      ]
    },
    {
      "type": "error",
      "name": "InvalidSimulationResult",
      "inputs": [
        {
          "name": "eid",
          "type": "uint32",
          "internalType": "uint32"
        },
        {
          "name": "reason",
          "type": "bytes",
          "internalType": "bytes"
        }
      ]
    },
    {
      "type": "error",
      "name": "OnlyOffChain",
      "inputs": []
    },
    {
      "type": "error",
      "name": "OwnableInvalidOwner",
      "inputs": [
        {
          "name": "owner",
          "type": "address",
          "internalType": "address"
        }
      ]
    },
    {
      "type": "error",
      "name": "OwnableUnauthorizedAccount",
      "inputs": [
        {
          "name": "account",
          "type": "address",
          "internalType": "address"
        }
      ]
    },
    {
      "type": "error",
      "name": "PacketOversize",
      "inputs": [
        {
          "name": "max",
          "type": "uint256",
          "internalType": "uint256"
        },
        {
          "name": "actual",
          "type": "uint256",
          "internalType": "uint256"
        }
      ]
    },
    {
      "type": "error",
      "name": "PacketUnsorted",
      "inputs": []
    },
    {
      "type": "error",
      "name": "SimulationFailed",
      "inputs": [
        {
          "name": "reason",
          "type": "bytes",
          "internalType": "bytes"
        }
      ]
    },
    {
      "type": "error",
      "name": "SimulationResultNotFound",
      "inputs": [
        {
          "name": "eid",
          "type": "uint32",
          "internalType": "uint32"
        }
      ]
    }
  ],
  "bytecode": {
    "object": "0x60e06040523480156200001157600080fd5b506040516200261b3803806200261b833981016040819052620000349162000164565b818133806200005d57604051631e4fbdf760e01b81526000600482015260240160405180910390fd5b6200006881620000f7565b506001600160a01b03808316608052811660a0819052604080516352ae287960e01b815290516352ae2879916004808201926020929091908290030181865afa158015620000ba573d6000803e3d6000fd5b505050506040513d601f19601f82011682018060405250810190620000e091906200019c565b6001600160a01b031660c05250620001c192505050565b600080546001600160a01b038381166001600160a01b0319831681178455604051919092169283917f8be0079c531659141344cd1fd0a4f28419497f9722a3daafe3b4186f6b6457e09190a35050565b80516001600160a01b03811681146200015f57600080fd5b919050565b600080604083850312156200017857600080fd5b620001838362000147565b9150620001936020840162000147565b90509250929050565b600060208284031215620001af57600080fd5b620001ba8262000147565b9392505050565b60805160a05160c051612407620002146000396000818161017a01526116a30152600081816102720152818161058f01528181610ee2015261104c01526000818161156a01526116e101526124076000f3fe6080604052600436106100dd5760003560e01c80638e9e70991161007f578063bf7b5d7a11610059578063bf7b5d7a14610260578063f0cd383614610294578063f2fde38b146102b4578063f8bcddf6146102d457600080fd5b80638e9e709914610209578063afea44ef1461021e578063b9a1f5e71461023e57600080fd5b806352ae2879116100bb57806352ae28791461016857806354fd4d50146101b4578063715018a6146101d65780638da5cb5b146101eb57600080fd5b806310f9cf3a146100e25780632913daa01461010457806350dfa93714610148575b600080fd5b3480156100ee57600080fd5b506101026100fd366004611b0d565b6102f4565b005b34801561011057600080fd5b5060005461012b90600160a01b90046001600160401b031681565b6040516001600160401b0390911681526020015b60405180910390f35b61015b610156366004611ba6565b6104f1565b60405161013f9190611c61565b34801561017457600080fd5b5061019c7f000000000000000000000000000000000000000000000000000000000000000081565b6040516001600160a01b03909116815260200161013f565b3480156101c057600080fd5b506040805160028152600060208201520161013f565b3480156101e257600080fd5b50610102610573565b3480156101f757600080fd5b506000546001600160a01b031661019c565b34801561021557600080fd5b5061015b610587565b34801561022a57600080fd5b50610102610239366004611c89565b6107ab565b34801561024a57600080fd5b506102536107e0565b60405161013f9190611ca6565b34801561026c57600080fd5b5061019c7f000000000000000000000000000000000000000000000000000000000000000081565b3480156102a057600080fd5b5061015b6102af366004611ba6565b61085f565b3480156102c057600080fd5b506101026102cf366004611d05565b610a63565b3480156102e057600080fd5b506101026102ef366004611d2e565b610aa6565b3361dead1461031657604051634e5ff03360e11b815260040160405180910390fd5b60006103568787878780806020026020016040519081016040528093929190818152602001838360200280828437600092019190915250610b1692505050565b90506000826001600160401b0381111561037257610372611da2565b60405190808252806020026020018201604052801561039b578160200160208202803683370190505b5090506000836001600160401b038111156103b8576103b8611da2565b6040519080825280602002602001820160405280156103eb57816020015b60608152602001906001900390816103d65790505b50905060005b848110156104d05736600087878481811061040e5761040e611db8565b90506020028101906104209190611dce565b9092509050610433600460008385611e14565b61043c91611e3e565b60e01c85848151811061045157610451611db8565b63ffffffff909216602092830291909101909101526104738160048185611e14565b8080601f01602080910402602001604051908101604052809392919081815260200183838082843760009201919091525050865187925086915081106104bb576104bb611db8565b602090810291909101015250506001016103f1565b506104db8383610c16565b6104e6838383610ccc565b505050505050505050565b60603361dead1461051557604051634e5ff03360e11b815260040160405180910390fd5b60006105558686868680806020026020016040519081016040528093929190818152602001838360200280828437600092019190915250610b1692505050565b905061056081610e31565b61056981611045565b9695505050505050565b61057b611154565b6105856000611181565b565b6001546060907f00000000000000000000000000000000000000000000000000000000000000009081906000906001600160401b038111156105cb576105cb611da2565b60405190808252806020026020018201604052801561062657816020015b6106136040518060600160405280600063ffffffff16815260200160008152602001600081525090565b8152602001906001900390816105e95790505b50905060005b6001548110156107825760006001828154811061064b5761064b611db8565b600091825260209182902060039190910201546040805160608101825263ffffffff90921680835290516356a4728960e01b81526004810182905290935090918201906001600160a01b038716906356a4728990602401602060405180830381865afa1580156106bf573d6000803e3d6000fd5b505050506040513d601f19601f820116820180604052508101906106e39190611e6e565b81526040516331178bfb60e11b815263ffffffff841660048201526020909101906001600160a01b0387169063622f17f690602401602060405180830381865afa158015610735573d6000803e3d6000fd5b505050506040513d601f19601f820116820180604052508101906107599190611e6e565b81525083838151811061076e5761076e611db8565b60209081029190910101525060010161062c565b50806040516020016107949190611ca6565b604051602081830303815290604052935050505090565b6107b3611154565b600080546001600160401b03909216600160a01b0267ffffffffffffffff60a01b19909216919091179055565b60606001805480602002602001604051908101604052809291908181526020016000905b828210156108565760008481526020908190206040805160608101825260038602909201805463ffffffff16835260018082015484860152600290910154918301919091529083529092019101610804565b50505050905090565b60603361dead1461088357604051634e5ff03360e11b815260040160405180910390fd5b60008054604051600160f11b6020820152600160a01b90910460c01b6001600160c01b0319166022820152602a0160408051601f198184030181529190529050600085156109165761091161090c8888888880806020026020016040519081016040528093929190818152602001838360200280828437600092019190915250610b1692505050565b6111d1565b61098f565b6001805480602002602001604051908101604052809291908181526020016000905b8282101561098a5760008481526020908190206040805160608101825260038602909201805463ffffffff16835260018082015484860152600290910154918301919091529083529092019101610938565b505050505b805190915015610a595780516040516109ae9084908390602001611e87565b604051602081830303815290604052925060005b8161ffff16811015610a5657838382815181106109e1576109e1611db8565b6020026020010151600001518483815181106109ff576109ff611db8565b602002602001015160200151858481518110610a1d57610a1d611db8565b602002602001015160400151604051602001610a3c9493929190611eb9565b60408051601f1981840301815291905293506001016109c2565b50505b5095945050505050565b610a6b611154565b6001600160a01b038116610a9a57604051631e4fbdf760e01b8152600060048201526024015b60405180910390fd5b610aa381611181565b50565b610aae611154565b610aba60016000611a1d565b60005b81811015610b11576001838383818110610ad957610ad9611db8565b835460018101855560009485526020909420606090910292909201926003029091019050610b078282611f0a565b5050600101610abd565b505050565b6060826001600160401b03811115610b3057610b30611da2565b604051908082528060200260200182016040528015610b6957816020015b610b56611a3e565b815260200190600190039081610b4e5790505b50905060005b83811015610c0e57366000868684818110610b8c57610b8c611db8565b9050602002810190610b9e9190611dce565b91509150610bac828261143c565b848481518110610bbe57610bbe611db8565b6020026020010181905250848381518110610bdb57610bdb611db8565b6020026020010151848481518110610bf557610bf5611db8565b6020908102919091010151608001525050600101610b6f565b509392505050565b815115610c92576000610c28836111d1565b905060005b8151811015610c8f576000828281518110610c4a57610c4a611db8565b6020026020010151600001519050610c62848261150f565b610c865760405162cc979560e11b815263ffffffff82166004820152602401610a91565b50600101610c2d565b50505b6000610c9c611566565b9050610ca8828261150f565b610b115760405162cc979560e11b815263ffffffff82166004820152602401610a91565b6000610cd6611566565b9050606060005b8451811015610d4e578263ffffffff16858281518110610cff57610cff611db8565b602002602001015163ffffffff1603610d4657838181518110610d2457610d24611db8565b6020026020010151806020019051810190610d3f9190611f99565b9150610d4e565b600101610cdd565b5060005b8451811015610e29576000858281518110610d6f57610d6f611db8565b602002602001015190506000858381518110610d8d57610d8d611db8565b6020026020010151806020019051810190610da89190611f99565b90506000610db685846115ef565b5090506000610dc583886115ef565b91505080821115610e1957604051631915975760e01b815260206004820152601c60248201527f696e626f756e64436f756e74203e206f7574626f756e64436f756e74000000006044820152606401610a91565b505060019092019150610d529050565b505050505050565b6000548151600160a01b9091046001600160401b03161015610e82576000548151604051639db0860560e01b8152600160a01b9092046001600160401b031660048301526024820152604401610a91565b805115610aa35760008080805b845181101561103e576000858281518110610eac57610eac611db8565b60209081029190910181015180518051920151604051635a0dfe4d60e01b815263ffffffff9093166004840152602483015291507f00000000000000000000000000000000000000000000000000000000000000006001600160a01b031690635a0dfe4d90604401602060405180830381865afa158015610f31573d6000803e3d6000fd5b505050506040513d601f19601f82011682018060405250810190610f559190612075565b610f5f5750611036565b80515163ffffffff80871691161080610f91575080515163ffffffff8681169116148015610f91575080516020015184115b15610faf576040516350823c8560e01b815260040160405180910390fd5b80515163ffffffff8681169116141580610fce57508051602001518414155b15610fef57805180516020909101519095509350610fec858561168c565b92505b610ff8836120ad565b9250826001600160401b03168160000151604001516001600160401b031614611034576040516350823c8560e01b815260040160405180910390fd5b505b600101610e8f565b5050505050565b60606000807f00000000000000000000000000000000000000000000000000000000000000006001600160a01b03163463bd815db060e01b8660405160240161108e91906120d3565b60408051601f198184030181529181526020820180516001600160e01b03166001600160e01b03199094169390931790925290516110cc91906121fb565b60006040518083038185875af1925050503d8060008114611109576040519150601f19603f3d011682016040523d82523d6000602084013e61110e565b606091505b5091509150600061111f8383611755565b9050611129611566565b8160405160200161113b929190612217565b6040516020818303038152906040529350505050919050565b6000546001600160a01b031633146105855760405163118cdaa760e01b8152336004820152602401610a91565b600080546001600160a01b038381166001600160a01b0319831681178455604051919092169283917f8be0079c531659141344cd1fd0a4f28419497f9722a3daafe3b4186f6b6457e09190a35050565b606060006001805480602002602001604051908101604052809291908181526020016000905b828210156112495760008481526020908190206040805160608101825260038602909201805463ffffffff168352600180820154848601526002909101549183019190915290835290920191016111f7565b505050509050600083516001600160401b0381111561126a5761126a611da2565b6040519080825280602002602001820160405280156112b557816020015b60408051606081018252600080825260208083018290529282015282526000199092019101816112885790505b50905060001960005b85518110156113695760008682815181106112db576112db611db8565b60200260200101516000015160000151905060006112f986836117fd565b9050600081121580156113155750600061131386846117fd565b125b1561135f578361132481612249565b94505085818151811061133957611339611db8565b602002602001015185858151811061135357611353611db8565b60200260200101819052505b50506001016112be565b506000811261143457600061137f826001612268565b9050806001600160401b0381111561139957611399611da2565b6040519080825280602002602001820160405280156113e457816020015b60408051606081018252600080825260208083018290529282015282526000199092019101816113b75790505b50945060005b818110156114315783818151811061140457611404611db8565b602002602001015186828151811061141e5761141e611db8565b60209081029190910101526001016113ea565b50505b505050919050565b611444611a3e565b60405180606001604052806114598585611854565b63ffffffff16815260200161146e8585611877565b815260200161147d8585611890565b6001600160401b03169052815261149483836118b3565b63ffffffff1660208201526114a983836118c3565b6001600160a01b031660408201526114c183836118d5565b60608201526114d083836118e5565b8080601f01602080910402602001604051908101604052809392919081815260200183838082843760009201919091525050505060c082015292915050565b6000805b835181101561155a578263ffffffff1684828151811061153557611535611db8565b602002602001015163ffffffff1603611552576001915050611560565b600101611513565b50600090505b92915050565b60007f00000000000000000000000000000000000000000000000000000000000000006001600160a01b031663416ecebf6040518163ffffffff1660e01b8152600401602060405180830381865afa1580156115c6573d6000803e3d6000fd5b505050506040513d601f19601f820116820180604052508101906115ea919061227b565b905090565b60008060005b845181101561167c578363ffffffff1685828151811061161757611617611db8565b60200260200101516000015163ffffffff16036116745784818151811061164057611640611db8565b60200260200101516020015185828151811061165e5761165e611db8565b6020026020010151604001519250925050611685565b6001016115f5565b50600080915091505b9250929050565b60405163283750ff60e21b81526001600160a01b037f00000000000000000000000000000000000000000000000000000000000000008116600483015263ffffffff84166024830152604482018390526000917f00000000000000000000000000000000000000000000000000000000000000009091169063a0dd43fc90606401602060405180830381865afa15801561172a573d6000803e3d6000fd5b505050506040513d601f19601f8201168201806040525081019061174e9190612298565b9392505050565b60608215611792576040516330a65ec560e11b81526020600482015260096024820152681b9bc81c995d995c9d60ba1b6044820152606401610a91565b638351eea760e01b6117a3836122b5565b6001600160e01b031916146117cd57816040516330a65ec560e11b8152600401610a919190611c61565b6117e760048084516117df91906122e8565b849190611900565b90508080602001905181019061174e91906122fb565b6000805b8351811015611849578263ffffffff1684828151811061182357611823611db8565b60200260200101516000015163ffffffff1603611841579050611560565b600101611801565b506000199392505050565b6000611864600d60098486611e14565b61186d91611e3e565b60e01c9392505050565b6000611887602d600d8486611e14565b61174e91612385565b60006118a0600960018486611e14565b6118a9916123a3565b60c01c9392505050565b60006118646031602d8486611e14565b600061174e6118d28484611a0d565b90565b6000611887607160518486611e14565b3660006118f58360718187611e14565b915091509250929050565b60608161190e81601f612268565b101561194d5760405162461bcd60e51b815260206004820152600e60248201526d736c6963655f6f766572666c6f7760901b6044820152606401610a91565b6119578284612268565b8451101561199b5760405162461bcd60e51b8152602060048201526011602482015270736c6963655f6f75744f66426f756e647360781b6044820152606401610a91565b6060821580156119ba5760405191506000825260208201604052611a04565b6040519150601f8416801560200281840101858101878315602002848b0101015b818310156119f35780518352602092830192016119db565b5050858452601f01601f1916604052505b50949350505050565b6000611887605160318486611e14565b5080546000825560030290600052602060002090810190610aa39190611a9b565b6040805161016081018252600061010082018181526101208301829052610140830182905282526020820181905291810182905260608082018390526080820183905260a082019290925260c0810182905260e081019190915290565b5b80821115611ac557805463ffffffff191681556000600182018190556002820155600301611a9c565b5090565b60008083601f840112611adb57600080fd5b5081356001600160401b03811115611af257600080fd5b6020830191508360208260051b850101111561168557600080fd5b60008060008060008060608789031215611b2657600080fd5b86356001600160401b0380821115611b3d57600080fd5b611b498a838b01611ac9565b90985096506020890135915080821115611b6257600080fd5b611b6e8a838b01611ac9565b90965094506040890135915080821115611b8757600080fd5b50611b9489828a01611ac9565b979a9699509497509295939492505050565b60008060008060408587031215611bbc57600080fd5b84356001600160401b0380821115611bd357600080fd5b611bdf88838901611ac9565b90965094506020870135915080821115611bf857600080fd5b50611c0587828801611ac9565b95989497509550505050565b60005b83811015611c2c578181015183820152602001611c14565b50506000910152565b60008151808452611c4d816020860160208601611c11565b601f01601f19169290920160200192915050565b60208152600061174e6020830184611c35565b6001600160401b0381168114610aa357600080fd5b600060208284031215611c9b57600080fd5b813561174e81611c74565b602080825282518282018190526000919060409081850190868401855b82811015611cf8578151805163ffffffff16855286810151878601528501518585015260609093019290850190600101611cc3565b5091979650505050505050565b600060208284031215611d1757600080fd5b81356001600160a01b038116811461174e57600080fd5b60008060208385031215611d4157600080fd5b82356001600160401b0380821115611d5857600080fd5b818501915085601f830112611d6c57600080fd5b813581811115611d7b57600080fd5b866020606083028501011115611d9057600080fd5b60209290920196919550909350505050565b634e487b7160e01b600052604160045260246000fd5b634e487b7160e01b600052603260045260246000fd5b6000808335601e19843603018112611de557600080fd5b8301803591506001600160401b03821115611dff57600080fd5b60200191503681900382131561168557600080fd5b60008085851115611e2457600080fd5b83861115611e3157600080fd5b5050820193919092039150565b6001600160e01b03198135818116916004851015611e665780818660040360031b1b83161692505b505092915050565b600060208284031215611e8057600080fd5b5051919050565b60008351611e99818460208801611c11565b60f09390931b6001600160f01b0319169190920190815260020192915050565b60008551611ecb818460208a01611c11565b60e09590951b6001600160e01b031916919094019081526004810192909252602482015260440192915050565b63ffffffff81168114610aa357600080fd5b8135611f1581611ef8565b63ffffffff811663ffffffff198354161782555060208201356001820155604082013560028201555050565b604051606081016001600160401b0381118282101715611f6357611f63611da2565b60405290565b604051601f8201601f191681016001600160401b0381118282101715611f9157611f91611da2565b604052919050565b60006020808385031215611fac57600080fd5b82516001600160401b0380821115611fc357600080fd5b818501915085601f830112611fd757600080fd5b815181811115611fe957611fe9611da2565b611ff7848260051b01611f69565b8181528481019250606091820284018501918883111561201657600080fd5b938501935b828510156120695780858a0312156120335760008081fd5b61203b611f41565b855161204681611ef8565b81528587015187820152604080870151908201528452938401939285019261201b565b50979650505050505050565b60006020828403121561208757600080fd5b8151801515811461174e57600080fd5b634e487b7160e01b600052601160045260246000fd5b60006001600160401b038083168181036120c9576120c9612097565b6001019392505050565b600060208083018184528085518083526040925060408601915060408160051b87010184880160005b838110156121ed57888303603f1901855281518051805163ffffffff168552602080820151908601526040908101516001600160401b0316908501526101408882015160606121528188018363ffffffff169052565b898401519150608061216e818901846001600160a01b03169052565b9084015160a0888101919091529084015160c08089019190915290840151915060e0906121a5828901846001600160a01b03169052565b840151610100880184905291506121be87840183611c35565b9301518684036101208801529291506121d990508183611c35565b9689019694505050908601906001016120fc565b509098975050505050505050565b6000825161220d818460208701611c11565b9190910192915050565b63ffffffff60e01b8360e01b1681526000825161223b816004850160208701611c11565b919091016004019392505050565b60006001600160ff1b01820161226157612261612097565b5060010190565b8082018082111561156057611560612097565b60006020828403121561228d57600080fd5b815161174e81611ef8565b6000602082840312156122aa57600080fd5b815161174e81611c74565b805160208201516001600160e01b031980821692919060048310156114345760049290920360031b82901b161692915050565b8181038181111561156057611560612097565b60006020828403121561230d57600080fd5b81516001600160401b038082111561232457600080fd5b818401915084601f83011261233857600080fd5b81518181111561234a5761234a611da2565b61235d601f8201601f1916602001611f69565b915080825285602082850101111561237457600080fd5b611a04816020840160208601611c11565b8035602083101561156057600019602084900360031b1b1692915050565b6001600160c01b03198135818116916008851015611e665760089490940360031b84901b169092169291505056fea2646970667358221220f10cbf396af5d5337d5fb60bed3b7830501a5641ff6a6a2b58f5737e913e264064736f6c63430008160033",
    "linkReferences": {}
  },
  "methodIdentifiers": {
    "buildSimulationResult()": "8e9e7099",
    "getConfig(bytes[],uint256[])": "f0cd3836",
    "getPreCrimePeers()": "b9a1f5e7",
    "maxBatchSize()": "2913daa0",
    "oApp()": "52ae2879",
    "owner()": "8da5cb5b",
    "preCrime(bytes[],uint256[],bytes[])": "10f9cf3a",
    "renounceOwnership()": "715018a6",
    "setMaxBatchSize(uint64)": "afea44ef",
    "setPreCrimePeers((uint32,bytes32,bytes32)[])": "f8bcddf6",
    "simulate(bytes[],uint256[])": "50dfa937",
    "simulator()": "bf7b5d7a",
    "transferOwnership(address)": "f2fde38b",
    "version()": "54fd4d50"
  },
  "id": 1
}