{"abi":[{"type":"constructor","inputs":[{"name":"_endpoint","type":"address","internalType":"address"},{"name":"_oft","type":"address","internalType":"address"},{"name":"_coreIndexId","type":"uint256","internalType":"uint256"}],"stateMutability":"nonpayable"},{"type":"function","name":"HL_NATIVE_TRANSFER","inputs":[],"outputs":[{"name":"","type":"address","internalType":"address"}],"stateMutability":"view"},{"type":"function","name":"HL_NATIVE_TRANSFER_CORE_INDEX_ID","inputs":[],"outputs":[{"name":"","type":"uint256","internalType":"uint256"}],"stateMutability":"view"},{"type":"function","name":"HL_NATIVE_TRANSFER_PREFIX","inputs":[],"outputs":[{"name":"","type":"address","internalType":"address"}],"stateMutability":"view"},{"type":"function","name":"endpoint","inputs":[],"outputs":[{"name":"","type":"address","internalType":"address"}],"stateMutability":"view"},{"type":"function","name":"hyperliquidHopTransferableToken","inputs":[],"outputs":[{"name":"","type":"address","internalType":"contract IERC20HyperliquidHopTransferable"}],"stateMutability":"view"},{"type":"function","name":"lzCompose","inputs":[{"name":"_oft","type":"address","internalType":"address"},{"name":"","type":"bytes32","internalType":"bytes32"},{"name":"_message","type":"bytes","internalType":"bytes"},{"name":"","type":"address","internalType":"address"},{"name":"","type":"bytes","internalType":"bytes"}],"outputs":[],"stateMutability":"payable"},{"type":"function","name":"oft","inputs":[],"outputs":[{"name":"","type":"address","internalType":"address"}],"stateMutability":"view"},{"type":"error","name":"HyperLiquidComposer_Codec_InvalidMessage_UnexpectedLength","inputs":[{"name":"message","type":"bytes","internalType":"bytes"},{"name":"length","type":"uint256","internalType":"uint256"}]},{"type":"error","name":"HyperLiquidComposer_InvalidCall_NotEndpoint","inputs":[{"name":"_notEndpointAddress","type":"address","internalType":"address"}]},{"type":"error","name":"HyperLiquidComposer_InvalidCall_NotOFT","inputs":[{"name":"_internalOFTAddress","type":"address","internalType":"address"},{"name":"_receivedOFTAddress","type":"address","internalType":"address"}]},{"type":"error","name":"HyperLiquidComposer_InvalidCall_TokenDoesNotSupportExtension","inputs":[{"name":"_oft","type":"address","internalType":"address"},{"name":"_token","type":"address","internalType":"address"}]}],"bytecode":{"object":"0x610120604052348015610010575f80fd5b506040516109c83803806109c883398101604081905261002f9161018b565b816001600160a01b031663fc0c546a6040518163ffffffff1660e01b8152600401602060405180830381865afa15801561006b573d5f803e3d5ffd5b505050506040513d601f19601f8201168201806040525081019061008f91906101c4565b6001600160a01b0316610100819052604080516367ddeba960e01b815290516367ddeba9916004808201926020929091908290030181865afa1580156100d7573d5f803e3d5ffd5b505050506040513d601f19601f820116820180604052508101906100fb91906101e4565b610134576101005160405163db9a4c6b60e01b81526001600160a01b038085166004830152909116602482015260440160405180910390fd5b6001600160a01b0380841660c052821660e0526001609d1b5f6101578383610203565b6001600160a01b0316608052505060a052506102289050565b80516001600160a01b0381168114610186575f80fd5b919050565b5f805f6060848603121561019d575f80fd5b6101a684610170565b92506101b460208501610170565b9150604084015190509250925092565b5f602082840312156101d4575f80fd5b6101dd82610170565b9392505050565b5f602082840312156101f4575f80fd5b815180151581146101dd575f80fd5b8082018082111561022257634e487b7160e01b5f52601160045260245ffd5b92915050565b60805160a05160c05160e051610100516107416102875f395f81816101c301526103a601525f818161013a0152818161027401526102eb01525f818161010701526101fd01525f61016d01525f818160d4015261037101526107415ff3fe60806040526004361061006e575f3560e01c80639b5215f61161004c5780639b5215f614610129578063a73736ba1461015c578063d0a102601461019d578063d2159547146101b2575f80fd5b80632e75f21a1461007257806356d5e2e5146100c35780635e280f11146100f6575b5f80fd5b34801561007d575f80fd5b5061009973200000000000000000000000000000000000000081565b60405173ffffffffffffffffffffffffffffffffffffffff90911681526020015b60405180910390f35b3480156100ce575f80fd5b506100997f000000000000000000000000000000000000000000000000000000000000000081565b348015610101575f80fd5b506100997f000000000000000000000000000000000000000000000000000000000000000081565b348015610134575f80fd5b506100997f000000000000000000000000000000000000000000000000000000000000000081565b348015610167575f80fd5b5061018f7f000000000000000000000000000000000000000000000000000000000000000081565b6040519081526020016100ba565b6101b06101ab366004610552565b6101e5565b005b3480156101bd575f80fd5b506100997f000000000000000000000000000000000000000000000000000000000000000081565b3373ffffffffffffffffffffffffffffffffffffffff7f0000000000000000000000000000000000000000000000000000000000000000161461025b576040517feee35e6f0000000000000000000000000000000000000000000000000000000081523360048201526024015b60405180910390fd5b8673ffffffffffffffffffffffffffffffffffffffff167f000000000000000000000000000000000000000000000000000000000000000073ffffffffffffffffffffffffffffffffffffffff1614610320576040517f86fee0c000000000000000000000000000000000000000000000000000000000815273ffffffffffffffffffffffffffffffffffffffff7f00000000000000000000000000000000000000000000000000000000000000008116600483015288166024820152604401610252565b5f8061032c878761040a565b6040517fb034fd0700000000000000000000000000000000000000000000000000000000815273ffffffffffffffffffffffffffffffffffffffff80841660048301527f000000000000000000000000000000000000000000000000000000000000000081166024830152604482018390529294509092507f00000000000000000000000000000000000000000000000000000000000000009091169063b034fd07906064015f604051808303815f87803b1580156103e9575f80fd5b505af11580156103fb573d5f803e3d5ffd5b50505050505050505050505050565b5f805f610417858561047a565b905060148151146104585780516040517f09b347310000000000000000000000000000000000000000000000000000000081526102529183916004016105e9565b61046181610659565b60601c925061047085856104c6565b9150509250929050565b606061048982604c81866106a8565b8080601f0160208091040260200160405190810160405280939291908181526020018383808284375f920191909152509293505050505b92915050565b5f6104d5602c600c84866106a8565b6104de916106cf565b9392505050565b803573ffffffffffffffffffffffffffffffffffffffff81168114610508575f80fd5b919050565b5f8083601f84011261051d575f80fd5b50813567ffffffffffffffff811115610534575f80fd5b60208301915083602082850101111561054b575f80fd5b9250929050565b5f805f805f805f60a0888a031215610568575f80fd5b610571886104e5565b965060208801359550604088013567ffffffffffffffff80821115610594575f80fd5b6105a08b838c0161050d565b90975095508591506105b460608b016104e5565b945060808a01359150808211156105c9575f80fd5b506105d68a828b0161050d565b989b979a50959850939692959293505050565b604081525f83518060408401525f5b8181101561061557602081870181015160608684010152016105f8565b505f6060828501015260607fffffffffffffffffffffffffffffffffffffffffffffffffffffffffffffffe0601f8301168401019150508260208301529392505050565b5f815160208301517fffffffffffffffffffffffffffffffffffffffff000000000000000000000000808216935060148310156106a05780818460140360031b1b83161693505b505050919050565b5f80858511156106b6575f80fd5b838611156106c2575f80fd5b5050820193919092039150565b803560208310156104c0577fffffffffffffffffffffffffffffffffffffffffffffffffffffffffffffffff602084900360031b1b169291505056fea2646970667358221220c00b54d18123249dfbea213309797cf059d8d98731b690fcfa5e25bc89b1234964736f6c63430008160033","linkReferences":{}},"methodIdentifiers":{"HL_NATIVE_TRANSFER()":"56d5e2e5","HL_NATIVE_TRANSFER_CORE_INDEX_ID()":"a73736ba","HL_NATIVE_TRANSFER_PREFIX()":"2e75f21a","endpoint()":"5e280f11","hyperliquidHopTransferableToken()":"d2159547","lzCompose(address,bytes32,bytes,address,bytes)":"d0a10260","oft()":"9b5215f6"},"id":72}