{
  "abi": [
    {
      "type": "constructor",
      "inputs": [
        {
          "name": "_oft",
          "type": "address",
          "internalType": "address"
        },
        {
          "name": "_coreIndexId",
          "type": "uint64",
          "internalType": "uint64"
        },
        {
          "name": "_assetDecimalDiff",
          "type": "int8",
          "internalType": "int8"
        }
      ],
      "stateMutability": "nonpayable"
    },
    {
      "type": "receive",
      "stateMutability": "payable"
    },
    {
      "type": "function",
      "name": "ENDPOINT",
      "inputs": [],
      "outputs": [
        {
          "name": "",
          "type": "address",
          "internalType": "address"
        }
      ],
      "stateMutability": "view"
    },
    {
      "type": "function",
      "name": "ERC20",
      "inputs": [],
      "outputs": [
        {
          "name": "",
          "type": "address",
          "internalType": "address"
        }
      ],
      "stateMutability": "view"
    },
    {
      "type": "function",
      "name": "ERC20_ASSET_BRIDGE",
      "inputs": [],
      "outputs": [
        {
          "name": "",
          "type": "address",
          "internalType": "address"
        }
      ],
      "stateMutability": "view"
    },
    {
      "type": "function",
      "name": "ERC20_CORE_INDEX_ID",
      "inputs": [],
      "outputs": [
        {
          "name": "",
          "type": "uint64",
          "internalType": "uint64"
        }
      ],
      "stateMutability": "view"
    },
    {
      "type": "function",
      "name": "ERC20_DECIMAL_DIFF",
      "inputs": [],
      "outputs": [
        {
          "name": "",
          "type": "int8",
          "internalType": "int8"
        }
      ],
      "stateMutability": "view"
    },
    {
      "type": "function",
      "name": "MAX_DECIMAL_DIFF",
      "inputs": [],
      "outputs": [
        {
          "name": "",
          "type": "int8",
          "internalType": "int8"
        }
      ],
      "stateMutability": "view"
    },
    {
      "type": "function",
      "name": "MIN_DECIMAL_DIFF",
      "inputs": [],
      "outputs": [
        {
          "name": "",
          "type": "int8",
          "internalType": "int8"
        }
      ],
      "stateMutability": "view"
    },
    {
      "type": "function",
      "name": "MIN_GAS",
      "inputs": [],
      "outputs": [
        {
          "name": "",
          "type": "uint256",
          "internalType": "uint256"
        }
      ],
      "stateMutability": "nonpayable"
    },
    {
      "type": "function",
      "name": "NATIVE_ASSET_BRIDGE",
      "inputs": [],
      "outputs": [
        {
          "name": "",
          "type": "address",
          "internalType": "address"
        }
      ],
      "stateMutability": "view"
    },
    {
      "type": "function",
      "name": "NATIVE_CORE_INDEX_ID",
      "inputs": [],
      "outputs": [
        {
          "name": "",
          "type": "uint64",
          "internalType": "uint64"
        }
      ],
      "stateMutability": "view"
    },
    {
      "type": "function",
      "name": "NATIVE_DECIMAL_DIFF",
      "inputs": [],
      "outputs": [
        {
          "name": "",
          "type": "int8",
          "internalType": "int8"
        }
      ],
      "stateMutability": "view"
    },
    {
      "type": "function",
      "name": "OFT",
      "inputs": [],
      "outputs": [
        {
          "name": "",
          "type": "address",
          "internalType": "address"
        }
      ],
      "stateMutability": "view"
    },
    {
      "type": "function",
      "name": "SPOT_SEND_HEADER",
      "inputs": [],
      "outputs": [
        {
          "name": "",
          "type": "bytes4",
          "internalType": "bytes4"
        }
      ],
      "stateMutability": "view"
    },
    {
      "type": "function",
      "name": "VALID_COMPOSE_MSG_LEN",
      "inputs": [],
      "outputs": [
        {
          "name": "",
          "type": "uint256",
          "internalType": "uint256"
        }
      ],
      "stateMutability": "view"
    },
    {
      "type": "function",
      "name": "coreUserExists",
      "inputs": [
        {
          "name": "user",
          "type": "address",
          "internalType": "address"
        }
      ],
      "outputs": [
        {
          "name": "",
          "type": "tuple",
          "internalType": "struct CoreUserExists",
          "components": [
            {
              "name": "exists",
              "type": "bool",
              "internalType": "bool"
            }
          ]
        }
      ],
      "stateMutability": "view"
    },
    {
      "type": "function",
      "name": "decodeMessage",
      "inputs": [
        {
          "name": "_composeMessage",
          "type": "bytes",
          "internalType": "bytes"
        }
      ],
      "outputs": [
        {
          "name": "minMsgValue",
          "type": "uint256",
          "internalType": "uint256"
        },
        {
          "name": "to",
          "type": "address",
          "internalType": "address"
        }
      ],
      "stateMutability": "pure"
    },
    {
      "type": "function",
      "name": "failedMessages",
      "inputs": [
        {
          "name": "guid",
          "type": "bytes32",
          "internalType": "bytes32"
        }
      ],
      "outputs": [
        {
          "name": "refundSendParam",
          "type": "tuple",
          "internalType": "struct SendParam",
          "components": [
            {
              "name": "dstEid",
              "type": "uint32",
              "internalType": "uint32"
            },
            {
              "name": "to",
              "type": "bytes32",
              "internalType": "bytes32"
            },
            {
              "name": "amountLD",
              "type": "uint256",
              "internalType": "uint256"
            },
            {
              "name": "minAmountLD",
              "type": "uint256",
              "internalType": "uint256"
            },
            {
              "name": "extraOptions",
              "type": "bytes",
              "internalType": "bytes"
            },
            {
              "name": "composeMsg",
              "type": "bytes",
              "internalType": "bytes"
            },
            {
              "name": "oftCmd",
              "type": "bytes",
              "internalType": "bytes"
            }
          ]
        },
        {
          "name": "msgValue",
          "type": "uint256",
          "internalType": "uint256"
        }
      ],
      "stateMutability": "view"
    },
    {
      "type": "function",
      "name": "handleTransfersToHyperCore",
      "inputs": [
        {
          "name": "_to",
          "type": "address",
          "internalType": "address"
        },
        {
          "name": "_amountLD",
          "type": "uint256",
          "internalType": "uint256"
        }
      ],
      "outputs": [],
      "stateMutability": "payable"
    },
    {
      "type": "function",
      "name": "lzCompose",
      "inputs": [
        {
          "name": "_oft",
          "type": "address",
          "internalType": "address"
        },
        {
          "name": "_guid",
          "type": "bytes32",
          "internalType": "bytes32"
        },
        {
          "name": "_message",
          "type": "bytes",
          "internalType": "bytes"
        },
        {
          "name": "",
          "type": "address",
          "internalType": "address"
        },
        {
          "name": "",
          "type": "bytes",
          "internalType": "bytes"
        }
      ],
      "outputs": [],
      "stateMutability": "payable"
    },
    {
      "type": "function",
      "name": "quoteHyperCoreAmount",
      "inputs": [
        {
          "name": "_coreIndexId",
          "type": "uint64",
          "internalType": "uint64"
        },
        {
          "name": "_decimalDiff",
          "type": "int8",
          "internalType": "int8"
        },
        {
          "name": "_bridgeAddress",
          "type": "address",
          "internalType": "address"
        },
        {
          "name": "_amountLD",
          "type": "uint256",
          "internalType": "uint256"
        }
      ],
      "outputs": [
        {
          "name": "",
          "type": "tuple",
          "internalType": "struct IHyperAssetAmount",
          "components": [
            {
              "name": "evm",
              "type": "uint256",
              "internalType": "uint256"
            },
            {
              "name": "core",
              "type": "uint64",
              "internalType": "uint64"
            },
            {
              "name": "coreBalanceAssetBridge",
              "type": "uint64",
              "internalType": "uint64"
            }
          ]
        }
      ],
      "stateMutability": "view"
    },
    {
      "type": "function",
      "name": "refundToSrc",
      "inputs": [
        {
          "name": "_guid",
          "type": "bytes32",
          "internalType": "bytes32"
        }
      ],
      "outputs": [],
      "stateMutability": "payable"
    },
    {
      "type": "function",
      "name": "spotBalance",
      "inputs": [
        {
          "name": "user",
          "type": "address",
          "internalType": "address"
        },
        {
          "name": "token",
          "type": "uint64",
          "internalType": "uint64"
        }
      ],
      "outputs": [
        {
          "name": "",
          "type": "tuple",
          "internalType": "struct SpotBalance",
          "components": [
            {
              "name": "total",
              "type": "uint64",
              "internalType": "uint64"
            },
            {
              "name": "hold",
              "type": "uint64",
              "internalType": "uint64"
            },
            {
              "name": "entryNtl",
              "type": "uint64",
              "internalType": "uint64"
            }
          ]
        }
      ],
      "stateMutability": "view"
    },
    {
      "type": "event",
      "name": "CompleteRefund",
      "inputs": [],
      "anonymous": false
    },
    {
      "type": "event",
      "name": "FailedMessageDecode",
      "inputs": [
        {
          "name": "guid",
          "type": "bytes32",
          "indexed": true,
          "internalType": "bytes32"
        },
        {
          "name": "sender",
          "type": "bytes32",
          "indexed": false,
          "internalType": "bytes32"
        },
        {
          "name": "msgValue",
          "type": "uint256",
          "indexed": false,
          "internalType": "uint256"
        },
        {
          "name": "composeMessage",
          "type": "bytes",
          "indexed": false,
          "internalType": "bytes"
        }
      ],
      "anonymous": false
    },
    {
      "type": "event",
      "name": "RefundHyperEVM",
      "inputs": [
        {
          "name": "receiver",
          "type": "address",
          "indexed": true,
          "internalType": "address"
        },
        {
          "name": "amountERC20",
          "type": "uint256",
          "indexed": true,
          "internalType": "uint256"
        },
        {
          "name": "amountHYPE",
          "type": "uint256",
          "indexed": true,
          "internalType": "uint256"
        }
      ],
      "anonymous": false
    },
    {
      "type": "event",
      "name": "RefundSuccessful",
      "inputs": [
        {
          "name": "guid",
          "type": "bytes32",
          "indexed": true,
          "internalType": "bytes32"
        }
      ],
      "anonymous": false
    },
    {
      "type": "error",
      "name": "ComposeMsgLengthNot64Bytes",
      "inputs": [
        {
          "name": "length",
          "type": "uint256",
          "internalType": "uint256"
        }
      ]
    },
    {
      "type": "error",
      "name": "CoreUserNotActivated",
      "inputs": []
    },
    {
      "type": "error",
      "name": "FailedMessageNotFound",
      "inputs": [
        {
          "name": "guid",
          "type": "bytes32",
          "internalType": "bytes32"
        }
      ]
    },
    {
      "type": "error",
      "name": "InsufficientGas",
      "inputs": [
        {
          "name": "gasLeft",
          "type": "uint256",
          "internalType": "uint256"
        },
        {
          "name": "minGas",
          "type": "uint256",
          "internalType": "uint256"
        }
      ]
    },
    {
      "type": "error",
      "name": "InsufficientMsgValue",
      "inputs": [
        {
          "name": "msgValue",
          "type": "uint256",
          "internalType": "uint256"
        },
        {
          "name": "requiredValue",
          "type": "uint256",
          "internalType": "uint256"
        }
      ]
    },
    {
      "type": "error",
      "name": "InvalidComposeCaller",
      "inputs": [
        {
          "name": "internalOFTAddress",
          "type": "address",
          "internalType": "address"
        },
        {
          "name": "receivedOFTAddress",
          "type": "address",
          "internalType": "address"
        }
      ]
    },
    {
      "type": "error",
      "name": "InvalidDecimalDiff",
      "inputs": [
        {
          "name": "decimalDiff",
          "type": "int8",
          "internalType": "int8"
        },
        {
          "name": "minDecimalDiff",
          "type": "int8",
          "internalType": "int8"
        },
        {
          "name": "maxDecimalDiff",
          "type": "int8",
          "internalType": "int8"
        }
      ]
    },
    {
      "type": "error",
      "name": "InvalidOFTAddress",
      "inputs": []
    },
    {
      "type": "error",
      "name": "NativeTransferFailed",
      "inputs": [
        {
          "name": "amount",
          "type": "uint256",
          "internalType": "uint256"
        }
      ]
    },
    {
      "type": "error",
      "name": "OnlyEndpoint",
      "inputs": []
    },
    {
      "type": "error",
      "name": "OnlySelf",
      "inputs": [
        {
          "name": "caller",
          "type": "address",
          "internalType": "address"
        }
      ]
    },
    {
      "type": "error",
      "name": "ReentrancyGuardReentrantCall",
      "inputs": []
    },
    {
      "type": "error",
      "name": "SafeERC20FailedOperation",
      "inputs": [
        {
          "name": "token",
          "type": "address",
          "internalType": "address"
        }
      ]
    },
    {
      "type": "error",
      "name": "SpotBalanceReadFailed",
      "inputs": [
        {
          "name": "user",
          "type": "address",
          "internalType": "address"
        },
        {
          "name": "tokenId",
          "type": "uint64",
          "internalType": "uint64"
        }
      ]
    },
    {
      "type": "error",
      "name": "TransferAmtExceedsAssetBridgeBalance",
      "inputs": [
        {
          "name": "amt",
          "type": "uint256",
          "internalType": "uint256"
        },
        {
          "name": "maxAmt",
          "type": "uint256",
          "internalType": "uint256"
        }
      ]
    }
  ],
  "bytecode": {
    "object": "0x6101a060405234801562000011575f80fd5b5060405162002c0438038062002c04833981016040819052620000349162000250565b60015f556001600160a01b038316620000605760405163c23419a560e01b815260040160405180910390fd5b6001195f82900b128062000077575060125f82900b135b15620000ae5760405163470eb46160e01b81525f82900b600482015260011960248201526012604482015260640160405180910390fd5b826001600160a01b0316635e280f116040518163ffffffff1660e01b8152600401602060405180830381865afa158015620000eb573d5f803e3d5ffd5b505050506040513d601f19601f82011682018060405250810190620001119190620002af565b6001600160a01b03908116608052831660a0525f466103e71462000138576104516200013b565b60965b73222222222222222222222222222222222222222260c052600a60e0526001600160401b0381166101005260a05160408051637e062a3560e11b815290519293506001600160a01b039091169163fc0c546a916004808201926020929091908290030181865afa158015620001b2573d5f803e3d5ffd5b505050506040513d601f19601f82011682018060405250810190620001d89190620002af565b6001600160a01b031661012052620001f96001600160401b03841662000221565b6001600160a01b031661014052505f0b610160526001600160401b03166101805250620002f4565b5f62000232826001609d1b620002d4565b92915050565b6001600160a01b03811681146200024d575f80fd5b50565b5f805f6060848603121562000263575f80fd5b8351620002708162000238565b60208501519093506001600160401b03811681146200028d575f80fd5b809250506040840151805f0b8114620002a4575f80fd5b809150509250925092565b5f60208284031215620002c0575f80fd5b8151620002cd8162000238565b9392505050565b808201808211156200023257634e487b7160e01b5f52601160045260245ffd5b60805160a05160c05160e051610100516101205161014051610160516101805161283a620003ca5f395f81816105dd0152818161170301526117f101525f818161048b015261172401525f81816105aa0152818161174501526117c601525f818161050a015281816116d601526117a301525f81816104be01528181611823015261195501525f81816103a9015261184401525f81816102fa0152818161186501526118b201525f818161021f0152818161093e01528181610fe8015261105f01525f81816103760152610f78015261283a5ff3fe608060405260043610610170575f3560e01c8063a4e7f8bd116100c6578063cebb51201161007c578063f2f7141f11610057578063f2f7141f14610586578063f34ec5e014610599578063fa69dc7b146105cc575f80fd5b8063cebb51201461052c578063d0a1026014610540578063d3af0cc114610553575f80fd5b8063a754403e116100ac578063a754403e1461047a578063b20bffdc146104ad578063cc4aa204146104f9575f80fd5b8063a4e7f8bd146103fb578063a69610d114610428575f80fd5b806320d2c951116101265780636fad06f5116101015780636fad06f51461036557806371139d6c146103985780639dbfb13f146103cb575f80fd5b806320d2c951146102ca578063574ad4a8146102e9578063634d45b21461031c575f80fd5b80631cd66690116101565780631cd66690146101bb5780631ed0993d1461020e5780631f8164d914610266575f80fd5b806303a9437e1461017b57806319180904146101a6575f80fd5b3661017757005b5f80fd5b348015610186575f80fd5b5061018f601281565b6040515f9190910b81526020015b60405180910390f35b6101b96101b4366004611d8b565b6105ff565b005b3480156101c6575f80fd5b506101da6101d5366004611dd8565b6109e7565b604080518251815260208084015167ffffffffffffffff90811691830191909152928201519092169082015260600161019d565b348015610219575f80fd5b506102417f000000000000000000000000000000000000000000000000000000000000000081565b60405173ffffffffffffffffffffffffffffffffffffffff909116815260200161019d565b348015610271575f80fd5b506102997f010000060000000000000000000000000000000000000000000000000000000081565b6040517fffffffff00000000000000000000000000000000000000000000000000000000909116815260200161019d565b3480156102d5575f80fd5b50620249f05b60405190815260200161019d565b3480156102f4575f80fd5b506102417f000000000000000000000000000000000000000000000000000000000000000081565b348015610327575f80fd5b5061033b610336366004611e70565b610a25565b6040805192835273ffffffffffffffffffffffffffffffffffffffff90911660208301520161019d565b348015610370575f80fd5b506102417f000000000000000000000000000000000000000000000000000000000000000081565b3480156103a3575f80fd5b5061018f7f000000000000000000000000000000000000000000000000000000000000000081565b3480156103d6575f80fd5b506103ea6103e5366004611eaf565b610a7b565b60405190511515815260200161019d565b348015610406575f80fd5b5061041a610415366004611d8b565b610bd5565b60405161019d929190611faa565b348015610433575f80fd5b50610447610442366004611fcb565b610dd9565b60408051825167ffffffffffffffff9081168252602080850151821690830152928201519092169082015260600161019d565b348015610485575f80fd5b5061018f7f000000000000000000000000000000000000000000000000000000000000000081565b3480156104b8575f80fd5b506104e07f000000000000000000000000000000000000000000000000000000000000000081565b60405167ffffffffffffffff909116815260200161019d565b348015610504575f80fd5b506102417f000000000000000000000000000000000000000000000000000000000000000081565b348015610537575f80fd5b506102db604081565b6101b961054e366004612002565b610f58565b34801561055e575f80fd5b5061018f7ffffffffffffffffffffffffffffffffffffffffffffffffffffffffffffffffe81565b6101b961059436600461209c565b6113ef565b3480156105a4575f80fd5b506102417f000000000000000000000000000000000000000000000000000000000000000081565b3480156105d7575f80fd5b506104e07f000000000000000000000000000000000000000000000000000000000000000081565b5f818152600160208190526040808320815161012081018352815463ffffffff1692810192835292810154606084015260028101546080840152600381015460a0840152600481018054919284929091849160c085019190610660906120c6565b80601f016020809104026020016040519081016040528092919081815260200182805461068c906120c6565b80156106d75780601f106106ae576101008083540402835291602001916106d7565b820191905f5260205f20905b8154815290600101906020018083116106ba57829003601f168201915b505050505081526020016005820180546106f0906120c6565b80601f016020809104026020016040519081016040528092919081815260200182805461071c906120c6565b80156107675780601f1061073e57610100808354040283529160200191610767565b820191905f5260205f20905b81548152906001019060200180831161074a57829003601f168201915b50505050508152602001600682018054610780906120c6565b80601f01602080910402602001604051908101604052809291908181526020018280546107ac906120c6565b80156107f75780601f106107ce576101008083540402835291602001916107f7565b820191905f5260205f20905b8154815290600101906020018083116107da57829003601f168201915b5050509190925250505081526007919091015460209091015280515190915063ffffffff165f0361085c576040517f0b948634000000000000000000000000000000000000000000000000000000008152600481018390526024015b60405180910390fd5b5f828152600160208190526040822080547fffffffffffffffffffffffffffffffffffffffffffffffffffffffff0000000016815590810182905560028101829055600381018290559081816108b56004830182611d39565b6108c2600583015f611d39565b6108cf600683015f611d39565b5050600782015f905550505f3482602001516108eb919061213e565b82516040805180820182528381525f602082015290517fc7c7f5b300000000000000000000000000000000000000000000000000000000815292935073ffffffffffffffffffffffffffffffffffffffff7f0000000000000000000000000000000000000000000000000000000000000000169263c7c7f5b3928592610975923290600401612151565b60c06040518083038185885af1158015610991573d5f803e3d5ffd5b50505050506040513d601f19601f820116820180604052508101906109b6919061223d565b505060405183907fd41d02272333251e6367f747c63d5cc227dcac6b0c799067569e80a30f9da369905f90a2505050565b604080516060810182525f8082526020820181905291810182905290610a0d8487610dd9565b519050610a1b838287611447565b9695505050505050565b5f8060408314610a64576040517f2b701db100000000000000000000000000000000000000000000000000000000815260048101849052602401610853565b610a70838501856122a6565b909590945092505050565b60408051602081019091525f81526040805173ffffffffffffffffffffffffffffffffffffffff841660208201525f9182916108109101604080517fffffffffffffffffffffffffffffffffffffffffffffffffffffffffffffffe081840301815290829052610aea916122c9565b5f60405180830381855afa9150503d805f8114610b22576040519150601f19603f3d011682016040523d82523d5f602084013e610b27565b606091505b509150915081610bb9576040517f08c379a000000000000000000000000000000000000000000000000000000000815260206004820152602760248201527f436f726520757365722065786973747320707265636f6d70696c652063616c6c60448201527f206661696c6564000000000000000000000000000000000000000000000000006064820152608401610853565b80806020019051810190610bcd91906122e4565b949350505050565b600160208181525f928352604092839020835160e081018552815463ffffffff16815292810154918301919091526002810154928201929092526003820154606082015260048201805483916080840191610c2f906120c6565b80601f0160208091040260200160405190810160405280929190818152602001828054610c5b906120c6565b8015610ca65780601f10610c7d57610100808354040283529160200191610ca6565b820191905f5260205f20905b815481529060010190602001808311610c8957829003601f168201915b50505050508152602001600582018054610cbf906120c6565b80601f0160208091040260200160405190810160405280929190818152602001828054610ceb906120c6565b8015610d365780601f10610d0d57610100808354040283529160200191610d36565b820191905f5260205f20905b815481529060010190602001808311610d1957829003601f168201915b50505050508152602001600682018054610d4f906120c6565b80601f0160208091040260200160405190810160405280929190818152602001828054610d7b906120c6565b8015610dc65780601f10610d9d57610100808354040283529160200191610dc6565b820191905f5260205f20905b815481529060010190602001808311610da957829003601f168201915b5050509190925250505060079091015482565b604080516060810182525f80825260208201819052918101919091526040805173ffffffffffffffffffffffffffffffffffffffff8516602082015267ffffffffffffffff8416918101919091525f90819061080190606001604080517fffffffffffffffffffffffffffffffffffffffffffffffffffffffffffffffe081840301815290829052610e6a916122c9565b5f60405180830381855afa9150503d805f8114610ea2576040519150601f19603f3d011682016040523d82523d5f602084013e610ea7565b606091505b509150915081610f39576040517f08c379a000000000000000000000000000000000000000000000000000000000815260206004820152602260248201527f53706f7442616c616e636520707265636f6d70696c652063616c6c206661696c60448201527f65640000000000000000000000000000000000000000000000000000000000006064820152608401610853565b80806020019051810190610f4d9190612332565b925050505b92915050565b610f606114ec565b3373ffffffffffffffffffffffffffffffffffffffff7f00000000000000000000000000000000000000000000000000000000000000001614610fcf576040517f7eb966c800000000000000000000000000000000000000000000000000000000815260040160405180910390fd5b8673ffffffffffffffffffffffffffffffffffffffff167f000000000000000000000000000000000000000000000000000000000000000073ffffffffffffffffffffffffffffffffffffffff1614611094576040517fc8b356c600000000000000000000000000000000000000000000000000000000815273ffffffffffffffffffffffffffffffffffffffff7f00000000000000000000000000000000000000000000000000000000000000008116600483015288166024820152604401610853565b5f61109f868661152d565b90505f6110ac878761154c565b6040517f634d45b2000000000000000000000000000000000000000000000000000000008152909150309063634d45b2906110eb908490600401612384565b6040805180830381865afa925050508015611141575060408051601f3d9081017fffffffffffffffffffffffffffffffffffffffffffffffffffffffffffffffe016820190925261113e91810190612396565b60015b6112bd5761118a6040518060e001604052805f63ffffffff1681526020015f80191681526020015f81526020015f81526020016060815260200160608152602001606081525090565b6111948888611596565b63ffffffff1681526111a688886115b8565b60208281019190915260408083018590528051808201825283815234818401525f8c81526001808552908390208251805182547fffffffffffffffffffffffffffffffffffffffffffffffffffffffff000000001663ffffffff90911617825594850151918101919091559183015160028301556060830151600383015560808301519092908290600482019061123d9082612404565b5060a082015160058201906112529082612404565b5060c082015160068201906112679082612404565b50505060208201518160070155905050887f387fc8f821460fa8221428c9f4dc1f6d5db4f6a0a01f33dbeaa8cebd95e5d144826020015134856040516112af93929190612520565b60405180910390a2506113db565b81341015611300576040517f7cb769dc00000000000000000000000000000000000000000000000000000000815234600482015260248101839052604401610853565b620249f05a101561134b575a620249f06040517f23e228cb00000000000000000000000000000000000000000000000000000000815260048101929092526024820152604401610853565b6040517ff2f7141f00000000000000000000000000000000000000000000000000000000815273ffffffffffffffffffffffffffffffffffffffff8216600482015260248101859052309063f2f7141f9034906044015f604051808303818588803b1580156113b8575f80fd5b505af1935050505080156113ca575060015b6113d8576113d881856115c7565b50505b50506113e660015f55565b50505050505050565b33301461142a576040517fa19dbf00000000000000000000000000000000000000000000000000000000008152336004820152602401610853565b61143482826116fd565b3415611443576114438261181d565b5050565b604080516060810182525f80825260208201819052918101919091525f805f845f0b13156114845761147a86868661197e565b90925090506114be565b6114b886866114b3877fffffffffffffffffffffffffffffffffffffffffffffffffffffffffffffffff612547565b611a19565b90925090505b6040805160608101825292835267ffffffffffffffff91821660208401529085169082015290509392505050565b60025f5403611527576040517f3ee5aeb500000000000000000000000000000000000000000000000000000000815260040160405180910390fd5b60025f55565b5f61153c602c600c848661256a565b61154591612591565b9392505050565b606061155b82604c818661256a565b8080601f0160208091040260200160405190810160405280939291908181526020018383808284375f92019190915250929695505050505050565b5f6115a5600c6008848661256a565b6115ae916125cd565b60e01c9392505050565b5f61153c604c602c848661256a565b34156116b6575f8273ffffffffffffffffffffffffffffffffffffffff16346040515f6040518083038185875af1925050503d805f8114611623576040519150601f19603f3d011682016040523d82523d5f602084013e611628565b606091505b50509050806116b4576040515f90329034908381818185875af1925050503d805f8114611670576040519150601f19603f3d011682016040523d82523d5f602084013e611675565b606091505b50509050806116b2576040517f77479d32000000000000000000000000000000000000000000000000000000008152346004820152602401610853565b505b505b80156114435761144373ffffffffffffffffffffffffffffffffffffffff7f0000000000000000000000000000000000000000000000000000000000000000168383611a96565b5f61176a7f00000000000000000000000000000000000000000000000000000000000000007f00000000000000000000000000000000000000000000000000000000000000007f0000000000000000000000000000000000000000000000000000000000000000856109e7565b805190915015611818575f611783848360200151611b23565b82519091506117eb9073ffffffffffffffffffffffffffffffffffffffff7f000000000000000000000000000000000000000000000000000000000000000016907f000000000000000000000000000000000000000000000000000000000000000090611a96565b611816847f000000000000000000000000000000000000000000000000000000000000000083611b6a565b505b505050565b5f61188a7f00000000000000000000000000000000000000000000000000000000000000007f00000000000000000000000000000000000000000000000000000000000000007f0000000000000000000000000000000000000000000000000000000000000000346109e7565b8051909150156114435780516040515f9173ffffffffffffffffffffffffffffffffffffffff7f000000000000000000000000000000000000000000000000000000000000000016918381818185875af1925050503d805f8114611909576040519150601f19603f3d011682016040523d82523d5f602084013e61190e565b606091505b505090508061194f5781516040517f77479d320000000000000000000000000000000000000000000000000000000081526004810191909152602401610853565b611818837f00000000000000000000000000000000000000000000000000000000000000008460200151611b6a565b5f808061198c84600a612733565b90505f6119a38267ffffffffffffffff8816612741565b90508187816119b4576119b4612758565b0687039350808411156119fd576040517f9a0c830f0000000000000000000000000000000000000000000000000000000081526004810185905260248101829052604401610853565b818481611a0c57611a0c612758565b0492505050935093915050565b5f8080611a2784600a612733565b90505f611a3e8267ffffffffffffffff8816612785565b905086935080871115611a87576040517f9a0c830f0000000000000000000000000000000000000000000000000000000081526004810185905260248101829052604401610853565b81840292505050935093915050565b6040805173ffffffffffffffffffffffffffffffffffffffff8416602482015260448082018490528251808303909101815260649091019091526020810180517bffffffffffffffffffffffffffffffffffffffffffffffffffffffff167fa9059cbb00000000000000000000000000000000000000000000000000000000179052611818908490611c9a565b5f611b2d83610a7b565b51611b64576040517fbdcf14ea00000000000000000000000000000000000000000000000000000000815260040160405180910390fd5b50919050565b6040805173ffffffffffffffffffffffffffffffffffffffff8516602082015267ffffffffffffffff84811682840152831660608083019190915282518083039091018152608082019092525f90611be8907f010000060000000000000000000000000000000000000000000000000000000090849060a0016127bd565b604080517fffffffffffffffffffffffffffffffffffffffffffffffffffffffffffffffe0818403018152908290527f17938e130000000000000000000000000000000000000000000000000000000082529150733333333333333333333333333333333333333333906317938e1390611c66908490600401612384565b5f604051808303815f87803b158015611c7d575f80fd5b505af1158015611c8f573d5f803e3d5ffd5b505050505050505050565b5f8060205f8451602086015f885af180611cb9576040513d5f823e3d81fd5b50505f513d91508115611cd0578060011415611cea565b73ffffffffffffffffffffffffffffffffffffffff84163b155b15611816576040517f5274afe700000000000000000000000000000000000000000000000000000000815273ffffffffffffffffffffffffffffffffffffffff85166004820152602401610853565b508054611d45906120c6565b5f825580601f10611d54575050565b601f0160209004905f5260205f2090810190611d709190611d73565b50565b5b80821115611d87575f8155600101611d74565b5090565b5f60208284031215611d9b575f80fd5b5035919050565b67ffffffffffffffff81168114611d70575f80fd5b73ffffffffffffffffffffffffffffffffffffffff81168114611d70575f80fd5b5f805f8060808587031215611deb575f80fd5b8435611df681611da2565b935060208501355f81900b8114611e0b575f80fd5b92506040850135611e1b81611db7565b9396929550929360600135925050565b5f8083601f840112611e3b575f80fd5b50813567ffffffffffffffff811115611e52575f80fd5b602083019150836020828501011115611e69575f80fd5b9250929050565b5f8060208385031215611e81575f80fd5b823567ffffffffffffffff811115611e97575f80fd5b611ea385828601611e2b565b90969095509350505050565b5f60208284031215611ebf575f80fd5b813561154581611db7565b5f5b83811015611ee4578181015183820152602001611ecc565b50505f910152565b5f8151808452611f03816020860160208601611eca565b601f017fffffffffffffffffffffffffffffffffffffffffffffffffffffffffffffffe0169290920160200192915050565b63ffffffff81511682526020810151602083015260408101516040830152606081015160608301525f608082015160e06080850152611f7760e0850182611eec565b905060a083015184820360a0860152611f908282611eec565b91505060c083015184820360c0860152610f4d8282611eec565b604081525f611fbc6040830185611f35565b90508260208301529392505050565b5f8060408385031215611fdc575f80fd5b8235611fe781611db7565b91506020830135611ff781611da2565b809150509250929050565b5f805f805f805f60a0888a031215612018575f80fd5b873561202381611db7565b965060208801359550604088013567ffffffffffffffff80821115612046575f80fd5b6120528b838c01611e2b565b909750955060608a0135915061206782611db7565b9093506080890135908082111561207c575f80fd5b506120898a828b01611e2b565b989b979a50959850939692959293505050565b5f80604083850312156120ad575f80fd5b82356120b881611db7565b946020939093013593505050565b600181811c908216806120da57607f821691505b602082108103611b64577f4e487b71000000000000000000000000000000000000000000000000000000005f52602260045260245ffd5b7f4e487b71000000000000000000000000000000000000000000000000000000005f52601160045260245ffd5b80820180821115610f5257610f52612111565b608081525f6121636080830186611f35565b9050835160208301526020840151604083015273ffffffffffffffffffffffffffffffffffffffff83166060830152949350505050565b7f4e487b71000000000000000000000000000000000000000000000000000000005f52604160045260245ffd5b6040516060810167ffffffffffffffff811182821017156121ea576121ea61219a565b60405290565b5f60408284031215612200575f80fd5b6040516040810181811067ffffffffffffffff821117156122235761222361219a565b604052825181526020928301519281019290925250919050565b5f8082840360c081121561224f575f80fd5b608081121561225c575f80fd5b506122656121c7565b83518152602084015161227781611da2565b602082015261228985604086016121f0565b6040820152915061229d84608085016121f0565b90509250929050565b5f80604083850312156122b7575f80fd5b823591506020830135611ff781611db7565b5f82516122da818460208701611eca565b9190910192915050565b5f602082840312156122f4575f80fd5b6040516020810181811067ffffffffffffffff821117156123175761231761219a565b60405282518015158114612329575f80fd5b81529392505050565b5f60608284031215612342575f80fd5b61234a6121c7565b825161235581611da2565b8152602083015161236581611da2565b6020820152604083015161237881611da2565b60408201529392505050565b602081525f6115456020830184611eec565b5f80604083850312156123a7575f80fd5b825191506020830151611ff781611db7565b601f82111561181857805f5260205f20601f840160051c810160208510156123de5750805b601f840160051c820191505b818110156123fd575f81556001016123ea565b5050505050565b815167ffffffffffffffff81111561241e5761241e61219a565b6124328161242c84546120c6565b846123b9565b602080601f831160018114612484575f841561244e5750858301515b7fffffffffffffffffffffffffffffffffffffffffffffffffffffffffffffffff600386901b1c1916600185901b178555612518565b5f858152602081207fffffffffffffffffffffffffffffffffffffffffffffffffffffffffffffffe08616915b828110156124d0578886015182559484019460019091019084016124b1565b508582101561250c57878501517fffffffffffffffffffffffffffffffffffffffffffffffffffffffffffffffff600388901b60f8161c191681555b505060018460011b0185555b505050505050565b838152826020820152606060408201525f61253e6060830184611eec565b95945050505050565b5f825f0b825f0b02805f0b915080821461256357612563612111565b5092915050565b5f8085851115612578575f80fd5b83861115612584575f80fd5b5050820193919092039150565b80356020831015610f52577fffffffffffffffffffffffffffffffffffffffffffffffffffffffffffffffff602084900360031b1b1692915050565b7fffffffff00000000000000000000000000000000000000000000000000000000813581811691600485101561260d5780818660040360031b1b83161692505b505092915050565b600181815b8085111561266e57817fffffffffffffffffffffffffffffffffffffffffffffffffffffffffffffffff0482111561265457612654612111565b8085161561266157918102915b93841c939080029061261a565b509250929050565b5f8261268457506001610f52565b8161269057505f610f52565b81600181146126a657600281146126b0576126cc565b6001915050610f52565b60ff8411156126c1576126c1612111565b50506001821b610f52565b5060208310610133831016604e8410600b84101617156126ef575081810a610f52565b6126f98383612615565b807fffffffffffffffffffffffffffffffffffffffffffffffffffffffffffffffff0482111561272b5761272b612111565b029392505050565b5f61154560ff841683612676565b8082028115828204841417610f5257610f52612111565b7f4e487b71000000000000000000000000000000000000000000000000000000005f52601260045260245ffd5b5f826127b8577f4e487b71000000000000000000000000000000000000000000000000000000005f52601260045260245ffd5b500490565b7fffffffff00000000000000000000000000000000000000000000000000000000831681525f82516127f6816004850160208701611eca565b91909101600401939250505056fea2646970667358221220718159180abb1404159c1a119602fca43e34d4b4b5e8688fd5472a9d21c21a4464736f6c63430008160033",
    "linkReferences": {}
  },
  "methodIdentifiers": {
    "ENDPOINT()": "6fad06f5",
    "ERC20()": "cc4aa204",
    "ERC20_ASSET_BRIDGE()": "f34ec5e0",
    "ERC20_CORE_INDEX_ID()": "fa69dc7b",
    "ERC20_DECIMAL_DIFF()": "a754403e",
    "MAX_DECIMAL_DIFF()": "03a9437e",
    "MIN_DECIMAL_DIFF()": "d3af0cc1",
    "MIN_GAS()": "20d2c951",
    "NATIVE_ASSET_BRIDGE()": "574ad4a8",
    "NATIVE_CORE_INDEX_ID()": "b20bffdc",
    "NATIVE_DECIMAL_DIFF()": "71139d6c",
    "OFT()": "1ed0993d",
    "SPOT_SEND_HEADER()": "1f8164d9",
    "VALID_COMPOSE_MSG_LEN()": "cebb5120",
    "coreUserExists(address)": "9dbfb13f",
    "decodeMessage(bytes)": "634d45b2",
    "failedMessages(bytes32)": "a4e7f8bd",
    "handleTransfersToHyperCore(address,uint256)": "f2f7141f",
    "lzCompose(address,bytes32,bytes,address,bytes)": "d0a10260",
    "quoteHyperCoreAmount(uint64,int8,address,uint256)": "1cd66690",
    "refundToSrc(bytes32)": "19180904",
    "spotBalance(address,uint64)": "a69610d1"
  },
  "id": 0
}