{
  "abi": [
    {
      "type": "constructor",
      "inputs": [
        {
          "name": "_oft",
          "type": "address",
          "internalType": "address"
        },
        {
          "name": "_coreIndexId",
          "type": "uint64",
          "internalType": "uint64"
        },
        {
          "name": "_assetDecimalDiff",
          "type": "int64",
          "internalType": "int64"
        },
        {
          "name": "_REFUND_ADDRESS",
          "type": "address",
          "internalType": "address"
        }
      ],
      "stateMutability": "nonpayable"
    },
    {
      "type": "receive",
      "stateMutability": "payable"
    },
    {
      "type": "function",
      "name": "CORE_WRITER_VERSION",
      "inputs": [],
      "outputs": [
        {
          "name": "",
          "type": "bytes1",
          "internalType": "bytes1"
        }
      ],
      "stateMutability": "view"
    },
    {
      "type": "function",
      "name": "ENDPOINT",
      "inputs": [],
      "outputs": [
        {
          "name": "",
          "type": "address",
          "internalType": "address"
        }
      ],
      "stateMutability": "view"
    },
    {
      "type": "function",
      "name": "MIN_GAS",
      "inputs": [],
      "outputs": [
        {
          "name": "",
          "type": "uint256",
          "internalType": "uint256"
        }
      ],
      "stateMutability": "view"
    },
    {
      "type": "function",
      "name": "NATIVE_TRANSFER_GAS",
      "inputs": [],
      "outputs": [
        {
          "name": "",
          "type": "uint256",
          "internalType": "uint256"
        }
      ],
      "stateMutability": "view"
    },
    {
      "type": "function",
      "name": "OFT",
      "inputs": [],
      "outputs": [
        {
          "name": "",
          "type": "address",
          "internalType": "address"
        }
      ],
      "stateMutability": "view"
    },
    {
      "type": "function",
      "name": "REFUND_ADDRESS",
      "inputs": [],
      "outputs": [
        {
          "name": "",
          "type": "address",
          "internalType": "address"
        }
      ],
      "stateMutability": "view"
    },
    {
      "type": "function",
      "name": "SPOT_SEND_ACTION_ID",
      "inputs": [],
      "outputs": [
        {
          "name": "",
          "type": "bytes3",
          "internalType": "bytes3"
        }
      ],
      "stateMutability": "view"
    },
    {
      "type": "function",
      "name": "SPOT_SEND_HEADER",
      "inputs": [],
      "outputs": [
        {
          "name": "",
          "type": "bytes4",
          "internalType": "bytes4"
        }
      ],
      "stateMutability": "view"
    },
    {
      "type": "function",
      "name": "TOKEN",
      "inputs": [],
      "outputs": [
        {
          "name": "",
          "type": "address",
          "internalType": "address"
        }
      ],
      "stateMutability": "view"
    },
    {
      "type": "function",
      "name": "VALID_COMPOSE_MSG_LEN",
      "inputs": [],
      "outputs": [
        {
          "name": "",
          "type": "uint256",
          "internalType": "uint256"
        }
      ],
      "stateMutability": "view"
    },
    {
      "type": "function",
      "name": "balanceOfHyperCore",
      "inputs": [
        {
          "name": "_user",
          "type": "address",
          "internalType": "address"
        },
        {
          "name": "_tokenId",
          "type": "uint64",
          "internalType": "uint64"
        }
      ],
      "outputs": [
        {
          "name": "",
          "type": "uint64",
          "internalType": "uint64"
        }
      ],
      "stateMutability": "view"
    },
    {
      "type": "function",
      "name": "decode_message",
      "inputs": [
        {
          "name": "_composeMessage",
          "type": "bytes",
          "internalType": "bytes"
        }
      ],
      "outputs": [
        {
          "name": "minMsgValue",
          "type": "uint256",
          "internalType": "uint256"
        },
        {
          "name": "receiver",
          "type": "address",
          "internalType": "address"
        }
      ],
      "stateMutability": "pure"
    },
    {
      "type": "function",
      "name": "failedMessages",
      "inputs": [
        {
          "name": "",
          "type": "bytes32",
          "internalType": "bytes32"
        }
      ],
      "outputs": [
        {
          "name": "refundSendParam",
          "type": "tuple",
          "internalType": "struct SendParam",
          "components": [
            {
              "name": "dstEid",
              "type": "uint32",
              "internalType": "uint32"
            },
            {
              "name": "to",
              "type": "bytes32",
              "internalType": "bytes32"
            },
            {
              "name": "amountLD",
              "type": "uint256",
              "internalType": "uint256"
            },
            {
              "name": "minAmountLD",
              "type": "uint256",
              "internalType": "uint256"
            },
            {
              "name": "extraOptions",
              "type": "bytes",
              "internalType": "bytes"
            },
            {
              "name": "composeMsg",
              "type": "bytes",
              "internalType": "bytes"
            },
            {
              "name": "oftCmd",
              "type": "bytes",
              "internalType": "bytes"
            }
          ]
        },
        {
          "name": "msgValue",
          "type": "uint256",
          "internalType": "uint256"
        }
      ],
      "stateMutability": "view"
    },
    {
      "type": "function",
      "name": "handleCoreTransfers",
      "inputs": [
        {
          "name": "_receiver",
          "type": "address",
          "internalType": "address"
        },
        {
          "name": "_amount",
          "type": "uint256",
          "internalType": "uint256"
        }
      ],
      "outputs": [
        {
          "name": "dustHYPE",
          "type": "uint256",
          "internalType": "uint256"
        },
        {
          "name": "dustERC20",
          "type": "uint256",
          "internalType": "uint256"
        }
      ],
      "stateMutability": "payable"
    },
    {
      "type": "function",
      "name": "hypeAsset",
      "inputs": [],
      "outputs": [
        {
          "name": "coreIndexId",
          "type": "uint64",
          "internalType": "uint64"
        },
        {
          "name": "decimalDiff",
          "type": "int64",
          "internalType": "int64"
        },
        {
          "name": "assetBridgeAddress",
          "type": "address",
          "internalType": "address"
        }
      ],
      "stateMutability": "view"
    },
    {
      "type": "function",
      "name": "hypeIndexByChainId",
      "inputs": [
        {
          "name": "",
          "type": "uint256",
          "internalType": "uint256"
        }
      ],
      "outputs": [
        {
          "name": "",
          "type": "uint64",
          "internalType": "uint64"
        }
      ],
      "stateMutability": "view"
    },
    {
      "type": "function",
      "name": "lzCompose",
      "inputs": [
        {
          "name": "_oft",
          "type": "address",
          "internalType": "address"
        },
        {
          "name": "_guid",
          "type": "bytes32",
          "internalType": "bytes32"
        },
        {
          "name": "_message",
          "type": "bytes",
          "internalType": "bytes"
        },
        {
          "name": "",
          "type": "address",
          "internalType": "address"
        },
        {
          "name": "",
          "type": "bytes",
          "internalType": "bytes"
        }
      ],
      "outputs": [],
      "stateMutability": "payable"
    },
    {
      "type": "function",
      "name": "oftAsset",
      "inputs": [],
      "outputs": [
        {
          "name": "coreIndexId",
          "type": "uint64",
          "internalType": "uint64"
        },
        {
          "name": "decimalDiff",
          "type": "int64",
          "internalType": "int64"
        },
        {
          "name": "assetBridgeAddress",
          "type": "address",
          "internalType": "address"
        }
      ],
      "stateMutability": "view"
    },
    {
      "type": "function",
      "name": "quoteHyperCoreAmount",
      "inputs": [
        {
          "name": "_amount",
          "type": "uint256",
          "internalType": "uint256"
        },
        {
          "name": "_isOFT",
          "type": "bool",
          "internalType": "bool"
        }
      ],
      "outputs": [
        {
          "name": "",
          "type": "tuple",
          "internalType": "struct IHyperAssetAmount",
          "components": [
            {
              "name": "evm",
              "type": "uint256",
              "internalType": "uint256"
            },
            {
              "name": "dust",
              "type": "uint256",
              "internalType": "uint256"
            },
            {
              "name": "core",
              "type": "uint64",
              "internalType": "uint64"
            }
          ]
        }
      ],
      "stateMutability": "view"
    },
    {
      "type": "function",
      "name": "refundToSrc",
      "inputs": [
        {
          "name": "_guid",
          "type": "bytes32",
          "internalType": "bytes32"
        }
      ],
      "outputs": [],
      "stateMutability": "payable"
    },
    {
      "type": "event",
      "name": "CompleteRefund",
      "inputs": [],
      "anonymous": false
    },
    {
      "type": "event",
      "name": "FailedMessageDecode",
      "inputs": [
        {
          "name": "guid",
          "type": "bytes32",
          "indexed": true,
          "internalType": "bytes32"
        },
        {
          "name": "sender",
          "type": "bytes32",
          "indexed": false,
          "internalType": "bytes32"
        },
        {
          "name": "msgValue",
          "type": "uint256",
          "indexed": false,
          "internalType": "uint256"
        },
        {
          "name": "composeMessage",
          "type": "bytes",
          "indexed": false,
          "internalType": "bytes"
        }
      ],
      "anonymous": false
    },
    {
      "type": "event",
      "name": "RefundHyperEVM",
      "inputs": [
        {
          "name": "receiver",
          "type": "address",
          "indexed": true,
          "internalType": "address"
        },
        {
          "name": "amountERC20",
          "type": "uint256",
          "indexed": true,
          "internalType": "uint256"
        },
        {
          "name": "amountHYPE",
          "type": "uint256",
          "indexed": true,
          "internalType": "uint256"
        }
      ],
      "anonymous": false
    },
    {
      "type": "event",
      "name": "RefundSuccessful",
      "inputs": [
        {
          "name": "guid",
          "type": "bytes32",
          "indexed": true,
          "internalType": "bytes32"
        }
      ],
      "anonymous": false
    },
    {
      "type": "error",
      "name": "ComposeMsgLengthNot64Bytes",
      "inputs": [
        {
          "name": "length",
          "type": "uint256",
          "internalType": "uint256"
        }
      ]
    },
    {
      "type": "error",
      "name": "FailedMessageNotFound",
      "inputs": [
        {
          "name": "guid",
          "type": "bytes32",
          "internalType": "bytes32"
        }
      ]
    },
    {
      "type": "error",
      "name": "InsufficientGas",
      "inputs": [
        {
          "name": "gasLeft",
          "type": "uint256",
          "internalType": "uint256"
        },
        {
          "name": "minGas",
          "type": "uint256",
          "internalType": "uint256"
        }
      ]
    },
    {
      "type": "error",
      "name": "InsufficientMsgValue",
      "inputs": [
        {
          "name": "msgValue",
          "type": "uint256",
          "internalType": "uint256"
        },
        {
          "name": "requiredValue",
          "type": "uint256",
          "internalType": "uint256"
        }
      ]
    },
    {
      "type": "error",
      "name": "InvalidComposeCaller",
      "inputs": [
        {
          "name": "internalOFTAddress",
          "type": "address",
          "internalType": "address"
        },
        {
          "name": "receivedOFTAddress",
          "type": "address",
          "internalType": "address"
        }
      ]
    },
    {
      "type": "error",
      "name": "InvalidOFTAddress",
      "inputs": []
    },
    {
      "type": "error",
      "name": "NativeTransferFailed",
      "inputs": [
        {
          "name": "receiver",
          "type": "address",
          "internalType": "address"
        },
        {
          "name": "amount",
          "type": "uint256",
          "internalType": "uint256"
        }
      ]
    },
    {
      "type": "error",
      "name": "OnlyEndpoint",
      "inputs": []
    },
    {
      "type": "error",
      "name": "OnlySelf",
      "inputs": [
        {
          "name": "caller",
          "type": "address",
          "internalType": "address"
        }
      ]
    },
    {
      "type": "error",
      "name": "ReentrancyGuardReentrantCall",
      "inputs": []
    },
    {
      "type": "error",
      "name": "SafeERC20FailedOperation",
      "inputs": [
        {
          "name": "token",
          "type": "address",
          "internalType": "address"
        }
      ]
    },
    {
      "type": "error",
      "name": "SpotBalanceReadFailed",
      "inputs": [
        {
          "name": "user",
          "type": "address",
          "internalType": "address"
        },
        {
          "name": "tokenId",
          "type": "uint64",
          "internalType": "uint64"
        }
      ]
    },
    {
      "type": "error",
      "name": "UnsupportedChainId",
      "inputs": [
        {
          "name": "chainId",
          "type": "uint256",
          "internalType": "uint256"
        }
      ]
    }
  ],
  "bytecode": {
    "object": "0x61010060405234801562000011575f80fd5b5060405162002a9338038062002a93833981016040819052620000349162000332565b5f60208190527f2802b8ca0a4d9948ac89ce9ba15f4015f0f68c52469c4df23bbaf374f1d4604080546001600160401b0319908116610451179091556103e79091527f332eac5de6beffe8ee7761a0342c75594c3acb5fdde0a2555227e56aa65d414180549091166096179055836001600160a01b038116620000ca5760405163c23419a560e01b815260040160405180910390fd5b806001600160a01b0316635e280f116040518163ffffffff1660e01b8152600401602060405180830381865afa15801562000107573d5f803e3d5ffd5b505050506040513d601f19601f820116820180604052508101906200012d9190620003a6565b6001600160a01b03908116608052811660a081905260408051637e062a3560e11b8152905163fc0c546a916004808201926020929091908290030181865afa1580156200017c573d5f803e3d5ffd5b505050506040513d601f19601f82011682018060405250810190620001a29190620003a6565b6001600160a01b031660c052465f908152602081905260408120546001600160401b031690819003620001ee576040516352ed5aff60e11b815246600482015260240160405180910390fd5b60408051606080820183526001600160401b03938416808352600a602080850191909152732222222222222222222222222222222222222222938501849052600480546001600160801b031916909217680a000000000000000017909155600580546001600160a01b031916909317909255600160065582519081018352928716808452600787900b918401919091529192508201906200028f9062000303565b6001600160a01b0390811690915281516002805460208501516001600160401b0390811668010000000000000000026001600160801b0319909216931692909217919091179055604090910151600380549183166001600160a01b03199092169190911790551660e05250620003eb915050565b5f62000314826001609d1b620003cb565b92915050565b6001600160a01b03811681146200032f575f80fd5b50565b5f805f806080858703121562000346575f80fd5b845162000353816200031a565b60208601519094506001600160401b038116811462000370575f80fd5b8093505060408501518060070b811462000388575f80fd5b60608601519092506200039b816200031a565b939692955090935050565b5f60208284031215620003b7575f80fd5b8151620003c4816200031a565b9392505050565b808201808211156200031457634e487b7160e01b5f52601160045260245ffd5b60805160a05160c05160e051612643620004505f395f8181610525015261099501525f818161047601528181611419015261177f01525f81816102150152818161096601528181610d840152610dfb01525f81816103990152610d1401526126435ff3fe60806040526004361061015a575f3560e01c806381e8dcb4116100bb578063d0a1026011610071578063f6e6b24011610057578063f6e6b24014610547578063f9716faf14610593578063fdea0482146105de575f80fd5b8063d0a1026014610501578063f1ae0e9b14610514575f80fd5b806384df0fa4116100a157806384df0fa414610498578063a4e7f8bd146104c0578063cebb5120146104ed575f80fd5b806381e8dcb41461044657806382bfefc814610465575f80fd5b806320d2c951116101105780634bd162df116100f65780634bd162df1461033a5780636fad06f514610388578063765008a1146103bb575f80fd5b806320d2c951146102c057806322dbe29c146102d6575f80fd5b8063191809041161014057806319180904146101ef5780631ed0993d146102045780631f8164d91461025c575f80fd5b80630d1995e014610165578063104544dd146101cc575f80fd5b3661016157005b5f80fd5b348015610170575f80fd5b506101967d06000000000000000000000000000000000000000000000000000000000081565b6040517fffffff000000000000000000000000000000000000000000000000000000000090911681526020015b60405180910390f35b3480156101d7575f80fd5b506101e16108fc81565b6040519081526020016101c3565b6102026101fd366004611c07565b610627565b005b34801561020f575f80fd5b506102377f000000000000000000000000000000000000000000000000000000000000000081565b60405173ffffffffffffffffffffffffffffffffffffffff90911681526020016101c3565b348015610267575f80fd5b5061028f7f010000060000000000000000000000000000000000000000000000000000000081565b6040517fffffffff0000000000000000000000000000000000000000000000000000000090911681526020016101c3565b3480156102cb575f80fd5b506101e1620249f081565b3480156102e1575f80fd5b506103097f010000000000000000000000000000000000000000000000000000000000000081565b6040517fff0000000000000000000000000000000000000000000000000000000000000090911681526020016101c3565b348015610345575f80fd5b5061036f610354366004611c07565b5f6020819052908152604090205467ffffffffffffffff1681565b60405167ffffffffffffffff90911681526020016101c3565b348015610393575f80fd5b506102377f000000000000000000000000000000000000000000000000000000000000000081565b3480156103c6575f80fd5b506002546003546104079167ffffffffffffffff8116916801000000000000000090910460070b9073ffffffffffffffffffffffffffffffffffffffff1683565b6040805167ffffffffffffffff909416845260079290920b602084015273ffffffffffffffffffffffffffffffffffffffff16908201526060016101c3565b348015610451575f80fd5b5061036f610460366004611c54565b610a2f565b348015610470575f80fd5b506102377f000000000000000000000000000000000000000000000000000000000000000081565b6104ab6104a6366004611c8b565b610a43565b604080519283526020830191909152016101c3565b3480156104cb575f80fd5b506104df6104da366004611c07565b610aa5565b6040516101c3929190611d95565b3480156104f8575f80fd5b506101e1604081565b61020261050f366004611df4565b610ca9565b34801561051f575f80fd5b506102377f000000000000000000000000000000000000000000000000000000000000000081565b348015610552575f80fd5b506004546005546104079167ffffffffffffffff8116916801000000000000000090910460070b9073ffffffffffffffffffffffffffffffffffffffff1683565b34801561059e575f80fd5b506105b26105ad366004611e8e565b61118f565b6040805182518152602080840151908201529181015167ffffffffffffffff16908201526060016101c3565b3480156105e9575f80fd5b506105fd6105f8366004611eb5565b61123f565b6040805192835273ffffffffffffffffffffffffffffffffffffffff9091166020830152016101c3565b5f818152600160208190526040808320815161012081018352815463ffffffff1692810192835292810154606084015260028101546080840152600381015460a0840152600481018054919284929091849160c08501919061068890611ef4565b80601f01602080910402602001604051908101604052809291908181526020018280546106b490611ef4565b80156106ff5780601f106106d6576101008083540402835291602001916106ff565b820191905f5260205f20905b8154815290600101906020018083116106e257829003601f168201915b5050505050815260200160058201805461071890611ef4565b80601f016020809104026020016040519081016040528092919081815260200182805461074490611ef4565b801561078f5780601f106107665761010080835404028352916020019161078f565b820191905f5260205f20905b81548152906001019060200180831161077257829003601f168201915b505050505081526020016006820180546107a890611ef4565b80601f01602080910402602001604051908101604052809291908181526020018280546107d490611ef4565b801561081f5780601f106107f65761010080835404028352916020019161081f565b820191905f5260205f20905b81548152906001019060200180831161080257829003601f168201915b5050509190925250505081526007919091015460209091015280515190915063ffffffff165f03610884576040517f0b948634000000000000000000000000000000000000000000000000000000008152600481018390526024015b60405180910390fd5b5f828152600160208190526040822080547fffffffffffffffffffffffffffffffffffffffffffffffffffffffff0000000016815590810182905560028101829055600381018290559081816108dd6004830182611bb5565b6108ea600583015f611bb5565b6108f7600683015f611bb5565b5050600782015f905550505f3482602001516109139190611f72565b82516040805180820182528381525f602082015290517fc7c7f5b300000000000000000000000000000000000000000000000000000000815292935073ffffffffffffffffffffffffffffffffffffffff7f0000000000000000000000000000000000000000000000000000000000000000169263c7c7f5b39285926109bd927f000000000000000000000000000000000000000000000000000000000000000090600401611f85565b60c06040518083038185885af11580156109d9573d5f803e3d5ffd5b50505050506040513d601f19601f820116820180604052508101906109fe9190612071565b505060405183907fd41d02272333251e6367f747c63d5cc227dcac6b0c799067569e80a30f9da369905f90a2505050565b5f610a3a8383611295565b90505b92915050565b5f80333014610a80576040517fa19dbf0000000000000000000000000000000000000000000000000000000000815233600482015260240161087b565b610a8a84846113a9565b90503415610a9e57610a9b84611460565b91505b9250929050565b600160208181525f928352604092839020835160e081018552815463ffffffff16815292810154918301919091526002810154928201929092526003820154606082015260048201805483916080840191610aff90611ef4565b80601f0160208091040260200160405190810160405280929190818152602001828054610b2b90611ef4565b8015610b765780601f10610b4d57610100808354040283529160200191610b76565b820191905f5260205f20905b815481529060010190602001808311610b5957829003601f168201915b50505050508152602001600582018054610b8f90611ef4565b80601f0160208091040260200160405190810160405280929190818152602001828054610bbb90611ef4565b8015610c065780601f10610bdd57610100808354040283529160200191610c06565b820191905f5260205f20905b815481529060010190602001808311610be957829003601f168201915b50505050508152602001600682018054610c1f90611ef4565b80601f0160208091040260200160405190810160405280929190818152602001828054610c4b90611ef4565b8015610c965780601f10610c6d57610100808354040283529160200191610c96565b820191905f5260205f20905b815481529060010190602001808311610c7957829003601f168201915b5050509190925250505060079091015482565b610cb161158e565b620249f05a1015610cfc575a6040517f23e228cb0000000000000000000000000000000000000000000000000000000081526004810191909152620249f0602482015260440161087b565b3373ffffffffffffffffffffffffffffffffffffffff7f00000000000000000000000000000000000000000000000000000000000000001614610d6b576040517f7eb966c800000000000000000000000000000000000000000000000000000000815260040160405180910390fd5b8673ffffffffffffffffffffffffffffffffffffffff167f000000000000000000000000000000000000000000000000000000000000000073ffffffffffffffffffffffffffffffffffffffff1614610e30576040517fc8b356c600000000000000000000000000000000000000000000000000000000815273ffffffffffffffffffffffffffffffffffffffff7f0000000000000000000000000000000000000000000000000000000000000000811660048301528816602482015260440161087b565b5f610e3b86866115d1565b90505f610e4887876115e9565b6040517ffdea04820000000000000000000000000000000000000000000000000000000081529091505f90309063fdea048290610e899085906004016120da565b6040805180830381865afa925050508015610edf575060408051601f3d9081017fffffffffffffffffffffffffffffffffffffffffffffffffffffffffffffffe0168201909252610edc918101906120ec565b60015b61105e57610f286040518060e001604052805f63ffffffff1681526020015f80191681526020015f81526020015f81526020016060815260200160608152602001606081525090565b610f328989611633565b63ffffffff168152610f448989611655565b60208281019190915260408083018690528051808201825283815234818401525f8d81526001808552908390208251805182547fffffffffffffffffffffffffffffffffffffffffffffffffffffffff000000001663ffffffff909116178255948501519181019190915591830151600283015560608301516003830155608083015190929082906004820190610fdb908261215a565b5060a08201516005820190610ff0908261215a565b5060c08201516006820190611005908261215a565b50505060208201518160070155905050897f387fc8f821460fa8221428c9f4dc1f6d5db4f6a0a01f33dbeaa8cebd95e5d1448260200151348660405161104d93929190612276565b60405180910390a25050505061117c565b813410156110a1576040517f7cb769dc0000000000000000000000000000000000000000000000000000000081523460048201526024810183905260440161087b565b6040517f84df0fa400000000000000000000000000000000000000000000000000000000815273ffffffffffffffffffffffffffffffffffffffff82166004820152602481018690529092505f9150819030906384df0fa4903490604401604080518083038185885af193505050508015611157575060408051601f3d9081017fffffffffffffffffffffffffffffffffffffffffffffffffffffffffffffffe016820190925261115491810190612294565b60015b61116557503490508361116b565b90925090505b611176838383611664565b50505050505b6111866001600655565b50505050505050565b6111ba60405180606001604052805f81526020015f81526020015f67ffffffffffffffff1681525090565b5f826111c75760046111ca565b60025b60408051606081018252825467ffffffffffffffff81168083526801000000000000000090910460070b602083015260019093015473ffffffffffffffffffffffffffffffffffffffff1691810182905292505f916112299190611295565b90506112368582846117ab565b95945050505050565b5f806040831461127e576040517f2b701db10000000000000000000000000000000000000000000000000000000081526004810184905260240161087b565b61128a838501856122b6565b909590945092505050565b6040805173ffffffffffffffffffffffffffffffffffffffff8416602082015267ffffffffffffffff8316818301528151808203830181526060918201928390525f92839291610801916112e991906122d9565b5f60405180830381855afa9150503d805f8114611321576040519150601f19603f3d011682016040523d82523d5f602084013e611326565b606091505b5090925090508161138b576040517f89f18a3200000000000000000000000000000000000000000000000000000000815273ffffffffffffffffffffffffffffffffffffffff8616600482015267ffffffffffffffff8516602482015260440161087b565b8080602001905181019061139f91906122f4565b5195945050505050565b5f806113b683600161118f565b805190915015611455576040805160608101825260025467ffffffffffffffff8116825268010000000000000000900460070b602082015260035473ffffffffffffffffffffffffffffffffffffffff90811692820183905283519192611441927f0000000000000000000000000000000000000000000000000000000000000000909216916118a5565b61145385825f01518460400151611932565b505b602001519392505050565b5f8061146c345f61118f565b805190915015611584576040805160608101825260045467ffffffffffffffff8116825268010000000000000000900460070b602082015260055473ffffffffffffffffffffffffffffffffffffffff168183018190528351925191925f926108fc919084818181858888f193505050503d805f8114611507576040519150601f19603f3d011682016040523d82523d5f602084013e61150c565b606091505b505090508061156f57604082810151845191517fa5b05eec00000000000000000000000000000000000000000000000000000000815273ffffffffffffffffffffffffffffffffffffffff9091166004820152602481019190915260440161087b565b61158185835f01518560400151611932565b50505b6020015192915050565b6002600654036115ca576040517f3ee5aeb500000000000000000000000000000000000000000000000000000000815260040160405180910390fd5b6002600655565b5f6115e0602c600c8486612346565b610a3a9161236d565b60606115f882604c8186612346565b8080601f0160208091040260200160405190810160405280939291908181526020018383808284375f92019190915250929695505050505050565b5f611642600c60088486612346565b61164b916123a9565b60e01c9392505050565b5f6115e0604c602c8486612346565b811561175f575f8373ffffffffffffffffffffffffffffffffffffffff16836108fc906040515f60405180830381858888f193505050503d805f81146116c5576040519150601f19603f3d011682016040523d82523d5f602084013e6116ca565b606091505b505090508061175d576040515f90329085908381818185875af1925050503d805f8114611712576040519150601f19603f3d011682016040523d82523d5f602084013e611717565b606091505b505090508061175b576040517fa5b05eec0000000000000000000000000000000000000000000000000000000081523260048201526024810185905260440161087b565b505b505b80156117a6576117a673ffffffffffffffffffffffffffffffffffffffff7f00000000000000000000000000000000000000000000000000000000000000001684836118a5565b505050565b6117d660405180606001604052805f81526020015f81526020015f67ffffffffffffffff1681525090565b5f80808067ffffffffffffffff87117fffffffffffffffffffffffffffffffffffffffffffffffff0000000000000001880102870390505f866020015160070b13156118375761182b88828860200151611a62565b91955093509150611879565b611871888288602001517fffffffffffffffffffffffffffffffffffffffffffffffffffffffffffffffff61186c91906123f1565b611ac7565b919550935091505b5060408051606081018252938452602084019290925267ffffffffffffffff1690820152949350505050565b6040805173ffffffffffffffffffffffffffffffffffffffff8416602482015260448082018490528251808303909101815260649091019091526020810180517bffffffffffffffffffffffffffffffffffffffffffffffffffffffff167fa9059cbb000000000000000000000000000000000000000000000000000000001790526117a6908490611b10565b6040805173ffffffffffffffffffffffffffffffffffffffff8516602082015267ffffffffffffffff84811682840152831660608083019190915282518083039091018152608082019092525f906119b0907f010000060000000000000000000000000000000000000000000000000000000090849060a001612417565b604080517fffffffffffffffffffffffffffffffffffffffffffffffffffffffffffffffe0818403018152908290527f17938e130000000000000000000000000000000000000000000000000000000082529150733333333333333333333333333333333333333333906317938e1390611a2e9084906004016120da565b5f604051808303815f87803b158015611a45575f80fd5b505af1158015611a57573d5f803e3d5ffd5b505050505050505050565b5f808080611a7185600a61257c565b90505f611a888267ffffffffffffffff8916612591565b9050611a9482896125d5565b9788900397818903828a110289039550858903019350818581611ab957611ab96125a8565b049250505093509350939050565b5f808080611ad685600a61257c565b90505f818767ffffffffffffffff1681611af257611af26125a8565b04808903908911028803989789900397918902965090945050505050565b5f8060205f8451602086015f885af180611b2f576040513d5f823e3d81fd5b50505f513d91508115611b46578060011415611b60565b73ffffffffffffffffffffffffffffffffffffffff84163b155b15611baf576040517f5274afe700000000000000000000000000000000000000000000000000000000815273ffffffffffffffffffffffffffffffffffffffff8516600482015260240161087b565b50505050565b508054611bc190611ef4565b5f825580601f10611bd0575050565b601f0160209004905f5260205f2090810190611bec9190611bef565b50565b5b80821115611c03575f8155600101611bf0565b5090565b5f60208284031215611c17575f80fd5b5035919050565b73ffffffffffffffffffffffffffffffffffffffff81168114611bec575f80fd5b67ffffffffffffffff81168114611bec575f80fd5b5f8060408385031215611c65575f80fd5b8235611c7081611c1e565b91506020830135611c8081611c3f565b809150509250929050565b5f8060408385031215611c9c575f80fd5b8235611ca781611c1e565b946020939093013593505050565b5f5b83811015611ccf578181015183820152602001611cb7565b50505f910152565b5f8151808452611cee816020860160208601611cb5565b601f017fffffffffffffffffffffffffffffffffffffffffffffffffffffffffffffffe0169290920160200192915050565b63ffffffff81511682526020810151602083015260408101516040830152606081015160608301525f608082015160e06080850152611d6260e0850182611cd7565b905060a083015184820360a0860152611d7b8282611cd7565b91505060c083015184820360c08601526112368282611cd7565b604081525f611da76040830185611d20565b90508260208301529392505050565b5f8083601f840112611dc6575f80fd5b50813567ffffffffffffffff811115611ddd575f80fd5b602083019150836020828501011115610a9e575f80fd5b5f805f805f805f60a0888a031215611e0a575f80fd5b8735611e1581611c1e565b965060208801359550604088013567ffffffffffffffff80821115611e38575f80fd5b611e448b838c01611db6565b909750955060608a01359150611e5982611c1e565b90935060808901359080821115611e6e575f80fd5b50611e7b8a828b01611db6565b989b979a50959850939692959293505050565b5f8060408385031215611e9f575f80fd5b8235915060208301358015158114611c80575f80fd5b5f8060208385031215611ec6575f80fd5b823567ffffffffffffffff811115611edc575f80fd5b611ee885828601611db6565b90969095509350505050565b600181811c90821680611f0857607f821691505b602082108103611f3f577f4e487b71000000000000000000000000000000000000000000000000000000005f52602260045260245ffd5b50919050565b7f4e487b71000000000000000000000000000000000000000000000000000000005f52601160045260245ffd5b80820180821115610a3d57610a3d611f45565b608081525f611f976080830186611d20565b9050835160208301526020840151604083015273ffffffffffffffffffffffffffffffffffffffff83166060830152949350505050565b7f4e487b71000000000000000000000000000000000000000000000000000000005f52604160045260245ffd5b6040516060810167ffffffffffffffff8111828210171561201e5761201e611fce565b60405290565b5f60408284031215612034575f80fd5b6040516040810181811067ffffffffffffffff8211171561205757612057611fce565b604052825181526020928301519281019290925250919050565b5f8082840360c0811215612083575f80fd5b6080811215612090575f80fd5b50612099611ffb565b8351815260208401516120ab81611c3f565b60208201526120bd8560408601612024565b604082015291506120d18460808501612024565b90509250929050565b602081525f610a3a6020830184611cd7565b5f80604083850312156120fd575f80fd5b825191506020830151611c8081611c1e565b601f8211156117a657805f5260205f20601f840160051c810160208510156121345750805b601f840160051c820191505b81811015612153575f8155600101612140565b5050505050565b815167ffffffffffffffff81111561217457612174611fce565b612188816121828454611ef4565b8461210f565b602080601f8311600181146121da575f84156121a45750858301515b7fffffffffffffffffffffffffffffffffffffffffffffffffffffffffffffffff600386901b1c1916600185901b17855561226e565b5f858152602081207fffffffffffffffffffffffffffffffffffffffffffffffffffffffffffffffe08616915b8281101561222657888601518255948401946001909101908401612207565b508582101561226257878501517fffffffffffffffffffffffffffffffffffffffffffffffffffffffffffffffff600388901b60f8161c191681555b505060018460011b0185555b505050505050565b838152826020820152606060408201525f6112366060830184611cd7565b5f80604083850312156122a5575f80fd5b505080516020909101519092909150565b5f80604083850312156122c7575f80fd5b823591506020830135611c8081611c1e565b5f82516122ea818460208701611cb5565b9190910192915050565b5f60608284031215612304575f80fd5b61230c611ffb565b825161231781611c3f565b8152602083015161232781611c3f565b6020820152604083015161233a81611c3f565b60408201529392505050565b5f8085851115612354575f80fd5b83861115612360575f80fd5b5050820193919092039150565b80356020831015610a3d577fffffffffffffffffffffffffffffffffffffffffffffffffffffffffffffffff602084900360031b1b1692915050565b7fffffffff0000000000000000000000000000000000000000000000000000000081358181169160048510156123e95780818660040360031b1b83161692505b505092915050565b5f8260070b8260070b028060070b915080821461241057612410611f45565b5092915050565b7fffffffff00000000000000000000000000000000000000000000000000000000831681525f8251612450816004850160208701611cb5565b919091016004019392505050565b600181815b808511156124b757817fffffffffffffffffffffffffffffffffffffffffffffffffffffffffffffffff0482111561249d5761249d611f45565b808516156124aa57918102915b93841c9390800290612463565b509250929050565b5f826124cd57506001610a3d565b816124d957505f610a3d565b81600181146124ef57600281146124f957612515565b6001915050610a3d565b60ff84111561250a5761250a611f45565b50506001821b610a3d565b5060208310610133831016604e8410600b8410161715612538575081810a610a3d565b612542838361245e565b807fffffffffffffffffffffffffffffffffffffffffffffffffffffffffffffffff0482111561257457612574611f45565b029392505050565b5f610a3a67ffffffffffffffff8416836124bf565b8082028115828204841417610a3d57610a3d611f45565b7f4e487b71000000000000000000000000000000000000000000000000000000005f52601260045260245ffd5b5f82612608577f4e487b71000000000000000000000000000000000000000000000000000000005f52601260045260245ffd5b50069056fea264697066735822122089ebc65af38406c65106594899aed997f4a76c5193747ccdb888442afbb71c1964736f6c63430008160033",
    "linkReferences": {}
  },
  "methodIdentifiers": {
    "CORE_WRITER_VERSION()": "22dbe29c",
    "ENDPOINT()": "6fad06f5",
    "MIN_GAS()": "20d2c951",
    "NATIVE_TRANSFER_GAS()": "104544dd",
    "OFT()": "1ed0993d",
    "REFUND_ADDRESS()": "f1ae0e9b",
    "SPOT_SEND_ACTION_ID()": "0d1995e0",
    "SPOT_SEND_HEADER()": "1f8164d9",
    "TOKEN()": "82bfefc8",
    "VALID_COMPOSE_MSG_LEN()": "cebb5120",
    "balanceOfHyperCore(address,uint64)": "81e8dcb4",
    "decode_message(bytes)": "fdea0482",
    "failedMessages(bytes32)": "a4e7f8bd",
    "handleCoreTransfers(address,uint256)": "84df0fa4",
    "hypeAsset()": "f6e6b240",
    "hypeIndexByChainId(uint256)": "4bd162df",
    "lzCompose(address,bytes32,bytes,address,bytes)": "d0a10260",
    "oftAsset()": "765008a1",
    "quoteHyperCoreAmount(uint256,bool)": "f9716faf",
    "refundToSrc(bytes32)": "19180904"
  },
  "id": 0
}