{
  "abi": [
    {
      "type": "constructor",
      "inputs": [
        {
          "name": "_endpoint",
          "type": "address",
          "internalType": "address"
        },
        {
          "name": "_oft",
          "type": "address",
          "internalType": "address"
        },
        {
          "name": "_coreIndexId",
          "type": "uint64",
          "internalType": "uint64"
        },
        {
          "name": "_assetDecimalDiff",
          "type": "int64",
          "internalType": "int64"
        }
      ],
      "stateMutability": "nonpayable"
    },
    {
      "type": "receive",
      "stateMutability": "payable"
    },
    {
      "type": "function",
      "name": "CORE_WRITER_VERSION",
      "inputs": [],
      "outputs": [
        {
          "name": "",
          "type": "bytes",
          "internalType": "bytes"
        }
      ],
      "stateMutability": "view"
    },
    {
      "type": "function",
      "name": "HLP_CORE_WRITER",
      "inputs": [],
      "outputs": [
        {
          "name": "",
          "type": "address",
          "internalType": "address"
        }
      ],
      "stateMutability": "view"
    },
    {
      "type": "function",
      "name": "HLP_PRECOMPILE_READ_SPOT_BALANCE",
      "inputs": [],
      "outputs": [
        {
          "name": "",
          "type": "address",
          "internalType": "address"
        }
      ],
      "stateMutability": "view"
    },
    {
      "type": "function",
      "name": "HYPE_CHAIN_ID_MAINNET",
      "inputs": [],
      "outputs": [
        {
          "name": "",
          "type": "uint256",
          "internalType": "uint256"
        }
      ],
      "stateMutability": "view"
    },
    {
      "type": "function",
      "name": "HYPE_CHAIN_ID_TESTNET",
      "inputs": [],
      "outputs": [
        {
          "name": "",
          "type": "uint256",
          "internalType": "uint256"
        }
      ],
      "stateMutability": "view"
    },
    {
      "type": "function",
      "name": "HYPE_INDEX_MAINNET",
      "inputs": [],
      "outputs": [
        {
          "name": "",
          "type": "uint64",
          "internalType": "uint64"
        }
      ],
      "stateMutability": "view"
    },
    {
      "type": "function",
      "name": "HYPE_INDEX_TESTNET",
      "inputs": [],
      "outputs": [
        {
          "name": "",
          "type": "uint64",
          "internalType": "uint64"
        }
      ],
      "stateMutability": "view"
    },
    {
      "type": "function",
      "name": "SPOT_SEND_ACTION_ID",
      "inputs": [],
      "outputs": [
        {
          "name": "",
          "type": "bytes",
          "internalType": "bytes"
        }
      ],
      "stateMutability": "view"
    },
    {
      "type": "function",
      "name": "SPOT_SEND_HEADER",
      "inputs": [],
      "outputs": [
        {
          "name": "",
          "type": "bytes",
          "internalType": "bytes"
        }
      ],
      "stateMutability": "view"
    },
    {
      "type": "function",
      "name": "balanceOfHyperCore",
      "inputs": [
        {
          "name": "_user",
          "type": "address",
          "internalType": "address"
        },
        {
          "name": "_tokenId",
          "type": "uint64",
          "internalType": "uint64"
        }
      ],
      "outputs": [
        {
          "name": "",
          "type": "uint64",
          "internalType": "uint64"
        }
      ],
      "stateMutability": "view"
    },
    {
      "type": "function",
      "name": "endpoint",
      "inputs": [],
      "outputs": [
        {
          "name": "",
          "type": "address",
          "internalType": "address"
        }
      ],
      "stateMutability": "view"
    },
    {
      "type": "function",
      "name": "fundAddressOnHyperCore",
      "inputs": [
        {
          "name": "_receiver",
          "type": "address",
          "internalType": "address"
        },
        {
          "name": "_amount",
          "type": "uint256",
          "internalType": "uint256"
        },
        {
          "name": "_executor",
          "type": "address",
          "internalType": "address"
        }
      ],
      "outputs": [],
      "stateMutability": "nonpayable"
    },
    {
      "type": "function",
      "name": "getErrorPayload",
      "inputs": [
        {
          "name": "_err",
          "type": "bytes",
          "internalType": "bytes"
        }
      ],
      "outputs": [
        {
          "name": "",
          "type": "bytes",
          "internalType": "bytes"
        }
      ],
      "stateMutability": "pure"
    },
    {
      "type": "function",
      "name": "getHypeAsset",
      "inputs": [],
      "outputs": [
        {
          "name": "",
          "type": "tuple",
          "internalType": "struct IHyperAsset",
          "components": [
            {
              "name": "assetBridgeAddress",
              "type": "address",
              "internalType": "address"
            },
            {
              "name": "coreIndexId",
              "type": "uint64",
              "internalType": "uint64"
            },
            {
              "name": "decimalDiff",
              "type": "int64",
              "internalType": "int64"
            }
          ]
        }
      ],
      "stateMutability": "view"
    },
    {
      "type": "function",
      "name": "getOFTAsset",
      "inputs": [],
      "outputs": [
        {
          "name": "",
          "type": "tuple",
          "internalType": "struct IHyperAsset",
          "components": [
            {
              "name": "assetBridgeAddress",
              "type": "address",
              "internalType": "address"
            },
            {
              "name": "coreIndexId",
              "type": "uint64",
              "internalType": "uint64"
            },
            {
              "name": "decimalDiff",
              "type": "int64",
              "internalType": "int64"
            }
          ]
        }
      ],
      "stateMutability": "view"
    },
    {
      "type": "function",
      "name": "hypeAsset",
      "inputs": [],
      "outputs": [
        {
          "name": "assetBridgeAddress",
          "type": "address",
          "internalType": "address"
        },
        {
          "name": "coreIndexId",
          "type": "uint64",
          "internalType": "uint64"
        },
        {
          "name": "decimalDiff",
          "type": "int64",
          "internalType": "int64"
        }
      ],
      "stateMutability": "view"
    },
    {
      "type": "function",
      "name": "hypeIndexByChainId",
      "inputs": [
        {
          "name": "",
          "type": "uint256",
          "internalType": "uint256"
        }
      ],
      "outputs": [
        {
          "name": "",
          "type": "uint64",
          "internalType": "uint64"
        }
      ],
      "stateMutability": "view"
    },
    {
      "type": "function",
      "name": "lzCompose",
      "inputs": [
        {
          "name": "_oft",
          "type": "address",
          "internalType": "address"
        },
        {
          "name": "",
          "type": "bytes32",
          "internalType": "bytes32"
        },
        {
          "name": "_message",
          "type": "bytes",
          "internalType": "bytes"
        },
        {
          "name": "_executor",
          "type": "address",
          "internalType": "address"
        },
        {
          "name": "",
          "type": "bytes",
          "internalType": "bytes"
        }
      ],
      "outputs": [],
      "stateMutability": "payable"
    },
    {
      "type": "function",
      "name": "oft",
      "inputs": [],
      "outputs": [
        {
          "name": "",
          "type": "address",
          "internalType": "contract IOFT"
        }
      ],
      "stateMutability": "view"
    },
    {
      "type": "function",
      "name": "oftAsset",
      "inputs": [],
      "outputs": [
        {
          "name": "assetBridgeAddress",
          "type": "address",
          "internalType": "address"
        },
        {
          "name": "coreIndexId",
          "type": "uint64",
          "internalType": "uint64"
        },
        {
          "name": "decimalDiff",
          "type": "int64",
          "internalType": "int64"
        }
      ],
      "stateMutability": "view"
    },
    {
      "type": "function",
      "name": "quoteHyperCoreAmount",
      "inputs": [
        {
          "name": "_amount",
          "type": "uint256",
          "internalType": "uint256"
        },
        {
          "name": "_isOFT",
          "type": "bool",
          "internalType": "bool"
        }
      ],
      "outputs": [
        {
          "name": "",
          "type": "tuple",
          "internalType": "struct IHyperAssetAmount",
          "components": [
            {
              "name": "evm",
              "type": "uint256",
              "internalType": "uint256"
            },
            {
              "name": "dust",
              "type": "uint256",
              "internalType": "uint256"
            },
            {
              "name": "core",
              "type": "uint64",
              "internalType": "uint64"
            }
          ]
        }
      ],
      "stateMutability": "view"
    },
    {
      "type": "function",
      "name": "refundERC20",
      "inputs": [
        {
          "name": "_refundAddress",
          "type": "address",
          "internalType": "address"
        },
        {
          "name": "_amount",
          "type": "uint256",
          "internalType": "uint256"
        }
      ],
      "outputs": [],
      "stateMutability": "nonpayable"
    },
    {
      "type": "function",
      "name": "refundNativeTokens",
      "inputs": [
        {
          "name": "_refundAddress",
          "type": "address",
          "internalType": "address"
        }
      ],
      "outputs": [],
      "stateMutability": "payable"
    },
    {
      "type": "function",
      "name": "sendAssetToHyperCore",
      "inputs": [
        {
          "name": "_receiver",
          "type": "address",
          "internalType": "address"
        },
        {
          "name": "_amountLD",
          "type": "uint256",
          "internalType": "uint256"
        }
      ],
      "outputs": [],
      "stateMutability": "nonpayable"
    },
    {
      "type": "function",
      "name": "token",
      "inputs": [],
      "outputs": [
        {
          "name": "",
          "type": "address",
          "internalType": "contract IERC20"
        }
      ],
      "stateMutability": "view"
    },
    {
      "type": "function",
      "name": "validate_addresses_or_refund",
      "inputs": [
        {
          "name": "_maybeReceiver",
          "type": "bytes",
          "internalType": "bytes"
        },
        {
          "name": "_senderBytes32",
          "type": "bytes32",
          "internalType": "bytes32"
        },
        {
          "name": "_amountLD",
          "type": "uint256",
          "internalType": "uint256"
        }
      ],
      "outputs": [
        {
          "name": "",
          "type": "address",
          "internalType": "address"
        }
      ],
      "stateMutability": "pure"
    },
    {
      "type": "function",
      "name": "validate_message",
      "inputs": [
        {
          "name": "_composeMessage",
          "type": "bytes",
          "internalType": "bytes"
        }
      ],
      "outputs": [
        {
          "name": "",
          "type": "uint256",
          "internalType": "uint256"
        },
        {
          "name": "",
          "type": "bytes32",
          "internalType": "bytes32"
        },
        {
          "name": "",
          "type": "bytes",
          "internalType": "bytes"
        }
      ],
      "stateMutability": "pure"
    },
    {
      "type": "event",
      "name": "ErrorERC20_Refund",
      "inputs": [
        {
          "name": "refundTo",
          "type": "address",
          "indexed": false,
          "internalType": "address"
        },
        {
          "name": "refundAmount",
          "type": "uint256",
          "indexed": false,
          "internalType": "uint256"
        }
      ],
      "anonymous": false
    },
    {
      "type": "event",
      "name": "ErrorHYPE_Refund",
      "inputs": [
        {
          "name": "refundTo",
          "type": "address",
          "indexed": false,
          "internalType": "address"
        },
        {
          "name": "refundAmount",
          "type": "uint256",
          "indexed": false,
          "internalType": "uint256"
        }
      ],
      "anonymous": false
    },
    {
      "type": "event",
      "name": "ErrorMessage",
      "inputs": [
        {
          "name": "reason",
          "type": "bytes",
          "indexed": false,
          "internalType": "bytes"
        }
      ],
      "anonymous": false
    },
    {
      "type": "event",
      "name": "ErrorSpot_FailedToSend",
      "inputs": [
        {
          "name": "to",
          "type": "address",
          "indexed": false,
          "internalType": "address"
        },
        {
          "name": "tokenId",
          "type": "uint64",
          "indexed": false,
          "internalType": "uint64"
        },
        {
          "name": "amount",
          "type": "uint256",
          "indexed": false,
          "internalType": "uint256"
        },
        {
          "name": "errorMessage",
          "type": "bytes",
          "indexed": false,
          "internalType": "bytes"
        }
      ],
      "anonymous": false
    },
    {
      "type": "event",
      "name": "ExcessHYPE_Refund",
      "inputs": [
        {
          "name": "refundTo",
          "type": "address",
          "indexed": false,
          "internalType": "address"
        },
        {
          "name": "refundAmount",
          "type": "uint256",
          "indexed": false,
          "internalType": "uint256"
        }
      ],
      "anonymous": false
    },
    {
      "type": "error",
      "name": "ErrorMsg",
      "inputs": [
        {
          "name": "errorMessage",
          "type": "bytes",
          "internalType": "bytes"
        }
      ]
    },
    {
      "type": "error",
      "name": "HyperLiquidComposerCore_SpotBalanceRead_Failed",
      "inputs": [
        {
          "name": "user",
          "type": "address",
          "internalType": "address"
        },
        {
          "name": "tokenId",
          "type": "uint64",
          "internalType": "uint64"
        }
      ]
    },
    {
      "type": "error",
      "name": "HyperLiquidComposer_FailedToRefund_HYPE",
      "inputs": [
        {
          "name": "to",
          "type": "address",
          "internalType": "address"
        },
        {
          "name": "amount",
          "type": "uint256",
          "internalType": "uint256"
        }
      ]
    },
    {
      "type": "error",
      "name": "HyperLiquidComposer_FailedToSend_HYPE",
      "inputs": [
        {
          "name": "amount",
          "type": "uint256",
          "internalType": "uint256"
        }
      ]
    },
    {
      "type": "error",
      "name": "HyperLiquidComposer_InvalidArgument_EndpointShouldNotBeZeroAddress",
      "inputs": [
        {
          "name": "receivedEndpointAddress",
          "type": "address",
          "internalType": "address"
        }
      ]
    },
    {
      "type": "error",
      "name": "HyperLiquidComposer_InvalidCall_NotComposer",
      "inputs": [
        {
          "name": "notComposerAddress",
          "type": "address",
          "internalType": "address"
        }
      ]
    },
    {
      "type": "error",
      "name": "HyperLiquidComposer_InvalidCall_NotEndpoint",
      "inputs": [
        {
          "name": "notEndpointAddress",
          "type": "address",
          "internalType": "address"
        },
        {
          "name": "expectedEndpointAddress",
          "type": "address",
          "internalType": "address"
        }
      ]
    },
    {
      "type": "error",
      "name": "HyperLiquidComposer_InvalidCall_NotOFT",
      "inputs": [
        {
          "name": "internalOFTAddress",
          "type": "address",
          "internalType": "address"
        },
        {
          "name": "receivedOFTAddress",
          "type": "address",
          "internalType": "address"
        }
      ]
    },
    {
      "type": "error",
      "name": "HyperLiquidComposer_InvalidComposeMessage",
      "inputs": [
        {
          "name": "errorMessage",
          "type": "bytes",
          "internalType": "bytes"
        }
      ]
    },
    {
      "type": "error",
      "name": "SafeERC20FailedOperation",
      "inputs": [
        {
          "name": "token",
          "type": "address",
          "internalType": "address"
        }
      ]
    }
  ],
  "bytecode": {
    "object": "0x60e060405234801562000010575f80fd5b50604051620030973803806200309783398101604081905262000033916200028a565b83836001600160a01b0382166200006c5760405163fb82c1f160e01b81526001600160a01b038316600482015260240160405180910390fd5b6001600160a01b03808316608052811660a081905260408051637e062a3560e11b8152905163fc0c546a916004808201926020929091908290030181865afa158015620000bb573d5f803e3d5ffd5b505050506040513d601f19601f82011682018060405250810190620000e19190620002f9565b6001600160a01b031660c05250505f60208190527f2802b8ca0a4d9948ac89ce9ba15f4015f0f68c52469c4df23bbaf374f1d4604080546001600160401b0319908116610451179091556103e79091527f332eac5de6beffe8ee7761a0342c75594c3acb5fdde0a2555227e56aa65d4141805490911660961790556040805160608101909152806200017c6001600160401b03851662000257565b6001600160a01b0390811682526001600160401b0394851660208084019190915260079490940b604092830152825160018054858701519284166001600160e01b031991821617600160a01b93891684021790915593830151600280546001600160401b031990811692891692909217905583516060810185527322222222222222222222222222222222222222228152465f90815280885285902054909716958701869052600a938701849052955160038054919093169416939093179390920292909217905560048054909216179055506200033c9050565b5f62000268826001609d1b6200031c565b92915050565b80516001600160a01b038116811462000285575f80fd5b919050565b5f805f80608085870312156200029e575f80fd5b620002a9856200026e565b9350620002b9602086016200026e565b60408601519093506001600160401b0381168114620002d6575f80fd5b8092505060608501518060070b8114620002ee575f80fd5b939692955090935050565b5f602082840312156200030a575f80fd5b62000315826200026e565b9392505050565b808201808211156200026857634e487b7160e01b5f52601160045260245ffd5b60805160a05160c051612cff620003985f395f8181610791015281816111780152818161135c015261186e01525f818161058401528181610b8e0152610c0501525f818161043201528181610aca0152610b420152612cff5ff3fe6080604052600436106101a7575f3560e01c80638483bc00116100e7578063d0a1026011610087578063ebaeefd611610062578063ebaeefd6146106be578063f6e6b240146106dd578063f9716faf14610735578063fc0c546a14610780575f80fd5b8063d0a102601461066d578063d9acf0ec14610680578063da001a291461069f575f80fd5b8063aae12e46116100c2578063aae12e46146105a6578063ba8726791461062f578063bc963bc714610644578063d00b1ad514610659575f80fd5b80638483bc00146105305780639180b744146105455780639b5215f614610573575f80fd5b80634bd162df116101525780635e280f111161012d5780635e280f1114610421578063765008a1146104545780637ecd9ac3146104ea57806381e8dcb414610511575f80fd5b80634bd162df1461037a5780635241b496146103c85780635b9a23731461040c575f80fd5b806320d9af9a1161018257806320d9af9a1461024157806322dbe29c146102645780632d0e315c146102ac575f80fd5b806303be2050146101b25780630d1995e0146101e75780631f8164d91461022d575f80fd5b366101ae57005b5f80fd5b3480156101bd575f80fd5b506101d16101cc3660046122f9565b6107b3565b6040516101de9190612385565b60405180910390f35b3480156101f2575f80fd5b506101d16040518060400160405280600381526020017d06000000000000000000000000000000000000000000000000000000000081525081565b348015610238575f80fd5b506101d16107c8565b34801561024c575f80fd5b506102566103e681565b6040519081526020016101de565b34801561026f575f80fd5b506101d16040518060400160405280600181526020017f010000000000000000000000000000000000000000000000000000000000000081525081565b3480156102b7575f80fd5b50610335604080516060810182525f8082526020820181905291810191909152506040805160608101825260015473ffffffffffffffffffffffffffffffffffffffff8116825274010000000000000000000000000000000000000000900467ffffffffffffffff16602082015260025460070b9181019190915290565b60408051825173ffffffffffffffffffffffffffffffffffffffff16815260208084015167ffffffffffffffff16908201529181015160070b908201526060016101de565b348015610385575f80fd5b506103af610394366004612397565b5f6020819052908152604090205467ffffffffffffffff1681565b60405167ffffffffffffffff90911681526020016101de565b3480156103d3575f80fd5b506103e76103e236600461245c565b61084c565b60405173ffffffffffffffffffffffffffffffffffffffff90911681526020016101de565b348015610417575f80fd5b506102566103e781565b34801561042c575f80fd5b506103e77f000000000000000000000000000000000000000000000000000000000000000081565b34801561045f575f80fd5b506001546002546104ac9173ffffffffffffffffffffffffffffffffffffffff8116917401000000000000000000000000000000000000000090910467ffffffffffffffff169060070b83565b6040805173ffffffffffffffffffffffffffffffffffffffff909416845267ffffffffffffffff909216602084015260070b908201526060016101de565b3480156104f5575f80fd5b506103e773333333333333333333333333333333333333333381565b34801561051c575f80fd5b506103af61052b36600461251e565b610968565b61054361053e366004612555565b610973565b005b348015610550575f80fd5b5061056461055f3660046122f9565b610a90565b6040516101de93929190612577565b34801561057e575f80fd5b506103e77f000000000000000000000000000000000000000000000000000000000000000081565b3480156105b1575f80fd5b50610335604080516060810182525f8082526020820181905291810191909152506040805160608101825260035473ffffffffffffffffffffffffffffffffffffffff8116825274010000000000000000000000000000000000000000900467ffffffffffffffff16602082015260045460070b9181019190915290565b34801561063a575f80fd5b506103e761080181565b34801561064f575f80fd5b506103af61045181565b348015610664575f80fd5b506103af609681565b61054361067b366004612595565b610ac8565b34801561068b575f80fd5b5061054361069a36600461262f565b611142565b3480156106aa575f80fd5b506105436106b9366004612659565b611389565b3480156106c9575f80fd5b506105436106d836600461262f565b6117f0565b3480156106e8575f80fd5b506003546004546104ac9173ffffffffffffffffffffffffffffffffffffffff8116917401000000000000000000000000000000000000000090910467ffffffffffffffff169060070b83565b348015610740575f80fd5b5061075461074f366004612698565b611895565b6040805182518152602080840151908201529181015167ffffffffffffffff16908201526060016101de565b34801561078b575f80fd5b506103e77f000000000000000000000000000000000000000000000000000000000000000081565b60606107bf83836119cb565b90505b92915050565b604080518082018252600181527f010000000000000000000000000000000000000000000000000000000000000060208083019190915282518084018452600381527d06000000000000000000000000000000000000000000000000000000000081830152925161083a9391016126bf565b60405160208183030381529060405281565b5f8061085784611a15565b90505f61086386611a40565b905073ffffffffffffffffffffffffffffffffffffffff811661095f5785516040515f917f09b3473100000000000000000000000000000000000000000000000000000000916108b7918a916024016126ed565b60408051601f198184030181529190526020810180517bffffffffffffffffffffffffffffffffffffffffffffffffffffffff167fffffffff00000000000000000000000000000000000000000000000000000000909316929092179091529050610923818487611aa3565b6040517f4f9520330000000000000000000000000000000000000000000000000000000081526004016109569190612385565b60405180910390fd5b95945050505050565b5f6107bf8383611afe565b3330146109ae576040517f5950c85e000000000000000000000000000000000000000000000000000000008152336004820152602401610956565b5f341180156109d2575073ffffffffffffffffffffffffffffffffffffffff811615155b15610a8d575f8173ffffffffffffffffffffffffffffffffffffffff16346040515f6040518083038185875af1925050503d805f8114610a2d576040519150601f19603f3d011682016040523d82523d5f602084013e610a32565b606091505b5050905080610a8b576040517fc8ee485e00000000000000000000000000000000000000000000000000000000815273ffffffffffffffffffffffffffffffffffffffff83166004820152346024820152604401610956565b505b50565b5f8060605f610a9f8686611c12565b90505f610aac8787611c2a565b90505f610ab98888611c39565b92989197509195509350505050565b7f000000000000000000000000000000000000000000000000000000000000000073ffffffffffffffffffffffffffffffffffffffff163314610b75576040517fefa9309d00000000000000000000000000000000000000000000000000000000815273ffffffffffffffffffffffffffffffffffffffff7f0000000000000000000000000000000000000000000000000000000000000000166004820152336024820152604401610956565b8673ffffffffffffffffffffffffffffffffffffffff167f000000000000000000000000000000000000000000000000000000000000000073ffffffffffffffffffffffffffffffffffffffff1614610c3a576040517f86fee0c000000000000000000000000000000000000000000000000000000000815273ffffffffffffffffffffffffffffffffffffffff7f00000000000000000000000000000000000000000000000000000000000000008116600483015288166024820152604401610956565b5f805f60603073ffffffffffffffffffffffffffffffffffffffff16639180b7448a8a6040518363ffffffff1660e01b8152600401610c7a92919061270e565b5f60405180830381865afa925050508015610cb657506040513d5f823e601f3d908101601f19168201604052610cb3919081019061277e565b60015b610d1c573d808015610ce3576040519150601f19603f3d011682016040523d82523d5f602084013e610ce8565b606091505b50806040517ed4895a0000000000000000000000000000000000000000000000000000000081526004016109569190612385565b919450925090506040517f5241b4960000000000000000000000000000000000000000000000000000000081523090635241b49690610d63908490869088906004016127ca565b602060405180830381865afa925050508015610d9c575060408051601f3d908101601f19168201909252610d99918101906127ee565b60015b610e1e573d808015610dc9576040519150601f19603f3d011682016040523d82523d5f602084013e610dce565b606091505b505f610dda828a611c48565b90507f612baef0082f9abcf6dc7b491d75346418381b75756830d7029939026d1b46b981604051610e0b9190612385565b60405180910390a1505050505050611139565b93503415610fa0576040517fda001a2900000000000000000000000000000000000000000000000000000000815273ffffffffffffffffffffffffffffffffffffffff808616600483015234602483015288166044820152309063da001a29906064015f604051808303815f87803b158015610e98575f80fd5b505af1925050508015610ea9575060015b610fa0573d808015610ed6576040519150601f19603f3d011682016040523d82523d5f602084013e610edb565b606091505b506040517f8483bc0000000000000000000000000000000000000000000000000000000000815273ffffffffffffffffffffffffffffffffffffffff861660048201523090638483bc009034906024015f604051808303818588803b158015610f42575f80fd5b505af1158015610f54573d5f803e3d5ffd5b50505050505f610f64828a611c48565b90507f612baef0082f9abcf6dc7b491d75346418381b75756830d7029939026d1b46b981604051610f959190612385565b60405180910390a150505b6040517fd9acf0ec00000000000000000000000000000000000000000000000000000000815273ffffffffffffffffffffffffffffffffffffffff8516600482015260248101849052309063d9acf0ec906044015f604051808303815f87803b15801561100b575f80fd5b505af192505050801561101c575060015b611134573d808015611049576040519150601f19603f3d011682016040523d82523d5f602084013e61104e565b606091505b506040517febaeefd600000000000000000000000000000000000000000000000000000000815273ffffffffffffffffffffffffffffffffffffffff8616600482015260248101859052309063ebaeefd6906044015f604051808303815f87803b1580156110ba575f80fd5b505af11580156110cc573d5f803e3d5ffd5b50506001546040517f775ce5b47736b2186798494ee89239e4c0341b516c05bf613205d83ffbfffdc6935061112a9250889174010000000000000000000000000000000000000000900467ffffffffffffffff169088908690612809565b60405180910390a1505b505050505b50505050505050565b5f61114e826001611895565b8051909150156113325760015481516111a29173ffffffffffffffffffffffffffffffffffffffff7f0000000000000000000000000000000000000000000000000000000000000000811692911690611fae565b600154604082810151815173ffffffffffffffffffffffffffffffffffffffff871660208201527401000000000000000000000000000000000000000090930467ffffffffffffffff908116928401929092521660608201525f9060800160408051601f198184030181528282018252600183527f010000000000000000000000000000000000000000000000000000000000000060208481019190915282518084018452600381527d0600000000000000000000000000000000000000000000000000000000008183015292519194505f936112839390929091016126bf565b60408051601f19818403018152908290526112a29184906020016126bf565b60408051601f19818403018152908290527f17938e130000000000000000000000000000000000000000000000000000000082529150733333333333333333333333333333333333333333906317938e1390611302908490600401612385565b5f604051808303815f87803b158015611319575f80fd5b505af115801561132b573d5f803e3d5ffd5b5050505050505b6020810151156113845760208101516113849073ffffffffffffffffffffffffffffffffffffffff7f000000000000000000000000000000000000000000000000000000000000000016908590611fae565b505050565b5f611394835f611895565b60035481516040519293505f9273ffffffffffffffffffffffffffffffffffffffff909216918381818185875af1925050503d805f81146113f0576040519150601f19603f3d011682016040523d82523d5f602084013e6113f5565b606091505b5050905080611433576040517fb7e54a0700000000000000000000000000000000000000000000000000000000815260048101859052602401610956565b600354604083810151815173ffffffffffffffffffffffffffffffffffffffff891660208201527401000000000000000000000000000000000000000090930467ffffffffffffffff908116928401929092521660608201525f9060800160408051601f198184030181528282018252600183527f010000000000000000000000000000000000000000000000000000000000000060208481019190915282518084018452600381527d0600000000000000000000000000000000000000000000000000000000008183015292519194505f936115149390929091016126bf565b60408051601f19818403018152908290526115339184906020016126bf565b60408051601f19818403018152908290527f17938e130000000000000000000000000000000000000000000000000000000082529150733333333333333333333333333333333333333333906317938e1390611593908490600401612385565b5f604051808303815f87803b1580156115aa575f80fd5b505af11580156115bc573d5f803e3d5ffd5b505050506020840151156111395760208401516040517f8483bc0000000000000000000000000000000000000000000000000000000000815273ffffffffffffffffffffffffffffffffffffffff891660048201523091638483bc00916024015f604051808303818588803b158015611633575f80fd5b505af193505050508015611645575060015b61179257602084015160405173ffffffffffffffffffffffffffffffffffffffff871691905f81818185875af1925050503d805f81146116a0576040519150601f19603f3d011682016040523d82523d5f602084013e6116a5565b606091505b5090935050821561170b576020808501516040805173ffffffffffffffffffffffffffffffffffffffff89168152928301919091527fbb643711c959f203f346d453edf6f91a40b637a95c46c992089c63726b8eaa1791015b60405180910390a1611139565b60208401516040513291905f81818185875af1925050503d805f811461174c576040519150601f19603f3d011682016040523d82523d5f602084013e611751565b606091505b505060208581015160408051328152928301919091529194507fbb643711c959f203f346d453edf6f91a40b637a95c46c992089c63726b8eaa1791016116fe565b6020808501516040805173ffffffffffffffffffffffffffffffffffffffff8b168152928301919091527fbb643711c959f203f346d453edf6f91a40b637a95c46c992089c63726b8eaa17910160405180910390a150505050505050565b33301461182b576040517f5950c85e000000000000000000000000000000000000000000000000000000008152336004820152602401610956565b5f8111801561184f575073ffffffffffffffffffffffffffffffffffffffff821615155b15610a8b57610a8b73ffffffffffffffffffffffffffffffffffffffff7f0000000000000000000000000000000000000000000000000000000000000000168383611fae565b6118c060405180606001604052805f81526020015f81526020015f67ffffffffffffffff1681525090565b604080516060810182525f80825260208201819052918101829052908315611953576040805160608101825260015473ffffffffffffffffffffffffffffffffffffffff81168083527401000000000000000000000000000000000000000090910467ffffffffffffffff166020830181905260025460070b9383019390935290935061194c91611afe565b90506119c0565b6040805160608101825260035473ffffffffffffffffffffffffffffffffffffffff81168083527401000000000000000000000000000000000000000090910467ffffffffffffffff166020830181905260045460070b938301939093529093506119bd91611afe565b90505b61095f85828461203b565b60606119da8260448186612857565b8080601f0160208091040260200160405190810160405280939291908181526020018383808284375f92019190915250929695505050505050565b5f8173ffffffffffffffffffffffffffffffffffffffff8111611a385792915050565b505f92915050565b80515f907fffffffffffffffffffffffffffffffffffffffffffffffffffffffffffffffec8101611a7e57611a748361287e565b60601c9392505050565b60208103611a38575f611a90846128cd565b9050611a9b81611a15565b949350505050565b606060405180606001604052808473ffffffffffffffffffffffffffffffffffffffff16815260200183815260200185815250604051602001611ae6919061290f565b60405160208183030381529060405290509392505050565b6040805173ffffffffffffffffffffffffffffffffffffffff8416602082015267ffffffffffffffff8316818301528151808203830181526060918201928390525f9283929161080191611b529190612953565b5f60405180830381855afa9150503d805f8114611b8a576040519150601f19603f3d011682016040523d82523d5f602084013e611b8f565b606091505b50909250905081611bf4576040517fa91ed72100000000000000000000000000000000000000000000000000000000815273ffffffffffffffffffffffffffffffffffffffff8616600482015267ffffffffffffffff85166024820152604401610956565b80806020019051810190611c08919061296e565b5195945050505050565b5f611c21602c600c8486612857565b6107bf916129c0565b5f611c21604c602c8486612857565b60606119da82604c8186612857565b6040517f03be20500000000000000000000000000000000000000000000000000000000081526060905f9030906303be205090611c89908790600401612385565b5f60405180830381865afa158015611ca3573d5f803e3d5ffd5b505050506040513d5f823e601f3d908101601f19168201604052611cca91908101906129fc565b90505f81806020019051810190611ce19190612a2e565b805160208201516040517febaeefd600000000000000000000000000000000000000000000000000000000815273ffffffffffffffffffffffffffffffffffffffff90921660048301526024820152909150309063ebaeefd6906044015f604051808303815f87803b158015611d55575f80fd5b505af1925050508015611d66575060015b611dc05780516020808301516040805173ffffffffffffffffffffffffffffffffffffffff9094168452918301527feb907f6e0de6862ca2ced78e890a55c5e8352dc4051697356bc835abf7cedcac910160405180910390a15b80515f9073ffffffffffffffffffffffffffffffffffffffff1615611de6578151611de8565b845b6040517f8483bc0000000000000000000000000000000000000000000000000000000000815273ffffffffffffffffffffffffffffffffffffffff821660048201529091503090638483bc009034906024015f604051808303818588803b158015611e51575f80fd5b505af193505050508015611e63575060015b611fa1575f8573ffffffffffffffffffffffffffffffffffffffff16346040515f6040518083038185875af1925050503d805f8114611ebd576040519150601f19603f3d011682016040523d82523d5f602084013e611ec2565b606091505b505090508015611f1f576040805173ffffffffffffffffffffffffffffffffffffffff881681523460208201527fbb643711c959f203f346d453edf6f91a40b637a95c46c992089c63726b8eaa17910160405180910390a1611f9f565b604051329034905f81818185875af1925050503d805f8114611f5c576040519150601f19603f3d011682016040523d82523d5f602084013e611f61565b606091505b5050604080513281523460208201529192507fbb643711c959f203f346d453edf6f91a40b637a95c46c992089c63726b8eaa17910160405180910390a15b505b5060400151949350505050565b6040805173ffffffffffffffffffffffffffffffffffffffff8416602482015260448082018490528251808303909101815260649091019091526020810180517bffffffffffffffffffffffffffffffffffffffffffffffffffffffff167fa9059cbb00000000000000000000000000000000000000000000000000000000179052611384908490612116565b61206660405180606001604052805f81526020015f81526020015f67ffffffffffffffff1681525090565b5f805f8061207c8767ffffffffffffffff6121bb565b90505f866040015160070b13156120a85761209c888288604001516121e3565b919550935091506120ea565b6120e2888288604001517fffffffffffffffffffffffffffffffffffffffffffffffffffffffffffffffff6120dd9190612ae0565b61225c565b919550935091505b5060408051606081018252938452602084019290925267ffffffffffffffff1690820152949350505050565b5f8060205f8451602086015f885af180612135576040513d5f823e3d81fd5b50505f513d9150811561214c578060011415612166565b73ffffffffffffffffffffffffffffffffffffffff84163b155b156121b5576040517f5274afe700000000000000000000000000000000000000000000000000000000815273ffffffffffffffffffffffffffffffffffffffff85166004820152602401610956565b50505050565b5f8167ffffffffffffffff168367ffffffffffffffff16116121dd57826107bf565b50919050565b5f8080806121f285600a612c24565b90505f6122098267ffffffffffffffff8916612c39565b90506122158289612c7d565b93506122218489612c90565b975061222d88826122a6565b94506122398589612c90565b6122439085612ca3565b935061224f8286612cb6565b9250505093509350939050565b5f80808061226b85600a612c24565b90505f6122828267ffffffffffffffff8916612cb6565b905061228e88826122a6565b945061229a8589612c90565b935061224f8286612c39565b5f8183116121dd57826107bf565b5f8083601f8401126122c4575f80fd5b50813567ffffffffffffffff8111156122db575f80fd5b6020830191508360208285010111156122f2575f80fd5b9250929050565b5f806020838503121561230a575f80fd5b823567ffffffffffffffff811115612320575f80fd5b61232c858286016122b4565b90969095509350505050565b5f5b8381101561235257818101518382015260200161233a565b50505f910152565b5f8151808452612371816020860160208601612338565b601f01601f19169290920160200192915050565b602081525f6107bf602083018461235a565b5f602082840312156123a7575f80fd5b5035919050565b7f4e487b71000000000000000000000000000000000000000000000000000000005f52604160045260245ffd5b6040516060810167ffffffffffffffff811182821017156123fe576123fe6123ae565b60405290565b604051601f8201601f1916810167ffffffffffffffff8111828210171561242d5761242d6123ae565b604052919050565b5f67ffffffffffffffff82111561244e5761244e6123ae565b50601f01601f191660200190565b5f805f6060848603121561246e575f80fd5b833567ffffffffffffffff811115612484575f80fd5b8401601f81018613612494575f80fd5b80356124a76124a282612435565b612404565b8181528760208385010111156124bb575f80fd5b816020840160208301375f6020838301015280955050505060208401359150604084013590509250925092565b73ffffffffffffffffffffffffffffffffffffffff81168114610a8d575f80fd5b67ffffffffffffffff81168114610a8d575f80fd5b5f806040838503121561252f575f80fd5b823561253a816124e8565b9150602083013561254a81612509565b809150509250929050565b5f60208284031215612565575f80fd5b8135612570816124e8565b9392505050565b838152826020820152606060408201525f61095f606083018461235a565b5f805f805f805f60a0888a0312156125ab575f80fd5b87356125b6816124e8565b965060208801359550604088013567ffffffffffffffff808211156125d9575f80fd5b6125e58b838c016122b4565b909750955060608a013591506125fa826124e8565b9093506080890135908082111561260f575f80fd5b5061261c8a828b016122b4565b989b979a50959850939692959293505050565b5f8060408385031215612640575f80fd5b823561264b816124e8565b946020939093013593505050565b5f805f6060848603121561266b575f80fd5b8335612676816124e8565b925060208401359150604084013561268d816124e8565b809150509250925092565b5f80604083850312156126a9575f80fd5b823591506020830135801515811461254a575f80fd5b5f83516126d0818460208801612338565b8351908301906126e4818360208801612338565b01949350505050565b604081525f6126ff604083018561235a565b90508260208301529392505050565b60208152816020820152818360408301375f818301604090810191909152601f909201601f19160101919050565b5f82601f83011261274b575f80fd5b81516127596124a282612435565b81815284602083860101111561276d575f80fd5b611a9b826020830160208701612338565b5f805f60608486031215612790575f80fd5b8351925060208401519150604084015167ffffffffffffffff8111156127b4575f80fd5b6127c08682870161273c565b9150509250925092565b606081525f6127dc606083018661235a565b60208301949094525060400152919050565b5f602082840312156127fe575f80fd5b8151612570816124e8565b73ffffffffffffffffffffffffffffffffffffffff8516815267ffffffffffffffff84166020820152826040820152608060608201525f61284d608083018461235a565b9695505050505050565b5f8085851115612865575f80fd5b83861115612871575f80fd5b5050820193919092039150565b5f815160208301517fffffffffffffffffffffffffffffffffffffffff000000000000000000000000808216935060148310156128c55780818460140360031b1b83161693505b505050919050565b805160208083015191908110156121dd577fffffffffffffffffffffffffffffffffffffffffffffffffffffffffffffffff60209190910360031b1b16919050565b6020815273ffffffffffffffffffffffffffffffffffffffff8251166020820152602082015160408201525f6040830151606080840152611a9b608084018261235a565b5f8251612964818460208701612338565b9190910192915050565b5f6060828403121561297e575f80fd5b6129866123db565b825161299181612509565b815260208301516129a181612509565b602082015260408301516129b481612509565b60408201529392505050565b803560208310156107c2577fffffffffffffffffffffffffffffffffffffffffffffffffffffffffffffffff602084900360031b1b1692915050565b5f60208284031215612a0c575f80fd5b815167ffffffffffffffff811115612a22575f80fd5b611a9b8482850161273c565b5f60208284031215612a3e575f80fd5b815167ffffffffffffffff80821115612a55575f80fd5b9083019060608286031215612a68575f80fd5b612a706123db565b8251612a7b816124e8565b815260208381015190820152604083015182811115612a98575f80fd5b612aa48782860161273c565b60408301525095945050505050565b7f4e487b71000000000000000000000000000000000000000000000000000000005f52601160045260245ffd5b5f8260070b8260070b028060070b9150808214612aff57612aff612ab3565b5092915050565b600181815b80851115612b5f57817fffffffffffffffffffffffffffffffffffffffffffffffffffffffffffffffff04821115612b4557612b45612ab3565b80851615612b5257918102915b93841c9390800290612b0b565b509250929050565b5f82612b75575060016107c2565b81612b8157505f6107c2565b8160018114612b975760028114612ba157612bbd565b60019150506107c2565b60ff841115612bb257612bb2612ab3565b50506001821b6107c2565b5060208310610133831016604e8410600b8410161715612be0575081810a6107c2565b612bea8383612b06565b807fffffffffffffffffffffffffffffffffffffffffffffffffffffffffffffffff04821115612c1c57612c1c612ab3565b029392505050565b5f6107bf67ffffffffffffffff841683612b67565b80820281158282048414176107c2576107c2612ab3565b7f4e487b71000000000000000000000000000000000000000000000000000000005f52601260045260245ffd5b5f82612c8b57612c8b612c50565b500690565b818103818111156107c2576107c2612ab3565b808201808211156107c2576107c2612ab3565b5f82612cc457612cc4612c50565b50049056fea2646970667358221220fbc0a62995652ccf72aa356ef0e848a19309a08994b4a35c5fa84fc8fc86075064736f6c63430008160033",
    "linkReferences": {}
  },
  "methodIdentifiers": {
    "CORE_WRITER_VERSION()": "22dbe29c",
    "HLP_CORE_WRITER()": "7ecd9ac3",
    "HLP_PRECOMPILE_READ_SPOT_BALANCE()": "ba872679",
    "HYPE_CHAIN_ID_MAINNET()": "5b9a2373",
    "HYPE_CHAIN_ID_TESTNET()": "20d9af9a",
    "HYPE_INDEX_MAINNET()": "d00b1ad5",
    "HYPE_INDEX_TESTNET()": "bc963bc7",
    "SPOT_SEND_ACTION_ID()": "0d1995e0",
    "SPOT_SEND_HEADER()": "1f8164d9",
    "balanceOfHyperCore(address,uint64)": "81e8dcb4",
    "endpoint()": "5e280f11",
    "fundAddressOnHyperCore(address,uint256,address)": "da001a29",
    "getErrorPayload(bytes)": "03be2050",
    "getHypeAsset()": "aae12e46",
    "getOFTAsset()": "2d0e315c",
    "hypeAsset()": "f6e6b240",
    "hypeIndexByChainId(uint256)": "4bd162df",
    "lzCompose(address,bytes32,bytes,address,bytes)": "d0a10260",
    "oft()": "9b5215f6",
    "oftAsset()": "765008a1",
    "quoteHyperCoreAmount(uint256,bool)": "f9716faf",
    "refundERC20(address,uint256)": "ebaeefd6",
    "refundNativeTokens(address)": "8483bc00",
    "sendAssetToHyperCore(address,uint256)": "d9acf0ec",
    "token()": "fc0c546a",
    "validate_addresses_or_refund(bytes,bytes32,uint256)": "5241b496",
    "validate_message(bytes)": "9180b744"
  },
  "id": 0
}