{
  "abi": [
    {
      "type": "constructor",
      "inputs": [
        {
          "name": "_endpoint",
          "type": "address",
          "internalType": "address"
        },
        {
          "name": "_oft",
          "type": "address",
          "internalType": "address"
        },
        {
          "name": "_coreIndexId",
          "type": "uint64",
          "internalType": "uint64"
        },
        {
          "name": "_assetDecimalDiff",
          "type": "int64",
          "internalType": "int64"
        }
      ],
      "stateMutability": "nonpayable"
    },
    {
      "type": "receive",
      "stateMutability": "payable"
    },
    {
      "type": "function",
      "name": "HLP_PRECOMPILE_READ_SPOT_BALANCE",
      "inputs": [],
      "outputs": [
        {
          "name": "",
          "type": "address",
          "internalType": "address"
        }
      ],
      "stateMutability": "view"
    },
    {
      "type": "function",
      "name": "HLP_PRECOMPILE_WRITE",
      "inputs": [],
      "outputs": [
        {
          "name": "",
          "type": "address",
          "internalType": "address"
        }
      ],
      "stateMutability": "view"
    },
    {
      "type": "function",
      "name": "HYPE_CHAIN_ID_MAINNET",
      "inputs": [],
      "outputs": [
        {
          "name": "",
          "type": "uint256",
          "internalType": "uint256"
        }
      ],
      "stateMutability": "view"
    },
    {
      "type": "function",
      "name": "HYPE_CHAIN_ID_TESTNET",
      "inputs": [],
      "outputs": [
        {
          "name": "",
          "type": "uint256",
          "internalType": "uint256"
        }
      ],
      "stateMutability": "view"
    },
    {
      "type": "function",
      "name": "HYPE_INDEX_MAINNET",
      "inputs": [],
      "outputs": [
        {
          "name": "",
          "type": "uint64",
          "internalType": "uint64"
        }
      ],
      "stateMutability": "view"
    },
    {
      "type": "function",
      "name": "HYPE_INDEX_TESTNET",
      "inputs": [],
      "outputs": [
        {
          "name": "",
          "type": "uint64",
          "internalType": "uint64"
        }
      ],
      "stateMutability": "view"
    },
    {
      "type": "function",
      "name": "balanceOfHyperCore",
      "inputs": [
        {
          "name": "_user",
          "type": "address",
          "internalType": "address"
        },
        {
          "name": "_tokenId",
          "type": "uint64",
          "internalType": "uint64"
        }
      ],
      "outputs": [
        {
          "name": "",
          "type": "uint64",
          "internalType": "uint64"
        }
      ],
      "stateMutability": "view"
    },
    {
      "type": "function",
      "name": "endpoint",
      "inputs": [],
      "outputs": [
        {
          "name": "",
          "type": "address",
          "internalType": "address"
        }
      ],
      "stateMutability": "view"
    },
    {
      "type": "function",
      "name": "getErrorPayload",
      "inputs": [
        {
          "name": "_err",
          "type": "bytes",
          "internalType": "bytes"
        }
      ],
      "outputs": [
        {
          "name": "",
          "type": "bytes",
          "internalType": "bytes"
        }
      ],
      "stateMutability": "pure"
    },
    {
      "type": "function",
      "name": "getHypeAsset",
      "inputs": [],
      "outputs": [
        {
          "name": "",
          "type": "tuple",
          "internalType": "struct IHyperAsset",
          "components": [
            {
              "name": "assetBridgeAddress",
              "type": "address",
              "internalType": "address"
            },
            {
              "name": "coreIndexId",
              "type": "uint64",
              "internalType": "uint64"
            },
            {
              "name": "decimalDiff",
              "type": "int64",
              "internalType": "int64"
            }
          ]
        }
      ],
      "stateMutability": "view"
    },
    {
      "type": "function",
      "name": "getOFTAsset",
      "inputs": [],
      "outputs": [
        {
          "name": "",
          "type": "tuple",
          "internalType": "struct IHyperAsset",
          "components": [
            {
              "name": "assetBridgeAddress",
              "type": "address",
              "internalType": "address"
            },
            {
              "name": "coreIndexId",
              "type": "uint64",
              "internalType": "uint64"
            },
            {
              "name": "decimalDiff",
              "type": "int64",
              "internalType": "int64"
            }
          ]
        }
      ],
      "stateMutability": "view"
    },
    {
      "type": "function",
      "name": "hypeAsset",
      "inputs": [],
      "outputs": [
        {
          "name": "assetBridgeAddress",
          "type": "address",
          "internalType": "address"
        },
        {
          "name": "coreIndexId",
          "type": "uint64",
          "internalType": "uint64"
        },
        {
          "name": "decimalDiff",
          "type": "int64",
          "internalType": "int64"
        }
      ],
      "stateMutability": "view"
    },
    {
      "type": "function",
      "name": "hypeIndexByChainId",
      "inputs": [
        {
          "name": "",
          "type": "uint256",
          "internalType": "uint256"
        }
      ],
      "outputs": [
        {
          "name": "",
          "type": "uint64",
          "internalType": "uint64"
        }
      ],
      "stateMutability": "view"
    },
    {
      "type": "function",
      "name": "lzCompose",
      "inputs": [
        {
          "name": "_oft",
          "type": "address",
          "internalType": "address"
        },
        {
          "name": "",
          "type": "bytes32",
          "internalType": "bytes32"
        },
        {
          "name": "_message",
          "type": "bytes",
          "internalType": "bytes"
        },
        {
          "name": "_executor",
          "type": "address",
          "internalType": "address"
        },
        {
          "name": "",
          "type": "bytes",
          "internalType": "bytes"
        }
      ],
      "outputs": [],
      "stateMutability": "payable"
    },
    {
      "type": "function",
      "name": "oft",
      "inputs": [],
      "outputs": [
        {
          "name": "",
          "type": "address",
          "internalType": "contract IOFT"
        }
      ],
      "stateMutability": "view"
    },
    {
      "type": "function",
      "name": "oftAsset",
      "inputs": [],
      "outputs": [
        {
          "name": "assetBridgeAddress",
          "type": "address",
          "internalType": "address"
        },
        {
          "name": "coreIndexId",
          "type": "uint64",
          "internalType": "uint64"
        },
        {
          "name": "decimalDiff",
          "type": "int64",
          "internalType": "int64"
        }
      ],
      "stateMutability": "view"
    },
    {
      "type": "function",
      "name": "quoteHyperCoreAmount",
      "inputs": [
        {
          "name": "_amount",
          "type": "uint256",
          "internalType": "uint256"
        },
        {
          "name": "_isOFT",
          "type": "bool",
          "internalType": "bool"
        }
      ],
      "outputs": [
        {
          "name": "",
          "type": "tuple",
          "internalType": "struct IHyperAssetAmount",
          "components": [
            {
              "name": "evm",
              "type": "uint256",
              "internalType": "uint256"
            },
            {
              "name": "dust",
              "type": "uint256",
              "internalType": "uint256"
            },
            {
              "name": "core",
              "type": "uint64",
              "internalType": "uint64"
            }
          ]
        }
      ],
      "stateMutability": "view"
    },
    {
      "type": "function",
      "name": "refundERC20",
      "inputs": [
        {
          "name": "_refundAddress",
          "type": "address",
          "internalType": "address"
        },
        {
          "name": "_amount",
          "type": "uint256",
          "internalType": "uint256"
        }
      ],
      "outputs": [],
      "stateMutability": "nonpayable"
    },
    {
      "type": "function",
      "name": "refundNativeTokens",
      "inputs": [
        {
          "name": "_refundAddress",
          "type": "address",
          "internalType": "address"
        }
      ],
      "outputs": [],
      "stateMutability": "payable"
    },
    {
      "type": "function",
      "name": "token",
      "inputs": [],
      "outputs": [
        {
          "name": "",
          "type": "address",
          "internalType": "contract IERC20"
        }
      ],
      "stateMutability": "view"
    },
    {
      "type": "function",
      "name": "validate_addresses_or_refund",
      "inputs": [
        {
          "name": "_maybeReceiver",
          "type": "bytes",
          "internalType": "bytes"
        },
        {
          "name": "_senderBytes32",
          "type": "bytes32",
          "internalType": "bytes32"
        },
        {
          "name": "_amountLD",
          "type": "uint256",
          "internalType": "uint256"
        }
      ],
      "outputs": [
        {
          "name": "",
          "type": "address",
          "internalType": "address"
        }
      ],
      "stateMutability": "pure"
    },
    {
      "type": "function",
      "name": "validate_message",
      "inputs": [
        {
          "name": "_composeMessage",
          "type": "bytes",
          "internalType": "bytes"
        }
      ],
      "outputs": [
        {
          "name": "",
          "type": "uint256",
          "internalType": "uint256"
        },
        {
          "name": "",
          "type": "bytes32",
          "internalType": "bytes32"
        },
        {
          "name": "",
          "type": "bytes",
          "internalType": "bytes"
        }
      ],
      "stateMutability": "pure"
    },
    {
      "type": "event",
      "name": "ErrorERC20_Refund",
      "inputs": [
        {
          "name": "refundTo",
          "type": "address",
          "indexed": false,
          "internalType": "address"
        },
        {
          "name": "refundAmount",
          "type": "uint256",
          "indexed": false,
          "internalType": "uint256"
        }
      ],
      "anonymous": false
    },
    {
      "type": "event",
      "name": "ErrorHYPE_Refund",
      "inputs": [
        {
          "name": "refundTo",
          "type": "address",
          "indexed": false,
          "internalType": "address"
        },
        {
          "name": "refundAmount",
          "type": "uint256",
          "indexed": false,
          "internalType": "uint256"
        }
      ],
      "anonymous": false
    },
    {
      "type": "event",
      "name": "ErrorMessage",
      "inputs": [
        {
          "name": "reason",
          "type": "bytes",
          "indexed": false,
          "internalType": "bytes"
        }
      ],
      "anonymous": false
    },
    {
      "type": "event",
      "name": "ExcessHYPE_Refund",
      "inputs": [
        {
          "name": "refundTo",
          "type": "address",
          "indexed": false,
          "internalType": "address"
        },
        {
          "name": "refundAmount",
          "type": "uint256",
          "indexed": false,
          "internalType": "uint256"
        }
      ],
      "anonymous": false
    },
    {
      "type": "error",
      "name": "ErrorMsg",
      "inputs": [
        {
          "name": "errorMessage",
          "type": "bytes",
          "internalType": "bytes"
        }
      ]
    },
    {
      "type": "error",
      "name": "HyperLiquidComposerCore_SpotBalanceRead_Failed",
      "inputs": [
        {
          "name": "user",
          "type": "address",
          "internalType": "address"
        },
        {
          "name": "tokenId",
          "type": "uint64",
          "internalType": "uint64"
        }
      ]
    },
    {
      "type": "error",
      "name": "HyperLiquidComposer_FailedToRefund_HYPE",
      "inputs": [
        {
          "name": "to",
          "type": "address",
          "internalType": "address"
        },
        {
          "name": "amount",
          "type": "uint256",
          "internalType": "uint256"
        }
      ]
    },
    {
      "type": "error",
      "name": "HyperLiquidComposer_FailedToSend_HYPE",
      "inputs": [
        {
          "name": "amount",
          "type": "uint256",
          "internalType": "uint256"
        }
      ]
    },
    {
      "type": "error",
      "name": "HyperLiquidComposer_InvalidArgument_EndpointShouldNotBeZeroAddress",
      "inputs": [
        {
          "name": "receivedEndpointAddress",
          "type": "address",
          "internalType": "address"
        }
      ]
    },
    {
      "type": "error",
      "name": "HyperLiquidComposer_InvalidCall_NotComposer",
      "inputs": [
        {
          "name": "notComposerAddress",
          "type": "address",
          "internalType": "address"
        }
      ]
    },
    {
      "type": "error",
      "name": "HyperLiquidComposer_InvalidCall_NotEndpoint",
      "inputs": [
        {
          "name": "notEndpointAddress",
          "type": "address",
          "internalType": "address"
        },
        {
          "name": "expectedEndpointAddress",
          "type": "address",
          "internalType": "address"
        }
      ]
    },
    {
      "type": "error",
      "name": "HyperLiquidComposer_InvalidCall_NotOFT",
      "inputs": [
        {
          "name": "internalOFTAddress",
          "type": "address",
          "internalType": "address"
        },
        {
          "name": "receivedOFTAddress",
          "type": "address",
          "internalType": "address"
        }
      ]
    },
    {
      "type": "error",
      "name": "HyperLiquidComposer_InvalidComposeMessage",
      "inputs": [
        {
          "name": "errorMessage",
          "type": "bytes",
          "internalType": "bytes"
        }
      ]
    },
    {
      "type": "error",
      "name": "SafeERC20FailedOperation",
      "inputs": [
        {
          "name": "token",
          "type": "address",
          "internalType": "address"
        }
      ]
    }
  ],
  "bytecode": {
    "object": "0x60e060405234801562000010575f80fd5b5060405162002aa738038062002aa783398101604081905262000033916200028a565b83836001600160a01b0382166200006c5760405163fb82c1f160e01b81526001600160a01b038316600482015260240160405180910390fd5b6001600160a01b03808316608052811660a081905260408051637e062a3560e11b8152905163fc0c546a916004808201926020929091908290030181865afa158015620000bb573d5f803e3d5ffd5b505050506040513d601f19601f82011682018060405250810190620000e19190620002f9565b6001600160a01b031660c05250505f60208190527f2802b8ca0a4d9948ac89ce9ba15f4015f0f68c52469c4df23bbaf374f1d4604080546001600160401b0319908116610451179091556103e79091527f332eac5de6beffe8ee7761a0342c75594c3acb5fdde0a2555227e56aa65d4141805490911660961790556040805160608101909152806200017c6001600160401b03851662000257565b6001600160a01b0390811682526001600160401b0394851660208084019190915260079490940b604092830152825160018054858701519284166001600160e01b031991821617600160a01b93891684021790915593830151600280546001600160401b031990811692891692909217905583516060810185527322222222222222222222222222222222222222228152465f90815280885285902054909716958701869052600a938701849052955160038054919093169416939093179390920292909217905560048054909216179055506200033c9050565b5f62000268826001609d1b6200031c565b92915050565b80516001600160a01b038116811462000285575f80fd5b919050565b5f805f80608085870312156200029e575f80fd5b620002a9856200026e565b9350620002b9602086016200026e565b60408601519093506001600160401b0381168114620002d6575f80fd5b8092505060608501518060070b8114620002ee575f80fd5b939692955090935050565b5f602082840312156200030a575f80fd5b62000315826200026e565b9392505050565b808201808211156200026857634e487b7160e01b5f52601160045260245ffd5b60805160a05160c05161270f620003985f395f818161067a01528181610d86015281816118b901526119d401525f818161048401528181610a110152610a8801525f81816103590152818161094d01526109c5015261270f5ff3fe608060405260043610610170575f3560e01c80639b5215f6116100c6578063d0a102601161007c578063f6e6b24011610057578063f6e6b240146105c6578063f9716faf1461061e578063fc0c546a14610669575f80fd5b8063d0a102601461056d578063dd85007514610580578063ebaeefd6146105a7575f80fd5b8063ba872679116100ac578063ba8726791461052f578063bc963bc714610544578063d00b1ad514610559575f80fd5b80639b5215f614610473578063aae12e46146104a6575f80fd5b80635b9a23731161012657806381e8dcb41161010157806381e8dcb4146104115780638483bc00146104305780639180b74414610445575f80fd5b80635b9a2373146103335780635e280f1114610348578063765008a11461037b575f80fd5b80632d0e315c116101565780632d0e315c146101d35780634bd162df146102a15780635241b496146102ef575f80fd5b806303be20501461017b57806320d9af9a146101b0575f80fd5b3661017757005b5f80fd5b348015610186575f80fd5b5061019a610195366004611d4c565b61069c565b6040516101a79190611df6565b60405180910390f35b3480156101bb575f80fd5b506101c56103e681565b6040519081526020016101a7565b3480156101de575f80fd5b5061025c604080516060810182525f8082526020820181905291810191909152506040805160608101825260015473ffffffffffffffffffffffffffffffffffffffff8116825274010000000000000000000000000000000000000000900467ffffffffffffffff16602082015260025460070b9181019190915290565b60408051825173ffffffffffffffffffffffffffffffffffffffff16815260208084015167ffffffffffffffff16908201529181015160070b908201526060016101a7565b3480156102ac575f80fd5b506102d66102bb366004611e08565b5f6020819052908152604090205467ffffffffffffffff1681565b60405167ffffffffffffffff90911681526020016101a7565b3480156102fa575f80fd5b5061030e610309366004611f09565b6106b1565b60405173ffffffffffffffffffffffffffffffffffffffff90911681526020016101a7565b34801561033e575f80fd5b506101c56103e781565b348015610353575f80fd5b5061030e7f000000000000000000000000000000000000000000000000000000000000000081565b348015610386575f80fd5b506001546002546103d39173ffffffffffffffffffffffffffffffffffffffff8116917401000000000000000000000000000000000000000090910467ffffffffffffffff169060070b83565b6040805173ffffffffffffffffffffffffffffffffffffffff909416845267ffffffffffffffff909216602084015260070b908201526060016101a7565b34801561041c575f80fd5b506102d661042b366004611fcb565b6107eb565b61044361043e366004612002565b6107f6565b005b348015610450575f80fd5b5061046461045f366004611d4c565b610913565b6040516101a793929190612024565b34801561047e575f80fd5b5061030e7f000000000000000000000000000000000000000000000000000000000000000081565b3480156104b1575f80fd5b5061025c604080516060810182525f8082526020820181905291810191909152506040805160608101825260035473ffffffffffffffffffffffffffffffffffffffff8116825274010000000000000000000000000000000000000000900467ffffffffffffffff16602082015260045460070b9181019190915290565b34801561053a575f80fd5b5061030e61080181565b34801561054f575f80fd5b506102d661045181565b348015610564575f80fd5b506102d6609681565b61044361057b366004612042565b61094b565b34801561058b575f80fd5b5061030e73333333333333333333333333333333333333333381565b3480156105b2575f80fd5b506104436105c13660046120dc565b610d08565b3480156105d1575f80fd5b506003546004546103d39173ffffffffffffffffffffffffffffffffffffffff8116917401000000000000000000000000000000000000000090910467ffffffffffffffff169060070b83565b348015610629575f80fd5b5061063d610638366004612106565b610dad565b6040805182518152602080840151908201529181015167ffffffffffffffff16908201526060016101a7565b348015610674575f80fd5b5061030e7f000000000000000000000000000000000000000000000000000000000000000081565b60606106a88383610ee3565b90505b92915050565b5f806106bc84610f2d565b90505f6106c886610f58565b905073ffffffffffffffffffffffffffffffffffffffff81166107e25785516040515f917f09b34731000000000000000000000000000000000000000000000000000000009161071c918a9160240161212d565b604080517fffffffffffffffffffffffffffffffffffffffffffffffffffffffffffffffe08184030181529190526020810180517bffffffffffffffffffffffffffffffffffffffffffffffffffffffff167fffffffff000000000000000000000000000000000000000000000000000000009093169290921790915290506107a6818487610fbb565b6040517f4f9520330000000000000000000000000000000000000000000000000000000081526004016107d99190611df6565b60405180910390fd5b95945050505050565b5f6106a88383611016565b333014610831576040517f5950c85e0000000000000000000000000000000000000000000000000000000081523360048201526024016107d9565b5f34118015610855575073ffffffffffffffffffffffffffffffffffffffff811615155b15610910575f8173ffffffffffffffffffffffffffffffffffffffff16346040515f6040518083038185875af1925050503d805f81146108b0576040519150601f19603f3d011682016040523d82523d5f602084013e6108b5565b606091505b505090508061090e576040517fc8ee485e00000000000000000000000000000000000000000000000000000000815273ffffffffffffffffffffffffffffffffffffffff831660048201523460248201526044016107d9565b505b50565b5f8060605f610922868661112a565b90505f61092f8787611142565b90505f61093c8888611151565b92989197509195509350505050565b7f000000000000000000000000000000000000000000000000000000000000000073ffffffffffffffffffffffffffffffffffffffff1633146109f8576040517fefa9309d00000000000000000000000000000000000000000000000000000000815273ffffffffffffffffffffffffffffffffffffffff7f00000000000000000000000000000000000000000000000000000000000000001660048201523360248201526044016107d9565b8673ffffffffffffffffffffffffffffffffffffffff167f000000000000000000000000000000000000000000000000000000000000000073ffffffffffffffffffffffffffffffffffffffff1614610abd576040517f86fee0c000000000000000000000000000000000000000000000000000000000815273ffffffffffffffffffffffffffffffffffffffff7f000000000000000000000000000000000000000000000000000000000000000081166004830152881660248201526044016107d9565b5f805f60603073ffffffffffffffffffffffffffffffffffffffff16639180b7448a8a6040518363ffffffff1660e01b8152600401610afd92919061214e565b5f60405180830381865afa925050508015610b5757506040513d5f823e601f3d9081017fffffffffffffffffffffffffffffffffffffffffffffffffffffffffffffffe0168201604052610b5491908101906121dc565b60015b610bbd573d808015610b84576040519150601f19603f3d011682016040523d82523d5f602084013e610b89565b606091505b50806040517ed4895a0000000000000000000000000000000000000000000000000000000081526004016107d99190611df6565b919450925090506040517f5241b4960000000000000000000000000000000000000000000000000000000081523090635241b49690610c0490849086908890600401612228565b602060405180830381865afa925050508015610c5b575060408051601f3d9081017fffffffffffffffffffffffffffffffffffffffffffffffffffffffffffffffe0168201909252610c589181019061224c565b60015b610cdd573d808015610c88576040519150601f19603f3d011682016040523d82523d5f602084013e610c8d565b606091505b505f610c99828a611160565b90507f612baef0082f9abcf6dc7b491d75346418381b75756830d7029939026d1b46b981604051610cca9190611df6565b60405180910390a1505050505050610cff565b93503415610cf057610cf08434896114e4565b610cfa8484611883565b505050505b50505050505050565b333014610d43576040517f5950c85e0000000000000000000000000000000000000000000000000000000081523360048201526024016107d9565b5f81118015610d67575073ffffffffffffffffffffffffffffffffffffffff821615155b1561090e5761090e73ffffffffffffffffffffffffffffffffffffffff7f0000000000000000000000000000000000000000000000000000000000000000168383611a01565b610dd860405180606001604052805f81526020015f81526020015f67ffffffffffffffff1681525090565b604080516060810182525f80825260208201819052918101829052908315610e6b576040805160608101825260015473ffffffffffffffffffffffffffffffffffffffff81168083527401000000000000000000000000000000000000000090910467ffffffffffffffff166020830181905260025460070b93830193909352909350610e6491611016565b9050610ed8565b6040805160608101825260035473ffffffffffffffffffffffffffffffffffffffff81168083527401000000000000000000000000000000000000000090910467ffffffffffffffff166020830181905260045460070b93830193909352909350610ed591611016565b90505b6107e2858284611a8e565b6060610ef28260448186612267565b8080601f0160208091040260200160405190810160405280939291908181526020018383808284375f92019190915250929695505050505050565b5f8173ffffffffffffffffffffffffffffffffffffffff8111610f505792915050565b505f92915050565b80515f907fffffffffffffffffffffffffffffffffffffffffffffffffffffffffffffffec8101610f9657610f8c8361228e565b60601c9392505050565b60208103610f50575f610fa8846122dd565b9050610fb381610f2d565b949350505050565b606060405180606001604052808473ffffffffffffffffffffffffffffffffffffffff16815260200183815260200185815250604051602001610ffe919061231f565b60405160208183030381529060405290509392505050565b6040805173ffffffffffffffffffffffffffffffffffffffff8416602082015267ffffffffffffffff8316818301528151808203830181526060918201928390525f928392916108019161106a9190612363565b5f60405180830381855afa9150503d805f81146110a2576040519150601f19603f3d011682016040523d82523d5f602084013e6110a7565b606091505b5090925090508161110c576040517fa91ed72100000000000000000000000000000000000000000000000000000000815273ffffffffffffffffffffffffffffffffffffffff8616600482015267ffffffffffffffff851660248201526044016107d9565b80806020019051810190611120919061237e565b5195945050505050565b5f611139602c600c8486612267565b6106a8916123d0565b5f611139604c602c8486612267565b6060610ef282604c8186612267565b6040517f03be20500000000000000000000000000000000000000000000000000000000081526060905f9030906303be2050906111a1908790600401611df6565b5f60405180830381865afa1580156111bb573d5f803e3d5ffd5b505050506040513d5f823e601f3d9081017fffffffffffffffffffffffffffffffffffffffffffffffffffffffffffffffe0168201604052611200919081019061240c565b90505f81806020019051810190611217919061243e565b805160208201516040517febaeefd600000000000000000000000000000000000000000000000000000000815273ffffffffffffffffffffffffffffffffffffffff90921660048301526024820152909150309063ebaeefd6906044015f604051808303815f87803b15801561128b575f80fd5b505af192505050801561129c575060015b6112f65780516020808301516040805173ffffffffffffffffffffffffffffffffffffffff9094168452918301527feb907f6e0de6862ca2ced78e890a55c5e8352dc4051697356bc835abf7cedcac910160405180910390a15b80515f9073ffffffffffffffffffffffffffffffffffffffff161561131c57815161131e565b845b6040517f8483bc0000000000000000000000000000000000000000000000000000000000815273ffffffffffffffffffffffffffffffffffffffff821660048201529091503090638483bc009034906024015f604051808303818588803b158015611387575f80fd5b505af193505050508015611399575060015b6114d7575f8573ffffffffffffffffffffffffffffffffffffffff16346040515f6040518083038185875af1925050503d805f81146113f3576040519150601f19603f3d011682016040523d82523d5f602084013e6113f8565b606091505b505090508015611455576040805173ffffffffffffffffffffffffffffffffffffffff881681523460208201527fbb643711c959f203f346d453edf6f91a40b637a95c46c992089c63726b8eaa17910160405180910390a16114d5565b604051329034905f81818185875af1925050503d805f8114611492576040519150601f19603f3d011682016040523d82523d5f602084013e611497565b606091505b5050604080513281523460208201529192507fbb643711c959f203f346d453edf6f91a40b637a95c46c992089c63726b8eaa17910160405180910390a15b505b5060400151949350505050565b5f6114ef835f610dad565b60035481516040519293505f9273ffffffffffffffffffffffffffffffffffffffff909216918381818185875af1925050503d805f811461154b576040519150601f19603f3d011682016040523d82523d5f602084013e611550565b606091505b505090508061158e576040517fb7e54a07000000000000000000000000000000000000000000000000000000008152600481018590526024016107d9565b60035460408381015190517f0b0ac0ab00000000000000000000000000000000000000000000000000000000815273ffffffffffffffffffffffffffffffffffffffff881660048201527401000000000000000000000000000000000000000090920467ffffffffffffffff908116602484015216604482015273333333333333333333333333333333333333333390630b0ac0ab906064015f604051808303815f87803b15801561163e575f80fd5b505af1158015611650573d5f803e3d5ffd5b5050505060208201511561187c5760208201516040517f8483bc0000000000000000000000000000000000000000000000000000000000815273ffffffffffffffffffffffffffffffffffffffff871660048201523091638483bc00916024015f604051808303818588803b1580156116c7575f80fd5b505af1935050505080156116d9575060015b61182657602082015160405173ffffffffffffffffffffffffffffffffffffffff851691905f81818185875af1925050503d805f8114611734576040519150601f19603f3d011682016040523d82523d5f602084013e611739565b606091505b5090915050801561179f576020808301516040805173ffffffffffffffffffffffffffffffffffffffff87168152928301919091527fbb643711c959f203f346d453edf6f91a40b637a95c46c992089c63726b8eaa1791015b60405180910390a161187c565b60208201516040513291905f81818185875af1925050503d805f81146117e0576040519150601f19603f3d011682016040523d82523d5f602084013e6117e5565b606091505b505060208381015160408051328152928301919091529192507fbb643711c959f203f346d453edf6f91a40b637a95c46c992089c63726b8eaa179101611792565b6020808301516040805173ffffffffffffffffffffffffffffffffffffffff89168152928301919091527fbb643711c959f203f346d453edf6f91a40b637a95c46c992089c63726b8eaa17910160405180910390a15b5050505050565b5f61188f826001610dad565b8051909150156119aa5760015481516118e39173ffffffffffffffffffffffffffffffffffffffff7f0000000000000000000000000000000000000000000000000000000000000000811692911690611a01565b60015460408281015190517f0b0ac0ab00000000000000000000000000000000000000000000000000000000815273ffffffffffffffffffffffffffffffffffffffff861660048201527401000000000000000000000000000000000000000090920467ffffffffffffffff908116602484015216604482015273333333333333333333333333333333333333333390630b0ac0ab906064015f604051808303815f87803b158015611993575f80fd5b505af11580156119a5573d5f803e3d5ffd5b505050505b6020810151156119fc5760208101516119fc9073ffffffffffffffffffffffffffffffffffffffff7f000000000000000000000000000000000000000000000000000000000000000016908590611a01565b505050565b6040805173ffffffffffffffffffffffffffffffffffffffff8416602482015260448082018490528251808303909101815260649091019091526020810180517bffffffffffffffffffffffffffffffffffffffffffffffffffffffff167fa9059cbb000000000000000000000000000000000000000000000000000000001790526119fc908490611b69565b611ab960405180606001604052805f81526020015f81526020015f67ffffffffffffffff1681525090565b5f805f80611acf8767ffffffffffffffff611c0e565b90505f866040015160070b1315611afb57611aef88828860400151611c36565b91955093509150611b3d565b611b35888288604001517fffffffffffffffffffffffffffffffffffffffffffffffffffffffffffffffff611b3091906124f0565b611caf565b919550935091505b5060408051606081018252938452602084019290925267ffffffffffffffff1690820152949350505050565b5f8060205f8451602086015f885af180611b88576040513d5f823e3d81fd5b50505f513d91508115611b9f578060011415611bb9565b73ffffffffffffffffffffffffffffffffffffffff84163b155b15611c08576040517f5274afe700000000000000000000000000000000000000000000000000000000815273ffffffffffffffffffffffffffffffffffffffff851660048201526024016107d9565b50505050565b5f8167ffffffffffffffff168367ffffffffffffffff1611611c3057826106a8565b50919050565b5f808080611c4585600a612634565b90505f611c5c8267ffffffffffffffff8916612649565b9050611c68828961268d565b9350611c7484896126a0565b9750611c808882611cf9565b9450611c8c85896126a0565b611c9690856126b3565b9350611ca282866126c6565b9250505093509350939050565b5f808080611cbe85600a612634565b90505f611cd58267ffffffffffffffff89166126c6565b9050611ce18882611cf9565b9450611ced85896126a0565b9350611ca28286612649565b5f818311611c3057826106a8565b5f8083601f840112611d17575f80fd5b50813567ffffffffffffffff811115611d2e575f80fd5b602083019150836020828501011115611d45575f80fd5b9250929050565b5f8060208385031215611d5d575f80fd5b823567ffffffffffffffff811115611d73575f80fd5b611d7f85828601611d07565b90969095509350505050565b5f5b83811015611da5578181015183820152602001611d8d565b50505f910152565b5f8151808452611dc4816020860160208601611d8b565b601f017fffffffffffffffffffffffffffffffffffffffffffffffffffffffffffffffe0169290920160200192915050565b602081525f6106a86020830184611dad565b5f60208284031215611e18575f80fd5b5035919050565b7f4e487b71000000000000000000000000000000000000000000000000000000005f52604160045260245ffd5b6040516060810167ffffffffffffffff81118282101715611e6f57611e6f611e1f565b60405290565b604051601f82017fffffffffffffffffffffffffffffffffffffffffffffffffffffffffffffffe016810167ffffffffffffffff81118282101715611ebc57611ebc611e1f565b604052919050565b5f67ffffffffffffffff821115611edd57611edd611e1f565b50601f017fffffffffffffffffffffffffffffffffffffffffffffffffffffffffffffffe01660200190565b5f805f60608486031215611f1b575f80fd5b833567ffffffffffffffff811115611f31575f80fd5b8401601f81018613611f41575f80fd5b8035611f54611f4f82611ec4565b611e75565b818152876020838501011115611f68575f80fd5b816020840160208301375f6020838301015280955050505060208401359150604084013590509250925092565b73ffffffffffffffffffffffffffffffffffffffff81168114610910575f80fd5b67ffffffffffffffff81168114610910575f80fd5b5f8060408385031215611fdc575f80fd5b8235611fe781611f95565b91506020830135611ff781611fb6565b809150509250929050565b5f60208284031215612012575f80fd5b813561201d81611f95565b9392505050565b838152826020820152606060408201525f6107e26060830184611dad565b5f805f805f805f60a0888a031215612058575f80fd5b873561206381611f95565b965060208801359550604088013567ffffffffffffffff80821115612086575f80fd5b6120928b838c01611d07565b909750955060608a013591506120a782611f95565b909350608089013590808211156120bc575f80fd5b506120c98a828b01611d07565b989b979a50959850939692959293505050565b5f80604083850312156120ed575f80fd5b82356120f881611f95565b946020939093013593505050565b5f8060408385031215612117575f80fd5b8235915060208301358015158114611ff7575f80fd5b604081525f61213f6040830185611dad565b90508260208301529392505050565b60208152816020820152818360408301375f818301604090810191909152601f9092017fffffffffffffffffffffffffffffffffffffffffffffffffffffffffffffffe0160101919050565b5f82601f8301126121a9575f80fd5b81516121b7611f4f82611ec4565b8181528460208386010111156121cb575f80fd5b610fb3826020830160208701611d8b565b5f805f606084860312156121ee575f80fd5b8351925060208401519150604084015167ffffffffffffffff811115612212575f80fd5b61221e8682870161219a565b9150509250925092565b606081525f61223a6060830186611dad565b60208301949094525060400152919050565b5f6020828403121561225c575f80fd5b815161201d81611f95565b5f8085851115612275575f80fd5b83861115612281575f80fd5b5050820193919092039150565b5f815160208301517fffffffffffffffffffffffffffffffffffffffff000000000000000000000000808216935060148310156122d55780818460140360031b1b83161693505b505050919050565b80516020808301519190811015611c30577fffffffffffffffffffffffffffffffffffffffffffffffffffffffffffffffff60209190910360031b1b16919050565b6020815273ffffffffffffffffffffffffffffffffffffffff8251166020820152602082015160408201525f6040830151606080840152610fb36080840182611dad565b5f8251612374818460208701611d8b565b9190910192915050565b5f6060828403121561238e575f80fd5b612396611e4c565b82516123a181611fb6565b815260208301516123b181611fb6565b602082015260408301516123c481611fb6565b60408201529392505050565b803560208310156106ab577fffffffffffffffffffffffffffffffffffffffffffffffffffffffffffffffff602084900360031b1b1692915050565b5f6020828403121561241c575f80fd5b815167ffffffffffffffff811115612432575f80fd5b610fb38482850161219a565b5f6020828403121561244e575f80fd5b815167ffffffffffffffff80821115612465575f80fd5b9083019060608286031215612478575f80fd5b612480611e4c565b825161248b81611f95565b8152602083810151908201526040830151828111156124a8575f80fd5b6124b48782860161219a565b60408301525095945050505050565b7f4e487b71000000000000000000000000000000000000000000000000000000005f52601160045260245ffd5b5f8260070b8260070b028060070b915080821461250f5761250f6124c3565b5092915050565b600181815b8085111561256f57817fffffffffffffffffffffffffffffffffffffffffffffffffffffffffffffffff04821115612555576125556124c3565b8085161561256257918102915b93841c939080029061251b565b509250929050565b5f82612585575060016106ab565b8161259157505f6106ab565b81600181146125a757600281146125b1576125cd565b60019150506106ab565b60ff8411156125c2576125c26124c3565b50506001821b6106ab565b5060208310610133831016604e8410600b84101617156125f0575081810a6106ab565b6125fa8383612516565b807fffffffffffffffffffffffffffffffffffffffffffffffffffffffffffffffff0482111561262c5761262c6124c3565b029392505050565b5f6106a867ffffffffffffffff841683612577565b80820281158282048414176106ab576106ab6124c3565b7f4e487b71000000000000000000000000000000000000000000000000000000005f52601260045260245ffd5b5f8261269b5761269b612660565b500690565b818103818111156106ab576106ab6124c3565b808201808211156106ab576106ab6124c3565b5f826126d4576126d4612660565b50049056fea2646970667358221220af011ce787bce8bf06ea76be3def3dbb63926ba80d2b9b8ccbdd23c9737827af64736f6c63430008160033",
    "linkReferences": {}
  },
  "methodIdentifiers": {
    "HLP_PRECOMPILE_READ_SPOT_BALANCE()": "ba872679",
    "HLP_PRECOMPILE_WRITE()": "dd850075",
    "HYPE_CHAIN_ID_MAINNET()": "5b9a2373",
    "HYPE_CHAIN_ID_TESTNET()": "20d9af9a",
    "HYPE_INDEX_MAINNET()": "d00b1ad5",
    "HYPE_INDEX_TESTNET()": "bc963bc7",
    "balanceOfHyperCore(address,uint64)": "81e8dcb4",
    "endpoint()": "5e280f11",
    "getErrorPayload(bytes)": "03be2050",
    "getHypeAsset()": "aae12e46",
    "getOFTAsset()": "2d0e315c",
    "hypeAsset()": "f6e6b240",
    "hypeIndexByChainId(uint256)": "4bd162df",
    "lzCompose(address,bytes32,bytes,address,bytes)": "d0a10260",
    "oft()": "9b5215f6",
    "oftAsset()": "765008a1",
    "quoteHyperCoreAmount(uint256,bool)": "f9716faf",
    "refundERC20(address,uint256)": "ebaeefd6",
    "refundNativeTokens(address)": "8483bc00",
    "token()": "fc0c546a",
    "validate_addresses_or_refund(bytes,bytes32,uint256)": "5241b496",
    "validate_message(bytes)": "9180b744"
  },
  "id": 0
}