{
  "abi": [
    {
      "type": "constructor",
      "inputs": [
        {
          "name": "_endpoint",
          "type": "address",
          "internalType": "address"
        },
        {
          "name": "_oft",
          "type": "address",
          "internalType": "address"
        },
        {
          "name": "_coreIndexId",
          "type": "uint64",
          "internalType": "uint64"
        },
        {
          "name": "_weiDiff",
          "type": "uint64",
          "internalType": "uint64"
        }
      ],
      "stateMutability": "nonpayable"
    },
    {
      "type": "receive",
      "stateMutability": "payable"
    },
    {
      "type": "function",
      "name": "HLP_PRECOMPILE_READ_SPOT_BALANCE",
      "inputs": [],
      "outputs": [
        {
          "name": "",
          "type": "address",
          "internalType": "address"
        }
      ],
      "stateMutability": "view"
    },
    {
      "type": "function",
      "name": "HLP_PRECOMPILE_WRITE",
      "inputs": [],
      "outputs": [
        {
          "name": "",
          "type": "address",
          "internalType": "address"
        }
      ],
      "stateMutability": "view"
    },
    {
      "type": "function",
      "name": "VALID_COMPOSE_MESSAGE_LENGTH_ENCODE",
      "inputs": [],
      "outputs": [
        {
          "name": "",
          "type": "uint256",
          "internalType": "uint256"
        }
      ],
      "stateMutability": "view"
    },
    {
      "type": "function",
      "name": "VALID_COMPOSE_MESSAGE_LENGTH_PACKED",
      "inputs": [],
      "outputs": [
        {
          "name": "",
          "type": "uint256",
          "internalType": "uint256"
        }
      ],
      "stateMutability": "view"
    },
    {
      "type": "function",
      "name": "balanceOfHyperCore",
      "inputs": [
        {
          "name": "_user",
          "type": "address",
          "internalType": "address"
        },
        {
          "name": "_tokenId",
          "type": "uint64",
          "internalType": "uint64"
        }
      ],
      "outputs": [
        {
          "name": "",
          "type": "uint64",
          "internalType": "uint64"
        }
      ],
      "stateMutability": "view"
    },
    {
      "type": "function",
      "name": "endpoint",
      "inputs": [],
      "outputs": [
        {
          "name": "",
          "type": "address",
          "internalType": "address"
        }
      ],
      "stateMutability": "view"
    },
    {
      "type": "function",
      "name": "getErrorPayload",
      "inputs": [
        {
          "name": "_err",
          "type": "bytes",
          "internalType": "bytes"
        }
      ],
      "outputs": [
        {
          "name": "",
          "type": "bytes",
          "internalType": "bytes"
        }
      ],
      "stateMutability": "pure"
    },
    {
      "type": "function",
      "name": "getHypeAsset",
      "inputs": [],
      "outputs": [
        {
          "name": "",
          "type": "tuple",
          "internalType": "struct IHyperAsset",
          "components": [
            {
              "name": "assetBridgeAddress",
              "type": "address",
              "internalType": "address"
            },
            {
              "name": "coreIndexId",
              "type": "uint64",
              "internalType": "uint64"
            },
            {
              "name": "decimalDiff",
              "type": "uint64",
              "internalType": "uint64"
            }
          ]
        }
      ],
      "stateMutability": "view"
    },
    {
      "type": "function",
      "name": "getOFTAsset",
      "inputs": [],
      "outputs": [
        {
          "name": "",
          "type": "tuple",
          "internalType": "struct IHyperAsset",
          "components": [
            {
              "name": "assetBridgeAddress",
              "type": "address",
              "internalType": "address"
            },
            {
              "name": "coreIndexId",
              "type": "uint64",
              "internalType": "uint64"
            },
            {
              "name": "decimalDiff",
              "type": "uint64",
              "internalType": "uint64"
            }
          ]
        }
      ],
      "stateMutability": "view"
    },
    {
      "type": "function",
      "name": "hypeAsset",
      "inputs": [],
      "outputs": [
        {
          "name": "assetBridgeAddress",
          "type": "address",
          "internalType": "address"
        },
        {
          "name": "coreIndexId",
          "type": "uint64",
          "internalType": "uint64"
        },
        {
          "name": "decimalDiff",
          "type": "uint64",
          "internalType": "uint64"
        }
      ],
      "stateMutability": "view"
    },
    {
      "type": "function",
      "name": "lzCompose",
      "inputs": [
        {
          "name": "_oft",
          "type": "address",
          "internalType": "address"
        },
        {
          "name": "",
          "type": "bytes32",
          "internalType": "bytes32"
        },
        {
          "name": "_message",
          "type": "bytes",
          "internalType": "bytes"
        },
        {
          "name": "",
          "type": "address",
          "internalType": "address"
        },
        {
          "name": "",
          "type": "bytes",
          "internalType": "bytes"
        }
      ],
      "outputs": [],
      "stateMutability": "payable"
    },
    {
      "type": "function",
      "name": "oft",
      "inputs": [],
      "outputs": [
        {
          "name": "",
          "type": "address",
          "internalType": "contract IOFT"
        }
      ],
      "stateMutability": "view"
    },
    {
      "type": "function",
      "name": "oftAsset",
      "inputs": [],
      "outputs": [
        {
          "name": "assetBridgeAddress",
          "type": "address",
          "internalType": "address"
        },
        {
          "name": "coreIndexId",
          "type": "uint64",
          "internalType": "uint64"
        },
        {
          "name": "decimalDiff",
          "type": "uint64",
          "internalType": "uint64"
        }
      ],
      "stateMutability": "view"
    },
    {
      "type": "function",
      "name": "quoteHyperCoreAmount",
      "inputs": [
        {
          "name": "_amount",
          "type": "uint256",
          "internalType": "uint256"
        },
        {
          "name": "_isOFT",
          "type": "bool",
          "internalType": "bool"
        }
      ],
      "outputs": [
        {
          "name": "",
          "type": "tuple",
          "internalType": "struct IHyperAssetAmount",
          "components": [
            {
              "name": "evm",
              "type": "uint256",
              "internalType": "uint256"
            },
            {
              "name": "dust",
              "type": "uint256",
              "internalType": "uint256"
            },
            {
              "name": "core",
              "type": "uint64",
              "internalType": "uint64"
            }
          ]
        }
      ],
      "stateMutability": "nonpayable"
    },
    {
      "type": "function",
      "name": "refundERC20",
      "inputs": [
        {
          "name": "_refundAddress",
          "type": "address",
          "internalType": "address"
        },
        {
          "name": "_amount",
          "type": "uint256",
          "internalType": "uint256"
        }
      ],
      "outputs": [],
      "stateMutability": "payable"
    },
    {
      "type": "function",
      "name": "refundNativeTokens",
      "inputs": [
        {
          "name": "_refundAddress",
          "type": "address",
          "internalType": "address"
        }
      ],
      "outputs": [],
      "stateMutability": "payable"
    },
    {
      "type": "function",
      "name": "token",
      "inputs": [],
      "outputs": [
        {
          "name": "",
          "type": "address",
          "internalType": "contract IERC20"
        }
      ],
      "stateMutability": "view"
    },
    {
      "type": "function",
      "name": "validate_addresses_or_refund",
      "inputs": [
        {
          "name": "_maybeReceiver",
          "type": "bytes",
          "internalType": "bytes"
        },
        {
          "name": "_senderBytes32",
          "type": "bytes32",
          "internalType": "bytes32"
        },
        {
          "name": "_amountLD",
          "type": "uint256",
          "internalType": "uint256"
        }
      ],
      "outputs": [
        {
          "name": "",
          "type": "address",
          "internalType": "address"
        }
      ],
      "stateMutability": "pure"
    },
    {
      "type": "function",
      "name": "validate_payload",
      "inputs": [
        {
          "name": "_composeMessage",
          "type": "bytes",
          "internalType": "bytes"
        }
      ],
      "outputs": [
        {
          "name": "",
          "type": "uint256",
          "internalType": "uint256"
        },
        {
          "name": "",
          "type": "bytes32",
          "internalType": "bytes32"
        },
        {
          "name": "",
          "type": "bytes",
          "internalType": "bytes"
        }
      ],
      "stateMutability": "pure"
    },
    {
      "type": "event",
      "name": "ErrorERC20_Refund",
      "inputs": [
        {
          "name": "refundTo",
          "type": "address",
          "indexed": false,
          "internalType": "address"
        },
        {
          "name": "refundAmount",
          "type": "uint256",
          "indexed": false,
          "internalType": "uint256"
        }
      ],
      "anonymous": false
    },
    {
      "type": "event",
      "name": "ErrorHYPE_Refund",
      "inputs": [
        {
          "name": "refundTo",
          "type": "address",
          "indexed": false,
          "internalType": "address"
        },
        {
          "name": "refundAmount",
          "type": "uint256",
          "indexed": false,
          "internalType": "uint256"
        }
      ],
      "anonymous": false
    },
    {
      "type": "event",
      "name": "ErrorMessage",
      "inputs": [
        {
          "name": "reason",
          "type": "bytes",
          "indexed": false,
          "internalType": "bytes"
        }
      ],
      "anonymous": false
    },
    {
      "type": "event",
      "name": "OverflowDetected",
      "inputs": [
        {
          "name": "amountCore",
          "type": "uint64",
          "indexed": false,
          "internalType": "uint64"
        },
        {
          "name": "maxTransferableAmount",
          "type": "uint64",
          "indexed": false,
          "internalType": "uint64"
        }
      ],
      "anonymous": false
    },
    {
      "type": "error",
      "name": "ErrorMsg",
      "inputs": [
        {
          "name": "errorMessage",
          "type": "bytes",
          "internalType": "bytes"
        }
      ]
    },
    {
      "type": "error",
      "name": "HyperLiquidComposerCore_SpotBalanceRead_Failed",
      "inputs": [
        {
          "name": "user",
          "type": "address",
          "internalType": "address"
        },
        {
          "name": "tokenId",
          "type": "uint64",
          "internalType": "uint64"
        }
      ]
    },
    {
      "type": "error",
      "name": "HyperLiquidComposer_FailedToRefund_HYPE",
      "inputs": [
        {
          "name": "to",
          "type": "address",
          "internalType": "address"
        },
        {
          "name": "amount",
          "type": "uint256",
          "internalType": "uint256"
        }
      ]
    },
    {
      "type": "error",
      "name": "HyperLiquidComposer_FailedToSend_HYPE",
      "inputs": [
        {
          "name": "amount",
          "type": "uint256",
          "internalType": "uint256"
        }
      ]
    },
    {
      "type": "error",
      "name": "HyperLiquidComposer_InvalidCall_NotComposer",
      "inputs": [
        {
          "name": "notComposerAddress",
          "type": "address",
          "internalType": "address"
        }
      ]
    },
    {
      "type": "error",
      "name": "HyperLiquidComposer_InvalidCall_NotEndpoint",
      "inputs": [
        {
          "name": "notEndpointAddress",
          "type": "address",
          "internalType": "address"
        },
        {
          "name": "expectedEndpointAddress",
          "type": "address",
          "internalType": "address"
        }
      ]
    },
    {
      "type": "error",
      "name": "HyperLiquidComposer_InvalidCall_NotOFT",
      "inputs": [
        {
          "name": "internalOFTAddress",
          "type": "address",
          "internalType": "address"
        },
        {
          "name": "receivedOFTAddress",
          "type": "address",
          "internalType": "address"
        }
      ]
    },
    {
      "type": "error",
      "name": "HyperLiquidComposer_InvalidComposeMessage",
      "inputs": [
        {
          "name": "errorMessage",
          "type": "bytes",
          "internalType": "bytes"
        }
      ]
    }
  ],
  "bytecode": {
    "object": "0x60e060405234801562000010575f80fd5b50604051620027cf380380620027cf8339810160408190526200003391620001fe565b6001600160a01b03808516608052831660a081905260408051637e062a3560e11b8152905186928692909163fc0c546a916004808201926020929091908290030181865afa15801562000088573d5f803e3d5ffd5b505050506040513d601f19601f82011682018060405250810190620000ae919062000258565b6001600160a01b031660c0525050604080516060810190915280620000dc6001600160401b038516620001b4565b6001600160a01b0390811682526001600160401b0394851660208084019190915293851660409283015282515f8054858701518816600160a01b026001600160e01b03199182169390941692909217929092179091559181015160018054919095166001600160401b0319918216179094558051606081018252732222222222222222222222222222222222222222815261045193810193909352600a9201829052600280547504512222222222222222222222222222222222222222921691909117905560038054909216179055506200029b9050565b5f620001c5826001609d1b6200027b565b92915050565b80516001600160a01b0381168114620001e2575f80fd5b919050565b80516001600160401b0381168114620001e2575f80fd5b5f805f806080858703121562000212575f80fd5b6200021d85620001cb565b93506200022d60208601620001cb565b92506200023d60408601620001e7565b91506200024d60608601620001e7565b905092959194509250565b5f6020828403121562000269575f80fd5b6200027482620001cb565b9392505050565b80820180821115620001c557634e487b7160e01b5f52601160045260245ffd5b60805160a05160c0516124d8620002f75f395f81816105de01528181610d1f01528181611782015261190e01525f818161041e0152818161097a01526109f101525f81816102d5015281816108b6015261092e01526124d85ff3fe608060405260043610610140575f3560e01c80639278d99a116100bb578063dd85007511610071578063f6e6b24011610057578063f6e6b2401461052b578063f9716faf14610582578063fc0c546a146105cd575f80fd5b8063dd850075146104f1578063ebaeefd614610518575f80fd5b8063aae12e46116100a1578063aae12e4614610440578063ba872679146104c9578063d0a10260146104de575f80fd5b80639278d99a146103f95780639b5215f61461040d575f80fd5b80635e280f1111610110578063807d6c3f116100f6578063807d6c3f1461038a57806381e8dcb4146103ac5780638483bc00146103e4575f80fd5b80635e280f11146102c4578063765008a1146102f7575f80fd5b806303be20501461014b5780631b224831146101805780632d0e315c146101ae5780635241b49614610280575f80fd5b3661014757005b5f80fd5b348015610156575f80fd5b5061016a610165366004611af1565b610600565b6040516101779190611b9b565b60405180910390f35b34801561018b575f80fd5b5061019f61019a366004611af1565b610615565b60405161017793929190611bad565b3480156101b9575f80fd5b50610236604080516060810182525f808252602082018190529181019190915250604080516060810182525f5473ffffffffffffffffffffffffffffffffffffffff8116825267ffffffffffffffff7401000000000000000000000000000000000000000090910481166020830152600154169181019190915290565b60408051825173ffffffffffffffffffffffffffffffffffffffff16815260208084015167ffffffffffffffff908116918301919091529282015190921690820152606001610177565b34801561028b575f80fd5b5061029f61029a366004611cb5565b61064d565b60405173ffffffffffffffffffffffffffffffffffffffff9091168152602001610177565b3480156102cf575f80fd5b5061029f7f000000000000000000000000000000000000000000000000000000000000000081565b348015610302575f80fd5b505f5460015461034d9173ffffffffffffffffffffffffffffffffffffffff81169167ffffffffffffffff740100000000000000000000000000000000000000009092048216911683565b6040805173ffffffffffffffffffffffffffffffffffffffff909416845267ffffffffffffffff9283166020850152911690820152606001610177565b348015610395575f80fd5b5061039e601481565b604051908152602001610177565b3480156103b7575f80fd5b506103cb6103c6366004611d77565b610787565b60405167ffffffffffffffff9091168152602001610177565b6103f76103f2366004611dae565b610792565b005b348015610404575f80fd5b5061039e602081565b348015610418575f80fd5b5061029f7f000000000000000000000000000000000000000000000000000000000000000081565b34801561044b575f80fd5b50610236604080516060810182525f8082526020820181905291810191909152506040805160608101825260025473ffffffffffffffffffffffffffffffffffffffff8116825267ffffffffffffffff7401000000000000000000000000000000000000000090910481166020830152600354169181019190915290565b3480156104d4575f80fd5b5061029f61080181565b6103f76104ec366004611dd0565b6108b4565b3480156104fc575f80fd5b5061029f73333333333333333333333333333333333333333381565b6103f7610526366004611e6a565b610c6f565b348015610536575f80fd5b5060025460035461034d9173ffffffffffffffffffffffffffffffffffffffff81169167ffffffffffffffff740100000000000000000000000000000000000000009092048216911683565b34801561058d575f80fd5b506105a161059c366004611ea1565b610d8d565b6040805182518152602080840151908201529181015167ffffffffffffffff1690820152606001610177565b3480156105d8575f80fd5b5061029f7f000000000000000000000000000000000000000000000000000000000000000081565b606061060c8383610ec6565b90505b92915050565b5f8060605f6106248686610f10565b90505f6106318787610f28565b90505f61063e8888610f37565b92989197509195509350505050565b5f8061065884610f46565b90505f61066486610f71565b905073ffffffffffffffffffffffffffffffffffffffff811661077e5785516040515f917f09b3473100000000000000000000000000000000000000000000000000000000916106b8918a91602401611ec4565b604080517fffffffffffffffffffffffffffffffffffffffffffffffffffffffffffffffe08184030181529190526020810180517bffffffffffffffffffffffffffffffffffffffffffffffffffffffff167fffffffff00000000000000000000000000000000000000000000000000000000909316929092179091529050610742818487610fd4565b6040517f4f9520330000000000000000000000000000000000000000000000000000000081526004016107759190611b9b565b60405180910390fd5b95945050505050565b5f61060c838361102f565b3330146107cd576040517f5950c85e000000000000000000000000000000000000000000000000000000008152336004820152602401610775565b34156108b1575f73ffffffffffffffffffffffffffffffffffffffff8216156107f657816107f8565b325b90505f8173ffffffffffffffffffffffffffffffffffffffff16346040515f6040518083038185875af1925050503d805f8114610850576040519150601f19603f3d011682016040523d82523d5f602084013e610855565b606091505b50509050806108ae576040517fc8ee485e00000000000000000000000000000000000000000000000000000000815273ffffffffffffffffffffffffffffffffffffffff83166004820152346024820152604401610775565b50505b50565b7f000000000000000000000000000000000000000000000000000000000000000073ffffffffffffffffffffffffffffffffffffffff163314610961576040517fefa9309d00000000000000000000000000000000000000000000000000000000815273ffffffffffffffffffffffffffffffffffffffff7f0000000000000000000000000000000000000000000000000000000000000000166004820152336024820152604401610775565b8673ffffffffffffffffffffffffffffffffffffffff167f000000000000000000000000000000000000000000000000000000000000000073ffffffffffffffffffffffffffffffffffffffff1614610a26576040517f86fee0c000000000000000000000000000000000000000000000000000000000815273ffffffffffffffffffffffffffffffffffffffff7f00000000000000000000000000000000000000000000000000000000000000008116600483015288166024820152604401610775565b5f805f60603073ffffffffffffffffffffffffffffffffffffffff16631b2248318a8a6040518363ffffffff1660e01b8152600401610a66929190611ee5565b5f60405180830381865afa925050508015610ac057506040513d5f823e601f3d9081017fffffffffffffffffffffffffffffffffffffffffffffffffffffffffffffffe0168201604052610abd9190810190611f73565b60015b610b26573d808015610aed576040519150601f19603f3d011682016040523d82523d5f602084013e610af2565b606091505b50806040517ed4895a0000000000000000000000000000000000000000000000000000000081526004016107759190611b9b565b919450925090506040517f5241b4960000000000000000000000000000000000000000000000000000000081523090635241b49690610b6d90849086908890600401611fbf565b602060405180830381865afa925050508015610bc4575060408051601f3d9081017fffffffffffffffffffffffffffffffffffffffffffffffffffffffffffffffe0168201909252610bc191810190611fe3565b60015b610c45573d808015610bf1576040519150601f19603f3d011682016040523d82523d5f602084013e610bf6565b606091505b505f610c0182611143565b90507f612baef0082f9abcf6dc7b491d75346418381b75756830d7029939026d1b46b981604051610c329190611b9b565b60405180910390a1505050505050610c66565b93503415610c5757610c57843461143c565b610c618484611722565b505050505b50505050505050565b333014610caa576040517f5950c85e000000000000000000000000000000000000000000000000000000008152336004820152602401610775565b5f81118015610cce575073ffffffffffffffffffffffffffffffffffffffff821615155b15610d89576040517fa9059cbb00000000000000000000000000000000000000000000000000000000815273ffffffffffffffffffffffffffffffffffffffff8381166004830152602482018390527f0000000000000000000000000000000000000000000000000000000000000000169063a9059cbb906044016020604051808303815f875af1158015610d65573d5f803e3d5ffd5b505050506040513d601f19601f820116820180604052508101906108ae9190611ffe565b5050565b610db860405180606001604052805f81526020015f81526020015f67ffffffffffffffff1681525090565b604080516060810182525f80825260208201819052918101829052908315610e4c57604080516060810182525f5473ffffffffffffffffffffffffffffffffffffffff811680835267ffffffffffffffff7401000000000000000000000000000000000000000090920482166020840181905260015490921693830193909352909350610e45919061102f565b9050610ebb565b6040805160608101825260025473ffffffffffffffffffffffffffffffffffffffff811680835267ffffffffffffffff7401000000000000000000000000000000000000000090920482166020840181905260035490921693830193909352909350610eb8919061102f565b90505b61077e85828461197a565b6060610ed58260448186612019565b8080601f0160208091040260200160405190810160405280939291908181526020018383808284375f92019190915250929695505050505050565b5f610f1f602c600c8486612019565b61060c91612040565b5f610f1f604c602c8486612019565b6060610ed582604c8186612019565b5f8173ffffffffffffffffffffffffffffffffffffffff8111610f695792915050565b505f92915050565b80515f907fffffffffffffffffffffffffffffffffffffffffffffffffffffffffffffffec8101610faf57610fa58361207c565b60601c9392505050565b60208103610f69575f610fc1846120cb565b9050610fcc81610f46565b949350505050565b606060405180606001604052808473ffffffffffffffffffffffffffffffffffffffff168152602001838152602001858152506040516020016110179190612110565b60405160208183030381529060405290509392505050565b6040805173ffffffffffffffffffffffffffffffffffffffff8416602082015267ffffffffffffffff8316818301528151808203830181526060918201928390525f92839291610801916110839190612154565b5f60405180830381855afa9150503d805f81146110bb576040519150601f19603f3d011682016040523d82523d5f602084013e6110c0565b606091505b50909250905081611125576040517fa91ed72100000000000000000000000000000000000000000000000000000000815273ffffffffffffffffffffffffffffffffffffffff8616600482015267ffffffffffffffff85166024820152604401610775565b80806020019051810190611139919061216f565b5195945050505050565b6040517f03be20500000000000000000000000000000000000000000000000000000000081526060905f9030906303be205090611184908690600401611b9b565b5f60405180830381865afa15801561119e573d5f803e3d5ffd5b505050506040513d5f823e601f3d9081017fffffffffffffffffffffffffffffffffffffffffffffffffffffffffffffffe01682016040526111e391908101906121c1565b90505f818060200190518101906111fa91906121f3565b805160208201516040517febaeefd600000000000000000000000000000000000000000000000000000000815273ffffffffffffffffffffffffffffffffffffffff90921660048301526024820152909150309063ebaeefd6906044015f604051808303815f87803b15801561126e575f80fd5b505af192505050801561127f575060015b6112d95780516020808301516040805173ffffffffffffffffffffffffffffffffffffffff9094168452918301527feb907f6e0de6862ca2ced78e890a55c5e8352dc4051697356bc835abf7cedcac910160405180910390a15b80516040517f8483bc0000000000000000000000000000000000000000000000000000000000815273ffffffffffffffffffffffffffffffffffffffff90911660048201523090638483bc009034906024015f604051808303818588803b158015611342575f80fd5b505af193505050508015611354575060015b611431576040515f90329034908381818185875af1925050503d805f8114611397576040519150601f19603f3d011682016040523d82523d5f602084013e61139c565b606091505b50509050806113de57604080513281523460208201527f0b0fd82e76ce2ddfcaf289bd460de0980c71a02674dbe00c04e45dfc44e9d577910160405180910390a15b81516040805173ffffffffffffffffffffffffffffffffffffffff90921682523460208301527f0b0fd82e76ce2ddfcaf289bd460de0980c71a02674dbe00c04e45dfc44e9d577910160405180910390a1505b604001519392505050565b5f611447825f610d8d565b60025481516040519293505f9273ffffffffffffffffffffffffffffffffffffffff909216918381818185875af1925050503d805f81146114a3576040519150601f19603f3d011682016040523d82523d5f602084013e6114a8565b606091505b50509050806114e6576040517fb7e54a0700000000000000000000000000000000000000000000000000000000815260048101849052602401610775565b60025460408381015190517f0b0ac0ab00000000000000000000000000000000000000000000000000000000815273ffffffffffffffffffffffffffffffffffffffff871660048201527401000000000000000000000000000000000000000090920467ffffffffffffffff908116602484015216604482015273333333333333333333333333333333333333333390630b0ac0ab906064015f604051808303815f87803b158015611596575f80fd5b505af11580156115a8573d5f803e3d5ffd5b5050505060208201511561171c5760208201516040517f8483bc0000000000000000000000000000000000000000000000000000000000815273ffffffffffffffffffffffffffffffffffffffff861660048201523091638483bc00916024015f604051808303818588803b15801561161f575f80fd5b505af193505050508015611631575060015b61171c5760208201516040513291905f81818185875af1925050503d805f8114611676576040519150601f19603f3d011682016040523d82523d5f602084013e61167b565b606091505b505080915050806116c65760208083015160408051328152928301919091527f0b0fd82e76ce2ddfcaf289bd460de0980c71a02674dbe00c04e45dfc44e9d577910160405180910390a15b6020808301516040805173ffffffffffffffffffffffffffffffffffffffff88168152928301919091527f0b0fd82e76ce2ddfcaf289bd460de0980c71a02674dbe00c04e45dfc44e9d577910160405180910390a15b50505050565b5f61172e826001610d8d565b5f5481516040517fa9059cbb00000000000000000000000000000000000000000000000000000000815273ffffffffffffffffffffffffffffffffffffffff928316600482015260248101919091529192507f0000000000000000000000000000000000000000000000000000000000000000169063a9059cbb906044016020604051808303815f875af11580156117c8573d5f803e3d5ffd5b505050506040513d601f19601f820116820180604052508101906117ec9190611ffe565b505f5460408281015190517f0b0ac0ab00000000000000000000000000000000000000000000000000000000815273ffffffffffffffffffffffffffffffffffffffff861660048201527401000000000000000000000000000000000000000090920467ffffffffffffffff908116602484015216604482015273333333333333333333333333333333333333333390630b0ac0ab906064015f604051808303815f87803b15801561189c575f80fd5b505af11580156118ae573d5f803e3d5ffd5b505050506020810151156108ae5760208101516040517fa9059cbb00000000000000000000000000000000000000000000000000000000815273ffffffffffffffffffffffffffffffffffffffff858116600483015260248201929092527f00000000000000000000000000000000000000000000000000000000000000009091169063a9059cbb906044016020604051808303815f875af1158015611956573d5f803e3d5ffd5b505050506040513d601f19601f8201168201806040525081019061171c9190611ffe565b6119a560405180606001604052805f81526020015f81526020015f67ffffffffffffffff1681525090565b5f8260400151600a6119b791906123c3565b90505f808287816119ca576119ca6123d8565b069150508086035f6119dc8489612405565b90508667ffffffffffffffff168167ffffffffffffffff161115611a7d576040805167ffffffffffffffff8084168252891660208201527ff17459c2e89c2b011fa739accb3b853858d0a689d31382b9aa4f56a1ca00f9d3910160405180910390a15f84611a4a898461243d565b67ffffffffffffffff16611a5e9190612465565b8892509050611a6d818461247c565b9250611a79818561248f565b9350505b60408051606081018252928352602083019390935267ffffffffffffffff169181019190915295945050505050565b5f8083601f840112611abc575f80fd5b50813567ffffffffffffffff811115611ad3575f80fd5b602083019150836020828501011115611aea575f80fd5b9250929050565b5f8060208385031215611b02575f80fd5b823567ffffffffffffffff811115611b18575f80fd5b611b2485828601611aac565b90969095509350505050565b5f5b83811015611b4a578181015183820152602001611b32565b50505f910152565b5f8151808452611b69816020860160208601611b30565b601f017fffffffffffffffffffffffffffffffffffffffffffffffffffffffffffffffe0169290920160200192915050565b602081525f61060c6020830184611b52565b838152826020820152606060408201525f61077e6060830184611b52565b7f4e487b71000000000000000000000000000000000000000000000000000000005f52604160045260245ffd5b6040516060810167ffffffffffffffff81118282101715611c1b57611c1b611bcb565b60405290565b604051601f82017fffffffffffffffffffffffffffffffffffffffffffffffffffffffffffffffe016810167ffffffffffffffff81118282101715611c6857611c68611bcb565b604052919050565b5f67ffffffffffffffff821115611c8957611c89611bcb565b50601f017fffffffffffffffffffffffffffffffffffffffffffffffffffffffffffffffe01660200190565b5f805f60608486031215611cc7575f80fd5b833567ffffffffffffffff811115611cdd575f80fd5b8401601f81018613611ced575f80fd5b8035611d00611cfb82611c70565b611c21565b818152876020838501011115611d14575f80fd5b816020840160208301375f6020838301015280955050505060208401359150604084013590509250925092565b73ffffffffffffffffffffffffffffffffffffffff811681146108b1575f80fd5b67ffffffffffffffff811681146108b1575f80fd5b5f8060408385031215611d88575f80fd5b8235611d9381611d41565b91506020830135611da381611d62565b809150509250929050565b5f60208284031215611dbe575f80fd5b8135611dc981611d41565b9392505050565b5f805f805f805f60a0888a031215611de6575f80fd5b8735611df181611d41565b965060208801359550604088013567ffffffffffffffff80821115611e14575f80fd5b611e208b838c01611aac565b909750955060608a01359150611e3582611d41565b90935060808901359080821115611e4a575f80fd5b50611e578a828b01611aac565b989b979a50959850939692959293505050565b5f8060408385031215611e7b575f80fd5b8235611e8681611d41565b946020939093013593505050565b80151581146108b1575f80fd5b5f8060408385031215611eb2575f80fd5b823591506020830135611da381611e94565b604081525f611ed66040830185611b52565b90508260208301529392505050565b60208152816020820152818360408301375f818301604090810191909152601f9092017fffffffffffffffffffffffffffffffffffffffffffffffffffffffffffffffe0160101919050565b5f82601f830112611f40575f80fd5b8151611f4e611cfb82611c70565b818152846020838601011115611f62575f80fd5b610fcc826020830160208701611b30565b5f805f60608486031215611f85575f80fd5b8351925060208401519150604084015167ffffffffffffffff811115611fa9575f80fd5b611fb586828701611f31565b9150509250925092565b606081525f611fd16060830186611b52565b60208301949094525060400152919050565b5f60208284031215611ff3575f80fd5b8151611dc981611d41565b5f6020828403121561200e575f80fd5b8151611dc981611e94565b5f8085851115612027575f80fd5b83861115612033575f80fd5b5050820193919092039150565b8035602083101561060f577fffffffffffffffffffffffffffffffffffffffffffffffffffffffffffffffff602084900360031b1b1692915050565b5f815160208301517fffffffffffffffffffffffffffffffffffffffff000000000000000000000000808216935060148310156120c35780818460140360031b1b83161693505b505050919050565b8051602080830151919081101561210a577fffffffffffffffffffffffffffffffffffffffffffffffffffffffffffffffff8160200360031b1b821691505b50919050565b6020815273ffffffffffffffffffffffffffffffffffffffff8251166020820152602082015160408201525f6040830151606080840152610fcc6080840182611b52565b5f8251612165818460208701611b30565b9190910192915050565b5f6060828403121561217f575f80fd5b612187611bf8565b825161219281611d62565b815260208301516121a281611d62565b602082015260408301516121b581611d62565b60408201529392505050565b5f602082840312156121d1575f80fd5b815167ffffffffffffffff8111156121e7575f80fd5b610fcc84828501611f31565b5f60208284031215612203575f80fd5b815167ffffffffffffffff8082111561221a575f80fd5b908301906060828603121561222d575f80fd5b612235611bf8565b825161224081611d41565b81526020838101519082015260408301518281111561225d575f80fd5b61226987828601611f31565b60408301525095945050505050565b7f4e487b71000000000000000000000000000000000000000000000000000000005f52601160045260245ffd5b600181815b808511156122fe57817fffffffffffffffffffffffffffffffffffffffffffffffffffffffffffffffff048211156122e4576122e4612278565b808516156122f157918102915b93841c93908002906122aa565b509250929050565b5f826123145750600161060f565b8161232057505f61060f565b816001811461233657600281146123405761235c565b600191505061060f565b60ff84111561235157612351612278565b50506001821b61060f565b5060208310610133831016604e8410600b841016171561237f575081810a61060f565b61238983836122a5565b807fffffffffffffffffffffffffffffffffffffffffffffffffffffffffffffffff048211156123bb576123bb612278565b029392505050565b5f61060c67ffffffffffffffff841683612306565b7f4e487b71000000000000000000000000000000000000000000000000000000005f52601260045260245ffd5b5f82612438577f4e487b71000000000000000000000000000000000000000000000000000000005f52601260045260245ffd5b500490565b67ffffffffffffffff82811682821603908082111561245e5761245e612278565b5092915050565b808202811582820484141761060f5761060f612278565b8181038181111561060f5761060f612278565b8082018082111561060f5761060f61227856fea26469706673582212207128437e9ca516132162a40c153bd44138edfee3d5968d1345db1ab749d4016a64736f6c63430008160033",
    "linkReferences": {}
  },
  "methodIdentifiers": {
    "HLP_PRECOMPILE_READ_SPOT_BALANCE()": "ba872679",
    "HLP_PRECOMPILE_WRITE()": "dd850075",
    "VALID_COMPOSE_MESSAGE_LENGTH_ENCODE()": "9278d99a",
    "VALID_COMPOSE_MESSAGE_LENGTH_PACKED()": "807d6c3f",
    "balanceOfHyperCore(address,uint64)": "81e8dcb4",
    "endpoint()": "5e280f11",
    "getErrorPayload(bytes)": "03be2050",
    "getHypeAsset()": "aae12e46",
    "getOFTAsset()": "2d0e315c",
    "hypeAsset()": "f6e6b240",
    "lzCompose(address,bytes32,bytes,address,bytes)": "d0a10260",
    "oft()": "9b5215f6",
    "oftAsset()": "765008a1",
    "quoteHyperCoreAmount(uint256,bool)": "f9716faf",
    "refundERC20(address,uint256)": "ebaeefd6",
    "refundNativeTokens(address)": "8483bc00",
    "token()": "fc0c546a",
    "validate_addresses_or_refund(bytes,bytes32,uint256)": "5241b496",
    "validate_payload(bytes)": "1b224831"
  },
  "id": 0
}