{
  "abi": [
    {
      "type": "constructor",
      "inputs": [
        {
          "name": "_endpoint",
          "type": "address",
          "internalType": "address"
        },
        {
          "name": "_oft",
          "type": "address",
          "internalType": "address"
        },
        {
          "name": "_coreIndexId",
          "type": "uint64",
          "internalType": "uint64"
        },
        {
          "name": "_assetDecimalDiff",
          "type": "int64",
          "internalType": "int64"
        }
      ],
      "stateMutability": "nonpayable"
    },
    {
      "type": "receive",
      "stateMutability": "payable"
    },
    {
      "type": "function",
      "name": "HLP_PRECOMPILE_READ_SPOT_BALANCE",
      "inputs": [],
      "outputs": [
        {
          "name": "",
          "type": "address",
          "internalType": "address"
        }
      ],
      "stateMutability": "view"
    },
    {
      "type": "function",
      "name": "HLP_PRECOMPILE_WRITE",
      "inputs": [],
      "outputs": [
        {
          "name": "",
          "type": "address",
          "internalType": "address"
        }
      ],
      "stateMutability": "view"
    },
    {
      "type": "function",
      "name": "HYPE_CHAIN_ID_MAINNET",
      "inputs": [],
      "outputs": [
        {
          "name": "",
          "type": "uint256",
          "internalType": "uint256"
        }
      ],
      "stateMutability": "view"
    },
    {
      "type": "function",
      "name": "HYPE_CHAIN_ID_TESTNET",
      "inputs": [],
      "outputs": [
        {
          "name": "",
          "type": "uint256",
          "internalType": "uint256"
        }
      ],
      "stateMutability": "view"
    },
    {
      "type": "function",
      "name": "HYPE_INDEX_MAINNET",
      "inputs": [],
      "outputs": [
        {
          "name": "",
          "type": "uint64",
          "internalType": "uint64"
        }
      ],
      "stateMutability": "view"
    },
    {
      "type": "function",
      "name": "HYPE_INDEX_TESTNET",
      "inputs": [],
      "outputs": [
        {
          "name": "",
          "type": "uint64",
          "internalType": "uint64"
        }
      ],
      "stateMutability": "view"
    },
    {
      "type": "function",
      "name": "SPOT_SEND_HEADER",
      "inputs": [],
      "outputs": [
        {
          "name": "",
          "type": "bytes",
          "internalType": "bytes"
        }
      ],
      "stateMutability": "view"
    },
    {
      "type": "function",
      "name": "balanceOfHyperCore",
      "inputs": [
        {
          "name": "_user",
          "type": "address",
          "internalType": "address"
        },
        {
          "name": "_tokenId",
          "type": "uint64",
          "internalType": "uint64"
        }
      ],
      "outputs": [
        {
          "name": "",
          "type": "uint64",
          "internalType": "uint64"
        }
      ],
      "stateMutability": "view"
    },
    {
      "type": "function",
      "name": "endpoint",
      "inputs": [],
      "outputs": [
        {
          "name": "",
          "type": "address",
          "internalType": "address"
        }
      ],
      "stateMutability": "view"
    },
    {
      "type": "function",
      "name": "fundAddressOnHyperCore",
      "inputs": [
        {
          "name": "_receiver",
          "type": "address",
          "internalType": "address"
        },
        {
          "name": "_amount",
          "type": "uint256",
          "internalType": "uint256"
        },
        {
          "name": "_executor",
          "type": "address",
          "internalType": "address"
        }
      ],
      "outputs": [],
      "stateMutability": "nonpayable"
    },
    {
      "type": "function",
      "name": "getErrorPayload",
      "inputs": [
        {
          "name": "_err",
          "type": "bytes",
          "internalType": "bytes"
        }
      ],
      "outputs": [
        {
          "name": "",
          "type": "bytes",
          "internalType": "bytes"
        }
      ],
      "stateMutability": "pure"
    },
    {
      "type": "function",
      "name": "getHypeAsset",
      "inputs": [],
      "outputs": [
        {
          "name": "",
          "type": "tuple",
          "internalType": "struct IHyperAsset",
          "components": [
            {
              "name": "assetBridgeAddress",
              "type": "address",
              "internalType": "address"
            },
            {
              "name": "coreIndexId",
              "type": "uint64",
              "internalType": "uint64"
            },
            {
              "name": "decimalDiff",
              "type": "int64",
              "internalType": "int64"
            }
          ]
        }
      ],
      "stateMutability": "view"
    },
    {
      "type": "function",
      "name": "getOFTAsset",
      "inputs": [],
      "outputs": [
        {
          "name": "",
          "type": "tuple",
          "internalType": "struct IHyperAsset",
          "components": [
            {
              "name": "assetBridgeAddress",
              "type": "address",
              "internalType": "address"
            },
            {
              "name": "coreIndexId",
              "type": "uint64",
              "internalType": "uint64"
            },
            {
              "name": "decimalDiff",
              "type": "int64",
              "internalType": "int64"
            }
          ]
        }
      ],
      "stateMutability": "view"
    },
    {
      "type": "function",
      "name": "hypeAsset",
      "inputs": [],
      "outputs": [
        {
          "name": "assetBridgeAddress",
          "type": "address",
          "internalType": "address"
        },
        {
          "name": "coreIndexId",
          "type": "uint64",
          "internalType": "uint64"
        },
        {
          "name": "decimalDiff",
          "type": "int64",
          "internalType": "int64"
        }
      ],
      "stateMutability": "view"
    },
    {
      "type": "function",
      "name": "hypeIndexByChainId",
      "inputs": [
        {
          "name": "",
          "type": "uint256",
          "internalType": "uint256"
        }
      ],
      "outputs": [
        {
          "name": "",
          "type": "uint64",
          "internalType": "uint64"
        }
      ],
      "stateMutability": "view"
    },
    {
      "type": "function",
      "name": "lzCompose",
      "inputs": [
        {
          "name": "_oft",
          "type": "address",
          "internalType": "address"
        },
        {
          "name": "",
          "type": "bytes32",
          "internalType": "bytes32"
        },
        {
          "name": "_message",
          "type": "bytes",
          "internalType": "bytes"
        },
        {
          "name": "_executor",
          "type": "address",
          "internalType": "address"
        },
        {
          "name": "",
          "type": "bytes",
          "internalType": "bytes"
        }
      ],
      "outputs": [],
      "stateMutability": "payable"
    },
    {
      "type": "function",
      "name": "oft",
      "inputs": [],
      "outputs": [
        {
          "name": "",
          "type": "address",
          "internalType": "contract IOFT"
        }
      ],
      "stateMutability": "view"
    },
    {
      "type": "function",
      "name": "oftAsset",
      "inputs": [],
      "outputs": [
        {
          "name": "assetBridgeAddress",
          "type": "address",
          "internalType": "address"
        },
        {
          "name": "coreIndexId",
          "type": "uint64",
          "internalType": "uint64"
        },
        {
          "name": "decimalDiff",
          "type": "int64",
          "internalType": "int64"
        }
      ],
      "stateMutability": "view"
    },
    {
      "type": "function",
      "name": "quoteHyperCoreAmount",
      "inputs": [
        {
          "name": "_amount",
          "type": "uint256",
          "internalType": "uint256"
        },
        {
          "name": "_isOFT",
          "type": "bool",
          "internalType": "bool"
        }
      ],
      "outputs": [
        {
          "name": "",
          "type": "tuple",
          "internalType": "struct IHyperAssetAmount",
          "components": [
            {
              "name": "evm",
              "type": "uint256",
              "internalType": "uint256"
            },
            {
              "name": "dust",
              "type": "uint256",
              "internalType": "uint256"
            },
            {
              "name": "core",
              "type": "uint64",
              "internalType": "uint64"
            }
          ]
        }
      ],
      "stateMutability": "view"
    },
    {
      "type": "function",
      "name": "refundERC20",
      "inputs": [
        {
          "name": "_refundAddress",
          "type": "address",
          "internalType": "address"
        },
        {
          "name": "_amount",
          "type": "uint256",
          "internalType": "uint256"
        }
      ],
      "outputs": [],
      "stateMutability": "nonpayable"
    },
    {
      "type": "function",
      "name": "refundNativeTokens",
      "inputs": [
        {
          "name": "_refundAddress",
          "type": "address",
          "internalType": "address"
        }
      ],
      "outputs": [],
      "stateMutability": "payable"
    },
    {
      "type": "function",
      "name": "sendAssetToHyperCore",
      "inputs": [
        {
          "name": "_receiver",
          "type": "address",
          "internalType": "address"
        },
        {
          "name": "_amountLD",
          "type": "uint256",
          "internalType": "uint256"
        }
      ],
      "outputs": [],
      "stateMutability": "nonpayable"
    },
    {
      "type": "function",
      "name": "token",
      "inputs": [],
      "outputs": [
        {
          "name": "",
          "type": "address",
          "internalType": "contract IERC20"
        }
      ],
      "stateMutability": "view"
    },
    {
      "type": "function",
      "name": "validate_addresses_or_refund",
      "inputs": [
        {
          "name": "_maybeReceiver",
          "type": "bytes",
          "internalType": "bytes"
        },
        {
          "name": "_senderBytes32",
          "type": "bytes32",
          "internalType": "bytes32"
        },
        {
          "name": "_amountLD",
          "type": "uint256",
          "internalType": "uint256"
        }
      ],
      "outputs": [
        {
          "name": "",
          "type": "address",
          "internalType": "address"
        }
      ],
      "stateMutability": "pure"
    },
    {
      "type": "function",
      "name": "validate_message",
      "inputs": [
        {
          "name": "_composeMessage",
          "type": "bytes",
          "internalType": "bytes"
        }
      ],
      "outputs": [
        {
          "name": "",
          "type": "uint256",
          "internalType": "uint256"
        },
        {
          "name": "",
          "type": "bytes32",
          "internalType": "bytes32"
        },
        {
          "name": "",
          "type": "bytes",
          "internalType": "bytes"
        }
      ],
      "stateMutability": "pure"
    },
    {
      "type": "event",
      "name": "ErrorERC20_Refund",
      "inputs": [
        {
          "name": "refundTo",
          "type": "address",
          "indexed": false,
          "internalType": "address"
        },
        {
          "name": "refundAmount",
          "type": "uint256",
          "indexed": false,
          "internalType": "uint256"
        }
      ],
      "anonymous": false
    },
    {
      "type": "event",
      "name": "ErrorHYPE_Refund",
      "inputs": [
        {
          "name": "refundTo",
          "type": "address",
          "indexed": false,
          "internalType": "address"
        },
        {
          "name": "refundAmount",
          "type": "uint256",
          "indexed": false,
          "internalType": "uint256"
        }
      ],
      "anonymous": false
    },
    {
      "type": "event",
      "name": "ErrorMessage",
      "inputs": [
        {
          "name": "reason",
          "type": "bytes",
          "indexed": false,
          "internalType": "bytes"
        }
      ],
      "anonymous": false
    },
    {
      "type": "event",
      "name": "ErrorSpot_FailedToSend",
      "inputs": [
        {
          "name": "to",
          "type": "address",
          "indexed": false,
          "internalType": "address"
        },
        {
          "name": "tokenId",
          "type": "uint64",
          "indexed": false,
          "internalType": "uint64"
        },
        {
          "name": "amount",
          "type": "uint256",
          "indexed": false,
          "internalType": "uint256"
        },
        {
          "name": "errorMessage",
          "type": "bytes",
          "indexed": false,
          "internalType": "bytes"
        }
      ],
      "anonymous": false
    },
    {
      "type": "event",
      "name": "ExcessHYPE_Refund",
      "inputs": [
        {
          "name": "refundTo",
          "type": "address",
          "indexed": false,
          "internalType": "address"
        },
        {
          "name": "refundAmount",
          "type": "uint256",
          "indexed": false,
          "internalType": "uint256"
        }
      ],
      "anonymous": false
    },
    {
      "type": "error",
      "name": "ErrorMsg",
      "inputs": [
        {
          "name": "errorMessage",
          "type": "bytes",
          "internalType": "bytes"
        }
      ]
    },
    {
      "type": "error",
      "name": "HyperLiquidComposerCore_SpotBalanceRead_Failed",
      "inputs": [
        {
          "name": "user",
          "type": "address",
          "internalType": "address"
        },
        {
          "name": "tokenId",
          "type": "uint64",
          "internalType": "uint64"
        }
      ]
    },
    {
      "type": "error",
      "name": "HyperLiquidComposer_FailedToRefund_HYPE",
      "inputs": [
        {
          "name": "to",
          "type": "address",
          "internalType": "address"
        },
        {
          "name": "amount",
          "type": "uint256",
          "internalType": "uint256"
        }
      ]
    },
    {
      "type": "error",
      "name": "HyperLiquidComposer_FailedToSend_HYPE",
      "inputs": [
        {
          "name": "amount",
          "type": "uint256",
          "internalType": "uint256"
        }
      ]
    },
    {
      "type": "error",
      "name": "HyperLiquidComposer_InvalidArgument_EndpointShouldNotBeZeroAddress",
      "inputs": [
        {
          "name": "receivedEndpointAddress",
          "type": "address",
          "internalType": "address"
        }
      ]
    },
    {
      "type": "error",
      "name": "HyperLiquidComposer_InvalidCall_NotComposer",
      "inputs": [
        {
          "name": "notComposerAddress",
          "type": "address",
          "internalType": "address"
        }
      ]
    },
    {
      "type": "error",
      "name": "HyperLiquidComposer_InvalidCall_NotEndpoint",
      "inputs": [
        {
          "name": "notEndpointAddress",
          "type": "address",
          "internalType": "address"
        },
        {
          "name": "expectedEndpointAddress",
          "type": "address",
          "internalType": "address"
        }
      ]
    },
    {
      "type": "error",
      "name": "HyperLiquidComposer_InvalidCall_NotOFT",
      "inputs": [
        {
          "name": "internalOFTAddress",
          "type": "address",
          "internalType": "address"
        },
        {
          "name": "receivedOFTAddress",
          "type": "address",
          "internalType": "address"
        }
      ]
    },
    {
      "type": "error",
      "name": "HyperLiquidComposer_InvalidComposeMessage",
      "inputs": [
        {
          "name": "errorMessage",
          "type": "bytes",
          "internalType": "bytes"
        }
      ]
    },
    {
      "type": "error",
      "name": "SafeERC20FailedOperation",
      "inputs": [
        {
          "name": "token",
          "type": "address",
          "internalType": "address"
        }
      ]
    }
  ],
  "bytecode": {
    "object": "0x60e060405234801562000010575f80fd5b5060405162002fa938038062002fa983398101604081905262000033916200028a565b83836001600160a01b0382166200006c5760405163fb82c1f160e01b81526001600160a01b038316600482015260240160405180910390fd5b6001600160a01b03808316608052811660a081905260408051637e062a3560e11b8152905163fc0c546a916004808201926020929091908290030181865afa158015620000bb573d5f803e3d5ffd5b505050506040513d601f19601f82011682018060405250810190620000e19190620002f9565b6001600160a01b031660c05250505f60208190527f2802b8ca0a4d9948ac89ce9ba15f4015f0f68c52469c4df23bbaf374f1d4604080546001600160401b0319908116610451179091556103e79091527f332eac5de6beffe8ee7761a0342c75594c3acb5fdde0a2555227e56aa65d4141805490911660961790556040805160608101909152806200017c6001600160401b03851662000257565b6001600160a01b0390811682526001600160401b0394851660208084019190915260079490940b604092830152825160018054858701519284166001600160e01b031991821617600160a01b93891684021790915593830151600280546001600160401b031990811692891692909217905583516060810185527322222222222222222222222222222222222222228152465f90815280885285902054909716958701869052600a938701849052955160038054919093169416939093179390920292909217905560048054909216179055506200033c9050565b5f62000268826001609d1b6200031c565b92915050565b80516001600160a01b038116811462000285575f80fd5b919050565b5f805f80608085870312156200029e575f80fd5b620002a9856200026e565b9350620002b9602086016200026e565b60408601519093506001600160401b0381168114620002d6575f80fd5b8092505060608501518060070b8114620002ee575f80fd5b939692955090935050565b5f602082840312156200030a575f80fd5b62000315826200026e565b9392505050565b808201808211156200026857634e487b7160e01b5f52601160045260245ffd5b60805160a05160c051612c11620003985f395f8181610721015281816110840152818161126b015261178001525f81816104ed01528181610a9a0152610b1101525f81816103c2015281816109d60152610a4e0152612c115ff3fe608060405260043610610191575f3560e01c80639b5215f6116100dc578063d9acf0ec11610087578063ebaeefd611610062578063ebaeefd61461064e578063f6e6b2401461066d578063f9716faf146106c5578063fc0c546a14610710575f80fd5b8063d9acf0ec146105e9578063da001a2914610608578063dd85007514610627575f80fd5b8063bc963bc7116100b7578063bc963bc7146105ad578063d00b1ad5146105c2578063d0a10260146105d6575f80fd5b80639b5215f6146104dc578063aae12e461461050f578063ba87267914610598575f80fd5b80635b9a23731161013c57806381e8dcb41161011757806381e8dcb41461047a5780638483bc00146104995780639180b744146104ae575f80fd5b80635b9a23731461039c5780635e280f11146103b1578063765008a1146103e4575f80fd5b80632d0e315c1161016c5780632d0e315c1461023c5780634bd162df1461030a5780635241b49614610358575f80fd5b806303be20501461019c5780631f8164d9146101d157806320d9af9a14610219575f80fd5b3661019857005b5f80fd5b3480156101a7575f80fd5b506101bb6101b636600461220b565b610743565b6040516101c89190612297565b60405180910390f35b3480156101dc575f80fd5b506101bb6040518060400160405280600281526020017f160000000000000000000000000000000000000000000000000000000000000081525081565b348015610224575f80fd5b5061022e6103e681565b6040519081526020016101c8565b348015610247575f80fd5b506102c5604080516060810182525f8082526020820181905291810191909152506040805160608101825260015473ffffffffffffffffffffffffffffffffffffffff8116825274010000000000000000000000000000000000000000900467ffffffffffffffff16602082015260025460070b9181019190915290565b60408051825173ffffffffffffffffffffffffffffffffffffffff16815260208084015167ffffffffffffffff16908201529181015160070b908201526060016101c8565b348015610315575f80fd5b5061033f6103243660046122a9565b5f6020819052908152604090205467ffffffffffffffff1681565b60405167ffffffffffffffff90911681526020016101c8565b348015610363575f80fd5b5061037761037236600461236e565b610758565b60405173ffffffffffffffffffffffffffffffffffffffff90911681526020016101c8565b3480156103a7575f80fd5b5061022e6103e781565b3480156103bc575f80fd5b506103777f000000000000000000000000000000000000000000000000000000000000000081565b3480156103ef575f80fd5b5060015460025461043c9173ffffffffffffffffffffffffffffffffffffffff8116917401000000000000000000000000000000000000000090910467ffffffffffffffff169060070b83565b6040805173ffffffffffffffffffffffffffffffffffffffff909416845267ffffffffffffffff909216602084015260070b908201526060016101c8565b348015610485575f80fd5b5061033f610494366004612430565b610874565b6104ac6104a7366004612467565b61087f565b005b3480156104b9575f80fd5b506104cd6104c836600461220b565b61099c565b6040516101c893929190612489565b3480156104e7575f80fd5b506103777f000000000000000000000000000000000000000000000000000000000000000081565b34801561051a575f80fd5b506102c5604080516060810182525f8082526020820181905291810191909152506040805160608101825260035473ffffffffffffffffffffffffffffffffffffffff8116825274010000000000000000000000000000000000000000900467ffffffffffffffff16602082015260045460070b9181019190915290565b3480156105a3575f80fd5b5061037761080181565b3480156105b8575f80fd5b5061033f61045181565b3480156105cd575f80fd5b5061033f609681565b6104ac6105e43660046124a7565b6109d4565b3480156105f4575f80fd5b506104ac610603366004612541565b61104e565b348015610613575f80fd5b506104ac61062236600461256b565b611298565b348015610632575f80fd5b5061037773333333333333333333333333333333333333333381565b348015610659575f80fd5b506104ac610668366004612541565b611702565b348015610678575f80fd5b5060035460045461043c9173ffffffffffffffffffffffffffffffffffffffff8116917401000000000000000000000000000000000000000090910467ffffffffffffffff169060070b83565b3480156106d0575f80fd5b506106e46106df3660046125aa565b6117a7565b6040805182518152602080840151908201529181015167ffffffffffffffff16908201526060016101c8565b34801561071b575f80fd5b506103777f000000000000000000000000000000000000000000000000000000000000000081565b606061074f83836118dd565b90505b92915050565b5f8061076384611927565b90505f61076f86611952565b905073ffffffffffffffffffffffffffffffffffffffff811661086b5785516040515f917f09b3473100000000000000000000000000000000000000000000000000000000916107c3918a916024016125d1565b60408051601f198184030181529190526020810180517bffffffffffffffffffffffffffffffffffffffffffffffffffffffff167fffffffff0000000000000000000000000000000000000000000000000000000090931692909217909152905061082f8184876119b5565b6040517f4f9520330000000000000000000000000000000000000000000000000000000081526004016108629190612297565b60405180910390fd5b95945050505050565b5f61074f8383611a10565b3330146108ba576040517f5950c85e000000000000000000000000000000000000000000000000000000008152336004820152602401610862565b5f341180156108de575073ffffffffffffffffffffffffffffffffffffffff811615155b15610999575f8173ffffffffffffffffffffffffffffffffffffffff16346040515f6040518083038185875af1925050503d805f8114610939576040519150601f19603f3d011682016040523d82523d5f602084013e61093e565b606091505b5050905080610997576040517fc8ee485e00000000000000000000000000000000000000000000000000000000815273ffffffffffffffffffffffffffffffffffffffff83166004820152346024820152604401610862565b505b50565b5f8060605f6109ab8686611b24565b90505f6109b88787611b3c565b90505f6109c58888611b4b565b92989197509195509350505050565b7f000000000000000000000000000000000000000000000000000000000000000073ffffffffffffffffffffffffffffffffffffffff163314610a81576040517fefa9309d00000000000000000000000000000000000000000000000000000000815273ffffffffffffffffffffffffffffffffffffffff7f0000000000000000000000000000000000000000000000000000000000000000166004820152336024820152604401610862565b8673ffffffffffffffffffffffffffffffffffffffff167f000000000000000000000000000000000000000000000000000000000000000073ffffffffffffffffffffffffffffffffffffffff1614610b46576040517f86fee0c000000000000000000000000000000000000000000000000000000000815273ffffffffffffffffffffffffffffffffffffffff7f00000000000000000000000000000000000000000000000000000000000000008116600483015288166024820152604401610862565b5f805f60603073ffffffffffffffffffffffffffffffffffffffff16639180b7448a8a6040518363ffffffff1660e01b8152600401610b869291906125f2565b5f60405180830381865afa925050508015610bc257506040513d5f823e601f3d908101601f19168201604052610bbf9190810190612662565b60015b610c28573d808015610bef576040519150601f19603f3d011682016040523d82523d5f602084013e610bf4565b606091505b50806040517ed4895a0000000000000000000000000000000000000000000000000000000081526004016108629190612297565b919450925090506040517f5241b4960000000000000000000000000000000000000000000000000000000081523090635241b49690610c6f908490869088906004016126ae565b602060405180830381865afa925050508015610ca8575060408051601f3d908101601f19168201909252610ca5918101906126d2565b60015b610d2a573d808015610cd5576040519150601f19603f3d011682016040523d82523d5f602084013e610cda565b606091505b505f610ce6828a611b5a565b90507f612baef0082f9abcf6dc7b491d75346418381b75756830d7029939026d1b46b981604051610d179190612297565b60405180910390a1505050505050611045565b93503415610eac576040517fda001a2900000000000000000000000000000000000000000000000000000000815273ffffffffffffffffffffffffffffffffffffffff808616600483015234602483015288166044820152309063da001a29906064015f604051808303815f87803b158015610da4575f80fd5b505af1925050508015610db5575060015b610eac573d808015610de2576040519150601f19603f3d011682016040523d82523d5f602084013e610de7565b606091505b506040517f8483bc0000000000000000000000000000000000000000000000000000000000815273ffffffffffffffffffffffffffffffffffffffff861660048201523090638483bc009034906024015f604051808303818588803b158015610e4e575f80fd5b505af1158015610e60573d5f803e3d5ffd5b50505050505f610e70828a611b5a565b90507f612baef0082f9abcf6dc7b491d75346418381b75756830d7029939026d1b46b981604051610ea19190612297565b60405180910390a150505b6040517fd9acf0ec00000000000000000000000000000000000000000000000000000000815273ffffffffffffffffffffffffffffffffffffffff8516600482015260248101849052309063d9acf0ec906044015f604051808303815f87803b158015610f17575f80fd5b505af1925050508015610f28575060015b611040573d808015610f55576040519150601f19603f3d011682016040523d82523d5f602084013e610f5a565b606091505b506040517febaeefd600000000000000000000000000000000000000000000000000000000815273ffffffffffffffffffffffffffffffffffffffff8616600482015260248101859052309063ebaeefd6906044015f604051808303815f87803b158015610fc6575f80fd5b505af1158015610fd8573d5f803e3d5ffd5b50506001546040517f775ce5b47736b2186798494ee89239e4c0341b516c05bf613205d83ffbfffdc693506110369250889174010000000000000000000000000000000000000000900467ffffffffffffffff1690889086906126ed565b60405180910390a1505b505050505b50505050505050565b5f61105a8260016117a7565b8051909150156112415760015481516110ae9173ffffffffffffffffffffffffffffffffffffffff7f0000000000000000000000000000000000000000000000000000000000000000811692911690611ec0565b6001546040828101519051606086901b7fffffffffffffffffffffffffffffffffffffffff0000000000000000000000001660208201527401000000000000000000000000000000000000000090920460c090811b7fffffffffffffffff000000000000000000000000000000000000000000000000908116603485015291901b16603c8201525f9060440160405160208183030381529060405290505f6040518060400160405280600281526020017f16000000000000000000000000000000000000000000000000000000000000008152508260405160200161119492919061273b565b60408051601f19818403018152908290526111b191602001612769565b60408051601f19818403018152908290527f17938e130000000000000000000000000000000000000000000000000000000082529150733333333333333333333333333333333333333333906317938e1390611211908490600401612297565b5f604051808303815f87803b158015611228575f80fd5b505af115801561123a573d5f803e3d5ffd5b5050505050505b6020810151156112935760208101516112939073ffffffffffffffffffffffffffffffffffffffff7f000000000000000000000000000000000000000000000000000000000000000016908590611ec0565b505050565b5f6112a3835f6117a7565b60035481516040519293505f9273ffffffffffffffffffffffffffffffffffffffff909216918381818185875af1925050503d805f81146112ff576040519150601f19603f3d011682016040523d82523d5f602084013e611304565b606091505b5050905080611342576040517fb7e54a0700000000000000000000000000000000000000000000000000000000815260048101859052602401610862565b6003546040838101519051606088901b7fffffffffffffffffffffffffffffffffffffffff0000000000000000000000001660208201527401000000000000000000000000000000000000000090920460c090811b7fffffffffffffffff000000000000000000000000000000000000000000000000908116603485015291901b16603c8201525f9060440160405160208183030381529060405290505f6040518060400160405280600281526020017f16000000000000000000000000000000000000000000000000000000000000008152508260405160200161142892919061273b565b60408051601f198184030181529082905261144591602001612769565b60408051601f19818403018152908290527f17938e130000000000000000000000000000000000000000000000000000000082529150733333333333333333333333333333333333333333906317938e13906114a5908490600401612297565b5f604051808303815f87803b1580156114bc575f80fd5b505af11580156114ce573d5f803e3d5ffd5b505050506020840151156110455760208401516040517f8483bc0000000000000000000000000000000000000000000000000000000000815273ffffffffffffffffffffffffffffffffffffffff891660048201523091638483bc00916024015f604051808303818588803b158015611545575f80fd5b505af193505050508015611557575060015b6116a457602084015160405173ffffffffffffffffffffffffffffffffffffffff871691905f81818185875af1925050503d805f81146115b2576040519150601f19603f3d011682016040523d82523d5f602084013e6115b7565b606091505b5090935050821561161d576020808501516040805173ffffffffffffffffffffffffffffffffffffffff89168152928301919091527fbb643711c959f203f346d453edf6f91a40b637a95c46c992089c63726b8eaa1791015b60405180910390a1611045565b60208401516040513291905f81818185875af1925050503d805f811461165e576040519150601f19603f3d011682016040523d82523d5f602084013e611663565b606091505b505060208581015160408051328152928301919091529194507fbb643711c959f203f346d453edf6f91a40b637a95c46c992089c63726b8eaa179101611610565b6020808501516040805173ffffffffffffffffffffffffffffffffffffffff8b168152928301919091527fbb643711c959f203f346d453edf6f91a40b637a95c46c992089c63726b8eaa17910160405180910390a150505050505050565b33301461173d576040517f5950c85e000000000000000000000000000000000000000000000000000000008152336004820152602401610862565b5f81118015611761575073ffffffffffffffffffffffffffffffffffffffff821615155b156109975761099773ffffffffffffffffffffffffffffffffffffffff7f0000000000000000000000000000000000000000000000000000000000000000168383611ec0565b6117d260405180606001604052805f81526020015f81526020015f67ffffffffffffffff1681525090565b604080516060810182525f80825260208201819052918101829052908315611865576040805160608101825260015473ffffffffffffffffffffffffffffffffffffffff81168083527401000000000000000000000000000000000000000090910467ffffffffffffffff166020830181905260025460070b9383019390935290935061185e91611a10565b90506118d2565b6040805160608101825260035473ffffffffffffffffffffffffffffffffffffffff81168083527401000000000000000000000000000000000000000090910467ffffffffffffffff166020830181905260045460070b938301939093529093506118cf91611a10565b90505b61086b858284611f4d565b60606118ec8260448186612784565b8080601f0160208091040260200160405190810160405280939291908181526020018383808284375f92019190915250929695505050505050565b5f8173ffffffffffffffffffffffffffffffffffffffff811161194a5792915050565b505f92915050565b80515f907fffffffffffffffffffffffffffffffffffffffffffffffffffffffffffffffec810161199057611986836127ab565b60601c9392505050565b6020810361194a575f6119a2846127fa565b90506119ad81611927565b949350505050565b606060405180606001604052808473ffffffffffffffffffffffffffffffffffffffff168152602001838152602001858152506040516020016119f8919061283c565b60405160208183030381529060405290509392505050565b6040805173ffffffffffffffffffffffffffffffffffffffff8416602082015267ffffffffffffffff8316818301528151808203830181526060918201928390525f9283929161080191611a649190612769565b5f60405180830381855afa9150503d805f8114611a9c576040519150601f19603f3d011682016040523d82523d5f602084013e611aa1565b606091505b50909250905081611b06576040517fa91ed72100000000000000000000000000000000000000000000000000000000815273ffffffffffffffffffffffffffffffffffffffff8616600482015267ffffffffffffffff85166024820152604401610862565b80806020019051810190611b1a9190612880565b5195945050505050565b5f611b33602c600c8486612784565b61074f916128d2565b5f611b33604c602c8486612784565b60606118ec82604c8186612784565b6040517f03be20500000000000000000000000000000000000000000000000000000000081526060905f9030906303be205090611b9b908790600401612297565b5f60405180830381865afa158015611bb5573d5f803e3d5ffd5b505050506040513d5f823e601f3d908101601f19168201604052611bdc919081019061290e565b90505f81806020019051810190611bf39190612940565b805160208201516040517febaeefd600000000000000000000000000000000000000000000000000000000815273ffffffffffffffffffffffffffffffffffffffff90921660048301526024820152909150309063ebaeefd6906044015f604051808303815f87803b158015611c67575f80fd5b505af1925050508015611c78575060015b611cd25780516020808301516040805173ffffffffffffffffffffffffffffffffffffffff9094168452918301527feb907f6e0de6862ca2ced78e890a55c5e8352dc4051697356bc835abf7cedcac910160405180910390a15b80515f9073ffffffffffffffffffffffffffffffffffffffff1615611cf8578151611cfa565b845b6040517f8483bc0000000000000000000000000000000000000000000000000000000000815273ffffffffffffffffffffffffffffffffffffffff821660048201529091503090638483bc009034906024015f604051808303818588803b158015611d63575f80fd5b505af193505050508015611d75575060015b611eb3575f8573ffffffffffffffffffffffffffffffffffffffff16346040515f6040518083038185875af1925050503d805f8114611dcf576040519150601f19603f3d011682016040523d82523d5f602084013e611dd4565b606091505b505090508015611e31576040805173ffffffffffffffffffffffffffffffffffffffff881681523460208201527fbb643711c959f203f346d453edf6f91a40b637a95c46c992089c63726b8eaa17910160405180910390a1611eb1565b604051329034905f81818185875af1925050503d805f8114611e6e576040519150601f19603f3d011682016040523d82523d5f602084013e611e73565b606091505b5050604080513281523460208201529192507fbb643711c959f203f346d453edf6f91a40b637a95c46c992089c63726b8eaa17910160405180910390a15b505b5060400151949350505050565b6040805173ffffffffffffffffffffffffffffffffffffffff8416602482015260448082018490528251808303909101815260649091019091526020810180517bffffffffffffffffffffffffffffffffffffffffffffffffffffffff167fa9059cbb00000000000000000000000000000000000000000000000000000000179052611293908490612028565b611f7860405180606001604052805f81526020015f81526020015f67ffffffffffffffff1681525090565b5f805f80611f8e8767ffffffffffffffff6120cd565b90505f866040015160070b1315611fba57611fae888288604001516120f5565b91955093509150611ffc565b611ff4888288604001517fffffffffffffffffffffffffffffffffffffffffffffffffffffffffffffffff611fef91906129f2565b61216e565b919550935091505b5060408051606081018252938452602084019290925267ffffffffffffffff1690820152949350505050565b5f8060205f8451602086015f885af180612047576040513d5f823e3d81fd5b50505f513d9150811561205e578060011415612078565b73ffffffffffffffffffffffffffffffffffffffff84163b155b156120c7576040517f5274afe700000000000000000000000000000000000000000000000000000000815273ffffffffffffffffffffffffffffffffffffffff85166004820152602401610862565b50505050565b5f8167ffffffffffffffff168367ffffffffffffffff16116120ef578261074f565b50919050565b5f80808061210485600a612b36565b90505f61211b8267ffffffffffffffff8916612b4b565b90506121278289612b8f565b93506121338489612ba2565b975061213f88826121b8565b945061214b8589612ba2565b6121559085612bb5565b93506121618286612bc8565b9250505093509350939050565b5f80808061217d85600a612b36565b90505f6121948267ffffffffffffffff8916612bc8565b90506121a088826121b8565b94506121ac8589612ba2565b93506121618286612b4b565b5f8183116120ef578261074f565b5f8083601f8401126121d6575f80fd5b50813567ffffffffffffffff8111156121ed575f80fd5b602083019150836020828501011115612204575f80fd5b9250929050565b5f806020838503121561221c575f80fd5b823567ffffffffffffffff811115612232575f80fd5b61223e858286016121c6565b90969095509350505050565b5f5b8381101561226457818101518382015260200161224c565b50505f910152565b5f815180845261228381602086016020860161224a565b601f01601f19169290920160200192915050565b602081525f61074f602083018461226c565b5f602082840312156122b9575f80fd5b5035919050565b7f4e487b71000000000000000000000000000000000000000000000000000000005f52604160045260245ffd5b6040516060810167ffffffffffffffff81118282101715612310576123106122c0565b60405290565b604051601f8201601f1916810167ffffffffffffffff8111828210171561233f5761233f6122c0565b604052919050565b5f67ffffffffffffffff821115612360576123606122c0565b50601f01601f191660200190565b5f805f60608486031215612380575f80fd5b833567ffffffffffffffff811115612396575f80fd5b8401601f810186136123a6575f80fd5b80356123b96123b482612347565b612316565b8181528760208385010111156123cd575f80fd5b816020840160208301375f6020838301015280955050505060208401359150604084013590509250925092565b73ffffffffffffffffffffffffffffffffffffffff81168114610999575f80fd5b67ffffffffffffffff81168114610999575f80fd5b5f8060408385031215612441575f80fd5b823561244c816123fa565b9150602083013561245c8161241b565b809150509250929050565b5f60208284031215612477575f80fd5b8135612482816123fa565b9392505050565b838152826020820152606060408201525f61086b606083018461226c565b5f805f805f805f60a0888a0312156124bd575f80fd5b87356124c8816123fa565b965060208801359550604088013567ffffffffffffffff808211156124eb575f80fd5b6124f78b838c016121c6565b909750955060608a0135915061250c826123fa565b90935060808901359080821115612521575f80fd5b5061252e8a828b016121c6565b989b979a50959850939692959293505050565b5f8060408385031215612552575f80fd5b823561255d816123fa565b946020939093013593505050565b5f805f6060848603121561257d575f80fd5b8335612588816123fa565b925060208401359150604084013561259f816123fa565b809150509250925092565b5f80604083850312156125bb575f80fd5b823591506020830135801515811461245c575f80fd5b604081525f6125e3604083018561226c565b90508260208301529392505050565b60208152816020820152818360408301375f818301604090810191909152601f909201601f19160101919050565b5f82601f83011261262f575f80fd5b815161263d6123b482612347565b818152846020838601011115612651575f80fd5b6119ad82602083016020870161224a565b5f805f60608486031215612674575f80fd5b8351925060208401519150604084015167ffffffffffffffff811115612698575f80fd5b6126a486828701612620565b9150509250925092565b606081525f6126c0606083018661226c565b60208301949094525060400152919050565b5f602082840312156126e2575f80fd5b8151612482816123fa565b73ffffffffffffffffffffffffffffffffffffffff8516815267ffffffffffffffff84166020820152826040820152608060608201525f612731608083018461226c565b9695505050505050565b5f835161274c81846020880161224a565b83519083019061276081836020880161224a565b01949350505050565b5f825161277a81846020870161224a565b9190910192915050565b5f8085851115612792575f80fd5b8386111561279e575f80fd5b5050820193919092039150565b5f815160208301517fffffffffffffffffffffffffffffffffffffffff000000000000000000000000808216935060148310156127f25780818460140360031b1b83161693505b505050919050565b805160208083015191908110156120ef577fffffffffffffffffffffffffffffffffffffffffffffffffffffffffffffffff60209190910360031b1b16919050565b6020815273ffffffffffffffffffffffffffffffffffffffff8251166020820152602082015160408201525f60408301516060808401526119ad608084018261226c565b5f60608284031215612890575f80fd5b6128986122ed565b82516128a38161241b565b815260208301516128b38161241b565b602082015260408301516128c68161241b565b60408201529392505050565b80356020831015610752577fffffffffffffffffffffffffffffffffffffffffffffffffffffffffffffffff602084900360031b1b1692915050565b5f6020828403121561291e575f80fd5b815167ffffffffffffffff811115612934575f80fd5b6119ad84828501612620565b5f60208284031215612950575f80fd5b815167ffffffffffffffff80821115612967575f80fd5b908301906060828603121561297a575f80fd5b6129826122ed565b825161298d816123fa565b8152602083810151908201526040830151828111156129aa575f80fd5b6129b687828601612620565b60408301525095945050505050565b7f4e487b71000000000000000000000000000000000000000000000000000000005f52601160045260245ffd5b5f8260070b8260070b028060070b9150808214612a1157612a116129c5565b5092915050565b600181815b80851115612a7157817fffffffffffffffffffffffffffffffffffffffffffffffffffffffffffffffff04821115612a5757612a576129c5565b80851615612a6457918102915b93841c9390800290612a1d565b509250929050565b5f82612a8757506001610752565b81612a9357505f610752565b8160018114612aa95760028114612ab357612acf565b6001915050610752565b60ff841115612ac457612ac46129c5565b50506001821b610752565b5060208310610133831016604e8410600b8410161715612af2575081810a610752565b612afc8383612a18565b807fffffffffffffffffffffffffffffffffffffffffffffffffffffffffffffffff04821115612b2e57612b2e6129c5565b029392505050565b5f61074f67ffffffffffffffff841683612a79565b8082028115828204841417610752576107526129c5565b7f4e487b71000000000000000000000000000000000000000000000000000000005f52601260045260245ffd5b5f82612b9d57612b9d612b62565b500690565b81810381811115610752576107526129c5565b80820180821115610752576107526129c5565b5f82612bd657612bd6612b62565b50049056fea2646970667358221220d67d538afecf8c5ac410f9c65c6982c234ba0f872b932563ec815bb6779d65a864736f6c63430008160033",
    "linkReferences": {}
  },
  "methodIdentifiers": {
    "HLP_PRECOMPILE_READ_SPOT_BALANCE()": "ba872679",
    "HLP_PRECOMPILE_WRITE()": "dd850075",
    "HYPE_CHAIN_ID_MAINNET()": "5b9a2373",
    "HYPE_CHAIN_ID_TESTNET()": "20d9af9a",
    "HYPE_INDEX_MAINNET()": "d00b1ad5",
    "HYPE_INDEX_TESTNET()": "bc963bc7",
    "SPOT_SEND_HEADER()": "1f8164d9",
    "balanceOfHyperCore(address,uint64)": "81e8dcb4",
    "endpoint()": "5e280f11",
    "fundAddressOnHyperCore(address,uint256,address)": "da001a29",
    "getErrorPayload(bytes)": "03be2050",
    "getHypeAsset()": "aae12e46",
    "getOFTAsset()": "2d0e315c",
    "hypeAsset()": "f6e6b240",
    "hypeIndexByChainId(uint256)": "4bd162df",
    "lzCompose(address,bytes32,bytes,address,bytes)": "d0a10260",
    "oft()": "9b5215f6",
    "oftAsset()": "765008a1",
    "quoteHyperCoreAmount(uint256,bool)": "f9716faf",
    "refundERC20(address,uint256)": "ebaeefd6",
    "refundNativeTokens(address)": "8483bc00",
    "sendAssetToHyperCore(address,uint256)": "d9acf0ec",
    "token()": "fc0c546a",
    "validate_addresses_or_refund(bytes,bytes32,uint256)": "5241b496",
    "validate_message(bytes)": "9180b744"
  },
  "id": 0
}