{
  "abi": [
    {
      "type": "constructor",
      "inputs": [
        {
          "name": "_endpoint",
          "type": "address",
          "internalType": "address"
        },
        {
          "name": "_oft",
          "type": "address",
          "internalType": "address"
        },
        {
          "name": "_coreIndexId",
          "type": "uint64",
          "internalType": "uint64"
        },
        {
          "name": "_assetDecimalDiff",
          "type": "int64",
          "internalType": "int64"
        },
        {
          "name": "_REFUND_ADDRESS",
          "type": "address",
          "internalType": "address"
        }
      ],
      "stateMutability": "nonpayable"
    },
    {
      "type": "receive",
      "stateMutability": "payable"
    },
    {
      "type": "function",
      "name": "CORE_WRITER_VERSION",
      "inputs": [],
      "outputs": [
        {
          "name": "",
          "type": "bytes",
          "internalType": "bytes"
        }
      ],
      "stateMutability": "view"
    },
    {
      "type": "function",
      "name": "HLP_CORE_WRITER",
      "inputs": [],
      "outputs": [
        {
          "name": "",
          "type": "address",
          "internalType": "address"
        }
      ],
      "stateMutability": "view"
    },
    {
      "type": "function",
      "name": "HLP_PRECOMPILE_READ_SPOT_BALANCE",
      "inputs": [],
      "outputs": [
        {
          "name": "",
          "type": "address",
          "internalType": "address"
        }
      ],
      "stateMutability": "view"
    },
    {
      "type": "function",
      "name": "HYPE_CHAIN_ID_MAINNET",
      "inputs": [],
      "outputs": [
        {
          "name": "",
          "type": "uint256",
          "internalType": "uint256"
        }
      ],
      "stateMutability": "view"
    },
    {
      "type": "function",
      "name": "HYPE_CHAIN_ID_TESTNET",
      "inputs": [],
      "outputs": [
        {
          "name": "",
          "type": "uint256",
          "internalType": "uint256"
        }
      ],
      "stateMutability": "view"
    },
    {
      "type": "function",
      "name": "HYPE_INDEX_MAINNET",
      "inputs": [],
      "outputs": [
        {
          "name": "",
          "type": "uint64",
          "internalType": "uint64"
        }
      ],
      "stateMutability": "view"
    },
    {
      "type": "function",
      "name": "HYPE_INDEX_TESTNET",
      "inputs": [],
      "outputs": [
        {
          "name": "",
          "type": "uint64",
          "internalType": "uint64"
        }
      ],
      "stateMutability": "view"
    },
    {
      "type": "function",
      "name": "REFUND_ADDRESS",
      "inputs": [],
      "outputs": [
        {
          "name": "",
          "type": "address",
          "internalType": "address"
        }
      ],
      "stateMutability": "view"
    },
    {
      "type": "function",
      "name": "SPOT_SEND_ACTION_ID",
      "inputs": [],
      "outputs": [
        {
          "name": "",
          "type": "bytes",
          "internalType": "bytes"
        }
      ],
      "stateMutability": "view"
    },
    {
      "type": "function",
      "name": "SPOT_SEND_HEADER",
      "inputs": [],
      "outputs": [
        {
          "name": "",
          "type": "bytes",
          "internalType": "bytes"
        }
      ],
      "stateMutability": "view"
    },
    {
      "type": "function",
      "name": "balanceOfHyperCore",
      "inputs": [
        {
          "name": "_user",
          "type": "address",
          "internalType": "address"
        },
        {
          "name": "_tokenId",
          "type": "uint64",
          "internalType": "uint64"
        }
      ],
      "outputs": [
        {
          "name": "",
          "type": "uint64",
          "internalType": "uint64"
        }
      ],
      "stateMutability": "view"
    },
    {
      "type": "function",
      "name": "decode_message",
      "inputs": [
        {
          "name": "_composeMessage",
          "type": "bytes",
          "internalType": "bytes"
        }
      ],
      "outputs": [
        {
          "name": "minMsgValue",
          "type": "uint256",
          "internalType": "uint256"
        },
        {
          "name": "receiver",
          "type": "address",
          "internalType": "address"
        }
      ],
      "stateMutability": "pure"
    },
    {
      "type": "function",
      "name": "endpoint",
      "inputs": [],
      "outputs": [
        {
          "name": "",
          "type": "address",
          "internalType": "address"
        }
      ],
      "stateMutability": "view"
    },
    {
      "type": "function",
      "name": "failedMessages",
      "inputs": [
        {
          "name": "",
          "type": "bytes32",
          "internalType": "bytes32"
        }
      ],
      "outputs": [
        {
          "name": "refundSendParam",
          "type": "tuple",
          "internalType": "struct SendParam",
          "components": [
            {
              "name": "dstEid",
              "type": "uint32",
              "internalType": "uint32"
            },
            {
              "name": "to",
              "type": "bytes32",
              "internalType": "bytes32"
            },
            {
              "name": "amountLD",
              "type": "uint256",
              "internalType": "uint256"
            },
            {
              "name": "minAmountLD",
              "type": "uint256",
              "internalType": "uint256"
            },
            {
              "name": "extraOptions",
              "type": "bytes",
              "internalType": "bytes"
            },
            {
              "name": "composeMsg",
              "type": "bytes",
              "internalType": "bytes"
            },
            {
              "name": "oftCmd",
              "type": "bytes",
              "internalType": "bytes"
            }
          ]
        },
        {
          "name": "msgValue",
          "type": "uint256",
          "internalType": "uint256"
        }
      ],
      "stateMutability": "view"
    },
    {
      "type": "function",
      "name": "fundAddressOnHyperCore",
      "inputs": [
        {
          "name": "_receiver",
          "type": "address",
          "internalType": "address"
        },
        {
          "name": "_amount",
          "type": "uint256",
          "internalType": "uint256"
        },
        {
          "name": "_executor",
          "type": "address",
          "internalType": "address"
        }
      ],
      "outputs": [],
      "stateMutability": "nonpayable"
    },
    {
      "type": "function",
      "name": "getErrorPayload",
      "inputs": [
        {
          "name": "_err",
          "type": "bytes",
          "internalType": "bytes"
        }
      ],
      "outputs": [
        {
          "name": "",
          "type": "bytes",
          "internalType": "bytes"
        }
      ],
      "stateMutability": "pure"
    },
    {
      "type": "function",
      "name": "getHypeAsset",
      "inputs": [],
      "outputs": [
        {
          "name": "",
          "type": "tuple",
          "internalType": "struct IHyperAsset",
          "components": [
            {
              "name": "assetBridgeAddress",
              "type": "address",
              "internalType": "address"
            },
            {
              "name": "coreIndexId",
              "type": "uint64",
              "internalType": "uint64"
            },
            {
              "name": "decimalDiff",
              "type": "int64",
              "internalType": "int64"
            }
          ]
        }
      ],
      "stateMutability": "view"
    },
    {
      "type": "function",
      "name": "getOFTAsset",
      "inputs": [],
      "outputs": [
        {
          "name": "",
          "type": "tuple",
          "internalType": "struct IHyperAsset",
          "components": [
            {
              "name": "assetBridgeAddress",
              "type": "address",
              "internalType": "address"
            },
            {
              "name": "coreIndexId",
              "type": "uint64",
              "internalType": "uint64"
            },
            {
              "name": "decimalDiff",
              "type": "int64",
              "internalType": "int64"
            }
          ]
        }
      ],
      "stateMutability": "view"
    },
    {
      "type": "function",
      "name": "hypeAsset",
      "inputs": [],
      "outputs": [
        {
          "name": "assetBridgeAddress",
          "type": "address",
          "internalType": "address"
        },
        {
          "name": "coreIndexId",
          "type": "uint64",
          "internalType": "uint64"
        },
        {
          "name": "decimalDiff",
          "type": "int64",
          "internalType": "int64"
        }
      ],
      "stateMutability": "view"
    },
    {
      "type": "function",
      "name": "hypeIndexByChainId",
      "inputs": [
        {
          "name": "",
          "type": "uint256",
          "internalType": "uint256"
        }
      ],
      "outputs": [
        {
          "name": "",
          "type": "uint64",
          "internalType": "uint64"
        }
      ],
      "stateMutability": "view"
    },
    {
      "type": "function",
      "name": "lzCompose",
      "inputs": [
        {
          "name": "_oft",
          "type": "address",
          "internalType": "address"
        },
        {
          "name": "_guid",
          "type": "bytes32",
          "internalType": "bytes32"
        },
        {
          "name": "_message",
          "type": "bytes",
          "internalType": "bytes"
        },
        {
          "name": "_executor",
          "type": "address",
          "internalType": "address"
        },
        {
          "name": "",
          "type": "bytes",
          "internalType": "bytes"
        }
      ],
      "outputs": [],
      "stateMutability": "payable"
    },
    {
      "type": "function",
      "name": "oft",
      "inputs": [],
      "outputs": [
        {
          "name": "",
          "type": "address",
          "internalType": "contract IOFT"
        }
      ],
      "stateMutability": "view"
    },
    {
      "type": "function",
      "name": "oftAsset",
      "inputs": [],
      "outputs": [
        {
          "name": "assetBridgeAddress",
          "type": "address",
          "internalType": "address"
        },
        {
          "name": "coreIndexId",
          "type": "uint64",
          "internalType": "uint64"
        },
        {
          "name": "decimalDiff",
          "type": "int64",
          "internalType": "int64"
        }
      ],
      "stateMutability": "view"
    },
    {
      "type": "function",
      "name": "quoteHyperCoreAmount",
      "inputs": [
        {
          "name": "_amount",
          "type": "uint256",
          "internalType": "uint256"
        },
        {
          "name": "_isOFT",
          "type": "bool",
          "internalType": "bool"
        }
      ],
      "outputs": [
        {
          "name": "",
          "type": "tuple",
          "internalType": "struct IHyperAssetAmount",
          "components": [
            {
              "name": "evm",
              "type": "uint256",
              "internalType": "uint256"
            },
            {
              "name": "dust",
              "type": "uint256",
              "internalType": "uint256"
            },
            {
              "name": "core",
              "type": "uint64",
              "internalType": "uint64"
            }
          ]
        }
      ],
      "stateMutability": "view"
    },
    {
      "type": "function",
      "name": "refund",
      "inputs": [
        {
          "name": "_guid",
          "type": "bytes32",
          "internalType": "bytes32"
        }
      ],
      "outputs": [],
      "stateMutability": "payable"
    },
    {
      "type": "function",
      "name": "refundERC20",
      "inputs": [
        {
          "name": "_refundAddress",
          "type": "address",
          "internalType": "address"
        },
        {
          "name": "_amount",
          "type": "uint256",
          "internalType": "uint256"
        }
      ],
      "outputs": [],
      "stateMutability": "nonpayable"
    },
    {
      "type": "function",
      "name": "refundNativeTokens",
      "inputs": [
        {
          "name": "_refundAddress",
          "type": "address",
          "internalType": "address"
        }
      ],
      "outputs": [],
      "stateMutability": "payable"
    },
    {
      "type": "function",
      "name": "sendAssetToHyperCore",
      "inputs": [
        {
          "name": "_receiver",
          "type": "address",
          "internalType": "address"
        },
        {
          "name": "_amountLD",
          "type": "uint256",
          "internalType": "uint256"
        }
      ],
      "outputs": [],
      "stateMutability": "nonpayable"
    },
    {
      "type": "function",
      "name": "token",
      "inputs": [],
      "outputs": [
        {
          "name": "",
          "type": "address",
          "internalType": "contract IERC20"
        }
      ],
      "stateMutability": "view"
    },
    {
      "type": "event",
      "name": "ErrorERC20_Refund",
      "inputs": [
        {
          "name": "refundTo",
          "type": "address",
          "indexed": false,
          "internalType": "address"
        },
        {
          "name": "refundAmount",
          "type": "uint256",
          "indexed": false,
          "internalType": "uint256"
        }
      ],
      "anonymous": false
    },
    {
      "type": "event",
      "name": "ErrorHYPE_Refund",
      "inputs": [
        {
          "name": "refundTo",
          "type": "address",
          "indexed": false,
          "internalType": "address"
        },
        {
          "name": "refundAmount",
          "type": "uint256",
          "indexed": false,
          "internalType": "uint256"
        }
      ],
      "anonymous": false
    },
    {
      "type": "event",
      "name": "ErrorMessage",
      "inputs": [
        {
          "name": "reason",
          "type": "bytes",
          "indexed": false,
          "internalType": "bytes"
        }
      ],
      "anonymous": false
    },
    {
      "type": "event",
      "name": "ErrorSpot_FailedToSend",
      "inputs": [
        {
          "name": "to",
          "type": "address",
          "indexed": false,
          "internalType": "address"
        },
        {
          "name": "tokenId",
          "type": "uint64",
          "indexed": false,
          "internalType": "uint64"
        },
        {
          "name": "amount",
          "type": "uint256",
          "indexed": false,
          "internalType": "uint256"
        },
        {
          "name": "errorMessage",
          "type": "bytes",
          "indexed": false,
          "internalType": "bytes"
        }
      ],
      "anonymous": false
    },
    {
      "type": "event",
      "name": "ExcessHYPE_Refund",
      "inputs": [
        {
          "name": "refundTo",
          "type": "address",
          "indexed": false,
          "internalType": "address"
        },
        {
          "name": "refundAmount",
          "type": "uint256",
          "indexed": false,
          "internalType": "uint256"
        }
      ],
      "anonymous": false
    },
    {
      "type": "event",
      "name": "FailedMessageDecode",
      "inputs": [
        {
          "name": "guid",
          "type": "bytes32",
          "indexed": true,
          "internalType": "bytes32"
        },
        {
          "name": "sender",
          "type": "bytes32",
          "indexed": false,
          "internalType": "bytes32"
        },
        {
          "name": "msgValue",
          "type": "uint256",
          "indexed": false,
          "internalType": "uint256"
        },
        {
          "name": "composeMessage",
          "type": "bytes",
          "indexed": false,
          "internalType": "bytes"
        }
      ],
      "anonymous": false
    },
    {
      "type": "event",
      "name": "RefundSuccessful",
      "inputs": [
        {
          "name": "guid",
          "type": "bytes32",
          "indexed": true,
          "internalType": "bytes32"
        }
      ],
      "anonymous": false
    },
    {
      "type": "error",
      "name": "FailedMessageNotFound",
      "inputs": [
        {
          "name": "guid",
          "type": "bytes32",
          "internalType": "bytes32"
        }
      ]
    },
    {
      "type": "error",
      "name": "HyperLiquidComposerCore_SpotBalanceRead_Failed",
      "inputs": [
        {
          "name": "user",
          "type": "address",
          "internalType": "address"
        },
        {
          "name": "tokenId",
          "type": "uint64",
          "internalType": "uint64"
        }
      ]
    },
    {
      "type": "error",
      "name": "HyperLiquidComposer_ComposeMsgNot64Byte",
      "inputs": [
        {
          "name": "composeMessage",
          "type": "bytes",
          "internalType": "bytes"
        },
        {
          "name": "length",
          "type": "uint256",
          "internalType": "uint256"
        }
      ]
    },
    {
      "type": "error",
      "name": "HyperLiquidComposer_FailedToRefund_HYPE",
      "inputs": [
        {
          "name": "to",
          "type": "address",
          "internalType": "address"
        },
        {
          "name": "amount",
          "type": "uint256",
          "internalType": "uint256"
        }
      ]
    },
    {
      "type": "error",
      "name": "HyperLiquidComposer_FailedToSend_HYPE",
      "inputs": [
        {
          "name": "amount",
          "type": "uint256",
          "internalType": "uint256"
        }
      ]
    },
    {
      "type": "error",
      "name": "HyperLiquidComposer_InvalidArgument_EndpointShouldNotBeZeroAddress",
      "inputs": [
        {
          "name": "receivedEndpointAddress",
          "type": "address",
          "internalType": "address"
        }
      ]
    },
    {
      "type": "error",
      "name": "HyperLiquidComposer_InvalidCall_NotComposer",
      "inputs": [
        {
          "name": "notComposerAddress",
          "type": "address",
          "internalType": "address"
        }
      ]
    },
    {
      "type": "error",
      "name": "HyperLiquidComposer_InvalidCall_NotEndpoint",
      "inputs": [
        {
          "name": "notEndpointAddress",
          "type": "address",
          "internalType": "address"
        },
        {
          "name": "expectedEndpointAddress",
          "type": "address",
          "internalType": "address"
        }
      ]
    },
    {
      "type": "error",
      "name": "HyperLiquidComposer_InvalidCall_NotOFT",
      "inputs": [
        {
          "name": "internalOFTAddress",
          "type": "address",
          "internalType": "address"
        },
        {
          "name": "receivedOFTAddress",
          "type": "address",
          "internalType": "address"
        }
      ]
    },
    {
      "type": "error",
      "name": "NotEnoughMsgValue",
      "inputs": [
        {
          "name": "msgValue",
          "type": "uint256",
          "internalType": "uint256"
        },
        {
          "name": "requiredValue",
          "type": "uint256",
          "internalType": "uint256"
        }
      ]
    },
    {
      "type": "error",
      "name": "SafeERC20FailedOperation",
      "inputs": [
        {
          "name": "token",
          "type": "address",
          "internalType": "address"
        }
      ]
    }
  ],
  "bytecode": {
    "object": "0x61010060405234801562000011575f80fd5b50604051620035813803806200358183398101604081905262000034916200028d565b84846001600160a01b0382166200006d5760405163fb82c1f160e01b81526001600160a01b038316600482015260240160405180910390fd5b6001600160a01b03808316608052811660a081905260408051637e062a3560e11b8152905163fc0c546a916004808201926020929091908290030181865afa158015620000bc573d5f803e3d5ffd5b505050506040513d601f19601f82011682018060405250810190620000e291906200030e565b6001600160a01b031660c05250505f60208190527f2802b8ca0a4d9948ac89ce9ba15f4015f0f68c52469c4df23bbaf374f1d4604080546001600160401b0319908116610451179091556103e79091527f332eac5de6beffe8ee7761a0342c75594c3acb5fdde0a2555227e56aa65d4141805490911660961790556040805160608101909152806200017d6001600160401b0386166200025a565b6001600160a01b0390811682526001600160401b0395861660208084019190915260079590950b604092830152825160028054858801519284166001600160e01b031991821617600160a01b938a1684021790915593830151600380546001600160401b0319908116928a1692909217905583516060810185527322222222222222222222222222222222222222228152465f90815280895285902054909816968801879052600a938801849052965160048054918416919095161795029490941790915560058054909416179092551660e05250620003519050565b5f6200026b826001609d1b62000331565b92915050565b80516001600160a01b038116811462000288575f80fd5b919050565b5f805f805f60a08688031215620002a2575f80fd5b620002ad8662000271565b9450620002bd6020870162000271565b60408701519094506001600160401b0381168114620002da575f80fd5b8093505060608601518060070b8114620002f2575f80fd5b9150620003026080870162000271565b90509295509295909350565b5f602082840312156200031f575f80fd5b6200032a8262000271565b9392505050565b808201808211156200026b57634e487b7160e01b5f52601160045260245ffd5b60805160a05160c05160e0516131bd620003c45f395f81816106f70152610c3801525f81816107cd0152818161180c01528181611a4a0152611ff101525f818161056001528181610c09015281816110c4015261113b01525f818161040401528181611000015261107801526131bd5ff3fe6080604052600436106101bd575f3560e01c80639b5215f6116100f2578063d9acf0ec11610092578063f6e6b24011610062578063f6e6b24014610719578063f9716faf14610771578063fc0c546a146107bc578063fdea0482146107ef575f80fd5b8063d9acf0ec14610689578063da001a29146106a8578063ebaeefd6146106c7578063f1ae0e9b146106e6575f80fd5b8063ba872679116100cd578063ba87267914610638578063bc963bc71461064d578063d00b1ad514610662578063d0a1026014610676575f80fd5b80639b5215f61461054f578063a4e7f8bd14610582578063aae12e46146105af575f80fd5b80635b9a23731161015d578063765008a111610138578063765008a1146104605780637ecd9ac3146104f657806381e8dcb41461051d5780638483bc001461053c575f80fd5b80635b9a2373146103de5780635e280f11146103f35780637249fbb61461044b575f80fd5b806320d9af9a1161019857806320d9af9a1461025757806322dbe29c1461027a5780632d0e315c146102c25780634bd162df14610390575f80fd5b806303be2050146101c85780630d1995e0146101fd5780631f8164d914610243575f80fd5b366101c457005b5f80fd5b3480156101d3575f80fd5b506101e76101e23660046126fb565b610838565b6040516101f491906127a5565b60405180910390f35b348015610208575f80fd5b506101e76040518060400160405280600381526020017d06000000000000000000000000000000000000000000000000000000000081525081565b34801561024e575f80fd5b506101e761084d565b348015610262575f80fd5b5061026c6103e681565b6040519081526020016101f4565b348015610285575f80fd5b506101e76040518060400160405280600181526020017f010000000000000000000000000000000000000000000000000000000000000081525081565b3480156102cd575f80fd5b5061034b604080516060810182525f8082526020820181905291810191909152506040805160608101825260025473ffffffffffffffffffffffffffffffffffffffff8116825274010000000000000000000000000000000000000000900467ffffffffffffffff16602082015260035460070b9181019190915290565b60408051825173ffffffffffffffffffffffffffffffffffffffff16815260208084015167ffffffffffffffff16908201529181015160070b908201526060016101f4565b34801561039b575f80fd5b506103c56103aa3660046127b7565b5f6020819052908152604090205467ffffffffffffffff1681565b60405167ffffffffffffffff90911681526020016101f4565b3480156103e9575f80fd5b5061026c6103e781565b3480156103fe575f80fd5b506104267f000000000000000000000000000000000000000000000000000000000000000081565b60405173ffffffffffffffffffffffffffffffffffffffff90911681526020016101f4565b61045e6104593660046127b7565b6108d1565b005b34801561046b575f80fd5b506002546003546104b89173ffffffffffffffffffffffffffffffffffffffff8116917401000000000000000000000000000000000000000090910467ffffffffffffffff169060070b83565b6040805173ffffffffffffffffffffffffffffffffffffffff909416845267ffffffffffffffff909216602084015260070b908201526060016101f4565b348015610501575f80fd5b5061042673333333333333333333333333333333333333333381565b348015610528575f80fd5b506103c5610537366004612804565b610cd2565b61045e61054a36600461283b565b610cdd565b34801561055a575f80fd5b506104267f000000000000000000000000000000000000000000000000000000000000000081565b34801561058d575f80fd5b506105a161059c3660046127b7565b610dfa565b6040516101f49291906128d2565b3480156105ba575f80fd5b5061034b604080516060810182525f8082526020820181905291810191909152506040805160608101825260045473ffffffffffffffffffffffffffffffffffffffff8116825274010000000000000000000000000000000000000000900467ffffffffffffffff16602082015260055460070b9181019190915290565b348015610643575f80fd5b5061042661080181565b348015610658575f80fd5b506103c561045181565b34801561066d575f80fd5b506103c5609681565b61045e6106843660046128f3565b610ffe565b348015610694575f80fd5b5061045e6106a336600461298d565b61179b565b3480156106b3575f80fd5b5061045e6106c23660046129b7565b611a77565b3480156106d2575f80fd5b5061045e6106e136600461298d565b611f73565b3480156106f1575f80fd5b506104267f000000000000000000000000000000000000000000000000000000000000000081565b348015610724575f80fd5b506004546005546104b89173ffffffffffffffffffffffffffffffffffffffff8116917401000000000000000000000000000000000000000090910467ffffffffffffffff169060070b83565b34801561077c575f80fd5b5061079061078b3660046129f6565b612018565b6040805182518152602080840151908201529181015167ffffffffffffffff16908201526060016101f4565b3480156107c7575f80fd5b506104267f000000000000000000000000000000000000000000000000000000000000000081565b3480156107fa575f80fd5b5061080e6108093660046126fb565b612157565b6040805192835273ffffffffffffffffffffffffffffffffffffffff9091166020830152016101f4565b606061084483836121b0565b90505b92915050565b604080518082018252600181527f010000000000000000000000000000000000000000000000000000000000000060208083019190915282518084018452600381527d0600000000000000000000000000000000000000000000000000000000008183015292516108bf939101612a1d565b60405160208183030381529060405281565b5f818152600160208190526040808320815161012081018352815463ffffffff1692810192835292810154606084015260028101546080840152600381015460a0840152600481018054919284929091849160c08501919061093290612a4b565b80601f016020809104026020016040519081016040528092919081815260200182805461095e90612a4b565b80156109a95780601f10610980576101008083540402835291602001916109a9565b820191905f5260205f20905b81548152906001019060200180831161098c57829003601f168201915b505050505081526020016005820180546109c290612a4b565b80601f01602080910402602001604051908101604052809291908181526020018280546109ee90612a4b565b8015610a395780601f10610a1057610100808354040283529160200191610a39565b820191905f5260205f20905b815481529060010190602001808311610a1c57829003601f168201915b50505050508152602001600682018054610a5290612a4b565b80601f0160208091040260200160405190810160405280929190818152602001828054610a7e90612a4b565b8015610ac95780601f10610aa057610100808354040283529160200191610ac9565b820191905f5260205f20905b815481529060010190602001808311610aac57829003601f168201915b5050509190925250505081526007919091015460209182015281510151909150610b27576040517f0b948634000000000000000000000000000000000000000000000000000000008152600481018390526024015b60405180910390fd5b5f828152600160208190526040822080547fffffffffffffffffffffffffffffffffffffffffffffffffffffffff000000001681559081018290556002810182905560038101829055908181610b80600483018261266c565b610b8d600583015f61266c565b610b9a600683015f61266c565b5050600782015f905550505f348260200151610bb69190612ac3565b82516040805180820182528381525f602082015290517fc7c7f5b300000000000000000000000000000000000000000000000000000000815292935073ffffffffffffffffffffffffffffffffffffffff7f0000000000000000000000000000000000000000000000000000000000000000169263c7c7f5b3928592610c60927f000000000000000000000000000000000000000000000000000000000000000090600401612ad6565b60c06040518083038185885af1158015610c7c573d5f803e3d5ffd5b50505050506040513d601f19601f82011682018060405250810190610ca19190612bc2565b505060405183907fd41d02272333251e6367f747c63d5cc227dcac6b0c799067569e80a30f9da369905f90a2505050565b5f61084483836121fa565b333014610d18576040517f5950c85e000000000000000000000000000000000000000000000000000000008152336004820152602401610b1e565b5f34118015610d3c575073ffffffffffffffffffffffffffffffffffffffff811615155b15610df7575f8173ffffffffffffffffffffffffffffffffffffffff16346040515f6040518083038185875af1925050503d805f8114610d97576040519150601f19603f3d011682016040523d82523d5f602084013e610d9c565b606091505b5050905080610df5576040517fc8ee485e00000000000000000000000000000000000000000000000000000000815273ffffffffffffffffffffffffffffffffffffffff83166004820152346024820152604401610b1e565b505b50565b600160208181525f928352604092839020835160e081018552815463ffffffff16815292810154918301919091526002810154928201929092526003820154606082015260048201805483916080840191610e5490612a4b565b80601f0160208091040260200160405190810160405280929190818152602001828054610e8090612a4b565b8015610ecb5780601f10610ea257610100808354040283529160200191610ecb565b820191905f5260205f20905b815481529060010190602001808311610eae57829003601f168201915b50505050508152602001600582018054610ee490612a4b565b80601f0160208091040260200160405190810160405280929190818152602001828054610f1090612a4b565b8015610f5b5780601f10610f3257610100808354040283529160200191610f5b565b820191905f5260205f20905b815481529060010190602001808311610f3e57829003601f168201915b50505050508152602001600682018054610f7490612a4b565b80601f0160208091040260200160405190810160405280929190818152602001828054610fa090612a4b565b8015610feb5780601f10610fc257610100808354040283529160200191610feb565b820191905f5260205f20905b815481529060010190602001808311610fce57829003601f168201915b5050509190925250505060079091015482565b7f000000000000000000000000000000000000000000000000000000000000000073ffffffffffffffffffffffffffffffffffffffff1633146110ab576040517fefa9309d00000000000000000000000000000000000000000000000000000000815273ffffffffffffffffffffffffffffffffffffffff7f0000000000000000000000000000000000000000000000000000000000000000166004820152336024820152604401610b1e565b8673ffffffffffffffffffffffffffffffffffffffff167f000000000000000000000000000000000000000000000000000000000000000073ffffffffffffffffffffffffffffffffffffffff1614611170576040517f86fee0c000000000000000000000000000000000000000000000000000000000815273ffffffffffffffffffffffffffffffffffffffff7f00000000000000000000000000000000000000000000000000000000000000008116600483015288166024820152604401610b1e565b5f805f61117d888861230e565b90505f61118a8989612330565b90505f6111978a8a612348565b90505f6111a48b8b612357565b6040517ffdea0482000000000000000000000000000000000000000000000000000000008152909150309063fdea0482906111e39084906004016127a5565b6040805180830381865afa925050508015611239575060408051601f3d9081017fffffffffffffffffffffffffffffffffffffffffffffffffffffffffffffffe016820190925261123691810190612c2b565b60015b6113b3576112826040518060e001604052805f63ffffffff1681526020015f80191681526020015f81526020015f81526020016060815260200160608152602001606081525090565b84815f019063ffffffff16908163ffffffff1681525050828160200181815250508381604001818152505060405180604001604052808281526020013481525060015f8f81526020019081526020015f205f820151815f015f820151815f015f6101000a81548163ffffffff021916908363ffffffff16021790555060208201518160010155604082015181600201556060820151816003015560808201518160040190816113319190612c99565b5060a082015160058201906113469082612c99565b5060c0820151600682019061135b9082612c99565b505050602082015181600701559050508c7f387fc8f821460fa8221428c9f4dc1f6d5db4f6a0a01f33dbeaa8cebd95e5d14484348560405161139f93929190612db5565b60405180910390a250505050505050611792565b348211156113f6576040517f7877039200000000000000000000000000000000000000000000000000000000815234600482015260248101899052604401610b1e565b909650945034156115f7576040517fda001a2900000000000000000000000000000000000000000000000000000000815273ffffffffffffffffffffffffffffffffffffffff80871660048301523460248301528a166044820152309063da001a29906064015f604051808303815f87803b158015611473575f80fd5b505af1925050508015611484575060015b6115f7573d8080156114b1576040519150601f19603f3d011682016040523d82523d5f602084013e6114b6565b606091505b506040517f8483bc0000000000000000000000000000000000000000000000000000000000815273ffffffffffffffffffffffffffffffffffffffff871660048201523090638483bc009034906024015f604051808303818588803b15801561151d575f80fd5b505af19350505050801561152f575060015b6115be576040515f908190329034908381818185875af1925050503d805f8114611574576040519150601f19603f3d011682016040523d82523d5f602084013e611579565b606091505b5091509150816115bb577f612baef0082f9abcf6dc7b491d75346418381b75756830d7029939026d1b46b9816040516115b291906127a5565b60405180910390a15b50505b7f612baef0082f9abcf6dc7b491d75346418381b75756830d7029939026d1b46b9816040516115ed91906127a5565b60405180910390a1505b6040517fd9acf0ec00000000000000000000000000000000000000000000000000000000815273ffffffffffffffffffffffffffffffffffffffff8616600482015260248101849052309063d9acf0ec906044015f604051808303815f87803b158015611662575f80fd5b505af1925050508015611673575060015b61178b573d8080156116a0576040519150601f19603f3d011682016040523d82523d5f602084013e6116a5565b606091505b506040517febaeefd600000000000000000000000000000000000000000000000000000000815273ffffffffffffffffffffffffffffffffffffffff8716600482015260248101859052309063ebaeefd6906044015f604051808303815f87803b158015611711575f80fd5b505af1158015611723573d5f803e3d5ffd5b50506002546040517f775ce5b47736b2186798494ee89239e4c0341b516c05bf613205d83ffbfffdc693506117819250899174010000000000000000000000000000000000000000900467ffffffffffffffff169088908690612dd3565b60405180910390a1505b5050505050505b50505050505050565b3330146117d6576040517f5950c85e000000000000000000000000000000000000000000000000000000008152336004820152602401610b1e565b5f6117e2826001612018565b805190915015611a205760025481516118369173ffffffffffffffffffffffffffffffffffffffff7f0000000000000000000000000000000000000000000000000000000000000000811692911690612366565b600254604082810151815173ffffffffffffffffffffffffffffffffffffffff871660208201527401000000000000000000000000000000000000000090930467ffffffffffffffff908116928401929092521660608201525f90608001604080517fffffffffffffffffffffffffffffffffffffffffffffffffffffffffffffffe08184030181528282018252600183527f010000000000000000000000000000000000000000000000000000000000000060208481019190915282518084018452600381527d0600000000000000000000000000000000000000000000000000000000008183015292519194505f93611935939092909101612a1d565b604080517fffffffffffffffffffffffffffffffffffffffffffffffffffffffffffffffe081840301815290829052611972918490602001612a1d565b604080517fffffffffffffffffffffffffffffffffffffffffffffffffffffffffffffffe0818403018152908290527f17938e130000000000000000000000000000000000000000000000000000000082529150733333333333333333333333333333333333333333906317938e13906119f09084906004016127a5565b5f604051808303815f87803b158015611a07575f80fd5b505af1158015611a19573d5f803e3d5ffd5b5050505050505b602081015115611a72576020810151611a729073ffffffffffffffffffffffffffffffffffffffff7f000000000000000000000000000000000000000000000000000000000000000016908590612366565b505050565b333014611ab2576040517f5950c85e000000000000000000000000000000000000000000000000000000008152336004820152602401610b1e565b5f611abd835f612018565b60045481516040519293505f9273ffffffffffffffffffffffffffffffffffffffff909216918381818185875af1925050503d805f8114611b19576040519150601f19603f3d011682016040523d82523d5f602084013e611b1e565b606091505b5050905080611b5c576040517fb7e54a0700000000000000000000000000000000000000000000000000000000815260048101859052602401610b1e565b600454604083810151815173ffffffffffffffffffffffffffffffffffffffff891660208201527401000000000000000000000000000000000000000090930467ffffffffffffffff908116928401929092521660608201525f90608001604080517fffffffffffffffffffffffffffffffffffffffffffffffffffffffffffffffe08184030181528282018252600183527f010000000000000000000000000000000000000000000000000000000000000060208481019190915282518084018452600381527d0600000000000000000000000000000000000000000000000000000000008183015292519194505f93611c5b939092909101612a1d565b604080517fffffffffffffffffffffffffffffffffffffffffffffffffffffffffffffffe081840301815290829052611c98918490602001612a1d565b604080517fffffffffffffffffffffffffffffffffffffffffffffffffffffffffffffffe0818403018152908290527f17938e130000000000000000000000000000000000000000000000000000000082529150733333333333333333333333333333333333333333906317938e1390611d169084906004016127a5565b5f604051808303815f87803b158015611d2d575f80fd5b505af1158015611d3f573d5f803e3d5ffd5b505050506020840151156117925760208401516040517f8483bc0000000000000000000000000000000000000000000000000000000000815273ffffffffffffffffffffffffffffffffffffffff891660048201523091638483bc00916024015f604051808303818588803b158015611db6575f80fd5b505af193505050508015611dc8575060015b611f1557602084015160405173ffffffffffffffffffffffffffffffffffffffff871691905f81818185875af1925050503d805f8114611e23576040519150601f19603f3d011682016040523d82523d5f602084013e611e28565b606091505b50909350508215611e8e576020808501516040805173ffffffffffffffffffffffffffffffffffffffff89168152928301919091527fbb643711c959f203f346d453edf6f91a40b637a95c46c992089c63726b8eaa1791015b60405180910390a1611792565b60208401516040513291905f81818185875af1925050503d805f8114611ecf576040519150601f19603f3d011682016040523d82523d5f602084013e611ed4565b606091505b505060208581015160408051328152928301919091529194507fbb643711c959f203f346d453edf6f91a40b637a95c46c992089c63726b8eaa179101611e81565b6020808501516040805173ffffffffffffffffffffffffffffffffffffffff8b168152928301919091527fbb643711c959f203f346d453edf6f91a40b637a95c46c992089c63726b8eaa17910160405180910390a150505050505050565b333014611fae576040517f5950c85e000000000000000000000000000000000000000000000000000000008152336004820152602401610b1e565b5f81118015611fd2575073ffffffffffffffffffffffffffffffffffffffff821615155b15610df557610df573ffffffffffffffffffffffffffffffffffffffff7f0000000000000000000000000000000000000000000000000000000000000000168383612366565b61204360405180606001604052805f81526020015f81526020015f67ffffffffffffffff1681525090565b604080516060810182525f808252602082018190529181018290529083156120d6576040805160608101825260025473ffffffffffffffffffffffffffffffffffffffff81168083527401000000000000000000000000000000000000000090910467ffffffffffffffff166020830181905260035460070b938301939093529093506120cf916121fa565b9050612143565b6040805160608101825260045473ffffffffffffffffffffffffffffffffffffffff81168083527401000000000000000000000000000000000000000090910467ffffffffffffffff166020830181905260055460070b93830193909352909350612140916121fa565b90505b61214e8582846123f3565b95945050505050565b5f8060408314612199576040517f741c7e80000000000000000000000000000000000000000000000000000000008152610b1e90859085908190600401612e21565b6121a583850185612e76565b909590945092505050565b60606121bf8260448186612e99565b8080601f0160208091040260200160405190810160405280939291908181526020018383808284375f92019190915250929695505050505050565b6040805173ffffffffffffffffffffffffffffffffffffffff8416602082015267ffffffffffffffff8316818301528151808203830181526060918201928390525f928392916108019161224e9190612ec0565b5f60405180830381855afa9150503d805f8114612286576040519150601f19603f3d011682016040523d82523d5f602084013e61228b565b606091505b509092509050816122f0576040517fa91ed72100000000000000000000000000000000000000000000000000000000815273ffffffffffffffffffffffffffffffffffffffff8616600482015267ffffffffffffffff85166024820152604401610b1e565b808060200190518101906123049190612edb565b5195945050505050565b5f61231d600c60088486612e99565b61232691612f2d565b60e01c9392505050565b5f61233f602c600c8486612e99565b61084491612f75565b5f61233f604c602c8486612e99565b60606121bf82604c8186612e99565b6040805173ffffffffffffffffffffffffffffffffffffffff8416602482015260448082018490528251808303909101815260649091019091526020810180517bffffffffffffffffffffffffffffffffffffffffffffffffffffffff167fa9059cbb00000000000000000000000000000000000000000000000000000000179052611a729084906124ce565b61241e60405180606001604052805f81526020015f81526020015f67ffffffffffffffff1681525090565b5f805f806124348767ffffffffffffffff612573565b90505f866040015160070b1315612460576124548882886040015161259b565b919550935091506124a2565b61249a888288604001517fffffffffffffffffffffffffffffffffffffffffffffffffffffffffffffffff6124959190612fb1565b612614565b919550935091505b5060408051606081018252938452602084019290925267ffffffffffffffff1690820152949350505050565b5f8060205f8451602086015f885af1806124ed576040513d5f823e3d81fd5b50505f513d9150811561250457806001141561251e565b73ffffffffffffffffffffffffffffffffffffffff84163b155b1561256d576040517f5274afe700000000000000000000000000000000000000000000000000000000815273ffffffffffffffffffffffffffffffffffffffff85166004820152602401610b1e565b50505050565b5f8167ffffffffffffffff168367ffffffffffffffff16116125955782610844565b50919050565b5f8080806125aa85600a6130f5565b90505f6125c18267ffffffffffffffff891661310a565b90506125cd828961314e565b93506125d98489613161565b97506125e5888261265e565b94506125f18589613161565b6125fb9085612ac3565b93506126078286613174565b9250505093509350939050565b5f80808061262385600a6130f5565b90505f61263a8267ffffffffffffffff8916613174565b9050612646888261265e565b94506126528589613161565b9350612607828661310a565b5f8183116125955782610844565b50805461267890612a4b565b5f825580601f10612687575050565b601f0160209004905f5260205f2090810190610df791905b808211156126b2575f815560010161269f565b5090565b5f8083601f8401126126c6575f80fd5b50813567ffffffffffffffff8111156126dd575f80fd5b6020830191508360208285010111156126f4575f80fd5b9250929050565b5f806020838503121561270c575f80fd5b823567ffffffffffffffff811115612722575f80fd5b61272e858286016126b6565b90969095509350505050565b5f5b8381101561275457818101518382015260200161273c565b50505f910152565b5f815180845261277381602086016020860161273a565b601f017fffffffffffffffffffffffffffffffffffffffffffffffffffffffffffffffe0169290920160200192915050565b602081525f610844602083018461275c565b5f602082840312156127c7575f80fd5b5035919050565b73ffffffffffffffffffffffffffffffffffffffff81168114610df7575f80fd5b67ffffffffffffffff81168114610df7575f80fd5b5f8060408385031215612815575f80fd5b8235612820816127ce565b91506020830135612830816127ef565b809150509250929050565b5f6020828403121561284b575f80fd5b8135612856816127ce565b9392505050565b63ffffffff81511682526020810151602083015260408101516040830152606081015160608301525f608082015160e0608085015261289f60e085018261275c565b905060a083015184820360a08601526128b8828261275c565b91505060c083015184820360c086015261214e828261275c565b604081525f6128e4604083018561285d565b90508260208301529392505050565b5f805f805f805f60a0888a031215612909575f80fd5b8735612914816127ce565b965060208801359550604088013567ffffffffffffffff80821115612937575f80fd5b6129438b838c016126b6565b909750955060608a01359150612958826127ce565b9093506080890135908082111561296d575f80fd5b5061297a8a828b016126b6565b989b979a50959850939692959293505050565b5f806040838503121561299e575f80fd5b82356129a9816127ce565b946020939093013593505050565b5f805f606084860312156129c9575f80fd5b83356129d4816127ce565b92506020840135915060408401356129eb816127ce565b809150509250925092565b5f8060408385031215612a07575f80fd5b8235915060208301358015158114612830575f80fd5b5f8351612a2e81846020880161273a565b835190830190612a4281836020880161273a565b01949350505050565b600181811c90821680612a5f57607f821691505b602082108103612595577f4e487b71000000000000000000000000000000000000000000000000000000005f52602260045260245ffd5b7f4e487b71000000000000000000000000000000000000000000000000000000005f52601160045260245ffd5b8082018082111561084757610847612a96565b608081525f612ae8608083018661285d565b9050835160208301526020840151604083015273ffffffffffffffffffffffffffffffffffffffff83166060830152949350505050565b7f4e487b71000000000000000000000000000000000000000000000000000000005f52604160045260245ffd5b6040516060810167ffffffffffffffff81118282101715612b6f57612b6f612b1f565b60405290565b5f60408284031215612b85575f80fd5b6040516040810181811067ffffffffffffffff82111715612ba857612ba8612b1f565b604052825181526020928301519281019290925250919050565b5f8082840360c0811215612bd4575f80fd5b6080811215612be1575f80fd5b50612bea612b4c565b835181526020840151612bfc816127ef565b6020820152612c0e8560408601612b75565b60408201529150612c228460808501612b75565b90509250929050565b5f8060408385031215612c3c575f80fd5b825191506020830151612830816127ce565b601f821115611a7257805f5260205f20601f840160051c81016020851015612c735750805b601f840160051c820191505b81811015612c92575f8155600101612c7f565b5050505050565b815167ffffffffffffffff811115612cb357612cb3612b1f565b612cc781612cc18454612a4b565b84612c4e565b602080601f831160018114612d19575f8415612ce35750858301515b7fffffffffffffffffffffffffffffffffffffffffffffffffffffffffffffffff600386901b1c1916600185901b178555612dad565b5f858152602081207fffffffffffffffffffffffffffffffffffffffffffffffffffffffffffffffe08616915b82811015612d6557888601518255948401946001909101908401612d46565b5085821015612da157878501517fffffffffffffffffffffffffffffffffffffffffffffffffffffffffffffffff600388901b60f8161c191681555b505060018460011b0185555b505050505050565b838152826020820152606060408201525f61214e606083018461275c565b73ffffffffffffffffffffffffffffffffffffffff8516815267ffffffffffffffff84166020820152826040820152608060608201525f612e17608083018461275c565b9695505050505050565b60408152826040820152828460608301375f606084830101525f60607fffffffffffffffffffffffffffffffffffffffffffffffffffffffffffffffe0601f8601168301019050826020830152949350505050565b5f8060408385031215612e87575f80fd5b823591506020830135612830816127ce565b5f8085851115612ea7575f80fd5b83861115612eb3575f80fd5b5050820193919092039150565b5f8251612ed181846020870161273a565b9190910192915050565b5f60608284031215612eeb575f80fd5b612ef3612b4c565b8251612efe816127ef565b81526020830151612f0e816127ef565b60208201526040830151612f21816127ef565b60408201529392505050565b7fffffffff000000000000000000000000000000000000000000000000000000008135818116916004851015612f6d5780818660040360031b1b83161692505b505092915050565b80356020831015610847577fffffffffffffffffffffffffffffffffffffffffffffffffffffffffffffffff602084900360031b1b1692915050565b5f8260070b8260070b028060070b9150808214612fd057612fd0612a96565b5092915050565b600181815b8085111561303057817fffffffffffffffffffffffffffffffffffffffffffffffffffffffffffffffff0482111561301657613016612a96565b8085161561302357918102915b93841c9390800290612fdc565b509250929050565b5f8261304657506001610847565b8161305257505f610847565b816001811461306857600281146130725761308e565b6001915050610847565b60ff84111561308357613083612a96565b50506001821b610847565b5060208310610133831016604e8410600b84101617156130b1575081810a610847565b6130bb8383612fd7565b807fffffffffffffffffffffffffffffffffffffffffffffffffffffffffffffffff048211156130ed576130ed612a96565b029392505050565b5f61084467ffffffffffffffff841683613038565b808202811582820484141761084757610847612a96565b7f4e487b71000000000000000000000000000000000000000000000000000000005f52601260045260245ffd5b5f8261315c5761315c613121565b500690565b8181038181111561084757610847612a96565b5f8261318257613182613121565b50049056fea264697066735822122051c13c9af3b11109e204f5e85e7802e976f759663725ecf71871df9c815f7d8c64736f6c63430008160033",
    "linkReferences": {}
  },
  "methodIdentifiers": {
    "CORE_WRITER_VERSION()": "22dbe29c",
    "HLP_CORE_WRITER()": "7ecd9ac3",
    "HLP_PRECOMPILE_READ_SPOT_BALANCE()": "ba872679",
    "HYPE_CHAIN_ID_MAINNET()": "5b9a2373",
    "HYPE_CHAIN_ID_TESTNET()": "20d9af9a",
    "HYPE_INDEX_MAINNET()": "d00b1ad5",
    "HYPE_INDEX_TESTNET()": "bc963bc7",
    "REFUND_ADDRESS()": "f1ae0e9b",
    "SPOT_SEND_ACTION_ID()": "0d1995e0",
    "SPOT_SEND_HEADER()": "1f8164d9",
    "balanceOfHyperCore(address,uint64)": "81e8dcb4",
    "decode_message(bytes)": "fdea0482",
    "endpoint()": "5e280f11",
    "failedMessages(bytes32)": "a4e7f8bd",
    "fundAddressOnHyperCore(address,uint256,address)": "da001a29",
    "getErrorPayload(bytes)": "03be2050",
    "getHypeAsset()": "aae12e46",
    "getOFTAsset()": "2d0e315c",
    "hypeAsset()": "f6e6b240",
    "hypeIndexByChainId(uint256)": "4bd162df",
    "lzCompose(address,bytes32,bytes,address,bytes)": "d0a10260",
    "oft()": "9b5215f6",
    "oftAsset()": "765008a1",
    "quoteHyperCoreAmount(uint256,bool)": "f9716faf",
    "refund(bytes32)": "7249fbb6",
    "refundERC20(address,uint256)": "ebaeefd6",
    "refundNativeTokens(address)": "8483bc00",
    "sendAssetToHyperCore(address,uint256)": "d9acf0ec",
    "token()": "fc0c546a"
  },
  "id": 0
}