{
  "abi": [
    {
      "type": "constructor",
      "inputs": [
        {
          "name": "_oft",
          "type": "address",
          "internalType": "address"
        },
        {
          "name": "_coreIndexId",
          "type": "uint64",
          "internalType": "uint64"
        },
        {
          "name": "_assetDecimalDiff",
          "type": "int64",
          "internalType": "int64"
        },
        {
          "name": "_REFUND_ADDRESS",
          "type": "address",
          "internalType": "address"
        }
      ],
      "stateMutability": "nonpayable"
    },
    {
      "type": "receive",
      "stateMutability": "payable"
    },
    {
      "type": "function",
      "name": "CORE_WRITER_VERSION",
      "inputs": [],
      "outputs": [
        {
          "name": "",
          "type": "bytes1",
          "internalType": "bytes1"
        }
      ],
      "stateMutability": "view"
    },
    {
      "type": "function",
      "name": "ENDPOINT",
      "inputs": [],
      "outputs": [
        {
          "name": "",
          "type": "address",
          "internalType": "address"
        }
      ],
      "stateMutability": "view"
    },
    {
      "type": "function",
      "name": "MIN_GAS",
      "inputs": [],
      "outputs": [
        {
          "name": "",
          "type": "uint256",
          "internalType": "uint256"
        }
      ],
      "stateMutability": "view"
    },
    {
      "type": "function",
      "name": "NATIVE_TRANSFER_GAS",
      "inputs": [],
      "outputs": [
        {
          "name": "",
          "type": "uint256",
          "internalType": "uint256"
        }
      ],
      "stateMutability": "view"
    },
    {
      "type": "function",
      "name": "OFT",
      "inputs": [],
      "outputs": [
        {
          "name": "",
          "type": "address",
          "internalType": "address"
        }
      ],
      "stateMutability": "view"
    },
    {
      "type": "function",
      "name": "REFUND_ADDRESS",
      "inputs": [],
      "outputs": [
        {
          "name": "",
          "type": "address",
          "internalType": "address"
        }
      ],
      "stateMutability": "view"
    },
    {
      "type": "function",
      "name": "SPOT_SEND_ACTION_ID",
      "inputs": [],
      "outputs": [
        {
          "name": "",
          "type": "bytes3",
          "internalType": "bytes3"
        }
      ],
      "stateMutability": "view"
    },
    {
      "type": "function",
      "name": "SPOT_SEND_HEADER",
      "inputs": [],
      "outputs": [
        {
          "name": "",
          "type": "bytes4",
          "internalType": "bytes4"
        }
      ],
      "stateMutability": "view"
    },
    {
      "type": "function",
      "name": "TOKEN",
      "inputs": [],
      "outputs": [
        {
          "name": "",
          "type": "address",
          "internalType": "address"
        }
      ],
      "stateMutability": "view"
    },
    {
      "type": "function",
      "name": "VALID_COMPOSE_MSG_LEN",
      "inputs": [],
      "outputs": [
        {
          "name": "",
          "type": "uint256",
          "internalType": "uint256"
        }
      ],
      "stateMutability": "view"
    },
    {
      "type": "function",
      "name": "coreUserExists",
      "inputs": [
        {
          "name": "user",
          "type": "address",
          "internalType": "address"
        }
      ],
      "outputs": [
        {
          "name": "",
          "type": "tuple",
          "internalType": "struct CoreUserExists",
          "components": [
            {
              "name": "exists",
              "type": "bool",
              "internalType": "bool"
            }
          ]
        }
      ],
      "stateMutability": "view"
    },
    {
      "type": "function",
      "name": "decode_message",
      "inputs": [
        {
          "name": "_composeMessage",
          "type": "bytes",
          "internalType": "bytes"
        }
      ],
      "outputs": [
        {
          "name": "minMsgValue",
          "type": "uint256",
          "internalType": "uint256"
        },
        {
          "name": "receiver",
          "type": "address",
          "internalType": "address"
        }
      ],
      "stateMutability": "pure"
    },
    {
      "type": "function",
      "name": "failedMessages",
      "inputs": [
        {
          "name": "",
          "type": "bytes32",
          "internalType": "bytes32"
        }
      ],
      "outputs": [
        {
          "name": "refundSendParam",
          "type": "tuple",
          "internalType": "struct SendParam",
          "components": [
            {
              "name": "dstEid",
              "type": "uint32",
              "internalType": "uint32"
            },
            {
              "name": "to",
              "type": "bytes32",
              "internalType": "bytes32"
            },
            {
              "name": "amountLD",
              "type": "uint256",
              "internalType": "uint256"
            },
            {
              "name": "minAmountLD",
              "type": "uint256",
              "internalType": "uint256"
            },
            {
              "name": "extraOptions",
              "type": "bytes",
              "internalType": "bytes"
            },
            {
              "name": "composeMsg",
              "type": "bytes",
              "internalType": "bytes"
            },
            {
              "name": "oftCmd",
              "type": "bytes",
              "internalType": "bytes"
            }
          ]
        },
        {
          "name": "msgValue",
          "type": "uint256",
          "internalType": "uint256"
        }
      ],
      "stateMutability": "view"
    },
    {
      "type": "function",
      "name": "handleCoreTransfers",
      "inputs": [
        {
          "name": "_receiver",
          "type": "address",
          "internalType": "address"
        },
        {
          "name": "_amount",
          "type": "uint256",
          "internalType": "uint256"
        }
      ],
      "outputs": [
        {
          "name": "dustHYPE",
          "type": "uint256",
          "internalType": "uint256"
        },
        {
          "name": "dustERC20",
          "type": "uint256",
          "internalType": "uint256"
        }
      ],
      "stateMutability": "payable"
    },
    {
      "type": "function",
      "name": "hypeAsset",
      "inputs": [],
      "outputs": [
        {
          "name": "coreIndexId",
          "type": "uint64",
          "internalType": "uint64"
        },
        {
          "name": "decimalDiff",
          "type": "int64",
          "internalType": "int64"
        },
        {
          "name": "assetBridgeAddress",
          "type": "address",
          "internalType": "address"
        }
      ],
      "stateMutability": "view"
    },
    {
      "type": "function",
      "name": "hypeIndexByChainId",
      "inputs": [
        {
          "name": "",
          "type": "uint256",
          "internalType": "uint256"
        }
      ],
      "outputs": [
        {
          "name": "",
          "type": "uint64",
          "internalType": "uint64"
        }
      ],
      "stateMutability": "view"
    },
    {
      "type": "function",
      "name": "lzCompose",
      "inputs": [
        {
          "name": "_oft",
          "type": "address",
          "internalType": "address"
        },
        {
          "name": "_guid",
          "type": "bytes32",
          "internalType": "bytes32"
        },
        {
          "name": "_message",
          "type": "bytes",
          "internalType": "bytes"
        },
        {
          "name": "",
          "type": "address",
          "internalType": "address"
        },
        {
          "name": "",
          "type": "bytes",
          "internalType": "bytes"
        }
      ],
      "outputs": [],
      "stateMutability": "payable"
    },
    {
      "type": "function",
      "name": "oftAsset",
      "inputs": [],
      "outputs": [
        {
          "name": "coreIndexId",
          "type": "uint64",
          "internalType": "uint64"
        },
        {
          "name": "decimalDiff",
          "type": "int64",
          "internalType": "int64"
        },
        {
          "name": "assetBridgeAddress",
          "type": "address",
          "internalType": "address"
        }
      ],
      "stateMutability": "view"
    },
    {
      "type": "function",
      "name": "quoteHyperCoreAmount",
      "inputs": [
        {
          "name": "_amount",
          "type": "uint256",
          "internalType": "uint256"
        },
        {
          "name": "_isOFT",
          "type": "bool",
          "internalType": "bool"
        }
      ],
      "outputs": [
        {
          "name": "",
          "type": "tuple",
          "internalType": "struct IHyperAssetAmount",
          "components": [
            {
              "name": "evm",
              "type": "uint256",
              "internalType": "uint256"
            },
            {
              "name": "dust",
              "type": "uint256",
              "internalType": "uint256"
            },
            {
              "name": "core",
              "type": "uint64",
              "internalType": "uint64"
            }
          ]
        }
      ],
      "stateMutability": "view"
    },
    {
      "type": "function",
      "name": "refundToSrc",
      "inputs": [
        {
          "name": "_guid",
          "type": "bytes32",
          "internalType": "bytes32"
        }
      ],
      "outputs": [],
      "stateMutability": "payable"
    },
    {
      "type": "function",
      "name": "spotBalance",
      "inputs": [
        {
          "name": "user",
          "type": "address",
          "internalType": "address"
        },
        {
          "name": "token",
          "type": "uint64",
          "internalType": "uint64"
        }
      ],
      "outputs": [
        {
          "name": "",
          "type": "tuple",
          "internalType": "struct SpotBalance",
          "components": [
            {
              "name": "total",
              "type": "uint64",
              "internalType": "uint64"
            },
            {
              "name": "hold",
              "type": "uint64",
              "internalType": "uint64"
            },
            {
              "name": "entryNtl",
              "type": "uint64",
              "internalType": "uint64"
            }
          ]
        }
      ],
      "stateMutability": "view"
    },
    {
      "type": "event",
      "name": "CompleteRefund",
      "inputs": [],
      "anonymous": false
    },
    {
      "type": "event",
      "name": "FailedMessageDecode",
      "inputs": [
        {
          "name": "guid",
          "type": "bytes32",
          "indexed": true,
          "internalType": "bytes32"
        },
        {
          "name": "sender",
          "type": "bytes32",
          "indexed": false,
          "internalType": "bytes32"
        },
        {
          "name": "msgValue",
          "type": "uint256",
          "indexed": false,
          "internalType": "uint256"
        },
        {
          "name": "composeMessage",
          "type": "bytes",
          "indexed": false,
          "internalType": "bytes"
        }
      ],
      "anonymous": false
    },
    {
      "type": "event",
      "name": "RefundHyperEVM",
      "inputs": [
        {
          "name": "receiver",
          "type": "address",
          "indexed": true,
          "internalType": "address"
        },
        {
          "name": "amountERC20",
          "type": "uint256",
          "indexed": true,
          "internalType": "uint256"
        },
        {
          "name": "amountHYPE",
          "type": "uint256",
          "indexed": true,
          "internalType": "uint256"
        }
      ],
      "anonymous": false
    },
    {
      "type": "event",
      "name": "RefundSuccessful",
      "inputs": [
        {
          "name": "guid",
          "type": "bytes32",
          "indexed": true,
          "internalType": "bytes32"
        }
      ],
      "anonymous": false
    },
    {
      "type": "error",
      "name": "ComposeMsgLengthNot64Bytes",
      "inputs": [
        {
          "name": "length",
          "type": "uint256",
          "internalType": "uint256"
        }
      ]
    },
    {
      "type": "error",
      "name": "CoreUserNotActivated",
      "inputs": []
    },
    {
      "type": "error",
      "name": "FailedMessageNotFound",
      "inputs": [
        {
          "name": "guid",
          "type": "bytes32",
          "internalType": "bytes32"
        }
      ]
    },
    {
      "type": "error",
      "name": "InsufficientGas",
      "inputs": [
        {
          "name": "gasLeft",
          "type": "uint256",
          "internalType": "uint256"
        },
        {
          "name": "minGas",
          "type": "uint256",
          "internalType": "uint256"
        }
      ]
    },
    {
      "type": "error",
      "name": "InsufficientMsgValue",
      "inputs": [
        {
          "name": "msgValue",
          "type": "uint256",
          "internalType": "uint256"
        },
        {
          "name": "requiredValue",
          "type": "uint256",
          "internalType": "uint256"
        }
      ]
    },
    {
      "type": "error",
      "name": "InvalidComposeCaller",
      "inputs": [
        {
          "name": "internalOFTAddress",
          "type": "address",
          "internalType": "address"
        },
        {
          "name": "receivedOFTAddress",
          "type": "address",
          "internalType": "address"
        }
      ]
    },
    {
      "type": "error",
      "name": "InvalidOFTAddress",
      "inputs": []
    },
    {
      "type": "error",
      "name": "NativeTransferFailed",
      "inputs": [
        {
          "name": "receiver",
          "type": "address",
          "internalType": "address"
        },
        {
          "name": "amount",
          "type": "uint256",
          "internalType": "uint256"
        }
      ]
    },
    {
      "type": "error",
      "name": "OnlyEndpoint",
      "inputs": []
    },
    {
      "type": "error",
      "name": "OnlySelf",
      "inputs": [
        {
          "name": "caller",
          "type": "address",
          "internalType": "address"
        }
      ]
    },
    {
      "type": "error",
      "name": "ReentrancyGuardReentrantCall",
      "inputs": []
    },
    {
      "type": "error",
      "name": "SafeERC20FailedOperation",
      "inputs": [
        {
          "name": "token",
          "type": "address",
          "internalType": "address"
        }
      ]
    },
    {
      "type": "error",
      "name": "SpotBalanceReadFailed",
      "inputs": [
        {
          "name": "user",
          "type": "address",
          "internalType": "address"
        },
        {
          "name": "tokenId",
          "type": "uint64",
          "internalType": "uint64"
        }
      ]
    },
    {
      "type": "error",
      "name": "UnsupportedChainId",
      "inputs": [
        {
          "name": "chainId",
          "type": "uint256",
          "internalType": "uint256"
        }
      ]
    }
  ],
  "bytecode": {
    "object": "0x61010060405234801562000011575f80fd5b5060405162002d7a38038062002d7a833981016040819052620000349162000332565b5f60208190527f2802b8ca0a4d9948ac89ce9ba15f4015f0f68c52469c4df23bbaf374f1d4604080546001600160401b0319908116610451179091556103e79091527f332eac5de6beffe8ee7761a0342c75594c3acb5fdde0a2555227e56aa65d414180549091166096179055836001600160a01b038116620000ca5760405163c23419a560e01b815260040160405180910390fd5b806001600160a01b0316635e280f116040518163ffffffff1660e01b8152600401602060405180830381865afa15801562000107573d5f803e3d5ffd5b505050506040513d601f19601f820116820180604052508101906200012d9190620003a6565b6001600160a01b03908116608052811660a081905260408051637e062a3560e11b8152905163fc0c546a916004808201926020929091908290030181865afa1580156200017c573d5f803e3d5ffd5b505050506040513d601f19601f82011682018060405250810190620001a29190620003a6565b6001600160a01b031660c052465f908152602081905260408120546001600160401b031690819003620001ee576040516352ed5aff60e11b815246600482015260240160405180910390fd5b60408051606080820183526001600160401b03938416808352600a602080850191909152732222222222222222222222222222222222222222938501849052600480546001600160801b031916909217680a000000000000000017909155600580546001600160a01b031916909317909255600160065582519081018352928716808452600787900b918401919091529192508201906200028f9062000303565b6001600160a01b0390811690915281516002805460208501516001600160401b0390811668010000000000000000026001600160801b0319909216931692909217919091179055604090910151600380549183166001600160a01b03199092169190911790551660e05250620003eb915050565b5f62000314826001609d1b620003cb565b92915050565b6001600160a01b03811681146200032f575f80fd5b50565b5f805f806080858703121562000346575f80fd5b845162000353816200031a565b60208601519094506001600160401b038116811462000370575f80fd5b8093505060408501518060070b811462000388575f80fd5b60608601519092506200039b816200031a565b939692955090935050565b5f60208284031215620003b7575f80fd5b8151620003c4816200031a565b9392505050565b808201808211156200031457634e487b7160e01b5f52601160045260245ffd5b60805160a05160c05160e05161292a620004505f395f81816105930152610a0301525f81816104620152818161164401526119ae01525f8181610220015281816109d4015281816110ba015261113101525f81816103a4015261104a015261292a5ff3fe608060405260043610610165575f3560e01c806382bfefc8116100c6578063cebb51201161007c578063f6e6b24011610057578063f6e6b240146105b5578063f9716faf14610601578063fdea04821461064c575f80fd5b8063cebb51201461055b578063d0a102601461056f578063f1ae0e9b14610582575f80fd5b80639dbfb13f116100ac5780639dbfb13f146104ac578063a4e7f8bd146104dc578063a69610d114610509575f80fd5b806382bfefc81461045157806384df0fa414610484575f80fd5b806320d2c9511161011b5780634bd162df116101015780634bd162df146103455780636fad06f514610393578063765008a1146103c6575f80fd5b806320d2c951146102cb57806322dbe29c146102e1575f80fd5b8063191809041161014b57806319180904146101fa5780631ed0993d1461020f5780631f8164d914610267575f80fd5b80630d1995e014610170578063104544dd146101d7575f80fd5b3661016c57005b5f80fd5b34801561017b575f80fd5b506101a17d06000000000000000000000000000000000000000000000000000000000081565b6040517fffffff000000000000000000000000000000000000000000000000000000000090911681526020015b60405180910390f35b3480156101e2575f80fd5b506101ec6108fc81565b6040519081526020016101ce565b61020d610208366004611e7d565b610695565b005b34801561021a575f80fd5b506102427f000000000000000000000000000000000000000000000000000000000000000081565b60405173ffffffffffffffffffffffffffffffffffffffff90911681526020016101ce565b348015610272575f80fd5b5061029a7f010000060000000000000000000000000000000000000000000000000000000081565b6040517fffffffff0000000000000000000000000000000000000000000000000000000090911681526020016101ce565b3480156102d6575f80fd5b506101ec620249f081565b3480156102ec575f80fd5b506103147f010000000000000000000000000000000000000000000000000000000000000081565b6040517fff0000000000000000000000000000000000000000000000000000000000000090911681526020016101ce565b348015610350575f80fd5b5061037a61035f366004611e7d565b5f6020819052908152604090205467ffffffffffffffff1681565b60405167ffffffffffffffff90911681526020016101ce565b34801561039e575f80fd5b506102427f000000000000000000000000000000000000000000000000000000000000000081565b3480156103d1575f80fd5b506002546003546104129167ffffffffffffffff8116916801000000000000000090910460070b9073ffffffffffffffffffffffffffffffffffffffff1683565b6040805167ffffffffffffffff909416845260079290920b602084015273ffffffffffffffffffffffffffffffffffffffff16908201526060016101ce565b34801561045c575f80fd5b506102427f000000000000000000000000000000000000000000000000000000000000000081565b610497610492366004611eb5565b610a9d565b604080519283526020830191909152016101ce565b3480156104b7575f80fd5b506104cb6104c6366004611edf565b610aff565b6040519051151581526020016101ce565b3480156104e7575f80fd5b506104fb6104f6366004611e7d565b610c5b565b6040516101ce929190611fda565b348015610514575f80fd5b50610528610523366004612010565b610e5f565b60408051825167ffffffffffffffff908116825260208085015182169083015292820151909216908201526060016101ce565b348015610566575f80fd5b506101ec604081565b61020d61057d366004612085565b610fdf565b34801561058d575f80fd5b506102427f000000000000000000000000000000000000000000000000000000000000000081565b3480156105c0575f80fd5b506004546005546104129167ffffffffffffffff8116916801000000000000000090910460070b9073ffffffffffffffffffffffffffffffffffffffff1683565b34801561060c575f80fd5b5061062061061b36600461212c565b6114c5565b6040805182518152602080840151908201529181015167ffffffffffffffff16908201526060016101ce565b348015610657575f80fd5b5061066b61066636600461214f565b61156d565b6040805192835273ffffffffffffffffffffffffffffffffffffffff9091166020830152016101ce565b5f818152600160208190526040808320815161012081018352815463ffffffff1692810192835292810154606084015260028101546080840152600381015460a0840152600481018054919284929091849160c0850191906106f69061218e565b80601f01602080910402602001604051908101604052809291908181526020018280546107229061218e565b801561076d5780601f106107445761010080835404028352916020019161076d565b820191905f5260205f20905b81548152906001019060200180831161075057829003601f168201915b505050505081526020016005820180546107869061218e565b80601f01602080910402602001604051908101604052809291908181526020018280546107b29061218e565b80156107fd5780601f106107d4576101008083540402835291602001916107fd565b820191905f5260205f20905b8154815290600101906020018083116107e057829003601f168201915b505050505081526020016006820180546108169061218e565b80601f01602080910402602001604051908101604052809291908181526020018280546108429061218e565b801561088d5780601f106108645761010080835404028352916020019161088d565b820191905f5260205f20905b81548152906001019060200180831161087057829003601f168201915b5050509190925250505081526007919091015460209091015280515190915063ffffffff165f036108f2576040517f0b948634000000000000000000000000000000000000000000000000000000008152600481018390526024015b60405180910390fd5b5f828152600160208190526040822080547fffffffffffffffffffffffffffffffffffffffffffffffffffffffff00000000168155908101829055600281018290556003810182905590818161094b6004830182611e2b565b610958600583015f611e2b565b610965600683015f611e2b565b5050600782015f905550505f3482602001516109819190612206565b82516040805180820182528381525f602082015290517fc7c7f5b300000000000000000000000000000000000000000000000000000000815292935073ffffffffffffffffffffffffffffffffffffffff7f0000000000000000000000000000000000000000000000000000000000000000169263c7c7f5b3928592610a2b927f000000000000000000000000000000000000000000000000000000000000000090600401612219565b60c06040518083038185885af1158015610a47573d5f803e3d5ffd5b50505050506040513d601f19601f82011682018060405250810190610a6c9190612305565b505060405183907fd41d02272333251e6367f747c63d5cc227dcac6b0c799067569e80a30f9da369905f90a2505050565b5f80333014610ada576040517fa19dbf000000000000000000000000000000000000000000000000000000000081523360048201526024016108e9565b610ae484846115c3565b90503415610af857610af584611688565b91505b9250929050565b60408051602081019091525f81526040805173ffffffffffffffffffffffffffffffffffffffff841660208201525f916060916108109101604080517fffffffffffffffffffffffffffffffffffffffffffffffffffffffffffffffe081840301815290829052610b6f9161236e565b5f60405180830381855afa9150503d805f8114610ba7576040519150601f19603f3d011682016040523d82523d5f602084013e610bac565b606091505b50909250905081610c3f576040517f08c379a000000000000000000000000000000000000000000000000000000000815260206004820152602760248201527f436f726520757365722065786973747320707265636f6d70696c652063616c6c60448201527f206661696c65640000000000000000000000000000000000000000000000000060648201526084016108e9565b80806020019051810190610c539190612389565b949350505050565b600160208181525f928352604092839020835160e081018552815463ffffffff16815292810154918301919091526002810154928201929092526003820154606082015260048201805483916080840191610cb59061218e565b80601f0160208091040260200160405190810160405280929190818152602001828054610ce19061218e565b8015610d2c5780601f10610d0357610100808354040283529160200191610d2c565b820191905f5260205f20905b815481529060010190602001808311610d0f57829003601f168201915b50505050508152602001600582018054610d459061218e565b80601f0160208091040260200160405190810160405280929190818152602001828054610d719061218e565b8015610dbc5780601f10610d9357610100808354040283529160200191610dbc565b820191905f5260205f20905b815481529060010190602001808311610d9f57829003601f168201915b50505050508152602001600682018054610dd59061218e565b80601f0160208091040260200160405190810160405280929190818152602001828054610e019061218e565b8015610e4c5780601f10610e2357610100808354040283529160200191610e4c565b820191905f5260205f20905b815481529060010190602001808311610e2f57829003601f168201915b5050509190925250505060079091015482565b604080516060810182525f80825260208201819052918101919091526040805173ffffffffffffffffffffffffffffffffffffffff8516602082015267ffffffffffffffff8416918101919091525f90606090610801908201604080517fffffffffffffffffffffffffffffffffffffffffffffffffffffffffffffffe081840301815290829052610ef09161236e565b5f60405180830381855afa9150503d805f8114610f28576040519150601f19603f3d011682016040523d82523d5f602084013e610f2d565b606091505b50909250905081610fc0576040517f08c379a000000000000000000000000000000000000000000000000000000000815260206004820152602260248201527f53706f7442616c616e636520707265636f6d70696c652063616c6c206661696c60448201527f656400000000000000000000000000000000000000000000000000000000000060648201526084016108e9565b80806020019051810190610fd491906123d3565b925050505b92915050565b610fe76117b6565b620249f05a1015611032575a6040517f23e228cb0000000000000000000000000000000000000000000000000000000081526004810191909152620249f060248201526044016108e9565b3373ffffffffffffffffffffffffffffffffffffffff7f000000000000000000000000000000000000000000000000000000000000000016146110a1576040517f7eb966c800000000000000000000000000000000000000000000000000000000815260040160405180910390fd5b8673ffffffffffffffffffffffffffffffffffffffff167f000000000000000000000000000000000000000000000000000000000000000073ffffffffffffffffffffffffffffffffffffffff1614611166576040517fc8b356c600000000000000000000000000000000000000000000000000000000815273ffffffffffffffffffffffffffffffffffffffff7f000000000000000000000000000000000000000000000000000000000000000081166004830152881660248201526044016108e9565b5f61117186866117f9565b90505f61117e8787611818565b6040517ffdea04820000000000000000000000000000000000000000000000000000000081529091505f90309063fdea0482906111bf908590600401612425565b6040805180830381865afa925050508015611215575060408051601f3d9081017fffffffffffffffffffffffffffffffffffffffffffffffffffffffffffffffe016820190925261121291810190612437565b60015b6113945761125e6040518060e001604052805f63ffffffff1681526020015f80191681526020015f81526020015f81526020016060815260200160608152602001606081525090565b6112688989611862565b63ffffffff16815261127a8989611884565b60208281019190915260408083018690528051808201825283815234818401525f8d81526001808552908390208251805182547fffffffffffffffffffffffffffffffffffffffffffffffffffffffff000000001663ffffffff90911617825594850151918101919091559183015160028301556060830151600383015560808301519092908290600482019061131190826124a5565b5060a0820151600582019061132690826124a5565b5060c0820151600682019061133b90826124a5565b50505060208201518160070155905050897f387fc8f821460fa8221428c9f4dc1f6d5db4f6a0a01f33dbeaa8cebd95e5d14482602001513486604051611383939291906125c1565b60405180910390a2505050506114b2565b813410156113d7576040517f7cb769dc000000000000000000000000000000000000000000000000000000008152346004820152602481018390526044016108e9565b6040517f84df0fa400000000000000000000000000000000000000000000000000000000815273ffffffffffffffffffffffffffffffffffffffff82166004820152602481018690529092505f9150819030906384df0fa4903490604401604080518083038185885af19350505050801561148d575060408051601f3d9081017fffffffffffffffffffffffffffffffffffffffffffffffffffffffffffffffe016820190925261148a918101906125e8565b60015b61149b5750349050836114a1565b90925090505b6114ac838383611893565b50505050505b6114bc6001600655565b50505050505050565b6114f060405180606001604052805f81526020015f81526020015f67ffffffffffffffff1681525090565b5f826114fd576004611500565b60025b60408051606081018252825467ffffffffffffffff81168083526801000000000000000090910460070b602083015260019093015473ffffffffffffffffffffffffffffffffffffffff1691810182905292505f9161155f9190610e5f565b519050610fd48582846119da565b5f80604083146115ac576040517f2b701db1000000000000000000000000000000000000000000000000000000008152600481018490526024016108e9565b6115b88385018561260a565b909590945092505050565b5f806115d08360016114c5565b90505f6115e1858360400151611ad4565b82519091501561167c576040805160608101825260025467ffffffffffffffff8116825268010000000000000000900460070b602082015260035473ffffffffffffffffffffffffffffffffffffffff9081169282018390528451919261166c927f000000000000000000000000000000000000000000000000000000000000000090921691611b1b565b61167a86825f015184611ba8565b505b50602001519392505050565b5f80611694345f6114c5565b8051909150156117ac576040805160608101825260045467ffffffffffffffff8116825268010000000000000000900460070b602082015260055473ffffffffffffffffffffffffffffffffffffffff168183018190528351925191925f926108fc919084818181858888f193505050503d805f811461172f576040519150601f19603f3d011682016040523d82523d5f602084013e611734565b606091505b505090508061179757604082810151845191517fa5b05eec00000000000000000000000000000000000000000000000000000000815273ffffffffffffffffffffffffffffffffffffffff909116600482015260248101919091526044016108e9565b6117a985835f01518560400151611ba8565b50505b6020015192915050565b6002600654036117f2576040517f3ee5aeb500000000000000000000000000000000000000000000000000000000815260040160405180910390fd5b6002600655565b5f611808602c600c848661262d565b61181191612654565b9392505050565b606061182782604c818661262d565b8080601f0160208091040260200160405190810160405280939291908181526020018383808284375f92019190915250929695505050505050565b5f611871600c6008848661262d565b61187a91612690565b60e01c9392505050565b5f611808604c602c848661262d565b811561198e575f8373ffffffffffffffffffffffffffffffffffffffff16836108fc906040515f60405180830381858888f193505050503d805f81146118f4576040519150601f19603f3d011682016040523d82523d5f602084013e6118f9565b606091505b505090508061198c576040515f90329085908381818185875af1925050503d805f8114611941576040519150601f19603f3d011682016040523d82523d5f602084013e611946565b606091505b505090508061198a576040517fa5b05eec000000000000000000000000000000000000000000000000000000008152326004820152602481018590526044016108e9565b505b505b80156119d5576119d573ffffffffffffffffffffffffffffffffffffffff7f0000000000000000000000000000000000000000000000000000000000000000168483611b1b565b505050565b611a0560405180606001604052805f81526020015f81526020015f67ffffffffffffffff1681525090565b5f80808067ffffffffffffffff87117fffffffffffffffffffffffffffffffffffffffffffffffff0000000000000001880102870390505f866020015160070b1315611a6657611a5a88828860200151611cd8565b91955093509150611aa8565b611aa0888288602001517fffffffffffffffffffffffffffffffffffffffffffffffffffffffffffffffff611a9b91906126d8565b611d3d565b919550935091505b5060408051606081018252938452602084019290925267ffffffffffffffff1690820152949350505050565b5f611ade83610aff565b51611b15576040517fbdcf14ea00000000000000000000000000000000000000000000000000000000815260040160405180910390fd5b50919050565b6040805173ffffffffffffffffffffffffffffffffffffffff8416602482015260448082018490528251808303909101815260649091019091526020810180517bffffffffffffffffffffffffffffffffffffffffffffffffffffffff167fa9059cbb000000000000000000000000000000000000000000000000000000001790526119d5908490611d86565b6040805173ffffffffffffffffffffffffffffffffffffffff8516602082015267ffffffffffffffff84811682840152831660608083019190915282518083039091018152608082019092525f90611c26907f010000060000000000000000000000000000000000000000000000000000000090849060a0016126fe565b604080517fffffffffffffffffffffffffffffffffffffffffffffffffffffffffffffffe0818403018152908290527f17938e130000000000000000000000000000000000000000000000000000000082529150733333333333333333333333333333333333333333906317938e1390611ca4908490600401612425565b5f604051808303815f87803b158015611cbb575f80fd5b505af1158015611ccd573d5f803e3d5ffd5b505050505050505050565b5f808080611ce785600a612863565b90505f611cfe8267ffffffffffffffff8916612878565b9050611d0a82896128bc565b9788900397818903828a110289039550858903019350818581611d2f57611d2f61288f565b049250505093509350939050565b5f808080611d4c85600a612863565b90505f818767ffffffffffffffff1681611d6857611d6861288f565b04808903908911028803989789900397918902965090945050505050565b5f8060205f8451602086015f885af180611da5576040513d5f823e3d81fd5b50505f513d91508115611dbc578060011415611dd6565b73ffffffffffffffffffffffffffffffffffffffff84163b155b15611e25576040517f5274afe700000000000000000000000000000000000000000000000000000000815273ffffffffffffffffffffffffffffffffffffffff851660048201526024016108e9565b50505050565b508054611e379061218e565b5f825580601f10611e46575050565b601f0160209004905f5260205f2090810190611e629190611e65565b50565b5b80821115611e79575f8155600101611e66565b5090565b5f60208284031215611e8d575f80fd5b5035919050565b73ffffffffffffffffffffffffffffffffffffffff81168114611e62575f80fd5b5f8060408385031215611ec6575f80fd5b8235611ed181611e94565b946020939093013593505050565b5f60208284031215611eef575f80fd5b813561181181611e94565b5f5b83811015611f14578181015183820152602001611efc565b50505f910152565b5f8151808452611f33816020860160208601611efa565b601f017fffffffffffffffffffffffffffffffffffffffffffffffffffffffffffffffe0169290920160200192915050565b63ffffffff81511682526020810151602083015260408101516040830152606081015160608301525f608082015160e06080850152611fa760e0850182611f1c565b905060a083015184820360a0860152611fc08282611f1c565b91505060c083015184820360c0860152610fd48282611f1c565b604081525f611fec6040830185611f65565b90508260208301529392505050565b67ffffffffffffffff81168114611e62575f80fd5b5f8060408385031215612021575f80fd5b823561202c81611e94565b9150602083013561203c81611ffb565b809150509250929050565b5f8083601f840112612057575f80fd5b50813567ffffffffffffffff81111561206e575f80fd5b602083019150836020828501011115610af8575f80fd5b5f805f805f805f60a0888a03121561209b575f80fd5b87356120a681611e94565b965060208801359550604088013567ffffffffffffffff808211156120c9575f80fd5b6120d58b838c01612047565b909750955060608a013591506120ea82611e94565b909350608089013590808211156120ff575f80fd5b5061210c8a828b01612047565b989b979a50959850939692959293505050565b8015158114611e62575f80fd5b5f806040838503121561213d575f80fd5b82359150602083013561203c8161211f565b5f8060208385031215612160575f80fd5b823567ffffffffffffffff811115612176575f80fd5b61218285828601612047565b90969095509350505050565b600181811c908216806121a257607f821691505b602082108103611b15577f4e487b71000000000000000000000000000000000000000000000000000000005f52602260045260245ffd5b7f4e487b71000000000000000000000000000000000000000000000000000000005f52601160045260245ffd5b80820180821115610fd957610fd96121d9565b608081525f61222b6080830186611f65565b9050835160208301526020840151604083015273ffffffffffffffffffffffffffffffffffffffff83166060830152949350505050565b7f4e487b71000000000000000000000000000000000000000000000000000000005f52604160045260245ffd5b6040516060810167ffffffffffffffff811182821017156122b2576122b2612262565b60405290565b5f604082840312156122c8575f80fd5b6040516040810181811067ffffffffffffffff821117156122eb576122eb612262565b604052825181526020928301519281019290925250919050565b5f8082840360c0811215612317575f80fd5b6080811215612324575f80fd5b5061232d61228f565b83518152602084015161233f81611ffb565b602082015261235185604086016122b8565b6040820152915061236584608085016122b8565b90509250929050565b5f825161237f818460208701611efa565b9190910192915050565b5f60208284031215612399575f80fd5b6040516020810181811067ffffffffffffffff821117156123bc576123bc612262565b60405282516123ca8161211f565b81529392505050565b5f606082840312156123e3575f80fd5b6123eb61228f565b82516123f681611ffb565b8152602083015161240681611ffb565b6020820152604083015161241981611ffb565b60408201529392505050565b602081525f6118116020830184611f1c565b5f8060408385031215612448575f80fd5b82519150602083015161203c81611e94565b601f8211156119d557805f5260205f20601f840160051c8101602085101561247f5750805b601f840160051c820191505b8181101561249e575f815560010161248b565b5050505050565b815167ffffffffffffffff8111156124bf576124bf612262565b6124d3816124cd845461218e565b8461245a565b602080601f831160018114612525575f84156124ef5750858301515b7fffffffffffffffffffffffffffffffffffffffffffffffffffffffffffffffff600386901b1c1916600185901b1785556125b9565b5f858152602081207fffffffffffffffffffffffffffffffffffffffffffffffffffffffffffffffe08616915b8281101561257157888601518255948401946001909101908401612552565b50858210156125ad57878501517fffffffffffffffffffffffffffffffffffffffffffffffffffffffffffffffff600388901b60f8161c191681555b505060018460011b0185555b505050505050565b838152826020820152606060408201525f6125df6060830184611f1c565b95945050505050565b5f80604083850312156125f9575f80fd5b505080516020909101519092909150565b5f806040838503121561261b575f80fd5b82359150602083013561203c81611e94565b5f808585111561263b575f80fd5b83861115612647575f80fd5b5050820193919092039150565b80356020831015610fd9577fffffffffffffffffffffffffffffffffffffffffffffffffffffffffffffffff602084900360031b1b1692915050565b7fffffffff0000000000000000000000000000000000000000000000000000000081358181169160048510156126d05780818660040360031b1b83161692505b505092915050565b5f8260070b8260070b028060070b91508082146126f7576126f76121d9565b5092915050565b7fffffffff00000000000000000000000000000000000000000000000000000000831681525f8251612737816004850160208701611efa565b919091016004019392505050565b600181815b8085111561279e57817fffffffffffffffffffffffffffffffffffffffffffffffffffffffffffffffff04821115612784576127846121d9565b8085161561279157918102915b93841c939080029061274a565b509250929050565b5f826127b457506001610fd9565b816127c057505f610fd9565b81600181146127d657600281146127e0576127fc565b6001915050610fd9565b60ff8411156127f1576127f16121d9565b50506001821b610fd9565b5060208310610133831016604e8410600b841016171561281f575081810a610fd9565b6128298383612745565b807fffffffffffffffffffffffffffffffffffffffffffffffffffffffffffffffff0482111561285b5761285b6121d9565b029392505050565b5f61181167ffffffffffffffff8416836127a6565b8082028115828204841417610fd957610fd96121d9565b7f4e487b71000000000000000000000000000000000000000000000000000000005f52601260045260245ffd5b5f826128ef577f4e487b71000000000000000000000000000000000000000000000000000000005f52601260045260245ffd5b50069056fea2646970667358221220efc67d7b95f53180fa97e433e0f0b0252a67400cf5a358340053cfdcf5a3b3d464736f6c63430008160033",
    "linkReferences": {}
  },
  "methodIdentifiers": {
    "CORE_WRITER_VERSION()": "22dbe29c",
    "ENDPOINT()": "6fad06f5",
    "MIN_GAS()": "20d2c951",
    "NATIVE_TRANSFER_GAS()": "104544dd",
    "OFT()": "1ed0993d",
    "REFUND_ADDRESS()": "f1ae0e9b",
    "SPOT_SEND_ACTION_ID()": "0d1995e0",
    "SPOT_SEND_HEADER()": "1f8164d9",
    "TOKEN()": "82bfefc8",
    "VALID_COMPOSE_MSG_LEN()": "cebb5120",
    "coreUserExists(address)": "9dbfb13f",
    "decode_message(bytes)": "fdea0482",
    "failedMessages(bytes32)": "a4e7f8bd",
    "handleCoreTransfers(address,uint256)": "84df0fa4",
    "hypeAsset()": "f6e6b240",
    "hypeIndexByChainId(uint256)": "4bd162df",
    "lzCompose(address,bytes32,bytes,address,bytes)": "d0a10260",
    "oftAsset()": "765008a1",
    "quoteHyperCoreAmount(uint256,bool)": "f9716faf",
    "refundToSrc(bytes32)": "19180904",
    "spotBalance(address,uint64)": "a69610d1"
  },
  "id": 0
}