{
  "abi": [
    {
      "type": "constructor",
      "inputs": [
        {
          "name": "_oft",
          "type": "address",
          "internalType": "address"
        },
        {
          "name": "_coreIndexId",
          "type": "uint64",
          "internalType": "uint64"
        },
        {
          "name": "_assetDecimalDiff",
          "type": "int64",
          "internalType": "int64"
        },
        {
          "name": "_REFUND_ADDRESS",
          "type": "address",
          "internalType": "address"
        }
      ],
      "stateMutability": "nonpayable"
    },
    {
      "type": "receive",
      "stateMutability": "payable"
    },
    {
      "type": "function",
      "name": "CORE_WRITER_VERSION",
      "inputs": [],
      "outputs": [
        {
          "name": "",
          "type": "bytes1",
          "internalType": "bytes1"
        }
      ],
      "stateMutability": "view"
    },
    {
      "type": "function",
      "name": "ENDPOINT",
      "inputs": [],
      "outputs": [
        {
          "name": "",
          "type": "address",
          "internalType": "address"
        }
      ],
      "stateMutability": "view"
    },
    {
      "type": "function",
      "name": "MIN_GAS",
      "inputs": [],
      "outputs": [
        {
          "name": "",
          "type": "uint256",
          "internalType": "uint256"
        }
      ],
      "stateMutability": "view"
    },
    {
      "type": "function",
      "name": "NATIVE_TRANSFER_GAS",
      "inputs": [],
      "outputs": [
        {
          "name": "",
          "type": "uint256",
          "internalType": "uint256"
        }
      ],
      "stateMutability": "view"
    },
    {
      "type": "function",
      "name": "OFT",
      "inputs": [],
      "outputs": [
        {
          "name": "",
          "type": "address",
          "internalType": "address"
        }
      ],
      "stateMutability": "view"
    },
    {
      "type": "function",
      "name": "REFUND_ADDRESS",
      "inputs": [],
      "outputs": [
        {
          "name": "",
          "type": "address",
          "internalType": "address"
        }
      ],
      "stateMutability": "view"
    },
    {
      "type": "function",
      "name": "SPOT_SEND_ACTION_ID",
      "inputs": [],
      "outputs": [
        {
          "name": "",
          "type": "bytes3",
          "internalType": "bytes3"
        }
      ],
      "stateMutability": "view"
    },
    {
      "type": "function",
      "name": "SPOT_SEND_HEADER",
      "inputs": [],
      "outputs": [
        {
          "name": "",
          "type": "bytes4",
          "internalType": "bytes4"
        }
      ],
      "stateMutability": "view"
    },
    {
      "type": "function",
      "name": "TOKEN",
      "inputs": [],
      "outputs": [
        {
          "name": "",
          "type": "address",
          "internalType": "address"
        }
      ],
      "stateMutability": "view"
    },
    {
      "type": "function",
      "name": "VALID_COMPOSE_MSG_LEN",
      "inputs": [],
      "outputs": [
        {
          "name": "",
          "type": "uint256",
          "internalType": "uint256"
        }
      ],
      "stateMutability": "view"
    },
    {
      "type": "function",
      "name": "decode_message",
      "inputs": [
        {
          "name": "_composeMessage",
          "type": "bytes",
          "internalType": "bytes"
        }
      ],
      "outputs": [
        {
          "name": "minMsgValue",
          "type": "uint256",
          "internalType": "uint256"
        },
        {
          "name": "receiver",
          "type": "address",
          "internalType": "address"
        }
      ],
      "stateMutability": "pure"
    },
    {
      "type": "function",
      "name": "failedMessages",
      "inputs": [
        {
          "name": "",
          "type": "bytes32",
          "internalType": "bytes32"
        }
      ],
      "outputs": [
        {
          "name": "refundSendParam",
          "type": "tuple",
          "internalType": "struct SendParam",
          "components": [
            {
              "name": "dstEid",
              "type": "uint32",
              "internalType": "uint32"
            },
            {
              "name": "to",
              "type": "bytes32",
              "internalType": "bytes32"
            },
            {
              "name": "amountLD",
              "type": "uint256",
              "internalType": "uint256"
            },
            {
              "name": "minAmountLD",
              "type": "uint256",
              "internalType": "uint256"
            },
            {
              "name": "extraOptions",
              "type": "bytes",
              "internalType": "bytes"
            },
            {
              "name": "composeMsg",
              "type": "bytes",
              "internalType": "bytes"
            },
            {
              "name": "oftCmd",
              "type": "bytes",
              "internalType": "bytes"
            }
          ]
        },
        {
          "name": "msgValue",
          "type": "uint256",
          "internalType": "uint256"
        }
      ],
      "stateMutability": "view"
    },
    {
      "type": "function",
      "name": "handleCoreTransfers",
      "inputs": [
        {
          "name": "_receiver",
          "type": "address",
          "internalType": "address"
        },
        {
          "name": "_amount",
          "type": "uint256",
          "internalType": "uint256"
        }
      ],
      "outputs": [
        {
          "name": "dustHYPE",
          "type": "uint256",
          "internalType": "uint256"
        },
        {
          "name": "dustERC20",
          "type": "uint256",
          "internalType": "uint256"
        }
      ],
      "stateMutability": "payable"
    },
    {
      "type": "function",
      "name": "hypeAsset",
      "inputs": [],
      "outputs": [
        {
          "name": "coreIndexId",
          "type": "uint64",
          "internalType": "uint64"
        },
        {
          "name": "decimalDiff",
          "type": "int64",
          "internalType": "int64"
        },
        {
          "name": "assetBridgeAddress",
          "type": "address",
          "internalType": "address"
        }
      ],
      "stateMutability": "view"
    },
    {
      "type": "function",
      "name": "hypeIndexByChainId",
      "inputs": [
        {
          "name": "",
          "type": "uint256",
          "internalType": "uint256"
        }
      ],
      "outputs": [
        {
          "name": "",
          "type": "uint64",
          "internalType": "uint64"
        }
      ],
      "stateMutability": "view"
    },
    {
      "type": "function",
      "name": "lzCompose",
      "inputs": [
        {
          "name": "_oft",
          "type": "address",
          "internalType": "address"
        },
        {
          "name": "_guid",
          "type": "bytes32",
          "internalType": "bytes32"
        },
        {
          "name": "_message",
          "type": "bytes",
          "internalType": "bytes"
        },
        {
          "name": "",
          "type": "address",
          "internalType": "address"
        },
        {
          "name": "",
          "type": "bytes",
          "internalType": "bytes"
        }
      ],
      "outputs": [],
      "stateMutability": "payable"
    },
    {
      "type": "function",
      "name": "oftAsset",
      "inputs": [],
      "outputs": [
        {
          "name": "coreIndexId",
          "type": "uint64",
          "internalType": "uint64"
        },
        {
          "name": "decimalDiff",
          "type": "int64",
          "internalType": "int64"
        },
        {
          "name": "assetBridgeAddress",
          "type": "address",
          "internalType": "address"
        }
      ],
      "stateMutability": "view"
    },
    {
      "type": "function",
      "name": "quoteHyperCoreAmount",
      "inputs": [
        {
          "name": "_amount",
          "type": "uint256",
          "internalType": "uint256"
        },
        {
          "name": "_isOFT",
          "type": "bool",
          "internalType": "bool"
        }
      ],
      "outputs": [
        {
          "name": "",
          "type": "tuple",
          "internalType": "struct IHyperAssetAmount",
          "components": [
            {
              "name": "evm",
              "type": "uint256",
              "internalType": "uint256"
            },
            {
              "name": "dust",
              "type": "uint256",
              "internalType": "uint256"
            },
            {
              "name": "core",
              "type": "uint64",
              "internalType": "uint64"
            }
          ]
        }
      ],
      "stateMutability": "view"
    },
    {
      "type": "function",
      "name": "refundToSrc",
      "inputs": [
        {
          "name": "_guid",
          "type": "bytes32",
          "internalType": "bytes32"
        }
      ],
      "outputs": [],
      "stateMutability": "payable"
    },
    {
      "type": "function",
      "name": "spotBalance",
      "inputs": [
        {
          "name": "user",
          "type": "address",
          "internalType": "address"
        },
        {
          "name": "token",
          "type": "uint64",
          "internalType": "uint64"
        }
      ],
      "outputs": [
        {
          "name": "",
          "type": "tuple",
          "internalType": "struct SpotBalance",
          "components": [
            {
              "name": "total",
              "type": "uint64",
              "internalType": "uint64"
            },
            {
              "name": "hold",
              "type": "uint64",
              "internalType": "uint64"
            },
            {
              "name": "entryNtl",
              "type": "uint64",
              "internalType": "uint64"
            }
          ]
        }
      ],
      "stateMutability": "view"
    },
    {
      "type": "event",
      "name": "CompleteRefund",
      "inputs": [],
      "anonymous": false
    },
    {
      "type": "event",
      "name": "FailedMessageDecode",
      "inputs": [
        {
          "name": "guid",
          "type": "bytes32",
          "indexed": true,
          "internalType": "bytes32"
        },
        {
          "name": "sender",
          "type": "bytes32",
          "indexed": false,
          "internalType": "bytes32"
        },
        {
          "name": "msgValue",
          "type": "uint256",
          "indexed": false,
          "internalType": "uint256"
        },
        {
          "name": "composeMessage",
          "type": "bytes",
          "indexed": false,
          "internalType": "bytes"
        }
      ],
      "anonymous": false
    },
    {
      "type": "event",
      "name": "RefundHyperEVM",
      "inputs": [
        {
          "name": "receiver",
          "type": "address",
          "indexed": true,
          "internalType": "address"
        },
        {
          "name": "amountERC20",
          "type": "uint256",
          "indexed": true,
          "internalType": "uint256"
        },
        {
          "name": "amountHYPE",
          "type": "uint256",
          "indexed": true,
          "internalType": "uint256"
        }
      ],
      "anonymous": false
    },
    {
      "type": "event",
      "name": "RefundSuccessful",
      "inputs": [
        {
          "name": "guid",
          "type": "bytes32",
          "indexed": true,
          "internalType": "bytes32"
        }
      ],
      "anonymous": false
    },
    {
      "type": "error",
      "name": "ComposeMsgLengthNot64Bytes",
      "inputs": [
        {
          "name": "length",
          "type": "uint256",
          "internalType": "uint256"
        }
      ]
    },
    {
      "type": "error",
      "name": "FailedMessageNotFound",
      "inputs": [
        {
          "name": "guid",
          "type": "bytes32",
          "internalType": "bytes32"
        }
      ]
    },
    {
      "type": "error",
      "name": "InsufficientGas",
      "inputs": [
        {
          "name": "gasLeft",
          "type": "uint256",
          "internalType": "uint256"
        },
        {
          "name": "minGas",
          "type": "uint256",
          "internalType": "uint256"
        }
      ]
    },
    {
      "type": "error",
      "name": "InsufficientMsgValue",
      "inputs": [
        {
          "name": "msgValue",
          "type": "uint256",
          "internalType": "uint256"
        },
        {
          "name": "requiredValue",
          "type": "uint256",
          "internalType": "uint256"
        }
      ]
    },
    {
      "type": "error",
      "name": "InvalidComposeCaller",
      "inputs": [
        {
          "name": "internalOFTAddress",
          "type": "address",
          "internalType": "address"
        },
        {
          "name": "receivedOFTAddress",
          "type": "address",
          "internalType": "address"
        }
      ]
    },
    {
      "type": "error",
      "name": "InvalidOFTAddress",
      "inputs": []
    },
    {
      "type": "error",
      "name": "NativeTransferFailed",
      "inputs": [
        {
          "name": "receiver",
          "type": "address",
          "internalType": "address"
        },
        {
          "name": "amount",
          "type": "uint256",
          "internalType": "uint256"
        }
      ]
    },
    {
      "type": "error",
      "name": "OnlyEndpoint",
      "inputs": []
    },
    {
      "type": "error",
      "name": "OnlySelf",
      "inputs": [
        {
          "name": "caller",
          "type": "address",
          "internalType": "address"
        }
      ]
    },
    {
      "type": "error",
      "name": "ReentrancyGuardReentrantCall",
      "inputs": []
    },
    {
      "type": "error",
      "name": "SafeERC20FailedOperation",
      "inputs": [
        {
          "name": "token",
          "type": "address",
          "internalType": "address"
        }
      ]
    },
    {
      "type": "error",
      "name": "SpotBalanceReadFailed",
      "inputs": [
        {
          "name": "user",
          "type": "address",
          "internalType": "address"
        },
        {
          "name": "tokenId",
          "type": "uint64",
          "internalType": "uint64"
        }
      ]
    },
    {
      "type": "error",
      "name": "UnsupportedChainId",
      "inputs": [
        {
          "name": "chainId",
          "type": "uint256",
          "internalType": "uint256"
        }
      ]
    }
  ],
  "bytecode": {
    "object": "0x61010060405234801562000011575f80fd5b5060405162002b2638038062002b26833981016040819052620000349162000332565b5f60208190527f2802b8ca0a4d9948ac89ce9ba15f4015f0f68c52469c4df23bbaf374f1d4604080546001600160401b0319908116610451179091556103e79091527f332eac5de6beffe8ee7761a0342c75594c3acb5fdde0a2555227e56aa65d414180549091166096179055836001600160a01b038116620000ca5760405163c23419a560e01b815260040160405180910390fd5b806001600160a01b0316635e280f116040518163ffffffff1660e01b8152600401602060405180830381865afa15801562000107573d5f803e3d5ffd5b505050506040513d601f19601f820116820180604052508101906200012d9190620003a6565b6001600160a01b03908116608052811660a081905260408051637e062a3560e11b8152905163fc0c546a916004808201926020929091908290030181865afa1580156200017c573d5f803e3d5ffd5b505050506040513d601f19601f82011682018060405250810190620001a29190620003a6565b6001600160a01b031660c052465f908152602081905260408120546001600160401b031690819003620001ee576040516352ed5aff60e11b815246600482015260240160405180910390fd5b60408051606080820183526001600160401b03938416808352600a602080850191909152732222222222222222222222222222222222222222938501849052600480546001600160801b031916909217680a000000000000000017909155600580546001600160a01b031916909317909255600160065582519081018352928716808452600787900b918401919091529192508201906200028f9062000303565b6001600160a01b0390811690915281516002805460208501516001600160401b0390811668010000000000000000026001600160801b0319909216931692909217919091179055604090910151600380549183166001600160a01b03199092169190911790551660e05250620003eb915050565b5f62000314826001609d1b620003cb565b92915050565b6001600160a01b03811681146200032f575f80fd5b50565b5f805f806080858703121562000346575f80fd5b845162000353816200031a565b60208601519094506001600160401b038116811462000370575f80fd5b8093505060408501518060070b811462000388575f80fd5b60608601519092506200039b816200031a565b939692955090935050565b5f60208284031215620003b7575f80fd5b8151620003c4816200031a565b9392505050565b808201808211156200031457634e487b7160e01b5f52601160045260245ffd5b60805160a05160c05160e0516126d6620004505f395f818161055801526109c801525f81816104570152818161149c015261180901525f81816102150152818161099901528181610f230152610f9a01525f81816103990152610eb301526126d65ff3fe60806040526004361061015a575f3560e01c806382bfefc8116100bb578063d0a1026011610071578063f6e6b24011610057578063f6e6b2401461057a578063f9716faf146105c6578063fdea048214610611575f80fd5b8063d0a1026014610534578063f1ae0e9b14610547575f80fd5b8063a4e7f8bd116100a1578063a4e7f8bd146104a1578063a69610d1146104ce578063cebb512014610520575f80fd5b806382bfefc81461044657806384df0fa414610479575f80fd5b806320d2c951116101105780634bd162df116100f65780634bd162df1461033a5780636fad06f514610388578063765008a1146103bb575f80fd5b806320d2c951146102c057806322dbe29c146102d6575f80fd5b8063191809041161014057806319180904146101ef5780631ed0993d146102045780631f8164d91461025c575f80fd5b80630d1995e014610165578063104544dd146101cc575f80fd5b3661016157005b5f80fd5b348015610170575f80fd5b506101967d06000000000000000000000000000000000000000000000000000000000081565b6040517fffffff000000000000000000000000000000000000000000000000000000000090911681526020015b60405180910390f35b3480156101d7575f80fd5b506101e16108fc81565b6040519081526020016101c3565b6102026101fd366004611c91565b61065a565b005b34801561020f575f80fd5b506102377f000000000000000000000000000000000000000000000000000000000000000081565b60405173ffffffffffffffffffffffffffffffffffffffff90911681526020016101c3565b348015610267575f80fd5b5061028f7f010000060000000000000000000000000000000000000000000000000000000081565b6040517fffffffff0000000000000000000000000000000000000000000000000000000090911681526020016101c3565b3480156102cb575f80fd5b506101e1620249f081565b3480156102e1575f80fd5b506103097f010000000000000000000000000000000000000000000000000000000000000081565b6040517fff0000000000000000000000000000000000000000000000000000000000000090911681526020016101c3565b348015610345575f80fd5b5061036f610354366004611c91565b5f6020819052908152604090205467ffffffffffffffff1681565b60405167ffffffffffffffff90911681526020016101c3565b348015610393575f80fd5b506102377f000000000000000000000000000000000000000000000000000000000000000081565b3480156103c6575f80fd5b506002546003546104079167ffffffffffffffff8116916801000000000000000090910460070b9073ffffffffffffffffffffffffffffffffffffffff1683565b6040805167ffffffffffffffff909416845260079290920b602084015273ffffffffffffffffffffffffffffffffffffffff16908201526060016101c3565b348015610451575f80fd5b506102377f000000000000000000000000000000000000000000000000000000000000000081565b61048c610487366004611cc9565b610a62565b604080519283526020830191909152016101c3565b3480156104ac575f80fd5b506104c06104bb366004611c91565b610ac4565b6040516101c3929190611dd3565b3480156104d9575f80fd5b506104ed6104e8366004611e09565b610cc8565b60408051825167ffffffffffffffff908116825260208085015182169083015292820151909216908201526060016101c3565b34801561052b575f80fd5b506101e1604081565b610202610542366004611e7e565b610e48565b348015610552575f80fd5b506102377f000000000000000000000000000000000000000000000000000000000000000081565b348015610585575f80fd5b506004546005546104079167ffffffffffffffff8116916801000000000000000090910460070b9073ffffffffffffffffffffffffffffffffffffffff1683565b3480156105d1575f80fd5b506105e56105e0366004611f18565b61132e565b6040805182518152602080840151908201529181015167ffffffffffffffff16908201526060016101c3565b34801561061c575f80fd5b5061063061062b366004611f3f565b6113d6565b6040805192835273ffffffffffffffffffffffffffffffffffffffff9091166020830152016101c3565b5f818152600160208190526040808320815161012081018352815463ffffffff1692810192835292810154606084015260028101546080840152600381015460a0840152600481018054919284929091849160c0850191906106bb90611f7e565b80601f01602080910402602001604051908101604052809291908181526020018280546106e790611f7e565b80156107325780601f1061070957610100808354040283529160200191610732565b820191905f5260205f20905b81548152906001019060200180831161071557829003601f168201915b5050505050815260200160058201805461074b90611f7e565b80601f016020809104026020016040519081016040528092919081815260200182805461077790611f7e565b80156107c25780601f10610799576101008083540402835291602001916107c2565b820191905f5260205f20905b8154815290600101906020018083116107a557829003601f168201915b505050505081526020016006820180546107db90611f7e565b80601f016020809104026020016040519081016040528092919081815260200182805461080790611f7e565b80156108525780601f1061082957610100808354040283529160200191610852565b820191905f5260205f20905b81548152906001019060200180831161083557829003601f168201915b5050509190925250505081526007919091015460209091015280515190915063ffffffff165f036108b7576040517f0b948634000000000000000000000000000000000000000000000000000000008152600481018390526024015b60405180910390fd5b5f828152600160208190526040822080547fffffffffffffffffffffffffffffffffffffffffffffffffffffffff0000000016815590810182905560028101829055600381018290559081816109106004830182611c3f565b61091d600583015f611c3f565b61092a600683015f611c3f565b5050600782015f905550505f3482602001516109469190611ffc565b82516040805180820182528381525f602082015290517fc7c7f5b300000000000000000000000000000000000000000000000000000000815292935073ffffffffffffffffffffffffffffffffffffffff7f0000000000000000000000000000000000000000000000000000000000000000169263c7c7f5b39285926109f0927f00000000000000000000000000000000000000000000000000000000000000009060040161200f565b60c06040518083038185885af1158015610a0c573d5f803e3d5ffd5b50505050506040513d601f19601f82011682018060405250810190610a3191906120fb565b505060405183907fd41d02272333251e6367f747c63d5cc227dcac6b0c799067569e80a30f9da369905f90a2505050565b5f80333014610a9f576040517fa19dbf000000000000000000000000000000000000000000000000000000000081523360048201526024016108ae565b610aa9848461142c565b90503415610abd57610aba846114e3565b91505b9250929050565b600160208181525f928352604092839020835160e081018552815463ffffffff16815292810154918301919091526002810154928201929092526003820154606082015260048201805483916080840191610b1e90611f7e565b80601f0160208091040260200160405190810160405280929190818152602001828054610b4a90611f7e565b8015610b955780601f10610b6c57610100808354040283529160200191610b95565b820191905f5260205f20905b815481529060010190602001808311610b7857829003601f168201915b50505050508152602001600582018054610bae90611f7e565b80601f0160208091040260200160405190810160405280929190818152602001828054610bda90611f7e565b8015610c255780601f10610bfc57610100808354040283529160200191610c25565b820191905f5260205f20905b815481529060010190602001808311610c0857829003601f168201915b50505050508152602001600682018054610c3e90611f7e565b80601f0160208091040260200160405190810160405280929190818152602001828054610c6a90611f7e565b8015610cb55780601f10610c8c57610100808354040283529160200191610cb5565b820191905f5260205f20905b815481529060010190602001808311610c9857829003601f168201915b5050509190925250505060079091015482565b604080516060810182525f80825260208201819052918101919091526040805173ffffffffffffffffffffffffffffffffffffffff8516602082015267ffffffffffffffff8416918101919091525f90606090610801908201604080517fffffffffffffffffffffffffffffffffffffffffffffffffffffffffffffffe081840301815290829052610d5991612164565b5f60405180830381855afa9150503d805f8114610d91576040519150601f19603f3d011682016040523d82523d5f602084013e610d96565b606091505b50909250905081610e29576040517f08c379a000000000000000000000000000000000000000000000000000000000815260206004820152602260248201527f53706f7442616c616e636520707265636f6d70696c652063616c6c206661696c60448201527f656400000000000000000000000000000000000000000000000000000000000060648201526084016108ae565b80806020019051810190610e3d919061217f565b925050505b92915050565b610e50611611565b620249f05a1015610e9b575a6040517f23e228cb0000000000000000000000000000000000000000000000000000000081526004810191909152620249f060248201526044016108ae565b3373ffffffffffffffffffffffffffffffffffffffff7f00000000000000000000000000000000000000000000000000000000000000001614610f0a576040517f7eb966c800000000000000000000000000000000000000000000000000000000815260040160405180910390fd5b8673ffffffffffffffffffffffffffffffffffffffff167f000000000000000000000000000000000000000000000000000000000000000073ffffffffffffffffffffffffffffffffffffffff1614610fcf576040517fc8b356c600000000000000000000000000000000000000000000000000000000815273ffffffffffffffffffffffffffffffffffffffff7f000000000000000000000000000000000000000000000000000000000000000081166004830152881660248201526044016108ae565b5f610fda8686611654565b90505f610fe78787611673565b6040517ffdea04820000000000000000000000000000000000000000000000000000000081529091505f90309063fdea0482906110289085906004016121d1565b6040805180830381865afa92505050801561107e575060408051601f3d9081017fffffffffffffffffffffffffffffffffffffffffffffffffffffffffffffffe016820190925261107b918101906121e3565b60015b6111fd576110c76040518060e001604052805f63ffffffff1681526020015f80191681526020015f81526020015f81526020016060815260200160608152602001606081525090565b6110d189896116bd565b63ffffffff1681526110e389896116df565b60208281019190915260408083018690528051808201825283815234818401525f8d81526001808552908390208251805182547fffffffffffffffffffffffffffffffffffffffffffffffffffffffff000000001663ffffffff90911617825594850151918101919091559183015160028301556060830151600383015560808301519092908290600482019061117a9082612251565b5060a0820151600582019061118f9082612251565b5060c082015160068201906111a49082612251565b50505060208201518160070155905050897f387fc8f821460fa8221428c9f4dc1f6d5db4f6a0a01f33dbeaa8cebd95e5d144826020015134866040516111ec9392919061236d565b60405180910390a25050505061131b565b81341015611240576040517f7cb769dc000000000000000000000000000000000000000000000000000000008152346004820152602481018390526044016108ae565b6040517f84df0fa400000000000000000000000000000000000000000000000000000000815273ffffffffffffffffffffffffffffffffffffffff82166004820152602481018690529092505f9150819030906384df0fa4903490604401604080518083038185885af1935050505080156112f6575060408051601f3d9081017fffffffffffffffffffffffffffffffffffffffffffffffffffffffffffffffe01682019092526112f391810190612394565b60015b61130457503490508361130a565b90925090505b6113158383836116ee565b50505050505b6113256001600655565b50505050505050565b61135960405180606001604052805f81526020015f81526020015f67ffffffffffffffff1681525090565b5f82611366576004611369565b60025b60408051606081018252825467ffffffffffffffff81168083526801000000000000000090910460070b602083015260019093015473ffffffffffffffffffffffffffffffffffffffff1691810182905292505f916113c89190610cc8565b519050610e3d858284611835565b5f8060408314611415576040517f2b701db1000000000000000000000000000000000000000000000000000000008152600481018490526024016108ae565b611421838501856123b6565b909590945092505050565b5f8061143983600161132e565b8051909150156114d8576040805160608101825260025467ffffffffffffffff8116825268010000000000000000900460070b602082015260035473ffffffffffffffffffffffffffffffffffffffff908116928201839052835191926114c4927f00000000000000000000000000000000000000000000000000000000000000009092169161192f565b6114d685825f015184604001516119bc565b505b602001519392505050565b5f806114ef345f61132e565b805190915015611607576040805160608101825260045467ffffffffffffffff8116825268010000000000000000900460070b602082015260055473ffffffffffffffffffffffffffffffffffffffff168183018190528351925191925f926108fc919084818181858888f193505050503d805f811461158a576040519150601f19603f3d011682016040523d82523d5f602084013e61158f565b606091505b50509050806115f257604082810151845191517fa5b05eec00000000000000000000000000000000000000000000000000000000815273ffffffffffffffffffffffffffffffffffffffff909116600482015260248101919091526044016108ae565b61160485835f015185604001516119bc565b50505b6020015192915050565b60026006540361164d576040517f3ee5aeb500000000000000000000000000000000000000000000000000000000815260040160405180910390fd5b6002600655565b5f611663602c600c84866123d9565b61166c91612400565b9392505050565b606061168282604c81866123d9565b8080601f0160208091040260200160405190810160405280939291908181526020018383808284375f92019190915250929695505050505050565b5f6116cc600c600884866123d9565b6116d59161243c565b60e01c9392505050565b5f611663604c602c84866123d9565b81156117e9575f8373ffffffffffffffffffffffffffffffffffffffff16836108fc906040515f60405180830381858888f193505050503d805f811461174f576040519150601f19603f3d011682016040523d82523d5f602084013e611754565b606091505b50509050806117e7576040515f90329085908381818185875af1925050503d805f811461179c576040519150601f19603f3d011682016040523d82523d5f602084013e6117a1565b606091505b50509050806117e5576040517fa5b05eec000000000000000000000000000000000000000000000000000000008152326004820152602481018590526044016108ae565b505b505b80156118305761183073ffffffffffffffffffffffffffffffffffffffff7f000000000000000000000000000000000000000000000000000000000000000016848361192f565b505050565b61186060405180606001604052805f81526020015f81526020015f67ffffffffffffffff1681525090565b5f80808067ffffffffffffffff87117fffffffffffffffffffffffffffffffffffffffffffffffff0000000000000001880102870390505f866020015160070b13156118c1576118b588828860200151611aec565b91955093509150611903565b6118fb888288602001517fffffffffffffffffffffffffffffffffffffffffffffffffffffffffffffffff6118f69190612484565b611b51565b919550935091505b5060408051606081018252938452602084019290925267ffffffffffffffff1690820152949350505050565b6040805173ffffffffffffffffffffffffffffffffffffffff8416602482015260448082018490528251808303909101815260649091019091526020810180517bffffffffffffffffffffffffffffffffffffffffffffffffffffffff167fa9059cbb00000000000000000000000000000000000000000000000000000000179052611830908490611b9a565b6040805173ffffffffffffffffffffffffffffffffffffffff8516602082015267ffffffffffffffff84811682840152831660608083019190915282518083039091018152608082019092525f90611a3a907f010000060000000000000000000000000000000000000000000000000000000090849060a0016124aa565b604080517fffffffffffffffffffffffffffffffffffffffffffffffffffffffffffffffe0818403018152908290527f17938e130000000000000000000000000000000000000000000000000000000082529150733333333333333333333333333333333333333333906317938e1390611ab89084906004016121d1565b5f604051808303815f87803b158015611acf575f80fd5b505af1158015611ae1573d5f803e3d5ffd5b505050505050505050565b5f808080611afb85600a61260f565b90505f611b128267ffffffffffffffff8916612624565b9050611b1e8289612668565b9788900397818903828a110289039550858903019350818581611b4357611b4361263b565b049250505093509350939050565b5f808080611b6085600a61260f565b90505f818767ffffffffffffffff1681611b7c57611b7c61263b565b04808903908911028803989789900397918902965090945050505050565b5f8060205f8451602086015f885af180611bb9576040513d5f823e3d81fd5b50505f513d91508115611bd0578060011415611bea565b73ffffffffffffffffffffffffffffffffffffffff84163b155b15611c39576040517f5274afe700000000000000000000000000000000000000000000000000000000815273ffffffffffffffffffffffffffffffffffffffff851660048201526024016108ae565b50505050565b508054611c4b90611f7e565b5f825580601f10611c5a575050565b601f0160209004905f5260205f2090810190611c769190611c79565b50565b5b80821115611c8d575f8155600101611c7a565b5090565b5f60208284031215611ca1575f80fd5b5035919050565b73ffffffffffffffffffffffffffffffffffffffff81168114611c76575f80fd5b5f8060408385031215611cda575f80fd5b8235611ce581611ca8565b946020939093013593505050565b5f5b83811015611d0d578181015183820152602001611cf5565b50505f910152565b5f8151808452611d2c816020860160208601611cf3565b601f017fffffffffffffffffffffffffffffffffffffffffffffffffffffffffffffffe0169290920160200192915050565b63ffffffff81511682526020810151602083015260408101516040830152606081015160608301525f608082015160e06080850152611da060e0850182611d15565b905060a083015184820360a0860152611db98282611d15565b91505060c083015184820360c0860152610e3d8282611d15565b604081525f611de56040830185611d5e565b90508260208301529392505050565b67ffffffffffffffff81168114611c76575f80fd5b5f8060408385031215611e1a575f80fd5b8235611e2581611ca8565b91506020830135611e3581611df4565b809150509250929050565b5f8083601f840112611e50575f80fd5b50813567ffffffffffffffff811115611e67575f80fd5b602083019150836020828501011115610abd575f80fd5b5f805f805f805f60a0888a031215611e94575f80fd5b8735611e9f81611ca8565b965060208801359550604088013567ffffffffffffffff80821115611ec2575f80fd5b611ece8b838c01611e40565b909750955060608a01359150611ee382611ca8565b90935060808901359080821115611ef8575f80fd5b50611f058a828b01611e40565b989b979a50959850939692959293505050565b5f8060408385031215611f29575f80fd5b8235915060208301358015158114611e35575f80fd5b5f8060208385031215611f50575f80fd5b823567ffffffffffffffff811115611f66575f80fd5b611f7285828601611e40565b90969095509350505050565b600181811c90821680611f9257607f821691505b602082108103611fc9577f4e487b71000000000000000000000000000000000000000000000000000000005f52602260045260245ffd5b50919050565b7f4e487b71000000000000000000000000000000000000000000000000000000005f52601160045260245ffd5b80820180821115610e4257610e42611fcf565b608081525f6120216080830186611d5e565b9050835160208301526020840151604083015273ffffffffffffffffffffffffffffffffffffffff83166060830152949350505050565b7f4e487b71000000000000000000000000000000000000000000000000000000005f52604160045260245ffd5b6040516060810167ffffffffffffffff811182821017156120a8576120a8612058565b60405290565b5f604082840312156120be575f80fd5b6040516040810181811067ffffffffffffffff821117156120e1576120e1612058565b604052825181526020928301519281019290925250919050565b5f8082840360c081121561210d575f80fd5b608081121561211a575f80fd5b50612123612085565b83518152602084015161213581611df4565b602082015261214785604086016120ae565b6040820152915061215b84608085016120ae565b90509250929050565b5f8251612175818460208701611cf3565b9190910192915050565b5f6060828403121561218f575f80fd5b612197612085565b82516121a281611df4565b815260208301516121b281611df4565b602082015260408301516121c581611df4565b60408201529392505050565b602081525f61166c6020830184611d15565b5f80604083850312156121f4575f80fd5b825191506020830151611e3581611ca8565b601f82111561183057805f5260205f20601f840160051c8101602085101561222b5750805b601f840160051c820191505b8181101561224a575f8155600101612237565b5050505050565b815167ffffffffffffffff81111561226b5761226b612058565b61227f816122798454611f7e565b84612206565b602080601f8311600181146122d1575f841561229b5750858301515b7fffffffffffffffffffffffffffffffffffffffffffffffffffffffffffffffff600386901b1c1916600185901b178555612365565b5f858152602081207fffffffffffffffffffffffffffffffffffffffffffffffffffffffffffffffe08616915b8281101561231d578886015182559484019460019091019084016122fe565b508582101561235957878501517fffffffffffffffffffffffffffffffffffffffffffffffffffffffffffffffff600388901b60f8161c191681555b505060018460011b0185555b505050505050565b838152826020820152606060408201525f61238b6060830184611d15565b95945050505050565b5f80604083850312156123a5575f80fd5b505080516020909101519092909150565b5f80604083850312156123c7575f80fd5b823591506020830135611e3581611ca8565b5f80858511156123e7575f80fd5b838611156123f3575f80fd5b5050820193919092039150565b80356020831015610e42577fffffffffffffffffffffffffffffffffffffffffffffffffffffffffffffffff602084900360031b1b1692915050565b7fffffffff00000000000000000000000000000000000000000000000000000000813581811691600485101561247c5780818660040360031b1b83161692505b505092915050565b5f8260070b8260070b028060070b91508082146124a3576124a3611fcf565b5092915050565b7fffffffff00000000000000000000000000000000000000000000000000000000831681525f82516124e3816004850160208701611cf3565b919091016004019392505050565b600181815b8085111561254a57817fffffffffffffffffffffffffffffffffffffffffffffffffffffffffffffffff0482111561253057612530611fcf565b8085161561253d57918102915b93841c93908002906124f6565b509250929050565b5f8261256057506001610e42565b8161256c57505f610e42565b8160018114612582576002811461258c576125a8565b6001915050610e42565b60ff84111561259d5761259d611fcf565b50506001821b610e42565b5060208310610133831016604e8410600b84101617156125cb575081810a610e42565b6125d583836124f1565b807fffffffffffffffffffffffffffffffffffffffffffffffffffffffffffffffff0482111561260757612607611fcf565b029392505050565b5f61166c67ffffffffffffffff841683612552565b8082028115828204841417610e4257610e42611fcf565b7f4e487b71000000000000000000000000000000000000000000000000000000005f52601260045260245ffd5b5f8261269b577f4e487b71000000000000000000000000000000000000000000000000000000005f52601260045260245ffd5b50069056fea2646970667358221220044780bc99165f4f626329a4105ecc8b0cc4ad2fddd81149490712e42b776a0f64736f6c63430008160033",
    "linkReferences": {}
  },
  "methodIdentifiers": {
    "CORE_WRITER_VERSION()": "22dbe29c",
    "ENDPOINT()": "6fad06f5",
    "MIN_GAS()": "20d2c951",
    "NATIVE_TRANSFER_GAS()": "104544dd",
    "OFT()": "1ed0993d",
    "REFUND_ADDRESS()": "f1ae0e9b",
    "SPOT_SEND_ACTION_ID()": "0d1995e0",
    "SPOT_SEND_HEADER()": "1f8164d9",
    "TOKEN()": "82bfefc8",
    "VALID_COMPOSE_MSG_LEN()": "cebb5120",
    "decode_message(bytes)": "fdea0482",
    "failedMessages(bytes32)": "a4e7f8bd",
    "handleCoreTransfers(address,uint256)": "84df0fa4",
    "hypeAsset()": "f6e6b240",
    "hypeIndexByChainId(uint256)": "4bd162df",
    "lzCompose(address,bytes32,bytes,address,bytes)": "d0a10260",
    "oftAsset()": "765008a1",
    "quoteHyperCoreAmount(uint256,bool)": "f9716faf",
    "refundToSrc(bytes32)": "19180904",
    "spotBalance(address,uint64)": "a69610d1"
  },
  "id": 0
}