{
  "abi": [
    {
      "type": "constructor",
      "inputs": [
        {
          "name": "_oft",
          "type": "address",
          "internalType": "address"
        },
        {
          "name": "_coreIndexId",
          "type": "uint64",
          "internalType": "uint64"
        },
        {
          "name": "_assetDecimalDiff",
          "type": "int64",
          "internalType": "int64"
        }
      ],
      "stateMutability": "nonpayable"
    },
    {
      "type": "receive",
      "stateMutability": "payable"
    },
    {
      "type": "function",
      "name": "ENDPOINT",
      "inputs": [],
      "outputs": [
        {
          "name": "",
          "type": "address",
          "internalType": "address"
        }
      ],
      "stateMutability": "view"
    },
    {
      "type": "function",
      "name": "ERC20",
      "inputs": [],
      "outputs": [
        {
          "name": "",
          "type": "address",
          "internalType": "address"
        }
      ],
      "stateMutability": "view"
    },
    {
      "type": "function",
      "name": "ERC20_ASSET_BRIDGE",
      "inputs": [],
      "outputs": [
        {
          "name": "",
          "type": "address",
          "internalType": "address"
        }
      ],
      "stateMutability": "view"
    },
    {
      "type": "function",
      "name": "ERC20_CORE_INDEX_ID",
      "inputs": [],
      "outputs": [
        {
          "name": "",
          "type": "uint64",
          "internalType": "uint64"
        }
      ],
      "stateMutability": "view"
    },
    {
      "type": "function",
      "name": "ERC20_DECIMAL_DIFF",
      "inputs": [],
      "outputs": [
        {
          "name": "",
          "type": "int64",
          "internalType": "int64"
        }
      ],
      "stateMutability": "view"
    },
    {
      "type": "function",
      "name": "MIN_GAS",
      "inputs": [],
      "outputs": [
        {
          "name": "",
          "type": "uint256",
          "internalType": "uint256"
        }
      ],
      "stateMutability": "nonpayable"
    },
    {
      "type": "function",
      "name": "NATIVE_ASSET_BRIDGE",
      "inputs": [],
      "outputs": [
        {
          "name": "",
          "type": "address",
          "internalType": "address"
        }
      ],
      "stateMutability": "view"
    },
    {
      "type": "function",
      "name": "NATIVE_CORE_INDEX_ID",
      "inputs": [],
      "outputs": [
        {
          "name": "",
          "type": "uint64",
          "internalType": "uint64"
        }
      ],
      "stateMutability": "view"
    },
    {
      "type": "function",
      "name": "NATIVE_DECIMAL_DIFF",
      "inputs": [],
      "outputs": [
        {
          "name": "",
          "type": "int64",
          "internalType": "int64"
        }
      ],
      "stateMutability": "view"
    },
    {
      "type": "function",
      "name": "OFT",
      "inputs": [],
      "outputs": [
        {
          "name": "",
          "type": "address",
          "internalType": "address"
        }
      ],
      "stateMutability": "view"
    },
    {
      "type": "function",
      "name": "SPOT_SEND_HEADER",
      "inputs": [],
      "outputs": [
        {
          "name": "",
          "type": "bytes4",
          "internalType": "bytes4"
        }
      ],
      "stateMutability": "view"
    },
    {
      "type": "function",
      "name": "VALID_COMPOSE_MSG_LEN",
      "inputs": [],
      "outputs": [
        {
          "name": "",
          "type": "uint256",
          "internalType": "uint256"
        }
      ],
      "stateMutability": "view"
    },
    {
      "type": "function",
      "name": "coreUserExists",
      "inputs": [
        {
          "name": "user",
          "type": "address",
          "internalType": "address"
        }
      ],
      "outputs": [
        {
          "name": "",
          "type": "tuple",
          "internalType": "struct CoreUserExists",
          "components": [
            {
              "name": "exists",
              "type": "bool",
              "internalType": "bool"
            }
          ]
        }
      ],
      "stateMutability": "view"
    },
    {
      "type": "function",
      "name": "decodeMessage",
      "inputs": [
        {
          "name": "_composeMessage",
          "type": "bytes",
          "internalType": "bytes"
        }
      ],
      "outputs": [
        {
          "name": "minMsgValue",
          "type": "uint256",
          "internalType": "uint256"
        },
        {
          "name": "to",
          "type": "address",
          "internalType": "address"
        }
      ],
      "stateMutability": "pure"
    },
    {
      "type": "function",
      "name": "failedMessages",
      "inputs": [
        {
          "name": "guid",
          "type": "bytes32",
          "internalType": "bytes32"
        }
      ],
      "outputs": [
        {
          "name": "refundSendParam",
          "type": "tuple",
          "internalType": "struct SendParam",
          "components": [
            {
              "name": "dstEid",
              "type": "uint32",
              "internalType": "uint32"
            },
            {
              "name": "to",
              "type": "bytes32",
              "internalType": "bytes32"
            },
            {
              "name": "amountLD",
              "type": "uint256",
              "internalType": "uint256"
            },
            {
              "name": "minAmountLD",
              "type": "uint256",
              "internalType": "uint256"
            },
            {
              "name": "extraOptions",
              "type": "bytes",
              "internalType": "bytes"
            },
            {
              "name": "composeMsg",
              "type": "bytes",
              "internalType": "bytes"
            },
            {
              "name": "oftCmd",
              "type": "bytes",
              "internalType": "bytes"
            }
          ]
        },
        {
          "name": "msgValue",
          "type": "uint256",
          "internalType": "uint256"
        }
      ],
      "stateMutability": "view"
    },
    {
      "type": "function",
      "name": "handleTransfersToHyperCore",
      "inputs": [
        {
          "name": "_to",
          "type": "address",
          "internalType": "address"
        },
        {
          "name": "_amountLD",
          "type": "uint256",
          "internalType": "uint256"
        }
      ],
      "outputs": [],
      "stateMutability": "payable"
    },
    {
      "type": "function",
      "name": "lzCompose",
      "inputs": [
        {
          "name": "_oft",
          "type": "address",
          "internalType": "address"
        },
        {
          "name": "_guid",
          "type": "bytes32",
          "internalType": "bytes32"
        },
        {
          "name": "_message",
          "type": "bytes",
          "internalType": "bytes"
        },
        {
          "name": "",
          "type": "address",
          "internalType": "address"
        },
        {
          "name": "",
          "type": "bytes",
          "internalType": "bytes"
        }
      ],
      "outputs": [],
      "stateMutability": "payable"
    },
    {
      "type": "function",
      "name": "quoteHyperCoreAmount",
      "inputs": [
        {
          "name": "_coreIndexId",
          "type": "uint64",
          "internalType": "uint64"
        },
        {
          "name": "_decimalDiff",
          "type": "int64",
          "internalType": "int64"
        },
        {
          "name": "_bridgeAddress",
          "type": "address",
          "internalType": "address"
        },
        {
          "name": "_amountLD",
          "type": "uint256",
          "internalType": "uint256"
        }
      ],
      "outputs": [
        {
          "name": "",
          "type": "tuple",
          "internalType": "struct IHyperAssetAmount",
          "components": [
            {
              "name": "evm",
              "type": "uint256",
              "internalType": "uint256"
            },
            {
              "name": "core",
              "type": "uint64",
              "internalType": "uint64"
            },
            {
              "name": "coreBalanceAssetBridge",
              "type": "uint64",
              "internalType": "uint64"
            }
          ]
        }
      ],
      "stateMutability": "view"
    },
    {
      "type": "function",
      "name": "refundToSrc",
      "inputs": [
        {
          "name": "_guid",
          "type": "bytes32",
          "internalType": "bytes32"
        }
      ],
      "outputs": [],
      "stateMutability": "payable"
    },
    {
      "type": "function",
      "name": "spotBalance",
      "inputs": [
        {
          "name": "user",
          "type": "address",
          "internalType": "address"
        },
        {
          "name": "token",
          "type": "uint64",
          "internalType": "uint64"
        }
      ],
      "outputs": [
        {
          "name": "",
          "type": "tuple",
          "internalType": "struct SpotBalance",
          "components": [
            {
              "name": "total",
              "type": "uint64",
              "internalType": "uint64"
            },
            {
              "name": "hold",
              "type": "uint64",
              "internalType": "uint64"
            },
            {
              "name": "entryNtl",
              "type": "uint64",
              "internalType": "uint64"
            }
          ]
        }
      ],
      "stateMutability": "view"
    },
    {
      "type": "event",
      "name": "CompleteRefund",
      "inputs": [],
      "anonymous": false
    },
    {
      "type": "event",
      "name": "FailedMessageDecode",
      "inputs": [
        {
          "name": "guid",
          "type": "bytes32",
          "indexed": true,
          "internalType": "bytes32"
        },
        {
          "name": "sender",
          "type": "bytes32",
          "indexed": false,
          "internalType": "bytes32"
        },
        {
          "name": "msgValue",
          "type": "uint256",
          "indexed": false,
          "internalType": "uint256"
        },
        {
          "name": "composeMessage",
          "type": "bytes",
          "indexed": false,
          "internalType": "bytes"
        }
      ],
      "anonymous": false
    },
    {
      "type": "event",
      "name": "RefundHyperEVM",
      "inputs": [
        {
          "name": "receiver",
          "type": "address",
          "indexed": true,
          "internalType": "address"
        },
        {
          "name": "amountERC20",
          "type": "uint256",
          "indexed": true,
          "internalType": "uint256"
        },
        {
          "name": "amountHYPE",
          "type": "uint256",
          "indexed": true,
          "internalType": "uint256"
        }
      ],
      "anonymous": false
    },
    {
      "type": "event",
      "name": "RefundSuccessful",
      "inputs": [
        {
          "name": "guid",
          "type": "bytes32",
          "indexed": true,
          "internalType": "bytes32"
        }
      ],
      "anonymous": false
    },
    {
      "type": "error",
      "name": "ComposeMsgLengthNot64Bytes",
      "inputs": [
        {
          "name": "length",
          "type": "uint256",
          "internalType": "uint256"
        }
      ]
    },
    {
      "type": "error",
      "name": "CoreUserNotActivated",
      "inputs": []
    },
    {
      "type": "error",
      "name": "FailedMessageNotFound",
      "inputs": [
        {
          "name": "guid",
          "type": "bytes32",
          "internalType": "bytes32"
        }
      ]
    },
    {
      "type": "error",
      "name": "InsufficientGas",
      "inputs": [
        {
          "name": "gasLeft",
          "type": "uint256",
          "internalType": "uint256"
        },
        {
          "name": "minGas",
          "type": "uint256",
          "internalType": "uint256"
        }
      ]
    },
    {
      "type": "error",
      "name": "InsufficientMsgValue",
      "inputs": [
        {
          "name": "msgValue",
          "type": "uint256",
          "internalType": "uint256"
        },
        {
          "name": "requiredValue",
          "type": "uint256",
          "internalType": "uint256"
        }
      ]
    },
    {
      "type": "error",
      "name": "InvalidComposeCaller",
      "inputs": [
        {
          "name": "internalOFTAddress",
          "type": "address",
          "internalType": "address"
        },
        {
          "name": "receivedOFTAddress",
          "type": "address",
          "internalType": "address"
        }
      ]
    },
    {
      "type": "error",
      "name": "InvalidOFTAddress",
      "inputs": []
    },
    {
      "type": "error",
      "name": "NativeTransferFailed",
      "inputs": [
        {
          "name": "amount",
          "type": "uint256",
          "internalType": "uint256"
        }
      ]
    },
    {
      "type": "error",
      "name": "OnlyEndpoint",
      "inputs": []
    },
    {
      "type": "error",
      "name": "OnlySelf",
      "inputs": [
        {
          "name": "caller",
          "type": "address",
          "internalType": "address"
        }
      ]
    },
    {
      "type": "error",
      "name": "ReentrancyGuardReentrantCall",
      "inputs": []
    },
    {
      "type": "error",
      "name": "SafeERC20FailedOperation",
      "inputs": [
        {
          "name": "token",
          "type": "address",
          "internalType": "address"
        }
      ]
    },
    {
      "type": "error",
      "name": "SpotBalanceReadFailed",
      "inputs": [
        {
          "name": "user",
          "type": "address",
          "internalType": "address"
        },
        {
          "name": "tokenId",
          "type": "uint64",
          "internalType": "uint64"
        }
      ]
    },
    {
      "type": "error",
      "name": "TransferAmtExceedsAssetBridgeBalance",
      "inputs": [
        {
          "name": "amounts",
          "type": "tuple",
          "internalType": "struct IHyperAssetAmount",
          "components": [
            {
              "name": "evm",
              "type": "uint256",
              "internalType": "uint256"
            },
            {
              "name": "core",
              "type": "uint64",
              "internalType": "uint64"
            },
            {
              "name": "coreBalanceAssetBridge",
              "type": "uint64",
              "internalType": "uint64"
            }
          ]
        }
      ]
    }
  ],
  "bytecode": {
    "object": "0x6101a060405234801562000011575f80fd5b5060405162002c0038038062002c00833981016040819052620000349162000203565b60015f556001600160a01b038316620000605760405163c23419a560e01b815260040160405180910390fd5b826001600160a01b0316635e280f116040518163ffffffff1660e01b8152600401602060405180830381865afa1580156200009d573d5f803e3d5ffd5b505050506040513d601f19601f82011682018060405250810190620000c3919062000263565b6001600160a01b03908116608052831660a0525f466103e714620000ea57610451620000ed565b60965b73222222222222222222222222222222222222222260c052600a60e0526001600160401b0381166101005260a05160408051637e062a3560e11b815290519293506001600160a01b039091169163fc0c546a916004808201926020929091908290030181865afa15801562000164573d5f803e3d5ffd5b505050506040513d601f19601f820116820180604052508101906200018a919062000263565b6001600160a01b031661012052620001ab6001600160401b038416620001d4565b6001600160a01b0316610140525060070b610160526001600160401b03166101805250620002a8565b5f620001e5826001609d1b62000288565b92915050565b6001600160a01b038116811462000200575f80fd5b50565b5f805f6060848603121562000216575f80fd5b83516200022381620001eb565b60208501519093506001600160401b038116811462000240575f80fd5b8092505060408401518060070b811462000258575f80fd5b809150509250925092565b5f6020828403121562000274575f80fd5b81516200028181620001eb565b9392505050565b80820180821115620001e557634e487b7160e01b5f52601160045260245ffd5b60805160a05160c05160e05161010051610120516101405161016051610180516128826200037e5f395f8181610581015281816116a8015261181101525f818161040f01526116c901525f818161054e015281816116ea01526117e601525f81816104e10152818161167b01526117c301525f81816104420152818161184301526119f001525f818161031a015261186401525f818161026b01528181611885015261194d01525f818161018b015281816108e201528181610f8c015261100301525f81816102e70152610f1c01526128825ff3fe60806040526004361061015a575f3560e01c8063a69610d1116100bb578063cebb512011610071578063f2f7141f11610057578063f2f7141f1461052a578063f34ec5e01461053d578063fa69dc7b14610570575f80fd5b8063cebb512014610503578063d0a1026014610517575f80fd5b8063b20bffdc116100a1578063b20bffdc14610431578063c2a2eee41461047d578063cc4aa204146104d0575f80fd5b8063a69610d1146103ac578063a754403e146103fe575f80fd5b8063634d45b21161011057806371139d6c116100f657806371139d6c146103095780639dbfb13f1461034f578063a4e7f8bd1461037f575f80fd5b8063634d45b21461028d5780636fad06f5146102d6575f80fd5b80631f8164d9116101405780631f8164d9146101d757806320d2c9511461023b578063574ad4a81461025a575f80fd5b806319180904146101655780631ed0993d1461017a575f80fd5b3661016157005b5f80fd5b610178610173366004611dc8565b6105a3565b005b348015610185575f80fd5b506101ad7f000000000000000000000000000000000000000000000000000000000000000081565b60405173ffffffffffffffffffffffffffffffffffffffff90911681526020015b60405180910390f35b3480156101e2575f80fd5b5061020a7f010000060000000000000000000000000000000000000000000000000000000081565b6040517fffffffff0000000000000000000000000000000000000000000000000000000090911681526020016101ce565b348015610246575f80fd5b50620249f05b6040519081526020016101ce565b348015610265575f80fd5b506101ad7f000000000000000000000000000000000000000000000000000000000000000081565b348015610298575f80fd5b506102ac6102a7366004611e24565b61098b565b6040805192835273ffffffffffffffffffffffffffffffffffffffff9091166020830152016101ce565b3480156102e1575f80fd5b506101ad7f000000000000000000000000000000000000000000000000000000000000000081565b348015610314575f80fd5b5061033c7f000000000000000000000000000000000000000000000000000000000000000081565b60405160079190910b81526020016101ce565b34801561035a575f80fd5b5061036e610369366004611e84565b6109e1565b6040519051151581526020016101ce565b34801561038a575f80fd5b5061039e610399366004611dc8565b610b3b565b6040516101ce929190611f7f565b3480156103b7575f80fd5b506103cb6103c6366004611fb5565b610d3f565b60408051825167ffffffffffffffff908116825260208085015182169083015292820151909216908201526060016101ce565b348015610409575f80fd5b5061033c7f000000000000000000000000000000000000000000000000000000000000000081565b34801561043c575f80fd5b506104647f000000000000000000000000000000000000000000000000000000000000000081565b60405167ffffffffffffffff90911681526020016101ce565b348015610488575f80fd5b5061049c610497366004611fec565b610ebe565b604080518251815260208084015167ffffffffffffffff9081169183019190915292820151909216908201526060016101ce565b3480156104db575f80fd5b506101ad7f000000000000000000000000000000000000000000000000000000000000000081565b34801561050e575f80fd5b5061024c604081565b610178610525366004612040565b610efc565b6101786105383660046120da565b611393565b348015610548575f80fd5b506101ad7f000000000000000000000000000000000000000000000000000000000000000081565b34801561057b575f80fd5b506104647f000000000000000000000000000000000000000000000000000000000000000081565b5f818152600160208190526040808320815161012081018352815463ffffffff1692810192835292810154606084015260028101546080840152600381015460a0840152600481018054919284929091849160c08501919061060490612104565b80601f016020809104026020016040519081016040528092919081815260200182805461063090612104565b801561067b5780601f106106525761010080835404028352916020019161067b565b820191905f5260205f20905b81548152906001019060200180831161065e57829003601f168201915b5050505050815260200160058201805461069490612104565b80601f01602080910402602001604051908101604052809291908181526020018280546106c090612104565b801561070b5780601f106106e25761010080835404028352916020019161070b565b820191905f5260205f20905b8154815290600101906020018083116106ee57829003601f168201915b5050505050815260200160068201805461072490612104565b80601f016020809104026020016040519081016040528092919081815260200182805461075090612104565b801561079b5780601f106107725761010080835404028352916020019161079b565b820191905f5260205f20905b81548152906001019060200180831161077e57829003601f168201915b5050509190925250505081526007919091015460209091015280515190915063ffffffff165f03610800576040517f0b948634000000000000000000000000000000000000000000000000000000008152600481018390526024015b60405180910390fd5b5f828152600160208190526040822080547fffffffffffffffffffffffffffffffffffffffffffffffffffffffff0000000016815590810182905560028101829055600381018290559081816108596004830182611d76565b610866600583015f611d76565b610873600683015f611d76565b5050600782015f905550505f34826020015161088f919061217c565b82516040805180820182528381525f602082015290517fc7c7f5b300000000000000000000000000000000000000000000000000000000815292935073ffffffffffffffffffffffffffffffffffffffff7f0000000000000000000000000000000000000000000000000000000000000000169263c7c7f5b392859261091992329060040161218f565b60c06040518083038185885af1158015610935573d5f803e3d5ffd5b50505050506040513d601f19601f8201168201806040525081019061095a919061227b565b505060405183907fd41d02272333251e6367f747c63d5cc227dcac6b0c799067569e80a30f9da369905f90a2505050565b5f80604083146109ca576040517f2b701db1000000000000000000000000000000000000000000000000000000008152600481018490526024016107f7565b6109d6838501856122e4565b909590945092505050565b60408051602081019091525f81526040805173ffffffffffffffffffffffffffffffffffffffff841660208201525f9182916108109101604080517fffffffffffffffffffffffffffffffffffffffffffffffffffffffffffffffe081840301815290829052610a5091612307565b5f60405180830381855afa9150503d805f8114610a88576040519150601f19603f3d011682016040523d82523d5f602084013e610a8d565b606091505b509150915081610b1f576040517f08c379a000000000000000000000000000000000000000000000000000000000815260206004820152602760248201527f436f726520757365722065786973747320707265636f6d70696c652063616c6c60448201527f206661696c65640000000000000000000000000000000000000000000000000060648201526084016107f7565b80806020019051810190610b339190612322565b949350505050565b600160208181525f928352604092839020835160e081018552815463ffffffff16815292810154918301919091526002810154928201929092526003820154606082015260048201805483916080840191610b9590612104565b80601f0160208091040260200160405190810160405280929190818152602001828054610bc190612104565b8015610c0c5780601f10610be357610100808354040283529160200191610c0c565b820191905f5260205f20905b815481529060010190602001808311610bef57829003601f168201915b50505050508152602001600582018054610c2590612104565b80601f0160208091040260200160405190810160405280929190818152602001828054610c5190612104565b8015610c9c5780601f10610c7357610100808354040283529160200191610c9c565b820191905f5260205f20905b815481529060010190602001808311610c7f57829003601f168201915b50505050508152602001600682018054610cb590612104565b80601f0160208091040260200160405190810160405280929190818152602001828054610ce190612104565b8015610d2c5780601f10610d0357610100808354040283529160200191610d2c565b820191905f5260205f20905b815481529060010190602001808311610d0f57829003601f168201915b5050509190925250505060079091015482565b604080516060810182525f80825260208201819052918101919091526040805173ffffffffffffffffffffffffffffffffffffffff8516602082015267ffffffffffffffff8416918101919091525f90819061080190606001604080517fffffffffffffffffffffffffffffffffffffffffffffffffffffffffffffffe081840301815290829052610dd091612307565b5f60405180830381855afa9150503d805f8114610e08576040519150601f19603f3d011682016040523d82523d5f602084013e610e0d565b606091505b509150915081610e9f576040517f08c379a000000000000000000000000000000000000000000000000000000000815260206004820152602260248201527f53706f7442616c616e636520707265636f6d70696c652063616c6c206661696c60448201527f656400000000000000000000000000000000000000000000000000000000000060648201526084016107f7565b80806020019051810190610eb39190612370565b925050505b92915050565b604080516060810182525f8082526020820181905291810182905290610ee48487610d3f565b519050610ef28382876113eb565b9695505050505050565b610f04611491565b3373ffffffffffffffffffffffffffffffffffffffff7f00000000000000000000000000000000000000000000000000000000000000001614610f73576040517f7eb966c800000000000000000000000000000000000000000000000000000000815260040160405180910390fd5b8673ffffffffffffffffffffffffffffffffffffffff167f000000000000000000000000000000000000000000000000000000000000000073ffffffffffffffffffffffffffffffffffffffff1614611038576040517fc8b356c600000000000000000000000000000000000000000000000000000000815273ffffffffffffffffffffffffffffffffffffffff7f000000000000000000000000000000000000000000000000000000000000000081166004830152881660248201526044016107f7565b5f61104386866114d2565b90505f61105087876114f1565b6040517f634d45b2000000000000000000000000000000000000000000000000000000008152909150309063634d45b29061108f9084906004016123c2565b6040805180830381865afa9250505080156110e5575060408051601f3d9081017fffffffffffffffffffffffffffffffffffffffffffffffffffffffffffffffe01682019092526110e2918101906123d4565b60015b6112615761112e6040518060e001604052805f63ffffffff1681526020015f80191681526020015f81526020015f81526020016060815260200160608152602001606081525090565b611138888861153b565b63ffffffff16815261114a888861155d565b60208281019190915260408083018590528051808201825283815234818401525f8c81526001808552908390208251805182547fffffffffffffffffffffffffffffffffffffffffffffffffffffffff000000001663ffffffff9091161782559485015191810191909155918301516002830155606083015160038301556080830151909290829060048201906111e19082612442565b5060a082015160058201906111f69082612442565b5060c0820151600682019061120b9082612442565b50505060208201518160070155905050887f387fc8f821460fa8221428c9f4dc1f6d5db4f6a0a01f33dbeaa8cebd95e5d144826020015134856040516112539392919061255e565b60405180910390a25061137f565b813410156112a4576040517f7cb769dc000000000000000000000000000000000000000000000000000000008152346004820152602481018390526044016107f7565b620249f05a10156112ef575a620249f06040517f23e228cb000000000000000000000000000000000000000000000000000000008152600481019290925260248201526044016107f7565b6040517ff2f7141f00000000000000000000000000000000000000000000000000000000815273ffffffffffffffffffffffffffffffffffffffff8216600482015260248101859052309063f2f7141f9034906044015f604051808303818588803b15801561135c575f80fd5b505af19350505050801561136e575060015b61137c5761137c818561156c565b50505b505061138a60015f55565b50505050505050565b3330146113ce576040517fa19dbf000000000000000000000000000000000000000000000000000000000081523360048201526024016107f7565b6113d882826116a2565b34156113e7576113e78261183d565b5050565b604080516060810182525f80825260208201819052918101919091525f805f8460070b13156114295761141f868686611a19565b9092509050611463565b61145d8686611458877fffffffffffffffffffffffffffffffffffffffffffffffffffffffffffffffff612585565b611a7e565b90925090505b6040805160608101825292835267ffffffffffffffff91821660208401529085169082015290509392505050565b60025f54036114cc576040517f3ee5aeb500000000000000000000000000000000000000000000000000000000815260040160405180910390fd5b60025f55565b5f6114e1602c600c84866125ab565b6114ea916125d2565b9392505050565b606061150082604c81866125ab565b8080601f0160208091040260200160405190810160405280939291908181526020018383808284375f92019190915250929695505050505050565b5f61154a600c600884866125ab565b6115539161260e565b60e01c9392505050565b5f6114e1604c602c84866125ab565b341561165b575f8273ffffffffffffffffffffffffffffffffffffffff16346040515f6040518083038185875af1925050503d805f81146115c8576040519150601f19603f3d011682016040523d82523d5f602084013e6115cd565b606091505b5050905080611659576040515f90329034908381818185875af1925050503d805f8114611615576040519150601f19603f3d011682016040523d82523d5f602084013e61161a565b606091505b5050905080611657576040517f77479d320000000000000000000000000000000000000000000000000000000081523460048201526024016107f7565b505b505b80156113e7576113e773ffffffffffffffffffffffffffffffffffffffff7f0000000000000000000000000000000000000000000000000000000000000000168383611abe565b5f61170f7f00000000000000000000000000000000000000000000000000000000000000007f00000000000000000000000000000000000000000000000000000000000000007f000000000000000000000000000000000000000000000000000000000000000085610ebe565b9050806040015167ffffffffffffffff16816020015167ffffffffffffffff16111561178d57604080517f91ced2e100000000000000000000000000000000000000000000000000000000815282516004820152602083015167ffffffffffffffff90811660248301529183015190911660448201526064016107f7565b805115611838575f6117a3848360200151611b4b565b825190915061180b9073ffffffffffffffffffffffffffffffffffffffff7f000000000000000000000000000000000000000000000000000000000000000016907f000000000000000000000000000000000000000000000000000000000000000090611abe565b611836847f000000000000000000000000000000000000000000000000000000000000000083611b92565b505b505050565b5f6118aa7f00000000000000000000000000000000000000000000000000000000000000007f00000000000000000000000000000000000000000000000000000000000000007f000000000000000000000000000000000000000000000000000000000000000034610ebe565b9050806040015167ffffffffffffffff16816020015167ffffffffffffffff16111561192857604080517f91ced2e100000000000000000000000000000000000000000000000000000000815282516004820152602083015167ffffffffffffffff90811660248301529183015190911660448201526064016107f7565b8051156113e75780516040515f9173ffffffffffffffffffffffffffffffffffffffff7f000000000000000000000000000000000000000000000000000000000000000016918381818185875af1925050503d805f81146119a4576040519150601f19603f3d011682016040523d82523d5f602084013e6119a9565b606091505b50509050806119ea5781516040517f77479d3200000000000000000000000000000000000000000000000000000000815260048101919091526024016107f7565b611838837f00000000000000000000000000000000000000000000000000000000000000008460200151611b92565b5f8080611a2784600a612774565b90505f611a3e8267ffffffffffffffff8816612789565b90505f828881611a5057611a506127a0565b0688039050611a5f8183611cc2565b9450828581611a7057611a706127a0565b049350505050935093915050565b5f8080611a8c84600a612774565b90505f611aa38267ffffffffffffffff88166127cd565b9050611aaf8782611cc2565b97918802965090945050505050565b6040805173ffffffffffffffffffffffffffffffffffffffff8416602482015260448082018490528251808303909101815260649091019091526020810180517bffffffffffffffffffffffffffffffffffffffffffffffffffffffff167fa9059cbb00000000000000000000000000000000000000000000000000000000179052611838908490611cd7565b5f611b55836109e1565b51611b8c576040517fbdcf14ea00000000000000000000000000000000000000000000000000000000815260040160405180910390fd5b50919050565b6040805173ffffffffffffffffffffffffffffffffffffffff8516602082015267ffffffffffffffff84811682840152831660608083019190915282518083039091018152608082019092525f90611c10907f010000060000000000000000000000000000000000000000000000000000000090849060a001612805565b604080517fffffffffffffffffffffffffffffffffffffffffffffffffffffffffffffffe0818403018152908290527f17938e130000000000000000000000000000000000000000000000000000000082529150733333333333333333333333333333333333333333906317938e1390611c8e9084906004016123c2565b5f604051808303815f87803b158015611ca5575f80fd5b505af1158015611cb7573d5f803e3d5ffd5b505050505050505050565b5f818310611cd057816114ea565b5090919050565b5f8060205f8451602086015f885af180611cf6576040513d5f823e3d81fd5b50505f513d91508115611d0d578060011415611d27565b73ffffffffffffffffffffffffffffffffffffffff84163b155b15611836576040517f5274afe700000000000000000000000000000000000000000000000000000000815273ffffffffffffffffffffffffffffffffffffffff851660048201526024016107f7565b508054611d8290612104565b5f825580601f10611d91575050565b601f0160209004905f5260205f2090810190611dad9190611db0565b50565b5b80821115611dc4575f8155600101611db1565b5090565b5f60208284031215611dd8575f80fd5b5035919050565b5f8083601f840112611def575f80fd5b50813567ffffffffffffffff811115611e06575f80fd5b602083019150836020828501011115611e1d575f80fd5b9250929050565b5f8060208385031215611e35575f80fd5b823567ffffffffffffffff811115611e4b575f80fd5b611e5785828601611ddf565b90969095509350505050565b73ffffffffffffffffffffffffffffffffffffffff81168114611dad575f80fd5b5f60208284031215611e94575f80fd5b81356114ea81611e63565b5f5b83811015611eb9578181015183820152602001611ea1565b50505f910152565b5f8151808452611ed8816020860160208601611e9f565b601f017fffffffffffffffffffffffffffffffffffffffffffffffffffffffffffffffe0169290920160200192915050565b63ffffffff81511682526020810151602083015260408101516040830152606081015160608301525f608082015160e06080850152611f4c60e0850182611ec1565b905060a083015184820360a0860152611f658282611ec1565b91505060c083015184820360c0860152610eb38282611ec1565b604081525f611f916040830185611f0a565b90508260208301529392505050565b67ffffffffffffffff81168114611dad575f80fd5b5f8060408385031215611fc6575f80fd5b8235611fd181611e63565b91506020830135611fe181611fa0565b809150509250929050565b5f805f8060808587031215611fff575f80fd5b843561200a81611fa0565b93506020850135600781900b8114612020575f80fd5b9250604085013561203081611e63565b9396929550929360600135925050565b5f805f805f805f60a0888a031215612056575f80fd5b873561206181611e63565b965060208801359550604088013567ffffffffffffffff80821115612084575f80fd5b6120908b838c01611ddf565b909750955060608a013591506120a582611e63565b909350608089013590808211156120ba575f80fd5b506120c78a828b01611ddf565b989b979a50959850939692959293505050565b5f80604083850312156120eb575f80fd5b82356120f681611e63565b946020939093013593505050565b600181811c9082168061211857607f821691505b602082108103611b8c577f4e487b71000000000000000000000000000000000000000000000000000000005f52602260045260245ffd5b7f4e487b71000000000000000000000000000000000000000000000000000000005f52601160045260245ffd5b80820180821115610eb857610eb861214f565b608081525f6121a16080830186611f0a565b9050835160208301526020840151604083015273ffffffffffffffffffffffffffffffffffffffff83166060830152949350505050565b7f4e487b71000000000000000000000000000000000000000000000000000000005f52604160045260245ffd5b6040516060810167ffffffffffffffff81118282101715612228576122286121d8565b60405290565b5f6040828403121561223e575f80fd5b6040516040810181811067ffffffffffffffff82111715612261576122616121d8565b604052825181526020928301519281019290925250919050565b5f8082840360c081121561228d575f80fd5b608081121561229a575f80fd5b506122a3612205565b8351815260208401516122b581611fa0565b60208201526122c7856040860161222e565b604082015291506122db846080850161222e565b90509250929050565b5f80604083850312156122f5575f80fd5b823591506020830135611fe181611e63565b5f8251612318818460208701611e9f565b9190910192915050565b5f60208284031215612332575f80fd5b6040516020810181811067ffffffffffffffff82111715612355576123556121d8565b60405282518015158114612367575f80fd5b81529392505050565b5f60608284031215612380575f80fd5b612388612205565b825161239381611fa0565b815260208301516123a381611fa0565b602082015260408301516123b681611fa0565b60408201529392505050565b602081525f6114ea6020830184611ec1565b5f80604083850312156123e5575f80fd5b825191506020830151611fe181611e63565b601f82111561183857805f5260205f20601f840160051c8101602085101561241c5750805b601f840160051c820191505b8181101561243b575f8155600101612428565b5050505050565b815167ffffffffffffffff81111561245c5761245c6121d8565b6124708161246a8454612104565b846123f7565b602080601f8311600181146124c2575f841561248c5750858301515b7fffffffffffffffffffffffffffffffffffffffffffffffffffffffffffffffff600386901b1c1916600185901b178555612556565b5f858152602081207fffffffffffffffffffffffffffffffffffffffffffffffffffffffffffffffe08616915b8281101561250e578886015182559484019460019091019084016124ef565b508582101561254a57878501517fffffffffffffffffffffffffffffffffffffffffffffffffffffffffffffffff600388901b60f8161c191681555b505060018460011b0185555b505050505050565b838152826020820152606060408201525f61257c6060830184611ec1565b95945050505050565b5f8260070b8260070b028060070b91508082146125a4576125a461214f565b5092915050565b5f80858511156125b9575f80fd5b838611156125c5575f80fd5b5050820193919092039150565b80356020831015610eb8577fffffffffffffffffffffffffffffffffffffffffffffffffffffffffffffffff602084900360031b1b1692915050565b7fffffffff00000000000000000000000000000000000000000000000000000000813581811691600485101561264e5780818660040360031b1b83161692505b505092915050565b600181815b808511156126af57817fffffffffffffffffffffffffffffffffffffffffffffffffffffffffffffffff048211156126955761269561214f565b808516156126a257918102915b93841c939080029061265b565b509250929050565b5f826126c557506001610eb8565b816126d157505f610eb8565b81600181146126e757600281146126f15761270d565b6001915050610eb8565b60ff8411156127025761270261214f565b50506001821b610eb8565b5060208310610133831016604e8410600b8410161715612730575081810a610eb8565b61273a8383612656565b807fffffffffffffffffffffffffffffffffffffffffffffffffffffffffffffffff0482111561276c5761276c61214f565b029392505050565b5f6114ea67ffffffffffffffff8416836126b7565b8082028115828204841417610eb857610eb861214f565b7f4e487b71000000000000000000000000000000000000000000000000000000005f52601260045260245ffd5b5f82612800577f4e487b71000000000000000000000000000000000000000000000000000000005f52601260045260245ffd5b500490565b7fffffffff00000000000000000000000000000000000000000000000000000000831681525f825161283e816004850160208701611e9f565b91909101600401939250505056fea2646970667358221220f0332d787abd59e9224f26a7dba3fc7906c5eaa0d6b526edcb400ed562af31a764736f6c63430008160033",
    "linkReferences": {}
  },
  "methodIdentifiers": {
    "ENDPOINT()": "6fad06f5",
    "ERC20()": "cc4aa204",
    "ERC20_ASSET_BRIDGE()": "f34ec5e0",
    "ERC20_CORE_INDEX_ID()": "fa69dc7b",
    "ERC20_DECIMAL_DIFF()": "a754403e",
    "MIN_GAS()": "20d2c951",
    "NATIVE_ASSET_BRIDGE()": "574ad4a8",
    "NATIVE_CORE_INDEX_ID()": "b20bffdc",
    "NATIVE_DECIMAL_DIFF()": "71139d6c",
    "OFT()": "1ed0993d",
    "SPOT_SEND_HEADER()": "1f8164d9",
    "VALID_COMPOSE_MSG_LEN()": "cebb5120",
    "coreUserExists(address)": "9dbfb13f",
    "decodeMessage(bytes)": "634d45b2",
    "failedMessages(bytes32)": "a4e7f8bd",
    "handleTransfersToHyperCore(address,uint256)": "f2f7141f",
    "lzCompose(address,bytes32,bytes,address,bytes)": "d0a10260",
    "quoteHyperCoreAmount(uint64,int64,address,uint256)": "c2a2eee4",
    "refundToSrc(bytes32)": "19180904",
    "spotBalance(address,uint64)": "a69610d1"
  },
  "id": 0
}