{
  "abi": [
    {
      "type": "constructor",
      "inputs": [
        {
          "name": "_endpoint",
          "type": "address",
          "internalType": "address"
        },
        {
          "name": "_oft",
          "type": "address",
          "internalType": "address"
        },
        {
          "name": "_coreIndexId",
          "type": "uint64",
          "internalType": "uint64"
        },
        {
          "name": "_weiDiff",
          "type": "uint64",
          "internalType": "uint64"
        }
      ],
      "stateMutability": "nonpayable"
    },
    {
      "type": "receive",
      "stateMutability": "payable"
    },
    {
      "type": "function",
      "name": "HLP_PRECOMPILE_READ_SPOT_BALANCE",
      "inputs": [],
      "outputs": [
        {
          "name": "",
          "type": "address",
          "internalType": "address"
        }
      ],
      "stateMutability": "view"
    },
    {
      "type": "function",
      "name": "HLP_PRECOMPILE_WRITE",
      "inputs": [],
      "outputs": [
        {
          "name": "",
          "type": "address",
          "internalType": "address"
        }
      ],
      "stateMutability": "view"
    },
    {
      "type": "function",
      "name": "VALID_COMPOSE_MESSAGE_LENGTH_ENCODE",
      "inputs": [],
      "outputs": [
        {
          "name": "",
          "type": "uint256",
          "internalType": "uint256"
        }
      ],
      "stateMutability": "view"
    },
    {
      "type": "function",
      "name": "VALID_COMPOSE_MESSAGE_LENGTH_PACKED",
      "inputs": [],
      "outputs": [
        {
          "name": "",
          "type": "uint256",
          "internalType": "uint256"
        }
      ],
      "stateMutability": "view"
    },
    {
      "type": "function",
      "name": "balanceOfHyperCore",
      "inputs": [
        {
          "name": "_user",
          "type": "address",
          "internalType": "address"
        },
        {
          "name": "_tokenId",
          "type": "uint64",
          "internalType": "uint64"
        }
      ],
      "outputs": [
        {
          "name": "",
          "type": "uint64",
          "internalType": "uint64"
        }
      ],
      "stateMutability": "view"
    },
    {
      "type": "function",
      "name": "endpoint",
      "inputs": [],
      "outputs": [
        {
          "name": "",
          "type": "address",
          "internalType": "address"
        }
      ],
      "stateMutability": "view"
    },
    {
      "type": "function",
      "name": "getHypeAsset",
      "inputs": [],
      "outputs": [
        {
          "name": "",
          "type": "tuple",
          "internalType": "struct IHyperAsset",
          "components": [
            {
              "name": "assetBridgeAddress",
              "type": "address",
              "internalType": "address"
            },
            {
              "name": "coreIndexId",
              "type": "uint64",
              "internalType": "uint64"
            },
            {
              "name": "decimalDiff",
              "type": "uint64",
              "internalType": "uint64"
            }
          ]
        }
      ],
      "stateMutability": "view"
    },
    {
      "type": "function",
      "name": "getOFTAsset",
      "inputs": [],
      "outputs": [
        {
          "name": "",
          "type": "tuple",
          "internalType": "struct IHyperAsset",
          "components": [
            {
              "name": "assetBridgeAddress",
              "type": "address",
              "internalType": "address"
            },
            {
              "name": "coreIndexId",
              "type": "uint64",
              "internalType": "uint64"
            },
            {
              "name": "decimalDiff",
              "type": "uint64",
              "internalType": "uint64"
            }
          ]
        }
      ],
      "stateMutability": "view"
    },
    {
      "type": "function",
      "name": "hypeAsset",
      "inputs": [],
      "outputs": [
        {
          "name": "assetBridgeAddress",
          "type": "address",
          "internalType": "address"
        },
        {
          "name": "coreIndexId",
          "type": "uint64",
          "internalType": "uint64"
        },
        {
          "name": "decimalDiff",
          "type": "uint64",
          "internalType": "uint64"
        }
      ],
      "stateMutability": "view"
    },
    {
      "type": "function",
      "name": "lzCompose",
      "inputs": [
        {
          "name": "_oft",
          "type": "address",
          "internalType": "address"
        },
        {
          "name": "",
          "type": "bytes32",
          "internalType": "bytes32"
        },
        {
          "name": "_message",
          "type": "bytes",
          "internalType": "bytes"
        },
        {
          "name": "",
          "type": "address",
          "internalType": "address"
        },
        {
          "name": "",
          "type": "bytes",
          "internalType": "bytes"
        }
      ],
      "outputs": [],
      "stateMutability": "payable"
    },
    {
      "type": "function",
      "name": "oft",
      "inputs": [],
      "outputs": [
        {
          "name": "",
          "type": "address",
          "internalType": "contract IOFT"
        }
      ],
      "stateMutability": "view"
    },
    {
      "type": "function",
      "name": "oftAsset",
      "inputs": [],
      "outputs": [
        {
          "name": "assetBridgeAddress",
          "type": "address",
          "internalType": "address"
        },
        {
          "name": "coreIndexId",
          "type": "uint64",
          "internalType": "uint64"
        },
        {
          "name": "decimalDiff",
          "type": "uint64",
          "internalType": "uint64"
        }
      ],
      "stateMutability": "view"
    },
    {
      "type": "function",
      "name": "quoteHyperCoreAmount",
      "inputs": [
        {
          "name": "_amount",
          "type": "uint256",
          "internalType": "uint256"
        },
        {
          "name": "_isOFT",
          "type": "bool",
          "internalType": "bool"
        }
      ],
      "outputs": [
        {
          "name": "",
          "type": "tuple",
          "internalType": "struct IHyperAssetAmount",
          "components": [
            {
              "name": "evm",
              "type": "uint256",
              "internalType": "uint256"
            },
            {
              "name": "dust",
              "type": "uint256",
              "internalType": "uint256"
            },
            {
              "name": "core",
              "type": "uint64",
              "internalType": "uint64"
            }
          ]
        }
      ],
      "stateMutability": "nonpayable"
    },
    {
      "type": "function",
      "name": "refundERC20",
      "inputs": [
        {
          "name": "_refundAddress",
          "type": "address",
          "internalType": "address"
        },
        {
          "name": "_amount",
          "type": "uint256",
          "internalType": "uint256"
        }
      ],
      "outputs": [],
      "stateMutability": "payable"
    },
    {
      "type": "function",
      "name": "refundNativeTokens",
      "inputs": [
        {
          "name": "_refundAddress",
          "type": "address",
          "internalType": "address"
        }
      ],
      "outputs": [],
      "stateMutability": "payable"
    },
    {
      "type": "function",
      "name": "token",
      "inputs": [],
      "outputs": [
        {
          "name": "",
          "type": "address",
          "internalType": "contract IERC20"
        }
      ],
      "stateMutability": "view"
    },
    {
      "type": "function",
      "name": "validate_addresses_or_refund",
      "inputs": [
        {
          "name": "_maybeReceiver",
          "type": "bytes",
          "internalType": "bytes"
        },
        {
          "name": "_senderBytes32",
          "type": "bytes32",
          "internalType": "bytes32"
        },
        {
          "name": "_amountLD",
          "type": "uint256",
          "internalType": "uint256"
        }
      ],
      "outputs": [
        {
          "name": "",
          "type": "address",
          "internalType": "address"
        }
      ],
      "stateMutability": "pure"
    },
    {
      "type": "function",
      "name": "validate_payload",
      "inputs": [
        {
          "name": "_composeMessage",
          "type": "bytes",
          "internalType": "bytes"
        }
      ],
      "outputs": [
        {
          "name": "",
          "type": "uint256",
          "internalType": "uint256"
        },
        {
          "name": "",
          "type": "bytes32",
          "internalType": "bytes32"
        },
        {
          "name": "",
          "type": "bytes",
          "internalType": "bytes"
        }
      ],
      "stateMutability": "pure"
    },
    {
      "type": "event",
      "name": "ErrorERC20_Refund",
      "inputs": [
        {
          "name": "refundTo",
          "type": "address",
          "indexed": false,
          "internalType": "address"
        },
        {
          "name": "refundAmount",
          "type": "uint256",
          "indexed": false,
          "internalType": "uint256"
        }
      ],
      "anonymous": false
    },
    {
      "type": "event",
      "name": "ErrorHYPE_Refund",
      "inputs": [
        {
          "name": "refundTo",
          "type": "address",
          "indexed": false,
          "internalType": "address"
        },
        {
          "name": "refundAmount",
          "type": "uint256",
          "indexed": false,
          "internalType": "uint256"
        }
      ],
      "anonymous": false
    },
    {
      "type": "event",
      "name": "ErrorMessage",
      "inputs": [
        {
          "name": "reason",
          "type": "bytes",
          "indexed": false,
          "internalType": "bytes"
        }
      ],
      "anonymous": false
    },
    {
      "type": "event",
      "name": "OverflowDetected",
      "inputs": [
        {
          "name": "amountCore",
          "type": "uint64",
          "indexed": false,
          "internalType": "uint64"
        },
        {
          "name": "maxTransferableAmount",
          "type": "uint64",
          "indexed": false,
          "internalType": "uint64"
        }
      ],
      "anonymous": false
    },
    {
      "type": "error",
      "name": "ErrorMsg",
      "inputs": [
        {
          "name": "errorMessage",
          "type": "bytes",
          "internalType": "bytes"
        }
      ]
    },
    {
      "type": "error",
      "name": "HyperLiquidComposerCore_SpotBalanceRead_Failed",
      "inputs": [
        {
          "name": "user",
          "type": "address",
          "internalType": "address"
        },
        {
          "name": "tokenId",
          "type": "uint64",
          "internalType": "uint64"
        }
      ]
    },
    {
      "type": "error",
      "name": "HyperLiquidComposer_FailedToRefund_HYPE",
      "inputs": [
        {
          "name": "to",
          "type": "address",
          "internalType": "address"
        },
        {
          "name": "amount",
          "type": "uint256",
          "internalType": "uint256"
        }
      ]
    },
    {
      "type": "error",
      "name": "HyperLiquidComposer_FailedToSend_HYPE",
      "inputs": [
        {
          "name": "amount",
          "type": "uint256",
          "internalType": "uint256"
        }
      ]
    },
    {
      "type": "error",
      "name": "HyperLiquidComposer_InvalidCall_NotComposer",
      "inputs": [
        {
          "name": "notComposerAddress",
          "type": "address",
          "internalType": "address"
        }
      ]
    },
    {
      "type": "error",
      "name": "HyperLiquidComposer_InvalidCall_NotEndpoint",
      "inputs": [
        {
          "name": "notEndpointAddress",
          "type": "address",
          "internalType": "address"
        },
        {
          "name": "expectedEndpointAddress",
          "type": "address",
          "internalType": "address"
        }
      ]
    },
    {
      "type": "error",
      "name": "HyperLiquidComposer_InvalidCall_NotOFT",
      "inputs": [
        {
          "name": "internalOFTAddress",
          "type": "address",
          "internalType": "address"
        },
        {
          "name": "receivedOFTAddress",
          "type": "address",
          "internalType": "address"
        }
      ]
    },
    {
      "type": "error",
      "name": "HyperLiquidComposer_InvalidComposeMessage",
      "inputs": [
        {
          "name": "errorMessage",
          "type": "bytes",
          "internalType": "bytes"
        }
      ]
    }
  ],
  "bytecode": {
    "object": "0x60e060405234801562000010575f80fd5b5060405162002775380380620027758339810160408190526200003391620001f1565b604051806060016040528062000058846001600160401b0316620001a760201b60201c565b6001600160a01b0390811682526001600160401b0380861660208085019190915285821660409485015284515f8054878401518516600160a01b026001600160e01b0319918216938716939093179290921790559484015160018054919093166001600160401b0319918216179092558351606081018552732222222222222222222222222222222222222222815261045181830152600a908501819052600280547504512222222222222222222222222222222222222222971696909617909555600380549092169094179055851660a08190528151637e062a3560e11b81529151909263fc0c546a92600480820193918290030181865afa15801562000162573d5f803e3d5ffd5b505050506040513d601f19601f820116820180604052508101906200018891906200024b565b6001600160a01b0390811660c05293909316608052506200028e915050565b5f620001b8826001609d1b6200026e565b92915050565b80516001600160a01b0381168114620001d5575f80fd5b919050565b80516001600160401b0381168114620001d5575f80fd5b5f805f806080858703121562000205575f80fd5b6200021085620001be565b93506200022060208601620001be565b92506200023060408601620001da565b91506200024060608601620001da565b905092959194509250565b5f602082840312156200025c575f80fd5b6200026782620001be565b9392505050565b80820180821115620001b857634e487b7160e01b5f52601160045260245ffd5b60805160a05160c05161248b620002ea5f395f818161059801528181610ccd0152818161173501526118c101525f81816103d801528181610928015261099f01525f818161028f0152818161086401526108dc015261248b5ff3fe608060405260043610610126575f3560e01c80639b5215f6116100a1578063dd85007511610071578063f6e6b24011610057578063f6e6b240146104e5578063f9716faf1461053c578063fc0c546a14610587575f80fd5b8063dd850075146104ab578063ebaeefd6146104d2575f80fd5b80639b5215f6146103c7578063aae12e46146103fa578063ba87267914610483578063d0a1026014610498575f80fd5b8063765008a1116100f657806381e8dcb4116100dc57806381e8dcb4146103665780638483bc001461039e5780639278d99a146103b3575f80fd5b8063765008a1146102b1578063807d6c3f14610344575f80fd5b80631b224831146101315780632d0e315c146101685780635241b4961461023a5780635e280f111461027e575f80fd5b3661012d57005b5f80fd5b34801561013c575f80fd5b5061015061014b366004611aa4565b6105ba565b60405161015f93929190611b4e565b60405180910390f35b348015610173575f80fd5b506101f0604080516060810182525f808252602082018190529181019190915250604080516060810182525f5473ffffffffffffffffffffffffffffffffffffffff8116825267ffffffffffffffff7401000000000000000000000000000000000000000090910481166020830152600154169181019190915290565b60408051825173ffffffffffffffffffffffffffffffffffffffff16815260208084015167ffffffffffffffff90811691830191909152928201519092169082015260600161015f565b348015610245575f80fd5b50610259610254366004611c56565b6105f2565b60405173ffffffffffffffffffffffffffffffffffffffff909116815260200161015f565b348015610289575f80fd5b506102597f000000000000000000000000000000000000000000000000000000000000000081565b3480156102bc575f80fd5b505f546001546103079173ffffffffffffffffffffffffffffffffffffffff81169167ffffffffffffffff740100000000000000000000000000000000000000009092048216911683565b6040805173ffffffffffffffffffffffffffffffffffffffff909416845267ffffffffffffffff928316602085015291169082015260600161015f565b34801561034f575f80fd5b50610358601481565b60405190815260200161015f565b348015610371575f80fd5b50610385610380366004611d18565b61072c565b60405167ffffffffffffffff909116815260200161015f565b6103b16103ac366004611d4f565b610740565b005b3480156103be575f80fd5b50610358602081565b3480156103d2575f80fd5b506102597f000000000000000000000000000000000000000000000000000000000000000081565b348015610405575f80fd5b506101f0604080516060810182525f8082526020820181905291810191909152506040805160608101825260025473ffffffffffffffffffffffffffffffffffffffff8116825267ffffffffffffffff7401000000000000000000000000000000000000000090910481166020830152600354169181019190915290565b34801561048e575f80fd5b5061025961080181565b6103b16104a6366004611d71565b610862565b3480156104b6575f80fd5b5061025973333333333333333333333333333333333333333381565b6103b16104e0366004611e0b565b610c1d565b3480156104f0575f80fd5b506002546003546103079173ffffffffffffffffffffffffffffffffffffffff81169167ffffffffffffffff740100000000000000000000000000000000000000009092048216911683565b348015610547575f80fd5b5061055b610556366004611e42565b610d3b565b6040805182518152602080840151908201529181015167ffffffffffffffff169082015260600161015f565b348015610592575f80fd5b506102597f000000000000000000000000000000000000000000000000000000000000000081565b5f8060605f6105c98686610e74565b90505f6105d68787610e8c565b90505f6105e38888610e9b565b92989197509195509350505050565b5f806105fd84610ee5565b90505f61060986610f10565b905073ffffffffffffffffffffffffffffffffffffffff81166107235785516040515f917f09b34731000000000000000000000000000000000000000000000000000000009161065d918a91602401611e65565b604080517fffffffffffffffffffffffffffffffffffffffffffffffffffffffffffffffe08184030181529190526020810180517bffffffffffffffffffffffffffffffffffffffffffffffffffffffff167fffffffff000000000000000000000000000000000000000000000000000000009093169290921790915290506106e7818487610f73565b6040517f4f95203300000000000000000000000000000000000000000000000000000000815260040161071a9190611e86565b60405180910390fd5b95945050505050565b5f6107378383610fce565b90505b92915050565b33301461077b576040517f5950c85e00000000000000000000000000000000000000000000000000000000815233600482015260240161071a565b341561085f575f73ffffffffffffffffffffffffffffffffffffffff8216156107a457816107a6565b325b90505f8173ffffffffffffffffffffffffffffffffffffffff16346040515f6040518083038185875af1925050503d805f81146107fe576040519150601f19603f3d011682016040523d82523d5f602084013e610803565b606091505b505090508061085c576040517fc8ee485e00000000000000000000000000000000000000000000000000000000815273ffffffffffffffffffffffffffffffffffffffff8316600482015234602482015260440161071a565b50505b50565b7f000000000000000000000000000000000000000000000000000000000000000073ffffffffffffffffffffffffffffffffffffffff16331461090f576040517fefa9309d00000000000000000000000000000000000000000000000000000000815273ffffffffffffffffffffffffffffffffffffffff7f000000000000000000000000000000000000000000000000000000000000000016600482015233602482015260440161071a565b8673ffffffffffffffffffffffffffffffffffffffff167f000000000000000000000000000000000000000000000000000000000000000073ffffffffffffffffffffffffffffffffffffffff16146109d4576040517f86fee0c000000000000000000000000000000000000000000000000000000000815273ffffffffffffffffffffffffffffffffffffffff7f0000000000000000000000000000000000000000000000000000000000000000811660048301528816602482015260440161071a565b5f805f60603073ffffffffffffffffffffffffffffffffffffffff16631b2248318a8a6040518363ffffffff1660e01b8152600401610a14929190611e98565b5f60405180830381865afa925050508015610a6e57506040513d5f823e601f3d9081017fffffffffffffffffffffffffffffffffffffffffffffffffffffffffffffffe0168201604052610a6b9190810190611f26565b60015b610ad4573d808015610a9b576040519150601f19603f3d011682016040523d82523d5f602084013e610aa0565b606091505b50806040517ed4895a00000000000000000000000000000000000000000000000000000000815260040161071a9190611e86565b919450925090506040517f5241b4960000000000000000000000000000000000000000000000000000000081523090635241b49690610b1b90849086908890600401611f72565b602060405180830381865afa925050508015610b72575060408051601f3d9081017fffffffffffffffffffffffffffffffffffffffffffffffffffffffffffffffe0168201909252610b6f91810190611f96565b60015b610bf3573d808015610b9f576040519150601f19603f3d011682016040523d82523d5f602084013e610ba4565b606091505b505f610baf826110e2565b90507f612baef0082f9abcf6dc7b491d75346418381b75756830d7029939026d1b46b981604051610be09190611e86565b60405180910390a1505050505050610c14565b93503415610c0557610c0584346113ef565b610c0f84846116d5565b505050505b50505050505050565b333014610c58576040517f5950c85e00000000000000000000000000000000000000000000000000000000815233600482015260240161071a565b5f81118015610c7c575073ffffffffffffffffffffffffffffffffffffffff821615155b15610d37576040517fa9059cbb00000000000000000000000000000000000000000000000000000000815273ffffffffffffffffffffffffffffffffffffffff8381166004830152602482018390527f0000000000000000000000000000000000000000000000000000000000000000169063a9059cbb906044016020604051808303815f875af1158015610d13573d5f803e3d5ffd5b505050506040513d601f19601f8201168201806040525081019061085c9190611fb1565b5050565b610d6660405180606001604052805f81526020015f81526020015f67ffffffffffffffff1681525090565b604080516060810182525f80825260208201819052918101829052908315610dfa57604080516060810182525f5473ffffffffffffffffffffffffffffffffffffffff811680835267ffffffffffffffff7401000000000000000000000000000000000000000090920482166020840181905260015490921693830193909352909350610df39190610fce565b9050610e69565b6040805160608101825260025473ffffffffffffffffffffffffffffffffffffffff811680835267ffffffffffffffff7401000000000000000000000000000000000000000090920482166020840181905260035490921693830193909352909350610e669190610fce565b90505b61072385828461192d565b5f610e83602c600c8486611fcc565b61073791611ff3565b5f610e83604c602c8486611fcc565b6060610eaa82604c8186611fcc565b8080601f0160208091040260200160405190810160405280939291908181526020018383808284375f92019190915250929695505050505050565b5f8173ffffffffffffffffffffffffffffffffffffffff8111610f085792915050565b505f92915050565b80515f907fffffffffffffffffffffffffffffffffffffffffffffffffffffffffffffffec8101610f4e57610f448361202f565b60601c9392505050565b60208103610f08575f610f608461207e565b9050610f6b81610ee5565b949350505050565b606060405180606001604052808473ffffffffffffffffffffffffffffffffffffffff16815260200183815260200185815250604051602001610fb691906120c3565b60405160208183030381529060405290509392505050565b6040805173ffffffffffffffffffffffffffffffffffffffff8416602082015267ffffffffffffffff8316818301528151808203830181526060918201928390525f92839291610801916110229190612107565b5f60405180830381855afa9150503d805f811461105a576040519150601f19603f3d011682016040523d82523d5f602084013e61105f565b606091505b509092509050816110c4576040517fa91ed72100000000000000000000000000000000000000000000000000000000815273ffffffffffffffffffffffffffffffffffffffff8616600482015267ffffffffffffffff8516602482015260440161071a565b808060200190518101906110d89190612122565b5195945050505050565b6040517fa40595270000000000000000000000000000000000000000000000000000000081526060905f9073__$583e42a4fcd29c5c863b44cd876f1d3349$__9063a405952790611137908690600401611e86565b5f60405180830381865af4158015611151573d5f803e3d5ffd5b505050506040513d5f823e601f3d9081017fffffffffffffffffffffffffffffffffffffffffffffffffffffffffffffffe01682016040526111969190810190612174565b90505f818060200190518101906111ad91906121a6565b805160208201516040517febaeefd600000000000000000000000000000000000000000000000000000000815273ffffffffffffffffffffffffffffffffffffffff90921660048301526024820152909150309063ebaeefd6906044015f604051808303815f87803b158015611221575f80fd5b505af1925050508015611232575060015b61128c5780516020808301516040805173ffffffffffffffffffffffffffffffffffffffff9094168452918301527feb907f6e0de6862ca2ced78e890a55c5e8352dc4051697356bc835abf7cedcac910160405180910390a15b80516040517f8483bc0000000000000000000000000000000000000000000000000000000000815273ffffffffffffffffffffffffffffffffffffffff90911660048201523090638483bc009034906024015f604051808303818588803b1580156112f5575f80fd5b505af193505050508015611307575060015b6113e4576040515f90329034908381818185875af1925050503d805f811461134a576040519150601f19603f3d011682016040523d82523d5f602084013e61134f565b606091505b505090508061139157604080513281523460208201527f0b0fd82e76ce2ddfcaf289bd460de0980c71a02674dbe00c04e45dfc44e9d577910160405180910390a15b81516040805173ffffffffffffffffffffffffffffffffffffffff90921682523460208301527f0b0fd82e76ce2ddfcaf289bd460de0980c71a02674dbe00c04e45dfc44e9d577910160405180910390a1505b604001519392505050565b5f6113fa825f610d3b565b60025481516040519293505f9273ffffffffffffffffffffffffffffffffffffffff909216918381818185875af1925050503d805f8114611456576040519150601f19603f3d011682016040523d82523d5f602084013e61145b565b606091505b5050905080611499576040517fb7e54a070000000000000000000000000000000000000000000000000000000081526004810184905260240161071a565b60025460408381015190517f0b0ac0ab00000000000000000000000000000000000000000000000000000000815273ffffffffffffffffffffffffffffffffffffffff871660048201527401000000000000000000000000000000000000000090920467ffffffffffffffff908116602484015216604482015273333333333333333333333333333333333333333390630b0ac0ab906064015f604051808303815f87803b158015611549575f80fd5b505af115801561155b573d5f803e3d5ffd5b505050506020820151156116cf5760208201516040517f8483bc0000000000000000000000000000000000000000000000000000000000815273ffffffffffffffffffffffffffffffffffffffff861660048201523091638483bc00916024015f604051808303818588803b1580156115d2575f80fd5b505af1935050505080156115e4575060015b6116cf5760208201516040513291905f81818185875af1925050503d805f8114611629576040519150601f19603f3d011682016040523d82523d5f602084013e61162e565b606091505b505080915050806116795760208083015160408051328152928301919091527f0b0fd82e76ce2ddfcaf289bd460de0980c71a02674dbe00c04e45dfc44e9d577910160405180910390a15b6020808301516040805173ffffffffffffffffffffffffffffffffffffffff88168152928301919091527f0b0fd82e76ce2ddfcaf289bd460de0980c71a02674dbe00c04e45dfc44e9d577910160405180910390a15b50505050565b5f6116e1826001610d3b565b5f5481516040517fa9059cbb00000000000000000000000000000000000000000000000000000000815273ffffffffffffffffffffffffffffffffffffffff928316600482015260248101919091529192507f0000000000000000000000000000000000000000000000000000000000000000169063a9059cbb906044016020604051808303815f875af115801561177b573d5f803e3d5ffd5b505050506040513d601f19601f8201168201806040525081019061179f9190611fb1565b505f5460408281015190517f0b0ac0ab00000000000000000000000000000000000000000000000000000000815273ffffffffffffffffffffffffffffffffffffffff861660048201527401000000000000000000000000000000000000000090920467ffffffffffffffff908116602484015216604482015273333333333333333333333333333333333333333390630b0ac0ab906064015f604051808303815f87803b15801561184f575f80fd5b505af1158015611861573d5f803e3d5ffd5b5050505060208101511561085c5760208101516040517fa9059cbb00000000000000000000000000000000000000000000000000000000815273ffffffffffffffffffffffffffffffffffffffff858116600483015260248201929092527f00000000000000000000000000000000000000000000000000000000000000009091169063a9059cbb906044016020604051808303815f875af1158015611909573d5f803e3d5ffd5b505050506040513d601f19601f820116820180604052508101906116cf9190611fb1565b61195860405180606001604052805f81526020015f81526020015f67ffffffffffffffff1681525090565b5f8260400151600a61196a9190612376565b90505f8082878161197d5761197d61238b565b069150508086035f61198f84896123b8565b90508667ffffffffffffffff168167ffffffffffffffff161115611a30576040805167ffffffffffffffff8084168252891660208201527ff17459c2e89c2b011fa739accb3b853858d0a689d31382b9aa4f56a1ca00f9d3910160405180910390a15f846119fd89846123f0565b67ffffffffffffffff16611a119190612418565b8892509050611a20818461242f565b9250611a2c8185612442565b9350505b60408051606081018252928352602083019390935267ffffffffffffffff169181019190915295945050505050565b5f8083601f840112611a6f575f80fd5b50813567ffffffffffffffff811115611a86575f80fd5b602083019150836020828501011115611a9d575f80fd5b9250929050565b5f8060208385031215611ab5575f80fd5b823567ffffffffffffffff811115611acb575f80fd5b611ad785828601611a5f565b90969095509350505050565b5f5b83811015611afd578181015183820152602001611ae5565b50505f910152565b5f8151808452611b1c816020860160208601611ae3565b601f017fffffffffffffffffffffffffffffffffffffffffffffffffffffffffffffffe0169290920160200192915050565b838152826020820152606060408201525f6107236060830184611b05565b7f4e487b71000000000000000000000000000000000000000000000000000000005f52604160045260245ffd5b6040516060810167ffffffffffffffff81118282101715611bbc57611bbc611b6c565b60405290565b604051601f82017fffffffffffffffffffffffffffffffffffffffffffffffffffffffffffffffe016810167ffffffffffffffff81118282101715611c0957611c09611b6c565b604052919050565b5f67ffffffffffffffff821115611c2a57611c2a611b6c565b50601f017fffffffffffffffffffffffffffffffffffffffffffffffffffffffffffffffe01660200190565b5f805f60608486031215611c68575f80fd5b833567ffffffffffffffff811115611c7e575f80fd5b8401601f81018613611c8e575f80fd5b8035611ca1611c9c82611c11565b611bc2565b818152876020838501011115611cb5575f80fd5b816020840160208301375f6020838301015280955050505060208401359150604084013590509250925092565b73ffffffffffffffffffffffffffffffffffffffff8116811461085f575f80fd5b67ffffffffffffffff8116811461085f575f80fd5b5f8060408385031215611d29575f80fd5b8235611d3481611ce2565b91506020830135611d4481611d03565b809150509250929050565b5f60208284031215611d5f575f80fd5b8135611d6a81611ce2565b9392505050565b5f805f805f805f60a0888a031215611d87575f80fd5b8735611d9281611ce2565b965060208801359550604088013567ffffffffffffffff80821115611db5575f80fd5b611dc18b838c01611a5f565b909750955060608a01359150611dd682611ce2565b90935060808901359080821115611deb575f80fd5b50611df88a828b01611a5f565b989b979a50959850939692959293505050565b5f8060408385031215611e1c575f80fd5b8235611e2781611ce2565b946020939093013593505050565b801515811461085f575f80fd5b5f8060408385031215611e53575f80fd5b823591506020830135611d4481611e35565b604081525f611e776040830185611b05565b90508260208301529392505050565b602081525f6107376020830184611b05565b60208152816020820152818360408301375f818301604090810191909152601f9092017fffffffffffffffffffffffffffffffffffffffffffffffffffffffffffffffe0160101919050565b5f82601f830112611ef3575f80fd5b8151611f01611c9c82611c11565b818152846020838601011115611f15575f80fd5b610f6b826020830160208701611ae3565b5f805f60608486031215611f38575f80fd5b8351925060208401519150604084015167ffffffffffffffff811115611f5c575f80fd5b611f6886828701611ee4565b9150509250925092565b606081525f611f846060830186611b05565b60208301949094525060400152919050565b5f60208284031215611fa6575f80fd5b8151611d6a81611ce2565b5f60208284031215611fc1575f80fd5b8151611d6a81611e35565b5f8085851115611fda575f80fd5b83861115611fe6575f80fd5b5050820193919092039150565b8035602083101561073a577fffffffffffffffffffffffffffffffffffffffffffffffffffffffffffffffff602084900360031b1b1692915050565b5f815160208301517fffffffffffffffffffffffffffffffffffffffff000000000000000000000000808216935060148310156120765780818460140360031b1b83161693505b505050919050565b805160208083015191908110156120bd577fffffffffffffffffffffffffffffffffffffffffffffffffffffffffffffffff8160200360031b1b821691505b50919050565b6020815273ffffffffffffffffffffffffffffffffffffffff8251166020820152602082015160408201525f6040830151606080840152610f6b6080840182611b05565b5f8251612118818460208701611ae3565b9190910192915050565b5f60608284031215612132575f80fd5b61213a611b99565b825161214581611d03565b8152602083015161215581611d03565b6020820152604083015161216881611d03565b60408201529392505050565b5f60208284031215612184575f80fd5b815167ffffffffffffffff81111561219a575f80fd5b610f6b84828501611ee4565b5f602082840312156121b6575f80fd5b815167ffffffffffffffff808211156121cd575f80fd5b90830190606082860312156121e0575f80fd5b6121e8611b99565b82516121f381611ce2565b815260208381015190820152604083015182811115612210575f80fd5b61221c87828601611ee4565b60408301525095945050505050565b7f4e487b71000000000000000000000000000000000000000000000000000000005f52601160045260245ffd5b600181815b808511156122b157817fffffffffffffffffffffffffffffffffffffffffffffffffffffffffffffffff048211156122975761229761222b565b808516156122a457918102915b93841c939080029061225d565b509250929050565b5f826122c75750600161073a565b816122d357505f61073a565b81600181146122e957600281146122f35761230f565b600191505061073a565b60ff8411156123045761230461222b565b50506001821b61073a565b5060208310610133831016604e8410600b8410161715612332575081810a61073a565b61233c8383612258565b807fffffffffffffffffffffffffffffffffffffffffffffffffffffffffffffffff0482111561236e5761236e61222b565b029392505050565b5f61073767ffffffffffffffff8416836122b9565b7f4e487b71000000000000000000000000000000000000000000000000000000005f52601260045260245ffd5b5f826123eb577f4e487b71000000000000000000000000000000000000000000000000000000005f52601260045260245ffd5b500490565b67ffffffffffffffff8281168282160390808211156124115761241161222b565b5092915050565b808202811582820484141761073a5761073a61222b565b8181038181111561073a5761073a61222b565b8082018082111561073a5761073a61222b56fea2646970667358221220f2b57e8ce7255f67d3c9e448687108aacc8fdb1605d4948534fb5e328ae7b94664736f6c63430008160033",
    "linkReferences": {
      "contracts/library/HyperLiquidComposerCodec.sol": {
        "HyperLiquidComposerCodec": [
          {
            "start": 5113,
            "length": 20
          }
        ]
      }
    }
  },
  "methodIdentifiers": {
    "HLP_PRECOMPILE_READ_SPOT_BALANCE()": "ba872679",
    "HLP_PRECOMPILE_WRITE()": "dd850075",
    "VALID_COMPOSE_MESSAGE_LENGTH_ENCODE()": "9278d99a",
    "VALID_COMPOSE_MESSAGE_LENGTH_PACKED()": "807d6c3f",
    "balanceOfHyperCore(address,uint64)": "81e8dcb4",
    "endpoint()": "5e280f11",
    "getHypeAsset()": "aae12e46",
    "getOFTAsset()": "2d0e315c",
    "hypeAsset()": "f6e6b240",
    "lzCompose(address,bytes32,bytes,address,bytes)": "d0a10260",
    "oft()": "9b5215f6",
    "oftAsset()": "765008a1",
    "quoteHyperCoreAmount(uint256,bool)": "f9716faf",
    "refundERC20(address,uint256)": "ebaeefd6",
    "refundNativeTokens(address)": "8483bc00",
    "token()": "fc0c546a",
    "validate_addresses_or_refund(bytes,bytes32,uint256)": "5241b496",
    "validate_payload(bytes)": "1b224831"
  },
  "id": 0
}