{
  "abi": [
    {
      "type": "constructor",
      "inputs": [
        {
          "name": "_endpoint",
          "type": "address",
          "internalType": "address"
        },
        {
          "name": "_oft",
          "type": "address",
          "internalType": "address"
        },
        {
          "name": "_coreIndexId",
          "type": "uint64",
          "internalType": "uint64"
        },
        {
          "name": "_weiDiff",
          "type": "int64",
          "internalType": "int64"
        }
      ],
      "stateMutability": "nonpayable"
    },
    {
      "type": "receive",
      "stateMutability": "payable"
    },
    {
      "type": "function",
      "name": "HLP_PRECOMPILE_READ_SPOT_BALANCE",
      "inputs": [],
      "outputs": [
        {
          "name": "",
          "type": "address",
          "internalType": "address"
        }
      ],
      "stateMutability": "view"
    },
    {
      "type": "function",
      "name": "HLP_PRECOMPILE_WRITE",
      "inputs": [],
      "outputs": [
        {
          "name": "",
          "type": "address",
          "internalType": "address"
        }
      ],
      "stateMutability": "view"
    },
    {
      "type": "function",
      "name": "balanceOfHyperCore",
      "inputs": [
        {
          "name": "_user",
          "type": "address",
          "internalType": "address"
        },
        {
          "name": "_tokenId",
          "type": "uint64",
          "internalType": "uint64"
        }
      ],
      "outputs": [
        {
          "name": "",
          "type": "uint64",
          "internalType": "uint64"
        }
      ],
      "stateMutability": "view"
    },
    {
      "type": "function",
      "name": "endpoint",
      "inputs": [],
      "outputs": [
        {
          "name": "",
          "type": "address",
          "internalType": "address"
        }
      ],
      "stateMutability": "view"
    },
    {
      "type": "function",
      "name": "getErrorPayload",
      "inputs": [
        {
          "name": "_err",
          "type": "bytes",
          "internalType": "bytes"
        }
      ],
      "outputs": [
        {
          "name": "",
          "type": "bytes",
          "internalType": "bytes"
        }
      ],
      "stateMutability": "pure"
    },
    {
      "type": "function",
      "name": "getHypeAsset",
      "inputs": [],
      "outputs": [
        {
          "name": "",
          "type": "tuple",
          "internalType": "struct IHyperAsset",
          "components": [
            {
              "name": "assetBridgeAddress",
              "type": "address",
              "internalType": "address"
            },
            {
              "name": "coreIndexId",
              "type": "uint64",
              "internalType": "uint64"
            },
            {
              "name": "decimalDiff",
              "type": "int64",
              "internalType": "int64"
            }
          ]
        }
      ],
      "stateMutability": "view"
    },
    {
      "type": "function",
      "name": "getOFTAsset",
      "inputs": [],
      "outputs": [
        {
          "name": "",
          "type": "tuple",
          "internalType": "struct IHyperAsset",
          "components": [
            {
              "name": "assetBridgeAddress",
              "type": "address",
              "internalType": "address"
            },
            {
              "name": "coreIndexId",
              "type": "uint64",
              "internalType": "uint64"
            },
            {
              "name": "decimalDiff",
              "type": "int64",
              "internalType": "int64"
            }
          ]
        }
      ],
      "stateMutability": "view"
    },
    {
      "type": "function",
      "name": "hypeAsset",
      "inputs": [],
      "outputs": [
        {
          "name": "assetBridgeAddress",
          "type": "address",
          "internalType": "address"
        },
        {
          "name": "coreIndexId",
          "type": "uint64",
          "internalType": "uint64"
        },
        {
          "name": "decimalDiff",
          "type": "int64",
          "internalType": "int64"
        }
      ],
      "stateMutability": "view"
    },
    {
      "type": "function",
      "name": "lzCompose",
      "inputs": [
        {
          "name": "_oft",
          "type": "address",
          "internalType": "address"
        },
        {
          "name": "",
          "type": "bytes32",
          "internalType": "bytes32"
        },
        {
          "name": "_message",
          "type": "bytes",
          "internalType": "bytes"
        },
        {
          "name": "_executor",
          "type": "address",
          "internalType": "address"
        },
        {
          "name": "",
          "type": "bytes",
          "internalType": "bytes"
        }
      ],
      "outputs": [],
      "stateMutability": "payable"
    },
    {
      "type": "function",
      "name": "oft",
      "inputs": [],
      "outputs": [
        {
          "name": "",
          "type": "address",
          "internalType": "contract IOFT"
        }
      ],
      "stateMutability": "view"
    },
    {
      "type": "function",
      "name": "oftAsset",
      "inputs": [],
      "outputs": [
        {
          "name": "assetBridgeAddress",
          "type": "address",
          "internalType": "address"
        },
        {
          "name": "coreIndexId",
          "type": "uint64",
          "internalType": "uint64"
        },
        {
          "name": "decimalDiff",
          "type": "int64",
          "internalType": "int64"
        }
      ],
      "stateMutability": "view"
    },
    {
      "type": "function",
      "name": "quoteHyperCoreAmount",
      "inputs": [
        {
          "name": "_amount",
          "type": "uint256",
          "internalType": "uint256"
        },
        {
          "name": "_isOFT",
          "type": "bool",
          "internalType": "bool"
        }
      ],
      "outputs": [
        {
          "name": "",
          "type": "tuple",
          "internalType": "struct IHyperAssetAmount",
          "components": [
            {
              "name": "evm",
              "type": "uint256",
              "internalType": "uint256"
            },
            {
              "name": "dust",
              "type": "uint256",
              "internalType": "uint256"
            },
            {
              "name": "core",
              "type": "uint64",
              "internalType": "uint64"
            }
          ]
        }
      ],
      "stateMutability": "nonpayable"
    },
    {
      "type": "function",
      "name": "refundERC20",
      "inputs": [
        {
          "name": "_refundAddress",
          "type": "address",
          "internalType": "address"
        },
        {
          "name": "_amount",
          "type": "uint256",
          "internalType": "uint256"
        }
      ],
      "outputs": [],
      "stateMutability": "payable"
    },
    {
      "type": "function",
      "name": "refundNativeTokens",
      "inputs": [
        {
          "name": "_refundAddress",
          "type": "address",
          "internalType": "address"
        }
      ],
      "outputs": [],
      "stateMutability": "payable"
    },
    {
      "type": "function",
      "name": "token",
      "inputs": [],
      "outputs": [
        {
          "name": "",
          "type": "address",
          "internalType": "contract IERC20"
        }
      ],
      "stateMutability": "view"
    },
    {
      "type": "function",
      "name": "validate_addresses_or_refund",
      "inputs": [
        {
          "name": "_maybeReceiver",
          "type": "bytes",
          "internalType": "bytes"
        },
        {
          "name": "_senderBytes32",
          "type": "bytes32",
          "internalType": "bytes32"
        },
        {
          "name": "_amountLD",
          "type": "uint256",
          "internalType": "uint256"
        }
      ],
      "outputs": [
        {
          "name": "",
          "type": "address",
          "internalType": "address"
        }
      ],
      "stateMutability": "pure"
    },
    {
      "type": "function",
      "name": "validate_payload",
      "inputs": [
        {
          "name": "_composeMessage",
          "type": "bytes",
          "internalType": "bytes"
        }
      ],
      "outputs": [
        {
          "name": "",
          "type": "uint256",
          "internalType": "uint256"
        },
        {
          "name": "",
          "type": "bytes32",
          "internalType": "bytes32"
        },
        {
          "name": "",
          "type": "bytes",
          "internalType": "bytes"
        }
      ],
      "stateMutability": "pure"
    },
    {
      "type": "event",
      "name": "ErrorERC20_Refund",
      "inputs": [
        {
          "name": "refundTo",
          "type": "address",
          "indexed": false,
          "internalType": "address"
        },
        {
          "name": "refundAmount",
          "type": "uint256",
          "indexed": false,
          "internalType": "uint256"
        }
      ],
      "anonymous": false
    },
    {
      "type": "event",
      "name": "ErrorHYPE_Refund",
      "inputs": [
        {
          "name": "refundTo",
          "type": "address",
          "indexed": false,
          "internalType": "address"
        },
        {
          "name": "refundAmount",
          "type": "uint256",
          "indexed": false,
          "internalType": "uint256"
        }
      ],
      "anonymous": false
    },
    {
      "type": "event",
      "name": "ErrorMessage",
      "inputs": [
        {
          "name": "reason",
          "type": "bytes",
          "indexed": false,
          "internalType": "bytes"
        }
      ],
      "anonymous": false
    },
    {
      "type": "event",
      "name": "ExcessHYPE_Refund",
      "inputs": [
        {
          "name": "refundTo",
          "type": "address",
          "indexed": false,
          "internalType": "address"
        },
        {
          "name": "refundAmount",
          "type": "uint256",
          "indexed": false,
          "internalType": "uint256"
        }
      ],
      "anonymous": false
    },
    {
      "type": "event",
      "name": "OverflowDetected",
      "inputs": [
        {
          "name": "amountCore",
          "type": "uint256",
          "indexed": false,
          "internalType": "uint256"
        },
        {
          "name": "maxTransferableAmount",
          "type": "uint64",
          "indexed": false,
          "internalType": "uint64"
        }
      ],
      "anonymous": false
    },
    {
      "type": "error",
      "name": "ErrorMsg",
      "inputs": [
        {
          "name": "errorMessage",
          "type": "bytes",
          "internalType": "bytes"
        }
      ]
    },
    {
      "type": "error",
      "name": "HyperLiquidComposerCore_SpotBalanceRead_Failed",
      "inputs": [
        {
          "name": "user",
          "type": "address",
          "internalType": "address"
        },
        {
          "name": "tokenId",
          "type": "uint64",
          "internalType": "uint64"
        }
      ]
    },
    {
      "type": "error",
      "name": "HyperLiquidComposer_FailedToRefund_HYPE",
      "inputs": [
        {
          "name": "to",
          "type": "address",
          "internalType": "address"
        },
        {
          "name": "amount",
          "type": "uint256",
          "internalType": "uint256"
        }
      ]
    },
    {
      "type": "error",
      "name": "HyperLiquidComposer_FailedToSend_HYPE",
      "inputs": [
        {
          "name": "amount",
          "type": "uint256",
          "internalType": "uint256"
        }
      ]
    },
    {
      "type": "error",
      "name": "HyperLiquidComposer_InvalidArgument_EndpointShouldNotBeZeroAddress",
      "inputs": [
        {
          "name": "receivedEndpointAddress",
          "type": "address",
          "internalType": "address"
        }
      ]
    },
    {
      "type": "error",
      "name": "HyperLiquidComposer_InvalidCall_NotComposer",
      "inputs": [
        {
          "name": "notComposerAddress",
          "type": "address",
          "internalType": "address"
        }
      ]
    },
    {
      "type": "error",
      "name": "HyperLiquidComposer_InvalidCall_NotEndpoint",
      "inputs": [
        {
          "name": "notEndpointAddress",
          "type": "address",
          "internalType": "address"
        },
        {
          "name": "expectedEndpointAddress",
          "type": "address",
          "internalType": "address"
        }
      ]
    },
    {
      "type": "error",
      "name": "HyperLiquidComposer_InvalidCall_NotOFT",
      "inputs": [
        {
          "name": "internalOFTAddress",
          "type": "address",
          "internalType": "address"
        },
        {
          "name": "receivedOFTAddress",
          "type": "address",
          "internalType": "address"
        }
      ]
    },
    {
      "type": "error",
      "name": "HyperLiquidComposer_InvalidComposeMessage",
      "inputs": [
        {
          "name": "errorMessage",
          "type": "bytes",
          "internalType": "bytes"
        }
      ]
    },
    {
      "type": "error",
      "name": "SafeERC20FailedOperation",
      "inputs": [
        {
          "name": "token",
          "type": "address",
          "internalType": "address"
        }
      ]
    }
  ],
  "bytecode": {
    "object": "0x60e060405234801562000010575f80fd5b50604051620029453803806200294583398101604081905262000033916200021d565b83836001600160a01b0382166200006c5760405163fb82c1f160e01b81526001600160a01b038316600482015260240160405180910390fd5b6001600160a01b03808316608052811660a081905260408051637e062a3560e11b8152905163fc0c546a916004808201926020929091908290030181865afa158015620000bb573d5f803e3d5ffd5b505050506040513d601f19601f82011682018060405250810190620000e191906200028c565b6001600160a01b031660c05250506040805160608101909152806200010f6001600160401b038516620001ea565b6001600160a01b0390811682526001600160401b0394851660208084019190915260079490940b60409283015282515f8054858701518816600160a01b026001600160e01b03199182169390941692909217929092179091559181015160018054919095166001600160401b0319918216179094558051606081018252732222222222222222222222222222222222222222815261045193810193909352600a920182905260028054750451222222222222222222222222222222222222222292169190911790556003805490921617905550620002cf9050565b5f620001fb826001609d1b620002af565b92915050565b80516001600160a01b038116811462000218575f80fd5b919050565b5f805f806080858703121562000231575f80fd5b6200023c8562000201565b93506200024c6020860162000201565b60408601519093506001600160401b038116811462000269575f80fd5b8092505060608501518060070b811462000281575f80fd5b939692955090935050565b5f602082840312156200029d575f80fd5b620002a88262000201565b9392505050565b80820180821115620001fb57634e487b7160e01b5f52601160045260245ffd5b60805160a05160c05161261a6200032b5f395f818161057201528181610c7e0152818161174b015261186501525f81816103b101528181610909015261098001525f818161029c0152818161084501526108bd015261261a5ff3fe60806040526004361061010c575f3560e01c80639b5215f6116100a1578063dd85007511610071578063f6e6b24011610057578063f6e6b240146104be578063f9716faf14610516578063fc0c546a14610561575f80fd5b8063dd85007514610484578063ebaeefd6146104ab575f80fd5b80639b5215f6146103a0578063aae12e46146103d3578063ba8726791461045c578063d0a1026014610471575f80fd5b80635e280f11116100dc5780635e280f111461028b578063765008a1146102be57806381e8dcb4146103535780638483bc001461038b575f80fd5b806303be2050146101175780631b2248311461014c5780632d0e315c1461017a5780635241b49614610247575f80fd5b3661011357005b5f80fd5b348015610122575f80fd5b50610136610131366004611c59565b610594565b6040516101439190611d03565b60405180910390f35b348015610157575f80fd5b5061016b610166366004611c59565b6105a9565b60405161014393929190611d15565b348015610185575f80fd5b50610202604080516060810182525f808252602082018190529181019190915250604080516060810182525f5473ffffffffffffffffffffffffffffffffffffffff8116825274010000000000000000000000000000000000000000900467ffffffffffffffff16602082015260015460070b9181019190915290565b60408051825173ffffffffffffffffffffffffffffffffffffffff16815260208084015167ffffffffffffffff16908201529181015160070b90820152606001610143565b348015610252575f80fd5b50610266610261366004611e1d565b6105e1565b60405173ffffffffffffffffffffffffffffffffffffffff9091168152602001610143565b348015610296575f80fd5b506102667f000000000000000000000000000000000000000000000000000000000000000081565b3480156102c9575f80fd5b505f546001546103159173ffffffffffffffffffffffffffffffffffffffff8116917401000000000000000000000000000000000000000090910467ffffffffffffffff169060070b83565b6040805173ffffffffffffffffffffffffffffffffffffffff909416845267ffffffffffffffff909216602084015260070b90820152606001610143565b34801561035e575f80fd5b5061037261036d366004611edf565b61071b565b60405167ffffffffffffffff9091168152602001610143565b61039e610399366004611f16565b610726565b005b3480156103ab575f80fd5b506102667f000000000000000000000000000000000000000000000000000000000000000081565b3480156103de575f80fd5b50610202604080516060810182525f8082526020820181905291810191909152506040805160608101825260025473ffffffffffffffffffffffffffffffffffffffff8116825274010000000000000000000000000000000000000000900467ffffffffffffffff16602082015260035460070b9181019190915290565b348015610467575f80fd5b5061026661080181565b61039e61047f366004611f38565b610843565b34801561048f575f80fd5b5061026673333333333333333333333333333333333333333381565b61039e6104b9366004611fd2565b610c00565b3480156104c9575f80fd5b506002546003546103159173ffffffffffffffffffffffffffffffffffffffff8116917401000000000000000000000000000000000000000090910467ffffffffffffffff169060070b83565b348015610521575f80fd5b50610535610530366004611ffc565b610ca5565b6040805182518152602080840151908201529181015167ffffffffffffffff1690820152606001610143565b34801561056c575f80fd5b506102667f000000000000000000000000000000000000000000000000000000000000000081565b60606105a08383610dda565b90505b92915050565b5f8060605f6105b88686610e24565b90505f6105c58787610e3c565b90505f6105d28888610e4b565b92989197509195509350505050565b5f806105ec84610e5a565b90505f6105f886610e85565b905073ffffffffffffffffffffffffffffffffffffffff81166107125785516040515f917f09b34731000000000000000000000000000000000000000000000000000000009161064c918a91602401612023565b604080517fffffffffffffffffffffffffffffffffffffffffffffffffffffffffffffffe08184030181529190526020810180517bffffffffffffffffffffffffffffffffffffffffffffffffffffffff167fffffffff000000000000000000000000000000000000000000000000000000009093169290921790915290506106d6818487610ee8565b6040517f4f9520330000000000000000000000000000000000000000000000000000000081526004016107099190611d03565b60405180910390fd5b95945050505050565b5f6105a08383610f43565b333014610761576040517f5950c85e000000000000000000000000000000000000000000000000000000008152336004820152602401610709565b5f34118015610785575073ffffffffffffffffffffffffffffffffffffffff811615155b15610840575f8173ffffffffffffffffffffffffffffffffffffffff16346040515f6040518083038185875af1925050503d805f81146107e0576040519150601f19603f3d011682016040523d82523d5f602084013e6107e5565b606091505b505090508061083e576040517fc8ee485e00000000000000000000000000000000000000000000000000000000815273ffffffffffffffffffffffffffffffffffffffff83166004820152346024820152604401610709565b505b50565b7f000000000000000000000000000000000000000000000000000000000000000073ffffffffffffffffffffffffffffffffffffffff1633146108f0576040517fefa9309d00000000000000000000000000000000000000000000000000000000815273ffffffffffffffffffffffffffffffffffffffff7f0000000000000000000000000000000000000000000000000000000000000000166004820152336024820152604401610709565b8673ffffffffffffffffffffffffffffffffffffffff167f000000000000000000000000000000000000000000000000000000000000000073ffffffffffffffffffffffffffffffffffffffff16146109b5576040517f86fee0c000000000000000000000000000000000000000000000000000000000815273ffffffffffffffffffffffffffffffffffffffff7f00000000000000000000000000000000000000000000000000000000000000008116600483015288166024820152604401610709565b5f805f60603073ffffffffffffffffffffffffffffffffffffffff16631b2248318a8a6040518363ffffffff1660e01b81526004016109f5929190612044565b5f60405180830381865afa925050508015610a4f57506040513d5f823e601f3d9081017fffffffffffffffffffffffffffffffffffffffffffffffffffffffffffffffe0168201604052610a4c91908101906120d2565b60015b610ab5573d808015610a7c576040519150601f19603f3d011682016040523d82523d5f602084013e610a81565b606091505b50806040517ed4895a0000000000000000000000000000000000000000000000000000000081526004016107099190611d03565b919450925090506040517f5241b4960000000000000000000000000000000000000000000000000000000081523090635241b49690610afc9084908690889060040161211e565b602060405180830381865afa925050508015610b53575060408051601f3d9081017fffffffffffffffffffffffffffffffffffffffffffffffffffffffffffffffe0168201909252610b5091810190612142565b60015b610bd5573d808015610b80576040519150601f19603f3d011682016040523d82523d5f602084013e610b85565b606091505b505f610b91828a611057565b90507f612baef0082f9abcf6dc7b491d75346418381b75756830d7029939026d1b46b981604051610bc29190611d03565b60405180910390a1505050505050610bf7565b93503415610be857610be8843489611377565b610bf28484611716565b505050505b50505050505050565b333014610c3b576040517f5950c85e000000000000000000000000000000000000000000000000000000008152336004820152602401610709565b5f81118015610c5f575073ffffffffffffffffffffffffffffffffffffffff821615155b1561083e5761083e73ffffffffffffffffffffffffffffffffffffffff7f0000000000000000000000000000000000000000000000000000000000000000168383611892565b610cd060405180606001604052805f81526020015f81526020015f67ffffffffffffffff1681525090565b604080516060810182525f80825260208201819052918101829052908315610d6257604080516060810182525f5473ffffffffffffffffffffffffffffffffffffffff81168083527401000000000000000000000000000000000000000090910467ffffffffffffffff166020830181905260015460070b93830193909352909350610d5b91610f43565b9050610dcf565b6040805160608101825260025473ffffffffffffffffffffffffffffffffffffffff81168083527401000000000000000000000000000000000000000090910467ffffffffffffffff166020830181905260035460070b93830193909352909350610dcc91610f43565b90505b61071285828461191f565b6060610de9826044818661215d565b8080601f0160208091040260200160405190810160405280939291908181526020018383808284375f92019190915250929695505050505050565b5f610e33602c600c848661215d565b6105a091612184565b5f610e33604c602c848661215d565b6060610de982604c818661215d565b5f8173ffffffffffffffffffffffffffffffffffffffff8111610e7d5792915050565b505f92915050565b80515f907fffffffffffffffffffffffffffffffffffffffffffffffffffffffffffffffec8101610ec357610eb9836121c0565b60601c9392505050565b60208103610e7d575f610ed58461220f565b9050610ee081610e5a565b949350505050565b606060405180606001604052808473ffffffffffffffffffffffffffffffffffffffff16815260200183815260200185815250604051602001610f2b9190612254565b60405160208183030381529060405290509392505050565b6040805173ffffffffffffffffffffffffffffffffffffffff8416602082015267ffffffffffffffff8316818301528151808203830181526060918201928390525f9283929161080191610f979190612298565b5f60405180830381855afa9150503d805f8114610fcf576040519150601f19603f3d011682016040523d82523d5f602084013e610fd4565b606091505b50909250905081611039576040517fa91ed72100000000000000000000000000000000000000000000000000000000815273ffffffffffffffffffffffffffffffffffffffff8616600482015267ffffffffffffffff85166024820152604401610709565b8080602001905181019061104d91906122b3565b5195945050505050565b6040517f03be20500000000000000000000000000000000000000000000000000000000081526060905f9030906303be205090611098908790600401611d03565b5f60405180830381865afa1580156110b2573d5f803e3d5ffd5b505050506040513d5f823e601f3d9081017fffffffffffffffffffffffffffffffffffffffffffffffffffffffffffffffe01682016040526110f79190810190612305565b90505f8180602001905181019061110e9190612337565b805160208201516040517febaeefd600000000000000000000000000000000000000000000000000000000815273ffffffffffffffffffffffffffffffffffffffff90921660048301526024820152909150309063ebaeefd6906044015f604051808303815f87803b158015611182575f80fd5b505af1925050508015611193575060015b6111ed5780516020808301516040805173ffffffffffffffffffffffffffffffffffffffff9094168452918301527feb907f6e0de6862ca2ced78e890a55c5e8352dc4051697356bc835abf7cedcac910160405180910390a15b80515f9073ffffffffffffffffffffffffffffffffffffffff1615611213578151611215565b845b6040517f8483bc0000000000000000000000000000000000000000000000000000000000815273ffffffffffffffffffffffffffffffffffffffff821660048201529091503090638483bc009034906024015f604051808303818588803b15801561127e575f80fd5b505af193505050508015611290575060015b61136a576040515f90329034908381818185875af1925050503d805f81146112d3576040519150601f19603f3d011682016040523d82523d5f602084013e6112d8565b606091505b505090508061131a57604080513281523460208201527f0b0fd82e76ce2ddfcaf289bd460de0980c71a02674dbe00c04e45dfc44e9d577910160405180910390a15b6040805173ffffffffffffffffffffffffffffffffffffffff841681523460208201527f0b0fd82e76ce2ddfcaf289bd460de0980c71a02674dbe00c04e45dfc44e9d577910160405180910390a1505b5060400151949350505050565b5f611382835f610ca5565b60025481516040519293505f9273ffffffffffffffffffffffffffffffffffffffff909216918381818185875af1925050503d805f81146113de576040519150601f19603f3d011682016040523d82523d5f602084013e6113e3565b606091505b5050905080611421576040517fb7e54a0700000000000000000000000000000000000000000000000000000000815260048101859052602401610709565b60025460408381015190517f0b0ac0ab00000000000000000000000000000000000000000000000000000000815273ffffffffffffffffffffffffffffffffffffffff881660048201527401000000000000000000000000000000000000000090920467ffffffffffffffff908116602484015216604482015273333333333333333333333333333333333333333390630b0ac0ab906064015f604051808303815f87803b1580156114d1575f80fd5b505af11580156114e3573d5f803e3d5ffd5b5050505060208201511561170f5760208201516040517f8483bc0000000000000000000000000000000000000000000000000000000000815273ffffffffffffffffffffffffffffffffffffffff871660048201523091638483bc00916024015f604051808303818588803b15801561155a575f80fd5b505af19350505050801561156c575060015b6116b957602082015160405173ffffffffffffffffffffffffffffffffffffffff851691905f81818185875af1925050503d805f81146115c7576040519150601f19603f3d011682016040523d82523d5f602084013e6115cc565b606091505b50909150508015611632576020808301516040805173ffffffffffffffffffffffffffffffffffffffff87168152928301919091527fbb643711c959f203f346d453edf6f91a40b637a95c46c992089c63726b8eaa1791015b60405180910390a161170f565b60208201516040513291905f81818185875af1925050503d805f8114611673576040519150601f19603f3d011682016040523d82523d5f602084013e611678565b606091505b505060208381015160408051328152928301919091529192507fbb643711c959f203f346d453edf6f91a40b637a95c46c992089c63726b8eaa179101611625565b6020808301516040805173ffffffffffffffffffffffffffffffffffffffff89168152928301919091527fbb643711c959f203f346d453edf6f91a40b637a95c46c992089c63726b8eaa17910160405180910390a15b5050505050565b5f611722826001610ca5565b80519091501561183b575f5481516117759173ffffffffffffffffffffffffffffffffffffffff7f0000000000000000000000000000000000000000000000000000000000000000811692911690611892565b5f5460408281015190517f0b0ac0ab00000000000000000000000000000000000000000000000000000000815273ffffffffffffffffffffffffffffffffffffffff861660048201527401000000000000000000000000000000000000000090920467ffffffffffffffff908116602484015216604482015273333333333333333333333333333333333333333390630b0ac0ab906064015f604051808303815f87803b158015611824575f80fd5b505af1158015611836573d5f803e3d5ffd5b505050505b60208101511561188d57602081015161188d9073ffffffffffffffffffffffffffffffffffffffff7f000000000000000000000000000000000000000000000000000000000000000016908590611892565b505050565b6040805173ffffffffffffffffffffffffffffffffffffffff8416602482015260448082018490528251808303909101815260649091019091526020810180517bffffffffffffffffffffffffffffffffffffffffffffffffffffffff167fa9059cbb0000000000000000000000000000000000000000000000000000000017905261188d9084906119e4565b61194a60405180606001604052805f81526020015f81526020015f67ffffffffffffffff1681525090565b5f805f80856040015160070b13156119775761196b87878760400151611a89565b919450925090506119b9565b6119b1878787604001517fffffffffffffffffffffffffffffffffffffffffffffffffffffffffffffffff6119ac91906123e9565b611b69565b919450925090505b60408051606081018252938452602084019290925267ffffffffffffffff1690820152949350505050565b5f8060205f8451602086015f885af180611a03576040513d5f823e3d81fd5b50505f513d91508115611a1a578060011415611a34565b73ffffffffffffffffffffffffffffffffffffffff84163b155b15611a83576040517f5274afe700000000000000000000000000000000000000000000000000000000815273ffffffffffffffffffffffffffffffffffffffff85166004820152602401610709565b50505050565b5f808080611a9885600a61252d565b9050808781611aa957611aa9612542565b06808803945092505f611abc828961256f565b90508092508667ffffffffffffffff16811115611b5e576040805182815267ffffffffffffffff891660208201527ff73aea31f01cfdc762a9772a108b162c4db6f6a0f9689ff67a09b9fbda3e5915910160405180910390a15f82611b2b67ffffffffffffffff8a16846125a7565b611b3591906125ba565b8894509050611b4e8367ffffffffffffffff86166125ba565b9550611b5a81866125d1565b9450505b505093509350939050565b5f808080611b7885600a61252d565b8794505f9350905082611b8b82866125ba565b90508092508667ffffffffffffffff16811115611b5e576040805182815267ffffffffffffffff891660208201527ff73aea31f01cfdc762a9772a108b162c4db6f6a0f9689ff67a09b9fbda3e5915910160405180910390a1869250611bfb8267ffffffffffffffff851661256f565b9450611c0785896125a7565b9350505093509350939050565b5f8083601f840112611c24575f80fd5b50813567ffffffffffffffff811115611c3b575f80fd5b602083019150836020828501011115611c52575f80fd5b9250929050565b5f8060208385031215611c6a575f80fd5b823567ffffffffffffffff811115611c80575f80fd5b611c8c85828601611c14565b90969095509350505050565b5f5b83811015611cb2578181015183820152602001611c9a565b50505f910152565b5f8151808452611cd1816020860160208601611c98565b601f017fffffffffffffffffffffffffffffffffffffffffffffffffffffffffffffffe0169290920160200192915050565b602081525f6105a06020830184611cba565b838152826020820152606060408201525f6107126060830184611cba565b7f4e487b71000000000000000000000000000000000000000000000000000000005f52604160045260245ffd5b6040516060810167ffffffffffffffff81118282101715611d8357611d83611d33565b60405290565b604051601f82017fffffffffffffffffffffffffffffffffffffffffffffffffffffffffffffffe016810167ffffffffffffffff81118282101715611dd057611dd0611d33565b604052919050565b5f67ffffffffffffffff821115611df157611df1611d33565b50601f017fffffffffffffffffffffffffffffffffffffffffffffffffffffffffffffffe01660200190565b5f805f60608486031215611e2f575f80fd5b833567ffffffffffffffff811115611e45575f80fd5b8401601f81018613611e55575f80fd5b8035611e68611e6382611dd8565b611d89565b818152876020838501011115611e7c575f80fd5b816020840160208301375f6020838301015280955050505060208401359150604084013590509250925092565b73ffffffffffffffffffffffffffffffffffffffff81168114610840575f80fd5b67ffffffffffffffff81168114610840575f80fd5b5f8060408385031215611ef0575f80fd5b8235611efb81611ea9565b91506020830135611f0b81611eca565b809150509250929050565b5f60208284031215611f26575f80fd5b8135611f3181611ea9565b9392505050565b5f805f805f805f60a0888a031215611f4e575f80fd5b8735611f5981611ea9565b965060208801359550604088013567ffffffffffffffff80821115611f7c575f80fd5b611f888b838c01611c14565b909750955060608a01359150611f9d82611ea9565b90935060808901359080821115611fb2575f80fd5b50611fbf8a828b01611c14565b989b979a50959850939692959293505050565b5f8060408385031215611fe3575f80fd5b8235611fee81611ea9565b946020939093013593505050565b5f806040838503121561200d575f80fd5b8235915060208301358015158114611f0b575f80fd5b604081525f6120356040830185611cba565b90508260208301529392505050565b60208152816020820152818360408301375f818301604090810191909152601f9092017fffffffffffffffffffffffffffffffffffffffffffffffffffffffffffffffe0160101919050565b5f82601f83011261209f575f80fd5b81516120ad611e6382611dd8565b8181528460208386010111156120c1575f80fd5b610ee0826020830160208701611c98565b5f805f606084860312156120e4575f80fd5b8351925060208401519150604084015167ffffffffffffffff811115612108575f80fd5b61211486828701612090565b9150509250925092565b606081525f6121306060830186611cba565b60208301949094525060400152919050565b5f60208284031215612152575f80fd5b8151611f3181611ea9565b5f808585111561216b575f80fd5b83861115612177575f80fd5b5050820193919092039150565b803560208310156105a3577fffffffffffffffffffffffffffffffffffffffffffffffffffffffffffffffff602084900360031b1b1692915050565b5f815160208301517fffffffffffffffffffffffffffffffffffffffff000000000000000000000000808216935060148310156122075780818460140360031b1b83161693505b505050919050565b8051602080830151919081101561224e577fffffffffffffffffffffffffffffffffffffffffffffffffffffffffffffffff8160200360031b1b821691505b50919050565b6020815273ffffffffffffffffffffffffffffffffffffffff8251166020820152602082015160408201525f6040830151606080840152610ee06080840182611cba565b5f82516122a9818460208701611c98565b9190910192915050565b5f606082840312156122c3575f80fd5b6122cb611d60565b82516122d681611eca565b815260208301516122e681611eca565b602082015260408301516122f981611eca565b60408201529392505050565b5f60208284031215612315575f80fd5b815167ffffffffffffffff81111561232b575f80fd5b610ee084828501612090565b5f60208284031215612347575f80fd5b815167ffffffffffffffff8082111561235e575f80fd5b9083019060608286031215612371575f80fd5b612379611d60565b825161238481611ea9565b8152602083810151908201526040830151828111156123a1575f80fd5b6123ad87828601612090565b60408301525095945050505050565b7f4e487b71000000000000000000000000000000000000000000000000000000005f52601160045260245ffd5b5f8260070b8260070b028060070b9150808214612408576124086123bc565b5092915050565b600181815b8085111561246857817fffffffffffffffffffffffffffffffffffffffffffffffffffffffffffffffff0482111561244e5761244e6123bc565b8085161561245b57918102915b93841c9390800290612414565b509250929050565b5f8261247e575060016105a3565b8161248a57505f6105a3565b81600181146124a057600281146124aa576124c6565b60019150506105a3565b60ff8411156124bb576124bb6123bc565b50506001821b6105a3565b5060208310610133831016604e8410600b84101617156124e9575081810a6105a3565b6124f3838361240f565b807fffffffffffffffffffffffffffffffffffffffffffffffffffffffffffffffff04821115612525576125256123bc565b029392505050565b5f6105a067ffffffffffffffff841683612470565b7f4e487b71000000000000000000000000000000000000000000000000000000005f52601260045260245ffd5b5f826125a2577f4e487b71000000000000000000000000000000000000000000000000000000005f52601260045260245ffd5b500490565b818103818111156105a3576105a36123bc565b80820281158282048414176105a3576105a36123bc565b808201808211156105a3576105a36123bc56fea264697066735822122071ace290617cc3524816cfd2538f384ba14d52712da7d0542b11cf7349abd79f64736f6c63430008160033",
    "linkReferences": {}
  },
  "methodIdentifiers": {
    "HLP_PRECOMPILE_READ_SPOT_BALANCE()": "ba872679",
    "HLP_PRECOMPILE_WRITE()": "dd850075",
    "balanceOfHyperCore(address,uint64)": "81e8dcb4",
    "endpoint()": "5e280f11",
    "getErrorPayload(bytes)": "03be2050",
    "getHypeAsset()": "aae12e46",
    "getOFTAsset()": "2d0e315c",
    "hypeAsset()": "f6e6b240",
    "lzCompose(address,bytes32,bytes,address,bytes)": "d0a10260",
    "oft()": "9b5215f6",
    "oftAsset()": "765008a1",
    "quoteHyperCoreAmount(uint256,bool)": "f9716faf",
    "refundERC20(address,uint256)": "ebaeefd6",
    "refundNativeTokens(address)": "8483bc00",
    "token()": "fc0c546a",
    "validate_addresses_or_refund(bytes,bytes32,uint256)": "5241b496",
    "validate_payload(bytes)": "1b224831"
  },
  "id": 0
}