{
  "abi": [
    {
      "type": "constructor",
      "inputs": [
        {
          "name": "_endpoint",
          "type": "address",
          "internalType": "address"
        },
        {
          "name": "_oft",
          "type": "address",
          "internalType": "address"
        },
        {
          "name": "_coreIndexId",
          "type": "uint64",
          "internalType": "uint64"
        },
        {
          "name": "_assetDecimalDiff",
          "type": "int64",
          "internalType": "int64"
        },
        {
          "name": "_REFUND_ADDRESS",
          "type": "address",
          "internalType": "address"
        }
      ],
      "stateMutability": "nonpayable"
    },
    {
      "type": "receive",
      "stateMutability": "payable"
    },
    {
      "type": "function",
      "name": "CORE_WRITER_VERSION",
      "inputs": [],
      "outputs": [
        {
          "name": "",
          "type": "bytes",
          "internalType": "bytes"
        }
      ],
      "stateMutability": "view"
    },
    {
      "type": "function",
      "name": "HLP_CORE_WRITER",
      "inputs": [],
      "outputs": [
        {
          "name": "",
          "type": "address",
          "internalType": "address"
        }
      ],
      "stateMutability": "view"
    },
    {
      "type": "function",
      "name": "HLP_PRECOMPILE_READ_SPOT_BALANCE",
      "inputs": [],
      "outputs": [
        {
          "name": "",
          "type": "address",
          "internalType": "address"
        }
      ],
      "stateMutability": "view"
    },
    {
      "type": "function",
      "name": "HYPE_CHAIN_ID_MAINNET",
      "inputs": [],
      "outputs": [
        {
          "name": "",
          "type": "uint256",
          "internalType": "uint256"
        }
      ],
      "stateMutability": "view"
    },
    {
      "type": "function",
      "name": "HYPE_CHAIN_ID_TESTNET",
      "inputs": [],
      "outputs": [
        {
          "name": "",
          "type": "uint256",
          "internalType": "uint256"
        }
      ],
      "stateMutability": "view"
    },
    {
      "type": "function",
      "name": "HYPE_INDEX_MAINNET",
      "inputs": [],
      "outputs": [
        {
          "name": "",
          "type": "uint64",
          "internalType": "uint64"
        }
      ],
      "stateMutability": "view"
    },
    {
      "type": "function",
      "name": "HYPE_INDEX_TESTNET",
      "inputs": [],
      "outputs": [
        {
          "name": "",
          "type": "uint64",
          "internalType": "uint64"
        }
      ],
      "stateMutability": "view"
    },
    {
      "type": "function",
      "name": "MIN_GAS",
      "inputs": [],
      "outputs": [
        {
          "name": "",
          "type": "uint256",
          "internalType": "uint256"
        }
      ],
      "stateMutability": "view"
    },
    {
      "type": "function",
      "name": "REFUND_ADDRESS",
      "inputs": [],
      "outputs": [
        {
          "name": "",
          "type": "address",
          "internalType": "address"
        }
      ],
      "stateMutability": "view"
    },
    {
      "type": "function",
      "name": "SPOT_SEND_ACTION_ID",
      "inputs": [],
      "outputs": [
        {
          "name": "",
          "type": "bytes",
          "internalType": "bytes"
        }
      ],
      "stateMutability": "view"
    },
    {
      "type": "function",
      "name": "SPOT_SEND_HEADER",
      "inputs": [],
      "outputs": [
        {
          "name": "",
          "type": "bytes",
          "internalType": "bytes"
        }
      ],
      "stateMutability": "view"
    },
    {
      "type": "function",
      "name": "balanceOfHyperCore",
      "inputs": [
        {
          "name": "_user",
          "type": "address",
          "internalType": "address"
        },
        {
          "name": "_tokenId",
          "type": "uint64",
          "internalType": "uint64"
        }
      ],
      "outputs": [
        {
          "name": "",
          "type": "uint64",
          "internalType": "uint64"
        }
      ],
      "stateMutability": "view"
    },
    {
      "type": "function",
      "name": "decode_message",
      "inputs": [
        {
          "name": "_composeMessage",
          "type": "bytes",
          "internalType": "bytes"
        }
      ],
      "outputs": [
        {
          "name": "minMsgValue",
          "type": "uint256",
          "internalType": "uint256"
        },
        {
          "name": "receiver",
          "type": "address",
          "internalType": "address"
        }
      ],
      "stateMutability": "pure"
    },
    {
      "type": "function",
      "name": "endpoint",
      "inputs": [],
      "outputs": [
        {
          "name": "",
          "type": "address",
          "internalType": "address"
        }
      ],
      "stateMutability": "view"
    },
    {
      "type": "function",
      "name": "failedMessages",
      "inputs": [
        {
          "name": "",
          "type": "bytes32",
          "internalType": "bytes32"
        }
      ],
      "outputs": [
        {
          "name": "refundSendParam",
          "type": "tuple",
          "internalType": "struct SendParam",
          "components": [
            {
              "name": "dstEid",
              "type": "uint32",
              "internalType": "uint32"
            },
            {
              "name": "to",
              "type": "bytes32",
              "internalType": "bytes32"
            },
            {
              "name": "amountLD",
              "type": "uint256",
              "internalType": "uint256"
            },
            {
              "name": "minAmountLD",
              "type": "uint256",
              "internalType": "uint256"
            },
            {
              "name": "extraOptions",
              "type": "bytes",
              "internalType": "bytes"
            },
            {
              "name": "composeMsg",
              "type": "bytes",
              "internalType": "bytes"
            },
            {
              "name": "oftCmd",
              "type": "bytes",
              "internalType": "bytes"
            }
          ]
        },
        {
          "name": "msgValue",
          "type": "uint256",
          "internalType": "uint256"
        }
      ],
      "stateMutability": "view"
    },
    {
      "type": "function",
      "name": "fundAddressOnHyperCore",
      "inputs": [
        {
          "name": "_receiver",
          "type": "address",
          "internalType": "address"
        },
        {
          "name": "_amount",
          "type": "uint256",
          "internalType": "uint256"
        },
        {
          "name": "_executor",
          "type": "address",
          "internalType": "address"
        }
      ],
      "outputs": [],
      "stateMutability": "nonpayable"
    },
    {
      "type": "function",
      "name": "getErrorPayload",
      "inputs": [
        {
          "name": "_err",
          "type": "bytes",
          "internalType": "bytes"
        }
      ],
      "outputs": [
        {
          "name": "",
          "type": "bytes",
          "internalType": "bytes"
        }
      ],
      "stateMutability": "pure"
    },
    {
      "type": "function",
      "name": "getHypeAsset",
      "inputs": [],
      "outputs": [
        {
          "name": "",
          "type": "tuple",
          "internalType": "struct IHyperAsset",
          "components": [
            {
              "name": "assetBridgeAddress",
              "type": "address",
              "internalType": "address"
            },
            {
              "name": "coreIndexId",
              "type": "uint64",
              "internalType": "uint64"
            },
            {
              "name": "decimalDiff",
              "type": "int64",
              "internalType": "int64"
            }
          ]
        }
      ],
      "stateMutability": "view"
    },
    {
      "type": "function",
      "name": "getOFTAsset",
      "inputs": [],
      "outputs": [
        {
          "name": "",
          "type": "tuple",
          "internalType": "struct IHyperAsset",
          "components": [
            {
              "name": "assetBridgeAddress",
              "type": "address",
              "internalType": "address"
            },
            {
              "name": "coreIndexId",
              "type": "uint64",
              "internalType": "uint64"
            },
            {
              "name": "decimalDiff",
              "type": "int64",
              "internalType": "int64"
            }
          ]
        }
      ],
      "stateMutability": "view"
    },
    {
      "type": "function",
      "name": "hypeAsset",
      "inputs": [],
      "outputs": [
        {
          "name": "assetBridgeAddress",
          "type": "address",
          "internalType": "address"
        },
        {
          "name": "coreIndexId",
          "type": "uint64",
          "internalType": "uint64"
        },
        {
          "name": "decimalDiff",
          "type": "int64",
          "internalType": "int64"
        }
      ],
      "stateMutability": "view"
    },
    {
      "type": "function",
      "name": "hypeIndexByChainId",
      "inputs": [
        {
          "name": "",
          "type": "uint256",
          "internalType": "uint256"
        }
      ],
      "outputs": [
        {
          "name": "",
          "type": "uint64",
          "internalType": "uint64"
        }
      ],
      "stateMutability": "view"
    },
    {
      "type": "function",
      "name": "lzCompose",
      "inputs": [
        {
          "name": "_oft",
          "type": "address",
          "internalType": "address"
        },
        {
          "name": "_guid",
          "type": "bytes32",
          "internalType": "bytes32"
        },
        {
          "name": "_message",
          "type": "bytes",
          "internalType": "bytes"
        },
        {
          "name": "_executor",
          "type": "address",
          "internalType": "address"
        },
        {
          "name": "",
          "type": "bytes",
          "internalType": "bytes"
        }
      ],
      "outputs": [],
      "stateMutability": "payable"
    },
    {
      "type": "function",
      "name": "oft",
      "inputs": [],
      "outputs": [
        {
          "name": "",
          "type": "address",
          "internalType": "contract IOFT"
        }
      ],
      "stateMutability": "view"
    },
    {
      "type": "function",
      "name": "oftAsset",
      "inputs": [],
      "outputs": [
        {
          "name": "assetBridgeAddress",
          "type": "address",
          "internalType": "address"
        },
        {
          "name": "coreIndexId",
          "type": "uint64",
          "internalType": "uint64"
        },
        {
          "name": "decimalDiff",
          "type": "int64",
          "internalType": "int64"
        }
      ],
      "stateMutability": "view"
    },
    {
      "type": "function",
      "name": "quoteHyperCoreAmount",
      "inputs": [
        {
          "name": "_amount",
          "type": "uint256",
          "internalType": "uint256"
        },
        {
          "name": "_isOFT",
          "type": "bool",
          "internalType": "bool"
        }
      ],
      "outputs": [
        {
          "name": "",
          "type": "tuple",
          "internalType": "struct IHyperAssetAmount",
          "components": [
            {
              "name": "evm",
              "type": "uint256",
              "internalType": "uint256"
            },
            {
              "name": "dust",
              "type": "uint256",
              "internalType": "uint256"
            },
            {
              "name": "core",
              "type": "uint64",
              "internalType": "uint64"
            }
          ]
        }
      ],
      "stateMutability": "view"
    },
    {
      "type": "function",
      "name": "refund",
      "inputs": [
        {
          "name": "_guid",
          "type": "bytes32",
          "internalType": "bytes32"
        }
      ],
      "outputs": [],
      "stateMutability": "payable"
    },
    {
      "type": "function",
      "name": "refundERC20",
      "inputs": [
        {
          "name": "_refundAddress",
          "type": "address",
          "internalType": "address"
        },
        {
          "name": "_amount",
          "type": "uint256",
          "internalType": "uint256"
        }
      ],
      "outputs": [],
      "stateMutability": "nonpayable"
    },
    {
      "type": "function",
      "name": "refundNativeTokens",
      "inputs": [
        {
          "name": "_refundAddress",
          "type": "address",
          "internalType": "address"
        }
      ],
      "outputs": [],
      "stateMutability": "payable"
    },
    {
      "type": "function",
      "name": "sendAssetToHyperCore",
      "inputs": [
        {
          "name": "_receiver",
          "type": "address",
          "internalType": "address"
        },
        {
          "name": "_amountLD",
          "type": "uint256",
          "internalType": "uint256"
        }
      ],
      "outputs": [],
      "stateMutability": "nonpayable"
    },
    {
      "type": "function",
      "name": "token",
      "inputs": [],
      "outputs": [
        {
          "name": "",
          "type": "address",
          "internalType": "contract IERC20"
        }
      ],
      "stateMutability": "view"
    },
    {
      "type": "event",
      "name": "ErrorERC20_Refund",
      "inputs": [
        {
          "name": "refundTo",
          "type": "address",
          "indexed": false,
          "internalType": "address"
        },
        {
          "name": "refundAmount",
          "type": "uint256",
          "indexed": false,
          "internalType": "uint256"
        }
      ],
      "anonymous": false
    },
    {
      "type": "event",
      "name": "ErrorHYPE_Refund",
      "inputs": [
        {
          "name": "refundTo",
          "type": "address",
          "indexed": false,
          "internalType": "address"
        },
        {
          "name": "refundAmount",
          "type": "uint256",
          "indexed": false,
          "internalType": "uint256"
        }
      ],
      "anonymous": false
    },
    {
      "type": "event",
      "name": "ErrorMessage",
      "inputs": [
        {
          "name": "reason",
          "type": "bytes",
          "indexed": false,
          "internalType": "bytes"
        }
      ],
      "anonymous": false
    },
    {
      "type": "event",
      "name": "ErrorSpot_FailedToSend",
      "inputs": [
        {
          "name": "to",
          "type": "address",
          "indexed": false,
          "internalType": "address"
        },
        {
          "name": "tokenId",
          "type": "uint64",
          "indexed": false,
          "internalType": "uint64"
        },
        {
          "name": "amount",
          "type": "uint256",
          "indexed": false,
          "internalType": "uint256"
        },
        {
          "name": "errorMessage",
          "type": "bytes",
          "indexed": false,
          "internalType": "bytes"
        }
      ],
      "anonymous": false
    },
    {
      "type": "event",
      "name": "ExcessHYPE_Refund",
      "inputs": [
        {
          "name": "refundTo",
          "type": "address",
          "indexed": false,
          "internalType": "address"
        },
        {
          "name": "refundAmount",
          "type": "uint256",
          "indexed": false,
          "internalType": "uint256"
        }
      ],
      "anonymous": false
    },
    {
      "type": "event",
      "name": "FailedMessageDecode",
      "inputs": [
        {
          "name": "guid",
          "type": "bytes32",
          "indexed": true,
          "internalType": "bytes32"
        },
        {
          "name": "sender",
          "type": "bytes32",
          "indexed": false,
          "internalType": "bytes32"
        },
        {
          "name": "msgValue",
          "type": "uint256",
          "indexed": false,
          "internalType": "uint256"
        },
        {
          "name": "composeMessage",
          "type": "bytes",
          "indexed": false,
          "internalType": "bytes"
        }
      ],
      "anonymous": false
    },
    {
      "type": "event",
      "name": "RefundSuccessful",
      "inputs": [
        {
          "name": "guid",
          "type": "bytes32",
          "indexed": true,
          "internalType": "bytes32"
        }
      ],
      "anonymous": false
    },
    {
      "type": "error",
      "name": "FailedMessageNotFound",
      "inputs": [
        {
          "name": "guid",
          "type": "bytes32",
          "internalType": "bytes32"
        }
      ]
    },
    {
      "type": "error",
      "name": "HyperLiquidComposerCore_SpotBalanceRead_Failed",
      "inputs": [
        {
          "name": "user",
          "type": "address",
          "internalType": "address"
        },
        {
          "name": "tokenId",
          "type": "uint64",
          "internalType": "uint64"
        }
      ]
    },
    {
      "type": "error",
      "name": "HyperLiquidComposer_ComposeMsgNot64Byte",
      "inputs": [
        {
          "name": "composeMessage",
          "type": "bytes",
          "internalType": "bytes"
        },
        {
          "name": "length",
          "type": "uint256",
          "internalType": "uint256"
        }
      ]
    },
    {
      "type": "error",
      "name": "HyperLiquidComposer_FailedToRefund_HYPE",
      "inputs": [
        {
          "name": "to",
          "type": "address",
          "internalType": "address"
        },
        {
          "name": "amount",
          "type": "uint256",
          "internalType": "uint256"
        }
      ]
    },
    {
      "type": "error",
      "name": "HyperLiquidComposer_FailedToSend_HYPE",
      "inputs": [
        {
          "name": "amount",
          "type": "uint256",
          "internalType": "uint256"
        }
      ]
    },
    {
      "type": "error",
      "name": "HyperLiquidComposer_InvalidArgument_EndpointShouldNotBeZeroAddress",
      "inputs": [
        {
          "name": "receivedEndpointAddress",
          "type": "address",
          "internalType": "address"
        }
      ]
    },
    {
      "type": "error",
      "name": "HyperLiquidComposer_InvalidCall_NotComposer",
      "inputs": [
        {
          "name": "notComposerAddress",
          "type": "address",
          "internalType": "address"
        }
      ]
    },
    {
      "type": "error",
      "name": "HyperLiquidComposer_InvalidCall_NotEndpoint",
      "inputs": [
        {
          "name": "notEndpointAddress",
          "type": "address",
          "internalType": "address"
        },
        {
          "name": "expectedEndpointAddress",
          "type": "address",
          "internalType": "address"
        }
      ]
    },
    {
      "type": "error",
      "name": "HyperLiquidComposer_InvalidCall_NotOFT",
      "inputs": [
        {
          "name": "internalOFTAddress",
          "type": "address",
          "internalType": "address"
        },
        {
          "name": "receivedOFTAddress",
          "type": "address",
          "internalType": "address"
        }
      ]
    },
    {
      "type": "error",
      "name": "HyperLiquidComposer_NotEnoughGas",
      "inputs": [
        {
          "name": "gasLeft",
          "type": "uint256",
          "internalType": "uint256"
        },
        {
          "name": "minGas",
          "type": "uint256",
          "internalType": "uint256"
        }
      ]
    },
    {
      "type": "error",
      "name": "HyperLiquidComposer_ReceiverCannotBeZeroAddress",
      "inputs": [
        {
          "name": "receiver",
          "type": "address",
          "internalType": "address"
        }
      ]
    },
    {
      "type": "error",
      "name": "NotEnoughMsgValue",
      "inputs": [
        {
          "name": "msgValue",
          "type": "uint256",
          "internalType": "uint256"
        },
        {
          "name": "requiredValue",
          "type": "uint256",
          "internalType": "uint256"
        }
      ]
    },
    {
      "type": "error",
      "name": "SafeERC20FailedOperation",
      "inputs": [
        {
          "name": "token",
          "type": "address",
          "internalType": "address"
        }
      ]
    }
  ],
  "bytecode": {
    "object": "0x61010060405234801562000011575f80fd5b50604051620036313803806200363183398101604081905262000034916200028d565b84846001600160a01b0382166200006d5760405163fb82c1f160e01b81526001600160a01b038316600482015260240160405180910390fd5b6001600160a01b03808316608052811660a081905260408051637e062a3560e11b8152905163fc0c546a916004808201926020929091908290030181865afa158015620000bc573d5f803e3d5ffd5b505050506040513d601f19601f82011682018060405250810190620000e291906200030e565b6001600160a01b031660c05250505f60208190527f2802b8ca0a4d9948ac89ce9ba15f4015f0f68c52469c4df23bbaf374f1d4604080546001600160401b0319908116610451179091556103e79091527f332eac5de6beffe8ee7761a0342c75594c3acb5fdde0a2555227e56aa65d4141805490911660961790556040805160608101909152806200017d6001600160401b0386166200025a565b6001600160a01b0390811682526001600160401b0395861660208084019190915260079590950b604092830152825160028054858801519284166001600160e01b031991821617600160a01b938a1684021790915593830151600380546001600160401b0319908116928a1692909217905583516060810185527322222222222222222222222222222222222222228152465f90815280895285902054909816968801879052600a938801849052965160048054918416919095161795029490941790915560058054909416179092551660e05250620003519050565b5f6200026b826001609d1b62000331565b92915050565b80516001600160a01b038116811462000288575f80fd5b919050565b5f805f805f60a08688031215620002a2575f80fd5b620002ad8662000271565b9450620002bd6020870162000271565b60408701519094506001600160401b0381168114620002da575f80fd5b8093505060608601518060070b8114620002f2575f80fd5b9150620003026080870162000271565b90509295509295909350565b5f602082840312156200031f575f80fd5b6200032a8262000271565b9392505050565b808201808211156200026b57634e487b7160e01b5f52601160045260245ffd5b60805160a05160c05160e05161326d620003c45f395f81816107180152610c5901525f81816107ee0152818161185d01528181611a9b015261204201525f818161058101528181610c2a0152818161113001526111a701525f81816104250152818161106c01526110e4015261326d5ff3fe6080604052600436106101c8575f3560e01c80639b5215f6116100f2578063d9acf0ec11610092578063f6e6b24011610062578063f6e6b2401461073a578063f9716faf14610792578063fc0c546a146107dd578063fdea048214610810575f80fd5b8063d9acf0ec146106aa578063da001a29146106c9578063ebaeefd6146106e8578063f1ae0e9b14610707575f80fd5b8063ba872679116100cd578063ba87267914610659578063bc963bc71461066e578063d00b1ad514610683578063d0a1026014610697575f80fd5b80639b5215f614610570578063a4e7f8bd146105a3578063aae12e46146105d0575f80fd5b80634bd162df11610168578063765008a111610138578063765008a1146104815780637ecd9ac31461051757806381e8dcb41461053e5780638483bc001461055d575f80fd5b80634bd162df146103b15780635b9a2373146103ff5780635e280f11146104145780637249fbb61461046c575f80fd5b806320d2c951116101a357806320d2c9511461026257806320d9af9a1461028657806322dbe29c1461029b5780632d0e315c146102e3575f80fd5b806303be2050146101d35780630d1995e0146102085780631f8164d91461024e575f80fd5b366101cf57005b5f80fd5b3480156101de575f80fd5b506101f26101ed3660046127ab565b610859565b6040516101ff9190612855565b60405180910390f35b348015610213575f80fd5b506101f26040518060400160405280600381526020017d06000000000000000000000000000000000000000000000000000000000081525081565b348015610259575f80fd5b506101f261086e565b34801561026d575f80fd5b50610278620249f081565b6040519081526020016101ff565b348015610291575f80fd5b506102786103e681565b3480156102a6575f80fd5b506101f26040518060400160405280600181526020017f010000000000000000000000000000000000000000000000000000000000000081525081565b3480156102ee575f80fd5b5061036c604080516060810182525f8082526020820181905291810191909152506040805160608101825260025473ffffffffffffffffffffffffffffffffffffffff8116825274010000000000000000000000000000000000000000900467ffffffffffffffff16602082015260035460070b9181019190915290565b60408051825173ffffffffffffffffffffffffffffffffffffffff16815260208084015167ffffffffffffffff16908201529181015160070b908201526060016101ff565b3480156103bc575f80fd5b506103e66103cb366004612867565b5f6020819052908152604090205467ffffffffffffffff1681565b60405167ffffffffffffffff90911681526020016101ff565b34801561040a575f80fd5b506102786103e781565b34801561041f575f80fd5b506104477f000000000000000000000000000000000000000000000000000000000000000081565b60405173ffffffffffffffffffffffffffffffffffffffff90911681526020016101ff565b61047f61047a366004612867565b6108f2565b005b34801561048c575f80fd5b506002546003546104d99173ffffffffffffffffffffffffffffffffffffffff8116917401000000000000000000000000000000000000000090910467ffffffffffffffff169060070b83565b6040805173ffffffffffffffffffffffffffffffffffffffff909416845267ffffffffffffffff909216602084015260070b908201526060016101ff565b348015610522575f80fd5b5061044773333333333333333333333333333333333333333381565b348015610549575f80fd5b506103e66105583660046128b4565b610cf3565b61047f61056b3660046128eb565b610cfe565b34801561057b575f80fd5b506104477f000000000000000000000000000000000000000000000000000000000000000081565b3480156105ae575f80fd5b506105c26105bd366004612867565b610e1b565b6040516101ff929190612982565b3480156105db575f80fd5b5061036c604080516060810182525f8082526020820181905291810191909152506040805160608101825260045473ffffffffffffffffffffffffffffffffffffffff8116825274010000000000000000000000000000000000000000900467ffffffffffffffff16602082015260055460070b9181019190915290565b348015610664575f80fd5b5061044761080181565b348015610679575f80fd5b506103e661045181565b34801561068e575f80fd5b506103e6609681565b61047f6106a53660046129a3565b61101f565b3480156106b5575f80fd5b5061047f6106c4366004612a3d565b6117ec565b3480156106d4575f80fd5b5061047f6106e3366004612a67565b611ac8565b3480156106f3575f80fd5b5061047f610702366004612a3d565b611fc4565b348015610712575f80fd5b506104477f000000000000000000000000000000000000000000000000000000000000000081565b348015610745575f80fd5b506004546005546104d99173ffffffffffffffffffffffffffffffffffffffff8116917401000000000000000000000000000000000000000090910467ffffffffffffffff169060070b83565b34801561079d575f80fd5b506107b16107ac366004612aa6565b612069565b6040805182518152602080840151908201529181015167ffffffffffffffff16908201526060016101ff565b3480156107e8575f80fd5b506104477f000000000000000000000000000000000000000000000000000000000000000081565b34801561081b575f80fd5b5061082f61082a3660046127ab565b6121a8565b6040805192835273ffffffffffffffffffffffffffffffffffffffff9091166020830152016101ff565b60606108658383612267565b90505b92915050565b604080518082018252600181527f010000000000000000000000000000000000000000000000000000000000000060208083019190915282518084018452600381527d0600000000000000000000000000000000000000000000000000000000008183015292516108e0939101612acd565b60405160208183030381529060405281565b5f818152600160208190526040808320815161012081018352815463ffffffff1692810192835292810154606084015260028101546080840152600381015460a0840152600481018054919284929091849160c08501919061095390612afb565b80601f016020809104026020016040519081016040528092919081815260200182805461097f90612afb565b80156109ca5780601f106109a1576101008083540402835291602001916109ca565b820191905f5260205f20905b8154815290600101906020018083116109ad57829003601f168201915b505050505081526020016005820180546109e390612afb565b80601f0160208091040260200160405190810160405280929190818152602001828054610a0f90612afb565b8015610a5a5780601f10610a3157610100808354040283529160200191610a5a565b820191905f5260205f20905b815481529060010190602001808311610a3d57829003601f168201915b50505050508152602001600682018054610a7390612afb565b80601f0160208091040260200160405190810160405280929190818152602001828054610a9f90612afb565b8015610aea5780601f10610ac157610100808354040283529160200191610aea565b820191905f5260205f20905b815481529060010190602001808311610acd57829003601f168201915b5050509190925250505081526007919091015460209182015281510151909150610b48576040517f0b948634000000000000000000000000000000000000000000000000000000008152600481018390526024015b60405180910390fd5b5f828152600160208190526040822080547fffffffffffffffffffffffffffffffffffffffffffffffffffffffff000000001681559081018290556002810182905560038101829055908181610ba16004830182612723565b610bae600583015f612723565b610bbb600683015f612723565b5050600782015f905550505f348260200151610bd79190612b73565b82516040805180820182528381525f602082015290517fc7c7f5b300000000000000000000000000000000000000000000000000000000815292935073ffffffffffffffffffffffffffffffffffffffff7f0000000000000000000000000000000000000000000000000000000000000000169263c7c7f5b3928592610c81927f000000000000000000000000000000000000000000000000000000000000000090600401612b86565b60c06040518083038185885af1158015610c9d573d5f803e3d5ffd5b50505050506040513d601f19601f82011682018060405250810190610cc29190612c72565b505060405183907fd41d02272333251e6367f747c63d5cc227dcac6b0c799067569e80a30f9da369905f90a2505050565b5f61086583836122b1565b333014610d39576040517f5950c85e000000000000000000000000000000000000000000000000000000008152336004820152602401610b3f565b5f34118015610d5d575073ffffffffffffffffffffffffffffffffffffffff811615155b15610e18575f8173ffffffffffffffffffffffffffffffffffffffff16346040515f6040518083038185875af1925050503d805f8114610db8576040519150601f19603f3d011682016040523d82523d5f602084013e610dbd565b606091505b5050905080610e16576040517fc8ee485e00000000000000000000000000000000000000000000000000000000815273ffffffffffffffffffffffffffffffffffffffff83166004820152346024820152604401610b3f565b505b50565b600160208181525f928352604092839020835160e081018552815463ffffffff16815292810154918301919091526002810154928201929092526003820154606082015260048201805483916080840191610e7590612afb565b80601f0160208091040260200160405190810160405280929190818152602001828054610ea190612afb565b8015610eec5780601f10610ec357610100808354040283529160200191610eec565b820191905f5260205f20905b815481529060010190602001808311610ecf57829003601f168201915b50505050508152602001600582018054610f0590612afb565b80601f0160208091040260200160405190810160405280929190818152602001828054610f3190612afb565b8015610f7c5780601f10610f5357610100808354040283529160200191610f7c565b820191905f5260205f20905b815481529060010190602001808311610f5f57829003601f168201915b50505050508152602001600682018054610f9590612afb565b80601f0160208091040260200160405190810160405280929190818152602001828054610fc190612afb565b801561100c5780601f10610fe35761010080835404028352916020019161100c565b820191905f5260205f20905b815481529060010190602001808311610fef57829003601f168201915b5050509190925250505060079091015482565b620249f05a101561106a575a6040517f4d6766d60000000000000000000000000000000000000000000000000000000081526004810191909152620249f06024820152604401610b3f565b7f000000000000000000000000000000000000000000000000000000000000000073ffffffffffffffffffffffffffffffffffffffff163314611117576040517fefa9309d00000000000000000000000000000000000000000000000000000000815273ffffffffffffffffffffffffffffffffffffffff7f0000000000000000000000000000000000000000000000000000000000000000166004820152336024820152604401610b3f565b8673ffffffffffffffffffffffffffffffffffffffff167f000000000000000000000000000000000000000000000000000000000000000073ffffffffffffffffffffffffffffffffffffffff16146111dc576040517f86fee0c000000000000000000000000000000000000000000000000000000000815273ffffffffffffffffffffffffffffffffffffffff7f00000000000000000000000000000000000000000000000000000000000000008116600483015288166024820152604401610b3f565b5f806111e887876123c5565b90505f6111f588886123dd565b6040517ffdea0482000000000000000000000000000000000000000000000000000000008152909150309063fdea048290611234908490600401612855565b6040805180830381865afa92505050801561128a575060408051601f3d9081017fffffffffffffffffffffffffffffffffffffffffffffffffffffffffffffffe016820190925261128791810190612cdb565b60015b611409576112d36040518060e001604052805f63ffffffff1681526020015f80191681526020015f81526020015f81526020016060815260200160608152602001606081525090565b6112dd89896123ec565b63ffffffff1681526112ef898961240e565b60208281019190915260408083018590528051808201825283815234818401525f8d81526001808552908390208251805182547fffffffffffffffffffffffffffffffffffffffffffffffffffffffff000000001663ffffffff9091161782559485015191810191909155918301516002830155606083015160038301556080830151909290829060048201906113869082612d49565b5060a0820151600582019061139b9082612d49565b5060c082015160068201906113b09082612d49565b50505060208201518160070155905050897f387fc8f821460fa8221428c9f4dc1f6d5db4f6a0a01f33dbeaa8cebd95e5d144826020015134856040516113f893929190612e65565b60405180910390a2505050506117e3565b3482111561144c576040517f7877039200000000000000000000000000000000000000000000000000000000815234600482015260248101839052604401610b3f565b935050341561164b576040517fda001a2900000000000000000000000000000000000000000000000000000000815273ffffffffffffffffffffffffffffffffffffffff808516600483015234602483015287166044820152309063da001a29906064015f604051808303815f87803b1580156114c7575f80fd5b505af19250505080156114d8575060015b61164b573d808015611505576040519150601f19603f3d011682016040523d82523d5f602084013e61150a565b606091505b506040517f8483bc0000000000000000000000000000000000000000000000000000000000815273ffffffffffffffffffffffffffffffffffffffff851660048201523090638483bc009034906024015f604051808303818588803b158015611571575f80fd5b505af193505050508015611583575060015b611612576040515f908190329034908381818185875af1925050503d805f81146115c8576040519150601f19603f3d011682016040523d82523d5f602084013e6115cd565b606091505b50915091508161160f577f612baef0082f9abcf6dc7b491d75346418381b75756830d7029939026d1b46b9816040516116069190612855565b60405180910390a15b50505b7f612baef0082f9abcf6dc7b491d75346418381b75756830d7029939026d1b46b9816040516116419190612855565b60405180910390a1505b6040517fd9acf0ec00000000000000000000000000000000000000000000000000000000815273ffffffffffffffffffffffffffffffffffffffff8416600482015260248101839052309063d9acf0ec906044015f604051808303815f87803b1580156116b6575f80fd5b505af19250505080156116c7575060015b6117df573d8080156116f4576040519150601f19603f3d011682016040523d82523d5f602084013e6116f9565b606091505b506040517febaeefd600000000000000000000000000000000000000000000000000000000815273ffffffffffffffffffffffffffffffffffffffff8516600482015260248101849052309063ebaeefd6906044015f604051808303815f87803b158015611765575f80fd5b505af1158015611777573d5f803e3d5ffd5b50506002546040517f775ce5b47736b2186798494ee89239e4c0341b516c05bf613205d83ffbfffdc693506117d59250879174010000000000000000000000000000000000000000900467ffffffffffffffff169087908690612e83565b60405180910390a1505b5050505b50505050505050565b333014611827576040517f5950c85e000000000000000000000000000000000000000000000000000000008152336004820152602401610b3f565b5f611833826001612069565b805190915015611a715760025481516118879173ffffffffffffffffffffffffffffffffffffffff7f000000000000000000000000000000000000000000000000000000000000000081169291169061241d565b600254604082810151815173ffffffffffffffffffffffffffffffffffffffff871660208201527401000000000000000000000000000000000000000090930467ffffffffffffffff908116928401929092521660608201525f90608001604080517fffffffffffffffffffffffffffffffffffffffffffffffffffffffffffffffe08184030181528282018252600183527f010000000000000000000000000000000000000000000000000000000000000060208481019190915282518084018452600381527d0600000000000000000000000000000000000000000000000000000000008183015292519194505f93611986939092909101612acd565b604080517fffffffffffffffffffffffffffffffffffffffffffffffffffffffffffffffe0818403018152908290526119c3918490602001612acd565b604080517fffffffffffffffffffffffffffffffffffffffffffffffffffffffffffffffe0818403018152908290527f17938e130000000000000000000000000000000000000000000000000000000082529150733333333333333333333333333333333333333333906317938e1390611a41908490600401612855565b5f604051808303815f87803b158015611a58575f80fd5b505af1158015611a6a573d5f803e3d5ffd5b5050505050505b602081015115611ac3576020810151611ac39073ffffffffffffffffffffffffffffffffffffffff7f00000000000000000000000000000000000000000000000000000000000000001690859061241d565b505050565b333014611b03576040517f5950c85e000000000000000000000000000000000000000000000000000000008152336004820152602401610b3f565b5f611b0e835f612069565b60045481516040519293505f9273ffffffffffffffffffffffffffffffffffffffff909216918381818185875af1925050503d805f8114611b6a576040519150601f19603f3d011682016040523d82523d5f602084013e611b6f565b606091505b5050905080611bad576040517fb7e54a0700000000000000000000000000000000000000000000000000000000815260048101859052602401610b3f565b600454604083810151815173ffffffffffffffffffffffffffffffffffffffff891660208201527401000000000000000000000000000000000000000090930467ffffffffffffffff908116928401929092521660608201525f90608001604080517fffffffffffffffffffffffffffffffffffffffffffffffffffffffffffffffe08184030181528282018252600183527f010000000000000000000000000000000000000000000000000000000000000060208481019190915282518084018452600381527d0600000000000000000000000000000000000000000000000000000000008183015292519194505f93611cac939092909101612acd565b604080517fffffffffffffffffffffffffffffffffffffffffffffffffffffffffffffffe081840301815290829052611ce9918490602001612acd565b604080517fffffffffffffffffffffffffffffffffffffffffffffffffffffffffffffffe0818403018152908290527f17938e130000000000000000000000000000000000000000000000000000000082529150733333333333333333333333333333333333333333906317938e1390611d67908490600401612855565b5f604051808303815f87803b158015611d7e575f80fd5b505af1158015611d90573d5f803e3d5ffd5b505050506020840151156117e35760208401516040517f8483bc0000000000000000000000000000000000000000000000000000000000815273ffffffffffffffffffffffffffffffffffffffff891660048201523091638483bc00916024015f604051808303818588803b158015611e07575f80fd5b505af193505050508015611e19575060015b611f6657602084015160405173ffffffffffffffffffffffffffffffffffffffff871691905f81818185875af1925050503d805f8114611e74576040519150601f19603f3d011682016040523d82523d5f602084013e611e79565b606091505b50909350508215611edf576020808501516040805173ffffffffffffffffffffffffffffffffffffffff89168152928301919091527fbb643711c959f203f346d453edf6f91a40b637a95c46c992089c63726b8eaa1791015b60405180910390a16117e3565b60208401516040513291905f81818185875af1925050503d805f8114611f20576040519150601f19603f3d011682016040523d82523d5f602084013e611f25565b606091505b505060208581015160408051328152928301919091529194507fbb643711c959f203f346d453edf6f91a40b637a95c46c992089c63726b8eaa179101611ed2565b6020808501516040805173ffffffffffffffffffffffffffffffffffffffff8b168152928301919091527fbb643711c959f203f346d453edf6f91a40b637a95c46c992089c63726b8eaa17910160405180910390a150505050505050565b333014611fff576040517f5950c85e000000000000000000000000000000000000000000000000000000008152336004820152602401610b3f565b5f81118015612023575073ffffffffffffffffffffffffffffffffffffffff821615155b15610e1657610e1673ffffffffffffffffffffffffffffffffffffffff7f000000000000000000000000000000000000000000000000000000000000000016838361241d565b61209460405180606001604052805f81526020015f81526020015f67ffffffffffffffff1681525090565b604080516060810182525f80825260208201819052918101829052908315612127576040805160608101825260025473ffffffffffffffffffffffffffffffffffffffff81168083527401000000000000000000000000000000000000000090910467ffffffffffffffff166020830181905260035460070b93830193909352909350612120916122b1565b9050612194565b6040805160608101825260045473ffffffffffffffffffffffffffffffffffffffff81168083527401000000000000000000000000000000000000000090910467ffffffffffffffff166020830181905260055460070b93830193909352909350612191916122b1565b90505b61219f8582846124aa565b95945050505050565b5f80604083146121ea576040517f741c7e80000000000000000000000000000000000000000000000000000000008152610b3f90859085908190600401612ed1565b6121f683850185612f26565b909250905073ffffffffffffffffffffffffffffffffffffffff8116612260576040517f903b5a8300000000000000000000000000000000000000000000000000000000815273ffffffffffffffffffffffffffffffffffffffff82166004820152602401610b3f565b9250929050565b60606122768260448186612f49565b8080601f0160208091040260200160405190810160405280939291908181526020018383808284375f92019190915250929695505050505050565b6040805173ffffffffffffffffffffffffffffffffffffffff8416602082015267ffffffffffffffff8316818301528151808203830181526060918201928390525f92839291610801916123059190612f70565b5f60405180830381855afa9150503d805f811461233d576040519150601f19603f3d011682016040523d82523d5f602084013e612342565b606091505b509092509050816123a7576040517fa91ed72100000000000000000000000000000000000000000000000000000000815273ffffffffffffffffffffffffffffffffffffffff8616600482015267ffffffffffffffff85166024820152604401610b3f565b808060200190518101906123bb9190612f8b565b5195945050505050565b5f6123d4602c600c8486612f49565b61086591612fdd565b606061227682604c8186612f49565b5f6123fb600c60088486612f49565b61240491613019565b60e01c9392505050565b5f6123d4604c602c8486612f49565b6040805173ffffffffffffffffffffffffffffffffffffffff8416602482015260448082018490528251808303909101815260649091019091526020810180517bffffffffffffffffffffffffffffffffffffffffffffffffffffffff167fa9059cbb00000000000000000000000000000000000000000000000000000000179052611ac3908490612585565b6124d560405180606001604052805f81526020015f81526020015f67ffffffffffffffff1681525090565b5f805f806124eb8767ffffffffffffffff61262a565b90505f866040015160070b13156125175761250b88828860400151612652565b91955093509150612559565b612551888288604001517fffffffffffffffffffffffffffffffffffffffffffffffffffffffffffffffff61254c9190613061565b6126cb565b919550935091505b5060408051606081018252938452602084019290925267ffffffffffffffff1690820152949350505050565b5f8060205f8451602086015f885af1806125a4576040513d5f823e3d81fd5b50505f513d915081156125bb5780600114156125d5565b73ffffffffffffffffffffffffffffffffffffffff84163b155b15612624576040517f5274afe700000000000000000000000000000000000000000000000000000000815273ffffffffffffffffffffffffffffffffffffffff85166004820152602401610b3f565b50505050565b5f8167ffffffffffffffff168367ffffffffffffffff161161264c5782610865565b50919050565b5f80808061266185600a6131a5565b90505f6126788267ffffffffffffffff89166131ba565b905061268482896131fe565b93506126908489613211565b975061269c8882612715565b94506126a88589613211565b6126b29085612b73565b93506126be8286613224565b9250505093509350939050565b5f8080806126da85600a6131a5565b90505f6126f18267ffffffffffffffff8916613224565b90506126fd8882612715565b94506127098589613211565b93506126be82866131ba565b5f81831161264c5782610865565b50805461272f90612afb565b5f825580601f1061273e575050565b601f0160209004905f5260205f2090810190610e1891905b80821115612769575f8155600101612756565b5090565b5f8083601f84011261277d575f80fd5b50813567ffffffffffffffff811115612794575f80fd5b602083019150836020828501011115612260575f80fd5b5f80602083850312156127bc575f80fd5b823567ffffffffffffffff8111156127d2575f80fd5b6127de8582860161276d565b90969095509350505050565b5f5b838110156128045781810151838201526020016127ec565b50505f910152565b5f81518084526128238160208601602086016127ea565b601f017fffffffffffffffffffffffffffffffffffffffffffffffffffffffffffffffe0169290920160200192915050565b602081525f610865602083018461280c565b5f60208284031215612877575f80fd5b5035919050565b73ffffffffffffffffffffffffffffffffffffffff81168114610e18575f80fd5b67ffffffffffffffff81168114610e18575f80fd5b5f80604083850312156128c5575f80fd5b82356128d08161287e565b915060208301356128e08161289f565b809150509250929050565b5f602082840312156128fb575f80fd5b81356129068161287e565b9392505050565b63ffffffff81511682526020810151602083015260408101516040830152606081015160608301525f608082015160e0608085015261294f60e085018261280c565b905060a083015184820360a0860152612968828261280c565b91505060c083015184820360c086015261219f828261280c565b604081525f612994604083018561290d565b90508260208301529392505050565b5f805f805f805f60a0888a0312156129b9575f80fd5b87356129c48161287e565b965060208801359550604088013567ffffffffffffffff808211156129e7575f80fd5b6129f38b838c0161276d565b909750955060608a01359150612a088261287e565b90935060808901359080821115612a1d575f80fd5b50612a2a8a828b0161276d565b989b979a50959850939692959293505050565b5f8060408385031215612a4e575f80fd5b8235612a598161287e565b946020939093013593505050565b5f805f60608486031215612a79575f80fd5b8335612a848161287e565b9250602084013591506040840135612a9b8161287e565b809150509250925092565b5f8060408385031215612ab7575f80fd5b82359150602083013580151581146128e0575f80fd5b5f8351612ade8184602088016127ea565b835190830190612af28183602088016127ea565b01949350505050565b600181811c90821680612b0f57607f821691505b60208210810361264c577f4e487b71000000000000000000000000000000000000000000000000000000005f52602260045260245ffd5b7f4e487b71000000000000000000000000000000000000000000000000000000005f52601160045260245ffd5b8082018082111561086857610868612b46565b608081525f612b98608083018661290d565b9050835160208301526020840151604083015273ffffffffffffffffffffffffffffffffffffffff83166060830152949350505050565b7f4e487b71000000000000000000000000000000000000000000000000000000005f52604160045260245ffd5b6040516060810167ffffffffffffffff81118282101715612c1f57612c1f612bcf565b60405290565b5f60408284031215612c35575f80fd5b6040516040810181811067ffffffffffffffff82111715612c5857612c58612bcf565b604052825181526020928301519281019290925250919050565b5f8082840360c0811215612c84575f80fd5b6080811215612c91575f80fd5b50612c9a612bfc565b835181526020840151612cac8161289f565b6020820152612cbe8560408601612c25565b60408201529150612cd28460808501612c25565b90509250929050565b5f8060408385031215612cec575f80fd5b8251915060208301516128e08161287e565b601f821115611ac357805f5260205f20601f840160051c81016020851015612d235750805b601f840160051c820191505b81811015612d42575f8155600101612d2f565b5050505050565b815167ffffffffffffffff811115612d6357612d63612bcf565b612d7781612d718454612afb565b84612cfe565b602080601f831160018114612dc9575f8415612d935750858301515b7fffffffffffffffffffffffffffffffffffffffffffffffffffffffffffffffff600386901b1c1916600185901b178555612e5d565b5f858152602081207fffffffffffffffffffffffffffffffffffffffffffffffffffffffffffffffe08616915b82811015612e1557888601518255948401946001909101908401612df6565b5085821015612e5157878501517fffffffffffffffffffffffffffffffffffffffffffffffffffffffffffffffff600388901b60f8161c191681555b505060018460011b0185555b505050505050565b838152826020820152606060408201525f61219f606083018461280c565b73ffffffffffffffffffffffffffffffffffffffff8516815267ffffffffffffffff84166020820152826040820152608060608201525f612ec7608083018461280c565b9695505050505050565b60408152826040820152828460608301375f606084830101525f60607fffffffffffffffffffffffffffffffffffffffffffffffffffffffffffffffe0601f8601168301019050826020830152949350505050565b5f8060408385031215612f37575f80fd5b8235915060208301356128e08161287e565b5f8085851115612f57575f80fd5b83861115612f63575f80fd5b5050820193919092039150565b5f8251612f818184602087016127ea565b9190910192915050565b5f60608284031215612f9b575f80fd5b612fa3612bfc565b8251612fae8161289f565b81526020830151612fbe8161289f565b60208201526040830151612fd18161289f565b60408201529392505050565b80356020831015610868577fffffffffffffffffffffffffffffffffffffffffffffffffffffffffffffffff602084900360031b1b1692915050565b7fffffffff0000000000000000000000000000000000000000000000000000000081358181169160048510156130595780818660040360031b1b83161692505b505092915050565b5f8260070b8260070b028060070b915080821461308057613080612b46565b5092915050565b600181815b808511156130e057817fffffffffffffffffffffffffffffffffffffffffffffffffffffffffffffffff048211156130c6576130c6612b46565b808516156130d357918102915b93841c939080029061308c565b509250929050565b5f826130f657506001610868565b8161310257505f610868565b816001811461311857600281146131225761313e565b6001915050610868565b60ff84111561313357613133612b46565b50506001821b610868565b5060208310610133831016604e8410600b8410161715613161575081810a610868565b61316b8383613087565b807fffffffffffffffffffffffffffffffffffffffffffffffffffffffffffffffff0482111561319d5761319d612b46565b029392505050565b5f61086567ffffffffffffffff8416836130e8565b808202811582820484141761086857610868612b46565b7f4e487b71000000000000000000000000000000000000000000000000000000005f52601260045260245ffd5b5f8261320c5761320c6131d1565b500690565b8181038181111561086857610868612b46565b5f82613232576132326131d1565b50049056fea264697066735822122085660689c24ef22211603c9803147fb09537f83c9bc04df840c9f8c142cb78c464736f6c63430008160033",
    "linkReferences": {}
  },
  "methodIdentifiers": {
    "CORE_WRITER_VERSION()": "22dbe29c",
    "HLP_CORE_WRITER()": "7ecd9ac3",
    "HLP_PRECOMPILE_READ_SPOT_BALANCE()": "ba872679",
    "HYPE_CHAIN_ID_MAINNET()": "5b9a2373",
    "HYPE_CHAIN_ID_TESTNET()": "20d9af9a",
    "HYPE_INDEX_MAINNET()": "d00b1ad5",
    "HYPE_INDEX_TESTNET()": "bc963bc7",
    "MIN_GAS()": "20d2c951",
    "REFUND_ADDRESS()": "f1ae0e9b",
    "SPOT_SEND_ACTION_ID()": "0d1995e0",
    "SPOT_SEND_HEADER()": "1f8164d9",
    "balanceOfHyperCore(address,uint64)": "81e8dcb4",
    "decode_message(bytes)": "fdea0482",
    "endpoint()": "5e280f11",
    "failedMessages(bytes32)": "a4e7f8bd",
    "fundAddressOnHyperCore(address,uint256,address)": "da001a29",
    "getErrorPayload(bytes)": "03be2050",
    "getHypeAsset()": "aae12e46",
    "getOFTAsset()": "2d0e315c",
    "hypeAsset()": "f6e6b240",
    "hypeIndexByChainId(uint256)": "4bd162df",
    "lzCompose(address,bytes32,bytes,address,bytes)": "d0a10260",
    "oft()": "9b5215f6",
    "oftAsset()": "765008a1",
    "quoteHyperCoreAmount(uint256,bool)": "f9716faf",
    "refund(bytes32)": "7249fbb6",
    "refundERC20(address,uint256)": "ebaeefd6",
    "refundNativeTokens(address)": "8483bc00",
    "sendAssetToHyperCore(address,uint256)": "d9acf0ec",
    "token()": "fc0c546a"
  },
  "id": 0
}