{
  "abi": [
    {
      "type": "constructor",
      "inputs": [
        {
          "name": "_endpoint",
          "type": "address",
          "internalType": "address"
        },
        {
          "name": "_oft",
          "type": "address",
          "internalType": "address"
        },
        {
          "name": "_coreIndexId",
          "type": "uint64",
          "internalType": "uint64"
        },
        {
          "name": "_weiDiff",
          "type": "int64",
          "internalType": "int64"
        }
      ],
      "stateMutability": "nonpayable"
    },
    {
      "type": "receive",
      "stateMutability": "payable"
    },
    {
      "type": "function",
      "name": "HLP_PRECOMPILE_READ_SPOT_BALANCE",
      "inputs": [],
      "outputs": [
        {
          "name": "",
          "type": "address",
          "internalType": "address"
        }
      ],
      "stateMutability": "view"
    },
    {
      "type": "function",
      "name": "HLP_PRECOMPILE_WRITE",
      "inputs": [],
      "outputs": [
        {
          "name": "",
          "type": "address",
          "internalType": "address"
        }
      ],
      "stateMutability": "view"
    },
    {
      "type": "function",
      "name": "balanceOfHyperCore",
      "inputs": [
        {
          "name": "_user",
          "type": "address",
          "internalType": "address"
        },
        {
          "name": "_tokenId",
          "type": "uint64",
          "internalType": "uint64"
        }
      ],
      "outputs": [
        {
          "name": "",
          "type": "uint64",
          "internalType": "uint64"
        }
      ],
      "stateMutability": "view"
    },
    {
      "type": "function",
      "name": "endpoint",
      "inputs": [],
      "outputs": [
        {
          "name": "",
          "type": "address",
          "internalType": "address"
        }
      ],
      "stateMutability": "view"
    },
    {
      "type": "function",
      "name": "getErrorPayload",
      "inputs": [
        {
          "name": "_err",
          "type": "bytes",
          "internalType": "bytes"
        }
      ],
      "outputs": [
        {
          "name": "",
          "type": "bytes",
          "internalType": "bytes"
        }
      ],
      "stateMutability": "pure"
    },
    {
      "type": "function",
      "name": "getHypeAsset",
      "inputs": [],
      "outputs": [
        {
          "name": "",
          "type": "tuple",
          "internalType": "struct IHyperAsset",
          "components": [
            {
              "name": "assetBridgeAddress",
              "type": "address",
              "internalType": "address"
            },
            {
              "name": "coreIndexId",
              "type": "uint64",
              "internalType": "uint64"
            },
            {
              "name": "decimalDiff",
              "type": "int64",
              "internalType": "int64"
            }
          ]
        }
      ],
      "stateMutability": "view"
    },
    {
      "type": "function",
      "name": "getOFTAsset",
      "inputs": [],
      "outputs": [
        {
          "name": "",
          "type": "tuple",
          "internalType": "struct IHyperAsset",
          "components": [
            {
              "name": "assetBridgeAddress",
              "type": "address",
              "internalType": "address"
            },
            {
              "name": "coreIndexId",
              "type": "uint64",
              "internalType": "uint64"
            },
            {
              "name": "decimalDiff",
              "type": "int64",
              "internalType": "int64"
            }
          ]
        }
      ],
      "stateMutability": "view"
    },
    {
      "type": "function",
      "name": "hypeAsset",
      "inputs": [],
      "outputs": [
        {
          "name": "assetBridgeAddress",
          "type": "address",
          "internalType": "address"
        },
        {
          "name": "coreIndexId",
          "type": "uint64",
          "internalType": "uint64"
        },
        {
          "name": "decimalDiff",
          "type": "int64",
          "internalType": "int64"
        }
      ],
      "stateMutability": "view"
    },
    {
      "type": "function",
      "name": "lzCompose",
      "inputs": [
        {
          "name": "_oft",
          "type": "address",
          "internalType": "address"
        },
        {
          "name": "",
          "type": "bytes32",
          "internalType": "bytes32"
        },
        {
          "name": "_message",
          "type": "bytes",
          "internalType": "bytes"
        },
        {
          "name": "_executor",
          "type": "address",
          "internalType": "address"
        },
        {
          "name": "",
          "type": "bytes",
          "internalType": "bytes"
        }
      ],
      "outputs": [],
      "stateMutability": "payable"
    },
    {
      "type": "function",
      "name": "oft",
      "inputs": [],
      "outputs": [
        {
          "name": "",
          "type": "address",
          "internalType": "contract IOFT"
        }
      ],
      "stateMutability": "view"
    },
    {
      "type": "function",
      "name": "oftAsset",
      "inputs": [],
      "outputs": [
        {
          "name": "assetBridgeAddress",
          "type": "address",
          "internalType": "address"
        },
        {
          "name": "coreIndexId",
          "type": "uint64",
          "internalType": "uint64"
        },
        {
          "name": "decimalDiff",
          "type": "int64",
          "internalType": "int64"
        }
      ],
      "stateMutability": "view"
    },
    {
      "type": "function",
      "name": "quoteHyperCoreAmount",
      "inputs": [
        {
          "name": "_amount",
          "type": "uint256",
          "internalType": "uint256"
        },
        {
          "name": "_isOFT",
          "type": "bool",
          "internalType": "bool"
        }
      ],
      "outputs": [
        {
          "name": "",
          "type": "tuple",
          "internalType": "struct IHyperAssetAmount",
          "components": [
            {
              "name": "evm",
              "type": "uint256",
              "internalType": "uint256"
            },
            {
              "name": "dust",
              "type": "uint256",
              "internalType": "uint256"
            },
            {
              "name": "core",
              "type": "uint64",
              "internalType": "uint64"
            }
          ]
        }
      ],
      "stateMutability": "view"
    },
    {
      "type": "function",
      "name": "refundERC20",
      "inputs": [
        {
          "name": "_refundAddress",
          "type": "address",
          "internalType": "address"
        },
        {
          "name": "_amount",
          "type": "uint256",
          "internalType": "uint256"
        }
      ],
      "outputs": [],
      "stateMutability": "nonpayable"
    },
    {
      "type": "function",
      "name": "refundNativeTokens",
      "inputs": [
        {
          "name": "_refundAddress",
          "type": "address",
          "internalType": "address"
        }
      ],
      "outputs": [],
      "stateMutability": "payable"
    },
    {
      "type": "function",
      "name": "token",
      "inputs": [],
      "outputs": [
        {
          "name": "",
          "type": "address",
          "internalType": "contract IERC20"
        }
      ],
      "stateMutability": "view"
    },
    {
      "type": "function",
      "name": "validate_addresses_or_refund",
      "inputs": [
        {
          "name": "_maybeReceiver",
          "type": "bytes",
          "internalType": "bytes"
        },
        {
          "name": "_senderBytes32",
          "type": "bytes32",
          "internalType": "bytes32"
        },
        {
          "name": "_amountLD",
          "type": "uint256",
          "internalType": "uint256"
        }
      ],
      "outputs": [
        {
          "name": "",
          "type": "address",
          "internalType": "address"
        }
      ],
      "stateMutability": "pure"
    },
    {
      "type": "function",
      "name": "validate_payload",
      "inputs": [
        {
          "name": "_composeMessage",
          "type": "bytes",
          "internalType": "bytes"
        }
      ],
      "outputs": [
        {
          "name": "",
          "type": "uint256",
          "internalType": "uint256"
        },
        {
          "name": "",
          "type": "bytes32",
          "internalType": "bytes32"
        },
        {
          "name": "",
          "type": "bytes",
          "internalType": "bytes"
        }
      ],
      "stateMutability": "pure"
    },
    {
      "type": "event",
      "name": "ErrorERC20_Refund",
      "inputs": [
        {
          "name": "refundTo",
          "type": "address",
          "indexed": false,
          "internalType": "address"
        },
        {
          "name": "refundAmount",
          "type": "uint256",
          "indexed": false,
          "internalType": "uint256"
        }
      ],
      "anonymous": false
    },
    {
      "type": "event",
      "name": "ErrorHYPE_Refund",
      "inputs": [
        {
          "name": "refundTo",
          "type": "address",
          "indexed": false,
          "internalType": "address"
        },
        {
          "name": "refundAmount",
          "type": "uint256",
          "indexed": false,
          "internalType": "uint256"
        }
      ],
      "anonymous": false
    },
    {
      "type": "event",
      "name": "ErrorMessage",
      "inputs": [
        {
          "name": "reason",
          "type": "bytes",
          "indexed": false,
          "internalType": "bytes"
        }
      ],
      "anonymous": false
    },
    {
      "type": "event",
      "name": "ExcessHYPE_Refund",
      "inputs": [
        {
          "name": "refundTo",
          "type": "address",
          "indexed": false,
          "internalType": "address"
        },
        {
          "name": "refundAmount",
          "type": "uint256",
          "indexed": false,
          "internalType": "uint256"
        }
      ],
      "anonymous": false
    },
    {
      "type": "error",
      "name": "ErrorMsg",
      "inputs": [
        {
          "name": "errorMessage",
          "type": "bytes",
          "internalType": "bytes"
        }
      ]
    },
    {
      "type": "error",
      "name": "HyperLiquidComposerCore_SpotBalanceRead_Failed",
      "inputs": [
        {
          "name": "user",
          "type": "address",
          "internalType": "address"
        },
        {
          "name": "tokenId",
          "type": "uint64",
          "internalType": "uint64"
        }
      ]
    },
    {
      "type": "error",
      "name": "HyperLiquidComposer_FailedToRefund_HYPE",
      "inputs": [
        {
          "name": "to",
          "type": "address",
          "internalType": "address"
        },
        {
          "name": "amount",
          "type": "uint256",
          "internalType": "uint256"
        }
      ]
    },
    {
      "type": "error",
      "name": "HyperLiquidComposer_FailedToSend_HYPE",
      "inputs": [
        {
          "name": "amount",
          "type": "uint256",
          "internalType": "uint256"
        }
      ]
    },
    {
      "type": "error",
      "name": "HyperLiquidComposer_InvalidArgument_EndpointShouldNotBeZeroAddress",
      "inputs": [
        {
          "name": "receivedEndpointAddress",
          "type": "address",
          "internalType": "address"
        }
      ]
    },
    {
      "type": "error",
      "name": "HyperLiquidComposer_InvalidCall_NotComposer",
      "inputs": [
        {
          "name": "notComposerAddress",
          "type": "address",
          "internalType": "address"
        }
      ]
    },
    {
      "type": "error",
      "name": "HyperLiquidComposer_InvalidCall_NotEndpoint",
      "inputs": [
        {
          "name": "notEndpointAddress",
          "type": "address",
          "internalType": "address"
        },
        {
          "name": "expectedEndpointAddress",
          "type": "address",
          "internalType": "address"
        }
      ]
    },
    {
      "type": "error",
      "name": "HyperLiquidComposer_InvalidCall_NotOFT",
      "inputs": [
        {
          "name": "internalOFTAddress",
          "type": "address",
          "internalType": "address"
        },
        {
          "name": "receivedOFTAddress",
          "type": "address",
          "internalType": "address"
        }
      ]
    },
    {
      "type": "error",
      "name": "HyperLiquidComposer_InvalidComposeMessage",
      "inputs": [
        {
          "name": "errorMessage",
          "type": "bytes",
          "internalType": "bytes"
        }
      ]
    },
    {
      "type": "error",
      "name": "SafeERC20FailedOperation",
      "inputs": [
        {
          "name": "token",
          "type": "address",
          "internalType": "address"
        }
      ]
    }
  ],
  "bytecode": {
    "object": "0x60e060405234801562000010575f80fd5b50604051620029243803806200292483398101604081905262000033916200021d565b83836001600160a01b0382166200006c5760405163fb82c1f160e01b81526001600160a01b038316600482015260240160405180910390fd5b6001600160a01b03808316608052811660a081905260408051637e062a3560e11b8152905163fc0c546a916004808201926020929091908290030181865afa158015620000bb573d5f803e3d5ffd5b505050506040513d601f19601f82011682018060405250810190620000e191906200028c565b6001600160a01b031660c05250506040805160608101909152806200010f6001600160401b038516620001ea565b6001600160a01b0390811682526001600160401b0394851660208084019190915260079490940b60409283015282515f8054858701518816600160a01b026001600160e01b03199182169390941692909217929092179091559181015160018054919095166001600160401b0319918216179094558051606081018252732222222222222222222222222222222222222222815261045193810193909352600a920182905260028054750451222222222222222222222222222222222222222292169190911790556003805490921617905550620002cf9050565b5f620001fb826001609d1b620002af565b92915050565b80516001600160a01b038116811462000218575f80fd5b919050565b5f805f806080858703121562000231575f80fd5b6200023c8562000201565b93506200024c6020860162000201565b60408601519093506001600160401b038116811462000269575f80fd5b8092505060608501518060070b811462000281575f80fd5b939692955090935050565b5f602082840312156200029d575f80fd5b620002a88262000201565b9392505050565b80820180821115620001fb57634e487b7160e01b5f52601160045260245ffd5b60805160a05160c0516125f96200032b5f395f818161057e01528181610c8a015281816117bb01526118d501525f81816103b101528181610915015261098c01525f818161029c0152818161085101526108c901526125f95ff3fe60806040526004361061010c575f3560e01c80639b5215f6116100a1578063dd85007511610071578063f6e6b24011610057578063f6e6b240146104ca578063f9716faf14610522578063fc0c546a1461056d575f80fd5b8063dd85007514610484578063ebaeefd6146104ab575f80fd5b80639b5215f6146103a0578063aae12e46146103d3578063ba8726791461045c578063d0a1026014610471575f80fd5b80635e280f11116100dc5780635e280f111461028b578063765008a1146102be57806381e8dcb4146103535780638483bc001461038b575f80fd5b806303be2050146101175780631b2248311461014c5780632d0e315c1461017a5780635241b49614610247575f80fd5b3661011357005b5f80fd5b348015610122575f80fd5b50610136610131366004611c4d565b6105a0565b6040516101439190611cf7565b60405180910390f35b348015610157575f80fd5b5061016b610166366004611c4d565b6105b5565b60405161014393929190611d09565b348015610185575f80fd5b50610202604080516060810182525f808252602082018190529181019190915250604080516060810182525f5473ffffffffffffffffffffffffffffffffffffffff8116825274010000000000000000000000000000000000000000900467ffffffffffffffff16602082015260015460070b9181019190915290565b60408051825173ffffffffffffffffffffffffffffffffffffffff16815260208084015167ffffffffffffffff16908201529181015160070b90820152606001610143565b348015610252575f80fd5b50610266610261366004611e11565b6105ed565b60405173ffffffffffffffffffffffffffffffffffffffff9091168152602001610143565b348015610296575f80fd5b506102667f000000000000000000000000000000000000000000000000000000000000000081565b3480156102c9575f80fd5b505f546001546103159173ffffffffffffffffffffffffffffffffffffffff8116917401000000000000000000000000000000000000000090910467ffffffffffffffff169060070b83565b6040805173ffffffffffffffffffffffffffffffffffffffff909416845267ffffffffffffffff909216602084015260070b90820152606001610143565b34801561035e575f80fd5b5061037261036d366004611ed3565b610727565b60405167ffffffffffffffff9091168152602001610143565b61039e610399366004611f0a565b610732565b005b3480156103ab575f80fd5b506102667f000000000000000000000000000000000000000000000000000000000000000081565b3480156103de575f80fd5b50610202604080516060810182525f8082526020820181905291810191909152506040805160608101825260025473ffffffffffffffffffffffffffffffffffffffff8116825274010000000000000000000000000000000000000000900467ffffffffffffffff16602082015260035460070b9181019190915290565b348015610467575f80fd5b5061026661080181565b61039e61047f366004611f2c565b61084f565b34801561048f575f80fd5b5061026673333333333333333333333333333333333333333381565b3480156104b6575f80fd5b5061039e6104c5366004611fc6565b610c0c565b3480156104d5575f80fd5b506002546003546103159173ffffffffffffffffffffffffffffffffffffffff8116917401000000000000000000000000000000000000000090910467ffffffffffffffff169060070b83565b34801561052d575f80fd5b5061054161053c366004611ff0565b610cb1565b6040805182518152602080840151908201529181015167ffffffffffffffff1690820152606001610143565b348015610578575f80fd5b506102667f000000000000000000000000000000000000000000000000000000000000000081565b60606105ac8383610de6565b90505b92915050565b5f8060605f6105c48686610e30565b90505f6105d18787610e48565b90505f6105de8888610e57565b92989197509195509350505050565b5f806105f884610e66565b90505f61060486610e91565b905073ffffffffffffffffffffffffffffffffffffffff811661071e5785516040515f917f09b347310000000000000000000000000000000000000000000000000000000091610658918a91602401612017565b604080517fffffffffffffffffffffffffffffffffffffffffffffffffffffffffffffffe08184030181529190526020810180517bffffffffffffffffffffffffffffffffffffffffffffffffffffffff167fffffffff000000000000000000000000000000000000000000000000000000009093169290921790915290506106e2818487610ef4565b6040517f4f9520330000000000000000000000000000000000000000000000000000000081526004016107159190611cf7565b60405180910390fd5b95945050505050565b5f6105ac8383610f4f565b33301461076d576040517f5950c85e000000000000000000000000000000000000000000000000000000008152336004820152602401610715565b5f34118015610791575073ffffffffffffffffffffffffffffffffffffffff811615155b1561084c575f8173ffffffffffffffffffffffffffffffffffffffff16346040515f6040518083038185875af1925050503d805f81146107ec576040519150601f19603f3d011682016040523d82523d5f602084013e6107f1565b606091505b505090508061084a576040517fc8ee485e00000000000000000000000000000000000000000000000000000000815273ffffffffffffffffffffffffffffffffffffffff83166004820152346024820152604401610715565b505b50565b7f000000000000000000000000000000000000000000000000000000000000000073ffffffffffffffffffffffffffffffffffffffff1633146108fc576040517fefa9309d00000000000000000000000000000000000000000000000000000000815273ffffffffffffffffffffffffffffffffffffffff7f0000000000000000000000000000000000000000000000000000000000000000166004820152336024820152604401610715565b8673ffffffffffffffffffffffffffffffffffffffff167f000000000000000000000000000000000000000000000000000000000000000073ffffffffffffffffffffffffffffffffffffffff16146109c1576040517f86fee0c000000000000000000000000000000000000000000000000000000000815273ffffffffffffffffffffffffffffffffffffffff7f00000000000000000000000000000000000000000000000000000000000000008116600483015288166024820152604401610715565b5f805f60603073ffffffffffffffffffffffffffffffffffffffff16631b2248318a8a6040518363ffffffff1660e01b8152600401610a01929190612038565b5f60405180830381865afa925050508015610a5b57506040513d5f823e601f3d9081017fffffffffffffffffffffffffffffffffffffffffffffffffffffffffffffffe0168201604052610a5891908101906120c6565b60015b610ac1573d808015610a88576040519150601f19603f3d011682016040523d82523d5f602084013e610a8d565b606091505b50806040517ed4895a0000000000000000000000000000000000000000000000000000000081526004016107159190611cf7565b919450925090506040517f5241b4960000000000000000000000000000000000000000000000000000000081523090635241b49690610b0890849086908890600401612112565b602060405180830381865afa925050508015610b5f575060408051601f3d9081017fffffffffffffffffffffffffffffffffffffffffffffffffffffffffffffffe0168201909252610b5c91810190612136565b60015b610be1573d808015610b8c576040519150601f19603f3d011682016040523d82523d5f602084013e610b91565b606091505b505f610b9d828a611063565b90507f612baef0082f9abcf6dc7b491d75346418381b75756830d7029939026d1b46b981604051610bce9190611cf7565b60405180910390a1505050505050610c03565b93503415610bf457610bf48434896113e7565b610bfe8484611786565b505050505b50505050505050565b333014610c47576040517f5950c85e000000000000000000000000000000000000000000000000000000008152336004820152602401610715565b5f81118015610c6b575073ffffffffffffffffffffffffffffffffffffffff821615155b1561084a5761084a73ffffffffffffffffffffffffffffffffffffffff7f0000000000000000000000000000000000000000000000000000000000000000168383611902565b610cdc60405180606001604052805f81526020015f81526020015f67ffffffffffffffff1681525090565b604080516060810182525f80825260208201819052918101829052908315610d6e57604080516060810182525f5473ffffffffffffffffffffffffffffffffffffffff81168083527401000000000000000000000000000000000000000090910467ffffffffffffffff166020830181905260015460070b93830193909352909350610d6791610f4f565b9050610ddb565b6040805160608101825260025473ffffffffffffffffffffffffffffffffffffffff81168083527401000000000000000000000000000000000000000090910467ffffffffffffffff166020830181905260035460070b93830193909352909350610dd891610f4f565b90505b61071e85828461198f565b6060610df58260448186612151565b8080601f0160208091040260200160405190810160405280939291908181526020018383808284375f92019190915250929695505050505050565b5f610e3f602c600c8486612151565b6105ac91612178565b5f610e3f604c602c8486612151565b6060610df582604c8186612151565b5f8173ffffffffffffffffffffffffffffffffffffffff8111610e895792915050565b505f92915050565b80515f907fffffffffffffffffffffffffffffffffffffffffffffffffffffffffffffffec8101610ecf57610ec5836121b4565b60601c9392505050565b60208103610e89575f610ee184612203565b9050610eec81610e66565b949350505050565b606060405180606001604052808473ffffffffffffffffffffffffffffffffffffffff16815260200183815260200185815250604051602001610f379190612245565b60405160208183030381529060405290509392505050565b6040805173ffffffffffffffffffffffffffffffffffffffff8416602082015267ffffffffffffffff8316818301528151808203830181526060918201928390525f9283929161080191610fa39190612289565b5f60405180830381855afa9150503d805f8114610fdb576040519150601f19603f3d011682016040523d82523d5f602084013e610fe0565b606091505b50909250905081611045576040517fa91ed72100000000000000000000000000000000000000000000000000000000815273ffffffffffffffffffffffffffffffffffffffff8616600482015267ffffffffffffffff85166024820152604401610715565b8080602001905181019061105991906122a4565b5195945050505050565b6040517f03be20500000000000000000000000000000000000000000000000000000000081526060905f9030906303be2050906110a4908790600401611cf7565b5f60405180830381865afa1580156110be573d5f803e3d5ffd5b505050506040513d5f823e601f3d9081017fffffffffffffffffffffffffffffffffffffffffffffffffffffffffffffffe016820160405261110391908101906122f6565b90505f8180602001905181019061111a9190612328565b805160208201516040517febaeefd600000000000000000000000000000000000000000000000000000000815273ffffffffffffffffffffffffffffffffffffffff90921660048301526024820152909150309063ebaeefd6906044015f604051808303815f87803b15801561118e575f80fd5b505af192505050801561119f575060015b6111f95780516020808301516040805173ffffffffffffffffffffffffffffffffffffffff9094168452918301527feb907f6e0de6862ca2ced78e890a55c5e8352dc4051697356bc835abf7cedcac910160405180910390a15b80515f9073ffffffffffffffffffffffffffffffffffffffff161561121f578151611221565b845b6040517f8483bc0000000000000000000000000000000000000000000000000000000000815273ffffffffffffffffffffffffffffffffffffffff821660048201529091503090638483bc009034906024015f604051808303818588803b15801561128a575f80fd5b505af19350505050801561129c575060015b6113da575f8573ffffffffffffffffffffffffffffffffffffffff16346040515f6040518083038185875af1925050503d805f81146112f6576040519150601f19603f3d011682016040523d82523d5f602084013e6112fb565b606091505b505090508015611358576040805173ffffffffffffffffffffffffffffffffffffffff881681523460208201527fbb643711c959f203f346d453edf6f91a40b637a95c46c992089c63726b8eaa17910160405180910390a16113d8565b604051329034905f81818185875af1925050503d805f8114611395576040519150601f19603f3d011682016040523d82523d5f602084013e61139a565b606091505b5050604080513281523460208201529192507fbb643711c959f203f346d453edf6f91a40b637a95c46c992089c63726b8eaa17910160405180910390a15b505b5060400151949350505050565b5f6113f2835f610cb1565b60025481516040519293505f9273ffffffffffffffffffffffffffffffffffffffff909216918381818185875af1925050503d805f811461144e576040519150601f19603f3d011682016040523d82523d5f602084013e611453565b606091505b5050905080611491576040517fb7e54a0700000000000000000000000000000000000000000000000000000000815260048101859052602401610715565b60025460408381015190517f0b0ac0ab00000000000000000000000000000000000000000000000000000000815273ffffffffffffffffffffffffffffffffffffffff881660048201527401000000000000000000000000000000000000000090920467ffffffffffffffff908116602484015216604482015273333333333333333333333333333333333333333390630b0ac0ab906064015f604051808303815f87803b158015611541575f80fd5b505af1158015611553573d5f803e3d5ffd5b5050505060208201511561177f5760208201516040517f8483bc0000000000000000000000000000000000000000000000000000000000815273ffffffffffffffffffffffffffffffffffffffff871660048201523091638483bc00916024015f604051808303818588803b1580156115ca575f80fd5b505af1935050505080156115dc575060015b61172957602082015160405173ffffffffffffffffffffffffffffffffffffffff851691905f81818185875af1925050503d805f8114611637576040519150601f19603f3d011682016040523d82523d5f602084013e61163c565b606091505b509091505080156116a2576020808301516040805173ffffffffffffffffffffffffffffffffffffffff87168152928301919091527fbb643711c959f203f346d453edf6f91a40b637a95c46c992089c63726b8eaa1791015b60405180910390a161177f565b60208201516040513291905f81818185875af1925050503d805f81146116e3576040519150601f19603f3d011682016040523d82523d5f602084013e6116e8565b606091505b505060208381015160408051328152928301919091529192507fbb643711c959f203f346d453edf6f91a40b637a95c46c992089c63726b8eaa179101611695565b6020808301516040805173ffffffffffffffffffffffffffffffffffffffff89168152928301919091527fbb643711c959f203f346d453edf6f91a40b637a95c46c992089c63726b8eaa17910160405180910390a15b5050505050565b5f611792826001610cb1565b8051909150156118ab575f5481516117e59173ffffffffffffffffffffffffffffffffffffffff7f0000000000000000000000000000000000000000000000000000000000000000811692911690611902565b5f5460408281015190517f0b0ac0ab00000000000000000000000000000000000000000000000000000000815273ffffffffffffffffffffffffffffffffffffffff861660048201527401000000000000000000000000000000000000000090920467ffffffffffffffff908116602484015216604482015273333333333333333333333333333333333333333390630b0ac0ab906064015f604051808303815f87803b158015611894575f80fd5b505af11580156118a6573d5f803e3d5ffd5b505050505b6020810151156118fd5760208101516118fd9073ffffffffffffffffffffffffffffffffffffffff7f000000000000000000000000000000000000000000000000000000000000000016908590611902565b505050565b6040805173ffffffffffffffffffffffffffffffffffffffff8416602482015260448082018490528251808303909101815260649091019091526020810180517bffffffffffffffffffffffffffffffffffffffffffffffffffffffff167fa9059cbb000000000000000000000000000000000000000000000000000000001790526118fd908490611a6a565b6119ba60405180606001604052805f81526020015f81526020015f67ffffffffffffffff1681525090565b5f805f806119d08767ffffffffffffffff611b0f565b90505f866040015160070b13156119fc576119f088828860400151611b37565b91955093509150611a3e565b611a36888288604001517fffffffffffffffffffffffffffffffffffffffffffffffffffffffffffffffff611a3191906123da565b611bb0565b919550935091505b5060408051606081018252938452602084019290925267ffffffffffffffff1690820152949350505050565b5f8060205f8451602086015f885af180611a89576040513d5f823e3d81fd5b50505f513d91508115611aa0578060011415611aba565b73ffffffffffffffffffffffffffffffffffffffff84163b155b15611b09576040517f5274afe700000000000000000000000000000000000000000000000000000000815273ffffffffffffffffffffffffffffffffffffffff85166004820152602401610715565b50505050565b5f8167ffffffffffffffff168367ffffffffffffffff1611611b3157826105ac565b50919050565b5f808080611b4685600a61251e565b90505f611b5d8267ffffffffffffffff8916612533565b9050611b698289612577565b9350611b75848961258a565b9750611b818882611bfa565b9450611b8d858961258a565b611b97908561259d565b9350611ba382866125b0565b9250505093509350939050565b5f808080611bbf85600a61251e565b90505f611bd68267ffffffffffffffff89166125b0565b9050611be28882611bfa565b9450611bee858961258a565b9350611ba38286612533565b5f818311611b3157826105ac565b5f8083601f840112611c18575f80fd5b50813567ffffffffffffffff811115611c2f575f80fd5b602083019150836020828501011115611c46575f80fd5b9250929050565b5f8060208385031215611c5e575f80fd5b823567ffffffffffffffff811115611c74575f80fd5b611c8085828601611c08565b90969095509350505050565b5f5b83811015611ca6578181015183820152602001611c8e565b50505f910152565b5f8151808452611cc5816020860160208601611c8c565b601f017fffffffffffffffffffffffffffffffffffffffffffffffffffffffffffffffe0169290920160200192915050565b602081525f6105ac6020830184611cae565b838152826020820152606060408201525f61071e6060830184611cae565b7f4e487b71000000000000000000000000000000000000000000000000000000005f52604160045260245ffd5b6040516060810167ffffffffffffffff81118282101715611d7757611d77611d27565b60405290565b604051601f82017fffffffffffffffffffffffffffffffffffffffffffffffffffffffffffffffe016810167ffffffffffffffff81118282101715611dc457611dc4611d27565b604052919050565b5f67ffffffffffffffff821115611de557611de5611d27565b50601f017fffffffffffffffffffffffffffffffffffffffffffffffffffffffffffffffe01660200190565b5f805f60608486031215611e23575f80fd5b833567ffffffffffffffff811115611e39575f80fd5b8401601f81018613611e49575f80fd5b8035611e5c611e5782611dcc565b611d7d565b818152876020838501011115611e70575f80fd5b816020840160208301375f6020838301015280955050505060208401359150604084013590509250925092565b73ffffffffffffffffffffffffffffffffffffffff8116811461084c575f80fd5b67ffffffffffffffff8116811461084c575f80fd5b5f8060408385031215611ee4575f80fd5b8235611eef81611e9d565b91506020830135611eff81611ebe565b809150509250929050565b5f60208284031215611f1a575f80fd5b8135611f2581611e9d565b9392505050565b5f805f805f805f60a0888a031215611f42575f80fd5b8735611f4d81611e9d565b965060208801359550604088013567ffffffffffffffff80821115611f70575f80fd5b611f7c8b838c01611c08565b909750955060608a01359150611f9182611e9d565b90935060808901359080821115611fa6575f80fd5b50611fb38a828b01611c08565b989b979a50959850939692959293505050565b5f8060408385031215611fd7575f80fd5b8235611fe281611e9d565b946020939093013593505050565b5f8060408385031215612001575f80fd5b8235915060208301358015158114611eff575f80fd5b604081525f6120296040830185611cae565b90508260208301529392505050565b60208152816020820152818360408301375f818301604090810191909152601f9092017fffffffffffffffffffffffffffffffffffffffffffffffffffffffffffffffe0160101919050565b5f82601f830112612093575f80fd5b81516120a1611e5782611dcc565b8181528460208386010111156120b5575f80fd5b610eec826020830160208701611c8c565b5f805f606084860312156120d8575f80fd5b8351925060208401519150604084015167ffffffffffffffff8111156120fc575f80fd5b61210886828701612084565b9150509250925092565b606081525f6121246060830186611cae565b60208301949094525060400152919050565b5f60208284031215612146575f80fd5b8151611f2581611e9d565b5f808585111561215f575f80fd5b8386111561216b575f80fd5b5050820193919092039150565b803560208310156105af577fffffffffffffffffffffffffffffffffffffffffffffffffffffffffffffffff602084900360031b1b1692915050565b5f815160208301517fffffffffffffffffffffffffffffffffffffffff000000000000000000000000808216935060148310156121fb5780818460140360031b1b83161693505b505050919050565b80516020808301519190811015611b31577fffffffffffffffffffffffffffffffffffffffffffffffffffffffffffffffff60209190910360031b1b16919050565b6020815273ffffffffffffffffffffffffffffffffffffffff8251166020820152602082015160408201525f6040830151606080840152610eec6080840182611cae565b5f825161229a818460208701611c8c565b9190910192915050565b5f606082840312156122b4575f80fd5b6122bc611d54565b82516122c781611ebe565b815260208301516122d781611ebe565b602082015260408301516122ea81611ebe565b60408201529392505050565b5f60208284031215612306575f80fd5b815167ffffffffffffffff81111561231c575f80fd5b610eec84828501612084565b5f60208284031215612338575f80fd5b815167ffffffffffffffff8082111561234f575f80fd5b9083019060608286031215612362575f80fd5b61236a611d54565b825161237581611e9d565b815260208381015190820152604083015182811115612392575f80fd5b61239e87828601612084565b60408301525095945050505050565b7f4e487b71000000000000000000000000000000000000000000000000000000005f52601160045260245ffd5b5f8260070b8260070b028060070b91508082146123f9576123f96123ad565b5092915050565b600181815b8085111561245957817fffffffffffffffffffffffffffffffffffffffffffffffffffffffffffffffff0482111561243f5761243f6123ad565b8085161561244c57918102915b93841c9390800290612405565b509250929050565b5f8261246f575060016105af565b8161247b57505f6105af565b8160018114612491576002811461249b576124b7565b60019150506105af565b60ff8411156124ac576124ac6123ad565b50506001821b6105af565b5060208310610133831016604e8410600b84101617156124da575081810a6105af565b6124e48383612400565b807fffffffffffffffffffffffffffffffffffffffffffffffffffffffffffffffff04821115612516576125166123ad565b029392505050565b5f6105ac67ffffffffffffffff841683612461565b80820281158282048414176105af576105af6123ad565b7f4e487b71000000000000000000000000000000000000000000000000000000005f52601260045260245ffd5b5f826125855761258561254a565b500690565b818103818111156105af576105af6123ad565b808201808211156105af576105af6123ad565b5f826125be576125be61254a565b50049056fea26469706673582212205579f9edee58b9f467f1ceede490f3d535f7e2f47e6c82c5424a97d72c63e2d764736f6c63430008160033",
    "linkReferences": {}
  },
  "methodIdentifiers": {
    "HLP_PRECOMPILE_READ_SPOT_BALANCE()": "ba872679",
    "HLP_PRECOMPILE_WRITE()": "dd850075",
    "balanceOfHyperCore(address,uint64)": "81e8dcb4",
    "endpoint()": "5e280f11",
    "getErrorPayload(bytes)": "03be2050",
    "getHypeAsset()": "aae12e46",
    "getOFTAsset()": "2d0e315c",
    "hypeAsset()": "f6e6b240",
    "lzCompose(address,bytes32,bytes,address,bytes)": "d0a10260",
    "oft()": "9b5215f6",
    "oftAsset()": "765008a1",
    "quoteHyperCoreAmount(uint256,bool)": "f9716faf",
    "refundERC20(address,uint256)": "ebaeefd6",
    "refundNativeTokens(address)": "8483bc00",
    "token()": "fc0c546a",
    "validate_addresses_or_refund(bytes,bytes32,uint256)": "5241b496",
    "validate_payload(bytes)": "1b224831"
  },
  "id": 0
}