{"abi":[{"type":"function","name":"VALID_COMPOSE_MESSAGE_LENGTH_PACKED","inputs":[],"outputs":[{"name":"","type":"uint256","internalType":"uint256"}],"stateMutability":"view"},{"type":"error","name":"HyperLiquidComposer_Codec_InvalidMessage_UnexpectedLength","inputs":[{"name":"message","type":"bytes","internalType":"bytes"},{"name":"length","type":"uint256","internalType":"uint256"}]}],"bytecode":{"object":"0x6085610033600b8282823980515f1a607314602757634e487b7160e01b5f525f60045260245ffd5b305f52607381538281f3fe73000000000000000000000000000000000000000030146080604052600436106032575f3560e01c8063807d6c3f146036575b5f80fd5b603d601481565b60405190815260200160405180910390f3fea26469706673582212207bbe19516bc22f29682919520adb919b51e98de881882450ef35a0847950102364736f6c63430008160033","linkReferences":{}},"methodIdentifiers":{"VALID_COMPOSE_MESSAGE_LENGTH_PACKED()":"807d6c3f"},"id":77}