{
  "_format": "hh-sol-artifact-1",
  "contractName": "HyperLiquidComposer",
  "sourceName": "@layerzerolabs/oft-hyperliquid-evm/contracts/HyperLiquidComposer.sol",
  "abi": [
    {
      "inputs": [
        {
          "internalType": "address",
          "name": "_endpoint",
          "type": "address"
        },
        {
          "internalType": "address",
          "name": "_oft",
          "type": "address"
        },
        {
          "internalType": "uint64",
          "name": "_coreIndexId",
          "type": "uint64"
        }
      ],
      "stateMutability": "nonpayable",
      "type": "constructor"
    },
    {
      "inputs": [
        {
          "internalType": "bytes",
          "name": "message",
          "type": "bytes"
        },
        {
          "internalType": "uint256",
          "name": "length",
          "type": "uint256"
        }
      ],
      "name": "HyperLiquidComposer_Codec_InvalidMessage_UnexpectedLength",
      "type": "error"
    },
    {
      "inputs": [
        {
          "internalType": "address",
          "name": "_notEndpointAddress",
          "type": "address"
        }
      ],
      "name": "HyperLiquidComposer_InvalidCall_NotEndpoint",
      "type": "error"
    },
    {
      "inputs": [
        {
          "internalType": "address",
          "name": "_internalOFTAddress",
          "type": "address"
        },
        {
          "internalType": "address",
          "name": "_receivedOFTAddress",
          "type": "address"
        }
      ],
      "name": "HyperLiquidComposer_InvalidCall_NotOFT",
      "type": "error"
    },
    {
      "inputs": [
        {
          "internalType": "address",
          "name": "_oft",
          "type": "address"
        },
        {
          "internalType": "address",
          "name": "_token",
          "type": "address"
        }
      ],
      "name": "HyperLiquidComposer_InvalidCall_TokenDoesNotSupportExtension",
      "type": "error"
    },
    {
      "inputs": [],
      "name": "OFT_TOKEN_ASSET_BRIDGE_ADDRESS",
      "outputs": [
        {
          "internalType": "address",
          "name": "",
          "type": "address"
        }
      ],
      "stateMutability": "view",
      "type": "function"
    },
    {
      "inputs": [],
      "name": "OFT_TOKEN_CORE_INDEX_ID",
      "outputs": [
        {
          "internalType": "uint64",
          "name": "",
          "type": "uint64"
        }
      ],
      "stateMutability": "view",
      "type": "function"
    },
    {
      "inputs": [],
      "name": "endpoint",
      "outputs": [
        {
          "internalType": "address",
          "name": "",
          "type": "address"
        }
      ],
      "stateMutability": "view",
      "type": "function"
    },
    {
      "inputs": [],
      "name": "hyperliquidHopTransferableToken",
      "outputs": [
        {
          "internalType": "contract IERC20HyperliquidHopTransferable",
          "name": "",
          "type": "address"
        }
      ],
      "stateMutability": "view",
      "type": "function"
    },
    {
      "inputs": [
        {
          "internalType": "address",
          "name": "_oft",
          "type": "address"
        },
        {
          "internalType": "bytes32",
          "name": "",
          "type": "bytes32"
        },
        {
          "internalType": "bytes",
          "name": "_message",
          "type": "bytes"
        },
        {
          "internalType": "address",
          "name": "",
          "type": "address"
        },
        {
          "internalType": "bytes",
          "name": "",
          "type": "bytes"
        }
      ],
      "name": "lzCompose",
      "outputs": [],
      "stateMutability": "payable",
      "type": "function"
    },
    {
      "inputs": [],
      "name": "oft",
      "outputs": [
        {
          "internalType": "address",
          "name": "",
          "type": "address"
        }
      ],
      "stateMutability": "view",
      "type": "function"
    }
  ],
  "bytecode": "0x61012060405234801561001157600080fd5b506040516108ed3803806108ed833981016040819052610030916101b0565b816001600160a01b031663fc0c546a6040518163ffffffff1660e01b8152600401602060405180830381865afa15801561006e573d6000803e3d6000fd5b505050506040513d601f19601f820116820180604052508101906100929190610204565b6001600160a01b0316610100819052604080516367ddeba960e01b815290516367ddeba9916004808201926020929091908290030181865afa1580156100dc573d6000803e3d6000fd5b505050506040513d601f19601f820116820180604052508101906101009190610226565b610139576101005160405163db9a4c6b60e01b81526001600160a01b038085166004830152909116602482015260440160405180910390fd5b6001600160a01b0380841660c052821660e05261015e6001600160401b03821661017e565b6001600160a01b03166080526001600160401b031660a052506102699050565b600061018e826001609d1b610248565b92915050565b80516001600160a01b03811681146101ab57600080fd5b919050565b6000806000606084860312156101c557600080fd5b6101ce84610194565b92506101dc60208501610194565b60408501519092506001600160401b03811681146101f957600080fd5b809150509250925092565b60006020828403121561021657600080fd5b61021f82610194565b9392505050565b60006020828403121561023857600080fd5b8151801515811461021f57600080fd5b8082018082111561018e57634e487b7160e01b600052601160045260246000fd5b60805160a05160c05160e051610100516106206102cd6000396000818161018701526102df01526000818161013e015281816102050152610249015260008181606c01526101b40152600060f101526000818160bd01526102aa01526106206000f3fe6080604052600436106100555760003560e01c80635e280f111461005a57806384123305146100ab5780639a923b9a146100df5780639b5215f61461012c578063d0a1026014610160578063d215954714610175575b600080fd5b34801561006657600080fd5b5061008e7f000000000000000000000000000000000000000000000000000000000000000081565b6040516001600160a01b0390911681526020015b60405180910390f35b3480156100b757600080fd5b5061008e7f000000000000000000000000000000000000000000000000000000000000000081565b3480156100eb57600080fd5b506101137f000000000000000000000000000000000000000000000000000000000000000081565b60405167ffffffffffffffff90911681526020016100a2565b34801561013857600080fd5b5061008e7f000000000000000000000000000000000000000000000000000000000000000081565b61017361016e366004610473565b6101a9565b005b34801561018157600080fd5b5061008e7f000000000000000000000000000000000000000000000000000000000000000081565b336001600160a01b037f000000000000000000000000000000000000000000000000000000000000000016146101f95760405163eee35e6f60e01b81523360048201526024015b60405180910390fd5b866001600160a01b03167f00000000000000000000000000000000000000000000000000000000000000006001600160a01b03161461027e5760405163021bfb8360e61b81526001600160a01b037f000000000000000000000000000000000000000000000000000000000000000081166004830152881660248201526044016101f0565b60008061028b8787610348565b60405163b034fd0760e01b81526001600160a01b0380841660048301527f000000000000000000000000000000000000000000000000000000000000000081166024830152604482018390529294509092507f00000000000000000000000000000000000000000000000000000000000000009091169063b034fd0790606401600060405180830381600087803b15801561032557600080fd5b505af1158015610339573d6000803e3d6000fd5b50505050505050505050505050565b600080600061035785856103a1565b9050601481511461037f5780516040516309b3473160e01b81526101f0918391600401610511565b61038881610566565b60601c925061039785856103ee565b9150509250929050565b60606103b082604c81866105a2565b8080601f0160208091040260200160405190810160405280939291908181526020018383808284376000920191909152509293505050505b92915050565b60006103fe602c600c84866105a2565b610407916105cc565b9392505050565b80356001600160a01b038116811461042557600080fd5b919050565b60008083601f84011261043c57600080fd5b50813567ffffffffffffffff81111561045457600080fd5b60208301915083602082850101111561046c57600080fd5b9250929050565b600080600080600080600060a0888a03121561048e57600080fd5b6104978861040e565b965060208801359550604088013567ffffffffffffffff808211156104bb57600080fd5b6104c78b838c0161042a565b90975095508591506104db60608b0161040e565b945060808a01359150808211156104f157600080fd5b506104fe8a828b0161042a565b989b979a50959850939692959293505050565b604081526000835180604084015260005b8181101561053f5760208187018101516060868401015201610522565b506000606082850101526060601f19601f8301168401019150508260208301529392505050565b805160208201516bffffffffffffffffffffffff19808216929190601483101561059a5780818460140360031b1b83161693505b505050919050565b600080858511156105b257600080fd5b838611156105bf57600080fd5b5050820193919092039150565b803560208310156103e857600019602084900360031b1b169291505056fea2646970667358221220b8966f6ebe663764c9b70649d0ca85f8c56928ce489803c354e006728539888e64736f6c63430008160033",
  "linkReferences": {},
  "deployedLinkReferences": {}
}