{
  "_format": "hh-sol-artifact-1",
  "contractName": "ParallelEmitter",
  "sourceName": "contracts/ParallelEmitter.sol",
  "abi": [
    {
      "anonymous": false,
      "inputs": [],
      "name": "NoArgEvent",
      "type": "event"
    },
    {
      "inputs": [],
      "name": "emitNoArgEvent",
      "outputs": [],
      "stateMutability": "nonpayable",
      "type": "function"
    }
  ],
  "bytecode": "0x6080604052348015600f57600080fd5b5060998061001e6000396000f3fe6080604052348015600f57600080fd5b506004361060285760003560e01c8063a078704514602d575b600080fd5b60336035565b005b7f3197be1a75187c2e6f7008c280fa99aaa7ba7043acbb46e7a180ed19d0069ec960405160405180910390a156fea2646970667358221220ac8b0cd597a802d5f9b331493cd35aa1c02643c4f84277b32e4c57457581a9c364736f6c63430008160033",
  "linkReferences": {},
  "deployedLinkReferences": {}
}