{
  "abi": [
    {
      "type": "constructor",
      "inputs": [
        {
          "name": "_token",
          "type": "address",
          "internalType": "address"
        },
        {
          "name": "_lzEndpoint",
          "type": "address",
          "internalType": "address"
        },
        {
          "name": "_delegate",
          "type": "address",
          "internalType": "address"
        }
      ],
      "stateMutability": "nonpayable"
    },
    {
      "type": "function",
      "name": "SEND",
      "inputs": [],
      "outputs": [
        {
          "name": "",
          "type": "uint16",
          "internalType": "uint16"
        }
      ],
      "stateMutability": "view"
    },
    {
      "type": "function",
      "name": "SEND_AND_COMPOSE",
      "inputs": [],
      "outputs": [
        {
          "name": "",
          "type": "uint16",
          "internalType": "uint16"
        }
      ],
      "stateMutability": "view"
    },
    {
      "type": "function",
      "name": "allowInitializePath",
      "inputs": [
        {
          "name": "origin",
          "type": "tuple",
          "internalType": "struct Origin",
          "components": [
            {
              "name": "srcEid",
              "type": "uint32",
              "internalType": "uint32"
            },
            {
              "name": "sender",
              "type": "bytes32",
              "internalType": "bytes32"
            },
            {
              "name": "nonce",
              "type": "uint64",
              "internalType": "uint64"
            }
          ]
        }
      ],
      "outputs": [
        {
          "name": "",
          "type": "bool",
          "internalType": "bool"
        }
      ],
      "stateMutability": "view"
    },
    {
      "type": "function",
      "name": "approvalRequired",
      "inputs": [],
      "outputs": [
        {
          "name": "",
          "type": "bool",
          "internalType": "bool"
        }
      ],
      "stateMutability": "pure"
    },
    {
      "type": "function",
      "name": "combineOptions",
      "inputs": [
        {
          "name": "_eid",
          "type": "uint32",
          "internalType": "uint32"
        },
        {
          "name": "_msgType",
          "type": "uint16",
          "internalType": "uint16"
        },
        {
          "name": "_extraOptions",
          "type": "bytes",
          "internalType": "bytes"
        }
      ],
      "outputs": [
        {
          "name": "",
          "type": "bytes",
          "internalType": "bytes"
        }
      ],
      "stateMutability": "view"
    },
    {
      "type": "function",
      "name": "credit",
      "inputs": [
        {
          "name": "_to",
          "type": "address",
          "internalType": "address"
        },
        {
          "name": "_tokenId",
          "type": "uint256",
          "internalType": "uint256"
        },
        {
          "name": "_srcEid",
          "type": "uint32",
          "internalType": "uint32"
        }
      ],
      "outputs": [],
      "stateMutability": "nonpayable"
    },
    {
      "type": "function",
      "name": "debit",
      "inputs": [
        {
          "name": "_tokenId",
          "type": "uint256",
          "internalType": "uint256"
        },
        {
          "name": "_dstEid",
          "type": "uint32",
          "internalType": "uint32"
        }
      ],
      "outputs": [],
      "stateMutability": "nonpayable"
    },
    {
      "type": "function",
      "name": "endpoint",
      "inputs": [],
      "outputs": [
        {
          "name": "",
          "type": "address",
          "internalType": "contract ILayerZeroEndpointV2"
        }
      ],
      "stateMutability": "view"
    },
    {
      "type": "function",
      "name": "enforcedOptions",
      "inputs": [
        {
          "name": "eid",
          "type": "uint32",
          "internalType": "uint32"
        },
        {
          "name": "msgType",
          "type": "uint16",
          "internalType": "uint16"
        }
      ],
      "outputs": [
        {
          "name": "enforcedOption",
          "type": "bytes",
          "internalType": "bytes"
        }
      ],
      "stateMutability": "view"
    },
    {
      "type": "function",
      "name": "isComposeMsgSender",
      "inputs": [
        {
          "name": "",
          "type": "tuple",
          "internalType": "struct Origin",
          "components": [
            {
              "name": "srcEid",
              "type": "uint32",
              "internalType": "uint32"
            },
            {
              "name": "sender",
              "type": "bytes32",
              "internalType": "bytes32"
            },
            {
              "name": "nonce",
              "type": "uint64",
              "internalType": "uint64"
            }
          ]
        },
        {
          "name": "",
          "type": "bytes",
          "internalType": "bytes"
        },
        {
          "name": "_sender",
          "type": "address",
          "internalType": "address"
        }
      ],
      "outputs": [
        {
          "name": "",
          "type": "bool",
          "internalType": "bool"
        }
      ],
      "stateMutability": "view"
    },
    {
      "type": "function",
      "name": "isPeer",
      "inputs": [
        {
          "name": "_eid",
          "type": "uint32",
          "internalType": "uint32"
        },
        {
          "name": "_peer",
          "type": "bytes32",
          "internalType": "bytes32"
        }
      ],
      "outputs": [
        {
          "name": "",
          "type": "bool",
          "internalType": "bool"
        }
      ],
      "stateMutability": "view"
    },
    {
      "type": "function",
      "name": "lzReceive",
      "inputs": [
        {
          "name": "_origin",
          "type": "tuple",
          "internalType": "struct Origin",
          "components": [
            {
              "name": "srcEid",
              "type": "uint32",
              "internalType": "uint32"
            },
            {
              "name": "sender",
              "type": "bytes32",
              "internalType": "bytes32"
            },
            {
              "name": "nonce",
              "type": "uint64",
              "internalType": "uint64"
            }
          ]
        },
        {
          "name": "_guid",
          "type": "bytes32",
          "internalType": "bytes32"
        },
        {
          "name": "_message",
          "type": "bytes",
          "internalType": "bytes"
        },
        {
          "name": "_executor",
          "type": "address",
          "internalType": "address"
        },
        {
          "name": "_extraData",
          "type": "bytes",
          "internalType": "bytes"
        }
      ],
      "outputs": [],
      "stateMutability": "payable"
    },
    {
      "type": "function",
      "name": "lzReceiveAndRevert",
      "inputs": [
        {
          "name": "_packets",
          "type": "tuple[]",
          "internalType": "struct InboundPacket[]",
          "components": [
            {
              "name": "origin",
              "type": "tuple",
              "internalType": "struct Origin",
              "components": [
                {
                  "name": "srcEid",
                  "type": "uint32",
                  "internalType": "uint32"
                },
                {
                  "name": "sender",
                  "type": "bytes32",
                  "internalType": "bytes32"
                },
                {
                  "name": "nonce",
                  "type": "uint64",
                  "internalType": "uint64"
                }
              ]
            },
            {
              "name": "dstEid",
              "type": "uint32",
              "internalType": "uint32"
            },
            {
              "name": "receiver",
              "type": "address",
              "internalType": "address"
            },
            {
              "name": "guid",
              "type": "bytes32",
              "internalType": "bytes32"
            },
            {
              "name": "value",
              "type": "uint256",
              "internalType": "uint256"
            },
            {
              "name": "executor",
              "type": "address",
              "internalType": "address"
            },
            {
              "name": "message",
              "type": "bytes",
              "internalType": "bytes"
            },
            {
              "name": "extraData",
              "type": "bytes",
              "internalType": "bytes"
            }
          ]
        }
      ],
      "outputs": [],
      "stateMutability": "payable"
    },
    {
      "type": "function",
      "name": "lzReceiveSimulate",
      "inputs": [
        {
          "name": "_origin",
          "type": "tuple",
          "internalType": "struct Origin",
          "components": [
            {
              "name": "srcEid",
              "type": "uint32",
              "internalType": "uint32"
            },
            {
              "name": "sender",
              "type": "bytes32",
              "internalType": "bytes32"
            },
            {
              "name": "nonce",
              "type": "uint64",
              "internalType": "uint64"
            }
          ]
        },
        {
          "name": "_guid",
          "type": "bytes32",
          "internalType": "bytes32"
        },
        {
          "name": "_message",
          "type": "bytes",
          "internalType": "bytes"
        },
        {
          "name": "_executor",
          "type": "address",
          "internalType": "address"
        },
        {
          "name": "_extraData",
          "type": "bytes",
          "internalType": "bytes"
        }
      ],
      "outputs": [],
      "stateMutability": "payable"
    },
    {
      "type": "function",
      "name": "msgInspector",
      "inputs": [],
      "outputs": [
        {
          "name": "",
          "type": "address",
          "internalType": "address"
        }
      ],
      "stateMutability": "view"
    },
    {
      "type": "function",
      "name": "nextNonce",
      "inputs": [
        {
          "name": "",
          "type": "uint32",
          "internalType": "uint32"
        },
        {
          "name": "",
          "type": "bytes32",
          "internalType": "bytes32"
        }
      ],
      "outputs": [
        {
          "name": "nonce",
          "type": "uint64",
          "internalType": "uint64"
        }
      ],
      "stateMutability": "view"
    },
    {
      "type": "function",
      "name": "oApp",
      "inputs": [],
      "outputs": [
        {
          "name": "",
          "type": "address",
          "internalType": "address"
        }
      ],
      "stateMutability": "view"
    },
    {
      "type": "function",
      "name": "oAppVersion",
      "inputs": [],
      "outputs": [
        {
          "name": "senderVersion",
          "type": "uint64",
          "internalType": "uint64"
        },
        {
          "name": "receiverVersion",
          "type": "uint64",
          "internalType": "uint64"
        }
      ],
      "stateMutability": "pure"
    },
    {
      "type": "function",
      "name": "onftVersion",
      "inputs": [],
      "outputs": [
        {
          "name": "interfaceId",
          "type": "bytes4",
          "internalType": "bytes4"
        },
        {
          "name": "version",
          "type": "uint64",
          "internalType": "uint64"
        }
      ],
      "stateMutability": "pure"
    },
    {
      "type": "function",
      "name": "owner",
      "inputs": [],
      "outputs": [
        {
          "name": "",
          "type": "address",
          "internalType": "address"
        }
      ],
      "stateMutability": "view"
    },
    {
      "type": "function",
      "name": "peers",
      "inputs": [
        {
          "name": "eid",
          "type": "uint32",
          "internalType": "uint32"
        }
      ],
      "outputs": [
        {
          "name": "peer",
          "type": "bytes32",
          "internalType": "bytes32"
        }
      ],
      "stateMutability": "view"
    },
    {
      "type": "function",
      "name": "preCrime",
      "inputs": [],
      "outputs": [
        {
          "name": "",
          "type": "address",
          "internalType": "address"
        }
      ],
      "stateMutability": "view"
    },
    {
      "type": "function",
      "name": "quoteSend",
      "inputs": [
        {
          "name": "_sendParam",
          "type": "tuple",
          "internalType": "struct SendParam",
          "components": [
            {
              "name": "dstEid",
              "type": "uint32",
              "internalType": "uint32"
            },
            {
              "name": "to",
              "type": "bytes32",
              "internalType": "bytes32"
            },
            {
              "name": "tokenId",
              "type": "uint256",
              "internalType": "uint256"
            },
            {
              "name": "extraOptions",
              "type": "bytes",
              "internalType": "bytes"
            },
            {
              "name": "composeMsg",
              "type": "bytes",
              "internalType": "bytes"
            },
            {
              "name": "onftCmd",
              "type": "bytes",
              "internalType": "bytes"
            }
          ]
        },
        {
          "name": "_payInLzToken",
          "type": "bool",
          "internalType": "bool"
        }
      ],
      "outputs": [
        {
          "name": "msgFee",
          "type": "tuple",
          "internalType": "struct MessagingFee",
          "components": [
            {
              "name": "nativeFee",
              "type": "uint256",
              "internalType": "uint256"
            },
            {
              "name": "lzTokenFee",
              "type": "uint256",
              "internalType": "uint256"
            }
          ]
        }
      ],
      "stateMutability": "view"
    },
    {
      "type": "function",
      "name": "renounceOwnership",
      "inputs": [],
      "outputs": [],
      "stateMutability": "nonpayable"
    },
    {
      "type": "function",
      "name": "send",
      "inputs": [
        {
          "name": "_sendParam",
          "type": "tuple",
          "internalType": "struct SendParam",
          "components": [
            {
              "name": "dstEid",
              "type": "uint32",
              "internalType": "uint32"
            },
            {
              "name": "to",
              "type": "bytes32",
              "internalType": "bytes32"
            },
            {
              "name": "tokenId",
              "type": "uint256",
              "internalType": "uint256"
            },
            {
              "name": "extraOptions",
              "type": "bytes",
              "internalType": "bytes"
            },
            {
              "name": "composeMsg",
              "type": "bytes",
              "internalType": "bytes"
            },
            {
              "name": "onftCmd",
              "type": "bytes",
              "internalType": "bytes"
            }
          ]
        },
        {
          "name": "_fee",
          "type": "tuple",
          "internalType": "struct MessagingFee",
          "components": [
            {
              "name": "nativeFee",
              "type": "uint256",
              "internalType": "uint256"
            },
            {
              "name": "lzTokenFee",
              "type": "uint256",
              "internalType": "uint256"
            }
          ]
        },
        {
          "name": "_refundAddress",
          "type": "address",
          "internalType": "address"
        }
      ],
      "outputs": [
        {
          "name": "msgReceipt",
          "type": "tuple",
          "internalType": "struct MessagingReceipt",
          "components": [
            {
              "name": "guid",
              "type": "bytes32",
              "internalType": "bytes32"
            },
            {
              "name": "nonce",
              "type": "uint64",
              "internalType": "uint64"
            },
            {
              "name": "fee",
              "type": "tuple",
              "internalType": "struct MessagingFee",
              "components": [
                {
                  "name": "nativeFee",
                  "type": "uint256",
                  "internalType": "uint256"
                },
                {
                  "name": "lzTokenFee",
                  "type": "uint256",
                  "internalType": "uint256"
                }
              ]
            }
          ]
        }
      ],
      "stateMutability": "payable"
    },
    {
      "type": "function",
      "name": "setDelegate",
      "inputs": [
        {
          "name": "_delegate",
          "type": "address",
          "internalType": "address"
        }
      ],
      "outputs": [],
      "stateMutability": "nonpayable"
    },
    {
      "type": "function",
      "name": "setEnforcedOptions",
      "inputs": [
        {
          "name": "_enforcedOptions",
          "type": "tuple[]",
          "internalType": "struct EnforcedOptionParam[]",
          "components": [
            {
              "name": "eid",
              "type": "uint32",
              "internalType": "uint32"
            },
            {
              "name": "msgType",
              "type": "uint16",
              "internalType": "uint16"
            },
            {
              "name": "options",
              "type": "bytes",
              "internalType": "bytes"
            }
          ]
        }
      ],
      "outputs": [],
      "stateMutability": "nonpayable"
    },
    {
      "type": "function",
      "name": "setMsgInspector",
      "inputs": [
        {
          "name": "_msgInspector",
          "type": "address",
          "internalType": "address"
        }
      ],
      "outputs": [],
      "stateMutability": "nonpayable"
    },
    {
      "type": "function",
      "name": "setPeer",
      "inputs": [
        {
          "name": "_eid",
          "type": "uint32",
          "internalType": "uint32"
        },
        {
          "name": "_peer",
          "type": "bytes32",
          "internalType": "bytes32"
        }
      ],
      "outputs": [],
      "stateMutability": "nonpayable"
    },
    {
      "type": "function",
      "name": "setPreCrime",
      "inputs": [
        {
          "name": "_preCrime",
          "type": "address",
          "internalType": "address"
        }
      ],
      "outputs": [],
      "stateMutability": "nonpayable"
    },
    {
      "type": "function",
      "name": "token",
      "inputs": [],
      "outputs": [
        {
          "name": "",
          "type": "address",
          "internalType": "address"
        }
      ],
      "stateMutability": "view"
    },
    {
      "type": "function",
      "name": "transferOwnership",
      "inputs": [
        {
          "name": "newOwner",
          "type": "address",
          "internalType": "address"
        }
      ],
      "outputs": [],
      "stateMutability": "nonpayable"
    },
    {
      "type": "event",
      "name": "EnforcedOptionSet",
      "inputs": [
        {
          "name": "_enforcedOptions",
          "type": "tuple[]",
          "indexed": false,
          "internalType": "struct EnforcedOptionParam[]",
          "components": [
            {
              "name": "eid",
              "type": "uint32",
              "internalType": "uint32"
            },
            {
              "name": "msgType",
              "type": "uint16",
              "internalType": "uint16"
            },
            {
              "name": "options",
              "type": "bytes",
              "internalType": "bytes"
            }
          ]
        }
      ],
      "anonymous": false
    },
    {
      "type": "event",
      "name": "MsgInspectorSet",
      "inputs": [
        {
          "name": "inspector",
          "type": "address",
          "indexed": false,
          "internalType": "address"
        }
      ],
      "anonymous": false
    },
    {
      "type": "event",
      "name": "ONFTReceived",
      "inputs": [
        {
          "name": "guid",
          "type": "bytes32",
          "indexed": true,
          "internalType": "bytes32"
        },
        {
          "name": "srcEid",
          "type": "uint32",
          "indexed": false,
          "internalType": "uint32"
        },
        {
          "name": "toAddress",
          "type": "address",
          "indexed": true,
          "internalType": "address"
        },
        {
          "name": "tokenId",
          "type": "uint256",
          "indexed": false,
          "internalType": "uint256"
        }
      ],
      "anonymous": false
    },
    {
      "type": "event",
      "name": "ONFTSent",
      "inputs": [
        {
          "name": "guid",
          "type": "bytes32",
          "indexed": true,
          "internalType": "bytes32"
        },
        {
          "name": "dstEid",
          "type": "uint32",
          "indexed": false,
          "internalType": "uint32"
        },
        {
          "name": "fromAddress",
          "type": "address",
          "indexed": true,
          "internalType": "address"
        },
        {
          "name": "tokenId",
          "type": "uint256",
          "indexed": false,
          "internalType": "uint256"
        }
      ],
      "anonymous": false
    },
    {
      "type": "event",
      "name": "OwnershipTransferred",
      "inputs": [
        {
          "name": "previousOwner",
          "type": "address",
          "indexed": true,
          "internalType": "address"
        },
        {
          "name": "newOwner",
          "type": "address",
          "indexed": true,
          "internalType": "address"
        }
      ],
      "anonymous": false
    },
    {
      "type": "event",
      "name": "PeerSet",
      "inputs": [
        {
          "name": "eid",
          "type": "uint32",
          "indexed": false,
          "internalType": "uint32"
        },
        {
          "name": "peer",
          "type": "bytes32",
          "indexed": false,
          "internalType": "bytes32"
        }
      ],
      "anonymous": false
    },
    {
      "type": "event",
      "name": "PreCrimeSet",
      "inputs": [
        {
          "name": "preCrimeAddress",
          "type": "address",
          "indexed": false,
          "internalType": "address"
        }
      ],
      "anonymous": false
    },
    {
      "type": "error",
      "name": "AddressEmptyCode",
      "inputs": [
        {
          "name": "target",
          "type": "address",
          "internalType": "address"
        }
      ]
    },
    {
      "type": "error",
      "name": "AddressInsufficientBalance",
      "inputs": [
        {
          "name": "account",
          "type": "address",
          "internalType": "address"
        }
      ]
    },
    {
      "type": "error",
      "name": "FailedInnerCall",
      "inputs": []
    },
    {
      "type": "error",
      "name": "InvalidDelegate",
      "inputs": []
    },
    {
      "type": "error",
      "name": "InvalidEndpointCall",
      "inputs": []
    },
    {
      "type": "error",
      "name": "InvalidOptions",
      "inputs": [
        {
          "name": "options",
          "type": "bytes",
          "internalType": "bytes"
        }
      ]
    },
    {
      "type": "error",
      "name": "InvalidReceiver",
      "inputs": []
    },
    {
      "type": "error",
      "name": "LzTokenUnavailable",
      "inputs": []
    },
    {
      "type": "error",
      "name": "NoPeer",
      "inputs": [
        {
          "name": "eid",
          "type": "uint32",
          "internalType": "uint32"
        }
      ]
    },
    {
      "type": "error",
      "name": "NotEnoughNative",
      "inputs": [
        {
          "name": "msgValue",
          "type": "uint256",
          "internalType": "uint256"
        }
      ]
    },
    {
      "type": "error",
      "name": "OnlyEndpoint",
      "inputs": [
        {
          "name": "addr",
          "type": "address",
          "internalType": "address"
        }
      ]
    },
    {
      "type": "error",
      "name": "OnlyNFTOwner",
      "inputs": [
        {
          "name": "caller",
          "type": "address",
          "internalType": "address"
        },
        {
          "name": "owner",
          "type": "address",
          "internalType": "address"
        }
      ]
    },
    {
      "type": "error",
      "name": "OnlyPeer",
      "inputs": [
        {
          "name": "eid",
          "type": "uint32",
          "internalType": "uint32"
        },
        {
          "name": "sender",
          "type": "bytes32",
          "internalType": "bytes32"
        }
      ]
    },
    {
      "type": "error",
      "name": "OnlySelf",
      "inputs": []
    },
    {
      "type": "error",
      "name": "OwnableInvalidOwner",
      "inputs": [
        {
          "name": "owner",
          "type": "address",
          "internalType": "address"
        }
      ]
    },
    {
      "type": "error",
      "name": "OwnableUnauthorizedAccount",
      "inputs": [
        {
          "name": "account",
          "type": "address",
          "internalType": "address"
        }
      ]
    },
    {
      "type": "error",
      "name": "SafeERC20FailedOperation",
      "inputs": [
        {
          "name": "token",
          "type": "address",
          "internalType": "address"
        }
      ]
    },
    {
      "type": "error",
      "name": "SimulationResult",
      "inputs": [
        {
          "name": "result",
          "type": "bytes",
          "internalType": "bytes"
        }
      ]
    }
  ],
  "bytecode": {
    "object": "0x60c06040523480156200001157600080fd5b5060405162002a1838038062002a18833981016040819052620000349162000195565b828282818181818181806001600160a01b0381166200006d57604051631e4fbdf760e01b81526000600482015260240160405180910390fd5b620000788162000128565b506001600160a01b038083166080528116620000a757604051632d618d8160e21b815260040160405180910390fd5b60805160405163ca5eb5e160e01b81526001600160a01b0383811660048301529091169063ca5eb5e190602401600060405180830381600087803b158015620000ef57600080fd5b505af115801562000104573d6000803e3d6000fd5b5050506001600160a01b0390991660a05250620001df9a5050505050505050505050565b600080546001600160a01b038381166001600160a01b0319831681178455604051919092169283917f8be0079c531659141344cd1fd0a4f28419497f9722a3daafe3b4186f6b6457e09190a35050565b80516001600160a01b03811681146200019057600080fd5b919050565b600080600060608486031215620001ab57600080fd5b620001b68462000178565b9250620001c66020850162000178565b9150620001d66040850162000178565b90509250925092565b60805160a0516127d4620002446000396000818161060401528181610ffd015261134f0152600081816103660152818161064a01528181610cd301528181610eff015281816111c9015281816115170152818161172001526117d701526127d46000f3fe6080604052600436106101e35760003560e01c80639f68b96411610102578063c6414e7b11610095578063dcdfd91111610064578063dcdfd911146105b5578063f2fde38b146105d5578063fc0c546a146105f5578063ff7bd03d1461062857600080fd5b8063c6414e7b14610535578063ca5eb5e114610562578063d045a0dc14610582578063d42438851461059557600080fd5b8063b98bd070116100d1578063b98bd070146104a7578063bb0b6a53146104c7578063bc70b35414610502578063bd815db01461052257600080fd5b80639f68b96414610436578063a72f5dd81461044a578063b21a33e414610472578063b731ea0a1461048757600080fd5b80635535d4611161017a578063715018a611610149578063715018a6146103a85780637d25a05e146103bd57806382413eac146103f85780638da5cb5b1461041857600080fd5b80635535d461146102f75780635a0dfe4d146103245780635e280f11146103545780636fc1b31e1461038857600080fd5b806321eb730b116101b657806321eb730b146102845780633400288b146102a45780634dba701b146102c457806352ae2879146102e457600080fd5b8063111ecdad146101e857806313137d651461022557806317442b701461023a5780631f5e13341461025c575b600080fd5b3480156101f457600080fd5b50600454610208906001600160a01b031681565b6040516001600160a01b0390911681526020015b60405180910390f35b610238610233366004611a7a565b610648565b005b34801561024657600080fd5b506040805160018152600260208201520161021c565b34801561026857600080fd5b50610271600181565b60405161ffff909116815260200161021c565b610297610292366004611b2b565b610708565b60405161021c9190611b98565b3480156102b057600080fd5b506102386102bf366004611bf3565b6107c1565b3480156102d057600080fd5b506102386102df366004611c1d565b6107d7565b3480156102f057600080fd5b5030610208565b34801561030357600080fd5b50610317610312366004611c6d565b6107e7565b60405161021c9190611cf0565b34801561033057600080fd5b5061034461033f366004611bf3565b61088c565b604051901515815260200161021c565b34801561036057600080fd5b506102087f000000000000000000000000000000000000000000000000000000000000000081565b34801561039457600080fd5b506102386103a3366004611d03565b6108ab565b3480156103b457600080fd5b50610238610908565b3480156103c957600080fd5b506103e06103d8366004611bf3565b600092915050565b6040516001600160401b03909116815260200161021c565b34801561040457600080fd5b50610344610413366004611d20565b61091c565b34801561042457600080fd5b506000546001600160a01b0316610208565b34801561044257600080fd5b506001610344565b34801561045657600080fd5b50604080516311f0c6d360e11b8152600160208201520161021c565b34801561047e57600080fd5b50610271600281565b34801561049357600080fd5b50600254610208906001600160a01b031681565b3480156104b357600080fd5b506102386104c2366004611dca565b610931565b3480156104d357600080fd5b506104f46104e2366004611e0b565b60016020526000908152604090205481565b60405190815260200161021c565b34801561050e57600080fd5b5061031761051d366004611e26565b61094b565b610238610530366004611dca565b610af3565b34801561054157600080fd5b50610555610550366004611e94565b610c66565b60405161021c9190611ee5565b34801561056e57600080fd5b5061023861057d366004611d03565b610cac565b610238610590366004611a7a565b610d32565b3480156105a157600080fd5b506102386105b0366004611d03565b610d61565b3480156105c157600080fd5b506102386105d0366004611efc565b610db7565b3480156105e157600080fd5b506102386105f0366004611d03565b610dc2565b34801561060157600080fd5b507f0000000000000000000000000000000000000000000000000000000000000000610208565b34801561063457600080fd5b50610344610643366004611f1f565b610e00565b7f00000000000000000000000000000000000000000000000000000000000000006001600160a01b03163314610698576040516391ac5e4f60e01b81523360048201526024015b60405180910390fd5b602087018035906106b2906106ad908a611e0b565b610e36565b146106f0576106c46020880188611e0b565b60405163309afaf360e21b815263ffffffff90911660048201526020880135602482015260440161068f565b6106ff87878787878787610e72565b50505050505050565b6107106119be565b61072b3360408601356107266020880188611e0b565b610fd1565b60008061073786611056565b909250905061076361074c6020880188611e0b565b838361075d368a90038a018a611fcb565b88611196565b805190935033907f986156872b2ee0022b9585231dbbfde457f87f8a16b6c45e1a81c54c4ad8351f61079860208a018a611e0b565b6040805163ffffffff9092168252808b013560208301520160405180910390a350509392505050565b6107c96112a1565b6107d382826112ce565b5050565b6107e2838383611323565b505050565b60036020908152600092835260408084209091529082529020805461080b90611ffd565b80601f016020809104026020016040519081016040528092919081815260200182805461083790611ffd565b80156108845780601f1061085957610100808354040283529160200191610884565b820191906000526020600020905b81548152906001019060200180831161086757829003601f168201915b505050505081565b63ffffffff821660009081526001602052604090205481145b92915050565b6108b36112a1565b600480546001600160a01b0319166001600160a01b0383169081179091556040519081527ff0be4f1e87349231d80c36b33f9e8639658eeaf474014dee15a3e6a4d4414197906020015b60405180910390a150565b6109106112a1565b61091a600061137e565b565b6001600160a01b03811630145b949350505050565b6109396112a1565b6107d36109468284612058565b6113ce565b63ffffffff8416600090815260036020908152604080832061ffff8716845290915281208054606092919061097f90611ffd565b80601f01602080910402602001604051908101604052809291908181526020018280546109ab90611ffd565b80156109f85780601f106109cd576101008083540402835291602001916109f8565b820191906000526020600020905b8154815290600101906020018083116109db57829003601f168201915b505050505090508051600003610a485783838080601f0160208091040260200160405190810160405280939291908181526020018383808284376000920191909152509294506109299350505050565b6000839003610a58579050610929565b60028310610ad657610a9f84848080601f0160208091040260200160405190810160405280939291908181526020018383808284376000920191909152506114d592505050565b80610aad846002818861216d565b604051602001610abf93929190612197565b604051602081830303815290604052915050610929565b8383604051639a6d49cd60e01b815260040161068f9291906121e8565b60005b81811015610be55736838383818110610b1157610b116121fc565b9050602002810190610b239190612212565b9050610b3f610b356020830183611e0b565b602083013561088c565b610b495750610bdd565b3063d045a0dc60c08301358360a0810135610b68610100830183612233565b610b79610100890160e08a01611d03565b610b876101208a018a612233565b6040518963ffffffff1660e01b8152600401610ba9979695949392919061228e565b6000604051808303818588803b158015610bc257600080fd5b505af1158015610bd6573d6000803e3d6000fd5b5050505050505b600101610af6565b50336001600160a01b0316638e9e70996040518163ffffffff1660e01b8152600401600060405180830381865afa158015610c24573d6000803e3d6000fd5b505050506040513d6000823e601f3d908101601f19168201604052610c4c9190810190612314565b604051638351eea760e01b815260040161068f9190611cf0565b6040805180820190915260008082526020820152600080610c8685611056565b9092509050610ca3610c9b6020870187611e0b565b838387611501565b95945050505050565b610cb46112a1565b60405163ca5eb5e160e01b81526001600160a01b0382811660048301527f0000000000000000000000000000000000000000000000000000000000000000169063ca5eb5e190602401600060405180830381600087803b158015610d1757600080fd5b505af1158015610d2b573d6000803e3d6000fd5b5050505050565b333014610d525760405163029a949d60e31b815260040160405180910390fd5b6106ff878787878787876106f0565b610d696112a1565b600280546001600160a01b0319166001600160a01b0383169081179091556040519081527fd48d879cef83a1c0bdda516f27b13ddb1b3f8bbac1c9e1511bb2a659c2427760906020016108fd565b6107d3338383610fd1565b610dca6112a1565b6001600160a01b038116610df457604051631e4fbdf760e01b81526000600482015260240161068f565b610dfd8161137e565b50565b6000602082018035906001908390610e189086611e0b565b63ffffffff1681526020810191909152604001600020541492915050565b63ffffffff8116600090815260016020526040812054806108a55760405163f6ff4fb760e01b815263ffffffff8416600482015260240161068f565b6000610e84610e8187876115d9565b90565b90506000610e9287876115f8565b9050610eab8282610ea660208d018d611e0b565b611323565b6040861115610f6f576000610ee5610ec960608c0160408d01612381565b610ed660208d018d611e0b565b610ee08b8b611615565b611660565b604051633e5ac80960e11b81529091506001600160a01b037f00000000000000000000000000000000000000000000000000000000000000001690637cb5901290610f3b9086908d90600090879060040161239e565b600060405180830381600087803b158015610f5557600080fd5b505af1158015610f69573d6000803e3d6000fd5b50505050505b6001600160a01b038216887f7883fa30ea56937810e36990b0bbb8d629d0cf59f68baf8431ff657cebe7eef5610fa860208d018d611e0b565b6040805163ffffffff9092168252602082018690520160405180910390a3505050505050505050565b6040516323b872dd60e01b81526001600160a01b038481166004830152306024830152604482018490527f000000000000000000000000000000000000000000000000000000000000000016906323b872dd906064015b600060405180830381600087803b15801561104257600080fd5b505af11580156106ff573d6000803e3d6000fd5b606080602083013561107b57604051631e4ec46b60e01b815260040160405180910390fd5b60006110d1602085013560408601356110976080880188612233565b8080601f01602080910402602001604051908101604052809392919081815260200183838082843760009201919091525061168f92505050565b90935090506000816110e45760016110e7565b60025b90506111076110f96020870187611e0b565b8261051d6060890189612233565b6004549093506001600160a01b03161561118f576004805460405163043a78eb60e01b81526001600160a01b039091169163043a78eb9161114c9188918891016123cf565b602060405180830381865afa158015611169573d6000803e3d6000fd5b505050506040513d601f19601f8201168201806040525081019061118d91906123f4565b505b5050915091565b61119e6119be565b60006111ad84600001516116f4565b6020850151909150156111c7576111c7846020015161171c565b7f00000000000000000000000000000000000000000000000000000000000000006001600160a01b0316632637a450826040518060a001604052808b63ffffffff1681526020016112178c610e36565b81526020018a815260200189815260200160008960200151111515815250866040518463ffffffff1660e01b8152600401611253929190612411565b60806040518083038185885af1158015611271573d6000803e3d6000fd5b50505050506040513d601f19601f8201168201806040525081019061129691906124ba565b979650505050505050565b6000546001600160a01b0316331461091a5760405163118cdaa760e01b815233600482015260240161068f565b63ffffffff8216600081815260016020908152604091829020849055815192835282018390527f238399d427b947898edb290f5ff0f9109849b1c3ba196a42e35f00c50a54b98b910160405180910390a15050565b6040516323b872dd60e01b81523060048201526001600160a01b038481166024830152604482018490527f000000000000000000000000000000000000000000000000000000000000000016906323b872dd90606401611028565b600080546001600160a01b038381166001600160a01b0319831681178455604051919092169283917f8be0079c531659141344cd1fd0a4f28419497f9722a3daafe3b4186f6b6457e09190a35050565b60005b81518110156114a5576114008282815181106113ef576113ef6121fc565b6020026020010151604001516114d5565b818181518110611412576114126121fc565b60200260200101516040015160036000848481518110611434576114346121fc565b60200260200101516000015163ffffffff1663ffffffff168152602001908152602001600020600084848151811061146e5761146e6121fc565b60200260200101516020015161ffff1661ffff168152602001908152602001600020908161149c9190612554565b506001016113d1565b507fbe4864a8e820971c0247f5992e2da559595f7bf076a21cb5928d443d2a13b674816040516108fd9190612613565b600281015161ffff81166003146107d35781604051639a6d49cd60e01b815260040161068f9190611cf0565b60408051808201909152600080825260208201527f00000000000000000000000000000000000000000000000000000000000000006001600160a01b031663ddc28c586040518060a001604052808863ffffffff16815260200161156489610e36565b8152602001878152602001868152602001851515815250306040518363ffffffff1660e01b8152600401611599929190612411565b6040805180830381865afa1580156115b5573d6000803e3d6000fd5b505050506040513d601f19601f82011682018060405250810190610ca3919061269e565b60006115e8602082848661216d565b6115f1916126ba565b9392505050565b600061160860406020848661216d565b8101906115f191906126d8565b6060611624826040818661216d565b8080601f016020809104026020016040519081016040528093929190818152602001838380828437600092019190915250929695505050505050565b6060838383604051602001611677939291906126f1565b60405160208183030381529060405290509392505050565b80516060901515806116c35760408051602081018790529081018590526060016040516020818303038152906040526116ea565b848433856040516020016116da949392919061273b565b6040516020818303038152906040525b9150935093915050565b6000813414611718576040516304fb820960e51b815234600482015260240161068f565b5090565b60007f00000000000000000000000000000000000000000000000000000000000000006001600160a01b031663e4fe1d946040518163ffffffff1660e01b8152600401602060405180830381865afa15801561177c573d6000803e3d6000fd5b505050506040513d601f19601f820116820180604052508101906117a0919061276f565b90506001600160a01b0381166117c9576040516329b99a9560e11b815260040160405180910390fd5b6040805133602482018190527f00000000000000000000000000000000000000000000000000000000000000006001600160a01b03818116604485015260648085018890528551808603909101815260849094019094526020830180516001600160e01b03166323b872dd60e01b1790526107d393851692869061184e908590611854565b50505050565b60006118696001600160a01b038416836118b7565b9050805160001415801561188e57508080602001905181019061188c91906123f4565b155b156107e257604051635274afe760e01b81526001600160a01b038416600482015260240161068f565b60606115f18383600084600080856001600160a01b031684866040516118dd919061278c565b60006040518083038185875af1925050503d806000811461191a576040519150601f19603f3d011682016040523d82523d6000602084013e61191f565b606091505b509150915061192f868383611939565b9695505050505050565b60608261194e5761194982611995565b6115f1565b815115801561196557506001600160a01b0384163b155b1561198e57604051639996b31560e01b81526001600160a01b038516600482015260240161068f565b50806115f1565b8051156119a55780518082602001fd5b604051630a12f52160e11b815260040160405180910390fd5b60405180606001604052806000801916815260200160006001600160401b03168152602001611a00604051806040016040528060008152602001600081525090565b905290565b600060608284031215611a1757600080fd5b50919050565b60008083601f840112611a2f57600080fd5b5081356001600160401b03811115611a4657600080fd5b602083019150836020828501011115611a5e57600080fd5b9250929050565b6001600160a01b0381168114610dfd57600080fd5b600080600080600080600060e0888a031215611a9557600080fd5b611a9f8989611a05565b96506060880135955060808801356001600160401b0380821115611ac257600080fd5b611ace8b838c01611a1d565b909750955060a08a01359150611ae382611a65565b90935060c08901359080821115611af957600080fd5b50611b068a828b01611a1d565b989b979a50959850939692959293505050565b600060c08284031215611a1757600080fd5b60008060008385036080811215611b4157600080fd5b84356001600160401b03811115611b5757600080fd5b611b6387828801611b19565b9450506040601f1982011215611b7857600080fd5b506020840191506060840135611b8d81611a65565b809150509250925092565b6000608082019050825182526001600160401b0360208401511660208301526040830151611bd3604084018280518252602090810151910152565b5092915050565b803563ffffffff81168114611bee57600080fd5b919050565b60008060408385031215611c0657600080fd5b611c0f83611bda565b946020939093013593505050565b600080600060608486031215611c3257600080fd5b8335611c3d81611a65565b925060208401359150611c5260408501611bda565b90509250925092565b803561ffff81168114611bee57600080fd5b60008060408385031215611c8057600080fd5b611c8983611bda565b9150611c9760208401611c5b565b90509250929050565b60005b83811015611cbb578181015183820152602001611ca3565b50506000910152565b60008151808452611cdc816020860160208601611ca0565b601f01601f19169290920160200192915050565b6020815260006115f16020830184611cc4565b600060208284031215611d1557600080fd5b81356115f181611a65565b60008060008060a08587031215611d3657600080fd5b611d408686611a05565b935060608501356001600160401b03811115611d5b57600080fd5b611d6787828801611a1d565b9094509250506080850135611d7b81611a65565b939692955090935050565b60008083601f840112611d9857600080fd5b5081356001600160401b03811115611daf57600080fd5b6020830191508360208260051b8501011115611a5e57600080fd5b60008060208385031215611ddd57600080fd5b82356001600160401b03811115611df357600080fd5b611dff85828601611d86565b90969095509350505050565b600060208284031215611e1d57600080fd5b6115f182611bda565b60008060008060608587031215611e3c57600080fd5b611e4585611bda565b9350611e5360208601611c5b565b925060408501356001600160401b03811115611e6e57600080fd5b611e7a87828801611a1d565b95989497509550505050565b8015158114610dfd57600080fd5b60008060408385031215611ea757600080fd5b82356001600160401b03811115611ebd57600080fd5b611ec985828601611b19565b9250506020830135611eda81611e86565b809150509250929050565b8151815260208083015190820152604081016108a5565b60008060408385031215611f0f57600080fd5b82359150611c9760208401611bda565b600060608284031215611f3157600080fd5b6115f18383611a05565b634e487b7160e01b600052604160045260246000fd5b604080519081016001600160401b0381118282101715611f7357611f73611f3b565b60405290565b604051606081016001600160401b0381118282101715611f7357611f73611f3b565b604051601f8201601f191681016001600160401b0381118282101715611fc357611fc3611f3b565b604052919050565b600060408284031215611fdd57600080fd5b611fe5611f51565b82358152602083013560208201528091505092915050565b600181811c9082168061201157607f821691505b602082108103611a1757634e487b7160e01b600052602260045260246000fd5b60006001600160401b0382111561204a5761204a611f3b565b50601f01601f191660200190565b60006001600160401b038084111561207257612072611f3b565b8360051b6020612083818301611f9b565b86815291850191818101903684111561209b57600080fd5b865b84811015612161578035868111156120b55760008081fd5b880160603682900312156120c95760008081fd5b6120d1611f79565b6120da82611bda565b81526120e7868301611c5b565b86820152604080830135898111156120ff5760008081fd5b929092019136601f8401126121145760008081fd5b823561212761212282612031565b611f9b565b818152368983870101111561213c5760008081fd5b818986018a83013760009181018901919091529082015284525091830191830161209d565b50979650505050505050565b6000808585111561217d57600080fd5b8386111561218a57600080fd5b5050820193919092039150565b600084516121a9818460208901611ca0565b8201838582376000930192835250909392505050565b81835281816020850137506000828201602090810191909152601f909101601f19169091010190565b6020815260006109296020830184866121bf565b634e487b7160e01b600052603260045260246000fd5b6000823561013e1983360301811261222957600080fd5b9190910192915050565b6000808335601e1984360301811261224a57600080fd5b8301803591506001600160401b0382111561226457600080fd5b602001915036819003821315611a5e57600080fd5b6001600160401b0381168114610dfd57600080fd5b63ffffffff61229c89611bda565b16815260208801356020820152600060408901356122b981612279565b6001600160401b03811660408401525087606083015260e060808301526122e460e0830187896121bf565b6001600160a01b03861660a084015282810360c08401526123068185876121bf565b9a9950505050505050505050565b60006020828403121561232657600080fd5b81516001600160401b0381111561233c57600080fd5b8201601f8101841361234d57600080fd5b805161235b61212282612031565b81815285602083850101111561237057600080fd5b610ca3826020830160208601611ca0565b60006020828403121561239357600080fd5b81356115f181612279565b60018060a01b038516815283602082015261ffff8316604082015260806060820152600061192f6080830184611cc4565b6040815260006123e26040830185611cc4565b8281036020840152610ca38185611cc4565b60006020828403121561240657600080fd5b81516115f181611e86565b6040815263ffffffff8351166040820152602083015160608201526000604084015160a0608084015261244760e0840182611cc4565b90506060850151603f198483030160a08501526124648282611cc4565b60809690960151151560c08501525050506001600160a01b039190911660209091015290565b60006040828403121561249c57600080fd5b6124a4611f51565b9050815181526020820151602082015292915050565b6000608082840312156124cc57600080fd5b6124d4611f79565b8251815260208301516124e681612279565b60208201526124f8846040850161248a565b60408201529392505050565b601f8211156107e2576000816000526020600020601f850160051c8101602086101561252d5750805b601f850160051c820191505b8181101561254c57828155600101612539565b505050505050565b81516001600160401b0381111561256d5761256d611f3b565b6125818161257b8454611ffd565b84612504565b602080601f8311600181146125b6576000841561259e5750858301515b600019600386901b1c1916600185901b17855561254c565b600085815260208120601f198616915b828110156125e5578886015182559484019460019091019084016125c6565b50858210156126035787850151600019600388901b60f8161c191681555b5050505050600190811b01905550565b600060208083018184528085518083526040925060408601915060408160051b87010184880160005b8381101561269057888303603f190185528151805163ffffffff1684528781015161ffff1688850152860151606087850181905261267c81860183611cc4565b96890196945050509086019060010161263c565b509098975050505050505050565b6000604082840312156126b057600080fd5b6115f1838361248a565b803560208310156108a557600019602084900360031b1b1692915050565b6000602082840312156126ea57600080fd5b5035919050565b60c084901b6001600160c01b031916815260e083901b6001600160e01b0319166008820152815160009061272c81600c850160208701611ca0565b91909101600c01949350505050565b8481528360208201528260408201526000825161275f816060850160208701611ca0565b9190910160600195945050505050565b60006020828403121561278157600080fd5b81516115f181611a65565b60008251612229818460208701611ca056fea264697066735822122074e05540ccf2b3c9537a00f713d69ec1f46adcc1c206670a39bcafaf42b0113f64736f6c63430008160033",
    "linkReferences": {}
  },
  "methodIdentifiers": {
    "SEND()": "1f5e1334",
    "SEND_AND_COMPOSE()": "b21a33e4",
    "allowInitializePath((uint32,bytes32,uint64))": "ff7bd03d",
    "approvalRequired()": "9f68b964",
    "combineOptions(uint32,uint16,bytes)": "bc70b354",
    "credit(address,uint256,uint32)": "4dba701b",
    "debit(uint256,uint32)": "dcdfd911",
    "endpoint()": "5e280f11",
    "enforcedOptions(uint32,uint16)": "5535d461",
    "isComposeMsgSender((uint32,bytes32,uint64),bytes,address)": "82413eac",
    "isPeer(uint32,bytes32)": "5a0dfe4d",
    "lzReceive((uint32,bytes32,uint64),bytes32,bytes,address,bytes)": "13137d65",
    "lzReceiveAndRevert(((uint32,bytes32,uint64),uint32,address,bytes32,uint256,address,bytes,bytes)[])": "bd815db0",
    "lzReceiveSimulate((uint32,bytes32,uint64),bytes32,bytes,address,bytes)": "d045a0dc",
    "msgInspector()": "111ecdad",
    "nextNonce(uint32,bytes32)": "7d25a05e",
    "oApp()": "52ae2879",
    "oAppVersion()": "17442b70",
    "onftVersion()": "a72f5dd8",
    "owner()": "8da5cb5b",
    "peers(uint32)": "bb0b6a53",
    "preCrime()": "b731ea0a",
    "quoteSend((uint32,bytes32,uint256,bytes,bytes,bytes),bool)": "c6414e7b",
    "renounceOwnership()": "715018a6",
    "send((uint32,bytes32,uint256,bytes,bytes,bytes),(uint256,uint256),address)": "21eb730b",
    "setDelegate(address)": "ca5eb5e1",
    "setEnforcedOptions((uint32,uint16,bytes)[])": "b98bd070",
    "setMsgInspector(address)": "6fc1b31e",
    "setPeer(uint32,bytes32)": "3400288b",
    "setPreCrime(address)": "d4243885",
    "token()": "fc0c546a",
    "transferOwnership(address)": "f2fde38b"
  },
  "id": 128
}