{
  "abi": [
    {
      "type": "constructor",
      "inputs": [
        {
          "name": "_vault",
          "type": "address",
          "internalType": "address"
        },
        {
          "name": "_assetOFT",
          "type": "address",
          "internalType": "address"
        },
        {
          "name": "_shareOFT",
          "type": "address",
          "internalType": "address"
        }
      ],
      "stateMutability": "nonpayable"
    },
    {
      "type": "receive",
      "stateMutability": "payable"
    },
    {
      "type": "function",
      "name": "ASSET_ERC20",
      "inputs": [],
      "outputs": [
        {
          "name": "",
          "type": "address",
          "internalType": "address"
        }
      ],
      "stateMutability": "view"
    },
    {
      "type": "function",
      "name": "ASSET_OFT",
      "inputs": [],
      "outputs": [
        {
          "name": "",
          "type": "address",
          "internalType": "address"
        }
      ],
      "stateMutability": "view"
    },
    {
      "type": "function",
      "name": "ENDPOINT",
      "inputs": [],
      "outputs": [
        {
          "name": "",
          "type": "address",
          "internalType": "address"
        }
      ],
      "stateMutability": "view"
    },
    {
      "type": "function",
      "name": "SHARE_ERC20",
      "inputs": [],
      "outputs": [
        {
          "name": "",
          "type": "address",
          "internalType": "address"
        }
      ],
      "stateMutability": "view"
    },
    {
      "type": "function",
      "name": "SHARE_OFT",
      "inputs": [],
      "outputs": [
        {
          "name": "",
          "type": "address",
          "internalType": "address"
        }
      ],
      "stateMutability": "view"
    },
    {
      "type": "function",
      "name": "VAULT",
      "inputs": [],
      "outputs": [
        {
          "name": "",
          "type": "address",
          "internalType": "contract IERC4626"
        }
      ],
      "stateMutability": "view"
    },
    {
      "type": "function",
      "name": "VAULT_EID",
      "inputs": [],
      "outputs": [
        {
          "name": "",
          "type": "uint32",
          "internalType": "uint32"
        }
      ],
      "stateMutability": "view"
    },
    {
      "type": "function",
      "name": "depositAndSend",
      "inputs": [
        {
          "name": "_assetAmount",
          "type": "uint256",
          "internalType": "uint256"
        },
        {
          "name": "_sendParam",
          "type": "tuple",
          "internalType": "struct SendParam",
          "components": [
            {
              "name": "dstEid",
              "type": "uint32",
              "internalType": "uint32"
            },
            {
              "name": "to",
              "type": "bytes32",
              "internalType": "bytes32"
            },
            {
              "name": "amountLD",
              "type": "uint256",
              "internalType": "uint256"
            },
            {
              "name": "minAmountLD",
              "type": "uint256",
              "internalType": "uint256"
            },
            {
              "name": "extraOptions",
              "type": "bytes",
              "internalType": "bytes"
            },
            {
              "name": "composeMsg",
              "type": "bytes",
              "internalType": "bytes"
            },
            {
              "name": "oftCmd",
              "type": "bytes",
              "internalType": "bytes"
            }
          ]
        },
        {
          "name": "_refundAddress",
          "type": "address",
          "internalType": "address"
        }
      ],
      "outputs": [],
      "stateMutability": "payable"
    },
    {
      "type": "function",
      "name": "depositNativeAndSend",
      "inputs": [
        {
          "name": "_assetAmount",
          "type": "uint256",
          "internalType": "uint256"
        },
        {
          "name": "_sendParam",
          "type": "tuple",
          "internalType": "struct SendParam",
          "components": [
            {
              "name": "dstEid",
              "type": "uint32",
              "internalType": "uint32"
            },
            {
              "name": "to",
              "type": "bytes32",
              "internalType": "bytes32"
            },
            {
              "name": "amountLD",
              "type": "uint256",
              "internalType": "uint256"
            },
            {
              "name": "minAmountLD",
              "type": "uint256",
              "internalType": "uint256"
            },
            {
              "name": "extraOptions",
              "type": "bytes",
              "internalType": "bytes"
            },
            {
              "name": "composeMsg",
              "type": "bytes",
              "internalType": "bytes"
            },
            {
              "name": "oftCmd",
              "type": "bytes",
              "internalType": "bytes"
            }
          ]
        },
        {
          "name": "_refundAddress",
          "type": "address",
          "internalType": "address"
        }
      ],
      "outputs": [],
      "stateMutability": "payable"
    },
    {
      "type": "function",
      "name": "handleCompose",
      "inputs": [
        {
          "name": "_oftIn",
          "type": "address",
          "internalType": "address"
        },
        {
          "name": "_composeFrom",
          "type": "bytes32",
          "internalType": "bytes32"
        },
        {
          "name": "_composeMsg",
          "type": "bytes",
          "internalType": "bytes"
        },
        {
          "name": "_amount",
          "type": "uint256",
          "internalType": "uint256"
        }
      ],
      "outputs": [],
      "stateMutability": "payable"
    },
    {
      "type": "function",
      "name": "lzCompose",
      "inputs": [
        {
          "name": "_composeSender",
          "type": "address",
          "internalType": "address"
        },
        {
          "name": "_guid",
          "type": "bytes32",
          "internalType": "bytes32"
        },
        {
          "name": "_message",
          "type": "bytes",
          "internalType": "bytes"
        },
        {
          "name": "_executor",
          "type": "address",
          "internalType": "address"
        },
        {
          "name": "_extraData",
          "type": "bytes",
          "internalType": "bytes"
        }
      ],
      "outputs": [],
      "stateMutability": "payable"
    },
    {
      "type": "function",
      "name": "quoteSend",
      "inputs": [
        {
          "name": "_from",
          "type": "address",
          "internalType": "address"
        },
        {
          "name": "_targetOFT",
          "type": "address",
          "internalType": "address"
        },
        {
          "name": "_vaultInAmount",
          "type": "uint256",
          "internalType": "uint256"
        },
        {
          "name": "_sendParam",
          "type": "tuple",
          "internalType": "struct SendParam",
          "components": [
            {
              "name": "dstEid",
              "type": "uint32",
              "internalType": "uint32"
            },
            {
              "name": "to",
              "type": "bytes32",
              "internalType": "bytes32"
            },
            {
              "name": "amountLD",
              "type": "uint256",
              "internalType": "uint256"
            },
            {
              "name": "minAmountLD",
              "type": "uint256",
              "internalType": "uint256"
            },
            {
              "name": "extraOptions",
              "type": "bytes",
              "internalType": "bytes"
            },
            {
              "name": "composeMsg",
              "type": "bytes",
              "internalType": "bytes"
            },
            {
              "name": "oftCmd",
              "type": "bytes",
              "internalType": "bytes"
            }
          ]
        }
      ],
      "outputs": [
        {
          "name": "",
          "type": "tuple",
          "internalType": "struct MessagingFee",
          "components": [
            {
              "name": "nativeFee",
              "type": "uint256",
              "internalType": "uint256"
            },
            {
              "name": "lzTokenFee",
              "type": "uint256",
              "internalType": "uint256"
            }
          ]
        }
      ],
      "stateMutability": "view"
    },
    {
      "type": "function",
      "name": "redeemAndSend",
      "inputs": [
        {
          "name": "_shareAmount",
          "type": "uint256",
          "internalType": "uint256"
        },
        {
          "name": "_sendParam",
          "type": "tuple",
          "internalType": "struct SendParam",
          "components": [
            {
              "name": "dstEid",
              "type": "uint32",
              "internalType": "uint32"
            },
            {
              "name": "to",
              "type": "bytes32",
              "internalType": "bytes32"
            },
            {
              "name": "amountLD",
              "type": "uint256",
              "internalType": "uint256"
            },
            {
              "name": "minAmountLD",
              "type": "uint256",
              "internalType": "uint256"
            },
            {
              "name": "extraOptions",
              "type": "bytes",
              "internalType": "bytes"
            },
            {
              "name": "composeMsg",
              "type": "bytes",
              "internalType": "bytes"
            },
            {
              "name": "oftCmd",
              "type": "bytes",
              "internalType": "bytes"
            }
          ]
        },
        {
          "name": "_refundAddress",
          "type": "address",
          "internalType": "address"
        }
      ],
      "outputs": [],
      "stateMutability": "payable"
    },
    {
      "type": "event",
      "name": "Deposited",
      "inputs": [
        {
          "name": "sender",
          "type": "bytes32",
          "indexed": false,
          "internalType": "bytes32"
        },
        {
          "name": "recipient",
          "type": "bytes32",
          "indexed": false,
          "internalType": "bytes32"
        },
        {
          "name": "dstEid",
          "type": "uint32",
          "indexed": false,
          "internalType": "uint32"
        },
        {
          "name": "assetAmt",
          "type": "uint256",
          "indexed": false,
          "internalType": "uint256"
        },
        {
          "name": "shareAmt",
          "type": "uint256",
          "indexed": false,
          "internalType": "uint256"
        }
      ],
      "anonymous": false
    },
    {
      "type": "event",
      "name": "Redeemed",
      "inputs": [
        {
          "name": "sender",
          "type": "bytes32",
          "indexed": false,
          "internalType": "bytes32"
        },
        {
          "name": "recipient",
          "type": "bytes32",
          "indexed": false,
          "internalType": "bytes32"
        },
        {
          "name": "dstEid",
          "type": "uint32",
          "indexed": false,
          "internalType": "uint32"
        },
        {
          "name": "shareAmt",
          "type": "uint256",
          "indexed": false,
          "internalType": "uint256"
        },
        {
          "name": "assetAmt",
          "type": "uint256",
          "indexed": false,
          "internalType": "uint256"
        }
      ],
      "anonymous": false
    },
    {
      "type": "event",
      "name": "Refunded",
      "inputs": [
        {
          "name": "guid",
          "type": "bytes32",
          "indexed": true,
          "internalType": "bytes32"
        }
      ],
      "anonymous": false
    },
    {
      "type": "event",
      "name": "Sent",
      "inputs": [
        {
          "name": "guid",
          "type": "bytes32",
          "indexed": true,
          "internalType": "bytes32"
        }
      ],
      "anonymous": false
    },
    {
      "type": "error",
      "name": "AmountExceedsMsgValue",
      "inputs": []
    },
    {
      "type": "error",
      "name": "AssetOFTTokenNotNative",
      "inputs": []
    },
    {
      "type": "error",
      "name": "AssetTokenNotVaultAsset",
      "inputs": [
        {
          "name": "assetERC20",
          "type": "address",
          "internalType": "address"
        },
        {
          "name": "vaultAsset",
          "type": "address",
          "internalType": "address"
        }
      ]
    },
    {
      "type": "error",
      "name": "ERC4626ExceededMaxDeposit",
      "inputs": [
        {
          "name": "receiver",
          "type": "address",
          "internalType": "address"
        },
        {
          "name": "assets",
          "type": "uint256",
          "internalType": "uint256"
        },
        {
          "name": "max",
          "type": "uint256",
          "internalType": "uint256"
        }
      ]
    },
    {
      "type": "error",
      "name": "ERC4626ExceededMaxRedeem",
      "inputs": [
        {
          "name": "owner",
          "type": "address",
          "internalType": "address"
        },
        {
          "name": "shares",
          "type": "uint256",
          "internalType": "uint256"
        },
        {
          "name": "max",
          "type": "uint256",
          "internalType": "uint256"
        }
      ]
    },
    {
      "type": "error",
      "name": "ETHTransferNotFromAsset",
      "inputs": []
    },
    {
      "type": "error",
      "name": "InsufficientMsgValue",
      "inputs": [
        {
          "name": "expectedMsgValue",
          "type": "uint256",
          "internalType": "uint256"
        },
        {
          "name": "actualMsgValue",
          "type": "uint256",
          "internalType": "uint256"
        }
      ]
    },
    {
      "type": "error",
      "name": "OnlyEndpoint",
      "inputs": [
        {
          "name": "caller",
          "type": "address",
          "internalType": "address"
        }
      ]
    },
    {
      "type": "error",
      "name": "OnlySelf",
      "inputs": [
        {
          "name": "caller",
          "type": "address",
          "internalType": "address"
        }
      ]
    },
    {
      "type": "error",
      "name": "OnlyValidComposeCaller",
      "inputs": [
        {
          "name": "caller",
          "type": "address",
          "internalType": "address"
        }
      ]
    },
    {
      "type": "error",
      "name": "ReentrancyGuardReentrantCall",
      "inputs": []
    },
    {
      "type": "error",
      "name": "SafeERC20FailedOperation",
      "inputs": [
        {
          "name": "token",
          "type": "address",
          "internalType": "address"
        }
      ]
    },
    {
      "type": "error",
      "name": "ShareOFTNotAdapter",
      "inputs": [
        {
          "name": "shareOFT",
          "type": "address",
          "internalType": "address"
        }
      ]
    },
    {
      "type": "error",
      "name": "ShareTokenNotVault",
      "inputs": [
        {
          "name": "shareERC20",
          "type": "address",
          "internalType": "address"
        },
        {
          "name": "vault",
          "type": "address",
          "internalType": "address"
        }
      ]
    },
    {
      "type": "error",
      "name": "SlippageExceeded",
      "inputs": [
        {
          "name": "vaultAmountOut",
          "type": "uint256",
          "internalType": "uint256"
        },
        {
          "name": "minVaultAmountOut",
          "type": "uint256",
          "internalType": "uint256"
        }
      ]
    }
  ],
  "bytecode": {
    "object": "0x61016060405234801562000011575f80fd5b5060405162002b7838038062002b78833981016040819052620000349162000598565b60015f556001600160a01b0380841660805280821660e052821660a0528282826200005e62000179565b6001600160a01b03166101005262000075620002e3565b6001600160a01b031660c0816001600160a01b03168152505060a0516001600160a01b0316635e280f116040518163ffffffff1660e01b8152600401602060405180830381865afa158015620000cd573d5f803e3d5ffd5b505050506040513d601f19601f82011682018060405250810190620000f39190620005e9565b6001600160a01b03166101208190526040805163416ecebf60e01b8152905163416ecebf916004808201926020929091908290030181865afa1580156200013c573d5f803e3d5ffd5b505050506040513d601f19601f820116820180604052508101906200016291906200060e565b63ffffffff16610140525062000654945050505050565b5f60e0516001600160a01b031663fc0c546a6040518163ffffffff1660e01b8152600401602060405180830381865afa158015620001b9573d5f803e3d5ffd5b505050506040513d601f19601f82011682018060405250810190620001df9190620005e9565b90506080516001600160a01b0316816001600160a01b031614620002325760805160405163070bc55b60e11b81526001600160a01b03808416600483015290911660248201526044015b60405180910390fd5b60e0516001600160a01b0316639f68b9646040518163ffffffff1660e01b8152600401602060405180830381865afa15801562000271573d5f803e3d5ffd5b505050506040513d601f19601f8201168201806040525081019062000297919062000633565b620002c55760e051604051637e0a8a5760e11b81526001600160a01b03909116600482015260240162000229565b60e051620002e0906001600160a01b038316905f19620003f8565b90565b5f6080516001600160a01b03166338d52e0f6040518163ffffffff1660e01b8152600401602060405180830381865afa15801562000323573d5f803e3d5ffd5b505050506040513d601f19601f82011682018060405250810190620003499190620005e9565b90505f6001600160a01b031660a0516001600160a01b031663fc0c546a6040518163ffffffff1660e01b8152600401602060405180830381865afa15801562000394573d5f803e3d5ffd5b505050506040513d601f19601f82011682018060405250810190620003ba9190620005e9565b6001600160a01b031614620003e257604051636b0e25a560e11b815260040160405180910390fd5b608051620002e0906001600160a01b038316905f195b604080516001600160a01b038416602482015260448082018490528251808303909101815260649091019091526020810180516001600160e01b0390811663095ea7b360e01b17909152620004529085908390620004c316565b620004bd57604080516001600160a01b03851660248201525f6044808301919091528251808303909101815260649091019091526020810180516001600160e01b0390811663095ea7b360e01b17909152620004b19186916200050f16565b620004bd84826200050f565b50505050565b5f805f8060205f8651602088015f8a5af192503d91505f5190508280156200050557508115620004f7578060011462000505565b5f866001600160a01b03163b115b9695505050505050565b5f8060205f8451602086015f885af1806200052f576040513d5f823e3d81fd5b50505f513d915081156200054857806001141562000555565b6001600160a01b0384163b155b15620004bd57604051635274afe760e01b81526001600160a01b038516600482015260240162000229565b6001600160a01b038116811462000595575f80fd5b50565b5f805f60608486031215620005ab575f80fd5b8351620005b88162000580565b6020850151909350620005cb8162000580565b6040850151909250620005de8162000580565b809150509250925092565b5f60208284031215620005fa575f80fd5b8151620006078162000580565b9392505050565b5f602082840312156200061f575f80fd5b815163ffffffff8116811462000607575f80fd5b5f6020828403121562000644575f80fd5b8151801515811462000607575f80fd5b60805160a05160c05160e051610100516101205161014051612401620007775f395f818161037401526115e201525f81816102bc015261114e01525f81816103410152818161044501528181610d0901528181610dc401526117da01525f818161024301528181610e71015261120001525f818161012f01528181610210015281816103e001528181610a6a01528181610b6c01528181610f2e01528181610fe90152818161180001526118d001525f818160ee015281816101a00152818161048f015281816109ae01528181610b1901528181611096015281816111a901528181611787015261187201525f81816102760152818161052701528181610628015281816106f8015281816107f40152818161150a015261166501526124015ff3fe6080604052600436106100d1575f3560e01c80636fad06f51161007c578063a639238611610057578063a63923861461031d578063a99ecc5414610330578063aa72fe3f14610363578063d0a10260146103ab575f80fd5b80636fad06f5146102ab5780637e6e1e10146102de5780639a6b198c1461030a575f80fd5b8063369caf83116100ac578063369caf8314610232578063411557d11461026557806353174fa414610298575f80fd5b80630bfec7551461018f57806319197ec6146101ec5780631df34fa3146101ff575f80fd5b3661018b573373ffffffffffffffffffffffffffffffffffffffff7f0000000000000000000000000000000000000000000000000000000000000000161480159061015257503373ffffffffffffffffffffffffffffffffffffffff7f00000000000000000000000000000000000000000000000000000000000000001614155b15610189576040517f02cadbeb00000000000000000000000000000000000000000000000000000000815260040160405180910390fd5b005b5f80fd5b34801561019a575f80fd5b506101c27f000000000000000000000000000000000000000000000000000000000000000081565b60405173ffffffffffffffffffffffffffffffffffffffff90911681526020015b60405180910390f35b6101896101fa366004611c98565b6103be565b34801561020a575f80fd5b506101c27f000000000000000000000000000000000000000000000000000000000000000081565b34801561023d575f80fd5b506101c27f000000000000000000000000000000000000000000000000000000000000000081565b348015610270575f80fd5b506101c27f000000000000000000000000000000000000000000000000000000000000000081565b6101896102a6366004611c98565b610423565b3480156102b6575f80fd5b506101c27f000000000000000000000000000000000000000000000000000000000000000081565b3480156102e9575f80fd5b506102fd6102f8366004611ceb565b61047a565b6040516101e39190611d4f565b610189610318366004611d66565b610914565b61018961032b366004611c98565b610a26565b34801561033b575f80fd5b506101c27f000000000000000000000000000000000000000000000000000000000000000081565b34801561036e575f80fd5b506103967f000000000000000000000000000000000000000000000000000000000000000081565b60405163ffffffff90911681526020016101e3565b6101896103b9366004611e06565b610b17565b6103c6610c09565b61040873ffffffffffffffffffffffffffffffffffffffff7f000000000000000000000000000000000000000000000000000000000000000016333086610c4a565b6104153384848434610cd9565b61041e60015f55565b505050565b61042b610c09565b61046d73ffffffffffffffffffffffffffffffffffffffff7f000000000000000000000000000000000000000000000000000000000000000016333086610c4a565b6104153384848434610efe565b604080518082019091525f80825260208201527f000000000000000000000000000000000000000000000000000000000000000073ffffffffffffffffffffffffffffffffffffffff168473ffffffffffffffffffffffffffffffffffffffff16036106b1576040517fd905777e00000000000000000000000000000000000000000000000000000000815273ffffffffffffffffffffffffffffffffffffffff86811660048301525f917f00000000000000000000000000000000000000000000000000000000000000009091169063d905777e90602401602060405180830381865afa15801561056e573d5f803e3d5ffd5b505050506040513d601f19601f820116820180604052508101906105929190611e9d565b9050808411156105f9576040517fb94abeec00000000000000000000000000000000000000000000000000000000815273ffffffffffffffffffffffffffffffffffffffff8716600482015260248101859052604481018290526064015b60405180910390fd5b6040517f4cdad506000000000000000000000000000000000000000000000000000000008152600481018590527f000000000000000000000000000000000000000000000000000000000000000073ffffffffffffffffffffffffffffffffffffffff1690634cdad50690602401602060405180830381865afa158015610682573d5f803e3d5ffd5b505050506040513d601f19601f820116820180604052508101906106a69190611e9d565b604084015250610879565b6040517f402d267d00000000000000000000000000000000000000000000000000000000815273ffffffffffffffffffffffffffffffffffffffff86811660048301525f917f00000000000000000000000000000000000000000000000000000000000000009091169063402d267d90602401602060405180830381865afa15801561073f573d5f803e3d5ffd5b505050506040513d601f19601f820116820180604052508101906107639190611e9d565b9050808411156107c5576040517f79012fb200000000000000000000000000000000000000000000000000000000815273ffffffffffffffffffffffffffffffffffffffff8716600482015260248101859052604481018290526064016105f0565b6040517fef8b30f7000000000000000000000000000000000000000000000000000000008152600481018590527f000000000000000000000000000000000000000000000000000000000000000073ffffffffffffffffffffffffffffffffffffffff169063ef8b30f790602401602060405180830381865afa15801561084e573d5f803e3d5ffd5b505050506040513d601f19601f820116820180604052508101906108729190611e9d565b6040840152505b6040517f3b6f743b00000000000000000000000000000000000000000000000000000000815273ffffffffffffffffffffffffffffffffffffffff851690633b6f743b906108cd9085905f90600401611f94565b6040805180830381865afa1580156108e7573d5f803e3d5ffd5b505050506040513d601f19601f8201168201806040525081019061090b9190612004565b95945050505050565b33301461094f576040517fa19dbf000000000000000000000000000000000000000000000000000000000081523360048201526024016105f0565b5f80838060200190518101906109659190612073565b91509150803410156109ac576040517f7cb769dc000000000000000000000000000000000000000000000000000000008152600481018290523460248201526044016105f0565b7f000000000000000000000000000000000000000000000000000000000000000073ffffffffffffffffffffffffffffffffffffffff168673ffffffffffffffffffffffffffffffffffffffff1603610a1157610a0c8584843234610cd9565b610a1e565b610a1e8584843234610efe565b505050505050565b610a2e610c09565b82341015610a68576040517f0f971d5900000000000000000000000000000000000000000000000000000000815260040160405180910390fd5b7f000000000000000000000000000000000000000000000000000000000000000073ffffffffffffffffffffffffffffffffffffffff1663d0e30db0846040518263ffffffff1660e01b81526004015f604051808303818588803b158015610ace575f80fd5b505af1158015610ae0573d5f803e3d5ffd5b5050505050610415610b053373ffffffffffffffffffffffffffffffffffffffff1690565b848484610b128334612187565b610cd9565b7f000000000000000000000000000000000000000000000000000000000000000073ffffffffffffffffffffffffffffffffffffffff168773ffffffffffffffffffffffffffffffffffffffff1603610bf1577f000000000000000000000000000000000000000000000000000000000000000073ffffffffffffffffffffffffffffffffffffffff1663d0e30db0610bb08787611115565b6040518263ffffffff1660e01b81526004015f604051808303818588803b158015610bd9575f80fd5b505af1158015610beb573d5f803e3d5ffd5b50505050505b610c0087878787878787611136565b50505050505050565b60025f5403610c44576040517f3ee5aeb500000000000000000000000000000000000000000000000000000000815260040160405180910390fd5b60025f55565b60405173ffffffffffffffffffffffffffffffffffffffff8481166024830152838116604483015260648201839052610cd39186918216906323b872dd906084015b604051602081830303815290604052915060e01b6020820180517bffffffffffffffffffffffffffffffffffffffffffffffffffffffff8381831617835250505050611434565b50505050565b6040517f70a082310000000000000000000000000000000000000000000000000000000081523060048201525f907f000000000000000000000000000000000000000000000000000000000000000073ffffffffffffffffffffffffffffffffffffffff16906370a0823190602401602060405180830381865afa158015610d63573d5f803e3d5ffd5b505050506040513d601f19601f82011682018060405250810190610d879190611e9d565b9050610d9386866114d3565b506040517f70a082310000000000000000000000000000000000000000000000000000000081523060048201525f907f000000000000000000000000000000000000000000000000000000000000000073ffffffffffffffffffffffffffffffffffffffff16906370a0823190602401602060405180830381865afa158015610e1e573d5f803e3d5ffd5b505050506040513d601f19601f82011682018060405250810190610e429190611e9d565b90505f610e4f8383612187565b9050610e5f818760600151611591565b604086018190525f6060870152610e987f00000000000000000000000000000000000000000000000000000000000000008787876115d9565b6020868101518751604080518c81529384019290925263ffffffff169082015260608101889052608081018290527fa53b96f27930f89fac6e5802f6b77fcad303dde855a10e5ef076e730d1f43afa9060a0015b60405180910390a15050505050505050565b6040517f70a082310000000000000000000000000000000000000000000000000000000081523060048201525f907f000000000000000000000000000000000000000000000000000000000000000073ffffffffffffffffffffffffffffffffffffffff16906370a0823190602401602060405180830381865afa158015610f88573d5f803e3d5ffd5b505050506040513d601f19601f82011682018060405250810190610fac9190611e9d565b9050610fb88686611627565b506040517f70a082310000000000000000000000000000000000000000000000000000000081523060048201525f907f000000000000000000000000000000000000000000000000000000000000000073ffffffffffffffffffffffffffffffffffffffff16906370a0823190602401602060405180830381865afa158015611043573d5f803e3d5ffd5b505050506040513d601f19601f820116820180604052508101906110679190611e9d565b90505f6110748383612187565b9050611084818760600151611591565b604086018190525f60608701526110bd7f00000000000000000000000000000000000000000000000000000000000000008787876115d9565b6020868101518751604080518c81529384019290925263ffffffff169082015260608101889052608081018290527f57e232f18448926c8d7554dfd1851d4a4cd10d6b804aabcd714b1f1c067e50ee9060a001610eec565b5f611124602c600c848661219a565b61112d916121c1565b90505b92915050565b3373ffffffffffffffffffffffffffffffffffffffff7f000000000000000000000000000000000000000000000000000000000000000016146111a7576040517f91ac5e4f0000000000000000000000000000000000000000000000000000000081523360048201526024016105f0565b7f000000000000000000000000000000000000000000000000000000000000000073ffffffffffffffffffffffffffffffffffffffff168773ffffffffffffffffffffffffffffffffffffffff161415801561124f57507f000000000000000000000000000000000000000000000000000000000000000073ffffffffffffffffffffffffffffffffffffffff168773ffffffffffffffffffffffffffffffffffffffff1614155b1561129e576040517f84fb3f0d00000000000000000000000000000000000000000000000000000000815273ffffffffffffffffffffffffffffffffffffffff881660048201526024016105f0565b5f6112a986866116a9565b90505f6112b68787611115565b90505f6112c388886116c1565b6040517f9a6b198c0000000000000000000000000000000000000000000000000000000081529091503090639a6b198c90349061130a908e908890879089906004016121fd565b5f604051808303818588803b158015611321575f80fd5b505af193505050508015611333575060015b6113fd573d808015611360576040519150601f19603f3d011682016040523d82523d5f602084013e611365565b606091505b507f7cb769dc0000000000000000000000000000000000000000000000000000000061139082612242565b7fffffffff0000000000000000000000000000000000000000000000000000000016036113bf57805181602001fd5b6113cd8b8a8a86323461170b565b6040518a907ffe509803c09416b28ff3d8f690c8b0c61462a892c46d5430c8fb20abe472daf0905f90a250611428565b60405189907f27b5aea9f5736c02241d8a0272e9ec988ea44cf85c4b4760329431aa19678394905f90a25b50505050505050505050565b5f8060205f8451602086015f885af180611453576040513d5f823e3d81fd5b50505f513d9150811561146a578060011415611484565b73ffffffffffffffffffffffffffffffffffffffff84163b155b15610cd3576040517f5274afe700000000000000000000000000000000000000000000000000000000815273ffffffffffffffffffffffffffffffffffffffff851660048201526024016105f0565b6040517f6e553f65000000000000000000000000000000000000000000000000000000008152600481018290523060248201525f907f000000000000000000000000000000000000000000000000000000000000000073ffffffffffffffffffffffffffffffffffffffff1690636e553f65906044015b6020604051808303815f875af1158015611566573d5f803e3d5ffd5b505050506040513d601f19601f8201168201806040525081019061158a9190611e9d565b9392505050565b808210156115d5576040517f71c4efed00000000000000000000000000000000000000000000000000000000815260048101839052602481018290526044016105f0565b5050565b825163ffffffff7f0000000000000000000000000000000000000000000000000000000000000000811691160361161b5761161684848484611784565b610cd3565b610cd38484848461185a565b6040517fba08765200000000000000000000000000000000000000000000000000000000815260048101829052306024820181905260448201525f907f000000000000000000000000000000000000000000000000000000000000000073ffffffffffffffffffffffffffffffffffffffff169063ba0876529060640161154a565b5f6116b8604c602c848661219a565b61158a916121c1565b60606116d082604c818661219a565b8080601f0160208091040260200160405190810160405280939291908181526020018383808284375f92019190915250929695505050505050565b6117506040518060e001604052805f63ffffffff1681526020015f80191681526020015f81526020015f81526020016060815260200160608152602001606081525090565b61175a86866119f7565b63ffffffff16815261176c86866116a9565b602082015260408101849052610c008782858561185a565b5f7f000000000000000000000000000000000000000000000000000000000000000073ffffffffffffffffffffffffffffffffffffffff168573ffffffffffffffffffffffffffffffffffffffff16146117fe577f0000000000000000000000000000000000000000000000000000000000000000611820565b7f00000000000000000000000000000000000000000000000000000000000000005b9050611853611830856020015190565b604086015173ffffffffffffffffffffffffffffffffffffffff84169190611a19565b5050505050565b8073ffffffffffffffffffffffffffffffffffffffff7f000000000000000000000000000000000000000000000000000000000000000081169086160361194e5760408481015190517f2e1a7d4d00000000000000000000000000000000000000000000000000000000815260048101919091527f000000000000000000000000000000000000000000000000000000000000000073ffffffffffffffffffffffffffffffffffffffff1690632e1a7d4d906024015f604051808303815f87803b158015611926575f80fd5b505af1158015611938573d5f803e3d5ffd5b505050604085015161194b915082612291565b90505b6040805180820182528381525f602082015290517fc7c7f5b300000000000000000000000000000000000000000000000000000000815273ffffffffffffffffffffffffffffffffffffffff87169163c7c7f5b39184916119b69189919089906004016122a4565b60c06040518083038185885af11580156119d2573d5f803e3d5ffd5b50505050506040513d601f19601f82011682018060405250810190610c0091906122f3565b5f611a06600c6008848661219a565b611a0f91612383565b60e01c9392505050565b60405173ffffffffffffffffffffffffffffffffffffffff83811660248301526044820183905261041e91859182169063a9059cbb90606401610c8c565b7f4e487b71000000000000000000000000000000000000000000000000000000005f52604160045260245ffd5b60405160e0810167ffffffffffffffff81118282101715611aa757611aa7611a57565b60405290565b604051601f82017fffffffffffffffffffffffffffffffffffffffffffffffffffffffffffffffe016810167ffffffffffffffff81118282101715611af457611af4611a57565b604052919050565b63ffffffff81168114611b0d575f80fd5b50565b8035611b1b81611afc565b919050565b5f67ffffffffffffffff821115611b3957611b39611a57565b50601f017fffffffffffffffffffffffffffffffffffffffffffffffffffffffffffffffe01660200190565b5f82601f830112611b74575f80fd5b8135611b87611b8282611b20565b611aad565b818152846020838601011115611b9b575f80fd5b816020850160208301375f918101602001919091529392505050565b5f60e08284031215611bc7575f80fd5b611bcf611a84565b9050611bda82611b10565b8152602082013560208201526040820135604082015260608201356060820152608082013567ffffffffffffffff80821115611c14575f80fd5b611c2085838601611b65565b608084015260a0840135915080821115611c38575f80fd5b611c4485838601611b65565b60a084015260c0840135915080821115611c5c575f80fd5b50611c6984828501611b65565b60c08301525092915050565b803573ffffffffffffffffffffffffffffffffffffffff81168114611b1b575f80fd5b5f805f60608486031215611caa575f80fd5b83359250602084013567ffffffffffffffff811115611cc7575f80fd5b611cd386828701611bb7565b925050611ce260408501611c75565b90509250925092565b5f805f8060808587031215611cfe575f80fd5b611d0785611c75565b9350611d1560208601611c75565b925060408501359150606085013567ffffffffffffffff811115611d37575f80fd5b611d4387828801611bb7565b91505092959194509250565b815181526020808301519082015260408101611130565b5f805f8060808587031215611d79575f80fd5b611d8285611c75565b935060208501359250604085013567ffffffffffffffff811115611da4575f80fd5b611db087828801611b65565b949793965093946060013593505050565b5f8083601f840112611dd1575f80fd5b50813567ffffffffffffffff811115611de8575f80fd5b602083019150836020828501011115611dff575f80fd5b9250929050565b5f805f805f805f60a0888a031215611e1c575f80fd5b611e2588611c75565b965060208801359550604088013567ffffffffffffffff80821115611e48575f80fd5b611e548b838c01611dc1565b9097509550859150611e6860608b01611c75565b945060808a0135915080821115611e7d575f80fd5b50611e8a8a828b01611dc1565b989b979a50959850939692959293505050565b5f60208284031215611ead575f80fd5b5051919050565b5f5b83811015611ece578181015183820152602001611eb6565b50505f910152565b5f8151808452611eed816020860160208601611eb4565b601f017fffffffffffffffffffffffffffffffffffffffffffffffffffffffffffffffe0169290920160200192915050565b63ffffffff81511682526020810151602083015260408101516040830152606081015160608301525f608082015160e06080850152611f6160e0850182611ed6565b905060a083015184820360a0860152611f7a8282611ed6565b91505060c083015184820360c086015261090b8282611ed6565b604081525f611fa66040830185611f1f565b905082151560208301529392505050565b5f60408284031215611fc7575f80fd5b6040516040810181811067ffffffffffffffff82111715611fea57611fea611a57565b604052825181526020928301519281019290925250919050565b5f60408284031215612014575f80fd5b61158a8383611fb7565b8051611b1b81611afc565b5f82601f830112612038575f80fd5b8151612046611b8282611b20565b81815284602083860101111561205a575f80fd5b61206b826020830160208701611eb4565b949350505050565b5f8060408385031215612084575f80fd5b825167ffffffffffffffff8082111561209b575f80fd5b9084019060e082870312156120ae575f80fd5b6120b6611a84565b6120bf8361201e565b81526020830151602082015260408301516040820152606083015160608201526080830151828111156120f0575f80fd5b6120fc88828601612029565b60808301525060a083015182811115612113575f80fd5b61211f88828601612029565b60a08301525060c083015182811115612136575f80fd5b61214288828601612029565b60c08301525060209590950151949694955050505050565b7f4e487b71000000000000000000000000000000000000000000000000000000005f52601160045260245ffd5b818103818111156111305761113061215a565b5f80858511156121a8575f80fd5b838611156121b4575f80fd5b5050820193919092039150565b80356020831015611130577fffffffffffffffffffffffffffffffffffffffffffffffffffffffffffffffff602084900360031b1b1692915050565b73ffffffffffffffffffffffffffffffffffffffff85168152836020820152608060408201525f6122316080830185611ed6565b905082606083015295945050505050565b5f815160208301517fffffffff00000000000000000000000000000000000000000000000000000000808216935060048310156122895780818460040360031b1b83161693505b505050919050565b808201808211156111305761113061215a565b608081525f6122b66080830186611f1f565b90506122cf602083018580518252602090810151910152565b73ffffffffffffffffffffffffffffffffffffffff83166060830152949350505050565b5f8082840360c0811215612305575f80fd5b6080811215612312575f80fd5b506040516060810167ffffffffffffffff828210818311171561233757612337611a57565b8160405285518352602086015191508082168214612353575f80fd5b5060208201526123668560408601611fb7565b6040820152915061237a8460808501611fb7565b90509250929050565b7fffffffff0000000000000000000000000000000000000000000000000000000081358181169160048510156123c35780818660040360031b1b83161692505b50509291505056fea26469706673582212206901496e99bc1f23f2b28cf9afe80c2bca8e2ead59a21bc9e68b61198e179c4564736f6c63430008160033",
    "linkReferences": {}
  },
  "methodIdentifiers": {
    "ASSET_ERC20()": "1df34fa3",
    "ASSET_OFT()": "0bfec755",
    "ENDPOINT()": "6fad06f5",
    "SHARE_ERC20()": "a99ecc54",
    "SHARE_OFT()": "369caf83",
    "VAULT()": "411557d1",
    "VAULT_EID()": "aa72fe3f",
    "depositAndSend(uint256,(uint32,bytes32,uint256,uint256,bytes,bytes,bytes),address)": "19197ec6",
    "depositNativeAndSend(uint256,(uint32,bytes32,uint256,uint256,bytes,bytes,bytes),address)": "a6392386",
    "handleCompose(address,bytes32,bytes,uint256)": "9a6b198c",
    "lzCompose(address,bytes32,bytes,address,bytes)": "d0a10260",
    "quoteSend(address,address,uint256,(uint32,bytes32,uint256,uint256,bytes,bytes,bytes))": "7e6e1e10",
    "redeemAndSend(uint256,(uint32,bytes32,uint256,uint256,bytes,bytes,bytes),address)": "53174fa4"
  },
  "id": 1
}