{
  "abi": [
    {
      "type": "constructor",
      "inputs": [
        {
          "name": "_vault",
          "type": "address",
          "internalType": "address"
        },
        {
          "name": "_assetOFT",
          "type": "address",
          "internalType": "address"
        },
        {
          "name": "_shareOFT",
          "type": "address",
          "internalType": "address"
        }
      ],
      "stateMutability": "nonpayable"
    },
    {
      "type": "receive",
      "stateMutability": "payable"
    },
    {
      "type": "function",
      "name": "ASSET_ERC20",
      "inputs": [],
      "outputs": [
        {
          "name": "",
          "type": "address",
          "internalType": "address"
        }
      ],
      "stateMutability": "view"
    },
    {
      "type": "function",
      "name": "ASSET_OFT",
      "inputs": [],
      "outputs": [
        {
          "name": "",
          "type": "address",
          "internalType": "address"
        }
      ],
      "stateMutability": "view"
    },
    {
      "type": "function",
      "name": "ENDPOINT",
      "inputs": [],
      "outputs": [
        {
          "name": "",
          "type": "address",
          "internalType": "address"
        }
      ],
      "stateMutability": "view"
    },
    {
      "type": "function",
      "name": "SHARE_ERC20",
      "inputs": [],
      "outputs": [
        {
          "name": "",
          "type": "address",
          "internalType": "address"
        }
      ],
      "stateMutability": "view"
    },
    {
      "type": "function",
      "name": "SHARE_OFT",
      "inputs": [],
      "outputs": [
        {
          "name": "",
          "type": "address",
          "internalType": "address"
        }
      ],
      "stateMutability": "view"
    },
    {
      "type": "function",
      "name": "VAULT",
      "inputs": [],
      "outputs": [
        {
          "name": "",
          "type": "address",
          "internalType": "contract IERC4626"
        }
      ],
      "stateMutability": "view"
    },
    {
      "type": "function",
      "name": "VAULT_EID",
      "inputs": [],
      "outputs": [
        {
          "name": "",
          "type": "uint32",
          "internalType": "uint32"
        }
      ],
      "stateMutability": "view"
    },
    {
      "type": "function",
      "name": "depositAndSend",
      "inputs": [
        {
          "name": "_assetAmount",
          "type": "uint256",
          "internalType": "uint256"
        },
        {
          "name": "_sendParam",
          "type": "tuple",
          "internalType": "struct SendParam",
          "components": [
            {
              "name": "dstEid",
              "type": "uint32",
              "internalType": "uint32"
            },
            {
              "name": "to",
              "type": "bytes32",
              "internalType": "bytes32"
            },
            {
              "name": "amountLD",
              "type": "uint256",
              "internalType": "uint256"
            },
            {
              "name": "minAmountLD",
              "type": "uint256",
              "internalType": "uint256"
            },
            {
              "name": "extraOptions",
              "type": "bytes",
              "internalType": "bytes"
            },
            {
              "name": "composeMsg",
              "type": "bytes",
              "internalType": "bytes"
            },
            {
              "name": "oftCmd",
              "type": "bytes",
              "internalType": "bytes"
            }
          ]
        },
        {
          "name": "_refundAddress",
          "type": "address",
          "internalType": "address"
        }
      ],
      "outputs": [],
      "stateMutability": "payable"
    },
    {
      "type": "function",
      "name": "depositNativeAndSend",
      "inputs": [
        {
          "name": "_assetAmount",
          "type": "uint256",
          "internalType": "uint256"
        },
        {
          "name": "_sendParam",
          "type": "tuple",
          "internalType": "struct SendParam",
          "components": [
            {
              "name": "dstEid",
              "type": "uint32",
              "internalType": "uint32"
            },
            {
              "name": "to",
              "type": "bytes32",
              "internalType": "bytes32"
            },
            {
              "name": "amountLD",
              "type": "uint256",
              "internalType": "uint256"
            },
            {
              "name": "minAmountLD",
              "type": "uint256",
              "internalType": "uint256"
            },
            {
              "name": "extraOptions",
              "type": "bytes",
              "internalType": "bytes"
            },
            {
              "name": "composeMsg",
              "type": "bytes",
              "internalType": "bytes"
            },
            {
              "name": "oftCmd",
              "type": "bytes",
              "internalType": "bytes"
            }
          ]
        },
        {
          "name": "_refundAddress",
          "type": "address",
          "internalType": "address"
        }
      ],
      "outputs": [],
      "stateMutability": "payable"
    },
    {
      "type": "function",
      "name": "handleCompose",
      "inputs": [
        {
          "name": "_oftIn",
          "type": "address",
          "internalType": "address"
        },
        {
          "name": "_composeFrom",
          "type": "bytes32",
          "internalType": "bytes32"
        },
        {
          "name": "_composeMsg",
          "type": "bytes",
          "internalType": "bytes"
        },
        {
          "name": "_amount",
          "type": "uint256",
          "internalType": "uint256"
        }
      ],
      "outputs": [],
      "stateMutability": "payable"
    },
    {
      "type": "function",
      "name": "lzCompose",
      "inputs": [
        {
          "name": "_composeSender",
          "type": "address",
          "internalType": "address"
        },
        {
          "name": "_guid",
          "type": "bytes32",
          "internalType": "bytes32"
        },
        {
          "name": "_message",
          "type": "bytes",
          "internalType": "bytes"
        },
        {
          "name": "",
          "type": "address",
          "internalType": "address"
        },
        {
          "name": "",
          "type": "bytes",
          "internalType": "bytes"
        }
      ],
      "outputs": [],
      "stateMutability": "payable"
    },
    {
      "type": "function",
      "name": "quoteSend",
      "inputs": [
        {
          "name": "_from",
          "type": "address",
          "internalType": "address"
        },
        {
          "name": "_targetOFT",
          "type": "address",
          "internalType": "address"
        },
        {
          "name": "_vaultInAmount",
          "type": "uint256",
          "internalType": "uint256"
        },
        {
          "name": "_sendParam",
          "type": "tuple",
          "internalType": "struct SendParam",
          "components": [
            {
              "name": "dstEid",
              "type": "uint32",
              "internalType": "uint32"
            },
            {
              "name": "to",
              "type": "bytes32",
              "internalType": "bytes32"
            },
            {
              "name": "amountLD",
              "type": "uint256",
              "internalType": "uint256"
            },
            {
              "name": "minAmountLD",
              "type": "uint256",
              "internalType": "uint256"
            },
            {
              "name": "extraOptions",
              "type": "bytes",
              "internalType": "bytes"
            },
            {
              "name": "composeMsg",
              "type": "bytes",
              "internalType": "bytes"
            },
            {
              "name": "oftCmd",
              "type": "bytes",
              "internalType": "bytes"
            }
          ]
        }
      ],
      "outputs": [
        {
          "name": "",
          "type": "tuple",
          "internalType": "struct MessagingFee",
          "components": [
            {
              "name": "nativeFee",
              "type": "uint256",
              "internalType": "uint256"
            },
            {
              "name": "lzTokenFee",
              "type": "uint256",
              "internalType": "uint256"
            }
          ]
        }
      ],
      "stateMutability": "view"
    },
    {
      "type": "function",
      "name": "redeemAndSend",
      "inputs": [
        {
          "name": "_shareAmount",
          "type": "uint256",
          "internalType": "uint256"
        },
        {
          "name": "_sendParam",
          "type": "tuple",
          "internalType": "struct SendParam",
          "components": [
            {
              "name": "dstEid",
              "type": "uint32",
              "internalType": "uint32"
            },
            {
              "name": "to",
              "type": "bytes32",
              "internalType": "bytes32"
            },
            {
              "name": "amountLD",
              "type": "uint256",
              "internalType": "uint256"
            },
            {
              "name": "minAmountLD",
              "type": "uint256",
              "internalType": "uint256"
            },
            {
              "name": "extraOptions",
              "type": "bytes",
              "internalType": "bytes"
            },
            {
              "name": "composeMsg",
              "type": "bytes",
              "internalType": "bytes"
            },
            {
              "name": "oftCmd",
              "type": "bytes",
              "internalType": "bytes"
            }
          ]
        },
        {
          "name": "_refundAddress",
          "type": "address",
          "internalType": "address"
        }
      ],
      "outputs": [],
      "stateMutability": "payable"
    },
    {
      "type": "event",
      "name": "Deposited",
      "inputs": [
        {
          "name": "sender",
          "type": "bytes32",
          "indexed": false,
          "internalType": "bytes32"
        },
        {
          "name": "recipient",
          "type": "bytes32",
          "indexed": false,
          "internalType": "bytes32"
        },
        {
          "name": "dstEid",
          "type": "uint32",
          "indexed": false,
          "internalType": "uint32"
        },
        {
          "name": "assetAmt",
          "type": "uint256",
          "indexed": false,
          "internalType": "uint256"
        },
        {
          "name": "shareAmt",
          "type": "uint256",
          "indexed": false,
          "internalType": "uint256"
        }
      ],
      "anonymous": false
    },
    {
      "type": "event",
      "name": "Redeemed",
      "inputs": [
        {
          "name": "sender",
          "type": "bytes32",
          "indexed": false,
          "internalType": "bytes32"
        },
        {
          "name": "recipient",
          "type": "bytes32",
          "indexed": false,
          "internalType": "bytes32"
        },
        {
          "name": "dstEid",
          "type": "uint32",
          "indexed": false,
          "internalType": "uint32"
        },
        {
          "name": "shareAmt",
          "type": "uint256",
          "indexed": false,
          "internalType": "uint256"
        },
        {
          "name": "assetAmt",
          "type": "uint256",
          "indexed": false,
          "internalType": "uint256"
        }
      ],
      "anonymous": false
    },
    {
      "type": "event",
      "name": "Refunded",
      "inputs": [
        {
          "name": "guid",
          "type": "bytes32",
          "indexed": true,
          "internalType": "bytes32"
        }
      ],
      "anonymous": false
    },
    {
      "type": "event",
      "name": "Sent",
      "inputs": [
        {
          "name": "guid",
          "type": "bytes32",
          "indexed": true,
          "internalType": "bytes32"
        }
      ],
      "anonymous": false
    },
    {
      "type": "error",
      "name": "AmountExceedsMsgValue",
      "inputs": []
    },
    {
      "type": "error",
      "name": "AssetOFTTokenNotNative",
      "inputs": []
    },
    {
      "type": "error",
      "name": "AssetTokenNotVaultAsset",
      "inputs": [
        {
          "name": "assetERC20",
          "type": "address",
          "internalType": "address"
        },
        {
          "name": "vaultAsset",
          "type": "address",
          "internalType": "address"
        }
      ]
    },
    {
      "type": "error",
      "name": "ERC4626ExceededMaxDeposit",
      "inputs": [
        {
          "name": "receiver",
          "type": "address",
          "internalType": "address"
        },
        {
          "name": "assets",
          "type": "uint256",
          "internalType": "uint256"
        },
        {
          "name": "max",
          "type": "uint256",
          "internalType": "uint256"
        }
      ]
    },
    {
      "type": "error",
      "name": "ERC4626ExceededMaxRedeem",
      "inputs": [
        {
          "name": "owner",
          "type": "address",
          "internalType": "address"
        },
        {
          "name": "shares",
          "type": "uint256",
          "internalType": "uint256"
        },
        {
          "name": "max",
          "type": "uint256",
          "internalType": "uint256"
        }
      ]
    },
    {
      "type": "error",
      "name": "InsufficientMsgValue",
      "inputs": [
        {
          "name": "expectedMsgValue",
          "type": "uint256",
          "internalType": "uint256"
        },
        {
          "name": "actualMsgValue",
          "type": "uint256",
          "internalType": "uint256"
        }
      ]
    },
    {
      "type": "error",
      "name": "NoMsgValueExpected",
      "inputs": []
    },
    {
      "type": "error",
      "name": "OnlyEndpoint",
      "inputs": [
        {
          "name": "caller",
          "type": "address",
          "internalType": "address"
        }
      ]
    },
    {
      "type": "error",
      "name": "OnlySelf",
      "inputs": [
        {
          "name": "caller",
          "type": "address",
          "internalType": "address"
        }
      ]
    },
    {
      "type": "error",
      "name": "OnlyValidComposeCaller",
      "inputs": [
        {
          "name": "caller",
          "type": "address",
          "internalType": "address"
        }
      ]
    },
    {
      "type": "error",
      "name": "ReentrancyGuardReentrantCall",
      "inputs": []
    },
    {
      "type": "error",
      "name": "SafeERC20FailedOperation",
      "inputs": [
        {
          "name": "token",
          "type": "address",
          "internalType": "address"
        }
      ]
    },
    {
      "type": "error",
      "name": "ShareOFTNotAdapter",
      "inputs": [
        {
          "name": "shareOFT",
          "type": "address",
          "internalType": "address"
        }
      ]
    },
    {
      "type": "error",
      "name": "ShareTokenNotVault",
      "inputs": [
        {
          "name": "shareERC20",
          "type": "address",
          "internalType": "address"
        },
        {
          "name": "vault",
          "type": "address",
          "internalType": "address"
        }
      ]
    },
    {
      "type": "error",
      "name": "SlippageExceeded",
      "inputs": [
        {
          "name": "amountLD",
          "type": "uint256",
          "internalType": "uint256"
        },
        {
          "name": "minAmountLD",
          "type": "uint256",
          "internalType": "uint256"
        }
      ]
    }
  ],
  "bytecode": {
    "object": "0x61016060405234801562000011575f80fd5b50604051620026af380380620026af833981016040819052620000349162000492565b60015f556001600160a01b0380841660805280821660e052821660a0528282826200005e62000179565b6001600160a01b0316610100526200007562000341565b6001600160a01b031660c0816001600160a01b03168152505060a0516001600160a01b0316635e280f116040518163ffffffff1660e01b8152600401602060405180830381865afa158015620000cd573d5f803e3d5ffd5b505050506040513d601f19601f82011682018060405250810190620000f39190620004e3565b6001600160a01b03166101208190526040805163416ecebf60e01b8152905163416ecebf916004808201926020929091908290030181865afa1580156200013c573d5f803e3d5ffd5b505050506040513d601f19601f8201168201806040525081019062000162919062000508565b63ffffffff1661014052506200054e945050505050565b5f60e0516001600160a01b031663fc0c546a6040518163ffffffff1660e01b8152600401602060405180830381865afa158015620001b9573d5f803e3d5ffd5b505050506040513d601f19601f82011682018060405250810190620001df9190620004e3565b90506080516001600160a01b0316816001600160a01b031614620002325760805160405163070bc55b60e11b81526001600160a01b03808416600483015290911660248201526044015b60405180910390fd5b60e0516001600160a01b0316639f68b9646040518163ffffffff1660e01b8152600401602060405180830381865afa15801562000271573d5f803e3d5ffd5b505050506040513d601f19601f820116820180604052508101906200029791906200052d565b620002c55760e051604051637e0a8a5760e11b81526001600160a01b03909116600482015260240162000229565b60e05160405163095ea7b360e01b81526001600160a01b0391821660048201525f1960248201529082169063095ea7b3906044015b6020604051808303815f875af115801562000317573d5f803e3d5ffd5b505050506040513d601f19601f820116820180604052508101906200033d91906200052d565b5090565b5f6080516001600160a01b03166338d52e0f6040518163ffffffff1660e01b8152600401602060405180830381865afa15801562000381573d5f803e3d5ffd5b505050506040513d601f19601f82011682018060405250810190620003a79190620004e3565b90505f6001600160a01b031660a0516001600160a01b031663fc0c546a6040518163ffffffff1660e01b8152600401602060405180830381865afa158015620003f2573d5f803e3d5ffd5b505050506040513d601f19601f82011682018060405250810190620004189190620004e3565b6001600160a01b0316146200044057604051636b0e25a560e11b815260040160405180910390fd5b60805160405163095ea7b360e01b81526001600160a01b0391821660048201525f1960248201529082169063095ea7b390604401620002fa565b6001600160a01b03811681146200048f575f80fd5b50565b5f805f60608486031215620004a5575f80fd5b8351620004b2816200047a565b6020850151909350620004c5816200047a565b6040850151909250620004d8816200047a565b809150509250925092565b5f60208284031215620004f4575f80fd5b815162000501816200047a565b9392505050565b5f6020828403121562000519575f80fd5b815163ffffffff8116811462000501575f80fd5b5f602082840312156200053e575f80fd5b8151801515811462000501575f80fd5b60805160a05160c05160e051610100516101205161014051612068620006475f395f818161037c01526112ec01525f81816102c40152610b2f01525f81816103490152818161044d015261160001525f818161024b01528181610be10152610f1201525f818161011501528181610218015281816103e801528181610a6a0152818161144b015261162601525f818160ed015281816101a801528181610497015281816109b601528181610b8a01528181610fca015281816113ed01526115ad01525f818161027e0152818161052f0152818161063001528181610700015281816107fc0152818161121b015261136f01526120685ff3fe6080604052600436106100d1575f3560e01c80636fad06f51161007c578063a639238611610057578063a639238614610325578063a99ecc5414610338578063aa72fe3f1461036b578063d0a10260146103b3575f80fd5b80636fad06f5146102b35780637e6e1e10146102e65780639a6b198c14610312575f80fd5b8063369caf83116100ac578063369caf831461023a578063411557d11461026d57806353174fa4146102a0575f80fd5b80630bfec7551461019757806319197ec6146101f45780631df34fa314610207575f80fd5b366101935773ffffffffffffffffffffffffffffffffffffffff7f0000000000000000000000000000000000000000000000000000000000000000163303610191577f000000000000000000000000000000000000000000000000000000000000000073ffffffffffffffffffffffffffffffffffffffff1663d0e30db0346040518263ffffffff1660e01b81526004015f604051808303818588803b158015610179575f80fd5b505af115801561018b573d5f803e3d5ffd5b50505050505b005b5f80fd5b3480156101a2575f80fd5b506101ca7f000000000000000000000000000000000000000000000000000000000000000081565b60405173ffffffffffffffffffffffffffffffffffffffff90911681526020015b60405180910390f35b6101916102023660046118ff565b6103c6565b348015610212575f80fd5b506101ca7f000000000000000000000000000000000000000000000000000000000000000081565b348015610245575f80fd5b506101ca7f000000000000000000000000000000000000000000000000000000000000000081565b348015610278575f80fd5b506101ca7f000000000000000000000000000000000000000000000000000000000000000081565b6101916102ae3660046118ff565b61042b565b3480156102be575f80fd5b506101ca7f000000000000000000000000000000000000000000000000000000000000000081565b3480156102f1575f80fd5b50610305610300366004611952565b610482565b6040516101eb91906119b6565b6101916103203660046119cd565b61091c565b6101916103333660046118ff565b610a2e565b348015610343575f80fd5b506101ca7f000000000000000000000000000000000000000000000000000000000000000081565b348015610376575f80fd5b5061039e7f000000000000000000000000000000000000000000000000000000000000000081565b60405163ffffffff90911681526020016101eb565b6101916103c1366004611a6d565b610b17565b6103ce610e15565b61041073ffffffffffffffffffffffffffffffffffffffff7f000000000000000000000000000000000000000000000000000000000000000016333086610e56565b61041d3384848434610ee5565b61042660015f55565b505050565b610433610e15565b61047573ffffffffffffffffffffffffffffffffffffffff7f000000000000000000000000000000000000000000000000000000000000000016333086610e56565b61041d3384848434610f9d565b604080518082019091525f80825260208201527f000000000000000000000000000000000000000000000000000000000000000073ffffffffffffffffffffffffffffffffffffffff168473ffffffffffffffffffffffffffffffffffffffff16036106b9576040517fd905777e00000000000000000000000000000000000000000000000000000000815273ffffffffffffffffffffffffffffffffffffffff86811660048301525f917f00000000000000000000000000000000000000000000000000000000000000009091169063d905777e90602401602060405180830381865afa158015610576573d5f803e3d5ffd5b505050506040513d601f19601f8201168201806040525081019061059a9190611b04565b905080841115610601576040517fb94abeec00000000000000000000000000000000000000000000000000000000815273ffffffffffffffffffffffffffffffffffffffff8716600482015260248101859052604481018290526064015b60405180910390fd5b6040517f4cdad506000000000000000000000000000000000000000000000000000000008152600481018590527f000000000000000000000000000000000000000000000000000000000000000073ffffffffffffffffffffffffffffffffffffffff1690634cdad50690602401602060405180830381865afa15801561068a573d5f803e3d5ffd5b505050506040513d601f19601f820116820180604052508101906106ae9190611b04565b604084015250610881565b6040517f402d267d00000000000000000000000000000000000000000000000000000000815273ffffffffffffffffffffffffffffffffffffffff86811660048301525f917f00000000000000000000000000000000000000000000000000000000000000009091169063402d267d90602401602060405180830381865afa158015610747573d5f803e3d5ffd5b505050506040513d601f19601f8201168201806040525081019061076b9190611b04565b9050808411156107cd576040517f79012fb200000000000000000000000000000000000000000000000000000000815273ffffffffffffffffffffffffffffffffffffffff8716600482015260248101859052604481018290526064016105f8565b6040517fef8b30f7000000000000000000000000000000000000000000000000000000008152600481018590527f000000000000000000000000000000000000000000000000000000000000000073ffffffffffffffffffffffffffffffffffffffff169063ef8b30f790602401602060405180830381865afa158015610856573d5f803e3d5ffd5b505050506040513d601f19601f8201168201806040525081019061087a9190611b04565b6040840152505b6040517f3b6f743b00000000000000000000000000000000000000000000000000000000815273ffffffffffffffffffffffffffffffffffffffff851690633b6f743b906108d59085905f90600401611bfb565b6040805180830381865afa1580156108ef573d5f803e3d5ffd5b505050506040513d601f19601f820116820180604052508101906109139190611c6b565b95945050505050565b333014610957576040517fa19dbf000000000000000000000000000000000000000000000000000000000081523360048201526024016105f8565b5f808380602001905181019061096d9190611cda565b91509150803410156109b4576040517f7cb769dc000000000000000000000000000000000000000000000000000000008152600481018290523460248201526044016105f8565b7f000000000000000000000000000000000000000000000000000000000000000073ffffffffffffffffffffffffffffffffffffffff168673ffffffffffffffffffffffffffffffffffffffff1603610a1957610a148584843234610ee5565b610a26565b610a268584843234610f9d565b505050505050565b82341015610a68576040517f0f971d5900000000000000000000000000000000000000000000000000000000815260040160405180910390fd5b7f000000000000000000000000000000000000000000000000000000000000000073ffffffffffffffffffffffffffffffffffffffff1663d0e30db0846040518263ffffffff1660e01b81526004015f604051808303818588803b158015610ace575f80fd5b505af1158015610ae0573d5f803e3d5ffd5b5050505050610426610b053373ffffffffffffffffffffffffffffffffffffffff1690565b848484610b128334611dee565b610ee5565b3373ffffffffffffffffffffffffffffffffffffffff7f00000000000000000000000000000000000000000000000000000000000000001614610b88576040517f91ac5e4f0000000000000000000000000000000000000000000000000000000081523360048201526024016105f8565b7f000000000000000000000000000000000000000000000000000000000000000073ffffffffffffffffffffffffffffffffffffffff168773ffffffffffffffffffffffffffffffffffffffff1614158015610c3057507f000000000000000000000000000000000000000000000000000000000000000073ffffffffffffffffffffffffffffffffffffffff168773ffffffffffffffffffffffffffffffffffffffff1614155b15610c7f576040517f84fb3f0d00000000000000000000000000000000000000000000000000000000815273ffffffffffffffffffffffffffffffffffffffff881660048201526024016105f8565b5f610c8a8686611049565b90505f610c97878761106a565b90505f610ca48888611079565b6040517f9a6b198c0000000000000000000000000000000000000000000000000000000081529091503090639a6b198c903490610ceb908e90889087908990600401611e01565b5f604051808303818588803b158015610d02575f80fd5b505af193505050508015610d14575060015b610dde573d808015610d41576040519150601f19603f3d011682016040523d82523d5f602084013e610d46565b606091505b507f7cb769dc00000000000000000000000000000000000000000000000000000000610d7182611e46565b7fffffffff000000000000000000000000000000000000000000000000000000001603610da057805181602001fd5b610dae8b8a8a8632346110c3565b6040518a907ffe509803c09416b28ff3d8f690c8b0c61462a892c46d5430c8fb20abe472daf0905f90a250610e09565b60405189907f27b5aea9f5736c02241d8a0272e9ec988ea44cf85c4b4760329431aa19678394905f90a25b50505050505050505050565b60025f5403610e50576040517f3ee5aeb500000000000000000000000000000000000000000000000000000000815260040160405180910390fd5b60025f55565b60405173ffffffffffffffffffffffffffffffffffffffff8481166024830152838116604483015260648201839052610edf9186918216906323b872dd906084015b604051602081830303815290604052915060e01b6020820180517bffffffffffffffffffffffffffffffffffffffffffffffffffffffff8381831617835250505050611145565b50505050565b5f610ef086866111e4565b9050610f0081856060015161129b565b604084018190525f6060850152610f397f00000000000000000000000000000000000000000000000000000000000000008585856112e3565b6020848101518551604080518a81529384019290925263ffffffff169082015260608101869052608081018290527fa53b96f27930f89fac6e5802f6b77fcad303dde855a10e5ef076e730d1f43afa9060a0015b60405180910390a1505050505050565b5f610fa88686611331565b9050610fb881856060015161129b565b604084018190525f6060850152610ff17f00000000000000000000000000000000000000000000000000000000000000008585856112e3565b6020848101518551604080518a81529384019290925263ffffffff169082015260608101869052608081018290527f57e232f18448926c8d7554dfd1851d4a4cd10d6b804aabcd714b1f1c067e50ee9060a001610f8d565b5f611058604c602c8486611e95565b61106191611ebc565b90505b92915050565b5f611058602c600c8486611e95565b606061108882604c8186611e95565b8080601f0160208091040260200160405190810160405280939291908181526020018383808284375f92019190915250929695505050505050565b6111086040518060e001604052805f63ffffffff1681526020015f80191681526020015f81526020015f81526020016060815260200160608152602001606081525090565b61111286866113b3565b63ffffffff1681526111248686611049565b60208201526040810184905261113c878285856113d5565b50505050505050565b5f8060205f8451602086015f885af180611164576040513d5f823e3d81fd5b50505f513d9150811561117b578060011415611195565b73ffffffffffffffffffffffffffffffffffffffff84163b155b15610edf576040517f5274afe700000000000000000000000000000000000000000000000000000000815273ffffffffffffffffffffffffffffffffffffffff851660048201526024016105f8565b6040517f6e553f65000000000000000000000000000000000000000000000000000000008152600481018290523060248201525f907f000000000000000000000000000000000000000000000000000000000000000073ffffffffffffffffffffffffffffffffffffffff1690636e553f65906044015b6020604051808303815f875af1158015611277573d5f803e3d5ffd5b505050506040513d601f19601f820116820180604052508101906110619190611b04565b808210156112df576040517f71c4efed00000000000000000000000000000000000000000000000000000000815260048101839052602481018290526044016105f8565b5050565b825163ffffffff7f000000000000000000000000000000000000000000000000000000000000000081169116036113255761132084848484611572565b610edf565b610edf848484846113d5565b6040517fba08765200000000000000000000000000000000000000000000000000000000815260048101829052306024820181905260448201525f907f000000000000000000000000000000000000000000000000000000000000000073ffffffffffffffffffffffffffffffffffffffff169063ba0876529060640161125b565b5f6113c2600c60088486611e95565b6113cb91611ef8565b60e01c9392505050565b8073ffffffffffffffffffffffffffffffffffffffff7f00000000000000000000000000000000000000000000000000000000000000008116908616036114c95760408481015190517f2e1a7d4d00000000000000000000000000000000000000000000000000000000815260048101919091527f000000000000000000000000000000000000000000000000000000000000000073ffffffffffffffffffffffffffffffffffffffff1690632e1a7d4d906024015f604051808303815f87803b1580156114a1575f80fd5b505af11580156114b3573d5f803e3d5ffd5b50505060408501516114c6915082611f40565b90505b6040805180820182528381525f602082015290517fc7c7f5b300000000000000000000000000000000000000000000000000000000815273ffffffffffffffffffffffffffffffffffffffff87169163c7c7f5b3918491611531918991908990600401611f53565b60c06040518083038185885af115801561154d573d5f803e3d5ffd5b50505050506040513d601f19601f8201168201806040525081019061113c9190611fa2565b80156115aa576040517f7578d2bd00000000000000000000000000000000000000000000000000000000815260040160405180910390fd5b5f7f000000000000000000000000000000000000000000000000000000000000000073ffffffffffffffffffffffffffffffffffffffff168573ffffffffffffffffffffffffffffffffffffffff1614611624577f0000000000000000000000000000000000000000000000000000000000000000611646565b7f00000000000000000000000000000000000000000000000000000000000000005b9050611679611656856020015190565b604086015173ffffffffffffffffffffffffffffffffffffffff84169190611680565b5050505050565b60405173ffffffffffffffffffffffffffffffffffffffff83811660248301526044820183905261042691859182169063a9059cbb90606401610e98565b7f4e487b71000000000000000000000000000000000000000000000000000000005f52604160045260245ffd5b60405160e0810167ffffffffffffffff8111828210171561170e5761170e6116be565b60405290565b604051601f82017fffffffffffffffffffffffffffffffffffffffffffffffffffffffffffffffe016810167ffffffffffffffff8111828210171561175b5761175b6116be565b604052919050565b63ffffffff81168114611774575f80fd5b50565b803561178281611763565b919050565b5f67ffffffffffffffff8211156117a0576117a06116be565b50601f017fffffffffffffffffffffffffffffffffffffffffffffffffffffffffffffffe01660200190565b5f82601f8301126117db575f80fd5b81356117ee6117e982611787565b611714565b818152846020838601011115611802575f80fd5b816020850160208301375f918101602001919091529392505050565b5f60e0828403121561182e575f80fd5b6118366116eb565b905061184182611777565b8152602082013560208201526040820135604082015260608201356060820152608082013567ffffffffffffffff8082111561187b575f80fd5b611887858386016117cc565b608084015260a084013591508082111561189f575f80fd5b6118ab858386016117cc565b60a084015260c08401359150808211156118c3575f80fd5b506118d0848285016117cc565b60c08301525092915050565b803573ffffffffffffffffffffffffffffffffffffffff81168114611782575f80fd5b5f805f60608486031215611911575f80fd5b83359250602084013567ffffffffffffffff81111561192e575f80fd5b61193a8682870161181e565b925050611949604085016118dc565b90509250925092565b5f805f8060808587031215611965575f80fd5b61196e856118dc565b935061197c602086016118dc565b925060408501359150606085013567ffffffffffffffff81111561199e575f80fd5b6119aa8782880161181e565b91505092959194509250565b815181526020808301519082015260408101611064565b5f805f80608085870312156119e0575f80fd5b6119e9856118dc565b935060208501359250604085013567ffffffffffffffff811115611a0b575f80fd5b611a17878288016117cc565b949793965093946060013593505050565b5f8083601f840112611a38575f80fd5b50813567ffffffffffffffff811115611a4f575f80fd5b602083019150836020828501011115611a66575f80fd5b9250929050565b5f805f805f805f60a0888a031215611a83575f80fd5b611a8c886118dc565b965060208801359550604088013567ffffffffffffffff80821115611aaf575f80fd5b611abb8b838c01611a28565b9097509550859150611acf60608b016118dc565b945060808a0135915080821115611ae4575f80fd5b50611af18a828b01611a28565b989b979a50959850939692959293505050565b5f60208284031215611b14575f80fd5b5051919050565b5f5b83811015611b35578181015183820152602001611b1d565b50505f910152565b5f8151808452611b54816020860160208601611b1b565b601f017fffffffffffffffffffffffffffffffffffffffffffffffffffffffffffffffe0169290920160200192915050565b63ffffffff81511682526020810151602083015260408101516040830152606081015160608301525f608082015160e06080850152611bc860e0850182611b3d565b905060a083015184820360a0860152611be18282611b3d565b91505060c083015184820360c08601526109138282611b3d565b604081525f611c0d6040830185611b86565b905082151560208301529392505050565b5f60408284031215611c2e575f80fd5b6040516040810181811067ffffffffffffffff82111715611c5157611c516116be565b604052825181526020928301519281019290925250919050565b5f60408284031215611c7b575f80fd5b6110618383611c1e565b805161178281611763565b5f82601f830112611c9f575f80fd5b8151611cad6117e982611787565b818152846020838601011115611cc1575f80fd5b611cd2826020830160208701611b1b565b949350505050565b5f8060408385031215611ceb575f80fd5b825167ffffffffffffffff80821115611d02575f80fd5b9084019060e08287031215611d15575f80fd5b611d1d6116eb565b611d2683611c85565b8152602083015160208201526040830151604082015260608301516060820152608083015182811115611d57575f80fd5b611d6388828601611c90565b60808301525060a083015182811115611d7a575f80fd5b611d8688828601611c90565b60a08301525060c083015182811115611d9d575f80fd5b611da988828601611c90565b60c08301525060209590950151949694955050505050565b7f4e487b71000000000000000000000000000000000000000000000000000000005f52601160045260245ffd5b8181038181111561106457611064611dc1565b73ffffffffffffffffffffffffffffffffffffffff85168152836020820152608060408201525f611e356080830185611b3d565b905082606083015295945050505050565b5f815160208301517fffffffff0000000000000000000000000000000000000000000000000000000080821693506004831015611e8d5780818460040360031b1b83161693505b505050919050565b5f8085851115611ea3575f80fd5b83861115611eaf575f80fd5b5050820193919092039150565b80356020831015611064577fffffffffffffffffffffffffffffffffffffffffffffffffffffffffffffffff602084900360031b1b1692915050565b7fffffffff000000000000000000000000000000000000000000000000000000008135818116916004851015611f385780818660040360031b1b83161692505b505092915050565b8082018082111561106457611064611dc1565b608081525f611f656080830186611b86565b9050611f7e602083018580518252602090810151910152565b73ffffffffffffffffffffffffffffffffffffffff83166060830152949350505050565b5f8082840360c0811215611fb4575f80fd5b6080811215611fc1575f80fd5b506040516060810167ffffffffffffffff8282108183111715611fe657611fe66116be565b8160405285518352602086015191508082168214612002575f80fd5b5060208201526120158560408601611c1e565b604082015291506120298460808501611c1e565b9050925092905056fea26469706673582212206d306113561f8384ff12100836ba4ed3d72c66bf40b46218e130ea23284ded1c64736f6c63430008160033",
    "linkReferences": {}
  },
  "methodIdentifiers": {
    "ASSET_ERC20()": "1df34fa3",
    "ASSET_OFT()": "0bfec755",
    "ENDPOINT()": "6fad06f5",
    "SHARE_ERC20()": "a99ecc54",
    "SHARE_OFT()": "369caf83",
    "VAULT()": "411557d1",
    "VAULT_EID()": "aa72fe3f",
    "depositAndSend(uint256,(uint32,bytes32,uint256,uint256,bytes,bytes,bytes),address)": "19197ec6",
    "depositNativeAndSend(uint256,(uint32,bytes32,uint256,uint256,bytes,bytes,bytes),address)": "a6392386",
    "handleCompose(address,bytes32,bytes,uint256)": "9a6b198c",
    "lzCompose(address,bytes32,bytes,address,bytes)": "d0a10260",
    "quoteSend(address,address,uint256,(uint32,bytes32,uint256,uint256,bytes,bytes,bytes))": "7e6e1e10",
    "redeemAndSend(uint256,(uint32,bytes32,uint256,uint256,bytes,bytes,bytes),address)": "53174fa4"
  },
  "id": 1
}