{
  "_format": "hh-sol-artifact-1",
  "contractName": "ERC721A",
  "sourceName": "erc721a/contracts/ERC721A.sol",
  "abi": [
    {
      "inputs": [
        {
          "internalType": "string",
          "name": "name_",
          "type": "string"
        },
        {
          "internalType": "string",
          "name": "symbol_",
          "type": "string"
        }
      ],
      "stateMutability": "nonpayable",
      "type": "constructor"
    },
    {
      "inputs": [],
      "name": "ApprovalCallerNotOwnerNorApproved",
      "type": "error"
    },
    {
      "inputs": [],
      "name": "ApprovalQueryForNonexistentToken",
      "type": "error"
    },
    {
      "inputs": [],
      "name": "BalanceQueryForZeroAddress",
      "type": "error"
    },
    {
      "inputs": [],
      "name": "MintERC2309QuantityExceedsLimit",
      "type": "error"
    },
    {
      "inputs": [],
      "name": "MintToZeroAddress",
      "type": "error"
    },
    {
      "inputs": [],
      "name": "MintZeroQuantity",
      "type": "error"
    },
    {
      "inputs": [],
      "name": "NotCompatibleWithSpotMints",
      "type": "error"
    },
    {
      "inputs": [],
      "name": "OwnerQueryForNonexistentToken",
      "type": "error"
    },
    {
      "inputs": [],
      "name": "OwnershipNotInitializedForExtraData",
      "type": "error"
    },
    {
      "inputs": [],
      "name": "SequentialMintExceedsLimit",
      "type": "error"
    },
    {
      "inputs": [],
      "name": "SequentialUpToTooSmall",
      "type": "error"
    },
    {
      "inputs": [],
      "name": "SpotMintTokenIdTooSmall",
      "type": "error"
    },
    {
      "inputs": [],
      "name": "TokenAlreadyExists",
      "type": "error"
    },
    {
      "inputs": [],
      "name": "TransferCallerNotOwnerNorApproved",
      "type": "error"
    },
    {
      "inputs": [],
      "name": "TransferFromIncorrectOwner",
      "type": "error"
    },
    {
      "inputs": [],
      "name": "TransferToNonERC721ReceiverImplementer",
      "type": "error"
    },
    {
      "inputs": [],
      "name": "TransferToZeroAddress",
      "type": "error"
    },
    {
      "inputs": [],
      "name": "URIQueryForNonexistentToken",
      "type": "error"
    },
    {
      "anonymous": false,
      "inputs": [
        {
          "indexed": true,
          "internalType": "address",
          "name": "owner",
          "type": "address"
        },
        {
          "indexed": true,
          "internalType": "address",
          "name": "approved",
          "type": "address"
        },
        {
          "indexed": true,
          "internalType": "uint256",
          "name": "tokenId",
          "type": "uint256"
        }
      ],
      "name": "Approval",
      "type": "event"
    },
    {
      "anonymous": false,
      "inputs": [
        {
          "indexed": true,
          "internalType": "address",
          "name": "owner",
          "type": "address"
        },
        {
          "indexed": true,
          "internalType": "address",
          "name": "operator",
          "type": "address"
        },
        {
          "indexed": false,
          "internalType": "bool",
          "name": "approved",
          "type": "bool"
        }
      ],
      "name": "ApprovalForAll",
      "type": "event"
    },
    {
      "anonymous": false,
      "inputs": [
        {
          "indexed": true,
          "internalType": "uint256",
          "name": "fromTokenId",
          "type": "uint256"
        },
        {
          "indexed": false,
          "internalType": "uint256",
          "name": "toTokenId",
          "type": "uint256"
        },
        {
          "indexed": true,
          "internalType": "address",
          "name": "from",
          "type": "address"
        },
        {
          "indexed": true,
          "internalType": "address",
          "name": "to",
          "type": "address"
        }
      ],
      "name": "ConsecutiveTransfer",
      "type": "event"
    },
    {
      "anonymous": false,
      "inputs": [
        {
          "indexed": true,
          "internalType": "address",
          "name": "from",
          "type": "address"
        },
        {
          "indexed": true,
          "internalType": "address",
          "name": "to",
          "type": "address"
        },
        {
          "indexed": true,
          "internalType": "uint256",
          "name": "tokenId",
          "type": "uint256"
        }
      ],
      "name": "Transfer",
      "type": "event"
    },
    {
      "inputs": [
        {
          "internalType": "address",
          "name": "to",
          "type": "address"
        },
        {
          "internalType": "uint256",
          "name": "tokenId",
          "type": "uint256"
        }
      ],
      "name": "approve",
      "outputs": [],
      "stateMutability": "payable",
      "type": "function"
    },
    {
      "inputs": [
        {
          "internalType": "address",
          "name": "owner",
          "type": "address"
        }
      ],
      "name": "balanceOf",
      "outputs": [
        {
          "internalType": "uint256",
          "name": "",
          "type": "uint256"
        }
      ],
      "stateMutability": "view",
      "type": "function"
    },
    {
      "inputs": [
        {
          "internalType": "uint256",
          "name": "tokenId",
          "type": "uint256"
        }
      ],
      "name": "getApproved",
      "outputs": [
        {
          "internalType": "address",
          "name": "",
          "type": "address"
        }
      ],
      "stateMutability": "view",
      "type": "function"
    },
    {
      "inputs": [
        {
          "internalType": "address",
          "name": "owner",
          "type": "address"
        },
        {
          "internalType": "address",
          "name": "operator",
          "type": "address"
        }
      ],
      "name": "isApprovedForAll",
      "outputs": [
        {
          "internalType": "bool",
          "name": "",
          "type": "bool"
        }
      ],
      "stateMutability": "view",
      "type": "function"
    },
    {
      "inputs": [],
      "name": "name",
      "outputs": [
        {
          "internalType": "string",
          "name": "",
          "type": "string"
        }
      ],
      "stateMutability": "view",
      "type": "function"
    },
    {
      "inputs": [
        {
          "internalType": "uint256",
          "name": "tokenId",
          "type": "uint256"
        }
      ],
      "name": "ownerOf",
      "outputs": [
        {
          "internalType": "address",
          "name": "",
          "type": "address"
        }
      ],
      "stateMutability": "view",
      "type": "function"
    },
    {
      "inputs": [
        {
          "internalType": "address",
          "name": "from",
          "type": "address"
        },
        {
          "internalType": "address",
          "name": "to",
          "type": "address"
        },
        {
          "internalType": "uint256",
          "name": "tokenId",
          "type": "uint256"
        }
      ],
      "name": "safeTransferFrom",
      "outputs": [],
      "stateMutability": "payable",
      "type": "function"
    },
    {
      "inputs": [
        {
          "internalType": "address",
          "name": "from",
          "type": "address"
        },
        {
          "internalType": "address",
          "name": "to",
          "type": "address"
        },
        {
          "internalType": "uint256",
          "name": "tokenId",
          "type": "uint256"
        },
        {
          "internalType": "bytes",
          "name": "_data",
          "type": "bytes"
        }
      ],
      "name": "safeTransferFrom",
      "outputs": [],
      "stateMutability": "payable",
      "type": "function"
    },
    {
      "inputs": [
        {
          "internalType": "address",
          "name": "operator",
          "type": "address"
        },
        {
          "internalType": "bool",
          "name": "approved",
          "type": "bool"
        }
      ],
      "name": "setApprovalForAll",
      "outputs": [],
      "stateMutability": "nonpayable",
      "type": "function"
    },
    {
      "inputs": [
        {
          "internalType": "bytes4",
          "name": "interfaceId",
          "type": "bytes4"
        }
      ],
      "name": "supportsInterface",
      "outputs": [
        {
          "internalType": "bool",
          "name": "",
          "type": "bool"
        }
      ],
      "stateMutability": "view",
      "type": "function"
    },
    {
      "inputs": [],
      "name": "symbol",
      "outputs": [
        {
          "internalType": "string",
          "name": "",
          "type": "string"
        }
      ],
      "stateMutability": "view",
      "type": "function"
    },
    {
      "inputs": [
        {
          "internalType": "uint256",
          "name": "tokenId",
          "type": "uint256"
        }
      ],
      "name": "tokenURI",
      "outputs": [
        {
          "internalType": "string",
          "name": "",
          "type": "string"
        }
      ],
      "stateMutability": "view",
      "type": "function"
    },
    {
      "inputs": [],
      "name": "totalSupply",
      "outputs": [
        {
          "internalType": "uint256",
          "name": "result",
          "type": "uint256"
        }
      ],
      "stateMutability": "view",
      "type": "function"
    },
    {
      "inputs": [
        {
          "internalType": "address",
          "name": "from",
          "type": "address"
        },
        {
          "internalType": "address",
          "name": "to",
          "type": "address"
        },
        {
          "internalType": "uint256",
          "name": "tokenId",
          "type": "uint256"
        }
      ],
      "name": "transferFrom",
      "outputs": [],
      "stateMutability": "payable",
      "type": "function"
    }
  ],
  "bytecode": "0x60806040523480156200001157600080fd5b506040516200107d3803806200107d833981016040819052620000349162000126565b600262000042838262000221565b50600362000051828262000221565b50506000805550620002ed565b634e487b7160e01b600052604160045260246000fd5b600082601f8301126200008657600080fd5b81516001600160401b0380821115620000a357620000a36200005e565b604051601f8301601f19908116603f01168101908282118183101715620000ce57620000ce6200005e565b8160405283815260209250866020858801011115620000ec57600080fd5b600091505b83821015620001105785820183015181830184015290820190620000f1565b6000602085830101528094505050505092915050565b600080604083850312156200013a57600080fd5b82516001600160401b03808211156200015257600080fd5b620001608683870162000074565b935060208501519150808211156200017757600080fd5b50620001868582860162000074565b9150509250929050565b600181811c90821680620001a557607f821691505b602082108103620001c657634e487b7160e01b600052602260045260246000fd5b50919050565b601f8211156200021c576000816000526020600020601f850160051c81016020861015620001f75750805b601f850160051c820191505b81811015620002185782815560010162000203565b5050505b505050565b81516001600160401b038111156200023d576200023d6200005e565b62000255816200024e845462000190565b84620001cc565b602080601f8311600181146200028d5760008415620002745750858301515b600019600386901b1c1916600185901b17855562000218565b600085815260208120601f198616915b82811015620002be578886015182559484019460019091019084016200029d565b5085821015620002dd5787850151600019600388901b60f8161c191681555b5050505050600190811b01905550565b610d8080620002fd6000396000f3fe6080604052600436106100dd5760003560e01c80636352211e1161007f578063a22cb46511610059578063a22cb46514610224578063b88d4fde14610244578063c87b56dd14610257578063e985e9c51461027757600080fd5b80636352211e146101cf57806370a08231146101ef57806395d89b411461020f57600080fd5b8063095ea7b3116100bb578063095ea7b31461017157806318160ddd1461018657806323b872dd146101a957806342842e0e146101bc57600080fd5b806301ffc9a7146100e257806306fdde0314610117578063081812fc14610139575b600080fd5b3480156100ee57600080fd5b506101026100fd3660046109d0565b6102c0565b60405190151581526020015b60405180910390f35b34801561012357600080fd5b5061012c610312565b60405161010e9190610a3d565b34801561014557600080fd5b50610159610154366004610a50565b6103a4565b6040516001600160a01b03909116815260200161010e565b61018461017f366004610a80565b6103df565b005b34801561019257600080fd5b50600154600054035b60405190815260200161010e565b6101846101b7366004610aaa565b6103ef565b6101846101ca366004610aaa565b610554565b3480156101db57600080fd5b506101596101ea366004610a50565b610574565b3480156101fb57600080fd5b5061019b61020a366004610ae6565b61057f565b34801561021b57600080fd5b5061012c6105c5565b34801561023057600080fd5b5061018461023f366004610b01565b6105d4565b610184610252366004610b53565b610640565b34801561026357600080fd5b5061012c610272366004610a50565b610681565b34801561028357600080fd5b50610102610292366004610c2f565b6001600160a01b03918216600090815260076020908152604080832093909416825291909152205460ff1690565b60006301ffc9a760e01b6001600160e01b0319831614806102f157506380ac58cd60e01b6001600160e01b03198316145b8061030c5750635b5e139f60e01b6001600160e01b03198316145b92915050565b60606002805461032190610c62565b80601f016020809104026020016040519081016040528092919081815260200182805461034d90610c62565b801561039a5780601f1061036f5761010080835404028352916020019161039a565b820191906000526020600020905b81548152906001019060200180831161037d57829003601f168201915b5050505050905090565b60006103af82610709565b6103c3576103c36333d1c03960e21b61074e565b506000908152600660205260409020546001600160a01b031690565b6103eb82826001610758565b5050565b60006103fa826107fb565b6001600160a01b0394851694909150811684146104205761042062a1148160e81b61074e565b60008281526006602052604090208054338082146001600160a01b03881690911417610464576104508633610292565b61046457610464632ce44b5f60e11b61074e565b801561046f57600082555b6001600160a01b038681166000908152600560205260408082208054600019019055918716808252919020805460010190554260a01b17600160e11b17600085815260046020526040812091909155600160e11b84169003610501576001840160008181526004602052604081205490036104ff5760005481146104ff5760008181526004602052604090208490555b505b6001600160a01b0385168481887fddf252ad1be2c89b69c2b068fc378daa952ba7f163c4a11628f55a4df523b3ef600080a48060000361054b5761054b633a954ecd60e21b61074e565b50505050505050565b61056f83838360405180602001604052806000815250610640565b505050565b600061030c826107fb565b60006001600160a01b03821661059f5761059f6323d3ad8160e21b61074e565b506001600160a01b031660009081526005602052604090205467ffffffffffffffff1690565b60606003805461032190610c62565b3360008181526007602090815260408083206001600160a01b03871680855290835292819020805460ff191686151590811790915590519081529192917f17307eab39ab6107e8899845ad3d59bd9653f200f220920489ca2b5937696c31910160405180910390a35050565b61064b8484846103ef565b6001600160a01b0383163b1561067b5761066784848484610891565b61067b5761067b6368d2bf6b60e11b61074e565b50505050565b606061068c82610709565b6106a0576106a0630a14c4b560e41b61074e565b60006106b760408051602081019091526000815290565b905080516000036106d75760405180602001604052806000815250610702565b806106e184610973565b6040516020016106f2929190610c9c565b6040516020818303038152906040525b9392505050565b600080548210156107495760005b506000828152600460205260408120549081900361073f5761073883610ccb565b9250610717565b600160e01b161590505b919050565b8060005260046000fd5b600061076383610574565b905081801561077b5750336001600160a01b03821614155b1561079e5761078a8133610292565b61079e5761079e6367d9dca160e11b61074e565b60008381526006602052604080822080546001600160a01b0319166001600160a01b0388811691821790925591518693918516917f8c5be1e5ebec7d5bd14f71427d1e84f3dd0314c0f7b2291e5b200ac8c7c3b92591a450505050565b6000818152600460205260409020548060000361086e57600054821061082b5761082b636f96cda160e11b61074e565b5b5060001901600081815260046020526040902054801561082c57600160e01b811660000361085957919050565b610869636f96cda160e11b61074e565b61082c565b600160e01b811660000361088157919050565b610749636f96cda160e11b61074e565b604051630a85bd0160e11b81526000906001600160a01b0385169063150b7a02906108c6903390899088908890600401610cf0565b6020604051808303816000875af1925050508015610901575060408051601f3d908101601f191682019092526108fe91810190610d2d565b60015b610956573d80801561092f576040519150601f19603f3d011682016040523d82523d6000602084013e610934565b606091505b50805160000361094e5761094e6368d2bf6b60e11b61074e565b805181602001fd5b6001600160e01b031916630a85bd0160e11b149050949350505050565b606060a06040510180604052602081039150506000815280825b600183039250600a81066030018353600a90048061098d5750819003601f19909101908152919050565b6001600160e01b0319811681146109cd57600080fd5b50565b6000602082840312156109e257600080fd5b8135610702816109b7565b60005b83811015610a085781810151838201526020016109f0565b50506000910152565b60008151808452610a298160208601602086016109ed565b601f01601f19169290920160200192915050565b6020815260006107026020830184610a11565b600060208284031215610a6257600080fd5b5035919050565b80356001600160a01b038116811461074957600080fd5b60008060408385031215610a9357600080fd5b610a9c83610a69565b946020939093013593505050565b600080600060608486031215610abf57600080fd5b610ac884610a69565b9250610ad660208501610a69565b9150604084013590509250925092565b600060208284031215610af857600080fd5b61070282610a69565b60008060408385031215610b1457600080fd5b610b1d83610a69565b915060208301358015158114610b3257600080fd5b809150509250929050565b634e487b7160e01b600052604160045260246000fd5b60008060008060808587031215610b6957600080fd5b610b7285610a69565b9350610b8060208601610a69565b925060408501359150606085013567ffffffffffffffff80821115610ba457600080fd5b818701915087601f830112610bb857600080fd5b813581811115610bca57610bca610b3d565b604051601f8201601f19908116603f01168101908382118183101715610bf257610bf2610b3d565b816040528281528a6020848701011115610c0b57600080fd5b82602086016020830137600060208483010152809550505050505092959194509250565b60008060408385031215610c4257600080fd5b610c4b83610a69565b9150610c5960208401610a69565b90509250929050565b600181811c90821680610c7657607f821691505b602082108103610c9657634e487b7160e01b600052602260045260246000fd5b50919050565b60008351610cae8184602088016109ed565b835190830190610cc28183602088016109ed565b01949350505050565b600081610ce857634e487b7160e01b600052601160045260246000fd5b506000190190565b6001600160a01b0385811682528416602082015260408101839052608060608201819052600090610d2390830184610a11565b9695505050505050565b600060208284031215610d3f57600080fd5b8151610702816109b756fea26469706673582212200bf5647e4becdd514df8ae7fb2aac077ed667034e0da6cc78b2949d06bf4b2c364736f6c63430008160033",
  "linkReferences": {},
  "deployedLinkReferences": {}
}