{
  "address": "0xb8D3F18004117455186197b1a280B6cF40caa60A",
  "abi": [
    {
      "inputs": [
        {
          "internalType": "string",
          "name": "_name",
          "type": "string"
        },
        {
          "internalType": "string",
          "name": "_symbol",
          "type": "string"
        },
        {
          "internalType": "uint256",
          "name": "_minGasToTransfer",
          "type": "uint256"
        },
        {
          "internalType": "address",
          "name": "_layerZeroEndpoint",
          "type": "address"
        },
        {
          "internalType": "uint256[]",
          "name": "_indexArray",
          "type": "uint256[]"
        },
        {
          "internalType": "uint256[]",
          "name": "_valueArray",
          "type": "uint256[]"
        }
      ],
      "stateMutability": "nonpayable",
      "type": "constructor"
    },
    {
      "anonymous": false,
      "inputs": [
        {
          "indexed": true,
          "internalType": "address",
          "name": "owner",
          "type": "address"
        },
        {
          "indexed": true,
          "internalType": "address",
          "name": "approved",
          "type": "address"
        },
        {
          "indexed": true,
          "internalType": "uint256",
          "name": "tokenId",
          "type": "uint256"
        }
      ],
      "name": "Approval",
      "type": "event"
    },
    {
      "anonymous": false,
      "inputs": [
        {
          "indexed": true,
          "internalType": "address",
          "name": "owner",
          "type": "address"
        },
        {
          "indexed": true,
          "internalType": "address",
          "name": "operator",
          "type": "address"
        },
        {
          "indexed": false,
          "internalType": "bool",
          "name": "approved",
          "type": "bool"
        }
      ],
      "name": "ApprovalForAll",
      "type": "event"
    },
    {
      "anonymous": false,
      "inputs": [
        {
          "indexed": false,
          "internalType": "bytes32",
          "name": "_hashedPayload",
          "type": "bytes32"
        }
      ],
      "name": "CreditCleared",
      "type": "event"
    },
    {
      "anonymous": false,
      "inputs": [
        {
          "indexed": false,
          "internalType": "bytes32",
          "name": "_hashedPayload",
          "type": "bytes32"
        },
        {
          "indexed": false,
          "internalType": "bytes",
          "name": "_payload",
          "type": "bytes"
        }
      ],
      "name": "CreditStored",
      "type": "event"
    },
    {
      "anonymous": false,
      "inputs": [
        {
          "indexed": true,
          "internalType": "uint16",
          "name": "_srcChainId",
          "type": "uint16"
        },
        {
          "components": [
            {
              "internalType": "uint256",
              "name": "index",
              "type": "uint256"
            },
            {
              "internalType": "uint256",
              "name": "value",
              "type": "uint256"
            }
          ],
          "indexed": false,
          "internalType": "struct DistributeONFT721.TokenDistribute[]",
          "name": "tokenDistribute",
          "type": "tuple[]"
        }
      ],
      "name": "Distribute",
      "type": "event"
    },
    {
      "anonymous": false,
      "inputs": [
        {
          "indexed": false,
          "internalType": "uint16",
          "name": "_srcChainId",
          "type": "uint16"
        },
        {
          "indexed": false,
          "internalType": "bytes",
          "name": "_srcAddress",
          "type": "bytes"
        },
        {
          "indexed": false,
          "internalType": "uint64",
          "name": "_nonce",
          "type": "uint64"
        },
        {
          "indexed": false,
          "internalType": "bytes",
          "name": "_payload",
          "type": "bytes"
        },
        {
          "indexed": false,
          "internalType": "bytes",
          "name": "_reason",
          "type": "bytes"
        }
      ],
      "name": "MessageFailed",
      "type": "event"
    },
    {
      "anonymous": false,
      "inputs": [
        {
          "indexed": true,
          "internalType": "address",
          "name": "previousOwner",
          "type": "address"
        },
        {
          "indexed": true,
          "internalType": "address",
          "name": "newOwner",
          "type": "address"
        }
      ],
      "name": "OwnershipTransferred",
      "type": "event"
    },
    {
      "anonymous": false,
      "inputs": [
        {
          "indexed": true,
          "internalType": "uint16",
          "name": "_srcChainId",
          "type": "uint16"
        },
        {
          "indexed": true,
          "internalType": "bytes",
          "name": "_srcAddress",
          "type": "bytes"
        },
        {
          "components": [
            {
              "internalType": "uint256",
              "name": "index",
              "type": "uint256"
            },
            {
              "internalType": "uint256",
              "name": "value",
              "type": "uint256"
            }
          ],
          "indexed": false,
          "internalType": "struct DistributeONFT721.TokenDistribute[]",
          "name": "tokenDistribute",
          "type": "tuple[]"
        }
      ],
      "name": "ReceiveDistribute",
      "type": "event"
    },
    {
      "anonymous": false,
      "inputs": [
        {
          "indexed": true,
          "internalType": "uint16",
          "name": "_srcChainId",
          "type": "uint16"
        },
        {
          "indexed": true,
          "internalType": "bytes",
          "name": "_srcAddress",
          "type": "bytes"
        },
        {
          "indexed": true,
          "internalType": "address",
          "name": "_toAddress",
          "type": "address"
        },
        {
          "indexed": false,
          "internalType": "uint256[]",
          "name": "_tokenIds",
          "type": "uint256[]"
        }
      ],
      "name": "ReceiveFromChain",
      "type": "event"
    },
    {
      "anonymous": false,
      "inputs": [
        {
          "indexed": false,
          "internalType": "uint16",
          "name": "_srcChainId",
          "type": "uint16"
        },
        {
          "indexed": false,
          "internalType": "bytes",
          "name": "_srcAddress",
          "type": "bytes"
        },
        {
          "indexed": false,
          "internalType": "uint64",
          "name": "_nonce",
          "type": "uint64"
        },
        {
          "indexed": false,
          "internalType": "bytes32",
          "name": "_payloadHash",
          "type": "bytes32"
        }
      ],
      "name": "RetryMessageSuccess",
      "type": "event"
    },
    {
      "anonymous": false,
      "inputs": [
        {
          "indexed": true,
          "internalType": "uint16",
          "name": "_dstChainId",
          "type": "uint16"
        },
        {
          "indexed": true,
          "internalType": "address",
          "name": "_from",
          "type": "address"
        },
        {
          "indexed": true,
          "internalType": "bytes",
          "name": "_toAddress",
          "type": "bytes"
        },
        {
          "indexed": false,
          "internalType": "uint256[]",
          "name": "_tokenIds",
          "type": "uint256[]"
        }
      ],
      "name": "SendToChain",
      "type": "event"
    },
    {
      "anonymous": false,
      "inputs": [
        {
          "indexed": false,
          "internalType": "uint256",
          "name": "_distributeBaseDstGas",
          "type": "uint256"
        }
      ],
      "name": "SetDistributeBaseDstGas",
      "type": "event"
    },
    {
      "anonymous": false,
      "inputs": [
        {
          "indexed": false,
          "internalType": "uint256",
          "name": "_distributeGasPerIdx",
          "type": "uint256"
        }
      ],
      "name": "SetDistributeGasPerIdx",
      "type": "event"
    },
    {
      "anonymous": false,
      "inputs": [
        {
          "indexed": false,
          "internalType": "uint16",
          "name": "_dstChainId",
          "type": "uint16"
        },
        {
          "indexed": false,
          "internalType": "uint256",
          "name": "_dstChainIdToBatchLimit",
          "type": "uint256"
        }
      ],
      "name": "SetDstChainIdToBatchLimit",
      "type": "event"
    },
    {
      "anonymous": false,
      "inputs": [
        {
          "indexed": false,
          "internalType": "uint16",
          "name": "_dstChainId",
          "type": "uint16"
        },
        {
          "indexed": false,
          "internalType": "uint256",
          "name": "_dstChainIdToTransferGas",
          "type": "uint256"
        }
      ],
      "name": "SetDstChainIdToTransferGas",
      "type": "event"
    },
    {
      "anonymous": false,
      "inputs": [
        {
          "indexed": false,
          "internalType": "uint16",
          "name": "_dstChainId",
          "type": "uint16"
        },
        {
          "indexed": false,
          "internalType": "uint16",
          "name": "_type",
          "type": "uint16"
        },
        {
          "indexed": false,
          "internalType": "uint256",
          "name": "_minDstGas",
          "type": "uint256"
        }
      ],
      "name": "SetMinDstGas",
      "type": "event"
    },
    {
      "anonymous": false,
      "inputs": [
        {
          "indexed": false,
          "internalType": "uint256",
          "name": "_minGasToTransferAndStore",
          "type": "uint256"
        }
      ],
      "name": "SetMinGasToTransferAndStore",
      "type": "event"
    },
    {
      "anonymous": false,
      "inputs": [
        {
          "indexed": false,
          "internalType": "address",
          "name": "precrime",
          "type": "address"
        }
      ],
      "name": "SetPrecrime",
      "type": "event"
    },
    {
      "anonymous": false,
      "inputs": [
        {
          "indexed": false,
          "internalType": "uint16",
          "name": "_remoteChainId",
          "type": "uint16"
        },
        {
          "indexed": false,
          "internalType": "bytes",
          "name": "_path",
          "type": "bytes"
        }
      ],
      "name": "SetTrustedRemote",
      "type": "event"
    },
    {
      "anonymous": false,
      "inputs": [
        {
          "indexed": false,
          "internalType": "uint16",
          "name": "_remoteChainId",
          "type": "uint16"
        },
        {
          "indexed": false,
          "internalType": "bytes",
          "name": "_remoteAddress",
          "type": "bytes"
        }
      ],
      "name": "SetTrustedRemoteAddress",
      "type": "event"
    },
    {
      "anonymous": false,
      "inputs": [
        {
          "indexed": true,
          "internalType": "address",
          "name": "from",
          "type": "address"
        },
        {
          "indexed": true,
          "internalType": "address",
          "name": "to",
          "type": "address"
        },
        {
          "indexed": true,
          "internalType": "uint256",
          "name": "tokenId",
          "type": "uint256"
        }
      ],
      "name": "Transfer",
      "type": "event"
    },
    {
      "inputs": [],
      "name": "DEFAULT_PAYLOAD_SIZE_LIMIT",
      "outputs": [
        {
          "internalType": "uint256",
          "name": "",
          "type": "uint256"
        }
      ],
      "stateMutability": "view",
      "type": "function"
    },
    {
      "inputs": [],
      "name": "FUNCTION_TYPE_DISTRIBUTE",
      "outputs": [
        {
          "internalType": "uint16",
          "name": "",
          "type": "uint16"
        }
      ],
      "stateMutability": "view",
      "type": "function"
    },
    {
      "inputs": [],
      "name": "FUNCTION_TYPE_SEND",
      "outputs": [
        {
          "internalType": "uint16",
          "name": "",
          "type": "uint16"
        }
      ],
      "stateMutability": "view",
      "type": "function"
    },
    {
      "inputs": [],
      "name": "MAX_TOKENS_PER_INDEX",
      "outputs": [
        {
          "internalType": "uint16",
          "name": "",
          "type": "uint16"
        }
      ],
      "stateMutability": "view",
      "type": "function"
    },
    {
      "inputs": [],
      "name": "NUM_TOKENS_PER_INDEX",
      "outputs": [
        {
          "internalType": "uint16",
          "name": "",
          "type": "uint16"
        }
      ],
      "stateMutability": "view",
      "type": "function"
    },
    {
      "inputs": [
        {
          "internalType": "address",
          "name": "to",
          "type": "address"
        },
        {
          "internalType": "uint256",
          "name": "tokenId",
          "type": "uint256"
        }
      ],
      "name": "approve",
      "outputs": [],
      "stateMutability": "nonpayable",
      "type": "function"
    },
    {
      "inputs": [
        {
          "internalType": "address",
          "name": "owner",
          "type": "address"
        }
      ],
      "name": "balanceOf",
      "outputs": [
        {
          "internalType": "uint256",
          "name": "",
          "type": "uint256"
        }
      ],
      "stateMutability": "view",
      "type": "function"
    },
    {
      "inputs": [
        {
          "internalType": "bytes",
          "name": "_payload",
          "type": "bytes"
        }
      ],
      "name": "clearCredits",
      "outputs": [],
      "stateMutability": "nonpayable",
      "type": "function"
    },
    {
      "inputs": [],
      "name": "countAllSetBits",
      "outputs": [
        {
          "internalType": "uint256",
          "name": "count",
          "type": "uint256"
        }
      ],
      "stateMutability": "view",
      "type": "function"
    },
    {
      "inputs": [],
      "name": "distributeBaseDstGas",
      "outputs": [
        {
          "internalType": "uint256",
          "name": "",
          "type": "uint256"
        }
      ],
      "stateMutability": "view",
      "type": "function"
    },
    {
      "inputs": [],
      "name": "distributeGasPerIdx",
      "outputs": [
        {
          "internalType": "uint256",
          "name": "",
          "type": "uint256"
        }
      ],
      "stateMutability": "view",
      "type": "function"
    },
    {
      "inputs": [
        {
          "internalType": "uint16",
          "name": "_dstChainId",
          "type": "uint16"
        },
        {
          "components": [
            {
              "internalType": "uint256",
              "name": "index",
              "type": "uint256"
            },
            {
              "internalType": "uint256",
              "name": "value",
              "type": "uint256"
            }
          ],
          "internalType": "struct DistributeONFT721.TokenDistribute[]",
          "name": "_tokenDistribute",
          "type": "tuple[]"
        },
        {
          "internalType": "address payable",
          "name": "_refundAddress",
          "type": "address"
        },
        {
          "internalType": "address",
          "name": "_zroPaymentAddress",
          "type": "address"
        }
      ],
      "name": "distributeTokens",
      "outputs": [],
      "stateMutability": "payable",
      "type": "function"
    },
    {
      "inputs": [
        {
          "internalType": "uint16",
          "name": "",
          "type": "uint16"
        }
      ],
      "name": "dstChainIdToBatchLimit",
      "outputs": [
        {
          "internalType": "uint256",
          "name": "",
          "type": "uint256"
        }
      ],
      "stateMutability": "view",
      "type": "function"
    },
    {
      "inputs": [
        {
          "internalType": "uint16",
          "name": "",
          "type": "uint16"
        }
      ],
      "name": "dstChainIdToTransferGas",
      "outputs": [
        {
          "internalType": "uint256",
          "name": "",
          "type": "uint256"
        }
      ],
      "stateMutability": "view",
      "type": "function"
    },
    {
      "inputs": [
        {
          "internalType": "uint16",
          "name": "_dstChainId",
          "type": "uint16"
        },
        {
          "components": [
            {
              "internalType": "uint256",
              "name": "index",
              "type": "uint256"
            },
            {
              "internalType": "uint256",
              "name": "value",
              "type": "uint256"
            }
          ],
          "internalType": "struct DistributeONFT721.TokenDistribute[]",
          "name": "_tokenDistribute",
          "type": "tuple[]"
        },
        {
          "internalType": "bool",
          "name": "_useZro",
          "type": "bool"
        }
      ],
      "name": "estimateDistributeFee",
      "outputs": [
        {
          "internalType": "uint256",
          "name": "nativeFee",
          "type": "uint256"
        },
        {
          "internalType": "uint256",
          "name": "zroFee",
          "type": "uint256"
        }
      ],
      "stateMutability": "view",
      "type": "function"
    },
    {
      "inputs": [
        {
          "internalType": "uint16",
          "name": "_dstChainId",
          "type": "uint16"
        },
        {
          "internalType": "bytes",
          "name": "_toAddress",
          "type": "bytes"
        },
        {
          "internalType": "uint256[]",
          "name": "_tokenIds",
          "type": "uint256[]"
        },
        {
          "internalType": "bool",
          "name": "_useZro",
          "type": "bool"
        },
        {
          "internalType": "bytes",
          "name": "_adapterParams",
          "type": "bytes"
        }
      ],
      "name": "estimateSendBatchFee",
      "outputs": [
        {
          "internalType": "uint256",
          "name": "nativeFee",
          "type": "uint256"
        },
        {
          "internalType": "uint256",
          "name": "zroFee",
          "type": "uint256"
        }
      ],
      "stateMutability": "view",
      "type": "function"
    },
    {
      "inputs": [
        {
          "internalType": "uint16",
          "name": "_dstChainId",
          "type": "uint16"
        },
        {
          "internalType": "bytes",
          "name": "_toAddress",
          "type": "bytes"
        },
        {
          "internalType": "uint256",
          "name": "_tokenId",
          "type": "uint256"
        },
        {
          "internalType": "bool",
          "name": "_useZro",
          "type": "bool"
        },
        {
          "internalType": "bytes",
          "name": "_adapterParams",
          "type": "bytes"
        }
      ],
      "name": "estimateSendFee",
      "outputs": [
        {
          "internalType": "uint256",
          "name": "nativeFee",
          "type": "uint256"
        },
        {
          "internalType": "uint256",
          "name": "zroFee",
          "type": "uint256"
        }
      ],
      "stateMutability": "view",
      "type": "function"
    },
    {
      "inputs": [
        {
          "internalType": "uint16",
          "name": "",
          "type": "uint16"
        },
        {
          "internalType": "bytes",
          "name": "",
          "type": "bytes"
        },
        {
          "internalType": "uint64",
          "name": "",
          "type": "uint64"
        }
      ],
      "name": "failedMessages",
      "outputs": [
        {
          "internalType": "bytes32",
          "name": "",
          "type": "bytes32"
        }
      ],
      "stateMutability": "view",
      "type": "function"
    },
    {
      "inputs": [
        {
          "internalType": "uint16",
          "name": "_srcChainId",
          "type": "uint16"
        },
        {
          "internalType": "bytes",
          "name": "_srcAddress",
          "type": "bytes"
        }
      ],
      "name": "forceResumeReceive",
      "outputs": [],
      "stateMutability": "nonpayable",
      "type": "function"
    },
    {
      "inputs": [
        {
          "internalType": "uint256",
          "name": "tokenId",
          "type": "uint256"
        }
      ],
      "name": "getApproved",
      "outputs": [
        {
          "internalType": "address",
          "name": "",
          "type": "address"
        }
      ],
      "stateMutability": "view",
      "type": "function"
    },
    {
      "inputs": [
        {
          "internalType": "uint16",
          "name": "_version",
          "type": "uint16"
        },
        {
          "internalType": "uint16",
          "name": "_chainId",
          "type": "uint16"
        },
        {
          "internalType": "address",
          "name": "",
          "type": "address"
        },
        {
          "internalType": "uint256",
          "name": "_configType",
          "type": "uint256"
        }
      ],
      "name": "getConfig",
      "outputs": [
        {
          "internalType": "bytes",
          "name": "",
          "type": "bytes"
        }
      ],
      "stateMutability": "view",
      "type": "function"
    },
    {
      "inputs": [
        {
          "internalType": "uint256",
          "name": "_amount",
          "type": "uint256"
        }
      ],
      "name": "getDistributeTokens",
      "outputs": [
        {
          "components": [
            {
              "internalType": "uint256",
              "name": "index",
              "type": "uint256"
            },
            {
              "internalType": "uint256",
              "name": "value",
              "type": "uint256"
            }
          ],
          "internalType": "struct DistributeONFT721.TokenDistribute[]",
          "name": "",
          "type": "tuple[]"
        }
      ],
      "stateMutability": "view",
      "type": "function"
    },
    {
      "inputs": [
        {
          "internalType": "uint16",
          "name": "_remoteChainId",
          "type": "uint16"
        }
      ],
      "name": "getTrustedRemoteAddress",
      "outputs": [
        {
          "internalType": "bytes",
          "name": "",
          "type": "bytes"
        }
      ],
      "stateMutability": "view",
      "type": "function"
    },
    {
      "inputs": [
        {
          "internalType": "address",
          "name": "owner",
          "type": "address"
        },
        {
          "internalType": "address",
          "name": "operator",
          "type": "address"
        }
      ],
      "name": "isApprovedForAll",
      "outputs": [
        {
          "internalType": "bool",
          "name": "",
          "type": "bool"
        }
      ],
      "stateMutability": "view",
      "type": "function"
    },
    {
      "inputs": [
        {
          "internalType": "uint16",
          "name": "_srcChainId",
          "type": "uint16"
        },
        {
          "internalType": "bytes",
          "name": "_srcAddress",
          "type": "bytes"
        }
      ],
      "name": "isTrustedRemote",
      "outputs": [
        {
          "internalType": "bool",
          "name": "",
          "type": "bool"
        }
      ],
      "stateMutability": "view",
      "type": "function"
    },
    {
      "inputs": [],
      "name": "lzEndpoint",
      "outputs": [
        {
          "internalType": "contract ILayerZeroEndpoint",
          "name": "",
          "type": "address"
        }
      ],
      "stateMutability": "view",
      "type": "function"
    },
    {
      "inputs": [
        {
          "internalType": "uint16",
          "name": "_srcChainId",
          "type": "uint16"
        },
        {
          "internalType": "bytes",
          "name": "_srcAddress",
          "type": "bytes"
        },
        {
          "internalType": "uint64",
          "name": "_nonce",
          "type": "uint64"
        },
        {
          "internalType": "bytes",
          "name": "_payload",
          "type": "bytes"
        }
      ],
      "name": "lzReceive",
      "outputs": [],
      "stateMutability": "nonpayable",
      "type": "function"
    },
    {
      "inputs": [
        {
          "internalType": "uint16",
          "name": "",
          "type": "uint16"
        },
        {
          "internalType": "uint16",
          "name": "",
          "type": "uint16"
        }
      ],
      "name": "minDstGasLookup",
      "outputs": [
        {
          "internalType": "uint256",
          "name": "",
          "type": "uint256"
        }
      ],
      "stateMutability": "view",
      "type": "function"
    },
    {
      "inputs": [],
      "name": "minGasToTransferAndStore",
      "outputs": [
        {
          "internalType": "uint256",
          "name": "",
          "type": "uint256"
        }
      ],
      "stateMutability": "view",
      "type": "function"
    },
    {
      "inputs": [],
      "name": "name",
      "outputs": [
        {
          "internalType": "string",
          "name": "",
          "type": "string"
        }
      ],
      "stateMutability": "view",
      "type": "function"
    },
    {
      "inputs": [
        {
          "internalType": "uint16",
          "name": "_srcChainId",
          "type": "uint16"
        },
        {
          "internalType": "bytes",
          "name": "_srcAddress",
          "type": "bytes"
        },
        {
          "internalType": "uint64",
          "name": "_nonce",
          "type": "uint64"
        },
        {
          "internalType": "bytes",
          "name": "_payload",
          "type": "bytes"
        }
      ],
      "name": "nonblockingLzReceive",
      "outputs": [],
      "stateMutability": "nonpayable",
      "type": "function"
    },
    {
      "inputs": [],
      "name": "owner",
      "outputs": [
        {
          "internalType": "address",
          "name": "",
          "type": "address"
        }
      ],
      "stateMutability": "view",
      "type": "function"
    },
    {
      "inputs": [
        {
          "internalType": "uint256",
          "name": "tokenId",
          "type": "uint256"
        }
      ],
      "name": "ownerOf",
      "outputs": [
        {
          "internalType": "address",
          "name": "",
          "type": "address"
        }
      ],
      "stateMutability": "view",
      "type": "function"
    },
    {
      "inputs": [
        {
          "internalType": "uint16",
          "name": "",
          "type": "uint16"
        }
      ],
      "name": "payloadSizeLimitLookup",
      "outputs": [
        {
          "internalType": "uint256",
          "name": "",
          "type": "uint256"
        }
      ],
      "stateMutability": "view",
      "type": "function"
    },
    {
      "inputs": [],
      "name": "precrime",
      "outputs": [
        {
          "internalType": "address",
          "name": "",
          "type": "address"
        }
      ],
      "stateMutability": "view",
      "type": "function"
    },
    {
      "inputs": [],
      "name": "renounceOwnership",
      "outputs": [],
      "stateMutability": "nonpayable",
      "type": "function"
    },
    {
      "inputs": [
        {
          "internalType": "uint16",
          "name": "_srcChainId",
          "type": "uint16"
        },
        {
          "internalType": "bytes",
          "name": "_srcAddress",
          "type": "bytes"
        },
        {
          "internalType": "uint64",
          "name": "_nonce",
          "type": "uint64"
        },
        {
          "internalType": "bytes",
          "name": "_payload",
          "type": "bytes"
        }
      ],
      "name": "retryMessage",
      "outputs": [],
      "stateMutability": "payable",
      "type": "function"
    },
    {
      "inputs": [
        {
          "internalType": "address",
          "name": "from",
          "type": "address"
        },
        {
          "internalType": "address",
          "name": "to",
          "type": "address"
        },
        {
          "internalType": "uint256",
          "name": "tokenId",
          "type": "uint256"
        }
      ],
      "name": "safeTransferFrom",
      "outputs": [],
      "stateMutability": "nonpayable",
      "type": "function"
    },
    {
      "inputs": [
        {
          "internalType": "address",
          "name": "from",
          "type": "address"
        },
        {
          "internalType": "address",
          "name": "to",
          "type": "address"
        },
        {
          "internalType": "uint256",
          "name": "tokenId",
          "type": "uint256"
        },
        {
          "internalType": "bytes",
          "name": "data",
          "type": "bytes"
        }
      ],
      "name": "safeTransferFrom",
      "outputs": [],
      "stateMutability": "nonpayable",
      "type": "function"
    },
    {
      "inputs": [
        {
          "internalType": "address",
          "name": "_from",
          "type": "address"
        },
        {
          "internalType": "uint16",
          "name": "_dstChainId",
          "type": "uint16"
        },
        {
          "internalType": "bytes",
          "name": "_toAddress",
          "type": "bytes"
        },
        {
          "internalType": "uint256[]",
          "name": "_tokenIds",
          "type": "uint256[]"
        },
        {
          "internalType": "address payable",
          "name": "_refundAddress",
          "type": "address"
        },
        {
          "internalType": "address",
          "name": "_zroPaymentAddress",
          "type": "address"
        },
        {
          "internalType": "bytes",
          "name": "_adapterParams",
          "type": "bytes"
        }
      ],
      "name": "sendBatchFrom",
      "outputs": [],
      "stateMutability": "payable",
      "type": "function"
    },
    {
      "inputs": [
        {
          "internalType": "address",
          "name": "_from",
          "type": "address"
        },
        {
          "internalType": "uint16",
          "name": "_dstChainId",
          "type": "uint16"
        },
        {
          "internalType": "bytes",
          "name": "_toAddress",
          "type": "bytes"
        },
        {
          "internalType": "uint256",
          "name": "_tokenId",
          "type": "uint256"
        },
        {
          "internalType": "address payable",
          "name": "_refundAddress",
          "type": "address"
        },
        {
          "internalType": "address",
          "name": "_zroPaymentAddress",
          "type": "address"
        },
        {
          "internalType": "bytes",
          "name": "_adapterParams",
          "type": "bytes"
        }
      ],
      "name": "sendFrom",
      "outputs": [],
      "stateMutability": "payable",
      "type": "function"
    },
    {
      "inputs": [
        {
          "internalType": "address",
          "name": "operator",
          "type": "address"
        },
        {
          "internalType": "bool",
          "name": "approved",
          "type": "bool"
        }
      ],
      "name": "setApprovalForAll",
      "outputs": [],
      "stateMutability": "nonpayable",
      "type": "function"
    },
    {
      "inputs": [
        {
          "internalType": "uint16",
          "name": "_version",
          "type": "uint16"
        },
        {
          "internalType": "uint16",
          "name": "_chainId",
          "type": "uint16"
        },
        {
          "internalType": "uint256",
          "name": "_configType",
          "type": "uint256"
        },
        {
          "internalType": "bytes",
          "name": "_config",
          "type": "bytes"
        }
      ],
      "name": "setConfig",
      "outputs": [],
      "stateMutability": "nonpayable",
      "type": "function"
    },
    {
      "inputs": [
        {
          "internalType": "uint256",
          "name": "_distributeBaseDstGas",
          "type": "uint256"
        }
      ],
      "name": "setDistributeBaseDstGas",
      "outputs": [],
      "stateMutability": "nonpayable",
      "type": "function"
    },
    {
      "inputs": [
        {
          "internalType": "uint256",
          "name": "_distributeGasPerIdx",
          "type": "uint256"
        }
      ],
      "name": "setDistributeGasPerIdx",
      "outputs": [],
      "stateMutability": "nonpayable",
      "type": "function"
    },
    {
      "inputs": [
        {
          "internalType": "uint16",
          "name": "_dstChainId",
          "type": "uint16"
        },
        {
          "internalType": "uint256",
          "name": "_dstChainIdToBatchLimit",
          "type": "uint256"
        }
      ],
      "name": "setDstChainIdToBatchLimit",
      "outputs": [],
      "stateMutability": "nonpayable",
      "type": "function"
    },
    {
      "inputs": [
        {
          "internalType": "uint16",
          "name": "_dstChainId",
          "type": "uint16"
        },
        {
          "internalType": "uint256",
          "name": "_dstChainIdToTransferGas",
          "type": "uint256"
        }
      ],
      "name": "setDstChainIdToTransferGas",
      "outputs": [],
      "stateMutability": "nonpayable",
      "type": "function"
    },
    {
      "inputs": [
        {
          "internalType": "uint16",
          "name": "_dstChainId",
          "type": "uint16"
        },
        {
          "internalType": "uint16",
          "name": "_packetType",
          "type": "uint16"
        },
        {
          "internalType": "uint256",
          "name": "_minGas",
          "type": "uint256"
        }
      ],
      "name": "setMinDstGas",
      "outputs": [],
      "stateMutability": "nonpayable",
      "type": "function"
    },
    {
      "inputs": [
        {
          "internalType": "uint256",
          "name": "_minGasToTransferAndStore",
          "type": "uint256"
        }
      ],
      "name": "setMinGasToTransferAndStore",
      "outputs": [],
      "stateMutability": "nonpayable",
      "type": "function"
    },
    {
      "inputs": [
        {
          "internalType": "uint16",
          "name": "_dstChainId",
          "type": "uint16"
        },
        {
          "internalType": "uint256",
          "name": "_size",
          "type": "uint256"
        }
      ],
      "name": "setPayloadSizeLimit",
      "outputs": [],
      "stateMutability": "nonpayable",
      "type": "function"
    },
    {
      "inputs": [
        {
          "internalType": "address",
          "name": "_precrime",
          "type": "address"
        }
      ],
      "name": "setPrecrime",
      "outputs": [],
      "stateMutability": "nonpayable",
      "type": "function"
    },
    {
      "inputs": [
        {
          "internalType": "uint16",
          "name": "_version",
          "type": "uint16"
        }
      ],
      "name": "setReceiveVersion",
      "outputs": [],
      "stateMutability": "nonpayable",
      "type": "function"
    },
    {
      "inputs": [
        {
          "internalType": "uint16",
          "name": "_version",
          "type": "uint16"
        }
      ],
      "name": "setSendVersion",
      "outputs": [],
      "stateMutability": "nonpayable",
      "type": "function"
    },
    {
      "inputs": [
        {
          "internalType": "uint16",
          "name": "_srcChainId",
          "type": "uint16"
        },
        {
          "internalType": "bytes",
          "name": "_path",
          "type": "bytes"
        }
      ],
      "name": "setTrustedRemote",
      "outputs": [],
      "stateMutability": "nonpayable",
      "type": "function"
    },
    {
      "inputs": [
        {
          "internalType": "uint16",
          "name": "_remoteChainId",
          "type": "uint16"
        },
        {
          "internalType": "bytes",
          "name": "_remoteAddress",
          "type": "bytes"
        }
      ],
      "name": "setTrustedRemoteAddress",
      "outputs": [],
      "stateMutability": "nonpayable",
      "type": "function"
    },
    {
      "inputs": [
        {
          "internalType": "bytes32",
          "name": "",
          "type": "bytes32"
        }
      ],
      "name": "storedCredits",
      "outputs": [
        {
          "internalType": "uint16",
          "name": "srcChainId",
          "type": "uint16"
        },
        {
          "internalType": "address",
          "name": "toAddress",
          "type": "address"
        },
        {
          "internalType": "uint256",
          "name": "index",
          "type": "uint256"
        },
        {
          "internalType": "bool",
          "name": "creditsRemain",
          "type": "bool"
        }
      ],
      "stateMutability": "view",
      "type": "function"
    },
    {
      "inputs": [
        {
          "internalType": "bytes4",
          "name": "interfaceId",
          "type": "bytes4"
        }
      ],
      "name": "supportsInterface",
      "outputs": [
        {
          "internalType": "bool",
          "name": "",
          "type": "bool"
        }
      ],
      "stateMutability": "view",
      "type": "function"
    },
    {
      "inputs": [],
      "name": "symbol",
      "outputs": [
        {
          "internalType": "string",
          "name": "",
          "type": "string"
        }
      ],
      "stateMutability": "view",
      "type": "function"
    },
    {
      "inputs": [
        {
          "internalType": "uint256",
          "name": "",
          "type": "uint256"
        }
      ],
      "name": "tokenIds",
      "outputs": [
        {
          "internalType": "uint256",
          "name": "",
          "type": "uint256"
        }
      ],
      "stateMutability": "view",
      "type": "function"
    },
    {
      "inputs": [
        {
          "internalType": "uint256",
          "name": "tokenId",
          "type": "uint256"
        }
      ],
      "name": "tokenURI",
      "outputs": [
        {
          "internalType": "string",
          "name": "",
          "type": "string"
        }
      ],
      "stateMutability": "view",
      "type": "function"
    },
    {
      "inputs": [
        {
          "internalType": "address",
          "name": "from",
          "type": "address"
        },
        {
          "internalType": "address",
          "name": "to",
          "type": "address"
        },
        {
          "internalType": "uint256",
          "name": "tokenId",
          "type": "uint256"
        }
      ],
      "name": "transferFrom",
      "outputs": [],
      "stateMutability": "nonpayable",
      "type": "function"
    },
    {
      "inputs": [
        {
          "internalType": "address",
          "name": "newOwner",
          "type": "address"
        }
      ],
      "name": "transferOwnership",
      "outputs": [],
      "stateMutability": "nonpayable",
      "type": "function"
    },
    {
      "inputs": [
        {
          "internalType": "uint16",
          "name": "",
          "type": "uint16"
        }
      ],
      "name": "trustedRemoteLookup",
      "outputs": [
        {
          "internalType": "bytes",
          "name": "",
          "type": "bytes"
        }
      ],
      "stateMutability": "view",
      "type": "function"
    }
  ],
  "transactionHash": "0x772804bbf96c973f99d64e6fe2d5df5dfbcb3f13dcb6c462989d193ff21918ef",
  "args": [
    "DistributeONFT721",
    "ONFT",
    100000,
    "0x93f54D755A063cE7bB9e6Ac47Eccc8e33411d706",
    [
      0,
      1,
      2,
      3,
      4,
      5,
      6,
      7,
      8,
      9
    ],
    [
      "0xFFFFFFFFFFFFFFFFFFFFFFFFFFFFFFFFFFFFFFFFFFFFFFFFFFFFFFFFFFFFFFC0",
      "0xFFFFFFFFFFFFFFFFFFFFFFFFFFFFFFFFFFFFFFFFFFFFFFFFFFFFFFFFFFFFFFC0",
      "0xFFFFFFFFFFFFFFFFFFFFFFFFFFFFFFFFFFFFFFFFFFFFFFFFFFFFFFFFFFFFFFC0",
      "0xFFFFFFFFFFFFFFFFFFFFFFFFFFFFFFFFFFFFFFFFFFFFFFFFFFFFFFFFFFFFFFC0",
      "0xFFFFFFFFFFFFFFFFFFFFFFFFFFFFFFFFFFFFFFFFFFFFFFFFFFFFFFFFFFFFFFC0",
      "0xFFFFFFFFFFFFFFFFFFFFFFFFFFFFFFFFFFFFFFFFFFFFFFFFFFFFFFFFFFFFFFC0",
      "0xFFFFFFFFFFFFFFFFFFFFFFFFFFFFFFFFFFFFFFFFFFFFFFFFFFFFFFFFFFFFFFC0",
      "0xFFFFFFFFFFFFFFFFFFFFFFFFFFFFFFFFFFFFFFFFFFFFFFFFFFFFFFFFFFFFFFC0",
      "0xFFFFFFFFFFFFFFFFFFFFFFFFFFFFFFFFFFFFFFFFFFFFFFFFFFFFFFFFFFFFFFC0",
      "0xFFFFFFFFFFFFFFFFFFFFFFFFFFFFFFFFFFFFFFFFFFFFFFFFFFFFFFFFFFFFFFC0"
    ]
  ],
  "numDeployments": 1,
  "solcInputHash": "44386ad6d22c39cd71448685cebc841a",
  "bytecode": "0x61b98c601055611b58601155602860a08181526105c06040529060c06105008036833750508151620000399260129250602001906200025f565b503480156200004757600080fd5b5060405162005c6f38038062005c6f8339810160408190526200006a91620004c5565b858585858383838380806200007f336200020f565b6001600160a01b03166080525081620000eb5760405162461bcd60e51b8152602060048201526024808201527f6d696e476173546f5472616e73666572416e6453746f7265206d7573742062656044820152630203e20360e41b60648201526084015b60405180910390fd5b5060065581516200010490600a906020850190620002af565b5080516200011a90600b906020840190620002af565b5050505050505060008251905081518114620001915760405162461bcd60e51b815260206004820152602f60248201527f5f696e646578417272617920616e64205f76616c75654172726179206d75737460448201526e040c4ca40e6c2daca40d8cadccee8d608b1b6064820152608401620000e2565b60005b818110156200020157828181518110620001b257620001b262000599565b60200260200101516012858381518110620001d157620001d162000599565b602002602001015181548110620001ec57620001ec62000599565b60009182526020909120015560010162000194565b5050505050505050620005ec565b600080546001600160a01b038381166001600160a01b0319831681178455604051919092169283917f8be0079c531659141344cd1fd0a4f28419497f9722a3daafe3b4186f6b6457e09190a35050565b8280548282559060005260206000209081019282156200029d579160200282015b828111156200029d57825182559160200191906001019062000280565b50620002ab9291506200032b565b5090565b828054620002bd90620005af565b90600052602060002090601f016020900481019282620002e157600085556200029d565b82601f10620002fc57805160ff19168380011785556200029d565b828001600101855582156200029d57918201828111156200029d57825182559160200191906001019062000280565b5b80821115620002ab57600081556001016200032c565b634e487b7160e01b600052604160045260246000fd5b604051601f8201601f191681016001600160401b038111828210171562000383576200038362000342565b604052919050565b600082601f8301126200039d57600080fd5b81516001600160401b03811115620003b957620003b962000342565b6020620003cf601f8301601f1916820162000358565b8281528582848701011115620003e457600080fd5b60005b8381101562000404578581018301518282018401528201620003e7565b83811115620004165760008385840101525b5095945050505050565b80516001600160a01b03811681146200043857600080fd5b919050565b600082601f8301126200044f57600080fd5b815160206001600160401b038211156200046d576200046d62000342565b8160051b6200047e82820162000358565b92835284810182019282810190878511156200049957600080fd5b83870192505b84831015620004ba578251825291830191908301906200049f565b979650505050505050565b60008060008060008060c08789031215620004df57600080fd5b86516001600160401b0380821115620004f757600080fd5b620005058a838b016200038b565b975060208901519150808211156200051c57600080fd5b6200052a8a838b016200038b565b9650604089015195506200054160608a0162000420565b945060808901519150808211156200055857600080fd5b620005668a838b016200043d565b935060a08901519150808211156200057d57600080fd5b506200058c89828a016200043d565b9150509295509295509295565b634e487b7160e01b600052603260045260246000fd5b600181811c90821680620005c457607f821691505b60208210811415620005e657634e487b7160e01b600052602260045260246000fd5b50919050565b6080516156286200064760003960008181610a1001528181610c7701528181610f7b0152818161123d0152818161144801528181611e72015281816124bf015281816125f5015281816131eb015261380301526156286000f3fe6080604052600436106103b75760003560e01c80638cfd8f5c116101f2578063baf3292d1161010d578063d807e9e9116100a0578063f23536411161006f578063f235364114610be7578063f2fde38b14610c07578063f5ecbdbc14610c27578063fa25f9b614610c4757600080fd5b8063d807e9e914610b31578063df2a5b3b14610b5e578063e985e9c514610b7e578063eb8d72b714610bc757600080fd5b8063ce30e2a9116100dc578063ce30e2a914610ac8578063d12473a514610ade578063d1deba1f14610afe578063d58778d614610b1157600080fd5b8063baf3292d14610a52578063c446183414610a72578063c87b56dd14610a88578063cbed8b9c14610aa857600080fd5b80639f38369a11610185578063ab3ffb9311610154578063ab3ffb93146109d6578063af3fb21c146109e9578063b353aaa7146109fe578063b88d4fde14610a3257600080fd5b80639f38369a14610963578063a22cb46514610983578063a3049482146109a3578063a6c3d165146109b657600080fd5b8063911611e7116101c1578063911611e7146108f8578063950c8a741461090e57806395d89b411461092e5780639ea5d6b11461094357600080fd5b80638cfd8f5c146108625780638da5cb5b1461089a5780638eca19b9146108b85780638ffa1f2a146108d857600080fd5b80632ea80877116102e25780635b8c41e6116102755780636a621d49116102445780636a621d49146107f857806370a082311461080d578063715018a61461082d5780637533d7881461084257600080fd5b80635b8c41e6146107495780636305cb97146107985780636352211e146107b857806366ad5c8a146107d857600080fd5b806342d65a8d116102b157806342d65a8d146106d357806348288190146106f35780634ac3f4ff14610709578063519056361461073657600080fd5b80632ea808771461063e5780633d8b38f6146106665780633f1f4fa41461068657806342842e0e146106b357600080fd5b80630df374831161035a57806322a3ecf91161032957806322a3ecf91461055057806323b872dd146105d35780632518552b146105f35780632a205e3d1461060957600080fd5b80630df37483146104cd5780630e751294146104ed57806310ddb1371461050d57806318ec341c1461052d57600080fd5b806307e0db171161039657806307e0db1714610435578063081812fc14610455578063095ea7b31461048d5780630b4cad4c146104ad57600080fd5b80621d3567146103bc57806301ffc9a7146103de57806306fdde0314610413575b600080fd5b3480156103c857600080fd5b506103dc6103d73660046143b1565b610c74565b005b3480156103ea57600080fd5b506103fe6103f936600461445c565b610ea5565b60405190151581526020015b60405180910390f35b34801561041f57600080fd5b50610428610ec8565b60405161040a91906144d1565b34801561044157600080fd5b506103dc6104503660046144e4565b610f5a565b34801561046157600080fd5b50610475610470366004614501565b610fe3565b6040516001600160a01b03909116815260200161040a565b34801561049957600080fd5b506103dc6104a836600461453a565b61100a565b3480156104b957600080fd5b506103dc6104c8366004614501565b611120565b3480156104d957600080fd5b506103dc6104e8366004614566565b6111c0565b3480156104f957600080fd5b506103dc610508366004614501565b6111df565b34801561051957600080fd5b506103dc6105283660046144e4565b61121c565b34801561053957600080fd5b50610542611274565b60405190815260200161040a565b34801561055c57600080fd5b506105a461056b366004614501565b60096020526000908152604090208054600182015460029092015461ffff821692620100009092046001600160a01b0316919060ff1684565b6040805161ffff90951685526001600160a01b039093166020850152918301521515606082015260800161040a565b3480156105df57600080fd5b506103dc6105ee366004614584565b6112ea565b3480156105ff57600080fd5b5061054260115481565b34801561061557600080fd5b506106296106243660046146c0565b61131c565b6040805192835260208301919091520161040a565b34801561064a57600080fd5b50610653600281565b60405161ffff909116815260200161040a565b34801561067257600080fd5b506103fe610681366004614750565b611342565b34801561069257600080fd5b506105426106a13660046144e4565b60036020526000908152604090205481565b3480156106bf57600080fd5b506103dc6106ce366004614584565b61140e565b3480156106df57600080fd5b506103dc6106ee366004614750565b611429565b3480156106ff57600080fd5b5061054260065481565b34801561071557600080fd5b506105426107243660046144e4565b60076020526000908152604090205481565b6103dc6107443660046147a4565b6114af565b34801561075557600080fd5b5061054261076436600461485f565b6005602090815260009384526040808520845180860184018051928152908401958401959095209452929052825290205481565b3480156107a457600080fd5b506103dc6107b3366004614501565b6114c6565b3480156107c457600080fd5b506104756107d3366004614501565b611503565b3480156107e457600080fd5b506103dc6107f33660046143b1565b611563565b34801561080457600080fd5b5061065360fa81565b34801561081957600080fd5b506105426108283660046148be565b61163f565b34801561083957600080fd5b506103dc6116c5565b34801561084e57600080fd5b5061042861085d3660046144e4565b6116d9565b34801561086e57600080fd5b5061054261087d3660046148db565b600260209081526000928352604080842090915290825290205481565b3480156108a657600080fd5b506000546001600160a01b0316610475565b3480156108c457600080fd5b506106296108d33660046149c1565b611773565b3480156108e457600080fd5b506103dc6108f3366004614a17565b6117b1565b34801561090457600080fd5b5061054260105481565b34801561091a57600080fd5b50600454610475906001600160a01b031681565b34801561093a57600080fd5b506104286119ed565b34801561094f57600080fd5b506103dc61095e366004614566565b6119fc565b34801561096f57600080fd5b5061042861097e3660046144e4565b611ab3565b34801561098f57600080fd5b506103dc61099e366004614a4b565b611bca565b6103dc6109b1366004614a80565b611bd9565b3480156109c257600080fd5b506103dc6109d1366004614750565b611cb6565b6103dc6109e4366004614b4f565b611d49565b3480156109f557600080fd5b50610653600181565b348015610a0a57600080fd5b506104757f000000000000000000000000000000000000000000000000000000000000000081565b348015610a3e57600080fd5b506103dc610a4d366004614c01565b611d58565b348015610a5e57600080fd5b506103dc610a6d3660046148be565b611d8a565b348015610a7e57600080fd5b5061054261271081565b348015610a9457600080fd5b50610428610aa3366004614501565b611de0565b348015610ab457600080fd5b506103dc610ac3366004614c6c565b611e53565b348015610ad457600080fd5b5061065361010081565b348015610aea57600080fd5b506103dc610af9366004614566565b611ee8565b6103dc610b0c3660046143b1565b611f98565b348015610b1d57600080fd5b50610542610b2c366004614501565b6121ae565b348015610b3d57600080fd5b50610b51610b4c366004614501565b6121cf565b60405161040a9190614d24565b348015610b6a57600080fd5b506103dc610b79366004614d37565b612371565b348015610b8a57600080fd5b506103fe610b99366004614d67565b6001600160a01b039182166000908152600f6020908152604080832093909416825291909152205460ff1690565b348015610bd357600080fd5b506103dc610be2366004614750565b612423565b348015610bf357600080fd5b50610629610c02366004614d95565b61247d565b348015610c1357600080fd5b506103dc610c223660046148be565b61254b565b348015610c3357600080fd5b50610428610c42366004614e10565b6125c4565b348015610c5357600080fd5b50610542610c623660046144e4565b60086020526000908152604090205481565b337f00000000000000000000000000000000000000000000000000000000000000006001600160a01b031614610cf15760405162461bcd60e51b815260206004820152601e60248201527f4c7a4170703a20696e76616c696420656e64706f696e742063616c6c6572000060448201526064015b60405180910390fd5b61ffff861660009081526001602052604081208054610d0f90614e61565b80601f0160208091040260200160405190810160405280929190818152602001828054610d3b90614e61565b8015610d885780601f10610d5d57610100808354040283529160200191610d88565b820191906000526020600020905b815481529060010190602001808311610d6b57829003601f168201915b50505050509050805186869050148015610da3575060008151115b8015610dcb575080516020820120604051610dc19088908890614e9c565b6040518091039020145b610e265760405162461bcd60e51b815260206004820152602660248201527f4c7a4170703a20696e76616c696420736f757263652073656e64696e6720636f6044820152651b9d1c9858dd60d21b6064820152608401610ce8565b610e9c8787878080601f01602080910402602001604051908101604052809392919081815260200183838082843760009201919091525050604080516020601f8a018190048102820181019092528881528a93509150889088908190840183828082843760009201919091525061267792505050565b50505050505050565b60006001600160e01b031982161580610ec25750610ec2826126f0565b92915050565b6060600a8054610ed790614e61565b80601f0160208091040260200160405190810160405280929190818152602001828054610f0390614e61565b8015610f505780601f10610f2557610100808354040283529160200191610f50565b820191906000526020600020905b815481529060010190602001808311610f3357829003601f168201915b5050505050905090565b610f62612730565b6040516307e0db1760e01b815261ffff821660048201527f00000000000000000000000000000000000000000000000000000000000000006001600160a01b0316906307e0db17906024015b600060405180830381600087803b158015610fc857600080fd5b505af1158015610fdc573d6000803e3d6000fd5b5050505050565b6000610fee8261278a565b506000908152600e60205260409020546001600160a01b031690565b600061101582611503565b9050806001600160a01b0316836001600160a01b031614156110835760405162461bcd60e51b815260206004820152602160248201527f4552433732313a20617070726f76616c20746f2063757272656e74206f776e656044820152603960f91b6064820152608401610ce8565b336001600160a01b038216148061109f575061109f8133610b99565b6111115760405162461bcd60e51b815260206004820152603e60248201527f4552433732313a20617070726f76652063616c6c6572206973206e6f7420746f60448201527f6b656e206f776e6572206e6f7220617070726f76656420666f7220616c6c00006064820152608401610ce8565b61111b83836127e9565b505050565b611128612730565b600081116111845760405162461bcd60e51b8152602060048201526024808201527f6d696e476173546f5472616e73666572416e6453746f7265206d7573742062656044820152630203e20360e41b6064820152608401610ce8565b60068190556040518181527ffebbc4f8bb9ec2313950c718d43123124b15778efda4c1f1d529de2995b4f34d906020015b60405180910390a150565b6111c8612730565b61ffff909116600090815260036020526040902055565b6111e7612730565b60118190556040518181527fe995f60b841a7336cf7af18b9017aab284c6678cf2a818f43c35098d5a901bc8906020016111b5565b611224612730565b6040516310ddb13760e01b815261ffff821660048201527f00000000000000000000000000000000000000000000000000000000000000006001600160a01b0316906310ddb13790602401610fae565b601254600090815b818110156112e55760006012828154811061129957611299614eac565b906000526020600020015411156112dd576112d0601282815481106112c0576112c0614eac565b9060005260206000200154612857565b6112da9084614ed8565b92505b60010161127c565b505090565b6112f5335b82612ab5565b6113115760405162461bcd60e51b8152600401610ce890614ef0565b61111b838383612b33565b600080611334878761132d88612ccf565b878761247d565b915091509550959350505050565b61ffff83166000908152600160205260408120805482919061136390614e61565b80601f016020809104026020016040519081016040528092919081815260200182805461138f90614e61565b80156113dc5780601f106113b1576101008083540402835291602001916113dc565b820191906000526020600020905b8154815290600101906020018083116113bf57829003601f168201915b5050505050905083836040516113f3929190614e9c565b60405180910390208180519060200120149150509392505050565b61111b83838360405180602001604052806000815250611d58565b611431612730565b6040516342d65a8d60e01b81526001600160a01b037f000000000000000000000000000000000000000000000000000000000000000016906342d65a8d9061148190869086908690600401614f67565b600060405180830381600087803b15801561149b57600080fd5b505af1158015610e9c573d6000803e3d6000fd5b610e9c8787876114be88612ccf565b878787612d1a565b6114ce612730565b60108190556040518181527f872735ac071276affce3a0a7de8308e2d22a272718a68dcd010a42ec626ecb5f906020016111b5565b6000818152600c60205260408120546001600160a01b031680610ec25760405162461bcd60e51b8152602060048201526018602482015277115490cdcc8c4e881a5b9d985b1a59081d1bdad95b88125160421b6044820152606401610ce8565b3330146115c15760405162461bcd60e51b815260206004820152602660248201527f4e6f6e626c6f636b696e674c7a4170703a2063616c6c6572206d7573742062656044820152650204c7a4170760d41b6064820152608401610ce8565b6116378686868080601f01602080910402602001604051908101604052809392919081815260200183838082843760009201919091525050604080516020601f890181900481028201810190925287815289935091508790879081908401838280828437600092019190915250612ee792505050565b505050505050565b60006001600160a01b0382166116a95760405162461bcd60e51b815260206004820152602960248201527f4552433732313a2061646472657373207a65726f206973206e6f7420612076616044820152683634b21037bbb732b960b91b6064820152608401610ce8565b506001600160a01b03166000908152600d602052604090205490565b6116cd612730565b6116d76000613196565b565b600160205260009081526040902080546116f290614e61565b80601f016020809104026020016040519081016040528092919081815260200182805461171e90614e61565b801561176b5780601f106117405761010080835404028352916020019161176b565b820191906000526020600020905b81548152906001019060200180831161174e57829003601f168201915b505050505081565b6000806117a58560028660405160200161178e929190614f85565b6040516020818303038152906040528651866131e6565b91509150935093915050565b80516020808301919091206000818152600990925260409091206002015460ff166118125760405162461bcd60e51b81526020600482015260116024820152701b9bc818dc99591a5d1cc81cdd1bdc9959607a1b6044820152606401610ce8565b6000828060200190518101906118289190614fe7565b60008581526009602052604081208054600190910154929550909350611866925061ffff811691620100009091046001600160a01b03169085613292565b60008481526009602052604090206001015490915081116118db5760405162461bcd60e51b815260206004820152602960248201527f6e6f7420656e6f7567682067617320746f2070726f6365737320637265646974604482015268103a3930b739b332b960b91b6064820152608401610ce8565b81518114156119535760008381526009602052604080822080546001600160b01b031916815560018101929092556002909101805460ff19169055517fd7be02b8dd0d27bd0517a9cb4d7469ce27df4313821ae5ec1ff69acc594ba233906119469085815260200190565b60405180910390a16119e7565b60408051608081018252600085815260096020818152848320805461ffff80821687526001600160a01b03620100008084048216868a019081529989018b8152600160608b01818152998f90529790965297519851169096026001600160b01b03199091169690951695909517939093178455915191830191909155516002909101805491151560ff199092169190911790555b50505050565b6060600b8054610ed790614e61565b611a04612730565b60008111611a5f5760405162461bcd60e51b815260206004820152602260248201527f647374436861696e4964546f42617463684c696d6974206d757374206265203e604482015261020360f41b6064820152608401610ce8565b61ffff8216600081815260076020908152604091829020849055815192835282018390527f7315f7654d594ead24a30160ed9ba2d23247f543016b918343591e93d7afdb6d91015b60405180910390a15050565b61ffff8116600090815260016020526040812080546060929190611ad690614e61565b80601f0160208091040260200160405190810160405280929190818152602001828054611b0290614e61565b8015611b4f5780601f10611b2457610100808354040283529160200191611b4f565b820191906000526020600020905b815481529060010190602001808311611b3257829003601f168201915b50505050509050805160001415611ba85760405162461bcd60e51b815260206004820152601d60248201527f4c7a4170703a206e6f20747275737465642070617468207265636f72640000006044820152606401610ce8565b611bc3600060148351611bbb91906150b4565b8391906132e4565b9392505050565b611bd53383836133f1565b5050565b611be1612730565b611bea836134c0565b611c265760405162461bcd60e51b815260206004820152600d60248201526c125b9d985b1a59081a5b9c1d5d609a1b6044820152606401610ce8565b611c2f83613576565b6000600284604051602001611c45929190614f85565b60405160208183030381529060405290506000611c628551613621565b9050611c728683868685346136d9565b8561ffff167f9a72ab77f30e4ce04bdedd777b2dc64764e70205166233d02bd8411af912c44386604051611ca69190614d24565b60405180910390a2505050505050565b611cbe612730565b818130604051602001611cd3939291906150cb565b60408051601f1981840301815291815261ffff85166000908152600160209081529190208251611d0893919290910190614235565b507f8c0400cfe2d1199b1a725c78960bcc2a344d869b80590d0f2bd005db15a572ce838383604051611d3c93929190614f67565b60405180910390a1505050565b610e9c87878787878787612d1a565b611d623383612ab5565b611d7e5760405162461bcd60e51b8152600401610ce890614ef0565b6119e78484848461387f565b611d92612730565b600480546001600160a01b0319166001600160a01b0383169081179091556040519081527f5db758e995a17ec1ad84bdef7e8c3293a0bd6179bcce400dff5d4c3d87db726b906020016111b5565b6060611deb8261278a565b6000611e0260408051602081019091526000815290565b90506000815111611e225760405180602001604052806000815250611bc3565b80611e2c846138b2565b604051602001611e3d9291906150f1565b6040516020818303038152906040529392505050565b611e5b612730565b6040516332fb62e760e21b81526001600160a01b037f0000000000000000000000000000000000000000000000000000000000000000169063cbed8b9c90611eaf9088908890889088908890600401615120565b600060405180830381600087803b158015611ec957600080fd5b505af1158015611edd573d6000803e3d6000fd5b505050505050505050565b611ef0612730565b60008111611f4c5760405162461bcd60e51b815260206004820152602360248201527f647374436861696e4964546f5472616e73666572476173206d7573742062652060448201526203e20360ec1b6064820152608401610ce8565b61ffff8216600081815260086020908152604091829020849055815192835282018390527fc46df2983228ac2d9754e94a0d565e6671665dc8ad38602bc8e544f0685a29fb9101611aa7565b61ffff86166000908152600560205260408082209051611fbb9088908890614e9c565b90815260408051602092819003830190206001600160401b0387166000908152925290205490508061203b5760405162461bcd60e51b815260206004820152602360248201527f4e6f6e626c6f636b696e674c7a4170703a206e6f2073746f726564206d65737360448201526261676560e81b6064820152608401610ce8565b80838360405161204c929190614e9c565b6040518091039020146120ab5760405162461bcd60e51b815260206004820152602160248201527f4e6f6e626c6f636b696e674c7a4170703a20696e76616c6964207061796c6f616044820152601960fa1b6064820152608401610ce8565b61ffff871660009081526005602052604080822090516120ce9089908990614e9c565b90815260408051602092819003830181206001600160401b038916600090815290845282902093909355601f88018290048202830182019052868252612166918991899089908190840183828082843760009201919091525050604080516020601f8a018190048102820181019092528881528a935091508890889081908401838280828437600092019190915250612ee792505050565b7fc264d91f3adc5588250e1551f547752ca0cfa8f6b530d243b9f9f4cab10ea8e5878787878560405161219d959493929190615159565b60405180910390a150505050505050565b601281815481106121be57600080fd5b600091825260209091200154905081565b606060006121dc836139af565b90508061222b5760405162461bcd60e51b815260206004820152601f60248201527f4e6f7420656e6f75676820746f6b656e7320746f2064697374726962757465006044820152606401610ce8565b60125483906000836001600160401b0381111561224a5761224a6145c5565b60405190808252806020026020018201604052801561228f57816020015b60408051808201909152600080825260208201528152602001906001900390816122685790505b5090506000805b83811015612365576000601282815481106122b3576122b3614eac565b9060005260206000200154905080600014156122d25750600101612296565b856122dd5750612365565b6000805b8715612324576122f083613a3b565b600160ff9190911681811b948518949384179390925090612311908a6150b4565b98508361231e5750612324565b506122e1565b60405180604001604052808581526020018381525086868151811061234b5761234b614eac565b602090810291909101015250505060019182019101612296565b50909695505050505050565b612379612730565b600081116123c15760405162461bcd60e51b81526020600482015260156024820152744c7a4170703a20696e76616c6964206d696e47617360581b6044820152606401610ce8565b61ffff83811660008181526002602090815260408083209487168084529482529182902085905581519283528201929092529081018290527f9d5c7c0b934da8fefa9c7760c98383778a12dfbfc0c3b3106518f43fb9508ac090606001611d3c565b61242b612730565b61ffff831660009081526001602052604090206124499083836142b9565b507ffa41487ad5d6728f0b19276fa1eddc16558578f5109fc39d2dc33c3230470dab838383604051611d3c93929190614f67565b600080600060018787604051602001612498939291906151c4565b60408051601f198184030181529082905263040a7bb160e41b825291506001600160a01b037f000000000000000000000000000000000000000000000000000000000000000016906340a7bb10906124fc908b90309086908b908b906004016151fd565b6040805180830381865afa158015612518573d6000803e3d6000fd5b505050506040513d601f19601f8201168201806040525081019061253c9190615251565b92509250509550959350505050565b612553612730565b6001600160a01b0381166125b85760405162461bcd60e51b815260206004820152602660248201527f4f776e61626c653a206e6577206f776e657220697320746865207a65726f206160448201526564647265737360d01b6064820152608401610ce8565b6125c181613196565b50565b604051633d7b2f6f60e21b815261ffff808616600483015284166024820152306044820152606481018290526060907f00000000000000000000000000000000000000000000000000000000000000006001600160a01b03169063f5ecbdbc90608401600060405180830381865afa158015612644573d6000803e3d6000fd5b505050506040513d6000823e601f3d908101601f1916820160405261266c9190810190615275565b90505b949350505050565b6000806126da5a60966366ad5c8a60e01b8989898960405160240161269f94939291906152a9565b60408051601f198184030181529190526020810180516001600160e01b03166001600160e01b03199093169290921790915230929190613b31565b9150915081611637576116378686868685613bbb565b60006001600160e01b031982166380ac58cd60e01b148061272157506001600160e01b03198216635b5e139f60e01b145b80610ec25750610ec282613c58565b6000546001600160a01b031633146116d75760405162461bcd60e51b815260206004820181905260248201527f4f776e61626c653a2063616c6c6572206973206e6f7420746865206f776e65726044820152606401610ce8565b6000818152600c60205260409020546001600160a01b03166125c15760405162461bcd60e51b8152602060048201526018602482015277115490cdcc8c4e881a5b9d985b1a59081d1bdad95b88125160421b6044820152606401610ce8565b6000818152600e6020526040902080546001600160a01b0319166001600160a01b038416908117909155819061281e82611503565b6001600160a01b03167f8c5be1e5ebec7d5bd14f71427d1e84f3dd0314c0f7b2291e5b200ac8c7c3b92560405160405180910390a45050565b60007f5555555555555555555555555555555555555555555555555555555555555555600183901c167f555555555555555555555555555555555555555555555555555555555555555583166128ad9190614ed8565b91507f3333333333333333333333333333333333333333333333333333333333333333600283901c167f333333333333333333333333333333333333333333333333333333333333333383166129039190614ed8565b91507f0f0f0f0f0f0f0f0f0f0f0f0f0f0f0f0f0f0f0f0f0f0f0f0f0f0f0f0f0f0f0f0f600483901c167f0f0f0f0f0f0f0f0f0f0f0f0f0f0f0f0f0f0f0f0f0f0f0f0f0f0f0f0f0f0f0f0f83166129599190614ed8565b91507eff00ff00ff00ff00ff00ff00ff00ff00ff00ff00ff00ff00ff00ff00ff00ff600883901c167eff00ff00ff00ff00ff00ff00ff00ff00ff00ff00ff00ff00ff00ff00ff00ff83166129ad9190614ed8565b91507dffff0000ffff0000ffff0000ffff0000ffff0000ffff0000ffff0000ffff601083901c167dffff0000ffff0000ffff0000ffff0000ffff0000ffff0000ffff0000ffff83166129ff9190614ed8565b91507bffffffff00000000ffffffff00000000ffffffff00000000ffffffff602083901c167bffffffff00000000ffffffff00000000ffffffff00000000ffffffff8316612a4d9190614ed8565b915077ffffffffffffffff0000000000000000ffffffffffffffff604083901c1677ffffffffffffffff0000000000000000ffffffffffffffff8316612a939190614ed8565b9150610ec2608083901c6fffffffffffffffffffffffffffffffff8416614ed8565b600080612ac183611503565b9050806001600160a01b0316846001600160a01b03161480612b0857506001600160a01b038082166000908152600f602090815260408083209388168352929052205460ff165b8061266f5750836001600160a01b0316612b2184610fe3565b6001600160a01b031614949350505050565b826001600160a01b0316612b4682611503565b6001600160a01b031614612baa5760405162461bcd60e51b815260206004820152602560248201527f4552433732313a207472616e736665722066726f6d20696e636f72726563742060448201526437bbb732b960d91b6064820152608401610ce8565b6001600160a01b038216612c0c5760405162461bcd60e51b8152602060048201526024808201527f4552433732313a207472616e7366657220746f20746865207a65726f206164646044820152637265737360e01b6064820152608401610ce8565b612c176000826127e9565b6001600160a01b0383166000908152600d60205260408120805460019290612c409084906150b4565b90915550506001600160a01b0382166000908152600d60205260408120805460019290612c6e908490614ed8565b90915550506000818152600c602052604080822080546001600160a01b0319166001600160a01b0386811691821790925591518493918716917fddf252ad1be2c89b69c2b068fc378daa952ba7f163c4a11628f55a4df523b3ef91a4505050565b60408051600180825281830190925260609160009190602080830190803683370190505090508281600081518110612d0957612d09614eac565b602090810291909101015292915050565b6000845111612d615760405162461bcd60e51b8152602060048201526013602482015272746f6b656e4964735b5d20697320656d70747960681b6044820152606401610ce8565b835160011480612d85575061ffff8616600090815260076020526040902054845111155b612ddc5760405162461bcd60e51b815260206004820152602260248201527f62617463682073697a65206578636565647320647374206261746368206c696d6044820152611a5d60f21b6064820152608401610ce8565b60005b8451811015612e1557612e0d888888888581518110612e0057612e00614eac565b6020026020010151613c8d565b600101612ddf565b50600060018686604051602001612e2e939291906151c4565b6040516020818303038152906040529050612e73876001848851600860008d61ffff1661ffff16815260200190815260200160002054612e6e91906152e7565b613d78565b612e818782868686346136d9565b85604051612e8f9190615306565b6040518091039020886001600160a01b03168861ffff167fe1b87c47fdeb4f9cbadbca9df3af7aba453bb6e501075d0440d88125b711522a88604051612ed59190615322565b60405180910390a45050505050505050565b602081015160ff8116600114156130625760008083806020019051810190612f0f9190614fe7565b6014820151919450925090506000612f2989838386613292565b90508251811015612ffd5785516020808801919091206040805160808101825261ffff808e1682526001600160a01b0380881683870190815283850188815260016060860181815260008981526009909a529887902095518654935190941662010000026001600160b01b03199093169390941692909217178355519082015592516002909301805493151560ff199094169390931790925590517f10e0b70d256bccc84b7027506978bd8b68984a870788b93b479def144c839ad790612ff39083908a90615335565b60405180910390a1505b816001600160a01b0316886040516130159190615306565b60405180910390208a61ffff167f5b821db8a46f8ecbe1941ba2f51cfeea9643268b56631f70d45e2a745d990265866040516130519190615322565b60405180910390a450505050610fdc565b60ff811660021415610fdc57600082806020019051810190613084919061534e565b8051909250905060005b8181101561313a57600060128483815181106130ac576130ac614eac565b602002602001015160000151815481106130c8576130c8614eac565b906000526020600020015490508382815181106130e7576130e7614eac565b6020026020010151602001518117601285848151811061310957613109614eac565b6020026020010151600001518154811061312557613125614eac565b6000918252602090912001555060010161308e565b50856040516131499190615306565b60405180910390208761ffff167f3f87fd8a477104807d0f98e80e5446db6b5df756b08a6a7437b19c8f02f4c0cd846040516131859190614d24565b60405180910390a350505050505050565b600080546001600160a01b038381166001600160a01b0319831681178455604051919092169283917f8be0079c531659141344cd1fd0a4f28419497f9722a3daafe3b4186f6b6457e09190a35050565b6000807f00000000000000000000000000000000000000000000000000000000000000006001600160a01b03166340a7bb10873088876132258a613621565b6040518663ffffffff1660e01b81526004016132459594939291906151fd565b6040805180830381865afa158015613261573d6000803e3d6000fd5b505050506040513d601f19601f820116820180604052508101906132859190615251565b9150915094509492505050565b6000825b825181101561266c576006545a10156132ae5761266c565b6132d286868584815181106132c5576132c5614eac565b6020026020010151613e57565b806132dc81615419565b915050613296565b6060816132f281601f614ed8565b10156133315760405162461bcd60e51b815260206004820152600e60248201526d736c6963655f6f766572666c6f7760901b6044820152606401610ce8565b61333b8284614ed8565b8451101561337f5760405162461bcd60e51b8152602060048201526011602482015270736c6963655f6f75744f66426f756e647360781b6044820152606401610ce8565b60608215801561339e57604051915060008252602082016040526133e8565b6040519150601f8416801560200281840101858101878315602002848b0101015b818310156133d75780518352602092830192016133bf565b5050858452601f01601f1916604052505b50949350505050565b816001600160a01b0316836001600160a01b031614156134535760405162461bcd60e51b815260206004820152601960248201527f4552433732313a20617070726f766520746f2063616c6c6572000000000000006044820152606401610ce8565b6001600160a01b038381166000818152600f6020908152604080832094871680845294825291829020805460ff191686151590811790915591519182527f17307eab39ab6107e8899845ad3d59bd9653f200f220920489ca2b5937696c31910160405180910390a3505050565b8051600090815b8181101561356c57600060128583815181106134e5576134e5614eac565b6020026020010151600001518154811061350157613501614eac565b90600052602060002001549050600085838151811061352257613522614eac565b6020026020010151602001518216905085838151811061354457613544614eac565b60200260200101516020015181146135625750600095945050505050565b50506001016134c7565b5060019392505050565b805160005b8181101561111b5782818151811061359557613595614eac565b60200260200101516020015160128483815181106135b5576135b5614eac565b602002602001015160000151815481106135d1576135d1614eac565b90600052602060002001541860128483815181106135f1576135f1614eac565b6020026020010151600001518154811061360d5761360d614eac565b60009182526020909120015560010161357b565b6060600082116136735760405162461bcd60e51b815260206004820152601d60248201527f416d6f756e74206d7573742062652067726561746572207468616e20300000006044820152606401610ce8565b60115460019060009061368683866150b4565b61369091906152e7565b60105461369d9190614ed8565b6040516001600160f01b031960f085901b1660208201526022810182905290915060420160405160208183030381529060405292505050919050565b61ffff8616600090815260016020526040812080546136f790614e61565b80601f016020809104026020016040519081016040528092919081815260200182805461372390614e61565b80156137705780601f1061374557610100808354040283529160200191613770565b820191906000526020600020905b81548152906001019060200180831161375357829003601f168201915b505050505090508051600014156137e25760405162461bcd60e51b815260206004820152603060248201527f4c7a4170703a2064657374696e6174696f6e20636861696e206973206e6f742060448201526f61207472757374656420736f7572636560801b6064820152608401610ce8565b6137ed878751613ee6565b60405162c5803160e81b81526001600160a01b037f0000000000000000000000000000000000000000000000000000000000000000169063c5803100908490613844908b9086908c908c908c908c90600401615434565b6000604051808303818588803b15801561385d57600080fd5b505af1158015613871573d6000803e3d6000fd5b505050505050505050505050565b61388a848484612b33565b61389684848484613f54565b6119e75760405162461bcd60e51b8152600401610ce89061549b565b6060816138d65750506040805180820190915260018152600360fc1b602082015290565b8160005b811561390057806138ea81615419565b91506138f99050600a83615503565b91506138da565b6000816001600160401b0381111561391a5761391a6145c5565b6040519080825280601f01601f191660200182016040528015613944576020820181803683370190505b5090505b841561266f576139596001836150b4565b9150613966600a86615517565b613971906030614ed8565b60f81b81838151811061398657613986614eac565b60200101906001600160f81b031916908160001a9053506139a8600a86615503565b9450613948565b60125460009081908190815b81811015613a2f576000601282815481106139d8576139d8614eac565b9060005260206000200154905060006139f082612857565b90508015613a0657613a03600186614ed8565b94505b613a108187614ed8565b9550878610613a255750929695505050505050565b50506001016139bb565b50600095945050505050565b600081613a4a57506000919050565b600160801b8210613a6857608091821c91613a65908261552b565b90505b680100000000000000008210613a8b57604091821c91613a88908261552b565b90505b6401000000008210613aaa57602091821c91613aa7908261552b565b90505b620100008210613ac757601091821c91613ac4908261552b565b90505b6101008210613ae357600891821c91613ae0908261552b565b90505b60108210613afe57600491821c91613afb908261552b565b90505b60048210613b1957600291821c91613b16908261552b565b90505b60028210613b2c57610ec260018261552b565b919050565b6000606060008060008661ffff166001600160401b03811115613b5657613b566145c5565b6040519080825280601f01601f191660200182016040528015613b80576020820181803683370190505b50905060008087516020890160008d8df191503d925086831115613ba2578692505b828152826000602083013e909890975095505050505050565b8180519060200120600560008761ffff1661ffff16815260200190815260200160002085604051613bec9190615306565b9081526040805191829003602090810183206001600160401b0388166000908152915220919091557fe183f33de2837795525b4792ca4cd60535bd77c53b7e7030060bfcf5734d6b0c90613c499087908790879087908790615550565b60405180910390a15050505050565b60006001600160e01b031982166322bac5d960e01b1480610ec257506301ffc9a760e01b6001600160e01b0319831614610ec2565b613c96336112ef565b613cf95760405162461bcd60e51b815260206004820152602e60248201527f4f4e46543732313a2073656e642063616c6c6572206973206e6f74206f776e6560448201526d1c881b9bdc88185c1c1c9bdd995960921b6064820152608401610ce8565b836001600160a01b0316613d0c82611503565b6001600160a01b031614613d6d5760405162461bcd60e51b815260206004820152602260248201527f4f4e46543732313a2073656e642066726f6d20696e636f7272656374206f776e60448201526132b960f11b6064820152608401610ce8565b6119e7843083612b33565b6000613d838361404f565b61ffff808716600090815260026020908152604080832093891683529290529081205491925090613db5908490614ed8565b905060008111613e075760405162461bcd60e51b815260206004820152601a60248201527f4c7a4170703a206d696e4761734c696d6974206e6f74207365740000000000006044820152606401610ce8565b808210156116375760405162461bcd60e51b815260206004820152601b60248201527f4c7a4170703a20676173206c696d697420697320746f6f206c6f7700000000006044820152606401610ce8565b6000818152600c60205260409020546001600160a01b03161580613eac57506000818152600c60205260409020546001600160a01b031615158015613eac575030613ea182611503565b6001600160a01b0316145b613eb557600080fd5b6000818152600c60205260409020546001600160a01b0316613edb5761111b82826140ab565b61111b308383612b33565b61ffff821660009081526003602052604090205480613f0457506127105b8082111561111b5760405162461bcd60e51b815260206004820181905260248201527f4c7a4170703a207061796c6f61642073697a6520697320746f6f206c617267656044820152606401610ce8565b60006001600160a01b0384163b1561404757604051630a85bd0160e11b81526001600160a01b0385169063150b7a0290613f989033908990889088906004016155a2565b6020604051808303816000875af1925050508015613fd3575060408051601f3d908101601f19168201909252613fd0918101906155d5565b60015b61402d573d808015614001576040519150601f19603f3d011682016040523d82523d6000602084013e614006565b606091505b5080516140255760405162461bcd60e51b8152600401610ce89061549b565b805181602001fd5b6001600160e01b031916630a85bd0160e11b14905061266f565b50600161266f565b60006022825110156140a35760405162461bcd60e51b815260206004820152601c60248201527f4c7a4170703a20696e76616c69642061646170746572506172616d73000000006044820152606401610ce8565b506022015190565b611bd58282604051806020016040528060008152506140ca83836140f3565b6140d76000848484613f54565b61111b5760405162461bcd60e51b8152600401610ce89061549b565b6001600160a01b0382166141495760405162461bcd60e51b815260206004820181905260248201527f4552433732313a206d696e7420746f20746865207a65726f20616464726573736044820152606401610ce8565b6000818152600c60205260409020546001600160a01b0316156141ae5760405162461bcd60e51b815260206004820152601c60248201527f4552433732313a20746f6b656e20616c7265616479206d696e746564000000006044820152606401610ce8565b6001600160a01b0382166000908152600d602052604081208054600192906141d7908490614ed8565b90915550506000818152600c602052604080822080546001600160a01b0319166001600160a01b03861690811790915590518392907fddf252ad1be2c89b69c2b068fc378daa952ba7f163c4a11628f55a4df523b3ef908290a45050565b82805461424190614e61565b90600052602060002090601f01602090048101928261426357600085556142a9565b82601f1061427c57805160ff19168380011785556142a9565b828001600101855582156142a9579182015b828111156142a957825182559160200191906001019061428e565b506142b592915061432d565b5090565b8280546142c590614e61565b90600052602060002090601f0160209004810192826142e757600085556142a9565b82601f106143005782800160ff198235161785556142a9565b828001600101855582156142a9579182015b828111156142a9578235825591602001919060010190614312565b5b808211156142b5576000815560010161432e565b61ffff811681146125c157600080fd5b60008083601f84011261436457600080fd5b5081356001600160401b0381111561437b57600080fd5b60208301915083602082850101111561439357600080fd5b9250929050565b80356001600160401b0381168114613b2c57600080fd5b600080600080600080608087890312156143ca57600080fd5b86356143d581614342565b955060208701356001600160401b03808211156143f157600080fd5b6143fd8a838b01614352565b909750955085915061441160408a0161439a565b9450606089013591508082111561442757600080fd5b5061443489828a01614352565b979a9699509497509295939492505050565b6001600160e01b0319811681146125c157600080fd5b60006020828403121561446e57600080fd5b8135611bc381614446565b60005b8381101561449457818101518382015260200161447c565b838111156119e75750506000910152565b600081518084526144bd816020860160208601614479565b601f01601f19169290920160200192915050565b602081526000611bc360208301846144a5565b6000602082840312156144f657600080fd5b8135611bc381614342565b60006020828403121561451357600080fd5b5035919050565b6001600160a01b03811681146125c157600080fd5b8035613b2c8161451a565b6000806040838503121561454d57600080fd5b82356145588161451a565b946020939093013593505050565b6000806040838503121561457957600080fd5b823561455881614342565b60008060006060848603121561459957600080fd5b83356145a48161451a565b925060208401356145b48161451a565b929592945050506040919091013590565b634e487b7160e01b600052604160045260246000fd5b604080519081016001600160401b03811182821017156145fd576145fd6145c5565b60405290565b604051601f8201601f191681016001600160401b038111828210171561462b5761462b6145c5565b604052919050565b60006001600160401b0382111561464c5761464c6145c5565b50601f01601f191660200190565b600082601f83011261466b57600080fd5b813561467e61467982614633565b614603565b81815284602083860101111561469357600080fd5b816020850160208301376000918101602001919091529392505050565b80358015158114613b2c57600080fd5b600080600080600060a086880312156146d857600080fd5b85356146e381614342565b945060208601356001600160401b03808211156146ff57600080fd5b61470b89838a0161465a565b955060408801359450614720606089016146b0565b9350608088013591508082111561473657600080fd5b506147438882890161465a565b9150509295509295909350565b60008060006040848603121561476557600080fd5b833561477081614342565b925060208401356001600160401b0381111561478b57600080fd5b61479786828701614352565b9497909650939450505050565b600080600080600080600060e0888a0312156147bf57600080fd5b87356147ca8161451a565b965060208801356147da81614342565b955060408801356001600160401b03808211156147f657600080fd5b6148028b838c0161465a565b965060608a0135955060808a0135915061481b8261451a565b90935060a08901359061482d8261451a565b90925060c0890135908082111561484357600080fd5b506148508a828b0161465a565b91505092959891949750929550565b60008060006060848603121561487457600080fd5b833561487f81614342565b925060208401356001600160401b0381111561489a57600080fd5b6148a68682870161465a565b9250506148b56040850161439a565b90509250925092565b6000602082840312156148d057600080fd5b8135611bc38161451a565b600080604083850312156148ee57600080fd5b82356148f981614342565b9150602083013561490981614342565b809150509250929050565b60006001600160401b0382111561492d5761492d6145c5565b5060051b60200190565b600082601f83011261494857600080fd5b8135602061495861467983614914565b82815260069290921b8401810191818101908684111561497757600080fd5b8286015b848110156149b657604081890312156149945760008081fd5b61499c6145db565b81358152848201358582015283529183019160400161497b565b509695505050505050565b6000806000606084860312156149d657600080fd5b83356149e181614342565b925060208401356001600160401b038111156149fc57600080fd5b614a0886828701614937565b9250506148b5604085016146b0565b600060208284031215614a2957600080fd5b81356001600160401b03811115614a3f57600080fd5b61266f8482850161465a565b60008060408385031215614a5e57600080fd5b8235614a698161451a565b9150614a77602084016146b0565b90509250929050565b60008060008060808587031215614a9657600080fd5b8435614aa181614342565b935060208501356001600160401b03811115614abc57600080fd5b614ac887828801614937565b9350506040850135614ad98161451a565b91506060850135614ae98161451a565b939692955090935050565b600082601f830112614b0557600080fd5b81356020614b1561467983614914565b82815260059290921b84018101918181019086841115614b3457600080fd5b8286015b848110156149b65780358352918301918301614b38565b600080600080600080600060e0888a031215614b6a57600080fd5b8735614b758161451a565b96506020880135614b8581614342565b955060408801356001600160401b0380821115614ba157600080fd5b614bad8b838c0161465a565b965060608a0135915080821115614bc357600080fd5b614bcf8b838c01614af4565b9550614bdd60808b0161452f565b9450614beb60a08b0161452f565b935060c08a013591508082111561484357600080fd5b60008060008060808587031215614c1757600080fd5b8435614c228161451a565b93506020850135614c328161451a565b92506040850135915060608501356001600160401b03811115614c5457600080fd5b614c608782880161465a565b91505092959194509250565b600080600080600060808688031215614c8457600080fd5b8535614c8f81614342565b94506020860135614c9f81614342565b93506040860135925060608601356001600160401b03811115614cc157600080fd5b614ccd88828901614352565b969995985093965092949392505050565b600081518084526020808501945080840160005b83811015614d19578151805188528301518388015260409096019590820190600101614cf2565b509495945050505050565b602081526000611bc36020830184614cde565b600080600060608486031215614d4c57600080fd5b8335614d5781614342565b925060208401356145b481614342565b60008060408385031215614d7a57600080fd5b8235614d858161451a565b915060208301356149098161451a565b600080600080600060a08688031215614dad57600080fd5b8535614db881614342565b945060208601356001600160401b0380821115614dd457600080fd5b614de089838a0161465a565b95506040880135915080821115614df657600080fd5b614e0289838a01614af4565b9450614720606089016146b0565b60008060008060808587031215614e2657600080fd5b8435614e3181614342565b93506020850135614e4181614342565b92506040850135614e518161451a565b9396929550929360600135925050565b600181811c90821680614e7557607f821691505b60208210811415614e9657634e487b7160e01b600052602260045260246000fd5b50919050565b8183823760009101908152919050565b634e487b7160e01b600052603260045260246000fd5b634e487b7160e01b600052601160045260246000fd5b60008219821115614eeb57614eeb614ec2565b500190565b6020808252602e908201527f4552433732313a2063616c6c6572206973206e6f7420746f6b656e206f776e6560408201526d1c881b9bdc88185c1c1c9bdd995960921b606082015260800190565b81835281816020850137506000828201602090810191909152601f909101601f19169091010190565b61ffff8416815260406020820152600061266c604083018486614f3e565b61ffff8316815260406020820152600061266f6040830184614cde565b600082601f830112614fb357600080fd5b8151614fc161467982614633565b818152846020838601011115614fd657600080fd5b61266f826020830160208701614479565b600080600060608486031215614ffc57600080fd5b835161500781614342565b809350506020808501516001600160401b038082111561502657600080fd5b61503288838901614fa2565b9450604087015191508082111561504857600080fd5b508501601f8101871361505a57600080fd5b805161506861467982614914565b81815260059190911b8201830190838101908983111561508757600080fd5b928401925b828410156150a55783518252928401929084019061508c565b80955050505050509250925092565b6000828210156150c6576150c6614ec2565b500390565b8284823760609190911b6bffffffffffffffffffffffff19169101908152601401919050565b60008351615103818460208801614479565b835190830190615117818360208801614479565b01949350505050565b600061ffff80881683528087166020840152508460408301526080606083015261514e608083018486614f3e565b979650505050505050565b61ffff86168152608060208201526000615177608083018688614f3e565b6001600160401b0394909416604083015250606001529392505050565b600081518084526020808501945080840160005b83811015614d19578151875295820195908201906001016151a8565b61ffff841681526060602082015260006151e160608301856144a5565b82810360408401526151f38185615194565b9695505050505050565b61ffff861681526001600160a01b038516602082015260a06040820181905260009061522b908301866144a5565b8415156060840152828103608084015261524581856144a5565b98975050505050505050565b6000806040838503121561526457600080fd5b505080516020909101519092909150565b60006020828403121561528757600080fd5b81516001600160401b0381111561529d57600080fd5b61266f84828501614fa2565b61ffff851681526080602082015260006152c660808301866144a5565b6001600160401b0385166040840152828103606084015261514e81856144a5565b600081600019048311821515161561530157615301614ec2565b500290565b60008251615318818460208701614479565b9190910192915050565b602081526000611bc36020830184615194565b82815260406020820152600061266f60408301846144a5565b600080604080848603121561536257600080fd5b835161536d81614342565b809350506020808501516001600160401b0381111561538b57600080fd5b8501601f8101871361539c57600080fd5b80516153aa61467982614914565b81815260069190911b820183019083810190898311156153c957600080fd5b928401925b828410156154095785848b0312156153e65760008081fd5b6153ee6145db565b845181528585015186820152825292850192908401906153ce565b8096505050505050509250929050565b600060001982141561542d5761542d614ec2565b5060010190565b61ffff8716815260c06020820152600061545160c08301886144a5565b828103604084015261546381886144a5565b6001600160a01b0387811660608601528616608085015283810360a0850152905061548e81856144a5565b9998505050505050505050565b60208082526032908201527f4552433732313a207472616e7366657220746f206e6f6e20455243373231526560408201527131b2b4bb32b91034b6b83632b6b2b73a32b960711b606082015260800190565b634e487b7160e01b600052601260045260246000fd5b600082615512576155126154ed565b500490565b600082615526576155266154ed565b500690565b600060ff821660ff84168060ff0382111561554857615548614ec2565b019392505050565b61ffff8616815260a06020820152600061556d60a08301876144a5565b6001600160401b0386166040840152828103606084015261558e81866144a5565b9050828103608084015261524581856144a5565b6001600160a01b03858116825284166020820152604081018390526080606082018190526000906151f3908301846144a5565b6000602082840312156155e757600080fd5b8151611bc38161444656fea2646970667358221220fc16c29987a46dfecea78ed568583565b0933d08b8d48c682011384e71d847b064736f6c634300080c0033",
  "devdoc": {
    "kind": "dev",
    "methods": {
      "approve(address,uint256)": {
        "details": "See {IERC721-approve}."
      },
      "balanceOf(address)": {
        "details": "See {IERC721-balanceOf}."
      },
      "constructor": {
        "params": {
          "_indexArray": "to set to all ones representing token ids available to mint",
          "_layerZeroEndpoint": "handles message transmission across chains",
          "_name": "the name of the token",
          "_symbol": "the token symbol"
        }
      },
      "estimateSendFee(uint16,bytes,uint256,bool,bytes)": {
        "details": "estimate send token `_tokenId` to (`_dstChainId`, `_toAddress`) _dstChainId - L0 defined chain id to send tokens too _toAddress - dynamic bytes array which contains the address to whom you are sending tokens to on the dstChain _tokenId - token Id to transfer _useZro - indicates to use zro to pay L0 fees _adapterParams - flexible bytes array to indicate messaging adapter services in L0"
      },
      "getApproved(uint256)": {
        "details": "See {IERC721-getApproved}."
      },
      "isApprovedForAll(address,address)": {
        "details": "See {IERC721-isApprovedForAll}."
      },
      "name()": {
        "details": "See {IERC721Metadata-name}."
      },
      "owner()": {
        "details": "Returns the address of the current owner."
      },
      "ownerOf(uint256)": {
        "details": "See {IERC721-ownerOf}."
      },
      "renounceOwnership()": {
        "details": "Leaves the contract without owner. It will not be possible to call `onlyOwner` functions anymore. Can only be called by the current owner. NOTE: Renouncing ownership will leave the contract without an owner, thereby removing any functionality that is only available to the owner."
      },
      "safeTransferFrom(address,address,uint256)": {
        "details": "See {IERC721-safeTransferFrom}."
      },
      "safeTransferFrom(address,address,uint256,bytes)": {
        "details": "See {IERC721-safeTransferFrom}."
      },
      "sendBatchFrom(address,uint16,bytes,uint256[],address,address,bytes)": {
        "details": "send tokens `_tokenIds[]` to (`_dstChainId`, `_toAddress`) from `_from` `_toAddress` can be any size depending on the `dstChainId`. `_zroPaymentAddress` set to address(0x0) if not paying in ZRO (LayerZero Token) `_adapterParams` is a flexible bytes array to indicate messaging adapter services"
      },
      "sendFrom(address,uint16,bytes,uint256,address,address,bytes)": {
        "details": "send token `_tokenId` to (`_dstChainId`, `_toAddress`) from `_from` `_toAddress` can be any size depending on the `dstChainId`. `_zroPaymentAddress` set to address(0x0) if not paying in ZRO (LayerZero Token) `_adapterParams` is a flexible bytes array to indicate messaging adapter services"
      },
      "setApprovalForAll(address,bool)": {
        "details": "See {IERC721-setApprovalForAll}."
      },
      "symbol()": {
        "details": "See {IERC721Metadata-symbol}."
      },
      "tokenURI(uint256)": {
        "details": "See {IERC721Metadata-tokenURI}."
      },
      "transferFrom(address,address,uint256)": {
        "details": "See {IERC721-transferFrom}."
      },
      "transferOwnership(address)": {
        "details": "Transfers ownership of the contract to a new account (`newOwner`). Can only be called by the current owner."
      }
    },
    "version": 1
  },
  "userdoc": {
    "kind": "user",
    "methods": {
      "constructor": {
        "notice": "Constructor for the DistributeONFT721"
      }
    },
    "notice": "DistributeONFT allows for contracts to distribute unused token ids to other chains. Default is set to 10,000 token ids w/ 2500 tokens on 4 chains. Uses uint[](40) to keep track of token ids on current chain. Each uint in the array uses 250 bits of its allotted 256 bits to represent token ids. If the bit is set to 1 then that token id can be minted. Token Ids are defined by where they are in the tokenIds array. For example: [0]: 1-250, [1]: 251-500, [2]: 501-750, ... , [40]: 9751-10000 Example using 8 bits to represent token distribution: Chain A | Chain B tokenIds[0]: 0xff    | 0x0 tokenIds[1]: 0x0     | 0xff Binary equivalent: Chain A   |  Chain B tokenIds[0]: 1111 1111  | 0000 0000 tokenIds[1]: 0000 0000  | 1111 1111 In this scenario Chain A owns tokenIds: 1,2,3,4,5,6,7,8 and Chain B owns tokenIds: 9,10,11,12,13,14,15,16 Chain A wants to send over 2 Token Ids to Chain B Chain A | Chain B tokenIds[0]: 0x3f    | 0xc0 tokenIds[1]: 0x0     | 0xff Binary equivalent: Chain A   |  Chain B tokenIds[0]: 0011 1111  | 1100 0000 tokenIds[1]: 0000 0000  | 1111 1111 Now Chain A owns tokenIds: 3,4,5,6,7,8 and Chain B owns tokenIds: 1,2,9,10,11,12,13,14,15,16*",
    "version": 1
  },
  "storageLayout": {
    "storage": [
      {
        "astId": 4047,
        "contract": "contracts/token/onft/extension/DistributeONFT721.sol:DistributeONFT721",
        "label": "_owner",
        "offset": 0,
        "slot": "0",
        "type": "t_address"
      },
      {
        "astId": 14681,
        "contract": "contracts/token/onft/extension/DistributeONFT721.sol:DistributeONFT721",
        "label": "trustedRemoteLookup",
        "offset": 0,
        "slot": "1",
        "type": "t_mapping(t_uint16,t_bytes_storage)"
      },
      {
        "astId": 14687,
        "contract": "contracts/token/onft/extension/DistributeONFT721.sol:DistributeONFT721",
        "label": "minDstGasLookup",
        "offset": 0,
        "slot": "2",
        "type": "t_mapping(t_uint16,t_mapping(t_uint16,t_uint256))"
      },
      {
        "astId": 14691,
        "contract": "contracts/token/onft/extension/DistributeONFT721.sol:DistributeONFT721",
        "label": "payloadSizeLimitLookup",
        "offset": 0,
        "slot": "3",
        "type": "t_mapping(t_uint16,t_uint256)"
      },
      {
        "astId": 14693,
        "contract": "contracts/token/onft/extension/DistributeONFT721.sol:DistributeONFT721",
        "label": "precrime",
        "offset": 0,
        "slot": "4",
        "type": "t_address"
      },
      {
        "astId": 15230,
        "contract": "contracts/token/onft/extension/DistributeONFT721.sol:DistributeONFT721",
        "label": "failedMessages",
        "offset": 0,
        "slot": "5",
        "type": "t_mapping(t_uint16,t_mapping(t_bytes_memory_ptr,t_mapping(t_uint64,t_bytes32)))"
      },
      {
        "astId": 24486,
        "contract": "contracts/token/onft/extension/DistributeONFT721.sol:DistributeONFT721",
        "label": "minGasToTransferAndStore",
        "offset": 0,
        "slot": "6",
        "type": "t_uint256"
      },
      {
        "astId": 24490,
        "contract": "contracts/token/onft/extension/DistributeONFT721.sol:DistributeONFT721",
        "label": "dstChainIdToBatchLimit",
        "offset": 0,
        "slot": "7",
        "type": "t_mapping(t_uint16,t_uint256)"
      },
      {
        "astId": 24494,
        "contract": "contracts/token/onft/extension/DistributeONFT721.sol:DistributeONFT721",
        "label": "dstChainIdToTransferGas",
        "offset": 0,
        "slot": "8",
        "type": "t_mapping(t_uint16,t_uint256)"
      },
      {
        "astId": 24499,
        "contract": "contracts/token/onft/extension/DistributeONFT721.sol:DistributeONFT721",
        "label": "storedCredits",
        "offset": 0,
        "slot": "9",
        "type": "t_mapping(t_bytes32,t_struct(StoredCredit)24484_storage)"
      },
      {
        "astId": 6798,
        "contract": "contracts/token/onft/extension/DistributeONFT721.sol:DistributeONFT721",
        "label": "_name",
        "offset": 0,
        "slot": "10",
        "type": "t_string_storage"
      },
      {
        "astId": 6800,
        "contract": "contracts/token/onft/extension/DistributeONFT721.sol:DistributeONFT721",
        "label": "_symbol",
        "offset": 0,
        "slot": "11",
        "type": "t_string_storage"
      },
      {
        "astId": 6804,
        "contract": "contracts/token/onft/extension/DistributeONFT721.sol:DistributeONFT721",
        "label": "_owners",
        "offset": 0,
        "slot": "12",
        "type": "t_mapping(t_uint256,t_address)"
      },
      {
        "astId": 6808,
        "contract": "contracts/token/onft/extension/DistributeONFT721.sol:DistributeONFT721",
        "label": "_balances",
        "offset": 0,
        "slot": "13",
        "type": "t_mapping(t_address,t_uint256)"
      },
      {
        "astId": 6812,
        "contract": "contracts/token/onft/extension/DistributeONFT721.sol:DistributeONFT721",
        "label": "_tokenApprovals",
        "offset": 0,
        "slot": "14",
        "type": "t_mapping(t_uint256,t_address)"
      },
      {
        "astId": 6818,
        "contract": "contracts/token/onft/extension/DistributeONFT721.sol:DistributeONFT721",
        "label": "_operatorApprovals",
        "offset": 0,
        "slot": "15",
        "type": "t_mapping(t_address,t_mapping(t_address,t_bool))"
      },
      {
        "astId": 25140,
        "contract": "contracts/token/onft/extension/DistributeONFT721.sol:DistributeONFT721",
        "label": "distributeBaseDstGas",
        "offset": 0,
        "slot": "16",
        "type": "t_uint256"
      },
      {
        "astId": 25143,
        "contract": "contracts/token/onft/extension/DistributeONFT721.sol:DistributeONFT721",
        "label": "distributeGasPerIdx",
        "offset": 0,
        "slot": "17",
        "type": "t_uint256"
      },
      {
        "astId": 25182,
        "contract": "contracts/token/onft/extension/DistributeONFT721.sol:DistributeONFT721",
        "label": "tokenIds",
        "offset": 0,
        "slot": "18",
        "type": "t_array(t_uint256)dyn_storage"
      }
    ],
    "types": {
      "t_address": {
        "encoding": "inplace",
        "label": "address",
        "numberOfBytes": "20"
      },
      "t_array(t_uint256)dyn_storage": {
        "base": "t_uint256",
        "encoding": "dynamic_array",
        "label": "uint256[]",
        "numberOfBytes": "32"
      },
      "t_bool": {
        "encoding": "inplace",
        "label": "bool",
        "numberOfBytes": "1"
      },
      "t_bytes32": {
        "encoding": "inplace",
        "label": "bytes32",
        "numberOfBytes": "32"
      },
      "t_bytes_memory_ptr": {
        "encoding": "bytes",
        "label": "bytes",
        "numberOfBytes": "32"
      },
      "t_bytes_storage": {
        "encoding": "bytes",
        "label": "bytes",
        "numberOfBytes": "32"
      },
      "t_mapping(t_address,t_bool)": {
        "encoding": "mapping",
        "key": "t_address",
        "label": "mapping(address => bool)",
        "numberOfBytes": "32",
        "value": "t_bool"
      },
      "t_mapping(t_address,t_mapping(t_address,t_bool))": {
        "encoding": "mapping",
        "key": "t_address",
        "label": "mapping(address => mapping(address => bool))",
        "numberOfBytes": "32",
        "value": "t_mapping(t_address,t_bool)"
      },
      "t_mapping(t_address,t_uint256)": {
        "encoding": "mapping",
        "key": "t_address",
        "label": "mapping(address => uint256)",
        "numberOfBytes": "32",
        "value": "t_uint256"
      },
      "t_mapping(t_bytes32,t_struct(StoredCredit)24484_storage)": {
        "encoding": "mapping",
        "key": "t_bytes32",
        "label": "mapping(bytes32 => struct ONFT721Core.StoredCredit)",
        "numberOfBytes": "32",
        "value": "t_struct(StoredCredit)24484_storage"
      },
      "t_mapping(t_bytes_memory_ptr,t_mapping(t_uint64,t_bytes32))": {
        "encoding": "mapping",
        "key": "t_bytes_memory_ptr",
        "label": "mapping(bytes => mapping(uint64 => bytes32))",
        "numberOfBytes": "32",
        "value": "t_mapping(t_uint64,t_bytes32)"
      },
      "t_mapping(t_uint16,t_bytes_storage)": {
        "encoding": "mapping",
        "key": "t_uint16",
        "label": "mapping(uint16 => bytes)",
        "numberOfBytes": "32",
        "value": "t_bytes_storage"
      },
      "t_mapping(t_uint16,t_mapping(t_bytes_memory_ptr,t_mapping(t_uint64,t_bytes32)))": {
        "encoding": "mapping",
        "key": "t_uint16",
        "label": "mapping(uint16 => mapping(bytes => mapping(uint64 => bytes32)))",
        "numberOfBytes": "32",
        "value": "t_mapping(t_bytes_memory_ptr,t_mapping(t_uint64,t_bytes32))"
      },
      "t_mapping(t_uint16,t_mapping(t_uint16,t_uint256))": {
        "encoding": "mapping",
        "key": "t_uint16",
        "label": "mapping(uint16 => mapping(uint16 => uint256))",
        "numberOfBytes": "32",
        "value": "t_mapping(t_uint16,t_uint256)"
      },
      "t_mapping(t_uint16,t_uint256)": {
        "encoding": "mapping",
        "key": "t_uint16",
        "label": "mapping(uint16 => uint256)",
        "numberOfBytes": "32",
        "value": "t_uint256"
      },
      "t_mapping(t_uint256,t_address)": {
        "encoding": "mapping",
        "key": "t_uint256",
        "label": "mapping(uint256 => address)",
        "numberOfBytes": "32",
        "value": "t_address"
      },
      "t_mapping(t_uint64,t_bytes32)": {
        "encoding": "mapping",
        "key": "t_uint64",
        "label": "mapping(uint64 => bytes32)",
        "numberOfBytes": "32",
        "value": "t_bytes32"
      },
      "t_string_storage": {
        "encoding": "bytes",
        "label": "string",
        "numberOfBytes": "32"
      },
      "t_struct(StoredCredit)24484_storage": {
        "encoding": "inplace",
        "label": "struct ONFT721Core.StoredCredit",
        "members": [
          {
            "astId": 24477,
            "contract": "contracts/token/onft/extension/DistributeONFT721.sol:DistributeONFT721",
            "label": "srcChainId",
            "offset": 0,
            "slot": "0",
            "type": "t_uint16"
          },
          {
            "astId": 24479,
            "contract": "contracts/token/onft/extension/DistributeONFT721.sol:DistributeONFT721",
            "label": "toAddress",
            "offset": 2,
            "slot": "0",
            "type": "t_address"
          },
          {
            "astId": 24481,
            "contract": "contracts/token/onft/extension/DistributeONFT721.sol:DistributeONFT721",
            "label": "index",
            "offset": 0,
            "slot": "1",
            "type": "t_uint256"
          },
          {
            "astId": 24483,
            "contract": "contracts/token/onft/extension/DistributeONFT721.sol:DistributeONFT721",
            "label": "creditsRemain",
            "offset": 0,
            "slot": "2",
            "type": "t_bool"
          }
        ],
        "numberOfBytes": "96"
      },
      "t_uint16": {
        "encoding": "inplace",
        "label": "uint16",
        "numberOfBytes": "2"
      },
      "t_uint256": {
        "encoding": "inplace",
        "label": "uint256",
        "numberOfBytes": "32"
      },
      "t_uint64": {
        "encoding": "inplace",
        "label": "uint64",
        "numberOfBytes": "8"
      }
    }
  }
}