{
  "address": "0xFF7E5F0fAf0cbA105CDb875833b801355FA58aA0",
  "abi": [
    {
      "inputs": [
        {
          "internalType": "uint256",
          "name": "_minGasToStore",
          "type": "uint256"
        },
        {
          "internalType": "address",
          "name": "_layerZeroEndpoint",
          "type": "address"
        },
        {
          "internalType": "uint256",
          "name": "_startMintId",
          "type": "uint256"
        },
        {
          "internalType": "uint256",
          "name": "_endMintId",
          "type": "uint256"
        }
      ],
      "stateMutability": "nonpayable",
      "type": "constructor"
    },
    {
      "anonymous": false,
      "inputs": [
        {
          "indexed": true,
          "internalType": "address",
          "name": "owner",
          "type": "address"
        },
        {
          "indexed": true,
          "internalType": "address",
          "name": "approved",
          "type": "address"
        },
        {
          "indexed": true,
          "internalType": "uint256",
          "name": "tokenId",
          "type": "uint256"
        }
      ],
      "name": "Approval",
      "type": "event"
    },
    {
      "anonymous": false,
      "inputs": [
        {
          "indexed": true,
          "internalType": "address",
          "name": "owner",
          "type": "address"
        },
        {
          "indexed": true,
          "internalType": "address",
          "name": "operator",
          "type": "address"
        },
        {
          "indexed": false,
          "internalType": "bool",
          "name": "approved",
          "type": "bool"
        }
      ],
      "name": "ApprovalForAll",
      "type": "event"
    },
    {
      "anonymous": false,
      "inputs": [
        {
          "indexed": false,
          "internalType": "bytes32",
          "name": "_hashedPayload",
          "type": "bytes32"
        }
      ],
      "name": "CreditCleared",
      "type": "event"
    },
    {
      "anonymous": false,
      "inputs": [
        {
          "indexed": false,
          "internalType": "bytes32",
          "name": "_hashedPayload",
          "type": "bytes32"
        },
        {
          "indexed": false,
          "internalType": "bytes",
          "name": "_payload",
          "type": "bytes"
        }
      ],
      "name": "CreditStored",
      "type": "event"
    },
    {
      "anonymous": false,
      "inputs": [
        {
          "indexed": false,
          "internalType": "uint16",
          "name": "_srcChainId",
          "type": "uint16"
        },
        {
          "indexed": false,
          "internalType": "bytes",
          "name": "_srcAddress",
          "type": "bytes"
        },
        {
          "indexed": false,
          "internalType": "uint64",
          "name": "_nonce",
          "type": "uint64"
        },
        {
          "indexed": false,
          "internalType": "bytes",
          "name": "_payload",
          "type": "bytes"
        },
        {
          "indexed": false,
          "internalType": "bytes",
          "name": "_reason",
          "type": "bytes"
        }
      ],
      "name": "MessageFailed",
      "type": "event"
    },
    {
      "anonymous": false,
      "inputs": [
        {
          "indexed": true,
          "internalType": "address",
          "name": "previousOwner",
          "type": "address"
        },
        {
          "indexed": true,
          "internalType": "address",
          "name": "newOwner",
          "type": "address"
        }
      ],
      "name": "OwnershipTransferred",
      "type": "event"
    },
    {
      "anonymous": false,
      "inputs": [
        {
          "indexed": true,
          "internalType": "uint16",
          "name": "_srcChainId",
          "type": "uint16"
        },
        {
          "indexed": true,
          "internalType": "bytes",
          "name": "_srcAddress",
          "type": "bytes"
        },
        {
          "indexed": true,
          "internalType": "address",
          "name": "_toAddress",
          "type": "address"
        },
        {
          "indexed": false,
          "internalType": "uint256[]",
          "name": "_tokenIds",
          "type": "uint256[]"
        }
      ],
      "name": "ReceiveFromChain",
      "type": "event"
    },
    {
      "anonymous": false,
      "inputs": [
        {
          "indexed": false,
          "internalType": "uint16",
          "name": "_srcChainId",
          "type": "uint16"
        },
        {
          "indexed": false,
          "internalType": "bytes",
          "name": "_srcAddress",
          "type": "bytes"
        },
        {
          "indexed": false,
          "internalType": "uint64",
          "name": "_nonce",
          "type": "uint64"
        },
        {
          "indexed": false,
          "internalType": "bytes32",
          "name": "_payloadHash",
          "type": "bytes32"
        }
      ],
      "name": "RetryMessageSuccess",
      "type": "event"
    },
    {
      "anonymous": false,
      "inputs": [
        {
          "indexed": true,
          "internalType": "uint16",
          "name": "_dstChainId",
          "type": "uint16"
        },
        {
          "indexed": true,
          "internalType": "address",
          "name": "_from",
          "type": "address"
        },
        {
          "indexed": true,
          "internalType": "bytes",
          "name": "_toAddress",
          "type": "bytes"
        },
        {
          "indexed": false,
          "internalType": "uint256[]",
          "name": "_tokenIds",
          "type": "uint256[]"
        }
      ],
      "name": "SendToChain",
      "type": "event"
    },
    {
      "anonymous": false,
      "inputs": [
        {
          "indexed": false,
          "internalType": "uint16",
          "name": "_dstChainId",
          "type": "uint16"
        },
        {
          "indexed": false,
          "internalType": "uint256",
          "name": "_dstChainIdToBatchLimit",
          "type": "uint256"
        }
      ],
      "name": "SetDstChainIdToBatchLimit",
      "type": "event"
    },
    {
      "anonymous": false,
      "inputs": [
        {
          "indexed": false,
          "internalType": "uint16",
          "name": "_dstChainId",
          "type": "uint16"
        },
        {
          "indexed": false,
          "internalType": "uint256",
          "name": "_dstChainIdToTransferGas",
          "type": "uint256"
        }
      ],
      "name": "SetDstChainIdToTransferGas",
      "type": "event"
    },
    {
      "anonymous": false,
      "inputs": [
        {
          "indexed": false,
          "internalType": "uint16",
          "name": "_dstChainId",
          "type": "uint16"
        },
        {
          "indexed": false,
          "internalType": "uint16",
          "name": "_type",
          "type": "uint16"
        },
        {
          "indexed": false,
          "internalType": "uint256",
          "name": "_minDstGas",
          "type": "uint256"
        }
      ],
      "name": "SetMinDstGas",
      "type": "event"
    },
    {
      "anonymous": false,
      "inputs": [
        {
          "indexed": false,
          "internalType": "uint256",
          "name": "_minGasToTransferAndStore",
          "type": "uint256"
        }
      ],
      "name": "SetMinGasToTransferAndStore",
      "type": "event"
    },
    {
      "anonymous": false,
      "inputs": [
        {
          "indexed": false,
          "internalType": "address",
          "name": "precrime",
          "type": "address"
        }
      ],
      "name": "SetPrecrime",
      "type": "event"
    },
    {
      "anonymous": false,
      "inputs": [
        {
          "indexed": false,
          "internalType": "uint16",
          "name": "_remoteChainId",
          "type": "uint16"
        },
        {
          "indexed": false,
          "internalType": "bytes",
          "name": "_path",
          "type": "bytes"
        }
      ],
      "name": "SetTrustedRemote",
      "type": "event"
    },
    {
      "anonymous": false,
      "inputs": [
        {
          "indexed": false,
          "internalType": "uint16",
          "name": "_remoteChainId",
          "type": "uint16"
        },
        {
          "indexed": false,
          "internalType": "bytes",
          "name": "_remoteAddress",
          "type": "bytes"
        }
      ],
      "name": "SetTrustedRemoteAddress",
      "type": "event"
    },
    {
      "anonymous": false,
      "inputs": [
        {
          "indexed": true,
          "internalType": "address",
          "name": "from",
          "type": "address"
        },
        {
          "indexed": true,
          "internalType": "address",
          "name": "to",
          "type": "address"
        },
        {
          "indexed": true,
          "internalType": "uint256",
          "name": "tokenId",
          "type": "uint256"
        }
      ],
      "name": "Transfer",
      "type": "event"
    },
    {
      "inputs": [],
      "name": "DEFAULT_PAYLOAD_SIZE_LIMIT",
      "outputs": [
        {
          "internalType": "uint256",
          "name": "",
          "type": "uint256"
        }
      ],
      "stateMutability": "view",
      "type": "function"
    },
    {
      "inputs": [],
      "name": "FUNCTION_TYPE_SEND",
      "outputs": [
        {
          "internalType": "uint16",
          "name": "",
          "type": "uint16"
        }
      ],
      "stateMutability": "view",
      "type": "function"
    },
    {
      "inputs": [
        {
          "internalType": "address",
          "name": "to",
          "type": "address"
        },
        {
          "internalType": "uint256",
          "name": "tokenId",
          "type": "uint256"
        }
      ],
      "name": "approve",
      "outputs": [],
      "stateMutability": "nonpayable",
      "type": "function"
    },
    {
      "inputs": [
        {
          "internalType": "address",
          "name": "owner",
          "type": "address"
        }
      ],
      "name": "balanceOf",
      "outputs": [
        {
          "internalType": "uint256",
          "name": "",
          "type": "uint256"
        }
      ],
      "stateMutability": "view",
      "type": "function"
    },
    {
      "inputs": [
        {
          "internalType": "bytes",
          "name": "_payload",
          "type": "bytes"
        }
      ],
      "name": "clearCredits",
      "outputs": [],
      "stateMutability": "nonpayable",
      "type": "function"
    },
    {
      "inputs": [
        {
          "internalType": "uint16",
          "name": "",
          "type": "uint16"
        }
      ],
      "name": "dstChainIdToBatchLimit",
      "outputs": [
        {
          "internalType": "uint256",
          "name": "",
          "type": "uint256"
        }
      ],
      "stateMutability": "view",
      "type": "function"
    },
    {
      "inputs": [
        {
          "internalType": "uint16",
          "name": "",
          "type": "uint16"
        }
      ],
      "name": "dstChainIdToTransferGas",
      "outputs": [
        {
          "internalType": "uint256",
          "name": "",
          "type": "uint256"
        }
      ],
      "stateMutability": "view",
      "type": "function"
    },
    {
      "inputs": [
        {
          "internalType": "uint16",
          "name": "_dstChainId",
          "type": "uint16"
        },
        {
          "internalType": "bytes",
          "name": "_toAddress",
          "type": "bytes"
        },
        {
          "internalType": "uint256[]",
          "name": "_tokenIds",
          "type": "uint256[]"
        },
        {
          "internalType": "bool",
          "name": "_useZro",
          "type": "bool"
        },
        {
          "internalType": "bytes",
          "name": "_adapterParams",
          "type": "bytes"
        }
      ],
      "name": "estimateSendBatchFee",
      "outputs": [
        {
          "internalType": "uint256",
          "name": "nativeFee",
          "type": "uint256"
        },
        {
          "internalType": "uint256",
          "name": "zroFee",
          "type": "uint256"
        }
      ],
      "stateMutability": "view",
      "type": "function"
    },
    {
      "inputs": [
        {
          "internalType": "uint16",
          "name": "_dstChainId",
          "type": "uint16"
        },
        {
          "internalType": "bytes",
          "name": "_toAddress",
          "type": "bytes"
        },
        {
          "internalType": "uint256",
          "name": "_tokenId",
          "type": "uint256"
        },
        {
          "internalType": "bool",
          "name": "_useZro",
          "type": "bool"
        },
        {
          "internalType": "bytes",
          "name": "_adapterParams",
          "type": "bytes"
        }
      ],
      "name": "estimateSendFee",
      "outputs": [
        {
          "internalType": "uint256",
          "name": "nativeFee",
          "type": "uint256"
        },
        {
          "internalType": "uint256",
          "name": "zroFee",
          "type": "uint256"
        }
      ],
      "stateMutability": "view",
      "type": "function"
    },
    {
      "inputs": [
        {
          "internalType": "uint16",
          "name": "",
          "type": "uint16"
        },
        {
          "internalType": "bytes",
          "name": "",
          "type": "bytes"
        },
        {
          "internalType": "uint64",
          "name": "",
          "type": "uint64"
        }
      ],
      "name": "failedMessages",
      "outputs": [
        {
          "internalType": "bytes32",
          "name": "",
          "type": "bytes32"
        }
      ],
      "stateMutability": "view",
      "type": "function"
    },
    {
      "inputs": [
        {
          "internalType": "uint16",
          "name": "_srcChainId",
          "type": "uint16"
        },
        {
          "internalType": "bytes",
          "name": "_srcAddress",
          "type": "bytes"
        }
      ],
      "name": "forceResumeReceive",
      "outputs": [],
      "stateMutability": "nonpayable",
      "type": "function"
    },
    {
      "inputs": [
        {
          "internalType": "uint256",
          "name": "tokenId",
          "type": "uint256"
        }
      ],
      "name": "getApproved",
      "outputs": [
        {
          "internalType": "address",
          "name": "",
          "type": "address"
        }
      ],
      "stateMutability": "view",
      "type": "function"
    },
    {
      "inputs": [
        {
          "internalType": "uint16",
          "name": "_version",
          "type": "uint16"
        },
        {
          "internalType": "uint16",
          "name": "_chainId",
          "type": "uint16"
        },
        {
          "internalType": "address",
          "name": "",
          "type": "address"
        },
        {
          "internalType": "uint256",
          "name": "_configType",
          "type": "uint256"
        }
      ],
      "name": "getConfig",
      "outputs": [
        {
          "internalType": "bytes",
          "name": "",
          "type": "bytes"
        }
      ],
      "stateMutability": "view",
      "type": "function"
    },
    {
      "inputs": [
        {
          "internalType": "uint16",
          "name": "_remoteChainId",
          "type": "uint16"
        }
      ],
      "name": "getTrustedRemoteAddress",
      "outputs": [
        {
          "internalType": "bytes",
          "name": "",
          "type": "bytes"
        }
      ],
      "stateMutability": "view",
      "type": "function"
    },
    {
      "inputs": [
        {
          "internalType": "address",
          "name": "owner",
          "type": "address"
        },
        {
          "internalType": "address",
          "name": "operator",
          "type": "address"
        }
      ],
      "name": "isApprovedForAll",
      "outputs": [
        {
          "internalType": "bool",
          "name": "",
          "type": "bool"
        }
      ],
      "stateMutability": "view",
      "type": "function"
    },
    {
      "inputs": [
        {
          "internalType": "uint16",
          "name": "_srcChainId",
          "type": "uint16"
        },
        {
          "internalType": "bytes",
          "name": "_srcAddress",
          "type": "bytes"
        }
      ],
      "name": "isTrustedRemote",
      "outputs": [
        {
          "internalType": "bool",
          "name": "",
          "type": "bool"
        }
      ],
      "stateMutability": "view",
      "type": "function"
    },
    {
      "inputs": [],
      "name": "lzEndpoint",
      "outputs": [
        {
          "internalType": "contract ILayerZeroEndpoint",
          "name": "",
          "type": "address"
        }
      ],
      "stateMutability": "view",
      "type": "function"
    },
    {
      "inputs": [
        {
          "internalType": "uint16",
          "name": "_srcChainId",
          "type": "uint16"
        },
        {
          "internalType": "bytes",
          "name": "_srcAddress",
          "type": "bytes"
        },
        {
          "internalType": "uint64",
          "name": "_nonce",
          "type": "uint64"
        },
        {
          "internalType": "bytes",
          "name": "_payload",
          "type": "bytes"
        }
      ],
      "name": "lzReceive",
      "outputs": [],
      "stateMutability": "nonpayable",
      "type": "function"
    },
    {
      "inputs": [],
      "name": "maxMintId",
      "outputs": [
        {
          "internalType": "uint256",
          "name": "",
          "type": "uint256"
        }
      ],
      "stateMutability": "view",
      "type": "function"
    },
    {
      "inputs": [
        {
          "internalType": "uint16",
          "name": "",
          "type": "uint16"
        },
        {
          "internalType": "uint16",
          "name": "",
          "type": "uint16"
        }
      ],
      "name": "minDstGasLookup",
      "outputs": [
        {
          "internalType": "uint256",
          "name": "",
          "type": "uint256"
        }
      ],
      "stateMutability": "view",
      "type": "function"
    },
    {
      "inputs": [],
      "name": "minGasToTransferAndStore",
      "outputs": [
        {
          "internalType": "uint256",
          "name": "",
          "type": "uint256"
        }
      ],
      "stateMutability": "view",
      "type": "function"
    },
    {
      "inputs": [],
      "name": "mint",
      "outputs": [],
      "stateMutability": "payable",
      "type": "function"
    },
    {
      "inputs": [],
      "name": "name",
      "outputs": [
        {
          "internalType": "string",
          "name": "",
          "type": "string"
        }
      ],
      "stateMutability": "view",
      "type": "function"
    },
    {
      "inputs": [],
      "name": "nextMintId",
      "outputs": [
        {
          "internalType": "uint256",
          "name": "",
          "type": "uint256"
        }
      ],
      "stateMutability": "view",
      "type": "function"
    },
    {
      "inputs": [
        {
          "internalType": "uint16",
          "name": "_srcChainId",
          "type": "uint16"
        },
        {
          "internalType": "bytes",
          "name": "_srcAddress",
          "type": "bytes"
        },
        {
          "internalType": "uint64",
          "name": "_nonce",
          "type": "uint64"
        },
        {
          "internalType": "bytes",
          "name": "_payload",
          "type": "bytes"
        }
      ],
      "name": "nonblockingLzReceive",
      "outputs": [],
      "stateMutability": "nonpayable",
      "type": "function"
    },
    {
      "inputs": [],
      "name": "owner",
      "outputs": [
        {
          "internalType": "address",
          "name": "",
          "type": "address"
        }
      ],
      "stateMutability": "view",
      "type": "function"
    },
    {
      "inputs": [
        {
          "internalType": "uint256",
          "name": "tokenId",
          "type": "uint256"
        }
      ],
      "name": "ownerOf",
      "outputs": [
        {
          "internalType": "address",
          "name": "",
          "type": "address"
        }
      ],
      "stateMutability": "view",
      "type": "function"
    },
    {
      "inputs": [
        {
          "internalType": "uint16",
          "name": "",
          "type": "uint16"
        }
      ],
      "name": "payloadSizeLimitLookup",
      "outputs": [
        {
          "internalType": "uint256",
          "name": "",
          "type": "uint256"
        }
      ],
      "stateMutability": "view",
      "type": "function"
    },
    {
      "inputs": [],
      "name": "precrime",
      "outputs": [
        {
          "internalType": "address",
          "name": "",
          "type": "address"
        }
      ],
      "stateMutability": "view",
      "type": "function"
    },
    {
      "inputs": [],
      "name": "renounceOwnership",
      "outputs": [],
      "stateMutability": "nonpayable",
      "type": "function"
    },
    {
      "inputs": [
        {
          "internalType": "uint16",
          "name": "_srcChainId",
          "type": "uint16"
        },
        {
          "internalType": "bytes",
          "name": "_srcAddress",
          "type": "bytes"
        },
        {
          "internalType": "uint64",
          "name": "_nonce",
          "type": "uint64"
        },
        {
          "internalType": "bytes",
          "name": "_payload",
          "type": "bytes"
        }
      ],
      "name": "retryMessage",
      "outputs": [],
      "stateMutability": "payable",
      "type": "function"
    },
    {
      "inputs": [
        {
          "internalType": "address",
          "name": "from",
          "type": "address"
        },
        {
          "internalType": "address",
          "name": "to",
          "type": "address"
        },
        {
          "internalType": "uint256",
          "name": "tokenId",
          "type": "uint256"
        }
      ],
      "name": "safeTransferFrom",
      "outputs": [],
      "stateMutability": "nonpayable",
      "type": "function"
    },
    {
      "inputs": [
        {
          "internalType": "address",
          "name": "from",
          "type": "address"
        },
        {
          "internalType": "address",
          "name": "to",
          "type": "address"
        },
        {
          "internalType": "uint256",
          "name": "tokenId",
          "type": "uint256"
        },
        {
          "internalType": "bytes",
          "name": "data",
          "type": "bytes"
        }
      ],
      "name": "safeTransferFrom",
      "outputs": [],
      "stateMutability": "nonpayable",
      "type": "function"
    },
    {
      "inputs": [
        {
          "internalType": "address",
          "name": "_from",
          "type": "address"
        },
        {
          "internalType": "uint16",
          "name": "_dstChainId",
          "type": "uint16"
        },
        {
          "internalType": "bytes",
          "name": "_toAddress",
          "type": "bytes"
        },
        {
          "internalType": "uint256[]",
          "name": "_tokenIds",
          "type": "uint256[]"
        },
        {
          "internalType": "address payable",
          "name": "_refundAddress",
          "type": "address"
        },
        {
          "internalType": "address",
          "name": "_zroPaymentAddress",
          "type": "address"
        },
        {
          "internalType": "bytes",
          "name": "_adapterParams",
          "type": "bytes"
        }
      ],
      "name": "sendBatchFrom",
      "outputs": [],
      "stateMutability": "payable",
      "type": "function"
    },
    {
      "inputs": [
        {
          "internalType": "address",
          "name": "_from",
          "type": "address"
        },
        {
          "internalType": "uint16",
          "name": "_dstChainId",
          "type": "uint16"
        },
        {
          "internalType": "bytes",
          "name": "_toAddress",
          "type": "bytes"
        },
        {
          "internalType": "uint256",
          "name": "_tokenId",
          "type": "uint256"
        },
        {
          "internalType": "address payable",
          "name": "_refundAddress",
          "type": "address"
        },
        {
          "internalType": "address",
          "name": "_zroPaymentAddress",
          "type": "address"
        },
        {
          "internalType": "bytes",
          "name": "_adapterParams",
          "type": "bytes"
        }
      ],
      "name": "sendFrom",
      "outputs": [],
      "stateMutability": "payable",
      "type": "function"
    },
    {
      "inputs": [
        {
          "internalType": "address",
          "name": "operator",
          "type": "address"
        },
        {
          "internalType": "bool",
          "name": "approved",
          "type": "bool"
        }
      ],
      "name": "setApprovalForAll",
      "outputs": [],
      "stateMutability": "nonpayable",
      "type": "function"
    },
    {
      "inputs": [
        {
          "internalType": "uint16",
          "name": "_version",
          "type": "uint16"
        },
        {
          "internalType": "uint16",
          "name": "_chainId",
          "type": "uint16"
        },
        {
          "internalType": "uint256",
          "name": "_configType",
          "type": "uint256"
        },
        {
          "internalType": "bytes",
          "name": "_config",
          "type": "bytes"
        }
      ],
      "name": "setConfig",
      "outputs": [],
      "stateMutability": "nonpayable",
      "type": "function"
    },
    {
      "inputs": [
        {
          "internalType": "uint16",
          "name": "_dstChainId",
          "type": "uint16"
        },
        {
          "internalType": "uint256",
          "name": "_dstChainIdToBatchLimit",
          "type": "uint256"
        }
      ],
      "name": "setDstChainIdToBatchLimit",
      "outputs": [],
      "stateMutability": "nonpayable",
      "type": "function"
    },
    {
      "inputs": [
        {
          "internalType": "uint16",
          "name": "_dstChainId",
          "type": "uint16"
        },
        {
          "internalType": "uint256",
          "name": "_dstChainIdToTransferGas",
          "type": "uint256"
        }
      ],
      "name": "setDstChainIdToTransferGas",
      "outputs": [],
      "stateMutability": "nonpayable",
      "type": "function"
    },
    {
      "inputs": [
        {
          "internalType": "uint16",
          "name": "_dstChainId",
          "type": "uint16"
        },
        {
          "internalType": "uint16",
          "name": "_packetType",
          "type": "uint16"
        },
        {
          "internalType": "uint256",
          "name": "_minGas",
          "type": "uint256"
        }
      ],
      "name": "setMinDstGas",
      "outputs": [],
      "stateMutability": "nonpayable",
      "type": "function"
    },
    {
      "inputs": [
        {
          "internalType": "uint256",
          "name": "_minGasToTransferAndStore",
          "type": "uint256"
        }
      ],
      "name": "setMinGasToTransferAndStore",
      "outputs": [],
      "stateMutability": "nonpayable",
      "type": "function"
    },
    {
      "inputs": [
        {
          "internalType": "uint16",
          "name": "_dstChainId",
          "type": "uint16"
        },
        {
          "internalType": "uint256",
          "name": "_size",
          "type": "uint256"
        }
      ],
      "name": "setPayloadSizeLimit",
      "outputs": [],
      "stateMutability": "nonpayable",
      "type": "function"
    },
    {
      "inputs": [
        {
          "internalType": "address",
          "name": "_precrime",
          "type": "address"
        }
      ],
      "name": "setPrecrime",
      "outputs": [],
      "stateMutability": "nonpayable",
      "type": "function"
    },
    {
      "inputs": [
        {
          "internalType": "uint16",
          "name": "_version",
          "type": "uint16"
        }
      ],
      "name": "setReceiveVersion",
      "outputs": [],
      "stateMutability": "nonpayable",
      "type": "function"
    },
    {
      "inputs": [
        {
          "internalType": "uint16",
          "name": "_version",
          "type": "uint16"
        }
      ],
      "name": "setSendVersion",
      "outputs": [],
      "stateMutability": "nonpayable",
      "type": "function"
    },
    {
      "inputs": [
        {
          "internalType": "uint16",
          "name": "_remoteChainId",
          "type": "uint16"
        },
        {
          "internalType": "bytes",
          "name": "_path",
          "type": "bytes"
        }
      ],
      "name": "setTrustedRemote",
      "outputs": [],
      "stateMutability": "nonpayable",
      "type": "function"
    },
    {
      "inputs": [
        {
          "internalType": "uint16",
          "name": "_remoteChainId",
          "type": "uint16"
        },
        {
          "internalType": "bytes",
          "name": "_remoteAddress",
          "type": "bytes"
        }
      ],
      "name": "setTrustedRemoteAddress",
      "outputs": [],
      "stateMutability": "nonpayable",
      "type": "function"
    },
    {
      "inputs": [
        {
          "internalType": "bytes32",
          "name": "",
          "type": "bytes32"
        }
      ],
      "name": "storedCredits",
      "outputs": [
        {
          "internalType": "uint16",
          "name": "srcChainId",
          "type": "uint16"
        },
        {
          "internalType": "address",
          "name": "toAddress",
          "type": "address"
        },
        {
          "internalType": "uint256",
          "name": "index",
          "type": "uint256"
        },
        {
          "internalType": "bool",
          "name": "creditsRemain",
          "type": "bool"
        }
      ],
      "stateMutability": "view",
      "type": "function"
    },
    {
      "inputs": [
        {
          "internalType": "bytes4",
          "name": "interfaceId",
          "type": "bytes4"
        }
      ],
      "name": "supportsInterface",
      "outputs": [
        {
          "internalType": "bool",
          "name": "",
          "type": "bool"
        }
      ],
      "stateMutability": "view",
      "type": "function"
    },
    {
      "inputs": [],
      "name": "symbol",
      "outputs": [
        {
          "internalType": "string",
          "name": "",
          "type": "string"
        }
      ],
      "stateMutability": "view",
      "type": "function"
    },
    {
      "inputs": [
        {
          "internalType": "uint256",
          "name": "tokenId",
          "type": "uint256"
        }
      ],
      "name": "tokenURI",
      "outputs": [
        {
          "internalType": "string",
          "name": "",
          "type": "string"
        }
      ],
      "stateMutability": "view",
      "type": "function"
    },
    {
      "inputs": [
        {
          "internalType": "address",
          "name": "from",
          "type": "address"
        },
        {
          "internalType": "address",
          "name": "to",
          "type": "address"
        },
        {
          "internalType": "uint256",
          "name": "tokenId",
          "type": "uint256"
        }
      ],
      "name": "transferFrom",
      "outputs": [],
      "stateMutability": "nonpayable",
      "type": "function"
    },
    {
      "inputs": [
        {
          "internalType": "address",
          "name": "newOwner",
          "type": "address"
        }
      ],
      "name": "transferOwnership",
      "outputs": [],
      "stateMutability": "nonpayable",
      "type": "function"
    },
    {
      "inputs": [
        {
          "internalType": "uint16",
          "name": "",
          "type": "uint16"
        }
      ],
      "name": "trustedRemoteLookup",
      "outputs": [
        {
          "internalType": "bytes",
          "name": "",
          "type": "bytes"
        }
      ],
      "stateMutability": "view",
      "type": "function"
    }
  ],
  "transactionHash": "0x32e7006764c87b2df1a89734819267ebee0da8103e025d7a16cae8c44b8d7f81",
  "args": [
    150000,
    "0x93f54D755A063cE7bB9e6Ac47Eccc8e33411d706",
    11,
    20
  ],
  "numDeployments": 1,
  "solcInputHash": "3a01e3542726d3d15daf75c843767ac5",
  "bytecode": "0x60a06040523480156200001157600080fd5b50604051620049b7380380620049b7833981016040819052620000349162000265565b6040518060400160405280601781526020017f4578616d706c65556e6976657273616c4f4e4654373231000000000000000000815250604051806040016040528060078152602001664f4e465437323160c81b8152508585858585858585838383838080620000b2620000ac6200016b60201b60201c565b6200016f565b6001600160a01b031660805250816200011d5760405162461bcd60e51b8152602060048201526024808201527f6d696e476173546f5472616e73666572416e6453746f7265206d7573742062656044820152630203e20360e41b606482015260840160405180910390fd5b5060065581516200013690600a906020850190620001bf565b5080516200014c90600b906020840190620001bf565b50505060109590955550505060115550620002ef975050505050505050565b3390565b600080546001600160a01b038381166001600160a01b0319831681178455604051919092169283917f8be0079c531659141344cd1fd0a4f28419497f9722a3daafe3b4186f6b6457e09190a35050565b828054620001cd90620002b2565b90600052602060002090601f016020900481019282620001f157600085556200023c565b82601f106200020c57805160ff19168380011785556200023c565b828001600101855582156200023c579182015b828111156200023c5782518255916020019190600101906200021f565b506200024a9291506200024e565b5090565b5b808211156200024a57600081556001016200024f565b600080600080608085870312156200027c57600080fd5b845160208601519094506001600160a01b03811681146200029c57600080fd5b6040860151606090960151949790965092505050565b600181811c90821680620002c757607f821691505b60208210811415620002e957634e487b7160e01b600052602260045260246000fd5b50919050565b60805161467462000343600039600081816108cd01528181610ae701528181610deb015281816110700152818161128e01528181611b5e01528181611fe501528181612118015261315501526146746000f3fe6080604052600436106103345760003560e01c80638cfd8f5c116101ab578063baf3292d116100f7578063e1d4c87011610095578063f23536411161006f578063f235364114610a57578063f2fde38b14610a77578063f5ecbdbc14610a97578063fa25f9b614610ab757600080fd5b8063e1d4c870146109d8578063e985e9c5146109ee578063eb8d72b714610a3757600080fd5b8063cbed8b9c116100d1578063cbed8b9c14610965578063d12473a514610985578063d1deba1f146109a5578063df2a5b3b146109b857600080fd5b8063baf3292d1461090f578063c44618341461092f578063c87b56dd1461094557600080fd5b80639f38369a11610164578063ab3ffb931161013e578063ab3ffb9314610880578063af3fb21c14610893578063b353aaa7146108bb578063b88d4fde146108ef57600080fd5b80639f38369a14610820578063a22cb46514610840578063a6c3d1651461086057600080fd5b80638cfd8f5c146107555780638da5cb5b1461078d5780638ffa1f2a146107ab578063950c8a74146107cb57806395d89b41146107eb5780639ea5d6b11461080057600080fd5b80633d8b38f6116102855780635b8c41e6116102235780636aa99da3116101fd5780636aa99da3146106ea57806370a0823114610700578063715018a6146107205780637533d7881461073557600080fd5b80635b8c41e61461065b5780636352211e146106aa57806366ad5c8a146106ca57600080fd5b806342d65a8d1161025f57806342d65a8d146105e557806348288190146106055780634ac3f4ff1461061b578063519056361461064857600080fd5b80633d8b38f61461056a5780633f1f4fa41461058a57806342842e0e146105c557600080fd5b80630b4cad4c116102f25780631249c58b116102cc5780631249c58b1461048a57806322a3ecf91461049257806323b872dd146105155780632a205e3d1461053557600080fd5b80630b4cad4c1461042a5780630df374831461044a57806310ddb1371461046a57600080fd5b80621d35671461033957806301ffc9a71461035b57806306fdde031461039057806307e0db17146103b2578063081812fc146103d2578063095ea7b31461040a575b600080fd5b34801561034557600080fd5b506103596103543660046136ea565b610ae4565b005b34801561036757600080fd5b5061037b610376366004613793565b610d15565b60405190151581526020015b60405180910390f35b34801561039c57600080fd5b506103a5610d38565b6040516103879190613808565b3480156103be57600080fd5b506103596103cd36600461381b565b610dca565b3480156103de57600080fd5b506103f26103ed366004613836565b610e53565b6040516001600160a01b039091168152602001610387565b34801561041657600080fd5b5061035961042536600461386f565b610e7a565b34801561043657600080fd5b50610359610445366004613836565b610f90565b34801561045657600080fd5b5061035961046536600461389b565b611030565b34801561047657600080fd5b5061035961048536600461381b565b61104f565b6103596110a7565b34801561049e57600080fd5b506104e66104ad366004613836565b60096020526000908152604090208054600182015460029092015461ffff821692620100009092046001600160a01b0316919060ff1684565b6040805161ffff90951685526001600160a01b0390931660208501529183015215156060820152608001610387565b34801561052157600080fd5b506103596105303660046138b7565b611130565b34801561054157600080fd5b506105556105503660046139cb565b611162565b60408051928352602083019190915201610387565b34801561057657600080fd5b5061037b610585366004613a59565b611188565b34801561059657600080fd5b506105b76105a536600461381b565b60036020526000908152604090205481565b604051908152602001610387565b3480156105d157600080fd5b506103596105e03660046138b7565b611254565b3480156105f157600080fd5b50610359610600366004613a59565b61126f565b34801561061157600080fd5b506105b760065481565b34801561062757600080fd5b506105b761063636600461381b565b60076020526000908152604090205481565b610359610656366004613aab565b6112f5565b34801561066757600080fd5b506105b7610676366004613b64565b6005602090815260009384526040808520845180860184018051928152908401958401959095209452929052825290205481565b3480156106b657600080fd5b506103f26106c5366004613836565b61130c565b3480156106d657600080fd5b506103596106e53660046136ea565b61136c565b3480156106f657600080fd5b506105b760105481565b34801561070c57600080fd5b506105b761071b366004613bc1565b611448565b34801561072c57600080fd5b506103596114ce565b34801561074157600080fd5b506103a561075036600461381b565b6114e2565b34801561076157600080fd5b506105b7610770366004613bde565b600260209081526000928352604080842090915290825290205481565b34801561079957600080fd5b506000546001600160a01b03166103f2565b3480156107b757600080fd5b506103596107c6366004613c11565b61157c565b3480156107d757600080fd5b506004546103f2906001600160a01b031681565b3480156107f757600080fd5b506103a56117b6565b34801561080c57600080fd5b5061035961081b36600461389b565b6117c5565b34801561082c57600080fd5b506103a561083b36600461381b565b61187c565b34801561084c57600080fd5b5061035961085b366004613c45565b611993565b34801561086c57600080fd5b5061035961087b366004613a59565b6119a2565b61035961088e366004613cfa565b611a35565b34801561089f57600080fd5b506108a8600181565b60405161ffff9091168152602001610387565b3480156108c757600080fd5b506103f27f000000000000000000000000000000000000000000000000000000000000000081565b3480156108fb57600080fd5b5061035961090a366004613daf565b611a44565b34801561091b57600080fd5b5061035961092a366004613bc1565b611a76565b34801561093b57600080fd5b506105b761271081565b34801561095157600080fd5b506103a5610960366004613836565b611acc565b34801561097157600080fd5b50610359610980366004613e1a565b611b3f565b34801561099157600080fd5b506103596109a036600461389b565b611bd4565b6103596109b33660046136ea565b611c84565b3480156109c457600080fd5b506103596109d3366004613e88565b611e9a565b3480156109e457600080fd5b506105b760115481565b3480156109fa57600080fd5b5061037b610a09366004613ec4565b6001600160a01b039182166000908152600f6020908152604080832093909416825291909152205460ff1690565b348015610a4357600080fd5b50610359610a52366004613a59565b611f4c565b348015610a6357600080fd5b50610555610a72366004613efd565b611fa6565b348015610a8357600080fd5b50610359610a92366004613bc1565b612071565b348015610aa357600080fd5b506103a5610ab2366004613f76565b6120e7565b348015610ac357600080fd5b506105b7610ad236600461381b565b60086020526000908152604090205481565b337f00000000000000000000000000000000000000000000000000000000000000006001600160a01b031614610b615760405162461bcd60e51b815260206004820152601e60248201527f4c7a4170703a20696e76616c696420656e64706f696e742063616c6c6572000060448201526064015b60405180910390fd5b61ffff861660009081526001602052604081208054610b7f90613fc3565b80601f0160208091040260200160405190810160405280929190818152602001828054610bab90613fc3565b8015610bf85780601f10610bcd57610100808354040283529160200191610bf8565b820191906000526020600020905b815481529060010190602001808311610bdb57829003601f168201915b50505050509050805186869050148015610c13575060008151115b8015610c3b575080516020820120604051610c319088908890613ffe565b6040518091039020145b610c965760405162461bcd60e51b815260206004820152602660248201527f4c7a4170703a20696e76616c696420736f757263652073656e64696e6720636f6044820152651b9d1c9858dd60d21b6064820152608401610b58565b610d0c8787878080601f01602080910402602001604051908101604052809392919081815260200183838082843760009201919091525050604080516020601f8a018190048102820181019092528881528a93509150889088908190840183828082843760009201919091525061219a92505050565b50505050505050565b60006001600160e01b031982161580610d325750610d3282612213565b92915050565b6060600a8054610d4790613fc3565b80601f0160208091040260200160405190810160405280929190818152602001828054610d7390613fc3565b8015610dc05780601f10610d9557610100808354040283529160200191610dc0565b820191906000526020600020905b815481529060010190602001808311610da357829003601f168201915b5050505050905090565b610dd2612253565b6040516307e0db1760e01b815261ffff821660048201527f00000000000000000000000000000000000000000000000000000000000000006001600160a01b0316906307e0db17906024015b600060405180830381600087803b158015610e3857600080fd5b505af1158015610e4c573d6000803e3d6000fd5b5050505050565b6000610e5e826122ad565b506000908152600e60205260409020546001600160a01b031690565b6000610e858261130c565b9050806001600160a01b0316836001600160a01b03161415610ef35760405162461bcd60e51b815260206004820152602160248201527f4552433732313a20617070726f76616c20746f2063757272656e74206f776e656044820152603960f91b6064820152608401610b58565b336001600160a01b0382161480610f0f5750610f0f8133610a09565b610f815760405162461bcd60e51b815260206004820152603e60248201527f4552433732313a20617070726f76652063616c6c6572206973206e6f7420746f60448201527f6b656e206f776e6572206e6f7220617070726f76656420666f7220616c6c00006064820152608401610b58565b610f8b838361230c565b505050565b610f98612253565b60008111610ff45760405162461bcd60e51b8152602060048201526024808201527f6d696e476173546f5472616e73666572416e6453746f7265206d7573742062656044820152630203e20360e41b6064820152608401610b58565b60068190556040518181527ffebbc4f8bb9ec2313950c718d43123124b15778efda4c1f1d529de2995b4f34d906020015b60405180910390a150565b611038612253565b61ffff909116600090815260036020526040902055565b611057612253565b6040516310ddb13760e01b815261ffff821660048201527f00000000000000000000000000000000000000000000000000000000000000006001600160a01b0316906310ddb13790602401610e1e565b601154601054111561110c5760405162461bcd60e51b815260206004820152602860248201527f556e6976657273616c4f4e46543732313a206d6178206d696e74206c696d6974604482015267081c995858da195960c21b6064820152608401610b58565b60108054908190600061111e83614024565b919050555061112d338261237a565b50565b61113b335b82612394565b6111575760405162461bcd60e51b8152600401610b589061403f565b610f8b838383612412565b60008061117a8787611173886125ae565b8787611fa6565b915091509550959350505050565b61ffff8316600090815260016020526040812080548291906111a990613fc3565b80601f01602080910402602001604051908101604052809291908181526020018280546111d590613fc3565b80156112225780601f106111f757610100808354040283529160200191611222565b820191906000526020600020905b81548152906001019060200180831161120557829003601f168201915b505050505090508383604051611239929190613ffe565b60405180910390208180519060200120149150509392505050565b610f8b83838360405180602001604052806000815250611a44565b611277612253565b6040516342d65a8d60e01b81526001600160a01b037f000000000000000000000000000000000000000000000000000000000000000016906342d65a8d906112c7908690869086906004016140b6565b600060405180830381600087803b1580156112e157600080fd5b505af1158015610d0c573d6000803e3d6000fd5b610d0c878787611304886125ae565b8787876125f9565b6000818152600c60205260408120546001600160a01b031680610d325760405162461bcd60e51b8152602060048201526018602482015277115490cdcc8c4e881a5b9d985b1a59081d1bdad95b88125160421b6044820152606401610b58565b3330146113ca5760405162461bcd60e51b815260206004820152602660248201527f4e6f6e626c6f636b696e674c7a4170703a2063616c6c6572206d7573742062656044820152650204c7a4170760d41b6064820152608401610b58565b6114408686868080601f01602080910402602001604051908101604052809392919081815260200183838082843760009201919091525050604080516020601f8901819004810282018101909252878152899350915087908790819084018382808284376000920191909152506127cd92505050565b505050505050565b60006001600160a01b0382166114b25760405162461bcd60e51b815260206004820152602960248201527f4552433732313a2061646472657373207a65726f206973206e6f7420612076616044820152683634b21037bbb732b960b91b6064820152608401610b58565b506001600160a01b03166000908152600d602052604090205490565b6114d6612253565b6114e06000612924565b565b600160205260009081526040902080546114fb90613fc3565b80601f016020809104026020016040519081016040528092919081815260200182805461152790613fc3565b80156115745780601f1061154957610100808354040283529160200191611574565b820191906000526020600020905b81548152906001019060200180831161155757829003601f168201915b505050505081565b80516020808301919091206000818152600990925260409091206002015460ff166115dd5760405162461bcd60e51b81526020600482015260116024820152701b9bc818dc99591a5d1cc81cdd1bdc9959607a1b6044820152606401610b58565b6000828060200190518101906115f39190614119565b6000848152600960205260408120805460019091015492945090925061162f9161ffff8216916201000090046001600160a01b03169085612974565b60008481526009602052604090206001015490915081116116a45760405162461bcd60e51b815260206004820152602960248201527f6e6f7420656e6f7567682067617320746f2070726f6365737320637265646974604482015268103a3930b739b332b960b91b6064820152608401610b58565b815181141561171c5760008381526009602052604080822080546001600160b01b031916815560018101929092556002909101805460ff19169055517fd7be02b8dd0d27bd0517a9cb4d7469ce27df4313821ae5ec1ff69acc594ba2339061170f9085815260200190565b60405180910390a16117b0565b60408051608081018252600085815260096020818152848320805461ffff80821687526001600160a01b03620100008084048216868a019081529989018b8152600160608b01818152998f90529790965297519851169096026001600160b01b03199091169690951695909517939093178455915191830191909155516002909101805491151560ff199092169190911790555b50505050565b6060600b8054610d4790613fc3565b6117cd612253565b600081116118285760405162461bcd60e51b815260206004820152602260248201527f647374436861696e4964546f42617463684c696d6974206d757374206265203e604482015261020360f41b6064820152608401610b58565b61ffff8216600081815260076020908152604091829020849055815192835282018390527f7315f7654d594ead24a30160ed9ba2d23247f543016b918343591e93d7afdb6d91015b60405180910390a15050565b61ffff811660009081526001602052604081208054606092919061189f90613fc3565b80601f01602080910402602001604051908101604052809291908181526020018280546118cb90613fc3565b80156119185780601f106118ed57610100808354040283529160200191611918565b820191906000526020600020905b8154815290600101906020018083116118fb57829003601f168201915b505050505090508051600014156119715760405162461bcd60e51b815260206004820152601d60248201527f4c7a4170703a206e6f20747275737465642070617468207265636f72640000006044820152606401610b58565b61198c60006014835161198491906141d3565b8391906129c6565b9392505050565b61199e338383612ad3565b5050565b6119aa612253565b8181306040516020016119bf939291906141ea565b60408051601f1981840301815291815261ffff851660009081526001602090815291902082516119f493919290910190613567565b507f8c0400cfe2d1199b1a725c78960bcc2a344d869b80590d0f2bd005db15a572ce838383604051611a28939291906140b6565b60405180910390a1505050565b610d0c878787878787876125f9565b611a4e3383612394565b611a6a5760405162461bcd60e51b8152600401610b589061403f565b6117b084848484612ba2565b611a7e612253565b600480546001600160a01b0319166001600160a01b0383169081179091556040519081527f5db758e995a17ec1ad84bdef7e8c3293a0bd6179bcce400dff5d4c3d87db726b90602001611025565b6060611ad7826122ad565b6000611aee60408051602081019091526000815290565b90506000815111611b0e576040518060200160405280600081525061198c565b80611b1884612bd5565b604051602001611b29929190614210565b6040516020818303038152906040529392505050565b611b47612253565b6040516332fb62e760e21b81526001600160a01b037f0000000000000000000000000000000000000000000000000000000000000000169063cbed8b9c90611b9b908890889088908890889060040161423f565b600060405180830381600087803b158015611bb557600080fd5b505af1158015611bc9573d6000803e3d6000fd5b505050505050505050565b611bdc612253565b60008111611c385760405162461bcd60e51b815260206004820152602360248201527f647374436861696e4964546f5472616e73666572476173206d7573742062652060448201526203e20360ec1b6064820152608401610b58565b61ffff8216600081815260086020908152604091829020849055815192835282018390527fc46df2983228ac2d9754e94a0d565e6671665dc8ad38602bc8e544f0685a29fb9101611870565b61ffff86166000908152600560205260408082209051611ca79088908890613ffe565b90815260408051602092819003830190206001600160401b03871660009081529252902054905080611d275760405162461bcd60e51b815260206004820152602360248201527f4e6f6e626c6f636b696e674c7a4170703a206e6f2073746f726564206d65737360448201526261676560e81b6064820152608401610b58565b808383604051611d38929190613ffe565b604051809103902014611d975760405162461bcd60e51b815260206004820152602160248201527f4e6f6e626c6f636b696e674c7a4170703a20696e76616c6964207061796c6f616044820152601960fa1b6064820152608401610b58565b61ffff87166000908152600560205260408082209051611dba9089908990613ffe565b90815260408051602092819003830181206001600160401b038916600090815290845282902093909355601f88018290048202830182019052868252611e52918991899089908190840183828082843760009201919091525050604080516020601f8a018190048102820181019092528881528a9350915088908890819084018382808284376000920191909152506127cd92505050565b7fc264d91f3adc5588250e1551f547752ca0cfa8f6b530d243b9f9f4cab10ea8e58787878785604051611e89959493929190614278565b60405180910390a150505050505050565b611ea2612253565b60008111611eea5760405162461bcd60e51b81526020600482015260156024820152744c7a4170703a20696e76616c6964206d696e47617360581b6044820152606401610b58565b61ffff83811660008181526002602090815260408083209487168084529482529182902085905581519283528201929092529081018290527f9d5c7c0b934da8fefa9c7760c98383778a12dfbfc0c3b3106518f43fb9508ac090606001611a28565b611f54612253565b61ffff83166000908152600160205260409020611f729083836135eb565b507ffa41487ad5d6728f0b19276fa1eddc16558578f5109fc39d2dc33c3230470dab838383604051611a28939291906140b6565b60008060008686604051602001611fbe9291906142ee565b60408051601f198184030181529082905263040a7bb160e41b825291506001600160a01b037f000000000000000000000000000000000000000000000000000000000000000016906340a7bb1090612022908b90309086908b908b9060040161431c565b6040805180830381865afa15801561203e573d6000803e3d6000fd5b505050506040513d601f19601f820116820180604052508101906120629190614370565b92509250509550959350505050565b612079612253565b6001600160a01b0381166120de5760405162461bcd60e51b815260206004820152602660248201527f4f776e61626c653a206e6577206f776e657220697320746865207a65726f206160448201526564647265737360d01b6064820152608401610b58565b61112d81612924565b604051633d7b2f6f60e21b815261ffff808616600483015284166024820152306044820152606481018290526060907f00000000000000000000000000000000000000000000000000000000000000006001600160a01b03169063f5ecbdbc90608401600060405180830381865afa158015612167573d6000803e3d6000fd5b505050506040513d6000823e601f3d908101601f1916820160405261218f9190810190614394565b90505b949350505050565b6000806121fd5a60966366ad5c8a60e01b898989896040516024016121c294939291906143c8565b60408051601f198184030181529190526020810180516001600160e01b03166001600160e01b03199093169290921790915230929190612cd2565b9150915081611440576114408686868685612d5c565b60006001600160e01b031982166380ac58cd60e01b148061224457506001600160e01b03198216635b5e139f60e01b145b80610d325750610d3282612df9565b6000546001600160a01b031633146114e05760405162461bcd60e51b815260206004820181905260248201527f4f776e61626c653a2063616c6c6572206973206e6f7420746865206f776e65726044820152606401610b58565b6000818152600c60205260409020546001600160a01b031661112d5760405162461bcd60e51b8152602060048201526018602482015277115490cdcc8c4e881a5b9d985b1a59081d1bdad95b88125160421b6044820152606401610b58565b6000818152600e6020526040902080546001600160a01b0319166001600160a01b03841690811790915581906123418261130c565b6001600160a01b03167f8c5be1e5ebec7d5bd14f71427d1e84f3dd0314c0f7b2291e5b200ac8c7c3b92560405160405180910390a45050565b61199e828260405180602001604052806000815250612e2e565b6000806123a08361130c565b9050806001600160a01b0316846001600160a01b031614806123e757506001600160a01b038082166000908152600f602090815260408083209388168352929052205460ff165b806121925750836001600160a01b031661240084610e53565b6001600160a01b031614949350505050565b826001600160a01b03166124258261130c565b6001600160a01b0316146124895760405162461bcd60e51b815260206004820152602560248201527f4552433732313a207472616e736665722066726f6d20696e636f72726563742060448201526437bbb732b960d91b6064820152608401610b58565b6001600160a01b0382166124eb5760405162461bcd60e51b8152602060048201526024808201527f4552433732313a207472616e7366657220746f20746865207a65726f206164646044820152637265737360e01b6064820152608401610b58565b6124f660008261230c565b6001600160a01b0383166000908152600d6020526040812080546001929061251f9084906141d3565b90915550506001600160a01b0382166000908152600d6020526040812080546001929061254d908490614406565b90915550506000818152600c602052604080822080546001600160a01b0319166001600160a01b0386811691821790925591518493918716917fddf252ad1be2c89b69c2b068fc378daa952ba7f163c4a11628f55a4df523b3ef91a4505050565b604080516001808252818301909252606091600091906020808301908036833701905050905082816000815181106125e8576125e861441e565b602090810291909101015292915050565b60008451116126405760405162461bcd60e51b8152602060048201526013602482015272746f6b656e4964735b5d20697320656d70747960681b6044820152606401610b58565b835160011480612664575061ffff8616600090815260076020526040902054845111155b6126bb5760405162461bcd60e51b815260206004820152602260248201527f62617463682073697a65206578636565647320647374206261746368206c696d6044820152611a5d60f21b6064820152608401610b58565b60005b84518110156126fe576126ec8888888885815181106126df576126df61441e565b6020026020010151612e61565b806126f681614024565b9150506126be565b50600085856040516020016127149291906142ee565b6040516020818303038152906040529050612759876001848851600860008d61ffff1661ffff168152602001908152602001600020546127549190614434565b612f4c565b61276787828686863461302b565b856040516127759190614453565b6040518091039020886001600160a01b03168861ffff167fe1b87c47fdeb4f9cbadbca9df3af7aba453bb6e501075d0440d88125b711522a886040516127bb919061446f565b60405180910390a45050505050505050565b600080828060200190518101906127e49190614119565b6014820151919350915060006127fc88838386612974565b905082518110156128d05784516020808701919091206040805160808101825261ffff808d1682526001600160a01b0380881683870190815283850188815260016060860181815260008981526009909a529887902095518654935190941662010000026001600160b01b03199093169390941692909217178355519082015592516002909301805493151560ff199094169390931790925590517f10e0b70d256bccc84b7027506978bd8b68984a870788b93b479def144c839ad7906128c69083908990614482565b60405180910390a1505b816001600160a01b0316876040516128e89190614453565b60405180910390208961ffff167f5b821db8a46f8ecbe1941ba2f51cfeea9643268b56631f70d45e2a745d990265866040516127bb919061446f565b600080546001600160a01b038381166001600160a01b0319831681178455604051919092169283917f8be0079c531659141344cd1fd0a4f28419497f9722a3daafe3b4186f6b6457e09190a35050565b6000825b825181101561218f576006545a10156129905761218f565b6129b486868584815181106129a7576129a761441e565b60200260200101516131d1565b806129be81614024565b915050612978565b6060816129d481601f614406565b1015612a135760405162461bcd60e51b815260206004820152600e60248201526d736c6963655f6f766572666c6f7760901b6044820152606401610b58565b612a1d8284614406565b84511015612a615760405162461bcd60e51b8152602060048201526011602482015270736c6963655f6f75744f66426f756e647360781b6044820152606401610b58565b606082158015612a805760405191506000825260208201604052612aca565b6040519150601f8416801560200281840101858101878315602002848b0101015b81831015612ab9578051835260209283019201612aa1565b5050858452601f01601f1916604052505b50949350505050565b816001600160a01b0316836001600160a01b03161415612b355760405162461bcd60e51b815260206004820152601960248201527f4552433732313a20617070726f766520746f2063616c6c6572000000000000006044820152606401610b58565b6001600160a01b038381166000818152600f6020908152604080832094871680845294825291829020805460ff191686151590811790915591519182527f17307eab39ab6107e8899845ad3d59bd9653f200f220920489ca2b5937696c31910160405180910390a3505050565b612bad848484612412565b612bb984848484613260565b6117b05760405162461bcd60e51b8152600401610b589061449b565b606081612bf95750506040805180820190915260018152600360fc1b602082015290565b8160005b8115612c235780612c0d81614024565b9150612c1c9050600a83614503565b9150612bfd565b6000816001600160401b03811115612c3d57612c3d6138f8565b6040519080825280601f01601f191660200182016040528015612c67576020820181803683370190505b5090505b841561219257612c7c6001836141d3565b9150612c89600a86614517565b612c94906030614406565b60f81b818381518110612ca957612ca961441e565b60200101906001600160f81b031916908160001a905350612ccb600a86614503565b9450612c6b565b6000606060008060008661ffff166001600160401b03811115612cf757612cf76138f8565b6040519080825280601f01601f191660200182016040528015612d21576020820181803683370190505b50905060008087516020890160008d8df191503d925086831115612d43578692505b828152826000602083013e909890975095505050505050565b8180519060200120600560008761ffff1661ffff16815260200190815260200160002085604051612d8d9190614453565b9081526040805191829003602090810183206001600160401b0388166000908152915220919091557fe183f33de2837795525b4792ca4cd60535bd77c53b7e7030060bfcf5734d6b0c90612dea908790879087908790879061452b565b60405180910390a15050505050565b60006001600160e01b031982166322bac5d960e01b1480610d3257506301ffc9a760e01b6001600160e01b0319831614610d32565b612e38838361335b565b612e456000848484613260565b610f8b5760405162461bcd60e51b8152600401610b589061449b565b612e6a33611135565b612ecd5760405162461bcd60e51b815260206004820152602e60248201527f4f4e46543732313a2073656e642063616c6c6572206973206e6f74206f776e6560448201526d1c881b9bdc88185c1c1c9bdd995960921b6064820152608401610b58565b836001600160a01b0316612ee08261130c565b6001600160a01b031614612f415760405162461bcd60e51b815260206004820152602260248201527f4f4e46543732313a2073656e642066726f6d20696e636f7272656374206f776e60448201526132b960f11b6064820152608401610b58565b6117b0843083612412565b6000612f578361349d565b61ffff808716600090815260026020908152604080832093891683529290529081205491925090612f89908490614406565b905060008111612fdb5760405162461bcd60e51b815260206004820152601a60248201527f4c7a4170703a206d696e4761734c696d6974206e6f74207365740000000000006044820152606401610b58565b808210156114405760405162461bcd60e51b815260206004820152601b60248201527f4c7a4170703a20676173206c696d697420697320746f6f206c6f7700000000006044820152606401610b58565b61ffff86166000908152600160205260408120805461304990613fc3565b80601f016020809104026020016040519081016040528092919081815260200182805461307590613fc3565b80156130c25780601f10613097576101008083540402835291602001916130c2565b820191906000526020600020905b8154815290600101906020018083116130a557829003601f168201915b505050505090508051600014156131345760405162461bcd60e51b815260206004820152603060248201527f4c7a4170703a2064657374696e6174696f6e20636861696e206973206e6f742060448201526f61207472757374656420736f7572636560801b6064820152608401610b58565b61313f8787516134f9565b60405162c5803160e81b81526001600160a01b037f0000000000000000000000000000000000000000000000000000000000000000169063c5803100908490613196908b9086908c908c908c908c9060040161457d565b6000604051808303818588803b1580156131af57600080fd5b505af11580156131c3573d6000803e3d6000fd5b505050505050505050505050565b6000818152600c60205260409020546001600160a01b0316158061322657506000818152600c60205260409020546001600160a01b03161515801561322657503061321b8261130c565b6001600160a01b0316145b61322f57600080fd5b6000818152600c60205260409020546001600160a01b031661325557610f8b828261237a565b610f8b308383612412565b60006001600160a01b0384163b1561335357604051630a85bd0160e11b81526001600160a01b0385169063150b7a02906132a49033908990889088906004016145e4565b6020604051808303816000875af19250505080156132df575060408051601f3d908101601f191682019092526132dc91810190614621565b60015b613339573d80801561330d576040519150601f19603f3d011682016040523d82523d6000602084013e613312565b606091505b5080516133315760405162461bcd60e51b8152600401610b589061449b565b805181602001fd5b6001600160e01b031916630a85bd0160e11b149050612192565b506001612192565b6001600160a01b0382166133b15760405162461bcd60e51b815260206004820181905260248201527f4552433732313a206d696e7420746f20746865207a65726f20616464726573736044820152606401610b58565b6000818152600c60205260409020546001600160a01b0316156134165760405162461bcd60e51b815260206004820152601c60248201527f4552433732313a20746f6b656e20616c7265616479206d696e746564000000006044820152606401610b58565b6001600160a01b0382166000908152600d6020526040812080546001929061343f908490614406565b90915550506000818152600c602052604080822080546001600160a01b0319166001600160a01b03861690811790915590518392907fddf252ad1be2c89b69c2b068fc378daa952ba7f163c4a11628f55a4df523b3ef908290a45050565b60006022825110156134f15760405162461bcd60e51b815260206004820152601c60248201527f4c7a4170703a20696e76616c69642061646170746572506172616d73000000006044820152606401610b58565b506022015190565b61ffff82166000908152600360205260409020548061351757506127105b80821115610f8b5760405162461bcd60e51b815260206004820181905260248201527f4c7a4170703a207061796c6f61642073697a6520697320746f6f206c617267656044820152606401610b58565b82805461357390613fc3565b90600052602060002090601f01602090048101928261359557600085556135db565b82601f106135ae57805160ff19168380011785556135db565b828001600101855582156135db579182015b828111156135db5782518255916020019190600101906135c0565b506135e792915061365f565b5090565b8280546135f790613fc3565b90600052602060002090601f01602090048101928261361957600085556135db565b82601f106136325782800160ff198235161785556135db565b828001600101855582156135db579182015b828111156135db578235825591602001919060010190613644565b5b808211156135e75760008155600101613660565b803561ffff8116811461368657600080fd5b919050565b60008083601f84011261369d57600080fd5b5081356001600160401b038111156136b457600080fd5b6020830191508360208285010111156136cc57600080fd5b9250929050565b80356001600160401b038116811461368657600080fd5b6000806000806000806080878903121561370357600080fd5b61370c87613674565b955060208701356001600160401b038082111561372857600080fd5b6137348a838b0161368b565b909750955085915061374860408a016136d3565b9450606089013591508082111561375e57600080fd5b5061376b89828a0161368b565b979a9699509497509295939492505050565b6001600160e01b03198116811461112d57600080fd5b6000602082840312156137a557600080fd5b813561198c8161377d565b60005b838110156137cb5781810151838201526020016137b3565b838111156117b05750506000910152565b600081518084526137f48160208601602086016137b0565b601f01601f19169290920160200192915050565b60208152600061198c60208301846137dc565b60006020828403121561382d57600080fd5b61198c82613674565b60006020828403121561384857600080fd5b5035919050565b6001600160a01b038116811461112d57600080fd5b80356136868161384f565b6000806040838503121561388257600080fd5b823561388d8161384f565b946020939093013593505050565b600080604083850312156138ae57600080fd5b61388d83613674565b6000806000606084860312156138cc57600080fd5b83356138d78161384f565b925060208401356138e78161384f565b929592945050506040919091013590565b634e487b7160e01b600052604160045260246000fd5b604051601f8201601f191681016001600160401b0381118282101715613936576139366138f8565b604052919050565b60006001600160401b03821115613957576139576138f8565b50601f01601f191660200190565b600082601f83011261397657600080fd5b81356139896139848261393e565b61390e565b81815284602083860101111561399e57600080fd5b816020850160208301376000918101602001919091529392505050565b8035801515811461368657600080fd5b600080600080600060a086880312156139e357600080fd5b6139ec86613674565b945060208601356001600160401b0380821115613a0857600080fd5b613a1489838a01613965565b955060408801359450613a29606089016139bb565b93506080880135915080821115613a3f57600080fd5b50613a4c88828901613965565b9150509295509295909350565b600080600060408486031215613a6e57600080fd5b613a7784613674565b925060208401356001600160401b03811115613a9257600080fd5b613a9e8682870161368b565b9497909650939450505050565b600080600080600080600060e0888a031215613ac657600080fd5b8735613ad18161384f565b9650613adf60208901613674565b955060408801356001600160401b0380821115613afb57600080fd5b613b078b838c01613965565b965060608a0135955060808a01359150613b208261384f565b90935060a089013590613b328261384f565b90925060c08901359080821115613b4857600080fd5b50613b558a828b01613965565b91505092959891949750929550565b600080600060608486031215613b7957600080fd5b613b8284613674565b925060208401356001600160401b03811115613b9d57600080fd5b613ba986828701613965565b925050613bb8604085016136d3565b90509250925092565b600060208284031215613bd357600080fd5b813561198c8161384f565b60008060408385031215613bf157600080fd5b613bfa83613674565b9150613c0860208401613674565b90509250929050565b600060208284031215613c2357600080fd5b81356001600160401b03811115613c3957600080fd5b61219284828501613965565b60008060408385031215613c5857600080fd5b8235613c638161384f565b9150613c08602084016139bb565b60006001600160401b03821115613c8a57613c8a6138f8565b5060051b60200190565b600082601f830112613ca557600080fd5b81356020613cb561398483613c71565b82815260059290921b84018101918181019086841115613cd457600080fd5b8286015b84811015613cef5780358352918301918301613cd8565b509695505050505050565b600080600080600080600060e0888a031215613d1557600080fd5b8735613d208161384f565b9650613d2e60208901613674565b955060408801356001600160401b0380821115613d4a57600080fd5b613d568b838c01613965565b965060608a0135915080821115613d6c57600080fd5b613d788b838c01613c94565b955060808a01359150613d8a8261384f565b819450613d9960a08b01613864565b935060c08a0135915080821115613b4857600080fd5b60008060008060808587031215613dc557600080fd5b8435613dd08161384f565b93506020850135613de08161384f565b92506040850135915060608501356001600160401b03811115613e0257600080fd5b613e0e87828801613965565b91505092959194509250565b600080600080600060808688031215613e3257600080fd5b613e3b86613674565b9450613e4960208701613674565b93506040860135925060608601356001600160401b03811115613e6b57600080fd5b613e778882890161368b565b969995985093965092949392505050565b600080600060608486031215613e9d57600080fd5b613ea684613674565b9250613eb460208501613674565b9150604084013590509250925092565b60008060408385031215613ed757600080fd5b8235613ee28161384f565b91506020830135613ef28161384f565b809150509250929050565b600080600080600060a08688031215613f1557600080fd5b613f1e86613674565b945060208601356001600160401b0380821115613f3a57600080fd5b613f4689838a01613965565b95506040880135915080821115613f5c57600080fd5b613f6889838a01613c94565b9450613a29606089016139bb565b60008060008060808587031215613f8c57600080fd5b613f9585613674565b9350613fa360208601613674565b92506040850135613fb38161384f565b9396929550929360600135925050565b600181811c90821680613fd757607f821691505b60208210811415613ff857634e487b7160e01b600052602260045260246000fd5b50919050565b8183823760009101908152919050565b634e487b7160e01b600052601160045260246000fd5b60006000198214156140385761403861400e565b5060010190565b6020808252602e908201527f4552433732313a2063616c6c6572206973206e6f7420746f6b656e206f776e6560408201526d1c881b9bdc88185c1c1c9bdd995960921b606082015260800190565b81835281816020850137506000828201602090810191909152601f909101601f19169091010190565b61ffff8416815260406020820152600061218f60408301848661408d565b600082601f8301126140e557600080fd5b81516140f36139848261393e565b81815284602083860101111561410857600080fd5b6121928260208301602087016137b0565b6000806040838503121561412c57600080fd5b82516001600160401b038082111561414357600080fd5b61414f868387016140d4565b935060209150818501518181111561416657600080fd5b85019050601f8101861361417957600080fd5b805161418761398482613c71565b81815260059190911b820183019083810190888311156141a657600080fd5b928401925b828410156141c4578351825292840192908401906141ab565b80955050505050509250929050565b6000828210156141e5576141e561400e565b500390565b8284823760609190911b6bffffffffffffffffffffffff19169101908152601401919050565b600083516142228184602088016137b0565b8351908301906142368183602088016137b0565b01949350505050565b600061ffff80881683528087166020840152508460408301526080606083015261426d60808301848661408d565b979650505050505050565b61ffff8616815260806020820152600061429660808301868861408d565b6001600160401b0394909416604083015250606001529392505050565b600081518084526020808501945080840160005b838110156142e3578151875295820195908201906001016142c7565b509495945050505050565b60408152600061430160408301856137dc565b828103602084015261431381856142b3565b95945050505050565b61ffff861681526001600160a01b038516602082015260a06040820181905260009061434a908301866137dc565b8415156060840152828103608084015261436481856137dc565b98975050505050505050565b6000806040838503121561438357600080fd5b505080516020909101519092909150565b6000602082840312156143a657600080fd5b81516001600160401b038111156143bc57600080fd5b612192848285016140d4565b61ffff851681526080602082015260006143e560808301866137dc565b6001600160401b0385166040840152828103606084015261426d81856137dc565b600082198211156144195761441961400e565b500190565b634e487b7160e01b600052603260045260246000fd5b600081600019048311821515161561444e5761444e61400e565b500290565b600082516144658184602087016137b0565b9190910192915050565b60208152600061198c60208301846142b3565b82815260406020820152600061219260408301846137dc565b60208082526032908201527f4552433732313a207472616e7366657220746f206e6f6e20455243373231526560408201527131b2b4bb32b91034b6b83632b6b2b73a32b960711b606082015260800190565b634e487b7160e01b600052601260045260246000fd5b600082614512576145126144ed565b500490565b600082614526576145266144ed565b500690565b61ffff8616815260a06020820152600061454860a08301876137dc565b6001600160401b0386166040840152828103606084015261456981866137dc565b9050828103608084015261436481856137dc565b61ffff8716815260c06020820152600061459a60c08301886137dc565b82810360408401526145ac81886137dc565b6001600160a01b0387811660608601528616608085015283810360a085015290506145d781856137dc565b9998505050505050505050565b6001600160a01b0385811682528416602082015260408101839052608060608201819052600090614617908301846137dc565b9695505050505050565b60006020828403121561463357600080fd5b815161198c8161377d56fea2646970667358221220e9892a6f10dcfaf57020e2a20525eaff2422cfad451f8b6a882559e721fb872e64736f6c634300080c0033",
  "devdoc": {
    "kind": "dev",
    "methods": {
      "approve(address,uint256)": {
        "details": "See {IERC721-approve}."
      },
      "balanceOf(address)": {
        "details": "See {IERC721-balanceOf}."
      },
      "estimateSendBatchFee(uint16,bytes,uint256[],bool,bytes)": {
        "details": "estimate send token `_tokenId` to (`_dstChainId`, `_toAddress`) _dstChainId - L0 defined chain id to send tokens too _toAddress - dynamic bytes array which contains the address to whom you are sending tokens to on the dstChain _tokenIds[] - token Ids to transfer _useZro - indicates to use zro to pay L0 fees _adapterParams - flexible bytes array to indicate messaging adapter services in L0"
      },
      "estimateSendFee(uint16,bytes,uint256,bool,bytes)": {
        "details": "estimate send token `_tokenId` to (`_dstChainId`, `_toAddress`) _dstChainId - L0 defined chain id to send tokens too _toAddress - dynamic bytes array which contains the address to whom you are sending tokens to on the dstChain _tokenId - token Id to transfer _useZro - indicates to use zro to pay L0 fees _adapterParams - flexible bytes array to indicate messaging adapter services in L0"
      },
      "getApproved(uint256)": {
        "details": "See {IERC721-getApproved}."
      },
      "isApprovedForAll(address,address)": {
        "details": "See {IERC721-isApprovedForAll}."
      },
      "name()": {
        "details": "See {IERC721Metadata-name}."
      },
      "owner()": {
        "details": "Returns the address of the current owner."
      },
      "ownerOf(uint256)": {
        "details": "See {IERC721-ownerOf}."
      },
      "renounceOwnership()": {
        "details": "Leaves the contract without owner. It will not be possible to call `onlyOwner` functions anymore. Can only be called by the current owner. NOTE: Renouncing ownership will leave the contract without an owner, thereby removing any functionality that is only available to the owner."
      },
      "safeTransferFrom(address,address,uint256)": {
        "details": "See {IERC721-safeTransferFrom}."
      },
      "safeTransferFrom(address,address,uint256,bytes)": {
        "details": "See {IERC721-safeTransferFrom}."
      },
      "sendBatchFrom(address,uint16,bytes,uint256[],address,address,bytes)": {
        "details": "send tokens `_tokenIds[]` to (`_dstChainId`, `_toAddress`) from `_from` `_toAddress` can be any size depending on the `dstChainId`. `_zroPaymentAddress` set to address(0x0) if not paying in ZRO (LayerZero Token) `_adapterParams` is a flexible bytes array to indicate messaging adapter services"
      },
      "sendFrom(address,uint16,bytes,uint256,address,address,bytes)": {
        "details": "send token `_tokenId` to (`_dstChainId`, `_toAddress`) from `_from` `_toAddress` can be any size depending on the `dstChainId`. `_zroPaymentAddress` set to address(0x0) if not paying in ZRO (LayerZero Token) `_adapterParams` is a flexible bytes array to indicate messaging adapter services"
      },
      "setApprovalForAll(address,bool)": {
        "details": "See {IERC721-setApprovalForAll}."
      },
      "symbol()": {
        "details": "See {IERC721Metadata-symbol}."
      },
      "tokenURI(uint256)": {
        "details": "See {IERC721Metadata-tokenURI}."
      },
      "transferFrom(address,address,uint256)": {
        "details": "See {IERC721-transferFrom}."
      },
      "transferOwnership(address)": {
        "details": "Transfers ownership of the contract to a new account (`newOwner`). Can only be called by the current owner."
      }
    },
    "title": "A LayerZero UniversalONFT example",
    "version": 1
  },
  "userdoc": {
    "kind": "user",
    "methods": {
      "mint()": {
        "notice": "Mint your ONFT"
      }
    },
    "notice": "You can use this to mint ONFT and send nftIds across chain.  Each contract deployed to a chain should carefully set a `_startMintIndex` and a `_maxMint`  value to set a range of allowed mintable nftIds (so that no two chains can mint the same id!)",
    "version": 1
  },
  "storageLayout": {
    "storage": [
      {
        "astId": 4047,
        "contract": "contracts/examples/ExampleUniversalONFT721.sol:ExampleUniversalONFT721",
        "label": "_owner",
        "offset": 0,
        "slot": "0",
        "type": "t_address"
      },
      {
        "astId": 14745,
        "contract": "contracts/examples/ExampleUniversalONFT721.sol:ExampleUniversalONFT721",
        "label": "trustedRemoteLookup",
        "offset": 0,
        "slot": "1",
        "type": "t_mapping(t_uint16,t_bytes_storage)"
      },
      {
        "astId": 14751,
        "contract": "contracts/examples/ExampleUniversalONFT721.sol:ExampleUniversalONFT721",
        "label": "minDstGasLookup",
        "offset": 0,
        "slot": "2",
        "type": "t_mapping(t_uint16,t_mapping(t_uint16,t_uint256))"
      },
      {
        "astId": 14755,
        "contract": "contracts/examples/ExampleUniversalONFT721.sol:ExampleUniversalONFT721",
        "label": "payloadSizeLimitLookup",
        "offset": 0,
        "slot": "3",
        "type": "t_mapping(t_uint16,t_uint256)"
      },
      {
        "astId": 14757,
        "contract": "contracts/examples/ExampleUniversalONFT721.sol:ExampleUniversalONFT721",
        "label": "precrime",
        "offset": 0,
        "slot": "4",
        "type": "t_address"
      },
      {
        "astId": 15294,
        "contract": "contracts/examples/ExampleUniversalONFT721.sol:ExampleUniversalONFT721",
        "label": "failedMessages",
        "offset": 0,
        "slot": "5",
        "type": "t_mapping(t_uint16,t_mapping(t_bytes_memory_ptr,t_mapping(t_uint64,t_bytes32)))"
      },
      {
        "astId": 24550,
        "contract": "contracts/examples/ExampleUniversalONFT721.sol:ExampleUniversalONFT721",
        "label": "minGasToTransferAndStore",
        "offset": 0,
        "slot": "6",
        "type": "t_uint256"
      },
      {
        "astId": 24554,
        "contract": "contracts/examples/ExampleUniversalONFT721.sol:ExampleUniversalONFT721",
        "label": "dstChainIdToBatchLimit",
        "offset": 0,
        "slot": "7",
        "type": "t_mapping(t_uint16,t_uint256)"
      },
      {
        "astId": 24558,
        "contract": "contracts/examples/ExampleUniversalONFT721.sol:ExampleUniversalONFT721",
        "label": "dstChainIdToTransferGas",
        "offset": 0,
        "slot": "8",
        "type": "t_mapping(t_uint16,t_uint256)"
      },
      {
        "astId": 24563,
        "contract": "contracts/examples/ExampleUniversalONFT721.sol:ExampleUniversalONFT721",
        "label": "storedCredits",
        "offset": 0,
        "slot": "9",
        "type": "t_mapping(t_bytes32,t_struct(StoredCredit)24548_storage)"
      },
      {
        "astId": 6798,
        "contract": "contracts/examples/ExampleUniversalONFT721.sol:ExampleUniversalONFT721",
        "label": "_name",
        "offset": 0,
        "slot": "10",
        "type": "t_string_storage"
      },
      {
        "astId": 6800,
        "contract": "contracts/examples/ExampleUniversalONFT721.sol:ExampleUniversalONFT721",
        "label": "_symbol",
        "offset": 0,
        "slot": "11",
        "type": "t_string_storage"
      },
      {
        "astId": 6804,
        "contract": "contracts/examples/ExampleUniversalONFT721.sol:ExampleUniversalONFT721",
        "label": "_owners",
        "offset": 0,
        "slot": "12",
        "type": "t_mapping(t_uint256,t_address)"
      },
      {
        "astId": 6808,
        "contract": "contracts/examples/ExampleUniversalONFT721.sol:ExampleUniversalONFT721",
        "label": "_balances",
        "offset": 0,
        "slot": "13",
        "type": "t_mapping(t_address,t_uint256)"
      },
      {
        "astId": 6812,
        "contract": "contracts/examples/ExampleUniversalONFT721.sol:ExampleUniversalONFT721",
        "label": "_tokenApprovals",
        "offset": 0,
        "slot": "14",
        "type": "t_mapping(t_uint256,t_address)"
      },
      {
        "astId": 6818,
        "contract": "contracts/examples/ExampleUniversalONFT721.sol:ExampleUniversalONFT721",
        "label": "_operatorApprovals",
        "offset": 0,
        "slot": "15",
        "type": "t_mapping(t_address,t_mapping(t_address,t_bool))"
      },
      {
        "astId": 26818,
        "contract": "contracts/examples/ExampleUniversalONFT721.sol:ExampleUniversalONFT721",
        "label": "nextMintId",
        "offset": 0,
        "slot": "16",
        "type": "t_uint256"
      },
      {
        "astId": 26820,
        "contract": "contracts/examples/ExampleUniversalONFT721.sol:ExampleUniversalONFT721",
        "label": "maxMintId",
        "offset": 0,
        "slot": "17",
        "type": "t_uint256"
      }
    ],
    "types": {
      "t_address": {
        "encoding": "inplace",
        "label": "address",
        "numberOfBytes": "20"
      },
      "t_bool": {
        "encoding": "inplace",
        "label": "bool",
        "numberOfBytes": "1"
      },
      "t_bytes32": {
        "encoding": "inplace",
        "label": "bytes32",
        "numberOfBytes": "32"
      },
      "t_bytes_memory_ptr": {
        "encoding": "bytes",
        "label": "bytes",
        "numberOfBytes": "32"
      },
      "t_bytes_storage": {
        "encoding": "bytes",
        "label": "bytes",
        "numberOfBytes": "32"
      },
      "t_mapping(t_address,t_bool)": {
        "encoding": "mapping",
        "key": "t_address",
        "label": "mapping(address => bool)",
        "numberOfBytes": "32",
        "value": "t_bool"
      },
      "t_mapping(t_address,t_mapping(t_address,t_bool))": {
        "encoding": "mapping",
        "key": "t_address",
        "label": "mapping(address => mapping(address => bool))",
        "numberOfBytes": "32",
        "value": "t_mapping(t_address,t_bool)"
      },
      "t_mapping(t_address,t_uint256)": {
        "encoding": "mapping",
        "key": "t_address",
        "label": "mapping(address => uint256)",
        "numberOfBytes": "32",
        "value": "t_uint256"
      },
      "t_mapping(t_bytes32,t_struct(StoredCredit)24548_storage)": {
        "encoding": "mapping",
        "key": "t_bytes32",
        "label": "mapping(bytes32 => struct ONFT721Core.StoredCredit)",
        "numberOfBytes": "32",
        "value": "t_struct(StoredCredit)24548_storage"
      },
      "t_mapping(t_bytes_memory_ptr,t_mapping(t_uint64,t_bytes32))": {
        "encoding": "mapping",
        "key": "t_bytes_memory_ptr",
        "label": "mapping(bytes => mapping(uint64 => bytes32))",
        "numberOfBytes": "32",
        "value": "t_mapping(t_uint64,t_bytes32)"
      },
      "t_mapping(t_uint16,t_bytes_storage)": {
        "encoding": "mapping",
        "key": "t_uint16",
        "label": "mapping(uint16 => bytes)",
        "numberOfBytes": "32",
        "value": "t_bytes_storage"
      },
      "t_mapping(t_uint16,t_mapping(t_bytes_memory_ptr,t_mapping(t_uint64,t_bytes32)))": {
        "encoding": "mapping",
        "key": "t_uint16",
        "label": "mapping(uint16 => mapping(bytes => mapping(uint64 => bytes32)))",
        "numberOfBytes": "32",
        "value": "t_mapping(t_bytes_memory_ptr,t_mapping(t_uint64,t_bytes32))"
      },
      "t_mapping(t_uint16,t_mapping(t_uint16,t_uint256))": {
        "encoding": "mapping",
        "key": "t_uint16",
        "label": "mapping(uint16 => mapping(uint16 => uint256))",
        "numberOfBytes": "32",
        "value": "t_mapping(t_uint16,t_uint256)"
      },
      "t_mapping(t_uint16,t_uint256)": {
        "encoding": "mapping",
        "key": "t_uint16",
        "label": "mapping(uint16 => uint256)",
        "numberOfBytes": "32",
        "value": "t_uint256"
      },
      "t_mapping(t_uint256,t_address)": {
        "encoding": "mapping",
        "key": "t_uint256",
        "label": "mapping(uint256 => address)",
        "numberOfBytes": "32",
        "value": "t_address"
      },
      "t_mapping(t_uint64,t_bytes32)": {
        "encoding": "mapping",
        "key": "t_uint64",
        "label": "mapping(uint64 => bytes32)",
        "numberOfBytes": "32",
        "value": "t_bytes32"
      },
      "t_string_storage": {
        "encoding": "bytes",
        "label": "string",
        "numberOfBytes": "32"
      },
      "t_struct(StoredCredit)24548_storage": {
        "encoding": "inplace",
        "label": "struct ONFT721Core.StoredCredit",
        "members": [
          {
            "astId": 24541,
            "contract": "contracts/examples/ExampleUniversalONFT721.sol:ExampleUniversalONFT721",
            "label": "srcChainId",
            "offset": 0,
            "slot": "0",
            "type": "t_uint16"
          },
          {
            "astId": 24543,
            "contract": "contracts/examples/ExampleUniversalONFT721.sol:ExampleUniversalONFT721",
            "label": "toAddress",
            "offset": 2,
            "slot": "0",
            "type": "t_address"
          },
          {
            "astId": 24545,
            "contract": "contracts/examples/ExampleUniversalONFT721.sol:ExampleUniversalONFT721",
            "label": "index",
            "offset": 0,
            "slot": "1",
            "type": "t_uint256"
          },
          {
            "astId": 24547,
            "contract": "contracts/examples/ExampleUniversalONFT721.sol:ExampleUniversalONFT721",
            "label": "creditsRemain",
            "offset": 0,
            "slot": "2",
            "type": "t_bool"
          }
        ],
        "numberOfBytes": "96"
      },
      "t_uint16": {
        "encoding": "inplace",
        "label": "uint16",
        "numberOfBytes": "2"
      },
      "t_uint256": {
        "encoding": "inplace",
        "label": "uint256",
        "numberOfBytes": "32"
      },
      "t_uint64": {
        "encoding": "inplace",
        "label": "uint64",
        "numberOfBytes": "8"
      }
    }
  }
}