{
  "address": "0xF8c171c01cC8B29Bec662876A840eDecA9831a36",
  "abi": [
    {
      "inputs": [
        {
          "internalType": "address",
          "name": "_endpoint",
          "type": "address"
        }
      ],
      "stateMutability": "nonpayable",
      "type": "constructor"
    },
    {
      "anonymous": false,
      "inputs": [
        {
          "indexed": false,
          "internalType": "uint16",
          "name": "_srcChainId",
          "type": "uint16"
        },
        {
          "indexed": false,
          "internalType": "bytes",
          "name": "_srcAddress",
          "type": "bytes"
        },
        {
          "indexed": false,
          "internalType": "uint64",
          "name": "_nonce",
          "type": "uint64"
        },
        {
          "indexed": false,
          "internalType": "bytes",
          "name": "_payload",
          "type": "bytes"
        },
        {
          "indexed": false,
          "internalType": "bytes",
          "name": "_reason",
          "type": "bytes"
        }
      ],
      "name": "MessageFailed",
      "type": "event"
    },
    {
      "anonymous": false,
      "inputs": [
        {
          "indexed": true,
          "internalType": "address",
          "name": "previousOwner",
          "type": "address"
        },
        {
          "indexed": true,
          "internalType": "address",
          "name": "newOwner",
          "type": "address"
        }
      ],
      "name": "OwnershipTransferred",
      "type": "event"
    },
    {
      "anonymous": false,
      "inputs": [
        {
          "indexed": true,
          "internalType": "uint16",
          "name": "_srcChainId",
          "type": "uint16"
        },
        {
          "indexed": true,
          "internalType": "address",
          "name": "_from",
          "type": "address"
        },
        {
          "indexed": true,
          "internalType": "bytes",
          "name": "_toAddress",
          "type": "bytes"
        },
        {
          "indexed": false,
          "internalType": "uint256",
          "name": "_amount",
          "type": "uint256"
        }
      ],
      "name": "ReceiveGasDrop",
      "type": "event"
    },
    {
      "anonymous": false,
      "inputs": [
        {
          "indexed": false,
          "internalType": "uint16",
          "name": "_srcChainId",
          "type": "uint16"
        },
        {
          "indexed": false,
          "internalType": "bytes",
          "name": "_srcAddress",
          "type": "bytes"
        },
        {
          "indexed": false,
          "internalType": "uint64",
          "name": "_nonce",
          "type": "uint64"
        },
        {
          "indexed": false,
          "internalType": "bytes32",
          "name": "_payloadHash",
          "type": "bytes32"
        }
      ],
      "name": "RetryMessageSuccess",
      "type": "event"
    },
    {
      "anonymous": false,
      "inputs": [
        {
          "indexed": true,
          "internalType": "uint16",
          "name": "_dstChainId",
          "type": "uint16"
        },
        {
          "indexed": true,
          "internalType": "address",
          "name": "_from",
          "type": "address"
        },
        {
          "indexed": true,
          "internalType": "bytes",
          "name": "_toAddress",
          "type": "bytes"
        },
        {
          "indexed": false,
          "internalType": "uint256",
          "name": "_amount",
          "type": "uint256"
        }
      ],
      "name": "SendGasDrop",
      "type": "event"
    },
    {
      "anonymous": false,
      "inputs": [
        {
          "indexed": false,
          "internalType": "uint16",
          "name": "_dstChainId",
          "type": "uint16"
        },
        {
          "indexed": false,
          "internalType": "uint16",
          "name": "_type",
          "type": "uint16"
        },
        {
          "indexed": false,
          "internalType": "uint256",
          "name": "_minDstGas",
          "type": "uint256"
        }
      ],
      "name": "SetMinDstGas",
      "type": "event"
    },
    {
      "anonymous": false,
      "inputs": [
        {
          "indexed": false,
          "internalType": "address",
          "name": "precrime",
          "type": "address"
        }
      ],
      "name": "SetPrecrime",
      "type": "event"
    },
    {
      "anonymous": false,
      "inputs": [
        {
          "indexed": false,
          "internalType": "uint16",
          "name": "_remoteChainId",
          "type": "uint16"
        },
        {
          "indexed": false,
          "internalType": "bytes",
          "name": "_path",
          "type": "bytes"
        }
      ],
      "name": "SetTrustedRemote",
      "type": "event"
    },
    {
      "anonymous": false,
      "inputs": [
        {
          "indexed": false,
          "internalType": "uint16",
          "name": "_remoteChainId",
          "type": "uint16"
        },
        {
          "indexed": false,
          "internalType": "bytes",
          "name": "_remoteAddress",
          "type": "bytes"
        }
      ],
      "name": "SetTrustedRemoteAddress",
      "type": "event"
    },
    {
      "inputs": [],
      "name": "DEFAULT_PAYLOAD_SIZE_LIMIT",
      "outputs": [
        {
          "internalType": "uint256",
          "name": "",
          "type": "uint256"
        }
      ],
      "stateMutability": "view",
      "type": "function"
    },
    {
      "inputs": [],
      "name": "VERSION",
      "outputs": [
        {
          "internalType": "uint16",
          "name": "",
          "type": "uint16"
        }
      ],
      "stateMutability": "view",
      "type": "function"
    },
    {
      "inputs": [],
      "name": "dstGas",
      "outputs": [
        {
          "internalType": "uint256",
          "name": "",
          "type": "uint256"
        }
      ],
      "stateMutability": "view",
      "type": "function"
    },
    {
      "inputs": [
        {
          "internalType": "uint16[]",
          "name": "_dstChainId",
          "type": "uint16[]"
        },
        {
          "internalType": "bytes[]",
          "name": "_toAddress",
          "type": "bytes[]"
        },
        {
          "internalType": "uint256[]",
          "name": "_amount",
          "type": "uint256[]"
        },
        {
          "internalType": "bool",
          "name": "_useZro",
          "type": "bool"
        }
      ],
      "name": "estimateSendFee",
      "outputs": [
        {
          "internalType": "uint256",
          "name": "nativeFee",
          "type": "uint256"
        },
        {
          "internalType": "uint256",
          "name": "zroFee",
          "type": "uint256"
        }
      ],
      "stateMutability": "view",
      "type": "function"
    },
    {
      "inputs": [
        {
          "internalType": "uint16",
          "name": "_dstChainId",
          "type": "uint16"
        },
        {
          "internalType": "bytes",
          "name": "_toAddress",
          "type": "bytes"
        },
        {
          "internalType": "uint256",
          "name": "_amount",
          "type": "uint256"
        },
        {
          "internalType": "bool",
          "name": "_useZro",
          "type": "bool"
        }
      ],
      "name": "estimateSendFee",
      "outputs": [
        {
          "internalType": "uint256",
          "name": "nativeFee",
          "type": "uint256"
        },
        {
          "internalType": "uint256",
          "name": "zroFee",
          "type": "uint256"
        }
      ],
      "stateMutability": "view",
      "type": "function"
    },
    {
      "inputs": [
        {
          "internalType": "uint16",
          "name": "",
          "type": "uint16"
        },
        {
          "internalType": "bytes",
          "name": "",
          "type": "bytes"
        },
        {
          "internalType": "uint64",
          "name": "",
          "type": "uint64"
        }
      ],
      "name": "failedMessages",
      "outputs": [
        {
          "internalType": "bytes32",
          "name": "",
          "type": "bytes32"
        }
      ],
      "stateMutability": "view",
      "type": "function"
    },
    {
      "inputs": [
        {
          "internalType": "uint16",
          "name": "_srcChainId",
          "type": "uint16"
        },
        {
          "internalType": "bytes",
          "name": "_srcAddress",
          "type": "bytes"
        }
      ],
      "name": "forceResumeReceive",
      "outputs": [],
      "stateMutability": "nonpayable",
      "type": "function"
    },
    {
      "inputs": [
        {
          "internalType": "uint16",
          "name": "_dstChainId",
          "type": "uint16"
        },
        {
          "internalType": "bytes",
          "name": "_toAddress",
          "type": "bytes"
        },
        {
          "internalType": "uint256",
          "name": "_amount",
          "type": "uint256"
        },
        {
          "internalType": "address payable",
          "name": "_refundAddress",
          "type": "address"
        },
        {
          "internalType": "address",
          "name": "_zroPaymentAddress",
          "type": "address"
        }
      ],
      "name": "gasDrop",
      "outputs": [],
      "stateMutability": "payable",
      "type": "function"
    },
    {
      "inputs": [
        {
          "internalType": "uint16[]",
          "name": "_dstChainId",
          "type": "uint16[]"
        },
        {
          "internalType": "bytes[]",
          "name": "_toAddress",
          "type": "bytes[]"
        },
        {
          "internalType": "uint256[]",
          "name": "_amount",
          "type": "uint256[]"
        },
        {
          "internalType": "address payable",
          "name": "_refundAddress",
          "type": "address"
        },
        {
          "internalType": "address",
          "name": "_zroPaymentAddress",
          "type": "address"
        }
      ],
      "name": "gasDrop",
      "outputs": [],
      "stateMutability": "payable",
      "type": "function"
    },
    {
      "inputs": [
        {
          "internalType": "uint16",
          "name": "_version",
          "type": "uint16"
        },
        {
          "internalType": "uint16",
          "name": "_chainId",
          "type": "uint16"
        },
        {
          "internalType": "address",
          "name": "",
          "type": "address"
        },
        {
          "internalType": "uint256",
          "name": "_configType",
          "type": "uint256"
        }
      ],
      "name": "getConfig",
      "outputs": [
        {
          "internalType": "bytes",
          "name": "",
          "type": "bytes"
        }
      ],
      "stateMutability": "view",
      "type": "function"
    },
    {
      "inputs": [
        {
          "internalType": "uint16",
          "name": "_remoteChainId",
          "type": "uint16"
        }
      ],
      "name": "getTrustedRemoteAddress",
      "outputs": [
        {
          "internalType": "bytes",
          "name": "",
          "type": "bytes"
        }
      ],
      "stateMutability": "view",
      "type": "function"
    },
    {
      "inputs": [
        {
          "internalType": "uint16",
          "name": "_srcChainId",
          "type": "uint16"
        },
        {
          "internalType": "bytes",
          "name": "_srcAddress",
          "type": "bytes"
        }
      ],
      "name": "isTrustedRemote",
      "outputs": [
        {
          "internalType": "bool",
          "name": "",
          "type": "bool"
        }
      ],
      "stateMutability": "view",
      "type": "function"
    },
    {
      "inputs": [],
      "name": "lzEndpoint",
      "outputs": [
        {
          "internalType": "contract ILayerZeroEndpoint",
          "name": "",
          "type": "address"
        }
      ],
      "stateMutability": "view",
      "type": "function"
    },
    {
      "inputs": [
        {
          "internalType": "uint16",
          "name": "_srcChainId",
          "type": "uint16"
        },
        {
          "internalType": "bytes",
          "name": "_srcAddress",
          "type": "bytes"
        },
        {
          "internalType": "uint64",
          "name": "_nonce",
          "type": "uint64"
        },
        {
          "internalType": "bytes",
          "name": "_payload",
          "type": "bytes"
        }
      ],
      "name": "lzReceive",
      "outputs": [],
      "stateMutability": "nonpayable",
      "type": "function"
    },
    {
      "inputs": [
        {
          "internalType": "uint16",
          "name": "",
          "type": "uint16"
        },
        {
          "internalType": "uint16",
          "name": "",
          "type": "uint16"
        }
      ],
      "name": "minDstGasLookup",
      "outputs": [
        {
          "internalType": "uint256",
          "name": "",
          "type": "uint256"
        }
      ],
      "stateMutability": "view",
      "type": "function"
    },
    {
      "inputs": [
        {
          "internalType": "uint16",
          "name": "_srcChainId",
          "type": "uint16"
        },
        {
          "internalType": "bytes",
          "name": "_srcAddress",
          "type": "bytes"
        },
        {
          "internalType": "uint64",
          "name": "_nonce",
          "type": "uint64"
        },
        {
          "internalType": "bytes",
          "name": "_payload",
          "type": "bytes"
        }
      ],
      "name": "nonblockingLzReceive",
      "outputs": [],
      "stateMutability": "nonpayable",
      "type": "function"
    },
    {
      "inputs": [],
      "name": "owner",
      "outputs": [
        {
          "internalType": "address",
          "name": "",
          "type": "address"
        }
      ],
      "stateMutability": "view",
      "type": "function"
    },
    {
      "inputs": [
        {
          "internalType": "uint16",
          "name": "",
          "type": "uint16"
        }
      ],
      "name": "payloadSizeLimitLookup",
      "outputs": [
        {
          "internalType": "uint256",
          "name": "",
          "type": "uint256"
        }
      ],
      "stateMutability": "view",
      "type": "function"
    },
    {
      "inputs": [],
      "name": "precrime",
      "outputs": [
        {
          "internalType": "address",
          "name": "",
          "type": "address"
        }
      ],
      "stateMutability": "view",
      "type": "function"
    },
    {
      "inputs": [],
      "name": "renounceOwnership",
      "outputs": [],
      "stateMutability": "nonpayable",
      "type": "function"
    },
    {
      "inputs": [
        {
          "internalType": "uint16",
          "name": "_srcChainId",
          "type": "uint16"
        },
        {
          "internalType": "bytes",
          "name": "_srcAddress",
          "type": "bytes"
        },
        {
          "internalType": "uint64",
          "name": "_nonce",
          "type": "uint64"
        },
        {
          "internalType": "bytes",
          "name": "_payload",
          "type": "bytes"
        }
      ],
      "name": "retryMessage",
      "outputs": [],
      "stateMutability": "payable",
      "type": "function"
    },
    {
      "inputs": [
        {
          "internalType": "uint16",
          "name": "_version",
          "type": "uint16"
        },
        {
          "internalType": "uint16",
          "name": "_chainId",
          "type": "uint16"
        },
        {
          "internalType": "uint256",
          "name": "_configType",
          "type": "uint256"
        },
        {
          "internalType": "bytes",
          "name": "_config",
          "type": "bytes"
        }
      ],
      "name": "setConfig",
      "outputs": [],
      "stateMutability": "nonpayable",
      "type": "function"
    },
    {
      "inputs": [
        {
          "internalType": "uint256",
          "name": "_dstGas",
          "type": "uint256"
        }
      ],
      "name": "setDstGas",
      "outputs": [],
      "stateMutability": "nonpayable",
      "type": "function"
    },
    {
      "inputs": [
        {
          "internalType": "uint16",
          "name": "_dstChainId",
          "type": "uint16"
        },
        {
          "internalType": "uint16",
          "name": "_packetType",
          "type": "uint16"
        },
        {
          "internalType": "uint256",
          "name": "_minGas",
          "type": "uint256"
        }
      ],
      "name": "setMinDstGas",
      "outputs": [],
      "stateMutability": "nonpayable",
      "type": "function"
    },
    {
      "inputs": [
        {
          "internalType": "uint16",
          "name": "_dstChainId",
          "type": "uint16"
        },
        {
          "internalType": "uint256",
          "name": "_size",
          "type": "uint256"
        }
      ],
      "name": "setPayloadSizeLimit",
      "outputs": [],
      "stateMutability": "nonpayable",
      "type": "function"
    },
    {
      "inputs": [
        {
          "internalType": "address",
          "name": "_precrime",
          "type": "address"
        }
      ],
      "name": "setPrecrime",
      "outputs": [],
      "stateMutability": "nonpayable",
      "type": "function"
    },
    {
      "inputs": [
        {
          "internalType": "uint16",
          "name": "_version",
          "type": "uint16"
        }
      ],
      "name": "setReceiveVersion",
      "outputs": [],
      "stateMutability": "nonpayable",
      "type": "function"
    },
    {
      "inputs": [
        {
          "internalType": "uint16",
          "name": "_version",
          "type": "uint16"
        }
      ],
      "name": "setSendVersion",
      "outputs": [],
      "stateMutability": "nonpayable",
      "type": "function"
    },
    {
      "inputs": [
        {
          "internalType": "uint16",
          "name": "_remoteChainId",
          "type": "uint16"
        },
        {
          "internalType": "bytes",
          "name": "_path",
          "type": "bytes"
        }
      ],
      "name": "setTrustedRemote",
      "outputs": [],
      "stateMutability": "nonpayable",
      "type": "function"
    },
    {
      "inputs": [
        {
          "internalType": "uint16",
          "name": "_remoteChainId",
          "type": "uint16"
        },
        {
          "internalType": "bytes",
          "name": "_remoteAddress",
          "type": "bytes"
        }
      ],
      "name": "setTrustedRemoteAddress",
      "outputs": [],
      "stateMutability": "nonpayable",
      "type": "function"
    },
    {
      "inputs": [
        {
          "internalType": "address",
          "name": "newOwner",
          "type": "address"
        }
      ],
      "name": "transferOwnership",
      "outputs": [],
      "stateMutability": "nonpayable",
      "type": "function"
    },
    {
      "inputs": [
        {
          "internalType": "uint16",
          "name": "",
          "type": "uint16"
        }
      ],
      "name": "trustedRemoteLookup",
      "outputs": [
        {
          "internalType": "bytes",
          "name": "",
          "type": "bytes"
        }
      ],
      "stateMutability": "view",
      "type": "function"
    },
    {
      "stateMutability": "payable",
      "type": "receive"
    }
  ],
  "transactionHash": "0x1b4fcf847964c812aaaeb9a86a6e9cace13f0dd9e2358c25ea3afd19e7fe3008",
  "args": [
    "0x93f54D755A063cE7bB9e6Ac47Eccc8e33411d706"
  ],
  "numDeployments": 1,
  "solcInputHash": "0b9d032c4641d4c04b36f0f0f21200c2",
  "bytecode": "0x60a06040526161a86006553480156200001757600080fd5b5060405162002e6f38038062002e6f8339810160408190526200003a91620000ac565b808062000047336200005c565b6001600160a01b031660805250620000de9050565b600080546001600160a01b038381166001600160a01b0319831681178455604051919092169283917f8be0079c531659141344cd1fd0a4f28419497f9722a3daafe3b4186f6b6457e09190a35050565b600060208284031215620000bf57600080fd5b81516001600160a01b0381168114620000d757600080fd5b9392505050565b608051612d36620001396000396000818161052201528181610678015281816108c70152818161096f01528181610a9e01528181610e5b0152818161137601528181611722015281816118b20152611b2f0152612d366000f3fe6080604052600436106101e65760003560e01c80638cfd8f5c11610102578063cbed8b9c11610095578063eb8d72b711610064578063eb8d72b7146105ed578063f2fde38b1461060d578063f5ecbdbc1461062d578063ffa1ad741461064d57600080fd5b8063cbed8b9c1461057a578063d1deba1f1461059a578063df2a5b3b146105ad578063e3ee7ed7146105cd57600080fd5b8063a6c3d165116100d1578063a6c3d165146104f0578063b353aaa714610510578063baf3292d14610544578063c44618341461056457600080fd5b80638cfd8f5c146104465780638da5cb5b1461047e578063950c8a74146104b05780639f38369a146104d057600080fd5b806342d65a8d1161017a578063715018a611610149578063715018a6146103bc5780637533d788146103d15780637eec463b146103fe57806389be3eb61461043357600080fd5b806342d65a8d1461031a5780634915937e1461033a5780635b8c41e61461034d57806366ad5c8a1461039c57600080fd5b80633b4592f2116101b65780633b4592f2146102745780633d8b38f6146102945780633e1be1f8146102c95780633f1f4fa4146102ed57600080fd5b80621d3567146101f257806307e0db17146102145780630df374831461023457806310ddb1371461025457600080fd5b366101ed57005b600080fd5b3480156101fe57600080fd5b5061021261020d36600461209a565b610675565b005b34801561022057600080fd5b5061021261022f36600461212d565b6108a6565b34801561024057600080fd5b5061021261024f366004612148565b61092f565b34801561026057600080fd5b5061021261026f36600461212d565b61094e565b34801561028057600080fd5b5061021261028f366004612172565b6109a6565b3480156102a057600080fd5b506102b46102af36600461218b565b6109b3565b60405190151581526020015b60405180910390f35b3480156102d557600080fd5b506102df60065481565b6040519081526020016102c0565b3480156102f957600080fd5b506102df61030836600461212d565b60036020526000908152604090205481565b34801561032657600080fd5b5061021261033536600461218b565b610a7f565b6102126103483660046122b5565b610b05565b34801561035957600080fd5b506102df610368366004612333565b6005602090815260009384526040808520845180860184018051928152908401958401959095209452929052825290205481565b3480156103a857600080fd5b506102126103b736600461209a565b610bc2565b3480156103c857600080fd5b50610212610c9e565b3480156103dd57600080fd5b506103f16103ec36600461212d565b610cb2565b6040516102c091906123ec565b34801561040a57600080fd5b5061041e610419366004612579565b610d4c565b604080519283526020830191909152016102c0565b610212610441366004612611565b610f44565b34801561045257600080fd5b506102df6104613660046126a2565b600260209081526000928352604080842090915290825290205481565b34801561048a57600080fd5b506000546001600160a01b03165b6040516001600160a01b0390911681526020016102c0565b3480156104bc57600080fd5b50600454610498906001600160a01b031681565b3480156104dc57600080fd5b506103f16104eb36600461212d565b611151565b3480156104fc57600080fd5b5061021261050b36600461218b565b611268565b34801561051c57600080fd5b506104987f000000000000000000000000000000000000000000000000000000000000000081565b34801561055057600080fd5b5061021261055f3660046126d5565b6112fb565b34801561057057600080fd5b506102df61271081565b34801561058657600080fd5b506102126105953660046126f2565b611357565b6102126105a836600461209a565b6113ec565b3480156105b957600080fd5b506102126105c8366004612760565b611602565b3480156105d957600080fd5b5061041e6105e836600461279c565b6116b4565b3480156105f957600080fd5b5061021261060836600461218b565b6117ae565b34801561061957600080fd5b506102126106283660046126d5565b611808565b34801561063957600080fd5b506103f16106483660046127f8565b611881565b34801561065957600080fd5b50610662600281565b60405161ffff90911681526020016102c0565b337f00000000000000000000000000000000000000000000000000000000000000006001600160a01b0316146106f25760405162461bcd60e51b815260206004820152601e60248201527f4c7a4170703a20696e76616c696420656e64706f696e742063616c6c6572000060448201526064015b60405180910390fd5b61ffff86166000908152600160205260408120805461071090612845565b80601f016020809104026020016040519081016040528092919081815260200182805461073c90612845565b80156107895780601f1061075e57610100808354040283529160200191610789565b820191906000526020600020905b81548152906001019060200180831161076c57829003601f168201915b505050505090508051868690501480156107a4575060008151115b80156107cc5750805160208201206040516107c29088908890612880565b6040518091039020145b6108275760405162461bcd60e51b815260206004820152602660248201527f4c7a4170703a20696e76616c696420736f757263652073656e64696e6720636f6044820152651b9d1c9858dd60d21b60648201526084016106e9565b61089d8787878080601f01602080910402602001604051908101604052809392919081815260200183838082843760009201919091525050604080516020601f8a018190048102820181019092528881528a93509150889088908190840183828082843760009201919091525061193292505050565b50505050505050565b6108ae6119ab565b6040516307e0db1760e01b815261ffff821660048201527f00000000000000000000000000000000000000000000000000000000000000006001600160a01b0316906307e0db17906024015b600060405180830381600087803b15801561091457600080fd5b505af1158015610928573d6000803e3d6000fd5b5050505050565b6109376119ab565b61ffff909116600090815260036020526040902055565b6109566119ab565b6040516310ddb13760e01b815261ffff821660048201527f00000000000000000000000000000000000000000000000000000000000000006001600160a01b0316906310ddb137906024016108fa565b6109ae6119ab565b600655565b61ffff8316600090815260016020526040812080548291906109d490612845565b80601f0160208091040260200160405190810160405280929190818152602001828054610a0090612845565b8015610a4d5780601f10610a2257610100808354040283529160200191610a4d565b820191906000526020600020905b815481529060010190602001808311610a3057829003601f168201915b505050505090508383604051610a64929190612880565b60405180910390208180519060200120149150509392505050565b610a876119ab565b6040516342d65a8d60e01b81526001600160a01b037f000000000000000000000000000000000000000000000000000000000000000016906342d65a8d90610ad7908690869086906004016128b9565b600060405180830381600087803b158015610af157600080fd5b505af115801561089d573d6000803e3d6000fd5b600060026006548587604051602001610b2194939291906128d7565b60405160208183030381529060405290506000843387604051602001610b4993929190612915565b6040516020818303038152906040529050610b68878286868634611a05565b85604051610b76919061293f565b60405190819003812086825290339061ffff8a16907f61f260f3550ed2f4f577ac21fb33baf5257f44da023d19ce285b7139a65f239a906020015b60405180910390a450505050505050565b333014610c205760405162461bcd60e51b815260206004820152602660248201527f4e6f6e626c6f636b696e674c7a4170703a2063616c6c6572206d7573742062656044820152650204c7a4170760d41b60648201526084016106e9565b610c968686868080601f01602080910402602001604051908101604052809392919081815260200183838082843760009201919091525050604080516020601f890181900481028201810190925287815289935091508790879081908401838280828437600092019190915250611bab92505050565b505050505050565b610ca66119ab565b610cb06000611c20565b565b60016020526000908152604090208054610ccb90612845565b80601f0160208091040260200160405190810160405280929190818152602001828054610cf790612845565b8015610d445780601f10610d1957610100808354040283529160200191610d44565b820191906000526020600020905b815481529060010190602001808311610d2757829003601f168201915b505050505081565b6000808451865114610d705760405162461bcd60e51b81526004016106e99061295b565b8351855114610d915760405162461bcd60e51b81526004016106e99061295b565b60005b8651811015610f3a5760006002600654878481518110610db657610db66129a7565b6020026020010151898581518110610dd057610dd06129a7565b6020026020010151604051602001610deb94939291906128d7565b60405160208183030381529060405290506000868381518110610e1057610e106129a7565b602002602001015133898581518110610e2b57610e2b6129a7565b6020026020010151604051602001610e4593929190612915565b60405160208183030381529060405290506000807f00000000000000000000000000000000000000000000000000000000000000006001600160a01b03166340a7bb108c8781518110610e9a57610e9a6129a7565b602002602001015130868c896040518663ffffffff1660e01b8152600401610ec69594939291906129bd565b6040805180830381865afa158015610ee2573d6000803e3d6000fd5b505050506040513d601f19601f82011682018060405250810190610f069190612a11565b9092509050610f158288612a4b565b9650610f218187612a4b565b9550505050508080610f3290612a63565b915050610d94565b5094509492505050565b8351855114610f655760405162461bcd60e51b81526004016106e99061295b565b8251845114610f865760405162461bcd60e51b81526004016106e99061295b565b60005b8551811015610c965760006002600654868481518110610fab57610fab6129a7565b6020026020010151888581518110610fc557610fc56129a7565b6020026020010151604051602001610fe094939291906128d7565b60405160208183030381529060405290506000858381518110611005576110056129a7565b602002602001015133888581518110611020576110206129a7565b602002602001015160405160200161103a93929190612915565b604051602081830303815290604052905060006001895161105b9190612a7e565b84146110675730611069565b855b9050611092898581518110611080576110806129a7565b60200260200101518383888747611a05565b8784815181106110a4576110a46129a7565b60200260200101516040516110b9919061293f565b6040518091039020336001600160a01b03168a86815181106110dd576110dd6129a7565b602002602001015161ffff167f61f260f3550ed2f4f577ac21fb33baf5257f44da023d19ce285b7139a65f239a8a888151811061111c5761111c6129a7565b602002602001015160405161113391815260200190565b60405180910390a4505050808061114990612a63565b915050610f89565b61ffff811660009081526001602052604081208054606092919061117490612845565b80601f01602080910402602001604051908101604052809291908181526020018280546111a090612845565b80156111ed5780601f106111c2576101008083540402835291602001916111ed565b820191906000526020600020905b8154815290600101906020018083116111d057829003601f168201915b505050505090508051600014156112465760405162461bcd60e51b815260206004820152601d60248201527f4c7a4170703a206e6f20747275737465642070617468207265636f726400000060448201526064016106e9565b6112616000601483516112599190612a7e565b839190611c70565b9392505050565b6112706119ab565b81813060405160200161128593929190612a95565b60408051601f1981840301815291815261ffff851660009081526001602090815291902082516112ba93919290910190611f17565b507f8c0400cfe2d1199b1a725c78960bcc2a344d869b80590d0f2bd005db15a572ce8383836040516112ee939291906128b9565b60405180910390a1505050565b6113036119ab565b600480546001600160a01b0319166001600160a01b0383169081179091556040519081527f5db758e995a17ec1ad84bdef7e8c3293a0bd6179bcce400dff5d4c3d87db726b9060200160405180910390a150565b61135f6119ab565b6040516332fb62e760e21b81526001600160a01b037f0000000000000000000000000000000000000000000000000000000000000000169063cbed8b9c906113b39088908890889088908890600401612abb565b600060405180830381600087803b1580156113cd57600080fd5b505af11580156113e1573d6000803e3d6000fd5b505050505050505050565b61ffff8616600090815260056020526040808220905161140f9088908890612880565b90815260408051602092819003830190206001600160401b0387166000908152925290205490508061148f5760405162461bcd60e51b815260206004820152602360248201527f4e6f6e626c6f636b696e674c7a4170703a206e6f2073746f726564206d65737360448201526261676560e81b60648201526084016106e9565b8083836040516114a0929190612880565b6040518091039020146114ff5760405162461bcd60e51b815260206004820152602160248201527f4e6f6e626c6f636b696e674c7a4170703a20696e76616c6964207061796c6f616044820152601960fa1b60648201526084016106e9565b61ffff871660009081526005602052604080822090516115229089908990612880565b90815260408051602092819003830181206001600160401b038916600090815290845282902093909355601f880182900482028301820190528682526115ba918991899089908190840183828082843760009201919091525050604080516020601f8a018190048102820181019092528881528a935091508890889081908401838280828437600092019190915250611bab92505050565b7fc264d91f3adc5588250e1551f547752ca0cfa8f6b530d243b9f9f4cab10ea8e587878787856040516115f1959493929190612af4565b60405180910390a150505050505050565b61160a6119ab565b600081116116525760405162461bcd60e51b81526020600482015260156024820152744c7a4170703a20696e76616c6964206d696e47617360581b60448201526064016106e9565b61ffff83811660008181526002602090815260408083209487168084529482529182902085905581519283528201929092529081018290527f9d5c7c0b934da8fefa9c7760c98383778a12dfbfc0c3b3106518f43fb9508ac0906060016112ee565b6000806000600260065486886040516020016116d394939291906128d7565b604051602081830303815290604052905060008533886040516020016116fb93929190612915565b60408051601f198184030181529082905263040a7bb160e41b825291506001600160a01b037f000000000000000000000000000000000000000000000000000000000000000016906340a7bb109061175f908b90309086908b9089906004016129bd565b6040805180830381865afa15801561177b573d6000803e3d6000fd5b505050506040513d601f19601f8201168201806040525081019061179f9190612a11565b93509350505094509492505050565b6117b66119ab565b61ffff831660009081526001602052604090206117d4908383611f9b565b507ffa41487ad5d6728f0b19276fa1eddc16558578f5109fc39d2dc33c3230470dab8383836040516112ee939291906128b9565b6118106119ab565b6001600160a01b0381166118755760405162461bcd60e51b815260206004820152602660248201527f4f776e61626c653a206e6577206f776e657220697320746865207a65726f206160448201526564647265737360d01b60648201526084016106e9565b61187e81611c20565b50565b604051633d7b2f6f60e21b815261ffff808616600483015284166024820152306044820152606481018290526060907f00000000000000000000000000000000000000000000000000000000000000006001600160a01b03169063f5ecbdbc90608401600060405180830381865afa158015611901573d6000803e3d6000fd5b505050506040513d6000823e601f3d908101601f191682016040526119299190810190612b7c565b95945050505050565b6000806119955a60966366ad5c8a60e01b8989898960405160240161195a9493929190612bb0565b60408051601f198184030181529190526020810180516001600160e01b03166001600160e01b03199093169290921790915230929190611d7d565b9150915081610c9657610c968686868685611e07565b6000546001600160a01b03163314610cb05760405162461bcd60e51b815260206004820181905260248201527f4f776e61626c653a2063616c6c6572206973206e6f7420746865206f776e657260448201526064016106e9565b61ffff861660009081526001602052604081208054611a2390612845565b80601f0160208091040260200160405190810160405280929190818152602001828054611a4f90612845565b8015611a9c5780601f10611a7157610100808354040283529160200191611a9c565b820191906000526020600020905b815481529060010190602001808311611a7f57829003601f168201915b50505050509050805160001415611b0e5760405162461bcd60e51b815260206004820152603060248201527f4c7a4170703a2064657374696e6174696f6e20636861696e206973206e6f742060448201526f61207472757374656420736f7572636560801b60648201526084016106e9565b611b19878751611ea4565b60405162c5803160e81b81526001600160a01b037f0000000000000000000000000000000000000000000000000000000000000000169063c5803100908490611b70908b9086908c908c908c908c90600401612bee565b6000604051808303818588803b158015611b8957600080fd5b505af1158015611b9d573d6000803e3d6000fd5b505050505050505050505050565b600080600083806020019051810190611bc49190612c55565b92509250925080604051611bd8919061293f565b6040518091039020826001600160a01b03168861ffff167f72b2a62c1045e48221f301d9352d5773acbb1f5e6d6e7657b2622fef3f00446b86604051610bb191815260200190565b600080546001600160a01b038381166001600160a01b0319831681178455604051919092169283917f8be0079c531659141344cd1fd0a4f28419497f9722a3daafe3b4186f6b6457e09190a35050565b606081611c7e81601f612a4b565b1015611cbd5760405162461bcd60e51b815260206004820152600e60248201526d736c6963655f6f766572666c6f7760901b60448201526064016106e9565b611cc78284612a4b565b84511015611d0b5760405162461bcd60e51b8152602060048201526011602482015270736c6963655f6f75744f66426f756e647360781b60448201526064016106e9565b606082158015611d2a5760405191506000825260208201604052611d74565b6040519150601f8416801560200281840101858101878315602002848b0101015b81831015611d63578051835260209283019201611d4b565b5050858452601f01601f1916604052505b50949350505050565b6000606060008060008661ffff166001600160401b03811115611da257611da26121dd565b6040519080825280601f01601f191660200182016040528015611dcc576020820181803683370190505b50905060008087516020890160008d8df191503d925086831115611dee578692505b828152826000602083013e909890975095505050505050565b8180519060200120600560008761ffff1661ffff16815260200190815260200160002085604051611e38919061293f565b9081526040805191829003602090810183206001600160401b0388166000908152915220919091557fe183f33de2837795525b4792ca4cd60535bd77c53b7e7030060bfcf5734d6b0c90611e959087908790879087908790612cae565b60405180910390a15050505050565b61ffff821660009081526003602052604090205480611ec257506127105b80821115611f125760405162461bcd60e51b815260206004820181905260248201527f4c7a4170703a207061796c6f61642073697a6520697320746f6f206c6172676560448201526064016106e9565b505050565b828054611f2390612845565b90600052602060002090601f016020900481019282611f455760008555611f8b565b82601f10611f5e57805160ff1916838001178555611f8b565b82800160010185558215611f8b579182015b82811115611f8b578251825591602001919060010190611f70565b50611f9792915061200f565b5090565b828054611fa790612845565b90600052602060002090601f016020900481019282611fc95760008555611f8b565b82601f10611fe25782800160ff19823516178555611f8b565b82800160010185558215611f8b579182015b82811115611f8b578235825591602001919060010190611ff4565b5b80821115611f975760008155600101612010565b803561ffff8116811461203657600080fd5b919050565b60008083601f84011261204d57600080fd5b5081356001600160401b0381111561206457600080fd5b60208301915083602082850101111561207c57600080fd5b9250929050565b80356001600160401b038116811461203657600080fd5b600080600080600080608087890312156120b357600080fd5b6120bc87612024565b955060208701356001600160401b03808211156120d857600080fd5b6120e48a838b0161203b565b90975095508591506120f860408a01612083565b9450606089013591508082111561210e57600080fd5b5061211b89828a0161203b565b979a9699509497509295939492505050565b60006020828403121561213f57600080fd5b61126182612024565b6000806040838503121561215b57600080fd5b61216483612024565b946020939093013593505050565b60006020828403121561218457600080fd5b5035919050565b6000806000604084860312156121a057600080fd5b6121a984612024565b925060208401356001600160401b038111156121c457600080fd5b6121d08682870161203b565b9497909650939450505050565b634e487b7160e01b600052604160045260246000fd5b604051601f8201601f191681016001600160401b038111828210171561221b5761221b6121dd565b604052919050565b60006001600160401b0382111561223c5761223c6121dd565b50601f01601f191660200190565b600082601f83011261225b57600080fd5b813561226e61226982612223565b6121f3565b81815284602083860101111561228357600080fd5b816020850160208301376000918101602001919091529392505050565b6001600160a01b038116811461187e57600080fd5b600080600080600060a086880312156122cd57600080fd5b6122d686612024565b945060208601356001600160401b038111156122f157600080fd5b6122fd8882890161224a565b945050604086013592506060860135612315816122a0565b91506080860135612325816122a0565b809150509295509295909350565b60008060006060848603121561234857600080fd5b61235184612024565b925060208401356001600160401b0381111561236c57600080fd5b6123788682870161224a565b92505061238760408501612083565b90509250925092565b60005b838110156123ab578181015183820152602001612393565b838111156123ba576000848401525b50505050565b600081518084526123d8816020860160208601612390565b601f01601f19169290920160200192915050565b60208152600061126160208301846123c0565b60006001600160401b03821115612418576124186121dd565b5060051b60200190565b600082601f83011261243357600080fd5b81356020612443612269836123ff565b82815260059290921b8401810191818101908684111561246257600080fd5b8286015b848110156124845761247781612024565b8352918301918301612466565b509695505050505050565b600082601f8301126124a057600080fd5b813560206124b0612269836123ff565b82815260059290921b840181019181810190868411156124cf57600080fd5b8286015b848110156124845780356001600160401b038111156124f25760008081fd5b6125008986838b010161224a565b8452509183019183016124d3565b600082601f83011261251f57600080fd5b8135602061252f612269836123ff565b82815260059290921b8401810191818101908684111561254e57600080fd5b8286015b848110156124845780358352918301918301612552565b8035801515811461203657600080fd5b6000806000806080858703121561258f57600080fd5b84356001600160401b03808211156125a657600080fd5b6125b288838901612422565b955060208701359150808211156125c857600080fd5b6125d48883890161248f565b945060408701359150808211156125ea57600080fd5b506125f78782880161250e565b92505061260660608601612569565b905092959194509250565b600080600080600060a0868803121561262957600080fd5b85356001600160401b038082111561264057600080fd5b61264c89838a01612422565b9650602088013591508082111561266257600080fd5b61266e89838a0161248f565b9550604088013591508082111561268457600080fd5b506126918882890161250e565b9350506060860135612315816122a0565b600080604083850312156126b557600080fd5b6126be83612024565b91506126cc60208401612024565b90509250929050565b6000602082840312156126e757600080fd5b8135611261816122a0565b60008060008060006080868803121561270a57600080fd5b61271386612024565b945061272160208701612024565b93506040860135925060608601356001600160401b0381111561274357600080fd5b61274f8882890161203b565b969995985093965092949392505050565b60008060006060848603121561277557600080fd5b61277e84612024565b925061278c60208501612024565b9150604084013590509250925092565b600080600080608085870312156127b257600080fd5b6127bb85612024565b935060208501356001600160401b038111156127d657600080fd5b6127e28782880161224a565b9350506040850135915061260660608601612569565b6000806000806080858703121561280e57600080fd5b61281785612024565b935061282560208601612024565b92506040850135612835816122a0565b9396929550929360600135925050565b600181811c9082168061285957607f821691505b6020821081141561287a57634e487b7160e01b600052602260045260246000fd5b50919050565b8183823760009101908152919050565b81835281816020850137506000828201602090810191909152601f909101601f19169091010190565b61ffff84168152604060208201526000611929604083018486612890565b61ffff60f01b8560f01b16815283600282015282602282015260008251612905816042850160208701612390565b9190910160420195945050505050565b8381526001600160a01b0383166020820152606060408201819052600090611929908301846123c0565b60008251612951818460208701612390565b9190910192915050565b6020808252602c908201527f5f647374436861696e496420616e64205f746f41646472657373206d7573742060408201526b62652073616d652073697a6560a01b606082015260800190565b634e487b7160e01b600052603260045260246000fd5b61ffff861681526001600160a01b038516602082015260a0604082018190526000906129eb908301866123c0565b84151560608401528281036080840152612a0581856123c0565b98975050505050505050565b60008060408385031215612a2457600080fd5b505080516020909101519092909150565b634e487b7160e01b600052601160045260246000fd5b60008219821115612a5e57612a5e612a35565b500190565b6000600019821415612a7757612a77612a35565b5060010190565b600082821015612a9057612a90612a35565b500390565b8284823760609190911b6bffffffffffffffffffffffff19169101908152601401919050565b600061ffff808816835280871660208401525084604083015260806060830152612ae9608083018486612890565b979650505050505050565b61ffff86168152608060208201526000612b12608083018688612890565b6001600160401b0394909416604083015250606001529392505050565b600082601f830112612b4057600080fd5b8151612b4e61226982612223565b818152846020838601011115612b6357600080fd5b612b74826020830160208701612390565b949350505050565b600060208284031215612b8e57600080fd5b81516001600160401b03811115612ba457600080fd5b612b7484828501612b2f565b61ffff85168152608060208201526000612bcd60808301866123c0565b6001600160401b03851660408401528281036060840152612ae981856123c0565b61ffff8716815260c060208201526000612c0b60c08301886123c0565b8281036040840152612c1d81886123c0565b6001600160a01b0387811660608601528616608085015283810360a08501529050612c4881856123c0565b9998505050505050505050565b600080600060608486031215612c6a57600080fd5b835192506020840151612c7c816122a0565b60408501519092506001600160401b03811115612c9857600080fd5b612ca486828701612b2f565b9150509250925092565b61ffff8616815260a060208201526000612ccb60a08301876123c0565b6001600160401b03861660408401528281036060840152612cec81866123c0565b90508281036080840152612a0581856123c056fea264697066735822122026d37d6d6a3a14102000d267854dc055fac27a8ea3c87c2b01f711fcd1c86d4664736f6c634300080c0033",
  "devdoc": {
    "kind": "dev",
    "methods": {
      "owner()": {
        "details": "Returns the address of the current owner."
      },
      "renounceOwnership()": {
        "details": "Leaves the contract without owner. It will not be possible to call `onlyOwner` functions anymore. Can only be called by the current owner. NOTE: Renouncing ownership will leave the contract without an owner, thereby removing any functionality that is only available to the owner."
      },
      "transferOwnership(address)": {
        "details": "Transfers ownership of the contract to a new account (`newOwner`). Can only be called by the current owner."
      }
    },
    "version": 1
  },
  "userdoc": {
    "kind": "user",
    "methods": {},
    "version": 1
  },
  "storageLayout": {
    "storage": [
      {
        "astId": 4047,
        "contract": "contracts/examples/GasDrop.sol:GasDrop",
        "label": "_owner",
        "offset": 0,
        "slot": "0",
        "type": "t_address"
      },
      {
        "astId": 15104,
        "contract": "contracts/examples/GasDrop.sol:GasDrop",
        "label": "trustedRemoteLookup",
        "offset": 0,
        "slot": "1",
        "type": "t_mapping(t_uint16,t_bytes_storage)"
      },
      {
        "astId": 15110,
        "contract": "contracts/examples/GasDrop.sol:GasDrop",
        "label": "minDstGasLookup",
        "offset": 0,
        "slot": "2",
        "type": "t_mapping(t_uint16,t_mapping(t_uint16,t_uint256))"
      },
      {
        "astId": 15114,
        "contract": "contracts/examples/GasDrop.sol:GasDrop",
        "label": "payloadSizeLimitLookup",
        "offset": 0,
        "slot": "3",
        "type": "t_mapping(t_uint16,t_uint256)"
      },
      {
        "astId": 15116,
        "contract": "contracts/examples/GasDrop.sol:GasDrop",
        "label": "precrime",
        "offset": 0,
        "slot": "4",
        "type": "t_address"
      },
      {
        "astId": 15653,
        "contract": "contracts/examples/GasDrop.sol:GasDrop",
        "label": "failedMessages",
        "offset": 0,
        "slot": "5",
        "type": "t_mapping(t_uint16,t_mapping(t_bytes_memory_ptr,t_mapping(t_uint64,t_bytes32)))"
      },
      {
        "astId": 13713,
        "contract": "contracts/examples/GasDrop.sol:GasDrop",
        "label": "dstGas",
        "offset": 0,
        "slot": "6",
        "type": "t_uint256"
      }
    ],
    "types": {
      "t_address": {
        "encoding": "inplace",
        "label": "address",
        "numberOfBytes": "20"
      },
      "t_bytes32": {
        "encoding": "inplace",
        "label": "bytes32",
        "numberOfBytes": "32"
      },
      "t_bytes_memory_ptr": {
        "encoding": "bytes",
        "label": "bytes",
        "numberOfBytes": "32"
      },
      "t_bytes_storage": {
        "encoding": "bytes",
        "label": "bytes",
        "numberOfBytes": "32"
      },
      "t_mapping(t_bytes_memory_ptr,t_mapping(t_uint64,t_bytes32))": {
        "encoding": "mapping",
        "key": "t_bytes_memory_ptr",
        "label": "mapping(bytes => mapping(uint64 => bytes32))",
        "numberOfBytes": "32",
        "value": "t_mapping(t_uint64,t_bytes32)"
      },
      "t_mapping(t_uint16,t_bytes_storage)": {
        "encoding": "mapping",
        "key": "t_uint16",
        "label": "mapping(uint16 => bytes)",
        "numberOfBytes": "32",
        "value": "t_bytes_storage"
      },
      "t_mapping(t_uint16,t_mapping(t_bytes_memory_ptr,t_mapping(t_uint64,t_bytes32)))": {
        "encoding": "mapping",
        "key": "t_uint16",
        "label": "mapping(uint16 => mapping(bytes => mapping(uint64 => bytes32)))",
        "numberOfBytes": "32",
        "value": "t_mapping(t_bytes_memory_ptr,t_mapping(t_uint64,t_bytes32))"
      },
      "t_mapping(t_uint16,t_mapping(t_uint16,t_uint256))": {
        "encoding": "mapping",
        "key": "t_uint16",
        "label": "mapping(uint16 => mapping(uint16 => uint256))",
        "numberOfBytes": "32",
        "value": "t_mapping(t_uint16,t_uint256)"
      },
      "t_mapping(t_uint16,t_uint256)": {
        "encoding": "mapping",
        "key": "t_uint16",
        "label": "mapping(uint16 => uint256)",
        "numberOfBytes": "32",
        "value": "t_uint256"
      },
      "t_mapping(t_uint64,t_bytes32)": {
        "encoding": "mapping",
        "key": "t_uint64",
        "label": "mapping(uint64 => bytes32)",
        "numberOfBytes": "32",
        "value": "t_bytes32"
      },
      "t_uint16": {
        "encoding": "inplace",
        "label": "uint16",
        "numberOfBytes": "2"
      },
      "t_uint256": {
        "encoding": "inplace",
        "label": "uint256",
        "numberOfBytes": "32"
      },
      "t_uint64": {
        "encoding": "inplace",
        "label": "uint64",
        "numberOfBytes": "8"
      }
    }
  }
}