{
  "address": "0xFc13c28024Ac57B0FbfF311FccFF2dA452B7Ff26",
  "abi": [
    {
      "inputs": [],
      "stateMutability": "nonpayable",
      "type": "constructor"
    },
    {
      "anonymous": false,
      "inputs": [
        {
          "indexed": true,
          "internalType": "address",
          "name": "account",
          "type": "address"
        },
        {
          "indexed": true,
          "internalType": "address",
          "name": "operator",
          "type": "address"
        },
        {
          "indexed": false,
          "internalType": "bool",
          "name": "approved",
          "type": "bool"
        }
      ],
      "name": "ApprovalForAll",
      "type": "event"
    },
    {
      "anonymous": false,
      "inputs": [
        {
          "indexed": true,
          "internalType": "address",
          "name": "previousOwner",
          "type": "address"
        },
        {
          "indexed": true,
          "internalType": "address",
          "name": "newOwner",
          "type": "address"
        }
      ],
      "name": "OwnershipTransferred",
      "type": "event"
    },
    {
      "anonymous": false,
      "inputs": [
        {
          "indexed": true,
          "internalType": "address",
          "name": "operator",
          "type": "address"
        },
        {
          "indexed": true,
          "internalType": "address",
          "name": "from",
          "type": "address"
        },
        {
          "indexed": true,
          "internalType": "address",
          "name": "to",
          "type": "address"
        },
        {
          "indexed": false,
          "internalType": "uint256[]",
          "name": "ids",
          "type": "uint256[]"
        },
        {
          "indexed": false,
          "internalType": "uint256[]",
          "name": "values",
          "type": "uint256[]"
        }
      ],
      "name": "TransferBatch",
      "type": "event"
    },
    {
      "anonymous": false,
      "inputs": [
        {
          "indexed": true,
          "internalType": "address",
          "name": "operator",
          "type": "address"
        },
        {
          "indexed": true,
          "internalType": "address",
          "name": "from",
          "type": "address"
        },
        {
          "indexed": true,
          "internalType": "address",
          "name": "to",
          "type": "address"
        },
        {
          "indexed": false,
          "internalType": "uint256",
          "name": "id",
          "type": "uint256"
        },
        {
          "indexed": false,
          "internalType": "uint256",
          "name": "value",
          "type": "uint256"
        }
      ],
      "name": "TransferSingle",
      "type": "event"
    },
    {
      "anonymous": false,
      "inputs": [
        {
          "indexed": false,
          "internalType": "string",
          "name": "value",
          "type": "string"
        },
        {
          "indexed": true,
          "internalType": "uint256",
          "name": "id",
          "type": "uint256"
        }
      ],
      "name": "URI",
      "type": "event"
    },
    {
      "inputs": [
        {
          "internalType": "address",
          "name": "account",
          "type": "address"
        },
        {
          "internalType": "uint256",
          "name": "id",
          "type": "uint256"
        }
      ],
      "name": "balanceOf",
      "outputs": [
        {
          "internalType": "uint256",
          "name": "",
          "type": "uint256"
        }
      ],
      "stateMutability": "view",
      "type": "function"
    },
    {
      "inputs": [
        {
          "internalType": "address[]",
          "name": "accounts",
          "type": "address[]"
        },
        {
          "internalType": "uint256[]",
          "name": "ids",
          "type": "uint256[]"
        }
      ],
      "name": "balanceOfBatch",
      "outputs": [
        {
          "internalType": "uint256[]",
          "name": "",
          "type": "uint256[]"
        }
      ],
      "stateMutability": "view",
      "type": "function"
    },
    {
      "inputs": [
        {
          "internalType": "address",
          "name": "account",
          "type": "address"
        },
        {
          "internalType": "address",
          "name": "operator",
          "type": "address"
        }
      ],
      "name": "isApprovedForAll",
      "outputs": [
        {
          "internalType": "bool",
          "name": "",
          "type": "bool"
        }
      ],
      "stateMutability": "view",
      "type": "function"
    },
    {
      "inputs": [
        {
          "internalType": "address",
          "name": "account",
          "type": "address"
        },
        {
          "internalType": "uint256",
          "name": "id",
          "type": "uint256"
        },
        {
          "internalType": "uint256",
          "name": "amount",
          "type": "uint256"
        },
        {
          "internalType": "bytes",
          "name": "data",
          "type": "bytes"
        }
      ],
      "name": "mint",
      "outputs": [],
      "stateMutability": "nonpayable",
      "type": "function"
    },
    {
      "inputs": [
        {
          "internalType": "address",
          "name": "to",
          "type": "address"
        },
        {
          "internalType": "uint256[]",
          "name": "ids",
          "type": "uint256[]"
        },
        {
          "internalType": "uint256[]",
          "name": "amounts",
          "type": "uint256[]"
        },
        {
          "internalType": "bytes",
          "name": "data",
          "type": "bytes"
        }
      ],
      "name": "mintBatch",
      "outputs": [],
      "stateMutability": "nonpayable",
      "type": "function"
    },
    {
      "inputs": [],
      "name": "owner",
      "outputs": [
        {
          "internalType": "address",
          "name": "",
          "type": "address"
        }
      ],
      "stateMutability": "view",
      "type": "function"
    },
    {
      "inputs": [],
      "name": "renounceOwnership",
      "outputs": [],
      "stateMutability": "nonpayable",
      "type": "function"
    },
    {
      "inputs": [
        {
          "internalType": "address",
          "name": "from",
          "type": "address"
        },
        {
          "internalType": "address",
          "name": "to",
          "type": "address"
        },
        {
          "internalType": "uint256[]",
          "name": "ids",
          "type": "uint256[]"
        },
        {
          "internalType": "uint256[]",
          "name": "amounts",
          "type": "uint256[]"
        },
        {
          "internalType": "bytes",
          "name": "data",
          "type": "bytes"
        }
      ],
      "name": "safeBatchTransferFrom",
      "outputs": [],
      "stateMutability": "nonpayable",
      "type": "function"
    },
    {
      "inputs": [
        {
          "internalType": "address",
          "name": "from",
          "type": "address"
        },
        {
          "internalType": "address",
          "name": "to",
          "type": "address"
        },
        {
          "internalType": "uint256",
          "name": "id",
          "type": "uint256"
        },
        {
          "internalType": "uint256",
          "name": "amount",
          "type": "uint256"
        },
        {
          "internalType": "bytes",
          "name": "data",
          "type": "bytes"
        }
      ],
      "name": "safeTransferFrom",
      "outputs": [],
      "stateMutability": "nonpayable",
      "type": "function"
    },
    {
      "inputs": [
        {
          "internalType": "address",
          "name": "operator",
          "type": "address"
        },
        {
          "internalType": "bool",
          "name": "approved",
          "type": "bool"
        }
      ],
      "name": "setApprovalForAll",
      "outputs": [],
      "stateMutability": "nonpayable",
      "type": "function"
    },
    {
      "inputs": [
        {
          "internalType": "bytes4",
          "name": "interfaceId",
          "type": "bytes4"
        }
      ],
      "name": "supportsInterface",
      "outputs": [
        {
          "internalType": "bool",
          "name": "",
          "type": "bool"
        }
      ],
      "stateMutability": "view",
      "type": "function"
    },
    {
      "inputs": [
        {
          "internalType": "address",
          "name": "newOwner",
          "type": "address"
        }
      ],
      "name": "transferOwnership",
      "outputs": [],
      "stateMutability": "nonpayable",
      "type": "function"
    },
    {
      "inputs": [
        {
          "internalType": "uint256",
          "name": "id",
          "type": "uint256"
        }
      ],
      "name": "uri",
      "outputs": [
        {
          "internalType": "string",
          "name": "",
          "type": "string"
        }
      ],
      "stateMutability": "view",
      "type": "function"
    }
  ],
  "transactionHash": "0x007ee8c987f155123f0a6a9af73044bb3a43b6f9f552e7dbb2a61a6f593226fe",
  "args": [],
  "numDeployments": 1,
  "solcInputHash": "339d1b9f3fa1541abe678a39e0d52515",
  "bytecode": "0x60806040523480156200001157600080fd5b506040805180820190915260068152654c5a3131353560d01b60208201526200003a816200004c565b50620000463362000065565b6200019a565b805162000061906002906020840190620000b7565b5050565b600380546001600160a01b038381166001600160a01b0319831681179093556040519116919082907f8be0079c531659141344cd1fd0a4f28419497f9722a3daafe3b4186f6b6457e090600090a35050565b828054620000c5906200015d565b90600052602060002090601f016020900481019282620000e9576000855562000134565b82601f106200010457805160ff191683800117855562000134565b8280016001018555821562000134579182015b828111156200013457825182559160200191906001019062000117565b506200014292915062000146565b5090565b5b8082111562000142576000815560010162000147565b600181811c908216806200017257607f821691505b602082108114156200019457634e487b7160e01b600052602260045260246000fd5b50919050565b611e6680620001aa6000396000f3fe608060405234801561001057600080fd5b50600436106100ce5760003560e01c8063715018a61161008c578063a22cb46511610066578063a22cb465146101ba578063e985e9c5146101cd578063f242432a14610209578063f2fde38b1461021c57600080fd5b8063715018a614610184578063731133e91461018c5780638da5cb5b1461019f57600080fd5b8062fdd58e146100d357806301ffc9a7146100f95780630e89341c1461011c5780631f7fdffa1461013c5780632eb2c2d6146101515780634e1273f414610164575b600080fd5b6100e66100e13660046111a0565b61022f565b6040519081526020015b60405180910390f35b61010c6101073660046111e0565b6102c5565b60405190151581526020016100f0565b61012f61012a366004611204565b610317565b6040516100f09190611275565b61014f61014a3660046113d4565b6103db565b005b61014f61015f36600461146d565b6103ed565b610177610172366004611517565b610439565b6040516100f0919061161d565b61014f610563565b61014f61019a366004611630565b610577565b6003546040516001600160a01b0390911681526020016100f0565b61014f6101c8366004611685565b610583565b61010c6101db3660046116c1565b6001600160a01b03918216600090815260016020908152604080832093909416825291909152205460ff1690565b61014f6102173660046116f4565b610592565b61014f61022a366004611759565b6105d7565b60006001600160a01b03831661029f5760405162461bcd60e51b815260206004820152602a60248201527f455243313135353a2061646472657373207a65726f206973206e6f742061207660448201526930b634b21037bbb732b960b11b60648201526084015b60405180910390fd5b506000908152602081815260408083206001600160a01b03949094168352929052205490565b60006001600160e01b03198216636cdb3d1360e11b14806102f657506001600160e01b031982166303a24d0760e21b145b8061031157506301ffc9a760e01b6001600160e01b03198316145b92915050565b606060006103276101008461178a565b9050600061033482610650565b905060006103648283846040516020016103509392919061179e565b604051602081830303815290604052610756565b905060008160405160200161037991906118b6565b604051602081830303815290604052905060006103aa61039888610650565b836040516020016103509291906118fb565b90506000816040516020016103bf91906119bf565b60408051601f1981840301815291905298975050505050505050565b6103e7848484846108aa565b50505050565b6001600160a01b038516331480610409575061040985336101db565b6104255760405162461bcd60e51b815260040161029690611a04565b61043285858585856109f5565b5050505050565b6060815183511461049e5760405162461bcd60e51b815260206004820152602960248201527f455243313135353a206163636f756e747320616e6420696473206c656e677468604482015268040dad2e6dac2e8c6d60bb1b6064820152608401610296565b6000835167ffffffffffffffff8111156104ba576104ba611288565b6040519080825280602002602001820160405280156104e3578160200160208202803683370190505b50905060005b845181101561055b5761052e85828151811061050757610507611a53565b602002602001015185838151811061052157610521611a53565b602002602001015161022f565b82828151811061054057610540611a53565b602090810291909101015261055481611a7f565b90506104e9565b509392505050565b61056b610b91565b6105756000610beb565b565b6103e784848484610c3d565b61058e338383610d17565b5050565b6001600160a01b0385163314806105ae57506105ae85336101db565b6105ca5760405162461bcd60e51b815260040161029690611a04565b6104328585858585610df8565b6105df610b91565b6001600160a01b0381166106445760405162461bcd60e51b815260206004820152602660248201527f4f776e61626c653a206e6577206f776e657220697320746865207a65726f206160448201526564647265737360d01b6064820152608401610296565b61064d81610beb565b50565b6060816106745750506040805180820190915260018152600360fc1b602082015290565b8160005b811561069e578061068881611a7f565b91506106979050600a83611a9a565b9150610678565b60008167ffffffffffffffff8111156106b9576106b9611288565b6040519080825280601f01601f1916602001820160405280156106e3576020820181803683370190505b5090505b841561074e576106f8600183611aae565b9150610705600a8661178a565b610710906030611ac5565b60f81b81838151811061072557610725611a53565b60200101906001600160f81b031916908160001a905350610747600a86611a9a565b94506106e7565b949350505050565b606081516000141561077657505060408051602081019091526000815290565b6000604051806060016040528060408152602001611df160409139905060006003845160026107a59190611ac5565b6107af9190611a9a565b6107ba906004611add565b67ffffffffffffffff8111156107d2576107d2611288565b6040519080825280601f01601f1916602001820160405280156107fc576020820181803683370190505b509050600182016020820185865187015b80821015610868576003820191508151603f8160121c168501518453600184019350603f81600c1c168501518453600184019350603f8160061c168501518453600184019350603f811685015184535060018301925061080d565b505060038651066001811461088457600281146108975761089f565b603d6001830353603d600283035361089f565b603d60018303535b509195945050505050565b6001600160a01b0384166108d05760405162461bcd60e51b815260040161029690611afc565b81518351146108f15760405162461bcd60e51b815260040161029690611b3d565b3360005b845181101561098d5783818151811061091057610910611a53565b602002602001015160008087848151811061092d5761092d611a53565b602002602001015181526020019081526020016000206000886001600160a01b03166001600160a01b0316815260200190815260200160002060008282546109759190611ac5565b9091555081905061098581611a7f565b9150506108f5565b50846001600160a01b031660006001600160a01b0316826001600160a01b03167f4a39dc06d4c0dbc64b70af90fd698a233a518aa5d07e595d983b8c0526c8f7fb87876040516109de929190611b85565b60405180910390a461043281600087878787610f22565b8151835114610a165760405162461bcd60e51b815260040161029690611b3d565b6001600160a01b038416610a3c5760405162461bcd60e51b815260040161029690611bb3565b3360005b8451811015610b23576000858281518110610a5d57610a5d611a53565b602002602001015190506000858381518110610a7b57610a7b611a53565b602090810291909101810151600084815280835260408082206001600160a01b038e168352909352919091205490915081811015610acb5760405162461bcd60e51b815260040161029690611bf8565b6000838152602081815260408083206001600160a01b038e8116855292528083208585039055908b16825281208054849290610b08908490611ac5565b9250508190555050505080610b1c90611a7f565b9050610a40565b50846001600160a01b0316866001600160a01b0316826001600160a01b03167f4a39dc06d4c0dbc64b70af90fd698a233a518aa5d07e595d983b8c0526c8f7fb8787604051610b73929190611b85565b60405180910390a4610b89818787878787610f22565b505050505050565b6003546001600160a01b031633146105755760405162461bcd60e51b815260206004820181905260248201527f4f776e61626c653a2063616c6c6572206973206e6f7420746865206f776e65726044820152606401610296565b600380546001600160a01b038381166001600160a01b0319831681179093556040519116919082907f8be0079c531659141344cd1fd0a4f28419497f9722a3daafe3b4186f6b6457e090600090a35050565b6001600160a01b038416610c635760405162461bcd60e51b815260040161029690611afc565b336000610c6f8561107e565b90506000610c7c8561107e565b90506000868152602081815260408083206001600160a01b038b16845290915281208054879290610cae908490611ac5565b909155505060408051878152602081018790526001600160a01b03808a1692600092918716917fc3d58168c5ae7397731d063d5bbf3d657854427343f4c083240f7aacaa2d0f62910160405180910390a4610d0e836000898989896110c9565b50505050505050565b816001600160a01b0316836001600160a01b03161415610d8b5760405162461bcd60e51b815260206004820152602960248201527f455243313135353a2073657474696e6720617070726f76616c20737461747573604482015268103337b91039b2b63360b91b6064820152608401610296565b6001600160a01b03838116600081815260016020908152604080832094871680845294825291829020805460ff191686151590811790915591519182527f17307eab39ab6107e8899845ad3d59bd9653f200f220920489ca2b5937696c31910160405180910390a3505050565b6001600160a01b038416610e1e5760405162461bcd60e51b815260040161029690611bb3565b336000610e2a8561107e565b90506000610e378561107e565b90506000868152602081815260408083206001600160a01b038c16845290915290205485811015610e7a5760405162461bcd60e51b815260040161029690611bf8565b6000878152602081815260408083206001600160a01b038d8116855292528083208985039055908a16825281208054889290610eb7908490611ac5565b909155505060408051888152602081018890526001600160a01b03808b16928c821692918816917fc3d58168c5ae7397731d063d5bbf3d657854427343f4c083240f7aacaa2d0f62910160405180910390a4610f17848a8a8a8a8a6110c9565b505050505050505050565b6001600160a01b0384163b15610b895760405163bc197c8160e01b81526001600160a01b0385169063bc197c8190610f669089908990889088908890600401611c42565b6020604051808303816000875af1925050508015610fa1575060408051601f3d908101601f19168201909252610f9e91810190611ca0565b60015b61104e57610fad611cbd565b806308c379a01415610fe75750610fc2611cd9565b80610fcd5750610fe9565b8060405162461bcd60e51b81526004016102969190611275565b505b60405162461bcd60e51b815260206004820152603460248201527f455243313135353a207472616e7366657220746f206e6f6e20455243313135356044820152732932b1b2b4bb32b91034b6b83632b6b2b73a32b960611b6064820152608401610296565b6001600160e01b0319811663bc197c8160e01b14610d0e5760405162461bcd60e51b815260040161029690611d63565b604080516001808252818301909252606091600091906020808301908036833701905050905082816000815181106110b8576110b8611a53565b602090810291909101015292915050565b6001600160a01b0384163b15610b895760405163f23a6e6160e01b81526001600160a01b0385169063f23a6e619061110d9089908990889088908890600401611dab565b6020604051808303816000875af1925050508015611148575060408051601f3d908101601f1916820190925261114591810190611ca0565b60015b61115457610fad611cbd565b6001600160e01b0319811663f23a6e6160e01b14610d0e5760405162461bcd60e51b815260040161029690611d63565b80356001600160a01b038116811461119b57600080fd5b919050565b600080604083850312156111b357600080fd5b6111bc83611184565b946020939093013593505050565b6001600160e01b03198116811461064d57600080fd5b6000602082840312156111f257600080fd5b81356111fd816111ca565b9392505050565b60006020828403121561121657600080fd5b5035919050565b60005b83811015611238578181015183820152602001611220565b838111156103e75750506000910152565b6000815180845261126181602086016020860161121d565b601f01601f19169290920160200192915050565b6020815260006111fd6020830184611249565b634e487b7160e01b600052604160045260246000fd5b601f8201601f1916810167ffffffffffffffff811182821017156112c4576112c4611288565b6040525050565b600067ffffffffffffffff8211156112e5576112e5611288565b5060051b60200190565b600082601f83011261130057600080fd5b8135602061130d826112cb565b60405161131a828261129e565b83815260059390931b850182019282810191508684111561133a57600080fd5b8286015b84811015611355578035835291830191830161133e565b509695505050505050565b600082601f83011261137157600080fd5b813567ffffffffffffffff81111561138b5761138b611288565b6040516113a2601f8301601f19166020018261129e565b8181528460208386010111156113b757600080fd5b816020850160208301376000918101602001919091529392505050565b600080600080608085870312156113ea57600080fd5b6113f385611184565b9350602085013567ffffffffffffffff8082111561141057600080fd5b61141c888389016112ef565b9450604087013591508082111561143257600080fd5b61143e888389016112ef565b9350606087013591508082111561145457600080fd5b5061146187828801611360565b91505092959194509250565b600080600080600060a0868803121561148557600080fd5b61148e86611184565b945061149c60208701611184565b9350604086013567ffffffffffffffff808211156114b957600080fd5b6114c589838a016112ef565b945060608801359150808211156114db57600080fd5b6114e789838a016112ef565b935060808801359150808211156114fd57600080fd5b5061150a88828901611360565b9150509295509295909350565b6000806040838503121561152a57600080fd5b823567ffffffffffffffff8082111561154257600080fd5b818501915085601f83011261155657600080fd5b81356020611563826112cb565b604051611570828261129e565b83815260059390931b850182019282810191508984111561159057600080fd5b948201945b838610156115b5576115a686611184565b82529482019490820190611595565b965050860135925050808211156115cb57600080fd5b506115d8858286016112ef565b9150509250929050565b600081518084526020808501945080840160005b83811015611612578151875295820195908201906001016115f6565b509495945050505050565b6020815260006111fd60208301846115e2565b6000806000806080858703121561164657600080fd5b61164f85611184565b93506020850135925060408501359150606085013567ffffffffffffffff81111561167957600080fd5b61146187828801611360565b6000806040838503121561169857600080fd5b6116a183611184565b9150602083013580151581146116b657600080fd5b809150509250929050565b600080604083850312156116d457600080fd5b6116dd83611184565b91506116eb60208401611184565b90509250929050565b600080600080600060a0868803121561170c57600080fd5b61171586611184565b945061172360208701611184565b93506040860135925060608601359150608086013567ffffffffffffffff81111561174d57600080fd5b61150a88828901611360565b60006020828403121561176b57600080fd5b6111fd82611184565b634e487b7160e01b600052601260045260246000fd5b60008261179957611799611774565b500690565b7f3c7376672076696577426f783d2230203020312031222076657273696f6e3d2281527f312e312220786d6c6e733d22687474703a2f2f7777772e77332e6f72672f3230602082015267181817b9bb33911f60c11b60408201527f3c726563742077696474683d223122206865696768743d223122207374796c6560488201526a07a44ccd2d8d874e4cec4560ab1b60688201526000845161184781607385016020890161121d565b8083019050600b60fa1b806073830152855161186a816074850160208a0161121d565b6074920191820152835161188581607584016020880161121d565b65149d9110179f60d11b91016075810191909152651e17b9bb339f60d11b607b820152608181019695505050505050565b7f646174613a696d6167652f7376672b786d6c3b6261736536342c0000000000008152600082516118ee81601a85016020870161121d565b91909101601a0192915050565b7f7b226e616d65223a20224c617965725a65726f204578616d706c652045524331815264313535202360d81b60208201526000835161194181602585016020880161121d565b7f222c20226465736372697074696f6e223a2022416e206578616d706c652045526025918401918201527f433131353520746f6b656e222c2022696d616765223a20220000000000000000604582015283516119a481605d84016020880161121d565b61227d60f01b605d9290910191820152605f01949350505050565b7f646174613a6170706c69636174696f6e2f6a736f6e3b6261736536342c0000008152600082516119f781601d85016020870161121d565b91909101601d0192915050565b6020808252602f908201527f455243313135353a2063616c6c6572206973206e6f7420746f6b656e206f776e60408201526e195c881b9bdc88185c1c1c9bdd9959608a1b606082015260800190565b634e487b7160e01b600052603260045260246000fd5b634e487b7160e01b600052601160045260246000fd5b6000600019821415611a9357611a93611a69565b5060010190565b600082611aa957611aa9611774565b500490565b600082821015611ac057611ac0611a69565b500390565b60008219821115611ad857611ad8611a69565b500190565b6000816000190483118215151615611af757611af7611a69565b500290565b60208082526021908201527f455243313135353a206d696e7420746f20746865207a65726f206164647265736040820152607360f81b606082015260800190565b60208082526028908201527f455243313135353a2069647320616e6420616d6f756e7473206c656e677468206040820152670dad2e6dac2e8c6d60c31b606082015260800190565b604081526000611b9860408301856115e2565b8281036020840152611baa81856115e2565b95945050505050565b60208082526025908201527f455243313135353a207472616e7366657220746f20746865207a65726f206164604082015264647265737360d81b606082015260800190565b6020808252602a908201527f455243313135353a20696e73756666696369656e742062616c616e636520666f60408201526939103a3930b739b332b960b11b606082015260800190565b6001600160a01b0386811682528516602082015260a060408201819052600090611c6e908301866115e2565b8281036060840152611c8081866115e2565b90508281036080840152611c948185611249565b98975050505050505050565b600060208284031215611cb257600080fd5b81516111fd816111ca565b600060033d1115611cd65760046000803e5060005160e01c5b90565b600060443d1015611ce75790565b6040516003193d81016004833e81513d67ffffffffffffffff8160248401118184111715611d1757505050505090565b8285019150815181811115611d2f5750505050505090565b843d8701016020828501011115611d495750505050505090565b611d586020828601018761129e565b509095945050505050565b60208082526028908201527f455243313135353a204552433131353552656365697665722072656a656374656040820152676420746f6b656e7360c01b606082015260800190565b6001600160a01b03868116825285166020820152604081018490526060810183905260a060808201819052600090611de590830184611249565b97965050505050505056fe4142434445464748494a4b4c4d4e4f505152535455565758595a6162636465666768696a6b6c6d6e6f707172737475767778797a303132333435363738392b2fa26469706673582212205c40f2fea1e1599311dfe4647da50b26d47c49a870d8dad38501914e94f924b764736f6c634300080c0033",
  "devdoc": {
    "kind": "dev",
    "methods": {
      "balanceOf(address,uint256)": {
        "details": "See {IERC1155-balanceOf}. Requirements: - `account` cannot be the zero address."
      },
      "balanceOfBatch(address[],uint256[])": {
        "details": "See {IERC1155-balanceOfBatch}. Requirements: - `accounts` and `ids` must have the same length."
      },
      "isApprovedForAll(address,address)": {
        "details": "See {IERC1155-isApprovedForAll}."
      },
      "owner()": {
        "details": "Returns the address of the current owner."
      },
      "renounceOwnership()": {
        "details": "Leaves the contract without owner. It will not be possible to call `onlyOwner` functions anymore. Can only be called by the current owner. NOTE: Renouncing ownership will leave the contract without an owner, thereby removing any functionality that is only available to the owner."
      },
      "safeBatchTransferFrom(address,address,uint256[],uint256[],bytes)": {
        "details": "See {IERC1155-safeBatchTransferFrom}."
      },
      "safeTransferFrom(address,address,uint256,uint256,bytes)": {
        "details": "See {IERC1155-safeTransferFrom}."
      },
      "setApprovalForAll(address,bool)": {
        "details": "See {IERC1155-setApprovalForAll}."
      },
      "supportsInterface(bytes4)": {
        "details": "See {IERC165-supportsInterface}."
      },
      "transferOwnership(address)": {
        "details": "Transfers ownership of the contract to a new account (`newOwner`). Can only be called by the current owner."
      }
    },
    "version": 1
  },
  "userdoc": {
    "kind": "user",
    "methods": {},
    "version": 1
  },
  "storageLayout": {
    "storage": [
      {
        "astId": 4326,
        "contract": "contracts/examples/LayerZeroExampleERC1155.sol:LayerZeroExampleERC1155",
        "label": "_balances",
        "offset": 0,
        "slot": "0",
        "type": "t_mapping(t_uint256,t_mapping(t_address,t_uint256))"
      },
      {
        "astId": 4332,
        "contract": "contracts/examples/LayerZeroExampleERC1155.sol:LayerZeroExampleERC1155",
        "label": "_operatorApprovals",
        "offset": 0,
        "slot": "1",
        "type": "t_mapping(t_address,t_mapping(t_address,t_bool))"
      },
      {
        "astId": 4334,
        "contract": "contracts/examples/LayerZeroExampleERC1155.sol:LayerZeroExampleERC1155",
        "label": "_uri",
        "offset": 0,
        "slot": "2",
        "type": "t_string_storage"
      },
      {
        "astId": 4047,
        "contract": "contracts/examples/LayerZeroExampleERC1155.sol:LayerZeroExampleERC1155",
        "label": "_owner",
        "offset": 0,
        "slot": "3",
        "type": "t_address"
      }
    ],
    "types": {
      "t_address": {
        "encoding": "inplace",
        "label": "address",
        "numberOfBytes": "20"
      },
      "t_bool": {
        "encoding": "inplace",
        "label": "bool",
        "numberOfBytes": "1"
      },
      "t_mapping(t_address,t_bool)": {
        "encoding": "mapping",
        "key": "t_address",
        "label": "mapping(address => bool)",
        "numberOfBytes": "32",
        "value": "t_bool"
      },
      "t_mapping(t_address,t_mapping(t_address,t_bool))": {
        "encoding": "mapping",
        "key": "t_address",
        "label": "mapping(address => mapping(address => bool))",
        "numberOfBytes": "32",
        "value": "t_mapping(t_address,t_bool)"
      },
      "t_mapping(t_address,t_uint256)": {
        "encoding": "mapping",
        "key": "t_address",
        "label": "mapping(address => uint256)",
        "numberOfBytes": "32",
        "value": "t_uint256"
      },
      "t_mapping(t_uint256,t_mapping(t_address,t_uint256))": {
        "encoding": "mapping",
        "key": "t_uint256",
        "label": "mapping(uint256 => mapping(address => uint256))",
        "numberOfBytes": "32",
        "value": "t_mapping(t_address,t_uint256)"
      },
      "t_string_storage": {
        "encoding": "bytes",
        "label": "string",
        "numberOfBytes": "32"
      },
      "t_uint256": {
        "encoding": "inplace",
        "label": "uint256",
        "numberOfBytes": "32"
      }
    }
  }
}