{
  "address": "0xcaDf84f934F0d0Cdb3d6A48A25565e0087072c31",
  "abi": [
    {
      "inputs": [
        {
          "internalType": "address",
          "name": "_stargateRouter",
          "type": "address"
        }
      ],
      "stateMutability": "nonpayable",
      "type": "constructor"
    },
    {
      "inputs": [],
      "name": "OUT_TO_NATIVE",
      "outputs": [
        {
          "internalType": "address",
          "name": "",
          "type": "address"
        }
      ],
      "stateMutability": "view",
      "type": "function"
    },
    {
      "inputs": [
        {
          "internalType": "uint16",
          "name": "",
          "type": "uint16"
        },
        {
          "internalType": "bytes",
          "name": "",
          "type": "bytes"
        },
        {
          "internalType": "uint256",
          "name": "",
          "type": "uint256"
        },
        {
          "internalType": "address",
          "name": "_token",
          "type": "address"
        },
        {
          "internalType": "uint256",
          "name": "amountLD",
          "type": "uint256"
        },
        {
          "internalType": "bytes",
          "name": "payload",
          "type": "bytes"
        }
      ],
      "name": "sgReceive",
      "outputs": [],
      "stateMutability": "nonpayable",
      "type": "function"
    },
    {
      "inputs": [],
      "name": "stargateRouter",
      "outputs": [
        {
          "internalType": "address",
          "name": "",
          "type": "address"
        }
      ],
      "stateMutability": "view",
      "type": "function"
    },
    {
      "inputs": [
        {
          "internalType": "uint16",
          "name": "dstChainId",
          "type": "uint16"
        }
      ],
      "name": "swap",
      "outputs": [],
      "stateMutability": "payable",
      "type": "function"
    }
  ],
  "transactionHash": "0xee511cc1288afc767d13d4d7daecb38de74fa4dcf224ee45362f3614ae8eeb12",
  "args": [
    "0x13093E05Eb890dfA6DacecBdE51d24DabAb2Faa1"
  ],
  "numDeployments": 1,
  "solcInputHash": "291fb1b6849d8af5953da2fec783b765",
  "bytecode": "0x6080604052600180546001600160a01b031916905534801561002057600080fd5b5060405161072438038061072483398101604081905261003f91610064565b600080546001600160a01b0319166001600160a01b0392909216919091179055610094565b60006020828403121561007657600080fd5b81516001600160a01b038116811461008d57600080fd5b9392505050565b610681806100a36000396000f3fe60806040526004361061003f5760003560e01c80637b4ad01a14610044578063a9e56f3c14610080578063ab8236f3146100a0578063df9b788b146100c2575b600080fd5b34801561005057600080fd5b50600154610064906001600160a01b031681565b6040516001600160a01b03909116815260200160405180910390f35b34801561008c57600080fd5b50600054610064906001600160a01b031681565b3480156100ac57600080fd5b506100c06100bb366004610409565b6100d5565b005b6100c06100d03660046104b0565b61014c565b6000546001600160a01b031633146101445760405162461bcd60e51b815260206004820152602860248201527f6f6e6c7920737461726761746520726f757465722063616e2063616c6c207367604482015267526563656976652160c01b606482015260840160405180910390fd5b505050505050565b6040516323b872dd60e01b8152336004820152306024820152620f42406044820152734a0d1092e9df255cf95d72834ea9255132782318906323b872dd906064016020604051808303816000875af11580156101ac573d6000803e3d6000fd5b505050506040513d601f19601f820116820180604052508101906101d091906104d2565b5060005460405163095ea7b360e01b81526001600160a01b039091166004820152620f42406024820152734a0d1092e9df255cf95d72834ea92551327823189063095ea7b3906044016020604051808303816000875af1158015610238573d6000803e3d6000fd5b505050506040513d601f19601f8201168201806040525081019061025c91906104d2565b5060008054604080516060810182526207a12081526020808201859052825180840184526002815261060f60f31b81830152828401529151734e9cd64be5202e40646c6977b82f10d5e47db5b760611b928101929092526001600160a01b0390921692639fbf10fc923492869260019283923392620f424092909160340160408051601f1981840301815260a08301909152606c8083529091906105e060208301396040518b63ffffffff1660e01b815260040161032299989796959493929190610541565b6000604051808303818588803b15801561033b57600080fd5b505af1158015610144573d6000803e3d6000fd5b803561ffff8116811461036157600080fd5b919050565b634e487b7160e01b600052604160045260246000fd5b600082601f83011261038d57600080fd5b813567ffffffffffffffff808211156103a8576103a8610366565b604051601f8301601f19908116603f011681019082821181831017156103d0576103d0610366565b816040528381528660208588010111156103e957600080fd5b836020870160208301376000602085830101528094505050505092915050565b60008060008060008060c0878903121561042257600080fd5b61042b8761034f565b9550602087013567ffffffffffffffff8082111561044857600080fd5b6104548a838b0161037c565b965060408901359550606089013591506001600160a01b038216821461047957600080fd5b9093506080880135925060a0880135908082111561049657600080fd5b506104a389828a0161037c565b9150509295509295509295565b6000602082840312156104c257600080fd5b6104cb8261034f565b9392505050565b6000602082840312156104e457600080fd5b815180151581146104cb57600080fd5b6000815180845260005b8181101561051a576020818501810151868301820152016104fe565b8181111561052c576000602083870101525b50601f01601f19169290920160200192915050565b600061012061ffff8c1683528a602084015289604084015260018060a01b03891660608401528760808401528660a08401528060c0840152855181840152506020850151610140830152604085015160606101608401526105a66101808401826104f4565b905082810360e08401526105ba81866104f4565b90508281036101008401526105cf81856104f4565b9c9b50505050505050505050505056fe307830313631326566383762666364383538363837313630323934623065666661636130636261333432653230303030303030303030303030303030303030303030303036313265663837626663643835383638373136303239346230656666616361306362613334326532a2646970667358221220c49294847b5751605063c8bc9364403a652343887ad17dfe1fcecebc93e7b93f64736f6c634300080c0033",
  "devdoc": {
    "kind": "dev",
    "methods": {},
    "version": 1
  },
  "userdoc": {
    "kind": "user",
    "methods": {},
    "version": 1
  },
  "storageLayout": {
    "storage": [
      {
        "astId": 7883,
        "contract": "contracts/StargateComposed.sol:StargateComposed",
        "label": "stargateRouter",
        "offset": 0,
        "slot": "0",
        "type": "t_address"
      },
      {
        "astId": 7886,
        "contract": "contracts/StargateComposed.sol:StargateComposed",
        "label": "OUT_TO_NATIVE",
        "offset": 0,
        "slot": "1",
        "type": "t_address"
      }
    ],
    "types": {
      "t_address": {
        "encoding": "inplace",
        "label": "address",
        "numberOfBytes": "20"
      }
    }
  }
}