{
  "abi": [
    {
      "type": "constructor",
      "inputs": [
        {
          "name": "_endpoint",
          "type": "address",
          "internalType": "address"
        },
        {
          "name": "_delegate",
          "type": "address",
          "internalType": "address"
        }
      ],
      "stateMutability": "nonpayable"
    },
    {
      "type": "fallback",
      "stateMutability": "payable"
    },
    {
      "type": "receive",
      "stateMutability": "payable"
    },
    {
      "type": "function",
      "name": "admin",
      "inputs": [],
      "outputs": [
        {
          "name": "",
          "type": "address",
          "internalType": "address"
        }
      ],
      "stateMutability": "view"
    },
    {
      "type": "function",
      "name": "allowInitializePath",
      "inputs": [
        {
          "name": "origin",
          "type": "tuple",
          "internalType": "struct Origin",
          "components": [
            {
              "name": "srcEid",
              "type": "uint32",
              "internalType": "uint32"
            },
            {
              "name": "sender",
              "type": "bytes32",
              "internalType": "bytes32"
            },
            {
              "name": "nonce",
              "type": "uint64",
              "internalType": "uint64"
            }
          ]
        }
      ],
      "outputs": [
        {
          "name": "",
          "type": "bool",
          "internalType": "bool"
        }
      ],
      "stateMutability": "view"
    },
    {
      "type": "function",
      "name": "batchIncrement",
      "inputs": [
        {
          "name": "_eids",
          "type": "uint32[]",
          "internalType": "uint32[]"
        },
        {
          "name": "_types",
          "type": "uint8[]",
          "internalType": "uint8[]"
        },
        {
          "name": "_options",
          "type": "bytes[]",
          "internalType": "bytes[]"
        }
      ],
      "outputs": [],
      "stateMutability": "payable"
    },
    {
      "type": "function",
      "name": "brokenIncrement",
      "inputs": [
        {
          "name": "_eid",
          "type": "uint32",
          "internalType": "uint32"
        },
        {
          "name": "_type",
          "type": "uint8",
          "internalType": "uint8"
        },
        {
          "name": "_options",
          "type": "bytes",
          "internalType": "bytes"
        }
      ],
      "outputs": [],
      "stateMutability": "payable"
    },
    {
      "type": "function",
      "name": "composedCount",
      "inputs": [],
      "outputs": [
        {
          "name": "",
          "type": "uint256",
          "internalType": "uint256"
        }
      ],
      "stateMutability": "view"
    },
    {
      "type": "function",
      "name": "count",
      "inputs": [],
      "outputs": [
        {
          "name": "",
          "type": "uint256",
          "internalType": "uint256"
        }
      ],
      "stateMutability": "view"
    },
    {
      "type": "function",
      "name": "eid",
      "inputs": [],
      "outputs": [
        {
          "name": "",
          "type": "uint32",
          "internalType": "uint32"
        }
      ],
      "stateMutability": "view"
    },
    {
      "type": "function",
      "name": "endpoint",
      "inputs": [],
      "outputs": [
        {
          "name": "",
          "type": "address",
          "internalType": "contract ILayerZeroEndpointV2"
        }
      ],
      "stateMutability": "view"
    },
    {
      "type": "function",
      "name": "inboundCount",
      "inputs": [
        {
          "name": "srcEid",
          "type": "uint32",
          "internalType": "uint32"
        }
      ],
      "outputs": [
        {
          "name": "count",
          "type": "uint256",
          "internalType": "uint256"
        }
      ],
      "stateMutability": "view"
    },
    {
      "type": "function",
      "name": "increment",
      "inputs": [
        {
          "name": "_eid",
          "type": "uint32",
          "internalType": "uint32"
        },
        {
          "name": "_type",
          "type": "uint8",
          "internalType": "uint8"
        },
        {
          "name": "_options",
          "type": "bytes",
          "internalType": "bytes"
        }
      ],
      "outputs": [],
      "stateMutability": "payable"
    },
    {
      "type": "function",
      "name": "isComposeMsgSender",
      "inputs": [
        {
          "name": "",
          "type": "tuple",
          "internalType": "struct Origin",
          "components": [
            {
              "name": "srcEid",
              "type": "uint32",
              "internalType": "uint32"
            },
            {
              "name": "sender",
              "type": "bytes32",
              "internalType": "bytes32"
            },
            {
              "name": "nonce",
              "type": "uint64",
              "internalType": "uint64"
            }
          ]
        },
        {
          "name": "",
          "type": "bytes",
          "internalType": "bytes"
        },
        {
          "name": "_sender",
          "type": "address",
          "internalType": "address"
        }
      ],
      "outputs": [
        {
          "name": "",
          "type": "bool",
          "internalType": "bool"
        }
      ],
      "stateMutability": "view"
    },
    {
      "type": "function",
      "name": "isPeer",
      "inputs": [
        {
          "name": "_eid",
          "type": "uint32",
          "internalType": "uint32"
        },
        {
          "name": "_peer",
          "type": "bytes32",
          "internalType": "bytes32"
        }
      ],
      "outputs": [
        {
          "name": "",
          "type": "bool",
          "internalType": "bool"
        }
      ],
      "stateMutability": "view"
    },
    {
      "type": "function",
      "name": "lzCompose",
      "inputs": [
        {
          "name": "_oApp",
          "type": "address",
          "internalType": "address"
        },
        {
          "name": "",
          "type": "bytes32",
          "internalType": "bytes32"
        },
        {
          "name": "_message",
          "type": "bytes",
          "internalType": "bytes"
        },
        {
          "name": "",
          "type": "address",
          "internalType": "address"
        },
        {
          "name": "",
          "type": "bytes",
          "internalType": "bytes"
        }
      ],
      "outputs": [],
      "stateMutability": "payable"
    },
    {
      "type": "function",
      "name": "lzReceive",
      "inputs": [
        {
          "name": "_origin",
          "type": "tuple",
          "internalType": "struct Origin",
          "components": [
            {
              "name": "srcEid",
              "type": "uint32",
              "internalType": "uint32"
            },
            {
              "name": "sender",
              "type": "bytes32",
              "internalType": "bytes32"
            },
            {
              "name": "nonce",
              "type": "uint64",
              "internalType": "uint64"
            }
          ]
        },
        {
          "name": "_guid",
          "type": "bytes32",
          "internalType": "bytes32"
        },
        {
          "name": "_message",
          "type": "bytes",
          "internalType": "bytes"
        },
        {
          "name": "_executor",
          "type": "address",
          "internalType": "address"
        },
        {
          "name": "_extraData",
          "type": "bytes",
          "internalType": "bytes"
        }
      ],
      "outputs": [],
      "stateMutability": "payable"
    },
    {
      "type": "function",
      "name": "lzReceiveAndRevert",
      "inputs": [
        {
          "name": "_packets",
          "type": "tuple[]",
          "internalType": "struct InboundPacket[]",
          "components": [
            {
              "name": "origin",
              "type": "tuple",
              "internalType": "struct Origin",
              "components": [
                {
                  "name": "srcEid",
                  "type": "uint32",
                  "internalType": "uint32"
                },
                {
                  "name": "sender",
                  "type": "bytes32",
                  "internalType": "bytes32"
                },
                {
                  "name": "nonce",
                  "type": "uint64",
                  "internalType": "uint64"
                }
              ]
            },
            {
              "name": "dstEid",
              "type": "uint32",
              "internalType": "uint32"
            },
            {
              "name": "receiver",
              "type": "address",
              "internalType": "address"
            },
            {
              "name": "guid",
              "type": "bytes32",
              "internalType": "bytes32"
            },
            {
              "name": "value",
              "type": "uint256",
              "internalType": "uint256"
            },
            {
              "name": "executor",
              "type": "address",
              "internalType": "address"
            },
            {
              "name": "message",
              "type": "bytes",
              "internalType": "bytes"
            },
            {
              "name": "extraData",
              "type": "bytes",
              "internalType": "bytes"
            }
          ]
        }
      ],
      "outputs": [],
      "stateMutability": "payable"
    },
    {
      "type": "function",
      "name": "lzReceiveSimulate",
      "inputs": [
        {
          "name": "_origin",
          "type": "tuple",
          "internalType": "struct Origin",
          "components": [
            {
              "name": "srcEid",
              "type": "uint32",
              "internalType": "uint32"
            },
            {
              "name": "sender",
              "type": "bytes32",
              "internalType": "bytes32"
            },
            {
              "name": "nonce",
              "type": "uint64",
              "internalType": "uint64"
            }
          ]
        },
        {
          "name": "_guid",
          "type": "bytes32",
          "internalType": "bytes32"
        },
        {
          "name": "_message",
          "type": "bytes",
          "internalType": "bytes"
        },
        {
          "name": "_executor",
          "type": "address",
          "internalType": "address"
        },
        {
          "name": "_extraData",
          "type": "bytes",
          "internalType": "bytes"
        }
      ],
      "outputs": [],
      "stateMutability": "payable"
    },
    {
      "type": "function",
      "name": "nextNonce",
      "inputs": [
        {
          "name": "_srcEid",
          "type": "uint32",
          "internalType": "uint32"
        },
        {
          "name": "_sender",
          "type": "bytes32",
          "internalType": "bytes32"
        }
      ],
      "outputs": [
        {
          "name": "",
          "type": "uint64",
          "internalType": "uint64"
        }
      ],
      "stateMutability": "view"
    },
    {
      "type": "function",
      "name": "oApp",
      "inputs": [],
      "outputs": [
        {
          "name": "",
          "type": "address",
          "internalType": "address"
        }
      ],
      "stateMutability": "view"
    },
    {
      "type": "function",
      "name": "oAppVersion",
      "inputs": [],
      "outputs": [
        {
          "name": "senderVersion",
          "type": "uint64",
          "internalType": "uint64"
        },
        {
          "name": "receiverVersion",
          "type": "uint64",
          "internalType": "uint64"
        }
      ],
      "stateMutability": "pure"
    },
    {
      "type": "function",
      "name": "outboundCount",
      "inputs": [
        {
          "name": "dstEid",
          "type": "uint32",
          "internalType": "uint32"
        }
      ],
      "outputs": [
        {
          "name": "count",
          "type": "uint256",
          "internalType": "uint256"
        }
      ],
      "stateMutability": "view"
    },
    {
      "type": "function",
      "name": "owner",
      "inputs": [],
      "outputs": [
        {
          "name": "",
          "type": "address",
          "internalType": "address"
        }
      ],
      "stateMutability": "view"
    },
    {
      "type": "function",
      "name": "peers",
      "inputs": [
        {
          "name": "eid",
          "type": "uint32",
          "internalType": "uint32"
        }
      ],
      "outputs": [
        {
          "name": "peer",
          "type": "bytes32",
          "internalType": "bytes32"
        }
      ],
      "stateMutability": "view"
    },
    {
      "type": "function",
      "name": "preCrime",
      "inputs": [],
      "outputs": [
        {
          "name": "",
          "type": "address",
          "internalType": "address"
        }
      ],
      "stateMutability": "view"
    },
    {
      "type": "function",
      "name": "quote",
      "inputs": [
        {
          "name": "_eid",
          "type": "uint32",
          "internalType": "uint32"
        },
        {
          "name": "_type",
          "type": "uint8",
          "internalType": "uint8"
        },
        {
          "name": "_options",
          "type": "bytes",
          "internalType": "bytes"
        }
      ],
      "outputs": [
        {
          "name": "nativeFee",
          "type": "uint256",
          "internalType": "uint256"
        },
        {
          "name": "lzTokenFee",
          "type": "uint256",
          "internalType": "uint256"
        }
      ],
      "stateMutability": "view"
    },
    {
      "type": "function",
      "name": "renounceOwnership",
      "inputs": [],
      "outputs": [],
      "stateMutability": "nonpayable"
    },
    {
      "type": "function",
      "name": "setAdmin",
      "inputs": [
        {
          "name": "_admin",
          "type": "address",
          "internalType": "address"
        }
      ],
      "outputs": [],
      "stateMutability": "nonpayable"
    },
    {
      "type": "function",
      "name": "setDelegate",
      "inputs": [
        {
          "name": "_delegate",
          "type": "address",
          "internalType": "address"
        }
      ],
      "outputs": [],
      "stateMutability": "nonpayable"
    },
    {
      "type": "function",
      "name": "setOrderedNonce",
      "inputs": [
        {
          "name": "_orderedNonce",
          "type": "bool",
          "internalType": "bool"
        }
      ],
      "outputs": [],
      "stateMutability": "nonpayable"
    },
    {
      "type": "function",
      "name": "setPeer",
      "inputs": [
        {
          "name": "_eid",
          "type": "uint32",
          "internalType": "uint32"
        },
        {
          "name": "_peer",
          "type": "bytes32",
          "internalType": "bytes32"
        }
      ],
      "outputs": [],
      "stateMutability": "nonpayable"
    },
    {
      "type": "function",
      "name": "setPreCrime",
      "inputs": [
        {
          "name": "_preCrime",
          "type": "address",
          "internalType": "address"
        }
      ],
      "outputs": [],
      "stateMutability": "nonpayable"
    },
    {
      "type": "function",
      "name": "skipInboundNonce",
      "inputs": [
        {
          "name": "_srcEid",
          "type": "uint32",
          "internalType": "uint32"
        },
        {
          "name": "_sender",
          "type": "bytes32",
          "internalType": "bytes32"
        },
        {
          "name": "_nonce",
          "type": "uint64",
          "internalType": "uint64"
        }
      ],
      "outputs": [],
      "stateMutability": "nonpayable"
    },
    {
      "type": "function",
      "name": "transferOwnership",
      "inputs": [
        {
          "name": "newOwner",
          "type": "address",
          "internalType": "address"
        }
      ],
      "outputs": [],
      "stateMutability": "nonpayable"
    },
    {
      "type": "function",
      "name": "withdraw",
      "inputs": [
        {
          "name": "_to",
          "type": "address",
          "internalType": "address payable"
        },
        {
          "name": "_amount",
          "type": "uint256",
          "internalType": "uint256"
        }
      ],
      "outputs": [],
      "stateMutability": "nonpayable"
    },
    {
      "type": "event",
      "name": "OwnershipTransferred",
      "inputs": [
        {
          "name": "previousOwner",
          "type": "address",
          "indexed": true,
          "internalType": "address"
        },
        {
          "name": "newOwner",
          "type": "address",
          "indexed": true,
          "internalType": "address"
        }
      ],
      "anonymous": false
    },
    {
      "type": "event",
      "name": "PeerSet",
      "inputs": [
        {
          "name": "eid",
          "type": "uint32",
          "indexed": false,
          "internalType": "uint32"
        },
        {
          "name": "peer",
          "type": "bytes32",
          "indexed": false,
          "internalType": "bytes32"
        }
      ],
      "anonymous": false
    },
    {
      "type": "event",
      "name": "PreCrimeSet",
      "inputs": [
        {
          "name": "preCrimeAddress",
          "type": "address",
          "indexed": false,
          "internalType": "address"
        }
      ],
      "anonymous": false
    },
    {
      "type": "error",
      "name": "AddressEmptyCode",
      "inputs": [
        {
          "name": "target",
          "type": "address",
          "internalType": "address"
        }
      ]
    },
    {
      "type": "error",
      "name": "AddressInsufficientBalance",
      "inputs": [
        {
          "name": "account",
          "type": "address",
          "internalType": "address"
        }
      ]
    },
    {
      "type": "error",
      "name": "FailedInnerCall",
      "inputs": []
    },
    {
      "type": "error",
      "name": "InvalidDelegate",
      "inputs": []
    },
    {
      "type": "error",
      "name": "InvalidEndpointCall",
      "inputs": []
    },
    {
      "type": "error",
      "name": "InvalidOptionType",
      "inputs": [
        {
          "name": "optionType",
          "type": "uint16",
          "internalType": "uint16"
        }
      ]
    },
    {
      "type": "error",
      "name": "LzTokenUnavailable",
      "inputs": []
    },
    {
      "type": "error",
      "name": "NoPeer",
      "inputs": [
        {
          "name": "eid",
          "type": "uint32",
          "internalType": "uint32"
        }
      ]
    },
    {
      "type": "error",
      "name": "NotEnoughNative",
      "inputs": [
        {
          "name": "msgValue",
          "type": "uint256",
          "internalType": "uint256"
        }
      ]
    },
    {
      "type": "error",
      "name": "OnlyEndpoint",
      "inputs": [
        {
          "name": "addr",
          "type": "address",
          "internalType": "address"
        }
      ]
    },
    {
      "type": "error",
      "name": "OnlyPeer",
      "inputs": [
        {
          "name": "eid",
          "type": "uint32",
          "internalType": "uint32"
        },
        {
          "name": "sender",
          "type": "bytes32",
          "internalType": "bytes32"
        }
      ]
    },
    {
      "type": "error",
      "name": "OnlySelf",
      "inputs": []
    },
    {
      "type": "error",
      "name": "OwnableInvalidOwner",
      "inputs": [
        {
          "name": "owner",
          "type": "address",
          "internalType": "address"
        }
      ]
    },
    {
      "type": "error",
      "name": "OwnableUnauthorizedAccount",
      "inputs": [
        {
          "name": "account",
          "type": "address",
          "internalType": "address"
        }
      ]
    },
    {
      "type": "error",
      "name": "SafeCastOverflowedUintDowncast",
      "inputs": [
        {
          "name": "bits",
          "type": "uint8",
          "internalType": "uint8"
        },
        {
          "name": "value",
          "type": "uint256",
          "internalType": "uint256"
        }
      ]
    },
    {
      "type": "error",
      "name": "SafeERC20FailedOperation",
      "inputs": [
        {
          "name": "token",
          "type": "address",
          "internalType": "address"
        }
      ]
    },
    {
      "type": "error",
      "name": "SimulationResult",
      "inputs": [
        {
          "name": "result",
          "type": "bytes",
          "internalType": "bytes"
        }
      ]
    }
  ],
  "bytecode": {
    "object": "0x60a06040523480156200001157600080fd5b5060405162002be138038062002be183398101604081905262000034916200021a565b81818181806001600160a01b0381166200006857604051631e4fbdf760e01b81526000600482015260240160405180910390fd5b6200007381620001ad565b506001600160a01b038083166080528116620000a257604051632d618d8160e21b815260040160405180910390fd5b60805160405163ca5eb5e160e01b81526001600160a01b0383811660048301529091169063ca5eb5e190602401600060405180830381600087803b158015620000ea57600080fd5b505af1158015620000ff573d6000803e3d6000fd5b5050600580546001600160a01b0319163317905550506040805163416ecebf60e01b815290516001600160a01b038816955063416ecebf9450600480830194506020935090918290030181865afa1580156200015f573d6000803e3d6000fd5b505050506040513d601f19601f8201168201806040525081019062000185919062000252565b600560146101000a81548163ffffffff021916908363ffffffff160217905550505062000281565b600080546001600160a01b038381166001600160a01b0319831681178455604051919092169283917f8be0079c531659141344cd1fd0a4f28419497f9722a3daafe3b4186f6b6457e09190a35050565b80516001600160a01b03811681146200021557600080fd5b919050565b600080604083850312156200022e57600080fd5b6200023983620001fd565b91506200024960208401620001fd565b90509250929050565b6000602082840312156200026557600080fd5b815163ffffffff811681146200027a57600080fd5b9392505050565b608051612905620002dc60003960008181610379015281816106450152818161098b01528181610d3001528181610e020152818161130b0152818161155b0152818161176f0152818161199c0152611a5501526129056000f3fe6080604052600436106101da5760003560e01c80637d25a05e11610101578063ca5eb5e11161009a578063d42438851161006c578063d4243885146105a3578063f2fde38b146105c3578063f3fef3a3146105e3578063f851a44014610603578063ff7bd03d1461062357005b8063ca5eb5e114610528578063d045a0dc14610548578063d0a102601461055b578063d22446ce1461056e57005b8063b7abbb5d116100d3578063b7abbb5d146104c2578063bb0b6a53146104d5578063bd815db014610502578063c95c55be1461051557005b80637d25a05e1461041d57806382413eac146104555780638da5cb5b14610484578063b731ea0a146104a257005b806356a4728911610173578063622f17f611610145578063622f17f61461039b578063704b6c02146103c85780637112f86f146103e8578063715018a61461040857005b806356a47289146102ea5780635a0dfe4d146103175780635b849af6146103475780635e280f111461036757005b80633400288b116101ac5780633400288b14610257578063416ecebf1461027757806352ae2879146102b0578063542e7b56146102d757005b806306661abd146101e357806313137d651461020c57806317442b701461021f578063257f4e051461024157005b366101e157005b005b3480156101ef57600080fd5b506101f960035481565b6040519081526020015b60405180910390f35b6101e161021a366004611e52565b610643565b34801561022b57600080fd5b5060408051600181526002602082015201610203565b34801561024d57600080fd5b506101f960045481565b34801561026357600080fd5b506101e1610272366004611f0a565b610703565b34801561028357600080fd5b5060055461029b90600160a01b900463ffffffff1681565b60405163ffffffff9091168152602001610203565b3480156102bc57600080fd5b50305b6040516001600160a01b039091168152602001610203565b6101e16102e5366004611f78565b610719565b3480156102f657600080fd5b506101f9610305366004612011565b60086020526000908152604090205481565b34801561032357600080fd5b50610337610332366004611f0a565b6108c6565b6040519015158152602001610203565b34801561035357600080fd5b506101e161036236600461203a565b6108e5565b34801561037357600080fd5b506102bf7f000000000000000000000000000000000000000000000000000000000000000081565b3480156103a757600080fd5b506101f96103b6366004612011565b60096020526000908152604090205481565b3480156103d457600080fd5b506101e16103e3366004612057565b610900565b3480156103f457600080fd5b506101e1610403366004612089565b61094c565b34801561041457600080fd5b506101e1610a5c565b34801561042957600080fd5b5061043d610438366004611f0a565b610a70565b6040516001600160401b039091168152602001610203565b34801561046157600080fd5b506103376104703660046120c9565b6001600160a01b0381163014949350505050565b34801561049057600080fd5b506000546001600160a01b03166102bf565b3480156104ae57600080fd5b506002546102bf906001600160a01b031681565b6101e16104d0366004612140565b610ac2565b3480156104e157600080fd5b506101f96104f0366004612011565b60016020526000908152604090205481565b6101e16105103660046121a0565b610b45565b6101e1610523366004612140565b610cb8565b34801561053457600080fd5b506101e1610543366004612057565b610d09565b6101e1610556366004611e52565b610d88565b6101e16105693660046121e1565b610db7565b34801561057a57600080fd5b5061058e610589366004612140565b610f98565b60408051928352602083019190915201610203565b3480156105af57600080fd5b506101e16105be366004612057565b61100f565b3480156105cf57600080fd5b506101e16105de366004612057565b61106b565b3480156105ef57600080fd5b506101e16105fe366004612261565b6110a9565b34801561060f57600080fd5b506005546102bf906001600160a01b031681565b34801561062f57600080fd5b5061033761063e36600461227f565b611176565b7f00000000000000000000000000000000000000000000000000000000000000006001600160a01b03163314610693576040516391ac5e4f60e01b81523360048201526024015b60405180910390fd5b602087018035906106ad906106a8908a612011565b6111ac565b146106eb576106bf6020880188612011565b60405163309afaf360e21b815263ffffffff90911660048201526020880135602482015260440161068a565b6106fa878787878787876111e8565b50505050505050565b61070b61145d565b610715828261148a565b5050565b848114801561072757508483145b6107735760405162461bcd60e51b815260206004820152601c60248201527f4f6d6e69436f756e7465723a206c656e677468206d69736d6174636800000000604482015260640161068a565b61077b611d96565b3460005b878110156108bb57600061079460018a6122b1565b82146107a057306107a2565b335b905060008a8a848181106107b8576107b86122c4565b90506020020160208101906107cd9190612011565b905060008989858181106107e3576107e36122c4565b90506020020160208101906107f891906122da565b905061088f8261081a83600560149054906101000a900463ffffffff166114df565b8a8a8881811061082c5761082c6122c4565b905060200281019061083e91906122f5565b8080601f0160208091040260200160405190810160405280939291908181526020018383808284376000920182905250604080518082019091528d8152602081019190915292508991506115289050565b955061089a82611633565b6040860151516108aa90866122b1565b9450506001909201915061077f9050565b505050505050505050565b63ffffffff821660009081526001602052604090205481145b92915050565b6108ed61145d565b6007805460ff1916911515919091179055565b6005546001600160a01b0316331461092a5760405162461bcd60e51b815260040161068a9061233b565b600580546001600160a01b0319166001600160a01b0392909216919091179055565b61095461145d565b604051636b85c48160e11b815230600482015263ffffffff84166024820152604481018390526001600160401b03821660648201527f00000000000000000000000000000000000000000000000000000000000000006001600160a01b03169063d70b890290608401600060405180830381600087803b1580156109d757600080fd5b505af11580156109eb573d6000803e3d6000fd5b505060075460ff16159150610a5790505763ffffffff83166000908152600660209081526040808320858452909152812080546001600160401b031691610a318361235f565b91906101000a8154816001600160401b0302191690836001600160401b03160217905550505b505050565b610a6461145d565b610a6e600061165c565b565b60075460009060ff1615610aba5763ffffffff83166000908152600660209081526040808320858452909152902054610ab3906001600160401b03166001612385565b90506108df565b5060006108df565b610b3584610ae285600560149054906101000a900463ffffffff166114df565b84848080601f016020809104026020016040519081016040528093929190818152602001838380828437600092018290525060408051808201909152348152602081019190915292503391506115289050565b50610b3f84611633565b50505050565b60005b81811015610c375736838383818110610b6357610b636122c4565b9050602002810190610b7591906123ac565b9050610b91610b876020830183612011565b60208301356108c6565b610b9b5750610c2f565b3063d045a0dc60c08301358360a0810135610bba6101008301836122f5565b610bcb610100890160e08a01612057565b610bd96101208a018a6122f5565b6040518963ffffffff1660e01b8152600401610bfb97969594939291906123f6565b6000604051808303818588803b158015610c1457600080fd5b505af1158015610c28573d6000803e3d6000fd5b5050505050505b600101610b48565b50336001600160a01b0316638e9e70996040518163ffffffff1660e01b8152600401600060405180830381865afa158015610c76573d6000803e3d6000fd5b505050506040513d6000823e601f3d908101601f19168201604052610c9e91908101906124b6565b604051638351eea760e01b815260040161068a9190612583565b6005546001600160a01b03163314610ce25760405162461bcd60e51b815260040161068a9061233b565b610d0284610ae285600560149054906101000a900463ffffffff166114df565b5050505050565b610d1161145d565b60405163ca5eb5e160e01b81526001600160a01b0382811660048301527f0000000000000000000000000000000000000000000000000000000000000000169063ca5eb5e190602401600060405180830381600087803b158015610d7457600080fd5b505af1158015610d02573d6000803e3d6000fd5b333014610da85760405163029a949d60e31b815260040160405180910390fd5b6106fa878787878787876106eb565b6001600160a01b0387163014610df75760405162461bcd60e51b81526020600482015260056024820152640216f4170760dc1b604482015260640161068a565b336001600160a01b037f00000000000000000000000000000000000000000000000000000000000000001614610e5b5760405162461bcd60e51b815260206004820152600960248201526808595b991c1bda5b9d60ba1b604482015260640161068a565b6000610e6786866116ac565b905060011960ff821601610e9357600160046000828254610e889190612596565b90915550610f8e9050565b60031960ff821601610f4f57600160046000828254610eb29190612596565b9091555060009050610ec487876116ce565b9050610ecf81611633565b6000610f0762030d406000610f0060408051600360f01b602082015281516002818303018152602290910190915290565b91906116f1565b9050610f4782610f2a6001600560149054906101000a900463ffffffff166114df565b836040518060400160405280348152602001600081525030611528565b505050610f8e565b60405162461bcd60e51b8152602060048201526014602482015273696e76616c6964206d657373616765207479706560601b604482015260640161068a565b5050505050505050565b6000806000610ff987610fbd88600560149054906101000a900463ffffffff166114df565b87878080601f01602080910402602001604051908101604052809392919081815260200183838082843760009201829052509250611759915050565b8051602090910151909890975095505050505050565b61101761145d565b600280546001600160a01b0319166001600160a01b0383169081179091556040519081527fd48d879cef83a1c0bdda516f27b13ddb1b3f8bbac1c9e1511bb2a659c24277609060200160405180910390a150565b61107361145d565b6001600160a01b03811661109d57604051631e4fbdf760e01b81526000600482015260240161068a565b6110a68161165c565b50565b6005546001600160a01b031633146110d35760405162461bcd60e51b815260040161068a9061233b565b6000826001600160a01b03168260405160006040518083038185875af1925050503d8060008114611120576040519150601f19603f3d011682016040523d82523d6000602084013e611125565b606091505b5050905080610a575760405162461bcd60e51b815260206004820152601c60248201527f4f6d6e69436f756e7465723a207769746864726177206661696c656400000000604482015260640161068a565b600060208201803590600190839061118e9086612011565b63ffffffff1681526020810191909152604001600020541492915050565b63ffffffff8116600090815260016020526040812054806108df5760405163f6ff4fb760e01b815263ffffffff8416600482015260240161068a565b6112126111f86020890189612011565b602089013561120d60608b0160408c016125a9565b61183a565b600061121e86866116ac565b905060001960ff8216016112b4576003805490600061123c836125c6565b919050555061124b868661192f565b34101561129a5760405162461bcd60e51b815260206004820152601f60248201527f4f6d6e69436f756e7465723a20696e73756666696369656e742076616c756500604482015260640161068a565b6112af6112aa60208a018a612011565b61194e565b610f8e565b60ff8116600214806112c9575060ff81166004145b1561138057600380549060006112de836125c6565b909155506112f490506112aa60208a018a612011565b604051633e5ac80960e11b81526001600160a01b037f00000000000000000000000000000000000000000000000000000000000000001690637cb59012906113499030908b906000908c908c906004016125df565b600060405180830381600087803b15801561136357600080fd5b505af1158015611377573d6000803e3d6000fd5b50505050610f8e565b60021960ff821601610f4f576003805490600061139c836125c6565b909155506113b290506112aa60208a018a612011565b6113c76113c260208a018a612011565b611633565b60006113f862030d40600a610f0060408051600360f01b602082015281516002818303018152602290910190915290565b905061145661140a60208b018b612011565b60055460408051600160f81b6020820152600160a01b90920460e01b6001600160e01b0319166021830152600a6025808401919091528151808403909101815260459092019052610f2a565b5050610f8e565b6000546001600160a01b03163314610a6e5760405163118cdaa760e01b815233600482015260240161068a565b63ffffffff8216600081815260016020908152604091829020849055815192835282018390527f238399d427b947898edb290f5ff0f9109849b1c3ba196a42e35f00c50a54b98b910160405180910390a15050565b6040516001600160f81b031960f884901b1660208201526001600160e01b031960e083901b1660218201526060906025015b604051602081830303815290604052905092915050565b611530611d96565b600061153f846000015161196f565b602085015190915015611559576115598460200151611998565b7f00000000000000000000000000000000000000000000000000000000000000006001600160a01b0316632637a450826040518060a001604052808b63ffffffff1681526020016115a98c6111ac565b81526020018a815260200189815260200160008960200151111515815250866040518463ffffffff1660e01b81526004016115e5929190612611565b60806040518083038185885af1158015611603573d6000803e3d6000fd5b50505050506040513d601f19601f8201168201806040525081019061162891906126d8565b979650505050505050565b63ffffffff81166000908152600960205260408120805491611654836125c6565b919050555050565b600080546001600160a01b038381166001600160a01b0319831681178455604051919092169283917f8be0079c531659141344cd1fd0a4f28419497f9722a3daafe3b4186f6b6457e09190a35050565b60006116bb600182848661273f565b6116c491612769565b60f81c9392505050565b60006116de60056001848661273f565b6116e791612799565b60e01c9392505050565b6060836003611701826000611a7a565b61ffff161461173557611715816000611a7a565b604051633a51740d60e01b815261ffff909116600482015260240161068a565b60006117418585611ad7565b905061174f86600183611b47565b9695505050505050565b60408051808201909152600080825260208201527f00000000000000000000000000000000000000000000000000000000000000006001600160a01b031663ddc28c586040518060a001604052808863ffffffff1681526020016117bc896111ac565b8152602001878152602001868152602001851515815250306040518363ffffffff1660e01b81526004016117f1929190612611565b6040805180830381865afa15801561180d573d6000803e3d6000fd5b505050506040513d601f19601f8201168201806040525081019061183191906127c7565b95945050505050565b63ffffffff831660009081526006602090815260408083208584529091529020546007546001600160401b039091169060ff16156118d35761187d816001612385565b6001600160401b0316826001600160401b0316146118d35760405162461bcd60e51b81526020600482015260136024820152724f4170703a20696e76616c6964206e6f6e636560681b604482015260640161068a565b806001600160401b0316826001600160401b03161115610b3f5763ffffffff84166000908152600660209081526040808320868452909152902080546001600160401b03841667ffffffffffffffff1990911617905550505050565b600061193e826005818661273f565b611947916127e3565b9392505050565b63ffffffff81166000908152600860205260408120805491611654836125c6565b600081341015611994576040516304fb820960e51b815234600482015260240161068a565b5090565b60007f00000000000000000000000000000000000000000000000000000000000000006001600160a01b031663e4fe1d946040518163ffffffff1660e01b8152600401602060405180830381865afa1580156119f8573d6000803e3d6000fd5b505050506040513d601f19601f82011682018060405250810190611a1c9190612801565b90506001600160a01b038116611a45576040516329b99a9560e11b815260040160405180910390fd5b6107156001600160a01b038216337f000000000000000000000000000000000000000000000000000000000000000085611bb2565b6000611a87826002612596565b83511015611ace5760405162461bcd60e51b8152602060048201526014602482015273746f55696e7431365f6f75744f66426f756e647360601b604482015260640161068a565b50016002015190565b60606fffffffffffffffffffffffffffffffff821615611b2857604080516001600160801b0319608086811b8216602084015285901b16603082015201604051602081830303815290604052611947565b6040516001600160801b0319608085901b166020820152603001611511565b6060836003611b57826000611a7a565b61ffff1614611b6b57611715816000611a7a565b846001611b788551611c0c565b611b8390600161281e565b8686604051602001611b99959493929190612839565b6040516020818303038152906040529150509392505050565b604080516001600160a01b0385811660248301528416604482015260648082018490528251808303909101815260849091019091526020810180516001600160e01b03166323b872dd60e01b179052610b3f908590611c3b565b600061ffff821115611994576040516306dfcc6560e41b8152601060048201526024810183905260440161068a565b6000611c506001600160a01b03841683611c9e565b90508051600014158015611c75575080806020019051810190611c7391906128a0565b155b15610a5757604051635274afe760e01b81526001600160a01b038416600482015260240161068a565b60606119478383600084600080856001600160a01b03168486604051611cc491906128bd565b60006040518083038185875af1925050503d8060008114611d01576040519150601f19603f3d011682016040523d82523d6000602084013e611d06565b606091505b509150915061174f868383606082611d2657611d2182611d6d565b611947565b8151158015611d3d57506001600160a01b0384163b155b15611d6657604051639996b31560e01b81526001600160a01b038516600482015260240161068a565b5080611947565b805115611d7d5780518082602001fd5b604051630a12f52160e11b815260040160405180910390fd5b60405180606001604052806000801916815260200160006001600160401b03168152602001611dd8604051806040016040528060008152602001600081525090565b905290565b600060608284031215611def57600080fd5b50919050565b60008083601f840112611e0757600080fd5b5081356001600160401b03811115611e1e57600080fd5b602083019150836020828501011115611e3657600080fd5b9250929050565b6001600160a01b03811681146110a657600080fd5b600080600080600080600060e0888a031215611e6d57600080fd5b611e778989611ddd565b96506060880135955060808801356001600160401b0380821115611e9a57600080fd5b611ea68b838c01611df5565b909750955060a08a01359150611ebb82611e3d565b90935060c08901359080821115611ed157600080fd5b50611ede8a828b01611df5565b989b979a50959850939692959293505050565b803563ffffffff81168114611f0557600080fd5b919050565b60008060408385031215611f1d57600080fd5b611f2683611ef1565b946020939093013593505050565b60008083601f840112611f4657600080fd5b5081356001600160401b03811115611f5d57600080fd5b6020830191508360208260051b8501011115611e3657600080fd5b60008060008060008060608789031215611f9157600080fd5b86356001600160401b0380821115611fa857600080fd5b611fb48a838b01611f34565b90985096506020890135915080821115611fcd57600080fd5b611fd98a838b01611f34565b90965094506040890135915080821115611ff257600080fd5b50611fff89828a01611f34565b979a9699509497509295939492505050565b60006020828403121561202357600080fd5b61194782611ef1565b80151581146110a657600080fd5b60006020828403121561204c57600080fd5b81356119478161202c565b60006020828403121561206957600080fd5b813561194781611e3d565b6001600160401b03811681146110a657600080fd5b60008060006060848603121561209e57600080fd5b6120a784611ef1565b92506020840135915060408401356120be81612074565b809150509250925092565b60008060008060a085870312156120df57600080fd5b6120e98686611ddd565b935060608501356001600160401b0381111561210457600080fd5b61211087828801611df5565b909450925050608085013561212481611e3d565b939692955090935050565b803560ff81168114611f0557600080fd5b6000806000806060858703121561215657600080fd5b61215f85611ef1565b935061216d6020860161212f565b925060408501356001600160401b0381111561218857600080fd5b61219487828801611df5565b95989497509550505050565b600080602083850312156121b357600080fd5b82356001600160401b038111156121c957600080fd5b6121d585828601611f34565b90969095509350505050565b600080600080600080600060a0888a0312156121fc57600080fd5b873561220781611e3d565b96506020880135955060408801356001600160401b038082111561222a57600080fd5b6122368b838c01611df5565b909750955060608a0135915061224b82611e3d565b90935060808901359080821115611ed157600080fd5b6000806040838503121561227457600080fd5b8235611f2681611e3d565b60006060828403121561229157600080fd5b6119478383611ddd565b634e487b7160e01b600052601160045260246000fd5b818103818111156108df576108df61229b565b634e487b7160e01b600052603260045260246000fd5b6000602082840312156122ec57600080fd5b6119478261212f565b6000808335601e1984360301811261230c57600080fd5b8301803591506001600160401b0382111561232657600080fd5b602001915036819003821315611e3657600080fd5b6020808252600a908201526937b7363c9030b236b4b760b11b604082015260600190565b60006001600160401b0380831681810361237b5761237b61229b565b6001019392505050565b6001600160401b038181168382160190808211156123a5576123a561229b565b5092915050565b6000823561013e198336030181126123c357600080fd5b9190910192915050565b81835281816020850137506000828201602090810191909152601f909101601f19169091010190565b63ffffffff61240489611ef1565b168152602088013560208201526000604089013561242181612074565b6001600160401b03811660408401525087606083015260e0608083015261244c60e0830187896123cd565b6001600160a01b03861660a084015282810360c084015261246e8185876123cd565b9a9950505050505050505050565b634e487b7160e01b600052604160045260246000fd5b60005b838110156124ad578181015183820152602001612495565b50506000910152565b6000602082840312156124c857600080fd5b81516001600160401b03808211156124df57600080fd5b818401915084601f8301126124f357600080fd5b8151818111156125055761250561247c565b604051601f8201601f19908116603f0116810190838211818310171561252d5761252d61247c565b8160405282815287602084870101111561254657600080fd5b611628836020830160208801612492565b6000815180845261256f816020860160208601612492565b601f01601f19169290920160200192915050565b6020815260006119476020830184612557565b808201808211156108df576108df61229b565b6000602082840312156125bb57600080fd5b813561194781612074565b6000600182016125d8576125d861229b565b5060010190565b60018060a01b038616815284602082015261ffff841660408201526080606082015260006116286080830184866123cd565b6040815263ffffffff8351166040820152602083015160608201526000604084015160a0608084015261264760e0840182612557565b90506060850151603f198483030160a08501526126648282612557565b60809690960151151560c08501525050506001600160a01b039190911660209091015290565b60006040828403121561269c57600080fd5b604051604081018181106001600160401b03821117156126be576126be61247c565b604052825181526020928301519281019290925250919050565b6000608082840312156126ea57600080fd5b604051606081018181106001600160401b038211171561270c5761270c61247c565b60405282518152602083015161272181612074565b6020820152612733846040850161268a565b60408201529392505050565b6000808585111561274f57600080fd5b8386111561275c57600080fd5b5050820193919092039150565b6001600160f81b031981358181169160018510156127915780818660010360031b1b83161692505b505092915050565b6001600160e01b031981358181169160048510156127915760049490940360031b84901b1690921692915050565b6000604082840312156127d957600080fd5b611947838361268a565b803560208310156108df57600019602084900360031b1b1692915050565b60006020828403121561281357600080fd5b815161194781611e3d565b61ffff8181168382160190808211156123a5576123a561229b565b6000865161284b818460208b01612492565b6001600160f81b031960f888811b82169285019283526001600160f01b031960f089901b16600184015286901b1660038201528351612891816004840160208801612492565b01600401979650505050505050565b6000602082840312156128b257600080fd5b81516119478161202c565b600082516123c381846020870161249256fea26469706673582212203bbf9818bf027fe078c42672bada7472ba4d3fa9d8989c768c06ddd3416fcbf964736f6c63430008160033",
    "linkReferences": {}
  },
  "methodIdentifiers": {
    "admin()": "f851a440",
    "allowInitializePath((uint32,bytes32,uint64))": "ff7bd03d",
    "batchIncrement(uint32[],uint8[],bytes[])": "542e7b56",
    "brokenIncrement(uint32,uint8,bytes)": "c95c55be",
    "composedCount()": "257f4e05",
    "count()": "06661abd",
    "eid()": "416ecebf",
    "endpoint()": "5e280f11",
    "inboundCount(uint32)": "56a47289",
    "increment(uint32,uint8,bytes)": "b7abbb5d",
    "isComposeMsgSender((uint32,bytes32,uint64),bytes,address)": "82413eac",
    "isPeer(uint32,bytes32)": "5a0dfe4d",
    "lzCompose(address,bytes32,bytes,address,bytes)": "d0a10260",
    "lzReceive((uint32,bytes32,uint64),bytes32,bytes,address,bytes)": "13137d65",
    "lzReceiveAndRevert(((uint32,bytes32,uint64),uint32,address,bytes32,uint256,address,bytes,bytes)[])": "bd815db0",
    "lzReceiveSimulate((uint32,bytes32,uint64),bytes32,bytes,address,bytes)": "d045a0dc",
    "nextNonce(uint32,bytes32)": "7d25a05e",
    "oApp()": "52ae2879",
    "oAppVersion()": "17442b70",
    "outboundCount(uint32)": "622f17f6",
    "owner()": "8da5cb5b",
    "peers(uint32)": "bb0b6a53",
    "preCrime()": "b731ea0a",
    "quote(uint32,uint8,bytes)": "d22446ce",
    "renounceOwnership()": "715018a6",
    "setAdmin(address)": "704b6c02",
    "setDelegate(address)": "ca5eb5e1",
    "setOrderedNonce(bool)": "5b849af6",
    "setPeer(uint32,bytes32)": "3400288b",
    "setPreCrime(address)": "d4243885",
    "skipInboundNonce(uint32,bytes32,uint64)": "7112f86f",
    "transferOwnership(address)": "f2fde38b",
    "withdraw(address,uint256)": "f3fef3a3"
  },
  "id": 0
}