{
  "abi": [
    {
      "type": "function",
      "name": "BASE_ASSET_BRIDGE_ADDRESS",
      "inputs": [],
      "outputs": [
        {
          "name": "",
          "type": "address",
          "internalType": "address"
        }
      ],
      "stateMutability": "view"
    },
    {
      "type": "function",
      "name": "BASE_ASSET_BRIDGE_ADDRESS_UINT256",
      "inputs": [],
      "outputs": [
        {
          "name": "",
          "type": "uint256",
          "internalType": "uint256"
        }
      ],
      "stateMutability": "view"
    },
    {
      "type": "function",
      "name": "VALID_COMPOSE_MESSAGE_LENGTH_ENCODE",
      "inputs": [],
      "outputs": [
        {
          "name": "",
          "type": "uint256",
          "internalType": "uint256"
        }
      ],
      "stateMutability": "view"
    },
    {
      "type": "function",
      "name": "VALID_COMPOSE_MESSAGE_LENGTH_PACKED",
      "inputs": [],
      "outputs": [
        {
          "name": "",
          "type": "uint256",
          "internalType": "uint256"
        }
      ],
      "stateMutability": "view"
    },
    {
      "type": "function",
      "name": "extractErrorPayload",
      "inputs": [
        {
          "name": "_err",
          "type": "bytes",
          "internalType": "bytes"
        }
      ],
      "outputs": [
        {
          "name": "",
          "type": "bytes",
          "internalType": "bytes"
        }
      ],
      "stateMutability": "pure"
    },
    {
      "type": "event",
      "name": "OverflowDetected",
      "inputs": [
        {
          "name": "amountCore",
          "type": "uint64",
          "indexed": false,
          "internalType": "uint64"
        },
        {
          "name": "maxTransferableAmount",
          "type": "uint64",
          "indexed": false,
          "internalType": "uint64"
        }
      ],
      "anonymous": false
    }
  ],
  "bytecode": {
    "object": "0x61041a61004e600b8282823980515f1a607314610042577f4e487b71000000000000000000000000000000000000000000000000000000005f525f60045260245ffd5b305f52607381538281f3fe7300000000000000000000000000000000000000003014608060405260043610610060575f3560e01c806303e41b7714610064578063807d6c3f146100825780639278d99a146100a0578063a4059527146100be578063d58daedf146100ee575b5f80fd5b61006c61010c565b60405161007991906101d3565b60405180910390f35b61008a61013a565b60405161009791906101d3565b60405180910390f35b6100a861013f565b6040516100b591906101d3565b60405180910390f35b6100d860048036038101906100d39190610255565b610144565b6040516100e5919061032a565b60405180910390f35b6100f66101a3565b6040516101039190610389565b60405180910390f35b73200000000000000000000000000000000000000073ffffffffffffffffffffffffffffffffffffffff1681565b601481565b602081565b606082826044908092610159939291906103aa565b8080601f0160208091040260200160405190810160405280939291908181526020018383808284375f81840152601f19601f82011690508083019250505050505050905092915050565b73200000000000000000000000000000000000000081565b5f819050919050565b6101cd816101bb565b82525050565b5f6020820190506101e65f8301846101c4565b92915050565b5f80fd5b5f80fd5b5f80fd5b5f80fd5b5f80fd5b5f8083601f840112610215576102146101f4565b5b8235905067ffffffffffffffff811115610232576102316101f8565b5b60208301915083600182028301111561024e5761024d6101fc565b5b9250929050565b5f806020838503121561026b5761026a6101ec565b5b5f83013567ffffffffffffffff811115610288576102876101f0565b5b61029485828601610200565b92509250509250929050565b5f81519050919050565b5f82825260208201905092915050565b5f5b838110156102d75780820151818401526020810190506102bc565b5f8484015250505050565b5f601f19601f8301169050919050565b5f6102fc826102a0565b61030681856102aa565b93506103168185602086016102ba565b61031f816102e2565b840191505092915050565b5f6020820190508181035f83015261034281846102f2565b905092915050565b5f73ffffffffffffffffffffffffffffffffffffffff82169050919050565b5f6103738261034a565b9050919050565b61038381610369565b82525050565b5f60208201905061039c5f83018461037a565b92915050565b5f80fd5b5f80fd5b5f80858511156103bd576103bc6103a2565b5b838611156103ce576103cd6103a6565b5b600185028301915084860390509450949250505056fea2646970667358221220c77d240c8804ab4610c83192eaa0fa5c2115b6987e866b0cd247c8078be2101864736f6c63430008160033",
    "linkReferences": {}
  },
  "methodIdentifiers": {
    "BASE_ASSET_BRIDGE_ADDRESS()": "d58daedf",
    "BASE_ASSET_BRIDGE_ADDRESS_UINT256()": "03e41b77",
    "VALID_COMPOSE_MESSAGE_LENGTH_ENCODE()": "9278d99a",
    "VALID_COMPOSE_MESSAGE_LENGTH_PACKED()": "807d6c3f",
    "extractErrorPayload(bytes)": "a4059527"
  },
  "id": 7
}