{
  "abi": [
    {
      "type": "function",
      "name": "BASE_ASSET_BRIDGE_ADDRESS",
      "inputs": [],
      "outputs": [
        {
          "name": "",
          "type": "address",
          "internalType": "address"
        }
      ],
      "stateMutability": "view"
    },
    {
      "type": "function",
      "name": "BASE_ASSET_BRIDGE_ADDRESS_UINT256",
      "inputs": [],
      "outputs": [
        {
          "name": "",
          "type": "uint256",
          "internalType": "uint256"
        }
      ],
      "stateMutability": "view"
    },
    {
      "type": "function",
      "name": "VALID_COMPOSE_MESSAGE_LENGTH_ENCODE",
      "inputs": [],
      "outputs": [
        {
          "name": "",
          "type": "uint256",
          "internalType": "uint256"
        }
      ],
      "stateMutability": "view"
    },
    {
      "type": "function",
      "name": "VALID_COMPOSE_MESSAGE_LENGTH_PACKED",
      "inputs": [],
      "outputs": [
        {
          "name": "",
          "type": "uint256",
          "internalType": "uint256"
        }
      ],
      "stateMutability": "view"
    },
    {
      "type": "function",
      "name": "validateAndDecodeMessage",
      "inputs": [
        {
          "name": "_composeMessage",
          "type": "bytes",
          "internalType": "bytes"
        }
      ],
      "outputs": [
        {
          "name": "_receiver",
          "type": "address",
          "internalType": "address"
        },
        {
          "name": "_amountLD",
          "type": "uint256",
          "internalType": "uint256"
        }
      ],
      "stateMutability": "pure"
    },
    {
      "type": "event",
      "name": "OverflowDetected",
      "inputs": [
        {
          "name": "amountCore",
          "type": "uint64",
          "indexed": false,
          "internalType": "uint64"
        },
        {
          "name": "maxTransferableAmount",
          "type": "uint64",
          "indexed": false,
          "internalType": "uint64"
        }
      ],
      "anonymous": false
    },
    {
      "type": "error",
      "name": "ErrorMsg",
      "inputs": [
        {
          "name": "errorMessage",
          "type": "bytes",
          "internalType": "bytes"
        }
      ]
    }
  ],
  "bytecode": {
    "object": "0x610619610035600b8282823980515f1a60731461002957634e487b7160e01b5f525f60045260245ffd5b305f52607381538281f3fe730000000000000000000000000000000000000000301460806040526004361061006f575f3560e01c8063807d6c3f11610058578063807d6c3f146100e05780639278d99a146100e8578063d58daedf146100f0575f80fd5b806303e41b7714610073578063233449e7146100a1575b5f80fd5b61008e73200000000000000000000000000000000000000081565b6040519081526020015b60405180910390f35b6100b46100af3660046103b2565b610130565b6040805173ffffffffffffffffffffffffffffffffffffffff9093168352602083019190915201610098565b61008e601481565b61008e602081565b61010b73200000000000000000000000000000000000000081565b60405173ffffffffffffffffffffffffffffffffffffffff9091168152602001610098565b5f805f61013d85856102dd565b90506101498585610329565b9150601481511415801561015f57506020815114155b156102a25780516040515f917f09b34731000000000000000000000000000000000000000000000000000000009161019b91859160240161047f565b604080517fffffffffffffffffffffffffffffffffffffffffffffffffffffffffffffffe08184030181529190526020810180517bffffffffffffffffffffffffffffffffffffffffffffffffffffffff167fffffffff000000000000000000000000000000000000000000000000000000009093169290921790915290505f6102258787610348565b60405160200161023791815260200190565b60405160208183030381529060405280602001905181019061025991906104a0565b9050610266818584610357565b6040517f4f95203300000000000000000000000000000000000000000000000000000000815260040161029991906104d3565b60405180910390fd5b60148151036102be576102b4816104e5565b60601c92506102d5565b808060200190518101906102d291906104a0565b92505b509250929050565b60606102ec82604c8186610534565b8080601f0160208091040260200160405190810160405280939291908181526020018383808284375f920191909152509293505050505b92915050565b5f610338602c600c8486610534565b6103419161055b565b9392505050565b5f610338604c602c8486610534565b606060405180606001604052808573ffffffffffffffffffffffffffffffffffffffff1681526020018481526020018381525060405160200161039a9190610597565b60405160208183030381529060405290509392505050565b5f80602083850312156103c3575f80fd5b823567ffffffffffffffff808211156103da575f80fd5b818501915085601f8301126103ed575f80fd5b8135818111156103fb575f80fd5b86602082850101111561040c575f80fd5b60209290920196919550909350505050565b5f81518084525f5b8181101561044257602081850181015186830182015201610426565b505f6020828601015260207fffffffffffffffffffffffffffffffffffffffffffffffffffffffffffffffe0601f83011685010191505092915050565b604081525f610491604083018561041e565b90508260208301529392505050565b5f602082840312156104b0575f80fd5b815173ffffffffffffffffffffffffffffffffffffffff81168114610341575f80fd5b602081525f610341602083018461041e565b5f815160208301517fffffffffffffffffffffffffffffffffffffffff0000000000000000000000008082169350601483101561052c5780818460140360031b1b83161693505b505050919050565b5f8085851115610542575f80fd5b8386111561054e575f80fd5b5050820193919092039150565b80356020831015610323577fffffffffffffffffffffffffffffffffffffffffffffffffffffffffffffffff602084900360031b1b1692915050565b6020815273ffffffffffffffffffffffffffffffffffffffff8251166020820152602082015160408201525f60408301516060808401526105db608084018261041e565b94935050505056fea264697066735822122089e2d05d128a82757bda6c7e38ae7d72e24741334429fdb03c55b0d78ef6803d64736f6c63430008160033",
    "linkReferences": {}
  },
  "methodIdentifiers": {
    "BASE_ASSET_BRIDGE_ADDRESS()": "d58daedf",
    "BASE_ASSET_BRIDGE_ADDRESS_UINT256()": "03e41b77",
    "VALID_COMPOSE_MESSAGE_LENGTH_ENCODE()": "9278d99a",
    "VALID_COMPOSE_MESSAGE_LENGTH_PACKED()": "807d6c3f",
    "validateAndDecodeMessage(bytes)": "233449e7"
  },
  "id": 8
}