{
  "abi": [
    {
      "type": "constructor",
      "inputs": [
        {
          "name": "_endpoint",
          "type": "address",
          "internalType": "address"
        }
      ],
      "stateMutability": "nonpayable"
    },
    {
      "type": "fallback",
      "stateMutability": "payable"
    },
    {
      "type": "receive",
      "stateMutability": "payable"
    },
    {
      "type": "function",
      "name": "admin",
      "inputs": [],
      "outputs": [
        {
          "name": "",
          "type": "address",
          "internalType": "address"
        }
      ],
      "stateMutability": "view"
    },
    {
      "type": "function",
      "name": "allowInitializePath",
      "inputs": [
        {
          "name": "origin",
          "type": "tuple",
          "internalType": "struct Origin",
          "components": [
            {
              "name": "srcEid",
              "type": "uint32",
              "internalType": "uint32"
            },
            {
              "name": "sender",
              "type": "bytes32",
              "internalType": "bytes32"
            },
            {
              "name": "nonce",
              "type": "uint64",
              "internalType": "uint64"
            }
          ]
        }
      ],
      "outputs": [
        {
          "name": "",
          "type": "bool",
          "internalType": "bool"
        }
      ],
      "stateMutability": "view"
    },
    {
      "type": "function",
      "name": "batchIncrement",
      "inputs": [
        {
          "name": "_eids",
          "type": "uint32[]",
          "internalType": "uint32[]"
        },
        {
          "name": "_types",
          "type": "uint8[]",
          "internalType": "uint8[]"
        },
        {
          "name": "_options",
          "type": "bytes[]",
          "internalType": "bytes[]"
        }
      ],
      "outputs": [],
      "stateMutability": "payable"
    },
    {
      "type": "function",
      "name": "brokenIncrement",
      "inputs": [
        {
          "name": "_eid",
          "type": "uint32",
          "internalType": "uint32"
        },
        {
          "name": "_type",
          "type": "uint8",
          "internalType": "uint8"
        },
        {
          "name": "_options",
          "type": "bytes",
          "internalType": "bytes"
        }
      ],
      "outputs": [],
      "stateMutability": "payable"
    },
    {
      "type": "function",
      "name": "composedCount",
      "inputs": [],
      "outputs": [
        {
          "name": "",
          "type": "uint256",
          "internalType": "uint256"
        }
      ],
      "stateMutability": "view"
    },
    {
      "type": "function",
      "name": "count",
      "inputs": [],
      "outputs": [
        {
          "name": "",
          "type": "uint256",
          "internalType": "uint256"
        }
      ],
      "stateMutability": "view"
    },
    {
      "type": "function",
      "name": "eid",
      "inputs": [],
      "outputs": [
        {
          "name": "",
          "type": "uint32",
          "internalType": "uint32"
        }
      ],
      "stateMutability": "view"
    },
    {
      "type": "function",
      "name": "endpoint",
      "inputs": [],
      "outputs": [
        {
          "name": "",
          "type": "address",
          "internalType": "contract ILayerZeroEndpointV2"
        }
      ],
      "stateMutability": "view"
    },
    {
      "type": "function",
      "name": "inboundCount",
      "inputs": [
        {
          "name": "srcEid",
          "type": "uint32",
          "internalType": "uint32"
        }
      ],
      "outputs": [
        {
          "name": "count",
          "type": "uint256",
          "internalType": "uint256"
        }
      ],
      "stateMutability": "view"
    },
    {
      "type": "function",
      "name": "increment",
      "inputs": [
        {
          "name": "_eid",
          "type": "uint32",
          "internalType": "uint32"
        },
        {
          "name": "_type",
          "type": "uint8",
          "internalType": "uint8"
        },
        {
          "name": "_options",
          "type": "bytes",
          "internalType": "bytes"
        }
      ],
      "outputs": [],
      "stateMutability": "payable"
    },
    {
      "type": "function",
      "name": "initialize",
      "inputs": [
        {
          "name": "_delegate",
          "type": "address",
          "internalType": "address"
        }
      ],
      "outputs": [],
      "stateMutability": "nonpayable"
    },
    {
      "type": "function",
      "name": "isComposeMsgSender",
      "inputs": [
        {
          "name": "",
          "type": "tuple",
          "internalType": "struct Origin",
          "components": [
            {
              "name": "srcEid",
              "type": "uint32",
              "internalType": "uint32"
            },
            {
              "name": "sender",
              "type": "bytes32",
              "internalType": "bytes32"
            },
            {
              "name": "nonce",
              "type": "uint64",
              "internalType": "uint64"
            }
          ]
        },
        {
          "name": "",
          "type": "bytes",
          "internalType": "bytes"
        },
        {
          "name": "_sender",
          "type": "address",
          "internalType": "address"
        }
      ],
      "outputs": [
        {
          "name": "",
          "type": "bool",
          "internalType": "bool"
        }
      ],
      "stateMutability": "view"
    },
    {
      "type": "function",
      "name": "isPeer",
      "inputs": [
        {
          "name": "_eid",
          "type": "uint32",
          "internalType": "uint32"
        },
        {
          "name": "_peer",
          "type": "bytes32",
          "internalType": "bytes32"
        }
      ],
      "outputs": [
        {
          "name": "",
          "type": "bool",
          "internalType": "bool"
        }
      ],
      "stateMutability": "view"
    },
    {
      "type": "function",
      "name": "lzCompose",
      "inputs": [
        {
          "name": "_oApp",
          "type": "address",
          "internalType": "address"
        },
        {
          "name": "",
          "type": "bytes32",
          "internalType": "bytes32"
        },
        {
          "name": "_message",
          "type": "bytes",
          "internalType": "bytes"
        },
        {
          "name": "",
          "type": "address",
          "internalType": "address"
        },
        {
          "name": "",
          "type": "bytes",
          "internalType": "bytes"
        }
      ],
      "outputs": [],
      "stateMutability": "payable"
    },
    {
      "type": "function",
      "name": "lzReceive",
      "inputs": [
        {
          "name": "_origin",
          "type": "tuple",
          "internalType": "struct Origin",
          "components": [
            {
              "name": "srcEid",
              "type": "uint32",
              "internalType": "uint32"
            },
            {
              "name": "sender",
              "type": "bytes32",
              "internalType": "bytes32"
            },
            {
              "name": "nonce",
              "type": "uint64",
              "internalType": "uint64"
            }
          ]
        },
        {
          "name": "_guid",
          "type": "bytes32",
          "internalType": "bytes32"
        },
        {
          "name": "_message",
          "type": "bytes",
          "internalType": "bytes"
        },
        {
          "name": "_executor",
          "type": "address",
          "internalType": "address"
        },
        {
          "name": "_extraData",
          "type": "bytes",
          "internalType": "bytes"
        }
      ],
      "outputs": [],
      "stateMutability": "payable"
    },
    {
      "type": "function",
      "name": "lzReceiveAndRevert",
      "inputs": [
        {
          "name": "_packets",
          "type": "tuple[]",
          "internalType": "struct InboundPacket[]",
          "components": [
            {
              "name": "origin",
              "type": "tuple",
              "internalType": "struct Origin",
              "components": [
                {
                  "name": "srcEid",
                  "type": "uint32",
                  "internalType": "uint32"
                },
                {
                  "name": "sender",
                  "type": "bytes32",
                  "internalType": "bytes32"
                },
                {
                  "name": "nonce",
                  "type": "uint64",
                  "internalType": "uint64"
                }
              ]
            },
            {
              "name": "dstEid",
              "type": "uint32",
              "internalType": "uint32"
            },
            {
              "name": "receiver",
              "type": "address",
              "internalType": "address"
            },
            {
              "name": "guid",
              "type": "bytes32",
              "internalType": "bytes32"
            },
            {
              "name": "value",
              "type": "uint256",
              "internalType": "uint256"
            },
            {
              "name": "executor",
              "type": "address",
              "internalType": "address"
            },
            {
              "name": "message",
              "type": "bytes",
              "internalType": "bytes"
            },
            {
              "name": "extraData",
              "type": "bytes",
              "internalType": "bytes"
            }
          ]
        }
      ],
      "outputs": [],
      "stateMutability": "payable"
    },
    {
      "type": "function",
      "name": "lzReceiveSimulate",
      "inputs": [
        {
          "name": "_origin",
          "type": "tuple",
          "internalType": "struct Origin",
          "components": [
            {
              "name": "srcEid",
              "type": "uint32",
              "internalType": "uint32"
            },
            {
              "name": "sender",
              "type": "bytes32",
              "internalType": "bytes32"
            },
            {
              "name": "nonce",
              "type": "uint64",
              "internalType": "uint64"
            }
          ]
        },
        {
          "name": "_guid",
          "type": "bytes32",
          "internalType": "bytes32"
        },
        {
          "name": "_message",
          "type": "bytes",
          "internalType": "bytes"
        },
        {
          "name": "_executor",
          "type": "address",
          "internalType": "address"
        },
        {
          "name": "_extraData",
          "type": "bytes",
          "internalType": "bytes"
        }
      ],
      "outputs": [],
      "stateMutability": "payable"
    },
    {
      "type": "function",
      "name": "nextNonce",
      "inputs": [
        {
          "name": "_srcEid",
          "type": "uint32",
          "internalType": "uint32"
        },
        {
          "name": "_sender",
          "type": "bytes32",
          "internalType": "bytes32"
        }
      ],
      "outputs": [
        {
          "name": "",
          "type": "uint64",
          "internalType": "uint64"
        }
      ],
      "stateMutability": "view"
    },
    {
      "type": "function",
      "name": "oApp",
      "inputs": [],
      "outputs": [
        {
          "name": "",
          "type": "address",
          "internalType": "address"
        }
      ],
      "stateMutability": "view"
    },
    {
      "type": "function",
      "name": "oAppVersion",
      "inputs": [],
      "outputs": [
        {
          "name": "senderVersion",
          "type": "uint64",
          "internalType": "uint64"
        },
        {
          "name": "receiverVersion",
          "type": "uint64",
          "internalType": "uint64"
        }
      ],
      "stateMutability": "pure"
    },
    {
      "type": "function",
      "name": "outboundCount",
      "inputs": [
        {
          "name": "dstEid",
          "type": "uint32",
          "internalType": "uint32"
        }
      ],
      "outputs": [
        {
          "name": "count",
          "type": "uint256",
          "internalType": "uint256"
        }
      ],
      "stateMutability": "view"
    },
    {
      "type": "function",
      "name": "owner",
      "inputs": [],
      "outputs": [
        {
          "name": "",
          "type": "address",
          "internalType": "address"
        }
      ],
      "stateMutability": "view"
    },
    {
      "type": "function",
      "name": "peers",
      "inputs": [
        {
          "name": "_eid",
          "type": "uint32",
          "internalType": "uint32"
        }
      ],
      "outputs": [
        {
          "name": "",
          "type": "bytes32",
          "internalType": "bytes32"
        }
      ],
      "stateMutability": "view"
    },
    {
      "type": "function",
      "name": "preCrime",
      "inputs": [],
      "outputs": [
        {
          "name": "",
          "type": "address",
          "internalType": "address"
        }
      ],
      "stateMutability": "view"
    },
    {
      "type": "function",
      "name": "quote",
      "inputs": [
        {
          "name": "_eid",
          "type": "uint32",
          "internalType": "uint32"
        },
        {
          "name": "_type",
          "type": "uint8",
          "internalType": "uint8"
        },
        {
          "name": "_options",
          "type": "bytes",
          "internalType": "bytes"
        }
      ],
      "outputs": [
        {
          "name": "nativeFee",
          "type": "uint256",
          "internalType": "uint256"
        },
        {
          "name": "lzTokenFee",
          "type": "uint256",
          "internalType": "uint256"
        }
      ],
      "stateMutability": "view"
    },
    {
      "type": "function",
      "name": "renounceOwnership",
      "inputs": [],
      "outputs": [],
      "stateMutability": "nonpayable"
    },
    {
      "type": "function",
      "name": "setAdmin",
      "inputs": [
        {
          "name": "_admin",
          "type": "address",
          "internalType": "address"
        }
      ],
      "outputs": [],
      "stateMutability": "nonpayable"
    },
    {
      "type": "function",
      "name": "setDelegate",
      "inputs": [
        {
          "name": "_delegate",
          "type": "address",
          "internalType": "address"
        }
      ],
      "outputs": [],
      "stateMutability": "nonpayable"
    },
    {
      "type": "function",
      "name": "setOrderedNonce",
      "inputs": [
        {
          "name": "_orderedNonce",
          "type": "bool",
          "internalType": "bool"
        }
      ],
      "outputs": [],
      "stateMutability": "nonpayable"
    },
    {
      "type": "function",
      "name": "setPeer",
      "inputs": [
        {
          "name": "_eid",
          "type": "uint32",
          "internalType": "uint32"
        },
        {
          "name": "_peer",
          "type": "bytes32",
          "internalType": "bytes32"
        }
      ],
      "outputs": [],
      "stateMutability": "nonpayable"
    },
    {
      "type": "function",
      "name": "setPreCrime",
      "inputs": [
        {
          "name": "_preCrime",
          "type": "address",
          "internalType": "address"
        }
      ],
      "outputs": [],
      "stateMutability": "nonpayable"
    },
    {
      "type": "function",
      "name": "skipInboundNonce",
      "inputs": [
        {
          "name": "_srcEid",
          "type": "uint32",
          "internalType": "uint32"
        },
        {
          "name": "_sender",
          "type": "bytes32",
          "internalType": "bytes32"
        },
        {
          "name": "_nonce",
          "type": "uint64",
          "internalType": "uint64"
        }
      ],
      "outputs": [],
      "stateMutability": "nonpayable"
    },
    {
      "type": "function",
      "name": "transferOwnership",
      "inputs": [
        {
          "name": "newOwner",
          "type": "address",
          "internalType": "address"
        }
      ],
      "outputs": [],
      "stateMutability": "nonpayable"
    },
    {
      "type": "function",
      "name": "withdraw",
      "inputs": [
        {
          "name": "_to",
          "type": "address",
          "internalType": "address payable"
        },
        {
          "name": "_amount",
          "type": "uint256",
          "internalType": "uint256"
        }
      ],
      "outputs": [],
      "stateMutability": "nonpayable"
    },
    {
      "type": "event",
      "name": "Initialized",
      "inputs": [
        {
          "name": "version",
          "type": "uint64",
          "indexed": false,
          "internalType": "uint64"
        }
      ],
      "anonymous": false
    },
    {
      "type": "event",
      "name": "OwnershipTransferred",
      "inputs": [
        {
          "name": "previousOwner",
          "type": "address",
          "indexed": true,
          "internalType": "address"
        },
        {
          "name": "newOwner",
          "type": "address",
          "indexed": true,
          "internalType": "address"
        }
      ],
      "anonymous": false
    },
    {
      "type": "event",
      "name": "PeerSet",
      "inputs": [
        {
          "name": "eid",
          "type": "uint32",
          "indexed": false,
          "internalType": "uint32"
        },
        {
          "name": "peer",
          "type": "bytes32",
          "indexed": false,
          "internalType": "bytes32"
        }
      ],
      "anonymous": false
    },
    {
      "type": "event",
      "name": "PreCrimeSet",
      "inputs": [
        {
          "name": "preCrimeAddress",
          "type": "address",
          "indexed": false,
          "internalType": "address"
        }
      ],
      "anonymous": false
    },
    {
      "type": "error",
      "name": "AddressEmptyCode",
      "inputs": [
        {
          "name": "target",
          "type": "address",
          "internalType": "address"
        }
      ]
    },
    {
      "type": "error",
      "name": "AddressInsufficientBalance",
      "inputs": [
        {
          "name": "account",
          "type": "address",
          "internalType": "address"
        }
      ]
    },
    {
      "type": "error",
      "name": "FailedInnerCall",
      "inputs": []
    },
    {
      "type": "error",
      "name": "InvalidDelegate",
      "inputs": []
    },
    {
      "type": "error",
      "name": "InvalidEndpointCall",
      "inputs": []
    },
    {
      "type": "error",
      "name": "InvalidInitialization",
      "inputs": []
    },
    {
      "type": "error",
      "name": "InvalidOptionType",
      "inputs": [
        {
          "name": "optionType",
          "type": "uint16",
          "internalType": "uint16"
        }
      ]
    },
    {
      "type": "error",
      "name": "LzTokenUnavailable",
      "inputs": []
    },
    {
      "type": "error",
      "name": "NoPeer",
      "inputs": [
        {
          "name": "eid",
          "type": "uint32",
          "internalType": "uint32"
        }
      ]
    },
    {
      "type": "error",
      "name": "NotEnoughNative",
      "inputs": [
        {
          "name": "msgValue",
          "type": "uint256",
          "internalType": "uint256"
        }
      ]
    },
    {
      "type": "error",
      "name": "NotInitializing",
      "inputs": []
    },
    {
      "type": "error",
      "name": "OnlyEndpoint",
      "inputs": [
        {
          "name": "addr",
          "type": "address",
          "internalType": "address"
        }
      ]
    },
    {
      "type": "error",
      "name": "OnlyPeer",
      "inputs": [
        {
          "name": "eid",
          "type": "uint32",
          "internalType": "uint32"
        },
        {
          "name": "sender",
          "type": "bytes32",
          "internalType": "bytes32"
        }
      ]
    },
    {
      "type": "error",
      "name": "OnlySelf",
      "inputs": []
    },
    {
      "type": "error",
      "name": "OwnableInvalidOwner",
      "inputs": [
        {
          "name": "owner",
          "type": "address",
          "internalType": "address"
        }
      ]
    },
    {
      "type": "error",
      "name": "OwnableUnauthorizedAccount",
      "inputs": [
        {
          "name": "account",
          "type": "address",
          "internalType": "address"
        }
      ]
    },
    {
      "type": "error",
      "name": "SafeCastOverflowedUintDowncast",
      "inputs": [
        {
          "name": "bits",
          "type": "uint8",
          "internalType": "uint8"
        },
        {
          "name": "value",
          "type": "uint256",
          "internalType": "uint256"
        }
      ]
    },
    {
      "type": "error",
      "name": "SafeERC20FailedOperation",
      "inputs": [
        {
          "name": "token",
          "type": "address",
          "internalType": "address"
        }
      ]
    },
    {
      "type": "error",
      "name": "SimulationResult",
      "inputs": [
        {
          "name": "result",
          "type": "bytes",
          "internalType": "bytes"
        }
      ]
    }
  ],
  "bytecode": {
    "object": "0x60a06040523480156200001157600080fd5b5060405162002d6938038062002d69833981016040819052620000349162000046565b6001600160a01b031660805262000078565b6000602082840312156200005957600080fd5b81516001600160a01b03811681146200007157600080fd5b9392505050565b608051612c8f620000da600039600081816103830152818161066e01528181610a1801528181610e9001528181610fed015281816110bf015281816115e1015281816117e001528181611a3701528181611c5d0152611d160152612c8f6000f3fe6080604052600436106101e55760003560e01c806382413eac11610101578063ca5eb5e11161009a578063d42438851161006c578063d4243885146105cc578063f2fde38b146105ec578063f3fef3a31461060c578063f851a4401461062c578063ff7bd03d1461064c57005b8063ca5eb5e114610551578063d045a0dc14610571578063d0a1026014610584578063d22446ce1461059757005b8063bb0b6a53116100d3578063bb0b6a53146104cb578063bd815db01461050b578063c4d66de81461051e578063c95c55be1461053e57005b806382413eac1461045f5780638da5cb5b1461048e578063b731ea0a146104a3578063b7abbb5d146104b857005b806356a472891161017e578063622f17f611610150578063622f17f6146103a5578063704b6c02146103d25780637112f86f146103f2578063715018a6146104125780637d25a05e1461042757005b806356a47289146102f45780635a0dfe4d146103215780635b849af6146103515780635e280f111461037157005b80633400288b116101b75780633400288b14610261578063416ecebf1461028157806352ae2879146102ba578063542e7b56146102e157005b806306661abd146101ee57806313137d651461021757806317442b701461022a578063257f4e051461024b57005b366101ec57005b005b3480156101fa57600080fd5b5061020460005481565b6040519081526020015b60405180910390f35b6101ec610225366004612197565b61066c565b34801561023657600080fd5b5060408051600180825260208201520161020e565b34801561025757600080fd5b5061020460015481565b34801561026d57600080fd5b506101ec61027c366004612248565b61072c565b34801561028d57600080fd5b506002546102a590600160a01b900463ffffffff1681565b60405163ffffffff909116815260200161020e565b3480156102c657600080fd5b50305b6040516001600160a01b03909116815260200161020e565b6101ec6102ef3660046122b8565b610799565b34801561030057600080fd5b5061020461030f366004612351565b60056020526000908152604090205481565b34801561032d57600080fd5b5061034161033c366004612248565b610946565b604051901515815260200161020e565b34801561035d57600080fd5b506101ec61036c36600461237c565b610972565b34801561037d57600080fd5b506102c97f000000000000000000000000000000000000000000000000000000000000000081565b3480156103b157600080fd5b506102046103c0366004612351565b60066020526000908152604090205481565b3480156103de57600080fd5b506101ec6103ed366004612399565b61098d565b3480156103fe57600080fd5b506101ec61040d3660046123cb565b6109d9565b34801561041e57600080fd5b506101ec610ae9565b34801561043357600080fd5b50610447610442366004612248565b610afd565b6040516001600160401b03909116815260200161020e565b34801561046b57600080fd5b5061034161047a36600461240d565b6001600160a01b0381163014949350505050565b34801561049a57600080fd5b506102c9610b4f565b3480156104af57600080fd5b506102c9610b84565b6101ec6104c6366004612489565b610bad565b3480156104d757600080fd5b506102046104e6366004612351565b63ffffffff166000908152600080516020612c3a833981519152602052604090205490565b6101ec6105193660046124eb565b610c30565b34801561052a57600080fd5b506101ec610539366004612399565b610da3565b6101ec61054c366004612489565b610f75565b34801561055d57600080fd5b506101ec61056c366004612399565b610fc6565b6101ec61057f366004612197565b611045565b6101ec61059236600461252c565b611074565b3480156105a357600080fd5b506105b76105b2366004612489565b611253565b6040805192835260208301919091520161020e565b3480156105d857600080fd5b506101ec6105e7366004612399565b6112ca565b3480156105f857600080fd5b506101ec610607366004612399565b611345565b34801561061857600080fd5b506101ec6106273660046125ac565b611383565b34801561063857600080fd5b506002546102c9906001600160a01b031681565b34801561065857600080fd5b506103416106673660046125ca565b611450565b7f00000000000000000000000000000000000000000000000000000000000000006001600160a01b031633146106bc576040516391ac5e4f60e01b81523360048201526024015b60405180910390fd5b602087018035906106d6906106d1908a612351565b61146e565b14610714576106e86020880188612351565b60405163309afaf360e21b815263ffffffff9091166004820152602088013560248201526044016106b3565b610723878787878787876114c0565b50505050505050565b610734611732565b63ffffffff82166000818152600080516020612c3a833981519152602081815260409283902085905582519384528301849052815190927f238399d427b947898edb290f5ff0f9109849b1c3ba196a42e35f00c50a54b98b92908290030190a1505050565b84811480156107a757508483145b6107f35760405162461bcd60e51b815260206004820152601c60248201527f4f6d6e69436f756e7465723a206c656e677468206d69736d617463680000000060448201526064016106b3565b6107fb6120db565b3460005b8781101561093b57600061081460018a6125fc565b82146108205730610822565b335b905060008a8a848181106108385761083861260f565b905060200201602081019061084d9190612351565b905060008989858181106108635761086361260f565b90506020020160208101906108789190612625565b905061090f8261089a83600260149054906101000a900463ffffffff16611764565b8a8a888181106108ac576108ac61260f565b90506020028101906108be9190612640565b8080601f0160208091040260200160405190810160405280939291908181526020018383808284376000920182905250604080518082019091528d8152602081019190915292508991506117ad9050565b955061091a826118b8565b60408601515161092a90866125fc565b945050600190920191506107ff9050565b505050505050505050565b63ffffffff82166000908152600080516020612c3a833981519152602052604090205481145b92915050565b61097a611732565b6004805460ff1916911515919091179055565b6002546001600160a01b031633146109b75760405162461bcd60e51b81526004016106b390612686565b600280546001600160a01b0319166001600160a01b0392909216919091179055565b6109e1611732565b604051636b85c48160e11b815230600482015263ffffffff84166024820152604481018390526001600160401b03821660648201527f00000000000000000000000000000000000000000000000000000000000000006001600160a01b03169063d70b890290608401600060405180830381600087803b158015610a6457600080fd5b505af1158015610a78573d6000803e3d6000fd5b505060045460ff16159150610ae490505763ffffffff83166000908152600360209081526040808320858452909152812080546001600160401b031691610abe836126aa565b91906101000a8154816001600160401b0302191690836001600160401b03160217905550505b505050565b610af1611732565b610afb60006118e1565b565b60045460009060ff1615610b475763ffffffff83166000908152600360209081526040808320858452909152902054610b40906001600160401b031660016126d0565b905061096c565b50600061096c565b6000807f9016d09d72d40fdae2fd8ceac6b6234c7706214fd39c1cd1e609a0528c1993005b546001600160a01b031692915050565b6000807fefb041d771d6daaa55702fff6eb740d63ba559a75d2d1d3e151c78ff2480b600610b74565b610c2084610bcd85600260149054906101000a900463ffffffff16611764565b84848080601f016020809104026020016040519081016040528093929190818152602001838380828437600092018290525060408051808201909152348152602081019190915292503391506117ad9050565b50610c2a846118b8565b50505050565b60005b81811015610d225736838383818110610c4e57610c4e61260f565b9050602002810190610c6091906126f7565b9050610c7c610c726020830183612351565b6020830135610946565b610c865750610d1a565b3063d045a0dc60c08301358360a0810135610ca5610100830183612640565b610cb6610100890160e08a01612399565b610cc46101208a018a612640565b6040518963ffffffff1660e01b8152600401610ce69796959493929190612741565b6000604051808303818588803b158015610cff57600080fd5b505af1158015610d13573d6000803e3d6000fd5b5050505050505b600101610c33565b50336001600160a01b0316638e9e70996040518163ffffffff1660e01b8152600401600060405180830381865afa158015610d61573d6000803e3d6000fd5b505050506040513d6000823e601f3d908101601f19168201604052610d899190810190612803565b604051638351eea760e01b81526004016106b391906128d0565b7ff0c57e16840df040f15088dc2f81fe391c3923bec73e23a9662efc9c229c6a008054600160401b810460ff1615906001600160401b0316600081158015610de85750825b90506000826001600160401b03166001148015610e045750303b155b905081158015610e12575080155b15610e305760405163f92ee8a960e01b815260040160405180910390fd5b845467ffffffffffffffff191660011785558315610e5a57845460ff60401b1916600160401b1785555b610e6386611952565b610e6c86611963565b600280546001600160a01b031916331790556040805163416ecebf60e01b815290517f00000000000000000000000000000000000000000000000000000000000000006001600160a01b03169163416ecebf9160048083019260209291908290030181865afa158015610ee3573d6000803e3d6000fd5b505050506040513d601f19601f82011682018060405250810190610f0791906128e3565b600260146101000a81548163ffffffff021916908363ffffffff1602179055508315610f6d57845460ff60401b19168555604051600181527fc7f505b2f371ae2175ee4913f4499e1f2633a7b5936321eed1cdaeb6115181d29060200160405180910390a15b505050505050565b6002546001600160a01b03163314610f9f5760405162461bcd60e51b81526004016106b390612686565b610fbf84610bcd85600260149054906101000a900463ffffffff16611764565b5050505050565b610fce611732565b60405163ca5eb5e160e01b81526001600160a01b0382811660048301527f0000000000000000000000000000000000000000000000000000000000000000169063ca5eb5e190602401600060405180830381600087803b15801561103157600080fd5b505af1158015610fbf573d6000803e3d6000fd5b3330146110655760405163029a949d60e31b815260040160405180910390fd5b61072387878787878787610714565b6001600160a01b03871630146110b45760405162461bcd60e51b81526020600482015260056024820152640216f4170760dc1b60448201526064016106b3565b336001600160a01b037f000000000000000000000000000000000000000000000000000000000000000016146111185760405162461bcd60e51b815260206004820152600960248201526808595b991c1bda5b9d60ba1b60448201526064016106b3565b60006111248686611974565b905060011960ff82160161114f5760018060008282546111449190612900565b909155506112499050565b60031960ff82160161120a57600180600082825461116d9190612900565b909155506000905061117f8787611996565b905061118a816118b8565b60006111c262030d4060006111bb60408051600360f01b602082015281516002818303018152602290910190915290565b91906119b9565b9050611202826111e56001600260149054906101000a900463ffffffff16611764565b8360405180604001604052803481526020016000815250306117ad565b505050611249565b60405162461bcd60e51b8152602060048201526014602482015273696e76616c6964206d657373616765207479706560601b60448201526064016106b3565b5050505050505050565b60008060006112b48761127888600260149054906101000a900463ffffffff16611764565b87878080601f01602080910402602001604051908101604052809392919081815260200183838082843760009201829052509250611a21915050565b8051602090910151909890975095505050505050565b6112d2611732565b7fefb041d771d6daaa55702fff6eb740d63ba559a75d2d1d3e151c78ff2480b60080546001600160a01b0383166001600160a01b03199091168117825560408051918252517fd48d879cef83a1c0bdda516f27b13ddb1b3f8bbac1c9e1511bb2a659c24277609181900360200190a15050565b61134d611732565b6001600160a01b03811661137757604051631e4fbdf760e01b8152600060048201526024016106b3565b611380816118e1565b50565b6002546001600160a01b031633146113ad5760405162461bcd60e51b81526004016106b390612686565b6000826001600160a01b03168260405160006040518083038185875af1925050503d80600081146113fa576040519150601f19603f3d011682016040523d82523d6000602084013e6113ff565b606091505b5050905080610ae45760405162461bcd60e51b815260206004820152601c60248201527f4f6d6e69436f756e7465723a207769746864726177206661696c65640000000060448201526064016106b3565b600060208201803590611467906104e69085612351565b1492915050565b63ffffffff81166000908152600080516020612c3a83398151915260208190526040822054806114b95760405163f6ff4fb760e01b815263ffffffff851660048201526024016106b3565b9392505050565b6114ea6114d06020890189612351565b60208901356114e560608b0160408c01612913565b611b02565b60006114f68686611974565b905060001960ff82160161158b5760008054908061151383612930565b91905055506115228686611bf7565b3410156115715760405162461bcd60e51b815260206004820152601f60248201527f4f6d6e69436f756e7465723a20696e73756666696369656e742076616c75650060448201526064016106b3565b61158661158160208a018a612351565b611c0f565b611249565b60ff8116600214806115a0575060ff81166004145b15611656576000805490806115b483612930565b909155506115ca905061158160208a018a612351565b604051633e5ac80960e11b81526001600160a01b037f00000000000000000000000000000000000000000000000000000000000000001690637cb590129061161f9030908b906000908c908c90600401612949565b600060405180830381600087803b15801561163957600080fd5b505af115801561164d573d6000803e3d6000fd5b50505050611249565b60021960ff82160161120a5760008054908061167183612930565b90915550611687905061158160208a018a612351565b61169c61169760208a018a612351565b6118b8565b60006116cd62030d40600a6111bb60408051600360f01b602082015281516002818303018152602290910190915290565b905061172b6116df60208b018b612351565b60025460408051600160f81b6020820152600160a01b90920460e01b6001600160e01b0319166021830152600a60258084019190915281518084039091018152604590920190526111e5565b5050611249565b3361173b610b4f565b6001600160a01b031614610afb5760405163118cdaa760e01b81523360048201526024016106b3565b6040516001600160f81b031960f884901b1660208201526001600160e01b031960e083901b1660218201526060906025015b604051602081830303815290604052905092915050565b6117b56120db565b60006117c48460000151611c30565b6020850151909150156117de576117de8460200151611c59565b7f00000000000000000000000000000000000000000000000000000000000000006001600160a01b0316632637a450826040518060a001604052808b63ffffffff16815260200161182e8c61146e565b81526020018a815260200189815260200160008960200151111515815250866040518463ffffffff1660e01b815260040161186a92919061297b565b60806040518083038185885af1158015611888573d6000803e3d6000fd5b50505050506040513d601f19601f820116820180604052508101906118ad9190612a42565b979650505050505050565b63ffffffff811660009081526006602052604081208054916118d983612930565b919050555050565b7f9016d09d72d40fdae2fd8ceac6b6234c7706214fd39c1cd1e609a0528c19930080546001600160a01b031981166001600160a01b03848116918217845560405192169182907f8be0079c531659141344cd1fd0a4f28419497f9722a3daafe3b4186f6b6457e090600090a3505050565b61195a611d3f565b61138081611d88565b61196b611d3f565b61138081611d90565b60006119836001828486612aa9565b61198c91612ad3565b60f81c9392505050565b60006119a6600560018486612aa9565b6119af91612b03565b60e01c9392505050565b60608360036119c9826000611dbf565b61ffff16146119fd576119dd816000611dbf565b604051633a51740d60e01b815261ffff90911660048201526024016106b3565b6000611a098585611e1c565b9050611a1786600183611e8c565b9695505050505050565b60408051808201909152600080825260208201527f00000000000000000000000000000000000000000000000000000000000000006001600160a01b031663ddc28c586040518060a001604052808863ffffffff168152602001611a848961146e565b8152602001878152602001868152602001851515815250306040518363ffffffff1660e01b8152600401611ab992919061297b565b6040805180830381865afa158015611ad5573d6000803e3d6000fd5b505050506040513d601f19601f82011682018060405250810190611af99190612b31565b95945050505050565b63ffffffff831660009081526003602090815260408083208584529091529020546004546001600160401b039091169060ff1615611b9b57611b458160016126d0565b6001600160401b0316826001600160401b031614611b9b5760405162461bcd60e51b81526020600482015260136024820152724f4170703a20696e76616c6964206e6f6e636560681b60448201526064016106b3565b806001600160401b0316826001600160401b03161115610c2a5763ffffffff84166000908152600360209081526040808320868452909152902080546001600160401b03841667ffffffffffffffff1990911617905550505050565b6000611c068260058186612aa9565b6114b991612b4d565b63ffffffff811660009081526005602052604081208054916118d983612930565b600081341015611c55576040516304fb820960e51b81523460048201526024016106b3565b5090565b60007f00000000000000000000000000000000000000000000000000000000000000006001600160a01b031663e4fe1d946040518163ffffffff1660e01b8152600401602060405180830381865afa158015611cb9573d6000803e3d6000fd5b505050506040513d601f19601f82011682018060405250810190611cdd9190612b6b565b90506001600160a01b038116611d06576040516329b99a9560e11b815260040160405180910390fd5b611d3b6001600160a01b038216337f000000000000000000000000000000000000000000000000000000000000000085611ef7565b5050565b7ff0c57e16840df040f15088dc2f81fe391c3923bec73e23a9662efc9c229c6a0054600160401b900460ff16610afb57604051631afcd79f60e31b815260040160405180910390fd5b61134d611d3f565b611d98611d3f565b6001600160a01b038116610fce57604051632d618d8160e21b815260040160405180910390fd5b6000611dcc826002612900565b83511015611e135760405162461bcd60e51b8152602060048201526014602482015273746f55696e7431365f6f75744f66426f756e647360601b60448201526064016106b3565b50016002015190565b60606fffffffffffffffffffffffffffffffff821615611e6d57604080516001600160801b0319608086811b8216602084015285901b166030820152016040516020818303038152906040526114b9565b6040516001600160801b0319608085901b166020820152603001611796565b6060836003611e9c826000611dbf565b61ffff1614611eb0576119dd816000611dbf565b846001611ebd8551611f51565b611ec8906001612b88565b8686604051602001611ede959493929190612ba3565b6040516020818303038152906040529150509392505050565b604080516001600160a01b0385811660248301528416604482015260648082018490528251808303909101815260849091019091526020810180516001600160e01b03166323b872dd60e01b179052610c2a908590611f80565b600061ffff821115611c55576040516306dfcc6560e41b815260106004820152602481018390526044016106b3565b6000611f956001600160a01b03841683611fe3565b90508051600014158015611fba575080806020019051810190611fb89190612c0a565b155b15610ae457604051635274afe760e01b81526001600160a01b03841660048201526024016106b3565b60606114b98383600084600080856001600160a01b031684866040516120099190612c27565b60006040518083038185875af1925050503d8060008114612046576040519150601f19603f3d011682016040523d82523d6000602084013e61204b565b606091505b5091509150611a1786838360608261206b57612066826120b2565b6114b9565b815115801561208257506001600160a01b0384163b155b156120ab57604051639996b31560e01b81526001600160a01b03851660048201526024016106b3565b50806114b9565b8051156120c25780518082602001fd5b604051630a12f52160e11b815260040160405180910390fd5b60405180606001604052806000801916815260200160006001600160401b0316815260200161211d604051806040016040528060008152602001600081525090565b905290565b60006060828403121561213457600080fd5b50919050565b60008083601f84011261214c57600080fd5b5081356001600160401b0381111561216357600080fd5b60208301915083602082850101111561217b57600080fd5b9250929050565b6001600160a01b038116811461138057600080fd5b600080600080600080600060e0888a0312156121b257600080fd5b6121bc8989612122565b96506060880135955060808801356001600160401b03808211156121df57600080fd5b6121eb8b838c0161213a565b909750955060a08a0135915061220082612182565b90935060c0890135908082111561221657600080fd5b506122238a828b0161213a565b989b979a50959850939692959293505050565b63ffffffff8116811461138057600080fd5b6000806040838503121561225b57600080fd5b823561226681612236565b946020939093013593505050565b60008083601f84011261228657600080fd5b5081356001600160401b0381111561229d57600080fd5b6020830191508360208260051b850101111561217b57600080fd5b600080600080600080606087890312156122d157600080fd5b86356001600160401b03808211156122e857600080fd5b6122f48a838b01612274565b9098509650602089013591508082111561230d57600080fd5b6123198a838b01612274565b9096509450604089013591508082111561233257600080fd5b5061233f89828a01612274565b979a9699509497509295939492505050565b60006020828403121561236357600080fd5b81356114b981612236565b801515811461138057600080fd5b60006020828403121561238e57600080fd5b81356114b98161236e565b6000602082840312156123ab57600080fd5b81356114b981612182565b6001600160401b038116811461138057600080fd5b6000806000606084860312156123e057600080fd5b83356123eb81612236565b9250602084013591506040840135612402816123b6565b809150509250925092565b60008060008060a0858703121561242357600080fd5b61242d8686612122565b935060608501356001600160401b0381111561244857600080fd5b6124548782880161213a565b909450925050608085013561246881612182565b939692955090935050565b803560ff8116811461248457600080fd5b919050565b6000806000806060858703121561249f57600080fd5b84356124aa81612236565b93506124b860208601612473565b925060408501356001600160401b038111156124d357600080fd5b6124df8782880161213a565b95989497509550505050565b600080602083850312156124fe57600080fd5b82356001600160401b0381111561251457600080fd5b61252085828601612274565b90969095509350505050565b600080600080600080600060a0888a03121561254757600080fd5b873561255281612182565b96506020880135955060408801356001600160401b038082111561257557600080fd5b6125818b838c0161213a565b909750955060608a0135915061259682612182565b9093506080890135908082111561221657600080fd5b600080604083850312156125bf57600080fd5b823561226681612182565b6000606082840312156125dc57600080fd5b6114b98383612122565b634e487b7160e01b600052601160045260246000fd5b8181038181111561096c5761096c6125e6565b634e487b7160e01b600052603260045260246000fd5b60006020828403121561263757600080fd5b6114b982612473565b6000808335601e1984360301811261265757600080fd5b8301803591506001600160401b0382111561267157600080fd5b60200191503681900382131561217b57600080fd5b6020808252600a908201526937b7363c9030b236b4b760b11b604082015260600190565b60006001600160401b038083168181036126c6576126c66125e6565b6001019392505050565b6001600160401b038181168382160190808211156126f0576126f06125e6565b5092915050565b6000823561013e1983360301811261270e57600080fd5b9190910192915050565b81835281816020850137506000828201602090810191909152601f909101601f19169091010190565b6000883561274e81612236565b63ffffffff16825260208981013590830152604089013561276e816123b6565b6001600160401b03811660408401525087606083015260e0608083015261279960e083018789612718565b6001600160a01b03861660a084015282810360c08401526127bb818587612718565b9a9950505050505050505050565b634e487b7160e01b600052604160045260246000fd5b60005b838110156127fa5781810151838201526020016127e2565b50506000910152565b60006020828403121561281557600080fd5b81516001600160401b038082111561282c57600080fd5b818401915084601f83011261284057600080fd5b815181811115612852576128526127c9565b604051601f8201601f19908116603f0116810190838211818310171561287a5761287a6127c9565b8160405282815287602084870101111561289357600080fd5b6118ad8360208301602088016127df565b600081518084526128bc8160208601602086016127df565b601f01601f19169290920160200192915050565b6020815260006114b960208301846128a4565b6000602082840312156128f557600080fd5b81516114b981612236565b8082018082111561096c5761096c6125e6565b60006020828403121561292557600080fd5b81356114b9816123b6565b600060018201612942576129426125e6565b5060010190565b60018060a01b038616815284602082015261ffff841660408201526080606082015260006118ad608083018486612718565b6040815263ffffffff8351166040820152602083015160608201526000604084015160a060808401526129b160e08401826128a4565b90506060850151603f198483030160a08501526129ce82826128a4565b60809690960151151560c08501525050506001600160a01b039190911660209091015290565b600060408284031215612a0657600080fd5b604051604081018181106001600160401b0382111715612a2857612a286127c9565b604052825181526020928301519281019290925250919050565b600060808284031215612a5457600080fd5b604051606081018181106001600160401b0382111715612a7657612a766127c9565b604052825181526020830151612a8b816123b6565b6020820152612a9d84604085016129f4565b60408201529392505050565b60008085851115612ab957600080fd5b83861115612ac657600080fd5b5050820193919092039150565b6001600160f81b03198135818116916001851015612afb5780818660010360031b1b83161692505b505092915050565b6001600160e01b03198135818116916004851015612afb5760049490940360031b84901b1690921692915050565b600060408284031215612b4357600080fd5b6114b983836129f4565b8035602083101561096c57600019602084900360031b1b1692915050565b600060208284031215612b7d57600080fd5b81516114b981612182565b61ffff8181168382160190808211156126f0576126f06125e6565b60008651612bb5818460208b016127df565b6001600160f81b031960f888811b82169285019283526001600160f01b031960f089901b16600184015286901b1660038201528351612bfb8160048401602088016127df565b01600401979650505050505050565b600060208284031215612c1c57600080fd5b81516114b98161236e565b6000825161270e8184602087016127df56fe72ab1bc1039b79dc4724ffca13de82c96834302d3c7e0d4252232d4b2dd8f900a264697066735822122063bb3767e08b96a1356b860946aa0e84cda903caab398e233dfdb62f71e126ae64736f6c63430008160033",
    "linkReferences": {}
  },
  "methodIdentifiers": {
    "admin()": "f851a440",
    "allowInitializePath((uint32,bytes32,uint64))": "ff7bd03d",
    "batchIncrement(uint32[],uint8[],bytes[])": "542e7b56",
    "brokenIncrement(uint32,uint8,bytes)": "c95c55be",
    "composedCount()": "257f4e05",
    "count()": "06661abd",
    "eid()": "416ecebf",
    "endpoint()": "5e280f11",
    "inboundCount(uint32)": "56a47289",
    "increment(uint32,uint8,bytes)": "b7abbb5d",
    "initialize(address)": "c4d66de8",
    "isComposeMsgSender((uint32,bytes32,uint64),bytes,address)": "82413eac",
    "isPeer(uint32,bytes32)": "5a0dfe4d",
    "lzCompose(address,bytes32,bytes,address,bytes)": "d0a10260",
    "lzReceive((uint32,bytes32,uint64),bytes32,bytes,address,bytes)": "13137d65",
    "lzReceiveAndRevert(((uint32,bytes32,uint64),uint32,address,bytes32,uint256,address,bytes,bytes)[])": "bd815db0",
    "lzReceiveSimulate((uint32,bytes32,uint64),bytes32,bytes,address,bytes)": "d045a0dc",
    "nextNonce(uint32,bytes32)": "7d25a05e",
    "oApp()": "52ae2879",
    "oAppVersion()": "17442b70",
    "outboundCount(uint32)": "622f17f6",
    "owner()": "8da5cb5b",
    "peers(uint32)": "bb0b6a53",
    "preCrime()": "b731ea0a",
    "quote(uint32,uint8,bytes)": "d22446ce",
    "renounceOwnership()": "715018a6",
    "setAdmin(address)": "704b6c02",
    "setDelegate(address)": "ca5eb5e1",
    "setOrderedNonce(bool)": "5b849af6",
    "setPeer(uint32,bytes32)": "3400288b",
    "setPreCrime(address)": "d4243885",
    "skipInboundNonce(uint32,bytes32,uint64)": "7112f86f",
    "transferOwnership(address)": "f2fde38b",
    "withdraw(address,uint256)": "f3fef3a3"
  },
  "id": 5
}