{
  "abi": [
    {
      "type": "constructor",
      "inputs": [
        {
          "name": "_localEidV2",
          "type": "uint32",
          "internalType": "uint32"
        }
      ],
      "stateMutability": "nonpayable"
    },
    {
      "type": "receive",
      "stateMutability": "payable"
    },
    {
      "type": "function",
      "name": "getFee",
      "inputs": [
        {
          "name": "_params",
          "type": "tuple",
          "internalType": "struct IExecutorFeeLib.FeeParamsForRead",
          "components": [
            {
              "name": "priceFeed",
              "type": "address",
              "internalType": "address"
            },
            {
              "name": "sender",
              "type": "address",
              "internalType": "address"
            },
            {
              "name": "defaultMultiplierBps",
              "type": "uint16",
              "internalType": "uint16"
            }
          ]
        },
        {
          "name": "_dstConfig",
          "type": "tuple",
          "internalType": "struct IExecutor.DstConfig",
          "components": [
            {
              "name": "lzReceiveBaseGas",
              "type": "uint64",
              "internalType": "uint64"
            },
            {
              "name": "multiplierBps",
              "type": "uint16",
              "internalType": "uint16"
            },
            {
              "name": "floorMarginUSD",
              "type": "uint128",
              "internalType": "uint128"
            },
            {
              "name": "nativeCap",
              "type": "uint128",
              "internalType": "uint128"
            },
            {
              "name": "lzComposeBaseGas",
              "type": "uint64",
              "internalType": "uint64"
            }
          ]
        },
        {
          "name": "_options",
          "type": "bytes",
          "internalType": "bytes"
        }
      ],
      "outputs": [
        {
          "name": "fee",
          "type": "uint256",
          "internalType": "uint256"
        }
      ],
      "stateMutability": "view"
    },
    {
      "type": "function",
      "name": "getFee",
      "inputs": [
        {
          "name": "_params",
          "type": "tuple",
          "internalType": "struct IExecutorFeeLib.FeeParams",
          "components": [
            {
              "name": "priceFeed",
              "type": "address",
              "internalType": "address"
            },
            {
              "name": "dstEid",
              "type": "uint32",
              "internalType": "uint32"
            },
            {
              "name": "sender",
              "type": "address",
              "internalType": "address"
            },
            {
              "name": "calldataSize",
              "type": "uint256",
              "internalType": "uint256"
            },
            {
              "name": "defaultMultiplierBps",
              "type": "uint16",
              "internalType": "uint16"
            }
          ]
        },
        {
          "name": "_dstConfig",
          "type": "tuple",
          "internalType": "struct IExecutor.DstConfig",
          "components": [
            {
              "name": "lzReceiveBaseGas",
              "type": "uint64",
              "internalType": "uint64"
            },
            {
              "name": "multiplierBps",
              "type": "uint16",
              "internalType": "uint16"
            },
            {
              "name": "floorMarginUSD",
              "type": "uint128",
              "internalType": "uint128"
            },
            {
              "name": "nativeCap",
              "type": "uint128",
              "internalType": "uint128"
            },
            {
              "name": "lzComposeBaseGas",
              "type": "uint64",
              "internalType": "uint64"
            }
          ]
        },
        {
          "name": "_options",
          "type": "bytes",
          "internalType": "bytes"
        }
      ],
      "outputs": [
        {
          "name": "fee",
          "type": "uint256",
          "internalType": "uint256"
        }
      ],
      "stateMutability": "view"
    },
    {
      "type": "function",
      "name": "getFeeOnSend",
      "inputs": [
        {
          "name": "_params",
          "type": "tuple",
          "internalType": "struct IExecutorFeeLib.FeeParams",
          "components": [
            {
              "name": "priceFeed",
              "type": "address",
              "internalType": "address"
            },
            {
              "name": "dstEid",
              "type": "uint32",
              "internalType": "uint32"
            },
            {
              "name": "sender",
              "type": "address",
              "internalType": "address"
            },
            {
              "name": "calldataSize",
              "type": "uint256",
              "internalType": "uint256"
            },
            {
              "name": "defaultMultiplierBps",
              "type": "uint16",
              "internalType": "uint16"
            }
          ]
        },
        {
          "name": "_dstConfig",
          "type": "tuple",
          "internalType": "struct IExecutor.DstConfig",
          "components": [
            {
              "name": "lzReceiveBaseGas",
              "type": "uint64",
              "internalType": "uint64"
            },
            {
              "name": "multiplierBps",
              "type": "uint16",
              "internalType": "uint16"
            },
            {
              "name": "floorMarginUSD",
              "type": "uint128",
              "internalType": "uint128"
            },
            {
              "name": "nativeCap",
              "type": "uint128",
              "internalType": "uint128"
            },
            {
              "name": "lzComposeBaseGas",
              "type": "uint64",
              "internalType": "uint64"
            }
          ]
        },
        {
          "name": "_options",
          "type": "bytes",
          "internalType": "bytes"
        }
      ],
      "outputs": [
        {
          "name": "fee",
          "type": "uint256",
          "internalType": "uint256"
        }
      ],
      "stateMutability": "view"
    },
    {
      "type": "function",
      "name": "getFeeOnSend",
      "inputs": [
        {
          "name": "_params",
          "type": "tuple",
          "internalType": "struct IExecutorFeeLib.FeeParamsForRead",
          "components": [
            {
              "name": "priceFeed",
              "type": "address",
              "internalType": "address"
            },
            {
              "name": "sender",
              "type": "address",
              "internalType": "address"
            },
            {
              "name": "defaultMultiplierBps",
              "type": "uint16",
              "internalType": "uint16"
            }
          ]
        },
        {
          "name": "_dstConfig",
          "type": "tuple",
          "internalType": "struct IExecutor.DstConfig",
          "components": [
            {
              "name": "lzReceiveBaseGas",
              "type": "uint64",
              "internalType": "uint64"
            },
            {
              "name": "multiplierBps",
              "type": "uint16",
              "internalType": "uint16"
            },
            {
              "name": "floorMarginUSD",
              "type": "uint128",
              "internalType": "uint128"
            },
            {
              "name": "nativeCap",
              "type": "uint128",
              "internalType": "uint128"
            },
            {
              "name": "lzComposeBaseGas",
              "type": "uint64",
              "internalType": "uint64"
            }
          ]
        },
        {
          "name": "_options",
          "type": "bytes",
          "internalType": "bytes"
        }
      ],
      "outputs": [
        {
          "name": "fee",
          "type": "uint256",
          "internalType": "uint256"
        }
      ],
      "stateMutability": "view"
    },
    {
      "type": "function",
      "name": "owner",
      "inputs": [],
      "outputs": [
        {
          "name": "",
          "type": "address",
          "internalType": "address"
        }
      ],
      "stateMutability": "view"
    },
    {
      "type": "function",
      "name": "renounceOwnership",
      "inputs": [],
      "outputs": [],
      "stateMutability": "nonpayable"
    },
    {
      "type": "function",
      "name": "transferOwnership",
      "inputs": [
        {
          "name": "newOwner",
          "type": "address",
          "internalType": "address"
        }
      ],
      "outputs": [],
      "stateMutability": "nonpayable"
    },
    {
      "type": "function",
      "name": "version",
      "inputs": [],
      "outputs": [
        {
          "name": "major",
          "type": "uint64",
          "internalType": "uint64"
        },
        {
          "name": "minor",
          "type": "uint8",
          "internalType": "uint8"
        }
      ],
      "stateMutability": "pure"
    },
    {
      "type": "function",
      "name": "withdrawToken",
      "inputs": [
        {
          "name": "_token",
          "type": "address",
          "internalType": "address"
        },
        {
          "name": "_to",
          "type": "address",
          "internalType": "address"
        },
        {
          "name": "_amount",
          "type": "uint256",
          "internalType": "uint256"
        }
      ],
      "outputs": [],
      "stateMutability": "nonpayable"
    },
    {
      "type": "event",
      "name": "OwnershipTransferred",
      "inputs": [
        {
          "name": "previousOwner",
          "type": "address",
          "indexed": true,
          "internalType": "address"
        },
        {
          "name": "newOwner",
          "type": "address",
          "indexed": true,
          "internalType": "address"
        }
      ],
      "anonymous": false
    },
    {
      "type": "error",
      "name": "Executor_EidNotSupported",
      "inputs": [
        {
          "name": "eid",
          "type": "uint32",
          "internalType": "uint32"
        }
      ]
    },
    {
      "type": "error",
      "name": "Executor_InvalidExecutorOptions",
      "inputs": [
        {
          "name": "cursor",
          "type": "uint256",
          "internalType": "uint256"
        }
      ]
    },
    {
      "type": "error",
      "name": "Executor_InvalidLzComposeOption",
      "inputs": []
    },
    {
      "type": "error",
      "name": "Executor_InvalidLzReadOption",
      "inputs": []
    },
    {
      "type": "error",
      "name": "Executor_InvalidLzReceiveOption",
      "inputs": []
    },
    {
      "type": "error",
      "name": "Executor_InvalidNativeDropOption",
      "inputs": []
    },
    {
      "type": "error",
      "name": "Executor_NativeAmountExceedsCap",
      "inputs": [
        {
          "name": "amount",
          "type": "uint256",
          "internalType": "uint256"
        },
        {
          "name": "cap",
          "type": "uint256",
          "internalType": "uint256"
        }
      ]
    },
    {
      "type": "error",
      "name": "Executor_NoOptions",
      "inputs": []
    },
    {
      "type": "error",
      "name": "Executor_UnsupportedOptionType",
      "inputs": [
        {
          "name": "optionType",
          "type": "uint8",
          "internalType": "uint8"
        }
      ]
    },
    {
      "type": "error",
      "name": "Executor_ZeroCalldataSizeProvided",
      "inputs": []
    },
    {
      "type": "error",
      "name": "Executor_ZeroLzComposeGasProvided",
      "inputs": []
    },
    {
      "type": "error",
      "name": "Executor_ZeroLzReceiveGasProvided",
      "inputs": []
    },
    {
      "type": "error",
      "name": "OwnableInvalidOwner",
      "inputs": [
        {
          "name": "owner",
          "type": "address",
          "internalType": "address"
        }
      ]
    },
    {
      "type": "error",
      "name": "OwnableUnauthorizedAccount",
      "inputs": [
        {
          "name": "account",
          "type": "address",
          "internalType": "address"
        }
      ]
    },
    {
      "type": "error",
      "name": "SafeERC20FailedOperation",
      "inputs": [
        {
          "name": "token",
          "type": "address",
          "internalType": "address"
        }
      ]
    },
    {
      "type": "error",
      "name": "Transfer_NativeFailed",
      "inputs": [
        {
          "name": "_to",
          "type": "address",
          "internalType": "address"
        },
        {
          "name": "_value",
          "type": "uint256",
          "internalType": "uint256"
        }
      ]
    },
    {
      "type": "error",
      "name": "Transfer_ToAddressIsZero",
      "inputs": []
    }
  ],
  "bytecode": {
    "object": "0x60c060405234801561001057600080fd5b5060405161162538038061162583398101604081905261002f916100c9565b338061005557604051631e4fbdf760e01b81526000600482015260240160405180910390fd5b61005e81610079565b5063ffffffff1660a052670de0b6b3a76400006080526100f6565b600080546001600160a01b038381166001600160a01b0319831681178455604051919092169283917f8be0079c531659141344cd1fd0a4f28419497f9722a3daafe3b4186f6b6457e09190a35050565b6000602082840312156100db57600080fd5b815163ffffffff811681146100ef57600080fd5b9392505050565b60805160a0516115036101226000396000818161021501526102b20152600061075501526115036000f3fe60806040526004361061008a5760003560e01c8063566ef76211610059578063566ef7621461012c578063650037841461014c578063715018a61461016c5780638da5cb5b14610181578063f2fde38b146101a957600080fd5b806301e3366714610096578063337c7a9e146100b8578063434ee016146100eb57806354fd4d501461010b57600080fd5b3661009157005b600080fd5b3480156100a257600080fd5b506100b66100b13660046110c2565b6101c9565b005b3480156100c457600080fd5b506100d86100d336600461115f565b6101e1565b6040519081526020015b60405180910390f35b3480156100f757600080fd5b506100d86101063660046111cb565b6103c1565b34801561011757600080fd5b506040805160018082526020820152016100e2565b34801561013857600080fd5b506100d86101473660046111cb565b61058c565b34801561015857600080fd5b506100d861016736600461115f565b6105a3565b34801561017857600080fd5b506100b66105b1565b34801561018d57600080fd5b506000546040516001600160a01b0390911681526020016100e2565b3480156101b557600080fd5b506100b66101c4366004611218565b6105c5565b6101d1610603565b6101dc838383610630565b505050565b60006101f0602085018561123a565b67ffffffffffffffff166000036102475760405163c3baa0b760e01b815263ffffffff7f00000000000000000000000000000000000000000000000000000000000000001660048201526024015b60405180910390fd5b6000808061028560018261025e60208b018b61123a565b61026e60a08c0160808d0161123a565b61027e60808d0160608e01611279565b8b8b610653565b91945092509050600080808061029e60208d018d611218565b604051632229049360e21b815263ffffffff7f00000000000000000000000000000000000000000000000000000000000000008116600483015287166024820152604481018890526001600160a01b0391909116906388a4124c90606401608060405180830381865afa158015610319573d6000803e3d6000fd5b505050506040513d601f19601f8201168201806040525081019061033d9190611296565b929650909450925090506103878461035b60408e0160208f016112eb565b8e604001602081019061036e91906112eb565b8e60400160208101906103819190611279565b856106e5565b97506103a78784848f60400160208101906103a291906112eb565b6107ba565b6103b19089611325565b9c9b505050505050505050505050565b60006103d0602085018561123a565b67ffffffffffffffff16600003610413576103f1604086016020870161133e565b60405163c3baa0b760e01b815263ffffffff909116600482015260240161023e565b6000806104678161043361042d60408b0160208c0161133e565b50600090565b61044060208a018a61123a565b61045060a08b0160808c0161123a565b61046060808c0160608d01611279565b8a8a610653565b509092509050600080808061047f60208c018c611218565b6001600160a01b03166388a4124c61049d60408e0160208f0161133e565b6040516001600160e01b031960e084901b16815263ffffffff91909116600482015260608e0135602482015260448101889052606401608060405180830381865afa1580156104f0573d6000803e3d6000fd5b505050506040513d601f19601f820116820180604052508101906105149190611296565b929650909450925090506105588461053260408d0160208e016112eb565b8d608001602081019061054591906112eb565b8d60400160208101906103819190611279565b96506105738684848e60800160208101906103a291906112eb565b61057d9088611325565b9b9a5050505050505050505050565b600061059a858585856103c1565b95945050505050565b600061059a858585856101e1565b6105b9610603565b6105c3600061080f565b565b6105cd610603565b6001600160a01b0381166105f757604051631e4fbdf760e01b81526000600482015260240161023e565b6106008161080f565b50565b6000546001600160a01b031633146105c35760405163118cdaa760e01b815233600482015260240161023e565b6001600160a01b038316610648576101dc828261085f565b6101dc83838361090c565b60008060008061066686868d8d8b610947565b805160608201516080830151919650935090915061068e9067ffffffffffffffff8a16611364565b60208201516106a79067ffffffffffffffff8c16611325565b6106b19190611325565b92508060400151156106d75760646106ca846066611364565b6106d4919061137b565b92505b509750975097945050505050565b60008061ffff8616156106f857856106fa565b845b9050600061271061070f61ffff84168a611364565b610719919061137b565b90506001600160801b038416158061073857506001600160801b038516155b1561074657915061059a9050565b600088856001600160801b03167f0000000000000000000000000000000000000000000000000000000000000000886001600160801b03166107889190611364565b610792919061137b565b61079c9190611325565b90508181116107ab57816107ad565b805b9998505050505050505050565b60008415610807576127108261ffff16846001600160801b0316866001600160801b0316886107e99190611364565b6107f3919061137b565b6107fd9190611364565b61059a919061137b565b949350505050565b600080546001600160a01b038381166001600160a01b0319831681178455604051919092169283917f8be0079c531659141344cd1fd0a4f28419497f9722a3daafe3b4186f6b6457e09190a35050565b6001600160a01b038216610886576040516306b7a93160e41b815260040160405180910390fd5b6000826001600160a01b03168260405160006040518083038185875af1925050503d80600081146108d3576040519150601f19603f3d011682016040523d82523d6000602084013e6108d8565b606091505b50509050806101dc57604051631196f20d60e21b81526001600160a01b03841660048201526024810183905260440161023e565b6001600160a01b038216610933576040516306b7a93160e41b815260040160405180910390fd5b6101dc6001600160a01b0384168383610d50565b6109816040518060a001604052806000815260200160008152602001600015158152602001600063ffffffff168152602001600081525090565b60008590036109a25760405162575ea160e01b815260040160405180910390fd5b600080805b87831015610c725760003681806109bf8d8d89610da2565b99509195509350915086905060001960ff851601610a7f578a156109fb5760405163052e551560e01b815260ff8516600482015260240161023e565b600080610a088585610df8565b915091508b8015610a2257506000816001600160801b0316115b15610a455760405163052e551560e01b815260ff8716600482015260240161023e565b806001600160801b03168a600001818151610a609190611325565b905250610a766001600160801b03831689611325565b97505050610c69565b60011960ff851601610ae3578a15610aaf5760405163052e551560e01b815260ff8516600482015260240161023e565b6000610abb8484610e5d565b509050806001600160801b031689600001818151610ad99190611325565b905250610c699050565b60021960ff851601610ba8578915610b135760405163052e551560e01b815260ff8516600482015260240161023e565b600080610b208585610e9b565b9250925050816001600160801b0316600003610b4f5760405163a169d0e160e01b815260040160405180910390fd5b806001600160801b03168a600001818151610b6a9190611325565b90525060208a0180516001600160801b0384169190610b8a908390611325565b90525060808a01805190610b9d8261139d565b815250505050610c69565b60031960ff851601610bc05760016040890152610c69565b60041960ff851601610c4b578a610bef5760405163052e551560e01b815260ff8516600482015260240161023e565b6000806000610bfe8686610f0f565b925092509250806001600160801b03168b600001818151610c1f9190611325565b905250610c356001600160801b0384168a611325565b9850610c4182896113b6565b9750505050610c69565b60405163052e551560e01b815260ff8516600482015260240161023e565b505050506109a7565b828814610c9557604051634c83bb7560e11b81526004810184905260240161023e565b83516001600160801b0386161015610cd45783516040516242670160e11b815260048101919091526001600160801b038616602482015260440161023e565b81600003610cf557604051630e5eb8f360e41b815260040160405180910390fd5b868015610d06575063ffffffff8116155b15610d24576040516336619f8360e11b815260040160405180910390fd5b8184602001818151610d369190611325565b90525063ffffffff16606084015250909695505050505050565b604080516001600160a01b038416602482015260448082018490528251808303909101815260649091019091526020810180516001600160e01b031663a9059cbb60e01b1790526101dc908490610f7a565b600036816001840181610db6888884610ff1565b600292909201919050610dca888884611018565b94506001820161ffff82168301610de381838b8d6113da565b979b909a50969850505061ffff160193505050565b60008060108314801590610e0d575060208314155b15610e2b57604051634796aee160e01b815260040160405180910390fd5b610e378484600061103d565b915060208314610e48576000610e54565b610e548484601061103d565b90509250929050565b60008060308314610e81576040516361d0c2c760e11b815260040160405180910390fd5b610e8d8484600061103d565b9150610e5484846010611064565b6000808060128414801590610eb1575060228414155b15610ecf57604051638b4aa70b60e01b815260040160405180910390fd5b610edb85856000610ff1565b9250610ee98585600261103d565b915060228414610efa576000610f06565b610f068585601261103d565b90509250925092565b6000808060148414801590610f25575060248414155b15610f4357604051636f5bff2160e11b815260040160405180910390fd5b610f4f8585600061103d565b9250610f5d8585601061107f565b915060248414610f6e576000610f06565b610f068585601461103d565b600080602060008451602086016000885af180610f9d576040513d6000823e3d81fd5b50506000513d91508115610fb5578060011415610fc2565b6001600160a01b0384163b155b15610feb57604051635274afe760e01b81526001600160a01b038516600482015260240161023e565b50505050565b600060028201611003818486886113da565b61100c91611404565b60f01c95945050505050565b600083838381811061102c5761102c611434565b919091013560f81c95945050505050565b60006010820161104f818486886113da565b6110589161144a565b60801c95945050505050565b600060208201611076818486886113da565b61059a91611481565b600060048201611091818486886113da565b61109a9161149f565b60e01c95945050505050565b80356001600160a01b03811681146110bd57600080fd5b919050565b6000806000606084860312156110d757600080fd5b6110e0846110a6565b92506110ee602085016110a6565b9150604084013590509250925092565b600060a0828403121561111057600080fd5b50919050565b60008083601f84011261112857600080fd5b50813567ffffffffffffffff81111561114057600080fd5b60208301915083602082850101111561115857600080fd5b9250929050565b60008060008084860361012081121561117757600080fd5b606081121561118557600080fd5b5084935061119686606087016110fe565b925061010085013567ffffffffffffffff8111156111b357600080fd5b6111bf87828801611116565b95989497509550505050565b60008060008061016085870312156111e257600080fd5b6111ec86866110fe565b93506111fb8660a087016110fe565b925061014085013567ffffffffffffffff8111156111b357600080fd5b60006020828403121561122a57600080fd5b611233826110a6565b9392505050565b60006020828403121561124c57600080fd5b813567ffffffffffffffff8116811461123357600080fd5b6001600160801b038116811461060057600080fd5b60006020828403121561128b57600080fd5b813561123381611264565b600080600080608085870312156112ac57600080fd5b8451935060208501516112be81611264565b60408601519093506112cf81611264565b60608601519092506112e081611264565b939692955090935050565b6000602082840312156112fd57600080fd5b813561ffff8116811461123357600080fd5b634e487b7160e01b600052601160045260246000fd5b808201808211156113385761133861130f565b92915050565b60006020828403121561135057600080fd5b813563ffffffff8116811461123357600080fd5b80820281158282048414176113385761133861130f565b60008261139857634e487b7160e01b600052601260045260246000fd5b500490565b6000600182016113af576113af61130f565b5060010190565b63ffffffff8181168382160190808211156113d3576113d361130f565b5092915050565b600080858511156113ea57600080fd5b838611156113f757600080fd5b5050820193919092039150565b6001600160f01b0319813581811691600285101561142c5780818660020360031b1b83161692505b505092915050565b634e487b7160e01b600052603260045260246000fd5b6fffffffffffffffffffffffffffffffff19813581811691601085101561142c5760109490940360031b84901b1690921692915050565b8035602083101561133857600019602084900360031b1b1692915050565b6001600160e01b0319813581811691600485101561142c5760049490940360031b84901b169092169291505056fea26469706673582212204c4f5a98e90d6be97596e1e9898b33b6b2d63dca8ef38882eb89a478158f7b6b64736f6c63430008160033",
    "linkReferences": {}
  },
  "methodIdentifiers": {
    "getFee((address,address,uint16),(uint64,uint16,uint128,uint128,uint64),bytes)": "337c7a9e",
    "getFee((address,uint32,address,uint256,uint16),(uint64,uint16,uint128,uint128,uint64),bytes)": "434ee016",
    "getFeeOnSend((address,address,uint16),(uint64,uint16,uint128,uint128,uint64),bytes)": "65003784",
    "getFeeOnSend((address,uint32,address,uint256,uint16),(uint64,uint16,uint128,uint128,uint64),bytes)": "566ef762",
    "owner()": "8da5cb5b",
    "renounceOwnership()": "715018a6",
    "transferOwnership(address)": "f2fde38b",
    "version()": "54fd4d50",
    "withdrawToken(address,address,uint256)": "01e33667"
  },
  "id": 76
}