{
  "abi": [
    {
      "type": "constructor",
      "inputs": [
        {
          "name": "_nativeDecimalsRate",
          "type": "uint256",
          "internalType": "uint256"
        }
      ],
      "stateMutability": "nonpayable"
    },
    {
      "type": "receive",
      "stateMutability": "payable"
    },
    {
      "type": "function",
      "name": "getFee",
      "inputs": [
        {
          "name": "_params",
          "type": "tuple",
          "internalType": "struct IDVNFeeLib.FeeParams",
          "components": [
            {
              "name": "priceFeed",
              "type": "address",
              "internalType": "address"
            },
            {
              "name": "dstEid",
              "type": "uint32",
              "internalType": "uint32"
            },
            {
              "name": "confirmations",
              "type": "uint64",
              "internalType": "uint64"
            },
            {
              "name": "sender",
              "type": "address",
              "internalType": "address"
            },
            {
              "name": "quorum",
              "type": "uint64",
              "internalType": "uint64"
            },
            {
              "name": "defaultMultiplierBps",
              "type": "uint16",
              "internalType": "uint16"
            }
          ]
        },
        {
          "name": "_dstConfig",
          "type": "tuple",
          "internalType": "struct IDVN.DstConfig",
          "components": [
            {
              "name": "gas",
              "type": "uint64",
              "internalType": "uint64"
            },
            {
              "name": "multiplierBps",
              "type": "uint16",
              "internalType": "uint16"
            },
            {
              "name": "floorMarginUSD",
              "type": "uint128",
              "internalType": "uint128"
            }
          ]
        },
        {
          "name": "_options",
          "type": "bytes",
          "internalType": "bytes"
        }
      ],
      "outputs": [
        {
          "name": "",
          "type": "uint256",
          "internalType": "uint256"
        }
      ],
      "stateMutability": "view"
    },
    {
      "type": "function",
      "name": "getFeeOnSend",
      "inputs": [
        {
          "name": "_params",
          "type": "tuple",
          "internalType": "struct IDVNFeeLib.FeeParams",
          "components": [
            {
              "name": "priceFeed",
              "type": "address",
              "internalType": "address"
            },
            {
              "name": "dstEid",
              "type": "uint32",
              "internalType": "uint32"
            },
            {
              "name": "confirmations",
              "type": "uint64",
              "internalType": "uint64"
            },
            {
              "name": "sender",
              "type": "address",
              "internalType": "address"
            },
            {
              "name": "quorum",
              "type": "uint64",
              "internalType": "uint64"
            },
            {
              "name": "defaultMultiplierBps",
              "type": "uint16",
              "internalType": "uint16"
            }
          ]
        },
        {
          "name": "_dstConfig",
          "type": "tuple",
          "internalType": "struct IDVN.DstConfig",
          "components": [
            {
              "name": "gas",
              "type": "uint64",
              "internalType": "uint64"
            },
            {
              "name": "multiplierBps",
              "type": "uint16",
              "internalType": "uint16"
            },
            {
              "name": "floorMarginUSD",
              "type": "uint128",
              "internalType": "uint128"
            }
          ]
        },
        {
          "name": "_options",
          "type": "bytes",
          "internalType": "bytes"
        }
      ],
      "outputs": [
        {
          "name": "",
          "type": "uint256",
          "internalType": "uint256"
        }
      ],
      "stateMutability": "payable"
    },
    {
      "type": "function",
      "name": "owner",
      "inputs": [],
      "outputs": [
        {
          "name": "",
          "type": "address",
          "internalType": "address"
        }
      ],
      "stateMutability": "view"
    },
    {
      "type": "function",
      "name": "renounceOwnership",
      "inputs": [],
      "outputs": [],
      "stateMutability": "nonpayable"
    },
    {
      "type": "function",
      "name": "transferOwnership",
      "inputs": [
        {
          "name": "newOwner",
          "type": "address",
          "internalType": "address"
        }
      ],
      "outputs": [],
      "stateMutability": "nonpayable"
    },
    {
      "type": "function",
      "name": "withdrawToken",
      "inputs": [
        {
          "name": "_token",
          "type": "address",
          "internalType": "address"
        },
        {
          "name": "_to",
          "type": "address",
          "internalType": "address"
        },
        {
          "name": "_amount",
          "type": "uint256",
          "internalType": "uint256"
        }
      ],
      "outputs": [],
      "stateMutability": "nonpayable"
    },
    {
      "type": "event",
      "name": "OwnershipTransferred",
      "inputs": [
        {
          "name": "previousOwner",
          "type": "address",
          "indexed": true,
          "internalType": "address"
        },
        {
          "name": "newOwner",
          "type": "address",
          "indexed": true,
          "internalType": "address"
        }
      ],
      "anonymous": false
    },
    {
      "type": "error",
      "name": "AddressEmptyCode",
      "inputs": [
        {
          "name": "target",
          "type": "address",
          "internalType": "address"
        }
      ]
    },
    {
      "type": "error",
      "name": "AddressInsufficientBalance",
      "inputs": [
        {
          "name": "account",
          "type": "address",
          "internalType": "address"
        }
      ]
    },
    {
      "type": "error",
      "name": "DVN_EidNotSupported",
      "inputs": [
        {
          "name": "eid",
          "type": "uint32",
          "internalType": "uint32"
        }
      ]
    },
    {
      "type": "error",
      "name": "DVN_InvalidDVNOptions",
      "inputs": [
        {
          "name": "cursor",
          "type": "uint256",
          "internalType": "uint256"
        }
      ]
    },
    {
      "type": "error",
      "name": "DVN_UnsupportedOptionType",
      "inputs": [
        {
          "name": "optionType",
          "type": "uint8",
          "internalType": "uint8"
        }
      ]
    },
    {
      "type": "error",
      "name": "FailedInnerCall",
      "inputs": []
    },
    {
      "type": "error",
      "name": "OwnableInvalidOwner",
      "inputs": [
        {
          "name": "owner",
          "type": "address",
          "internalType": "address"
        }
      ]
    },
    {
      "type": "error",
      "name": "OwnableUnauthorizedAccount",
      "inputs": [
        {
          "name": "account",
          "type": "address",
          "internalType": "address"
        }
      ]
    },
    {
      "type": "error",
      "name": "SafeERC20FailedOperation",
      "inputs": [
        {
          "name": "token",
          "type": "address",
          "internalType": "address"
        }
      ]
    },
    {
      "type": "error",
      "name": "Transfer_NativeFailed",
      "inputs": [
        {
          "name": "_to",
          "type": "address",
          "internalType": "address"
        },
        {
          "name": "_value",
          "type": "uint256",
          "internalType": "uint256"
        }
      ]
    },
    {
      "type": "error",
      "name": "Transfer_ToAddressIsZero",
      "inputs": []
    }
  ],
  "bytecode": {
    "object": "0x60a060405234801561001057600080fd5b50604051610e2e380380610e2e83398101604081905261002f916100b7565b338061005557604051631e4fbdf760e01b81526000600482015260240160405180910390fd5b61005e81610067565b506080526100d0565b600080546001600160a01b038381166001600160a01b0319831681178455604051919092169283917f8be0079c531659141344cd1fd0a4f28419497f9722a3daafe3b4186f6b6457e09190a35050565b6000602082840312156100c957600080fd5b5051919050565b608051610d436100eb60003960006105fa0152610d436000f3fe6080604052600436106100595760003560e01c806301e3366714610065578063715018a6146100875780637bfa20a91461009c5780638da5cb5b146100cf578063df2b057e146100f7578063f2fde38b1461010a57600080fd5b3661006057005b600080fd5b34801561007157600080fd5b506100856100803660046109c7565b61012a565b005b34801561009357600080fd5b50610085610142565b3480156100a857600080fd5b506100bc6100b7366004610a03565b610156565b6040519081526020015b60405180910390f35b3480156100db57600080fd5b506000546040516001600160a01b0390911681526020016100c6565b6100bc610105366004610a03565b6102e6565b34801561011657600080fd5b50610085610125366004610aa5565b6103cf565b61013261040d565b61013d83838361043a565b505050565b61014a61040d565b610154600061045d565b565b60006101656020850185610ac0565b67ffffffffffffffff166000036101ad576101866040860160208701610aea565b60405163680489c560e11b815263ffffffff90911660048201526024015b60405180910390fd5b6101b783836104ad565b5060006101dc6101cd60a0880160808901610ac0565b67ffffffffffffffff1661051f565b90506000806101ee6020890189610aa5565b6001600160a01b03166388a4124c61020c60408b0160208c01610aea565b8561021a60208c018c610ac0565b6040516001600160e01b031960e086901b16815263ffffffff939093166004840152602483019190915267ffffffffffffffff166044820152606401608060405180830381865afa158015610273573d6000803e3d6000fd5b505050506040513d601f19601f820116820180604052508101906102979190610b25565b9350505091506102da828860200160208101906102b49190610b7a565b6102c460c08c0160a08d01610b7a565b6102d460608c0160408d01610b9e565b8561058b565b98975050505050505050565b60006102f56020850185610ac0565b67ffffffffffffffff16600003610316576101866040860160208701610aea565b61032083836104ad565b5060006103366101cd60a0880160808901610ac0565b90506000806103486020890189610aa5565b6001600160a01b031663c1723a1d61036660408b0160208c01610aea565b8561037460208c018c610ac0565b6040516001600160e01b031960e086901b16815263ffffffff939093166004840152602483019190915267ffffffffffffffff1660448201526064016080604051808303816000875af1158015610273573d6000803e3d6000fd5b6103d761040d565b6001600160a01b03811661040157604051631e4fbdf760e01b8152600060048201526024016101a4565b61040a8161045d565b50565b6000546001600160a01b031633146101545760405163118cdaa760e01b81523360048201526024016101a4565b6001600160a01b0383166104525761013d8282610661565b61013d83838361070e565b600080546001600160a01b038381166001600160a01b0319831681178455604051919092169283917f8be0079c531659141344cd1fd0a4f28419497f9722a3daafe3b4186f6b6457e09190a35050565b60008082156104f0576000806104c4868685610749565b604051637085244b60e01b815260ff8516600482015290965092945085935050602490910190506101a4565b8083146105135760405163013adb8360e21b8152600481018290526024016101a4565b60009150505b92915050565b60008061052d604184610bd1565b905061053a602082610bfe565b156105625761054a602082610bfe565b6105549082610c12565b61055f906020610c25565b90505b8061056f60e06044610c25565b6105799190610c25565b610584906040610c25565b9392505050565b60008061ffff86161561059e57856105a0565b845b905060006127106105b561ffff84168a610bd1565b6105bf9190610c38565b90506001600160801b03841615806105de57506001600160801b038516155b156105ec5791506106589050565b6000846001600160801b03167f0000000000000000000000000000000000000000000000000000000000000000876001600160801b031661062d9190610bd1565b6106379190610c38565b610641908a610c25565b90508181116106505781610652565b805b93505050505b95945050505050565b6001600160a01b038216610688576040516306b7a93160e41b815260040160405180910390fd5b6000826001600160a01b03168260405160006040518083038185875af1925050503d80600081146106d5576040519150601f19603f3d011682016040523d82523d6000602084013e6106da565b606091505b505090508061013d57604051631196f20d60e21b81526001600160a01b0384166004820152602481018390526044016101a4565b6001600160a01b038216610735576040516306b7a93160e41b815260040160405180910390fd5b61013d6001600160a01b03841683836107a3565b60003681600184018161075d8888846107f5565b6002830192909150610775908990899060030161081c565b94506002820161ffff8216830161078e81838b8d610c4c565b979b909a50969850505061ffff160193505050565b604080516001600160a01b038416602482015260448082018490528251808303909101815260649091019091526020810180516001600160e01b031663a9059cbb60e01b17905261013d908490610841565b60006002820161080781848688610c4c565b61081091610c76565b60f01c95945050505050565b600083838381811061083057610830610ca6565b919091013560f81c95945050505050565b60006108566001600160a01b038416836108a4565b9050805160001415801561087b5750808060200190518101906108799190610cbc565b155b1561013d57604051635274afe760e01b81526001600160a01b03841660048201526024016101a4565b60606105848383600084600080856001600160a01b031684866040516108ca9190610cde565b60006040518083038185875af1925050503d8060008114610907576040519150601f19603f3d011682016040523d82523d6000602084013e61090c565b606091505b509150915061091c868383610926565b9695505050505050565b60608261093b5761093682610982565b610584565b815115801561095257506001600160a01b0384163b155b1561097b57604051639996b31560e01b81526001600160a01b03851660048201526024016101a4565b5080610584565b8051156109925780518082602001fd5b604051630a12f52160e11b815260040160405180910390fd5b80356001600160a01b03811681146109c257600080fd5b919050565b6000806000606084860312156109dc57600080fd5b6109e5846109ab565b92506109f3602085016109ab565b9150604084013590509250925092565b600080600080848603610140811215610a1b57600080fd5b60c0811215610a2957600080fd5b859450606060bf1982011215610a3e57600080fd5b5060c08501925061012085013567ffffffffffffffff80821115610a6157600080fd5b818701915087601f830112610a7557600080fd5b813581811115610a8457600080fd5b886020828501011115610a9657600080fd5b95989497505060200194505050565b600060208284031215610ab757600080fd5b610584826109ab565b600060208284031215610ad257600080fd5b813567ffffffffffffffff8116811461058457600080fd5b600060208284031215610afc57600080fd5b813563ffffffff8116811461058457600080fd5b6001600160801b038116811461040a57600080fd5b60008060008060808587031215610b3b57600080fd5b845193506020850151610b4d81610b10565b6040860151909350610b5e81610b10565b6060860151909250610b6f81610b10565b939692955090935050565b600060208284031215610b8c57600080fd5b813561ffff8116811461058457600080fd5b600060208284031215610bb057600080fd5b813561058481610b10565b634e487b7160e01b600052601160045260246000fd5b808202811582820484141761051957610519610bbb565b634e487b7160e01b600052601260045260246000fd5b600082610c0d57610c0d610be8565b500690565b8181038181111561051957610519610bbb565b8082018082111561051957610519610bbb565b600082610c4757610c47610be8565b500490565b60008085851115610c5c57600080fd5b83861115610c6957600080fd5b5050820193919092039150565b6001600160f01b03198135818116916002851015610c9e5780818660020360031b1b83161692505b505092915050565b634e487b7160e01b600052603260045260246000fd5b600060208284031215610cce57600080fd5b8151801515811461058457600080fd5b6000825160005b81811015610cff5760208186018101518583015201610ce5565b50600092019182525091905056fea264697066735822122086033be5ed1353d2872ec80e28b49099528277275afaa010bccae47b71fa3a9464736f6c63430008160033",
    "linkReferences": {}
  },
  "methodIdentifiers": {
    "getFee((address,uint32,uint64,address,uint64,uint16),(uint64,uint16,uint128),bytes)": "7bfa20a9",
    "getFeeOnSend((address,uint32,uint64,address,uint64,uint16),(uint64,uint16,uint128),bytes)": "df2b057e",
    "owner()": "8da5cb5b",
    "renounceOwnership()": "715018a6",
    "transferOwnership(address)": "f2fde38b",
    "withdrawToken(address,address,uint256)": "01e33667"
  },
  "id": 67
}