{
  "address": "0x2F5e9dF13AF5A94a0b5f80C228e398928B11ee36",
  "abi": [
    {
      "inputs": [
        {
          "internalType": "address",
          "name": "_receiveUln",
          "type": "address"
        },
        {
          "internalType": "uint32",
          "name": "_localEid",
          "type": "uint32"
        }
      ],
      "stateMutability": "nonpayable",
      "type": "constructor"
    },
    {
      "inputs": [
        {
          "internalType": "uint32",
          "name": "expected",
          "type": "uint32"
        },
        {
          "internalType": "uint32",
          "name": "got",
          "type": "uint32"
        }
      ],
      "name": "InvalidLocalEid",
      "type": "error"
    },
    {
      "inputs": [
        {
          "internalType": "address",
          "name": "owner",
          "type": "address"
        }
      ],
      "name": "OwnableInvalidOwner",
      "type": "error"
    },
    {
      "inputs": [
        {
          "internalType": "address",
          "name": "account",
          "type": "address"
        }
      ],
      "name": "OwnableUnauthorizedAccount",
      "type": "error"
    },
    {
      "anonymous": false,
      "inputs": [
        {
          "indexed": true,
          "internalType": "address",
          "name": "previousOwner",
          "type": "address"
        },
        {
          "indexed": true,
          "internalType": "address",
          "name": "newOwner",
          "type": "address"
        }
      ],
      "name": "OwnershipTransferred",
      "type": "event"
    },
    {
      "anonymous": false,
      "inputs": [
        {
          "indexed": true,
          "internalType": "bytes32",
          "name": "guid",
          "type": "bytes32"
        }
      ],
      "name": "PayloadCommitted",
      "type": "event"
    },
    {
      "anonymous": false,
      "inputs": [
        {
          "indexed": true,
          "internalType": "bytes32",
          "name": "guid",
          "type": "bytes32"
        }
      ],
      "name": "PayloadVerified",
      "type": "event"
    },
    {
      "inputs": [],
      "name": "PACKET_VERSION",
      "outputs": [
        {
          "internalType": "uint8",
          "name": "",
          "type": "uint8"
        }
      ],
      "stateMutability": "view",
      "type": "function"
    },
    {
      "inputs": [
        {
          "components": [
            {
              "internalType": "uint32",
              "name": "dstEid",
              "type": "uint32"
            },
            {
              "internalType": "bytes",
              "name": "packetHeader",
              "type": "bytes"
            },
            {
              "internalType": "bytes32",
              "name": "payloadHash",
              "type": "bytes32"
            },
            {
              "internalType": "uint64",
              "name": "confirmations",
              "type": "uint64"
            },
            {
              "internalType": "address",
              "name": "sender",
              "type": "address"
            }
          ],
          "internalType": "struct ILayerZeroDVN.AssignJobParam",
          "name": "_param",
          "type": "tuple"
        },
        {
          "internalType": "bytes",
          "name": "_options",
          "type": "bytes"
        }
      ],
      "name": "assignJob",
      "outputs": [
        {
          "internalType": "uint256",
          "name": "fee",
          "type": "uint256"
        }
      ],
      "stateMutability": "payable",
      "type": "function"
    },
    {
      "inputs": [
        {
          "internalType": "bytes",
          "name": "_message",
          "type": "bytes"
        },
        {
          "internalType": "uint64",
          "name": "_nonce",
          "type": "uint64"
        },
        {
          "internalType": "uint32",
          "name": "_srcEid",
          "type": "uint32"
        },
        {
          "internalType": "bytes32",
          "name": "_remoteOApp",
          "type": "bytes32"
        },
        {
          "internalType": "uint32",
          "name": "_dstEid",
          "type": "uint32"
        },
        {
          "internalType": "address",
          "name": "_localOApp",
          "type": "address"
        }
      ],
      "name": "commit",
      "outputs": [],
      "stateMutability": "nonpayable",
      "type": "function"
    },
    {
      "inputs": [
        {
          "internalType": "uint32",
          "name": "_dstEid",
          "type": "uint32"
        },
        {
          "internalType": "uint64",
          "name": "_confirmations",
          "type": "uint64"
        },
        {
          "internalType": "address",
          "name": "_sender",
          "type": "address"
        },
        {
          "internalType": "bytes",
          "name": "_options",
          "type": "bytes"
        }
      ],
      "name": "getFee",
      "outputs": [
        {
          "internalType": "uint256",
          "name": "fee",
          "type": "uint256"
        }
      ],
      "stateMutability": "pure",
      "type": "function"
    },
    {
      "inputs": [],
      "name": "localEid",
      "outputs": [
        {
          "internalType": "uint32",
          "name": "",
          "type": "uint32"
        }
      ],
      "stateMutability": "view",
      "type": "function"
    },
    {
      "inputs": [],
      "name": "owner",
      "outputs": [
        {
          "internalType": "address",
          "name": "",
          "type": "address"
        }
      ],
      "stateMutability": "view",
      "type": "function"
    },
    {
      "inputs": [],
      "name": "receiveUln",
      "outputs": [
        {
          "internalType": "contract IReceiveUlnE2",
          "name": "",
          "type": "address"
        }
      ],
      "stateMutability": "view",
      "type": "function"
    },
    {
      "inputs": [],
      "name": "renounceOwnership",
      "outputs": [],
      "stateMutability": "nonpayable",
      "type": "function"
    },
    {
      "inputs": [
        {
          "internalType": "address",
          "name": "newOwner",
          "type": "address"
        }
      ],
      "name": "transferOwnership",
      "outputs": [],
      "stateMutability": "nonpayable",
      "type": "function"
    },
    {
      "inputs": [
        {
          "internalType": "bytes",
          "name": "_message",
          "type": "bytes"
        },
        {
          "internalType": "uint64",
          "name": "_nonce",
          "type": "uint64"
        },
        {
          "internalType": "uint32",
          "name": "_srcEid",
          "type": "uint32"
        },
        {
          "internalType": "bytes32",
          "name": "_remoteOApp",
          "type": "bytes32"
        },
        {
          "internalType": "uint32",
          "name": "_dstEid",
          "type": "uint32"
        },
        {
          "internalType": "address",
          "name": "_localOApp",
          "type": "address"
        }
      ],
      "name": "verify",
      "outputs": [],
      "stateMutability": "nonpayable",
      "type": "function"
    }
  ],
  "transactionHash": "0xfaf7c8e365954a3a8658030246dfdfd4513b565c8bd1a6795f37a9c0f4f5ea67",
  "args": [
    "0x9284fd59B95b9143AF0b9795CAC16eb3C723C9Ca",
    40232
  ],
  "numDeployments": 1,
  "solcInputHash": "39aba29357b30f2bdc6acee3fb6fb59b",
  "bytecode": "0x60c060405234801561001057600080fd5b50604051610be8380380610be883398101604081905261002f916100cb565b338061005557604051631e4fbdf760e01b81526000600482015260240160405180910390fd5b61005e8161007b565b506001600160a01b0390911660a05263ffffffff1660805261011a565b600080546001600160a01b038381166001600160a01b0319831681178455604051919092169283917f8be0079c531659141344cd1fd0a4f28419497f9722a3daafe3b4186f6b6457e09190a35050565b600080604083850312156100de57600080fd5b82516001600160a01b03811681146100f557600080fd5b602084015190925063ffffffff8116811461010f57600080fd5b809150509250929050565b60805160a051610a7f610169600039600081816101f1015281816102d9015261047901526000818161015f0152818161023d01528181610282015281816103e201526104270152610a7f6000f3fe6080604052600436106100915760003560e01c80637260753711610059578063726075371461014d5780638da5cb5b1461019657806395d376d7146101c8578063e49ca471146101df578063f2fde38b1461021357600080fd5b80631584d19b1461009657806330bb3aac146100b85780635fc45b7f146100f15780636251b63714610111578063715018a614610138575b600080fd5b3480156100a257600080fd5b506100b66100b13660046107e5565b610233565b005b3480156100c457600080fd5b506100de6100d3366004610875565b600195945050505050565b6040519081526020015b60405180910390f35b3480156100fd57600080fd5b506100b661010c3660046107e5565b6103d8565b34801561011d57600080fd5b50610126600181565b60405160ff90911681526020016100e8565b34801561014457600080fd5b506100b661057b565b34801561015957600080fd5b506101817f000000000000000000000000000000000000000000000000000000000000000081565b60405163ffffffff90911681526020016100e8565b3480156101a257600080fd5b506000546001600160a01b03165b6040516001600160a01b0390911681526020016100e8565b6100de6101d63660046108eb565b60019392505050565b3480156101eb57600080fd5b506101b07f000000000000000000000000000000000000000000000000000000000000000081565b34801561021f57600080fd5b506100b661022e36600461095c565b61058f565b61023b6105cd565b7f000000000000000000000000000000000000000000000000000000000000000063ffffffff168263ffffffff16146102bc5760405163fa4f8e1960e01b815263ffffffff7f000000000000000000000000000000000000000000000000000000000000000081166004830152831660248201526044015b60405180910390fd5b6001600160a01b03811660006102d587878787866105fa565b90507f00000000000000000000000000000000000000000000000000000000000000006001600160a01b0316630894edf16103138989898988610664565b610353848d8d8080601f0160208091040260200160405190810160405280939291908181526020018383808284376000920191909152506106d192505050565b6040518363ffffffff1660e01b81526004016103709291906109ce565b600060405180830381600087803b15801561038a57600080fd5b505af115801561039e573d6000803e3d6000fd5b50506040518392507fa0cdf9e984005f961ea4efe52816d8db593b6dc4fd8eebdd455e73f6fe16f35e9150600090a2505050505050505050565b6103e06105cd565b7f000000000000000000000000000000000000000000000000000000000000000063ffffffff168263ffffffff161461045c5760405163fa4f8e1960e01b815263ffffffff7f000000000000000000000000000000000000000000000000000000000000000081166004830152831660248201526044016102b3565b6001600160a01b038116600061047587878787866105fa565b90507f00000000000000000000000000000000000000000000000000000000000000006001600160a01b0316630223536e6104b38989898988610664565b6104f3848d8d8080601f0160208091040260200160405190810160405280939291908181526020018383808284376000920191909152506106d192505050565b60016040518463ffffffff1660e01b8152600401610513939291906109f0565b600060405180830381600087803b15801561052d57600080fd5b505af1158015610541573d6000803e3d6000fd5b50506040518392507fa16c6366b8d58043f141d627e3a04a5b360d2b9d619bfe2a9fe8026ed6996c829150600090a2505050505050505050565b6105836105cd565b61058d6000610704565b565b6105976105cd565b6001600160a01b0381166105c157604051631e4fbdf760e01b8152600060048201526024016102b3565b6105ca81610704565b50565b6000546001600160a01b0316331461058d5760405163118cdaa760e01b81523360048201526024016102b3565b6040516001600160c01b031960c087901b1660208201526001600160e01b031960e086811b82166028840152602c830186905284901b16604c8201526050810182905260009060700160405160208183030381529060405280519060200120905095945050505050565b604051600160f81b60208201526001600160c01b031960c087901b1660218201526001600160e01b031960e086811b82166029840152602d830186905284901b16604d82015260518101829052606090607101604051602081830303815290604052905095945050505050565b600082826040516020016106e6929190610a23565b60405160208183030381529060405280519060200120905092915050565b600080546001600160a01b038381166001600160a01b0319831681178455604051919092169283917f8be0079c531659141344cd1fd0a4f28419497f9722a3daafe3b4186f6b6457e09190a35050565b60008083601f84011261076657600080fd5b50813567ffffffffffffffff81111561077e57600080fd5b60208301915083602082850101111561079657600080fd5b9250929050565b803567ffffffffffffffff811681146107b557600080fd5b919050565b803563ffffffff811681146107b557600080fd5b80356001600160a01b03811681146107b557600080fd5b600080600080600080600060c0888a03121561080057600080fd5b873567ffffffffffffffff81111561081757600080fd5b6108238a828b01610754565b909850965061083690506020890161079d565b9450610844604089016107ba565b935060608801359250610859608089016107ba565b915061086760a089016107ce565b905092959891949750929550565b60008060008060006080868803121561088d57600080fd5b610896866107ba565b94506108a46020870161079d565b93506108b2604087016107ce565b9250606086013567ffffffffffffffff8111156108ce57600080fd5b6108da88828901610754565b969995985093965092949392505050565b60008060006040848603121561090057600080fd5b833567ffffffffffffffff8082111561091857600080fd5b9085019060a0828803121561092c57600080fd5b9093506020850135908082111561094257600080fd5b5061094f86828701610754565b9497909650939450505050565b60006020828403121561096e57600080fd5b610977826107ce565b9392505050565b60005b83811015610999578181015183820152602001610981565b50506000910152565b600081518084526109ba81602086016020860161097e565b601f01601f19169290920160200192915050565b6040815260006109e160408301856109a2565b90508260208301529392505050565b606081526000610a0360608301866109a2565b905083602083015267ffffffffffffffff83166040830152949350505050565b82815260008251610a3b81602085016020870161097e565b91909101602001939250505056fea26469706673582212203fdc0809ae5a5fd0b6016dd19f329bfd60aec11305ce14cdc84d89362147221364736f6c63430008160033",
  "devdoc": {
    "details": "We accept sender and receiver as bytes32 to handle arbitrary remote address formats.",
    "errors": {
      "OwnableInvalidOwner(address)": [
        {
          "details": "The owner is not a valid owner account. (eg. `address(0)`)"
        }
      ],
      "OwnableUnauthorizedAccount(address)": [
        {
          "details": "The caller account is not authorized to perform an operation."
        }
      ]
    },
    "kind": "dev",
    "methods": {
      "assignJob((uint32,bytes,bytes32,uint64,address),bytes)": {
        "details": "Returns a minimal fee and doesn't actually assign any job"
      },
      "commit(bytes,uint64,uint32,bytes32,uint32,address)": {
        "details": "Accepts all address fields as bytes32 to support non-EVM senders (e.g. Solana pubkeys).",
        "params": {
          "_dstEid": "Destination chain EID (should match contract's localEid)",
          "_localOApp": "Receiver address on this chain (standard EVM address)",
          "_message": "Raw message (e.g., v1 OFT send: [PT_SEND || receiver || amountSD])",
          "_nonce": "LayerZero channel nonce",
          "_remoteOApp": "Sender address on source chain as bytes32 (no casting)",
          "_srcEid": "Source chain EID"
        }
      },
      "constructor": {
        "params": {
          "_localEid": "EID of this chain (receive/destination side)",
          "_receiveUln": "Address of this chain's deployed ReceiveUln302"
        }
      },
      "getFee(uint32,uint64,address,bytes)": {
        "details": "Returns a minimal fee for testing purposes"
      },
      "owner()": {
        "details": "Returns the address of the current owner."
      },
      "renounceOwnership()": {
        "details": "Leaves the contract without owner. It will not be possible to call `onlyOwner` functions. Can only be called by the current owner. NOTE: Renouncing ownership will leave the contract without an owner, thereby disabling any functionality that is only available to the owner."
      },
      "transferOwnership(address)": {
        "details": "Transfers ownership of the contract to a new account (`newOwner`). Can only be called by the current owner."
      },
      "verify(bytes,uint64,uint32,bytes32,uint32,address)": {
        "details": "This is the first function that should be called in the message verification process.Accepts all address fields as bytes32 to support non-EVM senders (e.g. Solana pubkeys).",
        "params": {
          "_dstEid": "Destination chain EID (should match contract’s localEid)",
          "_localOApp": "Receiver address on this chain (standard EVM address)",
          "_message": "Raw message (e.g., v1 OFT send: [PT_SEND || receiver || amountSD])",
          "_nonce": "LayerZero channel nonce",
          "_remoteOApp": "Sender address on source chain as bytes32 (no casting)",
          "_srcEid": "Source chain EID"
        }
      }
    },
    "title": "SimpleDVNMock",
    "version": 1
  },
  "userdoc": {
    "kind": "user",
    "methods": {
      "assignJob((uint32,bytes,bytes32,uint64,address),bytes)": {
        "notice": "Assign job and return fee (mock implementation)"
      },
      "commit(bytes,uint64,uint32,bytes32,uint32,address)": {
        "notice": "Manually commits a packet for execution."
      },
      "getFee(uint32,uint64,address,bytes)": {
        "notice": "Get the fee for DVN services (mock implementation)"
      },
      "verify(bytes,uint64,uint32,bytes32,uint32,address)": {
        "notice": "Manually verifies a packet sent to this chain."
      }
    },
    "notice": "A minimal DVN for manually verifying messages, for development use on testnets. Not for production. Deploy this on the destination chain.",
    "version": 1
  },
  "storageLayout": {
    "storage": [
      {
        "astId": 30,
        "contract": "contracts/mocks/SimpleDVNMock.sol:SimpleDVNMock",
        "label": "_owner",
        "offset": 0,
        "slot": "0",
        "type": "t_address"
      }
    ],
    "types": {
      "t_address": {
        "encoding": "inplace",
        "label": "address",
        "numberOfBytes": "20"
      }
    }
  }
}