{
  "address": "0xAc40e69e4808E28B59f619d353Bb7fb83AD7Cc87",
  "abi": [
    {
      "inputs": [
        {
          "internalType": "address",
          "name": "_endpoint",
          "type": "address"
        },
        {
          "internalType": "uint32",
          "name": "_readChannel",
          "type": "uint32"
        }
      ],
      "stateMutability": "nonpayable",
      "type": "constructor"
    },
    {
      "inputs": [
        {
          "internalType": "address",
          "name": "target",
          "type": "address"
        }
      ],
      "name": "AddressEmptyCode",
      "type": "error"
    },
    {
      "inputs": [
        {
          "internalType": "address",
          "name": "account",
          "type": "address"
        }
      ],
      "name": "AddressInsufficientBalance",
      "type": "error"
    },
    {
      "inputs": [],
      "name": "FailedInnerCall",
      "type": "error"
    },
    {
      "inputs": [],
      "name": "InvalidDelegate",
      "type": "error"
    },
    {
      "inputs": [],
      "name": "InvalidEndpointCall",
      "type": "error"
    },
    {
      "inputs": [
        {
          "internalType": "bytes",
          "name": "options",
          "type": "bytes"
        }
      ],
      "name": "InvalidOptions",
      "type": "error"
    },
    {
      "inputs": [],
      "name": "LzTokenUnavailable",
      "type": "error"
    },
    {
      "inputs": [
        {
          "internalType": "uint32",
          "name": "eid",
          "type": "uint32"
        }
      ],
      "name": "NoPeer",
      "type": "error"
    },
    {
      "inputs": [
        {
          "internalType": "uint256",
          "name": "msgValue",
          "type": "uint256"
        }
      ],
      "name": "NotEnoughNative",
      "type": "error"
    },
    {
      "inputs": [
        {
          "internalType": "address",
          "name": "addr",
          "type": "address"
        }
      ],
      "name": "OnlyEndpoint",
      "type": "error"
    },
    {
      "inputs": [
        {
          "internalType": "uint32",
          "name": "eid",
          "type": "uint32"
        },
        {
          "internalType": "bytes32",
          "name": "sender",
          "type": "bytes32"
        }
      ],
      "name": "OnlyPeer",
      "type": "error"
    },
    {
      "inputs": [
        {
          "internalType": "address",
          "name": "owner",
          "type": "address"
        }
      ],
      "name": "OwnableInvalidOwner",
      "type": "error"
    },
    {
      "inputs": [
        {
          "internalType": "address",
          "name": "account",
          "type": "address"
        }
      ],
      "name": "OwnableUnauthorizedAccount",
      "type": "error"
    },
    {
      "inputs": [
        {
          "internalType": "uint8",
          "name": "bits",
          "type": "uint8"
        },
        {
          "internalType": "uint256",
          "name": "value",
          "type": "uint256"
        }
      ],
      "name": "SafeCastOverflowedUintDowncast",
      "type": "error"
    },
    {
      "inputs": [
        {
          "internalType": "address",
          "name": "token",
          "type": "address"
        }
      ],
      "name": "SafeERC20FailedOperation",
      "type": "error"
    },
    {
      "anonymous": false,
      "inputs": [
        {
          "indexed": false,
          "internalType": "uint256",
          "name": "averagePrice",
          "type": "uint256"
        }
      ],
      "name": "AggregatedPrice",
      "type": "event"
    },
    {
      "anonymous": false,
      "inputs": [
        {
          "components": [
            {
              "internalType": "uint32",
              "name": "eid",
              "type": "uint32"
            },
            {
              "internalType": "uint16",
              "name": "msgType",
              "type": "uint16"
            },
            {
              "internalType": "bytes",
              "name": "options",
              "type": "bytes"
            }
          ],
          "indexed": false,
          "internalType": "struct EnforcedOptionParam[]",
          "name": "_enforcedOptions",
          "type": "tuple[]"
        }
      ],
      "name": "EnforcedOptionSet",
      "type": "event"
    },
    {
      "anonymous": false,
      "inputs": [
        {
          "indexed": true,
          "internalType": "address",
          "name": "previousOwner",
          "type": "address"
        },
        {
          "indexed": true,
          "internalType": "address",
          "name": "newOwner",
          "type": "address"
        }
      ],
      "name": "OwnershipTransferred",
      "type": "event"
    },
    {
      "anonymous": false,
      "inputs": [
        {
          "indexed": false,
          "internalType": "uint32",
          "name": "eid",
          "type": "uint32"
        },
        {
          "indexed": false,
          "internalType": "bytes32",
          "name": "peer",
          "type": "bytes32"
        }
      ],
      "name": "PeerSet",
      "type": "event"
    },
    {
      "inputs": [],
      "name": "CHAIN_A_EID",
      "outputs": [
        {
          "internalType": "uint32",
          "name": "",
          "type": "uint32"
        }
      ],
      "stateMutability": "view",
      "type": "function"
    },
    {
      "inputs": [],
      "name": "CHAIN_A_FEE",
      "outputs": [
        {
          "internalType": "uint24",
          "name": "",
          "type": "uint24"
        }
      ],
      "stateMutability": "view",
      "type": "function"
    },
    {
      "inputs": [],
      "name": "CHAIN_A_QUOTER",
      "outputs": [
        {
          "internalType": "address",
          "name": "",
          "type": "address"
        }
      ],
      "stateMutability": "view",
      "type": "function"
    },
    {
      "inputs": [],
      "name": "CHAIN_A_USDC",
      "outputs": [
        {
          "internalType": "address",
          "name": "",
          "type": "address"
        }
      ],
      "stateMutability": "view",
      "type": "function"
    },
    {
      "inputs": [],
      "name": "CHAIN_A_WETH",
      "outputs": [
        {
          "internalType": "address",
          "name": "",
          "type": "address"
        }
      ],
      "stateMutability": "view",
      "type": "function"
    },
    {
      "inputs": [],
      "name": "CHAIN_B_EID",
      "outputs": [
        {
          "internalType": "uint32",
          "name": "",
          "type": "uint32"
        }
      ],
      "stateMutability": "view",
      "type": "function"
    },
    {
      "inputs": [],
      "name": "CHAIN_B_FEE",
      "outputs": [
        {
          "internalType": "uint24",
          "name": "",
          "type": "uint24"
        }
      ],
      "stateMutability": "view",
      "type": "function"
    },
    {
      "inputs": [],
      "name": "CHAIN_B_QUOTER",
      "outputs": [
        {
          "internalType": "address",
          "name": "",
          "type": "address"
        }
      ],
      "stateMutability": "view",
      "type": "function"
    },
    {
      "inputs": [],
      "name": "CHAIN_B_USDC",
      "outputs": [
        {
          "internalType": "address",
          "name": "",
          "type": "address"
        }
      ],
      "stateMutability": "view",
      "type": "function"
    },
    {
      "inputs": [],
      "name": "CHAIN_B_WETH",
      "outputs": [
        {
          "internalType": "address",
          "name": "",
          "type": "address"
        }
      ],
      "stateMutability": "view",
      "type": "function"
    },
    {
      "inputs": [],
      "name": "CHAIN_C_EID",
      "outputs": [
        {
          "internalType": "uint32",
          "name": "",
          "type": "uint32"
        }
      ],
      "stateMutability": "view",
      "type": "function"
    },
    {
      "inputs": [],
      "name": "CHAIN_C_FEE",
      "outputs": [
        {
          "internalType": "uint24",
          "name": "",
          "type": "uint24"
        }
      ],
      "stateMutability": "view",
      "type": "function"
    },
    {
      "inputs": [],
      "name": "CHAIN_C_QUOTER",
      "outputs": [
        {
          "internalType": "address",
          "name": "",
          "type": "address"
        }
      ],
      "stateMutability": "view",
      "type": "function"
    },
    {
      "inputs": [],
      "name": "CHAIN_C_USDC",
      "outputs": [
        {
          "internalType": "address",
          "name": "",
          "type": "address"
        }
      ],
      "stateMutability": "view",
      "type": "function"
    },
    {
      "inputs": [],
      "name": "CHAIN_C_WETH",
      "outputs": [
        {
          "internalType": "address",
          "name": "",
          "type": "address"
        }
      ],
      "stateMutability": "view",
      "type": "function"
    },
    {
      "inputs": [],
      "name": "READ_CHANNEL",
      "outputs": [
        {
          "internalType": "uint32",
          "name": "",
          "type": "uint32"
        }
      ],
      "stateMutability": "view",
      "type": "function"
    },
    {
      "inputs": [
        {
          "components": [
            {
              "internalType": "uint32",
              "name": "srcEid",
              "type": "uint32"
            },
            {
              "internalType": "bytes32",
              "name": "sender",
              "type": "bytes32"
            },
            {
              "internalType": "uint64",
              "name": "nonce",
              "type": "uint64"
            }
          ],
          "internalType": "struct Origin",
          "name": "origin",
          "type": "tuple"
        }
      ],
      "name": "allowInitializePath",
      "outputs": [
        {
          "internalType": "bool",
          "name": "",
          "type": "bool"
        }
      ],
      "stateMutability": "view",
      "type": "function"
    },
    {
      "inputs": [
        {
          "internalType": "uint32",
          "name": "",
          "type": "uint32"
        }
      ],
      "name": "chainConfigs",
      "outputs": [
        {
          "internalType": "uint16",
          "name": "confirmations",
          "type": "uint16"
        },
        {
          "internalType": "address",
          "name": "quoterAddress",
          "type": "address"
        },
        {
          "internalType": "address",
          "name": "tokenInAddress",
          "type": "address"
        },
        {
          "internalType": "address",
          "name": "tokenOutAddress",
          "type": "address"
        },
        {
          "internalType": "uint24",
          "name": "fee",
          "type": "uint24"
        }
      ],
      "stateMutability": "view",
      "type": "function"
    },
    {
      "inputs": [
        {
          "internalType": "uint32",
          "name": "_eid",
          "type": "uint32"
        },
        {
          "internalType": "uint16",
          "name": "_msgType",
          "type": "uint16"
        },
        {
          "internalType": "bytes",
          "name": "_extraOptions",
          "type": "bytes"
        }
      ],
      "name": "combineOptions",
      "outputs": [
        {
          "internalType": "bytes",
          "name": "",
          "type": "bytes"
        }
      ],
      "stateMutability": "view",
      "type": "function"
    },
    {
      "inputs": [],
      "name": "endpoint",
      "outputs": [
        {
          "internalType": "contract ILayerZeroEndpointV2",
          "name": "",
          "type": "address"
        }
      ],
      "stateMutability": "view",
      "type": "function"
    },
    {
      "inputs": [
        {
          "internalType": "uint32",
          "name": "eid",
          "type": "uint32"
        },
        {
          "internalType": "uint16",
          "name": "msgType",
          "type": "uint16"
        }
      ],
      "name": "enforcedOptions",
      "outputs": [
        {
          "internalType": "bytes",
          "name": "enforcedOption",
          "type": "bytes"
        }
      ],
      "stateMutability": "view",
      "type": "function"
    },
    {
      "inputs": [],
      "name": "getCmd",
      "outputs": [
        {
          "internalType": "bytes",
          "name": "",
          "type": "bytes"
        }
      ],
      "stateMutability": "view",
      "type": "function"
    },
    {
      "inputs": [
        {
          "components": [
            {
              "internalType": "uint32",
              "name": "srcEid",
              "type": "uint32"
            },
            {
              "internalType": "bytes32",
              "name": "sender",
              "type": "bytes32"
            },
            {
              "internalType": "uint64",
              "name": "nonce",
              "type": "uint64"
            }
          ],
          "internalType": "struct Origin",
          "name": "",
          "type": "tuple"
        },
        {
          "internalType": "bytes",
          "name": "",
          "type": "bytes"
        },
        {
          "internalType": "address",
          "name": "_sender",
          "type": "address"
        }
      ],
      "name": "isComposeMsgSender",
      "outputs": [
        {
          "internalType": "bool",
          "name": "",
          "type": "bool"
        }
      ],
      "stateMutability": "view",
      "type": "function"
    },
    {
      "inputs": [
        {
          "internalType": "bytes",
          "name": "",
          "type": "bytes"
        },
        {
          "internalType": "bytes",
          "name": "_response",
          "type": "bytes"
        }
      ],
      "name": "lzMap",
      "outputs": [
        {
          "internalType": "bytes",
          "name": "",
          "type": "bytes"
        }
      ],
      "stateMutability": "pure",
      "type": "function"
    },
    {
      "inputs": [
        {
          "components": [
            {
              "internalType": "uint32",
              "name": "srcEid",
              "type": "uint32"
            },
            {
              "internalType": "bytes32",
              "name": "sender",
              "type": "bytes32"
            },
            {
              "internalType": "uint64",
              "name": "nonce",
              "type": "uint64"
            }
          ],
          "internalType": "struct Origin",
          "name": "_origin",
          "type": "tuple"
        },
        {
          "internalType": "bytes32",
          "name": "_guid",
          "type": "bytes32"
        },
        {
          "internalType": "bytes",
          "name": "_message",
          "type": "bytes"
        },
        {
          "internalType": "address",
          "name": "_executor",
          "type": "address"
        },
        {
          "internalType": "bytes",
          "name": "_extraData",
          "type": "bytes"
        }
      ],
      "name": "lzReceive",
      "outputs": [],
      "stateMutability": "payable",
      "type": "function"
    },
    {
      "inputs": [
        {
          "internalType": "bytes",
          "name": "",
          "type": "bytes"
        },
        {
          "internalType": "bytes[]",
          "name": "_responses",
          "type": "bytes[]"
        }
      ],
      "name": "lzReduce",
      "outputs": [
        {
          "internalType": "bytes",
          "name": "",
          "type": "bytes"
        }
      ],
      "stateMutability": "pure",
      "type": "function"
    },
    {
      "inputs": [
        {
          "internalType": "uint32",
          "name": "",
          "type": "uint32"
        },
        {
          "internalType": "bytes32",
          "name": "",
          "type": "bytes32"
        }
      ],
      "name": "nextNonce",
      "outputs": [
        {
          "internalType": "uint64",
          "name": "nonce",
          "type": "uint64"
        }
      ],
      "stateMutability": "view",
      "type": "function"
    },
    {
      "inputs": [],
      "name": "oAppVersion",
      "outputs": [
        {
          "internalType": "uint64",
          "name": "senderVersion",
          "type": "uint64"
        },
        {
          "internalType": "uint64",
          "name": "receiverVersion",
          "type": "uint64"
        }
      ],
      "stateMutability": "pure",
      "type": "function"
    },
    {
      "inputs": [],
      "name": "owner",
      "outputs": [
        {
          "internalType": "address",
          "name": "",
          "type": "address"
        }
      ],
      "stateMutability": "view",
      "type": "function"
    },
    {
      "inputs": [
        {
          "internalType": "uint32",
          "name": "eid",
          "type": "uint32"
        }
      ],
      "name": "peers",
      "outputs": [
        {
          "internalType": "bytes32",
          "name": "peer",
          "type": "bytes32"
        }
      ],
      "stateMutability": "view",
      "type": "function"
    },
    {
      "inputs": [
        {
          "internalType": "bytes",
          "name": "_extraOptions",
          "type": "bytes"
        },
        {
          "internalType": "bool",
          "name": "_payInLzToken",
          "type": "bool"
        }
      ],
      "name": "quoteAverageUniswapPrice",
      "outputs": [
        {
          "components": [
            {
              "internalType": "uint256",
              "name": "nativeFee",
              "type": "uint256"
            },
            {
              "internalType": "uint256",
              "name": "lzTokenFee",
              "type": "uint256"
            }
          ],
          "internalType": "struct MessagingFee",
          "name": "fee",
          "type": "tuple"
        }
      ],
      "stateMutability": "view",
      "type": "function"
    },
    {
      "inputs": [
        {
          "internalType": "bytes",
          "name": "_extraOptions",
          "type": "bytes"
        }
      ],
      "name": "readAverageUniswapPrice",
      "outputs": [
        {
          "components": [
            {
              "internalType": "bytes32",
              "name": "guid",
              "type": "bytes32"
            },
            {
              "internalType": "uint64",
              "name": "nonce",
              "type": "uint64"
            },
            {
              "components": [
                {
                  "internalType": "uint256",
                  "name": "nativeFee",
                  "type": "uint256"
                },
                {
                  "internalType": "uint256",
                  "name": "lzTokenFee",
                  "type": "uint256"
                }
              ],
              "internalType": "struct MessagingFee",
              "name": "fee",
              "type": "tuple"
            }
          ],
          "internalType": "struct MessagingReceipt",
          "name": "receipt",
          "type": "tuple"
        }
      ],
      "stateMutability": "payable",
      "type": "function"
    },
    {
      "inputs": [],
      "name": "renounceOwnership",
      "outputs": [],
      "stateMutability": "nonpayable",
      "type": "function"
    },
    {
      "inputs": [
        {
          "internalType": "address",
          "name": "_delegate",
          "type": "address"
        }
      ],
      "name": "setDelegate",
      "outputs": [],
      "stateMutability": "nonpayable",
      "type": "function"
    },
    {
      "inputs": [
        {
          "components": [
            {
              "internalType": "uint32",
              "name": "eid",
              "type": "uint32"
            },
            {
              "internalType": "uint16",
              "name": "msgType",
              "type": "uint16"
            },
            {
              "internalType": "bytes",
              "name": "options",
              "type": "bytes"
            }
          ],
          "internalType": "struct EnforcedOptionParam[]",
          "name": "_enforcedOptions",
          "type": "tuple[]"
        }
      ],
      "name": "setEnforcedOptions",
      "outputs": [],
      "stateMutability": "nonpayable",
      "type": "function"
    },
    {
      "inputs": [
        {
          "internalType": "uint32",
          "name": "_eid",
          "type": "uint32"
        },
        {
          "internalType": "bytes32",
          "name": "_peer",
          "type": "bytes32"
        }
      ],
      "name": "setPeer",
      "outputs": [],
      "stateMutability": "nonpayable",
      "type": "function"
    },
    {
      "inputs": [
        {
          "internalType": "uint32",
          "name": "_channelId",
          "type": "uint32"
        },
        {
          "internalType": "bool",
          "name": "_active",
          "type": "bool"
        }
      ],
      "name": "setReadChannel",
      "outputs": [],
      "stateMutability": "nonpayable",
      "type": "function"
    },
    {
      "inputs": [
        {
          "internalType": "uint256",
          "name": "",
          "type": "uint256"
        }
      ],
      "name": "targetEids",
      "outputs": [
        {
          "internalType": "uint32",
          "name": "",
          "type": "uint32"
        }
      ],
      "stateMutability": "view",
      "type": "function"
    },
    {
      "inputs": [
        {
          "internalType": "address",
          "name": "newOwner",
          "type": "address"
        }
      ],
      "name": "transferOwnership",
      "outputs": [],
      "stateMutability": "nonpayable",
      "type": "function"
    },
    {
      "stateMutability": "payable",
      "type": "receive"
    }
  ],
  "transactionHash": "0x449a93044f58eee8ec7aa21433ab53fe33e49e74d27695c0d84600fcf4c657d3",
  "args": [
    "0x1a44076050125825900e736c501f859c50fE728c",
    4294967295
  ],
  "numDeployments": 3,
  "solcInputHash": "13e8677d551007d6cfb8c5c05b8ab79a",
  "bytecode": "0x60a06040523480156200001157600080fd5b50604051620031f6380380620031f6833981016040819052620000349162000783565b81338181818180806200006157604051631e4fbdf760e01b81526000600482015260240160405180910390fd5b6200006c81620006d2565b506001600160a01b0380831660805281166200009b57604051632d618d8160e21b815260040160405180910390fd5b60805160405163ca5eb5e160e01b81526001600160a01b0383811660048301529091169063ca5eb5e190602401600060405180830381600087803b158015620000e357600080fd5b505af1158015620000f8573d6000803e3d6000fd5b5050505050505050505060006040518060a00160405280600561ffff1681526020017361ffe014ba17989e743c5f6cb21bf9697530b21e6001600160a01b0316815260200173c02aaa39b223fe8d0a0e5c4f27ead9083c756cc26001600160a01b0316815260200173a0b86991c6218b36c1d19d4a2e9eb0ce3606eb486001600160a01b03168152602001610bb862ffffff16815250905060006040518060a00160405280600561ffff168152602001733d4e44eb1374240ce5f1b871ab261cd16335b76a6001600160a01b031681526020017342000000000000000000000000000000000000066001600160a01b0316815260200173833589fcd6edb6e08f4c7c32d4f71b54bda029136001600160a01b03168152602001610bb862ffffff16815250905060006040518060a00160405280600561ffff1681526020017361ffe014ba17989e743c5f6cb21bf9697530b21e6001600160a01b031681526020017342000000000000000000000000000000000000066001600160a01b03168152602001730b2c639c533813f4aa9d7837caf62653d097ff856001600160a01b03168152602001610bb862ffffff168152509050826005600061759563ffffffff1663ffffffff16815260200190815260200160002060008201518160000160006101000a81548161ffff021916908361ffff16021790555060208201518160000160026101000a8154816001600160a01b0302191690836001600160a01b0316021790555060408201518160010160006101000a8154816001600160a01b0302191690836001600160a01b0316021790555060608201518160020160006101000a8154816001600160a01b0302191690836001600160a01b0316021790555060808201518160020160146101000a81548162ffffff021916908362ffffff160217905550905050600461759590806001815401808255809150506001900390600052602060002090600891828204019190066004029091909190916101000a81548163ffffffff021916908363ffffffff16021790555081600560006175e863ffffffff1663ffffffff16815260200190815260200160002060008201518160000160006101000a81548161ffff021916908361ffff16021790555060208201518160000160026101000a8154816001600160a01b0302191690836001600160a01b0316021790555060408201518160010160006101000a8154816001600160a01b0302191690836001600160a01b0316021790555060608201518160020160006101000a8154816001600160a01b0302191690836001600160a01b0316021790555060808201518160020160146101000a81548162ffffff021916908362ffffff16021790555090505060046175e890806001815401808255809150506001900390600052602060002090600891828204019190066004029091909190916101000a81548163ffffffff021916908363ffffffff160217905550806005600061759f63ffffffff1663ffffffff16815260200190815260200160002060008201518160000160006101000a81548161ffff021916908361ffff16021790555060208201518160000160026101000a8154816001600160a01b0302191690836001600160a01b0316021790555060408201518160010160006101000a8154816001600160a01b0302191690836001600160a01b0316021790555060608201518160020160006101000a8154816001600160a01b0302191690836001600160a01b0316021790555060808201518160020160146101000a81548162ffffff021916908362ffffff160217905550905050600461759f90806001815401808255809150506001900390600052602060002090600891828204019190066004029091909190916101000a81548163ffffffff021916908363ffffffff16021790555083600360006101000a81548163ffffffff021916908363ffffffff160217905550620006c7600360009054906101000a900463ffffffff16620006c1306200072260201b60201c565b6200072e565b5050505050620007d5565b600080546001600160a01b038381166001600160a01b0319831681178455604051919092169283917f8be0079c531659141344cd1fd0a4f28419497f9722a3daafe3b4186f6b6457e09190a35050565b6001600160a01b031690565b63ffffffff8216600081815260016020908152604091829020849055815192835282018390527f238399d427b947898edb290f5ff0f9109849b1c3ba196a42e35f00c50a54b98b910160405180910390a15050565b600080604083850312156200079757600080fd5b82516001600160a01b0381168114620007af57600080fd5b602084015190925063ffffffff81168114620007ca57600080fd5b809150509250929050565b6080516129d462000822600039600081816103d5015281816107c101528181610c8801528181610f420152818161130d015281816114cd0152818161172e01526117e701526129d46000f3fe6080604052600436106102345760003560e01c806382413eac1161012e578063ca5eb5e1116100ab578063f0a9e4811161006f578063f0a9e48114610733578063f2fde38b14610753578063fa71141514610773578063fad4e69314610789578063ff7bd03d1461079f57600080fd5b8063ca5eb5e1146106b3578063d7952561146102a7578063dad41cae146106d3578063e60c287c146106f3578063eba1cf081461071357600080fd5b8063b98bd070116100f2578063b98bd07014610610578063bb0b6a5314610630578063bc70b3541461066b578063c726d6a81461045c578063c912f2a81461068b57600080fd5b806382413eac146105855780638bac61b1146105b55780638da5cb5b146105dd578063b10c7544146105fb578063b41e27df146105b557600080fd5b80634fed291f116101bc578063715018a611610180578063715018a6146104475780637517dc1c1461045c57806379e878ef146104775780637d25a05e146104a45780637ee74058146104df57600080fd5b80634fed291f1461036e5780635535d461146103965780635e280f11146103c35780636422f84e146103f7578063682706d11461041f57600080fd5b8063217c3b9f11610203578063217c3b9f146102a757806327e04efb146102d15780633400288b146102f1578063360b2ccb146103115780633859d9371461035157600080fd5b806313137d651461024057806317442b70146102555780631b9f4e031461027c57806320056bb2146102a757600080fd5b3661023b57005b600080fd5b61025361024e366004611c3b565b6107bf565b005b34801561026157600080fd5b50604080516001815260026020820152015b60405180910390f35b34801561028857600080fd5b5061029261759581565b60405163ffffffff9091168152602001610273565b3480156102b357600080fd5b506102bd610bb881565b60405162ffffff9091168152602001610273565b6102e46102df366004611cda565b61087f565b6040516102739190611d1b565b3480156102fd57600080fd5b5061025361030c366004611d6f565b6108d5565b34801561031d57600080fd5b5061033973c02aaa39b223fe8d0a0e5c4f27ead9083c756cc281565b6040516001600160a01b039091168152602001610273565b34801561035d57600080fd5b506003546102929063ffffffff1681565b34801561037a57600080fd5b5061033973833589fcd6edb6e08f4c7c32d4f71b54bda0291381565b3480156103a257600080fd5b506103b66103b1366004611db2565b6108eb565b6040516102739190611e37565b3480156103cf57600080fd5b506103397f000000000000000000000000000000000000000000000000000000000000000081565b34801561040357600080fd5b5061033973a0b86991c6218b36c1d19d4a2e9eb0ce3606eb4881565b34801561042b57600080fd5b50610339730b2c639c533813f4aa9d7837caf62653d097ff8581565b34801561045357600080fd5b50610253610990565b34801561046857600080fd5b506103396006602160991b0181565b34801561048357600080fd5b50610497610492366004611e58565b6109a4565b6040516102739190611eae565b3480156104b057600080fd5b506104c76104bf366004611d6f565b600092915050565b6040516001600160401b039091168152602001610273565b3480156104eb57600080fd5b506105446104fa366004611ec5565b60056020526000908152604090208054600182015460029092015461ffff821692620100009092046001600160a01b039081169281169190811690600160a01b900462ffffff1685565b6040805161ffff90961686526001600160a01b0394851660208701529284169285019290925291909116606083015262ffffff16608082015260a001610273565b34801561059157600080fd5b506105a56105a0366004611ee2565b6109f1565b6040519015158152602001610273565b3480156105c157600080fd5b506103397361ffe014ba17989e743c5f6cb21bf9697530b21e81565b3480156105e957600080fd5b506000546001600160a01b0316610339565b34801561060757600080fd5b506103b6610a06565b34801561061c57600080fd5b5061025361062b366004611f8c565b610d59565b34801561063c57600080fd5b5061065d61064b366004611ec5565b60016020526000908152604090205481565b604051908152602001610273565b34801561067757600080fd5b506103b6610686366004611fc1565b610d73565b34801561069757600080fd5b50610339733d4e44eb1374240ce5f1b871ab261cd16335b76a81565b3480156106bf57600080fd5b506102536106ce366004612023565b610f1b565b3480156106df57600080fd5b506102926106ee366004612040565b610fa1565b3480156106ff57600080fd5b506103b661070e366004612059565b610fdb565b34801561071f57600080fd5b506103b661072e3660046120b8565b61106e565b34801561073f57600080fd5b5061025361074e366004612117565b611153565b34801561075f57600080fd5b5061025361076e366004612023565b61118e565b34801561077f57600080fd5b506102926175e881565b34801561079557600080fd5b5061029261759f81565b3480156107ab57600080fd5b506105a56107ba366004612150565b6111cc565b7f00000000000000000000000000000000000000000000000000000000000000006001600160a01b0316331461080f576040516391ac5e4f60e01b81523360048201526024015b60405180910390fd5b6020870180359061082990610824908a611ec5565b611202565b146108675761083b6020880188611ec5565b60405163309afaf360e21b815263ffffffff909116600482015260208801356024820152604401610806565b6108768787878787878761123e565b50505050505050565b610887611b7f565b6000610891610a06565b6003549091506108cb9063ffffffff16826108af8260018989610d73565b60405180604001604052803481526020016000815250336112da565b9150505b92915050565b6108dd6113e5565b6108e78282611412565b5050565b60026020908152600092835260408084209091529082529020805461090f9061216c565b80601f016020809104026020016040519081016040528092919081815260200182805461093b9061216c565b80156109885780601f1061095d57610100808354040283529160200191610988565b820191906000526020600020905b81548152906001019060200180831161096b57829003601f168201915b505050505081565b6109986113e5565b6109a26000611467565b565b604080518082019091526000808252602082015260006109c2610a06565b6003549091506109e69063ffffffff16826109e08260018a8a610d73565b866114b7565b9150505b9392505050565b6001600160a01b03811630145b949350505050565b6004546060906000816001600160401b03811115610a2657610a266121a0565b604051908082528060200260200182016040528015610a8f57816020015b6040805160e0810182526000808252602080830182905292820181905260608083018290526080830182905260a083019190915260c08201528252600019909201910181610a445790505b50905060005b82811015610c6e57600060048281548110610ab257610ab26121b6565b6000918252602080832060088304015463ffffffff60046007909416939093026101000a900491909116808352600582526040808420815160a08082018452825461ffff811683526001600160a01b03620100009091048116838801526001808501548216848701908152600290950154808316606080870191825262ffffff600160a01b909304831660808089019182528a519788018b529851861680885292518616878d01908152670de0b6b3a7640000888c01908152915185169288019283529887019c8d528951602481019390935297518516604483015296516064820152955116608486015297511660a4808501919091528451808503909101815260c4909301845294820180516001600160e01b0316636352813560e11b179052825160e0810190935292955091938190610bee9088906121cc565b61ffff1681526020018563ffffffff168152602001600015158152602001426001600160401b03168152602001846000015161ffff16815260200184602001516001600160a01b0316815260200182815250868681518110610c5257610c526121b6565b6020026020010181905250505050508080600101915050610a95565b5060006040518060c00160405280600260ff1681526020017f00000000000000000000000000000000000000000000000000000000000000006001600160a01b031663416ecebf6040518163ffffffff1660e01b8152600401602060405180830381865afa158015610ce4573d6000803e3d6000fd5b505050506040513d601f19601f82011682018060405250810190610d0891906121ed565b63ffffffff168152602001600015158152602001426001600160401b03168152602001600f61ffff168152602001306001600160a01b03168152509050610d5160008383611598565b935050505090565b610d616113e5565b6108e7610d6e8284612262565b6115c4565b63ffffffff8416600090815260026020908152604080832061ffff87168452909152812080546060929190610da79061216c565b80601f0160208091040260200160405190810160405280929190818152602001828054610dd39061216c565b8015610e205780601f10610df557610100808354040283529160200191610e20565b820191906000526020600020905b815481529060010190602001808311610e0357829003601f168201915b505050505090508051600003610e705783838080601f0160208091040260200160405190810160405280939291908181526020018383808284376000920191909152509294506109fe9350505050565b6000839003610e805790506109fe565b60028310610efe57610ec784848080601f0160208091040260200160405190810160405280939291908181526020018383808284376000920191909152506116d692505050565b80610ed58460028188612389565b604051602001610ee7939291906123b3565b6040516020818303038152906040529150506109fe565b8383604051639a6d49cd60e01b81526004016108069291906123db565b610f236113e5565b60405163ca5eb5e160e01b81526001600160a01b0382811660048301527f0000000000000000000000000000000000000000000000000000000000000000169063ca5eb5e190602401600060405180830381600087803b158015610f8657600080fd5b505af1158015610f9a573d6000803e3d6000fd5b5050505050565b60048181548110610fb157600080fd5b9060005260206000209060089182820401919006600402915054906101000a900463ffffffff1681565b6060602082101561102e5760405162461bcd60e51b815260206004820152601760248201527f496e76616c696420726573706f6e7365206c656e6774680000000000000000006044820152606401610806565b600061103c8385018561240a565b50505090508060405160200161105491815260200190565b604051602081830303815290604052915050949350505050565b6060600382146110c05760405162461bcd60e51b815260206004820181905260248201527f457870656374656420726573706f6e7365732066726f6d203320636861696e736044820152606401610806565b6000805b838110156111165760008585838181106110e0576110e06121b6565b90506020028101906110f29190612452565b8101906110ff9190612040565b905061110b81846121cc565b9250506001016110c4565b5060006111238483612498565b90508060405160200161113891815260200190565b60405160208183030381529060405292505050949350505050565b61115b6113e5565b611171828261116b576000611412565b30611412565b506003805463ffffffff191663ffffffff92909216919091179055565b6111966113e5565b6001600160a01b0381166111c057604051631e4fbdf760e01b815260006004820152602401610806565b6111c981611467565b50565b60006020820180359060019083906111e49086611ec5565b63ffffffff1681526020810191909152604001600020541492915050565b63ffffffff8116600090815260016020526040812054806108cf5760405163f6ff4fb760e01b815263ffffffff84166004820152602401610806565b602084146112875760405162461bcd60e51b8152602060048201526016602482015275092dcecc2d8d2c840dacae6e6c2ceca40d8cadccee8d60531b6044820152606401610806565b600061129585870187612040565b90507f3733046b677c6acde07c9cc7ad3f15345eb8ed2259cd927bb539b59b580eab0e816040516112c891815260200190565b60405180910390a15050505050505050565b6112e2611b7f565b60006112f18460000151611702565b60208501519091501561130b5761130b846020015161172a565b7f00000000000000000000000000000000000000000000000000000000000000006001600160a01b0316632637a450826040518060a001604052808b63ffffffff16815260200161135b8c611202565b81526020018a815260200189815260200160008960200151111515815250866040518463ffffffff1660e01b81526004016113979291906124ba565b60806040518083038185885af11580156113b5573d6000803e3d6000fd5b50505050506040513d601f19601f820116820180604052508101906113da9190612581565b979650505050505050565b6000546001600160a01b031633146109a25760405163118cdaa760e01b8152336004820152602401610806565b63ffffffff8216600081815260016020908152604091829020849055815192835282018390527f238399d427b947898edb290f5ff0f9109849b1c3ba196a42e35f00c50a54b98b910160405180910390a15050565b600080546001600160a01b038381166001600160a01b0319831681178455604051919092169283917f8be0079c531659141344cd1fd0a4f28419497f9722a3daafe3b4186f6b6457e09190a35050565b60408051808201909152600080825260208201527f00000000000000000000000000000000000000000000000000000000000000006001600160a01b031663ddc28c586040518060a001604052808863ffffffff16815260200161151a89611202565b8152602001878152602001868152602001851515815250306040518363ffffffff1660e01b815260040161154f9291906124ba565b6040805180830381865afa15801561156b573d6000803e3d6000fd5b505050506040513d601f19601f8201168201806040525081019061158f91906125d7565b95945050505050565b606060006115a6858561180c565b9050826020015163ffffffff166000146109fe5761158f818461189c565b60005b815181101561169b576115f68282815181106115e5576115e56121b6565b6020026020010151604001516116d6565b818181518110611608576116086121b6565b6020026020010151604001516002600084848151811061162a5761162a6121b6565b60200260200101516000015163ffffffff1663ffffffff1681526020019081526020016000206000848481518110611664576116646121b6565b60200260200101516020015161ffff1661ffff16815260200190815260200160002090816116929190612643565b506001016115c7565b507fbe4864a8e820971c0247f5992e2da559595f7bf076a21cb5928d443d2a13b674816040516116cb9190612702565b60405180910390a150565b600281015161ffff81166003146108e75781604051639a6d49cd60e01b81526004016108069190611e37565b6000813414611726576040516304fb820960e51b8152346004820152602401610806565b5090565b60007f00000000000000000000000000000000000000000000000000000000000000006001600160a01b031663e4fe1d946040518163ffffffff1660e01b8152600401602060405180830381865afa15801561178a573d6000803e3d6000fd5b505050506040513d601f19601f820116820180604052508101906117ae919061278d565b90506001600160a01b0381166117d7576040516329b99a9560e11b815260040160405180910390fd5b6108e76001600160a01b038216337f0000000000000000000000000000000000000000000000000000000000000000856118ef565b6060600060018461181d855161194f565b6040516001600160f01b031960f094851b8116602083015292841b83166022820152921b166024820152602601604051602081830303815290604052905060005b83518110156118945761188a8285838151811061187d5761187d6121b6565b602002602001015161197e565b915060010161185e565b509392505050565b606082600180846000015185602001518660400151876060015188608001518960a001516040516020016118d8999897969594939291906127aa565b604051602081830303815290604052905092915050565b604080516001600160a01b0385811660248301528416604482015260648082018490528251808303909101815260849091019091526020810180516001600160e01b03166323b872dd60e01b179052611949908590611a10565b50505050565b600061ffff821115611726576040516306dfcc6560e41b81526010600482015260248101839052604401610806565b60606000836001846000015160016119a68760c001515160236119a191906121cc565b61194f565b6020808901516040516119be97969594939201612870565b60408051601f19818403018152828252908501516060860151608087015160a088015160c08901519496506119f8958795906020016128e3565b60405160208183030381529060405291505092915050565b6000611a256001600160a01b03841683611a78565b90508051600014158015611a4a575080806020019051810190611a489190612965565b155b15611a7357604051635274afe760e01b81526001600160a01b0384166004820152602401610806565b505050565b60606109ea8383600084600080856001600160a01b03168486604051611a9e9190612982565b60006040518083038185875af1925050503d8060008114611adb576040519150601f19603f3d011682016040523d82523d6000602084013e611ae0565b606091505b5091509150611af0868383611afa565b9695505050505050565b606082611b0f57611b0a82611b56565b6109ea565b8151158015611b2657506001600160a01b0384163b155b15611b4f57604051639996b31560e01b81526001600160a01b0385166004820152602401610806565b50806109ea565b805115611b665780518082602001fd5b604051630a12f52160e11b815260040160405180910390fd5b60405180606001604052806000801916815260200160006001600160401b03168152602001611bc1604051806040016040528060008152602001600081525090565b905290565b600060608284031215611bd857600080fd5b50919050565b60008083601f840112611bf057600080fd5b5081356001600160401b03811115611c0757600080fd5b602083019150836020828501011115611c1f57600080fd5b9250929050565b6001600160a01b03811681146111c957600080fd5b600080600080600080600060e0888a031215611c5657600080fd5b611c608989611bc6565b96506060880135955060808801356001600160401b0380821115611c8357600080fd5b611c8f8b838c01611bde565b909750955060a08a01359150611ca482611c26565b90935060c08901359080821115611cba57600080fd5b50611cc78a828b01611bde565b989b979a50959850939692959293505050565b60008060208385031215611ced57600080fd5b82356001600160401b03811115611d0357600080fd5b611d0f85828601611bde565b90969095509350505050565b6000608082019050825182526001600160401b0360208401511660208301526040830151611d56604084018280518252602090810151910152565b5092915050565b63ffffffff811681146111c957600080fd5b60008060408385031215611d8257600080fd5b8235611d8d81611d5d565b946020939093013593505050565b803561ffff81168114611dad57600080fd5b919050565b60008060408385031215611dc557600080fd5b8235611dd081611d5d565b9150611dde60208401611d9b565b90509250929050565b60005b83811015611e02578181015183820152602001611dea565b50506000910152565b60008151808452611e23816020860160208601611de7565b601f01601f19169290920160200192915050565b6020815260006109ea6020830184611e0b565b80151581146111c957600080fd5b600080600060408486031215611e6d57600080fd5b83356001600160401b03811115611e8357600080fd5b611e8f86828701611bde565b9094509250506020840135611ea381611e4a565b809150509250925092565b8151815260208083015190820152604081016108cf565b600060208284031215611ed757600080fd5b81356109ea81611d5d565b60008060008060a08587031215611ef857600080fd5b611f028686611bc6565b935060608501356001600160401b03811115611f1d57600080fd5b611f2987828801611bde565b9094509250506080850135611f3d81611c26565b939692955090935050565b60008083601f840112611f5a57600080fd5b5081356001600160401b03811115611f7157600080fd5b6020830191508360208260051b8501011115611c1f57600080fd5b60008060208385031215611f9f57600080fd5b82356001600160401b03811115611fb557600080fd5b611d0f85828601611f48565b60008060008060608587031215611fd757600080fd5b8435611fe281611d5d565b9350611ff060208601611d9b565b925060408501356001600160401b0381111561200b57600080fd5b61201787828801611bde565b95989497509550505050565b60006020828403121561203557600080fd5b81356109ea81611c26565b60006020828403121561205257600080fd5b5035919050565b6000806000806040858703121561206f57600080fd5b84356001600160401b038082111561208657600080fd5b61209288838901611bde565b909650945060208701359150808211156120ab57600080fd5b5061201787828801611bde565b600080600080604085870312156120ce57600080fd5b84356001600160401b03808211156120e557600080fd5b6120f188838901611bde565b9096509450602087013591508082111561210a57600080fd5b5061201787828801611f48565b6000806040838503121561212a57600080fd5b823561213581611d5d565b9150602083013561214581611e4a565b809150509250929050565b60006060828403121561216257600080fd5b6109ea8383611bc6565b600181811c9082168061218057607f821691505b602082108103611bd857634e487b7160e01b600052602260045260246000fd5b634e487b7160e01b600052604160045260246000fd5b634e487b7160e01b600052603260045260246000fd5b808201808211156108cf57634e487b7160e01b600052601160045260246000fd5b6000602082840312156121ff57600080fd5b81516109ea81611d5d565b604051606081016001600160401b038111828210171561222c5761222c6121a0565b60405290565b604051601f8201601f191681016001600160401b038111828210171561225a5761225a6121a0565b604052919050565b60006001600160401b038084111561227c5761227c6121a0565b8360051b602061228d818301612232565b8681529185019181810190368411156122a557600080fd5b865b8481101561237d578035868111156122bf5760008081fd5b880160603682900312156122d35760008081fd5b6122db61220a565b81356122e681611d5d565b81526122f3828701611d9b565b868201526040808301358981111561230b5760008081fd5b9290920191601f36818501126123215760008081fd5b83358a811115612333576123336121a0565b612344818301601f19168a01612232565b9150808252368982870101111561235b5760008081fd5b808986018a8401376000908201890152908201528452509183019183016122a7565b50979650505050505050565b6000808585111561239957600080fd5b838611156123a657600080fd5b5050820193919092039150565b600084516123c5818460208901611de7565b8201838582376000930192835250909392505050565b60208152816020820152818360408301376000818301604090810191909152601f909201601f19160101919050565b6000806000806080858703121561242057600080fd5b84359350602085013561243281611c26565b9250604085013561244281611d5d565b9396929550929360600135925050565b6000808335601e1984360301811261246957600080fd5b8301803591506001600160401b0382111561248357600080fd5b602001915036819003821315611c1f57600080fd5b6000826124b557634e487b7160e01b600052601260045260246000fd5b500490565b6040815263ffffffff8351166040820152602083015160608201526000604084015160a060808401526124f060e0840182611e0b565b90506060850151603f198483030160a085015261250d8282611e0b565b60809690960151151560c08501525050506001600160a01b039190911660209091015290565b60006040828403121561254557600080fd5b604051604081018181106001600160401b0382111715612567576125676121a0565b604052825181526020928301519281019290925250919050565b60006080828403121561259357600080fd5b61259b61220a565b8251815260208301516001600160401b03811681146125b957600080fd5b60208201526125cb8460408501612533565b60408201529392505050565b6000604082840312156125e957600080fd5b6109ea8383612533565b601f821115611a73576000816000526020600020601f850160051c8101602086101561261c5750805b601f850160051c820191505b8181101561263b57828155600101612628565b505050505050565b81516001600160401b0381111561265c5761265c6121a0565b6126708161266a845461216c565b846125f3565b602080601f8311600181146126a5576000841561268d5750858301515b600019600386901b1c1916600185901b17855561263b565b600085815260208120601f198616915b828110156126d4578886015182559484019460019091019084016126b5565b50858210156126f25787850151600019600388901b60f8161c191681555b5050505050600190811b01905550565b600060208083018184528085518083526040925060408601915060408160051b87010184880160005b8381101561277f57888303603f190185528151805163ffffffff1684528781015161ffff1688850152860151606087850181905261276b81860183611e0b565b96890196945050509086019060010161272b565b509098975050505050505050565b60006020828403121561279f57600080fd5b81516109ea81611c26565b60008a516127bc818460208f01611de7565b60f88b811b6001600160f81b031990811692850192835260f08c901b6001600160f01b03191660018401528a821b16600383015260e089901b6001600160e01b0319166004830152871515901b6008820152612827600982018760c01b6001600160c01b0319169052565b612840601182018660f01b6001600160f01b0319169052565b61285e601382018560601b6bffffffffffffffffffffffff19169052565b6027019b9a5050505050505050505050565b60008751612882818460208c01611de7565b60f89790971b6001600160f81b0319169190960190815260f094851b6001600160f01b0319908116600183015293851b841660038201529190931b909116600582015260e09190911b6001600160e01b0319166007820152600b0192915050565b600087516128f5818460208c01611de7565b87151560f81b90830190815260c087901b6001600160c01b031916600182015260f086901b6001600160f01b0319166009820152606085901b6bffffffffffffffffffffffff1916600b820152835161295581601f840160208801611de7565b01601f0198975050505050505050565b60006020828403121561297757600080fd5b81516109ea81611e4a565b60008251612994818460208701611de7565b919091019291505056fea2646970667358221220f82735542d2123dfe79f1f154bd802bbaf3bd863d0c8733a84ed3e1cebda324364736f6c63430008160033",
  "devdoc": {
    "details": "Extends OAppRead and OAppOptionsType3 for cross-chain read and compute operations.",
    "errors": {
      "AddressEmptyCode(address)": [
        {
          "details": "There's no code at `target` (it is not a contract)."
        }
      ],
      "AddressInsufficientBalance(address)": [
        {
          "details": "The ETH balance of the account is not enough to perform the operation."
        }
      ],
      "FailedInnerCall()": [
        {
          "details": "A call to an address target failed. The target may have reverted."
        }
      ],
      "OwnableInvalidOwner(address)": [
        {
          "details": "The owner is not a valid owner account. (eg. `address(0)`)"
        }
      ],
      "OwnableUnauthorizedAccount(address)": [
        {
          "details": "The caller account is not authorized to perform an operation."
        }
      ],
      "SafeCastOverflowedUintDowncast(uint8,uint256)": [
        {
          "details": "Value doesn't fit in an uint of `bits` size."
        }
      ],
      "SafeERC20FailedOperation(address)": [
        {
          "details": "An operation with an ERC20 token failed."
        }
      ]
    },
    "events": {
      "AggregatedPrice(uint256)": {
        "params": {
          "averagePrice": "The calculated average token price (USDC amount)."
        }
      }
    },
    "kind": "dev",
    "methods": {
      "allowInitializePath((uint32,bytes32,uint64))": {
        "details": "This indicates to the endpoint that the OApp has enabled msgs for this particular path to be received.This defaults to assuming if a peer has been set, its initialized. Can be overridden by the OApp if there is other logic to determine this.",
        "params": {
          "origin": "The origin information containing the source endpoint and sender address."
        },
        "returns": {
          "_0": "Whether the path has been initialized."
        }
      },
      "combineOptions(uint32,uint16,bytes)": {
        "details": "If there is an enforced lzReceive option: - {gasLimit: 200k, msg.value: 1 ether} AND a caller supplies a lzReceive option: {gasLimit: 100k, msg.value: 0.5 ether} - The resulting options will be {gasLimit: 300k, msg.value: 1.5 ether} when the message is executed on the remote lzReceive() function.This presence of duplicated options is handled off-chain in the verifier/executor.",
        "params": {
          "_eid": "The endpoint ID.",
          "_extraOptions": "Additional options passed by the caller.",
          "_msgType": "The OAPP message type."
        },
        "returns": {
          "_0": "options The combination of caller specified options AND enforced options."
        }
      },
      "constructor": {
        "params": {
          "_endpoint": "The LayerZero endpoint contract address.",
          "_readChannel": "The LayerZero read channel ID."
        }
      },
      "getCmd()": {
        "returns": {
          "_0": "cmd The encoded command to request Uniswap quotes."
        }
      },
      "isComposeMsgSender((uint32,bytes32,uint64),bytes,address)": {
        "details": "_origin The origin information containing the source endpoint and sender address.  - srcEid: The source chain endpoint ID.  - sender: The sender address on the src chain.  - nonce: The nonce of the message._message The lzReceive payload.Applications can optionally choose to implement separate composeMsg senders that are NOT the bridging layer.The default sender IS the OAppReceiver implementer.",
        "params": {
          "_sender": "The sender address."
        },
        "returns": {
          "_0": "isSender Is a valid sender."
        }
      },
      "lzMap(bytes,bytes)": {
        "params": {
          "_response": "The response from the read request."
        },
        "returns": {
          "_0": "Encoded token output amount (USDC amount)."
        }
      },
      "lzReceive((uint32,bytes32,uint64),bytes32,bytes,address,bytes)": {
        "details": "Entry point for receiving messages or packets from the endpoint.Entry point for receiving msg/packet from the LayerZero endpoint.",
        "params": {
          "_executor": "The address of the executor for the received message.",
          "_extraData": "Additional arbitrary data provided by the corresponding executor.",
          "_guid": "The unique identifier for the received LayerZero message.",
          "_message": "The payload of the received message.",
          "_origin": "The origin information containing the source endpoint and sender address.  - srcEid: The source chain endpoint ID.  - sender: The sender address on the src chain.  - nonce: The nonce of the message."
        }
      },
      "lzReduce(bytes,bytes[])": {
        "params": {
          "_responses": "Array of mapped responses containing token output amounts."
        },
        "returns": {
          "_0": "Encoded average token output amount."
        }
      },
      "nextNonce(uint32,bytes32)": {
        "details": "_srcEid The source endpoint ID._sender The sender address.The path nonce starts from 1. If 0 is returned it means that there is NO nonce ordered enforcement.Is required by the off-chain executor to determine the OApp expects msg execution is ordered.This is also enforced by the OApp.By default this is NOT enabled. ie. nextNonce is hardcoded to return 0.",
        "returns": {
          "nonce": "The next nonce."
        }
      },
      "oAppVersion()": {
        "returns": {
          "receiverVersion": "The version of the OAppReceiver.sol implementation.",
          "senderVersion": "The version of the OAppSender.sol implementation."
        }
      },
      "owner()": {
        "details": "Returns the address of the current owner."
      },
      "quoteAverageUniswapPrice(bytes,bool)": {
        "params": {
          "_extraOptions": "Additional messaging options.",
          "_payInLzToken": "Boolean flag indicating whether to pay in LayerZero tokens."
        },
        "returns": {
          "fee": "The estimated messaging fee."
        }
      },
      "readAverageUniswapPrice(bytes)": {
        "params": {
          "_extraOptions": "Additional messaging options, including gas and fee settings."
        },
        "returns": {
          "receipt": "The LayerZero messaging receipt for the request."
        }
      },
      "renounceOwnership()": {
        "details": "Leaves the contract without owner. It will not be possible to call `onlyOwner` functions. Can only be called by the current owner. NOTE: Renouncing ownership will leave the contract without an owner, thereby disabling any functionality that is only available to the owner."
      },
      "setDelegate(address)": {
        "details": "Only the owner/admin of the OApp can call this function.Provides the ability for a delegate to set configs, on behalf of the OApp, directly on the Endpoint contract.",
        "params": {
          "_delegate": "The address of the delegate to be set."
        }
      },
      "setEnforcedOptions((uint32,uint16,bytes)[])": {
        "details": "Sets the enforced options for specific endpoint and message type combinations.Only the owner/admin of the OApp can call this function.Provides a way for the OApp to enforce things like paying for PreCrime, AND/OR minimum dst lzReceive gas amounts etc.These enforced options can vary as the potential options/execution on the remote may differ as per the msgType. eg. Amount of lzReceive() gas necessary to deliver a lzCompose() message adds overhead you dont want to pay if you are only making a standard LayerZero message ie. lzReceive() WITHOUT sendCompose().",
        "params": {
          "_enforcedOptions": "An array of EnforcedOptionParam structures specifying enforced options."
        }
      },
      "setPeer(uint32,bytes32)": {
        "details": "Only the owner/admin of the OApp can call this function.Indicates that the peer is trusted to send LayerZero messages to this OApp.Set this to bytes32(0) to remove the peer address.Peer is a bytes32 to accommodate non-evm chains.",
        "params": {
          "_eid": "The endpoint ID.",
          "_peer": "The address of the peer to be associated with the corresponding endpoint."
        }
      },
      "setReadChannel(uint32,bool)": {
        "params": {
          "_active": "Flag to activate or deactivate the channel.",
          "_channelId": "The channel ID to set."
        }
      },
      "transferOwnership(address)": {
        "details": "Transfers ownership of the contract to a new account (`newOwner`). Can only be called by the current owner."
      }
    },
    "title": "UniswapQuoteDemo",
    "version": 1
  },
  "userdoc": {
    "events": {
      "AggregatedPrice(uint256)": {
        "notice": "Emitted when the aggregated average token price is computed and received."
      }
    },
    "kind": "user",
    "methods": {
      "READ_CHANNEL()": {
        "notice": "LayerZero read channel ID."
      },
      "allowInitializePath((uint32,bytes32,uint64))": {
        "notice": "Checks if the path initialization is allowed based on the provided origin."
      },
      "chainConfigs(uint32)": {
        "notice": "Mapping to store chain configurations indexed by target chain ID (targetEid)."
      },
      "combineOptions(uint32,uint16,bytes)": {
        "notice": "Combines options for a given endpoint and message type."
      },
      "constructor": {
        "notice": "Constructor to initialize the UniswapQuoteDemo contract with hardcoded chain configurations."
      },
      "endpoint()": {
        "notice": "Retrieves the LayerZero endpoint associated with the OApp."
      },
      "getCmd()": {
        "notice": "Constructs a command to query the Uniswap QuoterV2 for WETH/USDC prices on all configured chains."
      },
      "isComposeMsgSender((uint32,bytes32,uint64),bytes,address)": {
        "notice": "Indicates whether an address is an approved composeMsg sender to the Endpoint."
      },
      "lzMap(bytes,bytes)": {
        "notice": "Processes individual Uniswap QuoterV2 responses, encoding the result."
      },
      "lzReduce(bytes,bytes[])": {
        "notice": "Aggregates individual token output amounts to compute an average."
      },
      "nextNonce(uint32,bytes32)": {
        "notice": "Retrieves the next nonce for a given source endpoint and sender address."
      },
      "oAppVersion()": {
        "notice": "Retrieves the OApp version information."
      },
      "peers(uint32)": {
        "notice": "Retrieves the peer (OApp) associated with a corresponding endpoint."
      },
      "quoteAverageUniswapPrice(bytes,bool)": {
        "notice": "Quotes the estimated messaging fee for querying Uniswap QuoterV2 for WETH/USDC prices."
      },
      "readAverageUniswapPrice(bytes)": {
        "notice": "Sends a read request to LayerZero, querying Uniswap QuoterV2 for WETH/USDC prices on configured chains."
      },
      "setDelegate(address)": {
        "notice": "Sets the delegate address for the OApp."
      },
      "setPeer(uint32,bytes32)": {
        "notice": "Sets the peer address (OApp instance) for a corresponding endpoint."
      },
      "setReadChannel(uint32,bool)": {
        "notice": "Sets the LayerZero read channel, enabling or disabling it based on `_active`."
      },
      "targetEids(uint256)": {
        "notice": "Array to store all active targetEids for iteration."
      }
    },
    "notice": "Simplified contract to query WETH/USDC prices on three chains and compute their average using LayerZero and Uniswap V3 QuoterV2.",
    "version": 1
  },
  "storageLayout": {
    "storage": [
      {
        "astId": 2625,
        "contract": "contracts/UniswapV3QuoteDemo.sol:UniswapV3QuoteDemo",
        "label": "_owner",
        "offset": 0,
        "slot": "0",
        "type": "t_address"
      },
      {
        "astId": 938,
        "contract": "contracts/UniswapV3QuoteDemo.sol:UniswapV3QuoteDemo",
        "label": "peers",
        "offset": 0,
        "slot": "1",
        "type": "t_mapping(t_uint32,t_bytes32)"
      },
      {
        "astId": 1582,
        "contract": "contracts/UniswapV3QuoteDemo.sol:UniswapV3QuoteDemo",
        "label": "enforcedOptions",
        "offset": 0,
        "slot": "2",
        "type": "t_mapping(t_uint32,t_mapping(t_uint16,t_bytes_storage))"
      },
      {
        "astId": 5338,
        "contract": "contracts/UniswapV3QuoteDemo.sol:UniswapV3QuoteDemo",
        "label": "READ_CHANNEL",
        "offset": 0,
        "slot": "3",
        "type": "t_uint32"
      },
      {
        "astId": 5354,
        "contract": "contracts/UniswapV3QuoteDemo.sol:UniswapV3QuoteDemo",
        "label": "targetEids",
        "offset": 0,
        "slot": "4",
        "type": "t_array(t_uint32)dyn_storage"
      },
      {
        "astId": 5360,
        "contract": "contracts/UniswapV3QuoteDemo.sol:UniswapV3QuoteDemo",
        "label": "chainConfigs",
        "offset": 0,
        "slot": "5",
        "type": "t_mapping(t_uint32,t_struct(ChainConfig)5350_storage)"
      }
    ],
    "types": {
      "t_address": {
        "encoding": "inplace",
        "label": "address",
        "numberOfBytes": "20"
      },
      "t_array(t_uint32)dyn_storage": {
        "base": "t_uint32",
        "encoding": "dynamic_array",
        "label": "uint32[]",
        "numberOfBytes": "32"
      },
      "t_bytes32": {
        "encoding": "inplace",
        "label": "bytes32",
        "numberOfBytes": "32"
      },
      "t_bytes_storage": {
        "encoding": "bytes",
        "label": "bytes",
        "numberOfBytes": "32"
      },
      "t_mapping(t_uint16,t_bytes_storage)": {
        "encoding": "mapping",
        "key": "t_uint16",
        "label": "mapping(uint16 => bytes)",
        "numberOfBytes": "32",
        "value": "t_bytes_storage"
      },
      "t_mapping(t_uint32,t_bytes32)": {
        "encoding": "mapping",
        "key": "t_uint32",
        "label": "mapping(uint32 => bytes32)",
        "numberOfBytes": "32",
        "value": "t_bytes32"
      },
      "t_mapping(t_uint32,t_mapping(t_uint16,t_bytes_storage))": {
        "encoding": "mapping",
        "key": "t_uint32",
        "label": "mapping(uint32 => mapping(uint16 => bytes))",
        "numberOfBytes": "32",
        "value": "t_mapping(t_uint16,t_bytes_storage)"
      },
      "t_mapping(t_uint32,t_struct(ChainConfig)5350_storage)": {
        "encoding": "mapping",
        "key": "t_uint32",
        "label": "mapping(uint32 => struct UniswapV3QuoteDemo.ChainConfig)",
        "numberOfBytes": "32",
        "value": "t_struct(ChainConfig)5350_storage"
      },
      "t_struct(ChainConfig)5350_storage": {
        "encoding": "inplace",
        "label": "struct UniswapV3QuoteDemo.ChainConfig",
        "members": [
          {
            "astId": 5341,
            "contract": "contracts/UniswapV3QuoteDemo.sol:UniswapV3QuoteDemo",
            "label": "confirmations",
            "offset": 0,
            "slot": "0",
            "type": "t_uint16"
          },
          {
            "astId": 5343,
            "contract": "contracts/UniswapV3QuoteDemo.sol:UniswapV3QuoteDemo",
            "label": "quoterAddress",
            "offset": 2,
            "slot": "0",
            "type": "t_address"
          },
          {
            "astId": 5345,
            "contract": "contracts/UniswapV3QuoteDemo.sol:UniswapV3QuoteDemo",
            "label": "tokenInAddress",
            "offset": 0,
            "slot": "1",
            "type": "t_address"
          },
          {
            "astId": 5347,
            "contract": "contracts/UniswapV3QuoteDemo.sol:UniswapV3QuoteDemo",
            "label": "tokenOutAddress",
            "offset": 0,
            "slot": "2",
            "type": "t_address"
          },
          {
            "astId": 5349,
            "contract": "contracts/UniswapV3QuoteDemo.sol:UniswapV3QuoteDemo",
            "label": "fee",
            "offset": 20,
            "slot": "2",
            "type": "t_uint24"
          }
        ],
        "numberOfBytes": "96"
      },
      "t_uint16": {
        "encoding": "inplace",
        "label": "uint16",
        "numberOfBytes": "2"
      },
      "t_uint24": {
        "encoding": "inplace",
        "label": "uint24",
        "numberOfBytes": "3"
      },
      "t_uint32": {
        "encoding": "inplace",
        "label": "uint32",
        "numberOfBytes": "4"
      }
    }
  }
}