{
  "address": "0x603E5d61AC37f84f3601618763DF1E1647298436",
  "abi": [
    {
      "inputs": [
        {
          "internalType": "address",
          "name": "_endpoint",
          "type": "address"
        },
        {
          "internalType": "uint32",
          "name": "_readChannel",
          "type": "uint32"
        }
      ],
      "stateMutability": "nonpayable",
      "type": "constructor"
    },
    {
      "inputs": [
        {
          "internalType": "address",
          "name": "target",
          "type": "address"
        }
      ],
      "name": "AddressEmptyCode",
      "type": "error"
    },
    {
      "inputs": [
        {
          "internalType": "address",
          "name": "account",
          "type": "address"
        }
      ],
      "name": "AddressInsufficientBalance",
      "type": "error"
    },
    {
      "inputs": [],
      "name": "FailedInnerCall",
      "type": "error"
    },
    {
      "inputs": [],
      "name": "InvalidDelegate",
      "type": "error"
    },
    {
      "inputs": [],
      "name": "InvalidEndpointCall",
      "type": "error"
    },
    {
      "inputs": [
        {
          "internalType": "bytes",
          "name": "options",
          "type": "bytes"
        }
      ],
      "name": "InvalidOptions",
      "type": "error"
    },
    {
      "inputs": [],
      "name": "LzTokenUnavailable",
      "type": "error"
    },
    {
      "inputs": [
        {
          "internalType": "uint32",
          "name": "eid",
          "type": "uint32"
        }
      ],
      "name": "NoPeer",
      "type": "error"
    },
    {
      "inputs": [
        {
          "internalType": "uint256",
          "name": "msgValue",
          "type": "uint256"
        }
      ],
      "name": "NotEnoughNative",
      "type": "error"
    },
    {
      "inputs": [
        {
          "internalType": "address",
          "name": "addr",
          "type": "address"
        }
      ],
      "name": "OnlyEndpoint",
      "type": "error"
    },
    {
      "inputs": [
        {
          "internalType": "uint32",
          "name": "eid",
          "type": "uint32"
        },
        {
          "internalType": "bytes32",
          "name": "sender",
          "type": "bytes32"
        }
      ],
      "name": "OnlyPeer",
      "type": "error"
    },
    {
      "inputs": [
        {
          "internalType": "address",
          "name": "owner",
          "type": "address"
        }
      ],
      "name": "OwnableInvalidOwner",
      "type": "error"
    },
    {
      "inputs": [
        {
          "internalType": "address",
          "name": "account",
          "type": "address"
        }
      ],
      "name": "OwnableUnauthorizedAccount",
      "type": "error"
    },
    {
      "inputs": [
        {
          "internalType": "uint8",
          "name": "bits",
          "type": "uint8"
        },
        {
          "internalType": "uint256",
          "name": "value",
          "type": "uint256"
        }
      ],
      "name": "SafeCastOverflowedUintDowncast",
      "type": "error"
    },
    {
      "inputs": [
        {
          "internalType": "address",
          "name": "token",
          "type": "address"
        }
      ],
      "name": "SafeERC20FailedOperation",
      "type": "error"
    },
    {
      "anonymous": false,
      "inputs": [
        {
          "indexed": false,
          "internalType": "uint256",
          "name": "averagePrice",
          "type": "uint256"
        }
      ],
      "name": "AggregatedPrice",
      "type": "event"
    },
    {
      "anonymous": false,
      "inputs": [
        {
          "components": [
            {
              "internalType": "uint32",
              "name": "eid",
              "type": "uint32"
            },
            {
              "internalType": "uint16",
              "name": "msgType",
              "type": "uint16"
            },
            {
              "internalType": "bytes",
              "name": "options",
              "type": "bytes"
            }
          ],
          "indexed": false,
          "internalType": "struct EnforcedOptionParam[]",
          "name": "_enforcedOptions",
          "type": "tuple[]"
        }
      ],
      "name": "EnforcedOptionSet",
      "type": "event"
    },
    {
      "anonymous": false,
      "inputs": [
        {
          "indexed": true,
          "internalType": "address",
          "name": "previousOwner",
          "type": "address"
        },
        {
          "indexed": true,
          "internalType": "address",
          "name": "newOwner",
          "type": "address"
        }
      ],
      "name": "OwnershipTransferred",
      "type": "event"
    },
    {
      "anonymous": false,
      "inputs": [
        {
          "indexed": false,
          "internalType": "uint32",
          "name": "eid",
          "type": "uint32"
        },
        {
          "indexed": false,
          "internalType": "bytes32",
          "name": "peer",
          "type": "bytes32"
        }
      ],
      "name": "PeerSet",
      "type": "event"
    },
    {
      "inputs": [],
      "name": "CHAIN_A_EID",
      "outputs": [
        {
          "internalType": "uint32",
          "name": "",
          "type": "uint32"
        }
      ],
      "stateMutability": "view",
      "type": "function"
    },
    {
      "inputs": [],
      "name": "CHAIN_A_ROUTER",
      "outputs": [
        {
          "internalType": "address",
          "name": "",
          "type": "address"
        }
      ],
      "stateMutability": "view",
      "type": "function"
    },
    {
      "inputs": [],
      "name": "CHAIN_A_USDC",
      "outputs": [
        {
          "internalType": "address",
          "name": "",
          "type": "address"
        }
      ],
      "stateMutability": "view",
      "type": "function"
    },
    {
      "inputs": [],
      "name": "CHAIN_A_WETH",
      "outputs": [
        {
          "internalType": "address",
          "name": "",
          "type": "address"
        }
      ],
      "stateMutability": "view",
      "type": "function"
    },
    {
      "inputs": [],
      "name": "CHAIN_B_EID",
      "outputs": [
        {
          "internalType": "uint32",
          "name": "",
          "type": "uint32"
        }
      ],
      "stateMutability": "view",
      "type": "function"
    },
    {
      "inputs": [],
      "name": "CHAIN_B_ROUTER",
      "outputs": [
        {
          "internalType": "address",
          "name": "",
          "type": "address"
        }
      ],
      "stateMutability": "view",
      "type": "function"
    },
    {
      "inputs": [],
      "name": "CHAIN_B_USDC",
      "outputs": [
        {
          "internalType": "address",
          "name": "",
          "type": "address"
        }
      ],
      "stateMutability": "view",
      "type": "function"
    },
    {
      "inputs": [],
      "name": "CHAIN_B_WETH",
      "outputs": [
        {
          "internalType": "address",
          "name": "",
          "type": "address"
        }
      ],
      "stateMutability": "view",
      "type": "function"
    },
    {
      "inputs": [],
      "name": "CHAIN_C_EID",
      "outputs": [
        {
          "internalType": "uint32",
          "name": "",
          "type": "uint32"
        }
      ],
      "stateMutability": "view",
      "type": "function"
    },
    {
      "inputs": [],
      "name": "CHAIN_C_ROUTER",
      "outputs": [
        {
          "internalType": "address",
          "name": "",
          "type": "address"
        }
      ],
      "stateMutability": "view",
      "type": "function"
    },
    {
      "inputs": [],
      "name": "CHAIN_C_USDC",
      "outputs": [
        {
          "internalType": "address",
          "name": "",
          "type": "address"
        }
      ],
      "stateMutability": "view",
      "type": "function"
    },
    {
      "inputs": [],
      "name": "CHAIN_C_WETH",
      "outputs": [
        {
          "internalType": "address",
          "name": "",
          "type": "address"
        }
      ],
      "stateMutability": "view",
      "type": "function"
    },
    {
      "inputs": [],
      "name": "READ_CHANNEL",
      "outputs": [
        {
          "internalType": "uint32",
          "name": "",
          "type": "uint32"
        }
      ],
      "stateMutability": "view",
      "type": "function"
    },
    {
      "inputs": [
        {
          "components": [
            {
              "internalType": "uint32",
              "name": "srcEid",
              "type": "uint32"
            },
            {
              "internalType": "bytes32",
              "name": "sender",
              "type": "bytes32"
            },
            {
              "internalType": "uint64",
              "name": "nonce",
              "type": "uint64"
            }
          ],
          "internalType": "struct Origin",
          "name": "origin",
          "type": "tuple"
        }
      ],
      "name": "allowInitializePath",
      "outputs": [
        {
          "internalType": "bool",
          "name": "",
          "type": "bool"
        }
      ],
      "stateMutability": "view",
      "type": "function"
    },
    {
      "inputs": [
        {
          "internalType": "uint32",
          "name": "",
          "type": "uint32"
        }
      ],
      "name": "chainConfigs",
      "outputs": [
        {
          "internalType": "uint16",
          "name": "confirmations",
          "type": "uint16"
        },
        {
          "internalType": "address",
          "name": "routerAddress",
          "type": "address"
        },
        {
          "internalType": "address",
          "name": "wethAddress",
          "type": "address"
        },
        {
          "internalType": "address",
          "name": "usdcAddress",
          "type": "address"
        }
      ],
      "stateMutability": "view",
      "type": "function"
    },
    {
      "inputs": [
        {
          "internalType": "uint32",
          "name": "_eid",
          "type": "uint32"
        },
        {
          "internalType": "uint16",
          "name": "_msgType",
          "type": "uint16"
        },
        {
          "internalType": "bytes",
          "name": "_extraOptions",
          "type": "bytes"
        }
      ],
      "name": "combineOptions",
      "outputs": [
        {
          "internalType": "bytes",
          "name": "",
          "type": "bytes"
        }
      ],
      "stateMutability": "view",
      "type": "function"
    },
    {
      "inputs": [],
      "name": "endpoint",
      "outputs": [
        {
          "internalType": "contract ILayerZeroEndpointV2",
          "name": "",
          "type": "address"
        }
      ],
      "stateMutability": "view",
      "type": "function"
    },
    {
      "inputs": [
        {
          "internalType": "uint32",
          "name": "eid",
          "type": "uint32"
        },
        {
          "internalType": "uint16",
          "name": "msgType",
          "type": "uint16"
        }
      ],
      "name": "enforcedOptions",
      "outputs": [
        {
          "internalType": "bytes",
          "name": "enforcedOption",
          "type": "bytes"
        }
      ],
      "stateMutability": "view",
      "type": "function"
    },
    {
      "inputs": [],
      "name": "getCmd",
      "outputs": [
        {
          "internalType": "bytes",
          "name": "",
          "type": "bytes"
        }
      ],
      "stateMutability": "view",
      "type": "function"
    },
    {
      "inputs": [
        {
          "components": [
            {
              "internalType": "uint32",
              "name": "srcEid",
              "type": "uint32"
            },
            {
              "internalType": "bytes32",
              "name": "sender",
              "type": "bytes32"
            },
            {
              "internalType": "uint64",
              "name": "nonce",
              "type": "uint64"
            }
          ],
          "internalType": "struct Origin",
          "name": "",
          "type": "tuple"
        },
        {
          "internalType": "bytes",
          "name": "",
          "type": "bytes"
        },
        {
          "internalType": "address",
          "name": "_sender",
          "type": "address"
        }
      ],
      "name": "isComposeMsgSender",
      "outputs": [
        {
          "internalType": "bool",
          "name": "",
          "type": "bool"
        }
      ],
      "stateMutability": "view",
      "type": "function"
    },
    {
      "inputs": [
        {
          "internalType": "bytes",
          "name": "",
          "type": "bytes"
        },
        {
          "internalType": "bytes",
          "name": "_response",
          "type": "bytes"
        }
      ],
      "name": "lzMap",
      "outputs": [
        {
          "internalType": "bytes",
          "name": "",
          "type": "bytes"
        }
      ],
      "stateMutability": "pure",
      "type": "function"
    },
    {
      "inputs": [
        {
          "components": [
            {
              "internalType": "uint32",
              "name": "srcEid",
              "type": "uint32"
            },
            {
              "internalType": "bytes32",
              "name": "sender",
              "type": "bytes32"
            },
            {
              "internalType": "uint64",
              "name": "nonce",
              "type": "uint64"
            }
          ],
          "internalType": "struct Origin",
          "name": "_origin",
          "type": "tuple"
        },
        {
          "internalType": "bytes32",
          "name": "_guid",
          "type": "bytes32"
        },
        {
          "internalType": "bytes",
          "name": "_message",
          "type": "bytes"
        },
        {
          "internalType": "address",
          "name": "_executor",
          "type": "address"
        },
        {
          "internalType": "bytes",
          "name": "_extraData",
          "type": "bytes"
        }
      ],
      "name": "lzReceive",
      "outputs": [],
      "stateMutability": "payable",
      "type": "function"
    },
    {
      "inputs": [
        {
          "internalType": "bytes",
          "name": "",
          "type": "bytes"
        },
        {
          "internalType": "bytes[]",
          "name": "_responses",
          "type": "bytes[]"
        }
      ],
      "name": "lzReduce",
      "outputs": [
        {
          "internalType": "bytes",
          "name": "",
          "type": "bytes"
        }
      ],
      "stateMutability": "pure",
      "type": "function"
    },
    {
      "inputs": [
        {
          "internalType": "uint32",
          "name": "",
          "type": "uint32"
        },
        {
          "internalType": "bytes32",
          "name": "",
          "type": "bytes32"
        }
      ],
      "name": "nextNonce",
      "outputs": [
        {
          "internalType": "uint64",
          "name": "nonce",
          "type": "uint64"
        }
      ],
      "stateMutability": "view",
      "type": "function"
    },
    {
      "inputs": [],
      "name": "oAppVersion",
      "outputs": [
        {
          "internalType": "uint64",
          "name": "senderVersion",
          "type": "uint64"
        },
        {
          "internalType": "uint64",
          "name": "receiverVersion",
          "type": "uint64"
        }
      ],
      "stateMutability": "pure",
      "type": "function"
    },
    {
      "inputs": [],
      "name": "owner",
      "outputs": [
        {
          "internalType": "address",
          "name": "",
          "type": "address"
        }
      ],
      "stateMutability": "view",
      "type": "function"
    },
    {
      "inputs": [
        {
          "internalType": "uint32",
          "name": "eid",
          "type": "uint32"
        }
      ],
      "name": "peers",
      "outputs": [
        {
          "internalType": "bytes32",
          "name": "peer",
          "type": "bytes32"
        }
      ],
      "stateMutability": "view",
      "type": "function"
    },
    {
      "inputs": [
        {
          "internalType": "bytes",
          "name": "_extraOptions",
          "type": "bytes"
        },
        {
          "internalType": "bool",
          "name": "_payInLzToken",
          "type": "bool"
        }
      ],
      "name": "quoteAverageUniswapPrice",
      "outputs": [
        {
          "components": [
            {
              "internalType": "uint256",
              "name": "nativeFee",
              "type": "uint256"
            },
            {
              "internalType": "uint256",
              "name": "lzTokenFee",
              "type": "uint256"
            }
          ],
          "internalType": "struct MessagingFee",
          "name": "fee",
          "type": "tuple"
        }
      ],
      "stateMutability": "view",
      "type": "function"
    },
    {
      "inputs": [
        {
          "internalType": "bytes",
          "name": "_extraOptions",
          "type": "bytes"
        }
      ],
      "name": "readAverageUniswapPrice",
      "outputs": [
        {
          "components": [
            {
              "internalType": "bytes32",
              "name": "guid",
              "type": "bytes32"
            },
            {
              "internalType": "uint64",
              "name": "nonce",
              "type": "uint64"
            },
            {
              "components": [
                {
                  "internalType": "uint256",
                  "name": "nativeFee",
                  "type": "uint256"
                },
                {
                  "internalType": "uint256",
                  "name": "lzTokenFee",
                  "type": "uint256"
                }
              ],
              "internalType": "struct MessagingFee",
              "name": "fee",
              "type": "tuple"
            }
          ],
          "internalType": "struct MessagingReceipt",
          "name": "receipt",
          "type": "tuple"
        }
      ],
      "stateMutability": "payable",
      "type": "function"
    },
    {
      "inputs": [],
      "name": "renounceOwnership",
      "outputs": [],
      "stateMutability": "nonpayable",
      "type": "function"
    },
    {
      "inputs": [
        {
          "internalType": "address",
          "name": "_delegate",
          "type": "address"
        }
      ],
      "name": "setDelegate",
      "outputs": [],
      "stateMutability": "nonpayable",
      "type": "function"
    },
    {
      "inputs": [
        {
          "components": [
            {
              "internalType": "uint32",
              "name": "eid",
              "type": "uint32"
            },
            {
              "internalType": "uint16",
              "name": "msgType",
              "type": "uint16"
            },
            {
              "internalType": "bytes",
              "name": "options",
              "type": "bytes"
            }
          ],
          "internalType": "struct EnforcedOptionParam[]",
          "name": "_enforcedOptions",
          "type": "tuple[]"
        }
      ],
      "name": "setEnforcedOptions",
      "outputs": [],
      "stateMutability": "nonpayable",
      "type": "function"
    },
    {
      "inputs": [
        {
          "internalType": "uint32",
          "name": "_eid",
          "type": "uint32"
        },
        {
          "internalType": "bytes32",
          "name": "_peer",
          "type": "bytes32"
        }
      ],
      "name": "setPeer",
      "outputs": [],
      "stateMutability": "nonpayable",
      "type": "function"
    },
    {
      "inputs": [
        {
          "internalType": "uint32",
          "name": "_channelId",
          "type": "uint32"
        },
        {
          "internalType": "bool",
          "name": "_active",
          "type": "bool"
        }
      ],
      "name": "setReadChannel",
      "outputs": [],
      "stateMutability": "nonpayable",
      "type": "function"
    },
    {
      "inputs": [
        {
          "internalType": "uint256",
          "name": "",
          "type": "uint256"
        }
      ],
      "name": "targetEids",
      "outputs": [
        {
          "internalType": "uint32",
          "name": "",
          "type": "uint32"
        }
      ],
      "stateMutability": "view",
      "type": "function"
    },
    {
      "inputs": [
        {
          "internalType": "address",
          "name": "newOwner",
          "type": "address"
        }
      ],
      "name": "transferOwnership",
      "outputs": [],
      "stateMutability": "nonpayable",
      "type": "function"
    },
    {
      "stateMutability": "payable",
      "type": "receive"
    }
  ],
  "transactionHash": "0x06e4e188cc7f3faa7c5fd0ec50c706f725267be13efbe0ffdbcb085414024ba8",
  "args": [
    "0x1a44076050125825900e736c501f859c50fE728c",
    4294967295
  ],
  "numDeployments": 3,
  "solcInputHash": "c12cca94d5d62e6ec3939f9d066a8e4b",
  "bytecode": "0x60a06040523480156200001157600080fd5b506040516200326f3803806200326f8339810160408190526200003491620006ed565b81338181818180806200006157604051631e4fbdf760e01b81526000600482015260240160405180910390fd5b6200006c816200063c565b506001600160a01b0380831660805281166200009b57604051632d618d8160e21b815260040160405180910390fd5b60805160405163ca5eb5e160e01b81526001600160a01b0383811660048301529091169063ca5eb5e190602401600060405180830381600087803b158015620000e357600080fd5b505af1158015620000f8573d6000803e3d6000fd5b5050505050505050505060006040518060800160405280600561ffff168152602001737a250d5630b4cf539739df2c5dacb4c659f2488d6001600160a01b0316815260200173c02aaa39b223fe8d0a0e5c4f27ead9083c756cc26001600160a01b0316815260200173a0b86991c6218b36c1d19d4a2e9eb0ce3606eb486001600160a01b0316815250905060006040518060800160405280600561ffff168152602001734752ba5dbc23f44d87826276bf6fd6b1c372ad246001600160a01b031681526020017342000000000000000000000000000000000000066001600160a01b0316815260200173833589fcd6edb6e08f4c7c32d4f71b54bda029136001600160a01b0316815250905060006040518060800160405280600561ffff168152602001734a7b5da61326a6379179b40d00f57e5bbdc962c26001600160a01b031681526020017342000000000000000000000000000000000000066001600160a01b03168152602001730b2c639c533813f4aa9d7837caf62653d097ff856001600160a01b03168152509050826005600061759563ffffffff1663ffffffff16815260200190815260200160002060008201518160000160006101000a81548161ffff021916908361ffff16021790555060208201518160000160026101000a8154816001600160a01b0302191690836001600160a01b0316021790555060408201518160010160006101000a8154816001600160a01b0302191690836001600160a01b0316021790555060608201518160020160006101000a8154816001600160a01b0302191690836001600160a01b03160217905550905050600461759590806001815401808255809150506001900390600052602060002090600891828204019190066004029091909190916101000a81548163ffffffff021916908363ffffffff16021790555081600560006175e863ffffffff1663ffffffff16815260200190815260200160002060008201518160000160006101000a81548161ffff021916908361ffff16021790555060208201518160000160026101000a8154816001600160a01b0302191690836001600160a01b0316021790555060408201518160010160006101000a8154816001600160a01b0302191690836001600160a01b0316021790555060608201518160020160006101000a8154816001600160a01b0302191690836001600160a01b0316021790555090505060046175e890806001815401808255809150506001900390600052602060002090600891828204019190066004029091909190916101000a81548163ffffffff021916908363ffffffff160217905550806005600061759f63ffffffff1663ffffffff16815260200190815260200160002060008201518160000160006101000a81548161ffff021916908361ffff16021790555060208201518160000160026101000a8154816001600160a01b0302191690836001600160a01b0316021790555060408201518160010160006101000a8154816001600160a01b0302191690836001600160a01b0316021790555060608201518160020160006101000a8154816001600160a01b0302191690836001600160a01b03160217905550905050600461759f90806001815401808255809150506001900390600052602060002090600891828204019190066004029091909190916101000a81548163ffffffff021916908363ffffffff16021790555083600360006101000a81548163ffffffff021916908363ffffffff16021790555062000631600360009054906101000a900463ffffffff166200062b306200068c60201b60201c565b62000698565b50505050506200073f565b600080546001600160a01b038381166001600160a01b0319831681178455604051919092169283917f8be0079c531659141344cd1fd0a4f28419497f9722a3daafe3b4186f6b6457e09190a35050565b6001600160a01b031690565b63ffffffff8216600081815260016020908152604091829020849055815192835282018390527f238399d427b947898edb290f5ff0f9109849b1c3ba196a42e35f00c50a54b98b910160405180910390a15050565b600080604083850312156200070157600080fd5b82516001600160a01b03811681146200071957600080fd5b602084015190925063ffffffff811681146200073457600080fd5b809150509250929050565b608051612ae36200078c6000396000818161038a0152818161078201528181610c8b01528181610f450152818161135d0152818161151d0152818161177e01526118370152612ae36000f3fe6080604052600436106102135760003560e01c80638da5cb5b11610118578063dad41cae116100a0578063f0a9e4811161006f578063f0a9e481146106f4578063f2fde38b14610714578063fa71141514610734578063fad4e6931461074a578063ff7bd03d1461076057600080fd5b8063dad41cae1461066c578063dd90a7d11461068c578063e60c287c146106b4578063eba1cf08146106d457600080fd5b8063bb0b6a53116100e7578063bb0b6a53146105c9578063bc70b35414610604578063c726d6a814610411578063c7a3294814610624578063ca5eb5e11461064c57600080fd5b80638da5cb5b1461054e578063acfd329d1461056c578063b10c754414610594578063b98bd070146105a957600080fd5b80635e280f111161019b5780637517dc1c1161016a5780637517dc1c1461041157806379e878ef1461042c5780637d25a05e146104595780637ee740581461049457806382413eac1461051e57600080fd5b80635e280f11146103785780636422f84e146103ac578063682706d1146103d4578063715018a6146103fc57600080fd5b80633400288b116101e25780633400288b146102a6578063360b2ccb146102c65780633859d937146103065780634fed291f146103235780635535d4611461034b57600080fd5b806313137d651461021f57806317442b70146102345780631b9f4e031461025b57806327e04efb1461028657600080fd5b3661021a57005b600080fd5b61023261022d366004611c8b565b610780565b005b34801561024057600080fd5b50604080516001815260026020820152015b60405180910390f35b34801561026757600080fd5b5061027161759581565b60405163ffffffff9091168152602001610252565b610299610294366004611d2a565b610840565b6040516102529190611d6b565b3480156102b257600080fd5b506102326102c1366004611dbf565b610896565b3480156102d257600080fd5b506102ee73c02aaa39b223fe8d0a0e5c4f27ead9083c756cc281565b6040516001600160a01b039091168152602001610252565b34801561031257600080fd5b506003546102719063ffffffff1681565b34801561032f57600080fd5b506102ee73833589fcd6edb6e08f4c7c32d4f71b54bda0291381565b34801561035757600080fd5b5061036b610366366004611e02565b6108ac565b6040516102529190611e87565b34801561038457600080fd5b506102ee7f000000000000000000000000000000000000000000000000000000000000000081565b3480156103b857600080fd5b506102ee73a0b86991c6218b36c1d19d4a2e9eb0ce3606eb4881565b3480156103e057600080fd5b506102ee730b2c639c533813f4aa9d7837caf62653d097ff8581565b34801561040857600080fd5b50610232610951565b34801561041d57600080fd5b506102ee6006602160991b0181565b34801561043857600080fd5b5061044c610447366004611ea8565b610965565b6040516102529190611efe565b34801561046557600080fd5b5061047c610474366004611dbf565b600092915050565b6040516001600160401b039091168152602001610252565b3480156104a057600080fd5b506104ea6104af366004611f15565b60056020526000908152604090208054600182015460029092015461ffff8216926001600160a01b0362010000909304831692908116911684565b6040805161ffff90951685526001600160a01b03938416602086015291831691840191909152166060820152608001610252565b34801561052a57600080fd5b5061053e610539366004611f32565b6109b2565b6040519015158152602001610252565b34801561055a57600080fd5b506000546001600160a01b03166102ee565b34801561057857600080fd5b506102ee734a7b5da61326a6379179b40d00f57e5bbdc962c281565b3480156105a057600080fd5b5061036b6109c7565b3480156105b557600080fd5b506102326105c4366004611fdc565b610d5c565b3480156105d557600080fd5b506105f66105e4366004611f15565b60016020526000908152604090205481565b604051908152602001610252565b34801561061057600080fd5b5061036b61061f366004612011565b610d76565b34801561063057600080fd5b506102ee734752ba5dbc23f44d87826276bf6fd6b1c372ad2481565b34801561065857600080fd5b50610232610667366004612073565b610f1e565b34801561067857600080fd5b50610271610687366004612090565b610fa4565b34801561069857600080fd5b506102ee737a250d5630b4cf539739df2c5dacb4c659f2488d81565b3480156106c057600080fd5b5061036b6106cf3660046120a9565b610fde565b3480156106e057600080fd5b5061036b6106ef366004612108565b6110d9565b34801561070057600080fd5b5061023261070f366004612167565b6111a3565b34801561072057600080fd5b5061023261072f366004612073565b6111de565b34801561074057600080fd5b506102716175e881565b34801561075657600080fd5b5061027161759f81565b34801561076c57600080fd5b5061053e61077b3660046121a0565b61121c565b7f00000000000000000000000000000000000000000000000000000000000000006001600160a01b031633146107d0576040516391ac5e4f60e01b81523360048201526024015b60405180910390fd5b602087018035906107ea906107e5908a611f15565b611252565b14610828576107fc6020880188611f15565b60405163309afaf360e21b815263ffffffff9091166004820152602088013560248201526044016107c7565b6108378787878787878761128e565b50505050505050565b610848611bcf565b60006108526109c7565b60035490915061088c9063ffffffff16826108708260018989610d76565b604051806040016040528034815260200160008152503361132a565b9150505b92915050565b61089e611435565b6108a88282611462565b5050565b6002602090815260009283526040808420909152908252902080546108d0906121bc565b80601f01602080910402602001604051908101604052809291908181526020018280546108fc906121bc565b80156109495780601f1061091e57610100808354040283529160200191610949565b820191906000526020600020905b81548152906001019060200180831161092c57829003601f168201915b505050505081565b610959611435565b61096360006114b7565b565b604080518082019091526000808252602082015260006109836109c7565b6003549091506109a79063ffffffff16826109a18260018a8a610d76565b86611507565b9150505b9392505050565b6001600160a01b03811630145b949350505050565b6004546060906000816001600160401b038111156109e7576109e76121f0565b604051908082528060200260200182016040528015610a5057816020015b6040805160e0810182526000808252602080830182905292820181905260608083018290526080830182905260a083019190915260c08201528252600019909201910181610a055790505b50905060005b82811015610c7157600060048281548110610a7357610a73612206565b6000918252602080832060088304015460079092166004026101000a90910463ffffffff168083526005825260408084208151608081018352815461ffff811682526201000090046001600160a01b0390811695820195909552600182015485169281019290925260029081015490931660608201529093509190604051908082528060200260200182016040528015610b17578160200160208202803683370190505b509050816040015181600081518110610b3257610b32612206565b60200260200101906001600160a01b031690816001600160a01b031681525050816060015181600181518110610b6a57610b6a612206565b60200260200101906001600160a01b031690816001600160a01b0316815250506040518060e00160405280856001610ba2919061221c565b61ffff1681526020018463ffffffff168152602001600015158152602001426001600160401b03168152602001836000015161ffff16815260200183602001516001600160a01b0316815260200163d06ca61f60e01b670de0b6b3a764000084604051602401610c1392919061223d565b60408051601f198184030181529190526020810180516001600160e01b03166001600160e01b03199093169290921790915290528551869086908110610c5b57610c5b612206565b6020908102919091010152505050600101610a56565b5060006040518060c00160405280600260ff1681526020017f00000000000000000000000000000000000000000000000000000000000000006001600160a01b031663416ecebf6040518163ffffffff1660e01b8152600401602060405180830381865afa158015610ce7573d6000803e3d6000fd5b505050506040513d601f19601f82011682018060405250810190610d0b919061229f565b63ffffffff168152602001600015158152602001426001600160401b03168152602001600f61ffff168152602001306001600160a01b03168152509050610d54600083836115e8565b935050505090565b610d64611435565b6108a8610d718284612337565b611614565b63ffffffff8416600090815260026020908152604080832061ffff87168452909152812080546060929190610daa906121bc565b80601f0160208091040260200160405190810160405280929190818152602001828054610dd6906121bc565b8015610e235780601f10610df857610100808354040283529160200191610e23565b820191906000526020600020905b815481529060010190602001808311610e0657829003601f168201915b505050505090508051600003610e735783838080601f0160208091040260200160405190810160405280939291908181526020018383808284376000920191909152509294506109bf9350505050565b6000839003610e835790506109bf565b60028310610f0157610eca84848080601f01602080910402602001604051908101604052809392919081815260200183838082843760009201919091525061172692505050565b80610ed8846002818861245b565b604051602001610eea93929190612485565b6040516020818303038152906040529150506109bf565b8383604051639a6d49cd60e01b81526004016107c79291906124ad565b610f26611435565b60405163ca5eb5e160e01b81526001600160a01b0382811660048301527f0000000000000000000000000000000000000000000000000000000000000000169063ca5eb5e190602401600060405180830381600087803b158015610f8957600080fd5b505af1158015610f9d573d6000803e3d6000fd5b5050505050565b60048181548110610fb457600080fd5b9060005260206000209060089182820401919006600402915054906101000a900463ffffffff1681565b606060408210156110315760405162461bcd60e51b815260206004820152601760248201527f496e76616c696420726573706f6e7365206c656e67746800000000000000000060448201526064016107c7565b600061103f838501856124dc565b905060028151101561108c5760405162461bcd60e51b8152602060048201526016602482015275092dcecc2d8d2c840c2dadeeadce8e640d8cadccee8d60531b60448201526064016107c7565b6000816001815181106110a1576110a1612206565b60200260200101519050806040516020016110be91815260200190565b60405160208183030381529060405292505050949350505050565b60606003821461112b5760405162461bcd60e51b815260206004820181905260248201527f457870656374656420726573706f6e7365732066726f6d203320636861696e7360448201526064016107c7565b6000805b8381101561118157600085858381811061114b5761114b612206565b905060200281019061115d9190612561565b81019061116a9190612090565b9050611176818461221c565b92505060010161112f565b50600061118e84836125a7565b9050806040516020016110be91815260200190565b6111ab611435565b6111c182826111bb576000611462565b30611462565b506003805463ffffffff191663ffffffff92909216919091179055565b6111e6611435565b6001600160a01b03811661121057604051631e4fbdf760e01b8152600060048201526024016107c7565b611219816114b7565b50565b60006020820180359060019083906112349086611f15565b63ffffffff1681526020810191909152604001600020541492915050565b63ffffffff8116600090815260016020526040812054806108905760405163f6ff4fb760e01b815263ffffffff841660048201526024016107c7565b602084146112d75760405162461bcd60e51b8152602060048201526016602482015275092dcecc2d8d2c840dacae6e6c2ceca40d8cadccee8d60531b60448201526064016107c7565b60006112e585870187612090565b90507f3733046b677c6acde07c9cc7ad3f15345eb8ed2259cd927bb539b59b580eab0e8160405161131891815260200190565b60405180910390a15050505050505050565b611332611bcf565b60006113418460000151611752565b60208501519091501561135b5761135b846020015161177a565b7f00000000000000000000000000000000000000000000000000000000000000006001600160a01b0316632637a450826040518060a001604052808b63ffffffff1681526020016113ab8c611252565b81526020018a815260200189815260200160008960200151111515815250866040518463ffffffff1660e01b81526004016113e79291906125c9565b60806040518083038185885af1158015611405573d6000803e3d6000fd5b50505050506040513d601f19601f8201168201806040525081019061142a9190612690565b979650505050505050565b6000546001600160a01b031633146109635760405163118cdaa760e01b81523360048201526024016107c7565b63ffffffff8216600081815260016020908152604091829020849055815192835282018390527f238399d427b947898edb290f5ff0f9109849b1c3ba196a42e35f00c50a54b98b910160405180910390a15050565b600080546001600160a01b038381166001600160a01b0319831681178455604051919092169283917f8be0079c531659141344cd1fd0a4f28419497f9722a3daafe3b4186f6b6457e09190a35050565b60408051808201909152600080825260208201527f00000000000000000000000000000000000000000000000000000000000000006001600160a01b031663ddc28c586040518060a001604052808863ffffffff16815260200161156a89611252565b8152602001878152602001868152602001851515815250306040518363ffffffff1660e01b815260040161159f9291906125c9565b6040805180830381865afa1580156115bb573d6000803e3d6000fd5b505050506040513d601f19601f820116820180604052508101906115df91906126e6565b95945050505050565b606060006115f6858561185c565b9050826020015163ffffffff166000146109bf576115df81846118ec565b60005b81518110156116eb5761164682828151811061163557611635612206565b602002602001015160400151611726565b81818151811061165857611658612206565b6020026020010151604001516002600084848151811061167a5761167a612206565b60200260200101516000015163ffffffff1663ffffffff16815260200190815260200160002060008484815181106116b4576116b4612206565b60200260200101516020015161ffff1661ffff16815260200190815260200160002090816116e29190612752565b50600101611617565b507fbe4864a8e820971c0247f5992e2da559595f7bf076a21cb5928d443d2a13b6748160405161171b9190612811565b60405180910390a150565b600281015161ffff81166003146108a85781604051639a6d49cd60e01b81526004016107c79190611e87565b6000813414611776576040516304fb820960e51b81523460048201526024016107c7565b5090565b60007f00000000000000000000000000000000000000000000000000000000000000006001600160a01b031663e4fe1d946040518163ffffffff1660e01b8152600401602060405180830381865afa1580156117da573d6000803e3d6000fd5b505050506040513d601f19601f820116820180604052508101906117fe919061289c565b90506001600160a01b038116611827576040516329b99a9560e11b815260040160405180910390fd5b6108a86001600160a01b038216337f00000000000000000000000000000000000000000000000000000000000000008561193f565b6060600060018461186d855161199f565b6040516001600160f01b031960f094851b8116602083015292841b83166022820152921b166024820152602601604051602081830303815290604052905060005b83518110156118e4576118da828583815181106118cd576118cd612206565b60200260200101516119ce565b91506001016118ae565b509392505050565b606082600180846000015185602001518660400151876060015188608001518960a00151604051602001611928999897969594939291906128b9565b604051602081830303815290604052905092915050565b604080516001600160a01b0385811660248301528416604482015260648082018490528251808303909101815260849091019091526020810180516001600160e01b03166323b872dd60e01b179052611999908590611a60565b50505050565b600061ffff821115611776576040516306dfcc6560e41b815260106004820152602481018390526044016107c7565b60606000836001846000015160016119f68760c001515160236119f1919061221c565b61199f565b602080890151604051611a0e9796959493920161297f565b60408051601f19818403018152828252908501516060860151608087015160a088015160c0890151949650611a48958795906020016129f2565b60405160208183030381529060405291505092915050565b6000611a756001600160a01b03841683611ac8565b90508051600014158015611a9a575080806020019051810190611a989190612a74565b155b15611ac357604051635274afe760e01b81526001600160a01b03841660048201526024016107c7565b505050565b60606109ab8383600084600080856001600160a01b03168486604051611aee9190612a91565b60006040518083038185875af1925050503d8060008114611b2b576040519150601f19603f3d011682016040523d82523d6000602084013e611b30565b606091505b5091509150611b40868383611b4a565b9695505050505050565b606082611b5f57611b5a82611ba6565b6109ab565b8151158015611b7657506001600160a01b0384163b155b15611b9f57604051639996b31560e01b81526001600160a01b03851660048201526024016107c7565b50806109ab565b805115611bb65780518082602001fd5b604051630a12f52160e11b815260040160405180910390fd5b60405180606001604052806000801916815260200160006001600160401b03168152602001611c11604051806040016040528060008152602001600081525090565b905290565b600060608284031215611c2857600080fd5b50919050565b60008083601f840112611c4057600080fd5b5081356001600160401b03811115611c5757600080fd5b602083019150836020828501011115611c6f57600080fd5b9250929050565b6001600160a01b038116811461121957600080fd5b600080600080600080600060e0888a031215611ca657600080fd5b611cb08989611c16565b96506060880135955060808801356001600160401b0380821115611cd357600080fd5b611cdf8b838c01611c2e565b909750955060a08a01359150611cf482611c76565b90935060c08901359080821115611d0a57600080fd5b50611d178a828b01611c2e565b989b979a50959850939692959293505050565b60008060208385031215611d3d57600080fd5b82356001600160401b03811115611d5357600080fd5b611d5f85828601611c2e565b90969095509350505050565b6000608082019050825182526001600160401b0360208401511660208301526040830151611da6604084018280518252602090810151910152565b5092915050565b63ffffffff8116811461121957600080fd5b60008060408385031215611dd257600080fd5b8235611ddd81611dad565b946020939093013593505050565b803561ffff81168114611dfd57600080fd5b919050565b60008060408385031215611e1557600080fd5b8235611e2081611dad565b9150611e2e60208401611deb565b90509250929050565b60005b83811015611e52578181015183820152602001611e3a565b50506000910152565b60008151808452611e73816020860160208601611e37565b601f01601f19169290920160200192915050565b6020815260006109ab6020830184611e5b565b801515811461121957600080fd5b600080600060408486031215611ebd57600080fd5b83356001600160401b03811115611ed357600080fd5b611edf86828701611c2e565b9094509250506020840135611ef381611e9a565b809150509250925092565b815181526020808301519082015260408101610890565b600060208284031215611f2757600080fd5b81356109ab81611dad565b60008060008060a08587031215611f4857600080fd5b611f528686611c16565b935060608501356001600160401b03811115611f6d57600080fd5b611f7987828801611c2e565b9094509250506080850135611f8d81611c76565b939692955090935050565b60008083601f840112611faa57600080fd5b5081356001600160401b03811115611fc157600080fd5b6020830191508360208260051b8501011115611c6f57600080fd5b60008060208385031215611fef57600080fd5b82356001600160401b0381111561200557600080fd5b611d5f85828601611f98565b6000806000806060858703121561202757600080fd5b843561203281611dad565b935061204060208601611deb565b925060408501356001600160401b0381111561205b57600080fd5b61206787828801611c2e565b95989497509550505050565b60006020828403121561208557600080fd5b81356109ab81611c76565b6000602082840312156120a257600080fd5b5035919050565b600080600080604085870312156120bf57600080fd5b84356001600160401b03808211156120d657600080fd5b6120e288838901611c2e565b909650945060208701359150808211156120fb57600080fd5b5061206787828801611c2e565b6000806000806040858703121561211e57600080fd5b84356001600160401b038082111561213557600080fd5b61214188838901611c2e565b9096509450602087013591508082111561215a57600080fd5b5061206787828801611f98565b6000806040838503121561217a57600080fd5b823561218581611dad565b9150602083013561219581611e9a565b809150509250929050565b6000606082840312156121b257600080fd5b6109ab8383611c16565b600181811c908216806121d057607f821691505b602082108103611c2857634e487b7160e01b600052602260045260246000fd5b634e487b7160e01b600052604160045260246000fd5b634e487b7160e01b600052603260045260246000fd5b8082018082111561089057634e487b7160e01b600052601160045260246000fd5b6000604082016001600160401b038516835260206040602085015281855180845260608601915060208701935060005b818110156122925784516001600160a01b03168352938301939183019160010161226d565b5090979650505050505050565b6000602082840312156122b157600080fd5b81516109ab81611dad565b604051606081016001600160401b03811182821017156122de576122de6121f0565b60405290565b604051601f8201601f191681016001600160401b038111828210171561230c5761230c6121f0565b604052919050565b60006001600160401b0382111561232d5761232d6121f0565b5060051b60200190565b600061234a61234584612314565b6122e4565b80848252602080830192508560051b85013681111561236857600080fd5b855b8181101561244f5780356001600160401b038082111561238a5760008081fd5b8189019150606082360312156123a05760008081fd5b6123a86122bc565b82356123b381611dad565b81526123c0838701611deb565b86820152604080840135838111156123d85760008081fd5b9390930192601f36818601126123ee5760008081fd5b843584811115612400576124006121f0565b612411818301601f19168a016122e4565b9450808552368982880101111561242a57600091508182fd5b808987018a87013760009085018901525081019190915286525093820193820161236a565b50919695505050505050565b6000808585111561246b57600080fd5b8386111561247857600080fd5b5050820193919092039150565b60008451612497818460208901611e37565b8201838582376000930192835250909392505050565b60208152816020820152818360408301376000818301604090810191909152601f909201601f19160101919050565b600060208083850312156124ef57600080fd5b82356001600160401b0381111561250557600080fd5b8301601f8101851361251657600080fd5b803561252461234582612314565b81815260059190911b8201830190838101908783111561254357600080fd5b928401925b8284101561142a57833582529284019290840190612548565b6000808335601e1984360301811261257857600080fd5b8301803591506001600160401b0382111561259257600080fd5b602001915036819003821315611c6f57600080fd5b6000826125c457634e487b7160e01b600052601260045260246000fd5b500490565b6040815263ffffffff8351166040820152602083015160608201526000604084015160a060808401526125ff60e0840182611e5b565b90506060850151603f198483030160a085015261261c8282611e5b565b60809690960151151560c08501525050506001600160a01b039190911660209091015290565b60006040828403121561265457600080fd5b604051604081018181106001600160401b0382111715612676576126766121f0565b604052825181526020928301519281019290925250919050565b6000608082840312156126a257600080fd5b6126aa6122bc565b8251815260208301516001600160401b03811681146126c857600080fd5b60208201526126da8460408501612642565b60408201529392505050565b6000604082840312156126f857600080fd5b6109ab8383612642565b601f821115611ac3576000816000526020600020601f850160051c8101602086101561272b5750805b601f850160051c820191505b8181101561274a57828155600101612737565b505050505050565b81516001600160401b0381111561276b5761276b6121f0565b61277f8161277984546121bc565b84612702565b602080601f8311600181146127b4576000841561279c5750858301515b600019600386901b1c1916600185901b17855561274a565b600085815260208120601f198616915b828110156127e3578886015182559484019460019091019084016127c4565b50858210156128015787850151600019600388901b60f8161c191681555b5050505050600190811b01905550565b600060208083018184528085518083526040925060408601915060408160051b87010184880160005b8381101561288e57888303603f190185528151805163ffffffff1684528781015161ffff1688850152860151606087850181905261287a81860183611e5b565b96890196945050509086019060010161283a565b509098975050505050505050565b6000602082840312156128ae57600080fd5b81516109ab81611c76565b60008a516128cb818460208f01611e37565b60f88b811b6001600160f81b031990811692850192835260f08c901b6001600160f01b03191660018401528a821b16600383015260e089901b6001600160e01b0319166004830152871515901b6008820152612936600982018760c01b6001600160c01b0319169052565b61294f601182018660f01b6001600160f01b0319169052565b61296d601382018560601b6bffffffffffffffffffffffff19169052565b6027019b9a5050505050505050505050565b60008751612991818460208c01611e37565b60f89790971b6001600160f81b0319169190960190815260f094851b6001600160f01b0319908116600183015293851b841660038201529190931b909116600582015260e09190911b6001600160e01b0319166007820152600b0192915050565b60008751612a04818460208c01611e37565b87151560f81b90830190815260c087901b6001600160c01b031916600182015260f086901b6001600160f01b0319166009820152606085901b6bffffffffffffffffffffffff1916600b8201528351612a6481601f840160208801611e37565b01601f0198975050505050505050565b600060208284031215612a8657600080fd5b81516109ab81611e9a565b60008251612aa3818460208701611e37565b919091019291505056fea2646970667358221220bd015dcc4b1bff1092f7f356906cd1d99a85d9327a22939cbe7f6d78a3edeb5464736f6c63430008160033",
  "devdoc": {
    "details": "Extends OAppRead and IOAppComputer for cross-chain read and compute operations.",
    "errors": {
      "AddressEmptyCode(address)": [
        {
          "details": "There's no code at `target` (it is not a contract)."
        }
      ],
      "AddressInsufficientBalance(address)": [
        {
          "details": "The ETH balance of the account is not enough to perform the operation."
        }
      ],
      "FailedInnerCall()": [
        {
          "details": "A call to an address target failed. The target may have reverted."
        }
      ],
      "OwnableInvalidOwner(address)": [
        {
          "details": "The owner is not a valid owner account. (eg. `address(0)`)"
        }
      ],
      "OwnableUnauthorizedAccount(address)": [
        {
          "details": "The caller account is not authorized to perform an operation."
        }
      ],
      "SafeCastOverflowedUintDowncast(uint8,uint256)": [
        {
          "details": "Value doesn't fit in an uint of `bits` size."
        }
      ],
      "SafeERC20FailedOperation(address)": [
        {
          "details": "An operation with an ERC20 token failed."
        }
      ]
    },
    "events": {
      "AggregatedPrice(uint256)": {
        "params": {
          "averagePrice": "The calculated average token price (USDC amount)."
        }
      }
    },
    "kind": "dev",
    "methods": {
      "allowInitializePath((uint32,bytes32,uint64))": {
        "details": "This indicates to the endpoint that the OApp has enabled msgs for this particular path to be received.This defaults to assuming if a peer has been set, its initialized. Can be overridden by the OApp if there is other logic to determine this.",
        "params": {
          "origin": "The origin information containing the source endpoint and sender address."
        },
        "returns": {
          "_0": "Whether the path has been initialized."
        }
      },
      "combineOptions(uint32,uint16,bytes)": {
        "details": "If there is an enforced lzReceive option: - {gasLimit: 200k, msg.value: 1 ether} AND a caller supplies a lzReceive option: {gasLimit: 100k, msg.value: 0.5 ether} - The resulting options will be {gasLimit: 300k, msg.value: 1.5 ether} when the message is executed on the remote lzReceive() function.This presence of duplicated options is handled off-chain in the verifier/executor.",
        "params": {
          "_eid": "The endpoint ID.",
          "_extraOptions": "Additional options passed by the caller.",
          "_msgType": "The OAPP message type."
        },
        "returns": {
          "_0": "options The combination of caller specified options AND enforced options."
        }
      },
      "constructor": {
        "params": {
          "_endpoint": "The LayerZero endpoint contract address.",
          "_readChannel": "The LayerZero read channel ID."
        }
      },
      "getCmd()": {
        "returns": {
          "_0": "cmd The encoded command to request Uniswap quotes."
        }
      },
      "isComposeMsgSender((uint32,bytes32,uint64),bytes,address)": {
        "details": "_origin The origin information containing the source endpoint and sender address.  - srcEid: The source chain endpoint ID.  - sender: The sender address on the src chain.  - nonce: The nonce of the message._message The lzReceive payload.Applications can optionally choose to implement separate composeMsg senders that are NOT the bridging layer.The default sender IS the OAppReceiver implementer.",
        "params": {
          "_sender": "The sender address."
        },
        "returns": {
          "_0": "isSender Is a valid sender."
        }
      },
      "lzMap(bytes,bytes)": {
        "params": {
          "_response": "The response from the read request."
        },
        "returns": {
          "_0": "Encoded token output amount (USDC amount)."
        }
      },
      "lzReceive((uint32,bytes32,uint64),bytes32,bytes,address,bytes)": {
        "details": "Entry point for receiving messages or packets from the endpoint.Entry point for receiving msg/packet from the LayerZero endpoint.",
        "params": {
          "_executor": "The address of the executor for the received message.",
          "_extraData": "Additional arbitrary data provided by the corresponding executor.",
          "_guid": "The unique identifier for the received LayerZero message.",
          "_message": "The payload of the received message.",
          "_origin": "The origin information containing the source endpoint and sender address.  - srcEid: The source chain endpoint ID.  - sender: The sender address on the src chain.  - nonce: The nonce of the message."
        }
      },
      "lzReduce(bytes,bytes[])": {
        "params": {
          "_responses": "Array of mapped responses containing token output amounts."
        },
        "returns": {
          "_0": "Encoded average token output amount."
        }
      },
      "nextNonce(uint32,bytes32)": {
        "details": "_srcEid The source endpoint ID._sender The sender address.The path nonce starts from 1. If 0 is returned it means that there is NO nonce ordered enforcement.Is required by the off-chain executor to determine the OApp expects msg execution is ordered.This is also enforced by the OApp.By default this is NOT enabled. ie. nextNonce is hardcoded to return 0.",
        "returns": {
          "nonce": "The next nonce."
        }
      },
      "oAppVersion()": {
        "returns": {
          "receiverVersion": "The version of the OAppReceiver.sol implementation.",
          "senderVersion": "The version of the OAppSender.sol implementation."
        }
      },
      "owner()": {
        "details": "Returns the address of the current owner."
      },
      "quoteAverageUniswapPrice(bytes,bool)": {
        "params": {
          "_extraOptions": "Additional messaging options.",
          "_payInLzToken": "Boolean flag indicating whether to pay in LayerZero tokens."
        },
        "returns": {
          "fee": "The estimated messaging fee."
        }
      },
      "readAverageUniswapPrice(bytes)": {
        "params": {
          "_extraOptions": "Additional messaging options, including gas and fee settings."
        },
        "returns": {
          "receipt": "The LayerZero messaging receipt for the request."
        }
      },
      "renounceOwnership()": {
        "details": "Leaves the contract without owner. It will not be possible to call `onlyOwner` functions. Can only be called by the current owner. NOTE: Renouncing ownership will leave the contract without an owner, thereby disabling any functionality that is only available to the owner."
      },
      "setDelegate(address)": {
        "details": "Only the owner/admin of the OApp can call this function.Provides the ability for a delegate to set configs, on behalf of the OApp, directly on the Endpoint contract.",
        "params": {
          "_delegate": "The address of the delegate to be set."
        }
      },
      "setEnforcedOptions((uint32,uint16,bytes)[])": {
        "details": "Sets the enforced options for specific endpoint and message type combinations.Only the owner/admin of the OApp can call this function.Provides a way for the OApp to enforce things like paying for PreCrime, AND/OR minimum dst lzReceive gas amounts etc.These enforced options can vary as the potential options/execution on the remote may differ as per the msgType. eg. Amount of lzReceive() gas necessary to deliver a lzCompose() message adds overhead you dont want to pay if you are only making a standard LayerZero message ie. lzReceive() WITHOUT sendCompose().",
        "params": {
          "_enforcedOptions": "An array of EnforcedOptionParam structures specifying enforced options."
        }
      },
      "setPeer(uint32,bytes32)": {
        "details": "Only the owner/admin of the OApp can call this function.Indicates that the peer is trusted to send LayerZero messages to this OApp.Set this to bytes32(0) to remove the peer address.Peer is a bytes32 to accommodate non-evm chains.",
        "params": {
          "_eid": "The endpoint ID.",
          "_peer": "The address of the peer to be associated with the corresponding endpoint."
        }
      },
      "setReadChannel(uint32,bool)": {
        "params": {
          "_active": "Flag to activate or deactivate the channel.",
          "_channelId": "The channel ID to set."
        }
      },
      "transferOwnership(address)": {
        "details": "Transfers ownership of the contract to a new account (`newOwner`). Can only be called by the current owner."
      }
    },
    "title": "UniswapQuoteDemo",
    "version": 1
  },
  "userdoc": {
    "events": {
      "AggregatedPrice(uint256)": {
        "notice": "Emitted when the aggregated average token price is computed and received."
      }
    },
    "kind": "user",
    "methods": {
      "READ_CHANNEL()": {
        "notice": "LayerZero read channel ID."
      },
      "allowInitializePath((uint32,bytes32,uint64))": {
        "notice": "Checks if the path initialization is allowed based on the provided origin."
      },
      "chainConfigs(uint32)": {
        "notice": "Mapping to store chain configurations indexed by target chain ID (targetEid)."
      },
      "combineOptions(uint32,uint16,bytes)": {
        "notice": "Combines options for a given endpoint and message type."
      },
      "constructor": {
        "notice": "Constructor to initialize the UniswapQuoteDemoSimplified contract with hardcoded chain configurations."
      },
      "endpoint()": {
        "notice": "Retrieves the LayerZero endpoint associated with the OApp."
      },
      "getCmd()": {
        "notice": "Constructs a command to query the Uniswap Router02 for WETH/USDC prices on all configured chains."
      },
      "isComposeMsgSender((uint32,bytes32,uint64),bytes,address)": {
        "notice": "Indicates whether an address is an approved composeMsg sender to the Endpoint."
      },
      "lzMap(bytes,bytes)": {
        "notice": "Processes individual Uniswap Router02 responses, encoding the result."
      },
      "lzReduce(bytes,bytes[])": {
        "notice": "Aggregates individual token output amounts to compute an average."
      },
      "nextNonce(uint32,bytes32)": {
        "notice": "Retrieves the next nonce for a given source endpoint and sender address."
      },
      "oAppVersion()": {
        "notice": "Retrieves the OApp version information."
      },
      "peers(uint32)": {
        "notice": "Retrieves the peer (OApp) associated with a corresponding endpoint."
      },
      "quoteAverageUniswapPrice(bytes,bool)": {
        "notice": "Quotes the estimated messaging fee for querying Uniswap Router02 for WETH/USDC prices."
      },
      "readAverageUniswapPrice(bytes)": {
        "notice": "Sends a read request to LayerZero, querying Uniswap Router02 for WETH/USDC prices on configured chains."
      },
      "setDelegate(address)": {
        "notice": "Sets the delegate address for the OApp."
      },
      "setPeer(uint32,bytes32)": {
        "notice": "Sets the peer address (OApp instance) for a corresponding endpoint."
      },
      "setReadChannel(uint32,bool)": {
        "notice": "Sets the LayerZero read channel, enabling or disabling it based on `_active`."
      },
      "targetEids(uint256)": {
        "notice": "Array to store all active targetEids for iteration."
      }
    },
    "notice": "Simplified contract to query WETH/USDC prices on three chains and compute their average using LayerZero.",
    "version": 1
  },
  "storageLayout": {
    "storage": [
      {
        "astId": 2625,
        "contract": "contracts/UniswapQuoteDemo.sol:UniswapQuoteDemo",
        "label": "_owner",
        "offset": 0,
        "slot": "0",
        "type": "t_address"
      },
      {
        "astId": 938,
        "contract": "contracts/UniswapQuoteDemo.sol:UniswapQuoteDemo",
        "label": "peers",
        "offset": 0,
        "slot": "1",
        "type": "t_mapping(t_uint32,t_bytes32)"
      },
      {
        "astId": 1582,
        "contract": "contracts/UniswapQuoteDemo.sol:UniswapQuoteDemo",
        "label": "enforcedOptions",
        "offset": 0,
        "slot": "2",
        "type": "t_mapping(t_uint32,t_mapping(t_uint16,t_bytes_storage))"
      },
      {
        "astId": 5256,
        "contract": "contracts/UniswapQuoteDemo.sol:UniswapQuoteDemo",
        "label": "READ_CHANNEL",
        "offset": 0,
        "slot": "3",
        "type": "t_uint32"
      },
      {
        "astId": 5270,
        "contract": "contracts/UniswapQuoteDemo.sol:UniswapQuoteDemo",
        "label": "targetEids",
        "offset": 0,
        "slot": "4",
        "type": "t_array(t_uint32)dyn_storage"
      },
      {
        "astId": 5276,
        "contract": "contracts/UniswapQuoteDemo.sol:UniswapQuoteDemo",
        "label": "chainConfigs",
        "offset": 0,
        "slot": "5",
        "type": "t_mapping(t_uint32,t_struct(ChainConfig)5266_storage)"
      }
    ],
    "types": {
      "t_address": {
        "encoding": "inplace",
        "label": "address",
        "numberOfBytes": "20"
      },
      "t_array(t_uint32)dyn_storage": {
        "base": "t_uint32",
        "encoding": "dynamic_array",
        "label": "uint32[]",
        "numberOfBytes": "32"
      },
      "t_bytes32": {
        "encoding": "inplace",
        "label": "bytes32",
        "numberOfBytes": "32"
      },
      "t_bytes_storage": {
        "encoding": "bytes",
        "label": "bytes",
        "numberOfBytes": "32"
      },
      "t_mapping(t_uint16,t_bytes_storage)": {
        "encoding": "mapping",
        "key": "t_uint16",
        "label": "mapping(uint16 => bytes)",
        "numberOfBytes": "32",
        "value": "t_bytes_storage"
      },
      "t_mapping(t_uint32,t_bytes32)": {
        "encoding": "mapping",
        "key": "t_uint32",
        "label": "mapping(uint32 => bytes32)",
        "numberOfBytes": "32",
        "value": "t_bytes32"
      },
      "t_mapping(t_uint32,t_mapping(t_uint16,t_bytes_storage))": {
        "encoding": "mapping",
        "key": "t_uint32",
        "label": "mapping(uint32 => mapping(uint16 => bytes))",
        "numberOfBytes": "32",
        "value": "t_mapping(t_uint16,t_bytes_storage)"
      },
      "t_mapping(t_uint32,t_struct(ChainConfig)5266_storage)": {
        "encoding": "mapping",
        "key": "t_uint32",
        "label": "mapping(uint32 => struct UniswapQuoteDemo.ChainConfig)",
        "numberOfBytes": "32",
        "value": "t_struct(ChainConfig)5266_storage"
      },
      "t_struct(ChainConfig)5266_storage": {
        "encoding": "inplace",
        "label": "struct UniswapQuoteDemo.ChainConfig",
        "members": [
          {
            "astId": 5259,
            "contract": "contracts/UniswapQuoteDemo.sol:UniswapQuoteDemo",
            "label": "confirmations",
            "offset": 0,
            "slot": "0",
            "type": "t_uint16"
          },
          {
            "astId": 5261,
            "contract": "contracts/UniswapQuoteDemo.sol:UniswapQuoteDemo",
            "label": "routerAddress",
            "offset": 2,
            "slot": "0",
            "type": "t_address"
          },
          {
            "astId": 5263,
            "contract": "contracts/UniswapQuoteDemo.sol:UniswapQuoteDemo",
            "label": "wethAddress",
            "offset": 0,
            "slot": "1",
            "type": "t_address"
          },
          {
            "astId": 5265,
            "contract": "contracts/UniswapQuoteDemo.sol:UniswapQuoteDemo",
            "label": "usdcAddress",
            "offset": 0,
            "slot": "2",
            "type": "t_address"
          }
        ],
        "numberOfBytes": "96"
      },
      "t_uint16": {
        "encoding": "inplace",
        "label": "uint16",
        "numberOfBytes": "2"
      },
      "t_uint32": {
        "encoding": "inplace",
        "label": "uint32",
        "numberOfBytes": "4"
      }
    }
  }
}