{"abi":[{"type":"function","name":"BASE_ASSET_BRIDGE_ADDRESS","inputs":[],"outputs":[{"name":"","type":"address","internalType":"address"}],"stateMutability":"view"},{"type":"function","name":"BASE_ASSET_BRIDGE_ADDRESS_UINT256","inputs":[],"outputs":[{"name":"","type":"uint256","internalType":"uint256"}],"stateMutability":"view"},{"type":"function","name":"VALID_COMPOSE_MESSAGE_LENGTH_PACKED","inputs":[],"outputs":[{"name":"","type":"uint256","internalType":"uint256"}],"stateMutability":"view"},{"type":"error","name":"HyperLiquidComposer_Codec_InvalidMessage_UnexpectedLength","inputs":[{"name":"message","type":"bytes","internalType":"bytes"},{"name":"length","type":"uint256","internalType":"uint256"}]}],"bytecode":{"object":"0x60f2610034600b8282823980515f1a60731461002857634e487b7160e01b5f525f60045260245ffd5b305f52607381538281f3fe73000000000000000000000000000000000000000030146080604052600436106046575f3560e01c806303e41b7714604a578063807d6c3f146077578063d58daedf14607e575b5f80fd5b606473200000000000000000000000000000000000000081565b6040519081526020015b60405180910390f35b6064601481565b609873200000000000000000000000000000000000000081565b60405173ffffffffffffffffffffffffffffffffffffffff9091168152602001606e56fea2646970667358221220f8cc1530e4c78735c7ca76b3624ed725d9954e0b8b3f71de437cdaf46eb6fd7764736f6c63430008160033","linkReferences":{}},"methodIdentifiers":{"BASE_ASSET_BRIDGE_ADDRESS()":"d58daedf","BASE_ASSET_BRIDGE_ADDRESS_UINT256()":"03e41b77","VALID_COMPOSE_MESSAGE_LENGTH_PACKED()":"807d6c3f"},"id":82}